{
	"Business Contract/BusinessHelper/IDT.sol": {
		"IDT": {
			"abi": [
				{
					"inputs": [],
					"name": "dnow",
					"outputs": [
						{
							"internalType": "uint16",
							"name": "year",
							"type": "uint16"
						},
						{
							"internalType": "uint8",
							"name": "month",
							"type": "uint8"
						},
						{
							"internalType": "uint8",
							"name": "day",
							"type": "uint8"
						}
					],
					"stateMutability": "view",
					"type": "function"
				},
				{
					"inputs": [
						{
							"internalType": "uint256",
							"name": "timestamp",
							"type": "uint256"
						}
					],
					"name": "getDay",
					"outputs": [
						{
							"internalType": "uint8",
							"name": "",
							"type": "uint8"
						}
					],
					"stateMutability": "pure",
					"type": "function"
				},
				{
					"inputs": [
						{
							"internalType": "uint8",
							"name": "month",
							"type": "uint8"
						},
						{
							"internalType": "uint16",
							"name": "year",
							"type": "uint16"
						}
					],
					"name": "getDaysInMonth",
					"outputs": [
						{
							"internalType": "uint8",
							"name": "",
							"type": "uint8"
						}
					],
					"stateMutability": "pure",
					"type": "function"
				},
				{
					"inputs": [
						{
							"internalType": "uint256",
							"name": "timestamp",
							"type": "uint256"
						}
					],
					"name": "getHour",
					"outputs": [
						{
							"internalType": "uint8",
							"name": "",
							"type": "uint8"
						}
					],
					"stateMutability": "pure",
					"type": "function"
				},
				{
					"inputs": [
						{
							"internalType": "uint256",
							"name": "timestamp",
							"type": "uint256"
						}
					],
					"name": "getMinute",
					"outputs": [
						{
							"internalType": "uint8",
							"name": "",
							"type": "uint8"
						}
					],
					"stateMutability": "pure",
					"type": "function"
				},
				{
					"inputs": [
						{
							"internalType": "uint256",
							"name": "timestamp",
							"type": "uint256"
						}
					],
					"name": "getMonth",
					"outputs": [
						{
							"internalType": "uint8",
							"name": "",
							"type": "uint8"
						}
					],
					"stateMutability": "pure",
					"type": "function"
				},
				{
					"inputs": [
						{
							"internalType": "uint256",
							"name": "timestamp",
							"type": "uint256"
						}
					],
					"name": "getSecond",
					"outputs": [
						{
							"internalType": "uint8",
							"name": "",
							"type": "uint8"
						}
					],
					"stateMutability": "pure",
					"type": "function"
				},
				{
					"inputs": [
						{
							"internalType": "uint256",
							"name": "timestamp",
							"type": "uint256"
						}
					],
					"name": "getWeekday",
					"outputs": [
						{
							"internalType": "uint8",
							"name": "",
							"type": "uint8"
						}
					],
					"stateMutability": "pure",
					"type": "function"
				},
				{
					"inputs": [
						{
							"internalType": "uint256",
							"name": "timestamp",
							"type": "uint256"
						}
					],
					"name": "getYear",
					"outputs": [
						{
							"internalType": "uint16",
							"name": "",
							"type": "uint16"
						}
					],
					"stateMutability": "pure",
					"type": "function"
				},
				{
					"inputs": [
						{
							"internalType": "uint16",
							"name": "year",
							"type": "uint16"
						}
					],
					"name": "isLeapYear",
					"outputs": [
						{
							"internalType": "bool",
							"name": "",
							"type": "bool"
						}
					],
					"stateMutability": "pure",
					"type": "function"
				},
				{
					"inputs": [
						{
							"internalType": "uint256",
							"name": "year",
							"type": "uint256"
						}
					],
					"name": "leapYearsBefore",
					"outputs": [
						{
							"internalType": "uint256",
							"name": "",
							"type": "uint256"
						}
					],
					"stateMutability": "pure",
					"type": "function"
				},
				{
					"inputs": [
						{
							"internalType": "uint256",
							"name": "timestamp",
							"type": "uint256"
						}
					],
					"name": "parseTimestamp",
					"outputs": [
						{
							"components": [
								{
									"internalType": "uint16",
									"name": "year",
									"type": "uint16"
								},
								{
									"internalType": "uint8",
									"name": "month",
									"type": "uint8"
								},
								{
									"internalType": "uint8",
									"name": "day",
									"type": "uint8"
								},
								{
									"internalType": "uint8",
									"name": "hour",
									"type": "uint8"
								},
								{
									"internalType": "uint8",
									"name": "minute",
									"type": "uint8"
								},
								{
									"internalType": "uint8",
									"name": "second",
									"type": "uint8"
								},
								{
									"internalType": "uint8",
									"name": "weekday",
									"type": "uint8"
								}
							],
							"internalType": "struct IDT._DateTime",
							"name": "dt",
							"type": "tuple"
						}
					],
					"stateMutability": "pure",
					"type": "function"
				},
				{
					"inputs": [],
					"name": "strNow",
					"outputs": [
						{
							"internalType": "string",
							"name": "",
							"type": "string"
						}
					],
					"stateMutability": "view",
					"type": "function"
				},
				{
					"inputs": [
						{
							"internalType": "uint16",
							"name": "year",
							"type": "uint16"
						},
						{
							"internalType": "uint8",
							"name": "month",
							"type": "uint8"
						},
						{
							"internalType": "uint8",
							"name": "day",
							"type": "uint8"
						},
						{
							"internalType": "uint8",
							"name": "hour",
							"type": "uint8"
						},
						{
							"internalType": "uint8",
							"name": "minute",
							"type": "uint8"
						}
					],
					"name": "toTimestamp",
					"outputs": [
						{
							"internalType": "uint256",
							"name": "timestamp",
							"type": "uint256"
						}
					],
					"stateMutability": "pure",
					"type": "function"
				},
				{
					"inputs": [
						{
							"internalType": "uint16",
							"name": "year",
							"type": "uint16"
						},
						{
							"internalType": "uint8",
							"name": "month",
							"type": "uint8"
						},
						{
							"internalType": "uint8",
							"name": "day",
							"type": "uint8"
						},
						{
							"internalType": "uint8",
							"name": "hour",
							"type": "uint8"
						}
					],
					"name": "toTimestamp",
					"outputs": [
						{
							"internalType": "uint256",
							"name": "timestamp",
							"type": "uint256"
						}
					],
					"stateMutability": "pure",
					"type": "function"
				},
				{
					"inputs": [
						{
							"internalType": "uint16",
							"name": "year",
							"type": "uint16"
						},
						{
							"internalType": "uint8",
							"name": "month",
							"type": "uint8"
						},
						{
							"internalType": "uint8",
							"name": "day",
							"type": "uint8"
						}
					],
					"name": "toTimestamp",
					"outputs": [
						{
							"internalType": "uint256",
							"name": "timestamp",
							"type": "uint256"
						}
					],
					"stateMutability": "pure",
					"type": "function"
				},
				{
					"inputs": [
						{
							"internalType": "uint16",
							"name": "year",
							"type": "uint16"
						},
						{
							"internalType": "uint8",
							"name": "month",
							"type": "uint8"
						},
						{
							"internalType": "uint8",
							"name": "day",
							"type": "uint8"
						},
						{
							"internalType": "uint8",
							"name": "hour",
							"type": "uint8"
						},
						{
							"internalType": "uint8",
							"name": "minute",
							"type": "uint8"
						},
						{
							"internalType": "uint8",
							"name": "second",
							"type": "uint8"
						}
					],
					"name": "toTimestamp",
					"outputs": [
						{
							"internalType": "uint256",
							"name": "timestamp",
							"type": "uint256"
						}
					],
					"stateMutability": "pure",
					"type": "function"
				}
			],
			"devdoc": {
				"kind": "dev",
				"methods": {},
				"version": 1
			},
			"evm": {
				"assembly": "    /* \"Business Contract/BusinessHelper/IDT.sol\":111:9245  library IDT {... */\n  dataSize(sub_0)\n  dataOffset(sub_0)\n  0x0b\n  dup3\n  dup3\n  dup3\n  codecopy\n  dup1\n  mload\n  0x00\n  byte\n  0x73\n  eq\n  tag_1\n  jumpi\n  mstore(0x00, 0x4e487b7100000000000000000000000000000000000000000000000000000000)\n  mstore(0x04, 0x00)\n  revert(0x00, 0x24)\ntag_1:\n  mstore(0x00, address)\n  0x73\n  dup2\n  mstore8\n  dup3\n  dup2\n  return\nstop\n\nsub_0: assembly {\n        /* \"Business Contract/BusinessHelper/IDT.sol\":111:9245  library IDT {... */\n      eq(address, deployTimeAddress())\n      mstore(0x40, 0x80)\n      jumpi(tag_1, lt(calldatasize, 0x04))\n      shr(0xe0, calldataload(0x00))\n      dup1\n      0x92d66313\n      gt\n      tag_19\n      jumpi\n      dup1\n      0xb1999937\n      gt\n      tag_20\n      jumpi\n      dup1\n      0xb1999937\n      eq\n      tag_14\n      jumpi\n      dup1\n      0xb238ad0e\n      eq\n      tag_15\n      jumpi\n      dup1\n      0xeb3334c5\n      eq\n      tag_16\n      jumpi\n      dup1\n      0xf97d0591\n      eq\n      tag_17\n      jumpi\n      dup1\n      0xfa93f883\n      eq\n      tag_18\n      jumpi\n      jump(tag_1)\n    tag_20:\n      dup1\n      0x92d66313\n      eq\n      tag_10\n      jumpi\n      dup1\n      0xa324ad24\n      eq\n      tag_11\n      jumpi\n      dup1\n      0xa6f0e577\n      eq\n      tag_12\n      jumpi\n      dup1\n      0xa9a295ad\n      eq\n      tag_13\n      jumpi\n      jump(tag_1)\n    tag_19:\n      dup1\n      0x7f791833\n      gt\n      tag_21\n      jumpi\n      dup1\n      0x7f791833\n      eq\n      tag_6\n      jumpi\n      dup1\n      0x8aa001fc\n      eq\n      tag_7\n      jumpi\n      dup1\n      0x8c8d98a0\n      eq\n      tag_8\n      jumpi\n      dup1\n      0x9054bdec\n      eq\n      tag_9\n      jumpi\n      jump(tag_1)\n    tag_21:\n      dup1\n      0x3e239e1a\n      eq\n      tag_2\n      jumpi\n      dup1\n      0x4ac1ad78\n      eq\n      tag_3\n      jumpi\n      dup1\n      0x62ba9687\n      eq\n      tag_4\n      jumpi\n      dup1\n      0x65c72840\n      eq\n      tag_5\n      jumpi\n    tag_1:\n      0x00\n      dup1\n      revert\n        /* \"Business Contract/BusinessHelper/IDT.sol\":6291:6423  function getHour(uint timestamp) public pure returns (uint8) {... */\n    tag_2:\n      tag_22\n      0x04\n      dup1\n      calldatasize\n      sub\n      dup2\n      add\n      swap1\n      tag_23\n      swap2\n      swap1\n      tag_24\n      jump\t// in\n    tag_23:\n      tag_25\n      jump\t// in\n    tag_22:\n      mload(0x40)\n      tag_26\n      swap2\n      swap1\n      tag_27\n      jump\t// in\n    tag_26:\n      mload(0x40)\n      dup1\n      swap2\n      sub\n      swap1\n      return\n        /* \"Business Contract/BusinessHelper/IDT.sol\":6710:6855  function getWeekday(uint timestamp) public pure returns (uint8) {... */\n    tag_3:\n      tag_28\n      0x04\n      dup1\n      calldatasize\n      sub\n      dup2\n      add\n      swap1\n      tag_29\n      swap2\n      swap1\n      tag_24\n      jump\t// in\n    tag_29:\n      tag_30\n      jump\t// in\n    tag_28:\n      mload(0x40)\n      tag_31\n      swap2\n      swap1\n      tag_27\n      jump\t// in\n    tag_31:\n      mload(0x40)\n      dup1\n      swap2\n      sub\n      swap1\n      return\n        /* \"Business Contract/BusinessHelper/IDT.sol\":7248:7453  function toTimestamp(uint16 year, uint8 month, uint8 day, uint8 hour, uint8 minute) public pure returns (uint timestamp) {... */\n    tag_4:\n      tag_32\n      0x04\n      dup1\n      calldatasize\n      sub\n      dup2\n      add\n      swap1\n      tag_33\n      swap2\n      swap1\n      tag_34\n      jump\t// in\n    tag_33:\n      tag_35\n      jump\t// in\n    tag_32:\n      mload(0x40)\n      tag_36\n      swap2\n      swap1\n      tag_37\n      jump\t// in\n    tag_36:\n      mload(0x40)\n      dup1\n      swap2\n      sub\n      swap1\n      return\n        /* \"Business Contract/BusinessHelper/IDT.sol\":6152:6279  function getDay(uint timestamp) public pure returns (uint8) {... */\n    tag_5:\n      tag_38\n      0x04\n      dup1\n      calldatasize\n      sub\n      dup2\n      add\n      swap1\n      tag_39\n      swap2\n      swap1\n      tag_24\n      jump\t// in\n    tag_39:\n      tag_40\n      jump\t// in\n    tag_38:\n      mload(0x40)\n      tag_41\n      swap2\n      swap1\n      tag_27\n      jump\t// in\n    tag_41:\n      mload(0x40)\n      dup1\n      swap2\n      sub\n      swap1\n      return\n        /* \"Business Contract/BusinessHelper/IDT.sol\":7050:7236  function toTimestamp(uint16 year, uint8 month, uint8 day, uint8 hour) public pure returns (uint timestamp) {... */\n    tag_6:\n      tag_42\n      0x04\n      dup1\n      calldatasize\n      sub\n      dup2\n      add\n      swap1\n      tag_43\n      swap2\n      swap1\n      tag_44\n      jump\t// in\n    tag_43:\n      tag_45\n      jump\t// in\n    tag_42:\n      mload(0x40)\n      tag_46\n      swap2\n      swap1\n      tag_37\n      jump\t// in\n    tag_46:\n      mload(0x40)\n      dup1\n      swap2\n      sub\n      swap1\n      return\n        /* \"Business Contract/BusinessHelper/IDT.sol\":6576:6698  function getSecond(uint timestamp) public pure returns (uint8) {... */\n    tag_7:\n      tag_47\n      0x04\n      dup1\n      calldatasize\n      sub\n      dup2\n      add\n      swap1\n      tag_48\n      swap2\n      swap1\n      tag_24\n      jump\t// in\n    tag_48:\n      tag_49\n      jump\t// in\n    tag_47:\n      mload(0x40)\n      tag_50\n      swap2\n      swap1\n      tag_27\n      jump\t// in\n    tag_50:\n      mload(0x40)\n      dup1\n      swap2\n      sub\n      swap1\n      return\n        /* \"Business Contract/BusinessHelper/IDT.sol\":6867:7038  function toTimestamp(uint16 year, uint8 month, uint8 day) public pure returns (uint timestamp) {... */\n    tag_8:\n      tag_51\n      0x04\n      dup1\n      calldatasize\n      sub\n      dup2\n      add\n      swap1\n      tag_52\n      swap2\n      swap1\n      tag_53\n      jump\t// in\n    tag_52:\n      tag_54\n      jump\t// in\n    tag_51:\n      mload(0x40)\n      tag_55\n      swap2\n      swap1\n      tag_37\n      jump\t// in\n    tag_55:\n      mload(0x40)\n      dup1\n      swap2\n      sub\n      swap1\n      return\n        /* \"Business Contract/BusinessHelper/IDT.sol\":7465:9242  function toTimestamp(uint16 year, uint8 month, uint8 day, uint8 hour, uint8 minute, uint8 second) public pure returns (uint timestamp) {... */\n    tag_9:\n      tag_56\n      0x04\n      dup1\n      calldatasize\n      sub\n      dup2\n      add\n      swap1\n      tag_57\n      swap2\n      swap1\n      tag_58\n      jump\t// in\n    tag_57:\n      tag_59\n      jump\t// in\n    tag_56:\n      mload(0x40)\n      tag_60\n      swap2\n      swap1\n      tag_37\n      jump\t// in\n    tag_60:\n      mload(0x40)\n      dup1\n      swap2\n      sub\n      swap1\n      return\n        /* \"Business Contract/BusinessHelper/IDT.sol\":5004:5997  function getYear(uint timestamp) public pure returns (uint16) {... */\n    tag_10:\n      tag_61\n      0x04\n      dup1\n      calldatasize\n      sub\n      dup2\n      add\n      swap1\n      tag_62\n      swap2\n      swap1\n      tag_24\n      jump\t// in\n    tag_62:\n      tag_63\n      jump\t// in\n    tag_61:\n      mload(0x40)\n      tag_64\n      swap2\n      swap1\n      tag_65\n      jump\t// in\n    tag_64:\n      mload(0x40)\n      dup1\n      swap2\n      sub\n      swap1\n      return\n        /* \"Business Contract/BusinessHelper/IDT.sol\":6009:6140  function getMonth(uint timestamp) public pure returns (uint8) {... */\n    tag_11:\n      tag_66\n      0x04\n      dup1\n      calldatasize\n      sub\n      dup2\n      add\n      swap1\n      tag_67\n      swap2\n      swap1\n      tag_24\n      jump\t// in\n    tag_67:\n      tag_68\n      jump\t// in\n    tag_66:\n      mload(0x40)\n      tag_69\n      swap2\n      swap1\n      tag_27\n      jump\t// in\n    tag_69:\n      mload(0x40)\n      dup1\n      swap2\n      sub\n      swap1\n      return\n        /* \"Business Contract/BusinessHelper/IDT.sol\":782:1175  function isLeapYear(uint16 year) public pure returns (bool) {... */\n    tag_12:\n      tag_70\n      0x04\n      dup1\n      calldatasize\n      sub\n      dup2\n      add\n      swap1\n      tag_71\n      swap2\n      swap1\n      tag_72\n      jump\t// in\n    tag_71:\n      tag_73\n      jump\t// in\n    tag_70:\n      mload(0x40)\n      tag_74\n      swap2\n      swap1\n      tag_75\n      jump\t// in\n    tag_74:\n      mload(0x40)\n      dup1\n      swap2\n      sub\n      swap1\n      return\n        /* \"Business Contract/BusinessHelper/IDT.sol\":3861:4984  function strNow()public view returns (string memory) {... */\n    tag_13:\n      tag_76\n      tag_77\n      jump\t// in\n    tag_76:\n      mload(0x40)\n      tag_78\n      swap2\n      swap1\n      tag_79\n      jump\t// in\n    tag_78:\n      mload(0x40)\n      dup1\n      swap2\n      sub\n      swap1\n      return\n        /* \"Business Contract/BusinessHelper/IDT.sol\":1187:1350  function leapYearsBefore(uint year) public pure returns (uint) {... */\n    tag_14:\n      tag_80\n      0x04\n      dup1\n      calldatasize\n      sub\n      dup2\n      add\n      swap1\n      tag_81\n      swap2\n      swap1\n      tag_24\n      jump\t// in\n    tag_81:\n      tag_82\n      jump\t// in\n    tag_80:\n      mload(0x40)\n      tag_83\n      swap2\n      swap1\n      tag_37\n      jump\t// in\n    tag_83:\n      mload(0x40)\n      dup1\n      swap2\n      sub\n      swap1\n      return\n        /* \"Business Contract/BusinessHelper/IDT.sol\":1362:1946  function getDaysInMonth(uint8 month, uint16 year) public pure returns (uint8) {... */\n    tag_15:\n      tag_84\n      0x04\n      dup1\n      calldatasize\n      sub\n      dup2\n      add\n      swap1\n      tag_85\n      swap2\n      swap1\n      tag_86\n      jump\t// in\n    tag_85:\n      tag_87\n      jump\t// in\n    tag_84:\n      mload(0x40)\n      tag_88\n      swap2\n      swap1\n      tag_27\n      jump\t// in\n    tag_88:\n      mload(0x40)\n      dup1\n      swap2\n      sub\n      swap1\n      return\n        /* \"Business Contract/BusinessHelper/IDT.sol\":3653:3849  function dnow() public view returns (uint16 year, uint8 month,uint8 day) {... */\n    tag_16:\n      tag_89\n      tag_90\n      jump\t// in\n    tag_89:\n      mload(0x40)\n      tag_91\n      swap4\n      swap3\n      swap2\n      swap1\n      tag_92\n      jump\t// in\n    tag_91:\n      mload(0x40)\n      dup1\n      swap2\n      sub\n      swap1\n      return\n        /* \"Business Contract/BusinessHelper/IDT.sol\":1958:3641  function parseTimestamp(uint timestamp) public pure returns (_DateTime memory dt) {... */\n    tag_17:\n      tag_93\n      0x04\n      dup1\n      calldatasize\n      sub\n      dup2\n      add\n      swap1\n      tag_94\n      swap2\n      swap1\n      tag_24\n      jump\t// in\n    tag_94:\n      tag_95\n      jump\t// in\n    tag_93:\n      mload(0x40)\n      tag_96\n      swap2\n      swap1\n      tag_97\n      jump\t// in\n    tag_96:\n      mload(0x40)\n      dup1\n      swap2\n      sub\n      swap1\n      return\n        /* \"Business Contract/BusinessHelper/IDT.sol\":6435:6564  function getMinute(uint timestamp) public pure returns (uint8) {... */\n    tag_18:\n      tag_98\n      0x04\n      dup1\n      calldatasize\n      sub\n      dup2\n      add\n      swap1\n      tag_99\n      swap2\n      swap1\n      tag_24\n      jump\t// in\n    tag_99:\n      tag_100\n      jump\t// in\n    tag_98:\n      mload(0x40)\n      tag_101\n      swap2\n      swap1\n      tag_27\n      jump\t// in\n    tag_101:\n      mload(0x40)\n      dup1\n      swap2\n      sub\n      swap1\n      return\n        /* \"Business Contract/BusinessHelper/IDT.sol\":6291:6423  function getHour(uint timestamp) public pure returns (uint8) {... */\n    tag_25:\n        /* \"Business Contract/BusinessHelper/IDT.sol\":6345:6350  uint8 */\n      0x00\n        /* \"Business Contract/BusinessHelper/IDT.sol\":6408:6410  24 */\n      0x18\n        /* \"Business Contract/BusinessHelper/IDT.sol\":6402:6404  60 */\n      0x3c\n        /* \"Business Contract/BusinessHelper/IDT.sol\":6397:6399  60 */\n      dup1\n        /* \"Business Contract/BusinessHelper/IDT.sol\":6385:6394  timestamp */\n      dup5\n        /* \"Business Contract/BusinessHelper/IDT.sol\":6385:6399  timestamp / 60 */\n      tag_103\n      swap2\n      swap1\n      tag_104\n      jump\t// in\n    tag_103:\n        /* \"Business Contract/BusinessHelper/IDT.sol\":6385:6404  timestamp / 60 / 60 */\n      tag_105\n      swap2\n      swap1\n      tag_104\n      jump\t// in\n    tag_105:\n        /* \"Business Contract/BusinessHelper/IDT.sol\":6384:6410  (timestamp / 60 / 60) % 24 */\n      tag_106\n      swap2\n      swap1\n      tag_107\n      jump\t// in\n    tag_106:\n        /* \"Business Contract/BusinessHelper/IDT.sol\":6371:6411  return uint8((timestamp / 60 / 60) % 24) */\n      swap1\n      pop\n        /* \"Business Contract/BusinessHelper/IDT.sol\":6291:6423  function getHour(uint timestamp) public pure returns (uint8) {... */\n      swap2\n      swap1\n      pop\n      jump\t// out\n        /* \"Business Contract/BusinessHelper/IDT.sol\":6710:6855  function getWeekday(uint timestamp) public pure returns (uint8) {... */\n    tag_30:\n        /* \"Business Contract/BusinessHelper/IDT.sol\":6767:6772  uint8 */\n      0x00\n        /* \"Business Contract/BusinessHelper/IDT.sol\":6841:6842  7 */\n      0x07\n        /* \"Business Contract/BusinessHelper/IDT.sol\":6836:6837  4 */\n      0x04\n        /* \"Business Contract/BusinessHelper/IDT.sol\":514:519  86400 */\n      0x015180\n        /* \"Business Contract/BusinessHelper/IDT.sol\":6807:6816  timestamp */\n      dup5\n        /* \"Business Contract/BusinessHelper/IDT.sol\":6807:6833  timestamp / DAY_IN_SECONDS */\n      tag_109\n      swap2\n      swap1\n      tag_104\n      jump\t// in\n    tag_109:\n        /* \"Business Contract/BusinessHelper/IDT.sol\":6807:6837  timestamp / DAY_IN_SECONDS + 4 */\n      tag_110\n      swap2\n      swap1\n      tag_111\n      jump\t// in\n    tag_110:\n        /* \"Business Contract/BusinessHelper/IDT.sol\":6806:6842  (timestamp / DAY_IN_SECONDS + 4) % 7 */\n      tag_112\n      swap2\n      swap1\n      tag_107\n      jump\t// in\n    tag_112:\n        /* \"Business Contract/BusinessHelper/IDT.sol\":6793:6843  return uint8((timestamp / DAY_IN_SECONDS + 4) % 7) */\n      swap1\n      pop\n        /* \"Business Contract/BusinessHelper/IDT.sol\":6710:6855  function getWeekday(uint timestamp) public pure returns (uint8) {... */\n      swap2\n      swap1\n      pop\n      jump\t// out\n        /* \"Business Contract/BusinessHelper/IDT.sol\":7248:7453  function toTimestamp(uint16 year, uint8 month, uint8 day, uint8 hour, uint8 minute) public pure returns (uint timestamp) {... */\n    tag_35:\n        /* \"Business Contract/BusinessHelper/IDT.sol\":7353:7367  uint timestamp */\n      0x00\n        /* \"Business Contract/BusinessHelper/IDT.sol\":7395:7441  toTimestamp(year, month, day, hour, minute, 0) */\n      tag_114\n        /* \"Business Contract/BusinessHelper/IDT.sol\":7407:7411  year */\n      dup7\n        /* \"Business Contract/BusinessHelper/IDT.sol\":7413:7418  month */\n      dup7\n        /* \"Business Contract/BusinessHelper/IDT.sol\":7420:7423  day */\n      dup7\n        /* \"Business Contract/BusinessHelper/IDT.sol\":7425:7429  hour */\n      dup7\n        /* \"Business Contract/BusinessHelper/IDT.sol\":7431:7437  minute */\n      dup7\n        /* \"Business Contract/BusinessHelper/IDT.sol\":7439:7440  0 */\n      0x00\n        /* \"Business Contract/BusinessHelper/IDT.sol\":7395:7406  toTimestamp */\n      tag_59\n        /* \"Business Contract/BusinessHelper/IDT.sol\":7395:7441  toTimestamp(year, month, day, hour, minute, 0) */\n      jump\t// in\n    tag_114:\n        /* \"Business Contract/BusinessHelper/IDT.sol\":7388:7441  return toTimestamp(year, month, day, hour, minute, 0) */\n      swap1\n      pop\n        /* \"Business Contract/BusinessHelper/IDT.sol\":7248:7453  function toTimestamp(uint16 year, uint8 month, uint8 day, uint8 hour, uint8 minute) public pure returns (uint timestamp) {... */\n      swap6\n      swap5\n      pop\n      pop\n      pop\n      pop\n      pop\n      jump\t// out\n        /* \"Business Contract/BusinessHelper/IDT.sol\":6152:6279  function getDay(uint timestamp) public pure returns (uint8) {... */\n    tag_40:\n        /* \"Business Contract/BusinessHelper/IDT.sol\":6205:6210  uint8 */\n      0x00\n        /* \"Business Contract/BusinessHelper/IDT.sol\":6238:6263  parseTimestamp(timestamp) */\n      tag_116\n        /* \"Business Contract/BusinessHelper/IDT.sol\":6253:6262  timestamp */\n      dup3\n        /* \"Business Contract/BusinessHelper/IDT.sol\":6238:6252  parseTimestamp */\n      tag_95\n        /* \"Business Contract/BusinessHelper/IDT.sol\":6238:6263  parseTimestamp(timestamp) */\n      jump\t// in\n    tag_116:\n        /* \"Business Contract/BusinessHelper/IDT.sol\":6238:6267  parseTimestamp(timestamp).day */\n      0x40\n      add\n      mload\n        /* \"Business Contract/BusinessHelper/IDT.sol\":6231:6267  return parseTimestamp(timestamp).day */\n      swap1\n      pop\n        /* \"Business Contract/BusinessHelper/IDT.sol\":6152:6279  function getDay(uint timestamp) public pure returns (uint8) {... */\n      swap2\n      swap1\n      pop\n      jump\t// out\n        /* \"Business Contract/BusinessHelper/IDT.sol\":7050:7236  function toTimestamp(uint16 year, uint8 month, uint8 day, uint8 hour) public pure returns (uint timestamp) {... */\n    tag_45:\n        /* \"Business Contract/BusinessHelper/IDT.sol\":7141:7155  uint timestamp */\n      0x00\n        /* \"Business Contract/BusinessHelper/IDT.sol\":7183:7224  toTimestamp(year, month, day, hour, 0, 0) */\n      tag_118\n        /* \"Business Contract/BusinessHelper/IDT.sol\":7195:7199  year */\n      dup6\n        /* \"Business Contract/BusinessHelper/IDT.sol\":7201:7206  month */\n      dup6\n        /* \"Business Contract/BusinessHelper/IDT.sol\":7208:7211  day */\n      dup6\n        /* \"Business Contract/BusinessHelper/IDT.sol\":7213:7217  hour */\n      dup6\n        /* \"Business Contract/BusinessHelper/IDT.sol\":7219:7220  0 */\n      0x00\n        /* \"Business Contract/BusinessHelper/IDT.sol\":7222:7223  0 */\n      dup1\n        /* \"Business Contract/BusinessHelper/IDT.sol\":7183:7194  toTimestamp */\n      tag_59\n        /* \"Business Contract/BusinessHelper/IDT.sol\":7183:7224  toTimestamp(year, month, day, hour, 0, 0) */\n      jump\t// in\n    tag_118:\n        /* \"Business Contract/BusinessHelper/IDT.sol\":7176:7224  return toTimestamp(year, month, day, hour, 0, 0) */\n      swap1\n      pop\n        /* \"Business Contract/BusinessHelper/IDT.sol\":7050:7236  function toTimestamp(uint16 year, uint8 month, uint8 day, uint8 hour) public pure returns (uint timestamp) {... */\n      swap5\n      swap4\n      pop\n      pop\n      pop\n      pop\n      jump\t// out\n        /* \"Business Contract/BusinessHelper/IDT.sol\":6576:6698  function getSecond(uint timestamp) public pure returns (uint8) {... */\n    tag_49:\n        /* \"Business Contract/BusinessHelper/IDT.sol\":6632:6637  uint8 */\n      0x00\n        /* \"Business Contract/BusinessHelper/IDT.sol\":6683:6685  60 */\n      0x3c\n        /* \"Business Contract/BusinessHelper/IDT.sol\":6671:6680  timestamp */\n      dup3\n        /* \"Business Contract/BusinessHelper/IDT.sol\":6671:6685  timestamp % 60 */\n      tag_120\n      swap2\n      swap1\n      tag_107\n      jump\t// in\n    tag_120:\n        /* \"Business Contract/BusinessHelper/IDT.sol\":6658:6686  return uint8(timestamp % 60) */\n      swap1\n      pop\n        /* \"Business Contract/BusinessHelper/IDT.sol\":6576:6698  function getSecond(uint timestamp) public pure returns (uint8) {... */\n      swap2\n      swap1\n      pop\n      jump\t// out\n        /* \"Business Contract/BusinessHelper/IDT.sol\":6867:7038  function toTimestamp(uint16 year, uint8 month, uint8 day) public pure returns (uint timestamp) {... */\n    tag_54:\n        /* \"Business Contract/BusinessHelper/IDT.sol\":6946:6960  uint timestamp */\n      0x00\n        /* \"Business Contract/BusinessHelper/IDT.sol\":6988:7026  toTimestamp(year, month, day, 0, 0, 0) */\n      tag_122\n        /* \"Business Contract/BusinessHelper/IDT.sol\":7000:7004  year */\n      dup5\n        /* \"Business Contract/BusinessHelper/IDT.sol\":7006:7011  month */\n      dup5\n        /* \"Business Contract/BusinessHelper/IDT.sol\":7013:7016  day */\n      dup5\n        /* \"Business Contract/BusinessHelper/IDT.sol\":7018:7019  0 */\n      0x00\n        /* \"Business Contract/BusinessHelper/IDT.sol\":7021:7022  0 */\n      dup1\n        /* \"Business Contract/BusinessHelper/IDT.sol\":7024:7025  0 */\n      0x00\n        /* \"Business Contract/BusinessHelper/IDT.sol\":6988:6999  toTimestamp */\n      tag_59\n        /* \"Business Contract/BusinessHelper/IDT.sol\":6988:7026  toTimestamp(year, month, day, 0, 0, 0) */\n      jump\t// in\n    tag_122:\n        /* \"Business Contract/BusinessHelper/IDT.sol\":6981:7026  return toTimestamp(year, month, day, 0, 0, 0) */\n      swap1\n      pop\n        /* \"Business Contract/BusinessHelper/IDT.sol\":6867:7038  function toTimestamp(uint16 year, uint8 month, uint8 day) public pure returns (uint timestamp) {... */\n      swap4\n      swap3\n      pop\n      pop\n      pop\n      jump\t// out\n        /* \"Business Contract/BusinessHelper/IDT.sol\":7465:9242  function toTimestamp(uint16 year, uint8 month, uint8 day, uint8 hour, uint8 minute, uint8 second) public pure returns (uint timestamp) {... */\n    tag_59:\n        /* \"Business Contract/BusinessHelper/IDT.sol\":7584:7598  uint timestamp */\n      0x00\n        /* \"Business Contract/BusinessHelper/IDT.sol\":7619:7627  uint16 i */\n      dup1\n        /* \"Business Contract/BusinessHelper/IDT.sol\":765:769  1970 */\n      0x07b2\n        /* \"Business Contract/BusinessHelper/IDT.sol\":7678:7693  i = ORIGIN_YEAR */\n      swap1\n      pop\n        /* \"Business Contract/BusinessHelper/IDT.sol\":7673:7993  for (i = ORIGIN_YEAR; i < year; i++) {... */\n    tag_124:\n        /* \"Business Contract/BusinessHelper/IDT.sol\":7699:7703  year */\n      dup8\n        /* \"Business Contract/BusinessHelper/IDT.sol\":7695:7703  i < year */\n      0xffff\n      and\n        /* \"Business Contract/BusinessHelper/IDT.sol\":7695:7696  i */\n      dup2\n        /* \"Business Contract/BusinessHelper/IDT.sol\":7695:7703  i < year */\n      0xffff\n      and\n      lt\n        /* \"Business Contract/BusinessHelper/IDT.sol\":7673:7993  for (i = ORIGIN_YEAR; i < year; i++) {... */\n      iszero\n      tag_125\n      jumpi\n        /* \"Business Contract/BusinessHelper/IDT.sol\":7741:7754  isLeapYear(i) */\n      tag_127\n        /* \"Business Contract/BusinessHelper/IDT.sol\":7752:7753  i */\n      dup2\n        /* \"Business Contract/BusinessHelper/IDT.sol\":7741:7751  isLeapYear */\n      tag_73\n        /* \"Business Contract/BusinessHelper/IDT.sol\":7741:7754  isLeapYear(i) */\n      jump\t// in\n    tag_127:\n        /* \"Business Contract/BusinessHelper/IDT.sol\":7737:7974  if (isLeapYear(i)) {... */\n      iszero\n      tag_128\n      jumpi\n        /* \"Business Contract/BusinessHelper/IDT.sol\":618:626  31622400 */\n      0x01e28500\n        /* \"Business Contract/BusinessHelper/IDT.sol\":7791:7824  timestamp += LEAP_YEAR_IN_SECONDS */\n      dup3\n      tag_129\n      swap2\n      swap1\n      tag_111\n      jump\t// in\n    tag_129:\n      swap2\n      pop\n        /* \"Business Contract/BusinessHelper/IDT.sol\":7737:7974  if (isLeapYear(i)) {... */\n      jump(tag_130)\n    tag_128:\n        /* \"Business Contract/BusinessHelper/IDT.sol\":562:570  31536000 */\n      0x01e13380\n        /* \"Business Contract/BusinessHelper/IDT.sol\":7918:7946  timestamp += YEAR_IN_SECONDS */\n      dup3\n      tag_131\n      swap2\n      swap1\n      tag_111\n      jump\t// in\n    tag_131:\n      swap2\n      pop\n        /* \"Business Contract/BusinessHelper/IDT.sol\":7737:7974  if (isLeapYear(i)) {... */\n    tag_130:\n        /* \"Business Contract/BusinessHelper/IDT.sol\":7705:7708  i++ */\n      dup1\n      dup1\n      tag_132\n      swap1\n      tag_133\n      jump\t// in\n    tag_132:\n      swap2\n      pop\n      pop\n        /* \"Business Contract/BusinessHelper/IDT.sol\":7673:7993  for (i = ORIGIN_YEAR; i < year; i++) {... */\n      jump(tag_124)\n    tag_125:\n        /* \"Business Contract/BusinessHelper/IDT.sol\":8039:8070  uint8[12] memory monthDayCounts */\n      tag_134\n      tag_135\n      jump\t// in\n    tag_134:\n        /* \"Business Contract/BusinessHelper/IDT.sol\":8109:8111  31 */\n      0x1f\n        /* \"Business Contract/BusinessHelper/IDT.sol\":8089:8103  monthDayCounts */\n      dup2\n        /* \"Business Contract/BusinessHelper/IDT.sol\":8104:8105  0 */\n      0x00\n        /* \"Business Contract/BusinessHelper/IDT.sol\":8089:8106  monthDayCounts[0] */\n      0x0c\n      dup2\n      lt\n      tag_136\n      jumpi\n      tag_137\n      tag_138\n      jump\t// in\n    tag_137:\n    tag_136:\n      0x20\n      mul\n      add\n        /* \"Business Contract/BusinessHelper/IDT.sol\":8089:8111  monthDayCounts[0] = 31 */\n      swap1\n      0xff\n      and\n      swap1\n      dup2\n      0xff\n      and\n      dup2\n      mstore\n      pop\n      pop\n        /* \"Business Contract/BusinessHelper/IDT.sol\":8134:8150  isLeapYear(year) */\n      tag_139\n        /* \"Business Contract/BusinessHelper/IDT.sol\":8145:8149  year */\n      dup10\n        /* \"Business Contract/BusinessHelper/IDT.sol\":8134:8144  isLeapYear */\n      tag_73\n        /* \"Business Contract/BusinessHelper/IDT.sol\":8134:8150  isLeapYear(year) */\n      jump\t// in\n    tag_139:\n        /* \"Business Contract/BusinessHelper/IDT.sol\":8130:8313  if (isLeapYear(year)) {... */\n      iszero\n      tag_140\n      jumpi\n        /* \"Business Contract/BusinessHelper/IDT.sol\":8199:8201  29 */\n      0x1d\n        /* \"Business Contract/BusinessHelper/IDT.sol\":8179:8193  monthDayCounts */\n      dup2\n        /* \"Business Contract/BusinessHelper/IDT.sol\":8194:8195  1 */\n      0x01\n        /* \"Business Contract/BusinessHelper/IDT.sol\":8179:8196  monthDayCounts[1] */\n      0x0c\n      dup2\n      lt\n      tag_141\n      jumpi\n      tag_142\n      tag_138\n      jump\t// in\n    tag_142:\n    tag_141:\n      0x20\n      mul\n      add\n        /* \"Business Contract/BusinessHelper/IDT.sol\":8179:8201  monthDayCounts[1] = 29 */\n      swap1\n      0xff\n      and\n      swap1\n      dup2\n      0xff\n      and\n      dup2\n      mstore\n      pop\n      pop\n        /* \"Business Contract/BusinessHelper/IDT.sol\":8130:8313  if (isLeapYear(year)) {... */\n      jump(tag_143)\n    tag_140:\n        /* \"Business Contract/BusinessHelper/IDT.sol\":8291:8293  28 */\n      0x1c\n        /* \"Business Contract/BusinessHelper/IDT.sol\":8271:8285  monthDayCounts */\n      dup2\n        /* \"Business Contract/BusinessHelper/IDT.sol\":8286:8287  1 */\n      0x01\n        /* \"Business Contract/BusinessHelper/IDT.sol\":8271:8288  monthDayCounts[1] */\n      0x0c\n      dup2\n      lt\n      tag_144\n      jumpi\n      tag_145\n      tag_138\n      jump\t// in\n    tag_145:\n    tag_144:\n      0x20\n      mul\n      add\n        /* \"Business Contract/BusinessHelper/IDT.sol\":8271:8293  monthDayCounts[1] = 28 */\n      swap1\n      0xff\n      and\n      swap1\n      dup2\n      0xff\n      and\n      dup2\n      mstore\n      pop\n      pop\n        /* \"Business Contract/BusinessHelper/IDT.sol\":8130:8313  if (isLeapYear(year)) {... */\n    tag_143:\n        /* \"Business Contract/BusinessHelper/IDT.sol\":8351:8353  31 */\n      0x1f\n        /* \"Business Contract/BusinessHelper/IDT.sol\":8331:8345  monthDayCounts */\n      dup2\n        /* \"Business Contract/BusinessHelper/IDT.sol\":8346:8347  2 */\n      0x02\n        /* \"Business Contract/BusinessHelper/IDT.sol\":8331:8348  monthDayCounts[2] */\n      0x0c\n      dup2\n      lt\n      tag_146\n      jumpi\n      tag_147\n      tag_138\n      jump\t// in\n    tag_147:\n    tag_146:\n      0x20\n      mul\n      add\n        /* \"Business Contract/BusinessHelper/IDT.sol\":8331:8353  monthDayCounts[2] = 31 */\n      swap1\n      0xff\n      and\n      swap1\n      dup2\n      0xff\n      and\n      dup2\n      mstore\n      pop\n      pop\n        /* \"Business Contract/BusinessHelper/IDT.sol\":8392:8394  30 */\n      0x1e\n        /* \"Business Contract/BusinessHelper/IDT.sol\":8372:8386  monthDayCounts */\n      dup2\n        /* \"Business Contract/BusinessHelper/IDT.sol\":8387:8388  3 */\n      0x03\n        /* \"Business Contract/BusinessHelper/IDT.sol\":8372:8389  monthDayCounts[3] */\n      0x0c\n      dup2\n      lt\n      tag_148\n      jumpi\n      tag_149\n      tag_138\n      jump\t// in\n    tag_149:\n    tag_148:\n      0x20\n      mul\n      add\n        /* \"Business Contract/BusinessHelper/IDT.sol\":8372:8394  monthDayCounts[3] = 30 */\n      swap1\n      0xff\n      and\n      swap1\n      dup2\n      0xff\n      and\n      dup2\n      mstore\n      pop\n      pop\n        /* \"Business Contract/BusinessHelper/IDT.sol\":8433:8435  31 */\n      0x1f\n        /* \"Business Contract/BusinessHelper/IDT.sol\":8413:8427  monthDayCounts */\n      dup2\n        /* \"Business Contract/BusinessHelper/IDT.sol\":8428:8429  4 */\n      0x04\n        /* \"Business Contract/BusinessHelper/IDT.sol\":8413:8430  monthDayCounts[4] */\n      0x0c\n      dup2\n      lt\n      tag_150\n      jumpi\n      tag_151\n      tag_138\n      jump\t// in\n    tag_151:\n    tag_150:\n      0x20\n      mul\n      add\n        /* \"Business Contract/BusinessHelper/IDT.sol\":8413:8435  monthDayCounts[4] = 31 */\n      swap1\n      0xff\n      and\n      swap1\n      dup2\n      0xff\n      and\n      dup2\n      mstore\n      pop\n      pop\n        /* \"Business Contract/BusinessHelper/IDT.sol\":8474:8476  30 */\n      0x1e\n        /* \"Business Contract/BusinessHelper/IDT.sol\":8454:8468  monthDayCounts */\n      dup2\n        /* \"Business Contract/BusinessHelper/IDT.sol\":8469:8470  5 */\n      0x05\n        /* \"Business Contract/BusinessHelper/IDT.sol\":8454:8471  monthDayCounts[5] */\n      0x0c\n      dup2\n      lt\n      tag_152\n      jumpi\n      tag_153\n      tag_138\n      jump\t// in\n    tag_153:\n    tag_152:\n      0x20\n      mul\n      add\n        /* \"Business Contract/BusinessHelper/IDT.sol\":8454:8476  monthDayCounts[5] = 30 */\n      swap1\n      0xff\n      and\n      swap1\n      dup2\n      0xff\n      and\n      dup2\n      mstore\n      pop\n      pop\n        /* \"Business Contract/BusinessHelper/IDT.sol\":8515:8517  31 */\n      0x1f\n        /* \"Business Contract/BusinessHelper/IDT.sol\":8495:8509  monthDayCounts */\n      dup2\n        /* \"Business Contract/BusinessHelper/IDT.sol\":8510:8511  6 */\n      0x06\n        /* \"Business Contract/BusinessHelper/IDT.sol\":8495:8512  monthDayCounts[6] */\n      0x0c\n      dup2\n      lt\n      tag_154\n      jumpi\n      tag_155\n      tag_138\n      jump\t// in\n    tag_155:\n    tag_154:\n      0x20\n      mul\n      add\n        /* \"Business Contract/BusinessHelper/IDT.sol\":8495:8517  monthDayCounts[6] = 31 */\n      swap1\n      0xff\n      and\n      swap1\n      dup2\n      0xff\n      and\n      dup2\n      mstore\n      pop\n      pop\n        /* \"Business Contract/BusinessHelper/IDT.sol\":8556:8558  31 */\n      0x1f\n        /* \"Business Contract/BusinessHelper/IDT.sol\":8536:8550  monthDayCounts */\n      dup2\n        /* \"Business Contract/BusinessHelper/IDT.sol\":8551:8552  7 */\n      0x07\n        /* \"Business Contract/BusinessHelper/IDT.sol\":8536:8553  monthDayCounts[7] */\n      0x0c\n      dup2\n      lt\n      tag_156\n      jumpi\n      tag_157\n      tag_138\n      jump\t// in\n    tag_157:\n    tag_156:\n      0x20\n      mul\n      add\n        /* \"Business Contract/BusinessHelper/IDT.sol\":8536:8558  monthDayCounts[7] = 31 */\n      swap1\n      0xff\n      and\n      swap1\n      dup2\n      0xff\n      and\n      dup2\n      mstore\n      pop\n      pop\n        /* \"Business Contract/BusinessHelper/IDT.sol\":8597:8599  30 */\n      0x1e\n        /* \"Business Contract/BusinessHelper/IDT.sol\":8577:8591  monthDayCounts */\n      dup2\n        /* \"Business Contract/BusinessHelper/IDT.sol\":8592:8593  8 */\n      0x08\n        /* \"Business Contract/BusinessHelper/IDT.sol\":8577:8594  monthDayCounts[8] */\n      0x0c\n      dup2\n      lt\n      tag_158\n      jumpi\n      tag_159\n      tag_138\n      jump\t// in\n    tag_159:\n    tag_158:\n      0x20\n      mul\n      add\n        /* \"Business Contract/BusinessHelper/IDT.sol\":8577:8599  monthDayCounts[8] = 30 */\n      swap1\n      0xff\n      and\n      swap1\n      dup2\n      0xff\n      and\n      dup2\n      mstore\n      pop\n      pop\n        /* \"Business Contract/BusinessHelper/IDT.sol\":8638:8640  31 */\n      0x1f\n        /* \"Business Contract/BusinessHelper/IDT.sol\":8618:8632  monthDayCounts */\n      dup2\n        /* \"Business Contract/BusinessHelper/IDT.sol\":8633:8634  9 */\n      0x09\n        /* \"Business Contract/BusinessHelper/IDT.sol\":8618:8635  monthDayCounts[9] */\n      0x0c\n      dup2\n      lt\n      tag_160\n      jumpi\n      tag_161\n      tag_138\n      jump\t// in\n    tag_161:\n    tag_160:\n      0x20\n      mul\n      add\n        /* \"Business Contract/BusinessHelper/IDT.sol\":8618:8640  monthDayCounts[9] = 31 */\n      swap1\n      0xff\n      and\n      swap1\n      dup2\n      0xff\n      and\n      dup2\n      mstore\n      pop\n      pop\n        /* \"Business Contract/BusinessHelper/IDT.sol\":8680:8682  30 */\n      0x1e\n        /* \"Business Contract/BusinessHelper/IDT.sol\":8659:8673  monthDayCounts */\n      dup2\n        /* \"Business Contract/BusinessHelper/IDT.sol\":8674:8676  10 */\n      0x0a\n        /* \"Business Contract/BusinessHelper/IDT.sol\":8659:8677  monthDayCounts[10] */\n      0x0c\n      dup2\n      lt\n      tag_162\n      jumpi\n      tag_163\n      tag_138\n      jump\t// in\n    tag_163:\n    tag_162:\n      0x20\n      mul\n      add\n        /* \"Business Contract/BusinessHelper/IDT.sol\":8659:8682  monthDayCounts[10] = 30 */\n      swap1\n      0xff\n      and\n      swap1\n      dup2\n      0xff\n      and\n      dup2\n      mstore\n      pop\n      pop\n        /* \"Business Contract/BusinessHelper/IDT.sol\":8722:8724  31 */\n      0x1f\n        /* \"Business Contract/BusinessHelper/IDT.sol\":8701:8715  monthDayCounts */\n      dup2\n        /* \"Business Contract/BusinessHelper/IDT.sol\":8716:8718  11 */\n      0x0b\n        /* \"Business Contract/BusinessHelper/IDT.sol\":8701:8719  monthDayCounts[11] */\n      0x0c\n      dup2\n      lt\n      tag_164\n      jumpi\n      tag_165\n      tag_138\n      jump\t// in\n    tag_165:\n    tag_164:\n      0x20\n      mul\n      add\n        /* \"Business Contract/BusinessHelper/IDT.sol\":8701:8724  monthDayCounts[11] = 31 */\n      swap1\n      0xff\n      and\n      swap1\n      dup2\n      0xff\n      and\n      dup2\n      mstore\n      pop\n      pop\n        /* \"Business Contract/BusinessHelper/IDT.sol\":8754:8755  1 */\n      0x01\n        /* \"Business Contract/BusinessHelper/IDT.sol\":8750:8755  i = 1 */\n      swap2\n      pop\n        /* \"Business Contract/BusinessHelper/IDT.sol\":8745:8871  for (i = 1; i < month; i++) {... */\n    tag_166:\n        /* \"Business Contract/BusinessHelper/IDT.sol\":8761:8766  month */\n      dup8\n        /* \"Business Contract/BusinessHelper/IDT.sol\":8757:8766  i < month */\n      0xff\n      and\n        /* \"Business Contract/BusinessHelper/IDT.sol\":8757:8758  i */\n      dup3\n        /* \"Business Contract/BusinessHelper/IDT.sol\":8757:8766  i < month */\n      0xffff\n      and\n      lt\n        /* \"Business Contract/BusinessHelper/IDT.sol\":8745:8871  for (i = 1; i < month; i++) {... */\n      iszero\n      tag_167\n      jumpi\n        /* \"Business Contract/BusinessHelper/IDT.sol\":8830:8844  monthDayCounts */\n      dup1\n        /* \"Business Contract/BusinessHelper/IDT.sol\":8849:8850  1 */\n      0x01\n        /* \"Business Contract/BusinessHelper/IDT.sol\":8845:8846  i */\n      dup4\n        /* \"Business Contract/BusinessHelper/IDT.sol\":8845:8850  i - 1 */\n      tag_169\n      swap2\n      swap1\n      tag_170\n      jump\t// in\n    tag_169:\n        /* \"Business Contract/BusinessHelper/IDT.sol\":8830:8851  monthDayCounts[i - 1] */\n      0xffff\n      and\n      0x0c\n      dup2\n      lt\n      tag_171\n      jumpi\n      tag_172\n      tag_138\n      jump\t// in\n    tag_172:\n    tag_171:\n      0x20\n      mul\n      add\n      mload\n        /* \"Business Contract/BusinessHelper/IDT.sol\":8813:8851  DAY_IN_SECONDS * monthDayCounts[i - 1] */\n      0xff\n      and\n        /* \"Business Contract/BusinessHelper/IDT.sol\":514:519  86400 */\n      0x015180\n        /* \"Business Contract/BusinessHelper/IDT.sol\":8813:8851  DAY_IN_SECONDS * monthDayCounts[i - 1] */\n      tag_173\n      swap2\n      swap1\n      tag_174\n      jump\t// in\n    tag_173:\n        /* \"Business Contract/BusinessHelper/IDT.sol\":8800:8851  timestamp += DAY_IN_SECONDS * monthDayCounts[i - 1] */\n      dup4\n      tag_175\n      swap2\n      swap1\n      tag_111\n      jump\t// in\n    tag_175:\n      swap3\n      pop\n        /* \"Business Contract/BusinessHelper/IDT.sol\":8768:8771  i++ */\n      dup2\n      dup1\n      tag_176\n      swap1\n      tag_133\n      jump\t// in\n    tag_176:\n      swap3\n      pop\n      pop\n        /* \"Business Contract/BusinessHelper/IDT.sol\":8745:8871  for (i = 1; i < month; i++) {... */\n      jump(tag_166)\n    tag_167:\n        /* \"Business Contract/BusinessHelper/IDT.sol\":8952:8953  1 */\n      0x01\n        /* \"Business Contract/BusinessHelper/IDT.sol\":8946:8949  day */\n      dup8\n        /* \"Business Contract/BusinessHelper/IDT.sol\":8946:8953  day - 1 */\n      tag_177\n      swap2\n      swap1\n      tag_178\n      jump\t// in\n    tag_177:\n        /* \"Business Contract/BusinessHelper/IDT.sol\":8928:8954  DAY_IN_SECONDS * (day - 1) */\n      0xff\n      and\n        /* \"Business Contract/BusinessHelper/IDT.sol\":514:519  86400 */\n      0x015180\n        /* \"Business Contract/BusinessHelper/IDT.sol\":8928:8954  DAY_IN_SECONDS * (day - 1) */\n      tag_179\n      swap2\n      swap1\n      tag_174\n      jump\t// in\n    tag_179:\n        /* \"Business Contract/BusinessHelper/IDT.sol\":8915:8954  timestamp += DAY_IN_SECONDS * (day - 1) */\n      dup4\n      tag_180\n      swap2\n      swap1\n      tag_111\n      jump\t// in\n    tag_180:\n      swap3\n      pop\n        /* \"Business Contract/BusinessHelper/IDT.sol\":9032:9036  hour */\n      dup6\n        /* \"Business Contract/BusinessHelper/IDT.sol\":9013:9037  HOUR_IN_SECONDS * (hour) */\n      0xff\n      and\n        /* \"Business Contract/BusinessHelper/IDT.sol\":671:675  3600 */\n      0x0e10\n        /* \"Business Contract/BusinessHelper/IDT.sol\":9013:9037  HOUR_IN_SECONDS * (hour) */\n      tag_181\n      swap2\n      swap1\n      tag_174\n      jump\t// in\n    tag_181:\n        /* \"Business Contract/BusinessHelper/IDT.sol\":9000:9037  timestamp += HOUR_IN_SECONDS * (hour) */\n      dup4\n      tag_182\n      swap2\n      swap1\n      tag_111\n      jump\t// in\n    tag_182:\n      swap3\n      pop\n        /* \"Business Contract/BusinessHelper/IDT.sol\":9119:9125  minute */\n      dup5\n        /* \"Business Contract/BusinessHelper/IDT.sol\":9098:9126  MINUTE_IN_SECONDS * (minute) */\n      0xff\n      and\n        /* \"Business Contract/BusinessHelper/IDT.sol\":720:722  60 */\n      0x3c\n        /* \"Business Contract/BusinessHelper/IDT.sol\":9098:9126  MINUTE_IN_SECONDS * (minute) */\n      tag_183\n      swap2\n      swap1\n      tag_174\n      jump\t// in\n    tag_183:\n        /* \"Business Contract/BusinessHelper/IDT.sol\":9085:9126  timestamp += MINUTE_IN_SECONDS * (minute) */\n      dup4\n      tag_184\n      swap2\n      swap1\n      tag_111\n      jump\t// in\n    tag_184:\n      swap3\n      pop\n        /* \"Business Contract/BusinessHelper/IDT.sol\":9187:9193  second */\n      dup4\n        /* \"Business Contract/BusinessHelper/IDT.sol\":9174:9193  timestamp += second */\n      0xff\n      and\n      dup4\n      tag_185\n      swap2\n      swap1\n      tag_111\n      jump\t// in\n    tag_185:\n      swap3\n      pop\n        /* \"Business Contract/BusinessHelper/IDT.sol\":9214:9230  return timestamp */\n      pop\n      pop\n        /* \"Business Contract/BusinessHelper/IDT.sol\":7465:9242  function toTimestamp(uint16 year, uint8 month, uint8 day, uint8 hour, uint8 minute, uint8 second) public pure returns (uint timestamp) {... */\n      swap7\n      swap6\n      pop\n      pop\n      pop\n      pop\n      pop\n      pop\n      jump\t// out\n        /* \"Business Contract/BusinessHelper/IDT.sol\":5004:5997  function getYear(uint timestamp) public pure returns (uint16) {... */\n    tag_63:\n        /* \"Business Contract/BusinessHelper/IDT.sol\":5058:5064  uint16 */\n      0x00\n        /* \"Business Contract/BusinessHelper/IDT.sol\":5085:5109  uint secondsAccountedFor */\n      dup1\n        /* \"Business Contract/BusinessHelper/IDT.sol\":5112:5113  0 */\n      0x00\n        /* \"Business Contract/BusinessHelper/IDT.sol\":5085:5113  uint secondsAccountedFor = 0 */\n      swap1\n      pop\n        /* \"Business Contract/BusinessHelper/IDT.sol\":5132:5143  uint16 year */\n      0x00\n        /* \"Business Contract/BusinessHelper/IDT.sol\":5162:5179  uint numLeapYears */\n      dup1\n        /* \"Business Contract/BusinessHelper/IDT.sol\":562:570  31536000 */\n      0x01e13380\n        /* \"Business Contract/BusinessHelper/IDT.sol\":5253:5262  timestamp */\n      dup6\n        /* \"Business Contract/BusinessHelper/IDT.sol\":5253:5280  timestamp / YEAR_IN_SECONDS */\n      tag_187\n      swap2\n      swap1\n      tag_104\n      jump\t// in\n    tag_187:\n        /* \"Business Contract/BusinessHelper/IDT.sol\":765:769  1970 */\n      0x07b2\n        /* \"Business Contract/BusinessHelper/IDT.sol\":5239:5280  ORIGIN_YEAR + timestamp / YEAR_IN_SECONDS */\n      0xffff\n      and\n      tag_188\n      swap2\n      swap1\n      tag_111\n      jump\t// in\n    tag_188:\n        /* \"Business Contract/BusinessHelper/IDT.sol\":5225:5281  year = uint16(ORIGIN_YEAR + timestamp / YEAR_IN_SECONDS) */\n      swap2\n      pop\n        /* \"Business Contract/BusinessHelper/IDT.sol\":5339:5367  leapYearsBefore(ORIGIN_YEAR) */\n      tag_189\n        /* \"Business Contract/BusinessHelper/IDT.sol\":765:769  1970 */\n      0x07b2\n        /* \"Business Contract/BusinessHelper/IDT.sol\":5339:5367  leapYearsBefore(ORIGIN_YEAR) */\n      0xffff\n      and\n        /* \"Business Contract/BusinessHelper/IDT.sol\":5339:5354  leapYearsBefore */\n      tag_82\n        /* \"Business Contract/BusinessHelper/IDT.sol\":5339:5367  leapYearsBefore(ORIGIN_YEAR) */\n      jump\t// in\n    tag_189:\n        /* \"Business Contract/BusinessHelper/IDT.sol\":5315:5336  leapYearsBefore(year) */\n      tag_190\n        /* \"Business Contract/BusinessHelper/IDT.sol\":5331:5335  year */\n      dup4\n        /* \"Business Contract/BusinessHelper/IDT.sol\":5315:5336  leapYearsBefore(year) */\n      0xffff\n      and\n        /* \"Business Contract/BusinessHelper/IDT.sol\":5315:5330  leapYearsBefore */\n      tag_82\n        /* \"Business Contract/BusinessHelper/IDT.sol\":5315:5336  leapYearsBefore(year) */\n      jump\t// in\n    tag_190:\n        /* \"Business Contract/BusinessHelper/IDT.sol\":5315:5367  leapYearsBefore(year) - leapYearsBefore(ORIGIN_YEAR) */\n      tag_191\n      swap2\n      swap1\n      tag_192\n      jump\t// in\n    tag_191:\n        /* \"Business Contract/BusinessHelper/IDT.sol\":5300:5367  numLeapYears = leapYearsBefore(year) - leapYearsBefore(ORIGIN_YEAR) */\n      swap1\n      pop\n        /* \"Business Contract/BusinessHelper/IDT.sol\":5434:5446  numLeapYears */\n      dup1\n        /* \"Business Contract/BusinessHelper/IDT.sol\":618:626  31622400 */\n      0x01e28500\n        /* \"Business Contract/BusinessHelper/IDT.sol\":5411:5446  LEAP_YEAR_IN_SECONDS * numLeapYears */\n      tag_193\n      swap2\n      swap1\n      tag_174\n      jump\t// in\n    tag_193:\n        /* \"Business Contract/BusinessHelper/IDT.sol\":5388:5446  secondsAccountedFor += LEAP_YEAR_IN_SECONDS * numLeapYears */\n      dup4\n      tag_194\n      swap2\n      swap1\n      tag_111\n      jump\t// in\n    tag_194:\n      swap3\n      pop\n        /* \"Business Contract/BusinessHelper/IDT.sol\":5528:5540  numLeapYears */\n      dup1\n        /* \"Business Contract/BusinessHelper/IDT.sol\":765:769  1970 */\n      0x07b2\n        /* \"Business Contract/BusinessHelper/IDT.sol\":5507:5511  year */\n      dup4\n        /* \"Business Contract/BusinessHelper/IDT.sol\":5507:5525  year - ORIGIN_YEAR */\n      tag_195\n      swap2\n      swap1\n      tag_170\n      jump\t// in\n    tag_195:\n        /* \"Business Contract/BusinessHelper/IDT.sol\":5507:5540  year - ORIGIN_YEAR - numLeapYears */\n      0xffff\n      and\n      tag_196\n      swap2\n      swap1\n      tag_192\n      jump\t// in\n    tag_196:\n        /* \"Business Contract/BusinessHelper/IDT.sol\":562:570  31536000 */\n      0x01e13380\n        /* \"Business Contract/BusinessHelper/IDT.sol\":5488:5541  YEAR_IN_SECONDS * (year - ORIGIN_YEAR - numLeapYears) */\n      tag_197\n      swap2\n      swap1\n      tag_174\n      jump\t// in\n    tag_197:\n        /* \"Business Contract/BusinessHelper/IDT.sol\":5465:5541  secondsAccountedFor += YEAR_IN_SECONDS * (year - ORIGIN_YEAR - numLeapYears) */\n      dup4\n      tag_198\n      swap2\n      swap1\n      tag_111\n      jump\t// in\n    tag_198:\n      swap3\n      pop\n        /* \"Business Contract/BusinessHelper/IDT.sol\":5562:5956  while (secondsAccountedFor > timestamp) {... */\n    tag_199:\n        /* \"Business Contract/BusinessHelper/IDT.sol\":5591:5600  timestamp */\n      dup5\n        /* \"Business Contract/BusinessHelper/IDT.sol\":5569:5588  secondsAccountedFor */\n      dup4\n        /* \"Business Contract/BusinessHelper/IDT.sol\":5569:5600  secondsAccountedFor > timestamp */\n      gt\n        /* \"Business Contract/BusinessHelper/IDT.sol\":5562:5956  while (secondsAccountedFor > timestamp) {... */\n      iszero\n      tag_200\n      jumpi\n        /* \"Business Contract/BusinessHelper/IDT.sol\":5633:5661  isLeapYear(uint16(year - 1)) */\n      tag_201\n        /* \"Business Contract/BusinessHelper/IDT.sol\":5658:5659  1 */\n      0x01\n        /* \"Business Contract/BusinessHelper/IDT.sol\":5651:5655  year */\n      dup4\n        /* \"Business Contract/BusinessHelper/IDT.sol\":5651:5659  year - 1 */\n      tag_202\n      swap2\n      swap1\n      tag_170\n      jump\t// in\n    tag_202:\n        /* \"Business Contract/BusinessHelper/IDT.sol\":5633:5643  isLeapYear */\n      tag_73\n        /* \"Business Contract/BusinessHelper/IDT.sol\":5633:5661  isLeapYear(uint16(year - 1)) */\n      jump\t// in\n    tag_201:\n        /* \"Business Contract/BusinessHelper/IDT.sol\":5629:5901  if (isLeapYear(uint16(year - 1))) {... */\n      iszero\n      tag_203\n      jumpi\n        /* \"Business Contract/BusinessHelper/IDT.sol\":618:626  31622400 */\n      0x01e28500\n        /* \"Business Contract/BusinessHelper/IDT.sol\":5698:5741  secondsAccountedFor -= LEAP_YEAR_IN_SECONDS */\n      dup4\n      tag_204\n      swap2\n      swap1\n      tag_192\n      jump\t// in\n    tag_204:\n      swap3\n      pop\n        /* \"Business Contract/BusinessHelper/IDT.sol\":5629:5901  if (isLeapYear(uint16(year - 1))) {... */\n      jump(tag_205)\n    tag_203:\n        /* \"Business Contract/BusinessHelper/IDT.sol\":562:570  31536000 */\n      0x01e13380\n        /* \"Business Contract/BusinessHelper/IDT.sol\":5835:5873  secondsAccountedFor -= YEAR_IN_SECONDS */\n      dup4\n      tag_206\n      swap2\n      swap1\n      tag_192\n      jump\t// in\n    tag_206:\n      swap3\n      pop\n        /* \"Business Contract/BusinessHelper/IDT.sol\":5629:5901  if (isLeapYear(uint16(year - 1))) {... */\n    tag_205:\n        /* \"Business Contract/BusinessHelper/IDT.sol\":5935:5936  1 */\n      0x01\n        /* \"Business Contract/BusinessHelper/IDT.sol\":5927:5936  year -= 1 */\n      dup3\n      tag_207\n      swap2\n      swap1\n      tag_170\n      jump\t// in\n    tag_207:\n      swap2\n      pop\n        /* \"Business Contract/BusinessHelper/IDT.sol\":5562:5956  while (secondsAccountedFor > timestamp) {... */\n      jump(tag_199)\n    tag_200:\n        /* \"Business Contract/BusinessHelper/IDT.sol\":5981:5985  year */\n      dup2\n        /* \"Business Contract/BusinessHelper/IDT.sol\":5974:5985  return year */\n      swap4\n      pop\n      pop\n      pop\n      pop\n        /* \"Business Contract/BusinessHelper/IDT.sol\":5004:5997  function getYear(uint timestamp) public pure returns (uint16) {... */\n      swap2\n      swap1\n      pop\n      jump\t// out\n        /* \"Business Contract/BusinessHelper/IDT.sol\":6009:6140  function getMonth(uint timestamp) public pure returns (uint8) {... */\n    tag_68:\n        /* \"Business Contract/BusinessHelper/IDT.sol\":6064:6069  uint8 */\n      0x00\n        /* \"Business Contract/BusinessHelper/IDT.sol\":6097:6122  parseTimestamp(timestamp) */\n      tag_209\n        /* \"Business Contract/BusinessHelper/IDT.sol\":6112:6121  timestamp */\n      dup3\n        /* \"Business Contract/BusinessHelper/IDT.sol\":6097:6111  parseTimestamp */\n      tag_95\n        /* \"Business Contract/BusinessHelper/IDT.sol\":6097:6122  parseTimestamp(timestamp) */\n      jump\t// in\n    tag_209:\n        /* \"Business Contract/BusinessHelper/IDT.sol\":6097:6128  parseTimestamp(timestamp).month */\n      0x20\n      add\n      mload\n        /* \"Business Contract/BusinessHelper/IDT.sol\":6090:6128  return parseTimestamp(timestamp).month */\n      swap1\n      pop\n        /* \"Business Contract/BusinessHelper/IDT.sol\":6009:6140  function getMonth(uint timestamp) public pure returns (uint8) {... */\n      swap2\n      swap1\n      pop\n      jump\t// out\n        /* \"Business Contract/BusinessHelper/IDT.sol\":782:1175  function isLeapYear(uint16 year) public pure returns (bool) {... */\n    tag_73:\n        /* \"Business Contract/BusinessHelper/IDT.sol\":836:840  bool */\n      0x00\n        /* \"Business Contract/BusinessHelper/IDT.sol\":877:878  0 */\n      dup1\n        /* \"Business Contract/BusinessHelper/IDT.sol\":872:873  4 */\n      0x04\n        /* \"Business Contract/BusinessHelper/IDT.sol\":865:869  year */\n      dup4\n        /* \"Business Contract/BusinessHelper/IDT.sol\":865:873  year % 4 */\n      tag_211\n      swap2\n      swap1\n      tag_212\n      jump\t// in\n    tag_211:\n        /* \"Business Contract/BusinessHelper/IDT.sol\":865:878  year % 4 != 0 */\n      0xffff\n      and\n      eq\n        /* \"Business Contract/BusinessHelper/IDT.sol\":861:939  if (year % 4 != 0) {... */\n      tag_213\n      jumpi\n        /* \"Business Contract/BusinessHelper/IDT.sol\":914:919  false */\n      0x00\n        /* \"Business Contract/BusinessHelper/IDT.sol\":907:919  return false */\n      swap1\n      pop\n      jump(tag_210)\n        /* \"Business Contract/BusinessHelper/IDT.sol\":861:939  if (year % 4 != 0) {... */\n    tag_213:\n        /* \"Business Contract/BusinessHelper/IDT.sol\":975:976  0 */\n      0x00\n        /* \"Business Contract/BusinessHelper/IDT.sol\":968:971  100 */\n      0x64\n        /* \"Business Contract/BusinessHelper/IDT.sol\":961:965  year */\n      dup4\n        /* \"Business Contract/BusinessHelper/IDT.sol\":961:971  year % 100 */\n      tag_214\n      swap2\n      swap1\n      tag_212\n      jump\t// in\n    tag_214:\n        /* \"Business Contract/BusinessHelper/IDT.sol\":961:976  year % 100 != 0 */\n      0xffff\n      and\n      eq\n        /* \"Business Contract/BusinessHelper/IDT.sol\":957:1036  if (year % 100 != 0) {... */\n      tag_215\n      jumpi\n        /* \"Business Contract/BusinessHelper/IDT.sol\":1012:1016  true */\n      0x01\n        /* \"Business Contract/BusinessHelper/IDT.sol\":1005:1016  return true */\n      swap1\n      pop\n      jump(tag_210)\n        /* \"Business Contract/BusinessHelper/IDT.sol\":957:1036  if (year % 100 != 0) {... */\n    tag_215:\n        /* \"Business Contract/BusinessHelper/IDT.sol\":1072:1073  0 */\n      0x00\n        /* \"Business Contract/BusinessHelper/IDT.sol\":1065:1068  400 */\n      0x0190\n        /* \"Business Contract/BusinessHelper/IDT.sol\":1058:1062  year */\n      dup4\n        /* \"Business Contract/BusinessHelper/IDT.sol\":1058:1068  year % 400 */\n      tag_216\n      swap2\n      swap1\n      tag_212\n      jump\t// in\n    tag_216:\n        /* \"Business Contract/BusinessHelper/IDT.sol\":1058:1073  year % 400 != 0 */\n      0xffff\n      and\n      eq\n        /* \"Business Contract/BusinessHelper/IDT.sol\":1054:1134  if (year % 400 != 0) {... */\n      tag_217\n      jumpi\n        /* \"Business Contract/BusinessHelper/IDT.sol\":1109:1114  false */\n      0x00\n        /* \"Business Contract/BusinessHelper/IDT.sol\":1102:1114  return false */\n      swap1\n      pop\n      jump(tag_210)\n        /* \"Business Contract/BusinessHelper/IDT.sol\":1054:1134  if (year % 400 != 0) {... */\n    tag_217:\n        /* \"Business Contract/BusinessHelper/IDT.sol\":1159:1163  true */\n      0x01\n        /* \"Business Contract/BusinessHelper/IDT.sol\":1152:1163  return true */\n      swap1\n      pop\n        /* \"Business Contract/BusinessHelper/IDT.sol\":782:1175  function isLeapYear(uint16 year) public pure returns (bool) {... */\n    tag_210:\n      swap2\n      swap1\n      pop\n      jump\t// out\n        /* \"Business Contract/BusinessHelper/IDT.sol\":3861:4984  function strNow()public view returns (string memory) {... */\n    tag_77:\n        /* \"Business Contract/BusinessHelper/IDT.sol\":3899:3912  string memory */\n      0x60\n        /* \"Business Contract/BusinessHelper/IDT.sol\":3934:3945  uint16 year */\n      0x00\n        /* \"Business Contract/BusinessHelper/IDT.sol\":3946:3957  uint8 month */\n      dup1\n        /* \"Business Contract/BusinessHelper/IDT.sol\":3958:3967  uint8 day */\n      0x00\n        /* \"Business Contract/BusinessHelper/IDT.sol\":3971:3977  dnow() */\n      tag_219\n        /* \"Business Contract/BusinessHelper/IDT.sol\":3971:3975  dnow */\n      tag_90\n        /* \"Business Contract/BusinessHelper/IDT.sol\":3971:3977  dnow() */\n      jump\t// in\n    tag_219:\n        /* \"Business Contract/BusinessHelper/IDT.sol\":3933:3977  (uint16 year,uint8 month,uint8 day) = dnow() */\n      swap3\n      pop\n      swap3\n      pop\n      swap3\n      pop\n        /* \"Business Contract/BusinessHelper/IDT.sol\":3996:4010  bytes memory y */\n      0x00\n        /* \"Business Contract/BusinessHelper/IDT.sol\":4019:4041  Strings.toString(year) */\n      tag_220\n        /* \"Business Contract/BusinessHelper/IDT.sol\":4036:4040  year */\n      dup5\n        /* \"Business Contract/BusinessHelper/IDT.sol\":4019:4041  Strings.toString(year) */\n      0xffff\n      and\n        /* \"Business Contract/BusinessHelper/IDT.sol\":4019:4035  Strings.toString */\n      tag_221\n        /* \"Business Contract/BusinessHelper/IDT.sol\":4019:4041  Strings.toString(year) */\n      jump\t// in\n    tag_220:\n        /* \"Business Contract/BusinessHelper/IDT.sol\":3996:4042  bytes memory y = bytes(Strings.toString(year)) */\n      swap1\n      pop\n        /* \"Business Contract/BusinessHelper/IDT.sol\":4061:4075  bytes memory m */\n      0x00\n        /* \"Business Contract/BusinessHelper/IDT.sol\":4084:4107  Strings.toString(month) */\n      tag_222\n        /* \"Business Contract/BusinessHelper/IDT.sol\":4101:4106  month */\n      dup5\n        /* \"Business Contract/BusinessHelper/IDT.sol\":4084:4107  Strings.toString(month) */\n      0xff\n      and\n        /* \"Business Contract/BusinessHelper/IDT.sol\":4084:4100  Strings.toString */\n      tag_221\n        /* \"Business Contract/BusinessHelper/IDT.sol\":4084:4107  Strings.toString(month) */\n      jump\t// in\n    tag_222:\n        /* \"Business Contract/BusinessHelper/IDT.sol\":4061:4108  bytes memory m = bytes(Strings.toString(month)) */\n      swap1\n      pop\n        /* \"Business Contract/BusinessHelper/IDT.sol\":4127:4141  bytes memory d */\n      0x00\n        /* \"Business Contract/BusinessHelper/IDT.sol\":4150:4171  Strings.toString(day) */\n      tag_223\n        /* \"Business Contract/BusinessHelper/IDT.sol\":4167:4170  day */\n      dup5\n        /* \"Business Contract/BusinessHelper/IDT.sol\":4150:4171  Strings.toString(day) */\n      0xff\n      and\n        /* \"Business Contract/BusinessHelper/IDT.sol\":4150:4166  Strings.toString */\n      tag_221\n        /* \"Business Contract/BusinessHelper/IDT.sol\":4150:4171  Strings.toString(day) */\n      jump\t// in\n    tag_223:\n        /* \"Business Contract/BusinessHelper/IDT.sol\":4127:4172  bytes memory d = bytes(Strings.toString(day)) */\n      swap1\n      pop\n        /* \"Business Contract/BusinessHelper/IDT.sol\":4191:4205  bytes memory r */\n      0x00\n        /* \"Business Contract/BusinessHelper/IDT.sol\":4218:4220  10 */\n      0x0a\n        /* \"Business Contract/BusinessHelper/IDT.sol\":4208:4221  new bytes(10) */\n      0xffffffffffffffff\n      dup2\n      gt\n      iszero\n      tag_224\n      jumpi\n      tag_225\n      tag_226\n      jump\t// in\n    tag_225:\n    tag_224:\n      mload(0x40)\n      swap1\n      dup1\n      dup3\n      mstore\n      dup1\n      0x1f\n      add\n      not(0x1f)\n      and\n      0x20\n      add\n      dup3\n      add\n      0x40\n      mstore\n      dup1\n      iszero\n      tag_227\n      jumpi\n      dup2\n      0x20\n      add\n      0x01\n      dup3\n      mul\n      dup1\n      calldatasize\n      dup4\n      calldatacopy\n      dup1\n      dup3\n      add\n      swap2\n      pop\n      pop\n      swap1\n      pop\n    tag_227:\n      pop\n        /* \"Business Contract/BusinessHelper/IDT.sol\":4191:4221  bytes memory r = new bytes(10) */\n      swap1\n      pop\n        /* \"Business Contract/BusinessHelper/IDT.sol\":4247:4248  y */\n      dup4\n        /* \"Business Contract/BusinessHelper/IDT.sol\":4249:4250  0 */\n      0x00\n        /* \"Business Contract/BusinessHelper/IDT.sol\":4247:4251  y[0] */\n      dup2\n      mload\n      dup2\n      lt\n      tag_228\n      jumpi\n      tag_229\n      tag_138\n      jump\t// in\n    tag_229:\n    tag_228:\n      0x20\n      add\n      add\n      mload\n      0xf8\n      shr\n      0xf8\n      shl\n        /* \"Business Contract/BusinessHelper/IDT.sol\":4240:4241  r */\n      dup2\n        /* \"Business Contract/BusinessHelper/IDT.sol\":4242:4243  0 */\n      0x00\n        /* \"Business Contract/BusinessHelper/IDT.sol\":4240:4244  r[0] */\n      dup2\n      mload\n      dup2\n      lt\n      tag_230\n      jumpi\n      tag_231\n      tag_138\n      jump\t// in\n    tag_231:\n    tag_230:\n      0x20\n      add\n      add\n        /* \"Business Contract/BusinessHelper/IDT.sol\":4240:4251  r[0] = y[0] */\n      swap1\n      not(0xffffffffffffffffffffffffffffffffffffffffffffffffffffffffffffff)\n      and\n      swap1\n      dup2\n      0x00\n      byte\n      swap1\n      mstore8\n      pop\n        /* \"Business Contract/BusinessHelper/IDT.sol\":4277:4278  y */\n      dup4\n        /* \"Business Contract/BusinessHelper/IDT.sol\":4279:4280  1 */\n      0x01\n        /* \"Business Contract/BusinessHelper/IDT.sol\":4277:4281  y[1] */\n      dup2\n      mload\n      dup2\n      lt\n      tag_232\n      jumpi\n      tag_233\n      tag_138\n      jump\t// in\n    tag_233:\n    tag_232:\n      0x20\n      add\n      add\n      mload\n      0xf8\n      shr\n      0xf8\n      shl\n        /* \"Business Contract/BusinessHelper/IDT.sol\":4270:4271  r */\n      dup2\n        /* \"Business Contract/BusinessHelper/IDT.sol\":4272:4273  1 */\n      0x01\n        /* \"Business Contract/BusinessHelper/IDT.sol\":4270:4274  r[1] */\n      dup2\n      mload\n      dup2\n      lt\n      tag_234\n      jumpi\n      tag_235\n      tag_138\n      jump\t// in\n    tag_235:\n    tag_234:\n      0x20\n      add\n      add\n        /* \"Business Contract/BusinessHelper/IDT.sol\":4270:4281  r[1] = y[1] */\n      swap1\n      not(0xffffffffffffffffffffffffffffffffffffffffffffffffffffffffffffff)\n      and\n      swap1\n      dup2\n      0x00\n      byte\n      swap1\n      mstore8\n      pop\n        /* \"Business Contract/BusinessHelper/IDT.sol\":4307:4308  y */\n      dup4\n        /* \"Business Contract/BusinessHelper/IDT.sol\":4309:4310  2 */\n      0x02\n        /* \"Business Contract/BusinessHelper/IDT.sol\":4307:4311  y[2] */\n      dup2\n      mload\n      dup2\n      lt\n      tag_236\n      jumpi\n      tag_237\n      tag_138\n      jump\t// in\n    tag_237:\n    tag_236:\n      0x20\n      add\n      add\n      mload\n      0xf8\n      shr\n      0xf8\n      shl\n        /* \"Business Contract/BusinessHelper/IDT.sol\":4300:4301  r */\n      dup2\n        /* \"Business Contract/BusinessHelper/IDT.sol\":4302:4303  2 */\n      0x02\n        /* \"Business Contract/BusinessHelper/IDT.sol\":4300:4304  r[2] */\n      dup2\n      mload\n      dup2\n      lt\n      tag_238\n      jumpi\n      tag_239\n      tag_138\n      jump\t// in\n    tag_239:\n    tag_238:\n      0x20\n      add\n      add\n        /* \"Business Contract/BusinessHelper/IDT.sol\":4300:4311  r[2] = y[2] */\n      swap1\n      not(0xffffffffffffffffffffffffffffffffffffffffffffffffffffffffffffff)\n      and\n      swap1\n      dup2\n      0x00\n      byte\n      swap1\n      mstore8\n      pop\n        /* \"Business Contract/BusinessHelper/IDT.sol\":4337:4338  y */\n      dup4\n        /* \"Business Contract/BusinessHelper/IDT.sol\":4339:4340  3 */\n      0x03\n        /* \"Business Contract/BusinessHelper/IDT.sol\":4337:4341  y[3] */\n      dup2\n      mload\n      dup2\n      lt\n      tag_240\n      jumpi\n      tag_241\n      tag_138\n      jump\t// in\n    tag_241:\n    tag_240:\n      0x20\n      add\n      add\n      mload\n      0xf8\n      shr\n      0xf8\n      shl\n        /* \"Business Contract/BusinessHelper/IDT.sol\":4330:4331  r */\n      dup2\n        /* \"Business Contract/BusinessHelper/IDT.sol\":4332:4333  3 */\n      0x03\n        /* \"Business Contract/BusinessHelper/IDT.sol\":4330:4334  r[3] */\n      dup2\n      mload\n      dup2\n      lt\n      tag_242\n      jumpi\n      tag_243\n      tag_138\n      jump\t// in\n    tag_243:\n    tag_242:\n      0x20\n      add\n      add\n        /* \"Business Contract/BusinessHelper/IDT.sol\":4330:4341  r[3] = y[3] */\n      swap1\n      not(0xffffffffffffffffffffffffffffffffffffffffffffffffffffffffffffff)\n      and\n      swap1\n      dup2\n      0x00\n      byte\n      swap1\n      mstore8\n      pop\n        /* \"Business Contract/BusinessHelper/IDT.sol\":4367:4371  0x2D */\n      0x2d\n        /* \"Business Contract/BusinessHelper/IDT.sol\":4360:4371  r[4] = 0x2D */\n      0xf8\n      shl\n        /* \"Business Contract/BusinessHelper/IDT.sol\":4360:4361  r */\n      dup2\n        /* \"Business Contract/BusinessHelper/IDT.sol\":4362:4363  4 */\n      0x04\n        /* \"Business Contract/BusinessHelper/IDT.sol\":4360:4364  r[4] */\n      dup2\n      mload\n      dup2\n      lt\n      tag_244\n      jumpi\n      tag_245\n      tag_138\n      jump\t// in\n    tag_245:\n    tag_244:\n      0x20\n      add\n      add\n        /* \"Business Contract/BusinessHelper/IDT.sol\":4360:4371  r[4] = 0x2D */\n      swap1\n      not(0xffffffffffffffffffffffffffffffffffffffffffffffffffffffffffffff)\n      and\n      swap1\n      dup2\n      0x00\n      byte\n      swap1\n      mstore8\n      pop\n        /* \"Business Contract/BusinessHelper/IDT.sol\":4404:4405  1 */\n      0x01\n        /* \"Business Contract/BusinessHelper/IDT.sol\":4393:4394  m */\n      dup4\n        /* \"Business Contract/BusinessHelper/IDT.sol\":4393:4401  m.length */\n      mload\n        /* \"Business Contract/BusinessHelper/IDT.sol\":4393:4405  m.length > 1 */\n      gt\n        /* \"Business Contract/BusinessHelper/IDT.sol\":4390:4640  if(m.length > 1)... */\n      iszero\n      tag_246\n      jumpi\n        /* \"Business Contract/BusinessHelper/IDT.sol\":4454:4455  m */\n      dup3\n        /* \"Business Contract/BusinessHelper/IDT.sol\":4456:4457  0 */\n      0x00\n        /* \"Business Contract/BusinessHelper/IDT.sol\":4454:4458  m[0] */\n      dup2\n      mload\n      dup2\n      lt\n      tag_247\n      jumpi\n      tag_248\n      tag_138\n      jump\t// in\n    tag_248:\n    tag_247:\n      0x20\n      add\n      add\n      mload\n      0xf8\n      shr\n      0xf8\n      shl\n        /* \"Business Contract/BusinessHelper/IDT.sol\":4447:4448  r */\n      dup2\n        /* \"Business Contract/BusinessHelper/IDT.sol\":4449:4450  5 */\n      0x05\n        /* \"Business Contract/BusinessHelper/IDT.sol\":4447:4451  r[5] */\n      dup2\n      mload\n      dup2\n      lt\n      tag_249\n      jumpi\n      tag_250\n      tag_138\n      jump\t// in\n    tag_250:\n    tag_249:\n      0x20\n      add\n      add\n        /* \"Business Contract/BusinessHelper/IDT.sol\":4447:4458  r[5] = m[0] */\n      swap1\n      not(0xffffffffffffffffffffffffffffffffffffffffffffffffffffffffffffff)\n      and\n      swap1\n      dup2\n      0x00\n      byte\n      swap1\n      mstore8\n      pop\n        /* \"Business Contract/BusinessHelper/IDT.sol\":4488:4489  m */\n      dup3\n        /* \"Business Contract/BusinessHelper/IDT.sol\":4490:4491  1 */\n      0x01\n        /* \"Business Contract/BusinessHelper/IDT.sol\":4488:4492  m[1] */\n      dup2\n      mload\n      dup2\n      lt\n      tag_251\n      jumpi\n      tag_252\n      tag_138\n      jump\t// in\n    tag_252:\n    tag_251:\n      0x20\n      add\n      add\n      mload\n      0xf8\n      shr\n      0xf8\n      shl\n        /* \"Business Contract/BusinessHelper/IDT.sol\":4481:4482  r */\n      dup2\n        /* \"Business Contract/BusinessHelper/IDT.sol\":4483:4484  6 */\n      0x06\n        /* \"Business Contract/BusinessHelper/IDT.sol\":4481:4485  r[6] */\n      dup2\n      mload\n      dup2\n      lt\n      tag_253\n      jumpi\n      tag_254\n      tag_138\n      jump\t// in\n    tag_254:\n    tag_253:\n      0x20\n      add\n      add\n        /* \"Business Contract/BusinessHelper/IDT.sol\":4481:4492  r[6] = m[1] */\n      swap1\n      not(0xffffffffffffffffffffffffffffffffffffffffffffffffffffffffffffff)\n      and\n      swap1\n      dup2\n      0x00\n      byte\n      swap1\n      mstore8\n      pop\n        /* \"Business Contract/BusinessHelper/IDT.sol\":4390:4640  if(m.length > 1)... */\n      jump(tag_255)\n    tag_246:\n        /* \"Business Contract/BusinessHelper/IDT.sol\":4582:4586  0x30 */\n      0x30\n        /* \"Business Contract/BusinessHelper/IDT.sol\":4575:4586  r[5] = 0x30 */\n      0xf8\n      shl\n        /* \"Business Contract/BusinessHelper/IDT.sol\":4575:4576  r */\n      dup2\n        /* \"Business Contract/BusinessHelper/IDT.sol\":4577:4578  5 */\n      0x05\n        /* \"Business Contract/BusinessHelper/IDT.sol\":4575:4579  r[5] */\n      dup2\n      mload\n      dup2\n      lt\n      tag_256\n      jumpi\n      tag_257\n      tag_138\n      jump\t// in\n    tag_257:\n    tag_256:\n      0x20\n      add\n      add\n        /* \"Business Contract/BusinessHelper/IDT.sol\":4575:4586  r[5] = 0x30 */\n      swap1\n      not(0xffffffffffffffffffffffffffffffffffffffffffffffffffffffffffffff)\n      and\n      swap1\n      dup2\n      0x00\n      byte\n      swap1\n      mstore8\n      pop\n        /* \"Business Contract/BusinessHelper/IDT.sol\":4616:4617  m */\n      dup3\n        /* \"Business Contract/BusinessHelper/IDT.sol\":4618:4619  0 */\n      0x00\n        /* \"Business Contract/BusinessHelper/IDT.sol\":4616:4620  m[0] */\n      dup2\n      mload\n      dup2\n      lt\n      tag_258\n      jumpi\n      tag_259\n      tag_138\n      jump\t// in\n    tag_259:\n    tag_258:\n      0x20\n      add\n      add\n      mload\n      0xf8\n      shr\n      0xf8\n      shl\n        /* \"Business Contract/BusinessHelper/IDT.sol\":4609:4610  r */\n      dup2\n        /* \"Business Contract/BusinessHelper/IDT.sol\":4611:4612  6 */\n      0x06\n        /* \"Business Contract/BusinessHelper/IDT.sol\":4609:4613  r[6] */\n      dup2\n      mload\n      dup2\n      lt\n      tag_260\n      jumpi\n      tag_261\n      tag_138\n      jump\t// in\n    tag_261:\n    tag_260:\n      0x20\n      add\n      add\n        /* \"Business Contract/BusinessHelper/IDT.sol\":4609:4620  r[6] = m[0] */\n      swap1\n      not(0xffffffffffffffffffffffffffffffffffffffffffffffffffffffffffffff)\n      and\n      swap1\n      dup2\n      0x00\n      byte\n      swap1\n      mstore8\n      pop\n        /* \"Business Contract/BusinessHelper/IDT.sol\":4390:4640  if(m.length > 1)... */\n    tag_255:\n        /* \"Business Contract/BusinessHelper/IDT.sol\":4665:4669  0x2D */\n      0x2d\n        /* \"Business Contract/BusinessHelper/IDT.sol\":4658:4669  r[7] = 0x2D */\n      0xf8\n      shl\n        /* \"Business Contract/BusinessHelper/IDT.sol\":4658:4659  r */\n      dup2\n        /* \"Business Contract/BusinessHelper/IDT.sol\":4660:4661  7 */\n      0x07\n        /* \"Business Contract/BusinessHelper/IDT.sol\":4658:4662  r[7] */\n      dup2\n      mload\n      dup2\n      lt\n      tag_262\n      jumpi\n      tag_263\n      tag_138\n      jump\t// in\n    tag_263:\n    tag_262:\n      0x20\n      add\n      add\n        /* \"Business Contract/BusinessHelper/IDT.sol\":4658:4669  r[7] = 0x2D */\n      swap1\n      not(0xffffffffffffffffffffffffffffffffffffffffffffffffffffffffffffff)\n      and\n      swap1\n      dup2\n      0x00\n      byte\n      swap1\n      mstore8\n      pop\n        /* \"Business Contract/BusinessHelper/IDT.sol\":4702:4703  1 */\n      0x01\n        /* \"Business Contract/BusinessHelper/IDT.sol\":4691:4692  d */\n      dup3\n        /* \"Business Contract/BusinessHelper/IDT.sol\":4691:4699  d.length */\n      mload\n        /* \"Business Contract/BusinessHelper/IDT.sol\":4691:4703  d.length > 1 */\n      gt\n        /* \"Business Contract/BusinessHelper/IDT.sol\":4688:4938  if(d.length > 1)... */\n      iszero\n      tag_264\n      jumpi\n        /* \"Business Contract/BusinessHelper/IDT.sol\":4752:4753  d */\n      dup2\n        /* \"Business Contract/BusinessHelper/IDT.sol\":4754:4755  0 */\n      0x00\n        /* \"Business Contract/BusinessHelper/IDT.sol\":4752:4756  d[0] */\n      dup2\n      mload\n      dup2\n      lt\n      tag_265\n      jumpi\n      tag_266\n      tag_138\n      jump\t// in\n    tag_266:\n    tag_265:\n      0x20\n      add\n      add\n      mload\n      0xf8\n      shr\n      0xf8\n      shl\n        /* \"Business Contract/BusinessHelper/IDT.sol\":4745:4746  r */\n      dup2\n        /* \"Business Contract/BusinessHelper/IDT.sol\":4747:4748  8 */\n      0x08\n        /* \"Business Contract/BusinessHelper/IDT.sol\":4745:4749  r[8] */\n      dup2\n      mload\n      dup2\n      lt\n      tag_267\n      jumpi\n      tag_268\n      tag_138\n      jump\t// in\n    tag_268:\n    tag_267:\n      0x20\n      add\n      add\n        /* \"Business Contract/BusinessHelper/IDT.sol\":4745:4756  r[8] = d[0] */\n      swap1\n      not(0xffffffffffffffffffffffffffffffffffffffffffffffffffffffffffffff)\n      and\n      swap1\n      dup2\n      0x00\n      byte\n      swap1\n      mstore8\n      pop\n        /* \"Business Contract/BusinessHelper/IDT.sol\":4786:4787  d */\n      dup2\n        /* \"Business Contract/BusinessHelper/IDT.sol\":4788:4789  1 */\n      0x01\n        /* \"Business Contract/BusinessHelper/IDT.sol\":4786:4790  d[1] */\n      dup2\n      mload\n      dup2\n      lt\n      tag_269\n      jumpi\n      tag_270\n      tag_138\n      jump\t// in\n    tag_270:\n    tag_269:\n      0x20\n      add\n      add\n      mload\n      0xf8\n      shr\n      0xf8\n      shl\n        /* \"Business Contract/BusinessHelper/IDT.sol\":4779:4780  r */\n      dup2\n        /* \"Business Contract/BusinessHelper/IDT.sol\":4781:4782  9 */\n      0x09\n        /* \"Business Contract/BusinessHelper/IDT.sol\":4779:4783  r[9] */\n      dup2\n      mload\n      dup2\n      lt\n      tag_271\n      jumpi\n      tag_272\n      tag_138\n      jump\t// in\n    tag_272:\n    tag_271:\n      0x20\n      add\n      add\n        /* \"Business Contract/BusinessHelper/IDT.sol\":4779:4790  r[9] = d[1] */\n      swap1\n      not(0xffffffffffffffffffffffffffffffffffffffffffffffffffffffffffffff)\n      and\n      swap1\n      dup2\n      0x00\n      byte\n      swap1\n      mstore8\n      pop\n        /* \"Business Contract/BusinessHelper/IDT.sol\":4688:4938  if(d.length > 1)... */\n      jump(tag_273)\n    tag_264:\n        /* \"Business Contract/BusinessHelper/IDT.sol\":4880:4884  0x30 */\n      0x30\n        /* \"Business Contract/BusinessHelper/IDT.sol\":4873:4884  r[8] = 0x30 */\n      0xf8\n      shl\n        /* \"Business Contract/BusinessHelper/IDT.sol\":4873:4874  r */\n      dup2\n        /* \"Business Contract/BusinessHelper/IDT.sol\":4875:4876  8 */\n      0x08\n        /* \"Business Contract/BusinessHelper/IDT.sol\":4873:4877  r[8] */\n      dup2\n      mload\n      dup2\n      lt\n      tag_274\n      jumpi\n      tag_275\n      tag_138\n      jump\t// in\n    tag_275:\n    tag_274:\n      0x20\n      add\n      add\n        /* \"Business Contract/BusinessHelper/IDT.sol\":4873:4884  r[8] = 0x30 */\n      swap1\n      not(0xffffffffffffffffffffffffffffffffffffffffffffffffffffffffffffff)\n      and\n      swap1\n      dup2\n      0x00\n      byte\n      swap1\n      mstore8\n      pop\n        /* \"Business Contract/BusinessHelper/IDT.sol\":4914:4915  d */\n      dup2\n        /* \"Business Contract/BusinessHelper/IDT.sol\":4916:4917  0 */\n      0x00\n        /* \"Business Contract/BusinessHelper/IDT.sol\":4914:4918  d[0] */\n      dup2\n      mload\n      dup2\n      lt\n      tag_276\n      jumpi\n      tag_277\n      tag_138\n      jump\t// in\n    tag_277:\n    tag_276:\n      0x20\n      add\n      add\n      mload\n      0xf8\n      shr\n      0xf8\n      shl\n        /* \"Business Contract/BusinessHelper/IDT.sol\":4907:4908  r */\n      dup2\n        /* \"Business Contract/BusinessHelper/IDT.sol\":4909:4910  9 */\n      0x09\n        /* \"Business Contract/BusinessHelper/IDT.sol\":4907:4911  r[9] */\n      dup2\n      mload\n      dup2\n      lt\n      tag_278\n      jumpi\n      tag_279\n      tag_138\n      jump\t// in\n    tag_279:\n    tag_278:\n      0x20\n      add\n      add\n        /* \"Business Contract/BusinessHelper/IDT.sol\":4907:4918  r[9] = d[0] */\n      swap1\n      not(0xffffffffffffffffffffffffffffffffffffffffffffffffffffffffffffff)\n      and\n      swap1\n      dup2\n      0x00\n      byte\n      swap1\n      mstore8\n      pop\n        /* \"Business Contract/BusinessHelper/IDT.sol\":4688:4938  if(d.length > 1)... */\n    tag_273:\n        /* \"Business Contract/BusinessHelper/IDT.sol\":4970:4971  r */\n      dup1\n        /* \"Business Contract/BusinessHelper/IDT.sol\":4956:4972  return string(r) */\n      swap8\n      pop\n      pop\n      pop\n      pop\n      pop\n      pop\n      pop\n      pop\n        /* \"Business Contract/BusinessHelper/IDT.sol\":3861:4984  function strNow()public view returns (string memory) {... */\n      swap1\n      jump\t// out\n        /* \"Business Contract/BusinessHelper/IDT.sol\":1187:1350  function leapYearsBefore(uint year) public pure returns (uint) {... */\n    tag_82:\n        /* \"Business Contract/BusinessHelper/IDT.sol\":1244:1248  uint */\n      0x00\n        /* \"Business Contract/BusinessHelper/IDT.sol\":1277:1278  1 */\n      0x01\n        /* \"Business Contract/BusinessHelper/IDT.sol\":1269:1278  year -= 1 */\n      dup3\n      tag_281\n      swap2\n      swap1\n      tag_192\n      jump\t// in\n    tag_281:\n      swap2\n      pop\n        /* \"Business Contract/BusinessHelper/IDT.sol\":1335:1338  400 */\n      0x0190\n        /* \"Business Contract/BusinessHelper/IDT.sol\":1328:1332  year */\n      dup3\n        /* \"Business Contract/BusinessHelper/IDT.sol\":1328:1338  year / 400 */\n      tag_282\n      swap2\n      swap1\n      tag_104\n      jump\t// in\n    tag_282:\n        /* \"Business Contract/BusinessHelper/IDT.sol\":1322:1325  100 */\n      0x64\n        /* \"Business Contract/BusinessHelper/IDT.sol\":1315:1319  year */\n      dup4\n        /* \"Business Contract/BusinessHelper/IDT.sol\":1315:1325  year / 100 */\n      tag_283\n      swap2\n      swap1\n      tag_104\n      jump\t// in\n    tag_283:\n        /* \"Business Contract/BusinessHelper/IDT.sol\":1311:1312  4 */\n      0x04\n        /* \"Business Contract/BusinessHelper/IDT.sol\":1304:1308  year */\n      dup5\n        /* \"Business Contract/BusinessHelper/IDT.sol\":1304:1312  year / 4 */\n      tag_284\n      swap2\n      swap1\n      tag_104\n      jump\t// in\n    tag_284:\n        /* \"Business Contract/BusinessHelper/IDT.sol\":1304:1325  year / 4 - year / 100 */\n      tag_285\n      swap2\n      swap1\n      tag_192\n      jump\t// in\n    tag_285:\n        /* \"Business Contract/BusinessHelper/IDT.sol\":1304:1338  year / 4 - year / 100 + year / 400 */\n      tag_286\n      swap2\n      swap1\n      tag_111\n      jump\t// in\n    tag_286:\n        /* \"Business Contract/BusinessHelper/IDT.sol\":1297:1338  return year / 4 - year / 100 + year / 400 */\n      swap1\n      pop\n        /* \"Business Contract/BusinessHelper/IDT.sol\":1187:1350  function leapYearsBefore(uint year) public pure returns (uint) {... */\n      swap2\n      swap1\n      pop\n      jump\t// out\n        /* \"Business Contract/BusinessHelper/IDT.sol\":1362:1946  function getDaysInMonth(uint8 month, uint16 year) public pure returns (uint8) {... */\n    tag_87:\n        /* \"Business Contract/BusinessHelper/IDT.sol\":1433:1438  uint8 */\n      0x00\n        /* \"Business Contract/BusinessHelper/IDT.sol\":1472:1473  1 */\n      0x01\n        /* \"Business Contract/BusinessHelper/IDT.sol\":1463:1468  month */\n      dup4\n        /* \"Business Contract/BusinessHelper/IDT.sol\":1463:1473  month == 1 */\n      0xff\n      and\n      eq\n        /* \"Business Contract/BusinessHelper/IDT.sol\":1463:1487  month == 1 || month == 3 */\n      dup1\n      tag_288\n      jumpi\n      pop\n        /* \"Business Contract/BusinessHelper/IDT.sol\":1486:1487  3 */\n      0x03\n        /* \"Business Contract/BusinessHelper/IDT.sol\":1477:1482  month */\n      dup4\n        /* \"Business Contract/BusinessHelper/IDT.sol\":1477:1487  month == 3 */\n      0xff\n      and\n      eq\n        /* \"Business Contract/BusinessHelper/IDT.sol\":1463:1487  month == 1 || month == 3 */\n    tag_288:\n        /* \"Business Contract/BusinessHelper/IDT.sol\":1463:1501  month == 1 || month == 3 || month == 5 */\n      dup1\n      tag_289\n      jumpi\n      pop\n        /* \"Business Contract/BusinessHelper/IDT.sol\":1500:1501  5 */\n      0x05\n        /* \"Business Contract/BusinessHelper/IDT.sol\":1491:1496  month */\n      dup4\n        /* \"Business Contract/BusinessHelper/IDT.sol\":1491:1501  month == 5 */\n      0xff\n      and\n      eq\n        /* \"Business Contract/BusinessHelper/IDT.sol\":1463:1501  month == 1 || month == 3 || month == 5 */\n    tag_289:\n        /* \"Business Contract/BusinessHelper/IDT.sol\":1463:1515  month == 1 || month == 3 || month == 5 || month == 7 */\n      dup1\n      tag_290\n      jumpi\n      pop\n        /* \"Business Contract/BusinessHelper/IDT.sol\":1514:1515  7 */\n      0x07\n        /* \"Business Contract/BusinessHelper/IDT.sol\":1505:1510  month */\n      dup4\n        /* \"Business Contract/BusinessHelper/IDT.sol\":1505:1515  month == 7 */\n      0xff\n      and\n      eq\n        /* \"Business Contract/BusinessHelper/IDT.sol\":1463:1515  month == 1 || month == 3 || month == 5 || month == 7 */\n    tag_290:\n        /* \"Business Contract/BusinessHelper/IDT.sol\":1463:1529  month == 1 || month == 3 || month == 5 || month == 7 || month == 8 */\n      dup1\n      tag_291\n      jumpi\n      pop\n        /* \"Business Contract/BusinessHelper/IDT.sol\":1528:1529  8 */\n      0x08\n        /* \"Business Contract/BusinessHelper/IDT.sol\":1519:1524  month */\n      dup4\n        /* \"Business Contract/BusinessHelper/IDT.sol\":1519:1529  month == 8 */\n      0xff\n      and\n      eq\n        /* \"Business Contract/BusinessHelper/IDT.sol\":1463:1529  month == 1 || month == 3 || month == 5 || month == 7 || month == 8 */\n    tag_291:\n        /* \"Business Contract/BusinessHelper/IDT.sol\":1463:1544  month == 1 || month == 3 || month == 5 || month == 7 || month == 8 || month == 10 */\n      dup1\n      tag_292\n      jumpi\n      pop\n        /* \"Business Contract/BusinessHelper/IDT.sol\":1542:1544  10 */\n      0x0a\n        /* \"Business Contract/BusinessHelper/IDT.sol\":1533:1538  month */\n      dup4\n        /* \"Business Contract/BusinessHelper/IDT.sol\":1533:1544  month == 10 */\n      0xff\n      and\n      eq\n        /* \"Business Contract/BusinessHelper/IDT.sol\":1463:1544  month == 1 || month == 3 || month == 5 || month == 7 || month == 8 || month == 10 */\n    tag_292:\n        /* \"Business Contract/BusinessHelper/IDT.sol\":1463:1559  month == 1 || month == 3 || month == 5 || month == 7 || month == 8 || month == 10 || month == 12 */\n      dup1\n      tag_293\n      jumpi\n      pop\n        /* \"Business Contract/BusinessHelper/IDT.sol\":1557:1559  12 */\n      0x0c\n        /* \"Business Contract/BusinessHelper/IDT.sol\":1548:1553  month */\n      dup4\n        /* \"Business Contract/BusinessHelper/IDT.sol\":1548:1559  month == 12 */\n      0xff\n      and\n      eq\n        /* \"Business Contract/BusinessHelper/IDT.sol\":1463:1559  month == 1 || month == 3 || month == 5 || month == 7 || month == 8 || month == 10 || month == 12 */\n    tag_293:\n        /* \"Business Contract/BusinessHelper/IDT.sol\":1459:1935  if (month == 1 || month == 3 || month == 5 || month == 7 || month == 8 || month == 10 || month == 12) {... */\n      iszero\n      tag_294\n      jumpi\n        /* \"Business Contract/BusinessHelper/IDT.sol\":1595:1597  31 */\n      0x1f\n        /* \"Business Contract/BusinessHelper/IDT.sol\":1588:1597  return 31 */\n      swap1\n      pop\n      jump(tag_287)\n        /* \"Business Contract/BusinessHelper/IDT.sol\":1459:1935  if (month == 1 || month == 3 || month == 5 || month == 7 || month == 8 || month == 10 || month == 12) {... */\n    tag_294:\n        /* \"Business Contract/BusinessHelper/IDT.sol\":1653:1654  4 */\n      0x04\n        /* \"Business Contract/BusinessHelper/IDT.sol\":1644:1649  month */\n      dup4\n        /* \"Business Contract/BusinessHelper/IDT.sol\":1644:1654  month == 4 */\n      0xff\n      and\n      eq\n        /* \"Business Contract/BusinessHelper/IDT.sol\":1644:1668  month == 4 || month == 6 */\n      dup1\n      tag_296\n      jumpi\n      pop\n        /* \"Business Contract/BusinessHelper/IDT.sol\":1667:1668  6 */\n      0x06\n        /* \"Business Contract/BusinessHelper/IDT.sol\":1658:1663  month */\n      dup4\n        /* \"Business Contract/BusinessHelper/IDT.sol\":1658:1668  month == 6 */\n      0xff\n      and\n      eq\n        /* \"Business Contract/BusinessHelper/IDT.sol\":1644:1668  month == 4 || month == 6 */\n    tag_296:\n        /* \"Business Contract/BusinessHelper/IDT.sol\":1644:1682  month == 4 || month == 6 || month == 9 */\n      dup1\n      tag_297\n      jumpi\n      pop\n        /* \"Business Contract/BusinessHelper/IDT.sol\":1681:1682  9 */\n      0x09\n        /* \"Business Contract/BusinessHelper/IDT.sol\":1672:1677  month */\n      dup4\n        /* \"Business Contract/BusinessHelper/IDT.sol\":1672:1682  month == 9 */\n      0xff\n      and\n      eq\n        /* \"Business Contract/BusinessHelper/IDT.sol\":1644:1682  month == 4 || month == 6 || month == 9 */\n    tag_297:\n        /* \"Business Contract/BusinessHelper/IDT.sol\":1644:1697  month == 4 || month == 6 || month == 9 || month == 11 */\n      dup1\n      tag_298\n      jumpi\n      pop\n        /* \"Business Contract/BusinessHelper/IDT.sol\":1695:1697  11 */\n      0x0b\n        /* \"Business Contract/BusinessHelper/IDT.sol\":1686:1691  month */\n      dup4\n        /* \"Business Contract/BusinessHelper/IDT.sol\":1686:1697  month == 11 */\n      0xff\n      and\n      eq\n        /* \"Business Contract/BusinessHelper/IDT.sol\":1644:1697  month == 4 || month == 6 || month == 9 || month == 11 */\n    tag_298:\n        /* \"Business Contract/BusinessHelper/IDT.sol\":1640:1935  if (month == 4 || month == 6 || month == 9 || month == 11) {... */\n      iszero\n      tag_299\n      jumpi\n        /* \"Business Contract/BusinessHelper/IDT.sol\":1733:1735  30 */\n      0x1e\n        /* \"Business Contract/BusinessHelper/IDT.sol\":1726:1735  return 30 */\n      swap1\n      pop\n      jump(tag_287)\n        /* \"Business Contract/BusinessHelper/IDT.sol\":1640:1935  if (month == 4 || month == 6 || month == 9 || month == 11) {... */\n    tag_299:\n        /* \"Business Contract/BusinessHelper/IDT.sol\":1782:1798  isLeapYear(year) */\n      tag_301\n        /* \"Business Contract/BusinessHelper/IDT.sol\":1793:1797  year */\n      dup3\n        /* \"Business Contract/BusinessHelper/IDT.sol\":1782:1792  isLeapYear */\n      tag_73\n        /* \"Business Contract/BusinessHelper/IDT.sol\":1782:1798  isLeapYear(year) */\n      jump\t// in\n    tag_301:\n        /* \"Business Contract/BusinessHelper/IDT.sol\":1778:1935  if (isLeapYear(year)) {... */\n      iszero\n      tag_302\n      jumpi\n        /* \"Business Contract/BusinessHelper/IDT.sol\":1834:1836  29 */\n      0x1d\n        /* \"Business Contract/BusinessHelper/IDT.sol\":1827:1836  return 29 */\n      swap1\n      pop\n      jump(tag_287)\n        /* \"Business Contract/BusinessHelper/IDT.sol\":1778:1935  if (isLeapYear(year)) {... */\n    tag_302:\n        /* \"Business Contract/BusinessHelper/IDT.sol\":1913:1915  28 */\n      0x1c\n        /* \"Business Contract/BusinessHelper/IDT.sol\":1906:1915  return 28 */\n      swap1\n      pop\n        /* \"Business Contract/BusinessHelper/IDT.sol\":1362:1946  function getDaysInMonth(uint8 month, uint16 year) public pure returns (uint8) {... */\n    tag_287:\n      swap3\n      swap2\n      pop\n      pop\n      jump\t// out\n        /* \"Business Contract/BusinessHelper/IDT.sol\":3653:3849  function dnow() public view returns (uint16 year, uint8 month,uint8 day) {... */\n    tag_90:\n        /* \"Business Contract/BusinessHelper/IDT.sol\":3690:3701  uint16 year */\n      0x00\n        /* \"Business Contract/BusinessHelper/IDT.sol\":3703:3714  uint8 month */\n      dup1\n        /* \"Business Contract/BusinessHelper/IDT.sol\":3715:3724  uint8 day */\n      0x00\n        /* \"Business Contract/BusinessHelper/IDT.sol\":3741:3759  _DateTime memory d */\n      dup1\n        /* \"Business Contract/BusinessHelper/IDT.sol\":3762:3793  parseTimestamp(block.timestamp) */\n      tag_305\n        /* \"Business Contract/BusinessHelper/IDT.sol\":3777:3792  block.timestamp */\n      timestamp\n        /* \"Business Contract/BusinessHelper/IDT.sol\":3762:3776  parseTimestamp */\n      tag_95\n        /* \"Business Contract/BusinessHelper/IDT.sol\":3762:3793  parseTimestamp(block.timestamp) */\n      jump\t// in\n    tag_305:\n        /* \"Business Contract/BusinessHelper/IDT.sol\":3741:3793  _DateTime memory d = parseTimestamp(block.timestamp) */\n      swap1\n      pop\n        /* \"Business Contract/BusinessHelper/IDT.sol\":3816:3817  d */\n      dup1\n        /* \"Business Contract/BusinessHelper/IDT.sol\":3816:3822  d.year */\n      0x00\n      add\n      mload\n        /* \"Business Contract/BusinessHelper/IDT.sol\":3823:3824  d */\n      dup2\n        /* \"Business Contract/BusinessHelper/IDT.sol\":3823:3830  d.month */\n      0x20\n      add\n      mload\n        /* \"Business Contract/BusinessHelper/IDT.sol\":3831:3832  d */\n      dup3\n        /* \"Business Contract/BusinessHelper/IDT.sol\":3831:3836  d.day */\n      0x40\n      add\n      mload\n        /* \"Business Contract/BusinessHelper/IDT.sol\":3808:3837  return (d.year,d.month,d.day) */\n      swap4\n      pop\n      swap4\n      pop\n      swap4\n      pop\n      pop\n        /* \"Business Contract/BusinessHelper/IDT.sol\":3653:3849  function dnow() public view returns (uint16 year, uint8 month,uint8 day) {... */\n      swap1\n      swap2\n      swap3\n      jump\t// out\n        /* \"Business Contract/BusinessHelper/IDT.sol\":1958:3641  function parseTimestamp(uint timestamp) public pure returns (_DateTime memory dt) {... */\n    tag_95:\n        /* \"Business Contract/BusinessHelper/IDT.sol\":2019:2038  _DateTime memory dt */\n      tag_306\n      tag_307\n      jump\t// in\n    tag_306:\n        /* \"Business Contract/BusinessHelper/IDT.sol\":2059:2083  uint secondsAccountedFor */\n      0x00\n        /* \"Business Contract/BusinessHelper/IDT.sol\":2106:2114  uint buf */\n      dup1\n        /* \"Business Contract/BusinessHelper/IDT.sol\":2133:2140  uint8 i */\n      dup1\n        /* \"Business Contract/BusinessHelper/IDT.sol\":2196:2214  getYear(timestamp) */\n      tag_309\n        /* \"Business Contract/BusinessHelper/IDT.sol\":2204:2213  timestamp */\n      dup6\n        /* \"Business Contract/BusinessHelper/IDT.sol\":2196:2203  getYear */\n      tag_63\n        /* \"Business Contract/BusinessHelper/IDT.sol\":2196:2214  getYear(timestamp) */\n      jump\t// in\n    tag_309:\n        /* \"Business Contract/BusinessHelper/IDT.sol\":2186:2188  dt */\n      dup5\n        /* \"Business Contract/BusinessHelper/IDT.sol\":2186:2193  dt.year */\n      0x00\n      add\n        /* \"Business Contract/BusinessHelper/IDT.sol\":2186:2214  dt.year = getYear(timestamp) */\n      swap1\n      0xffff\n      and\n      swap1\n      dup2\n      0xffff\n      and\n      dup2\n      mstore\n      pop\n      pop\n        /* \"Business Contract/BusinessHelper/IDT.sol\":2266:2294  leapYearsBefore(ORIGIN_YEAR) */\n      tag_310\n        /* \"Business Contract/BusinessHelper/IDT.sol\":765:769  1970 */\n      0x07b2\n        /* \"Business Contract/BusinessHelper/IDT.sol\":2266:2294  leapYearsBefore(ORIGIN_YEAR) */\n      0xffff\n      and\n        /* \"Business Contract/BusinessHelper/IDT.sol\":2266:2281  leapYearsBefore */\n      tag_82\n        /* \"Business Contract/BusinessHelper/IDT.sol\":2266:2294  leapYearsBefore(ORIGIN_YEAR) */\n      jump\t// in\n    tag_310:\n        /* \"Business Contract/BusinessHelper/IDT.sol\":2239:2263  leapYearsBefore(dt.year) */\n      tag_311\n        /* \"Business Contract/BusinessHelper/IDT.sol\":2255:2257  dt */\n      dup6\n        /* \"Business Contract/BusinessHelper/IDT.sol\":2255:2262  dt.year */\n      0x00\n      add\n      mload\n        /* \"Business Contract/BusinessHelper/IDT.sol\":2239:2263  leapYearsBefore(dt.year) */\n      0xffff\n      and\n        /* \"Business Contract/BusinessHelper/IDT.sol\":2239:2254  leapYearsBefore */\n      tag_82\n        /* \"Business Contract/BusinessHelper/IDT.sol\":2239:2263  leapYearsBefore(dt.year) */\n      jump\t// in\n    tag_311:\n        /* \"Business Contract/BusinessHelper/IDT.sol\":2239:2294  leapYearsBefore(dt.year) - leapYearsBefore(ORIGIN_YEAR) */\n      tag_312\n      swap2\n      swap1\n      tag_192\n      jump\t// in\n    tag_312:\n        /* \"Business Contract/BusinessHelper/IDT.sol\":2233:2294  buf = leapYearsBefore(dt.year) - leapYearsBefore(ORIGIN_YEAR) */\n      swap2\n      pop\n        /* \"Business Contract/BusinessHelper/IDT.sol\":2361:2364  buf */\n      dup2\n        /* \"Business Contract/BusinessHelper/IDT.sol\":618:626  31622400 */\n      0x01e28500\n        /* \"Business Contract/BusinessHelper/IDT.sol\":2338:2364  LEAP_YEAR_IN_SECONDS * buf */\n      tag_313\n      swap2\n      swap1\n      tag_174\n      jump\t// in\n    tag_313:\n        /* \"Business Contract/BusinessHelper/IDT.sol\":2315:2364  secondsAccountedFor += LEAP_YEAR_IN_SECONDS * buf */\n      dup4\n      tag_314\n      swap2\n      swap1\n      tag_111\n      jump\t// in\n    tag_314:\n      swap3\n      pop\n        /* \"Business Contract/BusinessHelper/IDT.sol\":2449:2452  buf */\n      dup2\n        /* \"Business Contract/BusinessHelper/IDT.sol\":765:769  1970 */\n      0x07b2\n        /* \"Business Contract/BusinessHelper/IDT.sol\":2425:2427  dt */\n      dup6\n        /* \"Business Contract/BusinessHelper/IDT.sol\":2425:2432  dt.year */\n      0x00\n      add\n      mload\n        /* \"Business Contract/BusinessHelper/IDT.sol\":2425:2446  dt.year - ORIGIN_YEAR */\n      tag_315\n      swap2\n      swap1\n      tag_170\n      jump\t// in\n    tag_315:\n        /* \"Business Contract/BusinessHelper/IDT.sol\":2425:2452  dt.year - ORIGIN_YEAR - buf */\n      0xffff\n      and\n      tag_316\n      swap2\n      swap1\n      tag_192\n      jump\t// in\n    tag_316:\n        /* \"Business Contract/BusinessHelper/IDT.sol\":562:570  31536000 */\n      0x01e13380\n        /* \"Business Contract/BusinessHelper/IDT.sol\":2406:2453  YEAR_IN_SECONDS * (dt.year - ORIGIN_YEAR - buf) */\n      tag_317\n      swap2\n      swap1\n      tag_174\n      jump\t// in\n    tag_317:\n        /* \"Business Contract/BusinessHelper/IDT.sol\":2383:2453  secondsAccountedFor += YEAR_IN_SECONDS * (dt.year - ORIGIN_YEAR - buf) */\n      dup4\n      tag_318\n      swap2\n      swap1\n      tag_111\n      jump\t// in\n    tag_318:\n      swap3\n      pop\n        /* \"Business Contract/BusinessHelper/IDT.sol\":2500:2519  uint secondsInMonth */\n      0x00\n        /* \"Business Contract/BusinessHelper/IDT.sol\":2547:2548  1 */\n      0x01\n        /* \"Business Contract/BusinessHelper/IDT.sol\":2543:2548  i = 1 */\n      swap2\n      pop\n        /* \"Business Contract/BusinessHelper/IDT.sol\":2538:2930  for (i = 1; i <= 12; i++) {... */\n    tag_319:\n        /* \"Business Contract/BusinessHelper/IDT.sol\":2555:2557  12 */\n      0x0c\n        /* \"Business Contract/BusinessHelper/IDT.sol\":2550:2551  i */\n      dup3\n        /* \"Business Contract/BusinessHelper/IDT.sol\":2550:2557  i <= 12 */\n      0xff\n      and\n      gt\n        /* \"Business Contract/BusinessHelper/IDT.sol\":2538:2930  for (i = 1; i <= 12; i++) {... */\n      tag_320\n      jumpi\n        /* \"Business Contract/BusinessHelper/IDT.sol\":2625:2651  getDaysInMonth(i, dt.year) */\n      tag_322\n        /* \"Business Contract/BusinessHelper/IDT.sol\":2640:2641  i */\n      dup3\n        /* \"Business Contract/BusinessHelper/IDT.sol\":2643:2645  dt */\n      dup7\n        /* \"Business Contract/BusinessHelper/IDT.sol\":2643:2650  dt.year */\n      0x00\n      add\n      mload\n        /* \"Business Contract/BusinessHelper/IDT.sol\":2625:2639  getDaysInMonth */\n      tag_87\n        /* \"Business Contract/BusinessHelper/IDT.sol\":2625:2651  getDaysInMonth(i, dt.year) */\n      jump\t// in\n    tag_322:\n        /* \"Business Contract/BusinessHelper/IDT.sol\":2608:2651  DAY_IN_SECONDS * getDaysInMonth(i, dt.year) */\n      0xff\n      and\n        /* \"Business Contract/BusinessHelper/IDT.sol\":514:519  86400 */\n      0x015180\n        /* \"Business Contract/BusinessHelper/IDT.sol\":2608:2651  DAY_IN_SECONDS * getDaysInMonth(i, dt.year) */\n      tag_323\n      swap2\n      swap1\n      tag_174\n      jump\t// in\n    tag_323:\n        /* \"Business Contract/BusinessHelper/IDT.sol\":2591:2651  secondsInMonth = DAY_IN_SECONDS * getDaysInMonth(i, dt.year) */\n      swap1\n      pop\n        /* \"Business Contract/BusinessHelper/IDT.sol\":2721:2730  timestamp */\n      dup6\n        /* \"Business Contract/BusinessHelper/IDT.sol\":2699:2718  secondsAccountedFor */\n      dup5\n        /* \"Business Contract/BusinessHelper/IDT.sol\":2682:2696  secondsInMonth */\n      dup3\n        /* \"Business Contract/BusinessHelper/IDT.sol\":2682:2718  secondsInMonth + secondsAccountedFor */\n      tag_324\n      swap2\n      swap1\n      tag_111\n      jump\t// in\n    tag_324:\n        /* \"Business Contract/BusinessHelper/IDT.sol\":2682:2730  secondsInMonth + secondsAccountedFor > timestamp */\n      gt\n        /* \"Business Contract/BusinessHelper/IDT.sol\":2678:2847  if (secondsInMonth + secondsAccountedFor > timestamp) {... */\n      iszero\n      tag_325\n      jumpi\n        /* \"Business Contract/BusinessHelper/IDT.sol\":2778:2779  i */\n      dup2\n        /* \"Business Contract/BusinessHelper/IDT.sol\":2767:2769  dt */\n      dup6\n        /* \"Business Contract/BusinessHelper/IDT.sol\":2767:2775  dt.month */\n      0x20\n      add\n        /* \"Business Contract/BusinessHelper/IDT.sol\":2767:2779  dt.month = i */\n      swap1\n      0xff\n      and\n      swap1\n      dup2\n      0xff\n      and\n      dup2\n      mstore\n      pop\n      pop\n        /* \"Business Contract/BusinessHelper/IDT.sol\":2814:2819  break */\n      jump(tag_320)\n        /* \"Business Contract/BusinessHelper/IDT.sol\":2678:2847  if (secondsInMonth + secondsAccountedFor > timestamp) {... */\n    tag_325:\n        /* \"Business Contract/BusinessHelper/IDT.sol\":2896:2910  secondsInMonth */\n      dup1\n        /* \"Business Contract/BusinessHelper/IDT.sol\":2873:2910  secondsAccountedFor += secondsInMonth */\n      dup5\n      tag_326\n      swap2\n      swap1\n      tag_111\n      jump\t// in\n    tag_326:\n      swap4\n      pop\n        /* \"Business Contract/BusinessHelper/IDT.sol\":2559:2562  i++ */\n      dup2\n      dup1\n      tag_327\n      swap1\n      tag_328\n      jump\t// in\n    tag_327:\n      swap3\n      pop\n      pop\n        /* \"Business Contract/BusinessHelper/IDT.sol\":2538:2930  for (i = 1; i <= 12; i++) {... */\n      jump(tag_319)\n    tag_320:\n        /* \"Business Contract/BusinessHelper/IDT.sol\":2983:2984  1 */\n      0x01\n        /* \"Business Contract/BusinessHelper/IDT.sol\":2979:2984  i = 1 */\n      swap2\n      pop\n        /* \"Business Contract/BusinessHelper/IDT.sol\":2974:3308  for (i = 1; i <= getDaysInMonth(dt.month, dt.year); i++) {... */\n    tag_329:\n        /* \"Business Contract/BusinessHelper/IDT.sol\":2991:3024  getDaysInMonth(dt.month, dt.year) */\n      tag_332\n        /* \"Business Contract/BusinessHelper/IDT.sol\":3006:3008  dt */\n      dup6\n        /* \"Business Contract/BusinessHelper/IDT.sol\":3006:3014  dt.month */\n      0x20\n      add\n      mload\n        /* \"Business Contract/BusinessHelper/IDT.sol\":3016:3018  dt */\n      dup7\n        /* \"Business Contract/BusinessHelper/IDT.sol\":3016:3023  dt.year */\n      0x00\n      add\n      mload\n        /* \"Business Contract/BusinessHelper/IDT.sol\":2991:3005  getDaysInMonth */\n      tag_87\n        /* \"Business Contract/BusinessHelper/IDT.sol\":2991:3024  getDaysInMonth(dt.month, dt.year) */\n      jump\t// in\n    tag_332:\n        /* \"Business Contract/BusinessHelper/IDT.sol\":2986:3024  i <= getDaysInMonth(dt.month, dt.year) */\n      0xff\n      and\n        /* \"Business Contract/BusinessHelper/IDT.sol\":2986:2987  i */\n      dup3\n        /* \"Business Contract/BusinessHelper/IDT.sol\":2986:3024  i <= getDaysInMonth(dt.month, dt.year) */\n      0xff\n      and\n      gt\n        /* \"Business Contract/BusinessHelper/IDT.sol\":2974:3308  for (i = 1; i <= getDaysInMonth(dt.month, dt.year); i++) {... */\n      tag_330\n      jumpi\n        /* \"Business Contract/BusinessHelper/IDT.sol\":3101:3110  timestamp */\n      dup6\n        /* \"Business Contract/BusinessHelper/IDT.sol\":3079:3098  secondsAccountedFor */\n      dup5\n        /* \"Business Contract/BusinessHelper/IDT.sol\":514:519  86400 */\n      0x015180\n        /* \"Business Contract/BusinessHelper/IDT.sol\":3062:3098  DAY_IN_SECONDS + secondsAccountedFor */\n      tag_333\n      swap2\n      swap1\n      tag_111\n      jump\t// in\n    tag_333:\n        /* \"Business Contract/BusinessHelper/IDT.sol\":3062:3110  DAY_IN_SECONDS + secondsAccountedFor > timestamp */\n      gt\n        /* \"Business Contract/BusinessHelper/IDT.sol\":3058:3225  if (DAY_IN_SECONDS + secondsAccountedFor > timestamp) {... */\n      iszero\n      tag_334\n      jumpi\n        /* \"Business Contract/BusinessHelper/IDT.sol\":3156:3157  i */\n      dup2\n        /* \"Business Contract/BusinessHelper/IDT.sol\":3147:3149  dt */\n      dup6\n        /* \"Business Contract/BusinessHelper/IDT.sol\":3147:3153  dt.day */\n      0x40\n      add\n        /* \"Business Contract/BusinessHelper/IDT.sol\":3147:3157  dt.day = i */\n      swap1\n      0xff\n      and\n      swap1\n      dup2\n      0xff\n      and\n      dup2\n      mstore\n      pop\n      pop\n        /* \"Business Contract/BusinessHelper/IDT.sol\":3192:3197  break */\n      jump(tag_330)\n        /* \"Business Contract/BusinessHelper/IDT.sol\":3058:3225  if (DAY_IN_SECONDS + secondsAccountedFor > timestamp) {... */\n    tag_334:\n        /* \"Business Contract/BusinessHelper/IDT.sol\":514:519  86400 */\n      0x015180\n        /* \"Business Contract/BusinessHelper/IDT.sol\":3251:3288  secondsAccountedFor += DAY_IN_SECONDS */\n      dup5\n      tag_335\n      swap2\n      swap1\n      tag_111\n      jump\t// in\n    tag_335:\n      swap4\n      pop\n        /* \"Business Contract/BusinessHelper/IDT.sol\":3026:3029  i++ */\n      dup2\n      dup1\n      tag_336\n      swap1\n      tag_328\n      jump\t// in\n    tag_336:\n      swap3\n      pop\n      pop\n        /* \"Business Contract/BusinessHelper/IDT.sol\":2974:3308  for (i = 1; i <= getDaysInMonth(dt.month, dt.year); i++) {... */\n      jump(tag_329)\n    tag_330:\n        /* \"Business Contract/BusinessHelper/IDT.sol\":3363:3381  getHour(timestamp) */\n      tag_337\n        /* \"Business Contract/BusinessHelper/IDT.sol\":3371:3380  timestamp */\n      dup7\n        /* \"Business Contract/BusinessHelper/IDT.sol\":3363:3370  getHour */\n      tag_25\n        /* \"Business Contract/BusinessHelper/IDT.sol\":3363:3381  getHour(timestamp) */\n      jump\t// in\n    tag_337:\n        /* \"Business Contract/BusinessHelper/IDT.sol\":3353:3355  dt */\n      dup6\n        /* \"Business Contract/BusinessHelper/IDT.sol\":3353:3360  dt.hour */\n      0x60\n      add\n        /* \"Business Contract/BusinessHelper/IDT.sol\":3353:3381  dt.hour = getHour(timestamp) */\n      swap1\n      0xff\n      and\n      swap1\n      dup2\n      0xff\n      and\n      dup2\n      mstore\n      pop\n      pop\n        /* \"Business Contract/BusinessHelper/IDT.sol\":3441:3461  getMinute(timestamp) */\n      tag_338\n        /* \"Business Contract/BusinessHelper/IDT.sol\":3451:3460  timestamp */\n      dup7\n        /* \"Business Contract/BusinessHelper/IDT.sol\":3441:3450  getMinute */\n      tag_100\n        /* \"Business Contract/BusinessHelper/IDT.sol\":3441:3461  getMinute(timestamp) */\n      jump\t// in\n    tag_338:\n        /* \"Business Contract/BusinessHelper/IDT.sol\":3429:3431  dt */\n      dup6\n        /* \"Business Contract/BusinessHelper/IDT.sol\":3429:3438  dt.minute */\n      0x80\n      add\n        /* \"Business Contract/BusinessHelper/IDT.sol\":3429:3461  dt.minute = getMinute(timestamp) */\n      swap1\n      0xff\n      and\n      swap1\n      dup2\n      0xff\n      and\n      dup2\n      mstore\n      pop\n      pop\n        /* \"Business Contract/BusinessHelper/IDT.sol\":3521:3541  getSecond(timestamp) */\n      tag_339\n        /* \"Business Contract/BusinessHelper/IDT.sol\":3531:3540  timestamp */\n      dup7\n        /* \"Business Contract/BusinessHelper/IDT.sol\":3521:3530  getSecond */\n      tag_49\n        /* \"Business Contract/BusinessHelper/IDT.sol\":3521:3541  getSecond(timestamp) */\n      jump\t// in\n    tag_339:\n        /* \"Business Contract/BusinessHelper/IDT.sol\":3509:3511  dt */\n      dup6\n        /* \"Business Contract/BusinessHelper/IDT.sol\":3509:3518  dt.second */\n      0xa0\n      add\n        /* \"Business Contract/BusinessHelper/IDT.sol\":3509:3541  dt.second = getSecond(timestamp) */\n      swap1\n      0xff\n      and\n      swap1\n      dup2\n      0xff\n      and\n      dup2\n      mstore\n      pop\n      pop\n        /* \"Business Contract/BusinessHelper/IDT.sol\":3608:3629  getWeekday(timestamp) */\n      tag_340\n        /* \"Business Contract/BusinessHelper/IDT.sol\":3619:3628  timestamp */\n      dup7\n        /* \"Business Contract/BusinessHelper/IDT.sol\":3608:3618  getWeekday */\n      tag_30\n        /* \"Business Contract/BusinessHelper/IDT.sol\":3608:3629  getWeekday(timestamp) */\n      jump\t// in\n    tag_340:\n        /* \"Business Contract/BusinessHelper/IDT.sol\":3595:3597  dt */\n      dup6\n        /* \"Business Contract/BusinessHelper/IDT.sol\":3595:3605  dt.weekday */\n      0xc0\n      add\n        /* \"Business Contract/BusinessHelper/IDT.sol\":3595:3629  dt.weekday = getWeekday(timestamp) */\n      swap1\n      0xff\n      and\n      swap1\n      dup2\n      0xff\n      and\n      dup2\n      mstore\n      pop\n      pop\n        /* \"Business Contract/BusinessHelper/IDT.sol\":2040:3641  {... */\n      pop\n      pop\n      pop\n      pop\n        /* \"Business Contract/BusinessHelper/IDT.sol\":1958:3641  function parseTimestamp(uint timestamp) public pure returns (_DateTime memory dt) {... */\n      swap2\n      swap1\n      pop\n      jump\t// out\n        /* \"Business Contract/BusinessHelper/IDT.sol\":6435:6564  function getMinute(uint timestamp) public pure returns (uint8) {... */\n    tag_100:\n        /* \"Business Contract/BusinessHelper/IDT.sol\":6491:6496  uint8 */\n      0x00\n        /* \"Business Contract/BusinessHelper/IDT.sol\":6549:6551  60 */\n      0x3c\n        /* \"Business Contract/BusinessHelper/IDT.sol\":6543:6545  60 */\n      dup1\n        /* \"Business Contract/BusinessHelper/IDT.sol\":6531:6540  timestamp */\n      dup4\n        /* \"Business Contract/BusinessHelper/IDT.sol\":6531:6545  timestamp / 60 */\n      tag_342\n      swap2\n      swap1\n      tag_104\n      jump\t// in\n    tag_342:\n        /* \"Business Contract/BusinessHelper/IDT.sol\":6530:6551  (timestamp / 60) % 60 */\n      tag_343\n      swap2\n      swap1\n      tag_107\n      jump\t// in\n    tag_343:\n        /* \"Business Contract/BusinessHelper/IDT.sol\":6517:6552  return uint8((timestamp / 60) % 60) */\n      swap1\n      pop\n        /* \"Business Contract/BusinessHelper/IDT.sol\":6435:6564  function getMinute(uint timestamp) public pure returns (uint8) {... */\n      swap2\n      swap1\n      pop\n      jump\t// out\n        /* \"@openzeppelin/contracts/utils/Strings.sol\":447:1143  function toString(uint256 value) internal pure returns (string memory) {... */\n    tag_221:\n        /* \"@openzeppelin/contracts/utils/Strings.sol\":503:516  string memory */\n      0x60\n        /* \"@openzeppelin/contracts/utils/Strings.sol\":552:566  uint256 length */\n      0x00\n        /* \"@openzeppelin/contracts/utils/Strings.sol\":589:590  1 */\n      0x01\n        /* \"@openzeppelin/contracts/utils/Strings.sol\":569:586  Math.log10(value) */\n      tag_345\n        /* \"@openzeppelin/contracts/utils/Strings.sol\":580:585  value */\n      dup5\n        /* \"@openzeppelin/contracts/utils/Strings.sol\":569:579  Math.log10 */\n      tag_346\n        /* \"@openzeppelin/contracts/utils/Strings.sol\":569:586  Math.log10(value) */\n      jump\t// in\n    tag_345:\n        /* \"@openzeppelin/contracts/utils/Strings.sol\":569:590  Math.log10(value) + 1 */\n      add\n        /* \"@openzeppelin/contracts/utils/Strings.sol\":552:590  uint256 length = Math.log10(value) + 1 */\n      swap1\n      pop\n        /* \"@openzeppelin/contracts/utils/Strings.sol\":604:624  string memory buffer */\n      0x00\n        /* \"@openzeppelin/contracts/utils/Strings.sol\":638:644  length */\n      dup2\n        /* \"@openzeppelin/contracts/utils/Strings.sol\":627:645  new string(length) */\n      0xffffffffffffffff\n      dup2\n      gt\n      iszero\n      tag_347\n      jumpi\n      tag_348\n      tag_226\n      jump\t// in\n    tag_348:\n    tag_347:\n      mload(0x40)\n      swap1\n      dup1\n      dup3\n      mstore\n      dup1\n      0x1f\n      add\n      not(0x1f)\n      and\n      0x20\n      add\n      dup3\n      add\n      0x40\n      mstore\n      dup1\n      iszero\n      tag_349\n      jumpi\n      dup2\n      0x20\n      add\n      0x01\n      dup3\n      mul\n      dup1\n      calldatasize\n      dup4\n      calldatacopy\n      dup1\n      dup3\n      add\n      swap2\n      pop\n      pop\n      swap1\n      pop\n    tag_349:\n      pop\n        /* \"@openzeppelin/contracts/utils/Strings.sol\":604:645  string memory buffer = new string(length) */\n      swap1\n      pop\n        /* \"@openzeppelin/contracts/utils/Strings.sol\":659:670  uint256 ptr */\n      0x00\n        /* \"@openzeppelin/contracts/utils/Strings.sol\":785:791  length */\n      dup3\n        /* \"@openzeppelin/contracts/utils/Strings.sol\":781:783  32 */\n      0x20\n        /* \"@openzeppelin/contracts/utils/Strings.sol\":777:792  add(32, length) */\n      add\n        /* \"@openzeppelin/contracts/utils/Strings.sol\":769:775  buffer */\n      dup3\n        /* \"@openzeppelin/contracts/utils/Strings.sol\":765:793  add(buffer, add(32, length)) */\n      add\n        /* \"@openzeppelin/contracts/utils/Strings.sol\":758:793  ptr := add(buffer, add(32, length)) */\n      swap1\n      pop\n        /* \"@openzeppelin/contracts/utils/Strings.sol\":820:1100  while (true) {... */\n    tag_350:\n        /* \"@openzeppelin/contracts/utils/Strings.sol\":827:831  true */\n      0x01\n        /* \"@openzeppelin/contracts/utils/Strings.sol\":820:1100  while (true) {... */\n      iszero\n      tag_351\n      jumpi\n        /* \"@openzeppelin/contracts/utils/Strings.sol\":851:856  ptr-- */\n      dup1\n      dup1\n      0x01\n      swap1\n      sub\n      swap2\n      pop\n      pop\n        /* \"@openzeppelin/contracts/utils/Strings.sol\":990:998  _SYMBOLS */\n      0x3031323334353637383961626364656600000000000000000000000000000000\n        /* \"@openzeppelin/contracts/utils/Strings.sol\":985:987  10 */\n      0x0a\n        /* \"@openzeppelin/contracts/utils/Strings.sol\":978:983  value */\n      dup7\n        /* \"@openzeppelin/contracts/utils/Strings.sol\":974:988  mod(value, 10) */\n      mod\n        /* \"@openzeppelin/contracts/utils/Strings.sol\":969:999  byte(mod(value, 10), _SYMBOLS) */\n      byte\n        /* \"@openzeppelin/contracts/utils/Strings.sol\":964:967  ptr */\n      dup2\n        /* \"@openzeppelin/contracts/utils/Strings.sol\":956:1000  mstore8(ptr, byte(mod(value, 10), _SYMBOLS)) */\n      mstore8\n        /* \"@openzeppelin/contracts/utils/Strings.sol\":1044:1046  10 */\n      0x0a\n        /* \"@openzeppelin/contracts/utils/Strings.sol\":1035:1046  value /= 10 */\n      dup6\n      dup2\n      tag_352\n      jumpi\n      tag_353\n      tag_354\n      jump\t// in\n    tag_353:\n    tag_352:\n      div\n      swap5\n      pop\n        /* \"@openzeppelin/contracts/utils/Strings.sol\":1077:1078  0 */\n      0x00\n        /* \"@openzeppelin/contracts/utils/Strings.sol\":1068:1073  value */\n      dup6\n        /* \"@openzeppelin/contracts/utils/Strings.sol\":1068:1078  value == 0 */\n      sub\n        /* \"@openzeppelin/contracts/utils/Strings.sol\":820:1100  while (true) {... */\n      tag_350\n        /* \"@openzeppelin/contracts/utils/Strings.sol\":1064:1085  if (value == 0) break */\n      jumpi\n        /* \"@openzeppelin/contracts/utils/Strings.sol\":820:1100  while (true) {... */\n    tag_351:\n        /* \"@openzeppelin/contracts/utils/Strings.sol\":1120:1126  buffer */\n      dup2\n        /* \"@openzeppelin/contracts/utils/Strings.sol\":1113:1126  return buffer */\n      swap4\n      pop\n      pop\n      pop\n      pop\n        /* \"@openzeppelin/contracts/utils/Strings.sol\":447:1143  function toString(uint256 value) internal pure returns (string memory) {... */\n      swap2\n      swap1\n      pop\n      jump\t// out\n        /* \"@openzeppelin/contracts/utils/math/Math.sol\":10139:11055  function log10(uint256 value) internal pure returns (uint256) {... */\n    tag_346:\n        /* \"@openzeppelin/contracts/utils/math/Math.sol\":10192:10199  uint256 */\n      0x00\n        /* \"@openzeppelin/contracts/utils/math/Math.sol\":10211:10225  uint256 result */\n      dup1\n        /* \"@openzeppelin/contracts/utils/math/Math.sol\":10228:10229  0 */\n      0x00\n        /* \"@openzeppelin/contracts/utils/math/Math.sol\":10211:10229  uint256 result = 0 */\n      swap1\n      pop\n        /* \"@openzeppelin/contracts/utils/math/Math.sol\":10276:10284  10 ** 64 */\n      0x184f03e93ff9f4daa797ed6e38ed64bf6a1f010000000000000000\n        /* \"@openzeppelin/contracts/utils/math/Math.sol\":10267:10272  value */\n      dup4\n        /* \"@openzeppelin/contracts/utils/math/Math.sol\":10267:10284  value >= 10 ** 64 */\n      lt\n        /* \"@openzeppelin/contracts/utils/math/Math.sol\":10263:10366  if (value >= 10 ** 64) {... */\n      tag_357\n      jumpi\n        /* \"@openzeppelin/contracts/utils/math/Math.sol\":10313:10321  10 ** 64 */\n      0x184f03e93ff9f4daa797ed6e38ed64bf6a1f010000000000000000\n        /* \"@openzeppelin/contracts/utils/math/Math.sol\":10304:10321  value /= 10 ** 64 */\n      dup4\n      dup2\n      tag_358\n      jumpi\n      tag_359\n      tag_354\n      jump\t// in\n    tag_359:\n    tag_358:\n      div\n      swap3\n      pop\n        /* \"@openzeppelin/contracts/utils/math/Math.sol\":10349:10351  64 */\n      0x40\n        /* \"@openzeppelin/contracts/utils/math/Math.sol\":10339:10351  result += 64 */\n      dup2\n      add\n      swap1\n      pop\n        /* \"@openzeppelin/contracts/utils/math/Math.sol\":10263:10366  if (value >= 10 ** 64) {... */\n    tag_357:\n        /* \"@openzeppelin/contracts/utils/math/Math.sol\":10392:10400  10 ** 32 */\n      0x04ee2d6d415b85acef8100000000\n        /* \"@openzeppelin/contracts/utils/math/Math.sol\":10383:10388  value */\n      dup4\n        /* \"@openzeppelin/contracts/utils/math/Math.sol\":10383:10400  value >= 10 ** 32 */\n      lt\n        /* \"@openzeppelin/contracts/utils/math/Math.sol\":10379:10482  if (value >= 10 ** 32) {... */\n      tag_360\n      jumpi\n        /* \"@openzeppelin/contracts/utils/math/Math.sol\":10429:10437  10 ** 32 */\n      0x04ee2d6d415b85acef8100000000\n        /* \"@openzeppelin/contracts/utils/math/Math.sol\":10420:10437  value /= 10 ** 32 */\n      dup4\n      dup2\n      tag_361\n      jumpi\n      tag_362\n      tag_354\n      jump\t// in\n    tag_362:\n    tag_361:\n      div\n      swap3\n      pop\n        /* \"@openzeppelin/contracts/utils/math/Math.sol\":10465:10467  32 */\n      0x20\n        /* \"@openzeppelin/contracts/utils/math/Math.sol\":10455:10467  result += 32 */\n      dup2\n      add\n      swap1\n      pop\n        /* \"@openzeppelin/contracts/utils/math/Math.sol\":10379:10482  if (value >= 10 ** 32) {... */\n    tag_360:\n        /* \"@openzeppelin/contracts/utils/math/Math.sol\":10508:10516  10 ** 16 */\n      0x2386f26fc10000\n        /* \"@openzeppelin/contracts/utils/math/Math.sol\":10499:10504  value */\n      dup4\n        /* \"@openzeppelin/contracts/utils/math/Math.sol\":10499:10516  value >= 10 ** 16 */\n      lt\n        /* \"@openzeppelin/contracts/utils/math/Math.sol\":10495:10598  if (value >= 10 ** 16) {... */\n      tag_363\n      jumpi\n        /* \"@openzeppelin/contracts/utils/math/Math.sol\":10545:10553  10 ** 16 */\n      0x2386f26fc10000\n        /* \"@openzeppelin/contracts/utils/math/Math.sol\":10536:10553  value /= 10 ** 16 */\n      dup4\n      dup2\n      tag_364\n      jumpi\n      tag_365\n      tag_354\n      jump\t// in\n    tag_365:\n    tag_364:\n      div\n      swap3\n      pop\n        /* \"@openzeppelin/contracts/utils/math/Math.sol\":10581:10583  16 */\n      0x10\n        /* \"@openzeppelin/contracts/utils/math/Math.sol\":10571:10583  result += 16 */\n      dup2\n      add\n      swap1\n      pop\n        /* \"@openzeppelin/contracts/utils/math/Math.sol\":10495:10598  if (value >= 10 ** 16) {... */\n    tag_363:\n        /* \"@openzeppelin/contracts/utils/math/Math.sol\":10624:10631  10 ** 8 */\n      0x05f5e100\n        /* \"@openzeppelin/contracts/utils/math/Math.sol\":10615:10620  value */\n      dup4\n        /* \"@openzeppelin/contracts/utils/math/Math.sol\":10615:10631  value >= 10 ** 8 */\n      lt\n        /* \"@openzeppelin/contracts/utils/math/Math.sol\":10611:10711  if (value >= 10 ** 8) {... */\n      tag_366\n      jumpi\n        /* \"@openzeppelin/contracts/utils/math/Math.sol\":10660:10667  10 ** 8 */\n      0x05f5e100\n        /* \"@openzeppelin/contracts/utils/math/Math.sol\":10651:10667  value /= 10 ** 8 */\n      dup4\n      dup2\n      tag_367\n      jumpi\n      tag_368\n      tag_354\n      jump\t// in\n    tag_368:\n    tag_367:\n      div\n      swap3\n      pop\n        /* \"@openzeppelin/contracts/utils/math/Math.sol\":10695:10696  8 */\n      0x08\n        /* \"@openzeppelin/contracts/utils/math/Math.sol\":10685:10696  result += 8 */\n      dup2\n      add\n      swap1\n      pop\n        /* \"@openzeppelin/contracts/utils/math/Math.sol\":10611:10711  if (value >= 10 ** 8) {... */\n    tag_366:\n        /* \"@openzeppelin/contracts/utils/math/Math.sol\":10737:10744  10 ** 4 */\n      0x2710\n        /* \"@openzeppelin/contracts/utils/math/Math.sol\":10728:10733  value */\n      dup4\n        /* \"@openzeppelin/contracts/utils/math/Math.sol\":10728:10744  value >= 10 ** 4 */\n      lt\n        /* \"@openzeppelin/contracts/utils/math/Math.sol\":10724:10824  if (value >= 10 ** 4) {... */\n      tag_369\n      jumpi\n        /* \"@openzeppelin/contracts/utils/math/Math.sol\":10773:10780  10 ** 4 */\n      0x2710\n        /* \"@openzeppelin/contracts/utils/math/Math.sol\":10764:10780  value /= 10 ** 4 */\n      dup4\n      dup2\n      tag_370\n      jumpi\n      tag_371\n      tag_354\n      jump\t// in\n    tag_371:\n    tag_370:\n      div\n      swap3\n      pop\n        /* \"@openzeppelin/contracts/utils/math/Math.sol\":10808:10809  4 */\n      0x04\n        /* \"@openzeppelin/contracts/utils/math/Math.sol\":10798:10809  result += 4 */\n      dup2\n      add\n      swap1\n      pop\n        /* \"@openzeppelin/contracts/utils/math/Math.sol\":10724:10824  if (value >= 10 ** 4) {... */\n    tag_369:\n        /* \"@openzeppelin/contracts/utils/math/Math.sol\":10850:10857  10 ** 2 */\n      0x64\n        /* \"@openzeppelin/contracts/utils/math/Math.sol\":10841:10846  value */\n      dup4\n        /* \"@openzeppelin/contracts/utils/math/Math.sol\":10841:10857  value >= 10 ** 2 */\n      lt\n        /* \"@openzeppelin/contracts/utils/math/Math.sol\":10837:10937  if (value >= 10 ** 2) {... */\n      tag_372\n      jumpi\n        /* \"@openzeppelin/contracts/utils/math/Math.sol\":10886:10893  10 ** 2 */\n      0x64\n        /* \"@openzeppelin/contracts/utils/math/Math.sol\":10877:10893  value /= 10 ** 2 */\n      dup4\n      dup2\n      tag_373\n      jumpi\n      tag_374\n      tag_354\n      jump\t// in\n    tag_374:\n    tag_373:\n      div\n      swap3\n      pop\n        /* \"@openzeppelin/contracts/utils/math/Math.sol\":10921:10922  2 */\n      0x02\n        /* \"@openzeppelin/contracts/utils/math/Math.sol\":10911:10922  result += 2 */\n      dup2\n      add\n      swap1\n      pop\n        /* \"@openzeppelin/contracts/utils/math/Math.sol\":10837:10937  if (value >= 10 ** 2) {... */\n    tag_372:\n        /* \"@openzeppelin/contracts/utils/math/Math.sol\":10963:10970  10 ** 1 */\n      0x0a\n        /* \"@openzeppelin/contracts/utils/math/Math.sol\":10954:10959  value */\n      dup4\n        /* \"@openzeppelin/contracts/utils/math/Math.sol\":10954:10970  value >= 10 ** 1 */\n      lt\n        /* \"@openzeppelin/contracts/utils/math/Math.sol\":10950:11016  if (value >= 10 ** 1) {... */\n      tag_375\n      jumpi\n        /* \"@openzeppelin/contracts/utils/math/Math.sol\":11000:11001  1 */\n      0x01\n        /* \"@openzeppelin/contracts/utils/math/Math.sol\":10990:11001  result += 1 */\n      dup2\n      add\n      swap1\n      pop\n        /* \"@openzeppelin/contracts/utils/math/Math.sol\":10950:11016  if (value >= 10 ** 1) {... */\n    tag_375:\n        /* \"@openzeppelin/contracts/utils/math/Math.sol\":11042:11048  result */\n      dup1\n        /* \"@openzeppelin/contracts/utils/math/Math.sol\":11035:11048  return result */\n      swap2\n      pop\n      pop\n        /* \"@openzeppelin/contracts/utils/math/Math.sol\":10139:11055  function log10(uint256 value) internal pure returns (uint256) {... */\n      swap2\n      swap1\n      pop\n      jump\t// out\n    tag_135:\n      mload(0x40)\n      dup1\n      0x0180\n      add\n      0x40\n      mstore\n      dup1\n      0x0c\n      swap1\n      0x20\n      dup3\n      mul\n      dup1\n      calldatasize\n      dup4\n      calldatacopy\n      dup1\n      dup3\n      add\n      swap2\n      pop\n      pop\n      swap1\n      pop\n      pop\n      swap1\n      jump\t// out\n    tag_307:\n      mload(0x40)\n      dup1\n      0xe0\n      add\n      0x40\n      mstore\n      dup1\n      and(0xffff, 0x00)\n      dup2\n      mstore\n      0x20\n      add\n      and(0xff, 0x00)\n      dup2\n      mstore\n      0x20\n      add\n      and(0xff, 0x00)\n      dup2\n      mstore\n      0x20\n      add\n      and(0xff, 0x00)\n      dup2\n      mstore\n      0x20\n      add\n      and(0xff, 0x00)\n      dup2\n      mstore\n      0x20\n      add\n      and(0xff, 0x00)\n      dup2\n      mstore\n      0x20\n      add\n      and(0xff, 0x00)\n      dup2\n      mstore\n      pop\n      swap1\n      jump\t// out\n        /* \"#utility.yul\":88:205   */\n    tag_377:\n        /* \"#utility.yul\":197:198   */\n      0x00\n        /* \"#utility.yul\":194:195   */\n      dup1\n        /* \"#utility.yul\":187:199   */\n      revert\n        /* \"#utility.yul\":334:411   */\n    tag_379:\n        /* \"#utility.yul\":371:378   */\n      0x00\n        /* \"#utility.yul\":400:405   */\n      dup2\n        /* \"#utility.yul\":389:405   */\n      swap1\n      pop\n        /* \"#utility.yul\":334:411   */\n      swap2\n      swap1\n      pop\n      jump\t// out\n        /* \"#utility.yul\":417:539   */\n    tag_380:\n        /* \"#utility.yul\":490:514   */\n      tag_408\n        /* \"#utility.yul\":508:513   */\n      dup2\n        /* \"#utility.yul\":490:514   */\n      tag_379\n      jump\t// in\n    tag_408:\n        /* \"#utility.yul\":483:488   */\n      dup2\n        /* \"#utility.yul\":480:515   */\n      eq\n        /* \"#utility.yul\":470:533   */\n      tag_409\n      jumpi\n        /* \"#utility.yul\":529:530   */\n      0x00\n        /* \"#utility.yul\":526:527   */\n      dup1\n        /* \"#utility.yul\":519:531   */\n      revert\n        /* \"#utility.yul\":470:533   */\n    tag_409:\n        /* \"#utility.yul\":417:539   */\n      pop\n      jump\t// out\n        /* \"#utility.yul\":545:684   */\n    tag_381:\n        /* \"#utility.yul\":591:596   */\n      0x00\n        /* \"#utility.yul\":629:635   */\n      dup2\n        /* \"#utility.yul\":616:636   */\n      calldataload\n        /* \"#utility.yul\":607:636   */\n      swap1\n      pop\n        /* \"#utility.yul\":645:678   */\n      tag_411\n        /* \"#utility.yul\":672:677   */\n      dup2\n        /* \"#utility.yul\":645:678   */\n      tag_380\n      jump\t// in\n    tag_411:\n        /* \"#utility.yul\":545:684   */\n      swap3\n      swap2\n      pop\n      pop\n      jump\t// out\n        /* \"#utility.yul\":690:1019   */\n    tag_24:\n        /* \"#utility.yul\":749:755   */\n      0x00\n        /* \"#utility.yul\":798:800   */\n      0x20\n        /* \"#utility.yul\":786:795   */\n      dup3\n        /* \"#utility.yul\":777:784   */\n      dup5\n        /* \"#utility.yul\":773:796   */\n      sub\n        /* \"#utility.yul\":769:801   */\n      slt\n        /* \"#utility.yul\":766:885   */\n      iszero\n      tag_413\n      jumpi\n        /* \"#utility.yul\":804:883   */\n      tag_414\n      tag_377\n      jump\t// in\n    tag_414:\n        /* \"#utility.yul\":766:885   */\n    tag_413:\n        /* \"#utility.yul\":924:925   */\n      0x00\n        /* \"#utility.yul\":949:1002   */\n      tag_415\n        /* \"#utility.yul\":994:1001   */\n      dup5\n        /* \"#utility.yul\":985:991   */\n      dup3\n        /* \"#utility.yul\":974:983   */\n      dup6\n        /* \"#utility.yul\":970:992   */\n      add\n        /* \"#utility.yul\":949:1002   */\n      tag_381\n      jump\t// in\n    tag_415:\n        /* \"#utility.yul\":939:1002   */\n      swap2\n      pop\n        /* \"#utility.yul\":895:1012   */\n      pop\n        /* \"#utility.yul\":690:1019   */\n      swap3\n      swap2\n      pop\n      pop\n      jump\t// out\n        /* \"#utility.yul\":1025:1111   */\n    tag_382:\n        /* \"#utility.yul\":1060:1067   */\n      0x00\n        /* \"#utility.yul\":1100:1104   */\n      0xff\n        /* \"#utility.yul\":1093:1098   */\n      dup3\n        /* \"#utility.yul\":1089:1105   */\n      and\n        /* \"#utility.yul\":1078:1105   */\n      swap1\n      pop\n        /* \"#utility.yul\":1025:1111   */\n      swap2\n      swap1\n      pop\n      jump\t// out\n        /* \"#utility.yul\":1117:1237   */\n    tag_383:\n        /* \"#utility.yul\":1208:1230   */\n      tag_418\n        /* \"#utility.yul\":1224:1229   */\n      dup2\n        /* \"#utility.yul\":1208:1230   */\n      tag_382\n      jump\t// in\n    tag_418:\n        /* \"#utility.yul\":1203:1206   */\n      dup3\n        /* \"#utility.yul\":1196:1231   */\n      mstore\n        /* \"#utility.yul\":1117:1237   */\n      pop\n      pop\n      jump\t// out\n        /* \"#utility.yul\":1243:1473   */\n    tag_27:\n        /* \"#utility.yul\":1340:1344   */\n      0x00\n        /* \"#utility.yul\":1378:1380   */\n      0x20\n        /* \"#utility.yul\":1367:1376   */\n      dup3\n        /* \"#utility.yul\":1363:1381   */\n      add\n        /* \"#utility.yul\":1355:1381   */\n      swap1\n      pop\n        /* \"#utility.yul\":1391:1466   */\n      tag_420\n        /* \"#utility.yul\":1463:1464   */\n      0x00\n        /* \"#utility.yul\":1452:1461   */\n      dup4\n        /* \"#utility.yul\":1448:1465   */\n      add\n        /* \"#utility.yul\":1439:1445   */\n      dup5\n        /* \"#utility.yul\":1391:1466   */\n      tag_383\n      jump\t// in\n    tag_420:\n        /* \"#utility.yul\":1243:1473   */\n      swap3\n      swap2\n      pop\n      pop\n      jump\t// out\n        /* \"#utility.yul\":1479:1568   */\n    tag_384:\n        /* \"#utility.yul\":1515:1522   */\n      0x00\n        /* \"#utility.yul\":1555:1561   */\n      0xffff\n        /* \"#utility.yul\":1548:1553   */\n      dup3\n        /* \"#utility.yul\":1544:1562   */\n      and\n        /* \"#utility.yul\":1533:1562   */\n      swap1\n      pop\n        /* \"#utility.yul\":1479:1568   */\n      swap2\n      swap1\n      pop\n      jump\t// out\n        /* \"#utility.yul\":1574:1694   */\n    tag_385:\n        /* \"#utility.yul\":1646:1669   */\n      tag_423\n        /* \"#utility.yul\":1663:1668   */\n      dup2\n        /* \"#utility.yul\":1646:1669   */\n      tag_384\n      jump\t// in\n    tag_423:\n        /* \"#utility.yul\":1639:1644   */\n      dup2\n        /* \"#utility.yul\":1636:1670   */\n      eq\n        /* \"#utility.yul\":1626:1688   */\n      tag_424\n      jumpi\n        /* \"#utility.yul\":1684:1685   */\n      0x00\n        /* \"#utility.yul\":1681:1682   */\n      dup1\n        /* \"#utility.yul\":1674:1686   */\n      revert\n        /* \"#utility.yul\":1626:1688   */\n    tag_424:\n        /* \"#utility.yul\":1574:1694   */\n      pop\n      jump\t// out\n        /* \"#utility.yul\":1700:1837   */\n    tag_386:\n        /* \"#utility.yul\":1745:1750   */\n      0x00\n        /* \"#utility.yul\":1783:1789   */\n      dup2\n        /* \"#utility.yul\":1770:1790   */\n      calldataload\n        /* \"#utility.yul\":1761:1790   */\n      swap1\n      pop\n        /* \"#utility.yul\":1799:1831   */\n      tag_426\n        /* \"#utility.yul\":1825:1830   */\n      dup2\n        /* \"#utility.yul\":1799:1831   */\n      tag_385\n      jump\t// in\n    tag_426:\n        /* \"#utility.yul\":1700:1837   */\n      swap3\n      swap2\n      pop\n      pop\n      jump\t// out\n        /* \"#utility.yul\":1843:1961   */\n    tag_387:\n        /* \"#utility.yul\":1914:1936   */\n      tag_428\n        /* \"#utility.yul\":1930:1935   */\n      dup2\n        /* \"#utility.yul\":1914:1936   */\n      tag_382\n      jump\t// in\n    tag_428:\n        /* \"#utility.yul\":1907:1912   */\n      dup2\n        /* \"#utility.yul\":1904:1937   */\n      eq\n        /* \"#utility.yul\":1894:1955   */\n      tag_429\n      jumpi\n        /* \"#utility.yul\":1951:1952   */\n      0x00\n        /* \"#utility.yul\":1948:1949   */\n      dup1\n        /* \"#utility.yul\":1941:1953   */\n      revert\n        /* \"#utility.yul\":1894:1955   */\n    tag_429:\n        /* \"#utility.yul\":1843:1961   */\n      pop\n      jump\t// out\n        /* \"#utility.yul\":1967:2102   */\n    tag_388:\n        /* \"#utility.yul\":2011:2016   */\n      0x00\n        /* \"#utility.yul\":2049:2055   */\n      dup2\n        /* \"#utility.yul\":2036:2056   */\n      calldataload\n        /* \"#utility.yul\":2027:2056   */\n      swap1\n      pop\n        /* \"#utility.yul\":2065:2096   */\n      tag_431\n        /* \"#utility.yul\":2090:2095   */\n      dup2\n        /* \"#utility.yul\":2065:2096   */\n      tag_387\n      jump\t// in\n    tag_431:\n        /* \"#utility.yul\":1967:2102   */\n      swap3\n      swap2\n      pop\n      pop\n      jump\t// out\n        /* \"#utility.yul\":2108:3001   */\n    tag_34:\n        /* \"#utility.yul\":2194:2200   */\n      0x00\n        /* \"#utility.yul\":2202:2208   */\n      dup1\n        /* \"#utility.yul\":2210:2216   */\n      0x00\n        /* \"#utility.yul\":2218:2224   */\n      dup1\n        /* \"#utility.yul\":2226:2232   */\n      0x00\n        /* \"#utility.yul\":2275:2278   */\n      0xa0\n        /* \"#utility.yul\":2263:2272   */\n      dup7\n        /* \"#utility.yul\":2254:2261   */\n      dup9\n        /* \"#utility.yul\":2250:2273   */\n      sub\n        /* \"#utility.yul\":2246:2279   */\n      slt\n        /* \"#utility.yul\":2243:2363   */\n      iszero\n      tag_433\n      jumpi\n        /* \"#utility.yul\":2282:2361   */\n      tag_434\n      tag_377\n      jump\t// in\n    tag_434:\n        /* \"#utility.yul\":2243:2363   */\n    tag_433:\n        /* \"#utility.yul\":2402:2403   */\n      0x00\n        /* \"#utility.yul\":2427:2479   */\n      tag_435\n        /* \"#utility.yul\":2471:2478   */\n      dup9\n        /* \"#utility.yul\":2462:2468   */\n      dup3\n        /* \"#utility.yul\":2451:2460   */\n      dup10\n        /* \"#utility.yul\":2447:2469   */\n      add\n        /* \"#utility.yul\":2427:2479   */\n      tag_386\n      jump\t// in\n    tag_435:\n        /* \"#utility.yul\":2417:2479   */\n      swap6\n      pop\n        /* \"#utility.yul\":2373:2489   */\n      pop\n        /* \"#utility.yul\":2528:2530   */\n      0x20\n        /* \"#utility.yul\":2554:2605   */\n      tag_436\n        /* \"#utility.yul\":2597:2604   */\n      dup9\n        /* \"#utility.yul\":2588:2594   */\n      dup3\n        /* \"#utility.yul\":2577:2586   */\n      dup10\n        /* \"#utility.yul\":2573:2595   */\n      add\n        /* \"#utility.yul\":2554:2605   */\n      tag_388\n      jump\t// in\n    tag_436:\n        /* \"#utility.yul\":2544:2605   */\n      swap5\n      pop\n        /* \"#utility.yul\":2499:2615   */\n      pop\n        /* \"#utility.yul\":2654:2656   */\n      0x40\n        /* \"#utility.yul\":2680:2731   */\n      tag_437\n        /* \"#utility.yul\":2723:2730   */\n      dup9\n        /* \"#utility.yul\":2714:2720   */\n      dup3\n        /* \"#utility.yul\":2703:2712   */\n      dup10\n        /* \"#utility.yul\":2699:2721   */\n      add\n        /* \"#utility.yul\":2680:2731   */\n      tag_388\n      jump\t// in\n    tag_437:\n        /* \"#utility.yul\":2670:2731   */\n      swap4\n      pop\n        /* \"#utility.yul\":2625:2741   */\n      pop\n        /* \"#utility.yul\":2780:2782   */\n      0x60\n        /* \"#utility.yul\":2806:2857   */\n      tag_438\n        /* \"#utility.yul\":2849:2856   */\n      dup9\n        /* \"#utility.yul\":2840:2846   */\n      dup3\n        /* \"#utility.yul\":2829:2838   */\n      dup10\n        /* \"#utility.yul\":2825:2847   */\n      add\n        /* \"#utility.yul\":2806:2857   */\n      tag_388\n      jump\t// in\n    tag_438:\n        /* \"#utility.yul\":2796:2857   */\n      swap3\n      pop\n        /* \"#utility.yul\":2751:2867   */\n      pop\n        /* \"#utility.yul\":2906:2909   */\n      0x80\n        /* \"#utility.yul\":2933:2984   */\n      tag_439\n        /* \"#utility.yul\":2976:2983   */\n      dup9\n        /* \"#utility.yul\":2967:2973   */\n      dup3\n        /* \"#utility.yul\":2956:2965   */\n      dup10\n        /* \"#utility.yul\":2952:2974   */\n      add\n        /* \"#utility.yul\":2933:2984   */\n      tag_388\n      jump\t// in\n    tag_439:\n        /* \"#utility.yul\":2923:2984   */\n      swap2\n      pop\n        /* \"#utility.yul\":2877:2994   */\n      pop\n        /* \"#utility.yul\":2108:3001   */\n      swap3\n      swap6\n      pop\n      swap3\n      swap6\n      swap1\n      swap4\n      pop\n      jump\t// out\n        /* \"#utility.yul\":3007:3133   */\n    tag_389:\n        /* \"#utility.yul\":3102:3126   */\n      tag_441\n        /* \"#utility.yul\":3120:3125   */\n      dup2\n        /* \"#utility.yul\":3102:3126   */\n      tag_379\n      jump\t// in\n    tag_441:\n        /* \"#utility.yul\":3097:3100   */\n      dup3\n        /* \"#utility.yul\":3090:3127   */\n      mstore\n        /* \"#utility.yul\":3007:3133   */\n      pop\n      pop\n      jump\t// out\n        /* \"#utility.yul\":3139:3377   */\n    tag_37:\n        /* \"#utility.yul\":3240:3244   */\n      0x00\n        /* \"#utility.yul\":3278:3280   */\n      0x20\n        /* \"#utility.yul\":3267:3276   */\n      dup3\n        /* \"#utility.yul\":3263:3281   */\n      add\n        /* \"#utility.yul\":3255:3281   */\n      swap1\n      pop\n        /* \"#utility.yul\":3291:3370   */\n      tag_443\n        /* \"#utility.yul\":3367:3368   */\n      0x00\n        /* \"#utility.yul\":3356:3365   */\n      dup4\n        /* \"#utility.yul\":3352:3369   */\n      add\n        /* \"#utility.yul\":3343:3349   */\n      dup5\n        /* \"#utility.yul\":3291:3370   */\n      tag_389\n      jump\t// in\n    tag_443:\n        /* \"#utility.yul\":3139:3377   */\n      swap3\n      swap2\n      pop\n      pop\n      jump\t// out\n        /* \"#utility.yul\":3383:4134   */\n    tag_44:\n        /* \"#utility.yul\":3462:3468   */\n      0x00\n        /* \"#utility.yul\":3470:3476   */\n      dup1\n        /* \"#utility.yul\":3478:3484   */\n      0x00\n        /* \"#utility.yul\":3486:3492   */\n      dup1\n        /* \"#utility.yul\":3535:3538   */\n      0x80\n        /* \"#utility.yul\":3523:3532   */\n      dup6\n        /* \"#utility.yul\":3514:3521   */\n      dup8\n        /* \"#utility.yul\":3510:3533   */\n      sub\n        /* \"#utility.yul\":3506:3539   */\n      slt\n        /* \"#utility.yul\":3503:3623   */\n      iszero\n      tag_445\n      jumpi\n        /* \"#utility.yul\":3542:3621   */\n      tag_446\n      tag_377\n      jump\t// in\n    tag_446:\n        /* \"#utility.yul\":3503:3623   */\n    tag_445:\n        /* \"#utility.yul\":3662:3663   */\n      0x00\n        /* \"#utility.yul\":3687:3739   */\n      tag_447\n        /* \"#utility.yul\":3731:3738   */\n      dup8\n        /* \"#utility.yul\":3722:3728   */\n      dup3\n        /* \"#utility.yul\":3711:3720   */\n      dup9\n        /* \"#utility.yul\":3707:3729   */\n      add\n        /* \"#utility.yul\":3687:3739   */\n      tag_386\n      jump\t// in\n    tag_447:\n        /* \"#utility.yul\":3677:3739   */\n      swap5\n      pop\n        /* \"#utility.yul\":3633:3749   */\n      pop\n        /* \"#utility.yul\":3788:3790   */\n      0x20\n        /* \"#utility.yul\":3814:3865   */\n      tag_448\n        /* \"#utility.yul\":3857:3864   */\n      dup8\n        /* \"#utility.yul\":3848:3854   */\n      dup3\n        /* \"#utility.yul\":3837:3846   */\n      dup9\n        /* \"#utility.yul\":3833:3855   */\n      add\n        /* \"#utility.yul\":3814:3865   */\n      tag_388\n      jump\t// in\n    tag_448:\n        /* \"#utility.yul\":3804:3865   */\n      swap4\n      pop\n        /* \"#utility.yul\":3759:3875   */\n      pop\n        /* \"#utility.yul\":3914:3916   */\n      0x40\n        /* \"#utility.yul\":3940:3991   */\n      tag_449\n        /* \"#utility.yul\":3983:3990   */\n      dup8\n        /* \"#utility.yul\":3974:3980   */\n      dup3\n        /* \"#utility.yul\":3963:3972   */\n      dup9\n        /* \"#utility.yul\":3959:3981   */\n      add\n        /* \"#utility.yul\":3940:3991   */\n      tag_388\n      jump\t// in\n    tag_449:\n        /* \"#utility.yul\":3930:3991   */\n      swap3\n      pop\n        /* \"#utility.yul\":3885:4001   */\n      pop\n        /* \"#utility.yul\":4040:4042   */\n      0x60\n        /* \"#utility.yul\":4066:4117   */\n      tag_450\n        /* \"#utility.yul\":4109:4116   */\n      dup8\n        /* \"#utility.yul\":4100:4106   */\n      dup3\n        /* \"#utility.yul\":4089:4098   */\n      dup9\n        /* \"#utility.yul\":4085:4107   */\n      add\n        /* \"#utility.yul\":4066:4117   */\n      tag_388\n      jump\t// in\n    tag_450:\n        /* \"#utility.yul\":4056:4117   */\n      swap2\n      pop\n        /* \"#utility.yul\":4011:4127   */\n      pop\n        /* \"#utility.yul\":3383:4134   */\n      swap3\n      swap6\n      swap2\n      swap5\n      pop\n      swap3\n      pop\n      jump\t// out\n        /* \"#utility.yul\":4140:4749   */\n    tag_53:\n        /* \"#utility.yul\":4212:4218   */\n      0x00\n        /* \"#utility.yul\":4220:4226   */\n      dup1\n        /* \"#utility.yul\":4228:4234   */\n      0x00\n        /* \"#utility.yul\":4277:4279   */\n      0x60\n        /* \"#utility.yul\":4265:4274   */\n      dup5\n        /* \"#utility.yul\":4256:4263   */\n      dup7\n        /* \"#utility.yul\":4252:4275   */\n      sub\n        /* \"#utility.yul\":4248:4280   */\n      slt\n        /* \"#utility.yul\":4245:4364   */\n      iszero\n      tag_452\n      jumpi\n        /* \"#utility.yul\":4283:4362   */\n      tag_453\n      tag_377\n      jump\t// in\n    tag_453:\n        /* \"#utility.yul\":4245:4364   */\n    tag_452:\n        /* \"#utility.yul\":4403:4404   */\n      0x00\n        /* \"#utility.yul\":4428:4480   */\n      tag_454\n        /* \"#utility.yul\":4472:4479   */\n      dup7\n        /* \"#utility.yul\":4463:4469   */\n      dup3\n        /* \"#utility.yul\":4452:4461   */\n      dup8\n        /* \"#utility.yul\":4448:4470   */\n      add\n        /* \"#utility.yul\":4428:4480   */\n      tag_386\n      jump\t// in\n    tag_454:\n        /* \"#utility.yul\":4418:4480   */\n      swap4\n      pop\n        /* \"#utility.yul\":4374:4490   */\n      pop\n        /* \"#utility.yul\":4529:4531   */\n      0x20\n        /* \"#utility.yul\":4555:4606   */\n      tag_455\n        /* \"#utility.yul\":4598:4605   */\n      dup7\n        /* \"#utility.yul\":4589:4595   */\n      dup3\n        /* \"#utility.yul\":4578:4587   */\n      dup8\n        /* \"#utility.yul\":4574:4596   */\n      add\n        /* \"#utility.yul\":4555:4606   */\n      tag_388\n      jump\t// in\n    tag_455:\n        /* \"#utility.yul\":4545:4606   */\n      swap3\n      pop\n        /* \"#utility.yul\":4500:4616   */\n      pop\n        /* \"#utility.yul\":4655:4657   */\n      0x40\n        /* \"#utility.yul\":4681:4732   */\n      tag_456\n        /* \"#utility.yul\":4724:4731   */\n      dup7\n        /* \"#utility.yul\":4715:4721   */\n      dup3\n        /* \"#utility.yul\":4704:4713   */\n      dup8\n        /* \"#utility.yul\":4700:4722   */\n      add\n        /* \"#utility.yul\":4681:4732   */\n      tag_388\n      jump\t// in\n    tag_456:\n        /* \"#utility.yul\":4671:4732   */\n      swap2\n      pop\n        /* \"#utility.yul\":4626:4742   */\n      pop\n        /* \"#utility.yul\":4140:4749   */\n      swap3\n      pop\n      swap3\n      pop\n      swap3\n      jump\t// out\n        /* \"#utility.yul\":4755:5790   */\n    tag_58:\n        /* \"#utility.yul\":4848:4854   */\n      0x00\n        /* \"#utility.yul\":4856:4862   */\n      dup1\n        /* \"#utility.yul\":4864:4870   */\n      0x00\n        /* \"#utility.yul\":4872:4878   */\n      dup1\n        /* \"#utility.yul\":4880:4886   */\n      0x00\n        /* \"#utility.yul\":4888:4894   */\n      dup1\n        /* \"#utility.yul\":4937:4940   */\n      0xc0\n        /* \"#utility.yul\":4925:4934   */\n      dup8\n        /* \"#utility.yul\":4916:4923   */\n      dup10\n        /* \"#utility.yul\":4912:4935   */\n      sub\n        /* \"#utility.yul\":4908:4941   */\n      slt\n        /* \"#utility.yul\":4905:5025   */\n      iszero\n      tag_458\n      jumpi\n        /* \"#utility.yul\":4944:5023   */\n      tag_459\n      tag_377\n      jump\t// in\n    tag_459:\n        /* \"#utility.yul\":4905:5025   */\n    tag_458:\n        /* \"#utility.yul\":5064:5065   */\n      0x00\n        /* \"#utility.yul\":5089:5141   */\n      tag_460\n        /* \"#utility.yul\":5133:5140   */\n      dup10\n        /* \"#utility.yul\":5124:5130   */\n      dup3\n        /* \"#utility.yul\":5113:5122   */\n      dup11\n        /* \"#utility.yul\":5109:5131   */\n      add\n        /* \"#utility.yul\":5089:5141   */\n      tag_386\n      jump\t// in\n    tag_460:\n        /* \"#utility.yul\":5079:5141   */\n      swap7\n      pop\n        /* \"#utility.yul\":5035:5151   */\n      pop\n        /* \"#utility.yul\":5190:5192   */\n      0x20\n        /* \"#utility.yul\":5216:5267   */\n      tag_461\n        /* \"#utility.yul\":5259:5266   */\n      dup10\n        /* \"#utility.yul\":5250:5256   */\n      dup3\n        /* \"#utility.yul\":5239:5248   */\n      dup11\n        /* \"#utility.yul\":5235:5257   */\n      add\n        /* \"#utility.yul\":5216:5267   */\n      tag_388\n      jump\t// in\n    tag_461:\n        /* \"#utility.yul\":5206:5267   */\n      swap6\n      pop\n        /* \"#utility.yul\":5161:5277   */\n      pop\n        /* \"#utility.yul\":5316:5318   */\n      0x40\n        /* \"#utility.yul\":5342:5393   */\n      tag_462\n        /* \"#utility.yul\":5385:5392   */\n      dup10\n        /* \"#utility.yul\":5376:5382   */\n      dup3\n        /* \"#utility.yul\":5365:5374   */\n      dup11\n        /* \"#utility.yul\":5361:5383   */\n      add\n        /* \"#utility.yul\":5342:5393   */\n      tag_388\n      jump\t// in\n    tag_462:\n        /* \"#utility.yul\":5332:5393   */\n      swap5\n      pop\n        /* \"#utility.yul\":5287:5403   */\n      pop\n        /* \"#utility.yul\":5442:5444   */\n      0x60\n        /* \"#utility.yul\":5468:5519   */\n      tag_463\n        /* \"#utility.yul\":5511:5518   */\n      dup10\n        /* \"#utility.yul\":5502:5508   */\n      dup3\n        /* \"#utility.yul\":5491:5500   */\n      dup11\n        /* \"#utility.yul\":5487:5509   */\n      add\n        /* \"#utility.yul\":5468:5519   */\n      tag_388\n      jump\t// in\n    tag_463:\n        /* \"#utility.yul\":5458:5519   */\n      swap4\n      pop\n        /* \"#utility.yul\":5413:5529   */\n      pop\n        /* \"#utility.yul\":5568:5571   */\n      0x80\n        /* \"#utility.yul\":5595:5646   */\n      tag_464\n        /* \"#utility.yul\":5638:5645   */\n      dup10\n        /* \"#utility.yul\":5629:5635   */\n      dup3\n        /* \"#utility.yul\":5618:5627   */\n      dup11\n        /* \"#utility.yul\":5614:5636   */\n      add\n        /* \"#utility.yul\":5595:5646   */\n      tag_388\n      jump\t// in\n    tag_464:\n        /* \"#utility.yul\":5585:5646   */\n      swap3\n      pop\n        /* \"#utility.yul\":5539:5656   */\n      pop\n        /* \"#utility.yul\":5695:5698   */\n      0xa0\n        /* \"#utility.yul\":5722:5773   */\n      tag_465\n        /* \"#utility.yul\":5765:5772   */\n      dup10\n        /* \"#utility.yul\":5756:5762   */\n      dup3\n        /* \"#utility.yul\":5745:5754   */\n      dup11\n        /* \"#utility.yul\":5741:5763   */\n      add\n        /* \"#utility.yul\":5722:5773   */\n      tag_388\n      jump\t// in\n    tag_465:\n        /* \"#utility.yul\":5712:5773   */\n      swap2\n      pop\n        /* \"#utility.yul\":5666:5783   */\n      pop\n        /* \"#utility.yul\":4755:5790   */\n      swap3\n      swap6\n      pop\n      swap3\n      swap6\n      pop\n      swap3\n      swap6\n      jump\t// out\n        /* \"#utility.yul\":5796:5919   */\n    tag_390:\n        /* \"#utility.yul\":5889:5912   */\n      tag_467\n        /* \"#utility.yul\":5906:5911   */\n      dup2\n        /* \"#utility.yul\":5889:5912   */\n      tag_384\n      jump\t// in\n    tag_467:\n        /* \"#utility.yul\":5884:5887   */\n      dup3\n        /* \"#utility.yul\":5877:5913   */\n      mstore\n        /* \"#utility.yul\":5796:5919   */\n      pop\n      pop\n      jump\t// out\n        /* \"#utility.yul\":5925:6159   */\n    tag_65:\n        /* \"#utility.yul\":6024:6028   */\n      0x00\n        /* \"#utility.yul\":6062:6064   */\n      0x20\n        /* \"#utility.yul\":6051:6060   */\n      dup3\n        /* \"#utility.yul\":6047:6065   */\n      add\n        /* \"#utility.yul\":6039:6065   */\n      swap1\n      pop\n        /* \"#utility.yul\":6075:6152   */\n      tag_469\n        /* \"#utility.yul\":6149:6150   */\n      0x00\n        /* \"#utility.yul\":6138:6147   */\n      dup4\n        /* \"#utility.yul\":6134:6151   */\n      add\n        /* \"#utility.yul\":6125:6131   */\n      dup5\n        /* \"#utility.yul\":6075:6152   */\n      tag_390\n      jump\t// in\n    tag_469:\n        /* \"#utility.yul\":5925:6159   */\n      swap3\n      swap2\n      pop\n      pop\n      jump\t// out\n        /* \"#utility.yul\":6165:6492   */\n    tag_72:\n        /* \"#utility.yul\":6223:6229   */\n      0x00\n        /* \"#utility.yul\":6272:6274   */\n      0x20\n        /* \"#utility.yul\":6260:6269   */\n      dup3\n        /* \"#utility.yul\":6251:6258   */\n      dup5\n        /* \"#utility.yul\":6247:6270   */\n      sub\n        /* \"#utility.yul\":6243:6275   */\n      slt\n        /* \"#utility.yul\":6240:6359   */\n      iszero\n      tag_471\n      jumpi\n        /* \"#utility.yul\":6278:6357   */\n      tag_472\n      tag_377\n      jump\t// in\n    tag_472:\n        /* \"#utility.yul\":6240:6359   */\n    tag_471:\n        /* \"#utility.yul\":6398:6399   */\n      0x00\n        /* \"#utility.yul\":6423:6475   */\n      tag_473\n        /* \"#utility.yul\":6467:6474   */\n      dup5\n        /* \"#utility.yul\":6458:6464   */\n      dup3\n        /* \"#utility.yul\":6447:6456   */\n      dup6\n        /* \"#utility.yul\":6443:6465   */\n      add\n        /* \"#utility.yul\":6423:6475   */\n      tag_386\n      jump\t// in\n    tag_473:\n        /* \"#utility.yul\":6413:6475   */\n      swap2\n      pop\n        /* \"#utility.yul\":6369:6485   */\n      pop\n        /* \"#utility.yul\":6165:6492   */\n      swap3\n      swap2\n      pop\n      pop\n      jump\t// out\n        /* \"#utility.yul\":6498:6588   */\n    tag_391:\n        /* \"#utility.yul\":6532:6539   */\n      0x00\n        /* \"#utility.yul\":6575:6580   */\n      dup2\n        /* \"#utility.yul\":6568:6581   */\n      iszero\n        /* \"#utility.yul\":6561:6582   */\n      iszero\n        /* \"#utility.yul\":6550:6582   */\n      swap1\n      pop\n        /* \"#utility.yul\":6498:6588   */\n      swap2\n      swap1\n      pop\n      jump\t// out\n        /* \"#utility.yul\":6594:6711   */\n    tag_392:\n        /* \"#utility.yul\":6683:6704   */\n      tag_476\n        /* \"#utility.yul\":6698:6703   */\n      dup2\n        /* \"#utility.yul\":6683:6704   */\n      tag_391\n      jump\t// in\n    tag_476:\n        /* \"#utility.yul\":6678:6681   */\n      dup3\n        /* \"#utility.yul\":6671:6705   */\n      mstore\n        /* \"#utility.yul\":6594:6711   */\n      pop\n      pop\n      jump\t// out\n        /* \"#utility.yul\":6717:6943   */\n    tag_75:\n        /* \"#utility.yul\":6812:6816   */\n      0x00\n        /* \"#utility.yul\":6850:6852   */\n      0x20\n        /* \"#utility.yul\":6839:6848   */\n      dup3\n        /* \"#utility.yul\":6835:6853   */\n      add\n        /* \"#utility.yul\":6827:6853   */\n      swap1\n      pop\n        /* \"#utility.yul\":6863:6936   */\n      tag_478\n        /* \"#utility.yul\":6933:6934   */\n      0x00\n        /* \"#utility.yul\":6922:6931   */\n      dup4\n        /* \"#utility.yul\":6918:6935   */\n      add\n        /* \"#utility.yul\":6909:6915   */\n      dup5\n        /* \"#utility.yul\":6863:6936   */\n      tag_392\n      jump\t// in\n    tag_478:\n        /* \"#utility.yul\":6717:6943   */\n      swap3\n      swap2\n      pop\n      pop\n      jump\t// out\n        /* \"#utility.yul\":6949:7048   */\n    tag_393:\n        /* \"#utility.yul\":7001:7007   */\n      0x00\n        /* \"#utility.yul\":7035:7040   */\n      dup2\n        /* \"#utility.yul\":7029:7041   */\n      mload\n        /* \"#utility.yul\":7019:7041   */\n      swap1\n      pop\n        /* \"#utility.yul\":6949:7048   */\n      swap2\n      swap1\n      pop\n      jump\t// out\n        /* \"#utility.yul\":7054:7231   */\n    tag_394:\n        /* \"#utility.yul\":7146:7157   */\n      0x00\n        /* \"#utility.yul\":7180:7186   */\n      dup3\n        /* \"#utility.yul\":7175:7178   */\n      dup3\n        /* \"#utility.yul\":7168:7187   */\n      mstore\n        /* \"#utility.yul\":7220:7224   */\n      0x20\n        /* \"#utility.yul\":7215:7218   */\n      dup3\n        /* \"#utility.yul\":7211:7225   */\n      add\n        /* \"#utility.yul\":7196:7225   */\n      swap1\n      pop\n        /* \"#utility.yul\":7054:7231   */\n      swap3\n      swap2\n      pop\n      pop\n      jump\t// out\n        /* \"#utility.yul\":7237:7483   */\n    tag_395:\n        /* \"#utility.yul\":7318:7319   */\n      0x00\n        /* \"#utility.yul\":7328:7441   */\n    tag_482:\n        /* \"#utility.yul\":7342:7348   */\n      dup4\n        /* \"#utility.yul\":7339:7340   */\n      dup2\n        /* \"#utility.yul\":7336:7349   */\n      lt\n        /* \"#utility.yul\":7328:7441   */\n      iszero\n      tag_484\n      jumpi\n        /* \"#utility.yul\":7427:7428   */\n      dup1\n        /* \"#utility.yul\":7422:7425   */\n      dup3\n        /* \"#utility.yul\":7418:7429   */\n      add\n        /* \"#utility.yul\":7412:7430   */\n      mload\n        /* \"#utility.yul\":7408:7409   */\n      dup2\n        /* \"#utility.yul\":7403:7406   */\n      dup5\n        /* \"#utility.yul\":7399:7410   */\n      add\n        /* \"#utility.yul\":7392:7431   */\n      mstore\n        /* \"#utility.yul\":7364:7366   */\n      0x20\n        /* \"#utility.yul\":7361:7362   */\n      dup2\n        /* \"#utility.yul\":7357:7367   */\n      add\n        /* \"#utility.yul\":7352:7367   */\n      swap1\n      pop\n        /* \"#utility.yul\":7328:7441   */\n      jump(tag_482)\n    tag_484:\n        /* \"#utility.yul\":7475:7476   */\n      0x00\n        /* \"#utility.yul\":7466:7472   */\n      dup5\n        /* \"#utility.yul\":7461:7464   */\n      dup5\n        /* \"#utility.yul\":7457:7473   */\n      add\n        /* \"#utility.yul\":7450:7477   */\n      mstore\n        /* \"#utility.yul\":7299:7483   */\n      pop\n        /* \"#utility.yul\":7237:7483   */\n      pop\n      pop\n      pop\n      jump\t// out\n        /* \"#utility.yul\":7489:7591   */\n    tag_396:\n        /* \"#utility.yul\":7530:7536   */\n      0x00\n        /* \"#utility.yul\":7581:7583   */\n      0x1f\n        /* \"#utility.yul\":7577:7584   */\n      not\n        /* \"#utility.yul\":7572:7574   */\n      0x1f\n        /* \"#utility.yul\":7565:7570   */\n      dup4\n        /* \"#utility.yul\":7561:7575   */\n      add\n        /* \"#utility.yul\":7557:7585   */\n      and\n        /* \"#utility.yul\":7547:7585   */\n      swap1\n      pop\n        /* \"#utility.yul\":7489:7591   */\n      swap2\n      swap1\n      pop\n      jump\t// out\n        /* \"#utility.yul\":7597:7990   */\n    tag_397:\n        /* \"#utility.yul\":7693:7696   */\n      0x00\n        /* \"#utility.yul\":7721:7760   */\n      tag_487\n        /* \"#utility.yul\":7754:7759   */\n      dup3\n        /* \"#utility.yul\":7721:7760   */\n      tag_393\n      jump\t// in\n    tag_487:\n        /* \"#utility.yul\":7776:7855   */\n      tag_488\n        /* \"#utility.yul\":7848:7854   */\n      dup2\n        /* \"#utility.yul\":7843:7846   */\n      dup6\n        /* \"#utility.yul\":7776:7855   */\n      tag_394\n      jump\t// in\n    tag_488:\n        /* \"#utility.yul\":7769:7855   */\n      swap4\n      pop\n        /* \"#utility.yul\":7864:7929   */\n      tag_489\n        /* \"#utility.yul\":7922:7928   */\n      dup2\n        /* \"#utility.yul\":7917:7920   */\n      dup6\n        /* \"#utility.yul\":7910:7914   */\n      0x20\n        /* \"#utility.yul\":7903:7908   */\n      dup7\n        /* \"#utility.yul\":7899:7915   */\n      add\n        /* \"#utility.yul\":7864:7929   */\n      tag_395\n      jump\t// in\n    tag_489:\n        /* \"#utility.yul\":7954:7983   */\n      tag_490\n        /* \"#utility.yul\":7976:7982   */\n      dup2\n        /* \"#utility.yul\":7954:7983   */\n      tag_396\n      jump\t// in\n    tag_490:\n        /* \"#utility.yul\":7949:7952   */\n      dup5\n        /* \"#utility.yul\":7945:7984   */\n      add\n        /* \"#utility.yul\":7938:7984   */\n      swap2\n      pop\n        /* \"#utility.yul\":7697:7990   */\n      pop\n        /* \"#utility.yul\":7597:7990   */\n      swap3\n      swap2\n      pop\n      pop\n      jump\t// out\n        /* \"#utility.yul\":7996:8325   */\n    tag_79:\n        /* \"#utility.yul\":8117:8121   */\n      0x00\n        /* \"#utility.yul\":8155:8157   */\n      0x20\n        /* \"#utility.yul\":8144:8153   */\n      dup3\n        /* \"#utility.yul\":8140:8158   */\n      add\n        /* \"#utility.yul\":8132:8158   */\n      swap1\n      pop\n        /* \"#utility.yul\":8204:8213   */\n      dup2\n        /* \"#utility.yul\":8198:8202   */\n      dup2\n        /* \"#utility.yul\":8194:8214   */\n      sub\n        /* \"#utility.yul\":8190:8191   */\n      0x00\n        /* \"#utility.yul\":8179:8188   */\n      dup4\n        /* \"#utility.yul\":8175:8192   */\n      add\n        /* \"#utility.yul\":8168:8215   */\n      mstore\n        /* \"#utility.yul\":8232:8318   */\n      tag_492\n        /* \"#utility.yul\":8313:8317   */\n      dup2\n        /* \"#utility.yul\":8304:8310   */\n      dup5\n        /* \"#utility.yul\":8232:8318   */\n      tag_397\n      jump\t// in\n    tag_492:\n        /* \"#utility.yul\":8224:8318   */\n      swap1\n      pop\n        /* \"#utility.yul\":7996:8325   */\n      swap3\n      swap2\n      pop\n      pop\n      jump\t// out\n        /* \"#utility.yul\":8331:8799   */\n    tag_86:\n        /* \"#utility.yul\":8396:8402   */\n      0x00\n        /* \"#utility.yul\":8404:8410   */\n      dup1\n        /* \"#utility.yul\":8453:8455   */\n      0x40\n        /* \"#utility.yul\":8441:8450   */\n      dup4\n        /* \"#utility.yul\":8432:8439   */\n      dup6\n        /* \"#utility.yul\":8428:8451   */\n      sub\n        /* \"#utility.yul\":8424:8456   */\n      slt\n        /* \"#utility.yul\":8421:8540   */\n      iszero\n      tag_494\n      jumpi\n        /* \"#utility.yul\":8459:8538   */\n      tag_495\n      tag_377\n      jump\t// in\n    tag_495:\n        /* \"#utility.yul\":8421:8540   */\n    tag_494:\n        /* \"#utility.yul\":8579:8580   */\n      0x00\n        /* \"#utility.yul\":8604:8655   */\n      tag_496\n        /* \"#utility.yul\":8647:8654   */\n      dup6\n        /* \"#utility.yul\":8638:8644   */\n      dup3\n        /* \"#utility.yul\":8627:8636   */\n      dup7\n        /* \"#utility.yul\":8623:8645   */\n      add\n        /* \"#utility.yul\":8604:8655   */\n      tag_388\n      jump\t// in\n    tag_496:\n        /* \"#utility.yul\":8594:8655   */\n      swap3\n      pop\n        /* \"#utility.yul\":8550:8665   */\n      pop\n        /* \"#utility.yul\":8704:8706   */\n      0x20\n        /* \"#utility.yul\":8730:8782   */\n      tag_497\n        /* \"#utility.yul\":8774:8781   */\n      dup6\n        /* \"#utility.yul\":8765:8771   */\n      dup3\n        /* \"#utility.yul\":8754:8763   */\n      dup7\n        /* \"#utility.yul\":8750:8772   */\n      add\n        /* \"#utility.yul\":8730:8782   */\n      tag_386\n      jump\t// in\n    tag_497:\n        /* \"#utility.yul\":8720:8782   */\n      swap2\n      pop\n        /* \"#utility.yul\":8675:8792   */\n      pop\n        /* \"#utility.yul\":8331:8799   */\n      swap3\n      pop\n      swap3\n      swap1\n      pop\n      jump\t// out\n        /* \"#utility.yul\":8805:9259   */\n    tag_92:\n        /* \"#utility.yul\":8952:8956   */\n      0x00\n        /* \"#utility.yul\":8990:8992   */\n      0x60\n        /* \"#utility.yul\":8979:8988   */\n      dup3\n        /* \"#utility.yul\":8975:8993   */\n      add\n        /* \"#utility.yul\":8967:8993   */\n      swap1\n      pop\n        /* \"#utility.yul\":9003:9080   */\n      tag_499\n        /* \"#utility.yul\":9077:9078   */\n      0x00\n        /* \"#utility.yul\":9066:9075   */\n      dup4\n        /* \"#utility.yul\":9062:9079   */\n      add\n        /* \"#utility.yul\":9053:9059   */\n      dup7\n        /* \"#utility.yul\":9003:9080   */\n      tag_390\n      jump\t// in\n    tag_499:\n        /* \"#utility.yul\":9090:9166   */\n      tag_500\n        /* \"#utility.yul\":9162:9164   */\n      0x20\n        /* \"#utility.yul\":9151:9160   */\n      dup4\n        /* \"#utility.yul\":9147:9165   */\n      add\n        /* \"#utility.yul\":9138:9144   */\n      dup6\n        /* \"#utility.yul\":9090:9166   */\n      tag_383\n      jump\t// in\n    tag_500:\n        /* \"#utility.yul\":9176:9252   */\n      tag_501\n        /* \"#utility.yul\":9248:9250   */\n      0x40\n        /* \"#utility.yul\":9237:9246   */\n      dup4\n        /* \"#utility.yul\":9233:9251   */\n      add\n        /* \"#utility.yul\":9224:9230   */\n      dup5\n        /* \"#utility.yul\":9176:9252   */\n      tag_383\n      jump\t// in\n    tag_501:\n        /* \"#utility.yul\":8805:9259   */\n      swap5\n      swap4\n      pop\n      pop\n      pop\n      pop\n      jump\t// out\n        /* \"#utility.yul\":9265:9378   */\n    tag_398:\n        /* \"#utility.yul\":9348:9371   */\n      tag_503\n        /* \"#utility.yul\":9365:9370   */\n      dup2\n        /* \"#utility.yul\":9348:9371   */\n      tag_384\n      jump\t// in\n    tag_503:\n        /* \"#utility.yul\":9343:9346   */\n      dup3\n        /* \"#utility.yul\":9336:9372   */\n      mstore\n        /* \"#utility.yul\":9265:9378   */\n      pop\n      pop\n      jump\t// out\n        /* \"#utility.yul\":9384:9494   */\n    tag_399:\n        /* \"#utility.yul\":9465:9487   */\n      tag_505\n        /* \"#utility.yul\":9481:9486   */\n      dup2\n        /* \"#utility.yul\":9465:9487   */\n      tag_382\n      jump\t// in\n    tag_505:\n        /* \"#utility.yul\":9460:9463   */\n      dup3\n        /* \"#utility.yul\":9453:9488   */\n      mstore\n        /* \"#utility.yul\":9384:9494   */\n      pop\n      pop\n      jump\t// out\n        /* \"#utility.yul\":9552:10978   */\n    tag_400:\n        /* \"#utility.yul\":9711:9715   */\n      0xe0\n        /* \"#utility.yul\":9706:9709   */\n      dup3\n        /* \"#utility.yul\":9702:9716   */\n      add\n        /* \"#utility.yul\":9798:9802   */\n      0x00\n        /* \"#utility.yul\":9791:9796   */\n      dup3\n        /* \"#utility.yul\":9787:9803   */\n      add\n        /* \"#utility.yul\":9781:9804   */\n      mload\n        /* \"#utility.yul\":9817:9886   */\n      tag_507\n        /* \"#utility.yul\":9880:9884   */\n      0x00\n        /* \"#utility.yul\":9875:9878   */\n      dup6\n        /* \"#utility.yul\":9871:9885   */\n      add\n        /* \"#utility.yul\":9857:9869   */\n      dup3\n        /* \"#utility.yul\":9817:9886   */\n      tag_398\n      jump\t// in\n    tag_507:\n        /* \"#utility.yul\":9726:9896   */\n      pop\n        /* \"#utility.yul\":9979:9983   */\n      0x20\n        /* \"#utility.yul\":9972:9977   */\n      dup3\n        /* \"#utility.yul\":9968:9984   */\n      add\n        /* \"#utility.yul\":9962:9985   */\n      mload\n        /* \"#utility.yul\":9998:10065   */\n      tag_508\n        /* \"#utility.yul\":10059:10063   */\n      0x20\n        /* \"#utility.yul\":10054:10057   */\n      dup6\n        /* \"#utility.yul\":10050:10064   */\n      add\n        /* \"#utility.yul\":10036:10048   */\n      dup3\n        /* \"#utility.yul\":9998:10065   */\n      tag_399\n      jump\t// in\n    tag_508:\n        /* \"#utility.yul\":9906:10075   */\n      pop\n        /* \"#utility.yul\":10156:10160   */\n      0x40\n        /* \"#utility.yul\":10149:10154   */\n      dup3\n        /* \"#utility.yul\":10145:10161   */\n      add\n        /* \"#utility.yul\":10139:10162   */\n      mload\n        /* \"#utility.yul\":10175:10242   */\n      tag_509\n        /* \"#utility.yul\":10236:10240   */\n      0x40\n        /* \"#utility.yul\":10231:10234   */\n      dup6\n        /* \"#utility.yul\":10227:10241   */\n      add\n        /* \"#utility.yul\":10213:10225   */\n      dup3\n        /* \"#utility.yul\":10175:10242   */\n      tag_399\n      jump\t// in\n    tag_509:\n        /* \"#utility.yul\":10085:10252   */\n      pop\n        /* \"#utility.yul\":10334:10338   */\n      0x60\n        /* \"#utility.yul\":10327:10332   */\n      dup3\n        /* \"#utility.yul\":10323:10339   */\n      add\n        /* \"#utility.yul\":10317:10340   */\n      mload\n        /* \"#utility.yul\":10353:10420   */\n      tag_510\n        /* \"#utility.yul\":10414:10418   */\n      0x60\n        /* \"#utility.yul\":10409:10412   */\n      dup6\n        /* \"#utility.yul\":10405:10419   */\n      add\n        /* \"#utility.yul\":10391:10403   */\n      dup3\n        /* \"#utility.yul\":10353:10420   */\n      tag_399\n      jump\t// in\n    tag_510:\n        /* \"#utility.yul\":10262:10430   */\n      pop\n        /* \"#utility.yul\":10514:10518   */\n      0x80\n        /* \"#utility.yul\":10507:10512   */\n      dup3\n        /* \"#utility.yul\":10503:10519   */\n      add\n        /* \"#utility.yul\":10497:10520   */\n      mload\n        /* \"#utility.yul\":10533:10600   */\n      tag_511\n        /* \"#utility.yul\":10594:10598   */\n      0x80\n        /* \"#utility.yul\":10589:10592   */\n      dup6\n        /* \"#utility.yul\":10585:10599   */\n      add\n        /* \"#utility.yul\":10571:10583   */\n      dup3\n        /* \"#utility.yul\":10533:10600   */\n      tag_399\n      jump\t// in\n    tag_511:\n        /* \"#utility.yul\":10440:10610   */\n      pop\n        /* \"#utility.yul\":10694:10698   */\n      0xa0\n        /* \"#utility.yul\":10687:10692   */\n      dup3\n        /* \"#utility.yul\":10683:10699   */\n      add\n        /* \"#utility.yul\":10677:10700   */\n      mload\n        /* \"#utility.yul\":10713:10780   */\n      tag_512\n        /* \"#utility.yul\":10774:10778   */\n      0xa0\n        /* \"#utility.yul\":10769:10772   */\n      dup6\n        /* \"#utility.yul\":10765:10779   */\n      add\n        /* \"#utility.yul\":10751:10763   */\n      dup3\n        /* \"#utility.yul\":10713:10780   */\n      tag_399\n      jump\t// in\n    tag_512:\n        /* \"#utility.yul\":10620:10790   */\n      pop\n        /* \"#utility.yul\":10875:10879   */\n      0xc0\n        /* \"#utility.yul\":10868:10873   */\n      dup3\n        /* \"#utility.yul\":10864:10880   */\n      add\n        /* \"#utility.yul\":10858:10881   */\n      mload\n        /* \"#utility.yul\":10894:10961   */\n      tag_513\n        /* \"#utility.yul\":10955:10959   */\n      0xc0\n        /* \"#utility.yul\":10950:10953   */\n      dup6\n        /* \"#utility.yul\":10946:10960   */\n      add\n        /* \"#utility.yul\":10932:10944   */\n      dup3\n        /* \"#utility.yul\":10894:10961   */\n      tag_399\n      jump\t// in\n    tag_513:\n        /* \"#utility.yul\":10800:10971   */\n      pop\n        /* \"#utility.yul\":9680:10978   */\n      pop\n        /* \"#utility.yul\":9552:10978   */\n      pop\n      pop\n      jump\t// out\n        /* \"#utility.yul\":10984:11331   */\n    tag_97:\n        /* \"#utility.yul\":11139:11143   */\n      0x00\n        /* \"#utility.yul\":11177:11180   */\n      0xe0\n        /* \"#utility.yul\":11166:11175   */\n      dup3\n        /* \"#utility.yul\":11162:11181   */\n      add\n        /* \"#utility.yul\":11154:11181   */\n      swap1\n      pop\n        /* \"#utility.yul\":11191:11324   */\n      tag_515\n        /* \"#utility.yul\":11321:11322   */\n      0x00\n        /* \"#utility.yul\":11310:11319   */\n      dup4\n        /* \"#utility.yul\":11306:11323   */\n      add\n        /* \"#utility.yul\":11297:11303   */\n      dup5\n        /* \"#utility.yul\":11191:11324   */\n      tag_400\n      jump\t// in\n    tag_515:\n        /* \"#utility.yul\":10984:11331   */\n      swap3\n      swap2\n      pop\n      pop\n      jump\t// out\n        /* \"#utility.yul\":11337:11517   */\n    tag_354:\n        /* \"#utility.yul\":11385:11462   */\n      0x4e487b7100000000000000000000000000000000000000000000000000000000\n        /* \"#utility.yul\":11382:11383   */\n      0x00\n        /* \"#utility.yul\":11375:11463   */\n      mstore\n        /* \"#utility.yul\":11482:11486   */\n      0x12\n        /* \"#utility.yul\":11479:11480   */\n      0x04\n        /* \"#utility.yul\":11472:11487   */\n      mstore\n        /* \"#utility.yul\":11506:11510   */\n      0x24\n        /* \"#utility.yul\":11503:11504   */\n      0x00\n        /* \"#utility.yul\":11496:11511   */\n      revert\n        /* \"#utility.yul\":11523:11703   */\n    tag_401:\n        /* \"#utility.yul\":11571:11648   */\n      0x4e487b7100000000000000000000000000000000000000000000000000000000\n        /* \"#utility.yul\":11568:11569   */\n      0x00\n        /* \"#utility.yul\":11561:11649   */\n      mstore\n        /* \"#utility.yul\":11668:11672   */\n      0x11\n        /* \"#utility.yul\":11665:11666   */\n      0x04\n        /* \"#utility.yul\":11658:11673   */\n      mstore\n        /* \"#utility.yul\":11692:11696   */\n      0x24\n        /* \"#utility.yul\":11689:11690   */\n      0x00\n        /* \"#utility.yul\":11682:11697   */\n      revert\n        /* \"#utility.yul\":11709:11894   */\n    tag_104:\n        /* \"#utility.yul\":11749:11750   */\n      0x00\n        /* \"#utility.yul\":11766:11786   */\n      tag_519\n        /* \"#utility.yul\":11784:11785   */\n      dup3\n        /* \"#utility.yul\":11766:11786   */\n      tag_379\n      jump\t// in\n    tag_519:\n        /* \"#utility.yul\":11761:11786   */\n      swap2\n      pop\n        /* \"#utility.yul\":11800:11820   */\n      tag_520\n        /* \"#utility.yul\":11818:11819   */\n      dup4\n        /* \"#utility.yul\":11800:11820   */\n      tag_379\n      jump\t// in\n    tag_520:\n        /* \"#utility.yul\":11795:11820   */\n      swap3\n      pop\n        /* \"#utility.yul\":11839:11840   */\n      dup3\n        /* \"#utility.yul\":11829:11864   */\n      tag_521\n      jumpi\n        /* \"#utility.yul\":11844:11862   */\n      tag_522\n      tag_354\n      jump\t// in\n    tag_522:\n        /* \"#utility.yul\":11829:11864   */\n    tag_521:\n        /* \"#utility.yul\":11886:11887   */\n      dup3\n        /* \"#utility.yul\":11883:11884   */\n      dup3\n        /* \"#utility.yul\":11879:11888   */\n      div\n        /* \"#utility.yul\":11874:11888   */\n      swap1\n      pop\n        /* \"#utility.yul\":11709:11894   */\n      swap3\n      swap2\n      pop\n      pop\n      jump\t// out\n        /* \"#utility.yul\":11900:12076   */\n    tag_107:\n        /* \"#utility.yul\":11932:11933   */\n      0x00\n        /* \"#utility.yul\":11949:11969   */\n      tag_524\n        /* \"#utility.yul\":11967:11968   */\n      dup3\n        /* \"#utility.yul\":11949:11969   */\n      tag_379\n      jump\t// in\n    tag_524:\n        /* \"#utility.yul\":11944:11969   */\n      swap2\n      pop\n        /* \"#utility.yul\":11983:12003   */\n      tag_525\n        /* \"#utility.yul\":12001:12002   */\n      dup4\n        /* \"#utility.yul\":11983:12003   */\n      tag_379\n      jump\t// in\n    tag_525:\n        /* \"#utility.yul\":11978:12003   */\n      swap3\n      pop\n        /* \"#utility.yul\":12022:12023   */\n      dup3\n        /* \"#utility.yul\":12012:12047   */\n      tag_526\n      jumpi\n        /* \"#utility.yul\":12027:12045   */\n      tag_527\n      tag_354\n      jump\t// in\n    tag_527:\n        /* \"#utility.yul\":12012:12047   */\n    tag_526:\n        /* \"#utility.yul\":12068:12069   */\n      dup3\n        /* \"#utility.yul\":12065:12066   */\n      dup3\n        /* \"#utility.yul\":12061:12070   */\n      mod\n        /* \"#utility.yul\":12056:12070   */\n      swap1\n      pop\n        /* \"#utility.yul\":11900:12076   */\n      swap3\n      swap2\n      pop\n      pop\n      jump\t// out\n        /* \"#utility.yul\":12082:12273   */\n    tag_111:\n        /* \"#utility.yul\":12122:12125   */\n      0x00\n        /* \"#utility.yul\":12141:12161   */\n      tag_529\n        /* \"#utility.yul\":12159:12160   */\n      dup3\n        /* \"#utility.yul\":12141:12161   */\n      tag_379\n      jump\t// in\n    tag_529:\n        /* \"#utility.yul\":12136:12161   */\n      swap2\n      pop\n        /* \"#utility.yul\":12175:12195   */\n      tag_530\n        /* \"#utility.yul\":12193:12194   */\n      dup4\n        /* \"#utility.yul\":12175:12195   */\n      tag_379\n      jump\t// in\n    tag_530:\n        /* \"#utility.yul\":12170:12195   */\n      swap3\n      pop\n        /* \"#utility.yul\":12218:12219   */\n      dup3\n        /* \"#utility.yul\":12215:12216   */\n      dup3\n        /* \"#utility.yul\":12211:12220   */\n      add\n        /* \"#utility.yul\":12204:12220   */\n      swap1\n      pop\n        /* \"#utility.yul\":12239:12242   */\n      dup1\n        /* \"#utility.yul\":12236:12237   */\n      dup3\n        /* \"#utility.yul\":12233:12243   */\n      gt\n        /* \"#utility.yul\":12230:12266   */\n      iszero\n      tag_531\n      jumpi\n        /* \"#utility.yul\":12246:12264   */\n      tag_532\n      tag_401\n      jump\t// in\n    tag_532:\n        /* \"#utility.yul\":12230:12266   */\n    tag_531:\n        /* \"#utility.yul\":12082:12273   */\n      swap3\n      swap2\n      pop\n      pop\n      jump\t// out\n        /* \"#utility.yul\":12279:12450   */\n    tag_133:\n        /* \"#utility.yul\":12317:12320   */\n      0x00\n        /* \"#utility.yul\":12340:12363   */\n      tag_534\n        /* \"#utility.yul\":12357:12362   */\n      dup3\n        /* \"#utility.yul\":12340:12363   */\n      tag_384\n      jump\t// in\n    tag_534:\n        /* \"#utility.yul\":12331:12363   */\n      swap2\n      pop\n        /* \"#utility.yul\":12385:12391   */\n      0xffff\n        /* \"#utility.yul\":12378:12383   */\n      dup3\n        /* \"#utility.yul\":12375:12392   */\n      sub\n        /* \"#utility.yul\":12372:12415   */\n      tag_535\n      jumpi\n        /* \"#utility.yul\":12395:12413   */\n      tag_536\n      tag_401\n      jump\t// in\n    tag_536:\n        /* \"#utility.yul\":12372:12415   */\n    tag_535:\n        /* \"#utility.yul\":12442:12443   */\n      0x01\n        /* \"#utility.yul\":12435:12440   */\n      dup3\n        /* \"#utility.yul\":12431:12444   */\n      add\n        /* \"#utility.yul\":12424:12444   */\n      swap1\n      pop\n        /* \"#utility.yul\":12279:12450   */\n      swap2\n      swap1\n      pop\n      jump\t// out\n        /* \"#utility.yul\":12456:12636   */\n    tag_138:\n        /* \"#utility.yul\":12504:12581   */\n      0x4e487b7100000000000000000000000000000000000000000000000000000000\n        /* \"#utility.yul\":12501:12502   */\n      0x00\n        /* \"#utility.yul\":12494:12582   */\n      mstore\n        /* \"#utility.yul\":12601:12605   */\n      0x32\n        /* \"#utility.yul\":12598:12599   */\n      0x04\n        /* \"#utility.yul\":12591:12606   */\n      mstore\n        /* \"#utility.yul\":12625:12629   */\n      0x24\n        /* \"#utility.yul\":12622:12623   */\n      0x00\n        /* \"#utility.yul\":12615:12630   */\n      revert\n        /* \"#utility.yul\":12642:12838   */\n    tag_170:\n        /* \"#utility.yul\":12681:12685   */\n      0x00\n        /* \"#utility.yul\":12701:12720   */\n      tag_539\n        /* \"#utility.yul\":12718:12719   */\n      dup3\n        /* \"#utility.yul\":12701:12720   */\n      tag_384\n      jump\t// in\n    tag_539:\n        /* \"#utility.yul\":12696:12720   */\n      swap2\n      pop\n        /* \"#utility.yul\":12734:12753   */\n      tag_540\n        /* \"#utility.yul\":12751:12752   */\n      dup4\n        /* \"#utility.yul\":12734:12753   */\n      tag_384\n      jump\t// in\n    tag_540:\n        /* \"#utility.yul\":12729:12753   */\n      swap3\n      pop\n        /* \"#utility.yul\":12777:12778   */\n      dup3\n        /* \"#utility.yul\":12774:12775   */\n      dup3\n        /* \"#utility.yul\":12770:12779   */\n      sub\n        /* \"#utility.yul\":12762:12779   */\n      swap1\n      pop\n        /* \"#utility.yul\":12801:12807   */\n      0xffff\n        /* \"#utility.yul\":12795:12799   */\n      dup2\n        /* \"#utility.yul\":12792:12808   */\n      gt\n        /* \"#utility.yul\":12789:12831   */\n      iszero\n      tag_541\n      jumpi\n        /* \"#utility.yul\":12811:12829   */\n      tag_542\n      tag_401\n      jump\t// in\n    tag_542:\n        /* \"#utility.yul\":12789:12831   */\n    tag_541:\n        /* \"#utility.yul\":12642:12838   */\n      swap3\n      swap2\n      pop\n      pop\n      jump\t// out\n        /* \"#utility.yul\":12844:13254   */\n    tag_174:\n        /* \"#utility.yul\":12884:12891   */\n      0x00\n        /* \"#utility.yul\":12907:12927   */\n      tag_544\n        /* \"#utility.yul\":12925:12926   */\n      dup3\n        /* \"#utility.yul\":12907:12927   */\n      tag_379\n      jump\t// in\n    tag_544:\n        /* \"#utility.yul\":12902:12927   */\n      swap2\n      pop\n        /* \"#utility.yul\":12941:12961   */\n      tag_545\n        /* \"#utility.yul\":12959:12960   */\n      dup4\n        /* \"#utility.yul\":12941:12961   */\n      tag_379\n      jump\t// in\n    tag_545:\n        /* \"#utility.yul\":12936:12961   */\n      swap3\n      pop\n        /* \"#utility.yul\":12996:12997   */\n      dup3\n        /* \"#utility.yul\":12993:12994   */\n      dup3\n        /* \"#utility.yul\":12989:12998   */\n      mul\n        /* \"#utility.yul\":13018:13048   */\n      tag_546\n        /* \"#utility.yul\":13036:13047   */\n      dup2\n        /* \"#utility.yul\":13018:13048   */\n      tag_379\n      jump\t// in\n    tag_546:\n        /* \"#utility.yul\":13007:13048   */\n      swap2\n      pop\n        /* \"#utility.yul\":13197:13198   */\n      dup3\n        /* \"#utility.yul\":13188:13195   */\n      dup3\n        /* \"#utility.yul\":13184:13199   */\n      div\n        /* \"#utility.yul\":13181:13182   */\n      dup5\n        /* \"#utility.yul\":13178:13200   */\n      eq\n        /* \"#utility.yul\":13158:13159   */\n      dup4\n        /* \"#utility.yul\":13151:13160   */\n      iszero\n        /* \"#utility.yul\":13131:13214   */\n      or\n        /* \"#utility.yul\":13108:13247   */\n      tag_547\n      jumpi\n        /* \"#utility.yul\":13227:13245   */\n      tag_548\n      tag_401\n      jump\t// in\n    tag_548:\n        /* \"#utility.yul\":13108:13247   */\n    tag_547:\n        /* \"#utility.yul\":12892:13254   */\n      pop\n        /* \"#utility.yul\":12844:13254   */\n      swap3\n      swap2\n      pop\n      pop\n      jump\t// out\n        /* \"#utility.yul\":13260:13451   */\n    tag_178:\n        /* \"#utility.yul\":13298:13302   */\n      0x00\n        /* \"#utility.yul\":13318:13336   */\n      tag_550\n        /* \"#utility.yul\":13334:13335   */\n      dup3\n        /* \"#utility.yul\":13318:13336   */\n      tag_382\n      jump\t// in\n    tag_550:\n        /* \"#utility.yul\":13313:13336   */\n      swap2\n      pop\n        /* \"#utility.yul\":13350:13368   */\n      tag_551\n        /* \"#utility.yul\":13366:13367   */\n      dup4\n        /* \"#utility.yul\":13350:13368   */\n      tag_382\n      jump\t// in\n    tag_551:\n        /* \"#utility.yul\":13345:13368   */\n      swap3\n      pop\n        /* \"#utility.yul\":13392:13393   */\n      dup3\n        /* \"#utility.yul\":13389:13390   */\n      dup3\n        /* \"#utility.yul\":13385:13394   */\n      sub\n        /* \"#utility.yul\":13377:13394   */\n      swap1\n      pop\n        /* \"#utility.yul\":13416:13420   */\n      0xff\n        /* \"#utility.yul\":13410:13414   */\n      dup2\n        /* \"#utility.yul\":13407:13421   */\n      gt\n        /* \"#utility.yul\":13404:13444   */\n      iszero\n      tag_552\n      jumpi\n        /* \"#utility.yul\":13424:13442   */\n      tag_553\n      tag_401\n      jump\t// in\n    tag_553:\n        /* \"#utility.yul\":13404:13444   */\n    tag_552:\n        /* \"#utility.yul\":13260:13451   */\n      swap3\n      swap2\n      pop\n      pop\n      jump\t// out\n        /* \"#utility.yul\":13457:13651   */\n    tag_192:\n        /* \"#utility.yul\":13497:13501   */\n      0x00\n        /* \"#utility.yul\":13517:13537   */\n      tag_555\n        /* \"#utility.yul\":13535:13536   */\n      dup3\n        /* \"#utility.yul\":13517:13537   */\n      tag_379\n      jump\t// in\n    tag_555:\n        /* \"#utility.yul\":13512:13537   */\n      swap2\n      pop\n        /* \"#utility.yul\":13551:13571   */\n      tag_556\n        /* \"#utility.yul\":13569:13570   */\n      dup4\n        /* \"#utility.yul\":13551:13571   */\n      tag_379\n      jump\t// in\n    tag_556:\n        /* \"#utility.yul\":13546:13571   */\n      swap3\n      pop\n        /* \"#utility.yul\":13595:13596   */\n      dup3\n        /* \"#utility.yul\":13592:13593   */\n      dup3\n        /* \"#utility.yul\":13588:13597   */\n      sub\n        /* \"#utility.yul\":13580:13597   */\n      swap1\n      pop\n        /* \"#utility.yul\":13619:13620   */\n      dup2\n        /* \"#utility.yul\":13613:13617   */\n      dup2\n        /* \"#utility.yul\":13610:13621   */\n      gt\n        /* \"#utility.yul\":13607:13644   */\n      iszero\n      tag_557\n      jumpi\n        /* \"#utility.yul\":13624:13642   */\n      tag_558\n      tag_401\n      jump\t// in\n    tag_558:\n        /* \"#utility.yul\":13607:13644   */\n    tag_557:\n        /* \"#utility.yul\":13457:13651   */\n      swap3\n      swap2\n      pop\n      pop\n      jump\t// out\n        /* \"#utility.yul\":13657:13830   */\n    tag_212:\n        /* \"#utility.yul\":13688:13689   */\n      0x00\n        /* \"#utility.yul\":13705:13724   */\n      tag_560\n        /* \"#utility.yul\":13722:13723   */\n      dup3\n        /* \"#utility.yul\":13705:13724   */\n      tag_384\n      jump\t// in\n    tag_560:\n        /* \"#utility.yul\":13700:13724   */\n      swap2\n      pop\n        /* \"#utility.yul\":13738:13757   */\n      tag_561\n        /* \"#utility.yul\":13755:13756   */\n      dup4\n        /* \"#utility.yul\":13738:13757   */\n      tag_384\n      jump\t// in\n    tag_561:\n        /* \"#utility.yul\":13733:13757   */\n      swap3\n      pop\n        /* \"#utility.yul\":13776:13777   */\n      dup3\n        /* \"#utility.yul\":13766:13801   */\n      tag_562\n      jumpi\n        /* \"#utility.yul\":13781:13799   */\n      tag_563\n      tag_354\n      jump\t// in\n    tag_563:\n        /* \"#utility.yul\":13766:13801   */\n    tag_562:\n        /* \"#utility.yul\":13822:13823   */\n      dup3\n        /* \"#utility.yul\":13819:13820   */\n      dup3\n        /* \"#utility.yul\":13815:13824   */\n      mod\n        /* \"#utility.yul\":13810:13824   */\n      swap1\n      pop\n        /* \"#utility.yul\":13657:13830   */\n      swap3\n      swap2\n      pop\n      pop\n      jump\t// out\n        /* \"#utility.yul\":13836:14016   */\n    tag_226:\n        /* \"#utility.yul\":13884:13961   */\n      0x4e487b7100000000000000000000000000000000000000000000000000000000\n        /* \"#utility.yul\":13881:13882   */\n      0x00\n        /* \"#utility.yul\":13874:13962   */\n      mstore\n        /* \"#utility.yul\":13981:13985   */\n      0x41\n        /* \"#utility.yul\":13978:13979   */\n      0x04\n        /* \"#utility.yul\":13971:13986   */\n      mstore\n        /* \"#utility.yul\":14005:14009   */\n      0x24\n        /* \"#utility.yul\":14002:14003   */\n      0x00\n        /* \"#utility.yul\":13995:14010   */\n      revert\n        /* \"#utility.yul\":14022:14189   */\n    tag_328:\n        /* \"#utility.yul\":14059:14062   */\n      0x00\n        /* \"#utility.yul\":14082:14104   */\n      tag_566\n        /* \"#utility.yul\":14098:14103   */\n      dup3\n        /* \"#utility.yul\":14082:14104   */\n      tag_382\n      jump\t// in\n    tag_566:\n        /* \"#utility.yul\":14073:14104   */\n      swap2\n      pop\n        /* \"#utility.yul\":14126:14130   */\n      0xff\n        /* \"#utility.yul\":14119:14124   */\n      dup3\n        /* \"#utility.yul\":14116:14131   */\n      sub\n        /* \"#utility.yul\":14113:14154   */\n      tag_567\n      jumpi\n        /* \"#utility.yul\":14134:14152   */\n      tag_568\n      tag_401\n      jump\t// in\n    tag_568:\n        /* \"#utility.yul\":14113:14154   */\n    tag_567:\n        /* \"#utility.yul\":14181:14182   */\n      0x01\n        /* \"#utility.yul\":14174:14179   */\n      dup3\n        /* \"#utility.yul\":14170:14183   */\n      add\n        /* \"#utility.yul\":14163:14183   */\n      swap1\n      pop\n        /* \"#utility.yul\":14022:14189   */\n      swap2\n      swap1\n      pop\n      jump\t// out\n\n    auxdata: 0xa2646970667358221220859473cf271d1a1d112d7b90569db568f4320321095cbaf830c1fb24aa33957164736f6c63430008120033\n}\n",
				"bytecode": {
					"linkReferences": {},
					"object": "611e33610053600b82828239805160001a607314610046577f4e487b7100000000000000000000000000000000000000000000000000000000600052600060045260246000fd5b30600052607381538281f3fe73000000000000000000000000000000000000000030146080604052600436106101155760003560e01c806392d66313116100ac578063b19999371161007b578063b199993714610348578063b238ad0e14610378578063eb3334c5146103a8578063f97d0591146103c8578063fa93f883146103f857610115565b806392d663131461029a578063a324ad24146102ca578063a6f0e577146102fa578063a9a295ad1461032a57610115565b80637f791833116100e85780637f791833146101da5780638aa001fc1461020a5780638c8d98a01461023a5780639054bdec1461026a57610115565b80633e239e1a1461011a5780634ac1ad781461014a57806362ba96871461017a57806365c72840146101aa575b600080fd5b610134600480360381019061012f9190611613565b610428565b604051610141919061165c565b60405180910390f35b610164600480360381019061015f9190611613565b610455565b604051610171919061165c565b60405180910390f35b610194600480360381019061018f91906116dd565b610485565b6040516101a19190611767565b60405180910390f35b6101c460048036038101906101bf9190611613565b6104a1565b6040516101d1919061165c565b60405180910390f35b6101f460048036038101906101ef9190611782565b6104b7565b6040516102019190611767565b60405180910390f35b610224600480360381019061021f9190611613565b6104d2565b604051610231919061165c565b60405180910390f35b610254600480360381019061024f91906117e9565b6104e8565b6040516102619190611767565b60405180910390f35b610284600480360381019061027f919061183c565b610503565b6040516102919190611767565b60405180910390f35b6102b460048036038101906102af9190611613565b61086e565b6040516102c191906118d8565b60405180910390f35b6102e460048036038101906102df9190611613565b610985565b6040516102f1919061165c565b60405180910390f35b610314600480360381019061030f91906118f3565b61099b565b604051610321919061193b565b60405180910390f35b610332610a0a565b60405161033f91906119e6565b60405180910390f35b610362600480360381019061035d9190611613565b610fc3565b60405161036f9190611767565b60405180910390f35b610392600480360381019061038d9190611a08565b611017565b60405161039f919061165c565b60405180910390f35b6103b06110e3565b6040516103bf93929190611a48565b60405180910390f35b6103e260048036038101906103dd9190611613565b61110f565b6040516103ef9190611b2b565b60405180910390f35b610412600480360381019061040d9190611613565b611320565b60405161041f919061165c565b60405180910390f35b60006018603c808461043a9190611ba4565b6104449190611ba4565b61044e9190611bd5565b9050919050565b600060076004620151808461046a9190611ba4565b6104749190611c06565b61047e9190611bd5565b9050919050565b600061049686868686866000610503565b905095945050505050565b60006104ac8261110f565b604001519050919050565b60006104c885858585600080610503565b9050949350505050565b6000603c826104e19190611bd5565b9050919050565b60006104fa8484846000806000610503565b90509392505050565b6000806107b290505b8761ffff168161ffff161015610567576105258161099b565b15610541576301e285008261053a9190611c06565b9150610554565b6301e13380826105519190611c06565b91505b808061055f90611c3a565b91505061050c565b61056f611562565b601f816000600c811061058557610584611c64565b5b602002019060ff16908160ff168152505061059f8961099b565b156105d057601d816001600c81106105ba576105b9611c64565b5b602002019060ff16908160ff16815250506105f8565b601c816001600c81106105e6576105e5611c64565b5b602002019060ff16908160ff16815250505b601f816002600c811061060e5761060d611c64565b5b602002019060ff16908160ff1681525050601e816003600c811061063557610634611c64565b5b602002019060ff16908160ff1681525050601f816004600c811061065c5761065b611c64565b5b602002019060ff16908160ff1681525050601e816005600c811061068357610682611c64565b5b602002019060ff16908160ff1681525050601f816006600c81106106aa576106a9611c64565b5b602002019060ff16908160ff1681525050601f816007600c81106106d1576106d0611c64565b5b602002019060ff16908160ff1681525050601e816008600c81106106f8576106f7611c64565b5b602002019060ff16908160ff1681525050601f816009600c811061071f5761071e611c64565b5b602002019060ff16908160ff1681525050601e81600a600c811061074657610745611c64565b5b602002019060ff16908160ff1681525050601f81600b600c811061076d5761076c611c64565b5b602002019060ff16908160ff1681525050600191505b8760ff168261ffff1610156107eb57806001836107a09190611c93565b61ffff16600c81106107b5576107b4611c64565b5b602002015160ff16620151806107cb9190611cc9565b836107d69190611c06565b925081806107e390611c3a565b925050610783565b6001876107f89190611d0b565b60ff16620151806108099190611cc9565b836108149190611c06565b92508560ff16610e106108279190611cc9565b836108329190611c06565b92508460ff16603c6108449190611cc9565b8361084f9190611c06565b92508360ff16836108609190611c06565b925050509695505050505050565b600080600090506000806301e13380856108889190611ba4565b6107b261ffff166108999190611c06565b91506108aa6107b261ffff16610fc3565b6108b78361ffff16610fc3565b6108c19190611d40565b9050806301e285006108d39190611cc9565b836108de9190611c06565b9250806107b2836108ef9190611c93565b61ffff166108fd9190611d40565b6301e1338061090c9190611cc9565b836109179190611c06565b92505b8483111561097a576109376001836109329190611c93565b61099b565b15610953576301e285008361094c9190611d40565b9250610966565b6301e13380836109639190611d40565b92505b6001826109739190611c93565b915061091a565b819350505050919050565b60006109908261110f565b602001519050919050565b6000806004836109ab9190611d74565b61ffff16146109bd5760009050610a05565b60006064836109cc9190611d74565b61ffff16146109de5760019050610a05565b6000610190836109ee9190611d74565b61ffff1614610a005760009050610a05565b600190505b919050565b60606000806000610a196110e3565b9250925092506000610a2e8461ffff16611341565b90506000610a3e8460ff16611341565b90506000610a4e8460ff16611341565b90506000600a67ffffffffffffffff811115610a6d57610a6c611da5565b5b6040519080825280601f01601f191660200182016040528015610a9f5781602001600182028036833780820191505090505b50905083600081518110610ab657610ab5611c64565b5b602001015160f81c60f81b81600081518110610ad557610ad4611c64565b5b60200101907effffffffffffffffffffffffffffffffffffffffffffffffffffffffffffff1916908160001a90535083600181518110610b1857610b17611c64565b5b602001015160f81c60f81b81600181518110610b3757610b36611c64565b5b60200101907effffffffffffffffffffffffffffffffffffffffffffffffffffffffffffff1916908160001a90535083600281518110610b7a57610b79611c64565b5b602001015160f81c60f81b81600281518110610b9957610b98611c64565b5b60200101907effffffffffffffffffffffffffffffffffffffffffffffffffffffffffffff1916908160001a90535083600381518110610bdc57610bdb611c64565b5b602001015160f81c60f81b81600381518110610bfb57610bfa611c64565b5b60200101907effffffffffffffffffffffffffffffffffffffffffffffffffffffffffffff1916908160001a905350602d60f81b81600481518110610c4357610c42611c64565b5b60200101907effffffffffffffffffffffffffffffffffffffffffffffffffffffffffffff1916908160001a905350600183511115610d455782600081518110610c9057610c8f611c64565b5b602001015160f81c60f81b81600581518110610caf57610cae611c64565b5b60200101907effffffffffffffffffffffffffffffffffffffffffffffffffffffffffffff1916908160001a90535082600181518110610cf257610cf1611c64565b5b602001015160f81c60f81b81600681518110610d1157610d10611c64565b5b60200101907effffffffffffffffffffffffffffffffffffffffffffffffffffffffffffff1916908160001a905350610df0565b603060f81b81600581518110610d5e57610d5d611c64565b5b60200101907effffffffffffffffffffffffffffffffffffffffffffffffffffffffffffff1916908160001a90535082600081518110610da157610da0611c64565b5b602001015160f81c60f81b81600681518110610dc057610dbf611c64565b5b60200101907effffffffffffffffffffffffffffffffffffffffffffffffffffffffffffff1916908160001a9053505b602d60f81b81600781518110610e0957610e08611c64565b5b60200101907effffffffffffffffffffffffffffffffffffffffffffffffffffffffffffff1916908160001a905350600182511115610f0b5781600081518110610e5657610e55611c64565b5b602001015160f81c60f81b81600881518110610e7557610e74611c64565b5b60200101907effffffffffffffffffffffffffffffffffffffffffffffffffffffffffffff1916908160001a90535081600181518110610eb857610eb7611c64565b5b602001015160f81c60f81b81600981518110610ed757610ed6611c64565b5b60200101907effffffffffffffffffffffffffffffffffffffffffffffffffffffffffffff1916908160001a905350610fb6565b603060f81b81600881518110610f2457610f23611c64565b5b60200101907effffffffffffffffffffffffffffffffffffffffffffffffffffffffffffff1916908160001a90535081600081518110610f6757610f66611c64565b5b602001015160f81c60f81b81600981518110610f8657610f85611c64565b5b60200101907effffffffffffffffffffffffffffffffffffffffffffffffffffffffffffff1916908160001a9053505b8097505050505050505090565b6000600182610fd29190611d40565b915061019082610fe29190611ba4565b606483610fef9190611ba4565b600484610ffc9190611ba4565b6110069190611d40565b6110109190611c06565b9050919050565b600060018360ff16148061102e575060038360ff16145b8061103c575060058360ff16145b8061104a575060078360ff16145b80611058575060088360ff16145b806110665750600a8360ff16145b806110745750600c8360ff16145b1561108257601f90506110dd565b60048360ff161480611097575060068360ff16145b806110a5575060098360ff16145b806110b35750600b8360ff16145b156110c157601e90506110dd565b6110ca8261099b565b156110d857601d90506110dd565b601c90505b92915050565b6000806000806110f24261110f565b905080600001518160200151826040015193509350935050909192565b611117611585565b600080806111248561086e565b846000019061ffff16908161ffff16815250506111466107b261ffff16610fc3565b611157856000015161ffff16610fc3565b6111619190611d40565b9150816301e285006111739190611cc9565b8361117e9190611c06565b9250816107b285600001516111939190611c93565b61ffff166111a19190611d40565b6301e133806111b09190611cc9565b836111bb9190611c06565b92506000600191505b600c8260ff161161123b576111dd828660000151611017565b60ff16620151806111ee9190611cc9565b90508584826111fd9190611c06565b111561121a5781856020019060ff16908160ff168152505061123b565b80846112269190611c06565b9350818061123390611dd4565b9250506111c4565b600191505b61125285602001518660000151611017565b60ff168260ff16116112af5785846201518061126e9190611c06565b111561128b5781856040019060ff16908160ff16815250506112af565b620151808461129a9190611c06565b935081806112a790611dd4565b925050611240565b6112b886610428565b856060019060ff16908160ff16815250506112d286611320565b856080019060ff16908160ff16815250506112ec866104d2565b8560a0019060ff16908160ff168152505061130686610455565b8560c0019060ff16908160ff168152505050505050919050565b6000603c80836113309190611ba4565b61133a9190611bd5565b9050919050565b6060600060016113508461140f565b01905060008167ffffffffffffffff81111561136f5761136e611da5565b5b6040519080825280601f01601f1916602001820160405280156113a15781602001600182028036833780820191505090505b509050600082602001820190505b600115611404578080600190039150507f3031323334353637383961626364656600000000000000000000000000000000600a86061a8153600a85816113f8576113f7611b46565b5b049450600085036113af575b819350505050919050565b600080600090507a184f03e93ff9f4daa797ed6e38ed64bf6a1f010000000000000000831061146d577a184f03e93ff9f4daa797ed6e38ed64bf6a1f010000000000000000838161146357611462611b46565b5b0492506040810190505b6d04ee2d6d415b85acef810000000083106114aa576d04ee2d6d415b85acef810000000083816114a05761149f611b46565b5b0492506020810190505b662386f26fc1000083106114d957662386f26fc1000083816114cf576114ce611b46565b5b0492506010810190505b6305f5e1008310611502576305f5e10083816114f8576114f7611b46565b5b0492506008810190505b612710831061152757612710838161151d5761151c611b46565b5b0492506004810190505b6064831061154a57606483816115405761153f611b46565b5b0492506002810190505b600a8310611559576001810190505b80915050919050565b604051806101800160405280600c90602082028036833780820191505090505090565b6040518060e00160405280600061ffff168152602001600060ff168152602001600060ff168152602001600060ff168152602001600060ff168152602001600060ff168152602001600060ff1681525090565b600080fd5b6000819050919050565b6115f0816115dd565b81146115fb57600080fd5b50565b60008135905061160d816115e7565b92915050565b600060208284031215611629576116286115d8565b5b6000611637848285016115fe565b91505092915050565b600060ff82169050919050565b61165681611640565b82525050565b6000602082019050611671600083018461164d565b92915050565b600061ffff82169050919050565b61168e81611677565b811461169957600080fd5b50565b6000813590506116ab81611685565b92915050565b6116ba81611640565b81146116c557600080fd5b50565b6000813590506116d7816116b1565b92915050565b600080600080600060a086880312156116f9576116f86115d8565b5b60006117078882890161169c565b9550506020611718888289016116c8565b9450506040611729888289016116c8565b935050606061173a888289016116c8565b925050608061174b888289016116c8565b9150509295509295909350565b611761816115dd565b82525050565b600060208201905061177c6000830184611758565b92915050565b6000806000806080858703121561179c5761179b6115d8565b5b60006117aa8782880161169c565b94505060206117bb878288016116c8565b93505060406117cc878288016116c8565b92505060606117dd878288016116c8565b91505092959194509250565b600080600060608486031215611802576118016115d8565b5b60006118108682870161169c565b9350506020611821868287016116c8565b9250506040611832868287016116c8565b9150509250925092565b60008060008060008060c08789031215611859576118586115d8565b5b600061186789828a0161169c565b965050602061187889828a016116c8565b955050604061188989828a016116c8565b945050606061189a89828a016116c8565b93505060806118ab89828a016116c8565b92505060a06118bc89828a016116c8565b9150509295509295509295565b6118d281611677565b82525050565b60006020820190506118ed60008301846118c9565b92915050565b600060208284031215611909576119086115d8565b5b60006119178482850161169c565b91505092915050565b60008115159050919050565b61193581611920565b82525050565b6000602082019050611950600083018461192c565b92915050565b600081519050919050565b600082825260208201905092915050565b60005b83811015611990578082015181840152602081019050611975565b60008484015250505050565b6000601f19601f8301169050919050565b60006119b882611956565b6119c28185611961565b93506119d2818560208601611972565b6119db8161199c565b840191505092915050565b60006020820190508181036000830152611a0081846119ad565b905092915050565b60008060408385031215611a1f57611a1e6115d8565b5b6000611a2d858286016116c8565b9250506020611a3e8582860161169c565b9150509250929050565b6000606082019050611a5d60008301866118c9565b611a6a602083018561164d565b611a77604083018461164d565b949350505050565b611a8881611677565b82525050565b611a9781611640565b82525050565b60e082016000820151611ab36000850182611a7f565b506020820151611ac66020850182611a8e565b506040820151611ad96040850182611a8e565b506060820151611aec6060850182611a8e565b506080820151611aff6080850182611a8e565b5060a0820151611b1260a0850182611a8e565b5060c0820151611b2560c0850182611a8e565b50505050565b600060e082019050611b406000830184611a9d565b92915050565b7f4e487b7100000000000000000000000000000000000000000000000000000000600052601260045260246000fd5b7f4e487b7100000000000000000000000000000000000000000000000000000000600052601160045260246000fd5b6000611baf826115dd565b9150611bba836115dd565b925082611bca57611bc9611b46565b5b828204905092915050565b6000611be0826115dd565b9150611beb836115dd565b925082611bfb57611bfa611b46565b5b828206905092915050565b6000611c11826115dd565b9150611c1c836115dd565b9250828201905080821115611c3457611c33611b75565b5b92915050565b6000611c4582611677565b915061ffff8203611c5957611c58611b75565b5b600182019050919050565b7f4e487b7100000000000000000000000000000000000000000000000000000000600052603260045260246000fd5b6000611c9e82611677565b9150611ca983611677565b9250828203905061ffff811115611cc357611cc2611b75565b5b92915050565b6000611cd4826115dd565b9150611cdf836115dd565b9250828202611ced816115dd565b91508282048414831517611d0457611d03611b75565b5b5092915050565b6000611d1682611640565b9150611d2183611640565b9250828203905060ff811115611d3a57611d39611b75565b5b92915050565b6000611d4b826115dd565b9150611d56836115dd565b9250828203905081811115611d6e57611d6d611b75565b5b92915050565b6000611d7f82611677565b9150611d8a83611677565b925082611d9a57611d99611b46565b5b828206905092915050565b7f4e487b7100000000000000000000000000000000000000000000000000000000600052604160045260246000fd5b6000611ddf82611640565b915060ff8203611df257611df1611b75565b5b60018201905091905056fea2646970667358221220859473cf271d1a1d112d7b90569db568f4320321095cbaf830c1fb24aa33957164736f6c63430008120033",
					"opcodes": "PUSH2 0x1E33 PUSH2 0x53 PUSH1 0xB DUP3 DUP3 DUP3 CODECOPY DUP1 MLOAD PUSH1 0x0 BYTE PUSH1 0x73 EQ PUSH2 0x46 JUMPI PUSH32 0x4E487B7100000000000000000000000000000000000000000000000000000000 PUSH1 0x0 MSTORE PUSH1 0x0 PUSH1 0x4 MSTORE PUSH1 0x24 PUSH1 0x0 REVERT JUMPDEST ADDRESS PUSH1 0x0 MSTORE PUSH1 0x73 DUP2 MSTORE8 DUP3 DUP2 RETURN INVALID PUSH20 0x0 ADDRESS EQ PUSH1 0x80 PUSH1 0x40 MSTORE PUSH1 0x4 CALLDATASIZE LT PUSH2 0x115 JUMPI PUSH1 0x0 CALLDATALOAD PUSH1 0xE0 SHR DUP1 PUSH4 0x92D66313 GT PUSH2 0xAC JUMPI DUP1 PUSH4 0xB1999937 GT PUSH2 0x7B JUMPI DUP1 PUSH4 0xB1999937 EQ PUSH2 0x348 JUMPI DUP1 PUSH4 0xB238AD0E EQ PUSH2 0x378 JUMPI DUP1 PUSH4 0xEB3334C5 EQ PUSH2 0x3A8 JUMPI DUP1 PUSH4 0xF97D0591 EQ PUSH2 0x3C8 JUMPI DUP1 PUSH4 0xFA93F883 EQ PUSH2 0x3F8 JUMPI PUSH2 0x115 JUMP JUMPDEST DUP1 PUSH4 0x92D66313 EQ PUSH2 0x29A JUMPI DUP1 PUSH4 0xA324AD24 EQ PUSH2 0x2CA JUMPI DUP1 PUSH4 0xA6F0E577 EQ PUSH2 0x2FA JUMPI DUP1 PUSH4 0xA9A295AD EQ PUSH2 0x32A JUMPI PUSH2 0x115 JUMP JUMPDEST DUP1 PUSH4 0x7F791833 GT PUSH2 0xE8 JUMPI DUP1 PUSH4 0x7F791833 EQ PUSH2 0x1DA JUMPI DUP1 PUSH4 0x8AA001FC EQ PUSH2 0x20A JUMPI DUP1 PUSH4 0x8C8D98A0 EQ PUSH2 0x23A JUMPI DUP1 PUSH4 0x9054BDEC EQ PUSH2 0x26A JUMPI PUSH2 0x115 JUMP JUMPDEST DUP1 PUSH4 0x3E239E1A EQ PUSH2 0x11A JUMPI DUP1 PUSH4 0x4AC1AD78 EQ PUSH2 0x14A JUMPI DUP1 PUSH4 0x62BA9687 EQ PUSH2 0x17A JUMPI DUP1 PUSH4 0x65C72840 EQ PUSH2 0x1AA JUMPI JUMPDEST PUSH1 0x0 DUP1 REVERT JUMPDEST PUSH2 0x134 PUSH1 0x4 DUP1 CALLDATASIZE SUB DUP2 ADD SWAP1 PUSH2 0x12F SWAP2 SWAP1 PUSH2 0x1613 JUMP JUMPDEST PUSH2 0x428 JUMP JUMPDEST PUSH1 0x40 MLOAD PUSH2 0x141 SWAP2 SWAP1 PUSH2 0x165C JUMP JUMPDEST PUSH1 0x40 MLOAD DUP1 SWAP2 SUB SWAP1 RETURN JUMPDEST PUSH2 0x164 PUSH1 0x4 DUP1 CALLDATASIZE SUB DUP2 ADD SWAP1 PUSH2 0x15F SWAP2 SWAP1 PUSH2 0x1613 JUMP JUMPDEST PUSH2 0x455 JUMP JUMPDEST PUSH1 0x40 MLOAD PUSH2 0x171 SWAP2 SWAP1 PUSH2 0x165C JUMP JUMPDEST PUSH1 0x40 MLOAD DUP1 SWAP2 SUB SWAP1 RETURN JUMPDEST PUSH2 0x194 PUSH1 0x4 DUP1 CALLDATASIZE SUB DUP2 ADD SWAP1 PUSH2 0x18F SWAP2 SWAP1 PUSH2 0x16DD JUMP JUMPDEST PUSH2 0x485 JUMP JUMPDEST PUSH1 0x40 MLOAD PUSH2 0x1A1 SWAP2 SWAP1 PUSH2 0x1767 JUMP JUMPDEST PUSH1 0x40 MLOAD DUP1 SWAP2 SUB SWAP1 RETURN JUMPDEST PUSH2 0x1C4 PUSH1 0x4 DUP1 CALLDATASIZE SUB DUP2 ADD SWAP1 PUSH2 0x1BF SWAP2 SWAP1 PUSH2 0x1613 JUMP JUMPDEST PUSH2 0x4A1 JUMP JUMPDEST PUSH1 0x40 MLOAD PUSH2 0x1D1 SWAP2 SWAP1 PUSH2 0x165C JUMP JUMPDEST PUSH1 0x40 MLOAD DUP1 SWAP2 SUB SWAP1 RETURN JUMPDEST PUSH2 0x1F4 PUSH1 0x4 DUP1 CALLDATASIZE SUB DUP2 ADD SWAP1 PUSH2 0x1EF SWAP2 SWAP1 PUSH2 0x1782 JUMP JUMPDEST PUSH2 0x4B7 JUMP JUMPDEST PUSH1 0x40 MLOAD PUSH2 0x201 SWAP2 SWAP1 PUSH2 0x1767 JUMP JUMPDEST PUSH1 0x40 MLOAD DUP1 SWAP2 SUB SWAP1 RETURN JUMPDEST PUSH2 0x224 PUSH1 0x4 DUP1 CALLDATASIZE SUB DUP2 ADD SWAP1 PUSH2 0x21F SWAP2 SWAP1 PUSH2 0x1613 JUMP JUMPDEST PUSH2 0x4D2 JUMP JUMPDEST PUSH1 0x40 MLOAD PUSH2 0x231 SWAP2 SWAP1 PUSH2 0x165C JUMP JUMPDEST PUSH1 0x40 MLOAD DUP1 SWAP2 SUB SWAP1 RETURN JUMPDEST PUSH2 0x254 PUSH1 0x4 DUP1 CALLDATASIZE SUB DUP2 ADD SWAP1 PUSH2 0x24F SWAP2 SWAP1 PUSH2 0x17E9 JUMP JUMPDEST PUSH2 0x4E8 JUMP JUMPDEST PUSH1 0x40 MLOAD PUSH2 0x261 SWAP2 SWAP1 PUSH2 0x1767 JUMP JUMPDEST PUSH1 0x40 MLOAD DUP1 SWAP2 SUB SWAP1 RETURN JUMPDEST PUSH2 0x284 PUSH1 0x4 DUP1 CALLDATASIZE SUB DUP2 ADD SWAP1 PUSH2 0x27F SWAP2 SWAP1 PUSH2 0x183C JUMP JUMPDEST PUSH2 0x503 JUMP JUMPDEST PUSH1 0x40 MLOAD PUSH2 0x291 SWAP2 SWAP1 PUSH2 0x1767 JUMP JUMPDEST PUSH1 0x40 MLOAD DUP1 SWAP2 SUB SWAP1 RETURN JUMPDEST PUSH2 0x2B4 PUSH1 0x4 DUP1 CALLDATASIZE SUB DUP2 ADD SWAP1 PUSH2 0x2AF SWAP2 SWAP1 PUSH2 0x1613 JUMP JUMPDEST PUSH2 0x86E JUMP JUMPDEST PUSH1 0x40 MLOAD PUSH2 0x2C1 SWAP2 SWAP1 PUSH2 0x18D8 JUMP JUMPDEST PUSH1 0x40 MLOAD DUP1 SWAP2 SUB SWAP1 RETURN JUMPDEST PUSH2 0x2E4 PUSH1 0x4 DUP1 CALLDATASIZE SUB DUP2 ADD SWAP1 PUSH2 0x2DF SWAP2 SWAP1 PUSH2 0x1613 JUMP JUMPDEST PUSH2 0x985 JUMP JUMPDEST PUSH1 0x40 MLOAD PUSH2 0x2F1 SWAP2 SWAP1 PUSH2 0x165C JUMP JUMPDEST PUSH1 0x40 MLOAD DUP1 SWAP2 SUB SWAP1 RETURN JUMPDEST PUSH2 0x314 PUSH1 0x4 DUP1 CALLDATASIZE SUB DUP2 ADD SWAP1 PUSH2 0x30F SWAP2 SWAP1 PUSH2 0x18F3 JUMP JUMPDEST PUSH2 0x99B JUMP JUMPDEST PUSH1 0x40 MLOAD PUSH2 0x321 SWAP2 SWAP1 PUSH2 0x193B JUMP JUMPDEST PUSH1 0x40 MLOAD DUP1 SWAP2 SUB SWAP1 RETURN JUMPDEST PUSH2 0x332 PUSH2 0xA0A JUMP JUMPDEST PUSH1 0x40 MLOAD PUSH2 0x33F SWAP2 SWAP1 PUSH2 0x19E6 JUMP JUMPDEST PUSH1 0x40 MLOAD DUP1 SWAP2 SUB SWAP1 RETURN JUMPDEST PUSH2 0x362 PUSH1 0x4 DUP1 CALLDATASIZE SUB DUP2 ADD SWAP1 PUSH2 0x35D SWAP2 SWAP1 PUSH2 0x1613 JUMP JUMPDEST PUSH2 0xFC3 JUMP JUMPDEST PUSH1 0x40 MLOAD PUSH2 0x36F SWAP2 SWAP1 PUSH2 0x1767 JUMP JUMPDEST PUSH1 0x40 MLOAD DUP1 SWAP2 SUB SWAP1 RETURN JUMPDEST PUSH2 0x392 PUSH1 0x4 DUP1 CALLDATASIZE SUB DUP2 ADD SWAP1 PUSH2 0x38D SWAP2 SWAP1 PUSH2 0x1A08 JUMP JUMPDEST PUSH2 0x1017 JUMP JUMPDEST PUSH1 0x40 MLOAD PUSH2 0x39F SWAP2 SWAP1 PUSH2 0x165C JUMP JUMPDEST PUSH1 0x40 MLOAD DUP1 SWAP2 SUB SWAP1 RETURN JUMPDEST PUSH2 0x3B0 PUSH2 0x10E3 JUMP JUMPDEST PUSH1 0x40 MLOAD PUSH2 0x3BF SWAP4 SWAP3 SWAP2 SWAP1 PUSH2 0x1A48 JUMP JUMPDEST PUSH1 0x40 MLOAD DUP1 SWAP2 SUB SWAP1 RETURN JUMPDEST PUSH2 0x3E2 PUSH1 0x4 DUP1 CALLDATASIZE SUB DUP2 ADD SWAP1 PUSH2 0x3DD SWAP2 SWAP1 PUSH2 0x1613 JUMP JUMPDEST PUSH2 0x110F JUMP JUMPDEST PUSH1 0x40 MLOAD PUSH2 0x3EF SWAP2 SWAP1 PUSH2 0x1B2B JUMP JUMPDEST PUSH1 0x40 MLOAD DUP1 SWAP2 SUB SWAP1 RETURN JUMPDEST PUSH2 0x412 PUSH1 0x4 DUP1 CALLDATASIZE SUB DUP2 ADD SWAP1 PUSH2 0x40D SWAP2 SWAP1 PUSH2 0x1613 JUMP JUMPDEST PUSH2 0x1320 JUMP JUMPDEST PUSH1 0x40 MLOAD PUSH2 0x41F SWAP2 SWAP1 PUSH2 0x165C JUMP JUMPDEST PUSH1 0x40 MLOAD DUP1 SWAP2 SUB SWAP1 RETURN JUMPDEST PUSH1 0x0 PUSH1 0x18 PUSH1 0x3C DUP1 DUP5 PUSH2 0x43A SWAP2 SWAP1 PUSH2 0x1BA4 JUMP JUMPDEST PUSH2 0x444 SWAP2 SWAP1 PUSH2 0x1BA4 JUMP JUMPDEST PUSH2 0x44E SWAP2 SWAP1 PUSH2 0x1BD5 JUMP JUMPDEST SWAP1 POP SWAP2 SWAP1 POP JUMP JUMPDEST PUSH1 0x0 PUSH1 0x7 PUSH1 0x4 PUSH3 0x15180 DUP5 PUSH2 0x46A SWAP2 SWAP1 PUSH2 0x1BA4 JUMP JUMPDEST PUSH2 0x474 SWAP2 SWAP1 PUSH2 0x1C06 JUMP JUMPDEST PUSH2 0x47E SWAP2 SWAP1 PUSH2 0x1BD5 JUMP JUMPDEST SWAP1 POP SWAP2 SWAP1 POP JUMP JUMPDEST PUSH1 0x0 PUSH2 0x496 DUP7 DUP7 DUP7 DUP7 DUP7 PUSH1 0x0 PUSH2 0x503 JUMP JUMPDEST SWAP1 POP SWAP6 SWAP5 POP POP POP POP POP JUMP JUMPDEST PUSH1 0x0 PUSH2 0x4AC DUP3 PUSH2 0x110F JUMP JUMPDEST PUSH1 0x40 ADD MLOAD SWAP1 POP SWAP2 SWAP1 POP JUMP JUMPDEST PUSH1 0x0 PUSH2 0x4C8 DUP6 DUP6 DUP6 DUP6 PUSH1 0x0 DUP1 PUSH2 0x503 JUMP JUMPDEST SWAP1 POP SWAP5 SWAP4 POP POP POP POP JUMP JUMPDEST PUSH1 0x0 PUSH1 0x3C DUP3 PUSH2 0x4E1 SWAP2 SWAP1 PUSH2 0x1BD5 JUMP JUMPDEST SWAP1 POP SWAP2 SWAP1 POP JUMP JUMPDEST PUSH1 0x0 PUSH2 0x4FA DUP5 DUP5 DUP5 PUSH1 0x0 DUP1 PUSH1 0x0 PUSH2 0x503 JUMP JUMPDEST SWAP1 POP SWAP4 SWAP3 POP POP POP JUMP JUMPDEST PUSH1 0x0 DUP1 PUSH2 0x7B2 SWAP1 POP JUMPDEST DUP8 PUSH2 0xFFFF AND DUP2 PUSH2 0xFFFF AND LT ISZERO PUSH2 0x567 JUMPI PUSH2 0x525 DUP2 PUSH2 0x99B JUMP JUMPDEST ISZERO PUSH2 0x541 JUMPI PUSH4 0x1E28500 DUP3 PUSH2 0x53A SWAP2 SWAP1 PUSH2 0x1C06 JUMP JUMPDEST SWAP2 POP PUSH2 0x554 JUMP JUMPDEST PUSH4 0x1E13380 DUP3 PUSH2 0x551 SWAP2 SWAP1 PUSH2 0x1C06 JUMP JUMPDEST SWAP2 POP JUMPDEST DUP1 DUP1 PUSH2 0x55F SWAP1 PUSH2 0x1C3A JUMP JUMPDEST SWAP2 POP POP PUSH2 0x50C JUMP JUMPDEST PUSH2 0x56F PUSH2 0x1562 JUMP JUMPDEST PUSH1 0x1F DUP2 PUSH1 0x0 PUSH1 0xC DUP2 LT PUSH2 0x585 JUMPI PUSH2 0x584 PUSH2 0x1C64 JUMP JUMPDEST JUMPDEST PUSH1 0x20 MUL ADD SWAP1 PUSH1 0xFF AND SWAP1 DUP2 PUSH1 0xFF AND DUP2 MSTORE POP POP PUSH2 0x59F DUP10 PUSH2 0x99B JUMP JUMPDEST ISZERO PUSH2 0x5D0 JUMPI PUSH1 0x1D DUP2 PUSH1 0x1 PUSH1 0xC DUP2 LT PUSH2 0x5BA JUMPI PUSH2 0x5B9 PUSH2 0x1C64 JUMP JUMPDEST JUMPDEST PUSH1 0x20 MUL ADD SWAP1 PUSH1 0xFF AND SWAP1 DUP2 PUSH1 0xFF AND DUP2 MSTORE POP POP PUSH2 0x5F8 JUMP JUMPDEST PUSH1 0x1C DUP2 PUSH1 0x1 PUSH1 0xC DUP2 LT PUSH2 0x5E6 JUMPI PUSH2 0x5E5 PUSH2 0x1C64 JUMP JUMPDEST JUMPDEST PUSH1 0x20 MUL ADD SWAP1 PUSH1 0xFF AND SWAP1 DUP2 PUSH1 0xFF AND DUP2 MSTORE POP POP JUMPDEST PUSH1 0x1F DUP2 PUSH1 0x2 PUSH1 0xC DUP2 LT PUSH2 0x60E JUMPI PUSH2 0x60D PUSH2 0x1C64 JUMP JUMPDEST JUMPDEST PUSH1 0x20 MUL ADD SWAP1 PUSH1 0xFF AND SWAP1 DUP2 PUSH1 0xFF AND DUP2 MSTORE POP POP PUSH1 0x1E DUP2 PUSH1 0x3 PUSH1 0xC DUP2 LT PUSH2 0x635 JUMPI PUSH2 0x634 PUSH2 0x1C64 JUMP JUMPDEST JUMPDEST PUSH1 0x20 MUL ADD SWAP1 PUSH1 0xFF AND SWAP1 DUP2 PUSH1 0xFF AND DUP2 MSTORE POP POP PUSH1 0x1F DUP2 PUSH1 0x4 PUSH1 0xC DUP2 LT PUSH2 0x65C JUMPI PUSH2 0x65B PUSH2 0x1C64 JUMP JUMPDEST JUMPDEST PUSH1 0x20 MUL ADD SWAP1 PUSH1 0xFF AND SWAP1 DUP2 PUSH1 0xFF AND DUP2 MSTORE POP POP PUSH1 0x1E DUP2 PUSH1 0x5 PUSH1 0xC DUP2 LT PUSH2 0x683 JUMPI PUSH2 0x682 PUSH2 0x1C64 JUMP JUMPDEST JUMPDEST PUSH1 0x20 MUL ADD SWAP1 PUSH1 0xFF AND SWAP1 DUP2 PUSH1 0xFF AND DUP2 MSTORE POP POP PUSH1 0x1F DUP2 PUSH1 0x6 PUSH1 0xC DUP2 LT PUSH2 0x6AA JUMPI PUSH2 0x6A9 PUSH2 0x1C64 JUMP JUMPDEST JUMPDEST PUSH1 0x20 MUL ADD SWAP1 PUSH1 0xFF AND SWAP1 DUP2 PUSH1 0xFF AND DUP2 MSTORE POP POP PUSH1 0x1F DUP2 PUSH1 0x7 PUSH1 0xC DUP2 LT PUSH2 0x6D1 JUMPI PUSH2 0x6D0 PUSH2 0x1C64 JUMP JUMPDEST JUMPDEST PUSH1 0x20 MUL ADD SWAP1 PUSH1 0xFF AND SWAP1 DUP2 PUSH1 0xFF AND DUP2 MSTORE POP POP PUSH1 0x1E DUP2 PUSH1 0x8 PUSH1 0xC DUP2 LT PUSH2 0x6F8 JUMPI PUSH2 0x6F7 PUSH2 0x1C64 JUMP JUMPDEST JUMPDEST PUSH1 0x20 MUL ADD SWAP1 PUSH1 0xFF AND SWAP1 DUP2 PUSH1 0xFF AND DUP2 MSTORE POP POP PUSH1 0x1F DUP2 PUSH1 0x9 PUSH1 0xC DUP2 LT PUSH2 0x71F JUMPI PUSH2 0x71E PUSH2 0x1C64 JUMP JUMPDEST JUMPDEST PUSH1 0x20 MUL ADD SWAP1 PUSH1 0xFF AND SWAP1 DUP2 PUSH1 0xFF AND DUP2 MSTORE POP POP PUSH1 0x1E DUP2 PUSH1 0xA PUSH1 0xC DUP2 LT PUSH2 0x746 JUMPI PUSH2 0x745 PUSH2 0x1C64 JUMP JUMPDEST JUMPDEST PUSH1 0x20 MUL ADD SWAP1 PUSH1 0xFF AND SWAP1 DUP2 PUSH1 0xFF AND DUP2 MSTORE POP POP PUSH1 0x1F DUP2 PUSH1 0xB PUSH1 0xC DUP2 LT PUSH2 0x76D JUMPI PUSH2 0x76C PUSH2 0x1C64 JUMP JUMPDEST JUMPDEST PUSH1 0x20 MUL ADD SWAP1 PUSH1 0xFF AND SWAP1 DUP2 PUSH1 0xFF AND DUP2 MSTORE POP POP PUSH1 0x1 SWAP2 POP JUMPDEST DUP8 PUSH1 0xFF AND DUP3 PUSH2 0xFFFF AND LT ISZERO PUSH2 0x7EB JUMPI DUP1 PUSH1 0x1 DUP4 PUSH2 0x7A0 SWAP2 SWAP1 PUSH2 0x1C93 JUMP JUMPDEST PUSH2 0xFFFF AND PUSH1 0xC DUP2 LT PUSH2 0x7B5 JUMPI PUSH2 0x7B4 PUSH2 0x1C64 JUMP JUMPDEST JUMPDEST PUSH1 0x20 MUL ADD MLOAD PUSH1 0xFF AND PUSH3 0x15180 PUSH2 0x7CB SWAP2 SWAP1 PUSH2 0x1CC9 JUMP JUMPDEST DUP4 PUSH2 0x7D6 SWAP2 SWAP1 PUSH2 0x1C06 JUMP JUMPDEST SWAP3 POP DUP2 DUP1 PUSH2 0x7E3 SWAP1 PUSH2 0x1C3A JUMP JUMPDEST SWAP3 POP POP PUSH2 0x783 JUMP JUMPDEST PUSH1 0x1 DUP8 PUSH2 0x7F8 SWAP2 SWAP1 PUSH2 0x1D0B JUMP JUMPDEST PUSH1 0xFF AND PUSH3 0x15180 PUSH2 0x809 SWAP2 SWAP1 PUSH2 0x1CC9 JUMP JUMPDEST DUP4 PUSH2 0x814 SWAP2 SWAP1 PUSH2 0x1C06 JUMP JUMPDEST SWAP3 POP DUP6 PUSH1 0xFF AND PUSH2 0xE10 PUSH2 0x827 SWAP2 SWAP1 PUSH2 0x1CC9 JUMP JUMPDEST DUP4 PUSH2 0x832 SWAP2 SWAP1 PUSH2 0x1C06 JUMP JUMPDEST SWAP3 POP DUP5 PUSH1 0xFF AND PUSH1 0x3C PUSH2 0x844 SWAP2 SWAP1 PUSH2 0x1CC9 JUMP JUMPDEST DUP4 PUSH2 0x84F SWAP2 SWAP1 PUSH2 0x1C06 JUMP JUMPDEST SWAP3 POP DUP4 PUSH1 0xFF AND DUP4 PUSH2 0x860 SWAP2 SWAP1 PUSH2 0x1C06 JUMP JUMPDEST SWAP3 POP POP POP SWAP7 SWAP6 POP POP POP POP POP POP JUMP JUMPDEST PUSH1 0x0 DUP1 PUSH1 0x0 SWAP1 POP PUSH1 0x0 DUP1 PUSH4 0x1E13380 DUP6 PUSH2 0x888 SWAP2 SWAP1 PUSH2 0x1BA4 JUMP JUMPDEST PUSH2 0x7B2 PUSH2 0xFFFF AND PUSH2 0x899 SWAP2 SWAP1 PUSH2 0x1C06 JUMP JUMPDEST SWAP2 POP PUSH2 0x8AA PUSH2 0x7B2 PUSH2 0xFFFF AND PUSH2 0xFC3 JUMP JUMPDEST PUSH2 0x8B7 DUP4 PUSH2 0xFFFF AND PUSH2 0xFC3 JUMP JUMPDEST PUSH2 0x8C1 SWAP2 SWAP1 PUSH2 0x1D40 JUMP JUMPDEST SWAP1 POP DUP1 PUSH4 0x1E28500 PUSH2 0x8D3 SWAP2 SWAP1 PUSH2 0x1CC9 JUMP JUMPDEST DUP4 PUSH2 0x8DE SWAP2 SWAP1 PUSH2 0x1C06 JUMP JUMPDEST SWAP3 POP DUP1 PUSH2 0x7B2 DUP4 PUSH2 0x8EF SWAP2 SWAP1 PUSH2 0x1C93 JUMP JUMPDEST PUSH2 0xFFFF AND PUSH2 0x8FD SWAP2 SWAP1 PUSH2 0x1D40 JUMP JUMPDEST PUSH4 0x1E13380 PUSH2 0x90C SWAP2 SWAP1 PUSH2 0x1CC9 JUMP JUMPDEST DUP4 PUSH2 0x917 SWAP2 SWAP1 PUSH2 0x1C06 JUMP JUMPDEST SWAP3 POP JUMPDEST DUP5 DUP4 GT ISZERO PUSH2 0x97A JUMPI PUSH2 0x937 PUSH1 0x1 DUP4 PUSH2 0x932 SWAP2 SWAP1 PUSH2 0x1C93 JUMP JUMPDEST PUSH2 0x99B JUMP JUMPDEST ISZERO PUSH2 0x953 JUMPI PUSH4 0x1E28500 DUP4 PUSH2 0x94C SWAP2 SWAP1 PUSH2 0x1D40 JUMP JUMPDEST SWAP3 POP PUSH2 0x966 JUMP JUMPDEST PUSH4 0x1E13380 DUP4 PUSH2 0x963 SWAP2 SWAP1 PUSH2 0x1D40 JUMP JUMPDEST SWAP3 POP JUMPDEST PUSH1 0x1 DUP3 PUSH2 0x973 SWAP2 SWAP1 PUSH2 0x1C93 JUMP JUMPDEST SWAP2 POP PUSH2 0x91A JUMP JUMPDEST DUP2 SWAP4 POP POP POP POP SWAP2 SWAP1 POP JUMP JUMPDEST PUSH1 0x0 PUSH2 0x990 DUP3 PUSH2 0x110F JUMP JUMPDEST PUSH1 0x20 ADD MLOAD SWAP1 POP SWAP2 SWAP1 POP JUMP JUMPDEST PUSH1 0x0 DUP1 PUSH1 0x4 DUP4 PUSH2 0x9AB SWAP2 SWAP1 PUSH2 0x1D74 JUMP JUMPDEST PUSH2 0xFFFF AND EQ PUSH2 0x9BD JUMPI PUSH1 0x0 SWAP1 POP PUSH2 0xA05 JUMP JUMPDEST PUSH1 0x0 PUSH1 0x64 DUP4 PUSH2 0x9CC SWAP2 SWAP1 PUSH2 0x1D74 JUMP JUMPDEST PUSH2 0xFFFF AND EQ PUSH2 0x9DE JUMPI PUSH1 0x1 SWAP1 POP PUSH2 0xA05 JUMP JUMPDEST PUSH1 0x0 PUSH2 0x190 DUP4 PUSH2 0x9EE SWAP2 SWAP1 PUSH2 0x1D74 JUMP JUMPDEST PUSH2 0xFFFF AND EQ PUSH2 0xA00 JUMPI PUSH1 0x0 SWAP1 POP PUSH2 0xA05 JUMP JUMPDEST PUSH1 0x1 SWAP1 POP JUMPDEST SWAP2 SWAP1 POP JUMP JUMPDEST PUSH1 0x60 PUSH1 0x0 DUP1 PUSH1 0x0 PUSH2 0xA19 PUSH2 0x10E3 JUMP JUMPDEST SWAP3 POP SWAP3 POP SWAP3 POP PUSH1 0x0 PUSH2 0xA2E DUP5 PUSH2 0xFFFF AND PUSH2 0x1341 JUMP JUMPDEST SWAP1 POP PUSH1 0x0 PUSH2 0xA3E DUP5 PUSH1 0xFF AND PUSH2 0x1341 JUMP JUMPDEST SWAP1 POP PUSH1 0x0 PUSH2 0xA4E DUP5 PUSH1 0xFF AND PUSH2 0x1341 JUMP JUMPDEST SWAP1 POP PUSH1 0x0 PUSH1 0xA PUSH8 0xFFFFFFFFFFFFFFFF DUP2 GT ISZERO PUSH2 0xA6D JUMPI PUSH2 0xA6C PUSH2 0x1DA5 JUMP JUMPDEST JUMPDEST PUSH1 0x40 MLOAD SWAP1 DUP1 DUP3 MSTORE DUP1 PUSH1 0x1F ADD PUSH1 0x1F NOT AND PUSH1 0x20 ADD DUP3 ADD PUSH1 0x40 MSTORE DUP1 ISZERO PUSH2 0xA9F JUMPI DUP2 PUSH1 0x20 ADD PUSH1 0x1 DUP3 MUL DUP1 CALLDATASIZE DUP4 CALLDATACOPY DUP1 DUP3 ADD SWAP2 POP POP SWAP1 POP JUMPDEST POP SWAP1 POP DUP4 PUSH1 0x0 DUP2 MLOAD DUP2 LT PUSH2 0xAB6 JUMPI PUSH2 0xAB5 PUSH2 0x1C64 JUMP JUMPDEST JUMPDEST PUSH1 0x20 ADD ADD MLOAD PUSH1 0xF8 SHR PUSH1 0xF8 SHL DUP2 PUSH1 0x0 DUP2 MLOAD DUP2 LT PUSH2 0xAD5 JUMPI PUSH2 0xAD4 PUSH2 0x1C64 JUMP JUMPDEST JUMPDEST PUSH1 0x20 ADD ADD SWAP1 PUSH31 0xFFFFFFFFFFFFFFFFFFFFFFFFFFFFFFFFFFFFFFFFFFFFFFFFFFFFFFFFFFFFFF NOT AND SWAP1 DUP2 PUSH1 0x0 BYTE SWAP1 MSTORE8 POP DUP4 PUSH1 0x1 DUP2 MLOAD DUP2 LT PUSH2 0xB18 JUMPI PUSH2 0xB17 PUSH2 0x1C64 JUMP JUMPDEST JUMPDEST PUSH1 0x20 ADD ADD MLOAD PUSH1 0xF8 SHR PUSH1 0xF8 SHL DUP2 PUSH1 0x1 DUP2 MLOAD DUP2 LT PUSH2 0xB37 JUMPI PUSH2 0xB36 PUSH2 0x1C64 JUMP JUMPDEST JUMPDEST PUSH1 0x20 ADD ADD SWAP1 PUSH31 0xFFFFFFFFFFFFFFFFFFFFFFFFFFFFFFFFFFFFFFFFFFFFFFFFFFFFFFFFFFFFFF NOT AND SWAP1 DUP2 PUSH1 0x0 BYTE SWAP1 MSTORE8 POP DUP4 PUSH1 0x2 DUP2 MLOAD DUP2 LT PUSH2 0xB7A JUMPI PUSH2 0xB79 PUSH2 0x1C64 JUMP JUMPDEST JUMPDEST PUSH1 0x20 ADD ADD MLOAD PUSH1 0xF8 SHR PUSH1 0xF8 SHL DUP2 PUSH1 0x2 DUP2 MLOAD DUP2 LT PUSH2 0xB99 JUMPI PUSH2 0xB98 PUSH2 0x1C64 JUMP JUMPDEST JUMPDEST PUSH1 0x20 ADD ADD SWAP1 PUSH31 0xFFFFFFFFFFFFFFFFFFFFFFFFFFFFFFFFFFFFFFFFFFFFFFFFFFFFFFFFFFFFFF NOT AND SWAP1 DUP2 PUSH1 0x0 BYTE SWAP1 MSTORE8 POP DUP4 PUSH1 0x3 DUP2 MLOAD DUP2 LT PUSH2 0xBDC JUMPI PUSH2 0xBDB PUSH2 0x1C64 JUMP JUMPDEST JUMPDEST PUSH1 0x20 ADD ADD MLOAD PUSH1 0xF8 SHR PUSH1 0xF8 SHL DUP2 PUSH1 0x3 DUP2 MLOAD DUP2 LT PUSH2 0xBFB JUMPI PUSH2 0xBFA PUSH2 0x1C64 JUMP JUMPDEST JUMPDEST PUSH1 0x20 ADD ADD SWAP1 PUSH31 0xFFFFFFFFFFFFFFFFFFFFFFFFFFFFFFFFFFFFFFFFFFFFFFFFFFFFFFFFFFFFFF NOT AND SWAP1 DUP2 PUSH1 0x0 BYTE SWAP1 MSTORE8 POP PUSH1 0x2D PUSH1 0xF8 SHL DUP2 PUSH1 0x4 DUP2 MLOAD DUP2 LT PUSH2 0xC43 JUMPI PUSH2 0xC42 PUSH2 0x1C64 JUMP JUMPDEST JUMPDEST PUSH1 0x20 ADD ADD SWAP1 PUSH31 0xFFFFFFFFFFFFFFFFFFFFFFFFFFFFFFFFFFFFFFFFFFFFFFFFFFFFFFFFFFFFFF NOT AND SWAP1 DUP2 PUSH1 0x0 BYTE SWAP1 MSTORE8 POP PUSH1 0x1 DUP4 MLOAD GT ISZERO PUSH2 0xD45 JUMPI DUP3 PUSH1 0x0 DUP2 MLOAD DUP2 LT PUSH2 0xC90 JUMPI PUSH2 0xC8F PUSH2 0x1C64 JUMP JUMPDEST JUMPDEST PUSH1 0x20 ADD ADD MLOAD PUSH1 0xF8 SHR PUSH1 0xF8 SHL DUP2 PUSH1 0x5 DUP2 MLOAD DUP2 LT PUSH2 0xCAF JUMPI PUSH2 0xCAE PUSH2 0x1C64 JUMP JUMPDEST JUMPDEST PUSH1 0x20 ADD ADD SWAP1 PUSH31 0xFFFFFFFFFFFFFFFFFFFFFFFFFFFFFFFFFFFFFFFFFFFFFFFFFFFFFFFFFFFFFF NOT AND SWAP1 DUP2 PUSH1 0x0 BYTE SWAP1 MSTORE8 POP DUP3 PUSH1 0x1 DUP2 MLOAD DUP2 LT PUSH2 0xCF2 JUMPI PUSH2 0xCF1 PUSH2 0x1C64 JUMP JUMPDEST JUMPDEST PUSH1 0x20 ADD ADD MLOAD PUSH1 0xF8 SHR PUSH1 0xF8 SHL DUP2 PUSH1 0x6 DUP2 MLOAD DUP2 LT PUSH2 0xD11 JUMPI PUSH2 0xD10 PUSH2 0x1C64 JUMP JUMPDEST JUMPDEST PUSH1 0x20 ADD ADD SWAP1 PUSH31 0xFFFFFFFFFFFFFFFFFFFFFFFFFFFFFFFFFFFFFFFFFFFFFFFFFFFFFFFFFFFFFF NOT AND SWAP1 DUP2 PUSH1 0x0 BYTE SWAP1 MSTORE8 POP PUSH2 0xDF0 JUMP JUMPDEST PUSH1 0x30 PUSH1 0xF8 SHL DUP2 PUSH1 0x5 DUP2 MLOAD DUP2 LT PUSH2 0xD5E JUMPI PUSH2 0xD5D PUSH2 0x1C64 JUMP JUMPDEST JUMPDEST PUSH1 0x20 ADD ADD SWAP1 PUSH31 0xFFFFFFFFFFFFFFFFFFFFFFFFFFFFFFFFFFFFFFFFFFFFFFFFFFFFFFFFFFFFFF NOT AND SWAP1 DUP2 PUSH1 0x0 BYTE SWAP1 MSTORE8 POP DUP3 PUSH1 0x0 DUP2 MLOAD DUP2 LT PUSH2 0xDA1 JUMPI PUSH2 0xDA0 PUSH2 0x1C64 JUMP JUMPDEST JUMPDEST PUSH1 0x20 ADD ADD MLOAD PUSH1 0xF8 SHR PUSH1 0xF8 SHL DUP2 PUSH1 0x6 DUP2 MLOAD DUP2 LT PUSH2 0xDC0 JUMPI PUSH2 0xDBF PUSH2 0x1C64 JUMP JUMPDEST JUMPDEST PUSH1 0x20 ADD ADD SWAP1 PUSH31 0xFFFFFFFFFFFFFFFFFFFFFFFFFFFFFFFFFFFFFFFFFFFFFFFFFFFFFFFFFFFFFF NOT AND SWAP1 DUP2 PUSH1 0x0 BYTE SWAP1 MSTORE8 POP JUMPDEST PUSH1 0x2D PUSH1 0xF8 SHL DUP2 PUSH1 0x7 DUP2 MLOAD DUP2 LT PUSH2 0xE09 JUMPI PUSH2 0xE08 PUSH2 0x1C64 JUMP JUMPDEST JUMPDEST PUSH1 0x20 ADD ADD SWAP1 PUSH31 0xFFFFFFFFFFFFFFFFFFFFFFFFFFFFFFFFFFFFFFFFFFFFFFFFFFFFFFFFFFFFFF NOT AND SWAP1 DUP2 PUSH1 0x0 BYTE SWAP1 MSTORE8 POP PUSH1 0x1 DUP3 MLOAD GT ISZERO PUSH2 0xF0B JUMPI DUP2 PUSH1 0x0 DUP2 MLOAD DUP2 LT PUSH2 0xE56 JUMPI PUSH2 0xE55 PUSH2 0x1C64 JUMP JUMPDEST JUMPDEST PUSH1 0x20 ADD ADD MLOAD PUSH1 0xF8 SHR PUSH1 0xF8 SHL DUP2 PUSH1 0x8 DUP2 MLOAD DUP2 LT PUSH2 0xE75 JUMPI PUSH2 0xE74 PUSH2 0x1C64 JUMP JUMPDEST JUMPDEST PUSH1 0x20 ADD ADD SWAP1 PUSH31 0xFFFFFFFFFFFFFFFFFFFFFFFFFFFFFFFFFFFFFFFFFFFFFFFFFFFFFFFFFFFFFF NOT AND SWAP1 DUP2 PUSH1 0x0 BYTE SWAP1 MSTORE8 POP DUP2 PUSH1 0x1 DUP2 MLOAD DUP2 LT PUSH2 0xEB8 JUMPI PUSH2 0xEB7 PUSH2 0x1C64 JUMP JUMPDEST JUMPDEST PUSH1 0x20 ADD ADD MLOAD PUSH1 0xF8 SHR PUSH1 0xF8 SHL DUP2 PUSH1 0x9 DUP2 MLOAD DUP2 LT PUSH2 0xED7 JUMPI PUSH2 0xED6 PUSH2 0x1C64 JUMP JUMPDEST JUMPDEST PUSH1 0x20 ADD ADD SWAP1 PUSH31 0xFFFFFFFFFFFFFFFFFFFFFFFFFFFFFFFFFFFFFFFFFFFFFFFFFFFFFFFFFFFFFF NOT AND SWAP1 DUP2 PUSH1 0x0 BYTE SWAP1 MSTORE8 POP PUSH2 0xFB6 JUMP JUMPDEST PUSH1 0x30 PUSH1 0xF8 SHL DUP2 PUSH1 0x8 DUP2 MLOAD DUP2 LT PUSH2 0xF24 JUMPI PUSH2 0xF23 PUSH2 0x1C64 JUMP JUMPDEST JUMPDEST PUSH1 0x20 ADD ADD SWAP1 PUSH31 0xFFFFFFFFFFFFFFFFFFFFFFFFFFFFFFFFFFFFFFFFFFFFFFFFFFFFFFFFFFFFFF NOT AND SWAP1 DUP2 PUSH1 0x0 BYTE SWAP1 MSTORE8 POP DUP2 PUSH1 0x0 DUP2 MLOAD DUP2 LT PUSH2 0xF67 JUMPI PUSH2 0xF66 PUSH2 0x1C64 JUMP JUMPDEST JUMPDEST PUSH1 0x20 ADD ADD MLOAD PUSH1 0xF8 SHR PUSH1 0xF8 SHL DUP2 PUSH1 0x9 DUP2 MLOAD DUP2 LT PUSH2 0xF86 JUMPI PUSH2 0xF85 PUSH2 0x1C64 JUMP JUMPDEST JUMPDEST PUSH1 0x20 ADD ADD SWAP1 PUSH31 0xFFFFFFFFFFFFFFFFFFFFFFFFFFFFFFFFFFFFFFFFFFFFFFFFFFFFFFFFFFFFFF NOT AND SWAP1 DUP2 PUSH1 0x0 BYTE SWAP1 MSTORE8 POP JUMPDEST DUP1 SWAP8 POP POP POP POP POP POP POP POP SWAP1 JUMP JUMPDEST PUSH1 0x0 PUSH1 0x1 DUP3 PUSH2 0xFD2 SWAP2 SWAP1 PUSH2 0x1D40 JUMP JUMPDEST SWAP2 POP PUSH2 0x190 DUP3 PUSH2 0xFE2 SWAP2 SWAP1 PUSH2 0x1BA4 JUMP JUMPDEST PUSH1 0x64 DUP4 PUSH2 0xFEF SWAP2 SWAP1 PUSH2 0x1BA4 JUMP JUMPDEST PUSH1 0x4 DUP5 PUSH2 0xFFC SWAP2 SWAP1 PUSH2 0x1BA4 JUMP JUMPDEST PUSH2 0x1006 SWAP2 SWAP1 PUSH2 0x1D40 JUMP JUMPDEST PUSH2 0x1010 SWAP2 SWAP1 PUSH2 0x1C06 JUMP JUMPDEST SWAP1 POP SWAP2 SWAP1 POP JUMP JUMPDEST PUSH1 0x0 PUSH1 0x1 DUP4 PUSH1 0xFF AND EQ DUP1 PUSH2 0x102E JUMPI POP PUSH1 0x3 DUP4 PUSH1 0xFF AND EQ JUMPDEST DUP1 PUSH2 0x103C JUMPI POP PUSH1 0x5 DUP4 PUSH1 0xFF AND EQ JUMPDEST DUP1 PUSH2 0x104A JUMPI POP PUSH1 0x7 DUP4 PUSH1 0xFF AND EQ JUMPDEST DUP1 PUSH2 0x1058 JUMPI POP PUSH1 0x8 DUP4 PUSH1 0xFF AND EQ JUMPDEST DUP1 PUSH2 0x1066 JUMPI POP PUSH1 0xA DUP4 PUSH1 0xFF AND EQ JUMPDEST DUP1 PUSH2 0x1074 JUMPI POP PUSH1 0xC DUP4 PUSH1 0xFF AND EQ JUMPDEST ISZERO PUSH2 0x1082 JUMPI PUSH1 0x1F SWAP1 POP PUSH2 0x10DD JUMP JUMPDEST PUSH1 0x4 DUP4 PUSH1 0xFF AND EQ DUP1 PUSH2 0x1097 JUMPI POP PUSH1 0x6 DUP4 PUSH1 0xFF AND EQ JUMPDEST DUP1 PUSH2 0x10A5 JUMPI POP PUSH1 0x9 DUP4 PUSH1 0xFF AND EQ JUMPDEST DUP1 PUSH2 0x10B3 JUMPI POP PUSH1 0xB DUP4 PUSH1 0xFF AND EQ JUMPDEST ISZERO PUSH2 0x10C1 JUMPI PUSH1 0x1E SWAP1 POP PUSH2 0x10DD JUMP JUMPDEST PUSH2 0x10CA DUP3 PUSH2 0x99B JUMP JUMPDEST ISZERO PUSH2 0x10D8 JUMPI PUSH1 0x1D SWAP1 POP PUSH2 0x10DD JUMP JUMPDEST PUSH1 0x1C SWAP1 POP JUMPDEST SWAP3 SWAP2 POP POP JUMP JUMPDEST PUSH1 0x0 DUP1 PUSH1 0x0 DUP1 PUSH2 0x10F2 TIMESTAMP PUSH2 0x110F JUMP JUMPDEST SWAP1 POP DUP1 PUSH1 0x0 ADD MLOAD DUP2 PUSH1 0x20 ADD MLOAD DUP3 PUSH1 0x40 ADD MLOAD SWAP4 POP SWAP4 POP SWAP4 POP POP SWAP1 SWAP2 SWAP3 JUMP JUMPDEST PUSH2 0x1117 PUSH2 0x1585 JUMP JUMPDEST PUSH1 0x0 DUP1 DUP1 PUSH2 0x1124 DUP6 PUSH2 0x86E JUMP JUMPDEST DUP5 PUSH1 0x0 ADD SWAP1 PUSH2 0xFFFF AND SWAP1 DUP2 PUSH2 0xFFFF AND DUP2 MSTORE POP POP PUSH2 0x1146 PUSH2 0x7B2 PUSH2 0xFFFF AND PUSH2 0xFC3 JUMP JUMPDEST PUSH2 0x1157 DUP6 PUSH1 0x0 ADD MLOAD PUSH2 0xFFFF AND PUSH2 0xFC3 JUMP JUMPDEST PUSH2 0x1161 SWAP2 SWAP1 PUSH2 0x1D40 JUMP JUMPDEST SWAP2 POP DUP2 PUSH4 0x1E28500 PUSH2 0x1173 SWAP2 SWAP1 PUSH2 0x1CC9 JUMP JUMPDEST DUP4 PUSH2 0x117E SWAP2 SWAP1 PUSH2 0x1C06 JUMP JUMPDEST SWAP3 POP DUP2 PUSH2 0x7B2 DUP6 PUSH1 0x0 ADD MLOAD PUSH2 0x1193 SWAP2 SWAP1 PUSH2 0x1C93 JUMP JUMPDEST PUSH2 0xFFFF AND PUSH2 0x11A1 SWAP2 SWAP1 PUSH2 0x1D40 JUMP JUMPDEST PUSH4 0x1E13380 PUSH2 0x11B0 SWAP2 SWAP1 PUSH2 0x1CC9 JUMP JUMPDEST DUP4 PUSH2 0x11BB SWAP2 SWAP1 PUSH2 0x1C06 JUMP JUMPDEST SWAP3 POP PUSH1 0x0 PUSH1 0x1 SWAP2 POP JUMPDEST PUSH1 0xC DUP3 PUSH1 0xFF AND GT PUSH2 0x123B JUMPI PUSH2 0x11DD DUP3 DUP7 PUSH1 0x0 ADD MLOAD PUSH2 0x1017 JUMP JUMPDEST PUSH1 0xFF AND PUSH3 0x15180 PUSH2 0x11EE SWAP2 SWAP1 PUSH2 0x1CC9 JUMP JUMPDEST SWAP1 POP DUP6 DUP5 DUP3 PUSH2 0x11FD SWAP2 SWAP1 PUSH2 0x1C06 JUMP JUMPDEST GT ISZERO PUSH2 0x121A JUMPI DUP2 DUP6 PUSH1 0x20 ADD SWAP1 PUSH1 0xFF AND SWAP1 DUP2 PUSH1 0xFF AND DUP2 MSTORE POP POP PUSH2 0x123B JUMP JUMPDEST DUP1 DUP5 PUSH2 0x1226 SWAP2 SWAP1 PUSH2 0x1C06 JUMP JUMPDEST SWAP4 POP DUP2 DUP1 PUSH2 0x1233 SWAP1 PUSH2 0x1DD4 JUMP JUMPDEST SWAP3 POP POP PUSH2 0x11C4 JUMP JUMPDEST PUSH1 0x1 SWAP2 POP JUMPDEST PUSH2 0x1252 DUP6 PUSH1 0x20 ADD MLOAD DUP7 PUSH1 0x0 ADD MLOAD PUSH2 0x1017 JUMP JUMPDEST PUSH1 0xFF AND DUP3 PUSH1 0xFF AND GT PUSH2 0x12AF JUMPI DUP6 DUP5 PUSH3 0x15180 PUSH2 0x126E SWAP2 SWAP1 PUSH2 0x1C06 JUMP JUMPDEST GT ISZERO PUSH2 0x128B JUMPI DUP2 DUP6 PUSH1 0x40 ADD SWAP1 PUSH1 0xFF AND SWAP1 DUP2 PUSH1 0xFF AND DUP2 MSTORE POP POP PUSH2 0x12AF JUMP JUMPDEST PUSH3 0x15180 DUP5 PUSH2 0x129A SWAP2 SWAP1 PUSH2 0x1C06 JUMP JUMPDEST SWAP4 POP DUP2 DUP1 PUSH2 0x12A7 SWAP1 PUSH2 0x1DD4 JUMP JUMPDEST SWAP3 POP POP PUSH2 0x1240 JUMP JUMPDEST PUSH2 0x12B8 DUP7 PUSH2 0x428 JUMP JUMPDEST DUP6 PUSH1 0x60 ADD SWAP1 PUSH1 0xFF AND SWAP1 DUP2 PUSH1 0xFF AND DUP2 MSTORE POP POP PUSH2 0x12D2 DUP7 PUSH2 0x1320 JUMP JUMPDEST DUP6 PUSH1 0x80 ADD SWAP1 PUSH1 0xFF AND SWAP1 DUP2 PUSH1 0xFF AND DUP2 MSTORE POP POP PUSH2 0x12EC DUP7 PUSH2 0x4D2 JUMP JUMPDEST DUP6 PUSH1 0xA0 ADD SWAP1 PUSH1 0xFF AND SWAP1 DUP2 PUSH1 0xFF AND DUP2 MSTORE POP POP PUSH2 0x1306 DUP7 PUSH2 0x455 JUMP JUMPDEST DUP6 PUSH1 0xC0 ADD SWAP1 PUSH1 0xFF AND SWAP1 DUP2 PUSH1 0xFF AND DUP2 MSTORE POP POP POP POP POP POP SWAP2 SWAP1 POP JUMP JUMPDEST PUSH1 0x0 PUSH1 0x3C DUP1 DUP4 PUSH2 0x1330 SWAP2 SWAP1 PUSH2 0x1BA4 JUMP JUMPDEST PUSH2 0x133A SWAP2 SWAP1 PUSH2 0x1BD5 JUMP JUMPDEST SWAP1 POP SWAP2 SWAP1 POP JUMP JUMPDEST PUSH1 0x60 PUSH1 0x0 PUSH1 0x1 PUSH2 0x1350 DUP5 PUSH2 0x140F JUMP JUMPDEST ADD SWAP1 POP PUSH1 0x0 DUP2 PUSH8 0xFFFFFFFFFFFFFFFF DUP2 GT ISZERO PUSH2 0x136F JUMPI PUSH2 0x136E PUSH2 0x1DA5 JUMP JUMPDEST JUMPDEST PUSH1 0x40 MLOAD SWAP1 DUP1 DUP3 MSTORE DUP1 PUSH1 0x1F ADD PUSH1 0x1F NOT AND PUSH1 0x20 ADD DUP3 ADD PUSH1 0x40 MSTORE DUP1 ISZERO PUSH2 0x13A1 JUMPI DUP2 PUSH1 0x20 ADD PUSH1 0x1 DUP3 MUL DUP1 CALLDATASIZE DUP4 CALLDATACOPY DUP1 DUP3 ADD SWAP2 POP POP SWAP1 POP JUMPDEST POP SWAP1 POP PUSH1 0x0 DUP3 PUSH1 0x20 ADD DUP3 ADD SWAP1 POP JUMPDEST PUSH1 0x1 ISZERO PUSH2 0x1404 JUMPI DUP1 DUP1 PUSH1 0x1 SWAP1 SUB SWAP2 POP POP PUSH32 0x3031323334353637383961626364656600000000000000000000000000000000 PUSH1 0xA DUP7 MOD BYTE DUP2 MSTORE8 PUSH1 0xA DUP6 DUP2 PUSH2 0x13F8 JUMPI PUSH2 0x13F7 PUSH2 0x1B46 JUMP JUMPDEST JUMPDEST DIV SWAP5 POP PUSH1 0x0 DUP6 SUB PUSH2 0x13AF JUMPI JUMPDEST DUP2 SWAP4 POP POP POP POP SWAP2 SWAP1 POP JUMP JUMPDEST PUSH1 0x0 DUP1 PUSH1 0x0 SWAP1 POP PUSH27 0x184F03E93FF9F4DAA797ED6E38ED64BF6A1F010000000000000000 DUP4 LT PUSH2 0x146D JUMPI PUSH27 0x184F03E93FF9F4DAA797ED6E38ED64BF6A1F010000000000000000 DUP4 DUP2 PUSH2 0x1463 JUMPI PUSH2 0x1462 PUSH2 0x1B46 JUMP JUMPDEST JUMPDEST DIV SWAP3 POP PUSH1 0x40 DUP2 ADD SWAP1 POP JUMPDEST PUSH14 0x4EE2D6D415B85ACEF8100000000 DUP4 LT PUSH2 0x14AA JUMPI PUSH14 0x4EE2D6D415B85ACEF8100000000 DUP4 DUP2 PUSH2 0x14A0 JUMPI PUSH2 0x149F PUSH2 0x1B46 JUMP JUMPDEST JUMPDEST DIV SWAP3 POP PUSH1 0x20 DUP2 ADD SWAP1 POP JUMPDEST PUSH7 0x2386F26FC10000 DUP4 LT PUSH2 0x14D9 JUMPI PUSH7 0x2386F26FC10000 DUP4 DUP2 PUSH2 0x14CF JUMPI PUSH2 0x14CE PUSH2 0x1B46 JUMP JUMPDEST JUMPDEST DIV SWAP3 POP PUSH1 0x10 DUP2 ADD SWAP1 POP JUMPDEST PUSH4 0x5F5E100 DUP4 LT PUSH2 0x1502 JUMPI PUSH4 0x5F5E100 DUP4 DUP2 PUSH2 0x14F8 JUMPI PUSH2 0x14F7 PUSH2 0x1B46 JUMP JUMPDEST JUMPDEST DIV SWAP3 POP PUSH1 0x8 DUP2 ADD SWAP1 POP JUMPDEST PUSH2 0x2710 DUP4 LT PUSH2 0x1527 JUMPI PUSH2 0x2710 DUP4 DUP2 PUSH2 0x151D JUMPI PUSH2 0x151C PUSH2 0x1B46 JUMP JUMPDEST JUMPDEST DIV SWAP3 POP PUSH1 0x4 DUP2 ADD SWAP1 POP JUMPDEST PUSH1 0x64 DUP4 LT PUSH2 0x154A JUMPI PUSH1 0x64 DUP4 DUP2 PUSH2 0x1540 JUMPI PUSH2 0x153F PUSH2 0x1B46 JUMP JUMPDEST JUMPDEST DIV SWAP3 POP PUSH1 0x2 DUP2 ADD SWAP1 POP JUMPDEST PUSH1 0xA DUP4 LT PUSH2 0x1559 JUMPI PUSH1 0x1 DUP2 ADD SWAP1 POP JUMPDEST DUP1 SWAP2 POP POP SWAP2 SWAP1 POP JUMP JUMPDEST PUSH1 0x40 MLOAD DUP1 PUSH2 0x180 ADD PUSH1 0x40 MSTORE DUP1 PUSH1 0xC SWAP1 PUSH1 0x20 DUP3 MUL DUP1 CALLDATASIZE DUP4 CALLDATACOPY DUP1 DUP3 ADD SWAP2 POP POP SWAP1 POP POP SWAP1 JUMP JUMPDEST PUSH1 0x40 MLOAD DUP1 PUSH1 0xE0 ADD PUSH1 0x40 MSTORE DUP1 PUSH1 0x0 PUSH2 0xFFFF AND DUP2 MSTORE PUSH1 0x20 ADD PUSH1 0x0 PUSH1 0xFF AND DUP2 MSTORE PUSH1 0x20 ADD PUSH1 0x0 PUSH1 0xFF AND DUP2 MSTORE PUSH1 0x20 ADD PUSH1 0x0 PUSH1 0xFF AND DUP2 MSTORE PUSH1 0x20 ADD PUSH1 0x0 PUSH1 0xFF AND DUP2 MSTORE PUSH1 0x20 ADD PUSH1 0x0 PUSH1 0xFF AND DUP2 MSTORE PUSH1 0x20 ADD PUSH1 0x0 PUSH1 0xFF AND DUP2 MSTORE POP SWAP1 JUMP JUMPDEST PUSH1 0x0 DUP1 REVERT JUMPDEST PUSH1 0x0 DUP2 SWAP1 POP SWAP2 SWAP1 POP JUMP JUMPDEST PUSH2 0x15F0 DUP2 PUSH2 0x15DD JUMP JUMPDEST DUP2 EQ PUSH2 0x15FB JUMPI PUSH1 0x0 DUP1 REVERT JUMPDEST POP JUMP JUMPDEST PUSH1 0x0 DUP2 CALLDATALOAD SWAP1 POP PUSH2 0x160D DUP2 PUSH2 0x15E7 JUMP JUMPDEST SWAP3 SWAP2 POP POP JUMP JUMPDEST PUSH1 0x0 PUSH1 0x20 DUP3 DUP5 SUB SLT ISZERO PUSH2 0x1629 JUMPI PUSH2 0x1628 PUSH2 0x15D8 JUMP JUMPDEST JUMPDEST PUSH1 0x0 PUSH2 0x1637 DUP5 DUP3 DUP6 ADD PUSH2 0x15FE JUMP JUMPDEST SWAP2 POP POP SWAP3 SWAP2 POP POP JUMP JUMPDEST PUSH1 0x0 PUSH1 0xFF DUP3 AND SWAP1 POP SWAP2 SWAP1 POP JUMP JUMPDEST PUSH2 0x1656 DUP2 PUSH2 0x1640 JUMP JUMPDEST DUP3 MSTORE POP POP JUMP JUMPDEST PUSH1 0x0 PUSH1 0x20 DUP3 ADD SWAP1 POP PUSH2 0x1671 PUSH1 0x0 DUP4 ADD DUP5 PUSH2 0x164D JUMP JUMPDEST SWAP3 SWAP2 POP POP JUMP JUMPDEST PUSH1 0x0 PUSH2 0xFFFF DUP3 AND SWAP1 POP SWAP2 SWAP1 POP JUMP JUMPDEST PUSH2 0x168E DUP2 PUSH2 0x1677 JUMP JUMPDEST DUP2 EQ PUSH2 0x1699 JUMPI PUSH1 0x0 DUP1 REVERT JUMPDEST POP JUMP JUMPDEST PUSH1 0x0 DUP2 CALLDATALOAD SWAP1 POP PUSH2 0x16AB DUP2 PUSH2 0x1685 JUMP JUMPDEST SWAP3 SWAP2 POP POP JUMP JUMPDEST PUSH2 0x16BA DUP2 PUSH2 0x1640 JUMP JUMPDEST DUP2 EQ PUSH2 0x16C5 JUMPI PUSH1 0x0 DUP1 REVERT JUMPDEST POP JUMP JUMPDEST PUSH1 0x0 DUP2 CALLDATALOAD SWAP1 POP PUSH2 0x16D7 DUP2 PUSH2 0x16B1 JUMP JUMPDEST SWAP3 SWAP2 POP POP JUMP JUMPDEST PUSH1 0x0 DUP1 PUSH1 0x0 DUP1 PUSH1 0x0 PUSH1 0xA0 DUP7 DUP9 SUB SLT ISZERO PUSH2 0x16F9 JUMPI PUSH2 0x16F8 PUSH2 0x15D8 JUMP JUMPDEST JUMPDEST PUSH1 0x0 PUSH2 0x1707 DUP9 DUP3 DUP10 ADD PUSH2 0x169C JUMP JUMPDEST SWAP6 POP POP PUSH1 0x20 PUSH2 0x1718 DUP9 DUP3 DUP10 ADD PUSH2 0x16C8 JUMP JUMPDEST SWAP5 POP POP PUSH1 0x40 PUSH2 0x1729 DUP9 DUP3 DUP10 ADD PUSH2 0x16C8 JUMP JUMPDEST SWAP4 POP POP PUSH1 0x60 PUSH2 0x173A DUP9 DUP3 DUP10 ADD PUSH2 0x16C8 JUMP JUMPDEST SWAP3 POP POP PUSH1 0x80 PUSH2 0x174B DUP9 DUP3 DUP10 ADD PUSH2 0x16C8 JUMP JUMPDEST SWAP2 POP POP SWAP3 SWAP6 POP SWAP3 SWAP6 SWAP1 SWAP4 POP JUMP JUMPDEST PUSH2 0x1761 DUP2 PUSH2 0x15DD JUMP JUMPDEST DUP3 MSTORE POP POP JUMP JUMPDEST PUSH1 0x0 PUSH1 0x20 DUP3 ADD SWAP1 POP PUSH2 0x177C PUSH1 0x0 DUP4 ADD DUP5 PUSH2 0x1758 JUMP JUMPDEST SWAP3 SWAP2 POP POP JUMP JUMPDEST PUSH1 0x0 DUP1 PUSH1 0x0 DUP1 PUSH1 0x80 DUP6 DUP8 SUB SLT ISZERO PUSH2 0x179C JUMPI PUSH2 0x179B PUSH2 0x15D8 JUMP JUMPDEST JUMPDEST PUSH1 0x0 PUSH2 0x17AA DUP8 DUP3 DUP9 ADD PUSH2 0x169C JUMP JUMPDEST SWAP5 POP POP PUSH1 0x20 PUSH2 0x17BB DUP8 DUP3 DUP9 ADD PUSH2 0x16C8 JUMP JUMPDEST SWAP4 POP POP PUSH1 0x40 PUSH2 0x17CC DUP8 DUP3 DUP9 ADD PUSH2 0x16C8 JUMP JUMPDEST SWAP3 POP POP PUSH1 0x60 PUSH2 0x17DD DUP8 DUP3 DUP9 ADD PUSH2 0x16C8 JUMP JUMPDEST SWAP2 POP POP SWAP3 SWAP6 SWAP2 SWAP5 POP SWAP3 POP JUMP JUMPDEST PUSH1 0x0 DUP1 PUSH1 0x0 PUSH1 0x60 DUP5 DUP7 SUB SLT ISZERO PUSH2 0x1802 JUMPI PUSH2 0x1801 PUSH2 0x15D8 JUMP JUMPDEST JUMPDEST PUSH1 0x0 PUSH2 0x1810 DUP7 DUP3 DUP8 ADD PUSH2 0x169C JUMP JUMPDEST SWAP4 POP POP PUSH1 0x20 PUSH2 0x1821 DUP7 DUP3 DUP8 ADD PUSH2 0x16C8 JUMP JUMPDEST SWAP3 POP POP PUSH1 0x40 PUSH2 0x1832 DUP7 DUP3 DUP8 ADD PUSH2 0x16C8 JUMP JUMPDEST SWAP2 POP POP SWAP3 POP SWAP3 POP SWAP3 JUMP JUMPDEST PUSH1 0x0 DUP1 PUSH1 0x0 DUP1 PUSH1 0x0 DUP1 PUSH1 0xC0 DUP8 DUP10 SUB SLT ISZERO PUSH2 0x1859 JUMPI PUSH2 0x1858 PUSH2 0x15D8 JUMP JUMPDEST JUMPDEST PUSH1 0x0 PUSH2 0x1867 DUP10 DUP3 DUP11 ADD PUSH2 0x169C JUMP JUMPDEST SWAP7 POP POP PUSH1 0x20 PUSH2 0x1878 DUP10 DUP3 DUP11 ADD PUSH2 0x16C8 JUMP JUMPDEST SWAP6 POP POP PUSH1 0x40 PUSH2 0x1889 DUP10 DUP3 DUP11 ADD PUSH2 0x16C8 JUMP JUMPDEST SWAP5 POP POP PUSH1 0x60 PUSH2 0x189A DUP10 DUP3 DUP11 ADD PUSH2 0x16C8 JUMP JUMPDEST SWAP4 POP POP PUSH1 0x80 PUSH2 0x18AB DUP10 DUP3 DUP11 ADD PUSH2 0x16C8 JUMP JUMPDEST SWAP3 POP POP PUSH1 0xA0 PUSH2 0x18BC DUP10 DUP3 DUP11 ADD PUSH2 0x16C8 JUMP JUMPDEST SWAP2 POP POP SWAP3 SWAP6 POP SWAP3 SWAP6 POP SWAP3 SWAP6 JUMP JUMPDEST PUSH2 0x18D2 DUP2 PUSH2 0x1677 JUMP JUMPDEST DUP3 MSTORE POP POP JUMP JUMPDEST PUSH1 0x0 PUSH1 0x20 DUP3 ADD SWAP1 POP PUSH2 0x18ED PUSH1 0x0 DUP4 ADD DUP5 PUSH2 0x18C9 JUMP JUMPDEST SWAP3 SWAP2 POP POP JUMP JUMPDEST PUSH1 0x0 PUSH1 0x20 DUP3 DUP5 SUB SLT ISZERO PUSH2 0x1909 JUMPI PUSH2 0x1908 PUSH2 0x15D8 JUMP JUMPDEST JUMPDEST PUSH1 0x0 PUSH2 0x1917 DUP5 DUP3 DUP6 ADD PUSH2 0x169C JUMP JUMPDEST SWAP2 POP POP SWAP3 SWAP2 POP POP JUMP JUMPDEST PUSH1 0x0 DUP2 ISZERO ISZERO SWAP1 POP SWAP2 SWAP1 POP JUMP JUMPDEST PUSH2 0x1935 DUP2 PUSH2 0x1920 JUMP JUMPDEST DUP3 MSTORE POP POP JUMP JUMPDEST PUSH1 0x0 PUSH1 0x20 DUP3 ADD SWAP1 POP PUSH2 0x1950 PUSH1 0x0 DUP4 ADD DUP5 PUSH2 0x192C JUMP JUMPDEST SWAP3 SWAP2 POP POP JUMP JUMPDEST PUSH1 0x0 DUP2 MLOAD SWAP1 POP SWAP2 SWAP1 POP JUMP JUMPDEST PUSH1 0x0 DUP3 DUP3 MSTORE PUSH1 0x20 DUP3 ADD SWAP1 POP SWAP3 SWAP2 POP POP JUMP JUMPDEST PUSH1 0x0 JUMPDEST DUP4 DUP2 LT ISZERO PUSH2 0x1990 JUMPI DUP1 DUP3 ADD MLOAD DUP2 DUP5 ADD MSTORE PUSH1 0x20 DUP2 ADD SWAP1 POP PUSH2 0x1975 JUMP JUMPDEST PUSH1 0x0 DUP5 DUP5 ADD MSTORE POP POP POP POP JUMP JUMPDEST PUSH1 0x0 PUSH1 0x1F NOT PUSH1 0x1F DUP4 ADD AND SWAP1 POP SWAP2 SWAP1 POP JUMP JUMPDEST PUSH1 0x0 PUSH2 0x19B8 DUP3 PUSH2 0x1956 JUMP JUMPDEST PUSH2 0x19C2 DUP2 DUP6 PUSH2 0x1961 JUMP JUMPDEST SWAP4 POP PUSH2 0x19D2 DUP2 DUP6 PUSH1 0x20 DUP7 ADD PUSH2 0x1972 JUMP JUMPDEST PUSH2 0x19DB DUP2 PUSH2 0x199C JUMP JUMPDEST DUP5 ADD SWAP2 POP POP SWAP3 SWAP2 POP POP JUMP JUMPDEST PUSH1 0x0 PUSH1 0x20 DUP3 ADD SWAP1 POP DUP2 DUP2 SUB PUSH1 0x0 DUP4 ADD MSTORE PUSH2 0x1A00 DUP2 DUP5 PUSH2 0x19AD JUMP JUMPDEST SWAP1 POP SWAP3 SWAP2 POP POP JUMP JUMPDEST PUSH1 0x0 DUP1 PUSH1 0x40 DUP4 DUP6 SUB SLT ISZERO PUSH2 0x1A1F JUMPI PUSH2 0x1A1E PUSH2 0x15D8 JUMP JUMPDEST JUMPDEST PUSH1 0x0 PUSH2 0x1A2D DUP6 DUP3 DUP7 ADD PUSH2 0x16C8 JUMP JUMPDEST SWAP3 POP POP PUSH1 0x20 PUSH2 0x1A3E DUP6 DUP3 DUP7 ADD PUSH2 0x169C JUMP JUMPDEST SWAP2 POP POP SWAP3 POP SWAP3 SWAP1 POP JUMP JUMPDEST PUSH1 0x0 PUSH1 0x60 DUP3 ADD SWAP1 POP PUSH2 0x1A5D PUSH1 0x0 DUP4 ADD DUP7 PUSH2 0x18C9 JUMP JUMPDEST PUSH2 0x1A6A PUSH1 0x20 DUP4 ADD DUP6 PUSH2 0x164D JUMP JUMPDEST PUSH2 0x1A77 PUSH1 0x40 DUP4 ADD DUP5 PUSH2 0x164D JUMP JUMPDEST SWAP5 SWAP4 POP POP POP POP JUMP JUMPDEST PUSH2 0x1A88 DUP2 PUSH2 0x1677 JUMP JUMPDEST DUP3 MSTORE POP POP JUMP JUMPDEST PUSH2 0x1A97 DUP2 PUSH2 0x1640 JUMP JUMPDEST DUP3 MSTORE POP POP JUMP JUMPDEST PUSH1 0xE0 DUP3 ADD PUSH1 0x0 DUP3 ADD MLOAD PUSH2 0x1AB3 PUSH1 0x0 DUP6 ADD DUP3 PUSH2 0x1A7F JUMP JUMPDEST POP PUSH1 0x20 DUP3 ADD MLOAD PUSH2 0x1AC6 PUSH1 0x20 DUP6 ADD DUP3 PUSH2 0x1A8E JUMP JUMPDEST POP PUSH1 0x40 DUP3 ADD MLOAD PUSH2 0x1AD9 PUSH1 0x40 DUP6 ADD DUP3 PUSH2 0x1A8E JUMP JUMPDEST POP PUSH1 0x60 DUP3 ADD MLOAD PUSH2 0x1AEC PUSH1 0x60 DUP6 ADD DUP3 PUSH2 0x1A8E JUMP JUMPDEST POP PUSH1 0x80 DUP3 ADD MLOAD PUSH2 0x1AFF PUSH1 0x80 DUP6 ADD DUP3 PUSH2 0x1A8E JUMP JUMPDEST POP PUSH1 0xA0 DUP3 ADD MLOAD PUSH2 0x1B12 PUSH1 0xA0 DUP6 ADD DUP3 PUSH2 0x1A8E JUMP JUMPDEST POP PUSH1 0xC0 DUP3 ADD MLOAD PUSH2 0x1B25 PUSH1 0xC0 DUP6 ADD DUP3 PUSH2 0x1A8E JUMP JUMPDEST POP POP POP POP JUMP JUMPDEST PUSH1 0x0 PUSH1 0xE0 DUP3 ADD SWAP1 POP PUSH2 0x1B40 PUSH1 0x0 DUP4 ADD DUP5 PUSH2 0x1A9D JUMP JUMPDEST SWAP3 SWAP2 POP POP JUMP JUMPDEST PUSH32 0x4E487B7100000000000000000000000000000000000000000000000000000000 PUSH1 0x0 MSTORE PUSH1 0x12 PUSH1 0x4 MSTORE PUSH1 0x24 PUSH1 0x0 REVERT JUMPDEST PUSH32 0x4E487B7100000000000000000000000000000000000000000000000000000000 PUSH1 0x0 MSTORE PUSH1 0x11 PUSH1 0x4 MSTORE PUSH1 0x24 PUSH1 0x0 REVERT JUMPDEST PUSH1 0x0 PUSH2 0x1BAF DUP3 PUSH2 0x15DD JUMP JUMPDEST SWAP2 POP PUSH2 0x1BBA DUP4 PUSH2 0x15DD JUMP JUMPDEST SWAP3 POP DUP3 PUSH2 0x1BCA JUMPI PUSH2 0x1BC9 PUSH2 0x1B46 JUMP JUMPDEST JUMPDEST DUP3 DUP3 DIV SWAP1 POP SWAP3 SWAP2 POP POP JUMP JUMPDEST PUSH1 0x0 PUSH2 0x1BE0 DUP3 PUSH2 0x15DD JUMP JUMPDEST SWAP2 POP PUSH2 0x1BEB DUP4 PUSH2 0x15DD JUMP JUMPDEST SWAP3 POP DUP3 PUSH2 0x1BFB JUMPI PUSH2 0x1BFA PUSH2 0x1B46 JUMP JUMPDEST JUMPDEST DUP3 DUP3 MOD SWAP1 POP SWAP3 SWAP2 POP POP JUMP JUMPDEST PUSH1 0x0 PUSH2 0x1C11 DUP3 PUSH2 0x15DD JUMP JUMPDEST SWAP2 POP PUSH2 0x1C1C DUP4 PUSH2 0x15DD JUMP JUMPDEST SWAP3 POP DUP3 DUP3 ADD SWAP1 POP DUP1 DUP3 GT ISZERO PUSH2 0x1C34 JUMPI PUSH2 0x1C33 PUSH2 0x1B75 JUMP JUMPDEST JUMPDEST SWAP3 SWAP2 POP POP JUMP JUMPDEST PUSH1 0x0 PUSH2 0x1C45 DUP3 PUSH2 0x1677 JUMP JUMPDEST SWAP2 POP PUSH2 0xFFFF DUP3 SUB PUSH2 0x1C59 JUMPI PUSH2 0x1C58 PUSH2 0x1B75 JUMP JUMPDEST JUMPDEST PUSH1 0x1 DUP3 ADD SWAP1 POP SWAP2 SWAP1 POP JUMP JUMPDEST PUSH32 0x4E487B7100000000000000000000000000000000000000000000000000000000 PUSH1 0x0 MSTORE PUSH1 0x32 PUSH1 0x4 MSTORE PUSH1 0x24 PUSH1 0x0 REVERT JUMPDEST PUSH1 0x0 PUSH2 0x1C9E DUP3 PUSH2 0x1677 JUMP JUMPDEST SWAP2 POP PUSH2 0x1CA9 DUP4 PUSH2 0x1677 JUMP JUMPDEST SWAP3 POP DUP3 DUP3 SUB SWAP1 POP PUSH2 0xFFFF DUP2 GT ISZERO PUSH2 0x1CC3 JUMPI PUSH2 0x1CC2 PUSH2 0x1B75 JUMP JUMPDEST JUMPDEST SWAP3 SWAP2 POP POP JUMP JUMPDEST PUSH1 0x0 PUSH2 0x1CD4 DUP3 PUSH2 0x15DD JUMP JUMPDEST SWAP2 POP PUSH2 0x1CDF DUP4 PUSH2 0x15DD JUMP JUMPDEST SWAP3 POP DUP3 DUP3 MUL PUSH2 0x1CED DUP2 PUSH2 0x15DD JUMP JUMPDEST SWAP2 POP DUP3 DUP3 DIV DUP5 EQ DUP4 ISZERO OR PUSH2 0x1D04 JUMPI PUSH2 0x1D03 PUSH2 0x1B75 JUMP JUMPDEST JUMPDEST POP SWAP3 SWAP2 POP POP JUMP JUMPDEST PUSH1 0x0 PUSH2 0x1D16 DUP3 PUSH2 0x1640 JUMP JUMPDEST SWAP2 POP PUSH2 0x1D21 DUP4 PUSH2 0x1640 JUMP JUMPDEST SWAP3 POP DUP3 DUP3 SUB SWAP1 POP PUSH1 0xFF DUP2 GT ISZERO PUSH2 0x1D3A JUMPI PUSH2 0x1D39 PUSH2 0x1B75 JUMP JUMPDEST JUMPDEST SWAP3 SWAP2 POP POP JUMP JUMPDEST PUSH1 0x0 PUSH2 0x1D4B DUP3 PUSH2 0x15DD JUMP JUMPDEST SWAP2 POP PUSH2 0x1D56 DUP4 PUSH2 0x15DD JUMP JUMPDEST SWAP3 POP DUP3 DUP3 SUB SWAP1 POP DUP2 DUP2 GT ISZERO PUSH2 0x1D6E JUMPI PUSH2 0x1D6D PUSH2 0x1B75 JUMP JUMPDEST JUMPDEST SWAP3 SWAP2 POP POP JUMP JUMPDEST PUSH1 0x0 PUSH2 0x1D7F DUP3 PUSH2 0x1677 JUMP JUMPDEST SWAP2 POP PUSH2 0x1D8A DUP4 PUSH2 0x1677 JUMP JUMPDEST SWAP3 POP DUP3 PUSH2 0x1D9A JUMPI PUSH2 0x1D99 PUSH2 0x1B46 JUMP JUMPDEST JUMPDEST DUP3 DUP3 MOD SWAP1 POP SWAP3 SWAP2 POP POP JUMP JUMPDEST PUSH32 0x4E487B7100000000000000000000000000000000000000000000000000000000 PUSH1 0x0 MSTORE PUSH1 0x41 PUSH1 0x4 MSTORE PUSH1 0x24 PUSH1 0x0 REVERT JUMPDEST PUSH1 0x0 PUSH2 0x1DDF DUP3 PUSH2 0x1640 JUMP JUMPDEST SWAP2 POP PUSH1 0xFF DUP3 SUB PUSH2 0x1DF2 JUMPI PUSH2 0x1DF1 PUSH2 0x1B75 JUMP JUMPDEST JUMPDEST PUSH1 0x1 DUP3 ADD SWAP1 POP SWAP2 SWAP1 POP JUMP INVALID LOG2 PUSH5 0x6970667358 0x22 SLT KECCAK256 DUP6 SWAP5 PUSH20 0xCF271D1A1D112D7B90569DB568F4320321095CBA 0xF8 ADDRESS 0xC1 0xFB 0x24 0xAA CALLER SWAP6 PUSH18 0x64736F6C6343000812003300000000000000 "
				},
				"gasEstimates": {
					"creation": {
						"codeDepositCost": "1546200",
						"executionCost": "1642",
						"totalCost": "1547842"
					},
					"external": {
						"dnow()": "infinite",
						"getDay(uint256)": "infinite",
						"getDaysInMonth(uint8,uint16)": "infinite",
						"getHour(uint256)": "infinite",
						"getMinute(uint256)": "infinite",
						"getMonth(uint256)": "infinite",
						"getSecond(uint256)": "infinite",
						"getWeekday(uint256)": "infinite",
						"getYear(uint256)": "infinite",
						"isLeapYear(uint16)": "infinite",
						"leapYearsBefore(uint256)": "infinite",
						"parseTimestamp(uint256)": "infinite",
						"strNow()": "infinite",
						"toTimestamp(uint16,uint8,uint8)": "infinite",
						"toTimestamp(uint16,uint8,uint8,uint8)": "infinite",
						"toTimestamp(uint16,uint8,uint8,uint8,uint8)": "infinite",
						"toTimestamp(uint16,uint8,uint8,uint8,uint8,uint8)": "infinite"
					}
				},
				"methodIdentifiers": {
					"dnow()": "eb3334c5",
					"getDay(uint256)": "65c72840",
					"getDaysInMonth(uint8,uint16)": "b238ad0e",
					"getHour(uint256)": "3e239e1a",
					"getMinute(uint256)": "fa93f883",
					"getMonth(uint256)": "a324ad24",
					"getSecond(uint256)": "8aa001fc",
					"getWeekday(uint256)": "4ac1ad78",
					"getYear(uint256)": "92d66313",
					"isLeapYear(uint16)": "a6f0e577",
					"leapYearsBefore(uint256)": "b1999937",
					"parseTimestamp(uint256)": "f97d0591",
					"strNow()": "a9a295ad",
					"toTimestamp(uint16,uint8,uint8)": "8c8d98a0",
					"toTimestamp(uint16,uint8,uint8,uint8)": "7f791833",
					"toTimestamp(uint16,uint8,uint8,uint8,uint8)": "62ba9687",
					"toTimestamp(uint16,uint8,uint8,uint8,uint8,uint8)": "9054bdec"
				}
			},
			"storageLayout": {
				"storage": [],
				"types": null
			},
			"userdoc": {
				"kind": "user",
				"methods": {},
				"version": 1
			}
		}
	}
}