{
	"Week1/BusinessHelper/DateTime.sol": {
		"DateTime": {
			"abi": [
				{
					"inputs": [
						{
							"internalType": "uint256",
							"name": "timestamp",
							"type": "uint256"
						}
					],
					"name": "getDay",
					"outputs": [
						{
							"internalType": "uint8",
							"name": "",
							"type": "uint8"
						}
					],
					"stateMutability": "pure",
					"type": "function"
				},
				{
					"inputs": [
						{
							"internalType": "uint8",
							"name": "month",
							"type": "uint8"
						},
						{
							"internalType": "uint16",
							"name": "year",
							"type": "uint16"
						}
					],
					"name": "getDaysInMonth",
					"outputs": [
						{
							"internalType": "uint8",
							"name": "",
							"type": "uint8"
						}
					],
					"stateMutability": "pure",
					"type": "function"
				},
				{
					"inputs": [
						{
							"internalType": "uint256",
							"name": "timestamp",
							"type": "uint256"
						}
					],
					"name": "getHour",
					"outputs": [
						{
							"internalType": "uint8",
							"name": "",
							"type": "uint8"
						}
					],
					"stateMutability": "pure",
					"type": "function"
				},
				{
					"inputs": [
						{
							"internalType": "uint256",
							"name": "timestamp",
							"type": "uint256"
						}
					],
					"name": "getMinute",
					"outputs": [
						{
							"internalType": "uint8",
							"name": "",
							"type": "uint8"
						}
					],
					"stateMutability": "pure",
					"type": "function"
				},
				{
					"inputs": [
						{
							"internalType": "uint256",
							"name": "timestamp",
							"type": "uint256"
						}
					],
					"name": "getMonth",
					"outputs": [
						{
							"internalType": "uint8",
							"name": "",
							"type": "uint8"
						}
					],
					"stateMutability": "pure",
					"type": "function"
				},
				{
					"inputs": [
						{
							"internalType": "uint256",
							"name": "timestamp",
							"type": "uint256"
						}
					],
					"name": "getSecond",
					"outputs": [
						{
							"internalType": "uint8",
							"name": "",
							"type": "uint8"
						}
					],
					"stateMutability": "pure",
					"type": "function"
				},
				{
					"inputs": [
						{
							"internalType": "uint256",
							"name": "timestamp",
							"type": "uint256"
						}
					],
					"name": "getWeekday",
					"outputs": [
						{
							"internalType": "uint8",
							"name": "",
							"type": "uint8"
						}
					],
					"stateMutability": "pure",
					"type": "function"
				},
				{
					"inputs": [
						{
							"internalType": "uint256",
							"name": "timestamp",
							"type": "uint256"
						}
					],
					"name": "getYear",
					"outputs": [
						{
							"internalType": "uint16",
							"name": "",
							"type": "uint16"
						}
					],
					"stateMutability": "pure",
					"type": "function"
				},
				{
					"inputs": [
						{
							"internalType": "uint16",
							"name": "year",
							"type": "uint16"
						}
					],
					"name": "isLeapYear",
					"outputs": [
						{
							"internalType": "bool",
							"name": "",
							"type": "bool"
						}
					],
					"stateMutability": "pure",
					"type": "function"
				},
				{
					"inputs": [
						{
							"internalType": "uint256",
							"name": "year",
							"type": "uint256"
						}
					],
					"name": "leapYearsBefore",
					"outputs": [
						{
							"internalType": "uint256",
							"name": "",
							"type": "uint256"
						}
					],
					"stateMutability": "pure",
					"type": "function"
				},
				{
					"inputs": [
						{
							"internalType": "uint256",
							"name": "timestamp",
							"type": "uint256"
						}
					],
					"name": "parseTimestamp",
					"outputs": [
						{
							"components": [
								{
									"internalType": "uint16",
									"name": "year",
									"type": "uint16"
								},
								{
									"internalType": "uint8",
									"name": "month",
									"type": "uint8"
								},
								{
									"internalType": "uint8",
									"name": "day",
									"type": "uint8"
								},
								{
									"internalType": "uint8",
									"name": "hour",
									"type": "uint8"
								},
								{
									"internalType": "uint8",
									"name": "minute",
									"type": "uint8"
								},
								{
									"internalType": "uint8",
									"name": "second",
									"type": "uint8"
								},
								{
									"internalType": "uint8",
									"name": "weekday",
									"type": "uint8"
								}
							],
							"internalType": "struct DateTime._DateTime",
							"name": "dt",
							"type": "tuple"
						}
					],
					"stateMutability": "pure",
					"type": "function"
				},
				{
					"inputs": [
						{
							"internalType": "uint16",
							"name": "year",
							"type": "uint16"
						},
						{
							"internalType": "uint8",
							"name": "month",
							"type": "uint8"
						},
						{
							"internalType": "uint8",
							"name": "day",
							"type": "uint8"
						},
						{
							"internalType": "uint8",
							"name": "hour",
							"type": "uint8"
						},
						{
							"internalType": "uint8",
							"name": "minute",
							"type": "uint8"
						}
					],
					"name": "toTimestamp",
					"outputs": [
						{
							"internalType": "uint256",
							"name": "timestamp",
							"type": "uint256"
						}
					],
					"stateMutability": "pure",
					"type": "function"
				},
				{
					"inputs": [
						{
							"internalType": "uint16",
							"name": "year",
							"type": "uint16"
						},
						{
							"internalType": "uint8",
							"name": "month",
							"type": "uint8"
						},
						{
							"internalType": "uint8",
							"name": "day",
							"type": "uint8"
						},
						{
							"internalType": "uint8",
							"name": "hour",
							"type": "uint8"
						}
					],
					"name": "toTimestamp",
					"outputs": [
						{
							"internalType": "uint256",
							"name": "timestamp",
							"type": "uint256"
						}
					],
					"stateMutability": "pure",
					"type": "function"
				},
				{
					"inputs": [
						{
							"internalType": "uint16",
							"name": "year",
							"type": "uint16"
						},
						{
							"internalType": "uint8",
							"name": "month",
							"type": "uint8"
						},
						{
							"internalType": "uint8",
							"name": "day",
							"type": "uint8"
						}
					],
					"name": "toTimestamp",
					"outputs": [
						{
							"internalType": "uint256",
							"name": "timestamp",
							"type": "uint256"
						}
					],
					"stateMutability": "pure",
					"type": "function"
				},
				{
					"inputs": [
						{
							"internalType": "uint16",
							"name": "year",
							"type": "uint16"
						},
						{
							"internalType": "uint8",
							"name": "month",
							"type": "uint8"
						},
						{
							"internalType": "uint8",
							"name": "day",
							"type": "uint8"
						},
						{
							"internalType": "uint8",
							"name": "hour",
							"type": "uint8"
						},
						{
							"internalType": "uint8",
							"name": "minute",
							"type": "uint8"
						},
						{
							"internalType": "uint8",
							"name": "second",
							"type": "uint8"
						}
					],
					"name": "toTimestamp",
					"outputs": [
						{
							"internalType": "uint256",
							"name": "timestamp",
							"type": "uint256"
						}
					],
					"stateMutability": "pure",
					"type": "function"
				}
			],
			"devdoc": {
				"kind": "dev",
				"methods": {},
				"version": 1
			},
			"evm": {
				"assembly": "    /* \"Week1/BusinessHelper/DateTime.sol\":60:7985  library DateTime {... */\n  dataSize(sub_0)\n  dataOffset(sub_0)\n  0x0b\n  dup3\n  dup3\n  dup3\n  codecopy\n  dup1\n  mload\n  0x00\n  byte\n  0x73\n  eq\n  tag_1\n  jumpi\n  mstore(0x00, 0x4e487b7100000000000000000000000000000000000000000000000000000000)\n  mstore(0x04, 0x00)\n  revert(0x00, 0x24)\ntag_1:\n  mstore(0x00, address)\n  0x73\n  dup2\n  mstore8\n  dup3\n  dup2\n  return\nstop\n\nsub_0: assembly {\n        /* \"Week1/BusinessHelper/DateTime.sol\":60:7985  library DateTime {... */\n      eq(address, deployTimeAddress())\n      mstore(0x40, 0x80)\n      jumpi(tag_1, lt(calldatasize, 0x04))\n      shr(0xe0, calldataload(0x00))\n      dup1\n      0x9054bdec\n      gt\n      tag_17\n      jumpi\n      dup1\n      0xb1999937\n      gt\n      tag_18\n      jumpi\n      dup1\n      0xb1999937\n      eq\n      tag_13\n      jumpi\n      dup1\n      0xb238ad0e\n      eq\n      tag_14\n      jumpi\n      dup1\n      0xf97d0591\n      eq\n      tag_15\n      jumpi\n      dup1\n      0xfa93f883\n      eq\n      tag_16\n      jumpi\n      jump(tag_1)\n    tag_18:\n      dup1\n      0x9054bdec\n      eq\n      tag_9\n      jumpi\n      dup1\n      0x92d66313\n      eq\n      tag_10\n      jumpi\n      dup1\n      0xa324ad24\n      eq\n      tag_11\n      jumpi\n      dup1\n      0xa6f0e577\n      eq\n      tag_12\n      jumpi\n      jump(tag_1)\n    tag_17:\n      dup1\n      0x65c72840\n      gt\n      tag_19\n      jumpi\n      dup1\n      0x65c72840\n      eq\n      tag_5\n      jumpi\n      dup1\n      0x7f791833\n      eq\n      tag_6\n      jumpi\n      dup1\n      0x8aa001fc\n      eq\n      tag_7\n      jumpi\n      dup1\n      0x8c8d98a0\n      eq\n      tag_8\n      jumpi\n      jump(tag_1)\n    tag_19:\n      dup1\n      0x3e239e1a\n      eq\n      tag_2\n      jumpi\n      dup1\n      0x4ac1ad78\n      eq\n      tag_3\n      jumpi\n      dup1\n      0x62ba9687\n      eq\n      tag_4\n      jumpi\n    tag_1:\n      0x00\n      dup1\n      revert\n        /* \"Week1/BusinessHelper/DateTime.sol\":5031:5163  function getHour(uint timestamp) public pure returns (uint8) {... */\n    tag_2:\n      tag_20\n      0x04\n      dup1\n      calldatasize\n      sub\n      dup2\n      add\n      swap1\n      tag_21\n      swap2\n      swap1\n      tag_22\n      jump\t// in\n    tag_21:\n      tag_23\n      jump\t// in\n    tag_20:\n      mload(0x40)\n      tag_24\n      swap2\n      swap1\n      tag_25\n      jump\t// in\n    tag_24:\n      mload(0x40)\n      dup1\n      swap2\n      sub\n      swap1\n      return\n        /* \"Week1/BusinessHelper/DateTime.sol\":5450:5595  function getWeekday(uint timestamp) public pure returns (uint8) {... */\n    tag_3:\n      tag_26\n      0x04\n      dup1\n      calldatasize\n      sub\n      dup2\n      add\n      swap1\n      tag_27\n      swap2\n      swap1\n      tag_22\n      jump\t// in\n    tag_27:\n      tag_28\n      jump\t// in\n    tag_26:\n      mload(0x40)\n      tag_29\n      swap2\n      swap1\n      tag_25\n      jump\t// in\n    tag_29:\n      mload(0x40)\n      dup1\n      swap2\n      sub\n      swap1\n      return\n        /* \"Week1/BusinessHelper/DateTime.sol\":5988:6193  function toTimestamp(uint16 year, uint8 month, uint8 day, uint8 hour, uint8 minute) public pure returns (uint timestamp) {... */\n    tag_4:\n      tag_30\n      0x04\n      dup1\n      calldatasize\n      sub\n      dup2\n      add\n      swap1\n      tag_31\n      swap2\n      swap1\n      tag_32\n      jump\t// in\n    tag_31:\n      tag_33\n      jump\t// in\n    tag_30:\n      mload(0x40)\n      tag_34\n      swap2\n      swap1\n      tag_35\n      jump\t// in\n    tag_34:\n      mload(0x40)\n      dup1\n      swap2\n      sub\n      swap1\n      return\n        /* \"Week1/BusinessHelper/DateTime.sol\":4892:5019  function getDay(uint timestamp) public pure returns (uint8) {... */\n    tag_5:\n      tag_36\n      0x04\n      dup1\n      calldatasize\n      sub\n      dup2\n      add\n      swap1\n      tag_37\n      swap2\n      swap1\n      tag_22\n      jump\t// in\n    tag_37:\n      tag_38\n      jump\t// in\n    tag_36:\n      mload(0x40)\n      tag_39\n      swap2\n      swap1\n      tag_25\n      jump\t// in\n    tag_39:\n      mload(0x40)\n      dup1\n      swap2\n      sub\n      swap1\n      return\n        /* \"Week1/BusinessHelper/DateTime.sol\":5790:5976  function toTimestamp(uint16 year, uint8 month, uint8 day, uint8 hour) public pure returns (uint timestamp) {... */\n    tag_6:\n      tag_40\n      0x04\n      dup1\n      calldatasize\n      sub\n      dup2\n      add\n      swap1\n      tag_41\n      swap2\n      swap1\n      tag_42\n      jump\t// in\n    tag_41:\n      tag_43\n      jump\t// in\n    tag_40:\n      mload(0x40)\n      tag_44\n      swap2\n      swap1\n      tag_35\n      jump\t// in\n    tag_44:\n      mload(0x40)\n      dup1\n      swap2\n      sub\n      swap1\n      return\n        /* \"Week1/BusinessHelper/DateTime.sol\":5316:5438  function getSecond(uint timestamp) public pure returns (uint8) {... */\n    tag_7:\n      tag_45\n      0x04\n      dup1\n      calldatasize\n      sub\n      dup2\n      add\n      swap1\n      tag_46\n      swap2\n      swap1\n      tag_22\n      jump\t// in\n    tag_46:\n      tag_47\n      jump\t// in\n    tag_45:\n      mload(0x40)\n      tag_48\n      swap2\n      swap1\n      tag_25\n      jump\t// in\n    tag_48:\n      mload(0x40)\n      dup1\n      swap2\n      sub\n      swap1\n      return\n        /* \"Week1/BusinessHelper/DateTime.sol\":5607:5778  function toTimestamp(uint16 year, uint8 month, uint8 day) public pure returns (uint timestamp) {... */\n    tag_8:\n      tag_49\n      0x04\n      dup1\n      calldatasize\n      sub\n      dup2\n      add\n      swap1\n      tag_50\n      swap2\n      swap1\n      tag_51\n      jump\t// in\n    tag_50:\n      tag_52\n      jump\t// in\n    tag_49:\n      mload(0x40)\n      tag_53\n      swap2\n      swap1\n      tag_35\n      jump\t// in\n    tag_53:\n      mload(0x40)\n      dup1\n      swap2\n      sub\n      swap1\n      return\n        /* \"Week1/BusinessHelper/DateTime.sol\":6205:7982  function toTimestamp(uint16 year, uint8 month, uint8 day, uint8 hour, uint8 minute, uint8 second) public pure returns (uint timestamp) {... */\n    tag_9:\n      tag_54\n      0x04\n      dup1\n      calldatasize\n      sub\n      dup2\n      add\n      swap1\n      tag_55\n      swap2\n      swap1\n      tag_56\n      jump\t// in\n    tag_55:\n      tag_57\n      jump\t// in\n    tag_54:\n      mload(0x40)\n      tag_58\n      swap2\n      swap1\n      tag_35\n      jump\t// in\n    tag_58:\n      mload(0x40)\n      dup1\n      swap2\n      sub\n      swap1\n      return\n        /* \"Week1/BusinessHelper/DateTime.sol\":3744:4737  function getYear(uint timestamp) public pure returns (uint16) {... */\n    tag_10:\n      tag_59\n      0x04\n      dup1\n      calldatasize\n      sub\n      dup2\n      add\n      swap1\n      tag_60\n      swap2\n      swap1\n      tag_22\n      jump\t// in\n    tag_60:\n      tag_61\n      jump\t// in\n    tag_59:\n      mload(0x40)\n      tag_62\n      swap2\n      swap1\n      tag_63\n      jump\t// in\n    tag_62:\n      mload(0x40)\n      dup1\n      swap2\n      sub\n      swap1\n      return\n        /* \"Week1/BusinessHelper/DateTime.sol\":4749:4880  function getMonth(uint timestamp) public pure returns (uint8) {... */\n    tag_11:\n      tag_64\n      0x04\n      dup1\n      calldatasize\n      sub\n      dup2\n      add\n      swap1\n      tag_65\n      swap2\n      swap1\n      tag_22\n      jump\t// in\n    tag_65:\n      tag_66\n      jump\t// in\n    tag_64:\n      mload(0x40)\n      tag_67\n      swap2\n      swap1\n      tag_25\n      jump\t// in\n    tag_67:\n      mload(0x40)\n      dup1\n      swap2\n      sub\n      swap1\n      return\n        /* \"Week1/BusinessHelper/DateTime.sol\":736:1129  function isLeapYear(uint16 year) public pure returns (bool) {... */\n    tag_12:\n      tag_68\n      0x04\n      dup1\n      calldatasize\n      sub\n      dup2\n      add\n      swap1\n      tag_69\n      swap2\n      swap1\n      tag_70\n      jump\t// in\n    tag_69:\n      tag_71\n      jump\t// in\n    tag_68:\n      mload(0x40)\n      tag_72\n      swap2\n      swap1\n      tag_73\n      jump\t// in\n    tag_72:\n      mload(0x40)\n      dup1\n      swap2\n      sub\n      swap1\n      return\n        /* \"Week1/BusinessHelper/DateTime.sol\":1141:1304  function leapYearsBefore(uint year) public pure returns (uint) {... */\n    tag_13:\n      tag_74\n      0x04\n      dup1\n      calldatasize\n      sub\n      dup2\n      add\n      swap1\n      tag_75\n      swap2\n      swap1\n      tag_22\n      jump\t// in\n    tag_75:\n      tag_76\n      jump\t// in\n    tag_74:\n      mload(0x40)\n      tag_77\n      swap2\n      swap1\n      tag_35\n      jump\t// in\n    tag_77:\n      mload(0x40)\n      dup1\n      swap2\n      sub\n      swap1\n      return\n        /* \"Week1/BusinessHelper/DateTime.sol\":1316:1900  function getDaysInMonth(uint8 month, uint16 year) public pure returns (uint8) {... */\n    tag_14:\n      tag_78\n      0x04\n      dup1\n      calldatasize\n      sub\n      dup2\n      add\n      swap1\n      tag_79\n      swap2\n      swap1\n      tag_80\n      jump\t// in\n    tag_79:\n      tag_81\n      jump\t// in\n    tag_78:\n      mload(0x40)\n      tag_82\n      swap2\n      swap1\n      tag_25\n      jump\t// in\n    tag_82:\n      mload(0x40)\n      dup1\n      swap2\n      sub\n      swap1\n      return\n        /* \"Week1/BusinessHelper/DateTime.sol\":1912:3595  function parseTimestamp(uint timestamp) public pure returns (_DateTime memory dt) {... */\n    tag_15:\n      tag_83\n      0x04\n      dup1\n      calldatasize\n      sub\n      dup2\n      add\n      swap1\n      tag_84\n      swap2\n      swap1\n      tag_22\n      jump\t// in\n    tag_84:\n      tag_85\n      jump\t// in\n    tag_83:\n      mload(0x40)\n      tag_86\n      swap2\n      swap1\n      tag_87\n      jump\t// in\n    tag_86:\n      mload(0x40)\n      dup1\n      swap2\n      sub\n      swap1\n      return\n        /* \"Week1/BusinessHelper/DateTime.sol\":5175:5304  function getMinute(uint timestamp) public pure returns (uint8) {... */\n    tag_16:\n      tag_88\n      0x04\n      dup1\n      calldatasize\n      sub\n      dup2\n      add\n      swap1\n      tag_89\n      swap2\n      swap1\n      tag_22\n      jump\t// in\n    tag_89:\n      tag_90\n      jump\t// in\n    tag_88:\n      mload(0x40)\n      tag_91\n      swap2\n      swap1\n      tag_25\n      jump\t// in\n    tag_91:\n      mload(0x40)\n      dup1\n      swap2\n      sub\n      swap1\n      return\n        /* \"Week1/BusinessHelper/DateTime.sol\":5031:5163  function getHour(uint timestamp) public pure returns (uint8) {... */\n    tag_23:\n        /* \"Week1/BusinessHelper/DateTime.sol\":5085:5090  uint8 */\n      0x00\n        /* \"Week1/BusinessHelper/DateTime.sol\":5148:5150  24 */\n      0x18\n        /* \"Week1/BusinessHelper/DateTime.sol\":5142:5144  60 */\n      0x3c\n        /* \"Week1/BusinessHelper/DateTime.sol\":5137:5139  60 */\n      dup1\n        /* \"Week1/BusinessHelper/DateTime.sol\":5125:5134  timestamp */\n      dup5\n        /* \"Week1/BusinessHelper/DateTime.sol\":5125:5139  timestamp / 60 */\n      tag_93\n      swap2\n      swap1\n      tag_94\n      jump\t// in\n    tag_93:\n        /* \"Week1/BusinessHelper/DateTime.sol\":5125:5144  timestamp / 60 / 60 */\n      tag_95\n      swap2\n      swap1\n      tag_94\n      jump\t// in\n    tag_95:\n        /* \"Week1/BusinessHelper/DateTime.sol\":5124:5150  (timestamp / 60 / 60) % 24 */\n      tag_96\n      swap2\n      swap1\n      tag_97\n      jump\t// in\n    tag_96:\n        /* \"Week1/BusinessHelper/DateTime.sol\":5111:5151  return uint8((timestamp / 60 / 60) % 24) */\n      swap1\n      pop\n        /* \"Week1/BusinessHelper/DateTime.sol\":5031:5163  function getHour(uint timestamp) public pure returns (uint8) {... */\n      swap2\n      swap1\n      pop\n      jump\t// out\n        /* \"Week1/BusinessHelper/DateTime.sol\":5450:5595  function getWeekday(uint timestamp) public pure returns (uint8) {... */\n    tag_28:\n        /* \"Week1/BusinessHelper/DateTime.sol\":5507:5512  uint8 */\n      0x00\n        /* \"Week1/BusinessHelper/DateTime.sol\":5581:5582  7 */\n      0x07\n        /* \"Week1/BusinessHelper/DateTime.sol\":5576:5577  4 */\n      0x04\n        /* \"Week1/BusinessHelper/DateTime.sol\":468:473  86400 */\n      0x015180\n        /* \"Week1/BusinessHelper/DateTime.sol\":5547:5556  timestamp */\n      dup5\n        /* \"Week1/BusinessHelper/DateTime.sol\":5547:5573  timestamp / DAY_IN_SECONDS */\n      tag_99\n      swap2\n      swap1\n      tag_94\n      jump\t// in\n    tag_99:\n        /* \"Week1/BusinessHelper/DateTime.sol\":5547:5577  timestamp / DAY_IN_SECONDS + 4 */\n      tag_100\n      swap2\n      swap1\n      tag_101\n      jump\t// in\n    tag_100:\n        /* \"Week1/BusinessHelper/DateTime.sol\":5546:5582  (timestamp / DAY_IN_SECONDS + 4) % 7 */\n      tag_102\n      swap2\n      swap1\n      tag_97\n      jump\t// in\n    tag_102:\n        /* \"Week1/BusinessHelper/DateTime.sol\":5533:5583  return uint8((timestamp / DAY_IN_SECONDS + 4) % 7) */\n      swap1\n      pop\n        /* \"Week1/BusinessHelper/DateTime.sol\":5450:5595  function getWeekday(uint timestamp) public pure returns (uint8) {... */\n      swap2\n      swap1\n      pop\n      jump\t// out\n        /* \"Week1/BusinessHelper/DateTime.sol\":5988:6193  function toTimestamp(uint16 year, uint8 month, uint8 day, uint8 hour, uint8 minute) public pure returns (uint timestamp) {... */\n    tag_33:\n        /* \"Week1/BusinessHelper/DateTime.sol\":6093:6107  uint timestamp */\n      0x00\n        /* \"Week1/BusinessHelper/DateTime.sol\":6135:6181  toTimestamp(year, month, day, hour, minute, 0) */\n      tag_104\n        /* \"Week1/BusinessHelper/DateTime.sol\":6147:6151  year */\n      dup7\n        /* \"Week1/BusinessHelper/DateTime.sol\":6153:6158  month */\n      dup7\n        /* \"Week1/BusinessHelper/DateTime.sol\":6160:6163  day */\n      dup7\n        /* \"Week1/BusinessHelper/DateTime.sol\":6165:6169  hour */\n      dup7\n        /* \"Week1/BusinessHelper/DateTime.sol\":6171:6177  minute */\n      dup7\n        /* \"Week1/BusinessHelper/DateTime.sol\":6179:6180  0 */\n      0x00\n        /* \"Week1/BusinessHelper/DateTime.sol\":6135:6146  toTimestamp */\n      tag_57\n        /* \"Week1/BusinessHelper/DateTime.sol\":6135:6181  toTimestamp(year, month, day, hour, minute, 0) */\n      jump\t// in\n    tag_104:\n        /* \"Week1/BusinessHelper/DateTime.sol\":6128:6181  return toTimestamp(year, month, day, hour, minute, 0) */\n      swap1\n      pop\n        /* \"Week1/BusinessHelper/DateTime.sol\":5988:6193  function toTimestamp(uint16 year, uint8 month, uint8 day, uint8 hour, uint8 minute) public pure returns (uint timestamp) {... */\n      swap6\n      swap5\n      pop\n      pop\n      pop\n      pop\n      pop\n      jump\t// out\n        /* \"Week1/BusinessHelper/DateTime.sol\":4892:5019  function getDay(uint timestamp) public pure returns (uint8) {... */\n    tag_38:\n        /* \"Week1/BusinessHelper/DateTime.sol\":4945:4950  uint8 */\n      0x00\n        /* \"Week1/BusinessHelper/DateTime.sol\":4978:5003  parseTimestamp(timestamp) */\n      tag_106\n        /* \"Week1/BusinessHelper/DateTime.sol\":4993:5002  timestamp */\n      dup3\n        /* \"Week1/BusinessHelper/DateTime.sol\":4978:4992  parseTimestamp */\n      tag_85\n        /* \"Week1/BusinessHelper/DateTime.sol\":4978:5003  parseTimestamp(timestamp) */\n      jump\t// in\n    tag_106:\n        /* \"Week1/BusinessHelper/DateTime.sol\":4978:5007  parseTimestamp(timestamp).day */\n      0x40\n      add\n      mload\n        /* \"Week1/BusinessHelper/DateTime.sol\":4971:5007  return parseTimestamp(timestamp).day */\n      swap1\n      pop\n        /* \"Week1/BusinessHelper/DateTime.sol\":4892:5019  function getDay(uint timestamp) public pure returns (uint8) {... */\n      swap2\n      swap1\n      pop\n      jump\t// out\n        /* \"Week1/BusinessHelper/DateTime.sol\":5790:5976  function toTimestamp(uint16 year, uint8 month, uint8 day, uint8 hour) public pure returns (uint timestamp) {... */\n    tag_43:\n        /* \"Week1/BusinessHelper/DateTime.sol\":5881:5895  uint timestamp */\n      0x00\n        /* \"Week1/BusinessHelper/DateTime.sol\":5923:5964  toTimestamp(year, month, day, hour, 0, 0) */\n      tag_108\n        /* \"Week1/BusinessHelper/DateTime.sol\":5935:5939  year */\n      dup6\n        /* \"Week1/BusinessHelper/DateTime.sol\":5941:5946  month */\n      dup6\n        /* \"Week1/BusinessHelper/DateTime.sol\":5948:5951  day */\n      dup6\n        /* \"Week1/BusinessHelper/DateTime.sol\":5953:5957  hour */\n      dup6\n        /* \"Week1/BusinessHelper/DateTime.sol\":5959:5960  0 */\n      0x00\n        /* \"Week1/BusinessHelper/DateTime.sol\":5962:5963  0 */\n      dup1\n        /* \"Week1/BusinessHelper/DateTime.sol\":5923:5934  toTimestamp */\n      tag_57\n        /* \"Week1/BusinessHelper/DateTime.sol\":5923:5964  toTimestamp(year, month, day, hour, 0, 0) */\n      jump\t// in\n    tag_108:\n        /* \"Week1/BusinessHelper/DateTime.sol\":5916:5964  return toTimestamp(year, month, day, hour, 0, 0) */\n      swap1\n      pop\n        /* \"Week1/BusinessHelper/DateTime.sol\":5790:5976  function toTimestamp(uint16 year, uint8 month, uint8 day, uint8 hour) public pure returns (uint timestamp) {... */\n      swap5\n      swap4\n      pop\n      pop\n      pop\n      pop\n      jump\t// out\n        /* \"Week1/BusinessHelper/DateTime.sol\":5316:5438  function getSecond(uint timestamp) public pure returns (uint8) {... */\n    tag_47:\n        /* \"Week1/BusinessHelper/DateTime.sol\":5372:5377  uint8 */\n      0x00\n        /* \"Week1/BusinessHelper/DateTime.sol\":5423:5425  60 */\n      0x3c\n        /* \"Week1/BusinessHelper/DateTime.sol\":5411:5420  timestamp */\n      dup3\n        /* \"Week1/BusinessHelper/DateTime.sol\":5411:5425  timestamp % 60 */\n      tag_110\n      swap2\n      swap1\n      tag_97\n      jump\t// in\n    tag_110:\n        /* \"Week1/BusinessHelper/DateTime.sol\":5398:5426  return uint8(timestamp % 60) */\n      swap1\n      pop\n        /* \"Week1/BusinessHelper/DateTime.sol\":5316:5438  function getSecond(uint timestamp) public pure returns (uint8) {... */\n      swap2\n      swap1\n      pop\n      jump\t// out\n        /* \"Week1/BusinessHelper/DateTime.sol\":5607:5778  function toTimestamp(uint16 year, uint8 month, uint8 day) public pure returns (uint timestamp) {... */\n    tag_52:\n        /* \"Week1/BusinessHelper/DateTime.sol\":5686:5700  uint timestamp */\n      0x00\n        /* \"Week1/BusinessHelper/DateTime.sol\":5728:5766  toTimestamp(year, month, day, 0, 0, 0) */\n      tag_112\n        /* \"Week1/BusinessHelper/DateTime.sol\":5740:5744  year */\n      dup5\n        /* \"Week1/BusinessHelper/DateTime.sol\":5746:5751  month */\n      dup5\n        /* \"Week1/BusinessHelper/DateTime.sol\":5753:5756  day */\n      dup5\n        /* \"Week1/BusinessHelper/DateTime.sol\":5758:5759  0 */\n      0x00\n        /* \"Week1/BusinessHelper/DateTime.sol\":5761:5762  0 */\n      dup1\n        /* \"Week1/BusinessHelper/DateTime.sol\":5764:5765  0 */\n      0x00\n        /* \"Week1/BusinessHelper/DateTime.sol\":5728:5739  toTimestamp */\n      tag_57\n        /* \"Week1/BusinessHelper/DateTime.sol\":5728:5766  toTimestamp(year, month, day, 0, 0, 0) */\n      jump\t// in\n    tag_112:\n        /* \"Week1/BusinessHelper/DateTime.sol\":5721:5766  return toTimestamp(year, month, day, 0, 0, 0) */\n      swap1\n      pop\n        /* \"Week1/BusinessHelper/DateTime.sol\":5607:5778  function toTimestamp(uint16 year, uint8 month, uint8 day) public pure returns (uint timestamp) {... */\n      swap4\n      swap3\n      pop\n      pop\n      pop\n      jump\t// out\n        /* \"Week1/BusinessHelper/DateTime.sol\":6205:7982  function toTimestamp(uint16 year, uint8 month, uint8 day, uint8 hour, uint8 minute, uint8 second) public pure returns (uint timestamp) {... */\n    tag_57:\n        /* \"Week1/BusinessHelper/DateTime.sol\":6324:6338  uint timestamp */\n      0x00\n        /* \"Week1/BusinessHelper/DateTime.sol\":6359:6367  uint16 i */\n      dup1\n        /* \"Week1/BusinessHelper/DateTime.sol\":719:723  1970 */\n      0x07b2\n        /* \"Week1/BusinessHelper/DateTime.sol\":6418:6433  i = ORIGIN_YEAR */\n      swap1\n      pop\n        /* \"Week1/BusinessHelper/DateTime.sol\":6413:6733  for (i = ORIGIN_YEAR; i < year; i++) {... */\n    tag_114:\n        /* \"Week1/BusinessHelper/DateTime.sol\":6439:6443  year */\n      dup8\n        /* \"Week1/BusinessHelper/DateTime.sol\":6435:6443  i < year */\n      0xffff\n      and\n        /* \"Week1/BusinessHelper/DateTime.sol\":6435:6436  i */\n      dup2\n        /* \"Week1/BusinessHelper/DateTime.sol\":6435:6443  i < year */\n      0xffff\n      and\n      lt\n        /* \"Week1/BusinessHelper/DateTime.sol\":6413:6733  for (i = ORIGIN_YEAR; i < year; i++) {... */\n      iszero\n      tag_115\n      jumpi\n        /* \"Week1/BusinessHelper/DateTime.sol\":6481:6494  isLeapYear(i) */\n      tag_117\n        /* \"Week1/BusinessHelper/DateTime.sol\":6492:6493  i */\n      dup2\n        /* \"Week1/BusinessHelper/DateTime.sol\":6481:6491  isLeapYear */\n      tag_71\n        /* \"Week1/BusinessHelper/DateTime.sol\":6481:6494  isLeapYear(i) */\n      jump\t// in\n    tag_117:\n        /* \"Week1/BusinessHelper/DateTime.sol\":6477:6714  if (isLeapYear(i)) {... */\n      iszero\n      tag_118\n      jumpi\n        /* \"Week1/BusinessHelper/DateTime.sol\":572:580  31622400 */\n      0x01e28500\n        /* \"Week1/BusinessHelper/DateTime.sol\":6531:6564  timestamp += LEAP_YEAR_IN_SECONDS */\n      dup3\n      tag_119\n      swap2\n      swap1\n      tag_101\n      jump\t// in\n    tag_119:\n      swap2\n      pop\n        /* \"Week1/BusinessHelper/DateTime.sol\":6477:6714  if (isLeapYear(i)) {... */\n      jump(tag_120)\n    tag_118:\n        /* \"Week1/BusinessHelper/DateTime.sol\":516:524  31536000 */\n      0x01e13380\n        /* \"Week1/BusinessHelper/DateTime.sol\":6658:6686  timestamp += YEAR_IN_SECONDS */\n      dup3\n      tag_121\n      swap2\n      swap1\n      tag_101\n      jump\t// in\n    tag_121:\n      swap2\n      pop\n        /* \"Week1/BusinessHelper/DateTime.sol\":6477:6714  if (isLeapYear(i)) {... */\n    tag_120:\n        /* \"Week1/BusinessHelper/DateTime.sol\":6445:6448  i++ */\n      dup1\n      dup1\n      tag_122\n      swap1\n      tag_123\n      jump\t// in\n    tag_122:\n      swap2\n      pop\n      pop\n        /* \"Week1/BusinessHelper/DateTime.sol\":6413:6733  for (i = ORIGIN_YEAR; i < year; i++) {... */\n      jump(tag_114)\n    tag_115:\n        /* \"Week1/BusinessHelper/DateTime.sol\":6779:6810  uint8[12] memory monthDayCounts */\n      tag_124\n      tag_125\n      jump\t// in\n    tag_124:\n        /* \"Week1/BusinessHelper/DateTime.sol\":6849:6851  31 */\n      0x1f\n        /* \"Week1/BusinessHelper/DateTime.sol\":6829:6843  monthDayCounts */\n      dup2\n        /* \"Week1/BusinessHelper/DateTime.sol\":6844:6845  0 */\n      0x00\n        /* \"Week1/BusinessHelper/DateTime.sol\":6829:6846  monthDayCounts[0] */\n      0x0c\n      dup2\n      lt\n      tag_126\n      jumpi\n      tag_127\n      tag_128\n      jump\t// in\n    tag_127:\n    tag_126:\n      0x20\n      mul\n      add\n        /* \"Week1/BusinessHelper/DateTime.sol\":6829:6851  monthDayCounts[0] = 31 */\n      swap1\n      0xff\n      and\n      swap1\n      dup2\n      0xff\n      and\n      dup2\n      mstore\n      pop\n      pop\n        /* \"Week1/BusinessHelper/DateTime.sol\":6874:6890  isLeapYear(year) */\n      tag_129\n        /* \"Week1/BusinessHelper/DateTime.sol\":6885:6889  year */\n      dup10\n        /* \"Week1/BusinessHelper/DateTime.sol\":6874:6884  isLeapYear */\n      tag_71\n        /* \"Week1/BusinessHelper/DateTime.sol\":6874:6890  isLeapYear(year) */\n      jump\t// in\n    tag_129:\n        /* \"Week1/BusinessHelper/DateTime.sol\":6870:7053  if (isLeapYear(year)) {... */\n      iszero\n      tag_130\n      jumpi\n        /* \"Week1/BusinessHelper/DateTime.sol\":6939:6941  29 */\n      0x1d\n        /* \"Week1/BusinessHelper/DateTime.sol\":6919:6933  monthDayCounts */\n      dup2\n        /* \"Week1/BusinessHelper/DateTime.sol\":6934:6935  1 */\n      0x01\n        /* \"Week1/BusinessHelper/DateTime.sol\":6919:6936  monthDayCounts[1] */\n      0x0c\n      dup2\n      lt\n      tag_131\n      jumpi\n      tag_132\n      tag_128\n      jump\t// in\n    tag_132:\n    tag_131:\n      0x20\n      mul\n      add\n        /* \"Week1/BusinessHelper/DateTime.sol\":6919:6941  monthDayCounts[1] = 29 */\n      swap1\n      0xff\n      and\n      swap1\n      dup2\n      0xff\n      and\n      dup2\n      mstore\n      pop\n      pop\n        /* \"Week1/BusinessHelper/DateTime.sol\":6870:7053  if (isLeapYear(year)) {... */\n      jump(tag_133)\n    tag_130:\n        /* \"Week1/BusinessHelper/DateTime.sol\":7031:7033  28 */\n      0x1c\n        /* \"Week1/BusinessHelper/DateTime.sol\":7011:7025  monthDayCounts */\n      dup2\n        /* \"Week1/BusinessHelper/DateTime.sol\":7026:7027  1 */\n      0x01\n        /* \"Week1/BusinessHelper/DateTime.sol\":7011:7028  monthDayCounts[1] */\n      0x0c\n      dup2\n      lt\n      tag_134\n      jumpi\n      tag_135\n      tag_128\n      jump\t// in\n    tag_135:\n    tag_134:\n      0x20\n      mul\n      add\n        /* \"Week1/BusinessHelper/DateTime.sol\":7011:7033  monthDayCounts[1] = 28 */\n      swap1\n      0xff\n      and\n      swap1\n      dup2\n      0xff\n      and\n      dup2\n      mstore\n      pop\n      pop\n        /* \"Week1/BusinessHelper/DateTime.sol\":6870:7053  if (isLeapYear(year)) {... */\n    tag_133:\n        /* \"Week1/BusinessHelper/DateTime.sol\":7091:7093  31 */\n      0x1f\n        /* \"Week1/BusinessHelper/DateTime.sol\":7071:7085  monthDayCounts */\n      dup2\n        /* \"Week1/BusinessHelper/DateTime.sol\":7086:7087  2 */\n      0x02\n        /* \"Week1/BusinessHelper/DateTime.sol\":7071:7088  monthDayCounts[2] */\n      0x0c\n      dup2\n      lt\n      tag_136\n      jumpi\n      tag_137\n      tag_128\n      jump\t// in\n    tag_137:\n    tag_136:\n      0x20\n      mul\n      add\n        /* \"Week1/BusinessHelper/DateTime.sol\":7071:7093  monthDayCounts[2] = 31 */\n      swap1\n      0xff\n      and\n      swap1\n      dup2\n      0xff\n      and\n      dup2\n      mstore\n      pop\n      pop\n        /* \"Week1/BusinessHelper/DateTime.sol\":7132:7134  30 */\n      0x1e\n        /* \"Week1/BusinessHelper/DateTime.sol\":7112:7126  monthDayCounts */\n      dup2\n        /* \"Week1/BusinessHelper/DateTime.sol\":7127:7128  3 */\n      0x03\n        /* \"Week1/BusinessHelper/DateTime.sol\":7112:7129  monthDayCounts[3] */\n      0x0c\n      dup2\n      lt\n      tag_138\n      jumpi\n      tag_139\n      tag_128\n      jump\t// in\n    tag_139:\n    tag_138:\n      0x20\n      mul\n      add\n        /* \"Week1/BusinessHelper/DateTime.sol\":7112:7134  monthDayCounts[3] = 30 */\n      swap1\n      0xff\n      and\n      swap1\n      dup2\n      0xff\n      and\n      dup2\n      mstore\n      pop\n      pop\n        /* \"Week1/BusinessHelper/DateTime.sol\":7173:7175  31 */\n      0x1f\n        /* \"Week1/BusinessHelper/DateTime.sol\":7153:7167  monthDayCounts */\n      dup2\n        /* \"Week1/BusinessHelper/DateTime.sol\":7168:7169  4 */\n      0x04\n        /* \"Week1/BusinessHelper/DateTime.sol\":7153:7170  monthDayCounts[4] */\n      0x0c\n      dup2\n      lt\n      tag_140\n      jumpi\n      tag_141\n      tag_128\n      jump\t// in\n    tag_141:\n    tag_140:\n      0x20\n      mul\n      add\n        /* \"Week1/BusinessHelper/DateTime.sol\":7153:7175  monthDayCounts[4] = 31 */\n      swap1\n      0xff\n      and\n      swap1\n      dup2\n      0xff\n      and\n      dup2\n      mstore\n      pop\n      pop\n        /* \"Week1/BusinessHelper/DateTime.sol\":7214:7216  30 */\n      0x1e\n        /* \"Week1/BusinessHelper/DateTime.sol\":7194:7208  monthDayCounts */\n      dup2\n        /* \"Week1/BusinessHelper/DateTime.sol\":7209:7210  5 */\n      0x05\n        /* \"Week1/BusinessHelper/DateTime.sol\":7194:7211  monthDayCounts[5] */\n      0x0c\n      dup2\n      lt\n      tag_142\n      jumpi\n      tag_143\n      tag_128\n      jump\t// in\n    tag_143:\n    tag_142:\n      0x20\n      mul\n      add\n        /* \"Week1/BusinessHelper/DateTime.sol\":7194:7216  monthDayCounts[5] = 30 */\n      swap1\n      0xff\n      and\n      swap1\n      dup2\n      0xff\n      and\n      dup2\n      mstore\n      pop\n      pop\n        /* \"Week1/BusinessHelper/DateTime.sol\":7255:7257  31 */\n      0x1f\n        /* \"Week1/BusinessHelper/DateTime.sol\":7235:7249  monthDayCounts */\n      dup2\n        /* \"Week1/BusinessHelper/DateTime.sol\":7250:7251  6 */\n      0x06\n        /* \"Week1/BusinessHelper/DateTime.sol\":7235:7252  monthDayCounts[6] */\n      0x0c\n      dup2\n      lt\n      tag_144\n      jumpi\n      tag_145\n      tag_128\n      jump\t// in\n    tag_145:\n    tag_144:\n      0x20\n      mul\n      add\n        /* \"Week1/BusinessHelper/DateTime.sol\":7235:7257  monthDayCounts[6] = 31 */\n      swap1\n      0xff\n      and\n      swap1\n      dup2\n      0xff\n      and\n      dup2\n      mstore\n      pop\n      pop\n        /* \"Week1/BusinessHelper/DateTime.sol\":7296:7298  31 */\n      0x1f\n        /* \"Week1/BusinessHelper/DateTime.sol\":7276:7290  monthDayCounts */\n      dup2\n        /* \"Week1/BusinessHelper/DateTime.sol\":7291:7292  7 */\n      0x07\n        /* \"Week1/BusinessHelper/DateTime.sol\":7276:7293  monthDayCounts[7] */\n      0x0c\n      dup2\n      lt\n      tag_146\n      jumpi\n      tag_147\n      tag_128\n      jump\t// in\n    tag_147:\n    tag_146:\n      0x20\n      mul\n      add\n        /* \"Week1/BusinessHelper/DateTime.sol\":7276:7298  monthDayCounts[7] = 31 */\n      swap1\n      0xff\n      and\n      swap1\n      dup2\n      0xff\n      and\n      dup2\n      mstore\n      pop\n      pop\n        /* \"Week1/BusinessHelper/DateTime.sol\":7337:7339  30 */\n      0x1e\n        /* \"Week1/BusinessHelper/DateTime.sol\":7317:7331  monthDayCounts */\n      dup2\n        /* \"Week1/BusinessHelper/DateTime.sol\":7332:7333  8 */\n      0x08\n        /* \"Week1/BusinessHelper/DateTime.sol\":7317:7334  monthDayCounts[8] */\n      0x0c\n      dup2\n      lt\n      tag_148\n      jumpi\n      tag_149\n      tag_128\n      jump\t// in\n    tag_149:\n    tag_148:\n      0x20\n      mul\n      add\n        /* \"Week1/BusinessHelper/DateTime.sol\":7317:7339  monthDayCounts[8] = 30 */\n      swap1\n      0xff\n      and\n      swap1\n      dup2\n      0xff\n      and\n      dup2\n      mstore\n      pop\n      pop\n        /* \"Week1/BusinessHelper/DateTime.sol\":7378:7380  31 */\n      0x1f\n        /* \"Week1/BusinessHelper/DateTime.sol\":7358:7372  monthDayCounts */\n      dup2\n        /* \"Week1/BusinessHelper/DateTime.sol\":7373:7374  9 */\n      0x09\n        /* \"Week1/BusinessHelper/DateTime.sol\":7358:7375  monthDayCounts[9] */\n      0x0c\n      dup2\n      lt\n      tag_150\n      jumpi\n      tag_151\n      tag_128\n      jump\t// in\n    tag_151:\n    tag_150:\n      0x20\n      mul\n      add\n        /* \"Week1/BusinessHelper/DateTime.sol\":7358:7380  monthDayCounts[9] = 31 */\n      swap1\n      0xff\n      and\n      swap1\n      dup2\n      0xff\n      and\n      dup2\n      mstore\n      pop\n      pop\n        /* \"Week1/BusinessHelper/DateTime.sol\":7420:7422  30 */\n      0x1e\n        /* \"Week1/BusinessHelper/DateTime.sol\":7399:7413  monthDayCounts */\n      dup2\n        /* \"Week1/BusinessHelper/DateTime.sol\":7414:7416  10 */\n      0x0a\n        /* \"Week1/BusinessHelper/DateTime.sol\":7399:7417  monthDayCounts[10] */\n      0x0c\n      dup2\n      lt\n      tag_152\n      jumpi\n      tag_153\n      tag_128\n      jump\t// in\n    tag_153:\n    tag_152:\n      0x20\n      mul\n      add\n        /* \"Week1/BusinessHelper/DateTime.sol\":7399:7422  monthDayCounts[10] = 30 */\n      swap1\n      0xff\n      and\n      swap1\n      dup2\n      0xff\n      and\n      dup2\n      mstore\n      pop\n      pop\n        /* \"Week1/BusinessHelper/DateTime.sol\":7462:7464  31 */\n      0x1f\n        /* \"Week1/BusinessHelper/DateTime.sol\":7441:7455  monthDayCounts */\n      dup2\n        /* \"Week1/BusinessHelper/DateTime.sol\":7456:7458  11 */\n      0x0b\n        /* \"Week1/BusinessHelper/DateTime.sol\":7441:7459  monthDayCounts[11] */\n      0x0c\n      dup2\n      lt\n      tag_154\n      jumpi\n      tag_155\n      tag_128\n      jump\t// in\n    tag_155:\n    tag_154:\n      0x20\n      mul\n      add\n        /* \"Week1/BusinessHelper/DateTime.sol\":7441:7464  monthDayCounts[11] = 31 */\n      swap1\n      0xff\n      and\n      swap1\n      dup2\n      0xff\n      and\n      dup2\n      mstore\n      pop\n      pop\n        /* \"Week1/BusinessHelper/DateTime.sol\":7494:7495  1 */\n      0x01\n        /* \"Week1/BusinessHelper/DateTime.sol\":7490:7495  i = 1 */\n      swap2\n      pop\n        /* \"Week1/BusinessHelper/DateTime.sol\":7485:7611  for (i = 1; i < month; i++) {... */\n    tag_156:\n        /* \"Week1/BusinessHelper/DateTime.sol\":7501:7506  month */\n      dup8\n        /* \"Week1/BusinessHelper/DateTime.sol\":7497:7506  i < month */\n      0xff\n      and\n        /* \"Week1/BusinessHelper/DateTime.sol\":7497:7498  i */\n      dup3\n        /* \"Week1/BusinessHelper/DateTime.sol\":7497:7506  i < month */\n      0xffff\n      and\n      lt\n        /* \"Week1/BusinessHelper/DateTime.sol\":7485:7611  for (i = 1; i < month; i++) {... */\n      iszero\n      tag_157\n      jumpi\n        /* \"Week1/BusinessHelper/DateTime.sol\":7570:7584  monthDayCounts */\n      dup1\n        /* \"Week1/BusinessHelper/DateTime.sol\":7589:7590  1 */\n      0x01\n        /* \"Week1/BusinessHelper/DateTime.sol\":7585:7586  i */\n      dup4\n        /* \"Week1/BusinessHelper/DateTime.sol\":7585:7590  i - 1 */\n      tag_159\n      swap2\n      swap1\n      tag_160\n      jump\t// in\n    tag_159:\n        /* \"Week1/BusinessHelper/DateTime.sol\":7570:7591  monthDayCounts[i - 1] */\n      0xffff\n      and\n      0x0c\n      dup2\n      lt\n      tag_161\n      jumpi\n      tag_162\n      tag_128\n      jump\t// in\n    tag_162:\n    tag_161:\n      0x20\n      mul\n      add\n      mload\n        /* \"Week1/BusinessHelper/DateTime.sol\":7553:7591  DAY_IN_SECONDS * monthDayCounts[i - 1] */\n      0xff\n      and\n        /* \"Week1/BusinessHelper/DateTime.sol\":468:473  86400 */\n      0x015180\n        /* \"Week1/BusinessHelper/DateTime.sol\":7553:7591  DAY_IN_SECONDS * monthDayCounts[i - 1] */\n      tag_163\n      swap2\n      swap1\n      tag_164\n      jump\t// in\n    tag_163:\n        /* \"Week1/BusinessHelper/DateTime.sol\":7540:7591  timestamp += DAY_IN_SECONDS * monthDayCounts[i - 1] */\n      dup4\n      tag_165\n      swap2\n      swap1\n      tag_101\n      jump\t// in\n    tag_165:\n      swap3\n      pop\n        /* \"Week1/BusinessHelper/DateTime.sol\":7508:7511  i++ */\n      dup2\n      dup1\n      tag_166\n      swap1\n      tag_123\n      jump\t// in\n    tag_166:\n      swap3\n      pop\n      pop\n        /* \"Week1/BusinessHelper/DateTime.sol\":7485:7611  for (i = 1; i < month; i++) {... */\n      jump(tag_156)\n    tag_157:\n        /* \"Week1/BusinessHelper/DateTime.sol\":7692:7693  1 */\n      0x01\n        /* \"Week1/BusinessHelper/DateTime.sol\":7686:7689  day */\n      dup8\n        /* \"Week1/BusinessHelper/DateTime.sol\":7686:7693  day - 1 */\n      tag_167\n      swap2\n      swap1\n      tag_168\n      jump\t// in\n    tag_167:\n        /* \"Week1/BusinessHelper/DateTime.sol\":7668:7694  DAY_IN_SECONDS * (day - 1) */\n      0xff\n      and\n        /* \"Week1/BusinessHelper/DateTime.sol\":468:473  86400 */\n      0x015180\n        /* \"Week1/BusinessHelper/DateTime.sol\":7668:7694  DAY_IN_SECONDS * (day - 1) */\n      tag_169\n      swap2\n      swap1\n      tag_164\n      jump\t// in\n    tag_169:\n        /* \"Week1/BusinessHelper/DateTime.sol\":7655:7694  timestamp += DAY_IN_SECONDS * (day - 1) */\n      dup4\n      tag_170\n      swap2\n      swap1\n      tag_101\n      jump\t// in\n    tag_170:\n      swap3\n      pop\n        /* \"Week1/BusinessHelper/DateTime.sol\":7772:7776  hour */\n      dup6\n        /* \"Week1/BusinessHelper/DateTime.sol\":7753:7777  HOUR_IN_SECONDS * (hour) */\n      0xff\n      and\n        /* \"Week1/BusinessHelper/DateTime.sol\":625:629  3600 */\n      0x0e10\n        /* \"Week1/BusinessHelper/DateTime.sol\":7753:7777  HOUR_IN_SECONDS * (hour) */\n      tag_171\n      swap2\n      swap1\n      tag_164\n      jump\t// in\n    tag_171:\n        /* \"Week1/BusinessHelper/DateTime.sol\":7740:7777  timestamp += HOUR_IN_SECONDS * (hour) */\n      dup4\n      tag_172\n      swap2\n      swap1\n      tag_101\n      jump\t// in\n    tag_172:\n      swap3\n      pop\n        /* \"Week1/BusinessHelper/DateTime.sol\":7859:7865  minute */\n      dup5\n        /* \"Week1/BusinessHelper/DateTime.sol\":7838:7866  MINUTE_IN_SECONDS * (minute) */\n      0xff\n      and\n        /* \"Week1/BusinessHelper/DateTime.sol\":674:676  60 */\n      0x3c\n        /* \"Week1/BusinessHelper/DateTime.sol\":7838:7866  MINUTE_IN_SECONDS * (minute) */\n      tag_173\n      swap2\n      swap1\n      tag_164\n      jump\t// in\n    tag_173:\n        /* \"Week1/BusinessHelper/DateTime.sol\":7825:7866  timestamp += MINUTE_IN_SECONDS * (minute) */\n      dup4\n      tag_174\n      swap2\n      swap1\n      tag_101\n      jump\t// in\n    tag_174:\n      swap3\n      pop\n        /* \"Week1/BusinessHelper/DateTime.sol\":7927:7933  second */\n      dup4\n        /* \"Week1/BusinessHelper/DateTime.sol\":7914:7933  timestamp += second */\n      0xff\n      and\n      dup4\n      tag_175\n      swap2\n      swap1\n      tag_101\n      jump\t// in\n    tag_175:\n      swap3\n      pop\n        /* \"Week1/BusinessHelper/DateTime.sol\":7954:7970  return timestamp */\n      pop\n      pop\n        /* \"Week1/BusinessHelper/DateTime.sol\":6205:7982  function toTimestamp(uint16 year, uint8 month, uint8 day, uint8 hour, uint8 minute, uint8 second) public pure returns (uint timestamp) {... */\n      swap7\n      swap6\n      pop\n      pop\n      pop\n      pop\n      pop\n      pop\n      jump\t// out\n        /* \"Week1/BusinessHelper/DateTime.sol\":3744:4737  function getYear(uint timestamp) public pure returns (uint16) {... */\n    tag_61:\n        /* \"Week1/BusinessHelper/DateTime.sol\":3798:3804  uint16 */\n      0x00\n        /* \"Week1/BusinessHelper/DateTime.sol\":3825:3849  uint secondsAccountedFor */\n      dup1\n        /* \"Week1/BusinessHelper/DateTime.sol\":3852:3853  0 */\n      0x00\n        /* \"Week1/BusinessHelper/DateTime.sol\":3825:3853  uint secondsAccountedFor = 0 */\n      swap1\n      pop\n        /* \"Week1/BusinessHelper/DateTime.sol\":3872:3883  uint16 year */\n      0x00\n        /* \"Week1/BusinessHelper/DateTime.sol\":3902:3919  uint numLeapYears */\n      dup1\n        /* \"Week1/BusinessHelper/DateTime.sol\":516:524  31536000 */\n      0x01e13380\n        /* \"Week1/BusinessHelper/DateTime.sol\":3993:4002  timestamp */\n      dup6\n        /* \"Week1/BusinessHelper/DateTime.sol\":3993:4020  timestamp / YEAR_IN_SECONDS */\n      tag_177\n      swap2\n      swap1\n      tag_94\n      jump\t// in\n    tag_177:\n        /* \"Week1/BusinessHelper/DateTime.sol\":719:723  1970 */\n      0x07b2\n        /* \"Week1/BusinessHelper/DateTime.sol\":3979:4020  ORIGIN_YEAR + timestamp / YEAR_IN_SECONDS */\n      0xffff\n      and\n      tag_178\n      swap2\n      swap1\n      tag_101\n      jump\t// in\n    tag_178:\n        /* \"Week1/BusinessHelper/DateTime.sol\":3965:4021  year = uint16(ORIGIN_YEAR + timestamp / YEAR_IN_SECONDS) */\n      swap2\n      pop\n        /* \"Week1/BusinessHelper/DateTime.sol\":4079:4107  leapYearsBefore(ORIGIN_YEAR) */\n      tag_179\n        /* \"Week1/BusinessHelper/DateTime.sol\":719:723  1970 */\n      0x07b2\n        /* \"Week1/BusinessHelper/DateTime.sol\":4079:4107  leapYearsBefore(ORIGIN_YEAR) */\n      0xffff\n      and\n        /* \"Week1/BusinessHelper/DateTime.sol\":4079:4094  leapYearsBefore */\n      tag_76\n        /* \"Week1/BusinessHelper/DateTime.sol\":4079:4107  leapYearsBefore(ORIGIN_YEAR) */\n      jump\t// in\n    tag_179:\n        /* \"Week1/BusinessHelper/DateTime.sol\":4055:4076  leapYearsBefore(year) */\n      tag_180\n        /* \"Week1/BusinessHelper/DateTime.sol\":4071:4075  year */\n      dup4\n        /* \"Week1/BusinessHelper/DateTime.sol\":4055:4076  leapYearsBefore(year) */\n      0xffff\n      and\n        /* \"Week1/BusinessHelper/DateTime.sol\":4055:4070  leapYearsBefore */\n      tag_76\n        /* \"Week1/BusinessHelper/DateTime.sol\":4055:4076  leapYearsBefore(year) */\n      jump\t// in\n    tag_180:\n        /* \"Week1/BusinessHelper/DateTime.sol\":4055:4107  leapYearsBefore(year) - leapYearsBefore(ORIGIN_YEAR) */\n      tag_181\n      swap2\n      swap1\n      tag_182\n      jump\t// in\n    tag_181:\n        /* \"Week1/BusinessHelper/DateTime.sol\":4040:4107  numLeapYears = leapYearsBefore(year) - leapYearsBefore(ORIGIN_YEAR) */\n      swap1\n      pop\n        /* \"Week1/BusinessHelper/DateTime.sol\":4174:4186  numLeapYears */\n      dup1\n        /* \"Week1/BusinessHelper/DateTime.sol\":572:580  31622400 */\n      0x01e28500\n        /* \"Week1/BusinessHelper/DateTime.sol\":4151:4186  LEAP_YEAR_IN_SECONDS * numLeapYears */\n      tag_183\n      swap2\n      swap1\n      tag_164\n      jump\t// in\n    tag_183:\n        /* \"Week1/BusinessHelper/DateTime.sol\":4128:4186  secondsAccountedFor += LEAP_YEAR_IN_SECONDS * numLeapYears */\n      dup4\n      tag_184\n      swap2\n      swap1\n      tag_101\n      jump\t// in\n    tag_184:\n      swap3\n      pop\n        /* \"Week1/BusinessHelper/DateTime.sol\":4268:4280  numLeapYears */\n      dup1\n        /* \"Week1/BusinessHelper/DateTime.sol\":719:723  1970 */\n      0x07b2\n        /* \"Week1/BusinessHelper/DateTime.sol\":4247:4251  year */\n      dup4\n        /* \"Week1/BusinessHelper/DateTime.sol\":4247:4265  year - ORIGIN_YEAR */\n      tag_185\n      swap2\n      swap1\n      tag_160\n      jump\t// in\n    tag_185:\n        /* \"Week1/BusinessHelper/DateTime.sol\":4247:4280  year - ORIGIN_YEAR - numLeapYears */\n      0xffff\n      and\n      tag_186\n      swap2\n      swap1\n      tag_182\n      jump\t// in\n    tag_186:\n        /* \"Week1/BusinessHelper/DateTime.sol\":516:524  31536000 */\n      0x01e13380\n        /* \"Week1/BusinessHelper/DateTime.sol\":4228:4281  YEAR_IN_SECONDS * (year - ORIGIN_YEAR - numLeapYears) */\n      tag_187\n      swap2\n      swap1\n      tag_164\n      jump\t// in\n    tag_187:\n        /* \"Week1/BusinessHelper/DateTime.sol\":4205:4281  secondsAccountedFor += YEAR_IN_SECONDS * (year - ORIGIN_YEAR - numLeapYears) */\n      dup4\n      tag_188\n      swap2\n      swap1\n      tag_101\n      jump\t// in\n    tag_188:\n      swap3\n      pop\n        /* \"Week1/BusinessHelper/DateTime.sol\":4302:4696  while (secondsAccountedFor > timestamp) {... */\n    tag_189:\n        /* \"Week1/BusinessHelper/DateTime.sol\":4331:4340  timestamp */\n      dup5\n        /* \"Week1/BusinessHelper/DateTime.sol\":4309:4328  secondsAccountedFor */\n      dup4\n        /* \"Week1/BusinessHelper/DateTime.sol\":4309:4340  secondsAccountedFor > timestamp */\n      gt\n        /* \"Week1/BusinessHelper/DateTime.sol\":4302:4696  while (secondsAccountedFor > timestamp) {... */\n      iszero\n      tag_190\n      jumpi\n        /* \"Week1/BusinessHelper/DateTime.sol\":4373:4401  isLeapYear(uint16(year - 1)) */\n      tag_191\n        /* \"Week1/BusinessHelper/DateTime.sol\":4398:4399  1 */\n      0x01\n        /* \"Week1/BusinessHelper/DateTime.sol\":4391:4395  year */\n      dup4\n        /* \"Week1/BusinessHelper/DateTime.sol\":4391:4399  year - 1 */\n      tag_192\n      swap2\n      swap1\n      tag_160\n      jump\t// in\n    tag_192:\n        /* \"Week1/BusinessHelper/DateTime.sol\":4373:4383  isLeapYear */\n      tag_71\n        /* \"Week1/BusinessHelper/DateTime.sol\":4373:4401  isLeapYear(uint16(year - 1)) */\n      jump\t// in\n    tag_191:\n        /* \"Week1/BusinessHelper/DateTime.sol\":4369:4641  if (isLeapYear(uint16(year - 1))) {... */\n      iszero\n      tag_193\n      jumpi\n        /* \"Week1/BusinessHelper/DateTime.sol\":572:580  31622400 */\n      0x01e28500\n        /* \"Week1/BusinessHelper/DateTime.sol\":4438:4481  secondsAccountedFor -= LEAP_YEAR_IN_SECONDS */\n      dup4\n      tag_194\n      swap2\n      swap1\n      tag_182\n      jump\t// in\n    tag_194:\n      swap3\n      pop\n        /* \"Week1/BusinessHelper/DateTime.sol\":4369:4641  if (isLeapYear(uint16(year - 1))) {... */\n      jump(tag_195)\n    tag_193:\n        /* \"Week1/BusinessHelper/DateTime.sol\":516:524  31536000 */\n      0x01e13380\n        /* \"Week1/BusinessHelper/DateTime.sol\":4575:4613  secondsAccountedFor -= YEAR_IN_SECONDS */\n      dup4\n      tag_196\n      swap2\n      swap1\n      tag_182\n      jump\t// in\n    tag_196:\n      swap3\n      pop\n        /* \"Week1/BusinessHelper/DateTime.sol\":4369:4641  if (isLeapYear(uint16(year - 1))) {... */\n    tag_195:\n        /* \"Week1/BusinessHelper/DateTime.sol\":4675:4676  1 */\n      0x01\n        /* \"Week1/BusinessHelper/DateTime.sol\":4667:4676  year -= 1 */\n      dup3\n      tag_197\n      swap2\n      swap1\n      tag_160\n      jump\t// in\n    tag_197:\n      swap2\n      pop\n        /* \"Week1/BusinessHelper/DateTime.sol\":4302:4696  while (secondsAccountedFor > timestamp) {... */\n      jump(tag_189)\n    tag_190:\n        /* \"Week1/BusinessHelper/DateTime.sol\":4721:4725  year */\n      dup2\n        /* \"Week1/BusinessHelper/DateTime.sol\":4714:4725  return year */\n      swap4\n      pop\n      pop\n      pop\n      pop\n        /* \"Week1/BusinessHelper/DateTime.sol\":3744:4737  function getYear(uint timestamp) public pure returns (uint16) {... */\n      swap2\n      swap1\n      pop\n      jump\t// out\n        /* \"Week1/BusinessHelper/DateTime.sol\":4749:4880  function getMonth(uint timestamp) public pure returns (uint8) {... */\n    tag_66:\n        /* \"Week1/BusinessHelper/DateTime.sol\":4804:4809  uint8 */\n      0x00\n        /* \"Week1/BusinessHelper/DateTime.sol\":4837:4862  parseTimestamp(timestamp) */\n      tag_199\n        /* \"Week1/BusinessHelper/DateTime.sol\":4852:4861  timestamp */\n      dup3\n        /* \"Week1/BusinessHelper/DateTime.sol\":4837:4851  parseTimestamp */\n      tag_85\n        /* \"Week1/BusinessHelper/DateTime.sol\":4837:4862  parseTimestamp(timestamp) */\n      jump\t// in\n    tag_199:\n        /* \"Week1/BusinessHelper/DateTime.sol\":4837:4868  parseTimestamp(timestamp).month */\n      0x20\n      add\n      mload\n        /* \"Week1/BusinessHelper/DateTime.sol\":4830:4868  return parseTimestamp(timestamp).month */\n      swap1\n      pop\n        /* \"Week1/BusinessHelper/DateTime.sol\":4749:4880  function getMonth(uint timestamp) public pure returns (uint8) {... */\n      swap2\n      swap1\n      pop\n      jump\t// out\n        /* \"Week1/BusinessHelper/DateTime.sol\":736:1129  function isLeapYear(uint16 year) public pure returns (bool) {... */\n    tag_71:\n        /* \"Week1/BusinessHelper/DateTime.sol\":790:794  bool */\n      0x00\n        /* \"Week1/BusinessHelper/DateTime.sol\":831:832  0 */\n      dup1\n        /* \"Week1/BusinessHelper/DateTime.sol\":826:827  4 */\n      0x04\n        /* \"Week1/BusinessHelper/DateTime.sol\":819:823  year */\n      dup4\n        /* \"Week1/BusinessHelper/DateTime.sol\":819:827  year % 4 */\n      tag_201\n      swap2\n      swap1\n      tag_202\n      jump\t// in\n    tag_201:\n        /* \"Week1/BusinessHelper/DateTime.sol\":819:832  year % 4 != 0 */\n      0xffff\n      and\n      eq\n        /* \"Week1/BusinessHelper/DateTime.sol\":815:893  if (year % 4 != 0) {... */\n      tag_203\n      jumpi\n        /* \"Week1/BusinessHelper/DateTime.sol\":868:873  false */\n      0x00\n        /* \"Week1/BusinessHelper/DateTime.sol\":861:873  return false */\n      swap1\n      pop\n      jump(tag_200)\n        /* \"Week1/BusinessHelper/DateTime.sol\":815:893  if (year % 4 != 0) {... */\n    tag_203:\n        /* \"Week1/BusinessHelper/DateTime.sol\":929:930  0 */\n      0x00\n        /* \"Week1/BusinessHelper/DateTime.sol\":922:925  100 */\n      0x64\n        /* \"Week1/BusinessHelper/DateTime.sol\":915:919  year */\n      dup4\n        /* \"Week1/BusinessHelper/DateTime.sol\":915:925  year % 100 */\n      tag_204\n      swap2\n      swap1\n      tag_202\n      jump\t// in\n    tag_204:\n        /* \"Week1/BusinessHelper/DateTime.sol\":915:930  year % 100 != 0 */\n      0xffff\n      and\n      eq\n        /* \"Week1/BusinessHelper/DateTime.sol\":911:990  if (year % 100 != 0) {... */\n      tag_205\n      jumpi\n        /* \"Week1/BusinessHelper/DateTime.sol\":966:970  true */\n      0x01\n        /* \"Week1/BusinessHelper/DateTime.sol\":959:970  return true */\n      swap1\n      pop\n      jump(tag_200)\n        /* \"Week1/BusinessHelper/DateTime.sol\":911:990  if (year % 100 != 0) {... */\n    tag_205:\n        /* \"Week1/BusinessHelper/DateTime.sol\":1026:1027  0 */\n      0x00\n        /* \"Week1/BusinessHelper/DateTime.sol\":1019:1022  400 */\n      0x0190\n        /* \"Week1/BusinessHelper/DateTime.sol\":1012:1016  year */\n      dup4\n        /* \"Week1/BusinessHelper/DateTime.sol\":1012:1022  year % 400 */\n      tag_206\n      swap2\n      swap1\n      tag_202\n      jump\t// in\n    tag_206:\n        /* \"Week1/BusinessHelper/DateTime.sol\":1012:1027  year % 400 != 0 */\n      0xffff\n      and\n      eq\n        /* \"Week1/BusinessHelper/DateTime.sol\":1008:1088  if (year % 400 != 0) {... */\n      tag_207\n      jumpi\n        /* \"Week1/BusinessHelper/DateTime.sol\":1063:1068  false */\n      0x00\n        /* \"Week1/BusinessHelper/DateTime.sol\":1056:1068  return false */\n      swap1\n      pop\n      jump(tag_200)\n        /* \"Week1/BusinessHelper/DateTime.sol\":1008:1088  if (year % 400 != 0) {... */\n    tag_207:\n        /* \"Week1/BusinessHelper/DateTime.sol\":1113:1117  true */\n      0x01\n        /* \"Week1/BusinessHelper/DateTime.sol\":1106:1117  return true */\n      swap1\n      pop\n        /* \"Week1/BusinessHelper/DateTime.sol\":736:1129  function isLeapYear(uint16 year) public pure returns (bool) {... */\n    tag_200:\n      swap2\n      swap1\n      pop\n      jump\t// out\n        /* \"Week1/BusinessHelper/DateTime.sol\":1141:1304  function leapYearsBefore(uint year) public pure returns (uint) {... */\n    tag_76:\n        /* \"Week1/BusinessHelper/DateTime.sol\":1198:1202  uint */\n      0x00\n        /* \"Week1/BusinessHelper/DateTime.sol\":1231:1232  1 */\n      0x01\n        /* \"Week1/BusinessHelper/DateTime.sol\":1223:1232  year -= 1 */\n      dup3\n      tag_209\n      swap2\n      swap1\n      tag_182\n      jump\t// in\n    tag_209:\n      swap2\n      pop\n        /* \"Week1/BusinessHelper/DateTime.sol\":1289:1292  400 */\n      0x0190\n        /* \"Week1/BusinessHelper/DateTime.sol\":1282:1286  year */\n      dup3\n        /* \"Week1/BusinessHelper/DateTime.sol\":1282:1292  year / 400 */\n      tag_210\n      swap2\n      swap1\n      tag_94\n      jump\t// in\n    tag_210:\n        /* \"Week1/BusinessHelper/DateTime.sol\":1276:1279  100 */\n      0x64\n        /* \"Week1/BusinessHelper/DateTime.sol\":1269:1273  year */\n      dup4\n        /* \"Week1/BusinessHelper/DateTime.sol\":1269:1279  year / 100 */\n      tag_211\n      swap2\n      swap1\n      tag_94\n      jump\t// in\n    tag_211:\n        /* \"Week1/BusinessHelper/DateTime.sol\":1265:1266  4 */\n      0x04\n        /* \"Week1/BusinessHelper/DateTime.sol\":1258:1262  year */\n      dup5\n        /* \"Week1/BusinessHelper/DateTime.sol\":1258:1266  year / 4 */\n      tag_212\n      swap2\n      swap1\n      tag_94\n      jump\t// in\n    tag_212:\n        /* \"Week1/BusinessHelper/DateTime.sol\":1258:1279  year / 4 - year / 100 */\n      tag_213\n      swap2\n      swap1\n      tag_182\n      jump\t// in\n    tag_213:\n        /* \"Week1/BusinessHelper/DateTime.sol\":1258:1292  year / 4 - year / 100 + year / 400 */\n      tag_214\n      swap2\n      swap1\n      tag_101\n      jump\t// in\n    tag_214:\n        /* \"Week1/BusinessHelper/DateTime.sol\":1251:1292  return year / 4 - year / 100 + year / 400 */\n      swap1\n      pop\n        /* \"Week1/BusinessHelper/DateTime.sol\":1141:1304  function leapYearsBefore(uint year) public pure returns (uint) {... */\n      swap2\n      swap1\n      pop\n      jump\t// out\n        /* \"Week1/BusinessHelper/DateTime.sol\":1316:1900  function getDaysInMonth(uint8 month, uint16 year) public pure returns (uint8) {... */\n    tag_81:\n        /* \"Week1/BusinessHelper/DateTime.sol\":1387:1392  uint8 */\n      0x00\n        /* \"Week1/BusinessHelper/DateTime.sol\":1426:1427  1 */\n      0x01\n        /* \"Week1/BusinessHelper/DateTime.sol\":1417:1422  month */\n      dup4\n        /* \"Week1/BusinessHelper/DateTime.sol\":1417:1427  month == 1 */\n      0xff\n      and\n      eq\n        /* \"Week1/BusinessHelper/DateTime.sol\":1417:1441  month == 1 || month == 3 */\n      dup1\n      tag_216\n      jumpi\n      pop\n        /* \"Week1/BusinessHelper/DateTime.sol\":1440:1441  3 */\n      0x03\n        /* \"Week1/BusinessHelper/DateTime.sol\":1431:1436  month */\n      dup4\n        /* \"Week1/BusinessHelper/DateTime.sol\":1431:1441  month == 3 */\n      0xff\n      and\n      eq\n        /* \"Week1/BusinessHelper/DateTime.sol\":1417:1441  month == 1 || month == 3 */\n    tag_216:\n        /* \"Week1/BusinessHelper/DateTime.sol\":1417:1455  month == 1 || month == 3 || month == 5 */\n      dup1\n      tag_217\n      jumpi\n      pop\n        /* \"Week1/BusinessHelper/DateTime.sol\":1454:1455  5 */\n      0x05\n        /* \"Week1/BusinessHelper/DateTime.sol\":1445:1450  month */\n      dup4\n        /* \"Week1/BusinessHelper/DateTime.sol\":1445:1455  month == 5 */\n      0xff\n      and\n      eq\n        /* \"Week1/BusinessHelper/DateTime.sol\":1417:1455  month == 1 || month == 3 || month == 5 */\n    tag_217:\n        /* \"Week1/BusinessHelper/DateTime.sol\":1417:1469  month == 1 || month == 3 || month == 5 || month == 7 */\n      dup1\n      tag_218\n      jumpi\n      pop\n        /* \"Week1/BusinessHelper/DateTime.sol\":1468:1469  7 */\n      0x07\n        /* \"Week1/BusinessHelper/DateTime.sol\":1459:1464  month */\n      dup4\n        /* \"Week1/BusinessHelper/DateTime.sol\":1459:1469  month == 7 */\n      0xff\n      and\n      eq\n        /* \"Week1/BusinessHelper/DateTime.sol\":1417:1469  month == 1 || month == 3 || month == 5 || month == 7 */\n    tag_218:\n        /* \"Week1/BusinessHelper/DateTime.sol\":1417:1483  month == 1 || month == 3 || month == 5 || month == 7 || month == 8 */\n      dup1\n      tag_219\n      jumpi\n      pop\n        /* \"Week1/BusinessHelper/DateTime.sol\":1482:1483  8 */\n      0x08\n        /* \"Week1/BusinessHelper/DateTime.sol\":1473:1478  month */\n      dup4\n        /* \"Week1/BusinessHelper/DateTime.sol\":1473:1483  month == 8 */\n      0xff\n      and\n      eq\n        /* \"Week1/BusinessHelper/DateTime.sol\":1417:1483  month == 1 || month == 3 || month == 5 || month == 7 || month == 8 */\n    tag_219:\n        /* \"Week1/BusinessHelper/DateTime.sol\":1417:1498  month == 1 || month == 3 || month == 5 || month == 7 || month == 8 || month == 10 */\n      dup1\n      tag_220\n      jumpi\n      pop\n        /* \"Week1/BusinessHelper/DateTime.sol\":1496:1498  10 */\n      0x0a\n        /* \"Week1/BusinessHelper/DateTime.sol\":1487:1492  month */\n      dup4\n        /* \"Week1/BusinessHelper/DateTime.sol\":1487:1498  month == 10 */\n      0xff\n      and\n      eq\n        /* \"Week1/BusinessHelper/DateTime.sol\":1417:1498  month == 1 || month == 3 || month == 5 || month == 7 || month == 8 || month == 10 */\n    tag_220:\n        /* \"Week1/BusinessHelper/DateTime.sol\":1417:1513  month == 1 || month == 3 || month == 5 || month == 7 || month == 8 || month == 10 || month == 12 */\n      dup1\n      tag_221\n      jumpi\n      pop\n        /* \"Week1/BusinessHelper/DateTime.sol\":1511:1513  12 */\n      0x0c\n        /* \"Week1/BusinessHelper/DateTime.sol\":1502:1507  month */\n      dup4\n        /* \"Week1/BusinessHelper/DateTime.sol\":1502:1513  month == 12 */\n      0xff\n      and\n      eq\n        /* \"Week1/BusinessHelper/DateTime.sol\":1417:1513  month == 1 || month == 3 || month == 5 || month == 7 || month == 8 || month == 10 || month == 12 */\n    tag_221:\n        /* \"Week1/BusinessHelper/DateTime.sol\":1413:1889  if (month == 1 || month == 3 || month == 5 || month == 7 || month == 8 || month == 10 || month == 12) {... */\n      iszero\n      tag_222\n      jumpi\n        /* \"Week1/BusinessHelper/DateTime.sol\":1549:1551  31 */\n      0x1f\n        /* \"Week1/BusinessHelper/DateTime.sol\":1542:1551  return 31 */\n      swap1\n      pop\n      jump(tag_215)\n        /* \"Week1/BusinessHelper/DateTime.sol\":1413:1889  if (month == 1 || month == 3 || month == 5 || month == 7 || month == 8 || month == 10 || month == 12) {... */\n    tag_222:\n        /* \"Week1/BusinessHelper/DateTime.sol\":1607:1608  4 */\n      0x04\n        /* \"Week1/BusinessHelper/DateTime.sol\":1598:1603  month */\n      dup4\n        /* \"Week1/BusinessHelper/DateTime.sol\":1598:1608  month == 4 */\n      0xff\n      and\n      eq\n        /* \"Week1/BusinessHelper/DateTime.sol\":1598:1622  month == 4 || month == 6 */\n      dup1\n      tag_224\n      jumpi\n      pop\n        /* \"Week1/BusinessHelper/DateTime.sol\":1621:1622  6 */\n      0x06\n        /* \"Week1/BusinessHelper/DateTime.sol\":1612:1617  month */\n      dup4\n        /* \"Week1/BusinessHelper/DateTime.sol\":1612:1622  month == 6 */\n      0xff\n      and\n      eq\n        /* \"Week1/BusinessHelper/DateTime.sol\":1598:1622  month == 4 || month == 6 */\n    tag_224:\n        /* \"Week1/BusinessHelper/DateTime.sol\":1598:1636  month == 4 || month == 6 || month == 9 */\n      dup1\n      tag_225\n      jumpi\n      pop\n        /* \"Week1/BusinessHelper/DateTime.sol\":1635:1636  9 */\n      0x09\n        /* \"Week1/BusinessHelper/DateTime.sol\":1626:1631  month */\n      dup4\n        /* \"Week1/BusinessHelper/DateTime.sol\":1626:1636  month == 9 */\n      0xff\n      and\n      eq\n        /* \"Week1/BusinessHelper/DateTime.sol\":1598:1636  month == 4 || month == 6 || month == 9 */\n    tag_225:\n        /* \"Week1/BusinessHelper/DateTime.sol\":1598:1651  month == 4 || month == 6 || month == 9 || month == 11 */\n      dup1\n      tag_226\n      jumpi\n      pop\n        /* \"Week1/BusinessHelper/DateTime.sol\":1649:1651  11 */\n      0x0b\n        /* \"Week1/BusinessHelper/DateTime.sol\":1640:1645  month */\n      dup4\n        /* \"Week1/BusinessHelper/DateTime.sol\":1640:1651  month == 11 */\n      0xff\n      and\n      eq\n        /* \"Week1/BusinessHelper/DateTime.sol\":1598:1651  month == 4 || month == 6 || month == 9 || month == 11 */\n    tag_226:\n        /* \"Week1/BusinessHelper/DateTime.sol\":1594:1889  if (month == 4 || month == 6 || month == 9 || month == 11) {... */\n      iszero\n      tag_227\n      jumpi\n        /* \"Week1/BusinessHelper/DateTime.sol\":1687:1689  30 */\n      0x1e\n        /* \"Week1/BusinessHelper/DateTime.sol\":1680:1689  return 30 */\n      swap1\n      pop\n      jump(tag_215)\n        /* \"Week1/BusinessHelper/DateTime.sol\":1594:1889  if (month == 4 || month == 6 || month == 9 || month == 11) {... */\n    tag_227:\n        /* \"Week1/BusinessHelper/DateTime.sol\":1736:1752  isLeapYear(year) */\n      tag_229\n        /* \"Week1/BusinessHelper/DateTime.sol\":1747:1751  year */\n      dup3\n        /* \"Week1/BusinessHelper/DateTime.sol\":1736:1746  isLeapYear */\n      tag_71\n        /* \"Week1/BusinessHelper/DateTime.sol\":1736:1752  isLeapYear(year) */\n      jump\t// in\n    tag_229:\n        /* \"Week1/BusinessHelper/DateTime.sol\":1732:1889  if (isLeapYear(year)) {... */\n      iszero\n      tag_230\n      jumpi\n        /* \"Week1/BusinessHelper/DateTime.sol\":1788:1790  29 */\n      0x1d\n        /* \"Week1/BusinessHelper/DateTime.sol\":1781:1790  return 29 */\n      swap1\n      pop\n      jump(tag_215)\n        /* \"Week1/BusinessHelper/DateTime.sol\":1732:1889  if (isLeapYear(year)) {... */\n    tag_230:\n        /* \"Week1/BusinessHelper/DateTime.sol\":1867:1869  28 */\n      0x1c\n        /* \"Week1/BusinessHelper/DateTime.sol\":1860:1869  return 28 */\n      swap1\n      pop\n        /* \"Week1/BusinessHelper/DateTime.sol\":1316:1900  function getDaysInMonth(uint8 month, uint16 year) public pure returns (uint8) {... */\n    tag_215:\n      swap3\n      swap2\n      pop\n      pop\n      jump\t// out\n        /* \"Week1/BusinessHelper/DateTime.sol\":1912:3595  function parseTimestamp(uint timestamp) public pure returns (_DateTime memory dt) {... */\n    tag_85:\n        /* \"Week1/BusinessHelper/DateTime.sol\":1973:1992  _DateTime memory dt */\n      tag_232\n      tag_233\n      jump\t// in\n    tag_232:\n        /* \"Week1/BusinessHelper/DateTime.sol\":2013:2037  uint secondsAccountedFor */\n      0x00\n        /* \"Week1/BusinessHelper/DateTime.sol\":2060:2068  uint buf */\n      dup1\n        /* \"Week1/BusinessHelper/DateTime.sol\":2087:2094  uint8 i */\n      dup1\n        /* \"Week1/BusinessHelper/DateTime.sol\":2150:2168  getYear(timestamp) */\n      tag_235\n        /* \"Week1/BusinessHelper/DateTime.sol\":2158:2167  timestamp */\n      dup6\n        /* \"Week1/BusinessHelper/DateTime.sol\":2150:2157  getYear */\n      tag_61\n        /* \"Week1/BusinessHelper/DateTime.sol\":2150:2168  getYear(timestamp) */\n      jump\t// in\n    tag_235:\n        /* \"Week1/BusinessHelper/DateTime.sol\":2140:2142  dt */\n      dup5\n        /* \"Week1/BusinessHelper/DateTime.sol\":2140:2147  dt.year */\n      0x00\n      add\n        /* \"Week1/BusinessHelper/DateTime.sol\":2140:2168  dt.year = getYear(timestamp) */\n      swap1\n      0xffff\n      and\n      swap1\n      dup2\n      0xffff\n      and\n      dup2\n      mstore\n      pop\n      pop\n        /* \"Week1/BusinessHelper/DateTime.sol\":2220:2248  leapYearsBefore(ORIGIN_YEAR) */\n      tag_236\n        /* \"Week1/BusinessHelper/DateTime.sol\":719:723  1970 */\n      0x07b2\n        /* \"Week1/BusinessHelper/DateTime.sol\":2220:2248  leapYearsBefore(ORIGIN_YEAR) */\n      0xffff\n      and\n        /* \"Week1/BusinessHelper/DateTime.sol\":2220:2235  leapYearsBefore */\n      tag_76\n        /* \"Week1/BusinessHelper/DateTime.sol\":2220:2248  leapYearsBefore(ORIGIN_YEAR) */\n      jump\t// in\n    tag_236:\n        /* \"Week1/BusinessHelper/DateTime.sol\":2193:2217  leapYearsBefore(dt.year) */\n      tag_237\n        /* \"Week1/BusinessHelper/DateTime.sol\":2209:2211  dt */\n      dup6\n        /* \"Week1/BusinessHelper/DateTime.sol\":2209:2216  dt.year */\n      0x00\n      add\n      mload\n        /* \"Week1/BusinessHelper/DateTime.sol\":2193:2217  leapYearsBefore(dt.year) */\n      0xffff\n      and\n        /* \"Week1/BusinessHelper/DateTime.sol\":2193:2208  leapYearsBefore */\n      tag_76\n        /* \"Week1/BusinessHelper/DateTime.sol\":2193:2217  leapYearsBefore(dt.year) */\n      jump\t// in\n    tag_237:\n        /* \"Week1/BusinessHelper/DateTime.sol\":2193:2248  leapYearsBefore(dt.year) - leapYearsBefore(ORIGIN_YEAR) */\n      tag_238\n      swap2\n      swap1\n      tag_182\n      jump\t// in\n    tag_238:\n        /* \"Week1/BusinessHelper/DateTime.sol\":2187:2248  buf = leapYearsBefore(dt.year) - leapYearsBefore(ORIGIN_YEAR) */\n      swap2\n      pop\n        /* \"Week1/BusinessHelper/DateTime.sol\":2315:2318  buf */\n      dup2\n        /* \"Week1/BusinessHelper/DateTime.sol\":572:580  31622400 */\n      0x01e28500\n        /* \"Week1/BusinessHelper/DateTime.sol\":2292:2318  LEAP_YEAR_IN_SECONDS * buf */\n      tag_239\n      swap2\n      swap1\n      tag_164\n      jump\t// in\n    tag_239:\n        /* \"Week1/BusinessHelper/DateTime.sol\":2269:2318  secondsAccountedFor += LEAP_YEAR_IN_SECONDS * buf */\n      dup4\n      tag_240\n      swap2\n      swap1\n      tag_101\n      jump\t// in\n    tag_240:\n      swap3\n      pop\n        /* \"Week1/BusinessHelper/DateTime.sol\":2403:2406  buf */\n      dup2\n        /* \"Week1/BusinessHelper/DateTime.sol\":719:723  1970 */\n      0x07b2\n        /* \"Week1/BusinessHelper/DateTime.sol\":2379:2381  dt */\n      dup6\n        /* \"Week1/BusinessHelper/DateTime.sol\":2379:2386  dt.year */\n      0x00\n      add\n      mload\n        /* \"Week1/BusinessHelper/DateTime.sol\":2379:2400  dt.year - ORIGIN_YEAR */\n      tag_241\n      swap2\n      swap1\n      tag_160\n      jump\t// in\n    tag_241:\n        /* \"Week1/BusinessHelper/DateTime.sol\":2379:2406  dt.year - ORIGIN_YEAR - buf */\n      0xffff\n      and\n      tag_242\n      swap2\n      swap1\n      tag_182\n      jump\t// in\n    tag_242:\n        /* \"Week1/BusinessHelper/DateTime.sol\":516:524  31536000 */\n      0x01e13380\n        /* \"Week1/BusinessHelper/DateTime.sol\":2360:2407  YEAR_IN_SECONDS * (dt.year - ORIGIN_YEAR - buf) */\n      tag_243\n      swap2\n      swap1\n      tag_164\n      jump\t// in\n    tag_243:\n        /* \"Week1/BusinessHelper/DateTime.sol\":2337:2407  secondsAccountedFor += YEAR_IN_SECONDS * (dt.year - ORIGIN_YEAR - buf) */\n      dup4\n      tag_244\n      swap2\n      swap1\n      tag_101\n      jump\t// in\n    tag_244:\n      swap3\n      pop\n        /* \"Week1/BusinessHelper/DateTime.sol\":2454:2473  uint secondsInMonth */\n      0x00\n        /* \"Week1/BusinessHelper/DateTime.sol\":2501:2502  1 */\n      0x01\n        /* \"Week1/BusinessHelper/DateTime.sol\":2497:2502  i = 1 */\n      swap2\n      pop\n        /* \"Week1/BusinessHelper/DateTime.sol\":2492:2884  for (i = 1; i <= 12; i++) {... */\n    tag_245:\n        /* \"Week1/BusinessHelper/DateTime.sol\":2509:2511  12 */\n      0x0c\n        /* \"Week1/BusinessHelper/DateTime.sol\":2504:2505  i */\n      dup3\n        /* \"Week1/BusinessHelper/DateTime.sol\":2504:2511  i <= 12 */\n      0xff\n      and\n      gt\n        /* \"Week1/BusinessHelper/DateTime.sol\":2492:2884  for (i = 1; i <= 12; i++) {... */\n      tag_246\n      jumpi\n        /* \"Week1/BusinessHelper/DateTime.sol\":2579:2605  getDaysInMonth(i, dt.year) */\n      tag_248\n        /* \"Week1/BusinessHelper/DateTime.sol\":2594:2595  i */\n      dup3\n        /* \"Week1/BusinessHelper/DateTime.sol\":2597:2599  dt */\n      dup7\n        /* \"Week1/BusinessHelper/DateTime.sol\":2597:2604  dt.year */\n      0x00\n      add\n      mload\n        /* \"Week1/BusinessHelper/DateTime.sol\":2579:2593  getDaysInMonth */\n      tag_81\n        /* \"Week1/BusinessHelper/DateTime.sol\":2579:2605  getDaysInMonth(i, dt.year) */\n      jump\t// in\n    tag_248:\n        /* \"Week1/BusinessHelper/DateTime.sol\":2562:2605  DAY_IN_SECONDS * getDaysInMonth(i, dt.year) */\n      0xff\n      and\n        /* \"Week1/BusinessHelper/DateTime.sol\":468:473  86400 */\n      0x015180\n        /* \"Week1/BusinessHelper/DateTime.sol\":2562:2605  DAY_IN_SECONDS * getDaysInMonth(i, dt.year) */\n      tag_249\n      swap2\n      swap1\n      tag_164\n      jump\t// in\n    tag_249:\n        /* \"Week1/BusinessHelper/DateTime.sol\":2545:2605  secondsInMonth = DAY_IN_SECONDS * getDaysInMonth(i, dt.year) */\n      swap1\n      pop\n        /* \"Week1/BusinessHelper/DateTime.sol\":2675:2684  timestamp */\n      dup6\n        /* \"Week1/BusinessHelper/DateTime.sol\":2653:2672  secondsAccountedFor */\n      dup5\n        /* \"Week1/BusinessHelper/DateTime.sol\":2636:2650  secondsInMonth */\n      dup3\n        /* \"Week1/BusinessHelper/DateTime.sol\":2636:2672  secondsInMonth + secondsAccountedFor */\n      tag_250\n      swap2\n      swap1\n      tag_101\n      jump\t// in\n    tag_250:\n        /* \"Week1/BusinessHelper/DateTime.sol\":2636:2684  secondsInMonth + secondsAccountedFor > timestamp */\n      gt\n        /* \"Week1/BusinessHelper/DateTime.sol\":2632:2801  if (secondsInMonth + secondsAccountedFor > timestamp) {... */\n      iszero\n      tag_251\n      jumpi\n        /* \"Week1/BusinessHelper/DateTime.sol\":2732:2733  i */\n      dup2\n        /* \"Week1/BusinessHelper/DateTime.sol\":2721:2723  dt */\n      dup6\n        /* \"Week1/BusinessHelper/DateTime.sol\":2721:2729  dt.month */\n      0x20\n      add\n        /* \"Week1/BusinessHelper/DateTime.sol\":2721:2733  dt.month = i */\n      swap1\n      0xff\n      and\n      swap1\n      dup2\n      0xff\n      and\n      dup2\n      mstore\n      pop\n      pop\n        /* \"Week1/BusinessHelper/DateTime.sol\":2768:2773  break */\n      jump(tag_246)\n        /* \"Week1/BusinessHelper/DateTime.sol\":2632:2801  if (secondsInMonth + secondsAccountedFor > timestamp) {... */\n    tag_251:\n        /* \"Week1/BusinessHelper/DateTime.sol\":2850:2864  secondsInMonth */\n      dup1\n        /* \"Week1/BusinessHelper/DateTime.sol\":2827:2864  secondsAccountedFor += secondsInMonth */\n      dup5\n      tag_252\n      swap2\n      swap1\n      tag_101\n      jump\t// in\n    tag_252:\n      swap4\n      pop\n        /* \"Week1/BusinessHelper/DateTime.sol\":2513:2516  i++ */\n      dup2\n      dup1\n      tag_253\n      swap1\n      tag_254\n      jump\t// in\n    tag_253:\n      swap3\n      pop\n      pop\n        /* \"Week1/BusinessHelper/DateTime.sol\":2492:2884  for (i = 1; i <= 12; i++) {... */\n      jump(tag_245)\n    tag_246:\n        /* \"Week1/BusinessHelper/DateTime.sol\":2937:2938  1 */\n      0x01\n        /* \"Week1/BusinessHelper/DateTime.sol\":2933:2938  i = 1 */\n      swap2\n      pop\n        /* \"Week1/BusinessHelper/DateTime.sol\":2928:3262  for (i = 1; i <= getDaysInMonth(dt.month, dt.year); i++) {... */\n    tag_255:\n        /* \"Week1/BusinessHelper/DateTime.sol\":2945:2978  getDaysInMonth(dt.month, dt.year) */\n      tag_258\n        /* \"Week1/BusinessHelper/DateTime.sol\":2960:2962  dt */\n      dup6\n        /* \"Week1/BusinessHelper/DateTime.sol\":2960:2968  dt.month */\n      0x20\n      add\n      mload\n        /* \"Week1/BusinessHelper/DateTime.sol\":2970:2972  dt */\n      dup7\n        /* \"Week1/BusinessHelper/DateTime.sol\":2970:2977  dt.year */\n      0x00\n      add\n      mload\n        /* \"Week1/BusinessHelper/DateTime.sol\":2945:2959  getDaysInMonth */\n      tag_81\n        /* \"Week1/BusinessHelper/DateTime.sol\":2945:2978  getDaysInMonth(dt.month, dt.year) */\n      jump\t// in\n    tag_258:\n        /* \"Week1/BusinessHelper/DateTime.sol\":2940:2978  i <= getDaysInMonth(dt.month, dt.year) */\n      0xff\n      and\n        /* \"Week1/BusinessHelper/DateTime.sol\":2940:2941  i */\n      dup3\n        /* \"Week1/BusinessHelper/DateTime.sol\":2940:2978  i <= getDaysInMonth(dt.month, dt.year) */\n      0xff\n      and\n      gt\n        /* \"Week1/BusinessHelper/DateTime.sol\":2928:3262  for (i = 1; i <= getDaysInMonth(dt.month, dt.year); i++) {... */\n      tag_256\n      jumpi\n        /* \"Week1/BusinessHelper/DateTime.sol\":3055:3064  timestamp */\n      dup6\n        /* \"Week1/BusinessHelper/DateTime.sol\":3033:3052  secondsAccountedFor */\n      dup5\n        /* \"Week1/BusinessHelper/DateTime.sol\":468:473  86400 */\n      0x015180\n        /* \"Week1/BusinessHelper/DateTime.sol\":3016:3052  DAY_IN_SECONDS + secondsAccountedFor */\n      tag_259\n      swap2\n      swap1\n      tag_101\n      jump\t// in\n    tag_259:\n        /* \"Week1/BusinessHelper/DateTime.sol\":3016:3064  DAY_IN_SECONDS + secondsAccountedFor > timestamp */\n      gt\n        /* \"Week1/BusinessHelper/DateTime.sol\":3012:3179  if (DAY_IN_SECONDS + secondsAccountedFor > timestamp) {... */\n      iszero\n      tag_260\n      jumpi\n        /* \"Week1/BusinessHelper/DateTime.sol\":3110:3111  i */\n      dup2\n        /* \"Week1/BusinessHelper/DateTime.sol\":3101:3103  dt */\n      dup6\n        /* \"Week1/BusinessHelper/DateTime.sol\":3101:3107  dt.day */\n      0x40\n      add\n        /* \"Week1/BusinessHelper/DateTime.sol\":3101:3111  dt.day = i */\n      swap1\n      0xff\n      and\n      swap1\n      dup2\n      0xff\n      and\n      dup2\n      mstore\n      pop\n      pop\n        /* \"Week1/BusinessHelper/DateTime.sol\":3146:3151  break */\n      jump(tag_256)\n        /* \"Week1/BusinessHelper/DateTime.sol\":3012:3179  if (DAY_IN_SECONDS + secondsAccountedFor > timestamp) {... */\n    tag_260:\n        /* \"Week1/BusinessHelper/DateTime.sol\":468:473  86400 */\n      0x015180\n        /* \"Week1/BusinessHelper/DateTime.sol\":3205:3242  secondsAccountedFor += DAY_IN_SECONDS */\n      dup5\n      tag_261\n      swap2\n      swap1\n      tag_101\n      jump\t// in\n    tag_261:\n      swap4\n      pop\n        /* \"Week1/BusinessHelper/DateTime.sol\":2980:2983  i++ */\n      dup2\n      dup1\n      tag_262\n      swap1\n      tag_254\n      jump\t// in\n    tag_262:\n      swap3\n      pop\n      pop\n        /* \"Week1/BusinessHelper/DateTime.sol\":2928:3262  for (i = 1; i <= getDaysInMonth(dt.month, dt.year); i++) {... */\n      jump(tag_255)\n    tag_256:\n        /* \"Week1/BusinessHelper/DateTime.sol\":3317:3335  getHour(timestamp) */\n      tag_263\n        /* \"Week1/BusinessHelper/DateTime.sol\":3325:3334  timestamp */\n      dup7\n        /* \"Week1/BusinessHelper/DateTime.sol\":3317:3324  getHour */\n      tag_23\n        /* \"Week1/BusinessHelper/DateTime.sol\":3317:3335  getHour(timestamp) */\n      jump\t// in\n    tag_263:\n        /* \"Week1/BusinessHelper/DateTime.sol\":3307:3309  dt */\n      dup6\n        /* \"Week1/BusinessHelper/DateTime.sol\":3307:3314  dt.hour */\n      0x60\n      add\n        /* \"Week1/BusinessHelper/DateTime.sol\":3307:3335  dt.hour = getHour(timestamp) */\n      swap1\n      0xff\n      and\n      swap1\n      dup2\n      0xff\n      and\n      dup2\n      mstore\n      pop\n      pop\n        /* \"Week1/BusinessHelper/DateTime.sol\":3395:3415  getMinute(timestamp) */\n      tag_264\n        /* \"Week1/BusinessHelper/DateTime.sol\":3405:3414  timestamp */\n      dup7\n        /* \"Week1/BusinessHelper/DateTime.sol\":3395:3404  getMinute */\n      tag_90\n        /* \"Week1/BusinessHelper/DateTime.sol\":3395:3415  getMinute(timestamp) */\n      jump\t// in\n    tag_264:\n        /* \"Week1/BusinessHelper/DateTime.sol\":3383:3385  dt */\n      dup6\n        /* \"Week1/BusinessHelper/DateTime.sol\":3383:3392  dt.minute */\n      0x80\n      add\n        /* \"Week1/BusinessHelper/DateTime.sol\":3383:3415  dt.minute = getMinute(timestamp) */\n      swap1\n      0xff\n      and\n      swap1\n      dup2\n      0xff\n      and\n      dup2\n      mstore\n      pop\n      pop\n        /* \"Week1/BusinessHelper/DateTime.sol\":3475:3495  getSecond(timestamp) */\n      tag_265\n        /* \"Week1/BusinessHelper/DateTime.sol\":3485:3494  timestamp */\n      dup7\n        /* \"Week1/BusinessHelper/DateTime.sol\":3475:3484  getSecond */\n      tag_47\n        /* \"Week1/BusinessHelper/DateTime.sol\":3475:3495  getSecond(timestamp) */\n      jump\t// in\n    tag_265:\n        /* \"Week1/BusinessHelper/DateTime.sol\":3463:3465  dt */\n      dup6\n        /* \"Week1/BusinessHelper/DateTime.sol\":3463:3472  dt.second */\n      0xa0\n      add\n        /* \"Week1/BusinessHelper/DateTime.sol\":3463:3495  dt.second = getSecond(timestamp) */\n      swap1\n      0xff\n      and\n      swap1\n      dup2\n      0xff\n      and\n      dup2\n      mstore\n      pop\n      pop\n        /* \"Week1/BusinessHelper/DateTime.sol\":3562:3583  getWeekday(timestamp) */\n      tag_266\n        /* \"Week1/BusinessHelper/DateTime.sol\":3573:3582  timestamp */\n      dup7\n        /* \"Week1/BusinessHelper/DateTime.sol\":3562:3572  getWeekday */\n      tag_28\n        /* \"Week1/BusinessHelper/DateTime.sol\":3562:3583  getWeekday(timestamp) */\n      jump\t// in\n    tag_266:\n        /* \"Week1/BusinessHelper/DateTime.sol\":3549:3551  dt */\n      dup6\n        /* \"Week1/BusinessHelper/DateTime.sol\":3549:3559  dt.weekday */\n      0xc0\n      add\n        /* \"Week1/BusinessHelper/DateTime.sol\":3549:3583  dt.weekday = getWeekday(timestamp) */\n      swap1\n      0xff\n      and\n      swap1\n      dup2\n      0xff\n      and\n      dup2\n      mstore\n      pop\n      pop\n        /* \"Week1/BusinessHelper/DateTime.sol\":1994:3595  {... */\n      pop\n      pop\n      pop\n      pop\n        /* \"Week1/BusinessHelper/DateTime.sol\":1912:3595  function parseTimestamp(uint timestamp) public pure returns (_DateTime memory dt) {... */\n      swap2\n      swap1\n      pop\n      jump\t// out\n        /* \"Week1/BusinessHelper/DateTime.sol\":5175:5304  function getMinute(uint timestamp) public pure returns (uint8) {... */\n    tag_90:\n        /* \"Week1/BusinessHelper/DateTime.sol\":5231:5236  uint8 */\n      0x00\n        /* \"Week1/BusinessHelper/DateTime.sol\":5289:5291  60 */\n      0x3c\n        /* \"Week1/BusinessHelper/DateTime.sol\":5283:5285  60 */\n      dup1\n        /* \"Week1/BusinessHelper/DateTime.sol\":5271:5280  timestamp */\n      dup4\n        /* \"Week1/BusinessHelper/DateTime.sol\":5271:5285  timestamp / 60 */\n      tag_268\n      swap2\n      swap1\n      tag_94\n      jump\t// in\n    tag_268:\n        /* \"Week1/BusinessHelper/DateTime.sol\":5270:5291  (timestamp / 60) % 60 */\n      tag_269\n      swap2\n      swap1\n      tag_97\n      jump\t// in\n    tag_269:\n        /* \"Week1/BusinessHelper/DateTime.sol\":5257:5292  return uint8((timestamp / 60) % 60) */\n      swap1\n      pop\n        /* \"Week1/BusinessHelper/DateTime.sol\":5175:5304  function getMinute(uint timestamp) public pure returns (uint8) {... */\n      swap2\n      swap1\n      pop\n      jump\t// out\n    tag_125:\n      mload(0x40)\n      dup1\n      0x0180\n      add\n      0x40\n      mstore\n      dup1\n      0x0c\n      swap1\n      0x20\n      dup3\n      mul\n      dup1\n      calldatasize\n      dup4\n      calldatacopy\n      dup1\n      dup3\n      add\n      swap2\n      pop\n      pop\n      swap1\n      pop\n      pop\n      swap1\n      jump\t// out\n    tag_233:\n      mload(0x40)\n      dup1\n      0xe0\n      add\n      0x40\n      mstore\n      dup1\n      and(0xffff, 0x00)\n      dup2\n      mstore\n      0x20\n      add\n      and(0xff, 0x00)\n      dup2\n      mstore\n      0x20\n      add\n      and(0xff, 0x00)\n      dup2\n      mstore\n      0x20\n      add\n      and(0xff, 0x00)\n      dup2\n      mstore\n      0x20\n      add\n      and(0xff, 0x00)\n      dup2\n      mstore\n      0x20\n      add\n      and(0xff, 0x00)\n      dup2\n      mstore\n      0x20\n      add\n      and(0xff, 0x00)\n      dup2\n      mstore\n      pop\n      swap1\n      jump\t// out\n        /* \"#utility.yul\":88:205   */\n    tag_271:\n        /* \"#utility.yul\":197:198   */\n      0x00\n        /* \"#utility.yul\":194:195   */\n      dup1\n        /* \"#utility.yul\":187:199   */\n      revert\n        /* \"#utility.yul\":334:411   */\n    tag_273:\n        /* \"#utility.yul\":371:378   */\n      0x00\n        /* \"#utility.yul\":400:405   */\n      dup2\n        /* \"#utility.yul\":389:405   */\n      swap1\n      pop\n        /* \"#utility.yul\":334:411   */\n      swap2\n      swap1\n      pop\n      jump\t// out\n        /* \"#utility.yul\":417:539   */\n    tag_274:\n        /* \"#utility.yul\":490:514   */\n      tag_298\n        /* \"#utility.yul\":508:513   */\n      dup2\n        /* \"#utility.yul\":490:514   */\n      tag_273\n      jump\t// in\n    tag_298:\n        /* \"#utility.yul\":483:488   */\n      dup2\n        /* \"#utility.yul\":480:515   */\n      eq\n        /* \"#utility.yul\":470:533   */\n      tag_299\n      jumpi\n        /* \"#utility.yul\":529:530   */\n      0x00\n        /* \"#utility.yul\":526:527   */\n      dup1\n        /* \"#utility.yul\":519:531   */\n      revert\n        /* \"#utility.yul\":470:533   */\n    tag_299:\n        /* \"#utility.yul\":417:539   */\n      pop\n      jump\t// out\n        /* \"#utility.yul\":545:684   */\n    tag_275:\n        /* \"#utility.yul\":591:596   */\n      0x00\n        /* \"#utility.yul\":629:635   */\n      dup2\n        /* \"#utility.yul\":616:636   */\n      calldataload\n        /* \"#utility.yul\":607:636   */\n      swap1\n      pop\n        /* \"#utility.yul\":645:678   */\n      tag_301\n        /* \"#utility.yul\":672:677   */\n      dup2\n        /* \"#utility.yul\":645:678   */\n      tag_274\n      jump\t// in\n    tag_301:\n        /* \"#utility.yul\":545:684   */\n      swap3\n      swap2\n      pop\n      pop\n      jump\t// out\n        /* \"#utility.yul\":690:1019   */\n    tag_22:\n        /* \"#utility.yul\":749:755   */\n      0x00\n        /* \"#utility.yul\":798:800   */\n      0x20\n        /* \"#utility.yul\":786:795   */\n      dup3\n        /* \"#utility.yul\":777:784   */\n      dup5\n        /* \"#utility.yul\":773:796   */\n      sub\n        /* \"#utility.yul\":769:801   */\n      slt\n        /* \"#utility.yul\":766:885   */\n      iszero\n      tag_303\n      jumpi\n        /* \"#utility.yul\":804:883   */\n      tag_304\n      tag_271\n      jump\t// in\n    tag_304:\n        /* \"#utility.yul\":766:885   */\n    tag_303:\n        /* \"#utility.yul\":924:925   */\n      0x00\n        /* \"#utility.yul\":949:1002   */\n      tag_305\n        /* \"#utility.yul\":994:1001   */\n      dup5\n        /* \"#utility.yul\":985:991   */\n      dup3\n        /* \"#utility.yul\":974:983   */\n      dup6\n        /* \"#utility.yul\":970:992   */\n      add\n        /* \"#utility.yul\":949:1002   */\n      tag_275\n      jump\t// in\n    tag_305:\n        /* \"#utility.yul\":939:1002   */\n      swap2\n      pop\n        /* \"#utility.yul\":895:1012   */\n      pop\n        /* \"#utility.yul\":690:1019   */\n      swap3\n      swap2\n      pop\n      pop\n      jump\t// out\n        /* \"#utility.yul\":1025:1111   */\n    tag_276:\n        /* \"#utility.yul\":1060:1067   */\n      0x00\n        /* \"#utility.yul\":1100:1104   */\n      0xff\n        /* \"#utility.yul\":1093:1098   */\n      dup3\n        /* \"#utility.yul\":1089:1105   */\n      and\n        /* \"#utility.yul\":1078:1105   */\n      swap1\n      pop\n        /* \"#utility.yul\":1025:1111   */\n      swap2\n      swap1\n      pop\n      jump\t// out\n        /* \"#utility.yul\":1117:1237   */\n    tag_277:\n        /* \"#utility.yul\":1208:1230   */\n      tag_308\n        /* \"#utility.yul\":1224:1229   */\n      dup2\n        /* \"#utility.yul\":1208:1230   */\n      tag_276\n      jump\t// in\n    tag_308:\n        /* \"#utility.yul\":1203:1206   */\n      dup3\n        /* \"#utility.yul\":1196:1231   */\n      mstore\n        /* \"#utility.yul\":1117:1237   */\n      pop\n      pop\n      jump\t// out\n        /* \"#utility.yul\":1243:1473   */\n    tag_25:\n        /* \"#utility.yul\":1340:1344   */\n      0x00\n        /* \"#utility.yul\":1378:1380   */\n      0x20\n        /* \"#utility.yul\":1367:1376   */\n      dup3\n        /* \"#utility.yul\":1363:1381   */\n      add\n        /* \"#utility.yul\":1355:1381   */\n      swap1\n      pop\n        /* \"#utility.yul\":1391:1466   */\n      tag_310\n        /* \"#utility.yul\":1463:1464   */\n      0x00\n        /* \"#utility.yul\":1452:1461   */\n      dup4\n        /* \"#utility.yul\":1448:1465   */\n      add\n        /* \"#utility.yul\":1439:1445   */\n      dup5\n        /* \"#utility.yul\":1391:1466   */\n      tag_277\n      jump\t// in\n    tag_310:\n        /* \"#utility.yul\":1243:1473   */\n      swap3\n      swap2\n      pop\n      pop\n      jump\t// out\n        /* \"#utility.yul\":1479:1568   */\n    tag_278:\n        /* \"#utility.yul\":1515:1522   */\n      0x00\n        /* \"#utility.yul\":1555:1561   */\n      0xffff\n        /* \"#utility.yul\":1548:1553   */\n      dup3\n        /* \"#utility.yul\":1544:1562   */\n      and\n        /* \"#utility.yul\":1533:1562   */\n      swap1\n      pop\n        /* \"#utility.yul\":1479:1568   */\n      swap2\n      swap1\n      pop\n      jump\t// out\n        /* \"#utility.yul\":1574:1694   */\n    tag_279:\n        /* \"#utility.yul\":1646:1669   */\n      tag_313\n        /* \"#utility.yul\":1663:1668   */\n      dup2\n        /* \"#utility.yul\":1646:1669   */\n      tag_278\n      jump\t// in\n    tag_313:\n        /* \"#utility.yul\":1639:1644   */\n      dup2\n        /* \"#utility.yul\":1636:1670   */\n      eq\n        /* \"#utility.yul\":1626:1688   */\n      tag_314\n      jumpi\n        /* \"#utility.yul\":1684:1685   */\n      0x00\n        /* \"#utility.yul\":1681:1682   */\n      dup1\n        /* \"#utility.yul\":1674:1686   */\n      revert\n        /* \"#utility.yul\":1626:1688   */\n    tag_314:\n        /* \"#utility.yul\":1574:1694   */\n      pop\n      jump\t// out\n        /* \"#utility.yul\":1700:1837   */\n    tag_280:\n        /* \"#utility.yul\":1745:1750   */\n      0x00\n        /* \"#utility.yul\":1783:1789   */\n      dup2\n        /* \"#utility.yul\":1770:1790   */\n      calldataload\n        /* \"#utility.yul\":1761:1790   */\n      swap1\n      pop\n        /* \"#utility.yul\":1799:1831   */\n      tag_316\n        /* \"#utility.yul\":1825:1830   */\n      dup2\n        /* \"#utility.yul\":1799:1831   */\n      tag_279\n      jump\t// in\n    tag_316:\n        /* \"#utility.yul\":1700:1837   */\n      swap3\n      swap2\n      pop\n      pop\n      jump\t// out\n        /* \"#utility.yul\":1843:1961   */\n    tag_281:\n        /* \"#utility.yul\":1914:1936   */\n      tag_318\n        /* \"#utility.yul\":1930:1935   */\n      dup2\n        /* \"#utility.yul\":1914:1936   */\n      tag_276\n      jump\t// in\n    tag_318:\n        /* \"#utility.yul\":1907:1912   */\n      dup2\n        /* \"#utility.yul\":1904:1937   */\n      eq\n        /* \"#utility.yul\":1894:1955   */\n      tag_319\n      jumpi\n        /* \"#utility.yul\":1951:1952   */\n      0x00\n        /* \"#utility.yul\":1948:1949   */\n      dup1\n        /* \"#utility.yul\":1941:1953   */\n      revert\n        /* \"#utility.yul\":1894:1955   */\n    tag_319:\n        /* \"#utility.yul\":1843:1961   */\n      pop\n      jump\t// out\n        /* \"#utility.yul\":1967:2102   */\n    tag_282:\n        /* \"#utility.yul\":2011:2016   */\n      0x00\n        /* \"#utility.yul\":2049:2055   */\n      dup2\n        /* \"#utility.yul\":2036:2056   */\n      calldataload\n        /* \"#utility.yul\":2027:2056   */\n      swap1\n      pop\n        /* \"#utility.yul\":2065:2096   */\n      tag_321\n        /* \"#utility.yul\":2090:2095   */\n      dup2\n        /* \"#utility.yul\":2065:2096   */\n      tag_281\n      jump\t// in\n    tag_321:\n        /* \"#utility.yul\":1967:2102   */\n      swap3\n      swap2\n      pop\n      pop\n      jump\t// out\n        /* \"#utility.yul\":2108:3001   */\n    tag_32:\n        /* \"#utility.yul\":2194:2200   */\n      0x00\n        /* \"#utility.yul\":2202:2208   */\n      dup1\n        /* \"#utility.yul\":2210:2216   */\n      0x00\n        /* \"#utility.yul\":2218:2224   */\n      dup1\n        /* \"#utility.yul\":2226:2232   */\n      0x00\n        /* \"#utility.yul\":2275:2278   */\n      0xa0\n        /* \"#utility.yul\":2263:2272   */\n      dup7\n        /* \"#utility.yul\":2254:2261   */\n      dup9\n        /* \"#utility.yul\":2250:2273   */\n      sub\n        /* \"#utility.yul\":2246:2279   */\n      slt\n        /* \"#utility.yul\":2243:2363   */\n      iszero\n      tag_323\n      jumpi\n        /* \"#utility.yul\":2282:2361   */\n      tag_324\n      tag_271\n      jump\t// in\n    tag_324:\n        /* \"#utility.yul\":2243:2363   */\n    tag_323:\n        /* \"#utility.yul\":2402:2403   */\n      0x00\n        /* \"#utility.yul\":2427:2479   */\n      tag_325\n        /* \"#utility.yul\":2471:2478   */\n      dup9\n        /* \"#utility.yul\":2462:2468   */\n      dup3\n        /* \"#utility.yul\":2451:2460   */\n      dup10\n        /* \"#utility.yul\":2447:2469   */\n      add\n        /* \"#utility.yul\":2427:2479   */\n      tag_280\n      jump\t// in\n    tag_325:\n        /* \"#utility.yul\":2417:2479   */\n      swap6\n      pop\n        /* \"#utility.yul\":2373:2489   */\n      pop\n        /* \"#utility.yul\":2528:2530   */\n      0x20\n        /* \"#utility.yul\":2554:2605   */\n      tag_326\n        /* \"#utility.yul\":2597:2604   */\n      dup9\n        /* \"#utility.yul\":2588:2594   */\n      dup3\n        /* \"#utility.yul\":2577:2586   */\n      dup10\n        /* \"#utility.yul\":2573:2595   */\n      add\n        /* \"#utility.yul\":2554:2605   */\n      tag_282\n      jump\t// in\n    tag_326:\n        /* \"#utility.yul\":2544:2605   */\n      swap5\n      pop\n        /* \"#utility.yul\":2499:2615   */\n      pop\n        /* \"#utility.yul\":2654:2656   */\n      0x40\n        /* \"#utility.yul\":2680:2731   */\n      tag_327\n        /* \"#utility.yul\":2723:2730   */\n      dup9\n        /* \"#utility.yul\":2714:2720   */\n      dup3\n        /* \"#utility.yul\":2703:2712   */\n      dup10\n        /* \"#utility.yul\":2699:2721   */\n      add\n        /* \"#utility.yul\":2680:2731   */\n      tag_282\n      jump\t// in\n    tag_327:\n        /* \"#utility.yul\":2670:2731   */\n      swap4\n      pop\n        /* \"#utility.yul\":2625:2741   */\n      pop\n        /* \"#utility.yul\":2780:2782   */\n      0x60\n        /* \"#utility.yul\":2806:2857   */\n      tag_328\n        /* \"#utility.yul\":2849:2856   */\n      dup9\n        /* \"#utility.yul\":2840:2846   */\n      dup3\n        /* \"#utility.yul\":2829:2838   */\n      dup10\n        /* \"#utility.yul\":2825:2847   */\n      add\n        /* \"#utility.yul\":2806:2857   */\n      tag_282\n      jump\t// in\n    tag_328:\n        /* \"#utility.yul\":2796:2857   */\n      swap3\n      pop\n        /* \"#utility.yul\":2751:2867   */\n      pop\n        /* \"#utility.yul\":2906:2909   */\n      0x80\n        /* \"#utility.yul\":2933:2984   */\n      tag_329\n        /* \"#utility.yul\":2976:2983   */\n      dup9\n        /* \"#utility.yul\":2967:2973   */\n      dup3\n        /* \"#utility.yul\":2956:2965   */\n      dup10\n        /* \"#utility.yul\":2952:2974   */\n      add\n        /* \"#utility.yul\":2933:2984   */\n      tag_282\n      jump\t// in\n    tag_329:\n        /* \"#utility.yul\":2923:2984   */\n      swap2\n      pop\n        /* \"#utility.yul\":2877:2994   */\n      pop\n        /* \"#utility.yul\":2108:3001   */\n      swap3\n      swap6\n      pop\n      swap3\n      swap6\n      swap1\n      swap4\n      pop\n      jump\t// out\n        /* \"#utility.yul\":3007:3133   */\n    tag_283:\n        /* \"#utility.yul\":3102:3126   */\n      tag_331\n        /* \"#utility.yul\":3120:3125   */\n      dup2\n        /* \"#utility.yul\":3102:3126   */\n      tag_273\n      jump\t// in\n    tag_331:\n        /* \"#utility.yul\":3097:3100   */\n      dup3\n        /* \"#utility.yul\":3090:3127   */\n      mstore\n        /* \"#utility.yul\":3007:3133   */\n      pop\n      pop\n      jump\t// out\n        /* \"#utility.yul\":3139:3377   */\n    tag_35:\n        /* \"#utility.yul\":3240:3244   */\n      0x00\n        /* \"#utility.yul\":3278:3280   */\n      0x20\n        /* \"#utility.yul\":3267:3276   */\n      dup3\n        /* \"#utility.yul\":3263:3281   */\n      add\n        /* \"#utility.yul\":3255:3281   */\n      swap1\n      pop\n        /* \"#utility.yul\":3291:3370   */\n      tag_333\n        /* \"#utility.yul\":3367:3368   */\n      0x00\n        /* \"#utility.yul\":3356:3365   */\n      dup4\n        /* \"#utility.yul\":3352:3369   */\n      add\n        /* \"#utility.yul\":3343:3349   */\n      dup5\n        /* \"#utility.yul\":3291:3370   */\n      tag_283\n      jump\t// in\n    tag_333:\n        /* \"#utility.yul\":3139:3377   */\n      swap3\n      swap2\n      pop\n      pop\n      jump\t// out\n        /* \"#utility.yul\":3383:4134   */\n    tag_42:\n        /* \"#utility.yul\":3462:3468   */\n      0x00\n        /* \"#utility.yul\":3470:3476   */\n      dup1\n        /* \"#utility.yul\":3478:3484   */\n      0x00\n        /* \"#utility.yul\":3486:3492   */\n      dup1\n        /* \"#utility.yul\":3535:3538   */\n      0x80\n        /* \"#utility.yul\":3523:3532   */\n      dup6\n        /* \"#utility.yul\":3514:3521   */\n      dup8\n        /* \"#utility.yul\":3510:3533   */\n      sub\n        /* \"#utility.yul\":3506:3539   */\n      slt\n        /* \"#utility.yul\":3503:3623   */\n      iszero\n      tag_335\n      jumpi\n        /* \"#utility.yul\":3542:3621   */\n      tag_336\n      tag_271\n      jump\t// in\n    tag_336:\n        /* \"#utility.yul\":3503:3623   */\n    tag_335:\n        /* \"#utility.yul\":3662:3663   */\n      0x00\n        /* \"#utility.yul\":3687:3739   */\n      tag_337\n        /* \"#utility.yul\":3731:3738   */\n      dup8\n        /* \"#utility.yul\":3722:3728   */\n      dup3\n        /* \"#utility.yul\":3711:3720   */\n      dup9\n        /* \"#utility.yul\":3707:3729   */\n      add\n        /* \"#utility.yul\":3687:3739   */\n      tag_280\n      jump\t// in\n    tag_337:\n        /* \"#utility.yul\":3677:3739   */\n      swap5\n      pop\n        /* \"#utility.yul\":3633:3749   */\n      pop\n        /* \"#utility.yul\":3788:3790   */\n      0x20\n        /* \"#utility.yul\":3814:3865   */\n      tag_338\n        /* \"#utility.yul\":3857:3864   */\n      dup8\n        /* \"#utility.yul\":3848:3854   */\n      dup3\n        /* \"#utility.yul\":3837:3846   */\n      dup9\n        /* \"#utility.yul\":3833:3855   */\n      add\n        /* \"#utility.yul\":3814:3865   */\n      tag_282\n      jump\t// in\n    tag_338:\n        /* \"#utility.yul\":3804:3865   */\n      swap4\n      pop\n        /* \"#utility.yul\":3759:3875   */\n      pop\n        /* \"#utility.yul\":3914:3916   */\n      0x40\n        /* \"#utility.yul\":3940:3991   */\n      tag_339\n        /* \"#utility.yul\":3983:3990   */\n      dup8\n        /* \"#utility.yul\":3974:3980   */\n      dup3\n        /* \"#utility.yul\":3963:3972   */\n      dup9\n        /* \"#utility.yul\":3959:3981   */\n      add\n        /* \"#utility.yul\":3940:3991   */\n      tag_282\n      jump\t// in\n    tag_339:\n        /* \"#utility.yul\":3930:3991   */\n      swap3\n      pop\n        /* \"#utility.yul\":3885:4001   */\n      pop\n        /* \"#utility.yul\":4040:4042   */\n      0x60\n        /* \"#utility.yul\":4066:4117   */\n      tag_340\n        /* \"#utility.yul\":4109:4116   */\n      dup8\n        /* \"#utility.yul\":4100:4106   */\n      dup3\n        /* \"#utility.yul\":4089:4098   */\n      dup9\n        /* \"#utility.yul\":4085:4107   */\n      add\n        /* \"#utility.yul\":4066:4117   */\n      tag_282\n      jump\t// in\n    tag_340:\n        /* \"#utility.yul\":4056:4117   */\n      swap2\n      pop\n        /* \"#utility.yul\":4011:4127   */\n      pop\n        /* \"#utility.yul\":3383:4134   */\n      swap3\n      swap6\n      swap2\n      swap5\n      pop\n      swap3\n      pop\n      jump\t// out\n        /* \"#utility.yul\":4140:4749   */\n    tag_51:\n        /* \"#utility.yul\":4212:4218   */\n      0x00\n        /* \"#utility.yul\":4220:4226   */\n      dup1\n        /* \"#utility.yul\":4228:4234   */\n      0x00\n        /* \"#utility.yul\":4277:4279   */\n      0x60\n        /* \"#utility.yul\":4265:4274   */\n      dup5\n        /* \"#utility.yul\":4256:4263   */\n      dup7\n        /* \"#utility.yul\":4252:4275   */\n      sub\n        /* \"#utility.yul\":4248:4280   */\n      slt\n        /* \"#utility.yul\":4245:4364   */\n      iszero\n      tag_342\n      jumpi\n        /* \"#utility.yul\":4283:4362   */\n      tag_343\n      tag_271\n      jump\t// in\n    tag_343:\n        /* \"#utility.yul\":4245:4364   */\n    tag_342:\n        /* \"#utility.yul\":4403:4404   */\n      0x00\n        /* \"#utility.yul\":4428:4480   */\n      tag_344\n        /* \"#utility.yul\":4472:4479   */\n      dup7\n        /* \"#utility.yul\":4463:4469   */\n      dup3\n        /* \"#utility.yul\":4452:4461   */\n      dup8\n        /* \"#utility.yul\":4448:4470   */\n      add\n        /* \"#utility.yul\":4428:4480   */\n      tag_280\n      jump\t// in\n    tag_344:\n        /* \"#utility.yul\":4418:4480   */\n      swap4\n      pop\n        /* \"#utility.yul\":4374:4490   */\n      pop\n        /* \"#utility.yul\":4529:4531   */\n      0x20\n        /* \"#utility.yul\":4555:4606   */\n      tag_345\n        /* \"#utility.yul\":4598:4605   */\n      dup7\n        /* \"#utility.yul\":4589:4595   */\n      dup3\n        /* \"#utility.yul\":4578:4587   */\n      dup8\n        /* \"#utility.yul\":4574:4596   */\n      add\n        /* \"#utility.yul\":4555:4606   */\n      tag_282\n      jump\t// in\n    tag_345:\n        /* \"#utility.yul\":4545:4606   */\n      swap3\n      pop\n        /* \"#utility.yul\":4500:4616   */\n      pop\n        /* \"#utility.yul\":4655:4657   */\n      0x40\n        /* \"#utility.yul\":4681:4732   */\n      tag_346\n        /* \"#utility.yul\":4724:4731   */\n      dup7\n        /* \"#utility.yul\":4715:4721   */\n      dup3\n        /* \"#utility.yul\":4704:4713   */\n      dup8\n        /* \"#utility.yul\":4700:4722   */\n      add\n        /* \"#utility.yul\":4681:4732   */\n      tag_282\n      jump\t// in\n    tag_346:\n        /* \"#utility.yul\":4671:4732   */\n      swap2\n      pop\n        /* \"#utility.yul\":4626:4742   */\n      pop\n        /* \"#utility.yul\":4140:4749   */\n      swap3\n      pop\n      swap3\n      pop\n      swap3\n      jump\t// out\n        /* \"#utility.yul\":4755:5790   */\n    tag_56:\n        /* \"#utility.yul\":4848:4854   */\n      0x00\n        /* \"#utility.yul\":4856:4862   */\n      dup1\n        /* \"#utility.yul\":4864:4870   */\n      0x00\n        /* \"#utility.yul\":4872:4878   */\n      dup1\n        /* \"#utility.yul\":4880:4886   */\n      0x00\n        /* \"#utility.yul\":4888:4894   */\n      dup1\n        /* \"#utility.yul\":4937:4940   */\n      0xc0\n        /* \"#utility.yul\":4925:4934   */\n      dup8\n        /* \"#utility.yul\":4916:4923   */\n      dup10\n        /* \"#utility.yul\":4912:4935   */\n      sub\n        /* \"#utility.yul\":4908:4941   */\n      slt\n        /* \"#utility.yul\":4905:5025   */\n      iszero\n      tag_348\n      jumpi\n        /* \"#utility.yul\":4944:5023   */\n      tag_349\n      tag_271\n      jump\t// in\n    tag_349:\n        /* \"#utility.yul\":4905:5025   */\n    tag_348:\n        /* \"#utility.yul\":5064:5065   */\n      0x00\n        /* \"#utility.yul\":5089:5141   */\n      tag_350\n        /* \"#utility.yul\":5133:5140   */\n      dup10\n        /* \"#utility.yul\":5124:5130   */\n      dup3\n        /* \"#utility.yul\":5113:5122   */\n      dup11\n        /* \"#utility.yul\":5109:5131   */\n      add\n        /* \"#utility.yul\":5089:5141   */\n      tag_280\n      jump\t// in\n    tag_350:\n        /* \"#utility.yul\":5079:5141   */\n      swap7\n      pop\n        /* \"#utility.yul\":5035:5151   */\n      pop\n        /* \"#utility.yul\":5190:5192   */\n      0x20\n        /* \"#utility.yul\":5216:5267   */\n      tag_351\n        /* \"#utility.yul\":5259:5266   */\n      dup10\n        /* \"#utility.yul\":5250:5256   */\n      dup3\n        /* \"#utility.yul\":5239:5248   */\n      dup11\n        /* \"#utility.yul\":5235:5257   */\n      add\n        /* \"#utility.yul\":5216:5267   */\n      tag_282\n      jump\t// in\n    tag_351:\n        /* \"#utility.yul\":5206:5267   */\n      swap6\n      pop\n        /* \"#utility.yul\":5161:5277   */\n      pop\n        /* \"#utility.yul\":5316:5318   */\n      0x40\n        /* \"#utility.yul\":5342:5393   */\n      tag_352\n        /* \"#utility.yul\":5385:5392   */\n      dup10\n        /* \"#utility.yul\":5376:5382   */\n      dup3\n        /* \"#utility.yul\":5365:5374   */\n      dup11\n        /* \"#utility.yul\":5361:5383   */\n      add\n        /* \"#utility.yul\":5342:5393   */\n      tag_282\n      jump\t// in\n    tag_352:\n        /* \"#utility.yul\":5332:5393   */\n      swap5\n      pop\n        /* \"#utility.yul\":5287:5403   */\n      pop\n        /* \"#utility.yul\":5442:5444   */\n      0x60\n        /* \"#utility.yul\":5468:5519   */\n      tag_353\n        /* \"#utility.yul\":5511:5518   */\n      dup10\n        /* \"#utility.yul\":5502:5508   */\n      dup3\n        /* \"#utility.yul\":5491:5500   */\n      dup11\n        /* \"#utility.yul\":5487:5509   */\n      add\n        /* \"#utility.yul\":5468:5519   */\n      tag_282\n      jump\t// in\n    tag_353:\n        /* \"#utility.yul\":5458:5519   */\n      swap4\n      pop\n        /* \"#utility.yul\":5413:5529   */\n      pop\n        /* \"#utility.yul\":5568:5571   */\n      0x80\n        /* \"#utility.yul\":5595:5646   */\n      tag_354\n        /* \"#utility.yul\":5638:5645   */\n      dup10\n        /* \"#utility.yul\":5629:5635   */\n      dup3\n        /* \"#utility.yul\":5618:5627   */\n      dup11\n        /* \"#utility.yul\":5614:5636   */\n      add\n        /* \"#utility.yul\":5595:5646   */\n      tag_282\n      jump\t// in\n    tag_354:\n        /* \"#utility.yul\":5585:5646   */\n      swap3\n      pop\n        /* \"#utility.yul\":5539:5656   */\n      pop\n        /* \"#utility.yul\":5695:5698   */\n      0xa0\n        /* \"#utility.yul\":5722:5773   */\n      tag_355\n        /* \"#utility.yul\":5765:5772   */\n      dup10\n        /* \"#utility.yul\":5756:5762   */\n      dup3\n        /* \"#utility.yul\":5745:5754   */\n      dup11\n        /* \"#utility.yul\":5741:5763   */\n      add\n        /* \"#utility.yul\":5722:5773   */\n      tag_282\n      jump\t// in\n    tag_355:\n        /* \"#utility.yul\":5712:5773   */\n      swap2\n      pop\n        /* \"#utility.yul\":5666:5783   */\n      pop\n        /* \"#utility.yul\":4755:5790   */\n      swap3\n      swap6\n      pop\n      swap3\n      swap6\n      pop\n      swap3\n      swap6\n      jump\t// out\n        /* \"#utility.yul\":5796:5919   */\n    tag_284:\n        /* \"#utility.yul\":5889:5912   */\n      tag_357\n        /* \"#utility.yul\":5906:5911   */\n      dup2\n        /* \"#utility.yul\":5889:5912   */\n      tag_278\n      jump\t// in\n    tag_357:\n        /* \"#utility.yul\":5884:5887   */\n      dup3\n        /* \"#utility.yul\":5877:5913   */\n      mstore\n        /* \"#utility.yul\":5796:5919   */\n      pop\n      pop\n      jump\t// out\n        /* \"#utility.yul\":5925:6159   */\n    tag_63:\n        /* \"#utility.yul\":6024:6028   */\n      0x00\n        /* \"#utility.yul\":6062:6064   */\n      0x20\n        /* \"#utility.yul\":6051:6060   */\n      dup3\n        /* \"#utility.yul\":6047:6065   */\n      add\n        /* \"#utility.yul\":6039:6065   */\n      swap1\n      pop\n        /* \"#utility.yul\":6075:6152   */\n      tag_359\n        /* \"#utility.yul\":6149:6150   */\n      0x00\n        /* \"#utility.yul\":6138:6147   */\n      dup4\n        /* \"#utility.yul\":6134:6151   */\n      add\n        /* \"#utility.yul\":6125:6131   */\n      dup5\n        /* \"#utility.yul\":6075:6152   */\n      tag_284\n      jump\t// in\n    tag_359:\n        /* \"#utility.yul\":5925:6159   */\n      swap3\n      swap2\n      pop\n      pop\n      jump\t// out\n        /* \"#utility.yul\":6165:6492   */\n    tag_70:\n        /* \"#utility.yul\":6223:6229   */\n      0x00\n        /* \"#utility.yul\":6272:6274   */\n      0x20\n        /* \"#utility.yul\":6260:6269   */\n      dup3\n        /* \"#utility.yul\":6251:6258   */\n      dup5\n        /* \"#utility.yul\":6247:6270   */\n      sub\n        /* \"#utility.yul\":6243:6275   */\n      slt\n        /* \"#utility.yul\":6240:6359   */\n      iszero\n      tag_361\n      jumpi\n        /* \"#utility.yul\":6278:6357   */\n      tag_362\n      tag_271\n      jump\t// in\n    tag_362:\n        /* \"#utility.yul\":6240:6359   */\n    tag_361:\n        /* \"#utility.yul\":6398:6399   */\n      0x00\n        /* \"#utility.yul\":6423:6475   */\n      tag_363\n        /* \"#utility.yul\":6467:6474   */\n      dup5\n        /* \"#utility.yul\":6458:6464   */\n      dup3\n        /* \"#utility.yul\":6447:6456   */\n      dup6\n        /* \"#utility.yul\":6443:6465   */\n      add\n        /* \"#utility.yul\":6423:6475   */\n      tag_280\n      jump\t// in\n    tag_363:\n        /* \"#utility.yul\":6413:6475   */\n      swap2\n      pop\n        /* \"#utility.yul\":6369:6485   */\n      pop\n        /* \"#utility.yul\":6165:6492   */\n      swap3\n      swap2\n      pop\n      pop\n      jump\t// out\n        /* \"#utility.yul\":6498:6588   */\n    tag_285:\n        /* \"#utility.yul\":6532:6539   */\n      0x00\n        /* \"#utility.yul\":6575:6580   */\n      dup2\n        /* \"#utility.yul\":6568:6581   */\n      iszero\n        /* \"#utility.yul\":6561:6582   */\n      iszero\n        /* \"#utility.yul\":6550:6582   */\n      swap1\n      pop\n        /* \"#utility.yul\":6498:6588   */\n      swap2\n      swap1\n      pop\n      jump\t// out\n        /* \"#utility.yul\":6594:6711   */\n    tag_286:\n        /* \"#utility.yul\":6683:6704   */\n      tag_366\n        /* \"#utility.yul\":6698:6703   */\n      dup2\n        /* \"#utility.yul\":6683:6704   */\n      tag_285\n      jump\t// in\n    tag_366:\n        /* \"#utility.yul\":6678:6681   */\n      dup3\n        /* \"#utility.yul\":6671:6705   */\n      mstore\n        /* \"#utility.yul\":6594:6711   */\n      pop\n      pop\n      jump\t// out\n        /* \"#utility.yul\":6717:6943   */\n    tag_73:\n        /* \"#utility.yul\":6812:6816   */\n      0x00\n        /* \"#utility.yul\":6850:6852   */\n      0x20\n        /* \"#utility.yul\":6839:6848   */\n      dup3\n        /* \"#utility.yul\":6835:6853   */\n      add\n        /* \"#utility.yul\":6827:6853   */\n      swap1\n      pop\n        /* \"#utility.yul\":6863:6936   */\n      tag_368\n        /* \"#utility.yul\":6933:6934   */\n      0x00\n        /* \"#utility.yul\":6922:6931   */\n      dup4\n        /* \"#utility.yul\":6918:6935   */\n      add\n        /* \"#utility.yul\":6909:6915   */\n      dup5\n        /* \"#utility.yul\":6863:6936   */\n      tag_286\n      jump\t// in\n    tag_368:\n        /* \"#utility.yul\":6717:6943   */\n      swap3\n      swap2\n      pop\n      pop\n      jump\t// out\n        /* \"#utility.yul\":6949:7417   */\n    tag_80:\n        /* \"#utility.yul\":7014:7020   */\n      0x00\n        /* \"#utility.yul\":7022:7028   */\n      dup1\n        /* \"#utility.yul\":7071:7073   */\n      0x40\n        /* \"#utility.yul\":7059:7068   */\n      dup4\n        /* \"#utility.yul\":7050:7057   */\n      dup6\n        /* \"#utility.yul\":7046:7069   */\n      sub\n        /* \"#utility.yul\":7042:7074   */\n      slt\n        /* \"#utility.yul\":7039:7158   */\n      iszero\n      tag_370\n      jumpi\n        /* \"#utility.yul\":7077:7156   */\n      tag_371\n      tag_271\n      jump\t// in\n    tag_371:\n        /* \"#utility.yul\":7039:7158   */\n    tag_370:\n        /* \"#utility.yul\":7197:7198   */\n      0x00\n        /* \"#utility.yul\":7222:7273   */\n      tag_372\n        /* \"#utility.yul\":7265:7272   */\n      dup6\n        /* \"#utility.yul\":7256:7262   */\n      dup3\n        /* \"#utility.yul\":7245:7254   */\n      dup7\n        /* \"#utility.yul\":7241:7263   */\n      add\n        /* \"#utility.yul\":7222:7273   */\n      tag_282\n      jump\t// in\n    tag_372:\n        /* \"#utility.yul\":7212:7273   */\n      swap3\n      pop\n        /* \"#utility.yul\":7168:7283   */\n      pop\n        /* \"#utility.yul\":7322:7324   */\n      0x20\n        /* \"#utility.yul\":7348:7400   */\n      tag_373\n        /* \"#utility.yul\":7392:7399   */\n      dup6\n        /* \"#utility.yul\":7383:7389   */\n      dup3\n        /* \"#utility.yul\":7372:7381   */\n      dup7\n        /* \"#utility.yul\":7368:7390   */\n      add\n        /* \"#utility.yul\":7348:7400   */\n      tag_280\n      jump\t// in\n    tag_373:\n        /* \"#utility.yul\":7338:7400   */\n      swap2\n      pop\n        /* \"#utility.yul\":7293:7410   */\n      pop\n        /* \"#utility.yul\":6949:7417   */\n      swap3\n      pop\n      swap3\n      swap1\n      pop\n      jump\t// out\n        /* \"#utility.yul\":7423:7536   */\n    tag_287:\n        /* \"#utility.yul\":7506:7529   */\n      tag_375\n        /* \"#utility.yul\":7523:7528   */\n      dup2\n        /* \"#utility.yul\":7506:7529   */\n      tag_278\n      jump\t// in\n    tag_375:\n        /* \"#utility.yul\":7501:7504   */\n      dup3\n        /* \"#utility.yul\":7494:7530   */\n      mstore\n        /* \"#utility.yul\":7423:7536   */\n      pop\n      pop\n      jump\t// out\n        /* \"#utility.yul\":7542:7652   */\n    tag_288:\n        /* \"#utility.yul\":7623:7645   */\n      tag_377\n        /* \"#utility.yul\":7639:7644   */\n      dup2\n        /* \"#utility.yul\":7623:7645   */\n      tag_276\n      jump\t// in\n    tag_377:\n        /* \"#utility.yul\":7618:7621   */\n      dup3\n        /* \"#utility.yul\":7611:7646   */\n      mstore\n        /* \"#utility.yul\":7542:7652   */\n      pop\n      pop\n      jump\t// out\n        /* \"#utility.yul\":7720:9142   */\n    tag_289:\n        /* \"#utility.yul\":7875:7879   */\n      0xe0\n        /* \"#utility.yul\":7870:7873   */\n      dup3\n        /* \"#utility.yul\":7866:7880   */\n      add\n        /* \"#utility.yul\":7962:7966   */\n      0x00\n        /* \"#utility.yul\":7955:7960   */\n      dup3\n        /* \"#utility.yul\":7951:7967   */\n      add\n        /* \"#utility.yul\":7945:7968   */\n      mload\n        /* \"#utility.yul\":7981:8050   */\n      tag_379\n        /* \"#utility.yul\":8044:8048   */\n      0x00\n        /* \"#utility.yul\":8039:8042   */\n      dup6\n        /* \"#utility.yul\":8035:8049   */\n      add\n        /* \"#utility.yul\":8021:8033   */\n      dup3\n        /* \"#utility.yul\":7981:8050   */\n      tag_287\n      jump\t// in\n    tag_379:\n        /* \"#utility.yul\":7890:8060   */\n      pop\n        /* \"#utility.yul\":8143:8147   */\n      0x20\n        /* \"#utility.yul\":8136:8141   */\n      dup3\n        /* \"#utility.yul\":8132:8148   */\n      add\n        /* \"#utility.yul\":8126:8149   */\n      mload\n        /* \"#utility.yul\":8162:8229   */\n      tag_380\n        /* \"#utility.yul\":8223:8227   */\n      0x20\n        /* \"#utility.yul\":8218:8221   */\n      dup6\n        /* \"#utility.yul\":8214:8228   */\n      add\n        /* \"#utility.yul\":8200:8212   */\n      dup3\n        /* \"#utility.yul\":8162:8229   */\n      tag_288\n      jump\t// in\n    tag_380:\n        /* \"#utility.yul\":8070:8239   */\n      pop\n        /* \"#utility.yul\":8320:8324   */\n      0x40\n        /* \"#utility.yul\":8313:8318   */\n      dup3\n        /* \"#utility.yul\":8309:8325   */\n      add\n        /* \"#utility.yul\":8303:8326   */\n      mload\n        /* \"#utility.yul\":8339:8406   */\n      tag_381\n        /* \"#utility.yul\":8400:8404   */\n      0x40\n        /* \"#utility.yul\":8395:8398   */\n      dup6\n        /* \"#utility.yul\":8391:8405   */\n      add\n        /* \"#utility.yul\":8377:8389   */\n      dup3\n        /* \"#utility.yul\":8339:8406   */\n      tag_288\n      jump\t// in\n    tag_381:\n        /* \"#utility.yul\":8249:8416   */\n      pop\n        /* \"#utility.yul\":8498:8502   */\n      0x60\n        /* \"#utility.yul\":8491:8496   */\n      dup3\n        /* \"#utility.yul\":8487:8503   */\n      add\n        /* \"#utility.yul\":8481:8504   */\n      mload\n        /* \"#utility.yul\":8517:8584   */\n      tag_382\n        /* \"#utility.yul\":8578:8582   */\n      0x60\n        /* \"#utility.yul\":8573:8576   */\n      dup6\n        /* \"#utility.yul\":8569:8583   */\n      add\n        /* \"#utility.yul\":8555:8567   */\n      dup3\n        /* \"#utility.yul\":8517:8584   */\n      tag_288\n      jump\t// in\n    tag_382:\n        /* \"#utility.yul\":8426:8594   */\n      pop\n        /* \"#utility.yul\":8678:8682   */\n      0x80\n        /* \"#utility.yul\":8671:8676   */\n      dup3\n        /* \"#utility.yul\":8667:8683   */\n      add\n        /* \"#utility.yul\":8661:8684   */\n      mload\n        /* \"#utility.yul\":8697:8764   */\n      tag_383\n        /* \"#utility.yul\":8758:8762   */\n      0x80\n        /* \"#utility.yul\":8753:8756   */\n      dup6\n        /* \"#utility.yul\":8749:8763   */\n      add\n        /* \"#utility.yul\":8735:8747   */\n      dup3\n        /* \"#utility.yul\":8697:8764   */\n      tag_288\n      jump\t// in\n    tag_383:\n        /* \"#utility.yul\":8604:8774   */\n      pop\n        /* \"#utility.yul\":8858:8862   */\n      0xa0\n        /* \"#utility.yul\":8851:8856   */\n      dup3\n        /* \"#utility.yul\":8847:8863   */\n      add\n        /* \"#utility.yul\":8841:8864   */\n      mload\n        /* \"#utility.yul\":8877:8944   */\n      tag_384\n        /* \"#utility.yul\":8938:8942   */\n      0xa0\n        /* \"#utility.yul\":8933:8936   */\n      dup6\n        /* \"#utility.yul\":8929:8943   */\n      add\n        /* \"#utility.yul\":8915:8927   */\n      dup3\n        /* \"#utility.yul\":8877:8944   */\n      tag_288\n      jump\t// in\n    tag_384:\n        /* \"#utility.yul\":8784:8954   */\n      pop\n        /* \"#utility.yul\":9039:9043   */\n      0xc0\n        /* \"#utility.yul\":9032:9037   */\n      dup3\n        /* \"#utility.yul\":9028:9044   */\n      add\n        /* \"#utility.yul\":9022:9045   */\n      mload\n        /* \"#utility.yul\":9058:9125   */\n      tag_385\n        /* \"#utility.yul\":9119:9123   */\n      0xc0\n        /* \"#utility.yul\":9114:9117   */\n      dup6\n        /* \"#utility.yul\":9110:9124   */\n      add\n        /* \"#utility.yul\":9096:9108   */\n      dup3\n        /* \"#utility.yul\":9058:9125   */\n      tag_288\n      jump\t// in\n    tag_385:\n        /* \"#utility.yul\":8964:9135   */\n      pop\n        /* \"#utility.yul\":7844:9142   */\n      pop\n        /* \"#utility.yul\":7720:9142   */\n      pop\n      pop\n      jump\t// out\n        /* \"#utility.yul\":9148:9487   */\n    tag_87:\n        /* \"#utility.yul\":9299:9303   */\n      0x00\n        /* \"#utility.yul\":9337:9340   */\n      0xe0\n        /* \"#utility.yul\":9326:9335   */\n      dup3\n        /* \"#utility.yul\":9322:9341   */\n      add\n        /* \"#utility.yul\":9314:9341   */\n      swap1\n      pop\n        /* \"#utility.yul\":9351:9480   */\n      tag_387\n        /* \"#utility.yul\":9477:9478   */\n      0x00\n        /* \"#utility.yul\":9466:9475   */\n      dup4\n        /* \"#utility.yul\":9462:9479   */\n      add\n        /* \"#utility.yul\":9453:9459   */\n      dup5\n        /* \"#utility.yul\":9351:9480   */\n      tag_289\n      jump\t// in\n    tag_387:\n        /* \"#utility.yul\":9148:9487   */\n      swap3\n      swap2\n      pop\n      pop\n      jump\t// out\n        /* \"#utility.yul\":9493:9673   */\n    tag_290:\n        /* \"#utility.yul\":9541:9618   */\n      0x4e487b7100000000000000000000000000000000000000000000000000000000\n        /* \"#utility.yul\":9538:9539   */\n      0x00\n        /* \"#utility.yul\":9531:9619   */\n      mstore\n        /* \"#utility.yul\":9638:9642   */\n      0x12\n        /* \"#utility.yul\":9635:9636   */\n      0x04\n        /* \"#utility.yul\":9628:9643   */\n      mstore\n        /* \"#utility.yul\":9662:9666   */\n      0x24\n        /* \"#utility.yul\":9659:9660   */\n      0x00\n        /* \"#utility.yul\":9652:9667   */\n      revert\n        /* \"#utility.yul\":9679:9859   */\n    tag_291:\n        /* \"#utility.yul\":9727:9804   */\n      0x4e487b7100000000000000000000000000000000000000000000000000000000\n        /* \"#utility.yul\":9724:9725   */\n      0x00\n        /* \"#utility.yul\":9717:9805   */\n      mstore\n        /* \"#utility.yul\":9824:9828   */\n      0x11\n        /* \"#utility.yul\":9821:9822   */\n      0x04\n        /* \"#utility.yul\":9814:9829   */\n      mstore\n        /* \"#utility.yul\":9848:9852   */\n      0x24\n        /* \"#utility.yul\":9845:9846   */\n      0x00\n        /* \"#utility.yul\":9838:9853   */\n      revert\n        /* \"#utility.yul\":9865:10050   */\n    tag_94:\n        /* \"#utility.yul\":9905:9906   */\n      0x00\n        /* \"#utility.yul\":9922:9942   */\n      tag_391\n        /* \"#utility.yul\":9940:9941   */\n      dup3\n        /* \"#utility.yul\":9922:9942   */\n      tag_273\n      jump\t// in\n    tag_391:\n        /* \"#utility.yul\":9917:9942   */\n      swap2\n      pop\n        /* \"#utility.yul\":9956:9976   */\n      tag_392\n        /* \"#utility.yul\":9974:9975   */\n      dup4\n        /* \"#utility.yul\":9956:9976   */\n      tag_273\n      jump\t// in\n    tag_392:\n        /* \"#utility.yul\":9951:9976   */\n      swap3\n      pop\n        /* \"#utility.yul\":9995:9996   */\n      dup3\n        /* \"#utility.yul\":9985:10020   */\n      tag_393\n      jumpi\n        /* \"#utility.yul\":10000:10018   */\n      tag_394\n      tag_290\n      jump\t// in\n    tag_394:\n        /* \"#utility.yul\":9985:10020   */\n    tag_393:\n        /* \"#utility.yul\":10042:10043   */\n      dup3\n        /* \"#utility.yul\":10039:10040   */\n      dup3\n        /* \"#utility.yul\":10035:10044   */\n      div\n        /* \"#utility.yul\":10030:10044   */\n      swap1\n      pop\n        /* \"#utility.yul\":9865:10050   */\n      swap3\n      swap2\n      pop\n      pop\n      jump\t// out\n        /* \"#utility.yul\":10056:10232   */\n    tag_97:\n        /* \"#utility.yul\":10088:10089   */\n      0x00\n        /* \"#utility.yul\":10105:10125   */\n      tag_396\n        /* \"#utility.yul\":10123:10124   */\n      dup3\n        /* \"#utility.yul\":10105:10125   */\n      tag_273\n      jump\t// in\n    tag_396:\n        /* \"#utility.yul\":10100:10125   */\n      swap2\n      pop\n        /* \"#utility.yul\":10139:10159   */\n      tag_397\n        /* \"#utility.yul\":10157:10158   */\n      dup4\n        /* \"#utility.yul\":10139:10159   */\n      tag_273\n      jump\t// in\n    tag_397:\n        /* \"#utility.yul\":10134:10159   */\n      swap3\n      pop\n        /* \"#utility.yul\":10178:10179   */\n      dup3\n        /* \"#utility.yul\":10168:10203   */\n      tag_398\n      jumpi\n        /* \"#utility.yul\":10183:10201   */\n      tag_399\n      tag_290\n      jump\t// in\n    tag_399:\n        /* \"#utility.yul\":10168:10203   */\n    tag_398:\n        /* \"#utility.yul\":10224:10225   */\n      dup3\n        /* \"#utility.yul\":10221:10222   */\n      dup3\n        /* \"#utility.yul\":10217:10226   */\n      mod\n        /* \"#utility.yul\":10212:10226   */\n      swap1\n      pop\n        /* \"#utility.yul\":10056:10232   */\n      swap3\n      swap2\n      pop\n      pop\n      jump\t// out\n        /* \"#utility.yul\":10238:10429   */\n    tag_101:\n        /* \"#utility.yul\":10278:10281   */\n      0x00\n        /* \"#utility.yul\":10297:10317   */\n      tag_401\n        /* \"#utility.yul\":10315:10316   */\n      dup3\n        /* \"#utility.yul\":10297:10317   */\n      tag_273\n      jump\t// in\n    tag_401:\n        /* \"#utility.yul\":10292:10317   */\n      swap2\n      pop\n        /* \"#utility.yul\":10331:10351   */\n      tag_402\n        /* \"#utility.yul\":10349:10350   */\n      dup4\n        /* \"#utility.yul\":10331:10351   */\n      tag_273\n      jump\t// in\n    tag_402:\n        /* \"#utility.yul\":10326:10351   */\n      swap3\n      pop\n        /* \"#utility.yul\":10374:10375   */\n      dup3\n        /* \"#utility.yul\":10371:10372   */\n      dup3\n        /* \"#utility.yul\":10367:10376   */\n      add\n        /* \"#utility.yul\":10360:10376   */\n      swap1\n      pop\n        /* \"#utility.yul\":10395:10398   */\n      dup1\n        /* \"#utility.yul\":10392:10393   */\n      dup3\n        /* \"#utility.yul\":10389:10399   */\n      gt\n        /* \"#utility.yul\":10386:10422   */\n      iszero\n      tag_403\n      jumpi\n        /* \"#utility.yul\":10402:10420   */\n      tag_404\n      tag_291\n      jump\t// in\n    tag_404:\n        /* \"#utility.yul\":10386:10422   */\n    tag_403:\n        /* \"#utility.yul\":10238:10429   */\n      swap3\n      swap2\n      pop\n      pop\n      jump\t// out\n        /* \"#utility.yul\":10435:10606   */\n    tag_123:\n        /* \"#utility.yul\":10473:10476   */\n      0x00\n        /* \"#utility.yul\":10496:10519   */\n      tag_406\n        /* \"#utility.yul\":10513:10518   */\n      dup3\n        /* \"#utility.yul\":10496:10519   */\n      tag_278\n      jump\t// in\n    tag_406:\n        /* \"#utility.yul\":10487:10519   */\n      swap2\n      pop\n        /* \"#utility.yul\":10541:10547   */\n      0xffff\n        /* \"#utility.yul\":10534:10539   */\n      dup3\n        /* \"#utility.yul\":10531:10548   */\n      sub\n        /* \"#utility.yul\":10528:10571   */\n      tag_407\n      jumpi\n        /* \"#utility.yul\":10551:10569   */\n      tag_408\n      tag_291\n      jump\t// in\n    tag_408:\n        /* \"#utility.yul\":10528:10571   */\n    tag_407:\n        /* \"#utility.yul\":10598:10599   */\n      0x01\n        /* \"#utility.yul\":10591:10596   */\n      dup3\n        /* \"#utility.yul\":10587:10600   */\n      add\n        /* \"#utility.yul\":10580:10600   */\n      swap1\n      pop\n        /* \"#utility.yul\":10435:10606   */\n      swap2\n      swap1\n      pop\n      jump\t// out\n        /* \"#utility.yul\":10612:10792   */\n    tag_128:\n        /* \"#utility.yul\":10660:10737   */\n      0x4e487b7100000000000000000000000000000000000000000000000000000000\n        /* \"#utility.yul\":10657:10658   */\n      0x00\n        /* \"#utility.yul\":10650:10738   */\n      mstore\n        /* \"#utility.yul\":10757:10761   */\n      0x32\n        /* \"#utility.yul\":10754:10755   */\n      0x04\n        /* \"#utility.yul\":10747:10762   */\n      mstore\n        /* \"#utility.yul\":10781:10785   */\n      0x24\n        /* \"#utility.yul\":10778:10779   */\n      0x00\n        /* \"#utility.yul\":10771:10786   */\n      revert\n        /* \"#utility.yul\":10798:10994   */\n    tag_160:\n        /* \"#utility.yul\":10837:10841   */\n      0x00\n        /* \"#utility.yul\":10857:10876   */\n      tag_411\n        /* \"#utility.yul\":10874:10875   */\n      dup3\n        /* \"#utility.yul\":10857:10876   */\n      tag_278\n      jump\t// in\n    tag_411:\n        /* \"#utility.yul\":10852:10876   */\n      swap2\n      pop\n        /* \"#utility.yul\":10890:10909   */\n      tag_412\n        /* \"#utility.yul\":10907:10908   */\n      dup4\n        /* \"#utility.yul\":10890:10909   */\n      tag_278\n      jump\t// in\n    tag_412:\n        /* \"#utility.yul\":10885:10909   */\n      swap3\n      pop\n        /* \"#utility.yul\":10933:10934   */\n      dup3\n        /* \"#utility.yul\":10930:10931   */\n      dup3\n        /* \"#utility.yul\":10926:10935   */\n      sub\n        /* \"#utility.yul\":10918:10935   */\n      swap1\n      pop\n        /* \"#utility.yul\":10957:10963   */\n      0xffff\n        /* \"#utility.yul\":10951:10955   */\n      dup2\n        /* \"#utility.yul\":10948:10964   */\n      gt\n        /* \"#utility.yul\":10945:10987   */\n      iszero\n      tag_413\n      jumpi\n        /* \"#utility.yul\":10967:10985   */\n      tag_414\n      tag_291\n      jump\t// in\n    tag_414:\n        /* \"#utility.yul\":10945:10987   */\n    tag_413:\n        /* \"#utility.yul\":10798:10994   */\n      swap3\n      swap2\n      pop\n      pop\n      jump\t// out\n        /* \"#utility.yul\":11000:11410   */\n    tag_164:\n        /* \"#utility.yul\":11040:11047   */\n      0x00\n        /* \"#utility.yul\":11063:11083   */\n      tag_416\n        /* \"#utility.yul\":11081:11082   */\n      dup3\n        /* \"#utility.yul\":11063:11083   */\n      tag_273\n      jump\t// in\n    tag_416:\n        /* \"#utility.yul\":11058:11083   */\n      swap2\n      pop\n        /* \"#utility.yul\":11097:11117   */\n      tag_417\n        /* \"#utility.yul\":11115:11116   */\n      dup4\n        /* \"#utility.yul\":11097:11117   */\n      tag_273\n      jump\t// in\n    tag_417:\n        /* \"#utility.yul\":11092:11117   */\n      swap3\n      pop\n        /* \"#utility.yul\":11152:11153   */\n      dup3\n        /* \"#utility.yul\":11149:11150   */\n      dup3\n        /* \"#utility.yul\":11145:11154   */\n      mul\n        /* \"#utility.yul\":11174:11204   */\n      tag_418\n        /* \"#utility.yul\":11192:11203   */\n      dup2\n        /* \"#utility.yul\":11174:11204   */\n      tag_273\n      jump\t// in\n    tag_418:\n        /* \"#utility.yul\":11163:11204   */\n      swap2\n      pop\n        /* \"#utility.yul\":11353:11354   */\n      dup3\n        /* \"#utility.yul\":11344:11351   */\n      dup3\n        /* \"#utility.yul\":11340:11355   */\n      div\n        /* \"#utility.yul\":11337:11338   */\n      dup5\n        /* \"#utility.yul\":11334:11356   */\n      eq\n        /* \"#utility.yul\":11314:11315   */\n      dup4\n        /* \"#utility.yul\":11307:11316   */\n      iszero\n        /* \"#utility.yul\":11287:11370   */\n      or\n        /* \"#utility.yul\":11264:11403   */\n      tag_419\n      jumpi\n        /* \"#utility.yul\":11383:11401   */\n      tag_420\n      tag_291\n      jump\t// in\n    tag_420:\n        /* \"#utility.yul\":11264:11403   */\n    tag_419:\n        /* \"#utility.yul\":11048:11410   */\n      pop\n        /* \"#utility.yul\":11000:11410   */\n      swap3\n      swap2\n      pop\n      pop\n      jump\t// out\n        /* \"#utility.yul\":11416:11607   */\n    tag_168:\n        /* \"#utility.yul\":11454:11458   */\n      0x00\n        /* \"#utility.yul\":11474:11492   */\n      tag_422\n        /* \"#utility.yul\":11490:11491   */\n      dup3\n        /* \"#utility.yul\":11474:11492   */\n      tag_276\n      jump\t// in\n    tag_422:\n        /* \"#utility.yul\":11469:11492   */\n      swap2\n      pop\n        /* \"#utility.yul\":11506:11524   */\n      tag_423\n        /* \"#utility.yul\":11522:11523   */\n      dup4\n        /* \"#utility.yul\":11506:11524   */\n      tag_276\n      jump\t// in\n    tag_423:\n        /* \"#utility.yul\":11501:11524   */\n      swap3\n      pop\n        /* \"#utility.yul\":11548:11549   */\n      dup3\n        /* \"#utility.yul\":11545:11546   */\n      dup3\n        /* \"#utility.yul\":11541:11550   */\n      sub\n        /* \"#utility.yul\":11533:11550   */\n      swap1\n      pop\n        /* \"#utility.yul\":11572:11576   */\n      0xff\n        /* \"#utility.yul\":11566:11570   */\n      dup2\n        /* \"#utility.yul\":11563:11577   */\n      gt\n        /* \"#utility.yul\":11560:11600   */\n      iszero\n      tag_424\n      jumpi\n        /* \"#utility.yul\":11580:11598   */\n      tag_425\n      tag_291\n      jump\t// in\n    tag_425:\n        /* \"#utility.yul\":11560:11600   */\n    tag_424:\n        /* \"#utility.yul\":11416:11607   */\n      swap3\n      swap2\n      pop\n      pop\n      jump\t// out\n        /* \"#utility.yul\":11613:11807   */\n    tag_182:\n        /* \"#utility.yul\":11653:11657   */\n      0x00\n        /* \"#utility.yul\":11673:11693   */\n      tag_427\n        /* \"#utility.yul\":11691:11692   */\n      dup3\n        /* \"#utility.yul\":11673:11693   */\n      tag_273\n      jump\t// in\n    tag_427:\n        /* \"#utility.yul\":11668:11693   */\n      swap2\n      pop\n        /* \"#utility.yul\":11707:11727   */\n      tag_428\n        /* \"#utility.yul\":11725:11726   */\n      dup4\n        /* \"#utility.yul\":11707:11727   */\n      tag_273\n      jump\t// in\n    tag_428:\n        /* \"#utility.yul\":11702:11727   */\n      swap3\n      pop\n        /* \"#utility.yul\":11751:11752   */\n      dup3\n        /* \"#utility.yul\":11748:11749   */\n      dup3\n        /* \"#utility.yul\":11744:11753   */\n      sub\n        /* \"#utility.yul\":11736:11753   */\n      swap1\n      pop\n        /* \"#utility.yul\":11775:11776   */\n      dup2\n        /* \"#utility.yul\":11769:11773   */\n      dup2\n        /* \"#utility.yul\":11766:11777   */\n      gt\n        /* \"#utility.yul\":11763:11800   */\n      iszero\n      tag_429\n      jumpi\n        /* \"#utility.yul\":11780:11798   */\n      tag_430\n      tag_291\n      jump\t// in\n    tag_430:\n        /* \"#utility.yul\":11763:11800   */\n    tag_429:\n        /* \"#utility.yul\":11613:11807   */\n      swap3\n      swap2\n      pop\n      pop\n      jump\t// out\n        /* \"#utility.yul\":11813:11986   */\n    tag_202:\n        /* \"#utility.yul\":11844:11845   */\n      0x00\n        /* \"#utility.yul\":11861:11880   */\n      tag_432\n        /* \"#utility.yul\":11878:11879   */\n      dup3\n        /* \"#utility.yul\":11861:11880   */\n      tag_278\n      jump\t// in\n    tag_432:\n        /* \"#utility.yul\":11856:11880   */\n      swap2\n      pop\n        /* \"#utility.yul\":11894:11913   */\n      tag_433\n        /* \"#utility.yul\":11911:11912   */\n      dup4\n        /* \"#utility.yul\":11894:11913   */\n      tag_278\n      jump\t// in\n    tag_433:\n        /* \"#utility.yul\":11889:11913   */\n      swap3\n      pop\n        /* \"#utility.yul\":11932:11933   */\n      dup3\n        /* \"#utility.yul\":11922:11957   */\n      tag_434\n      jumpi\n        /* \"#utility.yul\":11937:11955   */\n      tag_435\n      tag_290\n      jump\t// in\n    tag_435:\n        /* \"#utility.yul\":11922:11957   */\n    tag_434:\n        /* \"#utility.yul\":11978:11979   */\n      dup3\n        /* \"#utility.yul\":11975:11976   */\n      dup3\n        /* \"#utility.yul\":11971:11980   */\n      mod\n        /* \"#utility.yul\":11966:11980   */\n      swap1\n      pop\n        /* \"#utility.yul\":11813:11986   */\n      swap3\n      swap2\n      pop\n      pop\n      jump\t// out\n        /* \"#utility.yul\":11992:12159   */\n    tag_254:\n        /* \"#utility.yul\":12029:12032   */\n      0x00\n        /* \"#utility.yul\":12052:12074   */\n      tag_437\n        /* \"#utility.yul\":12068:12073   */\n      dup3\n        /* \"#utility.yul\":12052:12074   */\n      tag_276\n      jump\t// in\n    tag_437:\n        /* \"#utility.yul\":12043:12074   */\n      swap2\n      pop\n        /* \"#utility.yul\":12096:12100   */\n      0xff\n        /* \"#utility.yul\":12089:12094   */\n      dup3\n        /* \"#utility.yul\":12086:12101   */\n      sub\n        /* \"#utility.yul\":12083:12124   */\n      tag_438\n      jumpi\n        /* \"#utility.yul\":12104:12122   */\n      tag_439\n      tag_291\n      jump\t// in\n    tag_439:\n        /* \"#utility.yul\":12083:12124   */\n    tag_438:\n        /* \"#utility.yul\":12151:12152   */\n      0x01\n        /* \"#utility.yul\":12144:12149   */\n      dup3\n        /* \"#utility.yul\":12140:12153   */\n      add\n        /* \"#utility.yul\":12133:12153   */\n      swap1\n      pop\n        /* \"#utility.yul\":11992:12159   */\n      swap2\n      swap1\n      pop\n      jump\t// out\n\n    auxdata: 0xa2646970667358221220b6883dacc30281d95d6b0331c06d22cd041d13798526cf3d256ee9a0fd5973a364736f6c63430008140033\n}\n",
				"bytecode": {
					"linkReferences": {},
					"object": "61145d61004e600b8282823980515f1a607314610042577f4e487b71000000000000000000000000000000000000000000000000000000005f525f60045260245ffd5b305f52607381538281f3fe73000000000000000000000000000000000000000030146080604052600436106100fe575f3560e01c80639054bdec116100a0578063b19999371161006f578063b199993714610312578063b238ad0e14610342578063f97d059114610372578063fa93f883146103a2576100fe565b80639054bdec1461025257806392d6631314610282578063a324ad24146102b2578063a6f0e577146102e2576100fe565b806365c72840116100dc57806365c72840146101925780637f791833146101c25780638aa001fc146101f25780638c8d98a014610222576100fe565b80633e239e1a146101025780634ac1ad781461013257806362ba968714610162575b5f80fd5b61011c60048036038101906101179190610d8c565b6103d2565b6040516101299190610dd2565b60405180910390f35b61014c60048036038101906101479190610d8c565b6103fe565b6040516101599190610dd2565b60405180910390f35b61017c60048036038101906101779190610e4c565b61042d565b6040516101899190610ed2565b60405180910390f35b6101ac60048036038101906101a79190610d8c565b610447565b6040516101b99190610dd2565b60405180910390f35b6101dc60048036038101906101d79190610eeb565b61045c565b6040516101e99190610ed2565b60405180910390f35b61020c60048036038101906102079190610d8c565b610475565b6040516102199190610dd2565b60405180910390f35b61023c60048036038101906102379190610f4f565b61048a565b6040516102499190610ed2565b60405180910390f35b61026c60048036038101906102679190610f9f565b6104a2565b6040516102799190610ed2565b60405180910390f35b61029c60048036038101906102979190610d8c565b61080b565b6040516102a99190611037565b60405180910390f35b6102cc60048036038101906102c79190610d8c565b61091f565b6040516102d99190610dd2565b60405180910390f35b6102fc60048036038101906102f79190611050565b610934565b6040516103099190611095565b60405180910390f35b61032c60048036038101906103279190610d8c565b61099e565b6040516103399190610ed2565b60405180910390f35b61035c600480360381019061035791906110ae565b6109f1565b6040516103699190610dd2565b60405180910390f35b61038c60048036038101906103879190610d8c565b610abc565b6040516103999190611196565b60405180910390f35b6103bc60048036038101906103b79190610d8c565b610cc6565b6040516103c99190610dd2565b60405180910390f35b5f6018603c80846103e39190611209565b6103ed9190611209565b6103f79190611239565b9050919050565b5f6007600462015180846104129190611209565b61041c9190611269565b6104269190611239565b9050919050565b5f61043c86868686865f6104a2565b905095945050505050565b5f61045182610abc565b604001519050919050565b5f61046b858585855f806104a2565b9050949350505050565b5f603c826104839190611239565b9050919050565b5f6104998484845f805f6104a2565b90509392505050565b5f806107b290505b8761ffff168161ffff161015610505576104c381610934565b156104df576301e28500826104d89190611269565b91506104f2565b6301e13380826104ef9190611269565b91505b80806104fd9061129c565b9150506104aa565b61050d610ce6565b601f815f600c8110610522576105216112c5565b5b602002019060ff16908160ff168152505061053c89610934565b1561056d57601d816001600c8110610557576105566112c5565b5b602002019060ff16908160ff1681525050610595565b601c816001600c8110610583576105826112c5565b5b602002019060ff16908160ff16815250505b601f816002600c81106105ab576105aa6112c5565b5b602002019060ff16908160ff1681525050601e816003600c81106105d2576105d16112c5565b5b602002019060ff16908160ff1681525050601f816004600c81106105f9576105f86112c5565b5b602002019060ff16908160ff1681525050601e816005600c81106106205761061f6112c5565b5b602002019060ff16908160ff1681525050601f816006600c8110610647576106466112c5565b5b602002019060ff16908160ff1681525050601f816007600c811061066e5761066d6112c5565b5b602002019060ff16908160ff1681525050601e816008600c8110610695576106946112c5565b5b602002019060ff16908160ff1681525050601f816009600c81106106bc576106bb6112c5565b5b602002019060ff16908160ff1681525050601e81600a600c81106106e3576106e26112c5565b5b602002019060ff16908160ff1681525050601f81600b600c811061070a576107096112c5565b5b602002019060ff16908160ff1681525050600191505b8760ff168261ffff161015610788578060018361073d91906112f2565b61ffff16600c8110610752576107516112c5565b5b602002015160ff16620151806107689190611327565b836107739190611269565b925081806107809061129c565b925050610720565b6001876107959190611368565b60ff16620151806107a69190611327565b836107b19190611269565b92508560ff16610e106107c49190611327565b836107cf9190611269565b92508460ff16603c6107e19190611327565b836107ec9190611269565b92508360ff16836107fd9190611269565b925050509695505050505050565b5f805f90505f806301e13380856108229190611209565b6107b261ffff166108339190611269565b91506108446107b261ffff1661099e565b6108518361ffff1661099e565b61085b919061139c565b9050806301e2850061086d9190611327565b836108789190611269565b9250806107b28361088991906112f2565b61ffff16610897919061139c565b6301e133806108a69190611327565b836108b19190611269565b92505b84831115610914576108d16001836108cc91906112f2565b610934565b156108ed576301e28500836108e6919061139c565b9250610900565b6301e13380836108fd919061139c565b92505b60018261090d91906112f2565b91506108b4565b819350505050919050565b5f61092982610abc565b602001519050919050565b5f8060048361094391906113cf565b61ffff1614610954575f9050610999565b5f60648361096291906113cf565b61ffff16146109745760019050610999565b5f6101908361098391906113cf565b61ffff1614610994575f9050610999565b600190505b919050565b5f6001826109ac919061139c565b9150610190826109bc9190611209565b6064836109c99190611209565b6004846109d69190611209565b6109e0919061139c565b6109ea9190611269565b9050919050565b5f60018360ff161480610a07575060038360ff16145b80610a15575060058360ff16145b80610a23575060078360ff16145b80610a31575060088360ff16145b80610a3f5750600a8360ff16145b80610a4d5750600c8360ff16145b15610a5b57601f9050610ab6565b60048360ff161480610a70575060068360ff16145b80610a7e575060098360ff16145b80610a8c5750600b8360ff16145b15610a9a57601e9050610ab6565b610aa382610934565b15610ab157601d9050610ab6565b601c90505b92915050565b610ac4610d09565b5f8080610ad08561080b565b845f019061ffff16908161ffff1681525050610af16107b261ffff1661099e565b610b01855f015161ffff1661099e565b610b0b919061139c565b9150816301e28500610b1d9190611327565b83610b289190611269565b9250816107b2855f0151610b3c91906112f2565b61ffff16610b4a919061139c565b6301e13380610b599190611327565b83610b649190611269565b92505f600191505b600c8260ff1611610be257610b8482865f01516109f1565b60ff1662015180610b959190611327565b9050858482610ba49190611269565b1115610bc15781856020019060ff16908160ff1681525050610be2565b8084610bcd9190611269565b93508180610bda906113ff565b925050610b6c565b600191505b610bf88560200151865f01516109f1565b60ff168260ff1611610c5557858462015180610c149190611269565b1115610c315781856040019060ff16908160ff1681525050610c55565b6201518084610c409190611269565b93508180610c4d906113ff565b925050610be7565b610c5e866103d2565b856060019060ff16908160ff1681525050610c7886610cc6565b856080019060ff16908160ff1681525050610c9286610475565b8560a0019060ff16908160ff1681525050610cac866103fe565b8560c0019060ff16908160ff168152505050505050919050565b5f603c8083610cd59190611209565b610cdf9190611239565b9050919050565b604051806101800160405280600c90602082028036833780820191505090505090565b6040518060e001604052805f61ffff1681526020015f60ff1681526020015f60ff1681526020015f60ff1681526020015f60ff1681526020015f60ff1681526020015f60ff1681525090565b5f80fd5b5f819050919050565b610d6b81610d59565b8114610d75575f80fd5b50565b5f81359050610d8681610d62565b92915050565b5f60208284031215610da157610da0610d55565b5b5f610dae84828501610d78565b91505092915050565b5f60ff82169050919050565b610dcc81610db7565b82525050565b5f602082019050610de55f830184610dc3565b92915050565b5f61ffff82169050919050565b610e0181610deb565b8114610e0b575f80fd5b50565b5f81359050610e1c81610df8565b92915050565b610e2b81610db7565b8114610e35575f80fd5b50565b5f81359050610e4681610e22565b92915050565b5f805f805f60a08688031215610e6557610e64610d55565b5b5f610e7288828901610e0e565b9550506020610e8388828901610e38565b9450506040610e9488828901610e38565b9350506060610ea588828901610e38565b9250506080610eb688828901610e38565b9150509295509295909350565b610ecc81610d59565b82525050565b5f602082019050610ee55f830184610ec3565b92915050565b5f805f8060808587031215610f0357610f02610d55565b5b5f610f1087828801610e0e565b9450506020610f2187828801610e38565b9350506040610f3287828801610e38565b9250506060610f4387828801610e38565b91505092959194509250565b5f805f60608486031215610f6657610f65610d55565b5b5f610f7386828701610e0e565b9350506020610f8486828701610e38565b9250506040610f9586828701610e38565b9150509250925092565b5f805f805f8060c08789031215610fb957610fb8610d55565b5b5f610fc689828a01610e0e565b9650506020610fd789828a01610e38565b9550506040610fe889828a01610e38565b9450506060610ff989828a01610e38565b935050608061100a89828a01610e38565b92505060a061101b89828a01610e38565b9150509295509295509295565b61103181610deb565b82525050565b5f60208201905061104a5f830184611028565b92915050565b5f6020828403121561106557611064610d55565b5b5f61107284828501610e0e565b91505092915050565b5f8115159050919050565b61108f8161107b565b82525050565b5f6020820190506110a85f830184611086565b92915050565b5f80604083850312156110c4576110c3610d55565b5b5f6110d185828601610e38565b92505060206110e285828601610e0e565b9150509250929050565b6110f581610deb565b82525050565b61110481610db7565b82525050565b60e082015f82015161111e5f8501826110ec565b50602082015161113160208501826110fb565b50604082015161114460408501826110fb565b50606082015161115760608501826110fb565b50608082015161116a60808501826110fb565b5060a082015161117d60a08501826110fb565b5060c082015161119060c08501826110fb565b50505050565b5f60e0820190506111a95f83018461110a565b92915050565b7f4e487b71000000000000000000000000000000000000000000000000000000005f52601260045260245ffd5b7f4e487b71000000000000000000000000000000000000000000000000000000005f52601160045260245ffd5b5f61121382610d59565b915061121e83610d59565b92508261122e5761122d6111af565b5b828204905092915050565b5f61124382610d59565b915061124e83610d59565b92508261125e5761125d6111af565b5b828206905092915050565b5f61127382610d59565b915061127e83610d59565b9250828201905080821115611296576112956111dc565b5b92915050565b5f6112a682610deb565b915061ffff82036112ba576112b96111dc565b5b600182019050919050565b7f4e487b71000000000000000000000000000000000000000000000000000000005f52603260045260245ffd5b5f6112fc82610deb565b915061130783610deb565b9250828203905061ffff811115611321576113206111dc565b5b92915050565b5f61133182610d59565b915061133c83610d59565b925082820261134a81610d59565b91508282048414831517611361576113606111dc565b5b5092915050565b5f61137282610db7565b915061137d83610db7565b9250828203905060ff811115611396576113956111dc565b5b92915050565b5f6113a682610d59565b91506113b183610d59565b92508282039050818111156113c9576113c86111dc565b5b92915050565b5f6113d982610deb565b91506113e483610deb565b9250826113f4576113f36111af565b5b828206905092915050565b5f61140982610db7565b915060ff820361141c5761141b6111dc565b5b60018201905091905056fea2646970667358221220b6883dacc30281d95d6b0331c06d22cd041d13798526cf3d256ee9a0fd5973a364736f6c63430008140033",
					"opcodes": "PUSH2 0x145D PUSH2 0x4E PUSH1 0xB DUP3 DUP3 DUP3 CODECOPY DUP1 MLOAD PUSH0 BYTE PUSH1 0x73 EQ PUSH2 0x42 JUMPI PUSH32 0x4E487B7100000000000000000000000000000000000000000000000000000000 PUSH0 MSTORE PUSH0 PUSH1 0x4 MSTORE PUSH1 0x24 PUSH0 REVERT JUMPDEST ADDRESS PUSH0 MSTORE PUSH1 0x73 DUP2 MSTORE8 DUP3 DUP2 RETURN INVALID PUSH20 0x0 ADDRESS EQ PUSH1 0x80 PUSH1 0x40 MSTORE PUSH1 0x4 CALLDATASIZE LT PUSH2 0xFE JUMPI PUSH0 CALLDATALOAD PUSH1 0xE0 SHR DUP1 PUSH4 0x9054BDEC GT PUSH2 0xA0 JUMPI DUP1 PUSH4 0xB1999937 GT PUSH2 0x6F JUMPI DUP1 PUSH4 0xB1999937 EQ PUSH2 0x312 JUMPI DUP1 PUSH4 0xB238AD0E EQ PUSH2 0x342 JUMPI DUP1 PUSH4 0xF97D0591 EQ PUSH2 0x372 JUMPI DUP1 PUSH4 0xFA93F883 EQ PUSH2 0x3A2 JUMPI PUSH2 0xFE JUMP JUMPDEST DUP1 PUSH4 0x9054BDEC EQ PUSH2 0x252 JUMPI DUP1 PUSH4 0x92D66313 EQ PUSH2 0x282 JUMPI DUP1 PUSH4 0xA324AD24 EQ PUSH2 0x2B2 JUMPI DUP1 PUSH4 0xA6F0E577 EQ PUSH2 0x2E2 JUMPI PUSH2 0xFE JUMP JUMPDEST DUP1 PUSH4 0x65C72840 GT PUSH2 0xDC JUMPI DUP1 PUSH4 0x65C72840 EQ PUSH2 0x192 JUMPI DUP1 PUSH4 0x7F791833 EQ PUSH2 0x1C2 JUMPI DUP1 PUSH4 0x8AA001FC EQ PUSH2 0x1F2 JUMPI DUP1 PUSH4 0x8C8D98A0 EQ PUSH2 0x222 JUMPI PUSH2 0xFE JUMP JUMPDEST DUP1 PUSH4 0x3E239E1A EQ PUSH2 0x102 JUMPI DUP1 PUSH4 0x4AC1AD78 EQ PUSH2 0x132 JUMPI DUP1 PUSH4 0x62BA9687 EQ PUSH2 0x162 JUMPI JUMPDEST PUSH0 DUP1 REVERT JUMPDEST PUSH2 0x11C PUSH1 0x4 DUP1 CALLDATASIZE SUB DUP2 ADD SWAP1 PUSH2 0x117 SWAP2 SWAP1 PUSH2 0xD8C JUMP JUMPDEST PUSH2 0x3D2 JUMP JUMPDEST PUSH1 0x40 MLOAD PUSH2 0x129 SWAP2 SWAP1 PUSH2 0xDD2 JUMP JUMPDEST PUSH1 0x40 MLOAD DUP1 SWAP2 SUB SWAP1 RETURN JUMPDEST PUSH2 0x14C PUSH1 0x4 DUP1 CALLDATASIZE SUB DUP2 ADD SWAP1 PUSH2 0x147 SWAP2 SWAP1 PUSH2 0xD8C JUMP JUMPDEST PUSH2 0x3FE JUMP JUMPDEST PUSH1 0x40 MLOAD PUSH2 0x159 SWAP2 SWAP1 PUSH2 0xDD2 JUMP JUMPDEST PUSH1 0x40 MLOAD DUP1 SWAP2 SUB SWAP1 RETURN JUMPDEST PUSH2 0x17C PUSH1 0x4 DUP1 CALLDATASIZE SUB DUP2 ADD SWAP1 PUSH2 0x177 SWAP2 SWAP1 PUSH2 0xE4C JUMP JUMPDEST PUSH2 0x42D JUMP JUMPDEST PUSH1 0x40 MLOAD PUSH2 0x189 SWAP2 SWAP1 PUSH2 0xED2 JUMP JUMPDEST PUSH1 0x40 MLOAD DUP1 SWAP2 SUB SWAP1 RETURN JUMPDEST PUSH2 0x1AC PUSH1 0x4 DUP1 CALLDATASIZE SUB DUP2 ADD SWAP1 PUSH2 0x1A7 SWAP2 SWAP1 PUSH2 0xD8C JUMP JUMPDEST PUSH2 0x447 JUMP JUMPDEST PUSH1 0x40 MLOAD PUSH2 0x1B9 SWAP2 SWAP1 PUSH2 0xDD2 JUMP JUMPDEST PUSH1 0x40 MLOAD DUP1 SWAP2 SUB SWAP1 RETURN JUMPDEST PUSH2 0x1DC PUSH1 0x4 DUP1 CALLDATASIZE SUB DUP2 ADD SWAP1 PUSH2 0x1D7 SWAP2 SWAP1 PUSH2 0xEEB JUMP JUMPDEST PUSH2 0x45C JUMP JUMPDEST PUSH1 0x40 MLOAD PUSH2 0x1E9 SWAP2 SWAP1 PUSH2 0xED2 JUMP JUMPDEST PUSH1 0x40 MLOAD DUP1 SWAP2 SUB SWAP1 RETURN JUMPDEST PUSH2 0x20C PUSH1 0x4 DUP1 CALLDATASIZE SUB DUP2 ADD SWAP1 PUSH2 0x207 SWAP2 SWAP1 PUSH2 0xD8C JUMP JUMPDEST PUSH2 0x475 JUMP JUMPDEST PUSH1 0x40 MLOAD PUSH2 0x219 SWAP2 SWAP1 PUSH2 0xDD2 JUMP JUMPDEST PUSH1 0x40 MLOAD DUP1 SWAP2 SUB SWAP1 RETURN JUMPDEST PUSH2 0x23C PUSH1 0x4 DUP1 CALLDATASIZE SUB DUP2 ADD SWAP1 PUSH2 0x237 SWAP2 SWAP1 PUSH2 0xF4F JUMP JUMPDEST PUSH2 0x48A JUMP JUMPDEST PUSH1 0x40 MLOAD PUSH2 0x249 SWAP2 SWAP1 PUSH2 0xED2 JUMP JUMPDEST PUSH1 0x40 MLOAD DUP1 SWAP2 SUB SWAP1 RETURN JUMPDEST PUSH2 0x26C PUSH1 0x4 DUP1 CALLDATASIZE SUB DUP2 ADD SWAP1 PUSH2 0x267 SWAP2 SWAP1 PUSH2 0xF9F JUMP JUMPDEST PUSH2 0x4A2 JUMP JUMPDEST PUSH1 0x40 MLOAD PUSH2 0x279 SWAP2 SWAP1 PUSH2 0xED2 JUMP JUMPDEST PUSH1 0x40 MLOAD DUP1 SWAP2 SUB SWAP1 RETURN JUMPDEST PUSH2 0x29C PUSH1 0x4 DUP1 CALLDATASIZE SUB DUP2 ADD SWAP1 PUSH2 0x297 SWAP2 SWAP1 PUSH2 0xD8C JUMP JUMPDEST PUSH2 0x80B JUMP JUMPDEST PUSH1 0x40 MLOAD PUSH2 0x2A9 SWAP2 SWAP1 PUSH2 0x1037 JUMP JUMPDEST PUSH1 0x40 MLOAD DUP1 SWAP2 SUB SWAP1 RETURN JUMPDEST PUSH2 0x2CC PUSH1 0x4 DUP1 CALLDATASIZE SUB DUP2 ADD SWAP1 PUSH2 0x2C7 SWAP2 SWAP1 PUSH2 0xD8C JUMP JUMPDEST PUSH2 0x91F JUMP JUMPDEST PUSH1 0x40 MLOAD PUSH2 0x2D9 SWAP2 SWAP1 PUSH2 0xDD2 JUMP JUMPDEST PUSH1 0x40 MLOAD DUP1 SWAP2 SUB SWAP1 RETURN JUMPDEST PUSH2 0x2FC PUSH1 0x4 DUP1 CALLDATASIZE SUB DUP2 ADD SWAP1 PUSH2 0x2F7 SWAP2 SWAP1 PUSH2 0x1050 JUMP JUMPDEST PUSH2 0x934 JUMP JUMPDEST PUSH1 0x40 MLOAD PUSH2 0x309 SWAP2 SWAP1 PUSH2 0x1095 JUMP JUMPDEST PUSH1 0x40 MLOAD DUP1 SWAP2 SUB SWAP1 RETURN JUMPDEST PUSH2 0x32C PUSH1 0x4 DUP1 CALLDATASIZE SUB DUP2 ADD SWAP1 PUSH2 0x327 SWAP2 SWAP1 PUSH2 0xD8C JUMP JUMPDEST PUSH2 0x99E JUMP JUMPDEST PUSH1 0x40 MLOAD PUSH2 0x339 SWAP2 SWAP1 PUSH2 0xED2 JUMP JUMPDEST PUSH1 0x40 MLOAD DUP1 SWAP2 SUB SWAP1 RETURN JUMPDEST PUSH2 0x35C PUSH1 0x4 DUP1 CALLDATASIZE SUB DUP2 ADD SWAP1 PUSH2 0x357 SWAP2 SWAP1 PUSH2 0x10AE JUMP JUMPDEST PUSH2 0x9F1 JUMP JUMPDEST PUSH1 0x40 MLOAD PUSH2 0x369 SWAP2 SWAP1 PUSH2 0xDD2 JUMP JUMPDEST PUSH1 0x40 MLOAD DUP1 SWAP2 SUB SWAP1 RETURN JUMPDEST PUSH2 0x38C PUSH1 0x4 DUP1 CALLDATASIZE SUB DUP2 ADD SWAP1 PUSH2 0x387 SWAP2 SWAP1 PUSH2 0xD8C JUMP JUMPDEST PUSH2 0xABC JUMP JUMPDEST PUSH1 0x40 MLOAD PUSH2 0x399 SWAP2 SWAP1 PUSH2 0x1196 JUMP JUMPDEST PUSH1 0x40 MLOAD DUP1 SWAP2 SUB SWAP1 RETURN JUMPDEST PUSH2 0x3BC PUSH1 0x4 DUP1 CALLDATASIZE SUB DUP2 ADD SWAP1 PUSH2 0x3B7 SWAP2 SWAP1 PUSH2 0xD8C JUMP JUMPDEST PUSH2 0xCC6 JUMP JUMPDEST PUSH1 0x40 MLOAD PUSH2 0x3C9 SWAP2 SWAP1 PUSH2 0xDD2 JUMP JUMPDEST PUSH1 0x40 MLOAD DUP1 SWAP2 SUB SWAP1 RETURN JUMPDEST PUSH0 PUSH1 0x18 PUSH1 0x3C DUP1 DUP5 PUSH2 0x3E3 SWAP2 SWAP1 PUSH2 0x1209 JUMP JUMPDEST PUSH2 0x3ED SWAP2 SWAP1 PUSH2 0x1209 JUMP JUMPDEST PUSH2 0x3F7 SWAP2 SWAP1 PUSH2 0x1239 JUMP JUMPDEST SWAP1 POP SWAP2 SWAP1 POP JUMP JUMPDEST PUSH0 PUSH1 0x7 PUSH1 0x4 PUSH3 0x15180 DUP5 PUSH2 0x412 SWAP2 SWAP1 PUSH2 0x1209 JUMP JUMPDEST PUSH2 0x41C SWAP2 SWAP1 PUSH2 0x1269 JUMP JUMPDEST PUSH2 0x426 SWAP2 SWAP1 PUSH2 0x1239 JUMP JUMPDEST SWAP1 POP SWAP2 SWAP1 POP JUMP JUMPDEST PUSH0 PUSH2 0x43C DUP7 DUP7 DUP7 DUP7 DUP7 PUSH0 PUSH2 0x4A2 JUMP JUMPDEST SWAP1 POP SWAP6 SWAP5 POP POP POP POP POP JUMP JUMPDEST PUSH0 PUSH2 0x451 DUP3 PUSH2 0xABC JUMP JUMPDEST PUSH1 0x40 ADD MLOAD SWAP1 POP SWAP2 SWAP1 POP JUMP JUMPDEST PUSH0 PUSH2 0x46B DUP6 DUP6 DUP6 DUP6 PUSH0 DUP1 PUSH2 0x4A2 JUMP JUMPDEST SWAP1 POP SWAP5 SWAP4 POP POP POP POP JUMP JUMPDEST PUSH0 PUSH1 0x3C DUP3 PUSH2 0x483 SWAP2 SWAP1 PUSH2 0x1239 JUMP JUMPDEST SWAP1 POP SWAP2 SWAP1 POP JUMP JUMPDEST PUSH0 PUSH2 0x499 DUP5 DUP5 DUP5 PUSH0 DUP1 PUSH0 PUSH2 0x4A2 JUMP JUMPDEST SWAP1 POP SWAP4 SWAP3 POP POP POP JUMP JUMPDEST PUSH0 DUP1 PUSH2 0x7B2 SWAP1 POP JUMPDEST DUP8 PUSH2 0xFFFF AND DUP2 PUSH2 0xFFFF AND LT ISZERO PUSH2 0x505 JUMPI PUSH2 0x4C3 DUP2 PUSH2 0x934 JUMP JUMPDEST ISZERO PUSH2 0x4DF JUMPI PUSH4 0x1E28500 DUP3 PUSH2 0x4D8 SWAP2 SWAP1 PUSH2 0x1269 JUMP JUMPDEST SWAP2 POP PUSH2 0x4F2 JUMP JUMPDEST PUSH4 0x1E13380 DUP3 PUSH2 0x4EF SWAP2 SWAP1 PUSH2 0x1269 JUMP JUMPDEST SWAP2 POP JUMPDEST DUP1 DUP1 PUSH2 0x4FD SWAP1 PUSH2 0x129C JUMP JUMPDEST SWAP2 POP POP PUSH2 0x4AA JUMP JUMPDEST PUSH2 0x50D PUSH2 0xCE6 JUMP JUMPDEST PUSH1 0x1F DUP2 PUSH0 PUSH1 0xC DUP2 LT PUSH2 0x522 JUMPI PUSH2 0x521 PUSH2 0x12C5 JUMP JUMPDEST JUMPDEST PUSH1 0x20 MUL ADD SWAP1 PUSH1 0xFF AND SWAP1 DUP2 PUSH1 0xFF AND DUP2 MSTORE POP POP PUSH2 0x53C DUP10 PUSH2 0x934 JUMP JUMPDEST ISZERO PUSH2 0x56D JUMPI PUSH1 0x1D DUP2 PUSH1 0x1 PUSH1 0xC DUP2 LT PUSH2 0x557 JUMPI PUSH2 0x556 PUSH2 0x12C5 JUMP JUMPDEST JUMPDEST PUSH1 0x20 MUL ADD SWAP1 PUSH1 0xFF AND SWAP1 DUP2 PUSH1 0xFF AND DUP2 MSTORE POP POP PUSH2 0x595 JUMP JUMPDEST PUSH1 0x1C DUP2 PUSH1 0x1 PUSH1 0xC DUP2 LT PUSH2 0x583 JUMPI PUSH2 0x582 PUSH2 0x12C5 JUMP JUMPDEST JUMPDEST PUSH1 0x20 MUL ADD SWAP1 PUSH1 0xFF AND SWAP1 DUP2 PUSH1 0xFF AND DUP2 MSTORE POP POP JUMPDEST PUSH1 0x1F DUP2 PUSH1 0x2 PUSH1 0xC DUP2 LT PUSH2 0x5AB JUMPI PUSH2 0x5AA PUSH2 0x12C5 JUMP JUMPDEST JUMPDEST PUSH1 0x20 MUL ADD SWAP1 PUSH1 0xFF AND SWAP1 DUP2 PUSH1 0xFF AND DUP2 MSTORE POP POP PUSH1 0x1E DUP2 PUSH1 0x3 PUSH1 0xC DUP2 LT PUSH2 0x5D2 JUMPI PUSH2 0x5D1 PUSH2 0x12C5 JUMP JUMPDEST JUMPDEST PUSH1 0x20 MUL ADD SWAP1 PUSH1 0xFF AND SWAP1 DUP2 PUSH1 0xFF AND DUP2 MSTORE POP POP PUSH1 0x1F DUP2 PUSH1 0x4 PUSH1 0xC DUP2 LT PUSH2 0x5F9 JUMPI PUSH2 0x5F8 PUSH2 0x12C5 JUMP JUMPDEST JUMPDEST PUSH1 0x20 MUL ADD SWAP1 PUSH1 0xFF AND SWAP1 DUP2 PUSH1 0xFF AND DUP2 MSTORE POP POP PUSH1 0x1E DUP2 PUSH1 0x5 PUSH1 0xC DUP2 LT PUSH2 0x620 JUMPI PUSH2 0x61F PUSH2 0x12C5 JUMP JUMPDEST JUMPDEST PUSH1 0x20 MUL ADD SWAP1 PUSH1 0xFF AND SWAP1 DUP2 PUSH1 0xFF AND DUP2 MSTORE POP POP PUSH1 0x1F DUP2 PUSH1 0x6 PUSH1 0xC DUP2 LT PUSH2 0x647 JUMPI PUSH2 0x646 PUSH2 0x12C5 JUMP JUMPDEST JUMPDEST PUSH1 0x20 MUL ADD SWAP1 PUSH1 0xFF AND SWAP1 DUP2 PUSH1 0xFF AND DUP2 MSTORE POP POP PUSH1 0x1F DUP2 PUSH1 0x7 PUSH1 0xC DUP2 LT PUSH2 0x66E JUMPI PUSH2 0x66D PUSH2 0x12C5 JUMP JUMPDEST JUMPDEST PUSH1 0x20 MUL ADD SWAP1 PUSH1 0xFF AND SWAP1 DUP2 PUSH1 0xFF AND DUP2 MSTORE POP POP PUSH1 0x1E DUP2 PUSH1 0x8 PUSH1 0xC DUP2 LT PUSH2 0x695 JUMPI PUSH2 0x694 PUSH2 0x12C5 JUMP JUMPDEST JUMPDEST PUSH1 0x20 MUL ADD SWAP1 PUSH1 0xFF AND SWAP1 DUP2 PUSH1 0xFF AND DUP2 MSTORE POP POP PUSH1 0x1F DUP2 PUSH1 0x9 PUSH1 0xC DUP2 LT PUSH2 0x6BC JUMPI PUSH2 0x6BB PUSH2 0x12C5 JUMP JUMPDEST JUMPDEST PUSH1 0x20 MUL ADD SWAP1 PUSH1 0xFF AND SWAP1 DUP2 PUSH1 0xFF AND DUP2 MSTORE POP POP PUSH1 0x1E DUP2 PUSH1 0xA PUSH1 0xC DUP2 LT PUSH2 0x6E3 JUMPI PUSH2 0x6E2 PUSH2 0x12C5 JUMP JUMPDEST JUMPDEST PUSH1 0x20 MUL ADD SWAP1 PUSH1 0xFF AND SWAP1 DUP2 PUSH1 0xFF AND DUP2 MSTORE POP POP PUSH1 0x1F DUP2 PUSH1 0xB PUSH1 0xC DUP2 LT PUSH2 0x70A JUMPI PUSH2 0x709 PUSH2 0x12C5 JUMP JUMPDEST JUMPDEST PUSH1 0x20 MUL ADD SWAP1 PUSH1 0xFF AND SWAP1 DUP2 PUSH1 0xFF AND DUP2 MSTORE POP POP PUSH1 0x1 SWAP2 POP JUMPDEST DUP8 PUSH1 0xFF AND DUP3 PUSH2 0xFFFF AND LT ISZERO PUSH2 0x788 JUMPI DUP1 PUSH1 0x1 DUP4 PUSH2 0x73D SWAP2 SWAP1 PUSH2 0x12F2 JUMP JUMPDEST PUSH2 0xFFFF AND PUSH1 0xC DUP2 LT PUSH2 0x752 JUMPI PUSH2 0x751 PUSH2 0x12C5 JUMP JUMPDEST JUMPDEST PUSH1 0x20 MUL ADD MLOAD PUSH1 0xFF AND PUSH3 0x15180 PUSH2 0x768 SWAP2 SWAP1 PUSH2 0x1327 JUMP JUMPDEST DUP4 PUSH2 0x773 SWAP2 SWAP1 PUSH2 0x1269 JUMP JUMPDEST SWAP3 POP DUP2 DUP1 PUSH2 0x780 SWAP1 PUSH2 0x129C JUMP JUMPDEST SWAP3 POP POP PUSH2 0x720 JUMP JUMPDEST PUSH1 0x1 DUP8 PUSH2 0x795 SWAP2 SWAP1 PUSH2 0x1368 JUMP JUMPDEST PUSH1 0xFF AND PUSH3 0x15180 PUSH2 0x7A6 SWAP2 SWAP1 PUSH2 0x1327 JUMP JUMPDEST DUP4 PUSH2 0x7B1 SWAP2 SWAP1 PUSH2 0x1269 JUMP JUMPDEST SWAP3 POP DUP6 PUSH1 0xFF AND PUSH2 0xE10 PUSH2 0x7C4 SWAP2 SWAP1 PUSH2 0x1327 JUMP JUMPDEST DUP4 PUSH2 0x7CF SWAP2 SWAP1 PUSH2 0x1269 JUMP JUMPDEST SWAP3 POP DUP5 PUSH1 0xFF AND PUSH1 0x3C PUSH2 0x7E1 SWAP2 SWAP1 PUSH2 0x1327 JUMP JUMPDEST DUP4 PUSH2 0x7EC SWAP2 SWAP1 PUSH2 0x1269 JUMP JUMPDEST SWAP3 POP DUP4 PUSH1 0xFF AND DUP4 PUSH2 0x7FD SWAP2 SWAP1 PUSH2 0x1269 JUMP JUMPDEST SWAP3 POP POP POP SWAP7 SWAP6 POP POP POP POP POP POP JUMP JUMPDEST PUSH0 DUP1 PUSH0 SWAP1 POP PUSH0 DUP1 PUSH4 0x1E13380 DUP6 PUSH2 0x822 SWAP2 SWAP1 PUSH2 0x1209 JUMP JUMPDEST PUSH2 0x7B2 PUSH2 0xFFFF AND PUSH2 0x833 SWAP2 SWAP1 PUSH2 0x1269 JUMP JUMPDEST SWAP2 POP PUSH2 0x844 PUSH2 0x7B2 PUSH2 0xFFFF AND PUSH2 0x99E JUMP JUMPDEST PUSH2 0x851 DUP4 PUSH2 0xFFFF AND PUSH2 0x99E JUMP JUMPDEST PUSH2 0x85B SWAP2 SWAP1 PUSH2 0x139C JUMP JUMPDEST SWAP1 POP DUP1 PUSH4 0x1E28500 PUSH2 0x86D SWAP2 SWAP1 PUSH2 0x1327 JUMP JUMPDEST DUP4 PUSH2 0x878 SWAP2 SWAP1 PUSH2 0x1269 JUMP JUMPDEST SWAP3 POP DUP1 PUSH2 0x7B2 DUP4 PUSH2 0x889 SWAP2 SWAP1 PUSH2 0x12F2 JUMP JUMPDEST PUSH2 0xFFFF AND PUSH2 0x897 SWAP2 SWAP1 PUSH2 0x139C JUMP JUMPDEST PUSH4 0x1E13380 PUSH2 0x8A6 SWAP2 SWAP1 PUSH2 0x1327 JUMP JUMPDEST DUP4 PUSH2 0x8B1 SWAP2 SWAP1 PUSH2 0x1269 JUMP JUMPDEST SWAP3 POP JUMPDEST DUP5 DUP4 GT ISZERO PUSH2 0x914 JUMPI PUSH2 0x8D1 PUSH1 0x1 DUP4 PUSH2 0x8CC SWAP2 SWAP1 PUSH2 0x12F2 JUMP JUMPDEST PUSH2 0x934 JUMP JUMPDEST ISZERO PUSH2 0x8ED JUMPI PUSH4 0x1E28500 DUP4 PUSH2 0x8E6 SWAP2 SWAP1 PUSH2 0x139C JUMP JUMPDEST SWAP3 POP PUSH2 0x900 JUMP JUMPDEST PUSH4 0x1E13380 DUP4 PUSH2 0x8FD SWAP2 SWAP1 PUSH2 0x139C JUMP JUMPDEST SWAP3 POP JUMPDEST PUSH1 0x1 DUP3 PUSH2 0x90D SWAP2 SWAP1 PUSH2 0x12F2 JUMP JUMPDEST SWAP2 POP PUSH2 0x8B4 JUMP JUMPDEST DUP2 SWAP4 POP POP POP POP SWAP2 SWAP1 POP JUMP JUMPDEST PUSH0 PUSH2 0x929 DUP3 PUSH2 0xABC JUMP JUMPDEST PUSH1 0x20 ADD MLOAD SWAP1 POP SWAP2 SWAP1 POP JUMP JUMPDEST PUSH0 DUP1 PUSH1 0x4 DUP4 PUSH2 0x943 SWAP2 SWAP1 PUSH2 0x13CF JUMP JUMPDEST PUSH2 0xFFFF AND EQ PUSH2 0x954 JUMPI PUSH0 SWAP1 POP PUSH2 0x999 JUMP JUMPDEST PUSH0 PUSH1 0x64 DUP4 PUSH2 0x962 SWAP2 SWAP1 PUSH2 0x13CF JUMP JUMPDEST PUSH2 0xFFFF AND EQ PUSH2 0x974 JUMPI PUSH1 0x1 SWAP1 POP PUSH2 0x999 JUMP JUMPDEST PUSH0 PUSH2 0x190 DUP4 PUSH2 0x983 SWAP2 SWAP1 PUSH2 0x13CF JUMP JUMPDEST PUSH2 0xFFFF AND EQ PUSH2 0x994 JUMPI PUSH0 SWAP1 POP PUSH2 0x999 JUMP JUMPDEST PUSH1 0x1 SWAP1 POP JUMPDEST SWAP2 SWAP1 POP JUMP JUMPDEST PUSH0 PUSH1 0x1 DUP3 PUSH2 0x9AC SWAP2 SWAP1 PUSH2 0x139C JUMP JUMPDEST SWAP2 POP PUSH2 0x190 DUP3 PUSH2 0x9BC SWAP2 SWAP1 PUSH2 0x1209 JUMP JUMPDEST PUSH1 0x64 DUP4 PUSH2 0x9C9 SWAP2 SWAP1 PUSH2 0x1209 JUMP JUMPDEST PUSH1 0x4 DUP5 PUSH2 0x9D6 SWAP2 SWAP1 PUSH2 0x1209 JUMP JUMPDEST PUSH2 0x9E0 SWAP2 SWAP1 PUSH2 0x139C JUMP JUMPDEST PUSH2 0x9EA SWAP2 SWAP1 PUSH2 0x1269 JUMP JUMPDEST SWAP1 POP SWAP2 SWAP1 POP JUMP JUMPDEST PUSH0 PUSH1 0x1 DUP4 PUSH1 0xFF AND EQ DUP1 PUSH2 0xA07 JUMPI POP PUSH1 0x3 DUP4 PUSH1 0xFF AND EQ JUMPDEST DUP1 PUSH2 0xA15 JUMPI POP PUSH1 0x5 DUP4 PUSH1 0xFF AND EQ JUMPDEST DUP1 PUSH2 0xA23 JUMPI POP PUSH1 0x7 DUP4 PUSH1 0xFF AND EQ JUMPDEST DUP1 PUSH2 0xA31 JUMPI POP PUSH1 0x8 DUP4 PUSH1 0xFF AND EQ JUMPDEST DUP1 PUSH2 0xA3F JUMPI POP PUSH1 0xA DUP4 PUSH1 0xFF AND EQ JUMPDEST DUP1 PUSH2 0xA4D JUMPI POP PUSH1 0xC DUP4 PUSH1 0xFF AND EQ JUMPDEST ISZERO PUSH2 0xA5B JUMPI PUSH1 0x1F SWAP1 POP PUSH2 0xAB6 JUMP JUMPDEST PUSH1 0x4 DUP4 PUSH1 0xFF AND EQ DUP1 PUSH2 0xA70 JUMPI POP PUSH1 0x6 DUP4 PUSH1 0xFF AND EQ JUMPDEST DUP1 PUSH2 0xA7E JUMPI POP PUSH1 0x9 DUP4 PUSH1 0xFF AND EQ JUMPDEST DUP1 PUSH2 0xA8C JUMPI POP PUSH1 0xB DUP4 PUSH1 0xFF AND EQ JUMPDEST ISZERO PUSH2 0xA9A JUMPI PUSH1 0x1E SWAP1 POP PUSH2 0xAB6 JUMP JUMPDEST PUSH2 0xAA3 DUP3 PUSH2 0x934 JUMP JUMPDEST ISZERO PUSH2 0xAB1 JUMPI PUSH1 0x1D SWAP1 POP PUSH2 0xAB6 JUMP JUMPDEST PUSH1 0x1C SWAP1 POP JUMPDEST SWAP3 SWAP2 POP POP JUMP JUMPDEST PUSH2 0xAC4 PUSH2 0xD09 JUMP JUMPDEST PUSH0 DUP1 DUP1 PUSH2 0xAD0 DUP6 PUSH2 0x80B JUMP JUMPDEST DUP5 PUSH0 ADD SWAP1 PUSH2 0xFFFF AND SWAP1 DUP2 PUSH2 0xFFFF AND DUP2 MSTORE POP POP PUSH2 0xAF1 PUSH2 0x7B2 PUSH2 0xFFFF AND PUSH2 0x99E JUMP JUMPDEST PUSH2 0xB01 DUP6 PUSH0 ADD MLOAD PUSH2 0xFFFF AND PUSH2 0x99E JUMP JUMPDEST PUSH2 0xB0B SWAP2 SWAP1 PUSH2 0x139C JUMP JUMPDEST SWAP2 POP DUP2 PUSH4 0x1E28500 PUSH2 0xB1D SWAP2 SWAP1 PUSH2 0x1327 JUMP JUMPDEST DUP4 PUSH2 0xB28 SWAP2 SWAP1 PUSH2 0x1269 JUMP JUMPDEST SWAP3 POP DUP2 PUSH2 0x7B2 DUP6 PUSH0 ADD MLOAD PUSH2 0xB3C SWAP2 SWAP1 PUSH2 0x12F2 JUMP JUMPDEST PUSH2 0xFFFF AND PUSH2 0xB4A SWAP2 SWAP1 PUSH2 0x139C JUMP JUMPDEST PUSH4 0x1E13380 PUSH2 0xB59 SWAP2 SWAP1 PUSH2 0x1327 JUMP JUMPDEST DUP4 PUSH2 0xB64 SWAP2 SWAP1 PUSH2 0x1269 JUMP JUMPDEST SWAP3 POP PUSH0 PUSH1 0x1 SWAP2 POP JUMPDEST PUSH1 0xC DUP3 PUSH1 0xFF AND GT PUSH2 0xBE2 JUMPI PUSH2 0xB84 DUP3 DUP7 PUSH0 ADD MLOAD PUSH2 0x9F1 JUMP JUMPDEST PUSH1 0xFF AND PUSH3 0x15180 PUSH2 0xB95 SWAP2 SWAP1 PUSH2 0x1327 JUMP JUMPDEST SWAP1 POP DUP6 DUP5 DUP3 PUSH2 0xBA4 SWAP2 SWAP1 PUSH2 0x1269 JUMP JUMPDEST GT ISZERO PUSH2 0xBC1 JUMPI DUP2 DUP6 PUSH1 0x20 ADD SWAP1 PUSH1 0xFF AND SWAP1 DUP2 PUSH1 0xFF AND DUP2 MSTORE POP POP PUSH2 0xBE2 JUMP JUMPDEST DUP1 DUP5 PUSH2 0xBCD SWAP2 SWAP1 PUSH2 0x1269 JUMP JUMPDEST SWAP4 POP DUP2 DUP1 PUSH2 0xBDA SWAP1 PUSH2 0x13FF JUMP JUMPDEST SWAP3 POP POP PUSH2 0xB6C JUMP JUMPDEST PUSH1 0x1 SWAP2 POP JUMPDEST PUSH2 0xBF8 DUP6 PUSH1 0x20 ADD MLOAD DUP7 PUSH0 ADD MLOAD PUSH2 0x9F1 JUMP JUMPDEST PUSH1 0xFF AND DUP3 PUSH1 0xFF AND GT PUSH2 0xC55 JUMPI DUP6 DUP5 PUSH3 0x15180 PUSH2 0xC14 SWAP2 SWAP1 PUSH2 0x1269 JUMP JUMPDEST GT ISZERO PUSH2 0xC31 JUMPI DUP2 DUP6 PUSH1 0x40 ADD SWAP1 PUSH1 0xFF AND SWAP1 DUP2 PUSH1 0xFF AND DUP2 MSTORE POP POP PUSH2 0xC55 JUMP JUMPDEST PUSH3 0x15180 DUP5 PUSH2 0xC40 SWAP2 SWAP1 PUSH2 0x1269 JUMP JUMPDEST SWAP4 POP DUP2 DUP1 PUSH2 0xC4D SWAP1 PUSH2 0x13FF JUMP JUMPDEST SWAP3 POP POP PUSH2 0xBE7 JUMP JUMPDEST PUSH2 0xC5E DUP7 PUSH2 0x3D2 JUMP JUMPDEST DUP6 PUSH1 0x60 ADD SWAP1 PUSH1 0xFF AND SWAP1 DUP2 PUSH1 0xFF AND DUP2 MSTORE POP POP PUSH2 0xC78 DUP7 PUSH2 0xCC6 JUMP JUMPDEST DUP6 PUSH1 0x80 ADD SWAP1 PUSH1 0xFF AND SWAP1 DUP2 PUSH1 0xFF AND DUP2 MSTORE POP POP PUSH2 0xC92 DUP7 PUSH2 0x475 JUMP JUMPDEST DUP6 PUSH1 0xA0 ADD SWAP1 PUSH1 0xFF AND SWAP1 DUP2 PUSH1 0xFF AND DUP2 MSTORE POP POP PUSH2 0xCAC DUP7 PUSH2 0x3FE JUMP JUMPDEST DUP6 PUSH1 0xC0 ADD SWAP1 PUSH1 0xFF AND SWAP1 DUP2 PUSH1 0xFF AND DUP2 MSTORE POP POP POP POP POP POP SWAP2 SWAP1 POP JUMP JUMPDEST PUSH0 PUSH1 0x3C DUP1 DUP4 PUSH2 0xCD5 SWAP2 SWAP1 PUSH2 0x1209 JUMP JUMPDEST PUSH2 0xCDF SWAP2 SWAP1 PUSH2 0x1239 JUMP JUMPDEST SWAP1 POP SWAP2 SWAP1 POP JUMP JUMPDEST PUSH1 0x40 MLOAD DUP1 PUSH2 0x180 ADD PUSH1 0x40 MSTORE DUP1 PUSH1 0xC SWAP1 PUSH1 0x20 DUP3 MUL DUP1 CALLDATASIZE DUP4 CALLDATACOPY DUP1 DUP3 ADD SWAP2 POP POP SWAP1 POP POP SWAP1 JUMP JUMPDEST PUSH1 0x40 MLOAD DUP1 PUSH1 0xE0 ADD PUSH1 0x40 MSTORE DUP1 PUSH0 PUSH2 0xFFFF AND DUP2 MSTORE PUSH1 0x20 ADD PUSH0 PUSH1 0xFF AND DUP2 MSTORE PUSH1 0x20 ADD PUSH0 PUSH1 0xFF AND DUP2 MSTORE PUSH1 0x20 ADD PUSH0 PUSH1 0xFF AND DUP2 MSTORE PUSH1 0x20 ADD PUSH0 PUSH1 0xFF AND DUP2 MSTORE PUSH1 0x20 ADD PUSH0 PUSH1 0xFF AND DUP2 MSTORE PUSH1 0x20 ADD PUSH0 PUSH1 0xFF AND DUP2 MSTORE POP SWAP1 JUMP JUMPDEST PUSH0 DUP1 REVERT JUMPDEST PUSH0 DUP2 SWAP1 POP SWAP2 SWAP1 POP JUMP JUMPDEST PUSH2 0xD6B DUP2 PUSH2 0xD59 JUMP JUMPDEST DUP2 EQ PUSH2 0xD75 JUMPI PUSH0 DUP1 REVERT JUMPDEST POP JUMP JUMPDEST PUSH0 DUP2 CALLDATALOAD SWAP1 POP PUSH2 0xD86 DUP2 PUSH2 0xD62 JUMP JUMPDEST SWAP3 SWAP2 POP POP JUMP JUMPDEST PUSH0 PUSH1 0x20 DUP3 DUP5 SUB SLT ISZERO PUSH2 0xDA1 JUMPI PUSH2 0xDA0 PUSH2 0xD55 JUMP JUMPDEST JUMPDEST PUSH0 PUSH2 0xDAE DUP5 DUP3 DUP6 ADD PUSH2 0xD78 JUMP JUMPDEST SWAP2 POP POP SWAP3 SWAP2 POP POP JUMP JUMPDEST PUSH0 PUSH1 0xFF DUP3 AND SWAP1 POP SWAP2 SWAP1 POP JUMP JUMPDEST PUSH2 0xDCC DUP2 PUSH2 0xDB7 JUMP JUMPDEST DUP3 MSTORE POP POP JUMP JUMPDEST PUSH0 PUSH1 0x20 DUP3 ADD SWAP1 POP PUSH2 0xDE5 PUSH0 DUP4 ADD DUP5 PUSH2 0xDC3 JUMP JUMPDEST SWAP3 SWAP2 POP POP JUMP JUMPDEST PUSH0 PUSH2 0xFFFF DUP3 AND SWAP1 POP SWAP2 SWAP1 POP JUMP JUMPDEST PUSH2 0xE01 DUP2 PUSH2 0xDEB JUMP JUMPDEST DUP2 EQ PUSH2 0xE0B JUMPI PUSH0 DUP1 REVERT JUMPDEST POP JUMP JUMPDEST PUSH0 DUP2 CALLDATALOAD SWAP1 POP PUSH2 0xE1C DUP2 PUSH2 0xDF8 JUMP JUMPDEST SWAP3 SWAP2 POP POP JUMP JUMPDEST PUSH2 0xE2B DUP2 PUSH2 0xDB7 JUMP JUMPDEST DUP2 EQ PUSH2 0xE35 JUMPI PUSH0 DUP1 REVERT JUMPDEST POP JUMP JUMPDEST PUSH0 DUP2 CALLDATALOAD SWAP1 POP PUSH2 0xE46 DUP2 PUSH2 0xE22 JUMP JUMPDEST SWAP3 SWAP2 POP POP JUMP JUMPDEST PUSH0 DUP1 PUSH0 DUP1 PUSH0 PUSH1 0xA0 DUP7 DUP9 SUB SLT ISZERO PUSH2 0xE65 JUMPI PUSH2 0xE64 PUSH2 0xD55 JUMP JUMPDEST JUMPDEST PUSH0 PUSH2 0xE72 DUP9 DUP3 DUP10 ADD PUSH2 0xE0E JUMP JUMPDEST SWAP6 POP POP PUSH1 0x20 PUSH2 0xE83 DUP9 DUP3 DUP10 ADD PUSH2 0xE38 JUMP JUMPDEST SWAP5 POP POP PUSH1 0x40 PUSH2 0xE94 DUP9 DUP3 DUP10 ADD PUSH2 0xE38 JUMP JUMPDEST SWAP4 POP POP PUSH1 0x60 PUSH2 0xEA5 DUP9 DUP3 DUP10 ADD PUSH2 0xE38 JUMP JUMPDEST SWAP3 POP POP PUSH1 0x80 PUSH2 0xEB6 DUP9 DUP3 DUP10 ADD PUSH2 0xE38 JUMP JUMPDEST SWAP2 POP POP SWAP3 SWAP6 POP SWAP3 SWAP6 SWAP1 SWAP4 POP JUMP JUMPDEST PUSH2 0xECC DUP2 PUSH2 0xD59 JUMP JUMPDEST DUP3 MSTORE POP POP JUMP JUMPDEST PUSH0 PUSH1 0x20 DUP3 ADD SWAP1 POP PUSH2 0xEE5 PUSH0 DUP4 ADD DUP5 PUSH2 0xEC3 JUMP JUMPDEST SWAP3 SWAP2 POP POP JUMP JUMPDEST PUSH0 DUP1 PUSH0 DUP1 PUSH1 0x80 DUP6 DUP8 SUB SLT ISZERO PUSH2 0xF03 JUMPI PUSH2 0xF02 PUSH2 0xD55 JUMP JUMPDEST JUMPDEST PUSH0 PUSH2 0xF10 DUP8 DUP3 DUP9 ADD PUSH2 0xE0E JUMP JUMPDEST SWAP5 POP POP PUSH1 0x20 PUSH2 0xF21 DUP8 DUP3 DUP9 ADD PUSH2 0xE38 JUMP JUMPDEST SWAP4 POP POP PUSH1 0x40 PUSH2 0xF32 DUP8 DUP3 DUP9 ADD PUSH2 0xE38 JUMP JUMPDEST SWAP3 POP POP PUSH1 0x60 PUSH2 0xF43 DUP8 DUP3 DUP9 ADD PUSH2 0xE38 JUMP JUMPDEST SWAP2 POP POP SWAP3 SWAP6 SWAP2 SWAP5 POP SWAP3 POP JUMP JUMPDEST PUSH0 DUP1 PUSH0 PUSH1 0x60 DUP5 DUP7 SUB SLT ISZERO PUSH2 0xF66 JUMPI PUSH2 0xF65 PUSH2 0xD55 JUMP JUMPDEST JUMPDEST PUSH0 PUSH2 0xF73 DUP7 DUP3 DUP8 ADD PUSH2 0xE0E JUMP JUMPDEST SWAP4 POP POP PUSH1 0x20 PUSH2 0xF84 DUP7 DUP3 DUP8 ADD PUSH2 0xE38 JUMP JUMPDEST SWAP3 POP POP PUSH1 0x40 PUSH2 0xF95 DUP7 DUP3 DUP8 ADD PUSH2 0xE38 JUMP JUMPDEST SWAP2 POP POP SWAP3 POP SWAP3 POP SWAP3 JUMP JUMPDEST PUSH0 DUP1 PUSH0 DUP1 PUSH0 DUP1 PUSH1 0xC0 DUP8 DUP10 SUB SLT ISZERO PUSH2 0xFB9 JUMPI PUSH2 0xFB8 PUSH2 0xD55 JUMP JUMPDEST JUMPDEST PUSH0 PUSH2 0xFC6 DUP10 DUP3 DUP11 ADD PUSH2 0xE0E JUMP JUMPDEST SWAP7 POP POP PUSH1 0x20 PUSH2 0xFD7 DUP10 DUP3 DUP11 ADD PUSH2 0xE38 JUMP JUMPDEST SWAP6 POP POP PUSH1 0x40 PUSH2 0xFE8 DUP10 DUP3 DUP11 ADD PUSH2 0xE38 JUMP JUMPDEST SWAP5 POP POP PUSH1 0x60 PUSH2 0xFF9 DUP10 DUP3 DUP11 ADD PUSH2 0xE38 JUMP JUMPDEST SWAP4 POP POP PUSH1 0x80 PUSH2 0x100A DUP10 DUP3 DUP11 ADD PUSH2 0xE38 JUMP JUMPDEST SWAP3 POP POP PUSH1 0xA0 PUSH2 0x101B DUP10 DUP3 DUP11 ADD PUSH2 0xE38 JUMP JUMPDEST SWAP2 POP POP SWAP3 SWAP6 POP SWAP3 SWAP6 POP SWAP3 SWAP6 JUMP JUMPDEST PUSH2 0x1031 DUP2 PUSH2 0xDEB JUMP JUMPDEST DUP3 MSTORE POP POP JUMP JUMPDEST PUSH0 PUSH1 0x20 DUP3 ADD SWAP1 POP PUSH2 0x104A PUSH0 DUP4 ADD DUP5 PUSH2 0x1028 JUMP JUMPDEST SWAP3 SWAP2 POP POP JUMP JUMPDEST PUSH0 PUSH1 0x20 DUP3 DUP5 SUB SLT ISZERO PUSH2 0x1065 JUMPI PUSH2 0x1064 PUSH2 0xD55 JUMP JUMPDEST JUMPDEST PUSH0 PUSH2 0x1072 DUP5 DUP3 DUP6 ADD PUSH2 0xE0E JUMP JUMPDEST SWAP2 POP POP SWAP3 SWAP2 POP POP JUMP JUMPDEST PUSH0 DUP2 ISZERO ISZERO SWAP1 POP SWAP2 SWAP1 POP JUMP JUMPDEST PUSH2 0x108F DUP2 PUSH2 0x107B JUMP JUMPDEST DUP3 MSTORE POP POP JUMP JUMPDEST PUSH0 PUSH1 0x20 DUP3 ADD SWAP1 POP PUSH2 0x10A8 PUSH0 DUP4 ADD DUP5 PUSH2 0x1086 JUMP JUMPDEST SWAP3 SWAP2 POP POP JUMP JUMPDEST PUSH0 DUP1 PUSH1 0x40 DUP4 DUP6 SUB SLT ISZERO PUSH2 0x10C4 JUMPI PUSH2 0x10C3 PUSH2 0xD55 JUMP JUMPDEST JUMPDEST PUSH0 PUSH2 0x10D1 DUP6 DUP3 DUP7 ADD PUSH2 0xE38 JUMP JUMPDEST SWAP3 POP POP PUSH1 0x20 PUSH2 0x10E2 DUP6 DUP3 DUP7 ADD PUSH2 0xE0E JUMP JUMPDEST SWAP2 POP POP SWAP3 POP SWAP3 SWAP1 POP JUMP JUMPDEST PUSH2 0x10F5 DUP2 PUSH2 0xDEB JUMP JUMPDEST DUP3 MSTORE POP POP JUMP JUMPDEST PUSH2 0x1104 DUP2 PUSH2 0xDB7 JUMP JUMPDEST DUP3 MSTORE POP POP JUMP JUMPDEST PUSH1 0xE0 DUP3 ADD PUSH0 DUP3 ADD MLOAD PUSH2 0x111E PUSH0 DUP6 ADD DUP3 PUSH2 0x10EC JUMP JUMPDEST POP PUSH1 0x20 DUP3 ADD MLOAD PUSH2 0x1131 PUSH1 0x20 DUP6 ADD DUP3 PUSH2 0x10FB JUMP JUMPDEST POP PUSH1 0x40 DUP3 ADD MLOAD PUSH2 0x1144 PUSH1 0x40 DUP6 ADD DUP3 PUSH2 0x10FB JUMP JUMPDEST POP PUSH1 0x60 DUP3 ADD MLOAD PUSH2 0x1157 PUSH1 0x60 DUP6 ADD DUP3 PUSH2 0x10FB JUMP JUMPDEST POP PUSH1 0x80 DUP3 ADD MLOAD PUSH2 0x116A PUSH1 0x80 DUP6 ADD DUP3 PUSH2 0x10FB JUMP JUMPDEST POP PUSH1 0xA0 DUP3 ADD MLOAD PUSH2 0x117D PUSH1 0xA0 DUP6 ADD DUP3 PUSH2 0x10FB JUMP JUMPDEST POP PUSH1 0xC0 DUP3 ADD MLOAD PUSH2 0x1190 PUSH1 0xC0 DUP6 ADD DUP3 PUSH2 0x10FB JUMP JUMPDEST POP POP POP POP JUMP JUMPDEST PUSH0 PUSH1 0xE0 DUP3 ADD SWAP1 POP PUSH2 0x11A9 PUSH0 DUP4 ADD DUP5 PUSH2 0x110A JUMP JUMPDEST SWAP3 SWAP2 POP POP JUMP JUMPDEST PUSH32 0x4E487B7100000000000000000000000000000000000000000000000000000000 PUSH0 MSTORE PUSH1 0x12 PUSH1 0x4 MSTORE PUSH1 0x24 PUSH0 REVERT JUMPDEST PUSH32 0x4E487B7100000000000000000000000000000000000000000000000000000000 PUSH0 MSTORE PUSH1 0x11 PUSH1 0x4 MSTORE PUSH1 0x24 PUSH0 REVERT JUMPDEST PUSH0 PUSH2 0x1213 DUP3 PUSH2 0xD59 JUMP JUMPDEST SWAP2 POP PUSH2 0x121E DUP4 PUSH2 0xD59 JUMP JUMPDEST SWAP3 POP DUP3 PUSH2 0x122E JUMPI PUSH2 0x122D PUSH2 0x11AF JUMP JUMPDEST JUMPDEST DUP3 DUP3 DIV SWAP1 POP SWAP3 SWAP2 POP POP JUMP JUMPDEST PUSH0 PUSH2 0x1243 DUP3 PUSH2 0xD59 JUMP JUMPDEST SWAP2 POP PUSH2 0x124E DUP4 PUSH2 0xD59 JUMP JUMPDEST SWAP3 POP DUP3 PUSH2 0x125E JUMPI PUSH2 0x125D PUSH2 0x11AF JUMP JUMPDEST JUMPDEST DUP3 DUP3 MOD SWAP1 POP SWAP3 SWAP2 POP POP JUMP JUMPDEST PUSH0 PUSH2 0x1273 DUP3 PUSH2 0xD59 JUMP JUMPDEST SWAP2 POP PUSH2 0x127E DUP4 PUSH2 0xD59 JUMP JUMPDEST SWAP3 POP DUP3 DUP3 ADD SWAP1 POP DUP1 DUP3 GT ISZERO PUSH2 0x1296 JUMPI PUSH2 0x1295 PUSH2 0x11DC JUMP JUMPDEST JUMPDEST SWAP3 SWAP2 POP POP JUMP JUMPDEST PUSH0 PUSH2 0x12A6 DUP3 PUSH2 0xDEB JUMP JUMPDEST SWAP2 POP PUSH2 0xFFFF DUP3 SUB PUSH2 0x12BA JUMPI PUSH2 0x12B9 PUSH2 0x11DC JUMP JUMPDEST JUMPDEST PUSH1 0x1 DUP3 ADD SWAP1 POP SWAP2 SWAP1 POP JUMP JUMPDEST PUSH32 0x4E487B7100000000000000000000000000000000000000000000000000000000 PUSH0 MSTORE PUSH1 0x32 PUSH1 0x4 MSTORE PUSH1 0x24 PUSH0 REVERT JUMPDEST PUSH0 PUSH2 0x12FC DUP3 PUSH2 0xDEB JUMP JUMPDEST SWAP2 POP PUSH2 0x1307 DUP4 PUSH2 0xDEB JUMP JUMPDEST SWAP3 POP DUP3 DUP3 SUB SWAP1 POP PUSH2 0xFFFF DUP2 GT ISZERO PUSH2 0x1321 JUMPI PUSH2 0x1320 PUSH2 0x11DC JUMP JUMPDEST JUMPDEST SWAP3 SWAP2 POP POP JUMP JUMPDEST PUSH0 PUSH2 0x1331 DUP3 PUSH2 0xD59 JUMP JUMPDEST SWAP2 POP PUSH2 0x133C DUP4 PUSH2 0xD59 JUMP JUMPDEST SWAP3 POP DUP3 DUP3 MUL PUSH2 0x134A DUP2 PUSH2 0xD59 JUMP JUMPDEST SWAP2 POP DUP3 DUP3 DIV DUP5 EQ DUP4 ISZERO OR PUSH2 0x1361 JUMPI PUSH2 0x1360 PUSH2 0x11DC JUMP JUMPDEST JUMPDEST POP SWAP3 SWAP2 POP POP JUMP JUMPDEST PUSH0 PUSH2 0x1372 DUP3 PUSH2 0xDB7 JUMP JUMPDEST SWAP2 POP PUSH2 0x137D DUP4 PUSH2 0xDB7 JUMP JUMPDEST SWAP3 POP DUP3 DUP3 SUB SWAP1 POP PUSH1 0xFF DUP2 GT ISZERO PUSH2 0x1396 JUMPI PUSH2 0x1395 PUSH2 0x11DC JUMP JUMPDEST JUMPDEST SWAP3 SWAP2 POP POP JUMP JUMPDEST PUSH0 PUSH2 0x13A6 DUP3 PUSH2 0xD59 JUMP JUMPDEST SWAP2 POP PUSH2 0x13B1 DUP4 PUSH2 0xD59 JUMP JUMPDEST SWAP3 POP DUP3 DUP3 SUB SWAP1 POP DUP2 DUP2 GT ISZERO PUSH2 0x13C9 JUMPI PUSH2 0x13C8 PUSH2 0x11DC JUMP JUMPDEST JUMPDEST SWAP3 SWAP2 POP POP JUMP JUMPDEST PUSH0 PUSH2 0x13D9 DUP3 PUSH2 0xDEB JUMP JUMPDEST SWAP2 POP PUSH2 0x13E4 DUP4 PUSH2 0xDEB JUMP JUMPDEST SWAP3 POP DUP3 PUSH2 0x13F4 JUMPI PUSH2 0x13F3 PUSH2 0x11AF JUMP JUMPDEST JUMPDEST DUP3 DUP3 MOD SWAP1 POP SWAP3 SWAP2 POP POP JUMP JUMPDEST PUSH0 PUSH2 0x1409 DUP3 PUSH2 0xDB7 JUMP JUMPDEST SWAP2 POP PUSH1 0xFF DUP3 SUB PUSH2 0x141C JUMPI PUSH2 0x141B PUSH2 0x11DC JUMP JUMPDEST JUMPDEST PUSH1 0x1 DUP3 ADD SWAP1 POP SWAP2 SWAP1 POP JUMP INVALID LOG2 PUSH5 0x6970667358 0x22 SLT KECCAK256 0xB6 DUP9 RETURNDATASIZE 0xAC 0xC3 MUL DUP2 0xD9 0x5D PUSH12 0x331C06D22CD041D13798526 0xCF RETURNDATASIZE 0x25 PUSH15 0xE9A0FD5973A364736F6C6343000814 STOP CALLER "
				},
				"gasEstimates": {
					"creation": {
						"codeDepositCost": "1042600",
						"executionCost": "1107",
						"totalCost": "1043707"
					},
					"external": {
						"getDay(uint256)": "infinite",
						"getDaysInMonth(uint8,uint16)": "infinite",
						"getHour(uint256)": "infinite",
						"getMinute(uint256)": "infinite",
						"getMonth(uint256)": "infinite",
						"getSecond(uint256)": "infinite",
						"getWeekday(uint256)": "infinite",
						"getYear(uint256)": "infinite",
						"isLeapYear(uint16)": "infinite",
						"leapYearsBefore(uint256)": "infinite",
						"parseTimestamp(uint256)": "infinite",
						"toTimestamp(uint16,uint8,uint8)": "infinite",
						"toTimestamp(uint16,uint8,uint8,uint8)": "infinite",
						"toTimestamp(uint16,uint8,uint8,uint8,uint8)": "infinite",
						"toTimestamp(uint16,uint8,uint8,uint8,uint8,uint8)": "infinite"
					},
					"internal": {
						"dnow()": "infinite"
					}
				},
				"methodIdentifiers": {
					"getDay(uint256)": "65c72840",
					"getDaysInMonth(uint8,uint16)": "b238ad0e",
					"getHour(uint256)": "3e239e1a",
					"getMinute(uint256)": "fa93f883",
					"getMonth(uint256)": "a324ad24",
					"getSecond(uint256)": "8aa001fc",
					"getWeekday(uint256)": "4ac1ad78",
					"getYear(uint256)": "92d66313",
					"isLeapYear(uint16)": "a6f0e577",
					"leapYearsBefore(uint256)": "b1999937",
					"parseTimestamp(uint256)": "f97d0591",
					"toTimestamp(uint16,uint8,uint8)": "8c8d98a0",
					"toTimestamp(uint16,uint8,uint8,uint8)": "7f791833",
					"toTimestamp(uint16,uint8,uint8,uint8,uint8)": "62ba9687",
					"toTimestamp(uint16,uint8,uint8,uint8,uint8,uint8)": "9054bdec"
				}
			},
			"storageLayout": {
				"storage": [],
				"types": null
			},
			"userdoc": {
				"kind": "user",
				"methods": {},
				"version": 1
			}
		}
	}
}