{
  "_format": "hh-sol-artifact-1",
  "contractName": "ContractLogic",
  "sourceName": "contracts/ContractLogic.sol",
  "abi": [
    {
      "inputs": [
        {
          "internalType": "address",
          "name": "directoryRepositoryAddress",
          "type": "address"
        },
        {
          "internalType": "address",
          "name": "fileRepositoryAddress",
          "type": "address"
        },
        {
          "internalType": "address",
          "name": "fileStatementRepositoryAddress",
          "type": "address"
        }
      ],
      "stateMutability": "nonpayable",
      "type": "constructor"
    },
    {
      "anonymous": false,
      "inputs": [
        {
          "indexed": false,
          "internalType": "string",
          "name": "id",
          "type": "string"
        },
        {
          "indexed": false,
          "internalType": "string",
          "name": "directoryId",
          "type": "string"
        }
      ],
      "name": "DirectoryCreated",
      "type": "event"
    },
    {
      "anonymous": false,
      "inputs": [
        {
          "indexed": false,
          "internalType": "string",
          "name": "id",
          "type": "string"
        },
        {
          "indexed": false,
          "internalType": "string",
          "name": "directoryId",
          "type": "string"
        }
      ],
      "name": "FileStatementInserted",
      "type": "event"
    },
    {
      "inputs": [
        {
          "internalType": "string",
          "name": "directoryId",
          "type": "string"
        },
        {
          "internalType": "string",
          "name": "fileId",
          "type": "string"
        },
        {
          "internalType": "string",
          "name": "fileName",
          "type": "string"
        }
      ],
      "name": "addFileStatement",
      "outputs": [],
      "stateMutability": "payable",
      "type": "function"
    },
    {
      "inputs": [
        {
          "internalType": "string",
          "name": "name",
          "type": "string"
        },
        {
          "internalType": "string",
          "name": "parentId",
          "type": "string"
        }
      ],
      "name": "createDirectory",
      "outputs": [],
      "stateMutability": "payable",
      "type": "function"
    },
    {
      "inputs": [
        {
          "internalType": "string",
          "name": "id",
          "type": "string"
        }
      ],
      "name": "getDirectoryData",
      "outputs": [
        {
          "components": [
            {
              "internalType": "string",
              "name": "Id",
              "type": "string"
            },
            {
              "internalType": "string",
              "name": "ParentId",
              "type": "string"
            },
            {
              "internalType": "string",
              "name": "Name",
              "type": "string"
            },
            {
              "internalType": "address",
              "name": "Creator",
              "type": "address"
            },
            {
              "internalType": "uint256",
              "name": "DateCreated",
              "type": "uint256"
            }
          ],
          "internalType": "struct DirectoryFrame[]",
          "name": "",
          "type": "tuple[]"
        },
        {
          "components": [
            {
              "internalType": "string",
              "name": "Id",
              "type": "string"
            },
            {
              "internalType": "string",
              "name": "Name",
              "type": "string"
            },
            {
              "internalType": "string",
              "name": "Extension",
              "type": "string"
            }
          ],
          "internalType": "struct FileOutput[]",
          "name": "",
          "type": "tuple[]"
        },
        {
          "components": [
            {
              "internalType": "string",
              "name": "DirectoryId",
              "type": "string"
            },
            {
              "internalType": "uint256",
              "name": "FilesCount",
              "type": "uint256"
            },
            {
              "internalType": "uint256",
              "name": "DirectoriesCount",
              "type": "uint256"
            },
            {
              "internalType": "uint256",
              "name": "Size",
              "type": "uint256"
            }
          ],
          "internalType": "struct DirectoryInfoFrame",
          "name": "",
          "type": "tuple"
        }
      ],
      "stateMutability": "view",
      "type": "function"
    },
    {
      "inputs": [],
      "name": "getOrCreateRoot",
      "outputs": [],
      "stateMutability": "payable",
      "type": "function"
    },
    {
      "inputs": [],
      "name": "getRoot",
      "outputs": [
        {
          "internalType": "bool",
          "name": "",
          "type": "bool"
        },
        {
          "components": [
            {
              "internalType": "string",
              "name": "Id",
              "type": "string"
            },
            {
              "internalType": "string",
              "name": "ParentId",
              "type": "string"
            },
            {
              "internalType": "string",
              "name": "Name",
              "type": "string"
            },
            {
              "internalType": "address",
              "name": "Creator",
              "type": "address"
            },
            {
              "internalType": "uint256",
              "name": "DateCreated",
              "type": "uint256"
            }
          ],
          "internalType": "struct DirectoryFrame",
          "name": "",
          "type": "tuple"
        }
      ],
      "stateMutability": "view",
      "type": "function"
    }
  ],
  "bytecode": "0x608060405234801561001057600080fd5b5060405161118838038061118883398101604081905261002f916100bf565b600080546001600160a01b038086166001600160a01b031992831617909255600180548584169216919091179055600280546001600160a81b03191691831691909117600160a01b90811791829055900460ff1661009b576002805460ff60a01b1916600160a01b1790555b505050610102565b80516001600160a01b03811681146100ba57600080fd5b919050565b6000806000606084860312156100d457600080fd5b6100dd846100a3565b92506100eb602085016100a3565b91506100f9604085016100a3565b90509250925092565b611077806101116000396000f3fe60806040526004361061005a5760003560e01c80635ca1e165116100435780635ca1e165146100ac578063eb849f28146100cf578063ef8bfa3e146100e257600080fd5b80633659b0c21461005f578063570b08c214610097575b600080fd5b34801561006b57600080fd5b5061007f61007a36600461071d565b6100ea565b60405161008e9392919061085b565b60405180910390f35b6100aa6100a5366004610965565b61024d565b005b3480156100b857600080fd5b506100c16103bf565b60405161008e9291906109ed565b6100aa6100dd366004610a08565b61048d565b6100aa610565565b6060806101186040518060800160405280606081526020016000815260200160008152602001600081525090565b600080546040517f04c9416900000000000000000000000000000000000000000000000000000000815282916001600160a01b0316906304c9416990610162908990600401610a6c565b600060405180830381865afa15801561017f573d6000803e3d6000fd5b505050506040513d6000823e601f3d908101601f191682016040526101a79190810190610c3d565b6001546040517fb54146830000000000000000000000000000000000000000000000000000000081529294509092506000916001600160a01b039091169063b5414683906101f9908590600401610d0a565b600060405180830381865afa158015610216573d6000803e3d6000fd5b505050506040513d6000823e601f3d908101601f1916820160405261023e9190810190610d1d565b92979296509094509092505050565b600080546040517f929ad6c20000000000000000000000000000000000000000000000000000000081526001600160a01b039091169063929ad6c2906102999033908890600401610e50565b6000604051808303816000875af11580156102b8573d6000803e3d6000fd5b505050506040513d6000823e601f3d908101601f191682016040526102e09190810190610e72565b60025481516040517f9527b19b0000000000000000000000000000000000000000000000000000000081529293506000926001600160a01b0390921691639527b19b916103369133918991899190600401610ea7565b6000604051808303816000875af1158015610355573d6000803e3d6000fd5b505050506040513d6000823e601f3d908101601f1916820160405261037d9190810190610efa565b90507fdd72d24a81cee2dccafca42db63081d8d03044ef9384006ab040d2255a0e4f4481866040516103b0929190610f2f565b60405180910390a15050505050565b60006103fc6040518060a0016040528060608152602001606081526020016060815260200160006001600160a01b03168152602001600081525090565b6000546040517f079cf76e0000000000000000000000000000000000000000000000000000000081523360048201526001600160a01b039091169063079cf76e90602401600060405180830381865afa15801561045d573d6000803e3d6000fd5b505050506040513d6000823e601f3d908101601f191682016040526104859190810190610f5d565b915091509091565b600080546040517f46bc7fd900000000000000000000000000000000000000000000000000000000815282916001600160a01b0316906346bc7fd9906104db90339088908890600401610fa9565b6000604051808303816000875af11580156104fa573d6000803e3d6000fd5b505050506040513d6000823e601f3d908101601f191682016040526105229190810190610fe7565b915091507f4c9693bd5995e807ecd0b699b880b4048ef773d06f9baba5e936216a97c888bd8282604051610557929190610f2f565b60405180910390a150505050565b6000546040517f49b1cea80000000000000000000000000000000000000000000000000000000081523360048201526001600160a01b03909116906349b1cea8906024016000604051808303816000875af11580156105c8573d6000803e3d6000fd5b505050506040513d6000823e601f3d908101601f191682016040526105f09190810190610e72565b50565b7f4e487b7100000000000000000000000000000000000000000000000000000000600052604160045260246000fd5b60405160a0810167ffffffffffffffff81118282101715610645576106456105f3565b60405290565b6040516060810167ffffffffffffffff81118282101715610645576106456105f3565b604051601f8201601f1916810167ffffffffffffffff81118282101715610697576106976105f3565b604052919050565b600067ffffffffffffffff8211156106b9576106b96105f3565b50601f01601f191660200190565b600082601f8301126106d857600080fd5b81356106eb6106e68261069f565b61066e565b81815284602083860101111561070057600080fd5b816020850160208301376000918101602001919091529392505050565b60006020828403121561072f57600080fd5b813567ffffffffffffffff81111561074657600080fd5b610752848285016106c7565b949350505050565b60005b8381101561077557818101518382015260200161075d565b50506000910152565b6000815180845261079681602086016020860161075a565b601f01601f19169290920160200192915050565b6000815160a084526107bf60a085018261077e565b9050602083015184820360208601526107d8828261077e565b915050604083015184820360408601526107f2828261077e565b9150506001600160a01b036060840151166060850152608083015160808501528091505092915050565b6000815160808452610831608085018261077e565b90506020830151602085015260408301516040850152606083015160608501528091505092915050565b6000606080830181845280875180835260808601915060808160051b87010192506020808a0160005b838110156108b257607f198987030185526108a08683516107aa565b95509382019390820190600101610884565b505086840381880152885180855281850193509150600582901b8401810189820160005b8481101561094257868303601f19018652815180518985526108fa8a86018261077e565b90508582015185820387870152610911828261077e565b9150506040808301519250858203818701525061092e818361077e565b9786019794505050908301906001016108d6565b50508781036040890152610956818a61081c565b9b9a5050505050505050505050565b60008060006060848603121561097a57600080fd5b833567ffffffffffffffff8082111561099257600080fd5b61099e878388016106c7565b945060208601359150808211156109b457600080fd5b6109c0878388016106c7565b935060408601359150808211156109d657600080fd5b506109e3868287016106c7565b9150509250925092565b821515815260406020820152600061075260408301846107aa565b60008060408385031215610a1b57600080fd5b823567ffffffffffffffff80821115610a3357600080fd5b610a3f868387016106c7565b93506020850135915080821115610a5557600080fd5b50610a62858286016106c7565b9150509250929050565b602081526000610a7f602083018461077e565b9392505050565b600067ffffffffffffffff821115610aa057610aa06105f3565b5060051b60200190565b600082601f830112610abb57600080fd5b8151610ac96106e68261069f565b818152846020838601011115610ade57600080fd5b61075282602083016020870161075a565b80516001600160a01b0381168114610b0657600080fd5b919050565b600060a08284031215610b1d57600080fd5b610b25610622565b9050815167ffffffffffffffff80821115610b3f57600080fd5b610b4b85838601610aaa565b83526020840151915080821115610b6157600080fd5b610b6d85838601610aaa565b60208401526040840151915080821115610b8657600080fd5b50610b9384828501610aaa565b604083015250610ba560608301610aef565b60608201526080820151608082015292915050565b600060808284031215610bcc57600080fd5b6040516080810167ffffffffffffffff8282108183111715610bf057610bf06105f3565b816040528293508451915080821115610c0857600080fd5b50610c1585828601610aaa565b8252506020830151602082015260408301516040820152606083015160608201525092915050565b60008060408385031215610c5057600080fd5b825167ffffffffffffffff80821115610c6857600080fd5b818501915085601f830112610c7c57600080fd5b81516020610c8c6106e683610a86565b82815260059290921b84018101918181019089841115610cab57600080fd5b8286015b84811015610ce357805186811115610cc75760008081fd5b610cd58c86838b0101610b0b565b845250918301918301610caf565b5091880151919650909350505080821115610cfd57600080fd5b50610a6285828601610bba565b602081526000610a7f602083018461081c565b60006020808385031215610d3057600080fd5b825167ffffffffffffffff80821115610d4857600080fd5b818501915085601f830112610d5c57600080fd5b8151610d6a6106e682610a86565b81815260059190911b83018401908481019088831115610d8957600080fd5b8585015b83811015610e4357805185811115610da55760008081fd5b86016060818c03601f1901811315610dbd5760008081fd5b610dc561064b565b8983015188811115610dd75760008081fd5b610de58e8c83870101610aaa565b82525060408084015189811115610dfc5760008081fd5b610e0a8f8d83880101610aaa565b838d015250918301519188831115610e225760008081fd5b610e308e8c85870101610aaa565b9082015285525050918601918601610d8d565b5098975050505050505050565b6001600160a01b0383168152604060208201526000610752604083018461077e565b600060208284031215610e8457600080fd5b815167ffffffffffffffff811115610e9b57600080fd5b61075284828501610b0b565b6001600160a01b0385168152608060208201526000610ec9608083018661077e565b8281036040840152610edb818661077e565b90508281036060840152610eef818561077e565b979650505050505050565b600060208284031215610f0c57600080fd5b815167ffffffffffffffff811115610f2357600080fd5b61075284828501610aaa565b604081526000610f42604083018561077e565b8281036020840152610f54818561077e565b95945050505050565b60008060408385031215610f7057600080fd5b82518015158114610f8057600080fd5b602084015190925067ffffffffffffffff811115610f9d57600080fd5b610a6285828601610b0b565b6001600160a01b0384168152606060208201526000610fcb606083018561077e565b8281036040840152610fdd818561077e565b9695505050505050565b60008060408385031215610ffa57600080fd5b825167ffffffffffffffff8082111561101257600080fd5b61101e86838701610aaa565b9350602085015191508082111561103457600080fd5b50610a6285828601610aaa56fea26469706673582212209dcc559948f0d8c014fe5c5ecb550747e8753958c1f0b5d214d30db64a53321b64736f6c63430008110033",
  "linkReferences": {},
  "deployedLinkReferences": {}
}