{
  "contractName": "BinaryHelper",
  "abi": [
    {
      "inputs": [
        {
          "internalType": "bytes",
          "name": "b_data",
          "type": "bytes"
        },
        {
          "internalType": "uint256",
          "name": "strLength",
          "type": "uint256"
        }
      ],
      "name": "copyBytes",
      "outputs": [
        {
          "internalType": "bytes",
          "name": "resultData",
          "type": "bytes"
        }
      ],
      "stateMutability": "pure",
      "type": "function",
      "constant": true
    },
    {
      "inputs": [
        {
          "internalType": "bytes",
          "name": "b_data",
          "type": "bytes"
        }
      ],
      "name": "reverseBytes",
      "outputs": [
        {
          "internalType": "bytes",
          "name": "",
          "type": "bytes"
        }
      ],
      "stateMutability": "pure",
      "type": "function",
      "constant": true
    }
  ],
  "bytecode": "0x6105ce610053600b82828239805160001a607314610046577f4e487b7100000000000000000000000000000000000000000000000000000000600052600060045260246000fd5b30600052607381538281f3fe73000000000000000000000000000000000000000030146080604052600436106100405760003560e01c80632f278ecb14610045578063c5249be914610075575b600080fd5b61005f600480360381019061005a91906102f1565b6100a5565b60405161006c91906103d7565b60405180910390f35b61008f600480360381019061008a919061042f565b6101a6565b60405161009c91906103d7565b60405180910390f35b606060008383905067ffffffffffffffff8111156100c6576100c561048f565b5b6040519080825280601f01601f1916602001820160405280156100f85781602001600182028036833780820191505090505b509050600060018585905061010d91906104ed565b905060005b8585905081101561019a578585828461012b91906104ed565b81811061013b5761013a610521565b5b9050013560f81c60f81b83828151811061015857610157610521565b5b60200101907effffffffffffffffffffffffffffffffffffffffffffffffffffffffffffff1916908160001a905350808061019290610550565b915050610112565b50819250505092915050565b606060008267ffffffffffffffff8111156101c4576101c361048f565b5b6040519080825280601f01601f1916602001820160405280156101f65781602001600182028036833780820191505090505b50905060005b838110156102765785858281811061021757610216610521565b5b9050013560f81c60f81b82828151811061023457610233610521565b5b60200101907effffffffffffffffffffffffffffffffffffffffffffffffffffffffffffff1916908160001a905350808061026e90610550565b9150506101fc565b50809150509392505050565b600080fd5b600080fd5b600080fd5b600080fd5b600080fd5b60008083601f8401126102b1576102b061028c565b5b8235905067ffffffffffffffff8111156102ce576102cd610291565b5b6020830191508360018202830111156102ea576102e9610296565b5b9250929050565b6000806020838503121561030857610307610282565b5b600083013567ffffffffffffffff81111561032657610325610287565b5b6103328582860161029b565b92509250509250929050565b600081519050919050565b600082825260208201905092915050565b60005b8381101561037857808201518184015260208101905061035d565b83811115610387576000848401525b50505050565b6000601f19601f8301169050919050565b60006103a98261033e565b6103b38185610349565b93506103c381856020860161035a565b6103cc8161038d565b840191505092915050565b600060208201905081810360008301526103f1818461039e565b905092915050565b6000819050919050565b61040c816103f9565b811461041757600080fd5b50565b60008135905061042981610403565b92915050565b60008060006040848603121561044857610447610282565b5b600084013567ffffffffffffffff81111561046657610465610287565b5b6104728682870161029b565b935093505060206104858682870161041a565b9150509250925092565b7f4e487b7100000000000000000000000000000000000000000000000000000000600052604160045260246000fd5b7f4e487b7100000000000000000000000000000000000000000000000000000000600052601160045260246000fd5b60006104f8826103f9565b9150610503836103f9565b925082821015610516576105156104be565b5b828203905092915050565b7f4e487b7100000000000000000000000000000000000000000000000000000000600052603260045260246000fd5b600061055b826103f9565b91507fffffffffffffffffffffffffffffffffffffffffffffffffffffffffffffffff820361058d5761058c6104be565b5b60018201905091905056fea264697066735822122044f810d159b87cf8bcba336093ca5a25b24c4a21b08bf632beb7bdab787c091764736f6c634300080f0033",
  "immutableReferences": {},
  "source": "// SPDX-License-Identifier: MIT\r\npragma solidity ^0.8;\r\n\r\n/**\r\n * @dev Binary operations.\r\n */\r\nlibrary BinaryHelper {\r\n    /**\r\n     * `string` contains special characters.\r\n     */\r\n    function strContains(\r\n        string memory inputCase,\r\n        bytes memory chars\r\n    ) internal pure returns (bool) {\r\n        bytes memory b_inputCase = bytes(inputCase);\r\n        bool result = false;\r\n        for (uint256 i = 0; i < b_inputCase.length; i++) {\r\n            for (uint256 j = 0; j < chars.length; j++) {\r\n                //string is contains char\r\n                if (b_inputCase[i] == chars[j]) {\r\n                    result = true;\r\n                    break;\r\n                }\r\n            }\r\n            if (result) {\r\n                break;\r\n            }\r\n        }\r\n        return result;\r\n    }\r\n\r\n    function copyBytes(\r\n        bytes calldata b_data,\r\n        uint256 strLength\r\n    ) external pure returns (bytes memory resultData) {\r\n        bytes memory result = new bytes(strLength);\r\n        for (uint256 i = 0; i < strLength; i++) {\r\n            result[i] = b_data[i];\r\n        }\r\n        return result;\r\n    }\r\n\r\n    function reverseBytes(\r\n        bytes calldata b_data\r\n    ) external pure returns (bytes memory) {\r\n        bytes memory result = new bytes(b_data.length);\r\n        uint256 length = b_data.length - 1;\r\n        for (uint i = 0; i < b_data.length; i++) {\r\n            result[i] = b_data[length - i];\r\n        }\r\n        return result;\r\n    }\r\n}\r\n",
  "sourcePath": "C:\\Amir\\X7Opsilon\\smart_contract\\contracts\\BinaryHelper.sol",
  "compiler": {
    "name": "solc",
    "version": "0.8.15+commit.e14f2714.Emscripten.clang"
  },
  "schemaVersion": "3.4.14",
  "updatedAt": "2023-07-16T22:38:53.677Z",
  "networkType": "ethereum",
  "devdoc": {
    "details": "Binary operations.",
    "kind": "dev",
    "methods": {},
    "version": 1
  },
  "userdoc": {
    "kind": "user",
    "methods": {},
    "version": 1
  }
}