{
  "contractName": "ContractLogic",
  "abi": [
    {
      "inputs": [],
      "stateMutability": "nonpayable",
      "type": "constructor"
    },
    {
      "inputs": [
        {
          "internalType": "string",
          "name": "name",
          "type": "string"
        },
        {
          "internalType": "string",
          "name": "parentId",
          "type": "string"
        }
      ],
      "name": "createDirectory",
      "outputs": [
        {
          "internalType": "string",
          "name": "",
          "type": "string"
        }
      ],
      "stateMutability": "payable",
      "type": "function",
      "payable": true
    },
    {
      "inputs": [
        {
          "internalType": "string",
          "name": "id",
          "type": "string"
        }
      ],
      "name": "getDirectoryData",
      "outputs": [
        {
          "components": [
            {
              "internalType": "string",
              "name": "Id",
              "type": "string"
            },
            {
              "internalType": "string",
              "name": "ParentId",
              "type": "string"
            },
            {
              "internalType": "string",
              "name": "Name",
              "type": "string"
            },
            {
              "internalType": "address",
              "name": "Creator",
              "type": "address"
            },
            {
              "internalType": "uint256",
              "name": "DateCreated",
              "type": "uint256"
            }
          ],
          "internalType": "struct DirectoryFrame[]",
          "name": "",
          "type": "tuple[]"
        },
        {
          "components": [
            {
              "internalType": "string",
              "name": "Id",
              "type": "string"
            },
            {
              "internalType": "string",
              "name": "Name",
              "type": "string"
            },
            {
              "internalType": "string",
              "name": "Extension",
              "type": "string"
            }
          ],
          "internalType": "struct FileOutput[]",
          "name": "",
          "type": "tuple[]"
        },
        {
          "components": [
            {
              "internalType": "string",
              "name": "DirectoryId",
              "type": "string"
            },
            {
              "internalType": "uint256",
              "name": "FilesCount",
              "type": "uint256"
            },
            {
              "internalType": "uint256",
              "name": "DirectoriesCount",
              "type": "uint256"
            },
            {
              "internalType": "uint256",
              "name": "Size",
              "type": "uint256"
            }
          ],
          "internalType": "struct DirectoryInfoFrame",
          "name": "",
          "type": "tuple"
        }
      ],
      "stateMutability": "view",
      "type": "function",
      "constant": true
    },
    {
      "inputs": [],
      "name": "getOrCreateRoot",
      "outputs": [
        {
          "components": [
            {
              "internalType": "string",
              "name": "Id",
              "type": "string"
            },
            {
              "internalType": "string",
              "name": "ParentId",
              "type": "string"
            },
            {
              "internalType": "string",
              "name": "Name",
              "type": "string"
            },
            {
              "internalType": "address",
              "name": "Creator",
              "type": "address"
            },
            {
              "internalType": "uint256",
              "name": "DateCreated",
              "type": "uint256"
            }
          ],
          "internalType": "struct DirectoryFrame",
          "name": "root",
          "type": "tuple"
        }
      ],
      "stateMutability": "nonpayable",
      "type": "function"
    },
    {
      "inputs": [],
      "name": "getRoot",
      "outputs": [
        {
          "internalType": "bool",
          "name": "",
          "type": "bool"
        },
        {
          "components": [
            {
              "internalType": "string",
              "name": "Id",
              "type": "string"
            },
            {
              "internalType": "string",
              "name": "ParentId",
              "type": "string"
            },
            {
              "internalType": "string",
              "name": "Name",
              "type": "string"
            },
            {
              "internalType": "address",
              "name": "Creator",
              "type": "address"
            },
            {
              "internalType": "uint256",
              "name": "DateCreated",
              "type": "uint256"
            }
          ],
          "internalType": "struct DirectoryFrame",
          "name": "",
          "type": "tuple"
        }
      ],
      "stateMutability": "view",
      "type": "function",
      "constant": true
    },
    {
      "inputs": [
        {
          "internalType": "string",
          "name": "directoryId",
          "type": "string"
        },
        {
          "internalType": "string",
          "name": "fileName",
          "type": "string"
        },
        {
          "internalType": "bytes",
          "name": "fileData",
          "type": "bytes"
        }
      ],
      "name": "uploadFile",
      "outputs": [
        {
          "internalType": "string",
          "name": "",
          "type": "string"
        }
      ],
      "stateMutability": "payable",
      "type": "function",
      "payable": true
    },
    {
      "inputs": [
        {
          "internalType": "bytes",
          "name": "t",
          "type": "bytes"
        }
      ],
      "name": "testGet",
      "outputs": [
        {
          "internalType": "bytes",
          "name": "",
          "type": "bytes"
        }
      ],
      "stateMutability": "pure",
      "type": "function",
      "constant": true
    }
  ],
  "bytecode": "0x60806040523480156200001157600080fd5b506040516200002090620001b5565b604051809103906000f0801580156200003d573d6000803e3d6000fd5b506000806101000a81548173ffffffffffffffffffffffffffffffffffffffff021916908373ffffffffffffffffffffffffffffffffffffffff16021790555060008054906101000a900473ffffffffffffffffffffffffffffffffffffffff16604051620000ac90620001c3565b620000b891906200026a565b604051809103906000f080158015620000d5573d6000803e3d6000fd5b50600160006101000a81548173ffffffffffffffffffffffffffffffffffffffff021916908373ffffffffffffffffffffffffffffffffffffffff16021790555060008054906101000a900473ffffffffffffffffffffffffffffffffffffffff166040516200014590620001d1565b6200015191906200026a565b604051809103906000f0801580156200016e573d6000803e3d6000fd5b50600260006101000a81548173ffffffffffffffffffffffffffffffffffffffff021916908373ffffffffffffffffffffffffffffffffffffffff16021790555062000287565b610d338062001c9283390190565b61346580620029c583390190565b6122958062005e2a83390190565b600073ffffffffffffffffffffffffffffffffffffffff82169050919050565b6000819050919050565b60006200022a620002246200021e84620001df565b620001ff565b620001df565b9050919050565b60006200023e8262000209565b9050919050565b6000620002528262000231565b9050919050565b620002648162000245565b82525050565b600060208201905062000281600083018462000259565b92915050565b6119fb80620002976000396000f3fe6080604052600436106100555760003560e01c806309f1cffc1461005a5780633659b0c21461008a5780635ca1e165146100c9578063a5f3271e146100f5578063eb849f2814610132578063ef8bfa3e14610162575b600080fd5b610074600480360381019061006f9190610a21565b61018d565b6040516100819190610b50565b60405180910390f35b34801561009657600080fd5b506100b160048036038101906100ac9190610b72565b610446565b6040516100c093929190610f28565b60405180910390f35b3480156100d557600080fd5b506100de6105b3565b6040516100ec929190611013565b60405180910390f35b34801561010157600080fd5b5061011c60048036038101906101179190611043565b61065b565b60405161012991906110e1565b60405180910390f35b61014c60048036038101906101479190611103565b610665565b6040516101599190610b50565b60405180910390f35b34801561016e57600080fd5b50610177610714565b604051610184919061117b565b60405180910390f35b60606000600160009054906101000a900473ffffffffffffffffffffffffffffffffffffffff1673ffffffffffffffffffffffffffffffffffffffff1663c01a8316866040518263ffffffff1660e01b81526004016101ec9190610b50565b6000604051808303816000875af115801561020b573d6000803e3d6000fd5b505050506040513d6000823e3d601f19601f82011682018060405250810190610234919061134f565b90506000600160009054906101000a900473ffffffffffffffffffffffffffffffffffffffff1673ffffffffffffffffffffffffffffffffffffffff1663679c7ccb83600001516040518263ffffffff1660e01b81526004016102979190610b50565b6000604051808303816000875af11580156102b6573d6000803e3d6000fd5b505050506040513d6000823e3d601f19601f820116820180604052508101906102df919061142c565b9050600181602001516102f291906114a4565b816020018181525050600160009054906101000a900473ffffffffffffffffffffffffffffffffffffffff1673ffffffffffffffffffffffffffffffffffffffff1663976c12558360000151836040518363ffffffff1660e01b815260040161035c9291906114fa565b600060405180830381600087803b15801561037657600080fd5b505af115801561038a573d6000803e3d6000fd5b505050506000600260009054906101000a900473ffffffffffffffffffffffffffffffffffffffff1673ffffffffffffffffffffffffffffffffffffffff1663c22585c28789886040518463ffffffff1660e01b81526004016103ef93929190611531565b6000604051808303816000875af115801561040e573d6000803e3d6000fd5b505050506040513d6000823e3d601f19601f82011682018060405250810190610437919061157d565b90508093505050509392505050565b6060806104516107b9565b600080600160009054906101000a900473ffffffffffffffffffffffffffffffffffffffff1673ffffffffffffffffffffffffffffffffffffffff166304c94169876040518263ffffffff1660e01b81526004016104af9190610b50565b600060405180830381865afa1580156104cc573d6000803e3d6000fd5b505050506040513d6000823e3d601f19601f820116820180604052508101906104f591906116ac565b915091506000600260009054906101000a900473ffffffffffffffffffffffffffffffffffffffff1673ffffffffffffffffffffffffffffffffffffffff1663c595403788846040518363ffffffff1660e01b81526004016105589291906114fa565b600060405180830381865afa158015610575573d6000803e3d6000fd5b505050506040513d6000823e3d601f19601f8201168201806040525081019061059e91906118bd565b90508281839550955095505050509193909250565b60006105bd6107e1565b600160009054906101000a900473ffffffffffffffffffffffffffffffffffffffff1673ffffffffffffffffffffffffffffffffffffffff16635ca1e1656040518163ffffffff1660e01b8152600401600060405180830381865afa15801561062a573d6000803e3d6000fd5b505050506040513d6000823e3d601f19601f820116820180604052508101906106539190611932565b915091509091565b6060819050919050565b6060600160009054906101000a900473ffffffffffffffffffffffffffffffffffffffff1673ffffffffffffffffffffffffffffffffffffffff1663ebdf86ca84846040518363ffffffff1660e01b81526004016106c492919061198e565b6000604051808303816000875af11580156106e3573d6000803e3d6000fd5b505050506040513d6000823e3d601f19601f8201168201806040525081019061070c919061157d565b905092915050565b61071c6107e1565b600160009054906101000a900473ffffffffffffffffffffffffffffffffffffffff1673ffffffffffffffffffffffffffffffffffffffff1663ef8bfa3e6040518163ffffffff1660e01b81526004016000604051808303816000875af115801561078b573d6000803e3d6000fd5b505050506040513d6000823e3d601f19601f820116820180604052508101906107b4919061134f565b905090565b6040518060800160405280606081526020016000815260200160008152602001600081525090565b6040518060a00160405280606081526020016060815260200160608152602001600073ffffffffffffffffffffffffffffffffffffffff168152602001600081525090565b6000604051905090565b600080fd5b600080fd5b600080fd5b600080fd5b6000601f19601f8301169050919050565b7f4e487b7100000000000000000000000000000000000000000000000000000000600052604160045260246000fd5b61088d82610844565b810181811067ffffffffffffffff821117156108ac576108ab610855565b5b80604052505050565b60006108bf610826565b90506108cb8282610884565b919050565b600067ffffffffffffffff8211156108eb576108ea610855565b5b6108f482610844565b9050602081019050919050565b82818337600083830152505050565b600061092361091e846108d0565b6108b5565b90508281526020810184848401111561093f5761093e61083f565b5b61094a848285610901565b509392505050565b600082601f8301126109675761096661083a565b5b8135610977848260208601610910565b91505092915050565b600067ffffffffffffffff82111561099b5761099a610855565b5b6109a482610844565b9050602081019050919050565b60006109c46109bf84610980565b6108b5565b9050828152602081018484840111156109e0576109df61083f565b5b6109eb848285610901565b509392505050565b600082601f830112610a0857610a0761083a565b5b8135610a188482602086016109b1565b91505092915050565b600080600060608486031215610a3a57610a39610830565b5b600084013567ffffffffffffffff811115610a5857610a57610835565b5b610a6486828701610952565b935050602084013567ffffffffffffffff811115610a8557610a84610835565b5b610a9186828701610952565b925050604084013567ffffffffffffffff811115610ab257610ab1610835565b5b610abe868287016109f3565b9150509250925092565b600081519050919050565b600082825260208201905092915050565b60005b83811015610b02578082015181840152602081019050610ae7565b83811115610b11576000848401525b50505050565b6000610b2282610ac8565b610b2c8185610ad3565b9350610b3c818560208601610ae4565b610b4581610844565b840191505092915050565b60006020820190508181036000830152610b6a8184610b17565b905092915050565b600060208284031215610b8857610b87610830565b5b600082013567ffffffffffffffff811115610ba657610ba5610835565b5b610bb284828501610952565b91505092915050565b600081519050919050565b600082825260208201905092915050565b6000819050602082019050919050565b600082825260208201905092915050565b6000610c0382610ac8565b610c0d8185610be7565b9350610c1d818560208601610ae4565b610c2681610844565b840191505092915050565b600073ffffffffffffffffffffffffffffffffffffffff82169050919050565b6000610c5c82610c31565b9050919050565b610c6c81610c51565b82525050565b6000819050919050565b610c8581610c72565b82525050565b600060a0830160008301518482036000860152610ca88282610bf8565b91505060208301518482036020860152610cc28282610bf8565b91505060408301518482036040860152610cdc8282610bf8565b9150506060830151610cf16060860182610c63565b506080830151610d046080860182610c7c565b508091505092915050565b6000610d1b8383610c8b565b905092915050565b6000602082019050919050565b6000610d3b82610bbb565b610d458185610bc6565b935083602082028501610d5785610bd7565b8060005b85811015610d935784840389528151610d748582610d0f565b9450610d7f83610d23565b925060208a01995050600181019050610d5b565b50829750879550505050505092915050565b600081519050919050565b600082825260208201905092915050565b6000819050602082019050919050565b60006060830160008301518482036000860152610dee8282610bf8565b91505060208301518482036020860152610e088282610bf8565b91505060408301518482036040860152610e228282610bf8565b9150508091505092915050565b6000610e3b8383610dd1565b905092915050565b6000602082019050919050565b6000610e5b82610da5565b610e658185610db0565b935083602082028501610e7785610dc1565b8060005b85811015610eb35784840389528151610e948582610e2f565b9450610e9f83610e43565b925060208a01995050600181019050610e7b565b50829750879550505050505092915050565b60006080830160008301518482036000860152610ee28282610bf8565b9150506020830151610ef76020860182610c7c565b506040830151610f0a6040860182610c7c565b506060830151610f1d6060860182610c7c565b508091505092915050565b60006060820190508181036000830152610f428186610d30565b90508181036020830152610f568185610e50565b90508181036040830152610f6a8184610ec5565b9050949350505050565b60008115159050919050565b610f8981610f74565b82525050565b600060a0830160008301518482036000860152610fac8282610bf8565b91505060208301518482036020860152610fc68282610bf8565b91505060408301518482036040860152610fe08282610bf8565b9150506060830151610ff56060860182610c63565b5060808301516110086080860182610c7c565b508091505092915050565b60006040820190506110286000830185610f80565b818103602083015261103a8184610f8f565b90509392505050565b60006020828403121561105957611058610830565b5b600082013567ffffffffffffffff81111561107757611076610835565b5b611083848285016109f3565b91505092915050565b600081519050919050565b600082825260208201905092915050565b60006110b38261108c565b6110bd8185611097565b93506110cd818560208601610ae4565b6110d681610844565b840191505092915050565b600060208201905081810360008301526110fb81846110a8565b905092915050565b6000806040838503121561111a57611119610830565b5b600083013567ffffffffffffffff81111561113857611137610835565b5b61114485828601610952565b925050602083013567ffffffffffffffff81111561116557611164610835565b5b61117185828601610952565b9150509250929050565b600060208201905081810360008301526111958184610f8f565b905092915050565b600080fd5b600080fd5b60006111ba6111b5846108d0565b6108b5565b9050828152602081018484840111156111d6576111d561083f565b5b6111e1848285610ae4565b509392505050565b600082601f8301126111fe576111fd61083a565b5b815161120e8482602086016111a7565b91505092915050565b61122081610c51565b811461122b57600080fd5b50565b60008151905061123d81611217565b92915050565b61124c81610c72565b811461125757600080fd5b50565b60008151905061126981611243565b92915050565b600060a082840312156112855761128461119d565b5b61128f60a06108b5565b9050600082015167ffffffffffffffff8111156112af576112ae6111a2565b5b6112bb848285016111e9565b600083015250602082015167ffffffffffffffff8111156112df576112de6111a2565b5b6112eb848285016111e9565b602083015250604082015167ffffffffffffffff81111561130f5761130e6111a2565b5b61131b848285016111e9565b604083015250606061132f8482850161122e565b60608301525060806113438482850161125a565b60808301525092915050565b60006020828403121561136557611364610830565b5b600082015167ffffffffffffffff81111561138357611382610835565b5b61138f8482850161126f565b91505092915050565b6000608082840312156113ae576113ad61119d565b5b6113b860806108b5565b9050600082015167ffffffffffffffff8111156113d8576113d76111a2565b5b6113e4848285016111e9565b60008301525060206113f88482850161125a565b602083015250604061140c8482850161125a565b60408301525060606114208482850161125a565b60608301525092915050565b60006020828403121561144257611441610830565b5b600082015167ffffffffffffffff8111156114605761145f610835565b5b61146c84828501611398565b91505092915050565b7f4e487b7100000000000000000000000000000000000000000000000000000000600052601160045260246000fd5b60006114af82610c72565b91506114ba83610c72565b9250827fffffffffffffffffffffffffffffffffffffffffffffffffffffffffffffffff038211156114ef576114ee611475565b5b828201905092915050565b600060408201905081810360008301526115148185610b17565b905081810360208301526115288184610ec5565b90509392505050565b6000606082019050818103600083015261154b8186610b17565b9050818103602083015261155f8185610b17565b9050818103604083015261157381846110a8565b9050949350505050565b60006020828403121561159357611592610830565b5b600082015167ffffffffffffffff8111156115b1576115b0610835565b5b6115bd848285016111e9565b91505092915050565b600067ffffffffffffffff8211156115e1576115e0610855565b5b602082029050602081019050919050565b600080fd5b600061160a611605846115c6565b6108b5565b9050808382526020820190506020840283018581111561162d5761162c6115f2565b5b835b8181101561167457805167ffffffffffffffff8111156116525761165161083a565b5b80860161165f898261126f565b8552602085019450505060208101905061162f565b5050509392505050565b600082601f8301126116935761169261083a565b5b81516116a38482602086016115f7565b91505092915050565b600080604083850312156116c3576116c2610830565b5b600083015167ffffffffffffffff8111156116e1576116e0610835565b5b6116ed8582860161167e565b925050602083015167ffffffffffffffff81111561170e5761170d610835565b5b61171a85828601611398565b9150509250929050565b600067ffffffffffffffff82111561173f5761173e610855565b5b602082029050602081019050919050565b6000606082840312156117665761176561119d565b5b61177060606108b5565b9050600082015167ffffffffffffffff8111156117905761178f6111a2565b5b61179c848285016111e9565b600083015250602082015167ffffffffffffffff8111156117c0576117bf6111a2565b5b6117cc848285016111e9565b602083015250604082015167ffffffffffffffff8111156117f0576117ef6111a2565b5b6117fc848285016111e9565b60408301525092915050565b600061181b61181684611724565b6108b5565b9050808382526020820190506020840283018581111561183e5761183d6115f2565b5b835b8181101561188557805167ffffffffffffffff8111156118635761186261083a565b5b8086016118708982611750565b85526020850194505050602081019050611840565b5050509392505050565b600082601f8301126118a4576118a361083a565b5b81516118b4848260208601611808565b91505092915050565b6000602082840312156118d3576118d2610830565b5b600082015167ffffffffffffffff8111156118f1576118f0610835565b5b6118fd8482850161188f565b91505092915050565b61190f81610f74565b811461191a57600080fd5b50565b60008151905061192c81611906565b92915050565b6000806040838503121561194957611948610830565b5b60006119578582860161191d565b925050602083015167ffffffffffffffff81111561197857611977610835565b5b6119848582860161126f565b9150509250929050565b600060408201905081810360008301526119a88185610b17565b905081810360208301526119bc8184610b17565b9050939250505056fea2646970667358221220ee4b47891a10882dc4b4e9e39e6c01899e61c4b3f4c478386e14d59e0d0fbf7164736f6c634300080f00336080604052600160005534801561001557600080fd5b50610d0e806100256000396000f3fe60806040526004361061001e5760003560e01c8063a368854614610023575b600080fd5b61002b610041565b6040516100389190610810565b60405180910390f35b6060600073__IDT___________________________________63a9a295ad6040518163ffffffff1660e01b8152600401600060405180830381865af415801561008e573d6000803e3d6000fd5b505050506040513d6000823e3d601f19601f820116820180604052508101906100b7919061096c565b90506000603767ffffffffffffffff8111156100d6576100d5610850565b5b6040519080825280601f01601f1916602001820160405280156101085781602001600182028036833780820191505090505b50905060005b815181101561017157605f60f81b82828151811061012f5761012e6109b5565b5b60200101907effffffffffffffffffffffffffffffffffffffffffffffffffffffffffffff1916908160001a905350808061016990610a1d565b91505061010e565b5060005b82518110156101f9576101a4838281518110610194576101936109b5565b5b602001015160f81c60f81b6102d4565b8282815181106101b7576101b66109b5565b5b60200101907effffffffffffffffffffffffffffffffffffffffffffffffffffffffffffff1916908160001a90535080806101f190610a1d565b915050610175565b5060006009905060005b60038112156102ca57818061021790610a1d565b9250506000610226600e61051d565b905060005b81518110156102b557838061023f90610a1d565b945050818181518110610255576102546109b5565b5b602001015160f81c60f81b858581518110610273576102726109b5565b5b60200101907effffffffffffffffffffffffffffffffffffffffffffffffffffffffffffff1916908160001a90535080806102ad90610a1d565b91505061022b565b505080806102c290610a6f565b915050610203565b5081935050505090565b6000603060f81b827effffffffffffffffffffffffffffffffffffffffffffffffffffffffffffff19160361030f57604160f81b9050610518565b603160f81b827effffffffffffffffffffffffffffffffffffffffffffffffffffffffffffff19160361034857604260f81b9050610518565b603260f81b827effffffffffffffffffffffffffffffffffffffffffffffffffffffffffffff19160361038157604360f81b9050610518565b603360f81b827effffffffffffffffffffffffffffffffffffffffffffffffffffffffffffff1916036103ba57604460f81b9050610518565b603460f81b827effffffffffffffffffffffffffffffffffffffffffffffffffffffffffffff1916036103f357604560f81b9050610518565b603560f81b827effffffffffffffffffffffffffffffffffffffffffffffffffffffffffffff19160361042c57604660f81b9050610518565b603660f81b827effffffffffffffffffffffffffffffffffffffffffffffffffffffffffffff19160361046557604760f81b9050610518565b603760f81b827effffffffffffffffffffffffffffffffffffffffffffffffffffffffffffff19160361049e57604860f81b9050610518565b603860f81b827effffffffffffffffffffffffffffffffffffffffffffffffffffffffffffff1916036104d757604960f81b9050610518565b603960f81b827effffffffffffffffffffffffffffffffffffffffffffffffffffffffffffff19160361051057604a60f81b9050610518565b605a60f81b90505b919050565b6060600e821115610563576040517f08c379a000000000000000000000000000000000000000000000000000000000815260040161055a90610b03565b60405180910390fd5b60018210156105a7576040517f08c379a000000000000000000000000000000000000000000000000000000000815260040161059e90610b6f565b60405180910390fd5b60008267ffffffffffffffff8111156105c3576105c2610850565b5b6040519080825280601f01601f1916602001820160405280156105f55781602001600182028036833780820191505090505b5090506000603e67ffffffffffffffff81111561061557610614610850565b5b6040519080825280601f01601f1916602001820160405280156106475781602001600182028036833780820191505090505b5090506040518060400160405280601a81526020017f4142434445464748494a4b4c4d4e4f505152535455565758595a000000000000815250905060005b8481101561070f576000610699601a61071a565b90508281815181106106ae576106ad6109b5565b5b602001015160f81c60f81b8483815181106106cc576106cb6109b5565b5b60200101907effffffffffffffffffffffffffffffffffffffffffffffffffffffffffffff1916908160001a90535050808061070790610a1d565b915050610685565b508192505050919050565b600080600081548092919061072e90610a1d565b91905055508142443360005460405160200161074d9493929190610c2a565b6040516020818303038152906040528051906020012060001c6107709190610ca7565b9050919050565b600081519050919050565b600082825260208201905092915050565b60005b838110156107b1578082015181840152602081019050610796565b838111156107c0576000848401525b50505050565b6000601f19601f8301169050919050565b60006107e282610777565b6107ec8185610782565b93506107fc818560208601610793565b610805816107c6565b840191505092915050565b6000602082019050818103600083015261082a81846107d7565b905092915050565b6000604051905090565b600080fd5b600080fd5b600080fd5b600080fd5b7f4e487b7100000000000000000000000000000000000000000000000000000000600052604160045260246000fd5b610888826107c6565b810181811067ffffffffffffffff821117156108a7576108a6610850565b5b80604052505050565b60006108ba610832565b90506108c6828261087f565b919050565b600067ffffffffffffffff8211156108e6576108e5610850565b5b6108ef826107c6565b9050602081019050919050565b600061090f61090a846108cb565b6108b0565b90508281526020810184848401111561092b5761092a61084b565b5b610936848285610793565b509392505050565b600082601f83011261095357610952610846565b5b81516109638482602086016108fc565b91505092915050565b6000602082840312156109825761098161083c565b5b600082015167ffffffffffffffff8111156109a05761099f610841565b5b6109ac8482850161093e565b91505092915050565b7f4e487b7100000000000000000000000000000000000000000000000000000000600052603260045260246000fd5b7f4e487b7100000000000000000000000000000000000000000000000000000000600052601160045260246000fd5b6000819050919050565b6000610a2882610a13565b91507fffffffffffffffffffffffffffffffffffffffffffffffffffffffffffffffff8203610a5a57610a596109e4565b5b600182019050919050565b6000819050919050565b6000610a7a82610a65565b91507f7fffffffffffffffffffffffffffffffffffffffffffffffffffffffffffffff8203610aac57610aab6109e4565b5b600182019050919050565b7f4c656e6774682063616e6e6f742062652067726561746572207468616e203134600082015250565b6000610aed602083610782565b9150610af882610ab7565b602082019050919050565b60006020820190508181036000830152610b1c81610ae0565b9050919050565b7f4c656e6774682063616e6e6f74206265205a65726f0000000000000000000000600082015250565b6000610b59601583610782565b9150610b6482610b23565b602082019050919050565b60006020820190508181036000830152610b8881610b4c565b9050919050565b6000819050919050565b610baa610ba582610a13565b610b8f565b82525050565b600073ffffffffffffffffffffffffffffffffffffffff82169050919050565b6000610bdb82610bb0565b9050919050565b60008160601b9050919050565b6000610bfa82610be2565b9050919050565b6000610c0c82610bef565b9050919050565b610c24610c1f82610bd0565b610c01565b82525050565b6000610c368287610b99565b602082019150610c468286610b99565b602082019150610c568285610c13565b601482019150610c668284610b99565b60208201915081905095945050505050565b7f4e487b7100000000000000000000000000000000000000000000000000000000600052601260045260246000fd5b6000610cb282610a13565b9150610cbd83610a13565b925082610ccd57610ccc610c78565b5b82820690509291505056fea2646970667358221220aac732a01dee6bddf7a3f3fba1cd8977bece9b37608a0e1334619c6cdb464b0c64736f6c634300080f003360806040526040518060400160405280600981526020017f225c2f5d3a3f3c3e7c0000000000000000000000000000000000000000000000815250600090816200004a919062000380565b507f2e00000000000000000000000000000000000000000000000000000000000000600160006101000a81548160ff021916908360f81c021790555060006003553480156200009857600080fd5b5060405162003465380380620034658339818101604052810190620000be9190620004e5565b80600460006101000a81548173ffffffffffffffffffffffffffffffffffffffff021916908373ffffffffffffffffffffffffffffffffffffffff1602179055505062000517565b600081519050919050565b7f4e487b7100000000000000000000000000000000000000000000000000000000600052604160045260246000fd5b7f4e487b7100000000000000000000000000000000000000000000000000000000600052602260045260246000fd5b600060028204905060018216806200018857607f821691505b6020821081036200019e576200019d62000140565b5b50919050565b60008190508160005260206000209050919050565b60006020601f8301049050919050565b600082821b905092915050565b600060088302620002087fffffffffffffffffffffffffffffffffffffffffffffffffffffffffffffffff82620001c9565b620002148683620001c9565b95508019841693508086168417925050509392505050565b6000819050919050565b6000819050919050565b6000620002616200025b62000255846200022c565b62000236565b6200022c565b9050919050565b6000819050919050565b6200027d8362000240565b620002956200028c8262000268565b848454620001d6565b825550505050565b600090565b620002ac6200029d565b620002b981848462000272565b505050565b5b81811015620002e157620002d5600082620002a2565b600181019050620002bf565b5050565b601f8211156200033057620002fa81620001a4565b6200030584620001b9565b8101602085101562000315578190505b6200032d6200032485620001b9565b830182620002be565b50505b505050565b600082821c905092915050565b6000620003556000198460080262000335565b1980831691505092915050565b600062000370838362000342565b9150826002028217905092915050565b6200038b8262000106565b67ffffffffffffffff811115620003a757620003a662000111565b5b620003b382546200016f565b620003c0828285620002e5565b600060209050601f831160018114620003f85760008415620003e3578287015190505b620003ef858262000362565b8655506200045f565b601f1984166200040886620001a4565b60005b8281101562000432578489015182556001820191506020850194506020810190506200040b565b868310156200045257848901516200044e601f89168262000342565b8355505b6001600288020188555050505b505050505050565b600080fd5b600073ffffffffffffffffffffffffffffffffffffffff82169050919050565b600062000499826200046c565b9050919050565b6000620004ad826200048c565b9050919050565b620004bf81620004a0565b8114620004cb57600080fd5b50565b600081519050620004df81620004b4565b92915050565b600060208284031215620004fe57620004fd62000467565b5b60006200050e84828501620004ce565b91505092915050565b612f3e80620005276000396000f3fe6080604052600436106100865760003560e01c8063976c125511610059578063976c125514610150578063c01a83161461016c578063ebdf86ca146101a9578063ef8bfa3e146101d9578063f0c76ccc146101f757610086565b806304c941691461008b57806332db898d146100c95780635ca1e165146100f4578063679c7ccb14610120575b600080fd5b34801561009757600080fd5b506100b260048036038101906100ad91906122aa565b610234565b6040516100c092919061257e565b60405180910390f35b3480156100d557600080fd5b506100de6106e9565b6040516100eb91906125d0565b60405180910390f35b34801561010057600080fd5b5061010961096e565b60405161011792919061266f565b60405180910390f35b61013a600480360381019061013591906122aa565b610bf9565b604051610147919061269f565b60405180910390f35b61016a6004803603810190610165919061278b565b610e43565b005b34801561017857600080fd5b50610193600480360381019061018e91906122aa565b610e84565b6040516101a09190612803565b60405180910390f35b6101c360048036038101906101be9190612825565b611131565b6040516101d091906128e7565b60405180910390f35b6101e1611796565b6040516101ee9190612803565b60405180910390f35b34801561020357600080fd5b5061021e600480360381019061021991906122aa565b611d95565b60405161022b919061269f565b60405180910390f35b606061023e6120e3565b61024783611e7d565b61027d576040517f5982e5ed00000000000000000000000000000000000000000000000000000000815260040160405180910390fd5b600060068460405161028f9190612945565b90815260200160405180910390206040518060800160405290816000820180546102b89061298b565b80601f01602080910402602001604051908101604052809291908181526020018280546102e49061298b565b80156103315780601f1061030657610100808354040283529160200191610331565b820191906000526020600020905b81548152906001019060200180831161031457829003601f168201915b50505050508152602001600182015481526020016002820154815260200160038201548152505090506000816040015167ffffffffffffffff81111561037a5761037961217f565b5b6040519080825280602002602001820160405280156103b357816020015b6103a061210b565b8152602001906001900390816103985790505b50905060008086905060005b6003548110156106d9576000600282815481106103df576103de6129bc565b5b90600052602060002090600502016040518060a00160405290816000820180546104089061298b565b80601f01602080910402602001604051908101604052809291908181526020018280546104349061298b565b80156104815780601f1061045657610100808354040283529160200191610481565b820191906000526020600020905b81548152906001019060200180831161046457829003601f168201915b5050505050815260200160018201805461049a9061298b565b80601f01602080910402602001604051908101604052809291908181526020018280546104c69061298b565b80156105135780601f106104e857610100808354040283529160200191610513565b820191906000526020600020905b8154815290600101906020018083116104f657829003601f168201915b5050505050815260200160028201805461052c9061298b565b80601f01602080910402602001604051908101604052809291908181526020018280546105589061298b565b80156105a55780601f1061057a576101008083540402835291602001916105a5565b820191906000526020600020905b81548152906001019060200180831161058857829003601f168201915b505050505081526020016003820160009054906101000a900473ffffffffffffffffffffffffffffffffffffffff1673ffffffffffffffffffffffffffffffffffffffff1673ffffffffffffffffffffffffffffffffffffffff168152602001600482015481525050905060008160200151905073__Infrastructure________________________637da4831785836040518363ffffffff1660e01b8152600401610652929190612a40565b602060405180830381865af415801561066f573d6000803e3d6000fd5b505050506040513d601f19601f820116820180604052508101906106939190612aa3565b156106c457818686806106a590612aff565b9750815181106106b8576106b76129bc565b5b60200260200101819052505b505080806106d190612aff565b9150506103bf565b5082849550955050505050915091565b600080600560003373ffffffffffffffffffffffffffffffffffffffff1673ffffffffffffffffffffffffffffffffffffffff1681526020019081526020016000206040518060a00160405290816000820180546107469061298b565b80601f01602080910402602001604051908101604052809291908181526020018280546107729061298b565b80156107bf5780601f10610794576101008083540402835291602001916107bf565b820191906000526020600020905b8154815290600101906020018083116107a257829003601f168201915b505050505081526020016001820180546107d89061298b565b80601f01602080910402602001604051908101604052809291908181526020018280546108049061298b565b80156108515780601f1061082657610100808354040283529160200191610851565b820191906000526020600020905b81548152906001019060200180831161083457829003601f168201915b5050505050815260200160028201805461086a9061298b565b80601f01602080910402602001604051908101604052809291908181526020018280546108969061298b565b80156108e35780601f106108b8576101008083540402835291602001916108e3565b820191906000526020600020905b8154815290600101906020018083116108c657829003601f168201915b505050505081526020016003820160009054906101000a900473ffffffffffffffffffffffffffffffffffffffff1673ffffffffffffffffffffffffffffffffffffffff1673ffffffffffffffffffffffffffffffffffffffff168152602001600482015481525050905060008160000151510361096557600091505061096b565b60019150505b90565b600061097861210b565b600560003373ffffffffffffffffffffffffffffffffffffffff1673ffffffffffffffffffffffffffffffffffffffff1681526020019081526020016000206040518060a00160405290816000820180546109d29061298b565b80601f01602080910402602001604051908101604052809291908181526020018280546109fe9061298b565b8015610a4b5780601f10610a2057610100808354040283529160200191610a4b565b820191906000526020600020905b815481529060010190602001808311610a2e57829003601f168201915b50505050508152602001600182018054610a649061298b565b80601f0160208091040260200160405190810160405280929190818152602001828054610a909061298b565b8015610add5780601f10610ab257610100808354040283529160200191610add565b820191906000526020600020905b815481529060010190602001808311610ac057829003601f168201915b50505050508152602001600282018054610af69061298b565b80601f0160208091040260200160405190810160405280929190818152602001828054610b229061298b565b8015610b6f5780601f10610b4457610100808354040283529160200191610b6f565b820191906000526020600020905b815481529060010190602001808311610b5257829003601f168201915b505050505081526020016003820160009054906101000a900473ffffffffffffffffffffffffffffffffffffffff1673ffffffffffffffffffffffffffffffffffffffff1673ffffffffffffffffffffffffffffffffffffffff1681526020016004820154815250509050600081600001515103610bf05760019150610bf5565b600091505b9091565b610c016120e3565b600682604051610c119190612945565b9081526020016040518091039020604051806080016040529081600082018054610c3a9061298b565b80601f0160208091040260200160405190810160405280929190818152602001828054610c669061298b565b8015610cb35780601f10610c8857610100808354040283529160200191610cb3565b820191906000526020600020905b815481529060010190602001808311610c9657829003601f168201915b5050505050815260200160018201548152602001600282015481526020016003820154815250509050600081600001515103610e3e57604051806080016040528083815260200160008152602001600081526020016000815250600683604051610d1d9190612945565b90815260200160405180910390206000820151816000019081610d409190612cf3565b50602082015181600101556040820151816002015560608201518160030155905050600682604051610d729190612945565b9081526020016040518091039020604051806080016040529081600082018054610d9b9061298b565b80601f0160208091040260200160405190810160405280929190818152602001828054610dc79061298b565b8015610e145780601f10610de957610100808354040283529160200191610e14565b820191906000526020600020905b815481529060010190602001808311610df757829003601f168201915b50505050508152602001600182015481526020016002820154815260200160038201548152505090505b919050565b6000600683604051610e559190612945565b908152602001604051809103902090508160400151816002018190555081602001518160010181905550505050565b610e8c61210b565b60008290506000815103610eaa57610ea2611796565b91505061112c565b610eb383611e7d565b610ee9576040517f5982e5ed00000000000000000000000000000000000000000000000000000000815260040160405180910390fd5b600783604051610ef99190612945565b90815260200160405180910390206040518060a0016040529081600082018054610f229061298b565b80601f0160208091040260200160405190810160405280929190818152602001828054610f4e9061298b565b8015610f9b5780601f10610f7057610100808354040283529160200191610f9b565b820191906000526020600020905b815481529060010190602001808311610f7e57829003601f168201915b50505050508152602001600182018054610fb49061298b565b80601f0160208091040260200160405190810160405280929190818152602001828054610fe09061298b565b801561102d5780601f106110025761010080835404028352916020019161102d565b820191906000526020600020905b81548152906001019060200180831161101057829003601f168201915b505050505081526020016002820180546110469061298b565b80601f01602080910402602001604051908101604052809291908181526020018280546110729061298b565b80156110bf5780601f10611094576101008083540402835291602001916110bf565b820191906000526020600020905b8154815290600101906020018083116110a257829003601f168201915b505050505081526020016003820160009054906101000a900473ffffffffffffffffffffffffffffffffffffffff1673ffffffffffffffffffffffffffffffffffffffff1673ffffffffffffffffffffffffffffffffffffffff1681526020016004820154815250509150505b919050565b6060826001600082905060006001905060e68251111561117d576040517fc96b3aa100000000000000000000000000000000000000000000000000000000815260040160405180910390fd5b600082510361118b57600090505b82156112365760005b825181101561123057600160009054906101000a900460f81b7effffffffffffffffffffffffffffffffffffffffffffffffffffffffffffff19168382815181106111e2576111e16129bc565b5b602001015160f81c60f81b7effffffffffffffffffffffffffffffffffffffffffffffffffffffffffffff19160361121d5760009150611230565b808061122890612aff565b915050611194565b50611364565b6000905060005b82518110156112d957600160009054906101000a900460f81b7effffffffffffffffffffffffffffffffffffffffffffffffffffffffffffff191683828151811061128b5761128a6129bc565b5b602001015160f81c60f81b7effffffffffffffffffffffffffffffffffffffffffffffffffffffffffffff1916036112c657600191506112d9565b80806112d190612aff565b91505061123d565b50600160009054906101000a900460f81b7effffffffffffffffffffffffffffffffffffffffffffffffffffffffffffff1916826001845161131b9190612dc5565b8151811061132c5761132b6129bc565b5b602001015160f81c60f81b7effffffffffffffffffffffffffffffffffffffffffffffffffffffffffffff19160361136357600090505b5b60005b82518110156114885760005b600080546113809061298b565b905081101561146e5760008181546113979061298b565b81106113a6576113a56129bc565b5b8154600116156113c55790600052602060002090602091828204019190065b9054901a7f0100000000000000000000000000000000000000000000000000000000000000027effffffffffffffffffffffffffffffffffffffffffffffffffffffffffffff19168483815181106114205761141f6129bc565b5b602001015160f81c60f81b7effffffffffffffffffffffffffffffffffffffffffffffffffffffffffffff19160361145b576000925061146e565b808061146690612aff565b915050611373565b50811561148857808061148090612aff565b915050611367565b50801561175a57600061149a87610e84565b90506000600460009054906101000a900473ffffffffffffffffffffffffffffffffffffffff1673ffffffffffffffffffffffffffffffffffffffff1663a36885466040518163ffffffff1660e01b81526004016000604051808303816000875af115801561150d573d6000803e3d6000fd5b505050506040513d6000823e3d601f19601f820116820180604052508101906115369190612e69565b905060006040518060a00160405280838152602001846000015181526020018b81526020013373ffffffffffffffffffffffffffffffffffffffff168152602001428152509050600281908060018154018082558091505060019003906000526020600020906005020160009091909190915060008201518160000190816115be9190612cf3565b5060208201518160010190816115d49190612cf3565b5060408201518160020190816115ea9190612cf3565b5060608201518160030160006101000a81548173ffffffffffffffffffffffffffffffffffffffff021916908373ffffffffffffffffffffffffffffffffffffffff1602179055506080820151816004015550506003600081548092919061165190612aff565b9190505550806007836040516116679190612945565b9081526020016040518091039020600082015181600001908161168a9190612cf3565b5060208201518160010190816116a09190612cf3565b5060408201518160020190816116b69190612cf3565b5060608201518160030160006101000a81548173ffffffffffffffffffffffffffffffffffffffff021916908373ffffffffffffffffffffffffffffffffffffffff1602179055506080820151816004015590505061171482610bf9565b5060006117248460000151610bf9565b9050600181604001516117379190612eb2565b81604001818152505061174e846000015182610e43565b8298505050505061178c565b6040517fb5d012b400000000000000000000000000000000000000000000000000000000815260040160405180910390fd5b5050505092915050565b61179e61210b565b600560003373ffffffffffffffffffffffffffffffffffffffff1673ffffffffffffffffffffffffffffffffffffffff1681526020019081526020016000206040518060a00160405290816000820180546117f89061298b565b80601f01602080910402602001604051908101604052809291908181526020018280546118249061298b565b80156118715780601f1061184657610100808354040283529160200191611871565b820191906000526020600020905b81548152906001019060200180831161185457829003601f168201915b5050505050815260200160018201805461188a9061298b565b80601f01602080910402602001604051908101604052809291908181526020018280546118b69061298b565b80156119035780601f106118d857610100808354040283529160200191611903565b820191906000526020600020905b8154815290600101906020018083116118e657829003601f168201915b5050505050815260200160028201805461191c9061298b565b80601f01602080910402602001604051908101604052809291908181526020018280546119489061298b565b80156119955780601f1061196a57610100808354040283529160200191611995565b820191906000526020600020905b81548152906001019060200180831161197857829003601f168201915b505050505081526020016003820160009054906101000a900473ffffffffffffffffffffffffffffffffffffffff1673ffffffffffffffffffffffffffffffffffffffff1673ffffffffffffffffffffffffffffffffffffffff1681526020016004820154815250509050600081600001515103611d92576000600460009054906101000a900473ffffffffffffffffffffffffffffffffffffffff1673ffffffffffffffffffffffffffffffffffffffff1663a36885466040518163ffffffff1660e01b81526004016000604051808303816000875af1158015611a7e573d6000803e3d6000fd5b505050506040513d6000823e3d601f19601f82011682018060405250810190611aa79190612e69565b90506040518060a001604052808281526020016040518060400160405280600481526020017f726f6f740000000000000000000000000000000000000000000000000000000081525081526020016040518060200160405280600081525081526020013373ffffffffffffffffffffffffffffffffffffffff16815260200142815250915060028290806001815401808255809150506001900390600052602060002090600502016000909190919091506000820151816000019081611b6d9190612cf3565b506020820151816001019081611b839190612cf3565b506040820151816002019081611b999190612cf3565b5060608201518160030160006101000a81548173ffffffffffffffffffffffffffffffffffffffff021916908373ffffffffffffffffffffffffffffffffffffffff16021790555060808201518160040155505060036000815480929190611c0090612aff565b919050555081600560003373ffffffffffffffffffffffffffffffffffffffff1673ffffffffffffffffffffffffffffffffffffffff1681526020019081526020016000206000820151816000019081611c5a9190612cf3565b506020820151816001019081611c709190612cf3565b506040820151816002019081611c869190612cf3565b5060608201518160030160006101000a81548173ffffffffffffffffffffffffffffffffffffffff021916908373ffffffffffffffffffffffffffffffffffffffff1602179055506080820151816004015590505081600782604051611cec9190612945565b90815260200160405180910390206000820151816000019081611d0f9190612cf3565b506020820151816001019081611d259190612cf3565b506040820151816002019081611d3b9190612cf3565b5060608201518160030160006101000a81548173ffffffffffffffffffffffffffffffffffffffff021916908373ffffffffffffffffffffffffffffffffffffffff16021790555060808201518160040155905050505b90565b611d9d6120e3565b600682604051611dad9190612945565b9081526020016040518091039020604051806080016040529081600082018054611dd69061298b565b80601f0160208091040260200160405190810160405280929190818152602001828054611e029061298b565b8015611e4f5780601f10611e2457610100808354040283529160200191611e4f565b820191906000526020600020905b815481529060010190602001808311611e3257829003601f168201915b5050505050815260200160018201548152602001600282015481526020016003820154815250509050919050565b600080600783604051611e909190612945565b90815260200160405180910390206040518060a0016040529081600082018054611eb99061298b565b80601f0160208091040260200160405190810160405280929190818152602001828054611ee59061298b565b8015611f325780601f10611f0757610100808354040283529160200191611f32565b820191906000526020600020905b815481529060010190602001808311611f1557829003601f168201915b50505050508152602001600182018054611f4b9061298b565b80601f0160208091040260200160405190810160405280929190818152602001828054611f779061298b565b8015611fc45780601f10611f9957610100808354040283529160200191611fc4565b820191906000526020600020905b815481529060010190602001808311611fa757829003601f168201915b50505050508152602001600282018054611fdd9061298b565b80601f01602080910402602001604051908101604052809291908181526020018280546120099061298b565b80156120565780601f1061202b57610100808354040283529160200191612056565b820191906000526020600020905b81548152906001019060200180831161203957829003601f168201915b505050505081526020016003820160009054906101000a900473ffffffffffffffffffffffffffffffffffffffff1673ffffffffffffffffffffffffffffffffffffffff1673ffffffffffffffffffffffffffffffffffffffff16815260200160048201548152505090506000816000015151036120d85760009150506120de565b60019150505b919050565b6040518060800160405280606081526020016000815260200160008152602001600081525090565b6040518060a00160405280606081526020016060815260200160608152602001600073ffffffffffffffffffffffffffffffffffffffff168152602001600081525090565b6000604051905090565b600080fd5b600080fd5b600080fd5b600080fd5b6000601f19601f8301169050919050565b7f4e487b7100000000000000000000000000000000000000000000000000000000600052604160045260246000fd5b6121b78261216e565b810181811067ffffffffffffffff821117156121d6576121d561217f565b5b80604052505050565b60006121e9612150565b90506121f582826121ae565b919050565b600067ffffffffffffffff8211156122155761221461217f565b5b61221e8261216e565b9050602081019050919050565b82818337600083830152505050565b600061224d612248846121fa565b6121df565b90508281526020810184848401111561226957612268612169565b5b61227484828561222b565b509392505050565b600082601f83011261229157612290612164565b5b81356122a184826020860161223a565b91505092915050565b6000602082840312156122c0576122bf61215a565b5b600082013567ffffffffffffffff8111156122de576122dd61215f565b5b6122ea8482850161227c565b91505092915050565b600081519050919050565b600082825260208201905092915050565b6000819050602082019050919050565b600081519050919050565b600082825260208201905092915050565b60005b8381101561235957808201518184015260208101905061233e565b83811115612368576000848401525b50505050565b60006123798261231f565b612383818561232a565b935061239381856020860161233b565b61239c8161216e565b840191505092915050565b600073ffffffffffffffffffffffffffffffffffffffff82169050919050565b60006123d2826123a7565b9050919050565b6123e2816123c7565b82525050565b6000819050919050565b6123fb816123e8565b82525050565b600060a083016000830151848203600086015261241e828261236e565b91505060208301518482036020860152612438828261236e565b91505060408301518482036040860152612452828261236e565b915050606083015161246760608601826123d9565b50608083015161247a60808601826123f2565b508091505092915050565b60006124918383612401565b905092915050565b6000602082019050919050565b60006124b1826122f3565b6124bb81856122fe565b9350836020820285016124cd8561230f565b8060005b8581101561250957848403895281516124ea8582612485565b94506124f583612499565b925060208a019950506001810190506124d1565b50829750879550505050505092915050565b60006080830160008301518482036000860152612538828261236e565b915050602083015161254d60208601826123f2565b50604083015161256060408601826123f2565b50606083015161257360608601826123f2565b508091505092915050565b6000604082019050818103600083015261259881856124a6565b905081810360208301526125ac818461251b565b90509392505050565b60008115159050919050565b6125ca816125b5565b82525050565b60006020820190506125e560008301846125c1565b92915050565b600060a0830160008301518482036000860152612608828261236e565b91505060208301518482036020860152612622828261236e565b9150506040830151848203604086015261263c828261236e565b915050606083015161265160608601826123d9565b50608083015161266460808601826123f2565b508091505092915050565b600060408201905061268460008301856125c1565b818103602083015261269681846125eb565b90509392505050565b600060208201905081810360008301526126b9818461251b565b905092915050565b600080fd5b600080fd5b6126d4816123e8565b81146126df57600080fd5b50565b6000813590506126f1816126cb565b92915050565b60006080828403121561270d5761270c6126c1565b5b61271760806121df565b9050600082013567ffffffffffffffff811115612737576127366126c6565b5b6127438482850161227c565b6000830152506020612757848285016126e2565b602083015250604061276b848285016126e2565b604083015250606061277f848285016126e2565b60608301525092915050565b600080604083850312156127a2576127a161215a565b5b600083013567ffffffffffffffff8111156127c0576127bf61215f565b5b6127cc8582860161227c565b925050602083013567ffffffffffffffff8111156127ed576127ec61215f565b5b6127f9858286016126f7565b9150509250929050565b6000602082019050818103600083015261281d81846125eb565b905092915050565b6000806040838503121561283c5761283b61215a565b5b600083013567ffffffffffffffff81111561285a5761285961215f565b5b6128668582860161227c565b925050602083013567ffffffffffffffff8111156128875761288661215f565b5b6128938582860161227c565b9150509250929050565b600082825260208201905092915050565b60006128b98261231f565b6128c3818561289d565b93506128d381856020860161233b565b6128dc8161216e565b840191505092915050565b6000602082019050818103600083015261290181846128ae565b905092915050565b600081905092915050565b600061291f8261231f565b6129298185612909565b935061293981856020860161233b565b80840191505092915050565b60006129518284612914565b915081905092915050565b7f4e487b7100000000000000000000000000000000000000000000000000000000600052602260045260246000fd5b600060028204905060018216806129a357607f821691505b6020821081036129b6576129b561295c565b5b50919050565b7f4e487b7100000000000000000000000000000000000000000000000000000000600052603260045260246000fd5b600081519050919050565b600082825260208201905092915050565b6000612a12826129eb565b612a1c81856129f6565b9350612a2c81856020860161233b565b612a358161216e565b840191505092915050565b60006040820190508181036000830152612a5a8185612a07565b90508181036020830152612a6e8184612a07565b90509392505050565b612a80816125b5565b8114612a8b57600080fd5b50565b600081519050612a9d81612a77565b92915050565b600060208284031215612ab957612ab861215a565b5b6000612ac784828501612a8e565b91505092915050565b7f4e487b7100000000000000000000000000000000000000000000000000000000600052601160045260246000fd5b6000612b0a826123e8565b91507fffffffffffffffffffffffffffffffffffffffffffffffffffffffffffffffff8203612b3c57612b3b612ad0565b5b600182019050919050565b60008190508160005260206000209050919050565b60006020601f8301049050919050565b600082821b905092915050565b600060088302612ba97fffffffffffffffffffffffffffffffffffffffffffffffffffffffffffffffff82612b6c565b612bb38683612b6c565b95508019841693508086168417925050509392505050565b6000819050919050565b6000612bf0612beb612be6846123e8565b612bcb565b6123e8565b9050919050565b6000819050919050565b612c0a83612bd5565b612c1e612c1682612bf7565b848454612b79565b825550505050565b600090565b612c33612c26565b612c3e818484612c01565b505050565b5b81811015612c6257612c57600082612c2b565b600181019050612c44565b5050565b601f821115612ca757612c7881612b47565b612c8184612b5c565b81016020851015612c90578190505b612ca4612c9c85612b5c565b830182612c43565b50505b505050565b600082821c905092915050565b6000612cca60001984600802612cac565b1980831691505092915050565b6000612ce38383612cb9565b9150826002028217905092915050565b612cfc8261231f565b67ffffffffffffffff811115612d1557612d1461217f565b5b612d1f825461298b565b612d2a828285612c66565b600060209050601f831160018114612d5d5760008415612d4b578287015190505b612d558582612cd7565b865550612dbd565b601f198416612d6b86612b47565b60005b82811015612d9357848901518255600182019150602085019450602081019050612d6e565b86831015612db05784890151612dac601f891682612cb9565b8355505b6001600288020188555050505b505050505050565b6000612dd0826123e8565b9150612ddb836123e8565b925082821015612dee57612ded612ad0565b5b828203905092915050565b6000612e0c612e07846121fa565b6121df565b905082815260208101848484011115612e2857612e27612169565b5b612e3384828561233b565b509392505050565b600082601f830112612e5057612e4f612164565b5b8151612e60848260208601612df9565b91505092915050565b600060208284031215612e7f57612e7e61215a565b5b600082015167ffffffffffffffff811115612e9d57612e9c61215f565b5b612ea984828501612e3b565b91505092915050565b6000612ebd826123e8565b9150612ec8836123e8565b9250827fffffffffffffffffffffffffffffffffffffffffffffffffffffffffffffffff03821115612efd57612efc612ad0565b5b82820190509291505056fea26469706673582212207672a2d5b0718ad43b6859489652ffe787c4e5ca19746f958a825f81fff071a564736f6c634300080f003360806040526040518060400160405280600981526020017f225c2f5d3a3f3c3e7c0000000000000000000000000000000000000000000000815250600090816200004a919062000380565b507f2e00000000000000000000000000000000000000000000000000000000000000600160006101000a81548160ff021916908360f81c021790555060006003553480156200009857600080fd5b5060405162002295380380620022958339818101604052810190620000be9190620004e5565b80600460006101000a81548173ffffffffffffffffffffffffffffffffffffffff021916908373ffffffffffffffffffffffffffffffffffffffff1602179055505062000517565b600081519050919050565b7f4e487b7100000000000000000000000000000000000000000000000000000000600052604160045260246000fd5b7f4e487b7100000000000000000000000000000000000000000000000000000000600052602260045260246000fd5b600060028204905060018216806200018857607f821691505b6020821081036200019e576200019d62000140565b5b50919050565b60008190508160005260206000209050919050565b60006020601f8301049050919050565b600082821b905092915050565b600060088302620002087fffffffffffffffffffffffffffffffffffffffffffffffffffffffffffffffff82620001c9565b620002148683620001c9565b95508019841693508086168417925050509392505050565b6000819050919050565b6000819050919050565b6000620002616200025b62000255846200022c565b62000236565b6200022c565b9050919050565b6000819050919050565b6200027d8362000240565b620002956200028c8262000268565b848454620001d6565b825550505050565b600090565b620002ac6200029d565b620002b981848462000272565b505050565b5b81811015620002e157620002d5600082620002a2565b600181019050620002bf565b5050565b601f8211156200033057620002fa81620001a4565b6200030584620001b9565b8101602085101562000315578190505b6200032d6200032485620001b9565b830182620002be565b50505b505050565b600082821c905092915050565b6000620003556000198460080262000335565b1980831691505092915050565b600062000370838362000342565b9150826002028217905092915050565b6200038b8262000106565b67ffffffffffffffff811115620003a757620003a662000111565b5b620003b382546200016f565b620003c0828285620002e5565b600060209050601f831160018114620003f85760008415620003e3578287015190505b620003ef858262000362565b8655506200045f565b601f1984166200040886620001a4565b60005b8281101562000432578489015182556001820191506020850194506020810190506200040b565b868310156200045257848901516200044e601f89168262000342565b8355505b6001600288020188555050505b505050505050565b600080fd5b600073ffffffffffffffffffffffffffffffffffffffff82169050919050565b600062000499826200046c565b9050919050565b6000620004ad826200048c565b9050919050565b620004bf81620004a0565b8114620004cb57600080fd5b50565b600081519050620004df81620004b4565b92915050565b600060208284031215620004fe57620004fd62000467565b5b60006200050e84828501620004ce565b91505092915050565b611d6e80620005276000396000f3fe608060405234801561001057600080fd5b50600436106100415760003560e01c8063c22585c214610046578063c595403714610076578063c638ad05146100a6575b600080fd5b610060600480360381019061005b91906110bd565b6100d7565b60405161006d91906111ec565b60405180910390f35b610090600480360381019061008b91906112e2565b61067b565b60405161009d91906114c4565b60405180910390f35b6100c060048036038101906100bb91906114e6565b610b53565b6040516100ce92919061152f565b60405180910390f35b60608360008082905060006001905060e682511115610122576040517fc96b3aa100000000000000000000000000000000000000000000000000000000815260040160405180910390fd5b600082510361013057600090505b82156101db5760005b82518110156101d557600160009054906101000a900460f81b7effffffffffffffffffffffffffffffffffffffffffffffffffffffffffffff191683828151811061018757610186611566565b5b602001015160f81c60f81b7effffffffffffffffffffffffffffffffffffffffffffffffffffffffffffff1916036101c257600091506101d5565b80806101cd906115c4565b915050610139565b50610309565b6000905060005b825181101561027e57600160009054906101000a900460f81b7effffffffffffffffffffffffffffffffffffffffffffffffffffffffffffff19168382815181106102305761022f611566565b5b602001015160f81c60f81b7effffffffffffffffffffffffffffffffffffffffffffffffffffffffffffff19160361026b576001915061027e565b8080610276906115c4565b9150506101e2565b50600160009054906101000a900460f81b7effffffffffffffffffffffffffffffffffffffffffffffffffffffffffffff191682600184516102c0919061160c565b815181106102d1576102d0611566565b5b602001015160f81c60f81b7effffffffffffffffffffffffffffffffffffffffffffffffffffffffffffff19160361030857600090505b5b60005b825181101561042d5760005b600080546103259061166f565b905081101561041357600081815461033c9061166f565b811061034b5761034a611566565b5b81546001161561036a5790600052602060002090602091828204019190065b9054901a7f0100000000000000000000000000000000000000000000000000000000000000027effffffffffffffffffffffffffffffffffffffffffffffffffffffffffffff19168483815181106103c5576103c4611566565b5b602001015160f81c60f81b7effffffffffffffffffffffffffffffffffffffffffffffffffffffffffffff1916036104005760009250610413565b808061040b906115c4565b915050610318565b50811561042d578080610425906115c4565b91505061030c565b50801561063e576000600460009054906101000a900473ffffffffffffffffffffffffffffffffffffffff1673ffffffffffffffffffffffffffffffffffffffff1663a36885466040518163ffffffff1660e01b81526004016000604051808303816000875af11580156104a5573d6000803e3d6000fd5b505050506040513d6000823e3d601f19601f820116820180604052508101906104ce9190611710565b90506000806104dc8b610b53565b9150915060006040518060e001604052808581526020018c81526020018481526020018381526020018b81526020013373ffffffffffffffffffffffffffffffffffffffff1681526020014281525090506002819080600181540180825580915050600190039060005260206000209060070201600090919091909150600082015181600001908161056e9190611905565b5060208201518160010190816105849190611905565b50604082015181600201908161059a9190611905565b5060608201518160030190816105b09190611905565b5060808201518160040190816105c69190611a3d565b5060a08201518160050160006101000a81548173ffffffffffffffffffffffffffffffffffffffff021916908373ffffffffffffffffffffffffffffffffffffffff16021790555060c0820151816006015550506003600081548092919061062d906115c4565b919050555083985050505050610670565b6040517fb5d012b400000000000000000000000000000000000000000000000000000000815260040160405180910390fd5b505050509392505050565b60606000826020015167ffffffffffffffff81111561069d5761069c610ef1565b5b6040519080825280602002602001820160405280156106d657816020015b6106c3610ea1565b8152602001906001900390816106bb5790505b50905060008085905060005b600354811015610b465760006002828154811061070257610701611566565b5b90600052602060002090600702016040518060e001604052908160008201805461072b9061166f565b80601f01602080910402602001604051908101604052809291908181526020018280546107579061166f565b80156107a45780601f10610779576101008083540402835291602001916107a4565b820191906000526020600020905b81548152906001019060200180831161078757829003601f168201915b505050505081526020016001820180546107bd9061166f565b80601f01602080910402602001604051908101604052809291908181526020018280546107e99061166f565b80156108365780601f1061080b57610100808354040283529160200191610836565b820191906000526020600020905b81548152906001019060200180831161081957829003601f168201915b5050505050815260200160028201805461084f9061166f565b80601f016020809104026020016040519081016040528092919081815260200182805461087b9061166f565b80156108c85780601f1061089d576101008083540402835291602001916108c8565b820191906000526020600020905b8154815290600101906020018083116108ab57829003601f168201915b505050505081526020016003820180546108e19061166f565b80601f016020809104026020016040519081016040528092919081815260200182805461090d9061166f565b801561095a5780601f1061092f5761010080835404028352916020019161095a565b820191906000526020600020905b81548152906001019060200180831161093d57829003601f168201915b505050505081526020016004820180546109739061166f565b80601f016020809104026020016040519081016040528092919081815260200182805461099f9061166f565b80156109ec5780601f106109c1576101008083540402835291602001916109ec565b820191906000526020600020905b8154815290600101906020018083116109cf57829003601f168201915b505050505081526020016005820160009054906101000a900473ffffffffffffffffffffffffffffffffffffffff1673ffffffffffffffffffffffffffffffffffffffff1673ffffffffffffffffffffffffffffffffffffffff168152602001600682015481525050905060008160200151905073__Infrastructure________________________637da4831785836040518363ffffffff1660e01b8152600401610a99929190611b59565b602060405180830381865af4158015610ab6573d6000803e3d6000fd5b505050506040513d601f19601f82011682018060405250810190610ada9190611bc8565b15610b3157604051806060016040528083600001518152602001836040015181526020018360600151815250868680610b12906115c4565b975081518110610b2557610b24611566565b5b60200260200101819052505b50508080610b3e906115c4565b9150506106e2565b5082935050505092915050565b606080600080603267ffffffffffffffff811115610b7457610b73610ef1565b5b6040519080825280601f01601f191660200182016040528015610ba65781602001600182028036833780820191505090505b5090506000859050600060018251610bbe919061160c565b90505b6000828281518110610bd657610bd5611566565b5b602001015160f81c60f81b9050602e60f81b817effffffffffffffffffffffffffffffffffffffffffffffffffffffffffffff191603610c165750610cf0565b6031851115610c51576040517fb5d012b400000000000000000000000000000000000000000000000000000000815260040160405180910390fd5b80848681518110610c6557610c64611566565b5b60200101907effffffffffffffffffffffffffffffffffffffffffffffffffffffffffffff1916908160001a9053508480610c9f906115c4565b95505060008203610cdc576040517fb5d012b400000000000000000000000000000000000000000000000000000000815260040160405180910390fd5b508080610ce890611bf5565b915050610bc1565b73__Infrastructure________________________63c5249be984866040518363ffffffff1660e01b8152600401610d29929190611c2d565b600060405180830381865af4158015610d46573d6000803e3d6000fd5b505050506040513d6000823e3d601f19601f82011682018060405250810190610d6f9190611ccd565b925073__Infrastructure________________________632f278ecb846040518263ffffffff1660e01b8152600401610da89190611d16565b600060405180830381865af4158015610dc5573d6000803e3d6000fd5b505050506040513d6000823e3d601f19601f82011682018060405250810190610dee9190611ccd565b925060006001858451610e01919061160c565b610e0b919061160c565b9050600073__Infrastructure________________________63c5249be985846040518363ffffffff1660e01b8152600401610e48929190611c2d565b600060405180830381865af4158015610e65573d6000803e3d6000fd5b505050506040513d6000823e3d601f19601f82011682018060405250810190610e8e9190611ccd565b9050808597509750505050505050915091565b60405180606001604052806060815260200160608152602001606081525090565b6000604051905090565b600080fd5b600080fd5b600080fd5b600080fd5b6000601f19601f8301169050919050565b7f4e487b7100000000000000000000000000000000000000000000000000000000600052604160045260246000fd5b610f2982610ee0565b810181811067ffffffffffffffff82111715610f4857610f47610ef1565b5b80604052505050565b6000610f5b610ec2565b9050610f678282610f20565b919050565b600067ffffffffffffffff821115610f8757610f86610ef1565b5b610f9082610ee0565b9050602081019050919050565b82818337600083830152505050565b6000610fbf610fba84610f6c565b610f51565b905082815260208101848484011115610fdb57610fda610edb565b5b610fe6848285610f9d565b509392505050565b600082601f83011261100357611002610ed6565b5b8135611013848260208601610fac565b91505092915050565b600067ffffffffffffffff82111561103757611036610ef1565b5b61104082610ee0565b9050602081019050919050565b600061106061105b8461101c565b610f51565b90508281526020810184848401111561107c5761107b610edb565b5b611087848285610f9d565b509392505050565b600082601f8301126110a4576110a3610ed6565b5b81356110b484826020860161104d565b91505092915050565b6000806000606084860312156110d6576110d5610ecc565b5b600084013567ffffffffffffffff8111156110f4576110f3610ed1565b5b61110086828701610fee565b935050602084013567ffffffffffffffff81111561112157611120610ed1565b5b61112d86828701610fee565b925050604084013567ffffffffffffffff81111561114e5761114d610ed1565b5b61115a8682870161108f565b9150509250925092565b600081519050919050565b600082825260208201905092915050565b60005b8381101561119e578082015181840152602081019050611183565b838111156111ad576000848401525b50505050565b60006111be82611164565b6111c8818561116f565b93506111d8818560208601611180565b6111e181610ee0565b840191505092915050565b6000602082019050818103600083015261120681846111b3565b905092915050565b600080fd5b600080fd5b6000819050919050565b61122b81611218565b811461123657600080fd5b50565b60008135905061124881611222565b92915050565b6000608082840312156112645761126361120e565b5b61126e6080610f51565b9050600082013567ffffffffffffffff81111561128e5761128d611213565b5b61129a84828501610fee565b60008301525060206112ae84828501611239565b60208301525060406112c284828501611239565b60408301525060606112d684828501611239565b60608301525092915050565b600080604083850312156112f9576112f8610ecc565b5b600083013567ffffffffffffffff81111561131757611316610ed1565b5b61132385828601610fee565b925050602083013567ffffffffffffffff81111561134457611343610ed1565b5b6113508582860161124e565b9150509250929050565b600081519050919050565b600082825260208201905092915050565b6000819050602082019050919050565b600082825260208201905092915050565b60006113a282611164565b6113ac8185611386565b93506113bc818560208601611180565b6113c581610ee0565b840191505092915050565b600060608301600083015184820360008601526113ed8282611397565b915050602083015184820360208601526114078282611397565b915050604083015184820360408601526114218282611397565b9150508091505092915050565b600061143a83836113d0565b905092915050565b6000602082019050919050565b600061145a8261135a565b6114648185611365565b93508360208202850161147685611376565b8060005b858110156114b25784840389528151611493858261142e565b945061149e83611442565b925060208a0199505060018101905061147a565b50829750879550505050505092915050565b600060208201905081810360008301526114de818461144f565b905092915050565b6000602082840312156114fc576114fb610ecc565b5b600082013567ffffffffffffffff81111561151a57611519610ed1565b5b61152684828501610fee565b91505092915050565b6000604082019050818103600083015261154981856111b3565b9050818103602083015261155d81846111b3565b90509392505050565b7f4e487b7100000000000000000000000000000000000000000000000000000000600052603260045260246000fd5b7f4e487b7100000000000000000000000000000000000000000000000000000000600052601160045260246000fd5b60006115cf82611218565b91507fffffffffffffffffffffffffffffffffffffffffffffffffffffffffffffffff820361160157611600611595565b5b600182019050919050565b600061161782611218565b915061162283611218565b92508282101561163557611634611595565b5b828203905092915050565b7f4e487b7100000000000000000000000000000000000000000000000000000000600052602260045260246000fd5b6000600282049050600182168061168757607f821691505b60208210810361169a57611699611640565b5b50919050565b60006116b36116ae84610f6c565b610f51565b9050828152602081018484840111156116cf576116ce610edb565b5b6116da848285611180565b509392505050565b600082601f8301126116f7576116f6610ed6565b5b81516117078482602086016116a0565b91505092915050565b60006020828403121561172657611725610ecc565b5b600082015167ffffffffffffffff81111561174457611743610ed1565b5b611750848285016116e2565b91505092915050565b60008190508160005260206000209050919050565b60006020601f8301049050919050565b600082821b905092915050565b6000600883026117bb7fffffffffffffffffffffffffffffffffffffffffffffffffffffffffffffffff8261177e565b6117c5868361177e565b95508019841693508086168417925050509392505050565b6000819050919050565b60006118026117fd6117f884611218565b6117dd565b611218565b9050919050565b6000819050919050565b61181c836117e7565b61183061182882611809565b84845461178b565b825550505050565b600090565b611845611838565b611850818484611813565b505050565b5b818110156118745761186960008261183d565b600181019050611856565b5050565b601f8211156118b95761188a81611759565b6118938461176e565b810160208510156118a2578190505b6118b66118ae8561176e565b830182611855565b50505b505050565b600082821c905092915050565b60006118dc600019846008026118be565b1980831691505092915050565b60006118f583836118cb565b9150826002028217905092915050565b61190e82611164565b67ffffffffffffffff81111561192757611926610ef1565b5b611931825461166f565b61193c828285611878565b600060209050601f83116001811461196f576000841561195d578287015190505b61196785826118e9565b8655506119cf565b601f19841661197d86611759565b60005b828110156119a557848901518255600182019150602085019450602081019050611980565b868310156119c257848901516119be601f8916826118cb565b8355505b6001600288020188555050505b505050505050565b600081519050919050565b60008190508160005260206000209050919050565b601f821115611a3857611a09816119e2565b611a128461176e565b81016020851015611a21578190505b611a35611a2d8561176e565b830182611855565b50505b505050565b611a46826119d7565b67ffffffffffffffff811115611a5f57611a5e610ef1565b5b611a69825461166f565b611a748282856119f7565b600060209050601f831160018114611aa75760008415611a95578287015190505b611a9f85826118e9565b865550611b07565b601f198416611ab5866119e2565b60005b82811015611add57848901518255600182019150602085019450602081019050611ab8565b86831015611afa5784890151611af6601f8916826118cb565b8355505b6001600288020188555050505b505050505050565b600082825260208201905092915050565b6000611b2b826119d7565b611b358185611b0f565b9350611b45818560208601611180565b611b4e81610ee0565b840191505092915050565b60006040820190508181036000830152611b738185611b20565b90508181036020830152611b878184611b20565b90509392505050565b60008115159050919050565b611ba581611b90565b8114611bb057600080fd5b50565b600081519050611bc281611b9c565b92915050565b600060208284031215611bde57611bdd610ecc565b5b6000611bec84828501611bb3565b91505092915050565b6000611c0082611218565b915060008203611c1357611c12611595565b5b600182039050919050565b611c2781611218565b82525050565b60006040820190508181036000830152611c478185611b20565b9050611c566020830184611c1e565b9392505050565b6000611c70611c6b8461101c565b610f51565b905082815260208101848484011115611c8c57611c8b610edb565b5b611c97848285611180565b509392505050565b600082601f830112611cb457611cb3610ed6565b5b8151611cc4848260208601611c5d565b91505092915050565b600060208284031215611ce357611ce2610ecc565b5b600082015167ffffffffffffffff811115611d0157611d00610ed1565b5b611d0d84828501611c9f565b91505092915050565b60006020820190508181036000830152611d308184611b20565b90509291505056fea26469706673582212205c57d94133f079374667f184011472f478d718cd9aaa18cc2021a9a3e2b5befd64736f6c634300080f0033",
  "immutableReferences": {},
  "source": "// SPDX-License-Identifier: MIT\npragma solidity ^0.8;\nimport \"@openzeppelin/contracts/utils/Strings.sol\";\nimport {Infrastructure} from \"./BusinessHelper/Infrastructure.sol\";\nimport {UniqueIdGenerator} from \"./BusinessHelper/UniqueIdGenerator.sol\";\nimport {FileRepository} from \"./Repositories/FileRepository.sol\";\nimport {DirectoryRepository} from \"./Repositories/DirectoryRepository.sol\";\nimport {DirectoryFrame} from \"./Entities/DirectoryFrame.sol\";\nimport {DirectoryInfoFrame} from \"./Entities/DirectoryInfoFrame.sol\";\nimport \"./ViewModels/FileOutput.sol\";\n\ncontract ContractLogic {\n    UniqueIdGenerator private uniqueIdGenerator;\n    DirectoryRepository private directoryRepository;\n    FileRepository private fileRepository;\n\n    constructor() {\n        uniqueIdGenerator = new UniqueIdGenerator();\n        directoryRepository = new DirectoryRepository(uniqueIdGenerator);\n        fileRepository = new FileRepository(uniqueIdGenerator);\n    }\n\n    function createDirectory(string memory name, string memory parentId)\n        public\n        payable\n        returns (string memory)\n    {\n        return (directoryRepository.add(name, parentId));\n    }\n\n    function getDirectoryData(string memory id)\n        public\n        view\n        returns (\n            DirectoryFrame[] memory,\n            FileOutput[] memory,\n            DirectoryInfoFrame memory\n        )\n    {\n        (\n            DirectoryFrame[] memory directories,\n            DirectoryInfoFrame memory directoryInfo\n        ) = directoryRepository.getSubDirectories(id);\n        FileOutput[] memory files = fileRepository.getSubFiles(\n            id,\n            directoryInfo\n        );\n        return (directories, files, directoryInfo);\n    }\n\n    function getOrCreateRoot() public returns (DirectoryFrame memory root) {\n        return (directoryRepository.getOrCreateRoot());\n    }\n\n    function getRoot() public view returns (bool, DirectoryFrame memory) {\n        return (directoryRepository.getRoot());\n    }\n\n    function uploadFile(\n        string memory directoryId,\n        string memory fileName,\n        bytes memory fileData\n    ) public payable returns (string memory) {\n        DirectoryFrame memory directory = directoryRepository\n            .getDirectoryOrRoot(directoryId);\n        DirectoryInfoFrame memory directoryInfo = directoryRepository\n            .getOrCreateDirectoryInfo(directory.Id);\n        directoryInfo.FilesCount = directoryInfo.FilesCount + 1;\n        directoryRepository.updateDirectoryInfo(directory.Id, directoryInfo);\n        string memory fileID = fileRepository.add(\n            fileName,\n            directoryId,\n            fileData\n        );\n        return fileID;\n    }\n\n    function testGet(bytes memory t) public pure returns (bytes memory) {\n        //0x2123229f00\n        return t;\n    }\n}\n",
  "sourcePath": "C:\\Amir\\X7Opsilon\\smart_contract\\contracts\\ContractLogic.sol",
  "compiler": {
    "name": "solc",
    "version": "0.8.15+commit.e14f2714.Emscripten.clang"
  },
  "schemaVersion": "3.4.14",
  "updatedAt": "2023-07-25T19:59:35.829Z",
  "networkType": "ethereum",
  "devdoc": {
    "kind": "dev",
    "methods": {},
    "version": 1
  },
  "userdoc": {
    "kind": "user",
    "methods": {},
    "version": 1
  }
}