{
  "contractName": "DirectoryRepository",
  "abi": [
    {
      "inputs": [
        {
          "internalType": "contract UniqueIdGenerator",
          "name": "uniqueIdGenerator",
          "type": "address"
        }
      ],
      "stateMutability": "nonpayable",
      "type": "constructor"
    },
    {
      "inputs": [],
      "name": "notfound",
      "type": "error"
    },
    {
      "inputs": [],
      "name": "unsupportedName",
      "type": "error"
    },
    {
      "inputs": [],
      "name": "unsupportedSize",
      "type": "error"
    },
    {
      "inputs": [],
      "name": "existRoot",
      "outputs": [
        {
          "internalType": "bool",
          "name": "",
          "type": "bool"
        }
      ],
      "stateMutability": "view",
      "type": "function"
    },
    {
      "inputs": [
        {
          "internalType": "string",
          "name": "name",
          "type": "string"
        },
        {
          "internalType": "string",
          "name": "parentId",
          "type": "string"
        }
      ],
      "name": "add",
      "outputs": [
        {
          "internalType": "string",
          "name": "",
          "type": "string"
        }
      ],
      "stateMutability": "payable",
      "type": "function"
    },
    {
      "inputs": [
        {
          "internalType": "string",
          "name": "id",
          "type": "string"
        },
        {
          "components": [
            {
              "internalType": "string",
              "name": "DirectoryId",
              "type": "string"
            },
            {
              "internalType": "uint256",
              "name": "FilesCount",
              "type": "uint256"
            },
            {
              "internalType": "uint256",
              "name": "DirectoriesCount",
              "type": "uint256"
            },
            {
              "internalType": "uint256",
              "name": "Size",
              "type": "uint256"
            }
          ],
          "internalType": "struct DirectoryInfoFrame",
          "name": "newModel",
          "type": "tuple"
        }
      ],
      "name": "updateDirectoryInfo",
      "outputs": [],
      "stateMutability": "payable",
      "type": "function"
    },
    {
      "inputs": [
        {
          "internalType": "string",
          "name": "directoryId",
          "type": "string"
        }
      ],
      "name": "getSubDirectories",
      "outputs": [
        {
          "components": [
            {
              "internalType": "string",
              "name": "Id",
              "type": "string"
            },
            {
              "internalType": "string",
              "name": "ParentId",
              "type": "string"
            },
            {
              "internalType": "string",
              "name": "Name",
              "type": "string"
            },
            {
              "internalType": "address",
              "name": "Creator",
              "type": "address"
            },
            {
              "internalType": "uint256",
              "name": "DateCreated",
              "type": "uint256"
            }
          ],
          "internalType": "struct DirectoryFrame[]",
          "name": "",
          "type": "tuple[]"
        },
        {
          "components": [
            {
              "internalType": "string",
              "name": "DirectoryId",
              "type": "string"
            },
            {
              "internalType": "uint256",
              "name": "FilesCount",
              "type": "uint256"
            },
            {
              "internalType": "uint256",
              "name": "DirectoriesCount",
              "type": "uint256"
            },
            {
              "internalType": "uint256",
              "name": "Size",
              "type": "uint256"
            }
          ],
          "internalType": "struct DirectoryInfoFrame",
          "name": "",
          "type": "tuple"
        }
      ],
      "stateMutability": "view",
      "type": "function"
    },
    {
      "inputs": [],
      "name": "getRoot",
      "outputs": [
        {
          "internalType": "bool",
          "name": "isNull",
          "type": "bool"
        },
        {
          "components": [
            {
              "internalType": "string",
              "name": "Id",
              "type": "string"
            },
            {
              "internalType": "string",
              "name": "ParentId",
              "type": "string"
            },
            {
              "internalType": "string",
              "name": "Name",
              "type": "string"
            },
            {
              "internalType": "address",
              "name": "Creator",
              "type": "address"
            },
            {
              "internalType": "uint256",
              "name": "DateCreated",
              "type": "uint256"
            }
          ],
          "internalType": "struct DirectoryFrame",
          "name": "root",
          "type": "tuple"
        }
      ],
      "stateMutability": "view",
      "type": "function"
    },
    {
      "inputs": [
        {
          "internalType": "string",
          "name": "id",
          "type": "string"
        }
      ],
      "name": "getDirectoryInfo",
      "outputs": [
        {
          "components": [
            {
              "internalType": "string",
              "name": "DirectoryId",
              "type": "string"
            },
            {
              "internalType": "uint256",
              "name": "FilesCount",
              "type": "uint256"
            },
            {
              "internalType": "uint256",
              "name": "DirectoriesCount",
              "type": "uint256"
            },
            {
              "internalType": "uint256",
              "name": "Size",
              "type": "uint256"
            }
          ],
          "internalType": "struct DirectoryInfoFrame",
          "name": "directoryInfo",
          "type": "tuple"
        }
      ],
      "stateMutability": "view",
      "type": "function"
    },
    {
      "inputs": [
        {
          "internalType": "string",
          "name": "id",
          "type": "string"
        }
      ],
      "name": "getDirectoryOrRoot",
      "outputs": [
        {
          "components": [
            {
              "internalType": "string",
              "name": "Id",
              "type": "string"
            },
            {
              "internalType": "string",
              "name": "ParentId",
              "type": "string"
            },
            {
              "internalType": "string",
              "name": "Name",
              "type": "string"
            },
            {
              "internalType": "address",
              "name": "Creator",
              "type": "address"
            },
            {
              "internalType": "uint256",
              "name": "DateCreated",
              "type": "uint256"
            }
          ],
          "internalType": "struct DirectoryFrame",
          "name": "",
          "type": "tuple"
        }
      ],
      "stateMutability": "nonpayable",
      "type": "function"
    },
    {
      "inputs": [
        {
          "internalType": "string",
          "name": "id",
          "type": "string"
        }
      ],
      "name": "getOrCreateDirectoryInfo",
      "outputs": [
        {
          "components": [
            {
              "internalType": "string",
              "name": "DirectoryId",
              "type": "string"
            },
            {
              "internalType": "uint256",
              "name": "FilesCount",
              "type": "uint256"
            },
            {
              "internalType": "uint256",
              "name": "DirectoriesCount",
              "type": "uint256"
            },
            {
              "internalType": "uint256",
              "name": "Size",
              "type": "uint256"
            }
          ],
          "internalType": "struct DirectoryInfoFrame",
          "name": "directoryInfo",
          "type": "tuple"
        }
      ],
      "stateMutability": "payable",
      "type": "function"
    },
    {
      "inputs": [],
      "name": "getOrCreateRoot",
      "outputs": [
        {
          "components": [
            {
              "internalType": "string",
              "name": "Id",
              "type": "string"
            },
            {
              "internalType": "string",
              "name": "ParentId",
              "type": "string"
            },
            {
              "internalType": "string",
              "name": "Name",
              "type": "string"
            },
            {
              "internalType": "address",
              "name": "Creator",
              "type": "address"
            },
            {
              "internalType": "uint256",
              "name": "DateCreated",
              "type": "uint256"
            }
          ],
          "internalType": "struct DirectoryFrame",
          "name": "root",
          "type": "tuple"
        }
      ],
      "stateMutability": "payable",
      "type": "function"
    }
  ],
  "bytecode": "0x60806040526040518060400160405280600981526020017f225c2f5d3a3f3c3e7c0000000000000000000000000000000000000000000000815250600090816200004a919062000380565b507f2e00000000000000000000000000000000000000000000000000000000000000600160006101000a81548160ff021916908360f81c021790555060006003553480156200009857600080fd5b5060405162003465380380620034658339818101604052810190620000be9190620004e5565b80600460006101000a81548173ffffffffffffffffffffffffffffffffffffffff021916908373ffffffffffffffffffffffffffffffffffffffff1602179055505062000517565b600081519050919050565b7f4e487b7100000000000000000000000000000000000000000000000000000000600052604160045260246000fd5b7f4e487b7100000000000000000000000000000000000000000000000000000000600052602260045260246000fd5b600060028204905060018216806200018857607f821691505b6020821081036200019e576200019d62000140565b5b50919050565b60008190508160005260206000209050919050565b60006020601f8301049050919050565b600082821b905092915050565b600060088302620002087fffffffffffffffffffffffffffffffffffffffffffffffffffffffffffffffff82620001c9565b620002148683620001c9565b95508019841693508086168417925050509392505050565b6000819050919050565b6000819050919050565b6000620002616200025b62000255846200022c565b62000236565b6200022c565b9050919050565b6000819050919050565b6200027d8362000240565b620002956200028c8262000268565b848454620001d6565b825550505050565b600090565b620002ac6200029d565b620002b981848462000272565b505050565b5b81811015620002e157620002d5600082620002a2565b600181019050620002bf565b5050565b601f8211156200033057620002fa81620001a4565b6200030584620001b9565b8101602085101562000315578190505b6200032d6200032485620001b9565b830182620002be565b50505b505050565b600082821c905092915050565b6000620003556000198460080262000335565b1980831691505092915050565b600062000370838362000342565b9150826002028217905092915050565b6200038b8262000106565b67ffffffffffffffff811115620003a757620003a662000111565b5b620003b382546200016f565b620003c0828285620002e5565b600060209050601f831160018114620003f85760008415620003e3578287015190505b620003ef858262000362565b8655506200045f565b601f1984166200040886620001a4565b60005b8281101562000432578489015182556001820191506020850194506020810190506200040b565b868310156200045257848901516200044e601f89168262000342565b8355505b6001600288020188555050505b505050505050565b600080fd5b600073ffffffffffffffffffffffffffffffffffffffff82169050919050565b600062000499826200046c565b9050919050565b6000620004ad826200048c565b9050919050565b620004bf81620004a0565b8114620004cb57600080fd5b50565b600081519050620004df81620004b4565b92915050565b600060208284031215620004fe57620004fd62000467565b5b60006200050e84828501620004ce565b91505092915050565b612f3e80620005276000396000f3fe6080604052600436106100865760003560e01c8063976c125511610059578063976c125514610150578063c01a83161461016c578063ebdf86ca146101a9578063ef8bfa3e146101d9578063f0c76ccc146101f757610086565b806304c941691461008b57806332db898d146100c95780635ca1e165146100f4578063679c7ccb14610120575b600080fd5b34801561009757600080fd5b506100b260048036038101906100ad91906122aa565b610234565b6040516100c092919061257e565b60405180910390f35b3480156100d557600080fd5b506100de6106e9565b6040516100eb91906125d0565b60405180910390f35b34801561010057600080fd5b5061010961096e565b60405161011792919061266f565b60405180910390f35b61013a600480360381019061013591906122aa565b610bf9565b604051610147919061269f565b60405180910390f35b61016a6004803603810190610165919061278b565b610e43565b005b34801561017857600080fd5b50610193600480360381019061018e91906122aa565b610e84565b6040516101a09190612803565b60405180910390f35b6101c360048036038101906101be9190612825565b611131565b6040516101d091906128e7565b60405180910390f35b6101e1611796565b6040516101ee9190612803565b60405180910390f35b34801561020357600080fd5b5061021e600480360381019061021991906122aa565b611d95565b60405161022b919061269f565b60405180910390f35b606061023e6120e3565b61024783611e7d565b61027d576040517f5982e5ed00000000000000000000000000000000000000000000000000000000815260040160405180910390fd5b600060068460405161028f9190612945565b90815260200160405180910390206040518060800160405290816000820180546102b89061298b565b80601f01602080910402602001604051908101604052809291908181526020018280546102e49061298b565b80156103315780601f1061030657610100808354040283529160200191610331565b820191906000526020600020905b81548152906001019060200180831161031457829003601f168201915b50505050508152602001600182015481526020016002820154815260200160038201548152505090506000816040015167ffffffffffffffff81111561037a5761037961217f565b5b6040519080825280602002602001820160405280156103b357816020015b6103a061210b565b8152602001906001900390816103985790505b50905060008086905060005b6003548110156106d9576000600282815481106103df576103de6129bc565b5b90600052602060002090600502016040518060a00160405290816000820180546104089061298b565b80601f01602080910402602001604051908101604052809291908181526020018280546104349061298b565b80156104815780601f1061045657610100808354040283529160200191610481565b820191906000526020600020905b81548152906001019060200180831161046457829003601f168201915b5050505050815260200160018201805461049a9061298b565b80601f01602080910402602001604051908101604052809291908181526020018280546104c69061298b565b80156105135780601f106104e857610100808354040283529160200191610513565b820191906000526020600020905b8154815290600101906020018083116104f657829003601f168201915b5050505050815260200160028201805461052c9061298b565b80601f01602080910402602001604051908101604052809291908181526020018280546105589061298b565b80156105a55780601f1061057a576101008083540402835291602001916105a5565b820191906000526020600020905b81548152906001019060200180831161058857829003601f168201915b505050505081526020016003820160009054906101000a900473ffffffffffffffffffffffffffffffffffffffff1673ffffffffffffffffffffffffffffffffffffffff1673ffffffffffffffffffffffffffffffffffffffff168152602001600482015481525050905060008160200151905073__Infrastructure________________________637da4831785836040518363ffffffff1660e01b8152600401610652929190612a40565b602060405180830381865af415801561066f573d6000803e3d6000fd5b505050506040513d601f19601f820116820180604052508101906106939190612aa3565b156106c457818686806106a590612aff565b9750815181106106b8576106b76129bc565b5b60200260200101819052505b505080806106d190612aff565b9150506103bf565b5082849550955050505050915091565b600080600560003373ffffffffffffffffffffffffffffffffffffffff1673ffffffffffffffffffffffffffffffffffffffff1681526020019081526020016000206040518060a00160405290816000820180546107469061298b565b80601f01602080910402602001604051908101604052809291908181526020018280546107729061298b565b80156107bf5780601f10610794576101008083540402835291602001916107bf565b820191906000526020600020905b8154815290600101906020018083116107a257829003601f168201915b505050505081526020016001820180546107d89061298b565b80601f01602080910402602001604051908101604052809291908181526020018280546108049061298b565b80156108515780601f1061082657610100808354040283529160200191610851565b820191906000526020600020905b81548152906001019060200180831161083457829003601f168201915b5050505050815260200160028201805461086a9061298b565b80601f01602080910402602001604051908101604052809291908181526020018280546108969061298b565b80156108e35780601f106108b8576101008083540402835291602001916108e3565b820191906000526020600020905b8154815290600101906020018083116108c657829003601f168201915b505050505081526020016003820160009054906101000a900473ffffffffffffffffffffffffffffffffffffffff1673ffffffffffffffffffffffffffffffffffffffff1673ffffffffffffffffffffffffffffffffffffffff168152602001600482015481525050905060008160000151510361096557600091505061096b565b60019150505b90565b600061097861210b565b600560003373ffffffffffffffffffffffffffffffffffffffff1673ffffffffffffffffffffffffffffffffffffffff1681526020019081526020016000206040518060a00160405290816000820180546109d29061298b565b80601f01602080910402602001604051908101604052809291908181526020018280546109fe9061298b565b8015610a4b5780601f10610a2057610100808354040283529160200191610a4b565b820191906000526020600020905b815481529060010190602001808311610a2e57829003601f168201915b50505050508152602001600182018054610a649061298b565b80601f0160208091040260200160405190810160405280929190818152602001828054610a909061298b565b8015610add5780601f10610ab257610100808354040283529160200191610add565b820191906000526020600020905b815481529060010190602001808311610ac057829003601f168201915b50505050508152602001600282018054610af69061298b565b80601f0160208091040260200160405190810160405280929190818152602001828054610b229061298b565b8015610b6f5780601f10610b4457610100808354040283529160200191610b6f565b820191906000526020600020905b815481529060010190602001808311610b5257829003601f168201915b505050505081526020016003820160009054906101000a900473ffffffffffffffffffffffffffffffffffffffff1673ffffffffffffffffffffffffffffffffffffffff1673ffffffffffffffffffffffffffffffffffffffff1681526020016004820154815250509050600081600001515103610bf05760019150610bf5565b600091505b9091565b610c016120e3565b600682604051610c119190612945565b9081526020016040518091039020604051806080016040529081600082018054610c3a9061298b565b80601f0160208091040260200160405190810160405280929190818152602001828054610c669061298b565b8015610cb35780601f10610c8857610100808354040283529160200191610cb3565b820191906000526020600020905b815481529060010190602001808311610c9657829003601f168201915b5050505050815260200160018201548152602001600282015481526020016003820154815250509050600081600001515103610e3e57604051806080016040528083815260200160008152602001600081526020016000815250600683604051610d1d9190612945565b90815260200160405180910390206000820151816000019081610d409190612cf3565b50602082015181600101556040820151816002015560608201518160030155905050600682604051610d729190612945565b9081526020016040518091039020604051806080016040529081600082018054610d9b9061298b565b80601f0160208091040260200160405190810160405280929190818152602001828054610dc79061298b565b8015610e145780601f10610de957610100808354040283529160200191610e14565b820191906000526020600020905b815481529060010190602001808311610df757829003601f168201915b50505050508152602001600182015481526020016002820154815260200160038201548152505090505b919050565b6000600683604051610e559190612945565b908152602001604051809103902090508160400151816002018190555081602001518160010181905550505050565b610e8c61210b565b60008290506000815103610eaa57610ea2611796565b91505061112c565b610eb383611e7d565b610ee9576040517f5982e5ed00000000000000000000000000000000000000000000000000000000815260040160405180910390fd5b600783604051610ef99190612945565b90815260200160405180910390206040518060a0016040529081600082018054610f229061298b565b80601f0160208091040260200160405190810160405280929190818152602001828054610f4e9061298b565b8015610f9b5780601f10610f7057610100808354040283529160200191610f9b565b820191906000526020600020905b815481529060010190602001808311610f7e57829003601f168201915b50505050508152602001600182018054610fb49061298b565b80601f0160208091040260200160405190810160405280929190818152602001828054610fe09061298b565b801561102d5780601f106110025761010080835404028352916020019161102d565b820191906000526020600020905b81548152906001019060200180831161101057829003601f168201915b505050505081526020016002820180546110469061298b565b80601f01602080910402602001604051908101604052809291908181526020018280546110729061298b565b80156110bf5780601f10611094576101008083540402835291602001916110bf565b820191906000526020600020905b8154815290600101906020018083116110a257829003601f168201915b505050505081526020016003820160009054906101000a900473ffffffffffffffffffffffffffffffffffffffff1673ffffffffffffffffffffffffffffffffffffffff1673ffffffffffffffffffffffffffffffffffffffff1681526020016004820154815250509150505b919050565b6060826001600082905060006001905060e68251111561117d576040517fc96b3aa100000000000000000000000000000000000000000000000000000000815260040160405180910390fd5b600082510361118b57600090505b82156112365760005b825181101561123057600160009054906101000a900460f81b7effffffffffffffffffffffffffffffffffffffffffffffffffffffffffffff19168382815181106111e2576111e16129bc565b5b602001015160f81c60f81b7effffffffffffffffffffffffffffffffffffffffffffffffffffffffffffff19160361121d5760009150611230565b808061122890612aff565b915050611194565b50611364565b6000905060005b82518110156112d957600160009054906101000a900460f81b7effffffffffffffffffffffffffffffffffffffffffffffffffffffffffffff191683828151811061128b5761128a6129bc565b5b602001015160f81c60f81b7effffffffffffffffffffffffffffffffffffffffffffffffffffffffffffff1916036112c657600191506112d9565b80806112d190612aff565b91505061123d565b50600160009054906101000a900460f81b7effffffffffffffffffffffffffffffffffffffffffffffffffffffffffffff1916826001845161131b9190612dc5565b8151811061132c5761132b6129bc565b5b602001015160f81c60f81b7effffffffffffffffffffffffffffffffffffffffffffffffffffffffffffff19160361136357600090505b5b60005b82518110156114885760005b600080546113809061298b565b905081101561146e5760008181546113979061298b565b81106113a6576113a56129bc565b5b8154600116156113c55790600052602060002090602091828204019190065b9054901a7f0100000000000000000000000000000000000000000000000000000000000000027effffffffffffffffffffffffffffffffffffffffffffffffffffffffffffff19168483815181106114205761141f6129bc565b5b602001015160f81c60f81b7effffffffffffffffffffffffffffffffffffffffffffffffffffffffffffff19160361145b576000925061146e565b808061146690612aff565b915050611373565b50811561148857808061148090612aff565b915050611367565b50801561175a57600061149a87610e84565b90506000600460009054906101000a900473ffffffffffffffffffffffffffffffffffffffff1673ffffffffffffffffffffffffffffffffffffffff1663a36885466040518163ffffffff1660e01b81526004016000604051808303816000875af115801561150d573d6000803e3d6000fd5b505050506040513d6000823e3d601f19601f820116820180604052508101906115369190612e69565b905060006040518060a00160405280838152602001846000015181526020018b81526020013373ffffffffffffffffffffffffffffffffffffffff168152602001428152509050600281908060018154018082558091505060019003906000526020600020906005020160009091909190915060008201518160000190816115be9190612cf3565b5060208201518160010190816115d49190612cf3565b5060408201518160020190816115ea9190612cf3565b5060608201518160030160006101000a81548173ffffffffffffffffffffffffffffffffffffffff021916908373ffffffffffffffffffffffffffffffffffffffff1602179055506080820151816004015550506003600081548092919061165190612aff565b9190505550806007836040516116679190612945565b9081526020016040518091039020600082015181600001908161168a9190612cf3565b5060208201518160010190816116a09190612cf3565b5060408201518160020190816116b69190612cf3565b5060608201518160030160006101000a81548173ffffffffffffffffffffffffffffffffffffffff021916908373ffffffffffffffffffffffffffffffffffffffff1602179055506080820151816004015590505061171482610bf9565b5060006117248460000151610bf9565b9050600181604001516117379190612eb2565b81604001818152505061174e846000015182610e43565b8298505050505061178c565b6040517fb5d012b400000000000000000000000000000000000000000000000000000000815260040160405180910390fd5b5050505092915050565b61179e61210b565b600560003373ffffffffffffffffffffffffffffffffffffffff1673ffffffffffffffffffffffffffffffffffffffff1681526020019081526020016000206040518060a00160405290816000820180546117f89061298b565b80601f01602080910402602001604051908101604052809291908181526020018280546118249061298b565b80156118715780601f1061184657610100808354040283529160200191611871565b820191906000526020600020905b81548152906001019060200180831161185457829003601f168201915b5050505050815260200160018201805461188a9061298b565b80601f01602080910402602001604051908101604052809291908181526020018280546118b69061298b565b80156119035780601f106118d857610100808354040283529160200191611903565b820191906000526020600020905b8154815290600101906020018083116118e657829003601f168201915b5050505050815260200160028201805461191c9061298b565b80601f01602080910402602001604051908101604052809291908181526020018280546119489061298b565b80156119955780601f1061196a57610100808354040283529160200191611995565b820191906000526020600020905b81548152906001019060200180831161197857829003601f168201915b505050505081526020016003820160009054906101000a900473ffffffffffffffffffffffffffffffffffffffff1673ffffffffffffffffffffffffffffffffffffffff1673ffffffffffffffffffffffffffffffffffffffff1681526020016004820154815250509050600081600001515103611d92576000600460009054906101000a900473ffffffffffffffffffffffffffffffffffffffff1673ffffffffffffffffffffffffffffffffffffffff1663a36885466040518163ffffffff1660e01b81526004016000604051808303816000875af1158015611a7e573d6000803e3d6000fd5b505050506040513d6000823e3d601f19601f82011682018060405250810190611aa79190612e69565b90506040518060a001604052808281526020016040518060400160405280600481526020017f726f6f740000000000000000000000000000000000000000000000000000000081525081526020016040518060200160405280600081525081526020013373ffffffffffffffffffffffffffffffffffffffff16815260200142815250915060028290806001815401808255809150506001900390600052602060002090600502016000909190919091506000820151816000019081611b6d9190612cf3565b506020820151816001019081611b839190612cf3565b506040820151816002019081611b999190612cf3565b5060608201518160030160006101000a81548173ffffffffffffffffffffffffffffffffffffffff021916908373ffffffffffffffffffffffffffffffffffffffff16021790555060808201518160040155505060036000815480929190611c0090612aff565b919050555081600560003373ffffffffffffffffffffffffffffffffffffffff1673ffffffffffffffffffffffffffffffffffffffff1681526020019081526020016000206000820151816000019081611c5a9190612cf3565b506020820151816001019081611c709190612cf3565b506040820151816002019081611c869190612cf3565b5060608201518160030160006101000a81548173ffffffffffffffffffffffffffffffffffffffff021916908373ffffffffffffffffffffffffffffffffffffffff1602179055506080820151816004015590505081600782604051611cec9190612945565b90815260200160405180910390206000820151816000019081611d0f9190612cf3565b506020820151816001019081611d259190612cf3565b506040820151816002019081611d3b9190612cf3565b5060608201518160030160006101000a81548173ffffffffffffffffffffffffffffffffffffffff021916908373ffffffffffffffffffffffffffffffffffffffff16021790555060808201518160040155905050505b90565b611d9d6120e3565b600682604051611dad9190612945565b9081526020016040518091039020604051806080016040529081600082018054611dd69061298b565b80601f0160208091040260200160405190810160405280929190818152602001828054611e029061298b565b8015611e4f5780601f10611e2457610100808354040283529160200191611e4f565b820191906000526020600020905b815481529060010190602001808311611e3257829003601f168201915b5050505050815260200160018201548152602001600282015481526020016003820154815250509050919050565b600080600783604051611e909190612945565b90815260200160405180910390206040518060a0016040529081600082018054611eb99061298b565b80601f0160208091040260200160405190810160405280929190818152602001828054611ee59061298b565b8015611f325780601f10611f0757610100808354040283529160200191611f32565b820191906000526020600020905b815481529060010190602001808311611f1557829003601f168201915b50505050508152602001600182018054611f4b9061298b565b80601f0160208091040260200160405190810160405280929190818152602001828054611f779061298b565b8015611fc45780601f10611f9957610100808354040283529160200191611fc4565b820191906000526020600020905b815481529060010190602001808311611fa757829003601f168201915b50505050508152602001600282018054611fdd9061298b565b80601f01602080910402602001604051908101604052809291908181526020018280546120099061298b565b80156120565780601f1061202b57610100808354040283529160200191612056565b820191906000526020600020905b81548152906001019060200180831161203957829003601f168201915b505050505081526020016003820160009054906101000a900473ffffffffffffffffffffffffffffffffffffffff1673ffffffffffffffffffffffffffffffffffffffff1673ffffffffffffffffffffffffffffffffffffffff16815260200160048201548152505090506000816000015151036120d85760009150506120de565b60019150505b919050565b6040518060800160405280606081526020016000815260200160008152602001600081525090565b6040518060a00160405280606081526020016060815260200160608152602001600073ffffffffffffffffffffffffffffffffffffffff168152602001600081525090565b6000604051905090565b600080fd5b600080fd5b600080fd5b600080fd5b6000601f19601f8301169050919050565b7f4e487b7100000000000000000000000000000000000000000000000000000000600052604160045260246000fd5b6121b78261216e565b810181811067ffffffffffffffff821117156121d6576121d561217f565b5b80604052505050565b60006121e9612150565b90506121f582826121ae565b919050565b600067ffffffffffffffff8211156122155761221461217f565b5b61221e8261216e565b9050602081019050919050565b82818337600083830152505050565b600061224d612248846121fa565b6121df565b90508281526020810184848401111561226957612268612169565b5b61227484828561222b565b509392505050565b600082601f83011261229157612290612164565b5b81356122a184826020860161223a565b91505092915050565b6000602082840312156122c0576122bf61215a565b5b600082013567ffffffffffffffff8111156122de576122dd61215f565b5b6122ea8482850161227c565b91505092915050565b600081519050919050565b600082825260208201905092915050565b6000819050602082019050919050565b600081519050919050565b600082825260208201905092915050565b60005b8381101561235957808201518184015260208101905061233e565b83811115612368576000848401525b50505050565b60006123798261231f565b612383818561232a565b935061239381856020860161233b565b61239c8161216e565b840191505092915050565b600073ffffffffffffffffffffffffffffffffffffffff82169050919050565b60006123d2826123a7565b9050919050565b6123e2816123c7565b82525050565b6000819050919050565b6123fb816123e8565b82525050565b600060a083016000830151848203600086015261241e828261236e565b91505060208301518482036020860152612438828261236e565b91505060408301518482036040860152612452828261236e565b915050606083015161246760608601826123d9565b50608083015161247a60808601826123f2565b508091505092915050565b60006124918383612401565b905092915050565b6000602082019050919050565b60006124b1826122f3565b6124bb81856122fe565b9350836020820285016124cd8561230f565b8060005b8581101561250957848403895281516124ea8582612485565b94506124f583612499565b925060208a019950506001810190506124d1565b50829750879550505050505092915050565b60006080830160008301518482036000860152612538828261236e565b915050602083015161254d60208601826123f2565b50604083015161256060408601826123f2565b50606083015161257360608601826123f2565b508091505092915050565b6000604082019050818103600083015261259881856124a6565b905081810360208301526125ac818461251b565b90509392505050565b60008115159050919050565b6125ca816125b5565b82525050565b60006020820190506125e560008301846125c1565b92915050565b600060a0830160008301518482036000860152612608828261236e565b91505060208301518482036020860152612622828261236e565b9150506040830151848203604086015261263c828261236e565b915050606083015161265160608601826123d9565b50608083015161266460808601826123f2565b508091505092915050565b600060408201905061268460008301856125c1565b818103602083015261269681846125eb565b90509392505050565b600060208201905081810360008301526126b9818461251b565b905092915050565b600080fd5b600080fd5b6126d4816123e8565b81146126df57600080fd5b50565b6000813590506126f1816126cb565b92915050565b60006080828403121561270d5761270c6126c1565b5b61271760806121df565b9050600082013567ffffffffffffffff811115612737576127366126c6565b5b6127438482850161227c565b6000830152506020612757848285016126e2565b602083015250604061276b848285016126e2565b604083015250606061277f848285016126e2565b60608301525092915050565b600080604083850312156127a2576127a161215a565b5b600083013567ffffffffffffffff8111156127c0576127bf61215f565b5b6127cc8582860161227c565b925050602083013567ffffffffffffffff8111156127ed576127ec61215f565b5b6127f9858286016126f7565b9150509250929050565b6000602082019050818103600083015261281d81846125eb565b905092915050565b6000806040838503121561283c5761283b61215a565b5b600083013567ffffffffffffffff81111561285a5761285961215f565b5b6128668582860161227c565b925050602083013567ffffffffffffffff8111156128875761288661215f565b5b6128938582860161227c565b9150509250929050565b600082825260208201905092915050565b60006128b98261231f565b6128c3818561289d565b93506128d381856020860161233b565b6128dc8161216e565b840191505092915050565b6000602082019050818103600083015261290181846128ae565b905092915050565b600081905092915050565b600061291f8261231f565b6129298185612909565b935061293981856020860161233b565b80840191505092915050565b60006129518284612914565b915081905092915050565b7f4e487b7100000000000000000000000000000000000000000000000000000000600052602260045260246000fd5b600060028204905060018216806129a357607f821691505b6020821081036129b6576129b561295c565b5b50919050565b7f4e487b7100000000000000000000000000000000000000000000000000000000600052603260045260246000fd5b600081519050919050565b600082825260208201905092915050565b6000612a12826129eb565b612a1c81856129f6565b9350612a2c81856020860161233b565b612a358161216e565b840191505092915050565b60006040820190508181036000830152612a5a8185612a07565b90508181036020830152612a6e8184612a07565b90509392505050565b612a80816125b5565b8114612a8b57600080fd5b50565b600081519050612a9d81612a77565b92915050565b600060208284031215612ab957612ab861215a565b5b6000612ac784828501612a8e565b91505092915050565b7f4e487b7100000000000000000000000000000000000000000000000000000000600052601160045260246000fd5b6000612b0a826123e8565b91507fffffffffffffffffffffffffffffffffffffffffffffffffffffffffffffffff8203612b3c57612b3b612ad0565b5b600182019050919050565b60008190508160005260206000209050919050565b60006020601f8301049050919050565b600082821b905092915050565b600060088302612ba97fffffffffffffffffffffffffffffffffffffffffffffffffffffffffffffffff82612b6c565b612bb38683612b6c565b95508019841693508086168417925050509392505050565b6000819050919050565b6000612bf0612beb612be6846123e8565b612bcb565b6123e8565b9050919050565b6000819050919050565b612c0a83612bd5565b612c1e612c1682612bf7565b848454612b79565b825550505050565b600090565b612c33612c26565b612c3e818484612c01565b505050565b5b81811015612c6257612c57600082612c2b565b600181019050612c44565b5050565b601f821115612ca757612c7881612b47565b612c8184612b5c565b81016020851015612c90578190505b612ca4612c9c85612b5c565b830182612c43565b50505b505050565b600082821c905092915050565b6000612cca60001984600802612cac565b1980831691505092915050565b6000612ce38383612cb9565b9150826002028217905092915050565b612cfc8261231f565b67ffffffffffffffff811115612d1557612d1461217f565b5b612d1f825461298b565b612d2a828285612c66565b600060209050601f831160018114612d5d5760008415612d4b578287015190505b612d558582612cd7565b865550612dbd565b601f198416612d6b86612b47565b60005b82811015612d9357848901518255600182019150602085019450602081019050612d6e565b86831015612db05784890151612dac601f891682612cb9565b8355505b6001600288020188555050505b505050505050565b6000612dd0826123e8565b9150612ddb836123e8565b925082821015612dee57612ded612ad0565b5b828203905092915050565b6000612e0c612e07846121fa565b6121df565b905082815260208101848484011115612e2857612e27612169565b5b612e3384828561233b565b509392505050565b600082601f830112612e5057612e4f612164565b5b8151612e60848260208601612df9565b91505092915050565b600060208284031215612e7f57612e7e61215a565b5b600082015167ffffffffffffffff811115612e9d57612e9c61215f565b5b612ea984828501612e3b565b91505092915050565b6000612ebd826123e8565b9150612ec8836123e8565b9250827fffffffffffffffffffffffffffffffffffffffffffffffffffffffffffffffff03821115612efd57612efc612ad0565b5b82820190509291505056fea26469706673582212207672a2d5b0718ad43b6859489652ffe787c4e5ca19746f958a825f81fff071a564736f6c634300080f0033",
  "immutableReferences": {},
  "source": "// SPDX-License-Identifier: MIT\npragma solidity ^0.8;\nimport \"@openzeppelin/contracts/utils/Strings.sol\";\nimport {DirectoryFrame} from \"../Entities/DirectoryFrame.sol\";\nimport {DirectoryInfoFrame} from \"../Entities/DirectoryInfoFrame.sol\";\nimport \"./BaseNameDeclaration.sol\";\nimport \"../BusinessHelper/Infrastructure.sol\";\nimport {UniqueIdGenerator} from \"../BusinessHelper/UniqueIdGenerator.sol\";\n\ncontract DirectoryRepository is BaseNameDeclaration {\n    //data of files\n    DirectoryFrame[] private data;\n    uint256 private count = 0;\n    UniqueIdGenerator private _uniqueIdGenerator;\n    //get root by sender\n    mapping(address => DirectoryFrame) private rootsMap;\n    //get {DirectoryInfo} by directory id\n    mapping(string => DirectoryInfoFrame) private directoryInfoListMap;\n    //get {DirectoryFrame} by directory id\n    mapping(string => DirectoryFrame) private directoriesMap;\n\n    constructor(UniqueIdGenerator uniqueIdGenerator) {\n        _uniqueIdGenerator = uniqueIdGenerator;\n    }\n\n    function exist(string memory id) internal view returns (bool) {\n        DirectoryFrame memory directory = directoriesMap[id];\n        if (bytes(directory.Id).length == 0) {\n            return false;\n        }\n        return true;\n    }\n\n    function existRoot() public view returns (bool) {\n        DirectoryFrame memory root = rootsMap[msg.sender];\n        if (bytes(root.Id).length == 0) {\n            return false;\n        }\n        return true;\n    }\n\n    function add(\n        string memory name,\n        string memory parentId\n    ) public payable isAllowedName(name, true) returns (string memory) {\n        DirectoryFrame memory parent = getDirectoryOrRoot(parentId);\n        string memory id = _uniqueIdGenerator.uniqId();\n        DirectoryFrame memory newDirectory = DirectoryFrame(\n            id,\n            parent.Id,\n            name,\n            msg.sender,\n            block.timestamp\n        );\n        data.push(newDirectory);\n        count++;\n        directoriesMap[id] = newDirectory;\n        getOrCreateDirectoryInfo(id);\n        DirectoryInfoFrame\n            memory directoryInfoParent = getOrCreateDirectoryInfo(parent.Id);\n        directoryInfoParent.DirectoriesCount =\n            directoryInfoParent.DirectoriesCount +\n            1;\n        updateDirectoryInfo(parent.Id, directoryInfoParent);\n        return id;\n    }\n\n    function updateDirectoryInfo(\n        string memory id,\n        DirectoryInfoFrame memory newModel\n    ) public payable {\n        DirectoryInfoFrame storage directoryInfoParent = directoryInfoListMap[\n            id\n        ];\n        directoryInfoParent.DirectoriesCount = newModel.DirectoriesCount;\n        directoryInfoParent.FilesCount = newModel.FilesCount;\n    }\n\n    function getSubDirectories(\n        string memory directoryId\n    ) public view returns (DirectoryFrame[] memory, DirectoryInfoFrame memory) {\n        if (!exist(directoryId)) {\n            revert notfound();\n        }\n        DirectoryInfoFrame memory directoryInfo = directoryInfoListMap[\n            directoryId\n        ];\n        DirectoryFrame[] memory result = new DirectoryFrame[](\n            directoryInfo.DirectoriesCount\n        );\n        uint256 j = 0;\n        bytes memory b_directoryId = bytes(directoryId);\n        for (uint256 i = 0; i < count; i++) {\n            DirectoryFrame memory item = data[i];\n            bytes memory b_parentId = bytes(item.ParentId);\n            if (Infrastructure.bytesEquals(b_directoryId, b_parentId)) {\n                result[j++] = item;\n            }\n        }\n        return (result, directoryInfo);\n    }\n\n    function getRoot()\n        public\n        view\n        returns (bool isNull, DirectoryFrame memory root)\n    {\n        root = rootsMap[msg.sender];\n        if (bytes(root.Id).length == 0) {\n            isNull = true;\n        } else {\n            isNull = false;\n        }\n        return (isNull, root);\n    }\n\n    function getDirectoryInfo(\n        string memory id\n    ) public view returns (DirectoryInfoFrame memory directoryInfo) {\n        return (directoryInfoListMap[id]);\n    }\n\n    //get directiry and if it's don't have id return root\n    function getDirectoryOrRoot(\n        string memory id\n    ) public returns (DirectoryFrame memory) {\n        bytes memory b_parentId = bytes(id);\n        if (b_parentId.length == 0) {\n            return getOrCreateRoot();\n        } else if (!exist(id)) {\n            revert notfound();\n        } else {\n            return directoriesMap[id];\n        }\n    }\n\n    //create {DirectoryInfo} if not exist then return\n    function getOrCreateDirectoryInfo(\n        string memory id\n    ) public payable returns (DirectoryInfoFrame memory directoryInfo) {\n        directoryInfo = directoryInfoListMap[id];\n        if (bytes(directoryInfo.DirectoryId).length == 0) {\n            directoryInfoListMap[id] = DirectoryInfoFrame(id, 0, 0, 0);\n            directoryInfo = directoryInfoListMap[id];\n        }\n        return (directoryInfo);\n    }\n\n    //create {DirectoryFrame} if not exist then return\n    function getOrCreateRoot()\n        public\n        payable\n        returns (DirectoryFrame memory root)\n    {\n        root = rootsMap[msg.sender];\n        if (bytes(root.Id).length == 0) {\n            string memory rootId = _uniqueIdGenerator.uniqId();\n            root = DirectoryFrame(\n                rootId,\n                \"root\",\n                \"\",\n                msg.sender,\n                block.timestamp\n            );\n            data.push(root);\n            count++;\n            rootsMap[msg.sender] = root;\n            directoriesMap[rootId] = root;\n        }\n        return (root);\n    }\n}\n",
  "sourcePath": "C:\\Amir\\X7Opsilon\\smart_contract\\contracts\\Repositories\\DirectoryRepository.sol",
  "compiler": {
    "name": "solc",
    "version": "0.8.15+commit.e14f2714.Emscripten.clang"
  },
  "schemaVersion": "3.4.14",
  "updatedAt": "2023-07-25T19:58:56.554Z",
  "devdoc": {
    "kind": "dev",
    "methods": {},
    "version": 1
  },
  "userdoc": {
    "kind": "user",
    "methods": {},
    "version": 1
  }
}