{
  "contractName": "DirectoryRepository",
  "abi": [
    {
      "inputs": [
        {
          "internalType": "contract UniqueIdGenerator",
          "name": "uniqueIdGenerator",
          "type": "address"
        }
      ],
      "stateMutability": "nonpayable",
      "type": "constructor"
    },
    {
      "inputs": [],
      "name": "notfound",
      "type": "error"
    },
    {
      "inputs": [],
      "name": "notfoundDirectory",
      "type": "error"
    },
    {
      "inputs": [],
      "name": "unsupportedName",
      "type": "error"
    },
    {
      "inputs": [],
      "name": "unsupportedSize",
      "type": "error"
    },
    {
      "inputs": [
        {
          "internalType": "address",
          "name": "user",
          "type": "address"
        },
        {
          "internalType": "string",
          "name": "name",
          "type": "string"
        },
        {
          "internalType": "string",
          "name": "parentId",
          "type": "string"
        }
      ],
      "name": "add",
      "outputs": [
        {
          "internalType": "string",
          "name": "",
          "type": "string"
        }
      ],
      "stateMutability": "payable",
      "type": "function"
    },
    {
      "inputs": [
        {
          "internalType": "string",
          "name": "id",
          "type": "string"
        },
        {
          "components": [
            {
              "internalType": "string",
              "name": "DirectoryId",
              "type": "string"
            },
            {
              "internalType": "uint256",
              "name": "FilesCount",
              "type": "uint256"
            },
            {
              "internalType": "uint256",
              "name": "DirectoriesCount",
              "type": "uint256"
            },
            {
              "internalType": "uint256",
              "name": "Size",
              "type": "uint256"
            }
          ],
          "internalType": "struct DirectoryInfoFrame",
          "name": "newModel",
          "type": "tuple"
        }
      ],
      "name": "updateDirectoryInfo",
      "outputs": [],
      "stateMutability": "payable",
      "type": "function"
    },
    {
      "inputs": [
        {
          "internalType": "string",
          "name": "directoryId",
          "type": "string"
        }
      ],
      "name": "getSubDirectories",
      "outputs": [
        {
          "components": [
            {
              "internalType": "string",
              "name": "Id",
              "type": "string"
            },
            {
              "internalType": "string",
              "name": "ParentId",
              "type": "string"
            },
            {
              "internalType": "string",
              "name": "Name",
              "type": "string"
            },
            {
              "internalType": "address",
              "name": "Creator",
              "type": "address"
            },
            {
              "internalType": "uint256",
              "name": "DateCreated",
              "type": "uint256"
            }
          ],
          "internalType": "struct DirectoryFrame[]",
          "name": "",
          "type": "tuple[]"
        },
        {
          "components": [
            {
              "internalType": "string",
              "name": "DirectoryId",
              "type": "string"
            },
            {
              "internalType": "uint256",
              "name": "FilesCount",
              "type": "uint256"
            },
            {
              "internalType": "uint256",
              "name": "DirectoriesCount",
              "type": "uint256"
            },
            {
              "internalType": "uint256",
              "name": "Size",
              "type": "uint256"
            }
          ],
          "internalType": "struct DirectoryInfoFrame",
          "name": "",
          "type": "tuple"
        }
      ],
      "stateMutability": "view",
      "type": "function"
    },
    {
      "inputs": [
        {
          "internalType": "address",
          "name": "user",
          "type": "address"
        }
      ],
      "name": "getRoot",
      "outputs": [
        {
          "internalType": "bool",
          "name": "isNull",
          "type": "bool"
        },
        {
          "components": [
            {
              "internalType": "string",
              "name": "Id",
              "type": "string"
            },
            {
              "internalType": "string",
              "name": "ParentId",
              "type": "string"
            },
            {
              "internalType": "string",
              "name": "Name",
              "type": "string"
            },
            {
              "internalType": "address",
              "name": "Creator",
              "type": "address"
            },
            {
              "internalType": "uint256",
              "name": "DateCreated",
              "type": "uint256"
            }
          ],
          "internalType": "struct DirectoryFrame",
          "name": "root",
          "type": "tuple"
        }
      ],
      "stateMutability": "view",
      "type": "function"
    },
    {
      "inputs": [
        {
          "internalType": "string",
          "name": "id",
          "type": "string"
        }
      ],
      "name": "getDirectoryInfo",
      "outputs": [
        {
          "internalType": "bool",
          "name": "isNull",
          "type": "bool"
        },
        {
          "components": [
            {
              "internalType": "string",
              "name": "DirectoryId",
              "type": "string"
            },
            {
              "internalType": "uint256",
              "name": "FilesCount",
              "type": "uint256"
            },
            {
              "internalType": "uint256",
              "name": "DirectoriesCount",
              "type": "uint256"
            },
            {
              "internalType": "uint256",
              "name": "Size",
              "type": "uint256"
            }
          ],
          "internalType": "struct DirectoryInfoFrame",
          "name": "directoryInfo",
          "type": "tuple"
        }
      ],
      "stateMutability": "view",
      "type": "function"
    },
    {
      "inputs": [
        {
          "internalType": "address",
          "name": "user",
          "type": "address"
        },
        {
          "internalType": "string",
          "name": "id",
          "type": "string"
        }
      ],
      "name": "getDirectoryOrRoot",
      "outputs": [
        {
          "components": [
            {
              "internalType": "string",
              "name": "Id",
              "type": "string"
            },
            {
              "internalType": "string",
              "name": "ParentId",
              "type": "string"
            },
            {
              "internalType": "string",
              "name": "Name",
              "type": "string"
            },
            {
              "internalType": "address",
              "name": "Creator",
              "type": "address"
            },
            {
              "internalType": "uint256",
              "name": "DateCreated",
              "type": "uint256"
            }
          ],
          "internalType": "struct DirectoryFrame",
          "name": "",
          "type": "tuple"
        }
      ],
      "stateMutability": "nonpayable",
      "type": "function"
    },
    {
      "inputs": [
        {
          "internalType": "string",
          "name": "id",
          "type": "string"
        }
      ],
      "name": "getOrCreateDirectoryInfo",
      "outputs": [
        {
          "components": [
            {
              "internalType": "string",
              "name": "DirectoryId",
              "type": "string"
            },
            {
              "internalType": "uint256",
              "name": "FilesCount",
              "type": "uint256"
            },
            {
              "internalType": "uint256",
              "name": "DirectoriesCount",
              "type": "uint256"
            },
            {
              "internalType": "uint256",
              "name": "Size",
              "type": "uint256"
            }
          ],
          "internalType": "struct DirectoryInfoFrame",
          "name": "",
          "type": "tuple"
        }
      ],
      "stateMutability": "payable",
      "type": "function"
    },
    {
      "inputs": [
        {
          "internalType": "address",
          "name": "user",
          "type": "address"
        }
      ],
      "name": "getOrCreateRoot",
      "outputs": [
        {
          "components": [
            {
              "internalType": "string",
              "name": "Id",
              "type": "string"
            },
            {
              "internalType": "string",
              "name": "ParentId",
              "type": "string"
            },
            {
              "internalType": "string",
              "name": "Name",
              "type": "string"
            },
            {
              "internalType": "address",
              "name": "Creator",
              "type": "address"
            },
            {
              "internalType": "uint256",
              "name": "DateCreated",
              "type": "uint256"
            }
          ],
          "internalType": "struct DirectoryFrame",
          "name": "",
          "type": "tuple"
        }
      ],
      "stateMutability": "payable",
      "type": "function"
    }
  ],
  "bytecode": "0x60806040526040518060400160405280600981526020017f225c2f5d3a3f3c3e7c0000000000000000000000000000000000000000000000815250600090816200004a919062000380565b507f2e00000000000000000000000000000000000000000000000000000000000000600160006101000a81548160ff021916908360f81c021790555060006003553480156200009857600080fd5b5060405162002d8738038062002d878339818101604052810190620000be9190620004e5565b80600460006101000a81548173ffffffffffffffffffffffffffffffffffffffff021916908373ffffffffffffffffffffffffffffffffffffffff1602179055505062000517565b600081519050919050565b7f4e487b7100000000000000000000000000000000000000000000000000000000600052604160045260246000fd5b7f4e487b7100000000000000000000000000000000000000000000000000000000600052602260045260246000fd5b600060028204905060018216806200018857607f821691505b6020821081036200019e576200019d62000140565b5b50919050565b60008190508160005260206000209050919050565b60006020601f8301049050919050565b600082821b905092915050565b600060088302620002087fffffffffffffffffffffffffffffffffffffffffffffffffffffffffffffffff82620001c9565b620002148683620001c9565b95508019841693508086168417925050509392505050565b6000819050919050565b6000819050919050565b6000620002616200025b62000255846200022c565b62000236565b6200022c565b9050919050565b6000819050919050565b6200027d8362000240565b620002956200028c8262000268565b848454620001d6565b825550505050565b600090565b620002ac6200029d565b620002b981848462000272565b505050565b5b81811015620002e157620002d5600082620002a2565b600181019050620002bf565b5050565b601f8211156200033057620002fa81620001a4565b6200030584620001b9565b8101602085101562000315578190505b6200032d6200032485620001b9565b830182620002be565b50505b505050565b600082821c905092915050565b6000620003556000198460080262000335565b1980831691505092915050565b600062000370838362000342565b9150826002028217905092915050565b6200038b8262000106565b67ffffffffffffffff811115620003a757620003a662000111565b5b620003b382546200016f565b620003c0828285620002e5565b600060209050601f831160018114620003f85760008415620003e3578287015190505b620003ef858262000362565b8655506200045f565b601f1984166200040886620001a4565b60005b8281101562000432578489015182556001820191506020850194506020810190506200040b565b868310156200045257848901516200044e601f89168262000342565b8355505b6001600288020188555050505b505050505050565b600080fd5b600073ffffffffffffffffffffffffffffffffffffffff82169050919050565b600062000499826200046c565b9050919050565b6000620004ad826200048c565b9050919050565b620004bf81620004a0565b8114620004cb57600080fd5b50565b600081519050620004df81620004b4565b92915050565b600060208284031215620004fe57620004fd62000467565b5b60006200050e84828501620004ce565b91505092915050565b61286080620005276000396000f3fe60806040526004361061007b5760003560e01c8063679c7ccb1161004e578063679c7ccb1461015c578063929ad6c21461018c578063976c1255146101c9578063f0c76ccc146101e55761007b565b806304c9416914610080578063079cf76e146100be57806346bc7fd9146100fc57806349b1cea81461012c575b600080fd5b34801561008c57600080fd5b506100a760048036038101906100a29190611aef565b610223565b6040516100b5929190611dc3565b60405180910390f35b3480156100ca57600080fd5b506100e560048036038101906100e09190611e26565b61064c565b6040516100f3929190611ef2565b60405180910390f35b61011660048036038101906101119190611f22565b61091a565b6040516101239190611ff7565b60405180910390f35b61014660048036038101906101419190611e26565b610f81565b6040516101539190612019565b60405180910390f35b61017660048036038101906101719190611aef565b61132e565b604051610183919061203b565b60405180910390f35b34801561019857600080fd5b506101b360048036038101906101ae919061205d565b6113d3565b6040516101c09190612019565b60405180910390f35b6101e360048036038101906101de9190612183565b61144f565b005b3480156101f157600080fd5b5061020c60048036038101906102079190611aef565b611490565b60405161021a9291906121fb565b60405180910390f35b606061022d611928565b600061023884611624565b5090508015610273576040517f5982e5ed00000000000000000000000000000000000000000000000000000000815260040160405180910390fd5b60008061027f86611490565b9150915081156102bb576040517f52be588100000000000000000000000000000000000000000000000000000000815260040160405180910390fd5b6000816040015167ffffffffffffffff8111156102db576102da6119c4565b5b60405190808252806020026020018201604052801561031457816020015b610301611950565b8152602001906001900390816102f95790505b50905060008088905060005b60035481101561063a576000600282815481106103405761033f61222b565b5b90600052602060002090600502016040518060a001604052908160008201805461036990612289565b80601f016020809104026020016040519081016040528092919081815260200182805461039590612289565b80156103e25780601f106103b7576101008083540402835291602001916103e2565b820191906000526020600020905b8154815290600101906020018083116103c557829003601f168201915b505050505081526020016001820180546103fb90612289565b80601f016020809104026020016040519081016040528092919081815260200182805461042790612289565b80156104745780601f1061044957610100808354040283529160200191610474565b820191906000526020600020905b81548152906001019060200180831161045757829003601f168201915b5050505050815260200160028201805461048d90612289565b80601f01602080910402602001604051908101604052809291908181526020018280546104b990612289565b80156105065780601f106104db57610100808354040283529160200191610506565b820191906000526020600020905b8154815290600101906020018083116104e957829003601f168201915b505050505081526020016003820160009054906101000a900473ffffffffffffffffffffffffffffffffffffffff1673ffffffffffffffffffffffffffffffffffffffff1673ffffffffffffffffffffffffffffffffffffffff168152602001600482015481525050905060008160200151905073__Infrastructure________________________637da4831785836040518363ffffffff1660e01b81526004016105b392919061230f565b602060405180830381865af41580156105d0573d6000803e3d6000fd5b505050506040513d601f19601f820116820180604052508101906105f49190612372565b156106255781868680610606906123ce565b9750815181106106195761061861222b565b5b60200260200101819052505b50508080610632906123ce565b915050610320565b50828497509750505050505050915091565b6000610656611950565b6000600560008573ffffffffffffffffffffffffffffffffffffffff1673ffffffffffffffffffffffffffffffffffffffff1681526020019081526020016000206040518060a00160405290816000820180546106b290612289565b80601f01602080910402602001604051908101604052809291908181526020018280546106de90612289565b801561072b5780601f106107005761010080835404028352916020019161072b565b820191906000526020600020905b81548152906001019060200180831161070e57829003601f168201915b5050505050815260200160018201805461074490612289565b80601f016020809104026020016040519081016040528092919081815260200182805461077090612289565b80156107bd5780601f10610792576101008083540402835291602001916107bd565b820191906000526020600020905b8154815290600101906020018083116107a057829003601f168201915b505050505081526020016002820180546107d690612289565b80601f016020809104026020016040519081016040528092919081815260200182805461080290612289565b801561084f5780601f106108245761010080835404028352916020019161084f565b820191906000526020600020905b81548152906001019060200180831161083257829003601f168201915b505050505081526020016003820160009054906101000a900473ffffffffffffffffffffffffffffffffffffffff1673ffffffffffffffffffffffffffffffffffffffff1673ffffffffffffffffffffffffffffffffffffffff1681526020016004820154815250509050600081600001515114806108fe57508373ffffffffffffffffffffffffffffffffffffffff16816060015173ffffffffffffffffffffffffffffffffffffffff1614155b1561090c5760019250610914565b809150600092505b50915091565b6060826001600082905060006001905060e682511115610966576040517fc96b3aa100000000000000000000000000000000000000000000000000000000815260040160405180910390fd5b600082510361097457600090505b8215610a1f5760005b8251811015610a1957600160009054906101000a900460f81b7effffffffffffffffffffffffffffffffffffffffffffffffffffffffffffff19168382815181106109cb576109ca61222b565b5b602001015160f81c60f81b7effffffffffffffffffffffffffffffffffffffffffffffffffffffffffffff191603610a065760009150610a19565b8080610a11906123ce565b91505061097d565b50610b4d565b6000905060005b8251811015610ac257600160009054906101000a900460f81b7effffffffffffffffffffffffffffffffffffffffffffffffffffffffffffff1916838281518110610a7457610a7361222b565b5b602001015160f81c60f81b7effffffffffffffffffffffffffffffffffffffffffffffffffffffffffffff191603610aaf5760019150610ac2565b8080610aba906123ce565b915050610a26565b50600160009054906101000a900460f81b7effffffffffffffffffffffffffffffffffffffffffffffffffffffffffffff19168260018451610b049190612416565b81518110610b1557610b1461222b565b5b602001015160f81c60f81b7effffffffffffffffffffffffffffffffffffffffffffffffffffffffffffff191603610b4c57600090505b5b60005b8251811015610c715760005b60008054610b6990612289565b9050811015610c57576000818154610b8090612289565b8110610b8f57610b8e61222b565b5b815460011615610bae5790600052602060002090602091828204019190065b9054901a7f0100000000000000000000000000000000000000000000000000000000000000027effffffffffffffffffffffffffffffffffffffffffffffffffffffffffffff1916848381518110610c0957610c0861222b565b5b602001015160f81c60f81b7effffffffffffffffffffffffffffffffffffffffffffffffffffffffffffff191603610c445760009250610c57565b8080610c4f906123ce565b915050610b5c565b508115610c71578080610c69906123ce565b915050610b50565b508015610f44576000610c8489886113d3565b90506000600460009054906101000a900473ffffffffffffffffffffffffffffffffffffffff1673ffffffffffffffffffffffffffffffffffffffff1663a36885466040518163ffffffff1660e01b81526004016000604051808303816000875af1158015610cf7573d6000803e3d6000fd5b505050506040513d6000823e3d601f19601f82011682018060405250810190610d2091906124ba565b905060006040518060a00160405280838152602001846000015181526020018b81526020018c73ffffffffffffffffffffffffffffffffffffffff16815260200142815250905060028190806001815401808255809150506001900390600052602060002090600502016000909190919091506000820151816000019081610da891906126af565b506020820151816001019081610dbe91906126af565b506040820151816002019081610dd491906126af565b5060608201518160030160006101000a81548173ffffffffffffffffffffffffffffffffffffffff021916908373ffffffffffffffffffffffffffffffffffffffff16021790555060808201518160040155505060036000815480929190610e3b906123ce565b919050555080600783604051610e5191906127bd565b90815260200160405180910390206000820151816000019081610e7491906126af565b506020820151816001019081610e8a91906126af565b506040820151816002019081610ea091906126af565b5060608201518160030160006101000a81548173ffffffffffffffffffffffffffffffffffffffff021916908373ffffffffffffffffffffffffffffffffffffffff16021790555060808201518160040155905050610efe8261132e565b506000610f0e846000015161132e565b905060018160400151610f2191906127d4565b816040018181525050610f3884600001518261144f565b82985050505050610f76565b6040517fb5d012b400000000000000000000000000000000000000000000000000000000815260040160405180910390fd5b505050509392505050565b610f89611950565b600080610f958461064c565b915091508115611324576000600460009054906101000a900473ffffffffffffffffffffffffffffffffffffffff1673ffffffffffffffffffffffffffffffffffffffff1663a36885466040518163ffffffff1660e01b81526004016000604051808303816000875af1158015611010573d6000803e3d6000fd5b505050506040513d6000823e3d601f19601f8201168201806040525081019061103991906124ba565b90506040518060a001604052808281526020016040518060400160405280600481526020017f726f6f740000000000000000000000000000000000000000000000000000000081525081526020016040518060200160405280600081525081526020018673ffffffffffffffffffffffffffffffffffffffff168152602001428152509150600282908060018154018082558091505060019003906000526020600020906005020160009091909190915060008201518160000190816110ff91906126af565b50602082015181600101908161111591906126af565b50604082015181600201908161112b91906126af565b5060608201518160030160006101000a81548173ffffffffffffffffffffffffffffffffffffffff021916908373ffffffffffffffffffffffffffffffffffffffff16021790555060808201518160040155505060036000815480929190611192906123ce565b919050555081600560008773ffffffffffffffffffffffffffffffffffffffff1673ffffffffffffffffffffffffffffffffffffffff16815260200190815260200160002060008201518160000190816111ec91906126af565b50602082015181600101908161120291906126af565b50604082015181600201908161121891906126af565b5060608201518160030160006101000a81548173ffffffffffffffffffffffffffffffffffffffff021916908373ffffffffffffffffffffffffffffffffffffffff160217905550608082015181600401559050508160078260405161127e91906127bd565b908152602001604051809103902060008201518160000190816112a191906126af565b5060208201518160010190816112b791906126af565b5060408201518160020190816112cd91906126af565b5060608201518160030160006101000a81548173ffffffffffffffffffffffffffffffffffffffff021916908373ffffffffffffffffffffffffffffffffffffffff16021790555060808201518160040155905050505b8092505050919050565b611336611928565b60008061134284611490565b9150915081156113c95760405180608001604052808581526020016000815260200160008152602001600081525090508060068560405161138391906127bd565b908152602001604051809103902060008201518160000190816113a691906126af565b506020820151816001015560408201518160020155606082015181600301559050505b8092505050919050565b6113db611950565b600082905060008151036113fa576113f284610f81565b915050611449565b60008061140685611624565b915091508115611442576040517f5982e5ed00000000000000000000000000000000000000000000000000000000815260040160405180910390fd5b8093505050505b92915050565b600060068360405161146191906127bd565b908152602001604051809103902090508160400151816002018190555081602001518160010181905550505050565b600061149a611928565b60006006846040516114ac91906127bd565b90815260200160405180910390206040518060800160405290816000820180546114d590612289565b80601f016020809104026020016040519081016040528092919081815260200182805461150190612289565b801561154e5780601f106115235761010080835404028352916020019161154e565b820191906000526020600020905b81548152906001019060200180831161153157829003601f168201915b5050505050815260200160018201548152602001600282015481526020016003820154815250509050600081600001519050600081511480611607575073__Infrastructure________________________637da4831782876040518363ffffffff1660e01b81526004016115c492919061230f565b602060405180830381865af41580156115e1573d6000803e3d6000fd5b505050506040513d601f19601f820116820180604052508101906116059190612372565b155b15611615576001935061161d565b819250600093505b5050915091565b600061162e611950565b600060078460405161164091906127bd565b90815260200160405180910390206040518060a001604052908160008201805461166990612289565b80601f016020809104026020016040519081016040528092919081815260200182805461169590612289565b80156116e25780601f106116b7576101008083540402835291602001916116e2565b820191906000526020600020905b8154815290600101906020018083116116c557829003601f168201915b505050505081526020016001820180546116fb90612289565b80601f016020809104026020016040519081016040528092919081815260200182805461172790612289565b80156117745780601f1061174957610100808354040283529160200191611774565b820191906000526020600020905b81548152906001019060200180831161175757829003601f168201915b5050505050815260200160028201805461178d90612289565b80601f01602080910402602001604051908101604052809291908181526020018280546117b990612289565b80156118065780601f106117db57610100808354040283529160200191611806565b820191906000526020600020905b8154815290600101906020018083116117e957829003601f168201915b505050505081526020016003820160009054906101000a900473ffffffffffffffffffffffffffffffffffffffff1673ffffffffffffffffffffffffffffffffffffffff1673ffffffffffffffffffffffffffffffffffffffff168152602001600482015481525050905060008160000151905060008260000151905060008151148061190a575073__Infrastructure________________________637da4831782846040518363ffffffff1660e01b81526004016118c792919061230f565b602060405180830381865af41580156118e4573d6000803e3d6000fd5b505050506040513d601f19601f820116820180604052508101906119089190612372565b155b156119185760019450611920565b829350600094505b505050915091565b6040518060800160405280606081526020016000815260200160008152602001600081525090565b6040518060a00160405280606081526020016060815260200160608152602001600073ffffffffffffffffffffffffffffffffffffffff168152602001600081525090565b6000604051905090565b600080fd5b600080fd5b600080fd5b600080fd5b6000601f19601f8301169050919050565b7f4e487b7100000000000000000000000000000000000000000000000000000000600052604160045260246000fd5b6119fc826119b3565b810181811067ffffffffffffffff82111715611a1b57611a1a6119c4565b5b80604052505050565b6000611a2e611995565b9050611a3a82826119f3565b919050565b600067ffffffffffffffff821115611a5a57611a596119c4565b5b611a63826119b3565b9050602081019050919050565b82818337600083830152505050565b6000611a92611a8d84611a3f565b611a24565b905082815260208101848484011115611aae57611aad6119ae565b5b611ab9848285611a70565b509392505050565b600082601f830112611ad657611ad56119a9565b5b8135611ae6848260208601611a7f565b91505092915050565b600060208284031215611b0557611b0461199f565b5b600082013567ffffffffffffffff811115611b2357611b226119a4565b5b611b2f84828501611ac1565b91505092915050565b600081519050919050565b600082825260208201905092915050565b6000819050602082019050919050565b600081519050919050565b600082825260208201905092915050565b60005b83811015611b9e578082015181840152602081019050611b83565b83811115611bad576000848401525b50505050565b6000611bbe82611b64565b611bc88185611b6f565b9350611bd8818560208601611b80565b611be1816119b3565b840191505092915050565b600073ffffffffffffffffffffffffffffffffffffffff82169050919050565b6000611c1782611bec565b9050919050565b611c2781611c0c565b82525050565b6000819050919050565b611c4081611c2d565b82525050565b600060a0830160008301518482036000860152611c638282611bb3565b91505060208301518482036020860152611c7d8282611bb3565b91505060408301518482036040860152611c978282611bb3565b9150506060830151611cac6060860182611c1e565b506080830151611cbf6080860182611c37565b508091505092915050565b6000611cd68383611c46565b905092915050565b6000602082019050919050565b6000611cf682611b38565b611d008185611b43565b935083602082028501611d1285611b54565b8060005b85811015611d4e5784840389528151611d2f8582611cca565b9450611d3a83611cde565b925060208a01995050600181019050611d16565b50829750879550505050505092915050565b60006080830160008301518482036000860152611d7d8282611bb3565b9150506020830151611d926020860182611c37565b506040830151611da56040860182611c37565b506060830151611db86060860182611c37565b508091505092915050565b60006040820190508181036000830152611ddd8185611ceb565b90508181036020830152611df18184611d60565b90509392505050565b611e0381611c0c565b8114611e0e57600080fd5b50565b600081359050611e2081611dfa565b92915050565b600060208284031215611e3c57611e3b61199f565b5b6000611e4a84828501611e11565b91505092915050565b60008115159050919050565b611e6881611e53565b82525050565b600060a0830160008301518482036000860152611e8b8282611bb3565b91505060208301518482036020860152611ea58282611bb3565b91505060408301518482036040860152611ebf8282611bb3565b9150506060830151611ed46060860182611c1e565b506080830151611ee76080860182611c37565b508091505092915050565b6000604082019050611f076000830185611e5f565b8181036020830152611f198184611e6e565b90509392505050565b600080600060608486031215611f3b57611f3a61199f565b5b6000611f4986828701611e11565b935050602084013567ffffffffffffffff811115611f6a57611f696119a4565b5b611f7686828701611ac1565b925050604084013567ffffffffffffffff811115611f9757611f966119a4565b5b611fa386828701611ac1565b9150509250925092565b600082825260208201905092915050565b6000611fc982611b64565b611fd38185611fad565b9350611fe3818560208601611b80565b611fec816119b3565b840191505092915050565b600060208201905081810360008301526120118184611fbe565b905092915050565b600060208201905081810360008301526120338184611e6e565b905092915050565b600060208201905081810360008301526120558184611d60565b905092915050565b600080604083850312156120745761207361199f565b5b600061208285828601611e11565b925050602083013567ffffffffffffffff8111156120a3576120a26119a4565b5b6120af85828601611ac1565b9150509250929050565b600080fd5b600080fd5b6120cc81611c2d565b81146120d757600080fd5b50565b6000813590506120e9816120c3565b92915050565b600060808284031215612105576121046120b9565b5b61210f6080611a24565b9050600082013567ffffffffffffffff81111561212f5761212e6120be565b5b61213b84828501611ac1565b600083015250602061214f848285016120da565b6020830152506040612163848285016120da565b6040830152506060612177848285016120da565b60608301525092915050565b6000806040838503121561219a5761219961199f565b5b600083013567ffffffffffffffff8111156121b8576121b76119a4565b5b6121c485828601611ac1565b925050602083013567ffffffffffffffff8111156121e5576121e46119a4565b5b6121f1858286016120ef565b9150509250929050565b60006040820190506122106000830185611e5f565b81810360208301526122228184611d60565b90509392505050565b7f4e487b7100000000000000000000000000000000000000000000000000000000600052603260045260246000fd5b7f4e487b7100000000000000000000000000000000000000000000000000000000600052602260045260246000fd5b600060028204905060018216806122a157607f821691505b6020821081036122b4576122b361225a565b5b50919050565b600081519050919050565b600082825260208201905092915050565b60006122e1826122ba565b6122eb81856122c5565b93506122fb818560208601611b80565b612304816119b3565b840191505092915050565b6000604082019050818103600083015261232981856122d6565b9050818103602083015261233d81846122d6565b90509392505050565b61234f81611e53565b811461235a57600080fd5b50565b60008151905061236c81612346565b92915050565b6000602082840312156123885761238761199f565b5b60006123968482850161235d565b91505092915050565b7f4e487b7100000000000000000000000000000000000000000000000000000000600052601160045260246000fd5b60006123d982611c2d565b91507fffffffffffffffffffffffffffffffffffffffffffffffffffffffffffffffff820361240b5761240a61239f565b5b600182019050919050565b600061242182611c2d565b915061242c83611c2d565b92508282101561243f5761243e61239f565b5b828203905092915050565b600061245d61245884611a3f565b611a24565b905082815260208101848484011115612479576124786119ae565b5b612484848285611b80565b509392505050565b600082601f8301126124a1576124a06119a9565b5b81516124b184826020860161244a565b91505092915050565b6000602082840312156124d0576124cf61199f565b5b600082015167ffffffffffffffff8111156124ee576124ed6119a4565b5b6124fa8482850161248c565b91505092915050565b60008190508160005260206000209050919050565b60006020601f8301049050919050565b600082821b905092915050565b6000600883026125657fffffffffffffffffffffffffffffffffffffffffffffffffffffffffffffffff82612528565b61256f8683612528565b95508019841693508086168417925050509392505050565b6000819050919050565b60006125ac6125a76125a284611c2d565b612587565b611c2d565b9050919050565b6000819050919050565b6125c683612591565b6125da6125d2826125b3565b848454612535565b825550505050565b600090565b6125ef6125e2565b6125fa8184846125bd565b505050565b5b8181101561261e576126136000826125e7565b600181019050612600565b5050565b601f8211156126635761263481612503565b61263d84612518565b8101602085101561264c578190505b61266061265885612518565b8301826125ff565b50505b505050565b600082821c905092915050565b600061268660001984600802612668565b1980831691505092915050565b600061269f8383612675565b9150826002028217905092915050565b6126b882611b64565b67ffffffffffffffff8111156126d1576126d06119c4565b5b6126db8254612289565b6126e6828285612622565b600060209050601f8311600181146127195760008415612707578287015190505b6127118582612693565b865550612779565b601f19841661272786612503565b60005b8281101561274f5784890151825560018201915060208501945060208101905061272a565b8683101561276c5784890151612768601f891682612675565b8355505b6001600288020188555050505b505050505050565b600081905092915050565b600061279782611b64565b6127a18185612781565b93506127b1818560208601611b80565b80840191505092915050565b60006127c9828461278c565b915081905092915050565b60006127df82611c2d565b91506127ea83611c2d565b9250827fffffffffffffffffffffffffffffffffffffffffffffffffffffffffffffffff0382111561281f5761281e61239f565b5b82820190509291505056fea264697066735822122093c69ec799c17a85b723aacef6fe704d14678f3fd4dfa1384f458e61b4680e9964736f6c634300080f0033",
  "immutableReferences": {},
  "source": "// SPDX-License-Identifier: MIT\npragma solidity ^0.8;\nimport \"@openzeppelin/contracts/utils/Strings.sol\";\nimport {DirectoryFrame} from \"../Entities/DirectoryFrame.sol\";\nimport {DirectoryInfoFrame} from \"../Entities/DirectoryInfoFrame.sol\";\nimport \"./BaseNameDeclaration.sol\";\nimport \"../BusinessHelper/Infrastructure.sol\";\nimport {UniqueIdGenerator} from \"../BusinessHelper/UniqueIdGenerator.sol\";\n\ncontract DirectoryRepository is BaseNameDeclaration {\n    //data of files\n    DirectoryFrame[] private data;\n    uint256 private count = 0;\n    UniqueIdGenerator private _uniqueIdGenerator;\n    //get root by sender\n    mapping(address => DirectoryFrame) private rootsMap;\n    //get {DirectoryInfo} by directory id\n    mapping(string => DirectoryInfoFrame) private directoryInfoListMap;\n    //get {DirectoryFrame} by directory id\n    mapping(string => DirectoryFrame) private directoriesMap;\n\n    constructor(UniqueIdGenerator uniqueIdGenerator) {\n        _uniqueIdGenerator = uniqueIdGenerator;\n    }\n\n    function add(\n        address user,\n        string memory name,\n        string memory parentId\n    ) public payable isAllowedName(name, true) returns (string memory) {\n        DirectoryFrame memory parent = getDirectoryOrRoot(user, parentId);\n        string memory id = _uniqueIdGenerator.uniqId();\n        DirectoryFrame memory newDirectory = DirectoryFrame(\n            id,\n            parent.Id,\n            name,\n            user,\n            block.timestamp\n        );\n        data.push(newDirectory);\n        count++;\n        directoriesMap[id] = newDirectory;\n        getOrCreateDirectoryInfo(id);\n        DirectoryInfoFrame\n            memory directoryInfoParent = getOrCreateDirectoryInfo(parent.Id);\n        directoryInfoParent.DirectoriesCount =\n            directoryInfoParent.DirectoriesCount +\n            1;\n        updateDirectoryInfo(parent.Id, directoryInfoParent);\n        return id;\n    }\n\n    function updateDirectoryInfo(\n        string memory id,\n        DirectoryInfoFrame memory newModel\n    ) public payable {\n        DirectoryInfoFrame storage directoryInfoParent = directoryInfoListMap[\n            id\n        ];\n        directoryInfoParent.DirectoriesCount = newModel.DirectoriesCount;\n        directoryInfoParent.FilesCount = newModel.FilesCount;\n    }\n\n    function getSubDirectories(\n        string memory directoryId\n    ) public view returns (DirectoryFrame[] memory, DirectoryInfoFrame memory) {\n        (bool directoryNull, ) = getDirectory(directoryId);\n        if (directoryNull) {\n            revert notfound();\n        }\n        (\n            bool isNull,\n            DirectoryInfoFrame memory directoryInfo\n        ) = getDirectoryInfo(directoryId);\n        if (isNull) {\n            revert notfoundDirectory();\n        }\n        DirectoryFrame[] memory result = new DirectoryFrame[](\n            directoryInfo.DirectoriesCount\n        );\n        uint256 j = 0;\n        bytes memory b_directoryId = bytes(directoryId);\n        for (uint256 i = 0; i < count; i++) {\n            DirectoryFrame memory item = data[i];\n            bytes memory b_parentId = bytes(item.ParentId);\n            if (Infrastructure.bytesEquals(b_directoryId, b_parentId)) {\n                result[j++] = item;\n            }\n        }\n        return (result, directoryInfo);\n    }\n\n    function getRoot(\n        address user\n    ) public view returns (bool isNull, DirectoryFrame memory root) {\n        DirectoryFrame memory _root = rootsMap[user];\n        if (bytes(_root.Id).length == 0 || _root.Creator != user) {\n            isNull = true;\n        } else {\n            root = _root;\n            isNull = false;\n        }\n        return (isNull, root);\n    }\n\n    function getDirectory(\n        string memory id\n    ) internal view returns (bool isNull, DirectoryFrame memory directory) {\n        DirectoryFrame memory _directory = directoriesMap[id];\n        bytes memory b_directoryId = bytes(_directory.Id);\n        bytes memory b_id = bytes(_directory.Id);\n        if (\n            b_id.length == 0 || !Infrastructure.bytesEquals(b_id, b_directoryId)\n        ) {\n            isNull = true;\n        } else {\n            directory = _directory;\n            isNull = false;\n        }\n        return (isNull, directory);\n    }\n\n    function getDirectoryInfo(\n        string memory id\n    )\n        public\n        view\n        returns (bool isNull, DirectoryInfoFrame memory directoryInfo)\n    {\n        DirectoryInfoFrame memory _directoryInfo = directoryInfoListMap[id];\n        bytes memory b_directoryInfoId = bytes(_directoryInfo.DirectoryId);\n        if (\n            b_directoryInfoId.length == 0 ||\n            !Infrastructure.bytesEquals(b_directoryInfoId, bytes(id))\n        ) {\n            isNull = true;\n        } else {\n            directoryInfo = _directoryInfo;\n            isNull = false;\n        }\n        return (isNull, directoryInfo);\n    }\n\n    //get directiry and if it's don't have id return root\n    function getDirectoryOrRoot(\n        address user,\n        string memory id\n    ) public returns (DirectoryFrame memory) {\n        bytes memory b_Id = bytes(id);\n        if (b_Id.length == 0) {\n            return getOrCreateRoot(user);\n        }\n        (bool directoryNull, DirectoryFrame memory directory) = getDirectory(\n            id\n        );\n        if (directoryNull) {\n            revert notfound();\n        } else {\n            return directory;\n        }\n    }\n\n    //create {DirectoryInfo} if not exist then return\n    function getOrCreateDirectoryInfo(\n        string memory id\n    ) public payable returns (DirectoryInfoFrame memory) {\n        (\n            bool isNull,\n            DirectoryInfoFrame memory directoryInfo\n        ) = getDirectoryInfo(id);\n        if (isNull) {\n            directoryInfo = DirectoryInfoFrame(id, 0, 0, 0);\n            directoryInfoListMap[id] = directoryInfo;\n        }\n        return (directoryInfo);\n    }\n\n    //create {DirectoryFrame} if not exist then return\n    function getOrCreateRoot(\n        address user\n    ) public payable returns (DirectoryFrame memory) {\n        (bool isNull, DirectoryFrame memory root) = getRoot(user);\n        if (isNull) {\n            string memory rootId = _uniqueIdGenerator.uniqId();\n            root = DirectoryFrame(rootId, \"root\", \"\", user, block.timestamp);\n            data.push(root);\n            count++;\n            rootsMap[user] = root;\n            directoriesMap[rootId] = root;\n        }\n        return (root);\n    }\n}\n",
  "sourcePath": "C:\\Amir\\X7Opsilon\\smart_contract\\contracts\\Repositories\\DirectoryRepository.sol",
  "compiler": {
    "name": "solc",
    "version": "0.8.15+commit.e14f2714.Emscripten.clang"
  },
  "schemaVersion": "3.4.14",
  "updatedAt": "2023-07-28T01:03:10.015Z",
  "devdoc": {
    "kind": "dev",
    "methods": {},
    "version": 1
  },
  "userdoc": {
    "kind": "user",
    "methods": {},
    "version": 1
  }
}