{
  "contractName": "DirectoryRepository",
  "abi": [
    {
      "inputs": [
        {
          "internalType": "contract UniqueIdGenerator",
          "name": "uniqueIdGenerator",
          "type": "address"
        }
      ],
      "stateMutability": "nonpayable",
      "type": "constructor"
    },
    {
      "inputs": [],
      "name": "notfound",
      "type": "error"
    },
    {
      "inputs": [],
      "name": "unsupportedName",
      "type": "error"
    },
    {
      "inputs": [],
      "name": "unsupportedSize",
      "type": "error"
    },
    {
      "inputs": [],
      "name": "existRoot",
      "outputs": [
        {
          "internalType": "bool",
          "name": "",
          "type": "bool"
        }
      ],
      "stateMutability": "view",
      "type": "function"
    },
    {
      "inputs": [
        {
          "internalType": "string",
          "name": "name",
          "type": "string"
        },
        {
          "internalType": "string",
          "name": "parentId",
          "type": "string"
        }
      ],
      "name": "add",
      "outputs": [
        {
          "internalType": "string",
          "name": "",
          "type": "string"
        }
      ],
      "stateMutability": "payable",
      "type": "function"
    },
    {
      "inputs": [
        {
          "internalType": "string",
          "name": "id",
          "type": "string"
        },
        {
          "components": [
            {
              "internalType": "string",
              "name": "DirectoryId",
              "type": "string"
            },
            {
              "internalType": "uint256",
              "name": "FilesCount",
              "type": "uint256"
            },
            {
              "internalType": "uint256",
              "name": "DirectoriesCount",
              "type": "uint256"
            },
            {
              "internalType": "uint256",
              "name": "Size",
              "type": "uint256"
            }
          ],
          "internalType": "struct DirectoryInfoFrame",
          "name": "newModel",
          "type": "tuple"
        }
      ],
      "name": "updateDirectoryInfo",
      "outputs": [],
      "stateMutability": "payable",
      "type": "function"
    },
    {
      "inputs": [
        {
          "internalType": "string",
          "name": "directoryId",
          "type": "string"
        }
      ],
      "name": "get",
      "outputs": [
        {
          "components": [
            {
              "internalType": "string",
              "name": "Id",
              "type": "string"
            },
            {
              "internalType": "string",
              "name": "ParentId",
              "type": "string"
            },
            {
              "internalType": "string",
              "name": "Name",
              "type": "string"
            },
            {
              "internalType": "address",
              "name": "Creator",
              "type": "address"
            },
            {
              "internalType": "uint256",
              "name": "DateCreated",
              "type": "uint256"
            }
          ],
          "internalType": "struct DirectoryFrame[]",
          "name": "",
          "type": "tuple[]"
        }
      ],
      "stateMutability": "view",
      "type": "function"
    },
    {
      "inputs": [],
      "name": "getRoot",
      "outputs": [
        {
          "components": [
            {
              "internalType": "string",
              "name": "Id",
              "type": "string"
            },
            {
              "internalType": "string",
              "name": "ParentId",
              "type": "string"
            },
            {
              "internalType": "string",
              "name": "Name",
              "type": "string"
            },
            {
              "internalType": "address",
              "name": "Creator",
              "type": "address"
            },
            {
              "internalType": "uint256",
              "name": "DateCreated",
              "type": "uint256"
            }
          ],
          "internalType": "struct DirectoryFrame",
          "name": "root",
          "type": "tuple"
        }
      ],
      "stateMutability": "view",
      "type": "function"
    },
    {
      "inputs": [
        {
          "internalType": "string",
          "name": "id",
          "type": "string"
        }
      ],
      "name": "getDirectoryInfo",
      "outputs": [
        {
          "components": [
            {
              "internalType": "string",
              "name": "DirectoryId",
              "type": "string"
            },
            {
              "internalType": "uint256",
              "name": "FilesCount",
              "type": "uint256"
            },
            {
              "internalType": "uint256",
              "name": "DirectoriesCount",
              "type": "uint256"
            },
            {
              "internalType": "uint256",
              "name": "Size",
              "type": "uint256"
            }
          ],
          "internalType": "struct DirectoryInfoFrame",
          "name": "directoryInfo",
          "type": "tuple"
        }
      ],
      "stateMutability": "view",
      "type": "function"
    },
    {
      "inputs": [
        {
          "internalType": "string",
          "name": "id",
          "type": "string"
        }
      ],
      "name": "getDirectoryOrRoot",
      "outputs": [
        {
          "components": [
            {
              "internalType": "string",
              "name": "Id",
              "type": "string"
            },
            {
              "internalType": "string",
              "name": "ParentId",
              "type": "string"
            },
            {
              "internalType": "string",
              "name": "Name",
              "type": "string"
            },
            {
              "internalType": "address",
              "name": "Creator",
              "type": "address"
            },
            {
              "internalType": "uint256",
              "name": "DateCreated",
              "type": "uint256"
            }
          ],
          "internalType": "struct DirectoryFrame",
          "name": "",
          "type": "tuple"
        }
      ],
      "stateMutability": "nonpayable",
      "type": "function"
    },
    {
      "inputs": [
        {
          "internalType": "string",
          "name": "id",
          "type": "string"
        }
      ],
      "name": "getOrCreateDirectoryInfo",
      "outputs": [
        {
          "components": [
            {
              "internalType": "string",
              "name": "DirectoryId",
              "type": "string"
            },
            {
              "internalType": "uint256",
              "name": "FilesCount",
              "type": "uint256"
            },
            {
              "internalType": "uint256",
              "name": "DirectoriesCount",
              "type": "uint256"
            },
            {
              "internalType": "uint256",
              "name": "Size",
              "type": "uint256"
            }
          ],
          "internalType": "struct DirectoryInfoFrame",
          "name": "directoryInfo",
          "type": "tuple"
        }
      ],
      "stateMutability": "payable",
      "type": "function"
    },
    {
      "inputs": [],
      "name": "getOrCreateRoot",
      "outputs": [
        {
          "components": [
            {
              "internalType": "string",
              "name": "Id",
              "type": "string"
            },
            {
              "internalType": "string",
              "name": "ParentId",
              "type": "string"
            },
            {
              "internalType": "string",
              "name": "Name",
              "type": "string"
            },
            {
              "internalType": "address",
              "name": "Creator",
              "type": "address"
            },
            {
              "internalType": "uint256",
              "name": "DateCreated",
              "type": "uint256"
            }
          ],
          "internalType": "struct DirectoryFrame",
          "name": "root",
          "type": "tuple"
        }
      ],
      "stateMutability": "payable",
      "type": "function"
    }
  ],
  "bytecode": "0x60806040526040518060400160405280600981526020017f225c2f5d3a3f3c3e7c0000000000000000000000000000000000000000000000815250600090816200004a919062000380565b507f2e00000000000000000000000000000000000000000000000000000000000000600160006101000a81548160ff021916908360f81c021790555060006003553480156200009857600080fd5b50604051620033e8380380620033e88339818101604052810190620000be9190620004e5565b80600460006101000a81548173ffffffffffffffffffffffffffffffffffffffff021916908373ffffffffffffffffffffffffffffffffffffffff1602179055505062000517565b600081519050919050565b7f4e487b7100000000000000000000000000000000000000000000000000000000600052604160045260246000fd5b7f4e487b7100000000000000000000000000000000000000000000000000000000600052602260045260246000fd5b600060028204905060018216806200018857607f821691505b6020821081036200019e576200019d62000140565b5b50919050565b60008190508160005260206000209050919050565b60006020601f8301049050919050565b600082821b905092915050565b600060088302620002087fffffffffffffffffffffffffffffffffffffffffffffffffffffffffffffffff82620001c9565b620002148683620001c9565b95508019841693508086168417925050509392505050565b6000819050919050565b6000819050919050565b6000620002616200025b62000255846200022c565b62000236565b6200022c565b9050919050565b6000819050919050565b6200027d8362000240565b620002956200028c8262000268565b848454620001d6565b825550505050565b600090565b620002ac6200029d565b620002b981848462000272565b505050565b5b81811015620002e157620002d5600082620002a2565b600181019050620002bf565b5050565b601f8211156200033057620002fa81620001a4565b6200030584620001b9565b8101602085101562000315578190505b6200032d6200032485620001b9565b830182620002be565b50505b505050565b600082821c905092915050565b6000620003556000198460080262000335565b1980831691505092915050565b600062000370838362000342565b9150826002028217905092915050565b6200038b8262000106565b67ffffffffffffffff811115620003a757620003a662000111565b5b620003b382546200016f565b620003c0828285620002e5565b600060209050601f831160018114620003f85760008415620003e3578287015190505b620003ef858262000362565b8655506200045f565b601f1984166200040886620001a4565b60005b8281101562000432578489015182556001820191506020850194506020810190506200040b565b868310156200045257848901516200044e601f89168262000342565b8355505b6001600288020188555050505b505050505050565b600080fd5b600073ffffffffffffffffffffffffffffffffffffffff82169050919050565b600062000499826200046c565b9050919050565b6000620004ad826200048c565b9050919050565b620004bf81620004a0565b8114620004cb57600080fd5b50565b600081519050620004df81620004b4565b92915050565b600060208284031215620004fe57620004fd62000467565b5b60006200050e84828501620004ce565b91505092915050565b612ec180620005276000396000f3fe6080604052600436106100865760003560e01c8063976c125511610059578063976c12551461014e578063c01a83161461016a578063ebdf86ca146101a7578063ef8bfa3e146101d7578063f0c76ccc146101f557610086565b806332db898d1461008b5780635ca1e165146100b6578063679c7ccb146100e1578063693ec85e14610111575b600080fd5b34801561009757600080fd5b506100a0610232565b6040516100ad9190612133565b60405180910390f35b3480156100c257600080fd5b506100cb6104b7565b6040516100d891906122c5565b60405180910390f35b6100fb60048036038101906100f69190612430565b610724565b60405161010891906124dc565b60405180910390f35b34801561011d57600080fd5b5061013860048036038101906101339190612430565b61096e565b6040516101459190612644565b60405180910390f35b61016860048036038101906101639190612730565b610e18565b005b34801561017657600080fd5b50610191600480360381019061018c9190612430565b610e4c565b60405161019e91906122c5565b60405180910390f35b6101c160048036038101906101bc91906127a8565b6110f9565b6040516101ce919061286a565b60405180910390f35b6101df61175e565b6040516101ec91906122c5565b60405180910390f35b34801561020157600080fd5b5061021c60048036038101906102179190612430565b611d5d565b60405161022991906124dc565b60405180910390f35b600080600560003373ffffffffffffffffffffffffffffffffffffffff1673ffffffffffffffffffffffffffffffffffffffff1681526020019081526020016000206040518060a001604052908160008201805461028f906128bb565b80601f01602080910402602001604051908101604052809291908181526020018280546102bb906128bb565b80156103085780601f106102dd57610100808354040283529160200191610308565b820191906000526020600020905b8154815290600101906020018083116102eb57829003601f168201915b50505050508152602001600182018054610321906128bb565b80601f016020809104026020016040519081016040528092919081815260200182805461034d906128bb565b801561039a5780601f1061036f5761010080835404028352916020019161039a565b820191906000526020600020905b81548152906001019060200180831161037d57829003601f168201915b505050505081526020016002820180546103b3906128bb565b80601f01602080910402602001604051908101604052809291908181526020018280546103df906128bb565b801561042c5780601f106104015761010080835404028352916020019161042c565b820191906000526020600020905b81548152906001019060200180831161040f57829003601f168201915b505050505081526020016003820160009054906101000a900473ffffffffffffffffffffffffffffffffffffffff1673ffffffffffffffffffffffffffffffffffffffff1673ffffffffffffffffffffffffffffffffffffffff16815260200160048201548152505090506000816000015151036104ae5760009150506104b4565b60019150505b90565b6104bf6120ab565b600560003373ffffffffffffffffffffffffffffffffffffffff1673ffffffffffffffffffffffffffffffffffffffff1681526020019081526020016000206040518060a0016040529081600082018054610519906128bb565b80601f0160208091040260200160405190810160405280929190818152602001828054610545906128bb565b80156105925780601f1061056757610100808354040283529160200191610592565b820191906000526020600020905b81548152906001019060200180831161057557829003601f168201915b505050505081526020016001820180546105ab906128bb565b80601f01602080910402602001604051908101604052809291908181526020018280546105d7906128bb565b80156106245780601f106105f957610100808354040283529160200191610624565b820191906000526020600020905b81548152906001019060200180831161060757829003601f168201915b5050505050815260200160028201805461063d906128bb565b80601f0160208091040260200160405190810160405280929190818152602001828054610669906128bb565b80156106b65780601f1061068b576101008083540402835291602001916106b6565b820191906000526020600020905b81548152906001019060200180831161069957829003601f168201915b505050505081526020016003820160009054906101000a900473ffffffffffffffffffffffffffffffffffffffff1673ffffffffffffffffffffffffffffffffffffffff1673ffffffffffffffffffffffffffffffffffffffff168152602001600482015481525050905090565b61072c6120f0565b60068260405161073c9190612928565b9081526020016040518091039020604051806080016040529081600082018054610765906128bb565b80601f0160208091040260200160405190810160405280929190818152602001828054610791906128bb565b80156107de5780601f106107b3576101008083540402835291602001916107de565b820191906000526020600020905b8154815290600101906020018083116107c157829003601f168201915b5050505050815260200160018201548152602001600282015481526020016003820154815250509050600081600001515103610969576040518060800160405280838152602001600081526020016000815260200160008152506006836040516108489190612928565b9081526020016040518091039020600082015181600001908161086b9190612aeb565b5060208201518160010155604082015181600201556060820151816003015590505060068260405161089d9190612928565b90815260200160405180910390206040518060800160405290816000820180546108c6906128bb565b80601f01602080910402602001604051908101604052809291908181526020018280546108f2906128bb565b801561093f5780601f106109145761010080835404028352916020019161093f565b820191906000526020600020905b81548152906001019060200180831161092257829003601f168201915b50505050508152602001600182015481526020016002820154815260200160038201548152505090505b919050565b606061097982611e45565b6109af576040517f5982e5ed00000000000000000000000000000000000000000000000000000000815260040160405180910390fd5b60006006836040516109c19190612928565b90815260200160405180910390206040518060800160405290816000820180546109ea906128bb565b80601f0160208091040260200160405190810160405280929190818152602001828054610a16906128bb565b8015610a635780601f10610a3857610100808354040283529160200191610a63565b820191906000526020600020905b815481529060010190602001808311610a4657829003601f168201915b50505050508152602001600182015481526020016002820154815260200160038201548152505090506000816040015167ffffffffffffffff811115610aac57610aab612305565b5b604051908082528060200260200182016040528015610ae557816020015b610ad26120ab565b815260200190600190039081610aca5790505b50905060008085905060005b600354811015610e0b57600060028281548110610b1157610b10612bbd565b5b90600052602060002090600502016040518060a0016040529081600082018054610b3a906128bb565b80601f0160208091040260200160405190810160405280929190818152602001828054610b66906128bb565b8015610bb35780601f10610b8857610100808354040283529160200191610bb3565b820191906000526020600020905b815481529060010190602001808311610b9657829003601f168201915b50505050508152602001600182018054610bcc906128bb565b80601f0160208091040260200160405190810160405280929190818152602001828054610bf8906128bb565b8015610c455780601f10610c1a57610100808354040283529160200191610c45565b820191906000526020600020905b815481529060010190602001808311610c2857829003601f168201915b50505050508152602001600282018054610c5e906128bb565b80601f0160208091040260200160405190810160405280929190818152602001828054610c8a906128bb565b8015610cd75780601f10610cac57610100808354040283529160200191610cd7565b820191906000526020600020905b815481529060010190602001808311610cba57829003601f168201915b505050505081526020016003820160009054906101000a900473ffffffffffffffffffffffffffffffffffffffff1673ffffffffffffffffffffffffffffffffffffffff1673ffffffffffffffffffffffffffffffffffffffff168152602001600482015481525050905060008160200151905073__Infrastructure________________________637da4831785836040518363ffffffff1660e01b8152600401610d84929190612c41565b602060405180830381865af4158015610da1573d6000803e3d6000fd5b505050506040513d601f19601f82011682018060405250810190610dc59190612ca4565b15610df65781868680610dd790612d00565b975081518110610dea57610de9612bbd565b5b60200260200101819052505b50508080610e0390612d00565b915050610af1565b5082945050505050919050565b6000600683604051610e2a9190612928565b9081526020016040518091039020905081604001518160020181905550505050565b610e546120ab565b60008290506000815103610e7257610e6a61175e565b9150506110f4565b610e7b83611e45565b610eb1576040517f5982e5ed00000000000000000000000000000000000000000000000000000000815260040160405180910390fd5b600783604051610ec19190612928565b90815260200160405180910390206040518060a0016040529081600082018054610eea906128bb565b80601f0160208091040260200160405190810160405280929190818152602001828054610f16906128bb565b8015610f635780601f10610f3857610100808354040283529160200191610f63565b820191906000526020600020905b815481529060010190602001808311610f4657829003601f168201915b50505050508152602001600182018054610f7c906128bb565b80601f0160208091040260200160405190810160405280929190818152602001828054610fa8906128bb565b8015610ff55780601f10610fca57610100808354040283529160200191610ff5565b820191906000526020600020905b815481529060010190602001808311610fd857829003601f168201915b5050505050815260200160028201805461100e906128bb565b80601f016020809104026020016040519081016040528092919081815260200182805461103a906128bb565b80156110875780601f1061105c57610100808354040283529160200191611087565b820191906000526020600020905b81548152906001019060200180831161106a57829003601f168201915b505050505081526020016003820160009054906101000a900473ffffffffffffffffffffffffffffffffffffffff1673ffffffffffffffffffffffffffffffffffffffff1673ffffffffffffffffffffffffffffffffffffffff1681526020016004820154815250509150505b919050565b6060826001600082905060006001905060e682511115611145576040517fc96b3aa100000000000000000000000000000000000000000000000000000000815260040160405180910390fd5b600082510361115357600090505b82156111fe5760005b82518110156111f857600160009054906101000a900460f81b7effffffffffffffffffffffffffffffffffffffffffffffffffffffffffffff19168382815181106111aa576111a9612bbd565b5b602001015160f81c60f81b7effffffffffffffffffffffffffffffffffffffffffffffffffffffffffffff1916036111e557600091506111f8565b80806111f090612d00565b91505061115c565b5061132c565b6000905060005b82518110156112a157600160009054906101000a900460f81b7effffffffffffffffffffffffffffffffffffffffffffffffffffffffffffff191683828151811061125357611252612bbd565b5b602001015160f81c60f81b7effffffffffffffffffffffffffffffffffffffffffffffffffffffffffffff19160361128e57600191506112a1565b808061129990612d00565b915050611205565b50600160009054906101000a900460f81b7effffffffffffffffffffffffffffffffffffffffffffffffffffffffffffff191682600184516112e39190612d48565b815181106112f4576112f3612bbd565b5b602001015160f81c60f81b7effffffffffffffffffffffffffffffffffffffffffffffffffffffffffffff19160361132b57600090505b5b60005b82518110156114505760005b60008054611348906128bb565b905081101561143657600081815461135f906128bb565b811061136e5761136d612bbd565b5b81546001161561138d5790600052602060002090602091828204019190065b9054901a7f0100000000000000000000000000000000000000000000000000000000000000027effffffffffffffffffffffffffffffffffffffffffffffffffffffffffffff19168483815181106113e8576113e7612bbd565b5b602001015160f81c60f81b7effffffffffffffffffffffffffffffffffffffffffffffffffffffffffffff1916036114235760009250611436565b808061142e90612d00565b91505061133b565b50811561145057808061144890612d00565b91505061132f565b50801561172257600061146287610e4c565b90506000600460009054906101000a900473ffffffffffffffffffffffffffffffffffffffff1673ffffffffffffffffffffffffffffffffffffffff1663a36885466040518163ffffffff1660e01b81526004016000604051808303816000875af11580156114d5573d6000803e3d6000fd5b505050506040513d6000823e3d601f19601f820116820180604052508101906114fe9190612dec565b905060006040518060a00160405280838152602001846000015181526020018b81526020013373ffffffffffffffffffffffffffffffffffffffff168152602001428152509050600281908060018154018082558091505060019003906000526020600020906005020160009091909190915060008201518160000190816115869190612aeb565b50602082015181600101908161159c9190612aeb565b5060408201518160020190816115b29190612aeb565b5060608201518160030160006101000a81548173ffffffffffffffffffffffffffffffffffffffff021916908373ffffffffffffffffffffffffffffffffffffffff1602179055506080820151816004015550506003600081548092919061161990612d00565b91905055508060078360405161162f9190612928565b908152602001604051809103902060008201518160000190816116529190612aeb565b5060208201518160010190816116689190612aeb565b50604082015181600201908161167e9190612aeb565b5060608201518160030160006101000a81548173ffffffffffffffffffffffffffffffffffffffff021916908373ffffffffffffffffffffffffffffffffffffffff160217905550608082015181600401559050506116dc82610724565b5060006116ec8460000151610724565b9050600181604001516116ff9190612e35565b816040018181525050611716846000015182610e18565b82985050505050611754565b6040517fb5d012b400000000000000000000000000000000000000000000000000000000815260040160405180910390fd5b5050505092915050565b6117666120ab565b600560003373ffffffffffffffffffffffffffffffffffffffff1673ffffffffffffffffffffffffffffffffffffffff1681526020019081526020016000206040518060a00160405290816000820180546117c0906128bb565b80601f01602080910402602001604051908101604052809291908181526020018280546117ec906128bb565b80156118395780601f1061180e57610100808354040283529160200191611839565b820191906000526020600020905b81548152906001019060200180831161181c57829003601f168201915b50505050508152602001600182018054611852906128bb565b80601f016020809104026020016040519081016040528092919081815260200182805461187e906128bb565b80156118cb5780601f106118a0576101008083540402835291602001916118cb565b820191906000526020600020905b8154815290600101906020018083116118ae57829003601f168201915b505050505081526020016002820180546118e4906128bb565b80601f0160208091040260200160405190810160405280929190818152602001828054611910906128bb565b801561195d5780601f106119325761010080835404028352916020019161195d565b820191906000526020600020905b81548152906001019060200180831161194057829003601f168201915b505050505081526020016003820160009054906101000a900473ffffffffffffffffffffffffffffffffffffffff1673ffffffffffffffffffffffffffffffffffffffff1673ffffffffffffffffffffffffffffffffffffffff1681526020016004820154815250509050600081600001515103611d5a576000600460009054906101000a900473ffffffffffffffffffffffffffffffffffffffff1673ffffffffffffffffffffffffffffffffffffffff1663a36885466040518163ffffffff1660e01b81526004016000604051808303816000875af1158015611a46573d6000803e3d6000fd5b505050506040513d6000823e3d601f19601f82011682018060405250810190611a6f9190612dec565b90506040518060a001604052808281526020016040518060400160405280600481526020017f726f6f740000000000000000000000000000000000000000000000000000000081525081526020016040518060200160405280600081525081526020013373ffffffffffffffffffffffffffffffffffffffff16815260200142815250915060028290806001815401808255809150506001900390600052602060002090600502016000909190919091506000820151816000019081611b359190612aeb565b506020820151816001019081611b4b9190612aeb565b506040820151816002019081611b619190612aeb565b5060608201518160030160006101000a81548173ffffffffffffffffffffffffffffffffffffffff021916908373ffffffffffffffffffffffffffffffffffffffff16021790555060808201518160040155505060036000815480929190611bc890612d00565b919050555081600560003373ffffffffffffffffffffffffffffffffffffffff1673ffffffffffffffffffffffffffffffffffffffff1681526020019081526020016000206000820151816000019081611c229190612aeb565b506020820151816001019081611c389190612aeb565b506040820151816002019081611c4e9190612aeb565b5060608201518160030160006101000a81548173ffffffffffffffffffffffffffffffffffffffff021916908373ffffffffffffffffffffffffffffffffffffffff1602179055506080820151816004015590505081600782604051611cb49190612928565b90815260200160405180910390206000820151816000019081611cd79190612aeb565b506020820151816001019081611ced9190612aeb565b506040820151816002019081611d039190612aeb565b5060608201518160030160006101000a81548173ffffffffffffffffffffffffffffffffffffffff021916908373ffffffffffffffffffffffffffffffffffffffff16021790555060808201518160040155905050505b90565b611d656120f0565b600682604051611d759190612928565b9081526020016040518091039020604051806080016040529081600082018054611d9e906128bb565b80601f0160208091040260200160405190810160405280929190818152602001828054611dca906128bb565b8015611e175780601f10611dec57610100808354040283529160200191611e17565b820191906000526020600020905b815481529060010190602001808311611dfa57829003601f168201915b5050505050815260200160018201548152602001600282015481526020016003820154815250509050919050565b600080600783604051611e589190612928565b90815260200160405180910390206040518060a0016040529081600082018054611e81906128bb565b80601f0160208091040260200160405190810160405280929190818152602001828054611ead906128bb565b8015611efa5780601f10611ecf57610100808354040283529160200191611efa565b820191906000526020600020905b815481529060010190602001808311611edd57829003601f168201915b50505050508152602001600182018054611f13906128bb565b80601f0160208091040260200160405190810160405280929190818152602001828054611f3f906128bb565b8015611f8c5780601f10611f6157610100808354040283529160200191611f8c565b820191906000526020600020905b815481529060010190602001808311611f6f57829003601f168201915b50505050508152602001600282018054611fa5906128bb565b80601f0160208091040260200160405190810160405280929190818152602001828054611fd1906128bb565b801561201e5780601f10611ff35761010080835404028352916020019161201e565b820191906000526020600020905b81548152906001019060200180831161200157829003601f168201915b505050505081526020016003820160009054906101000a900473ffffffffffffffffffffffffffffffffffffffff1673ffffffffffffffffffffffffffffffffffffffff1673ffffffffffffffffffffffffffffffffffffffff16815260200160048201548152505090506000816000015151036120a05760009150506120a6565b60019150505b919050565b6040518060a00160405280606081526020016060815260200160608152602001600073ffffffffffffffffffffffffffffffffffffffff168152602001600081525090565b6040518060800160405280606081526020016000815260200160008152602001600081525090565b60008115159050919050565b61212d81612118565b82525050565b60006020820190506121486000830184612124565b92915050565b600081519050919050565b600082825260208201905092915050565b60005b8381101561218857808201518184015260208101905061216d565b83811115612197576000848401525b50505050565b6000601f19601f8301169050919050565b60006121b98261214e565b6121c38185612159565b93506121d381856020860161216a565b6121dc8161219d565b840191505092915050565b600073ffffffffffffffffffffffffffffffffffffffff82169050919050565b6000612212826121e7565b9050919050565b61222281612207565b82525050565b6000819050919050565b61223b81612228565b82525050565b600060a083016000830151848203600086015261225e82826121ae565b9150506020830151848203602086015261227882826121ae565b9150506040830151848203604086015261229282826121ae565b91505060608301516122a76060860182612219565b5060808301516122ba6080860182612232565b508091505092915050565b600060208201905081810360008301526122df8184612241565b905092915050565b6000604051905090565b600080fd5b600080fd5b600080fd5b600080fd5b7f4e487b7100000000000000000000000000000000000000000000000000000000600052604160045260246000fd5b61233d8261219d565b810181811067ffffffffffffffff8211171561235c5761235b612305565b5b80604052505050565b600061236f6122e7565b905061237b8282612334565b919050565b600067ffffffffffffffff82111561239b5761239a612305565b5b6123a48261219d565b9050602081019050919050565b82818337600083830152505050565b60006123d36123ce84612380565b612365565b9050828152602081018484840111156123ef576123ee612300565b5b6123fa8482856123b1565b509392505050565b600082601f830112612417576124166122fb565b5b81356124278482602086016123c0565b91505092915050565b600060208284031215612446576124456122f1565b5b600082013567ffffffffffffffff811115612464576124636122f6565b5b61247084828501612402565b91505092915050565b6000608083016000830151848203600086015261249682826121ae565b91505060208301516124ab6020860182612232565b5060408301516124be6040860182612232565b5060608301516124d16060860182612232565b508091505092915050565b600060208201905081810360008301526124f68184612479565b905092915050565b600081519050919050565b600082825260208201905092915050565b6000819050602082019050919050565b600060a083016000830151848203600086015261254782826121ae565b9150506020830151848203602086015261256182826121ae565b9150506040830151848203604086015261257b82826121ae565b91505060608301516125906060860182612219565b5060808301516125a36080860182612232565b508091505092915050565b60006125ba838361252a565b905092915050565b6000602082019050919050565b60006125da826124fe565b6125e48185612509565b9350836020820285016125f68561251a565b8060005b85811015612632578484038952815161261385826125ae565b945061261e836125c2565b925060208a019950506001810190506125fa565b50829750879550505050505092915050565b6000602082019050818103600083015261265e81846125cf565b905092915050565b600080fd5b600080fd5b61267981612228565b811461268457600080fd5b50565b60008135905061269681612670565b92915050565b6000608082840312156126b2576126b1612666565b5b6126bc6080612365565b9050600082013567ffffffffffffffff8111156126dc576126db61266b565b5b6126e884828501612402565b60008301525060206126fc84828501612687565b602083015250604061271084828501612687565b604083015250606061272484828501612687565b60608301525092915050565b60008060408385031215612747576127466122f1565b5b600083013567ffffffffffffffff811115612765576127646122f6565b5b61277185828601612402565b925050602083013567ffffffffffffffff811115612792576127916122f6565b5b61279e8582860161269c565b9150509250929050565b600080604083850312156127bf576127be6122f1565b5b600083013567ffffffffffffffff8111156127dd576127dc6122f6565b5b6127e985828601612402565b925050602083013567ffffffffffffffff81111561280a576128096122f6565b5b61281685828601612402565b9150509250929050565b600082825260208201905092915050565b600061283c8261214e565b6128468185612820565b935061285681856020860161216a565b61285f8161219d565b840191505092915050565b600060208201905081810360008301526128848184612831565b905092915050565b7f4e487b7100000000000000000000000000000000000000000000000000000000600052602260045260246000fd5b600060028204905060018216806128d357607f821691505b6020821081036128e6576128e561288c565b5b50919050565b600081905092915050565b60006129028261214e565b61290c81856128ec565b935061291c81856020860161216a565b80840191505092915050565b600061293482846128f7565b915081905092915050565b60008190508160005260206000209050919050565b60006020601f8301049050919050565b600082821b905092915050565b6000600883026129a17fffffffffffffffffffffffffffffffffffffffffffffffffffffffffffffffff82612964565b6129ab8683612964565b95508019841693508086168417925050509392505050565b6000819050919050565b60006129e86129e36129de84612228565b6129c3565b612228565b9050919050565b6000819050919050565b612a02836129cd565b612a16612a0e826129ef565b848454612971565b825550505050565b600090565b612a2b612a1e565b612a368184846129f9565b505050565b5b81811015612a5a57612a4f600082612a23565b600181019050612a3c565b5050565b601f821115612a9f57612a708161293f565b612a7984612954565b81016020851015612a88578190505b612a9c612a9485612954565b830182612a3b565b50505b505050565b600082821c905092915050565b6000612ac260001984600802612aa4565b1980831691505092915050565b6000612adb8383612ab1565b9150826002028217905092915050565b612af48261214e565b67ffffffffffffffff811115612b0d57612b0c612305565b5b612b1782546128bb565b612b22828285612a5e565b600060209050601f831160018114612b555760008415612b43578287015190505b612b4d8582612acf565b865550612bb5565b601f198416612b638661293f565b60005b82811015612b8b57848901518255600182019150602085019450602081019050612b66565b86831015612ba85784890151612ba4601f891682612ab1565b8355505b6001600288020188555050505b505050505050565b7f4e487b7100000000000000000000000000000000000000000000000000000000600052603260045260246000fd5b600081519050919050565b600082825260208201905092915050565b6000612c1382612bec565b612c1d8185612bf7565b9350612c2d81856020860161216a565b612c368161219d565b840191505092915050565b60006040820190508181036000830152612c5b8185612c08565b90508181036020830152612c6f8184612c08565b90509392505050565b612c8181612118565b8114612c8c57600080fd5b50565b600081519050612c9e81612c78565b92915050565b600060208284031215612cba57612cb96122f1565b5b6000612cc884828501612c8f565b91505092915050565b7f4e487b7100000000000000000000000000000000000000000000000000000000600052601160045260246000fd5b6000612d0b82612228565b91507fffffffffffffffffffffffffffffffffffffffffffffffffffffffffffffffff8203612d3d57612d3c612cd1565b5b600182019050919050565b6000612d5382612228565b9150612d5e83612228565b925082821015612d7157612d70612cd1565b5b828203905092915050565b6000612d8f612d8a84612380565b612365565b905082815260208101848484011115612dab57612daa612300565b5b612db684828561216a565b509392505050565b600082601f830112612dd357612dd26122fb565b5b8151612de3848260208601612d7c565b91505092915050565b600060208284031215612e0257612e016122f1565b5b600082015167ffffffffffffffff811115612e2057612e1f6122f6565b5b612e2c84828501612dbe565b91505092915050565b6000612e4082612228565b9150612e4b83612228565b9250827fffffffffffffffffffffffffffffffffffffffffffffffffffffffffffffffff03821115612e8057612e7f612cd1565b5b82820190509291505056fea26469706673582212209c04e0f2226cf6971e28f7f28349c58ae936521ee0cfca18567f12e7c46956ce64736f6c634300080f0033",
  "immutableReferences": {},
  "source": "// SPDX-License-Identifier: MIT\npragma solidity ^0.8;\nimport \"@openzeppelin/contracts/utils/Strings.sol\";\nimport {DirectoryFrame} from \"../Entities/DirectoryFrame.sol\";\nimport {DirectoryInfoFrame} from \"../Entities/DirectoryInfoFrame.sol\";\nimport \"./BaseNameDeclaration.sol\";\nimport \"../BusinessHelper/Infrastructure.sol\";\nimport {UniqueIdGenerator} from \"../BusinessHelper/UniqueIdGenerator.sol\";\n\ncontract DirectoryRepository is BaseNameDeclaration {\n    //data of files\n    DirectoryFrame[] private data;\n    uint256 private count = 0;\n    UniqueIdGenerator private _uniqueIdGenerator;\n    //get root by sender\n    mapping(address => DirectoryFrame) private rootsMap;\n    //get {DirectoryInfo} by directory id\n    mapping(string => DirectoryInfoFrame) private directoryInfoListMap;\n    //get {DirectoryFrame} by directory id\n    mapping(string => DirectoryFrame) private directoriesMap;\n\n    constructor(UniqueIdGenerator uniqueIdGenerator) {\n        _uniqueIdGenerator = uniqueIdGenerator;\n    }\n\n    function exist(string memory id) internal view returns (bool) {\n        DirectoryFrame memory directory = directoriesMap[id];\n        if (bytes(directory.Id).length == 0) {\n            return false;\n        }\n        return true;\n    }\n\n    function existRoot() public view returns (bool) {\n        DirectoryFrame memory root = rootsMap[msg.sender];\n        if (bytes(root.Id).length == 0) {\n            return false;\n        }\n        return true;\n    }\n\n    function add(string memory name, string memory parentId)\n        public\n        payable\n        isAllowedName(name, true)\n        returns (string memory)\n    {\n        DirectoryFrame memory parent = getDirectoryOrRoot(parentId);\n        string memory id = _uniqueIdGenerator.uniqId();\n        DirectoryFrame memory newDirectory = DirectoryFrame(\n            id,\n            parent.Id,\n            name,\n            msg.sender,\n            block.timestamp\n        );\n        data.push(newDirectory);\n        count++;\n        directoriesMap[id] = newDirectory;\n        getOrCreateDirectoryInfo(id);\n        DirectoryInfoFrame\n            memory directoryInfoParent = getOrCreateDirectoryInfo(parent.Id);\n        directoryInfoParent.DirectoriesCount =\n            directoryInfoParent.DirectoriesCount +\n            1;\n        updateDirectoryInfo(parent.Id, directoryInfoParent);\n        return id;\n    }\n\n    function updateDirectoryInfo(\n        string memory id,\n        DirectoryInfoFrame memory newModel\n    ) public payable {\n        DirectoryInfoFrame storage directoryInfoParent = directoryInfoListMap[\n            id\n        ];\n        directoryInfoParent.DirectoriesCount = newModel.DirectoriesCount;\n    }\n\n    function get(string memory directoryId)\n        public\n        view\n        returns (DirectoryFrame[] memory)\n    {\n        if (!exist(directoryId)) {\n            revert notfound();\n        }\n        DirectoryInfoFrame memory directoryInfo = directoryInfoListMap[\n            directoryId\n        ];\n\n        DirectoryFrame[] memory result = new DirectoryFrame[](\n            directoryInfo.DirectoriesCount\n        );\n        uint256 j = 0;\n        bytes memory b_directoryId = bytes(directoryId);\n        for (uint256 i = 0; i < count; i++) {\n            DirectoryFrame memory item = data[i];\n            bytes memory b_parentId = bytes(item.ParentId);\n            if (Infrastructure.bytesEquals(b_directoryId, b_parentId)) {\n                result[j++] = item;\n            }\n        }\n        return result;\n    }\n\n    function getRoot() public view returns (DirectoryFrame memory root) {\n        root = rootsMap[msg.sender];\n        return (root);\n    }\n\n    function getDirectoryInfo(string memory id)\n        public\n        view\n        returns (DirectoryInfoFrame memory directoryInfo)\n    {\n        return (directoryInfoListMap[id]);\n    }\n\n    //get directiry and if it's don't have id return root\n    function getDirectoryOrRoot(string memory id)\n        public \n        returns (DirectoryFrame memory)\n    {\n        bytes memory b_parentId = bytes(id);\n        if (b_parentId.length == 0) {\n            return getOrCreateRoot();\n        } else if (!exist(id)) {\n            revert notfound();\n        } else {\n            return directoriesMap[id];\n        }\n    }\n\n    //create {DirectoryInfo} if not exist then return\n    function getOrCreateDirectoryInfo(string memory id)\n        public\n        payable\n        returns (DirectoryInfoFrame memory directoryInfo)\n    {\n        directoryInfo = directoryInfoListMap[id];\n        if (bytes(directoryInfo.DirectoryId).length == 0) {\n            directoryInfoListMap[id] = DirectoryInfoFrame(id, 0, 0, 0);\n            directoryInfo = directoryInfoListMap[id];\n        }\n        return (directoryInfo);\n    }\n\n    //create {DirectoryFrame} if not exist then return\n    function getOrCreateRoot()\n        public\n        payable\n        returns (DirectoryFrame memory root)\n    {\n        root = rootsMap[msg.sender];\n        if (bytes(root.Id).length == 0) {\n            string memory rootId = _uniqueIdGenerator.uniqId();\n            root = DirectoryFrame(\n                rootId,\n                \"root\",\n                \"\",\n                msg.sender,\n                block.timestamp\n            );\n            data.push(root);\n            count++;\n            rootsMap[msg.sender] = root;\n            directoriesMap[rootId] = root;\n        }\n        return (root);\n    }\n}\n",
  "sourcePath": "C:\\Amir\\X7Opsilon\\smart_contract\\contracts\\Repositories\\DirectoryRepository.sol",
  "compiler": {
    "name": "solc",
    "version": "0.8.15+commit.e14f2714.Emscripten.clang"
  },
  "schemaVersion": "3.4.14",
  "updatedAt": "2023-07-25T07:07:19.044Z",
  "devdoc": {
    "kind": "dev",
    "methods": {},
    "version": 1
  },
  "userdoc": {
    "kind": "user",
    "methods": {},
    "version": 1
  }
}