{
  "contractName": "FileRepository",
  "abi": [
    {
      "inputs": [
        {
          "internalType": "contract UniqueIdGenerator",
          "name": "uniqueIdGenerator",
          "type": "address"
        }
      ],
      "stateMutability": "nonpayable",
      "type": "constructor"
    },
    {
      "inputs": [],
      "name": "notfound",
      "type": "error"
    },
    {
      "inputs": [],
      "name": "unsupportedName",
      "type": "error"
    },
    {
      "inputs": [],
      "name": "unsupportedSize",
      "type": "error"
    },
    {
      "inputs": [
        {
          "internalType": "string",
          "name": "directoryId",
          "type": "string"
        },
        {
          "components": [
            {
              "internalType": "string",
              "name": "DirectoryId",
              "type": "string"
            },
            {
              "internalType": "uint256",
              "name": "FilesCount",
              "type": "uint256"
            },
            {
              "internalType": "uint256",
              "name": "DirectoriesCount",
              "type": "uint256"
            },
            {
              "internalType": "uint256",
              "name": "Size",
              "type": "uint256"
            }
          ],
          "internalType": "struct DirectoryInfoFrame",
          "name": "directoryInfo",
          "type": "tuple"
        }
      ],
      "name": "getSubFiles",
      "outputs": [
        {
          "components": [
            {
              "internalType": "string",
              "name": "Id",
              "type": "string"
            },
            {
              "internalType": "string",
              "name": "Name",
              "type": "string"
            },
            {
              "internalType": "string",
              "name": "Extension",
              "type": "string"
            }
          ],
          "internalType": "struct FileOutput[]",
          "name": "",
          "type": "tuple[]"
        }
      ],
      "stateMutability": "view",
      "type": "function"
    },
    {
      "inputs": [
        {
          "internalType": "string",
          "name": "fullName",
          "type": "string"
        },
        {
          "internalType": "string",
          "name": "directoryId",
          "type": "string"
        },
        {
          "internalType": "bytes",
          "name": "fileData",
          "type": "bytes"
        }
      ],
      "name": "add",
      "outputs": [
        {
          "internalType": "string",
          "name": "",
          "type": "string"
        }
      ],
      "stateMutability": "nonpayable",
      "type": "function"
    },
    {
      "inputs": [
        {
          "internalType": "string",
          "name": "fullName",
          "type": "string"
        }
      ],
      "name": "separateNameExe",
      "outputs": [
        {
          "internalType": "string",
          "name": "",
          "type": "string"
        },
        {
          "internalType": "string",
          "name": "",
          "type": "string"
        }
      ],
      "stateMutability": "pure",
      "type": "function"
    }
  ],
  "bytecode": "0x60806040526040518060400160405280600981526020017f225c2f5d3a3f3c3e7c0000000000000000000000000000000000000000000000815250600090816200004a919062000380565b507f2e00000000000000000000000000000000000000000000000000000000000000600160006101000a81548160ff021916908360f81c021790555060006003553480156200009857600080fd5b5060405162002295380380620022958339818101604052810190620000be9190620004e5565b80600460006101000a81548173ffffffffffffffffffffffffffffffffffffffff021916908373ffffffffffffffffffffffffffffffffffffffff1602179055505062000517565b600081519050919050565b7f4e487b7100000000000000000000000000000000000000000000000000000000600052604160045260246000fd5b7f4e487b7100000000000000000000000000000000000000000000000000000000600052602260045260246000fd5b600060028204905060018216806200018857607f821691505b6020821081036200019e576200019d62000140565b5b50919050565b60008190508160005260206000209050919050565b60006020601f8301049050919050565b600082821b905092915050565b600060088302620002087fffffffffffffffffffffffffffffffffffffffffffffffffffffffffffffffff82620001c9565b620002148683620001c9565b95508019841693508086168417925050509392505050565b6000819050919050565b6000819050919050565b6000620002616200025b62000255846200022c565b62000236565b6200022c565b9050919050565b6000819050919050565b6200027d8362000240565b620002956200028c8262000268565b848454620001d6565b825550505050565b600090565b620002ac6200029d565b620002b981848462000272565b505050565b5b81811015620002e157620002d5600082620002a2565b600181019050620002bf565b5050565b601f8211156200033057620002fa81620001a4565b6200030584620001b9565b8101602085101562000315578190505b6200032d6200032485620001b9565b830182620002be565b50505b505050565b600082821c905092915050565b6000620003556000198460080262000335565b1980831691505092915050565b600062000370838362000342565b9150826002028217905092915050565b6200038b8262000106565b67ffffffffffffffff811115620003a757620003a662000111565b5b620003b382546200016f565b620003c0828285620002e5565b600060209050601f831160018114620003f85760008415620003e3578287015190505b620003ef858262000362565b8655506200045f565b601f1984166200040886620001a4565b60005b8281101562000432578489015182556001820191506020850194506020810190506200040b565b868310156200045257848901516200044e601f89168262000342565b8355505b6001600288020188555050505b505050505050565b600080fd5b600073ffffffffffffffffffffffffffffffffffffffff82169050919050565b600062000499826200046c565b9050919050565b6000620004ad826200048c565b9050919050565b620004bf81620004a0565b8114620004cb57600080fd5b50565b600081519050620004df81620004b4565b92915050565b600060208284031215620004fe57620004fd62000467565b5b60006200050e84828501620004ce565b91505092915050565b611d6e80620005276000396000f3fe608060405234801561001057600080fd5b50600436106100415760003560e01c8063c22585c214610046578063c595403714610076578063c638ad05146100a6575b600080fd5b610060600480360381019061005b91906110bd565b6100d7565b60405161006d91906111ec565b60405180910390f35b610090600480360381019061008b91906112e2565b61067b565b60405161009d91906114c4565b60405180910390f35b6100c060048036038101906100bb91906114e6565b610b53565b6040516100ce92919061152f565b60405180910390f35b60608360008082905060006001905060e682511115610122576040517fc96b3aa100000000000000000000000000000000000000000000000000000000815260040160405180910390fd5b600082510361013057600090505b82156101db5760005b82518110156101d557600160009054906101000a900460f81b7effffffffffffffffffffffffffffffffffffffffffffffffffffffffffffff191683828151811061018757610186611566565b5b602001015160f81c60f81b7effffffffffffffffffffffffffffffffffffffffffffffffffffffffffffff1916036101c257600091506101d5565b80806101cd906115c4565b915050610139565b50610309565b6000905060005b825181101561027e57600160009054906101000a900460f81b7effffffffffffffffffffffffffffffffffffffffffffffffffffffffffffff19168382815181106102305761022f611566565b5b602001015160f81c60f81b7effffffffffffffffffffffffffffffffffffffffffffffffffffffffffffff19160361026b576001915061027e565b8080610276906115c4565b9150506101e2565b50600160009054906101000a900460f81b7effffffffffffffffffffffffffffffffffffffffffffffffffffffffffffff191682600184516102c0919061160c565b815181106102d1576102d0611566565b5b602001015160f81c60f81b7effffffffffffffffffffffffffffffffffffffffffffffffffffffffffffff19160361030857600090505b5b60005b825181101561042d5760005b600080546103259061166f565b905081101561041357600081815461033c9061166f565b811061034b5761034a611566565b5b81546001161561036a5790600052602060002090602091828204019190065b9054901a7f0100000000000000000000000000000000000000000000000000000000000000027effffffffffffffffffffffffffffffffffffffffffffffffffffffffffffff19168483815181106103c5576103c4611566565b5b602001015160f81c60f81b7effffffffffffffffffffffffffffffffffffffffffffffffffffffffffffff1916036104005760009250610413565b808061040b906115c4565b915050610318565b50811561042d578080610425906115c4565b91505061030c565b50801561063e576000600460009054906101000a900473ffffffffffffffffffffffffffffffffffffffff1673ffffffffffffffffffffffffffffffffffffffff1663a36885466040518163ffffffff1660e01b81526004016000604051808303816000875af11580156104a5573d6000803e3d6000fd5b505050506040513d6000823e3d601f19601f820116820180604052508101906104ce9190611710565b90506000806104dc8b610b53565b9150915060006040518060e001604052808581526020018c81526020018481526020018381526020018b81526020013373ffffffffffffffffffffffffffffffffffffffff1681526020014281525090506002819080600181540180825580915050600190039060005260206000209060070201600090919091909150600082015181600001908161056e9190611905565b5060208201518160010190816105849190611905565b50604082015181600201908161059a9190611905565b5060608201518160030190816105b09190611905565b5060808201518160040190816105c69190611a3d565b5060a08201518160050160006101000a81548173ffffffffffffffffffffffffffffffffffffffff021916908373ffffffffffffffffffffffffffffffffffffffff16021790555060c0820151816006015550506003600081548092919061062d906115c4565b919050555083985050505050610670565b6040517fb5d012b400000000000000000000000000000000000000000000000000000000815260040160405180910390fd5b505050509392505050565b60606000826020015167ffffffffffffffff81111561069d5761069c610ef1565b5b6040519080825280602002602001820160405280156106d657816020015b6106c3610ea1565b8152602001906001900390816106bb5790505b50905060008085905060005b600354811015610b465760006002828154811061070257610701611566565b5b90600052602060002090600702016040518060e001604052908160008201805461072b9061166f565b80601f01602080910402602001604051908101604052809291908181526020018280546107579061166f565b80156107a45780601f10610779576101008083540402835291602001916107a4565b820191906000526020600020905b81548152906001019060200180831161078757829003601f168201915b505050505081526020016001820180546107bd9061166f565b80601f01602080910402602001604051908101604052809291908181526020018280546107e99061166f565b80156108365780601f1061080b57610100808354040283529160200191610836565b820191906000526020600020905b81548152906001019060200180831161081957829003601f168201915b5050505050815260200160028201805461084f9061166f565b80601f016020809104026020016040519081016040528092919081815260200182805461087b9061166f565b80156108c85780601f1061089d576101008083540402835291602001916108c8565b820191906000526020600020905b8154815290600101906020018083116108ab57829003601f168201915b505050505081526020016003820180546108e19061166f565b80601f016020809104026020016040519081016040528092919081815260200182805461090d9061166f565b801561095a5780601f1061092f5761010080835404028352916020019161095a565b820191906000526020600020905b81548152906001019060200180831161093d57829003601f168201915b505050505081526020016004820180546109739061166f565b80601f016020809104026020016040519081016040528092919081815260200182805461099f9061166f565b80156109ec5780601f106109c1576101008083540402835291602001916109ec565b820191906000526020600020905b8154815290600101906020018083116109cf57829003601f168201915b505050505081526020016005820160009054906101000a900473ffffffffffffffffffffffffffffffffffffffff1673ffffffffffffffffffffffffffffffffffffffff1673ffffffffffffffffffffffffffffffffffffffff168152602001600682015481525050905060008160200151905073__Infrastructure________________________637da4831785836040518363ffffffff1660e01b8152600401610a99929190611b59565b602060405180830381865af4158015610ab6573d6000803e3d6000fd5b505050506040513d601f19601f82011682018060405250810190610ada9190611bc8565b15610b3157604051806060016040528083600001518152602001836040015181526020018360600151815250868680610b12906115c4565b975081518110610b2557610b24611566565b5b60200260200101819052505b50508080610b3e906115c4565b9150506106e2565b5082935050505092915050565b606080600080603267ffffffffffffffff811115610b7457610b73610ef1565b5b6040519080825280601f01601f191660200182016040528015610ba65781602001600182028036833780820191505090505b5090506000859050600060018251610bbe919061160c565b90505b6000828281518110610bd657610bd5611566565b5b602001015160f81c60f81b9050602e60f81b817effffffffffffffffffffffffffffffffffffffffffffffffffffffffffffff191603610c165750610cf0565b6031851115610c51576040517fb5d012b400000000000000000000000000000000000000000000000000000000815260040160405180910390fd5b80848681518110610c6557610c64611566565b5b60200101907effffffffffffffffffffffffffffffffffffffffffffffffffffffffffffff1916908160001a9053508480610c9f906115c4565b95505060008203610cdc576040517fb5d012b400000000000000000000000000000000000000000000000000000000815260040160405180910390fd5b508080610ce890611bf5565b915050610bc1565b73__Infrastructure________________________63c5249be984866040518363ffffffff1660e01b8152600401610d29929190611c2d565b600060405180830381865af4158015610d46573d6000803e3d6000fd5b505050506040513d6000823e3d601f19601f82011682018060405250810190610d6f9190611ccd565b925073__Infrastructure________________________632f278ecb846040518263ffffffff1660e01b8152600401610da89190611d16565b600060405180830381865af4158015610dc5573d6000803e3d6000fd5b505050506040513d6000823e3d601f19601f82011682018060405250810190610dee9190611ccd565b925060006001858451610e01919061160c565b610e0b919061160c565b9050600073__Infrastructure________________________63c5249be985846040518363ffffffff1660e01b8152600401610e48929190611c2d565b600060405180830381865af4158015610e65573d6000803e3d6000fd5b505050506040513d6000823e3d601f19601f82011682018060405250810190610e8e9190611ccd565b9050808597509750505050505050915091565b60405180606001604052806060815260200160608152602001606081525090565b6000604051905090565b600080fd5b600080fd5b600080fd5b600080fd5b6000601f19601f8301169050919050565b7f4e487b7100000000000000000000000000000000000000000000000000000000600052604160045260246000fd5b610f2982610ee0565b810181811067ffffffffffffffff82111715610f4857610f47610ef1565b5b80604052505050565b6000610f5b610ec2565b9050610f678282610f20565b919050565b600067ffffffffffffffff821115610f8757610f86610ef1565b5b610f9082610ee0565b9050602081019050919050565b82818337600083830152505050565b6000610fbf610fba84610f6c565b610f51565b905082815260208101848484011115610fdb57610fda610edb565b5b610fe6848285610f9d565b509392505050565b600082601f83011261100357611002610ed6565b5b8135611013848260208601610fac565b91505092915050565b600067ffffffffffffffff82111561103757611036610ef1565b5b61104082610ee0565b9050602081019050919050565b600061106061105b8461101c565b610f51565b90508281526020810184848401111561107c5761107b610edb565b5b611087848285610f9d565b509392505050565b600082601f8301126110a4576110a3610ed6565b5b81356110b484826020860161104d565b91505092915050565b6000806000606084860312156110d6576110d5610ecc565b5b600084013567ffffffffffffffff8111156110f4576110f3610ed1565b5b61110086828701610fee565b935050602084013567ffffffffffffffff81111561112157611120610ed1565b5b61112d86828701610fee565b925050604084013567ffffffffffffffff81111561114e5761114d610ed1565b5b61115a8682870161108f565b9150509250925092565b600081519050919050565b600082825260208201905092915050565b60005b8381101561119e578082015181840152602081019050611183565b838111156111ad576000848401525b50505050565b60006111be82611164565b6111c8818561116f565b93506111d8818560208601611180565b6111e181610ee0565b840191505092915050565b6000602082019050818103600083015261120681846111b3565b905092915050565b600080fd5b600080fd5b6000819050919050565b61122b81611218565b811461123657600080fd5b50565b60008135905061124881611222565b92915050565b6000608082840312156112645761126361120e565b5b61126e6080610f51565b9050600082013567ffffffffffffffff81111561128e5761128d611213565b5b61129a84828501610fee565b60008301525060206112ae84828501611239565b60208301525060406112c284828501611239565b60408301525060606112d684828501611239565b60608301525092915050565b600080604083850312156112f9576112f8610ecc565b5b600083013567ffffffffffffffff81111561131757611316610ed1565b5b61132385828601610fee565b925050602083013567ffffffffffffffff81111561134457611343610ed1565b5b6113508582860161124e565b9150509250929050565b600081519050919050565b600082825260208201905092915050565b6000819050602082019050919050565b600082825260208201905092915050565b60006113a282611164565b6113ac8185611386565b93506113bc818560208601611180565b6113c581610ee0565b840191505092915050565b600060608301600083015184820360008601526113ed8282611397565b915050602083015184820360208601526114078282611397565b915050604083015184820360408601526114218282611397565b9150508091505092915050565b600061143a83836113d0565b905092915050565b6000602082019050919050565b600061145a8261135a565b6114648185611365565b93508360208202850161147685611376565b8060005b858110156114b25784840389528151611493858261142e565b945061149e83611442565b925060208a0199505060018101905061147a565b50829750879550505050505092915050565b600060208201905081810360008301526114de818461144f565b905092915050565b6000602082840312156114fc576114fb610ecc565b5b600082013567ffffffffffffffff81111561151a57611519610ed1565b5b61152684828501610fee565b91505092915050565b6000604082019050818103600083015261154981856111b3565b9050818103602083015261155d81846111b3565b90509392505050565b7f4e487b7100000000000000000000000000000000000000000000000000000000600052603260045260246000fd5b7f4e487b7100000000000000000000000000000000000000000000000000000000600052601160045260246000fd5b60006115cf82611218565b91507fffffffffffffffffffffffffffffffffffffffffffffffffffffffffffffffff820361160157611600611595565b5b600182019050919050565b600061161782611218565b915061162283611218565b92508282101561163557611634611595565b5b828203905092915050565b7f4e487b7100000000000000000000000000000000000000000000000000000000600052602260045260246000fd5b6000600282049050600182168061168757607f821691505b60208210810361169a57611699611640565b5b50919050565b60006116b36116ae84610f6c565b610f51565b9050828152602081018484840111156116cf576116ce610edb565b5b6116da848285611180565b509392505050565b600082601f8301126116f7576116f6610ed6565b5b81516117078482602086016116a0565b91505092915050565b60006020828403121561172657611725610ecc565b5b600082015167ffffffffffffffff81111561174457611743610ed1565b5b611750848285016116e2565b91505092915050565b60008190508160005260206000209050919050565b60006020601f8301049050919050565b600082821b905092915050565b6000600883026117bb7fffffffffffffffffffffffffffffffffffffffffffffffffffffffffffffffff8261177e565b6117c5868361177e565b95508019841693508086168417925050509392505050565b6000819050919050565b60006118026117fd6117f884611218565b6117dd565b611218565b9050919050565b6000819050919050565b61181c836117e7565b61183061182882611809565b84845461178b565b825550505050565b600090565b611845611838565b611850818484611813565b505050565b5b818110156118745761186960008261183d565b600181019050611856565b5050565b601f8211156118b95761188a81611759565b6118938461176e565b810160208510156118a2578190505b6118b66118ae8561176e565b830182611855565b50505b505050565b600082821c905092915050565b60006118dc600019846008026118be565b1980831691505092915050565b60006118f583836118cb565b9150826002028217905092915050565b61190e82611164565b67ffffffffffffffff81111561192757611926610ef1565b5b611931825461166f565b61193c828285611878565b600060209050601f83116001811461196f576000841561195d578287015190505b61196785826118e9565b8655506119cf565b601f19841661197d86611759565b60005b828110156119a557848901518255600182019150602085019450602081019050611980565b868310156119c257848901516119be601f8916826118cb565b8355505b6001600288020188555050505b505050505050565b600081519050919050565b60008190508160005260206000209050919050565b601f821115611a3857611a09816119e2565b611a128461176e565b81016020851015611a21578190505b611a35611a2d8561176e565b830182611855565b50505b505050565b611a46826119d7565b67ffffffffffffffff811115611a5f57611a5e610ef1565b5b611a69825461166f565b611a748282856119f7565b600060209050601f831160018114611aa75760008415611a95578287015190505b611a9f85826118e9565b865550611b07565b601f198416611ab5866119e2565b60005b82811015611add57848901518255600182019150602085019450602081019050611ab8565b86831015611afa5784890151611af6601f8916826118cb565b8355505b6001600288020188555050505b505050505050565b600082825260208201905092915050565b6000611b2b826119d7565b611b358185611b0f565b9350611b45818560208601611180565b611b4e81610ee0565b840191505092915050565b60006040820190508181036000830152611b738185611b20565b90508181036020830152611b878184611b20565b90509392505050565b60008115159050919050565b611ba581611b90565b8114611bb057600080fd5b50565b600081519050611bc281611b9c565b92915050565b600060208284031215611bde57611bdd610ecc565b5b6000611bec84828501611bb3565b91505092915050565b6000611c0082611218565b915060008203611c1357611c12611595565b5b600182039050919050565b611c2781611218565b82525050565b60006040820190508181036000830152611c478185611b20565b9050611c566020830184611c1e565b9392505050565b6000611c70611c6b8461101c565b610f51565b905082815260208101848484011115611c8c57611c8b610edb565b5b611c97848285611180565b509392505050565b600082601f830112611cb457611cb3610ed6565b5b8151611cc4848260208601611c5d565b91505092915050565b600060208284031215611ce357611ce2610ecc565b5b600082015167ffffffffffffffff811115611d0157611d00610ed1565b5b611d0d84828501611c9f565b91505092915050565b60006020820190508181036000830152611d308184611b20565b90509291505056fea26469706673582212205c57d94133f079374667f184011472f478d718cd9aaa18cc2021a9a3e2b5befd64736f6c634300080f0033",
  "immutableReferences": {},
  "source": "// SPDX-License-Identifier: MIT\npragma solidity ^0.8;\nimport \"@openzeppelin/contracts/utils/Strings.sol\";\nimport \"../Entities/FileFrame.sol\";\nimport \"../Entities/DirectoryInfoFrame.sol\";\nimport \"./BaseNameDeclaration.sol\";\nimport {UniqueIdGenerator} from \"../BusinessHelper/UniqueIdGenerator.sol\";\nimport \"../BusinessHelper/Infrastructure.sol\";\nimport \"../ViewModels/FileOutput.sol\";\n\ncontract FileRepository is BaseNameDeclaration {\n    //data of files\n    FileFrame[] private data;\n    uint256 private count = 0;\n    UniqueIdGenerator private _uniqueIdGenerator;\n\n    constructor(UniqueIdGenerator uniqueIdGenerator) {\n        _uniqueIdGenerator = uniqueIdGenerator;\n    }\n\n    function getSubFiles(\n        string memory directoryId,\n        DirectoryInfoFrame memory directoryInfo\n    ) public view returns (FileOutput[] memory) {\n        FileOutput[] memory result = new FileOutput[](directoryInfo.FilesCount);\n        uint256 j = 0;\n        bytes memory b_directoryId = bytes(directoryId);\n        for (uint256 i = 0; i < count; i++) {\n            FileFrame memory item = data[i];\n            bytes memory fileDirectoryId = bytes(item.DirectoryId);\n            if (Infrastructure.bytesEquals(b_directoryId, fileDirectoryId)) {\n                result[j++] = FileOutput(item.Id, item.Name, item.Extension);\n            }\n        }\n        return (result);\n    }\n\n    function add(\n        string memory fullName,\n        string memory directoryId,\n        bytes memory fileData\n    ) public isAllowedName(fullName, false) returns (string memory) {\n        string memory id = _uniqueIdGenerator.uniqId();\n        (string memory name, string memory extension) = separateNameExe(\n            fullName\n        );\n        FileFrame memory newFile = FileFrame(\n            id,\n            directoryId,\n            name,\n            extension,\n            fileData,\n            msg.sender,\n            block.timestamp\n        );\n        data.push(newFile);\n        count++;\n        return id;\n    }\n\n    function separateNameExe(\n        string memory fullName\n    ) public pure returns (string memory, string memory) {\n        uint256 extensionCount = 0;\n        bytes memory extension = new bytes(50);\n        bytes memory b_fullName = bytes(fullName);\n        uint256 i = (b_fullName.length - 1);\n        for (; ; i--) {\n            bytes1 b_char = b_fullName[i];\n            if (b_char == 0x2E) {\n                break;\n            }\n            if (extensionCount > 49) {\n                revert unsupportedName();\n            }\n            extension[extensionCount] = b_char;\n            extensionCount++;\n            if (i == 0) {\n                revert unsupportedName();\n            }\n        }\n        extension = Infrastructure.copyBytes(extension, extensionCount);\n        extension = Infrastructure.reverseBytes(extension);\n        uint256 nameCount = (b_fullName.length - extensionCount - 1);\n        bytes memory fileName = Infrastructure.copyBytes(b_fullName, nameCount);\n        return (string(fileName), string(extension));\n    }\n}\n",
  "sourcePath": "C:\\Amir\\X7Opsilon\\smart_contract\\contracts\\Repositories\\FileRepository.sol",
  "compiler": {
    "name": "solc",
    "version": "0.8.15+commit.e14f2714.Emscripten.clang"
  },
  "schemaVersion": "3.4.14",
  "updatedAt": "2023-07-25T19:58:56.640Z",
  "devdoc": {
    "kind": "dev",
    "methods": {},
    "version": 1
  },
  "userdoc": {
    "kind": "user",
    "methods": {},
    "version": 1
  }
}