{
  "contractName": "FileRepository",
  "abi": [
    {
      "inputs": [
        {
          "internalType": "contract UniqueIdGenerator",
          "name": "uniqueIdGenerator",
          "type": "address"
        }
      ],
      "stateMutability": "nonpayable",
      "type": "constructor"
    },
    {
      "inputs": [],
      "name": "notfound",
      "type": "error"
    },
    {
      "inputs": [],
      "name": "notfoundDirectory",
      "type": "error"
    },
    {
      "inputs": [],
      "name": "unsupportedName",
      "type": "error"
    },
    {
      "inputs": [],
      "name": "unsupportedSize",
      "type": "error"
    },
    {
      "inputs": [
        {
          "components": [
            {
              "internalType": "string",
              "name": "DirectoryId",
              "type": "string"
            },
            {
              "internalType": "uint256",
              "name": "FilesCount",
              "type": "uint256"
            },
            {
              "internalType": "uint256",
              "name": "DirectoriesCount",
              "type": "uint256"
            },
            {
              "internalType": "uint256",
              "name": "Size",
              "type": "uint256"
            }
          ],
          "internalType": "struct DirectoryInfoFrame",
          "name": "directoryInfo",
          "type": "tuple"
        }
      ],
      "name": "getSubFiles",
      "outputs": [
        {
          "components": [
            {
              "internalType": "string",
              "name": "Id",
              "type": "string"
            },
            {
              "internalType": "string",
              "name": "Name",
              "type": "string"
            },
            {
              "internalType": "string",
              "name": "Extension",
              "type": "string"
            }
          ],
          "internalType": "struct FileOutput[]",
          "name": "",
          "type": "tuple[]"
        }
      ],
      "stateMutability": "view",
      "type": "function"
    },
    {
      "inputs": [
        {
          "internalType": "address",
          "name": "user",
          "type": "address"
        },
        {
          "internalType": "string",
          "name": "fullName",
          "type": "string"
        },
        {
          "internalType": "string",
          "name": "directoryId",
          "type": "string"
        },
        {
          "internalType": "bytes",
          "name": "fileData",
          "type": "bytes"
        }
      ],
      "name": "add",
      "outputs": [
        {
          "internalType": "string",
          "name": "",
          "type": "string"
        }
      ],
      "stateMutability": "nonpayable",
      "type": "function"
    },
    {
      "inputs": [
        {
          "internalType": "string",
          "name": "fullName",
          "type": "string"
        }
      ],
      "name": "separateNameExe",
      "outputs": [
        {
          "internalType": "string",
          "name": "",
          "type": "string"
        },
        {
          "internalType": "string",
          "name": "",
          "type": "string"
        }
      ],
      "stateMutability": "pure",
      "type": "function"
    },
    {
      "inputs": [
        {
          "internalType": "uint256",
          "name": "index",
          "type": "uint256"
        }
      ],
      "name": "getByIndex",
      "outputs": [
        {
          "components": [
            {
              "internalType": "string",
              "name": "Id",
              "type": "string"
            },
            {
              "internalType": "string",
              "name": "DirectoryId",
              "type": "string"
            },
            {
              "internalType": "string",
              "name": "Name",
              "type": "string"
            },
            {
              "internalType": "string",
              "name": "Extension",
              "type": "string"
            },
            {
              "internalType": "bytes",
              "name": "FileData",
              "type": "bytes"
            },
            {
              "internalType": "address",
              "name": "Creator",
              "type": "address"
            },
            {
              "internalType": "uint256",
              "name": "DateCreated",
              "type": "uint256"
            }
          ],
          "internalType": "struct FileFrame",
          "name": "",
          "type": "tuple"
        }
      ],
      "stateMutability": "payable",
      "type": "function"
    }
  ],
  "bytecode": "0x60806040526040518060400160405280600981526020017f225c2f5d3a3f3c3e7c0000000000000000000000000000000000000000000000815250600090816200004a919062000380565b507f2e00000000000000000000000000000000000000000000000000000000000000600160006101000a81548160ff021916908360f81c021790555060006003553480156200009857600080fd5b506040516200286f3803806200286f8339818101604052810190620000be9190620004e5565b80600460006101000a81548173ffffffffffffffffffffffffffffffffffffffff021916908373ffffffffffffffffffffffffffffffffffffffff1602179055505062000517565b600081519050919050565b7f4e487b7100000000000000000000000000000000000000000000000000000000600052604160045260246000fd5b7f4e487b7100000000000000000000000000000000000000000000000000000000600052602260045260246000fd5b600060028204905060018216806200018857607f821691505b6020821081036200019e576200019d62000140565b5b50919050565b60008190508160005260206000209050919050565b60006020601f8301049050919050565b600082821b905092915050565b600060088302620002087fffffffffffffffffffffffffffffffffffffffffffffffffffffffffffffffff82620001c9565b620002148683620001c9565b95508019841693508086168417925050509392505050565b6000819050919050565b6000819050919050565b6000620002616200025b62000255846200022c565b62000236565b6200022c565b9050919050565b6000819050919050565b6200027d8362000240565b620002956200028c8262000268565b848454620001d6565b825550505050565b600090565b620002ac6200029d565b620002b981848462000272565b505050565b5b81811015620002e157620002d5600082620002a2565b600181019050620002bf565b5050565b601f8211156200033057620002fa81620001a4565b6200030584620001b9565b8101602085101562000315578190505b6200032d6200032485620001b9565b830182620002be565b50505b505050565b600082821c905092915050565b6000620003556000198460080262000335565b1980831691505092915050565b600062000370838362000342565b9150826002028217905092915050565b6200038b8262000106565b67ffffffffffffffff811115620003a757620003a662000111565b5b620003b382546200016f565b620003c0828285620002e5565b600060209050601f831160018114620003f85760008415620003e3578287015190505b620003ef858262000362565b8655506200045f565b601f1984166200040886620001a4565b60005b8281101562000432578489015182556001820191506020850194506020810190506200040b565b868310156200045257848901516200044e601f89168262000342565b8355505b6001600288020188555050505b505050505050565b600080fd5b600073ffffffffffffffffffffffffffffffffffffffff82169050919050565b600062000499826200046c565b9050919050565b6000620004ad826200048c565b9050919050565b620004bf81620004a0565b8114620004cb57600080fd5b50565b600081519050620004df81620004b4565b92915050565b600060208284031215620004fe57620004fd62000467565b5b60006200050e84828501620004ce565b91505092915050565b61234880620005276000396000f3fe60806040526004361061003f5760003560e01c80632d883a7314610044578063b541468314610074578063c638ad05146100b1578063f9fe375d146100ef575b600080fd5b61005e60048036038101906100599190611334565b61012c565b60405161006b9190611557565b60405180910390f35b34801561008057600080fd5b5061009b6004803603810190610096919061174c565b6104a8565b6040516100a891906118b5565b60405180910390f35b3480156100bd57600080fd5b506100d860048036038101906100d391906118d7565b610983565b6040516100e692919061196a565b60405180910390f35b3480156100fb57600080fd5b5061011660048036038101906101119190611a6e565b610cd1565b6040516101239190611b29565b60405180910390f35b610134611276565b60006002838154811061014a57610149611b4b565b5b90600052602060002090600702019050806040518060e001604052908160008201805461017690611ba9565b80601f01602080910402602001604051908101604052809291908181526020018280546101a290611ba9565b80156101ef5780601f106101c4576101008083540402835291602001916101ef565b820191906000526020600020905b8154815290600101906020018083116101d257829003601f168201915b5050505050815260200160018201805461020890611ba9565b80601f016020809104026020016040519081016040528092919081815260200182805461023490611ba9565b80156102815780601f1061025657610100808354040283529160200191610281565b820191906000526020600020905b81548152906001019060200180831161026457829003601f168201915b5050505050815260200160028201805461029a90611ba9565b80601f01602080910402602001604051908101604052809291908181526020018280546102c690611ba9565b80156103135780601f106102e857610100808354040283529160200191610313565b820191906000526020600020905b8154815290600101906020018083116102f657829003601f168201915b5050505050815260200160038201805461032c90611ba9565b80601f016020809104026020016040519081016040528092919081815260200182805461035890611ba9565b80156103a55780601f1061037a576101008083540402835291602001916103a5565b820191906000526020600020905b81548152906001019060200180831161038857829003601f168201915b505050505081526020016004820180546103be90611ba9565b80601f01602080910402602001604051908101604052809291908181526020018280546103ea90611ba9565b80156104375780601f1061040c57610100808354040283529160200191610437565b820191906000526020600020905b81548152906001019060200180831161041a57829003601f168201915b505050505081526020016005820160009054906101000a900473ffffffffffffffffffffffffffffffffffffffff1673ffffffffffffffffffffffffffffffffffffffff1673ffffffffffffffffffffffffffffffffffffffff168152602001600682015481525050915050919050565b60606000826020015167ffffffffffffffff8111156104ca576104c961157e565b5b60405190808252806020026020018201604052801561050357816020015b6104f06112c9565b8152602001906001900390816104e85790505b5090506000808460000151905060005b6003548110156109775760006002828154811061053357610532611b4b565b5b90600052602060002090600702016040518060e001604052908160008201805461055c90611ba9565b80601f016020809104026020016040519081016040528092919081815260200182805461058890611ba9565b80156105d55780601f106105aa576101008083540402835291602001916105d5565b820191906000526020600020905b8154815290600101906020018083116105b857829003601f168201915b505050505081526020016001820180546105ee90611ba9565b80601f016020809104026020016040519081016040528092919081815260200182805461061a90611ba9565b80156106675780601f1061063c57610100808354040283529160200191610667565b820191906000526020600020905b81548152906001019060200180831161064a57829003601f168201915b5050505050815260200160028201805461068090611ba9565b80601f01602080910402602001604051908101604052809291908181526020018280546106ac90611ba9565b80156106f95780601f106106ce576101008083540402835291602001916106f9565b820191906000526020600020905b8154815290600101906020018083116106dc57829003601f168201915b5050505050815260200160038201805461071290611ba9565b80601f016020809104026020016040519081016040528092919081815260200182805461073e90611ba9565b801561078b5780601f106107605761010080835404028352916020019161078b565b820191906000526020600020905b81548152906001019060200180831161076e57829003601f168201915b505050505081526020016004820180546107a490611ba9565b80601f01602080910402602001604051908101604052809291908181526020018280546107d090611ba9565b801561081d5780601f106107f25761010080835404028352916020019161081d565b820191906000526020600020905b81548152906001019060200180831161080057829003601f168201915b505050505081526020016005820160009054906101000a900473ffffffffffffffffffffffffffffffffffffffff1673ffffffffffffffffffffffffffffffffffffffff1673ffffffffffffffffffffffffffffffffffffffff168152602001600682015481525050905060008160200151905073__Infrastructure________________________637da4831785836040518363ffffffff1660e01b81526004016108ca929190611c24565b602060405180830381865af41580156108e7573d6000803e3d6000fd5b505050506040513d601f19601f8201168201806040525081019061090b9190611c93565b156109625760405180606001604052808360000151815260200183604001518152602001836060015181525086868061094390611cef565b97508151811061095657610955611b4b565b5b60200260200101819052505b5050808061096f90611cef565b915050610513565b50829350505050919050565b606080600080603267ffffffffffffffff8111156109a4576109a361157e565b5b6040519080825280601f01601f1916602001820160405280156109d65781602001600182028036833780820191505090505b50905060008590506000600182516109ee9190611d37565b90505b6000828281518110610a0657610a05611b4b565b5b602001015160f81c60f81b9050602e60f81b817effffffffffffffffffffffffffffffffffffffffffffffffffffffffffffff191603610a465750610b20565b6031851115610a81576040517fb5d012b400000000000000000000000000000000000000000000000000000000815260040160405180910390fd5b80848681518110610a9557610a94611b4b565b5b60200101907effffffffffffffffffffffffffffffffffffffffffffffffffffffffffffff1916908160001a9053508480610acf90611cef565b95505060008203610b0c576040517fb5d012b400000000000000000000000000000000000000000000000000000000815260040160405180910390fd5b508080610b1890611d6b565b9150506109f1565b73__Infrastructure________________________63c5249be984866040518363ffffffff1660e01b8152600401610b59929190611da3565b600060405180830381865af4158015610b76573d6000803e3d6000fd5b505050506040513d6000823e3d601f19601f82011682018060405250810190610b9f9190611e43565b925073__Infrastructure________________________632f278ecb846040518263ffffffff1660e01b8152600401610bd89190611e8c565b600060405180830381865af4158015610bf5573d6000803e3d6000fd5b505050506040513d6000823e3d601f19601f82011682018060405250810190610c1e9190611e43565b925060006001858451610c319190611d37565b610c3b9190611d37565b9050600073__Infrastructure________________________63c5249be985846040518363ffffffff1660e01b8152600401610c78929190611da3565b600060405180830381865af4158015610c95573d6000803e3d6000fd5b505050506040513d6000823e3d601f19601f82011682018060405250810190610cbe9190611e43565b9050808597509750505050505050915091565b60608360008082905060006001905060e682511115610d1c576040517fc96b3aa100000000000000000000000000000000000000000000000000000000815260040160405180910390fd5b6000825103610d2a57600090505b8215610dd55760005b8251811015610dcf57600160009054906101000a900460f81b7effffffffffffffffffffffffffffffffffffffffffffffffffffffffffffff1916838281518110610d8157610d80611b4b565b5b602001015160f81c60f81b7effffffffffffffffffffffffffffffffffffffffffffffffffffffffffffff191603610dbc5760009150610dcf565b8080610dc790611cef565b915050610d33565b50610f03565b6000905060005b8251811015610e7857600160009054906101000a900460f81b7effffffffffffffffffffffffffffffffffffffffffffffffffffffffffffff1916838281518110610e2a57610e29611b4b565b5b602001015160f81c60f81b7effffffffffffffffffffffffffffffffffffffffffffffffffffffffffffff191603610e655760019150610e78565b8080610e7090611cef565b915050610ddc565b50600160009054906101000a900460f81b7effffffffffffffffffffffffffffffffffffffffffffffffffffffffffffff19168260018451610eba9190611d37565b81518110610ecb57610eca611b4b565b5b602001015160f81c60f81b7effffffffffffffffffffffffffffffffffffffffffffffffffffffffffffff191603610f0257600090505b5b60005b82518110156110275760005b60008054610f1f90611ba9565b905081101561100d576000818154610f3690611ba9565b8110610f4557610f44611b4b565b5b815460011615610f645790600052602060002090602091828204019190065b9054901a7f0100000000000000000000000000000000000000000000000000000000000000027effffffffffffffffffffffffffffffffffffffffffffffffffffffffffffff1916848381518110610fbf57610fbe611b4b565b5b602001015160f81c60f81b7effffffffffffffffffffffffffffffffffffffffffffffffffffffffffffff191603610ffa576000925061100d565b808061100590611cef565b915050610f12565b50811561102757808061101f90611cef565b915050610f06565b508015611238576000600460009054906101000a900473ffffffffffffffffffffffffffffffffffffffff1673ffffffffffffffffffffffffffffffffffffffff1663a36885466040518163ffffffff1660e01b81526004016000604051808303816000875af115801561109f573d6000803e3d6000fd5b505050506040513d6000823e3d601f19601f820116820180604052508101906110c89190611f1e565b90506000806110d68b610983565b9150915060006040518060e001604052808581526020018c81526020018481526020018381526020018b81526020018e73ffffffffffffffffffffffffffffffffffffffff168152602001428152509050600281908060018154018082558091505060019003906000526020600020906007020160009091909190915060008201518160000190816111689190612113565b50602082015181600101908161117e9190612113565b5060408201518160020190816111949190612113565b5060608201518160030190816111aa9190612113565b5060808201518160040190816111c09190612240565b5060a08201518160050160006101000a81548173ffffffffffffffffffffffffffffffffffffffff021916908373ffffffffffffffffffffffffffffffffffffffff16021790555060c0820151816006015550506003600081548092919061122790611cef565b91905055508398505050505061126a565b6040517fb5d012b400000000000000000000000000000000000000000000000000000000815260040160405180910390fd5b50505050949350505050565b6040518060e001604052806060815260200160608152602001606081526020016060815260200160608152602001600073ffffffffffffffffffffffffffffffffffffffff168152602001600081525090565b60405180606001604052806060815260200160608152602001606081525090565b6000604051905090565b600080fd5b600080fd5b6000819050919050565b611311816112fe565b811461131c57600080fd5b50565b60008135905061132e81611308565b92915050565b60006020828403121561134a576113496112f4565b5b60006113588482850161131f565b91505092915050565b600081519050919050565b600082825260208201905092915050565b60005b8381101561139b578082015181840152602081019050611380565b838111156113aa576000848401525b50505050565b6000601f19601f8301169050919050565b60006113cc82611361565b6113d6818561136c565b93506113e681856020860161137d565b6113ef816113b0565b840191505092915050565b600081519050919050565b600082825260208201905092915050565b6000611421826113fa565b61142b8185611405565b935061143b81856020860161137d565b611444816113b0565b840191505092915050565b600073ffffffffffffffffffffffffffffffffffffffff82169050919050565b600061147a8261144f565b9050919050565b61148a8161146f565b82525050565b611499816112fe565b82525050565b600060e08301600083015184820360008601526114bc82826113c1565b915050602083015184820360208601526114d682826113c1565b915050604083015184820360408601526114f082826113c1565b9150506060830151848203606086015261150a82826113c1565b915050608083015184820360808601526115248282611416565b91505060a083015161153960a0860182611481565b5060c083015161154c60c0860182611490565b508091505092915050565b60006020820190508181036000830152611571818461149f565b905092915050565b600080fd5b7f4e487b7100000000000000000000000000000000000000000000000000000000600052604160045260246000fd5b6115b6826113b0565b810181811067ffffffffffffffff821117156115d5576115d461157e565b5b80604052505050565b60006115e86112ea565b90506115f482826115ad565b919050565b600080fd5b600080fd5b600080fd5b600067ffffffffffffffff8211156116235761162261157e565b5b61162c826113b0565b9050602081019050919050565b82818337600083830152505050565b600061165b61165684611608565b6115de565b90508281526020810184848401111561167757611676611603565b5b611682848285611639565b509392505050565b600082601f83011261169f5761169e6115fe565b5b81356116af848260208601611648565b91505092915050565b6000608082840312156116ce576116cd611579565b5b6116d860806115de565b9050600082013567ffffffffffffffff8111156116f8576116f76115f9565b5b6117048482850161168a565b60008301525060206117188482850161131f565b602083015250604061172c8482850161131f565b60408301525060606117408482850161131f565b60608301525092915050565b600060208284031215611762576117616112f4565b5b600082013567ffffffffffffffff8111156117805761177f6112f9565b5b61178c848285016116b8565b91505092915050565b600081519050919050565b600082825260208201905092915050565b6000819050602082019050919050565b600060608301600083015184820360008601526117de82826113c1565b915050602083015184820360208601526117f882826113c1565b9150506040830151848203604086015261181282826113c1565b9150508091505092915050565b600061182b83836117c1565b905092915050565b6000602082019050919050565b600061184b82611795565b61185581856117a0565b935083602082028501611867856117b1565b8060005b858110156118a35784840389528151611884858261181f565b945061188f83611833565b925060208a0199505060018101905061186b565b50829750879550505050505092915050565b600060208201905081810360008301526118cf8184611840565b905092915050565b6000602082840312156118ed576118ec6112f4565b5b600082013567ffffffffffffffff81111561190b5761190a6112f9565b5b6119178482850161168a565b91505092915050565b600082825260208201905092915050565b600061193c82611361565b6119468185611920565b935061195681856020860161137d565b61195f816113b0565b840191505092915050565b600060408201905081810360008301526119848185611931565b905081810360208301526119988184611931565b90509392505050565b6119aa8161146f565b81146119b557600080fd5b50565b6000813590506119c7816119a1565b92915050565b600067ffffffffffffffff8211156119e8576119e761157e565b5b6119f1826113b0565b9050602081019050919050565b6000611a11611a0c846119cd565b6115de565b905082815260208101848484011115611a2d57611a2c611603565b5b611a38848285611639565b509392505050565b600082601f830112611a5557611a546115fe565b5b8135611a658482602086016119fe565b91505092915050565b60008060008060808587031215611a8857611a876112f4565b5b6000611a96878288016119b8565b945050602085013567ffffffffffffffff811115611ab757611ab66112f9565b5b611ac38782880161168a565b935050604085013567ffffffffffffffff811115611ae457611ae36112f9565b5b611af08782880161168a565b925050606085013567ffffffffffffffff811115611b1157611b106112f9565b5b611b1d87828801611a40565b91505092959194509250565b60006020820190508181036000830152611b438184611931565b905092915050565b7f4e487b7100000000000000000000000000000000000000000000000000000000600052603260045260246000fd5b7f4e487b7100000000000000000000000000000000000000000000000000000000600052602260045260246000fd5b60006002820490506001821680611bc157607f821691505b602082108103611bd457611bd3611b7a565b5b50919050565b600082825260208201905092915050565b6000611bf6826113fa565b611c008185611bda565b9350611c1081856020860161137d565b611c19816113b0565b840191505092915050565b60006040820190508181036000830152611c3e8185611beb565b90508181036020830152611c528184611beb565b90509392505050565b60008115159050919050565b611c7081611c5b565b8114611c7b57600080fd5b50565b600081519050611c8d81611c67565b92915050565b600060208284031215611ca957611ca86112f4565b5b6000611cb784828501611c7e565b91505092915050565b7f4e487b7100000000000000000000000000000000000000000000000000000000600052601160045260246000fd5b6000611cfa826112fe565b91507fffffffffffffffffffffffffffffffffffffffffffffffffffffffffffffffff8203611d2c57611d2b611cc0565b5b600182019050919050565b6000611d42826112fe565b9150611d4d836112fe565b925082821015611d6057611d5f611cc0565b5b828203905092915050565b6000611d76826112fe565b915060008203611d8957611d88611cc0565b5b600182039050919050565b611d9d816112fe565b82525050565b60006040820190508181036000830152611dbd8185611beb565b9050611dcc6020830184611d94565b9392505050565b6000611de6611de1846119cd565b6115de565b905082815260208101848484011115611e0257611e01611603565b5b611e0d84828561137d565b509392505050565b600082601f830112611e2a57611e296115fe565b5b8151611e3a848260208601611dd3565b91505092915050565b600060208284031215611e5957611e586112f4565b5b600082015167ffffffffffffffff811115611e7757611e766112f9565b5b611e8384828501611e15565b91505092915050565b60006020820190508181036000830152611ea68184611beb565b905092915050565b6000611ec1611ebc84611608565b6115de565b905082815260208101848484011115611edd57611edc611603565b5b611ee884828561137d565b509392505050565b600082601f830112611f0557611f046115fe565b5b8151611f15848260208601611eae565b91505092915050565b600060208284031215611f3457611f336112f4565b5b600082015167ffffffffffffffff811115611f5257611f516112f9565b5b611f5e84828501611ef0565b91505092915050565b60008190508160005260206000209050919050565b60006020601f8301049050919050565b600082821b905092915050565b600060088302611fc97fffffffffffffffffffffffffffffffffffffffffffffffffffffffffffffffff82611f8c565b611fd38683611f8c565b95508019841693508086168417925050509392505050565b6000819050919050565b600061201061200b612006846112fe565b611feb565b6112fe565b9050919050565b6000819050919050565b61202a83611ff5565b61203e61203682612017565b848454611f99565b825550505050565b600090565b612053612046565b61205e818484612021565b505050565b5b818110156120825761207760008261204b565b600181019050612064565b5050565b601f8211156120c75761209881611f67565b6120a184611f7c565b810160208510156120b0578190505b6120c46120bc85611f7c565b830182612063565b50505b505050565b600082821c905092915050565b60006120ea600019846008026120cc565b1980831691505092915050565b600061210383836120d9565b9150826002028217905092915050565b61211c82611361565b67ffffffffffffffff8111156121355761213461157e565b5b61213f8254611ba9565b61214a828285612086565b600060209050601f83116001811461217d576000841561216b578287015190505b61217585826120f7565b8655506121dd565b601f19841661218b86611f67565b60005b828110156121b35784890151825560018201915060208501945060208101905061218e565b868310156121d057848901516121cc601f8916826120d9565b8355505b6001600288020188555050505b505050505050565b60008190508160005260206000209050919050565b601f82111561223b5761220c816121e5565b61221584611f7c565b81016020851015612224578190505b61223861223085611f7c565b830182612063565b50505b505050565b612249826113fa565b67ffffffffffffffff8111156122625761226161157e565b5b61226c8254611ba9565b6122778282856121fa565b600060209050601f8311600181146122aa5760008415612298578287015190505b6122a285826120f7565b86555061230a565b601f1984166122b8866121e5565b60005b828110156122e0578489015182556001820191506020850194506020810190506122bb565b868310156122fd57848901516122f9601f8916826120d9565b8355505b6001600288020188555050505b50505050505056fea2646970667358221220b1f9e625ef238f321e9fc9aedb7fe16636e91d67252665c2b295c241fbd5730564736f6c634300080f0033",
  "immutableReferences": {},
  "source": "// SPDX-License-Identifier: MIT\npragma solidity ^0.8;\nimport \"@openzeppelin/contracts/utils/Strings.sol\";\nimport \"../Entities/FileFrame.sol\";\nimport \"../Entities/DirectoryInfoFrame.sol\";\nimport \"./BaseNameDeclaration.sol\";\nimport {UniqueIdGenerator} from \"../BusinessHelper/UniqueIdGenerator.sol\";\nimport \"../BusinessHelper/Infrastructure.sol\";\nimport \"../ViewModels/FileOutput.sol\";\n\ncontract FileRepository is BaseNameDeclaration {\n    //data of files\n    FileFrame[] private data;\n    uint256 private count = 0;\n    UniqueIdGenerator private _uniqueIdGenerator;\n\n    constructor(UniqueIdGenerator uniqueIdGenerator) {\n        _uniqueIdGenerator = uniqueIdGenerator;\n    }\n\n    function getSubFiles(DirectoryInfoFrame memory directoryInfo)\n        public\n        view\n        returns (FileOutput[] memory)\n    {\n        FileOutput[] memory result = new FileOutput[](directoryInfo.FilesCount);\n        uint256 j = 0;\n        bytes memory b_directoryId = bytes(directoryInfo.DirectoryId);\n        for (uint256 i = 0; i < count; i++) {\n            FileFrame memory item = data[i];\n            bytes memory fileDirectoryId = bytes(item.DirectoryId);\n            if (Infrastructure.bytesEquals(b_directoryId, fileDirectoryId)) {\n                result[j++] = FileOutput(item.Id, item.Name, item.Extension);\n            }\n        }\n        return (result);\n    }\n\n    function add(\n        address user,\n        string memory fullName,\n        string memory directoryId,\n        bytes memory fileData\n    ) public isAllowedName(fullName, false) returns (string memory) {\n        string memory id = _uniqueIdGenerator.uniqId();\n        (string memory name, string memory extension) = separateNameExe(\n            fullName\n        );\n        FileFrame memory newFile = FileFrame(\n            id,\n            directoryId,\n            name,\n            extension,\n            fileData,\n            user,\n            block.timestamp\n        );\n        data.push(newFile);\n        count++;\n        return id;\n    }\n\n    function separateNameExe(string memory fullName)\n        public\n        pure\n        returns (string memory, string memory)\n    {\n        uint256 extensionCount = 0;\n        bytes memory extension = new bytes(50);\n        bytes memory b_fullName = bytes(fullName);\n        uint256 i = (b_fullName.length - 1);\n        for (; ; i--) {\n            bytes1 b_char = b_fullName[i];\n            if (b_char == 0x2E) {\n                break;\n            }\n            if (extensionCount > 49) {\n                revert unsupportedName();\n            }\n            extension[extensionCount] = b_char;\n            extensionCount++;\n            if (i == 0) {\n                revert unsupportedName();\n            }\n        }\n        extension = Infrastructure.copyBytes(extension, extensionCount);\n        extension = Infrastructure.reverseBytes(extension);\n        uint256 nameCount = (b_fullName.length - extensionCount - 1);\n        bytes memory fileName = Infrastructure.copyBytes(b_fullName, nameCount);\n        return (string(fileName), string(extension));\n    }\n\n    function getByIndex(uint256 index)\n        public\n        payable\n        returns (FileFrame memory)\n    {\n        FileFrame storage file = data[index];\n\n        return file;\n    }\n}\n",
  "sourcePath": "C:\\Amir\\X7Opsilon\\smart_contract\\contracts\\Repositories\\FileRepository.sol",
  "compiler": {
    "name": "solc",
    "version": "0.8.15+commit.e14f2714.Emscripten.clang"
  },
  "schemaVersion": "3.4.14",
  "updatedAt": "2023-07-29T16:38:47.992Z",
  "devdoc": {
    "kind": "dev",
    "methods": {},
    "version": 1
  },
  "userdoc": {
    "kind": "user",
    "methods": {},
    "version": 1
  }
}