{
  "contractName": "FileRepository",
  "abi": [
    {
      "inputs": [
        {
          "internalType": "contract UniqueIdGenerator",
          "name": "uniqueIdGenerator",
          "type": "address"
        }
      ],
      "stateMutability": "nonpayable",
      "type": "constructor"
    },
    {
      "inputs": [],
      "name": "notfound",
      "type": "error"
    },
    {
      "inputs": [],
      "name": "notfoundDirectory",
      "type": "error"
    },
    {
      "inputs": [],
      "name": "unsupportedName",
      "type": "error"
    },
    {
      "inputs": [],
      "name": "unsupportedSize",
      "type": "error"
    },
    {
      "inputs": [
        {
          "internalType": "string",
          "name": "directoryId",
          "type": "string"
        },
        {
          "components": [
            {
              "internalType": "string",
              "name": "DirectoryId",
              "type": "string"
            },
            {
              "internalType": "uint256",
              "name": "FilesCount",
              "type": "uint256"
            },
            {
              "internalType": "uint256",
              "name": "DirectoriesCount",
              "type": "uint256"
            },
            {
              "internalType": "uint256",
              "name": "Size",
              "type": "uint256"
            }
          ],
          "internalType": "struct DirectoryInfoFrame",
          "name": "directoryInfo",
          "type": "tuple"
        }
      ],
      "name": "getSubFiles",
      "outputs": [
        {
          "components": [
            {
              "internalType": "string",
              "name": "Id",
              "type": "string"
            },
            {
              "internalType": "string",
              "name": "Name",
              "type": "string"
            },
            {
              "internalType": "string",
              "name": "Extension",
              "type": "string"
            }
          ],
          "internalType": "struct FileOutput[]",
          "name": "",
          "type": "tuple[]"
        }
      ],
      "stateMutability": "view",
      "type": "function"
    },
    {
      "inputs": [
        {
          "internalType": "address",
          "name": "user",
          "type": "address"
        },
        {
          "internalType": "string",
          "name": "fullName",
          "type": "string"
        },
        {
          "internalType": "string",
          "name": "directoryId",
          "type": "string"
        },
        {
          "internalType": "bytes",
          "name": "fileData",
          "type": "bytes"
        }
      ],
      "name": "add",
      "outputs": [
        {
          "internalType": "string",
          "name": "",
          "type": "string"
        }
      ],
      "stateMutability": "nonpayable",
      "type": "function"
    },
    {
      "inputs": [
        {
          "internalType": "string",
          "name": "fullName",
          "type": "string"
        }
      ],
      "name": "separateNameExe",
      "outputs": [
        {
          "internalType": "string",
          "name": "",
          "type": "string"
        },
        {
          "internalType": "string",
          "name": "",
          "type": "string"
        }
      ],
      "stateMutability": "pure",
      "type": "function"
    }
  ],
  "bytecode": "0x60806040526040518060400160405280600981526020017f225c2f5d3a3f3c3e7c0000000000000000000000000000000000000000000000815250600090816200004a919062000380565b507f2e00000000000000000000000000000000000000000000000000000000000000600160006101000a81548160ff021916908360f81c021790555060006003553480156200009857600080fd5b5060405162002308380380620023088339818101604052810190620000be9190620004e5565b80600460006101000a81548173ffffffffffffffffffffffffffffffffffffffff021916908373ffffffffffffffffffffffffffffffffffffffff1602179055505062000517565b600081519050919050565b7f4e487b7100000000000000000000000000000000000000000000000000000000600052604160045260246000fd5b7f4e487b7100000000000000000000000000000000000000000000000000000000600052602260045260246000fd5b600060028204905060018216806200018857607f821691505b6020821081036200019e576200019d62000140565b5b50919050565b60008190508160005260206000209050919050565b60006020601f8301049050919050565b600082821b905092915050565b600060088302620002087fffffffffffffffffffffffffffffffffffffffffffffffffffffffffffffffff82620001c9565b620002148683620001c9565b95508019841693508086168417925050509392505050565b6000819050919050565b6000819050919050565b6000620002616200025b62000255846200022c565b62000236565b6200022c565b9050919050565b6000819050919050565b6200027d8362000240565b620002956200028c8262000268565b848454620001d6565b825550505050565b600090565b620002ac6200029d565b620002b981848462000272565b505050565b5b81811015620002e157620002d5600082620002a2565b600181019050620002bf565b5050565b601f8211156200033057620002fa81620001a4565b6200030584620001b9565b8101602085101562000315578190505b6200032d6200032485620001b9565b830182620002be565b50505b505050565b600082821c905092915050565b6000620003556000198460080262000335565b1980831691505092915050565b600062000370838362000342565b9150826002028217905092915050565b6200038b8262000106565b67ffffffffffffffff811115620003a757620003a662000111565b5b620003b382546200016f565b620003c0828285620002e5565b600060209050601f831160018114620003f85760008415620003e3578287015190505b620003ef858262000362565b8655506200045f565b601f1984166200040886620001a4565b60005b8281101562000432578489015182556001820191506020850194506020810190506200040b565b868310156200045257848901516200044e601f89168262000342565b8355505b6001600288020188555050505b505050505050565b600080fd5b600073ffffffffffffffffffffffffffffffffffffffff82169050919050565b600062000499826200046c565b9050919050565b6000620004ad826200048c565b9050919050565b620004bf81620004a0565b8114620004cb57600080fd5b50565b600081519050620004df81620004b4565b92915050565b600060208284031215620004fe57620004fd62000467565b5b60006200050e84828501620004ce565b91505092915050565b611de180620005276000396000f3fe608060405234801561001057600080fd5b50600436106100415760003560e01c8063c595403714610046578063c638ad0514610076578063f9fe375d146100a7575b600080fd5b610060600480360381019061005b91906110f1565b6100d7565b60405161006d9190611311565b60405180910390f35b610090600480360381019061008b9190611333565b6105af565b60405161009e9291906113c6565b60405180910390f35b6100c160048036038101906100bc91906114fc565b6108fd565b6040516100ce91906115b7565b60405180910390f35b60606000826020015167ffffffffffffffff8111156100f9576100f8610ef2565b5b60405190808252806020026020018201604052801561013257816020015b61011f610ea2565b8152602001906001900390816101175790505b50905060008085905060005b6003548110156105a25760006002828154811061015e5761015d6115d9565b5b90600052602060002090600702016040518060e001604052908160008201805461018790611637565b80601f01602080910402602001604051908101604052809291908181526020018280546101b390611637565b80156102005780601f106101d557610100808354040283529160200191610200565b820191906000526020600020905b8154815290600101906020018083116101e357829003601f168201915b5050505050815260200160018201805461021990611637565b80601f016020809104026020016040519081016040528092919081815260200182805461024590611637565b80156102925780601f1061026757610100808354040283529160200191610292565b820191906000526020600020905b81548152906001019060200180831161027557829003601f168201915b505050505081526020016002820180546102ab90611637565b80601f01602080910402602001604051908101604052809291908181526020018280546102d790611637565b80156103245780601f106102f957610100808354040283529160200191610324565b820191906000526020600020905b81548152906001019060200180831161030757829003601f168201915b5050505050815260200160038201805461033d90611637565b80601f016020809104026020016040519081016040528092919081815260200182805461036990611637565b80156103b65780601f1061038b576101008083540402835291602001916103b6565b820191906000526020600020905b81548152906001019060200180831161039957829003601f168201915b505050505081526020016004820180546103cf90611637565b80601f01602080910402602001604051908101604052809291908181526020018280546103fb90611637565b80156104485780601f1061041d57610100808354040283529160200191610448565b820191906000526020600020905b81548152906001019060200180831161042b57829003601f168201915b505050505081526020016005820160009054906101000a900473ffffffffffffffffffffffffffffffffffffffff1673ffffffffffffffffffffffffffffffffffffffff1673ffffffffffffffffffffffffffffffffffffffff168152602001600682015481525050905060008160200151905073__Infrastructure________________________637da4831785836040518363ffffffff1660e01b81526004016104f59291906116bd565b602060405180830381865af4158015610512573d6000803e3d6000fd5b505050506040513d601f19601f82011682018060405250810190610536919061172c565b1561058d5760405180606001604052808360000151815260200183604001518152602001836060015181525086868061056e90611788565b975081518110610581576105806115d9565b5b60200260200101819052505b5050808061059a90611788565b91505061013e565b5082935050505092915050565b606080600080603267ffffffffffffffff8111156105d0576105cf610ef2565b5b6040519080825280601f01601f1916602001820160405280156106025781602001600182028036833780820191505090505b509050600085905060006001825161061a91906117d0565b90505b6000828281518110610632576106316115d9565b5b602001015160f81c60f81b9050602e60f81b817effffffffffffffffffffffffffffffffffffffffffffffffffffffffffffff191603610672575061074c565b60318511156106ad576040517fb5d012b400000000000000000000000000000000000000000000000000000000815260040160405180910390fd5b808486815181106106c1576106c06115d9565b5b60200101907effffffffffffffffffffffffffffffffffffffffffffffffffffffffffffff1916908160001a90535084806106fb90611788565b95505060008203610738576040517fb5d012b400000000000000000000000000000000000000000000000000000000815260040160405180910390fd5b50808061074490611804565b91505061061d565b73__Infrastructure________________________63c5249be984866040518363ffffffff1660e01b815260040161078592919061183c565b600060405180830381865af41580156107a2573d6000803e3d6000fd5b505050506040513d6000823e3d601f19601f820116820180604052508101906107cb91906118dc565b925073__Infrastructure________________________632f278ecb846040518263ffffffff1660e01b81526004016108049190611925565b600060405180830381865af4158015610821573d6000803e3d6000fd5b505050506040513d6000823e3d601f19601f8201168201806040525081019061084a91906118dc565b92506000600185845161085d91906117d0565b61086791906117d0565b9050600073__Infrastructure________________________63c5249be985846040518363ffffffff1660e01b81526004016108a492919061183c565b600060405180830381865af41580156108c1573d6000803e3d6000fd5b505050506040513d6000823e3d601f19601f820116820180604052508101906108ea91906118dc565b9050808597509750505050505050915091565b60608360008082905060006001905060e682511115610948576040517fc96b3aa100000000000000000000000000000000000000000000000000000000815260040160405180910390fd5b600082510361095657600090505b8215610a015760005b82518110156109fb57600160009054906101000a900460f81b7effffffffffffffffffffffffffffffffffffffffffffffffffffffffffffff19168382815181106109ad576109ac6115d9565b5b602001015160f81c60f81b7effffffffffffffffffffffffffffffffffffffffffffffffffffffffffffff1916036109e857600091506109fb565b80806109f390611788565b91505061095f565b50610b2f565b6000905060005b8251811015610aa457600160009054906101000a900460f81b7effffffffffffffffffffffffffffffffffffffffffffffffffffffffffffff1916838281518110610a5657610a556115d9565b5b602001015160f81c60f81b7effffffffffffffffffffffffffffffffffffffffffffffffffffffffffffff191603610a915760019150610aa4565b8080610a9c90611788565b915050610a08565b50600160009054906101000a900460f81b7effffffffffffffffffffffffffffffffffffffffffffffffffffffffffffff19168260018451610ae691906117d0565b81518110610af757610af66115d9565b5b602001015160f81c60f81b7effffffffffffffffffffffffffffffffffffffffffffffffffffffffffffff191603610b2e57600090505b5b60005b8251811015610c535760005b60008054610b4b90611637565b9050811015610c39576000818154610b6290611637565b8110610b7157610b706115d9565b5b815460011615610b905790600052602060002090602091828204019190065b9054901a7f0100000000000000000000000000000000000000000000000000000000000000027effffffffffffffffffffffffffffffffffffffffffffffffffffffffffffff1916848381518110610beb57610bea6115d9565b5b602001015160f81c60f81b7effffffffffffffffffffffffffffffffffffffffffffffffffffffffffffff191603610c265760009250610c39565b8080610c3190611788565b915050610b3e565b508115610c53578080610c4b90611788565b915050610b32565b508015610e64576000600460009054906101000a900473ffffffffffffffffffffffffffffffffffffffff1673ffffffffffffffffffffffffffffffffffffffff1663a36885466040518163ffffffff1660e01b81526004016000604051808303816000875af1158015610ccb573d6000803e3d6000fd5b505050506040513d6000823e3d601f19601f82011682018060405250810190610cf491906119b7565b9050600080610d028b6105af565b9150915060006040518060e001604052808581526020018c81526020018481526020018381526020018b81526020018e73ffffffffffffffffffffffffffffffffffffffff16815260200142815250905060028190806001815401808255809150506001900390600052602060002090600702016000909190919091506000820151816000019081610d949190611bac565b506020820151816001019081610daa9190611bac565b506040820151816002019081610dc09190611bac565b506060820151816003019081610dd69190611bac565b506080820151816004019081610dec9190611cd9565b5060a08201518160050160006101000a81548173ffffffffffffffffffffffffffffffffffffffff021916908373ffffffffffffffffffffffffffffffffffffffff16021790555060c08201518160060155505060036000815480929190610e5390611788565b919050555083985050505050610e96565b6040517fb5d012b400000000000000000000000000000000000000000000000000000000815260040160405180910390fd5b50505050949350505050565b60405180606001604052806060815260200160608152602001606081525090565b6000604051905090565b600080fd5b600080fd5b600080fd5b600080fd5b6000601f19601f8301169050919050565b7f4e487b7100000000000000000000000000000000000000000000000000000000600052604160045260246000fd5b610f2a82610ee1565b810181811067ffffffffffffffff82111715610f4957610f48610ef2565b5b80604052505050565b6000610f5c610ec3565b9050610f688282610f21565b919050565b600067ffffffffffffffff821115610f8857610f87610ef2565b5b610f9182610ee1565b9050602081019050919050565b82818337600083830152505050565b6000610fc0610fbb84610f6d565b610f52565b905082815260208101848484011115610fdc57610fdb610edc565b5b610fe7848285610f9e565b509392505050565b600082601f83011261100457611003610ed7565b5b8135611014848260208601610fad565b91505092915050565b600080fd5b600080fd5b6000819050919050565b61103a81611027565b811461104557600080fd5b50565b60008135905061105781611031565b92915050565b6000608082840312156110735761107261101d565b5b61107d6080610f52565b9050600082013567ffffffffffffffff81111561109d5761109c611022565b5b6110a984828501610fef565b60008301525060206110bd84828501611048565b60208301525060406110d184828501611048565b60408301525060606110e584828501611048565b60608301525092915050565b6000806040838503121561110857611107610ecd565b5b600083013567ffffffffffffffff81111561112657611125610ed2565b5b61113285828601610fef565b925050602083013567ffffffffffffffff81111561115357611152610ed2565b5b61115f8582860161105d565b9150509250929050565b600081519050919050565b600082825260208201905092915050565b6000819050602082019050919050565b600081519050919050565b600082825260208201905092915050565b60005b838110156111cf5780820151818401526020810190506111b4565b838111156111de576000848401525b50505050565b60006111ef82611195565b6111f981856111a0565b93506112098185602086016111b1565b61121281610ee1565b840191505092915050565b6000606083016000830151848203600086015261123a82826111e4565b9150506020830151848203602086015261125482826111e4565b9150506040830151848203604086015261126e82826111e4565b9150508091505092915050565b6000611287838361121d565b905092915050565b6000602082019050919050565b60006112a782611169565b6112b18185611174565b9350836020820285016112c385611185565b8060005b858110156112ff57848403895281516112e0858261127b565b94506112eb8361128f565b925060208a019950506001810190506112c7565b50829750879550505050505092915050565b6000602082019050818103600083015261132b818461129c565b905092915050565b60006020828403121561134957611348610ecd565b5b600082013567ffffffffffffffff81111561136757611366610ed2565b5b61137384828501610fef565b91505092915050565b600082825260208201905092915050565b600061139882611195565b6113a2818561137c565b93506113b28185602086016111b1565b6113bb81610ee1565b840191505092915050565b600060408201905081810360008301526113e0818561138d565b905081810360208301526113f4818461138d565b90509392505050565b600073ffffffffffffffffffffffffffffffffffffffff82169050919050565b6000611428826113fd565b9050919050565b6114388161141d565b811461144357600080fd5b50565b6000813590506114558161142f565b92915050565b600067ffffffffffffffff82111561147657611475610ef2565b5b61147f82610ee1565b9050602081019050919050565b600061149f61149a8461145b565b610f52565b9050828152602081018484840111156114bb576114ba610edc565b5b6114c6848285610f9e565b509392505050565b600082601f8301126114e3576114e2610ed7565b5b81356114f384826020860161148c565b91505092915050565b6000806000806080858703121561151657611515610ecd565b5b600061152487828801611446565b945050602085013567ffffffffffffffff81111561154557611544610ed2565b5b61155187828801610fef565b935050604085013567ffffffffffffffff81111561157257611571610ed2565b5b61157e87828801610fef565b925050606085013567ffffffffffffffff81111561159f5761159e610ed2565b5b6115ab878288016114ce565b91505092959194509250565b600060208201905081810360008301526115d1818461138d565b905092915050565b7f4e487b7100000000000000000000000000000000000000000000000000000000600052603260045260246000fd5b7f4e487b7100000000000000000000000000000000000000000000000000000000600052602260045260246000fd5b6000600282049050600182168061164f57607f821691505b60208210810361166257611661611608565b5b50919050565b600081519050919050565b600082825260208201905092915050565b600061168f82611668565b6116998185611673565b93506116a98185602086016111b1565b6116b281610ee1565b840191505092915050565b600060408201905081810360008301526116d78185611684565b905081810360208301526116eb8184611684565b90509392505050565b60008115159050919050565b611709816116f4565b811461171457600080fd5b50565b60008151905061172681611700565b92915050565b60006020828403121561174257611741610ecd565b5b600061175084828501611717565b91505092915050565b7f4e487b7100000000000000000000000000000000000000000000000000000000600052601160045260246000fd5b600061179382611027565b91507fffffffffffffffffffffffffffffffffffffffffffffffffffffffffffffffff82036117c5576117c4611759565b5b600182019050919050565b60006117db82611027565b91506117e683611027565b9250828210156117f9576117f8611759565b5b828203905092915050565b600061180f82611027565b91506000820361182257611821611759565b5b600182039050919050565b61183681611027565b82525050565b600060408201905081810360008301526118568185611684565b9050611865602083018461182d565b9392505050565b600061187f61187a8461145b565b610f52565b90508281526020810184848401111561189b5761189a610edc565b5b6118a68482856111b1565b509392505050565b600082601f8301126118c3576118c2610ed7565b5b81516118d384826020860161186c565b91505092915050565b6000602082840312156118f2576118f1610ecd565b5b600082015167ffffffffffffffff8111156119105761190f610ed2565b5b61191c848285016118ae565b91505092915050565b6000602082019050818103600083015261193f8184611684565b905092915050565b600061195a61195584610f6d565b610f52565b90508281526020810184848401111561197657611975610edc565b5b6119818482856111b1565b509392505050565b600082601f83011261199e5761199d610ed7565b5b81516119ae848260208601611947565b91505092915050565b6000602082840312156119cd576119cc610ecd565b5b600082015167ffffffffffffffff8111156119eb576119ea610ed2565b5b6119f784828501611989565b91505092915050565b60008190508160005260206000209050919050565b60006020601f8301049050919050565b600082821b905092915050565b600060088302611a627fffffffffffffffffffffffffffffffffffffffffffffffffffffffffffffffff82611a25565b611a6c8683611a25565b95508019841693508086168417925050509392505050565b6000819050919050565b6000611aa9611aa4611a9f84611027565b611a84565b611027565b9050919050565b6000819050919050565b611ac383611a8e565b611ad7611acf82611ab0565b848454611a32565b825550505050565b600090565b611aec611adf565b611af7818484611aba565b505050565b5b81811015611b1b57611b10600082611ae4565b600181019050611afd565b5050565b601f821115611b6057611b3181611a00565b611b3a84611a15565b81016020851015611b49578190505b611b5d611b5585611a15565b830182611afc565b50505b505050565b600082821c905092915050565b6000611b8360001984600802611b65565b1980831691505092915050565b6000611b9c8383611b72565b9150826002028217905092915050565b611bb582611195565b67ffffffffffffffff811115611bce57611bcd610ef2565b5b611bd88254611637565b611be3828285611b1f565b600060209050601f831160018114611c165760008415611c04578287015190505b611c0e8582611b90565b865550611c76565b601f198416611c2486611a00565b60005b82811015611c4c57848901518255600182019150602085019450602081019050611c27565b86831015611c695784890151611c65601f891682611b72565b8355505b6001600288020188555050505b505050505050565b60008190508160005260206000209050919050565b601f821115611cd457611ca581611c7e565b611cae84611a15565b81016020851015611cbd578190505b611cd1611cc985611a15565b830182611afc565b50505b505050565b611ce282611668565b67ffffffffffffffff811115611cfb57611cfa610ef2565b5b611d058254611637565b611d10828285611c93565b600060209050601f831160018114611d435760008415611d31578287015190505b611d3b8582611b90565b865550611da3565b601f198416611d5186611c7e565b60005b82811015611d7957848901518255600182019150602085019450602081019050611d54565b86831015611d965784890151611d92601f891682611b72565b8355505b6001600288020188555050505b50505050505056fea264697066735822122050191fe05b4acacd941fca2c0a75c26cdb1b5995d1efa5cdc342f3c56693f71964736f6c634300080f0033",
  "immutableReferences": {},
  "source": "// SPDX-License-Identifier: MIT\npragma solidity ^0.8;\nimport \"@openzeppelin/contracts/utils/Strings.sol\";\nimport \"../Entities/FileFrame.sol\";\nimport \"../Entities/DirectoryInfoFrame.sol\";\nimport \"./BaseNameDeclaration.sol\";\nimport {UniqueIdGenerator} from \"../BusinessHelper/UniqueIdGenerator.sol\";\nimport \"../BusinessHelper/Infrastructure.sol\";\nimport \"../ViewModels/FileOutput.sol\";\n\ncontract FileRepository is BaseNameDeclaration {\n    //data of files\n    FileFrame[] private data;\n    uint256 private count = 0;\n    UniqueIdGenerator private _uniqueIdGenerator;\n\n    constructor(UniqueIdGenerator uniqueIdGenerator) {\n        _uniqueIdGenerator = uniqueIdGenerator;\n    }\n\n    function getSubFiles(\n        string memory directoryId,\n        DirectoryInfoFrame memory directoryInfo\n    ) public view returns (FileOutput[] memory) {\n        FileOutput[] memory result = new FileOutput[](directoryInfo.FilesCount);\n        uint256 j = 0;\n        bytes memory b_directoryId = bytes(directoryId);\n        for (uint256 i = 0; i < count; i++) {\n            FileFrame memory item = data[i];\n            bytes memory fileDirectoryId = bytes(item.DirectoryId);\n            if (Infrastructure.bytesEquals(b_directoryId, fileDirectoryId)) {\n                result[j++] = FileOutput(item.Id, item.Name, item.Extension);\n            }\n        }\n        return (result);\n    }\n\n    function add(\n        address user,\n        string memory fullName,\n        string memory directoryId,\n        bytes memory fileData\n    ) public isAllowedName(fullName, false) returns (string memory) {\n        string memory id = _uniqueIdGenerator.uniqId();\n        (string memory name, string memory extension) = separateNameExe(\n            fullName\n        );\n        FileFrame memory newFile = FileFrame(\n            id,\n            directoryId,\n            name,\n            extension,\n            fileData,\n            user,\n            block.timestamp\n        );\n        data.push(newFile);\n        count++;\n        return id;\n    }\n\n    function separateNameExe(\n        string memory fullName\n    ) public pure returns (string memory, string memory) {\n        uint256 extensionCount = 0;\n        bytes memory extension = new bytes(50);\n        bytes memory b_fullName = bytes(fullName);\n        uint256 i = (b_fullName.length - 1);\n        for (; ; i--) {\n            bytes1 b_char = b_fullName[i];\n            if (b_char == 0x2E) {\n                break;\n            }\n            if (extensionCount > 49) {\n                revert unsupportedName();\n            }\n            extension[extensionCount] = b_char;\n            extensionCount++;\n            if (i == 0) {\n                revert unsupportedName();\n            }\n        }\n        extension = Infrastructure.copyBytes(extension, extensionCount);\n        extension = Infrastructure.reverseBytes(extension);\n        uint256 nameCount = (b_fullName.length - extensionCount - 1);\n        bytes memory fileName = Infrastructure.copyBytes(b_fullName, nameCount);\n        return (string(fileName), string(extension));\n    }\n}\n",
  "sourcePath": "C:\\Amir\\X7Opsilon\\smart_contract\\contracts\\Repositories\\FileRepository.sol",
  "compiler": {
    "name": "solc",
    "version": "0.8.15+commit.e14f2714.Emscripten.clang"
  },
  "schemaVersion": "3.4.14",
  "updatedAt": "2023-07-28T01:03:10.105Z",
  "devdoc": {
    "kind": "dev",
    "methods": {},
    "version": 1
  },
  "userdoc": {
    "kind": "user",
    "methods": {},
    "version": 1
  }
}