{
  "contractName": "FileRepository",
  "abi": [
    {
      "inputs": [
        {
          "internalType": "contract UniqueIdGenerator",
          "name": "uniqueIdGenerator",
          "type": "address"
        }
      ],
      "stateMutability": "nonpayable",
      "type": "constructor"
    },
    {
      "inputs": [],
      "name": "notfound",
      "type": "error"
    },
    {
      "inputs": [],
      "name": "unsupportedName",
      "type": "error"
    },
    {
      "inputs": [],
      "name": "unsupportedSize",
      "type": "error"
    },
    {
      "inputs": [
        {
          "internalType": "string",
          "name": "fullName",
          "type": "string"
        },
        {
          "internalType": "string",
          "name": "directoryId",
          "type": "string"
        },
        {
          "internalType": "bytes",
          "name": "fileData",
          "type": "bytes"
        }
      ],
      "name": "add",
      "outputs": [
        {
          "internalType": "string",
          "name": "",
          "type": "string"
        }
      ],
      "stateMutability": "nonpayable",
      "type": "function"
    },
    {
      "inputs": [
        {
          "internalType": "string",
          "name": "fullName",
          "type": "string"
        }
      ],
      "name": "separateNameExe",
      "outputs": [
        {
          "internalType": "string",
          "name": "",
          "type": "string"
        },
        {
          "internalType": "string",
          "name": "",
          "type": "string"
        }
      ],
      "stateMutability": "pure",
      "type": "function"
    }
  ],
  "bytecode": "0x60806040526040518060400160405280600981526020017f225c2f5d3a3f3c3e7c0000000000000000000000000000000000000000000000815250600090816200004a919062000380565b507f2e00000000000000000000000000000000000000000000000000000000000000600160006101000a81548160ff021916908360f81c021790555060006003553480156200009857600080fd5b50604051620019f7380380620019f78339818101604052810190620000be9190620004e5565b80600460006101000a81548173ffffffffffffffffffffffffffffffffffffffff021916908373ffffffffffffffffffffffffffffffffffffffff1602179055505062000517565b600081519050919050565b7f4e487b7100000000000000000000000000000000000000000000000000000000600052604160045260246000fd5b7f4e487b7100000000000000000000000000000000000000000000000000000000600052602260045260246000fd5b600060028204905060018216806200018857607f821691505b6020821081036200019e576200019d62000140565b5b50919050565b60008190508160005260206000209050919050565b60006020601f8301049050919050565b600082821b905092915050565b600060088302620002087fffffffffffffffffffffffffffffffffffffffffffffffffffffffffffffffff82620001c9565b620002148683620001c9565b95508019841693508086168417925050509392505050565b6000819050919050565b6000819050919050565b6000620002616200025b62000255846200022c565b62000236565b6200022c565b9050919050565b6000819050919050565b6200027d8362000240565b620002956200028c8262000268565b848454620001d6565b825550505050565b600090565b620002ac6200029d565b620002b981848462000272565b505050565b5b81811015620002e157620002d5600082620002a2565b600181019050620002bf565b5050565b601f8211156200033057620002fa81620001a4565b6200030584620001b9565b8101602085101562000315578190505b6200032d6200032485620001b9565b830182620002be565b50505b505050565b600082821c905092915050565b6000620003556000198460080262000335565b1980831691505092915050565b600062000370838362000342565b9150826002028217905092915050565b6200038b8262000106565b67ffffffffffffffff811115620003a757620003a662000111565b5b620003b382546200016f565b620003c0828285620002e5565b600060209050601f831160018114620003f85760008415620003e3578287015190505b620003ef858262000362565b8655506200045f565b601f1984166200040886620001a4565b60005b8281101562000432578489015182556001820191506020850194506020810190506200040b565b868310156200045257848901516200044e601f89168262000342565b8355505b6001600288020188555050505b505050505050565b600080fd5b600073ffffffffffffffffffffffffffffffffffffffff82169050919050565b600062000499826200046c565b9050919050565b6000620004ad826200048c565b9050919050565b620004bf81620004a0565b8114620004cb57600080fd5b50565b600081519050620004df81620004b4565b92915050565b600060208284031215620004fe57620004fd62000467565b5b60006200050e84828501620004ce565b91505092915050565b6114d080620005276000396000f3fe608060405234801561001057600080fd5b50600436106100365760003560e01c8063c22585c21461003b578063c638ad051461006b575b600080fd5b61005560048036038101906100509190610b89565b61009c565b6040516100629190610cb8565b60405180910390f35b61008560048036038101906100809190610cda565b610640565b604051610093929190610d23565b60405180910390f35b60608360008082905060006001905060e6825111156100e7576040517fc96b3aa100000000000000000000000000000000000000000000000000000000815260040160405180910390fd5b60008251036100f557600090505b82156101a05760005b825181101561019a57600160009054906101000a900460f81b7effffffffffffffffffffffffffffffffffffffffffffffffffffffffffffff191683828151811061014c5761014b610d5a565b5b602001015160f81c60f81b7effffffffffffffffffffffffffffffffffffffffffffffffffffffffffffff191603610187576000915061019a565b808061019290610dc2565b9150506100fe565b506102ce565b6000905060005b825181101561024357600160009054906101000a900460f81b7effffffffffffffffffffffffffffffffffffffffffffffffffffffffffffff19168382815181106101f5576101f4610d5a565b5b602001015160f81c60f81b7effffffffffffffffffffffffffffffffffffffffffffffffffffffffffffff1916036102305760019150610243565b808061023b90610dc2565b9150506101a7565b50600160009054906101000a900460f81b7effffffffffffffffffffffffffffffffffffffffffffffffffffffffffffff191682600184516102859190610e0a565b8151811061029657610295610d5a565b5b602001015160f81c60f81b7effffffffffffffffffffffffffffffffffffffffffffffffffffffffffffff1916036102cd57600090505b5b60005b82518110156103f25760005b600080546102ea90610e6d565b90508110156103d857600081815461030190610e6d565b81106103105761030f610d5a565b5b81546001161561032f5790600052602060002090602091828204019190065b9054901a7f0100000000000000000000000000000000000000000000000000000000000000027effffffffffffffffffffffffffffffffffffffffffffffffffffffffffffff191684838151811061038a57610389610d5a565b5b602001015160f81c60f81b7effffffffffffffffffffffffffffffffffffffffffffffffffffffffffffff1916036103c557600092506103d8565b80806103d090610dc2565b9150506102dd565b5081156103f25780806103ea90610dc2565b9150506102d1565b508015610603576000600460009054906101000a900473ffffffffffffffffffffffffffffffffffffffff1673ffffffffffffffffffffffffffffffffffffffff1663a36885466040518163ffffffff1660e01b81526004016000604051808303816000875af115801561046a573d6000803e3d6000fd5b505050506040513d6000823e3d601f19601f820116820180604052508101906104939190610f0e565b90506000806104a18b610640565b9150915060006040518060e001604052808581526020018c81526020018481526020018381526020018b81526020013373ffffffffffffffffffffffffffffffffffffffff168152602001428152509050600281908060018154018082558091505060019003906000526020600020906007020160009091909190915060008201518160000190816105339190611103565b5060208201518160010190816105499190611103565b50604082015181600201908161055f9190611103565b5060608201518160030190816105759190611103565b50608082015181600401908161058b919061123b565b5060a08201518160050160006101000a81548173ffffffffffffffffffffffffffffffffffffffff021916908373ffffffffffffffffffffffffffffffffffffffff16021790555060c082015181600601555050600360008154809291906105f290610dc2565b919050555083985050505050610635565b6040517fb5d012b400000000000000000000000000000000000000000000000000000000815260040160405180910390fd5b505050509392505050565b606080600080603267ffffffffffffffff811115610661576106606109bd565b5b6040519080825280601f01601f1916602001820160405280156106935781602001600182028036833780820191505090505b50905060008590506000600182516106ab9190610e0a565b90505b60008282815181106106c3576106c2610d5a565b5b602001015160f81c60f81b9050602e60f81b817effffffffffffffffffffffffffffffffffffffffffffffffffffffffffffff19160361070357506107dd565b603185111561073e576040517fb5d012b400000000000000000000000000000000000000000000000000000000815260040160405180910390fd5b8084868151811061075257610751610d5a565b5b60200101907effffffffffffffffffffffffffffffffffffffffffffffffffffffffffffff1916908160001a905350848061078c90610dc2565b955050600082036107c9576040517fb5d012b400000000000000000000000000000000000000000000000000000000815260040160405180910390fd5b5080806107d59061130d565b9150506106ae565b73__Infrastructure________________________63c5249be984866040518363ffffffff1660e01b815260040161081692919061138f565b600060405180830381865af4158015610833573d6000803e3d6000fd5b505050506040513d6000823e3d601f19601f8201168201806040525081019061085c919061142f565b925073__Infrastructure________________________632f278ecb846040518263ffffffff1660e01b81526004016108959190611478565b600060405180830381865af41580156108b2573d6000803e3d6000fd5b505050506040513d6000823e3d601f19601f820116820180604052508101906108db919061142f565b9250600060018584516108ee9190610e0a565b6108f89190610e0a565b9050600073__Infrastructure________________________63c5249be985846040518363ffffffff1660e01b815260040161093592919061138f565b600060405180830381865af4158015610952573d6000803e3d6000fd5b505050506040513d6000823e3d601f19601f8201168201806040525081019061097b919061142f565b9050808597509750505050505050915091565b6000604051905090565b600080fd5b600080fd5b600080fd5b600080fd5b6000601f19601f8301169050919050565b7f4e487b7100000000000000000000000000000000000000000000000000000000600052604160045260246000fd5b6109f5826109ac565b810181811067ffffffffffffffff82111715610a1457610a136109bd565b5b80604052505050565b6000610a2761098e565b9050610a3382826109ec565b919050565b600067ffffffffffffffff821115610a5357610a526109bd565b5b610a5c826109ac565b9050602081019050919050565b82818337600083830152505050565b6000610a8b610a8684610a38565b610a1d565b905082815260208101848484011115610aa757610aa66109a7565b5b610ab2848285610a69565b509392505050565b600082601f830112610acf57610ace6109a2565b5b8135610adf848260208601610a78565b91505092915050565b600067ffffffffffffffff821115610b0357610b026109bd565b5b610b0c826109ac565b9050602081019050919050565b6000610b2c610b2784610ae8565b610a1d565b905082815260208101848484011115610b4857610b476109a7565b5b610b53848285610a69565b509392505050565b600082601f830112610b7057610b6f6109a2565b5b8135610b80848260208601610b19565b91505092915050565b600080600060608486031215610ba257610ba1610998565b5b600084013567ffffffffffffffff811115610bc057610bbf61099d565b5b610bcc86828701610aba565b935050602084013567ffffffffffffffff811115610bed57610bec61099d565b5b610bf986828701610aba565b925050604084013567ffffffffffffffff811115610c1a57610c1961099d565b5b610c2686828701610b5b565b9150509250925092565b600081519050919050565b600082825260208201905092915050565b60005b83811015610c6a578082015181840152602081019050610c4f565b83811115610c79576000848401525b50505050565b6000610c8a82610c30565b610c948185610c3b565b9350610ca4818560208601610c4c565b610cad816109ac565b840191505092915050565b60006020820190508181036000830152610cd28184610c7f565b905092915050565b600060208284031215610cf057610cef610998565b5b600082013567ffffffffffffffff811115610d0e57610d0d61099d565b5b610d1a84828501610aba565b91505092915050565b60006040820190508181036000830152610d3d8185610c7f565b90508181036020830152610d518184610c7f565b90509392505050565b7f4e487b7100000000000000000000000000000000000000000000000000000000600052603260045260246000fd5b7f4e487b7100000000000000000000000000000000000000000000000000000000600052601160045260246000fd5b6000819050919050565b6000610dcd82610db8565b91507fffffffffffffffffffffffffffffffffffffffffffffffffffffffffffffffff8203610dff57610dfe610d89565b5b600182019050919050565b6000610e1582610db8565b9150610e2083610db8565b925082821015610e3357610e32610d89565b5b828203905092915050565b7f4e487b7100000000000000000000000000000000000000000000000000000000600052602260045260246000fd5b60006002820490506001821680610e8557607f821691505b602082108103610e9857610e97610e3e565b5b50919050565b6000610eb1610eac84610a38565b610a1d565b905082815260208101848484011115610ecd57610ecc6109a7565b5b610ed8848285610c4c565b509392505050565b600082601f830112610ef557610ef46109a2565b5b8151610f05848260208601610e9e565b91505092915050565b600060208284031215610f2457610f23610998565b5b600082015167ffffffffffffffff811115610f4257610f4161099d565b5b610f4e84828501610ee0565b91505092915050565b60008190508160005260206000209050919050565b60006020601f8301049050919050565b600082821b905092915050565b600060088302610fb97fffffffffffffffffffffffffffffffffffffffffffffffffffffffffffffffff82610f7c565b610fc38683610f7c565b95508019841693508086168417925050509392505050565b6000819050919050565b6000611000610ffb610ff684610db8565b610fdb565b610db8565b9050919050565b6000819050919050565b61101a83610fe5565b61102e61102682611007565b848454610f89565b825550505050565b600090565b611043611036565b61104e818484611011565b505050565b5b818110156110725761106760008261103b565b600181019050611054565b5050565b601f8211156110b75761108881610f57565b61109184610f6c565b810160208510156110a0578190505b6110b46110ac85610f6c565b830182611053565b50505b505050565b600082821c905092915050565b60006110da600019846008026110bc565b1980831691505092915050565b60006110f383836110c9565b9150826002028217905092915050565b61110c82610c30565b67ffffffffffffffff811115611125576111246109bd565b5b61112f8254610e6d565b61113a828285611076565b600060209050601f83116001811461116d576000841561115b578287015190505b61116585826110e7565b8655506111cd565b601f19841661117b86610f57565b60005b828110156111a35784890151825560018201915060208501945060208101905061117e565b868310156111c057848901516111bc601f8916826110c9565b8355505b6001600288020188555050505b505050505050565b600081519050919050565b60008190508160005260206000209050919050565b601f82111561123657611207816111e0565b61121084610f6c565b8101602085101561121f578190505b61123361122b85610f6c565b830182611053565b50505b505050565b611244826111d5565b67ffffffffffffffff81111561125d5761125c6109bd565b5b6112678254610e6d565b6112728282856111f5565b600060209050601f8311600181146112a55760008415611293578287015190505b61129d85826110e7565b865550611305565b601f1984166112b3866111e0565b60005b828110156112db578489015182556001820191506020850194506020810190506112b6565b868310156112f857848901516112f4601f8916826110c9565b8355505b6001600288020188555050505b505050505050565b600061131882610db8565b91506000820361132b5761132a610d89565b5b600182039050919050565b600082825260208201905092915050565b6000611352826111d5565b61135c8185611336565b935061136c818560208601610c4c565b611375816109ac565b840191505092915050565b61138981610db8565b82525050565b600060408201905081810360008301526113a98185611347565b90506113b86020830184611380565b9392505050565b60006113d26113cd84610ae8565b610a1d565b9050828152602081018484840111156113ee576113ed6109a7565b5b6113f9848285610c4c565b509392505050565b600082601f830112611416576114156109a2565b5b81516114268482602086016113bf565b91505092915050565b60006020828403121561144557611444610998565b5b600082015167ffffffffffffffff8111156114635761146261099d565b5b61146f84828501611401565b91505092915050565b600060208201905081810360008301526114928184611347565b90509291505056fea2646970667358221220f0e163efe5a25d4c5146a8508b462e382c12f497856c9c4ad98b2faa17477ca564736f6c634300080f0033",
  "immutableReferences": {},
  "source": "// SPDX-License-Identifier: MIT\npragma solidity ^0.8;\nimport \"@openzeppelin/contracts/utils/Strings.sol\";\nimport \"../Entities/FileFrame.sol\";\nimport \"./BaseNameDeclaration.sol\";\nimport {UniqueIdGenerator} from \"../BusinessHelper/UniqueIdGenerator.sol\";\nimport \"../BusinessHelper/Infrastructure.sol\";\n\ncontract FileRepository is BaseNameDeclaration {\n    //data of files\n    FileFrame[] private data;\n    uint256 private count = 0;\n    UniqueIdGenerator private _uniqueIdGenerator;\n\n    constructor(UniqueIdGenerator uniqueIdGenerator) {\n        _uniqueIdGenerator = uniqueIdGenerator;\n    }\n\n    function add(\n        string memory fullName,\n        string memory directoryId,\n        bytes memory fileData\n    ) public isAllowedName(fullName, false) returns(string memory) {\n        string memory id = _uniqueIdGenerator.uniqId();\n        (string memory name, string memory extension) = separateNameExe(\n            fullName\n        );\n        FileFrame memory newFile = FileFrame(\n            id,\n            directoryId,\n            name,\n            extension,\n            fileData,\n            msg.sender,\n            block.timestamp\n        );\n        data.push(newFile);\n        count++;\n        return id;\n    }\n\n    function separateNameExe(string memory fullName)\n        public\n        pure\n        returns (string memory, string memory)\n    {\n        uint256 extensionCount = 0;\n        bytes memory extension = new bytes(50);\n        bytes memory b_fullName = bytes(fullName);\n        uint256 i = (b_fullName.length - 1);\n        for (; ; i--) {\n            bytes1 b_char = b_fullName[i];\n            if (b_char == 0x2E) {\n                break;\n            }\n            if (extensionCount > 49) {\n                revert unsupportedName();\n            }\n            extension[extensionCount] = b_char;\n            extensionCount++;\n            if (i == 0) {\n                revert unsupportedName();\n            }\n        }\n        extension = Infrastructure.copyBytes(extension, extensionCount);\n        extension = Infrastructure.reverseBytes(extension);\n        uint256 nameCount = (b_fullName.length - extensionCount - 1);\n        bytes memory fileName = Infrastructure.copyBytes(b_fullName, nameCount);\n        return (string(fileName), string(extension));\n    }\n}\n",
  "sourcePath": "C:\\Amir\\X7Opsilon\\smart_contract\\contracts\\Repositories\\FileRepository.sol",
  "compiler": {
    "name": "solc",
    "version": "0.8.15+commit.e14f2714.Emscripten.clang"
  },
  "schemaVersion": "3.4.14",
  "updatedAt": "2023-07-25T07:07:19.074Z",
  "devdoc": {
    "kind": "dev",
    "methods": {},
    "version": 1
  },
  "userdoc": {
    "kind": "user",
    "methods": {},
    "version": 1
  }
}