{
  "contractName": "GRandom",
  "abi": [
    {
      "inputs": [
        {
          "internalType": "uint256",
          "name": "number",
          "type": "uint256"
        }
      ],
      "name": "random",
      "outputs": [
        {
          "internalType": "uint256",
          "name": "",
          "type": "uint256"
        }
      ],
      "stateMutability": "payable",
      "type": "function"
    },
    {
      "inputs": [
        {
          "internalType": "uint256",
          "name": "length",
          "type": "uint256"
        }
      ],
      "name": "randomString",
      "outputs": [
        {
          "internalType": "string",
          "name": "",
          "type": "string"
        }
      ],
      "stateMutability": "payable",
      "type": "function"
    },
    {
      "inputs": [],
      "name": "uniqId",
      "outputs": [
        {
          "internalType": "string",
          "name": "",
          "type": "string"
        }
      ],
      "stateMutability": "payable",
      "type": "function"
    }
  ],
  "bytecode": "0x6080604052600160005534801561001557600080fd5b50610e07806100256000396000f3fe6080604052600436106100345760003560e01c80635bf9d6de14610039578063a368854614610069578063b863bd3714610087575b600080fd5b610053600480360381019061004e9190610837565b6100b7565b60405161006091906108fd565b60405180910390f35b6100716102b4565b60405161007e91906108fd565b60405180910390f35b6100a1600480360381019061009c9190610837565b610547565b6040516100ae919061092e565b60405180910390f35b6060600e8211156100fd576040517f08c379a00000000000000000000000000000000000000000000000000000000081526004016100f490610995565b60405180910390fd5b6001821015610141576040517f08c379a000000000000000000000000000000000000000000000000000000000815260040161013890610a01565b60405180910390fd5b60008267ffffffffffffffff81111561015d5761015c610a21565b5b6040519080825280601f01601f19166020018201604052801561018f5781602001600182028036833780820191505090505b5090506000603e67ffffffffffffffff8111156101af576101ae610a21565b5b6040519080825280601f01601f1916602001820160405280156101e15781602001600182028036833780820191505090505b5090506040518060400160405280601a81526020017f4142434445464748494a4b4c4d4e4f505152535455565758595a000000000000815250905060005b848110156102a9576000610233601a610547565b905082818151811061024857610247610a50565b5b602001015160f81c60f81b84838151811061026657610265610a50565b5b60200101907effffffffffffffffffffffffffffffffffffffffffffffffffffffffffffff1916908160001a9053505080806102a190610aae565b91505061021f565b508192505050919050565b6060600073__IDT___________________________________63a9a295ad6040518163ffffffff1660e01b8152600401600060405180830381865af4158015610301573d6000803e3d6000fd5b505050506040513d6000823e3d601f19601f8201168201806040525081019061032a9190610bed565b90506000603767ffffffffffffffff81111561034957610348610a21565b5b6040519080825280601f01601f19166020018201604052801561037b5781602001600182028036833780820191505090505b50905060005b81518110156103e457605f60f81b8282815181106103a2576103a1610a50565b5b60200101907effffffffffffffffffffffffffffffffffffffffffffffffffffffffffffff1916908160001a90535080806103dc90610aae565b915050610381565b5060005b825181101561046c5761041783828151811061040757610406610a50565b5b602001015160f81c60f81b6105a4565b82828151811061042a57610429610a50565b5b60200101907effffffffffffffffffffffffffffffffffffffffffffffffffffffffffffff1916908160001a905350808061046490610aae565b9150506103e8565b5060006009905060005b600381121561053d57818061048a90610aae565b9250506000610499600e6100b7565b905060005b81518110156105285783806104b290610aae565b9450508181815181106104c8576104c7610a50565b5b602001015160f81c60f81b8585815181106104e6576104e5610a50565b5b60200101907effffffffffffffffffffffffffffffffffffffffffffffffffffffffffffff1916908160001a905350808061052090610aae565b91505061049e565b5050808061053590610c40565b915050610476565b5081935050505090565b600080600081548092919061055b90610aae565b91905055508142443360005460405160200161057a9493929190610d23565b6040516020818303038152906040528051906020012060001c61059d9190610da0565b9050919050565b6000603060f81b827effffffffffffffffffffffffffffffffffffffffffffffffffffffffffffff1916036105df57604160f81b90506107e8565b603160f81b827effffffffffffffffffffffffffffffffffffffffffffffffffffffffffffff19160361061857604260f81b90506107e8565b603260f81b827effffffffffffffffffffffffffffffffffffffffffffffffffffffffffffff19160361065157604360f81b90506107e8565b603360f81b827effffffffffffffffffffffffffffffffffffffffffffffffffffffffffffff19160361068a57604460f81b90506107e8565b603460f81b827effffffffffffffffffffffffffffffffffffffffffffffffffffffffffffff1916036106c357604560f81b90506107e8565b603560f81b827effffffffffffffffffffffffffffffffffffffffffffffffffffffffffffff1916036106fc57604660f81b90506107e8565b603660f81b827effffffffffffffffffffffffffffffffffffffffffffffffffffffffffffff19160361073557604760f81b90506107e8565b603760f81b827effffffffffffffffffffffffffffffffffffffffffffffffffffffffffffff19160361076e57604860f81b90506107e8565b603860f81b827effffffffffffffffffffffffffffffffffffffffffffffffffffffffffffff1916036107a757604960f81b90506107e8565b603960f81b827effffffffffffffffffffffffffffffffffffffffffffffffffffffffffffff1916036107e057604a60f81b90506107e8565b605a60f81b90505b919050565b6000604051905090565b600080fd5b600080fd5b6000819050919050565b61081481610801565b811461081f57600080fd5b50565b6000813590506108318161080b565b92915050565b60006020828403121561084d5761084c6107f7565b5b600061085b84828501610822565b91505092915050565b600081519050919050565b600082825260208201905092915050565b60005b8381101561089e578082015181840152602081019050610883565b838111156108ad576000848401525b50505050565b6000601f19601f8301169050919050565b60006108cf82610864565b6108d9818561086f565b93506108e9818560208601610880565b6108f2816108b3565b840191505092915050565b6000602082019050818103600083015261091781846108c4565b905092915050565b61092881610801565b82525050565b6000602082019050610943600083018461091f565b92915050565b7f4c656e6774682063616e6e6f742062652067726561746572207468616e203134600082015250565b600061097f60208361086f565b915061098a82610949565b602082019050919050565b600060208201905081810360008301526109ae81610972565b9050919050565b7f4c656e6774682063616e6e6f74206265205a65726f0000000000000000000000600082015250565b60006109eb60158361086f565b91506109f6826109b5565b602082019050919050565b60006020820190508181036000830152610a1a816109de565b9050919050565b7f4e487b7100000000000000000000000000000000000000000000000000000000600052604160045260246000fd5b7f4e487b7100000000000000000000000000000000000000000000000000000000600052603260045260246000fd5b7f4e487b7100000000000000000000000000000000000000000000000000000000600052601160045260246000fd5b6000610ab982610801565b91507fffffffffffffffffffffffffffffffffffffffffffffffffffffffffffffffff8203610aeb57610aea610a7f565b5b600182019050919050565b600080fd5b600080fd5b610b09826108b3565b810181811067ffffffffffffffff82111715610b2857610b27610a21565b5b80604052505050565b6000610b3b6107ed565b9050610b478282610b00565b919050565b600067ffffffffffffffff821115610b6757610b66610a21565b5b610b70826108b3565b9050602081019050919050565b6000610b90610b8b84610b4c565b610b31565b905082815260208101848484011115610bac57610bab610afb565b5b610bb7848285610880565b509392505050565b600082601f830112610bd457610bd3610af6565b5b8151610be4848260208601610b7d565b91505092915050565b600060208284031215610c0357610c026107f7565b5b600082015167ffffffffffffffff811115610c2157610c206107fc565b5b610c2d84828501610bbf565b91505092915050565b6000819050919050565b6000610c4b82610c36565b91507f7fffffffffffffffffffffffffffffffffffffffffffffffffffffffffffffff8203610c7d57610c7c610a7f565b5b600182019050919050565b6000819050919050565b610ca3610c9e82610801565b610c88565b82525050565b600073ffffffffffffffffffffffffffffffffffffffff82169050919050565b6000610cd482610ca9565b9050919050565b60008160601b9050919050565b6000610cf382610cdb565b9050919050565b6000610d0582610ce8565b9050919050565b610d1d610d1882610cc9565b610cfa565b82525050565b6000610d2f8287610c92565b602082019150610d3f8286610c92565b602082019150610d4f8285610d0c565b601482019150610d5f8284610c92565b60208201915081905095945050505050565b7f4e487b7100000000000000000000000000000000000000000000000000000000600052601260045260246000fd5b6000610dab82610801565b9150610db683610801565b925082610dc657610dc5610d71565b5b82820690509291505056fea26469706673582212204dc228c3d6e75aaa54989b98fc5e9a711667ac0a130ce7e2f6058d8be5a9b7a664736f6c634300080f0033",
  "immutableReferences": {},
  "source": "pragma solidity ^0.8;\r\nimport {IDT} from \"./IDT.sol\";\r\n\r\ncontract GRandom {\r\n    uint256  counter = 1;\r\n  \r\n    function fixUChar(bytes1 i) private pure returns(bytes1)\r\n    {\r\n        if(i == 0x30)\r\n            return 0x41;\r\n        else if(i == 0x31)\r\n            return 0x42;\r\n        else if(i == 0x32)\r\n            return 0x43;\r\n        else if(i == 0x33)\r\n            return 0x44;\r\n        else if(i==0x34)\r\n            return 0x45;\r\n        else if(i==0x35)\r\n            return 0x46;\r\n        else if(i==0x36)\r\n            return 0x47;\r\n        else if(i==0x37)\r\n            return 0x48;\r\n        else if(i==0x38)\r\n            return 0x49;\r\n        else if(i==0x39)\r\n            return 0x4A;\r\n        // else if(i==0x39)\r\n        //     return 0x49;\r\n        else\r\n            return 0x5A;\r\n    }\r\n\r\n    function random(uint number) public payable returns(uint){\r\n        counter++;\r\n        return uint256(keccak256(abi.encodePacked(block.timestamp,block.difficulty,  \r\n        msg.sender,counter))) % number;\r\n    }\r\n\r\n    function randomString(uint256 length) public payable returns (string memory) {\r\n        require(length <= 14, \"Length cannot be greater than 14\");\r\n        require(length >= 1, \"Length cannot be Zero\");\r\n        bytes memory randomWord = new bytes(length);\r\n        // since we have 62 Characters\r\n        bytes memory chars = new bytes(62);\r\n        chars = \"ABCDEFGHIJKLMNOPQRSTUVWXYZ\";\r\n        for (uint256 i = 0; i < length; i++) {\r\n            uint256 randomNumber = random(26);\r\n            // Index access for string is not possible\r\n            randomWord[i] = chars[randomNumber];\r\n        }\r\n        return string(randomWord);\r\n    }\r\n\r\n    function uniqId() public payable returns(string memory)\r\n    {\r\n        bytes memory dn = bytes(IDT.strNow());\r\n        bytes memory result = new bytes(55);\r\n        for(uint i = 0; i < result.length; i++){\r\n            result[i] = 0x5F;\r\n        }\r\n        for(uint i = 0; i < dn.length; i++)\r\n        {\r\n            result[i] = fixUChar(dn[i]);\r\n        }\r\n        // result[10] = 0x5F;\r\n        uint j = 9;\r\n        for(int i=0; i <3; i++) {\r\n            j++;\r\n            bytes memory step1 = bytes(randomString(14));\r\n            for(uint k = 0; k < step1.length; k++)\r\n            {\r\n                j++;\r\n                result[j] = step1[k];\r\n            }\r\n        }\r\n        return string(result); \r\n    }\r\n}",
  "sourcePath": "C:\\Amir\\X7Opsilon\\smart_contract\\contracts\\BusinessHelper\\GRandom.sol",
  "compiler": {
    "name": "solc",
    "version": "0.8.15+commit.e14f2714.Emscripten.clang"
  },
  "schemaVersion": "3.4.14",
  "updatedAt": "2023-07-18T17:19:38.630Z",
  "devdoc": {
    "kind": "dev",
    "methods": {},
    "version": 1
  },
  "userdoc": {
    "kind": "user",
    "methods": {},
    "version": 1
  }
}