{
  "contractName": "Infrastructure",
  "abi": [
    {
      "inputs": [
        {
          "internalType": "bytes",
          "name": "b_data",
          "type": "bytes"
        },
        {
          "internalType": "uint256",
          "name": "strLength",
          "type": "uint256"
        }
      ],
      "name": "copyBytes",
      "outputs": [
        {
          "internalType": "bytes",
          "name": "resultData",
          "type": "bytes"
        }
      ],
      "stateMutability": "pure",
      "type": "function",
      "constant": true
    },
    {
      "inputs": [
        {
          "internalType": "bytes",
          "name": "b_data",
          "type": "bytes"
        }
      ],
      "name": "reverseBytes",
      "outputs": [
        {
          "internalType": "bytes",
          "name": "",
          "type": "bytes"
        }
      ],
      "stateMutability": "pure",
      "type": "function",
      "constant": true
    },
    {
      "inputs": [
        {
          "internalType": "string[]",
          "name": "paths",
          "type": "string[]"
        }
      ],
      "name": "combine",
      "outputs": [
        {
          "internalType": "string",
          "name": "",
          "type": "string"
        }
      ],
      "stateMutability": "pure",
      "type": "function",
      "constant": true
    },
    {
      "inputs": [
        {
          "internalType": "bytes",
          "name": "b1",
          "type": "bytes"
        },
        {
          "internalType": "bytes",
          "name": "b2",
          "type": "bytes"
        }
      ],
      "name": "bytesEquals",
      "outputs": [
        {
          "internalType": "bool",
          "name": "",
          "type": "bool"
        }
      ],
      "stateMutability": "pure",
      "type": "function",
      "constant": true
    }
  ],
  "bytecode": "0x610dd0610053600b82828239805160001a607314610046577f4e487b7100000000000000000000000000000000000000000000000000000000600052600060045260246000fd5b30600052607381538281f3fe73000000000000000000000000000000000000000030146080604052600436106100565760003560e01c80632f278ecb1461005b5780637da483171461008b5780639514fbc9146100bb578063c5249be9146100eb575b600080fd5b610075600480360381019061007091906106ac565b61011b565b6040516100829190610792565b60405180910390f35b6100a560048036038101906100a091906108e4565b61021c565b6040516100b29190610977565b60405180910390f35b6100d560048036038101906100d09190610b14565b6102f0565b6040516100e29190610bb2565b60405180910390f35b61010560048036038101906101009190610c0a565b610557565b6040516101129190610792565b60405180910390f35b606060008383905067ffffffffffffffff81111561013c5761013b6107b9565b5b6040519080825280601f01601f19166020018201604052801561016e5781602001600182028036833780820191505090505b50905060006001858590506101839190610c99565b905060005b8585905081101561021057858582846101a19190610c99565b8181106101b1576101b0610ccd565b5b9050013560f81c60f81b8382815181106101ce576101cd610ccd565b5b60200101907effffffffffffffffffffffffffffffffffffffffffffffffffffffffffffff1916908160001a905350808061020890610cfc565b915050610188565b50819250505092915050565b60008083519050825181146102355760009150506102ea565b60005b818110156102e35783818151811061025357610252610ccd565b5b602001015160f81c60f81b7effffffffffffffffffffffffffffffffffffffffffffffffffffffffffffff191685828151811061029357610292610ccd565b5b602001015160f81c60f81b7effffffffffffffffffffffffffffffffffffffffffffffffffffffffffffff1916146102d0576000925050506102ea565b80806102db90610cfc565b915050610238565b5060019150505b92915050565b6060600080835167ffffffffffffffff8111156103105761030f6107b9565b5b60405190808252806020026020018201604052801561034357816020015b606081526020019060019003908161032e5790505b50905060005b84518110156103bf57600085828151811061036757610366610ccd565b5b602002602001015190506001815161037f9190610d44565b8461038a9190610d44565b9350808383815181106103a05761039f610ccd565b5b60200260200101819052505080806103b790610cfc565b915050610349565b60008367ffffffffffffffff8111156103db576103da6107b9565b5b6040519080825280601f01601f19166020018201604052801561040d5781602001600182028036833780820191505090505b5090506000915060005b835181101561054a57602f60f81b82848151811061043857610437610ccd565b5b60200101907effffffffffffffffffffffffffffffffffffffffffffffffffffffffffffff1916908160001a905350828061047290610cfc565b93505060005b84828151811061048b5761048a610ccd565b5b602002602001015151811015610536578482815181106104ae576104ad610ccd565b5b602002602001015181815181106104c8576104c7610ccd565b5b602001015160f81c60f81b8385815181106104e6576104e5610ccd565b5b60200101907effffffffffffffffffffffffffffffffffffffffffffffffffffffffffffff1916908160001a905350838061052090610cfc565b945050808061052e90610cfc565b915050610478565b50808061054290610cfc565b915050610417565b5080945050505050919050565b606060008267ffffffffffffffff811115610575576105746107b9565b5b6040519080825280601f01601f1916602001820160405280156105a75781602001600182028036833780820191505090505b50905060005b83811015610627578585828181106105c8576105c7610ccd565b5b9050013560f81c60f81b8282815181106105e5576105e4610ccd565b5b60200101907effffffffffffffffffffffffffffffffffffffffffffffffffffffffffffff1916908160001a905350808061061f90610cfc565b9150506105ad565b50809150509392505050565b6000604051905090565b600080fd5b600080fd5b600080fd5b600080fd5b600080fd5b60008083601f84011261066c5761066b610647565b5b8235905067ffffffffffffffff8111156106895761068861064c565b5b6020830191508360018202830111156106a5576106a4610651565b5b9250929050565b600080602083850312156106c3576106c261063d565b5b600083013567ffffffffffffffff8111156106e1576106e0610642565b5b6106ed85828601610656565b92509250509250929050565b600081519050919050565b600082825260208201905092915050565b60005b83811015610733578082015181840152602081019050610718565b83811115610742576000848401525b50505050565b6000601f19601f8301169050919050565b6000610764826106f9565b61076e8185610704565b935061077e818560208601610715565b61078781610748565b840191505092915050565b600060208201905081810360008301526107ac8184610759565b905092915050565b600080fd5b7f4e487b7100000000000000000000000000000000000000000000000000000000600052604160045260246000fd5b6107f182610748565b810181811067ffffffffffffffff821117156108105761080f6107b9565b5b80604052505050565b6000610823610633565b905061082f82826107e8565b919050565b600067ffffffffffffffff82111561084f5761084e6107b9565b5b61085882610748565b9050602081019050919050565b82818337600083830152505050565b600061088761088284610834565b610819565b9050828152602081018484840111156108a3576108a26107b4565b5b6108ae848285610865565b509392505050565b600082601f8301126108cb576108ca610647565b5b81356108db848260208601610874565b91505092915050565b600080604083850312156108fb576108fa61063d565b5b600083013567ffffffffffffffff81111561091957610918610642565b5b610925858286016108b6565b925050602083013567ffffffffffffffff81111561094657610945610642565b5b610952858286016108b6565b9150509250929050565b60008115159050919050565b6109718161095c565b82525050565b600060208201905061098c6000830184610968565b92915050565b600067ffffffffffffffff8211156109ad576109ac6107b9565b5b602082029050602081019050919050565b600067ffffffffffffffff8211156109d9576109d86107b9565b5b6109e282610748565b9050602081019050919050565b6000610a026109fd846109be565b610819565b905082815260208101848484011115610a1e57610a1d6107b4565b5b610a29848285610865565b509392505050565b600082601f830112610a4657610a45610647565b5b8135610a568482602086016109ef565b91505092915050565b6000610a72610a6d84610992565b610819565b90508083825260208201905060208402830185811115610a9557610a94610651565b5b835b81811015610adc57803567ffffffffffffffff811115610aba57610ab9610647565b5b808601610ac78982610a31565b85526020850194505050602081019050610a97565b5050509392505050565b600082601f830112610afb57610afa610647565b5b8135610b0b848260208601610a5f565b91505092915050565b600060208284031215610b2a57610b2961063d565b5b600082013567ffffffffffffffff811115610b4857610b47610642565b5b610b5484828501610ae6565b91505092915050565b600081519050919050565b600082825260208201905092915050565b6000610b8482610b5d565b610b8e8185610b68565b9350610b9e818560208601610715565b610ba781610748565b840191505092915050565b60006020820190508181036000830152610bcc8184610b79565b905092915050565b6000819050919050565b610be781610bd4565b8114610bf257600080fd5b50565b600081359050610c0481610bde565b92915050565b600080600060408486031215610c2357610c2261063d565b5b600084013567ffffffffffffffff811115610c4157610c40610642565b5b610c4d86828701610656565b93509350506020610c6086828701610bf5565b9150509250925092565b7f4e487b7100000000000000000000000000000000000000000000000000000000600052601160045260246000fd5b6000610ca482610bd4565b9150610caf83610bd4565b925082821015610cc257610cc1610c6a565b5b828203905092915050565b7f4e487b7100000000000000000000000000000000000000000000000000000000600052603260045260246000fd5b6000610d0782610bd4565b91507fffffffffffffffffffffffffffffffffffffffffffffffffffffffffffffffff8203610d3957610d38610c6a565b5b600182019050919050565b6000610d4f82610bd4565b9150610d5a83610bd4565b9250827fffffffffffffffffffffffffffffffffffffffffffffffffffffffffffffffff03821115610d8f57610d8e610c6a565b5b82820190509291505056fea2646970667358221220c1b9879eacfc29323c0b8e4e0205f666eb60a4674fbb4104f42c261860c5ec9f64736f6c634300080f0033",
  "immutableReferences": {},
  "source": "// SPDX-License-Identifier: MIT\npragma solidity ^0.8;\nimport {IDT} from \"./IDT.sol\";\n\n/**\n * @dev Binary operations.\n */\nlibrary Infrastructure {\n    /**\n     * `string` contains special characters.\n     */\n    function strContains(string memory inputCase, bytes memory chars)\n        internal\n        pure\n        returns (bool)\n    {\n        bytes memory b_inputCase = bytes(inputCase);\n        bool result = false;\n        for (uint256 i = 0; i < b_inputCase.length; i++) {\n            for (uint256 j = 0; j < chars.length; j++) {\n                //string is contains char\n                if (b_inputCase[i] == chars[j]) {\n                    result = true;\n                    break;\n                }\n            }\n            if (result) {\n                break;\n            }\n        }\n        return result;\n    }\n\n    function copyBytes(bytes calldata b_data, uint256 strLength)\n        external\n        pure\n        returns (bytes memory resultData)\n    {\n        bytes memory result = new bytes(strLength);\n        for (uint256 i = 0; i < strLength; i++) {\n            result[i] = b_data[i];\n        }\n        return result;\n    }\n\n    function reverseBytes(bytes calldata b_data) \n    external pure returns (bytes memory)\n    {\n        bytes memory result = new bytes(b_data.length);\n        uint256 length = b_data.length - 1;\n        for(uint i = 0; i < b_data.length; i++)\n        {\n            result[i] = b_data[length - i];\n        }\n        return result;\n    }\n\n    function combine(string[] memory paths) external pure returns (string memory) {\n        uint256 count = 0;\n        bytes[] memory processData = new bytes[](paths.length);\n        uint256 i = 0;\n        for(;i < paths.length; i++)\n        {\n            bytes memory data = bytes(paths[i]);\n            count += data.length + 1;\n            processData[i] = data;\n        }\n        bytes memory result = new bytes(count);\n        i = 0;\n        for(uint256 j = 0; j < processData.length; j++)\n        {\n            result[i] = 0x2f;\n            i++;\n            for(uint256 k = 0; k < processData[j].length; k++){\n                result[i] = processData[j][k];\n                i++;\n            }\n        }\n        return string(result);\n    }\n\n    function bytesEquals(bytes memory b1, bytes memory b2) public pure returns (bool) {\n        uint256 l1 = b1.length;\n        if (l1 != b2.length) return false;\n        for (uint256 i=0; i<l1; i++) {\n            if (b1[i] != b2[i]) return false;\n        }\n        return true;\n    }\n}\n",
  "sourcePath": "C:\\Amir\\X7Opsilon\\smart_contract\\contracts\\BusinessHelper\\Infrastructure.sol",
  "compiler": {
    "name": "solc",
    "version": "0.8.15+commit.e14f2714.Emscripten.clang"
  },
  "schemaVersion": "3.4.14",
  "updatedAt": "2023-07-25T19:59:35.801Z",
  "networkType": "ethereum",
  "devdoc": {
    "details": "Binary operations.",
    "kind": "dev",
    "methods": {},
    "version": 1
  },
  "userdoc": {
    "kind": "user",
    "methods": {},
    "version": 1
  }
}