{
  "contractName": "UniqueIdGenerator",
  "abi": [
    {
      "inputs": [],
      "name": "uniqId",
      "outputs": [
        {
          "internalType": "string",
          "name": "",
          "type": "string"
        }
      ],
      "stateMutability": "payable",
      "type": "function",
      "payable": true
    }
  ],
  "bytecode": "0x6080604052600160005534801561001557600080fd5b50610d0e806100256000396000f3fe60806040526004361061001e5760003560e01c8063a368854614610023575b600080fd5b61002b610041565b6040516100389190610810565b60405180910390f35b6060600073__IDT___________________________________63a9a295ad6040518163ffffffff1660e01b8152600401600060405180830381865af415801561008e573d6000803e3d6000fd5b505050506040513d6000823e3d601f19601f820116820180604052508101906100b7919061096c565b90506000603767ffffffffffffffff8111156100d6576100d5610850565b5b6040519080825280601f01601f1916602001820160405280156101085781602001600182028036833780820191505090505b50905060005b815181101561017157605f60f81b82828151811061012f5761012e6109b5565b5b60200101907effffffffffffffffffffffffffffffffffffffffffffffffffffffffffffff1916908160001a905350808061016990610a1d565b91505061010e565b5060005b82518110156101f9576101a4838281518110610194576101936109b5565b5b602001015160f81c60f81b6102d4565b8282815181106101b7576101b66109b5565b5b60200101907effffffffffffffffffffffffffffffffffffffffffffffffffffffffffffff1916908160001a90535080806101f190610a1d565b915050610175565b5060006009905060005b60038112156102ca57818061021790610a1d565b9250506000610226600e61051d565b905060005b81518110156102b557838061023f90610a1d565b945050818181518110610255576102546109b5565b5b602001015160f81c60f81b858581518110610273576102726109b5565b5b60200101907effffffffffffffffffffffffffffffffffffffffffffffffffffffffffffff1916908160001a90535080806102ad90610a1d565b91505061022b565b505080806102c290610a6f565b915050610203565b5081935050505090565b6000603060f81b827effffffffffffffffffffffffffffffffffffffffffffffffffffffffffffff19160361030f57604160f81b9050610518565b603160f81b827effffffffffffffffffffffffffffffffffffffffffffffffffffffffffffff19160361034857604260f81b9050610518565b603260f81b827effffffffffffffffffffffffffffffffffffffffffffffffffffffffffffff19160361038157604360f81b9050610518565b603360f81b827effffffffffffffffffffffffffffffffffffffffffffffffffffffffffffff1916036103ba57604460f81b9050610518565b603460f81b827effffffffffffffffffffffffffffffffffffffffffffffffffffffffffffff1916036103f357604560f81b9050610518565b603560f81b827effffffffffffffffffffffffffffffffffffffffffffffffffffffffffffff19160361042c57604660f81b9050610518565b603660f81b827effffffffffffffffffffffffffffffffffffffffffffffffffffffffffffff19160361046557604760f81b9050610518565b603760f81b827effffffffffffffffffffffffffffffffffffffffffffffffffffffffffffff19160361049e57604860f81b9050610518565b603860f81b827effffffffffffffffffffffffffffffffffffffffffffffffffffffffffffff1916036104d757604960f81b9050610518565b603960f81b827effffffffffffffffffffffffffffffffffffffffffffffffffffffffffffff19160361051057604a60f81b9050610518565b605a60f81b90505b919050565b6060600e821115610563576040517f08c379a000000000000000000000000000000000000000000000000000000000815260040161055a90610b03565b60405180910390fd5b60018210156105a7576040517f08c379a000000000000000000000000000000000000000000000000000000000815260040161059e90610b6f565b60405180910390fd5b60008267ffffffffffffffff8111156105c3576105c2610850565b5b6040519080825280601f01601f1916602001820160405280156105f55781602001600182028036833780820191505090505b5090506000603e67ffffffffffffffff81111561061557610614610850565b5b6040519080825280601f01601f1916602001820160405280156106475781602001600182028036833780820191505090505b5090506040518060400160405280601a81526020017f4142434445464748494a4b4c4d4e4f505152535455565758595a000000000000815250905060005b8481101561070f576000610699601a61071a565b90508281815181106106ae576106ad6109b5565b5b602001015160f81c60f81b8483815181106106cc576106cb6109b5565b5b60200101907effffffffffffffffffffffffffffffffffffffffffffffffffffffffffffff1916908160001a90535050808061070790610a1d565b915050610685565b508192505050919050565b600080600081548092919061072e90610a1d565b91905055508142443360005460405160200161074d9493929190610c2a565b6040516020818303038152906040528051906020012060001c6107709190610ca7565b9050919050565b600081519050919050565b600082825260208201905092915050565b60005b838110156107b1578082015181840152602081019050610796565b838111156107c0576000848401525b50505050565b6000601f19601f8301169050919050565b60006107e282610777565b6107ec8185610782565b93506107fc818560208601610793565b610805816107c6565b840191505092915050565b6000602082019050818103600083015261082a81846107d7565b905092915050565b6000604051905090565b600080fd5b600080fd5b600080fd5b600080fd5b7f4e487b7100000000000000000000000000000000000000000000000000000000600052604160045260246000fd5b610888826107c6565b810181811067ffffffffffffffff821117156108a7576108a6610850565b5b80604052505050565b60006108ba610832565b90506108c6828261087f565b919050565b600067ffffffffffffffff8211156108e6576108e5610850565b5b6108ef826107c6565b9050602081019050919050565b600061090f61090a846108cb565b6108b0565b90508281526020810184848401111561092b5761092a61084b565b5b610936848285610793565b509392505050565b600082601f83011261095357610952610846565b5b81516109638482602086016108fc565b91505092915050565b6000602082840312156109825761098161083c565b5b600082015167ffffffffffffffff8111156109a05761099f610841565b5b6109ac8482850161093e565b91505092915050565b7f4e487b7100000000000000000000000000000000000000000000000000000000600052603260045260246000fd5b7f4e487b7100000000000000000000000000000000000000000000000000000000600052601160045260246000fd5b6000819050919050565b6000610a2882610a13565b91507fffffffffffffffffffffffffffffffffffffffffffffffffffffffffffffffff8203610a5a57610a596109e4565b5b600182019050919050565b6000819050919050565b6000610a7a82610a65565b91507f7fffffffffffffffffffffffffffffffffffffffffffffffffffffffffffffff8203610aac57610aab6109e4565b5b600182019050919050565b7f4c656e6774682063616e6e6f742062652067726561746572207468616e203134600082015250565b6000610aed602083610782565b9150610af882610ab7565b602082019050919050565b60006020820190508181036000830152610b1c81610ae0565b9050919050565b7f4c656e6774682063616e6e6f74206265205a65726f0000000000000000000000600082015250565b6000610b59601583610782565b9150610b6482610b23565b602082019050919050565b60006020820190508181036000830152610b8881610b4c565b9050919050565b6000819050919050565b610baa610ba582610a13565b610b8f565b82525050565b600073ffffffffffffffffffffffffffffffffffffffff82169050919050565b6000610bdb82610bb0565b9050919050565b60008160601b9050919050565b6000610bfa82610be2565b9050919050565b6000610c0c82610bef565b9050919050565b610c24610c1f82610bd0565b610c01565b82525050565b6000610c368287610b99565b602082019150610c468286610b99565b602082019150610c568285610c13565b601482019150610c668284610b99565b60208201915081905095945050505050565b7f4e487b7100000000000000000000000000000000000000000000000000000000600052601260045260246000fd5b6000610cb282610a13565b9150610cbd83610a13565b925082610ccd57610ccc610c78565b5b82820690509291505056fea2646970667358221220aac732a01dee6bddf7a3f3fba1cd8977bece9b37608a0e1334619c6cdb464b0c64736f6c634300080f0033",
  "deployedBytecode": "0x60806040526004361061001e5760003560e01c8063a368854614610023575b600080fd5b61002b610041565b6040516100389190610810565b60405180910390f35b6060600073__IDT___________________________________63a9a295ad6040518163ffffffff1660e01b8152600401600060405180830381865af415801561008e573d6000803e3d6000fd5b505050506040513d6000823e3d601f19601f820116820180604052508101906100b7919061096c565b90506000603767ffffffffffffffff8111156100d6576100d5610850565b5b6040519080825280601f01601f1916602001820160405280156101085781602001600182028036833780820191505090505b50905060005b815181101561017157605f60f81b82828151811061012f5761012e6109b5565b5b60200101907effffffffffffffffffffffffffffffffffffffffffffffffffffffffffffff1916908160001a905350808061016990610a1d565b91505061010e565b5060005b82518110156101f9576101a4838281518110610194576101936109b5565b5b602001015160f81c60f81b6102d4565b8282815181106101b7576101b66109b5565b5b60200101907effffffffffffffffffffffffffffffffffffffffffffffffffffffffffffff1916908160001a90535080806101f190610a1d565b915050610175565b5060006009905060005b60038112156102ca57818061021790610a1d565b9250506000610226600e61051d565b905060005b81518110156102b557838061023f90610a1d565b945050818181518110610255576102546109b5565b5b602001015160f81c60f81b858581518110610273576102726109b5565b5b60200101907effffffffffffffffffffffffffffffffffffffffffffffffffffffffffffff1916908160001a90535080806102ad90610a1d565b91505061022b565b505080806102c290610a6f565b915050610203565b5081935050505090565b6000603060f81b827effffffffffffffffffffffffffffffffffffffffffffffffffffffffffffff19160361030f57604160f81b9050610518565b603160f81b827effffffffffffffffffffffffffffffffffffffffffffffffffffffffffffff19160361034857604260f81b9050610518565b603260f81b827effffffffffffffffffffffffffffffffffffffffffffffffffffffffffffff19160361038157604360f81b9050610518565b603360f81b827effffffffffffffffffffffffffffffffffffffffffffffffffffffffffffff1916036103ba57604460f81b9050610518565b603460f81b827effffffffffffffffffffffffffffffffffffffffffffffffffffffffffffff1916036103f357604560f81b9050610518565b603560f81b827effffffffffffffffffffffffffffffffffffffffffffffffffffffffffffff19160361042c57604660f81b9050610518565b603660f81b827effffffffffffffffffffffffffffffffffffffffffffffffffffffffffffff19160361046557604760f81b9050610518565b603760f81b827effffffffffffffffffffffffffffffffffffffffffffffffffffffffffffff19160361049e57604860f81b9050610518565b603860f81b827effffffffffffffffffffffffffffffffffffffffffffffffffffffffffffff1916036104d757604960f81b9050610518565b603960f81b827effffffffffffffffffffffffffffffffffffffffffffffffffffffffffffff19160361051057604a60f81b9050610518565b605a60f81b90505b919050565b6060600e821115610563576040517f08c379a000000000000000000000000000000000000000000000000000000000815260040161055a90610b03565b60405180910390fd5b60018210156105a7576040517f08c379a000000000000000000000000000000000000000000000000000000000815260040161059e90610b6f565b60405180910390fd5b60008267ffffffffffffffff8111156105c3576105c2610850565b5b6040519080825280601f01601f1916602001820160405280156105f55781602001600182028036833780820191505090505b5090506000603e67ffffffffffffffff81111561061557610614610850565b5b6040519080825280601f01601f1916602001820160405280156106475781602001600182028036833780820191505090505b5090506040518060400160405280601a81526020017f4142434445464748494a4b4c4d4e4f505152535455565758595a000000000000815250905060005b8481101561070f576000610699601a61071a565b90508281815181106106ae576106ad6109b5565b5b602001015160f81c60f81b8483815181106106cc576106cb6109b5565b5b60200101907effffffffffffffffffffffffffffffffffffffffffffffffffffffffffffff1916908160001a90535050808061070790610a1d565b915050610685565b508192505050919050565b600080600081548092919061072e90610a1d565b91905055508142443360005460405160200161074d9493929190610c2a565b6040516020818303038152906040528051906020012060001c6107709190610ca7565b9050919050565b600081519050919050565b600082825260208201905092915050565b60005b838110156107b1578082015181840152602081019050610796565b838111156107c0576000848401525b50505050565b6000601f19601f8301169050919050565b60006107e282610777565b6107ec8185610782565b93506107fc818560208601610793565b610805816107c6565b840191505092915050565b6000602082019050818103600083015261082a81846107d7565b905092915050565b6000604051905090565b600080fd5b600080fd5b600080fd5b600080fd5b7f4e487b7100000000000000000000000000000000000000000000000000000000600052604160045260246000fd5b610888826107c6565b810181811067ffffffffffffffff821117156108a7576108a6610850565b5b80604052505050565b60006108ba610832565b90506108c6828261087f565b919050565b600067ffffffffffffffff8211156108e6576108e5610850565b5b6108ef826107c6565b9050602081019050919050565b600061090f61090a846108cb565b6108b0565b90508281526020810184848401111561092b5761092a61084b565b5b610936848285610793565b509392505050565b600082601f83011261095357610952610846565b5b81516109638482602086016108fc565b91505092915050565b6000602082840312156109825761098161083c565b5b600082015167ffffffffffffffff8111156109a05761099f610841565b5b6109ac8482850161093e565b91505092915050565b7f4e487b7100000000000000000000000000000000000000000000000000000000600052603260045260246000fd5b7f4e487b7100000000000000000000000000000000000000000000000000000000600052601160045260246000fd5b6000819050919050565b6000610a2882610a13565b91507fffffffffffffffffffffffffffffffffffffffffffffffffffffffffffffffff8203610a5a57610a596109e4565b5b600182019050919050565b6000819050919050565b6000610a7a82610a65565b91507f7fffffffffffffffffffffffffffffffffffffffffffffffffffffffffffffff8203610aac57610aab6109e4565b5b600182019050919050565b7f4c656e6774682063616e6e6f742062652067726561746572207468616e203134600082015250565b6000610aed602083610782565b9150610af882610ab7565b602082019050919050565b60006020820190508181036000830152610b1c81610ae0565b9050919050565b7f4c656e6774682063616e6e6f74206265205a65726f0000000000000000000000600082015250565b6000610b59601583610782565b9150610b6482610b23565b602082019050919050565b60006020820190508181036000830152610b8881610b4c565b9050919050565b6000819050919050565b610baa610ba582610a13565b610b8f565b82525050565b600073ffffffffffffffffffffffffffffffffffffffff82169050919050565b6000610bdb82610bb0565b9050919050565b60008160601b9050919050565b6000610bfa82610be2565b9050919050565b6000610c0c82610bef565b9050919050565b610c24610c1f82610bd0565b610c01565b82525050565b6000610c368287610b99565b602082019150610c468286610b99565b602082019150610c568285610c13565b601482019150610c668284610b99565b60208201915081905095945050505050565b7f4e487b7100000000000000000000000000000000000000000000000000000000600052601260045260246000fd5b6000610cb282610a13565b9150610cbd83610a13565b925082610ccd57610ccc610c78565b5b82820690509291505056fea2646970667358221220aac732a01dee6bddf7a3f3fba1cd8977bece9b37608a0e1334619c6cdb464b0c64736f6c634300080f0033",
  "immutableReferences": {},
  "source": "// SPDX-License-Identifier: MIT\npragma solidity ^0.8;\nimport {IDT} from \"./IDT.sol\";\n\ncontract UniqueIdGenerator {\n    uint256 counter = 1;\n\n    function fixUChar(bytes1 i) private pure returns (bytes1) {\n        if (i == 0x30) return 0x41;\n        else if (i == 0x31) return 0x42;\n        else if (i == 0x32) return 0x43;\n        else if (i == 0x33) return 0x44;\n        else if (i == 0x34) return 0x45;\n        else if (i == 0x35) return 0x46;\n        else if (i == 0x36) return 0x47;\n        else if (i == 0x37) return 0x48;\n        else if (i == 0x38) return 0x49;\n        else if (i == 0x39) return 0x4A;\n        // else if(i==0x39)\n        //     return 0x49;\n        else return 0x5A;\n    }\n\n    function random(uint256 number) private returns (uint256) {\n        counter++;\n        return\n            uint256(\n                keccak256(\n                    abi.encodePacked(\n                        block.timestamp,\n                        block.difficulty,\n                        msg.sender,\n                        counter\n                    )\n                )\n            ) % number;\n    }\n\n    function randomString(uint256 length) private returns (string memory) {\n        require(length <= 14, \"Length cannot be greater than 14\");\n        require(length >= 1, \"Length cannot be Zero\");\n        bytes memory randomWord = new bytes(length);\n        // since we have 62 Characters\n        bytes memory chars = new bytes(62);\n        chars = \"ABCDEFGHIJKLMNOPQRSTUVWXYZ\";\n        for (uint256 i = 0; i < length; i++) {\n            uint256 randomNumber = random(26);\n            // Index access for string is not possible\n            randomWord[i] = chars[randomNumber];\n        }\n        return string(randomWord);\n    }\n\n    function uniqId() public payable returns (string memory) {\n        bytes memory dn = bytes(IDT.strNow());\n        bytes memory result = new bytes(55);\n        for (uint256 i = 0; i < result.length; i++) {\n            result[i] = 0x5F;\n        }\n        for (uint256 i = 0; i < dn.length; i++) {\n            result[i] = fixUChar(dn[i]);\n        }\n        // result[10] = 0x5F;\n        uint256 j = 9;\n        for (int256 i = 0; i < 3; i++) {\n            j++;\n            bytes memory step1 = bytes(randomString(14));\n            for (uint256 k = 0; k < step1.length; k++) {\n                j++;\n                result[j] = step1[k];\n            }\n        }\n        return string(result);\n    }\n}\n",
  "sourcePath": "C:\\Amir\\X7Opsilon\\smart_contract\\contracts\\BusinessHelper\\UniqueIdGenerator.sol",
  "compiler": {
    "name": "solc",
    "version": "0.8.15+commit.e14f2714.Emscripten.clang"
  },
  "schemaVersion": "3.4.14",
  "updatedAt": "2023-07-29T16:39:13.246Z",
  "networkType": "ethereum",
  "devdoc": {
    "kind": "dev",
    "methods": {},
    "version": 1
  },
  "userdoc": {
    "kind": "user",
    "methods": {},
    "version": 1
  }
}