{
  "_format": "hh-sol-artifact-1",
  "contractName": "ContractLogic",
  "sourceName": "contracts/ContractLogic.sol",
  "abi": [
    {
      "inputs": [],
      "stateMutability": "nonpayable",
      "type": "constructor"
    },
    {
      "inputs": [
        {
          "internalType": "string",
          "name": "name",
          "type": "string"
        },
        {
          "internalType": "string",
          "name": "parentId",
          "type": "string"
        }
      ],
      "name": "createDirectory",
      "outputs": [
        {
          "internalType": "string",
          "name": "",
          "type": "string"
        }
      ],
      "stateMutability": "payable",
      "type": "function"
    },
    {
      "inputs": [
        {
          "internalType": "string",
          "name": "id",
          "type": "string"
        }
      ],
      "name": "getDirectoryData",
      "outputs": [
        {
          "components": [
            {
              "internalType": "string",
              "name": "Id",
              "type": "string"
            },
            {
              "internalType": "string",
              "name": "ParentId",
              "type": "string"
            },
            {
              "internalType": "string",
              "name": "Name",
              "type": "string"
            },
            {
              "internalType": "address",
              "name": "Creator",
              "type": "address"
            },
            {
              "internalType": "uint256",
              "name": "DateCreated",
              "type": "uint256"
            }
          ],
          "internalType": "struct DirectoryFrame[]",
          "name": "",
          "type": "tuple[]"
        },
        {
          "components": [
            {
              "internalType": "string",
              "name": "Id",
              "type": "string"
            },
            {
              "internalType": "string",
              "name": "Name",
              "type": "string"
            },
            {
              "internalType": "string",
              "name": "Extension",
              "type": "string"
            }
          ],
          "internalType": "struct FileOutput[]",
          "name": "",
          "type": "tuple[]"
        },
        {
          "components": [
            {
              "internalType": "string",
              "name": "DirectoryId",
              "type": "string"
            },
            {
              "internalType": "uint256",
              "name": "FilesCount",
              "type": "uint256"
            },
            {
              "internalType": "uint256",
              "name": "DirectoriesCount",
              "type": "uint256"
            },
            {
              "internalType": "uint256",
              "name": "Size",
              "type": "uint256"
            }
          ],
          "internalType": "struct DirectoryInfoFrame",
          "name": "",
          "type": "tuple"
        }
      ],
      "stateMutability": "view",
      "type": "function"
    },
    {
      "inputs": [],
      "name": "getOrCreateRoot",
      "outputs": [
        {
          "components": [
            {
              "internalType": "string",
              "name": "Id",
              "type": "string"
            },
            {
              "internalType": "string",
              "name": "ParentId",
              "type": "string"
            },
            {
              "internalType": "string",
              "name": "Name",
              "type": "string"
            },
            {
              "internalType": "address",
              "name": "Creator",
              "type": "address"
            },
            {
              "internalType": "uint256",
              "name": "DateCreated",
              "type": "uint256"
            }
          ],
          "internalType": "struct DirectoryFrame",
          "name": "root",
          "type": "tuple"
        }
      ],
      "stateMutability": "payable",
      "type": "function"
    },
    {
      "inputs": [],
      "name": "getRoot",
      "outputs": [
        {
          "internalType": "bool",
          "name": "",
          "type": "bool"
        },
        {
          "components": [
            {
              "internalType": "string",
              "name": "Id",
              "type": "string"
            },
            {
              "internalType": "string",
              "name": "ParentId",
              "type": "string"
            },
            {
              "internalType": "string",
              "name": "Name",
              "type": "string"
            },
            {
              "internalType": "address",
              "name": "Creator",
              "type": "address"
            },
            {
              "internalType": "uint256",
              "name": "DateCreated",
              "type": "uint256"
            }
          ],
          "internalType": "struct DirectoryFrame",
          "name": "",
          "type": "tuple"
        }
      ],
      "stateMutability": "view",
      "type": "function"
    },
    {
      "inputs": [
        {
          "internalType": "string",
          "name": "directoryId",
          "type": "string"
        },
        {
          "internalType": "string",
          "name": "fileName",
          "type": "string"
        },
        {
          "internalType": "bytes",
          "name": "fileData",
          "type": "bytes"
        }
      ],
      "name": "uploadFile",
      "outputs": [
        {
          "internalType": "string",
          "name": "",
          "type": "string"
        }
      ],
      "stateMutability": "payable",
      "type": "function"
    }
  ],
  "bytecode": "0x60806040523480156200001157600080fd5b50604051620000209062000250565b604051809103906000f0801580156200003d573d6000803e3d6000fd5b50600360006101000a81548173ffffffffffffffffffffffffffffffffffffffff021916908373ffffffffffffffffffffffffffffffffffffffff160217905550600360009054906101000a900473ffffffffffffffffffffffffffffffffffffffff16604051620000af906200025e565b620000bb919062000313565b604051809103906000f080158015620000d8573d6000803e3d6000fd5b506000806101000a81548173ffffffffffffffffffffffffffffffffffffffff021916908373ffffffffffffffffffffffffffffffffffffffff16021790555060008054906101000a900473ffffffffffffffffffffffffffffffffffffffff1660405162000147906200026c565b62000153919062000355565b604051809103906000f08015801562000170573d6000803e3d6000fd5b50600160006101000a81548173ffffffffffffffffffffffffffffffffffffffff021916908373ffffffffffffffffffffffffffffffffffffffff16021790555060008054906101000a900473ffffffffffffffffffffffffffffffffffffffff16604051620001e0906200027a565b620001ec919062000355565b604051809103906000f08015801562000209573d6000803e3d6000fd5b50600260006101000a81548173ffffffffffffffffffffffffffffffffffffffff021916908373ffffffffffffffffffffffffffffffffffffffff16021790555062000372565b611e498062001d3e83390190565b610e598062003b8783390190565b613bf080620049e083390190565b61372b80620085d083390190565b600073ffffffffffffffffffffffffffffffffffffffff82169050919050565b6000819050919050565b6000620002d3620002cd620002c78462000288565b620002a8565b62000288565b9050919050565b6000620002e782620002b2565b9050919050565b6000620002fb82620002da565b9050919050565b6200030d81620002ee565b82525050565b60006020820190506200032a600083018462000302565b92915050565b60006200033d82620002da565b9050919050565b6200034f8162000330565b82525050565b60006020820190506200036c600083018462000344565b92915050565b6119bc80620003826000396000f3fe60806040526004361061004a5760003560e01c806309f1cffc1461004f5780633659b0c21461007f5780635ca1e165146100be578063eb849f28146100ea578063ef8bfa3e1461011a575b600080fd5b610069600480360381019061006491906109e0565b610138565b6040516100769190610b06565b60405180910390f35b34801561008b57600080fd5b506100a660048036038101906100a19190610b28565b6103f9565b6040516100b593929190610ede565b60405180910390f35b3480156100ca57600080fd5b506100d3610564565b6040516100e1929190610fc9565b60405180910390f35b61010460048036038101906100ff9190610ff9565b610617565b6040516101119190610b06565b60405180910390f35b6101226106c8565b60405161012f9190611071565b60405180910390f35b60606000600160009054906101000a900473ffffffffffffffffffffffffffffffffffffffff1673ffffffffffffffffffffffffffffffffffffffff1663929ad6c233876040518363ffffffff1660e01b81526004016101999291906110a2565b6000604051808303816000875af11580156101b8573d6000803e3d6000fd5b505050506040513d6000823e3d601f19601f820116820180604052508101906101e19190611284565b90506000600160009054906101000a900473ffffffffffffffffffffffffffffffffffffffff1673ffffffffffffffffffffffffffffffffffffffff1663679c7ccb83600001516040518263ffffffff1660e01b81526004016102449190610b06565b6000604051808303816000875af1158015610263573d6000803e3d6000fd5b505050506040513d6000823e3d601f19601f8201168201806040525081019061028c9190611361565b90506001816020015161029f91906113d9565b816020018181525050600160009054906101000a900473ffffffffffffffffffffffffffffffffffffffff1673ffffffffffffffffffffffffffffffffffffffff1663976c12558360000151836040518363ffffffff1660e01b815260040161030992919061140d565b600060405180830381600087803b15801561032357600080fd5b505af1158015610337573d6000803e3d6000fd5b505050506000600260009054906101000a900473ffffffffffffffffffffffffffffffffffffffff1673ffffffffffffffffffffffffffffffffffffffff1663f9fe375d33888660000151896040518563ffffffff1660e01b81526004016103a29493929190611499565b6000604051808303816000875af11580156103c1573d6000803e3d6000fd5b505050506040513d6000823e3d601f19601f820116820180604052508101906103ea91906114f3565b90508093505050509392505050565b606080610404610778565b600080600160009054906101000a900473ffffffffffffffffffffffffffffffffffffffff1673ffffffffffffffffffffffffffffffffffffffff166304c94169876040518263ffffffff1660e01b81526004016104629190610b06565b600060405180830381865afa15801561047f573d6000803e3d6000fd5b505050506040513d6000823e3d601f19601f820116820180604052508101906104a89190611622565b915091506000600260009054906101000a900473ffffffffffffffffffffffffffffffffffffffff1673ffffffffffffffffffffffffffffffffffffffff1663b5414683836040518263ffffffff1660e01b8152600401610509919061169a565b600060405180830381865afa158015610526573d6000803e3d6000fd5b505050506040513d6000823e3d601f19601f8201168201806040525081019061054f9190611855565b90508281839550955095505050509193909250565b600061056e6107a0565b600160009054906101000a900473ffffffffffffffffffffffffffffffffffffffff1673ffffffffffffffffffffffffffffffffffffffff1663079cf76e336040518263ffffffff1660e01b81526004016105c9919061189e565b600060405180830381865afa1580156105e6573d6000803e3d6000fd5b505050506040513d6000823e3d601f19601f8201168201806040525081019061060f91906118e5565b915091509091565b6060600160009054906101000a900473ffffffffffffffffffffffffffffffffffffffff1673ffffffffffffffffffffffffffffffffffffffff166346bc7fd93385856040518463ffffffff1660e01b815260040161067893929190611941565b6000604051808303816000875af1158015610697573d6000803e3d6000fd5b505050506040513d6000823e3d601f19601f820116820180604052508101906106c091906114f3565b905092915050565b6106d06107a0565b600160009054906101000a900473ffffffffffffffffffffffffffffffffffffffff1673ffffffffffffffffffffffffffffffffffffffff166349b1cea8336040518263ffffffff1660e01b815260040161072b919061189e565b6000604051808303816000875af115801561074a573d6000803e3d6000fd5b505050506040513d6000823e3d601f19601f820116820180604052508101906107739190611284565b905090565b6040518060800160405280606081526020016000815260200160008152602001600081525090565b6040518060a00160405280606081526020016060815260200160608152602001600073ffffffffffffffffffffffffffffffffffffffff168152602001600081525090565b6000604051905090565b600080fd5b600080fd5b600080fd5b600080fd5b6000601f19601f8301169050919050565b7f4e487b7100000000000000000000000000000000000000000000000000000000600052604160045260246000fd5b61084c82610803565b810181811067ffffffffffffffff8211171561086b5761086a610814565b5b80604052505050565b600061087e6107e5565b905061088a8282610843565b919050565b600067ffffffffffffffff8211156108aa576108a9610814565b5b6108b382610803565b9050602081019050919050565b82818337600083830152505050565b60006108e26108dd8461088f565b610874565b9050828152602081018484840111156108fe576108fd6107fe565b5b6109098482856108c0565b509392505050565b600082601f830112610926576109256107f9565b5b81356109368482602086016108cf565b91505092915050565b600067ffffffffffffffff82111561095a57610959610814565b5b61096382610803565b9050602081019050919050565b600061098361097e8461093f565b610874565b90508281526020810184848401111561099f5761099e6107fe565b5b6109aa8482856108c0565b509392505050565b600082601f8301126109c7576109c66107f9565b5b81356109d7848260208601610970565b91505092915050565b6000806000606084860312156109f9576109f86107ef565b5b600084013567ffffffffffffffff811115610a1757610a166107f4565b5b610a2386828701610911565b935050602084013567ffffffffffffffff811115610a4457610a436107f4565b5b610a5086828701610911565b925050604084013567ffffffffffffffff811115610a7157610a706107f4565b5b610a7d868287016109b2565b9150509250925092565b600081519050919050565b600082825260208201905092915050565b60005b83811015610ac1578082015181840152602081019050610aa6565b60008484015250505050565b6000610ad882610a87565b610ae28185610a92565b9350610af2818560208601610aa3565b610afb81610803565b840191505092915050565b60006020820190508181036000830152610b208184610acd565b905092915050565b600060208284031215610b3e57610b3d6107ef565b5b600082013567ffffffffffffffff811115610b5c57610b5b6107f4565b5b610b6884828501610911565b91505092915050565b600081519050919050565b600082825260208201905092915050565b6000819050602082019050919050565b600082825260208201905092915050565b6000610bb982610a87565b610bc38185610b9d565b9350610bd3818560208601610aa3565b610bdc81610803565b840191505092915050565b600073ffffffffffffffffffffffffffffffffffffffff82169050919050565b6000610c1282610be7565b9050919050565b610c2281610c07565b82525050565b6000819050919050565b610c3b81610c28565b82525050565b600060a0830160008301518482036000860152610c5e8282610bae565b91505060208301518482036020860152610c788282610bae565b91505060408301518482036040860152610c928282610bae565b9150506060830151610ca76060860182610c19565b506080830151610cba6080860182610c32565b508091505092915050565b6000610cd18383610c41565b905092915050565b6000602082019050919050565b6000610cf182610b71565b610cfb8185610b7c565b935083602082028501610d0d85610b8d565b8060005b85811015610d495784840389528151610d2a8582610cc5565b9450610d3583610cd9565b925060208a01995050600181019050610d11565b50829750879550505050505092915050565b600081519050919050565b600082825260208201905092915050565b6000819050602082019050919050565b60006060830160008301518482036000860152610da48282610bae565b91505060208301518482036020860152610dbe8282610bae565b91505060408301518482036040860152610dd88282610bae565b9150508091505092915050565b6000610df18383610d87565b905092915050565b6000602082019050919050565b6000610e1182610d5b565b610e1b8185610d66565b935083602082028501610e2d85610d77565b8060005b85811015610e695784840389528151610e4a8582610de5565b9450610e5583610df9565b925060208a01995050600181019050610e31565b50829750879550505050505092915050565b60006080830160008301518482036000860152610e988282610bae565b9150506020830151610ead6020860182610c32565b506040830151610ec06040860182610c32565b506060830151610ed36060860182610c32565b508091505092915050565b60006060820190508181036000830152610ef88186610ce6565b90508181036020830152610f0c8185610e06565b90508181036040830152610f208184610e7b565b9050949350505050565b60008115159050919050565b610f3f81610f2a565b82525050565b600060a0830160008301518482036000860152610f628282610bae565b91505060208301518482036020860152610f7c8282610bae565b91505060408301518482036040860152610f968282610bae565b9150506060830151610fab6060860182610c19565b506080830151610fbe6080860182610c32565b508091505092915050565b6000604082019050610fde6000830185610f36565b8181036020830152610ff08184610f45565b90509392505050565b600080604083850312156110105761100f6107ef565b5b600083013567ffffffffffffffff81111561102e5761102d6107f4565b5b61103a85828601610911565b925050602083013567ffffffffffffffff81111561105b5761105a6107f4565b5b61106785828601610911565b9150509250929050565b6000602082019050818103600083015261108b8184610f45565b905092915050565b61109c81610c07565b82525050565b60006040820190506110b76000830185611093565b81810360208301526110c98184610acd565b90509392505050565b600080fd5b600080fd5b60006110ef6110ea8461088f565b610874565b90508281526020810184848401111561110b5761110a6107fe565b5b611116848285610aa3565b509392505050565b600082601f830112611133576111326107f9565b5b81516111438482602086016110dc565b91505092915050565b61115581610c07565b811461116057600080fd5b50565b6000815190506111728161114c565b92915050565b61118181610c28565b811461118c57600080fd5b50565b60008151905061119e81611178565b92915050565b600060a082840312156111ba576111b96110d2565b5b6111c460a0610874565b9050600082015167ffffffffffffffff8111156111e4576111e36110d7565b5b6111f08482850161111e565b600083015250602082015167ffffffffffffffff811115611214576112136110d7565b5b6112208482850161111e565b602083015250604082015167ffffffffffffffff811115611244576112436110d7565b5b6112508482850161111e565b604083015250606061126484828501611163565b60608301525060806112788482850161118f565b60808301525092915050565b60006020828403121561129a576112996107ef565b5b600082015167ffffffffffffffff8111156112b8576112b76107f4565b5b6112c4848285016111a4565b91505092915050565b6000608082840312156112e3576112e26110d2565b5b6112ed6080610874565b9050600082015167ffffffffffffffff81111561130d5761130c6110d7565b5b6113198482850161111e565b600083015250602061132d8482850161118f565b60208301525060406113418482850161118f565b60408301525060606113558482850161118f565b60608301525092915050565b600060208284031215611377576113766107ef565b5b600082015167ffffffffffffffff811115611395576113946107f4565b5b6113a1848285016112cd565b91505092915050565b7f4e487b7100000000000000000000000000000000000000000000000000000000600052601160045260246000fd5b60006113e482610c28565b91506113ef83610c28565b9250828201905080821115611407576114066113aa565b5b92915050565b600060408201905081810360008301526114278185610acd565b9050818103602083015261143b8184610e7b565b90509392505050565b600081519050919050565b600082825260208201905092915050565b600061146b82611444565b611475818561144f565b9350611485818560208601610aa3565b61148e81610803565b840191505092915050565b60006080820190506114ae6000830187611093565b81810360208301526114c08186610acd565b905081810360408301526114d48185610acd565b905081810360608301526114e88184611460565b905095945050505050565b600060208284031215611509576115086107ef565b5b600082015167ffffffffffffffff811115611527576115266107f4565b5b6115338482850161111e565b91505092915050565b600067ffffffffffffffff82111561155757611556610814565b5b602082029050602081019050919050565b600080fd5b600061158061157b8461153c565b610874565b905080838252602082019050602084028301858111156115a3576115a2611568565b5b835b818110156115ea57805167ffffffffffffffff8111156115c8576115c76107f9565b5b8086016115d589826111a4565b855260208501945050506020810190506115a5565b5050509392505050565b600082601f830112611609576116086107f9565b5b815161161984826020860161156d565b91505092915050565b60008060408385031215611639576116386107ef565b5b600083015167ffffffffffffffff811115611657576116566107f4565b5b611663858286016115f4565b925050602083015167ffffffffffffffff811115611684576116836107f4565b5b611690858286016112cd565b9150509250929050565b600060208201905081810360008301526116b48184610e7b565b905092915050565b600067ffffffffffffffff8211156116d7576116d6610814565b5b602082029050602081019050919050565b6000606082840312156116fe576116fd6110d2565b5b6117086060610874565b9050600082015167ffffffffffffffff811115611728576117276110d7565b5b6117348482850161111e565b600083015250602082015167ffffffffffffffff811115611758576117576110d7565b5b6117648482850161111e565b602083015250604082015167ffffffffffffffff811115611788576117876110d7565b5b6117948482850161111e565b60408301525092915050565b60006117b36117ae846116bc565b610874565b905080838252602082019050602084028301858111156117d6576117d5611568565b5b835b8181101561181d57805167ffffffffffffffff8111156117fb576117fa6107f9565b5b80860161180889826116e8565b855260208501945050506020810190506117d8565b5050509392505050565b600082601f83011261183c5761183b6107f9565b5b815161184c8482602086016117a0565b91505092915050565b60006020828403121561186b5761186a6107ef565b5b600082015167ffffffffffffffff811115611889576118886107f4565b5b61189584828501611827565b91505092915050565b60006020820190506118b36000830184611093565b92915050565b6118c281610f2a565b81146118cd57600080fd5b50565b6000815190506118df816118b9565b92915050565b600080604083850312156118fc576118fb6107ef565b5b600061190a858286016118d0565b925050602083015167ffffffffffffffff81111561192b5761192a6107f4565b5b611937858286016111a4565b9150509250929050565b60006060820190506119566000830186611093565b81810360208301526119688185610acd565b9050818103604083015261197c8184610acd565b905094935050505056fea2646970667358221220d70c67612f84c145eada5dbe508a698c686a30f3f6409460dabc6bbaa5ac71ad64736f6c63430008110033608060405234801561001057600080fd5b50611e29806100206000396000f3fe608060405234801561001057600080fd5b506004361061010b5760003560e01c806392d66313116100a2578063b199993711610071578063b19999371461033e578063b238ad0e1461036e578063eb3334c51461039e578063f97d0591146103be578063fa93f883146103ee5761010b565b806392d6631314610290578063a324ad24146102c0578063a6f0e577146102f0578063a9a295ad146103205761010b565b80637f791833116100de5780637f791833146101d05780638aa001fc146102005780638c8d98a0146102305780639054bdec146102605761010b565b80633e239e1a146101105780634ac1ad781461014057806362ba96871461017057806365c72840146101a0575b600080fd5b61012a60048036038101906101259190611609565b61041e565b6040516101379190611652565b60405180910390f35b61015a60048036038101906101559190611609565b61044b565b6040516101679190611652565b60405180910390f35b61018a600480360381019061018591906116d3565b61047b565b604051610197919061175d565b60405180910390f35b6101ba60048036038101906101b59190611609565b610497565b6040516101c79190611652565b60405180910390f35b6101ea60048036038101906101e59190611778565b6104ad565b6040516101f7919061175d565b60405180910390f35b61021a60048036038101906102159190611609565b6104c8565b6040516102279190611652565b60405180910390f35b61024a600480360381019061024591906117df565b6104de565b604051610257919061175d565b60405180910390f35b61027a60048036038101906102759190611832565b6104f9565b604051610287919061175d565b60405180910390f35b6102aa60048036038101906102a59190611609565b610864565b6040516102b791906118ce565b60405180910390f35b6102da60048036038101906102d59190611609565b61097b565b6040516102e79190611652565b60405180910390f35b61030a600480360381019061030591906118e9565b610991565b6040516103179190611931565b60405180910390f35b610328610a00565b60405161033591906119dc565b60405180910390f35b61035860048036038101906103539190611609565b610fb9565b604051610365919061175d565b60405180910390f35b610388600480360381019061038391906119fe565b61100d565b6040516103959190611652565b60405180910390f35b6103a66110d9565b6040516103b593929190611a3e565b60405180910390f35b6103d860048036038101906103d39190611609565b611105565b6040516103e59190611b21565b60405180910390f35b61040860048036038101906104039190611609565b611316565b6040516104159190611652565b60405180910390f35b60006018603c80846104309190611b9a565b61043a9190611b9a565b6104449190611bcb565b9050919050565b60006007600462015180846104609190611b9a565b61046a9190611bfc565b6104749190611bcb565b9050919050565b600061048c868686868660006104f9565b905095945050505050565b60006104a282611105565b604001519050919050565b60006104be858585856000806104f9565b9050949350505050565b6000603c826104d79190611bcb565b9050919050565b60006104f084848460008060006104f9565b90509392505050565b6000806107b290505b8761ffff168161ffff16101561055d5761051b81610991565b15610537576301e28500826105309190611bfc565b915061054a565b6301e13380826105479190611bfc565b91505b808061055590611c30565b915050610502565b610565611558565b601f816000600c811061057b5761057a611c5a565b5b602002019060ff16908160ff168152505061059589610991565b156105c657601d816001600c81106105b0576105af611c5a565b5b602002019060ff16908160ff16815250506105ee565b601c816001600c81106105dc576105db611c5a565b5b602002019060ff16908160ff16815250505b601f816002600c811061060457610603611c5a565b5b602002019060ff16908160ff1681525050601e816003600c811061062b5761062a611c5a565b5b602002019060ff16908160ff1681525050601f816004600c811061065257610651611c5a565b5b602002019060ff16908160ff1681525050601e816005600c811061067957610678611c5a565b5b602002019060ff16908160ff1681525050601f816006600c81106106a05761069f611c5a565b5b602002019060ff16908160ff1681525050601f816007600c81106106c7576106c6611c5a565b5b602002019060ff16908160ff1681525050601e816008600c81106106ee576106ed611c5a565b5b602002019060ff16908160ff1681525050601f816009600c811061071557610714611c5a565b5b602002019060ff16908160ff1681525050601e81600a600c811061073c5761073b611c5a565b5b602002019060ff16908160ff1681525050601f81600b600c811061076357610762611c5a565b5b602002019060ff16908160ff1681525050600191505b8760ff168261ffff1610156107e157806001836107969190611c89565b61ffff16600c81106107ab576107aa611c5a565b5b602002015160ff16620151806107c19190611cbf565b836107cc9190611bfc565b925081806107d990611c30565b925050610779565b6001876107ee9190611d01565b60ff16620151806107ff9190611cbf565b8361080a9190611bfc565b92508560ff16610e1061081d9190611cbf565b836108289190611bfc565b92508460ff16603c61083a9190611cbf565b836108459190611bfc565b92508360ff16836108569190611bfc565b925050509695505050505050565b600080600090506000806301e133808561087e9190611b9a565b6107b261ffff1661088f9190611bfc565b91506108a06107b261ffff16610fb9565b6108ad8361ffff16610fb9565b6108b79190611d36565b9050806301e285006108c99190611cbf565b836108d49190611bfc565b9250806107b2836108e59190611c89565b61ffff166108f39190611d36565b6301e133806109029190611cbf565b8361090d9190611bfc565b92505b848311156109705761092d6001836109289190611c89565b610991565b15610949576301e28500836109429190611d36565b925061095c565b6301e13380836109599190611d36565b92505b6001826109699190611c89565b9150610910565b819350505050919050565b600061098682611105565b602001519050919050565b6000806004836109a19190611d6a565b61ffff16146109b357600090506109fb565b60006064836109c29190611d6a565b61ffff16146109d457600190506109fb565b6000610190836109e49190611d6a565b61ffff16146109f657600090506109fb565b600190505b919050565b60606000806000610a0f6110d9565b9250925092506000610a248461ffff16611337565b90506000610a348460ff16611337565b90506000610a448460ff16611337565b90506000600a67ffffffffffffffff811115610a6357610a62611d9b565b5b6040519080825280601f01601f191660200182016040528015610a955781602001600182028036833780820191505090505b50905083600081518110610aac57610aab611c5a565b5b602001015160f81c60f81b81600081518110610acb57610aca611c5a565b5b60200101907effffffffffffffffffffffffffffffffffffffffffffffffffffffffffffff1916908160001a90535083600181518110610b0e57610b0d611c5a565b5b602001015160f81c60f81b81600181518110610b2d57610b2c611c5a565b5b60200101907effffffffffffffffffffffffffffffffffffffffffffffffffffffffffffff1916908160001a90535083600281518110610b7057610b6f611c5a565b5b602001015160f81c60f81b81600281518110610b8f57610b8e611c5a565b5b60200101907effffffffffffffffffffffffffffffffffffffffffffffffffffffffffffff1916908160001a90535083600381518110610bd257610bd1611c5a565b5b602001015160f81c60f81b81600381518110610bf157610bf0611c5a565b5b60200101907effffffffffffffffffffffffffffffffffffffffffffffffffffffffffffff1916908160001a905350602d60f81b81600481518110610c3957610c38611c5a565b5b60200101907effffffffffffffffffffffffffffffffffffffffffffffffffffffffffffff1916908160001a905350600183511115610d3b5782600081518110610c8657610c85611c5a565b5b602001015160f81c60f81b81600581518110610ca557610ca4611c5a565b5b60200101907effffffffffffffffffffffffffffffffffffffffffffffffffffffffffffff1916908160001a90535082600181518110610ce857610ce7611c5a565b5b602001015160f81c60f81b81600681518110610d0757610d06611c5a565b5b60200101907effffffffffffffffffffffffffffffffffffffffffffffffffffffffffffff1916908160001a905350610de6565b603060f81b81600581518110610d5457610d53611c5a565b5b60200101907effffffffffffffffffffffffffffffffffffffffffffffffffffffffffffff1916908160001a90535082600081518110610d9757610d96611c5a565b5b602001015160f81c60f81b81600681518110610db657610db5611c5a565b5b60200101907effffffffffffffffffffffffffffffffffffffffffffffffffffffffffffff1916908160001a9053505b602d60f81b81600781518110610dff57610dfe611c5a565b5b60200101907effffffffffffffffffffffffffffffffffffffffffffffffffffffffffffff1916908160001a905350600182511115610f015781600081518110610e4c57610e4b611c5a565b5b602001015160f81c60f81b81600881518110610e6b57610e6a611c5a565b5b60200101907effffffffffffffffffffffffffffffffffffffffffffffffffffffffffffff1916908160001a90535081600181518110610eae57610ead611c5a565b5b602001015160f81c60f81b81600981518110610ecd57610ecc611c5a565b5b60200101907effffffffffffffffffffffffffffffffffffffffffffffffffffffffffffff1916908160001a905350610fac565b603060f81b81600881518110610f1a57610f19611c5a565b5b60200101907effffffffffffffffffffffffffffffffffffffffffffffffffffffffffffff1916908160001a90535081600081518110610f5d57610f5c611c5a565b5b602001015160f81c60f81b81600981518110610f7c57610f7b611c5a565b5b60200101907effffffffffffffffffffffffffffffffffffffffffffffffffffffffffffff1916908160001a9053505b8097505050505050505090565b6000600182610fc89190611d36565b915061019082610fd89190611b9a565b606483610fe59190611b9a565b600484610ff29190611b9a565b610ffc9190611d36565b6110069190611bfc565b9050919050565b600060018360ff161480611024575060038360ff16145b80611032575060058360ff16145b80611040575060078360ff16145b8061104e575060088360ff16145b8061105c5750600a8360ff16145b8061106a5750600c8360ff16145b1561107857601f90506110d3565b60048360ff16148061108d575060068360ff16145b8061109b575060098360ff16145b806110a95750600b8360ff16145b156110b757601e90506110d3565b6110c082610991565b156110ce57601d90506110d3565b601c90505b92915050565b6000806000806110e842611105565b905080600001518160200151826040015193509350935050909192565b61110d61157b565b6000808061111a85610864565b846000019061ffff16908161ffff168152505061113c6107b261ffff16610fb9565b61114d856000015161ffff16610fb9565b6111579190611d36565b9150816301e285006111699190611cbf565b836111749190611bfc565b9250816107b285600001516111899190611c89565b61ffff166111979190611d36565b6301e133806111a69190611cbf565b836111b19190611bfc565b92506000600191505b600c8260ff1611611231576111d382866000015161100d565b60ff16620151806111e49190611cbf565b90508584826111f39190611bfc565b11156112105781856020019060ff16908160ff1681525050611231565b808461121c9190611bfc565b9350818061122990611dca565b9250506111ba565b600191505b6112488560200151866000015161100d565b60ff168260ff16116112a5578584620151806112649190611bfc565b11156112815781856040019060ff16908160ff16815250506112a5565b62015180846112909190611bfc565b9350818061129d90611dca565b925050611236565b6112ae8661041e565b856060019060ff16908160ff16815250506112c886611316565b856080019060ff16908160ff16815250506112e2866104c8565b8560a0019060ff16908160ff16815250506112fc8661044b565b8560c0019060ff16908160ff168152505050505050919050565b6000603c80836113269190611b9a565b6113309190611bcb565b9050919050565b60606000600161134684611405565b01905060008167ffffffffffffffff81111561136557611364611d9b565b5b6040519080825280601f01601f1916602001820160405280156113975781602001600182028036833780820191505090505b509050600082602001820190505b6001156113fa578080600190039150507f3031323334353637383961626364656600000000000000000000000000000000600a86061a8153600a85816113ee576113ed611b3c565b5b049450600085036113a5575b819350505050919050565b600080600090507a184f03e93ff9f4daa797ed6e38ed64bf6a1f0100000000000000008310611463577a184f03e93ff9f4daa797ed6e38ed64bf6a1f010000000000000000838161145957611458611b3c565b5b0492506040810190505b6d04ee2d6d415b85acef810000000083106114a0576d04ee2d6d415b85acef8100000000838161149657611495611b3c565b5b0492506020810190505b662386f26fc1000083106114cf57662386f26fc1000083816114c5576114c4611b3c565b5b0492506010810190505b6305f5e10083106114f8576305f5e10083816114ee576114ed611b3c565b5b0492506008810190505b612710831061151d57612710838161151357611512611b3c565b5b0492506004810190505b60648310611540576064838161153657611535611b3c565b5b0492506002810190505b600a831061154f576001810190505b80915050919050565b604051806101800160405280600c90602082028036833780820191505090505090565b6040518060e00160405280600061ffff168152602001600060ff168152602001600060ff168152602001600060ff168152602001600060ff168152602001600060ff168152602001600060ff1681525090565b600080fd5b6000819050919050565b6115e6816115d3565b81146115f157600080fd5b50565b600081359050611603816115dd565b92915050565b60006020828403121561161f5761161e6115ce565b5b600061162d848285016115f4565b91505092915050565b600060ff82169050919050565b61164c81611636565b82525050565b60006020820190506116676000830184611643565b92915050565b600061ffff82169050919050565b6116848161166d565b811461168f57600080fd5b50565b6000813590506116a18161167b565b92915050565b6116b081611636565b81146116bb57600080fd5b50565b6000813590506116cd816116a7565b92915050565b600080600080600060a086880312156116ef576116ee6115ce565b5b60006116fd88828901611692565b955050602061170e888289016116be565b945050604061171f888289016116be565b9350506060611730888289016116be565b9250506080611741888289016116be565b9150509295509295909350565b611757816115d3565b82525050565b6000602082019050611772600083018461174e565b92915050565b60008060008060808587031215611792576117916115ce565b5b60006117a087828801611692565b94505060206117b1878288016116be565b93505060406117c2878288016116be565b92505060606117d3878288016116be565b91505092959194509250565b6000806000606084860312156117f8576117f76115ce565b5b600061180686828701611692565b9350506020611817868287016116be565b9250506040611828868287016116be565b9150509250925092565b60008060008060008060c0878903121561184f5761184e6115ce565b5b600061185d89828a01611692565b965050602061186e89828a016116be565b955050604061187f89828a016116be565b945050606061189089828a016116be565b93505060806118a189828a016116be565b92505060a06118b289828a016116be565b9150509295509295509295565b6118c88161166d565b82525050565b60006020820190506118e360008301846118bf565b92915050565b6000602082840312156118ff576118fe6115ce565b5b600061190d84828501611692565b91505092915050565b60008115159050919050565b61192b81611916565b82525050565b60006020820190506119466000830184611922565b92915050565b600081519050919050565b600082825260208201905092915050565b60005b8381101561198657808201518184015260208101905061196b565b60008484015250505050565b6000601f19601f8301169050919050565b60006119ae8261194c565b6119b88185611957565b93506119c8818560208601611968565b6119d181611992565b840191505092915050565b600060208201905081810360008301526119f681846119a3565b905092915050565b60008060408385031215611a1557611a146115ce565b5b6000611a23858286016116be565b9250506020611a3485828601611692565b9150509250929050565b6000606082019050611a5360008301866118bf565b611a606020830185611643565b611a6d6040830184611643565b949350505050565b611a7e8161166d565b82525050565b611a8d81611636565b82525050565b60e082016000820151611aa96000850182611a75565b506020820151611abc6020850182611a84565b506040820151611acf6040850182611a84565b506060820151611ae26060850182611a84565b506080820151611af56080850182611a84565b5060a0820151611b0860a0850182611a84565b5060c0820151611b1b60c0850182611a84565b50505050565b600060e082019050611b366000830184611a93565b92915050565b7f4e487b7100000000000000000000000000000000000000000000000000000000600052601260045260246000fd5b7f4e487b7100000000000000000000000000000000000000000000000000000000600052601160045260246000fd5b6000611ba5826115d3565b9150611bb0836115d3565b925082611bc057611bbf611b3c565b5b828204905092915050565b6000611bd6826115d3565b9150611be1836115d3565b925082611bf157611bf0611b3c565b5b828206905092915050565b6000611c07826115d3565b9150611c12836115d3565b9250828201905080821115611c2a57611c29611b6b565b5b92915050565b6000611c3b8261166d565b915061ffff8203611c4f57611c4e611b6b565b5b600182019050919050565b7f4e487b7100000000000000000000000000000000000000000000000000000000600052603260045260246000fd5b6000611c948261166d565b9150611c9f8361166d565b9250828203905061ffff811115611cb957611cb8611b6b565b5b92915050565b6000611cca826115d3565b9150611cd5836115d3565b9250828202611ce3816115d3565b91508282048414831517611cfa57611cf9611b6b565b5b5092915050565b6000611d0c82611636565b9150611d1783611636565b9250828203905060ff811115611d3057611d2f611b6b565b5b92915050565b6000611d41826115d3565b9150611d4c836115d3565b9250828203905081811115611d6457611d63611b6b565b5b92915050565b6000611d758261166d565b9150611d808361166d565b925082611d9057611d8f611b3c565b5b828206905092915050565b7f4e487b7100000000000000000000000000000000000000000000000000000000600052604160045260246000fd5b6000611dd582611636565b915060ff8203611de857611de7611b6b565b5b60018201905091905056fea264697066735822122037a52444bf9a53770023e62a02d00c023f61f6f17619a3c97fc6e41bee591b4264736f6c6343000811003360806040526001805534801561001457600080fd5b5060405162000e5938038062000e59833981810160405281019061003891906100f3565b806000806101000a81548173ffffffffffffffffffffffffffffffffffffffff021916908373ffffffffffffffffffffffffffffffffffffffff16021790555050610120565b600080fd5b600073ffffffffffffffffffffffffffffffffffffffff82169050919050565b60006100ae82610083565b9050919050565b60006100c0826100a3565b9050919050565b6100d0816100b5565b81146100db57600080fd5b50565b6000815190506100ed816100c7565b92915050565b6000602082840312156101095761010861007e565b5b6000610117848285016100de565b91505092915050565b610d2980620001306000396000f3fe60806040526004361061001e5760003560e01c8063a368854614610023575b600080fd5b61002b610041565b604051610038919061082b565b60405180910390f35b606060008060009054906101000a900473ffffffffffffffffffffffffffffffffffffffff1673ffffffffffffffffffffffffffffffffffffffff1663a9a295ad6040518163ffffffff1660e01b8152600401600060405180830381865afa1580156100b1573d6000803e3d6000fd5b505050506040513d6000823e3d601f19601f820116820180604052508101906100da9190610987565b90506000603767ffffffffffffffff8111156100f9576100f861086b565b5b6040519080825280601f01601f19166020018201604052801561012b5781602001600182028036833780820191505090505b50905060005b815181101561019457605f60f81b828281518110610152576101516109d0565b5b60200101907effffffffffffffffffffffffffffffffffffffffffffffffffffffffffffff1916908160001a905350808061018c90610a38565b915050610131565b5060005b825181101561021c576101c78382815181106101b7576101b66109d0565b5b602001015160f81c60f81b6102f7565b8282815181106101da576101d96109d0565b5b60200101907effffffffffffffffffffffffffffffffffffffffffffffffffffffffffffff1916908160001a905350808061021490610a38565b915050610198565b5060006009905060005b60038112156102ed57818061023a90610a38565b9250506000610249600e610540565b905060005b81518110156102d857838061026290610a38565b945050818181518110610278576102776109d0565b5b602001015160f81c60f81b858581518110610296576102956109d0565b5b60200101907effffffffffffffffffffffffffffffffffffffffffffffffffffffffffffff1916908160001a90535080806102d090610a38565b91505061024e565b505080806102e590610a8a565b915050610226565b5081935050505090565b6000603060f81b827effffffffffffffffffffffffffffffffffffffffffffffffffffffffffffff19160361033257604160f81b905061053b565b603160f81b827effffffffffffffffffffffffffffffffffffffffffffffffffffffffffffff19160361036b57604260f81b905061053b565b603260f81b827effffffffffffffffffffffffffffffffffffffffffffffffffffffffffffff1916036103a457604360f81b905061053b565b603360f81b827effffffffffffffffffffffffffffffffffffffffffffffffffffffffffffff1916036103dd57604460f81b905061053b565b603460f81b827effffffffffffffffffffffffffffffffffffffffffffffffffffffffffffff19160361041657604560f81b905061053b565b603560f81b827effffffffffffffffffffffffffffffffffffffffffffffffffffffffffffff19160361044f57604660f81b905061053b565b603660f81b827effffffffffffffffffffffffffffffffffffffffffffffffffffffffffffff19160361048857604760f81b905061053b565b603760f81b827effffffffffffffffffffffffffffffffffffffffffffffffffffffffffffff1916036104c157604860f81b905061053b565b603860f81b827effffffffffffffffffffffffffffffffffffffffffffffffffffffffffffff1916036104fa57604960f81b905061053b565b603960f81b827effffffffffffffffffffffffffffffffffffffffffffffffffffffffffffff19160361053357604a60f81b905061053b565b605a60f81b90505b919050565b6060600e821115610586576040517f08c379a000000000000000000000000000000000000000000000000000000000815260040161057d90610b1e565b60405180910390fd5b60018210156105ca576040517f08c379a00000000000000000000000000000000000000000000000000000000081526004016105c190610b8a565b60405180910390fd5b60008267ffffffffffffffff8111156105e6576105e561086b565b5b6040519080825280601f01601f1916602001820160405280156106185781602001600182028036833780820191505090505b5090506000603e67ffffffffffffffff8111156106385761063761086b565b5b6040519080825280601f01601f19166020018201604052801561066a5781602001600182028036833780820191505090505b5090506040518060400160405280601a81526020017f4142434445464748494a4b4c4d4e4f505152535455565758595a000000000000815250905060005b848110156107325760006106bc601a61073d565b90508281815181106106d1576106d06109d0565b5b602001015160f81c60f81b8483815181106106ef576106ee6109d0565b5b60200101907effffffffffffffffffffffffffffffffffffffffffffffffffffffffffffff1916908160001a90535050808061072a90610a38565b9150506106a8565b508192505050919050565b60006001600081548092919061075290610a38565b9190505550814244336001546040516020016107719493929190610c45565b6040516020818303038152906040528051906020012060001c6107949190610cc2565b9050919050565b600081519050919050565b600082825260208201905092915050565b60005b838110156107d55780820151818401526020810190506107ba565b60008484015250505050565b6000601f19601f8301169050919050565b60006107fd8261079b565b61080781856107a6565b93506108178185602086016107b7565b610820816107e1565b840191505092915050565b6000602082019050818103600083015261084581846107f2565b905092915050565b6000604051905090565b600080fd5b600080fd5b600080fd5b600080fd5b7f4e487b7100000000000000000000000000000000000000000000000000000000600052604160045260246000fd5b6108a3826107e1565b810181811067ffffffffffffffff821117156108c2576108c161086b565b5b80604052505050565b60006108d561084d565b90506108e1828261089a565b919050565b600067ffffffffffffffff8211156109015761090061086b565b5b61090a826107e1565b9050602081019050919050565b600061092a610925846108e6565b6108cb565b90508281526020810184848401111561094657610945610866565b5b6109518482856107b7565b509392505050565b600082601f83011261096e5761096d610861565b5b815161097e848260208601610917565b91505092915050565b60006020828403121561099d5761099c610857565b5b600082015167ffffffffffffffff8111156109bb576109ba61085c565b5b6109c784828501610959565b91505092915050565b7f4e487b7100000000000000000000000000000000000000000000000000000000600052603260045260246000fd5b7f4e487b7100000000000000000000000000000000000000000000000000000000600052601160045260246000fd5b6000819050919050565b6000610a4382610a2e565b91507fffffffffffffffffffffffffffffffffffffffffffffffffffffffffffffffff8203610a7557610a746109ff565b5b600182019050919050565b6000819050919050565b6000610a9582610a80565b91507f7fffffffffffffffffffffffffffffffffffffffffffffffffffffffffffffff8203610ac757610ac66109ff565b5b600182019050919050565b7f4c656e6774682063616e6e6f742062652067726561746572207468616e203134600082015250565b6000610b086020836107a6565b9150610b1382610ad2565b602082019050919050565b60006020820190508181036000830152610b3781610afb565b9050919050565b7f4c656e6774682063616e6e6f74206265205a65726f0000000000000000000000600082015250565b6000610b746015836107a6565b9150610b7f82610b3e565b602082019050919050565b60006020820190508181036000830152610ba381610b67565b9050919050565b6000819050919050565b610bc5610bc082610a2e565b610baa565b82525050565b600073ffffffffffffffffffffffffffffffffffffffff82169050919050565b6000610bf682610bcb565b9050919050565b60008160601b9050919050565b6000610c1582610bfd565b9050919050565b6000610c2782610c0a565b9050919050565b610c3f610c3a82610beb565b610c1c565b82525050565b6000610c518287610bb4565b602082019150610c618286610bb4565b602082019150610c718285610c2e565b601482019150610c818284610bb4565b60208201915081905095945050505050565b7f4e487b7100000000000000000000000000000000000000000000000000000000600052601260045260246000fd5b6000610ccd82610a2e565b9150610cd883610a2e565b925082610ce857610ce7610c93565b5b82820690509291505056fea2646970667358221220a8dfcc43b63f7aedbf54ff04993bf8a6acd76c363c57f56076ce75a13e6a9dd464736f6c6343000811003360806040526040518060400160405280600981526020017f225c2f5d3a3f3c3e7c0000000000000000000000000000000000000000000000815250600090816200004a9190620003fa565b507f2e00000000000000000000000000000000000000000000000000000000000000600160006101000a81548160ff021916908360f81c021790555060006003553480156200009857600080fd5b5060405162003bf038038062003bf08339818101604052810190620000be91906200055f565b80600460006101000a81548173ffffffffffffffffffffffffffffffffffffffff021916908373ffffffffffffffffffffffffffffffffffffffff1602179055506040516200010d9062000172565b604051809103906000f0801580156200012a573d6000803e3d6000fd5b50600560006101000a81548173ffffffffffffffffffffffffffffffffffffffff021916908373ffffffffffffffffffffffffffffffffffffffff1602179055505062000591565b610dbb8062002e3583390190565b600081519050919050565b7f4e487b7100000000000000000000000000000000000000000000000000000000600052604160045260246000fd5b7f4e487b7100000000000000000000000000000000000000000000000000000000600052602260045260246000fd5b600060028204905060018216806200020257607f821691505b602082108103620002185762000217620001ba565b5b50919050565b60008190508160005260206000209050919050565b60006020601f8301049050919050565b600082821b905092915050565b600060088302620002827fffffffffffffffffffffffffffffffffffffffffffffffffffffffffffffffff8262000243565b6200028e868362000243565b95508019841693508086168417925050509392505050565b6000819050919050565b6000819050919050565b6000620002db620002d5620002cf84620002a6565b620002b0565b620002a6565b9050919050565b6000819050919050565b620002f783620002ba565b6200030f6200030682620002e2565b84845462000250565b825550505050565b600090565b6200032662000317565b62000333818484620002ec565b505050565b5b818110156200035b576200034f6000826200031c565b60018101905062000339565b5050565b601f821115620003aa5762000374816200021e565b6200037f8462000233565b810160208510156200038f578190505b620003a76200039e8562000233565b83018262000338565b50505b505050565b600082821c905092915050565b6000620003cf60001984600802620003af565b1980831691505092915050565b6000620003ea8383620003bc565b9150826002028217905092915050565b620004058262000180565b67ffffffffffffffff8111156200042157620004206200018b565b5b6200042d8254620001e9565b6200043a8282856200035f565b600060209050601f8311600181146200047257600084156200045d578287015190505b620004698582620003dc565b865550620004d9565b601f19841662000482866200021e565b60005b82811015620004ac5784890151825560018201915060208501945060208101905062000485565b86831015620004cc5784890151620004c8601f891682620003bc565b8355505b6001600288020188555050505b505050505050565b600080fd5b600073ffffffffffffffffffffffffffffffffffffffff82169050919050565b60006200051382620004e6565b9050919050565b6000620005278262000506565b9050919050565b62000539816200051a565b81146200054557600080fd5b50565b60008151905062000559816200052e565b92915050565b600060208284031215620005785762000577620004e1565b5b6000620005888482850162000548565b91505092915050565b61289480620005a16000396000f3fe60806040526004361061007b5760003560e01c8063679c7ccb1161004e578063679c7ccb1461015c578063929ad6c21461018c578063976c1255146101bc578063f0c76ccc146101d85761007b565b806304c9416914610080578063079cf76e146100be57806346bc7fd9146100fc57806349b1cea81461012c575b600080fd5b34801561008c57600080fd5b506100a760048036038101906100a29190611b4e565b610216565b6040516100b5929190611e19565b60405180910390f35b3480156100ca57600080fd5b506100e560048036038101906100e09190611e7c565b610663565b6040516100f3929190611f48565b60405180910390f35b61011660048036038101906101119190611f78565b610931565b604051610123919061204d565b60405180910390f35b61014660048036038101906101419190611e7c565b610f98565b604051610153919061206f565b60405180910390f35b61017660048036038101906101719190611b4e565b611345565b6040516101839190612091565b60405180910390f35b6101a660048036038101906101a191906120b3565b6113ea565b6040516101b3919061206f565b60405180910390f35b6101d660048036038101906101d191906121d9565b611466565b005b3480156101e457600080fd5b506101ff60048036038101906101fa9190611b4e565b6114a7565b60405161020d929190612251565b60405180910390f35b6060610220611987565b600061022b8461165f565b5090508015610266576040517f5982e5ed00000000000000000000000000000000000000000000000000000000815260040160405180910390fd5b600080610272866114a7565b9150915081156102ae576040517f52be588100000000000000000000000000000000000000000000000000000000815260040160405180910390fd5b6000816040015167ffffffffffffffff8111156102ce576102cd611a23565b5b60405190808252806020026020018201604052801561030757816020015b6102f46119af565b8152602001906001900390816102ec5790505b50905060008088905060005b6003548110156106515760006002828154811061033357610332612281565b5b90600052602060002090600502016040518060a001604052908160008201805461035c906122df565b80601f0160208091040260200160405190810160405280929190818152602001828054610388906122df565b80156103d55780601f106103aa576101008083540402835291602001916103d5565b820191906000526020600020905b8154815290600101906020018083116103b857829003601f168201915b505050505081526020016001820180546103ee906122df565b80601f016020809104026020016040519081016040528092919081815260200182805461041a906122df565b80156104675780601f1061043c57610100808354040283529160200191610467565b820191906000526020600020905b81548152906001019060200180831161044a57829003601f168201915b50505050508152602001600282018054610480906122df565b80601f01602080910402602001604051908101604052809291908181526020018280546104ac906122df565b80156104f95780601f106104ce576101008083540402835291602001916104f9565b820191906000526020600020905b8154815290600101906020018083116104dc57829003601f168201915b505050505081526020016003820160009054906101000a900473ffffffffffffffffffffffffffffffffffffffff1673ffffffffffffffffffffffffffffffffffffffff1673ffffffffffffffffffffffffffffffffffffffff1681526020016004820154815250509050600081602001519050600560009054906101000a900473ffffffffffffffffffffffffffffffffffffffff1673ffffffffffffffffffffffffffffffffffffffff16637da4831785836040518363ffffffff1660e01b81526004016105ca929190612365565b602060405180830381865afa1580156105e7573d6000803e3d6000fd5b505050506040513d601f19601f8201168201806040525081019061060b91906123c8565b1561063c578186868061061d90612424565b9750815181106106305761062f612281565b5b60200260200101819052505b5050808061064990612424565b915050610313565b50828497509750505050505050915091565b600061066d6119af565b6000600660008573ffffffffffffffffffffffffffffffffffffffff1673ffffffffffffffffffffffffffffffffffffffff1681526020019081526020016000206040518060a00160405290816000820180546106c9906122df565b80601f01602080910402602001604051908101604052809291908181526020018280546106f5906122df565b80156107425780601f1061071757610100808354040283529160200191610742565b820191906000526020600020905b81548152906001019060200180831161072557829003601f168201915b5050505050815260200160018201805461075b906122df565b80601f0160208091040260200160405190810160405280929190818152602001828054610787906122df565b80156107d45780601f106107a9576101008083540402835291602001916107d4565b820191906000526020600020905b8154815290600101906020018083116107b757829003601f168201915b505050505081526020016002820180546107ed906122df565b80601f0160208091040260200160405190810160405280929190818152602001828054610819906122df565b80156108665780601f1061083b57610100808354040283529160200191610866565b820191906000526020600020905b81548152906001019060200180831161084957829003601f168201915b505050505081526020016003820160009054906101000a900473ffffffffffffffffffffffffffffffffffffffff1673ffffffffffffffffffffffffffffffffffffffff1673ffffffffffffffffffffffffffffffffffffffff16815260200160048201548152505090506000816000015151148061091557508373ffffffffffffffffffffffffffffffffffffffff16816060015173ffffffffffffffffffffffffffffffffffffffff1614155b15610923576001925061092b565b809150600092505b50915091565b6060826001600082905060006001905060e68251111561097d576040517fc96b3aa100000000000000000000000000000000000000000000000000000000815260040160405180910390fd5b600082510361098b57600090505b8215610a365760005b8251811015610a3057600160009054906101000a900460f81b7effffffffffffffffffffffffffffffffffffffffffffffffffffffffffffff19168382815181106109e2576109e1612281565b5b602001015160f81c60f81b7effffffffffffffffffffffffffffffffffffffffffffffffffffffffffffff191603610a1d5760009150610a30565b8080610a2890612424565b915050610994565b50610b64565b6000905060005b8251811015610ad957600160009054906101000a900460f81b7effffffffffffffffffffffffffffffffffffffffffffffffffffffffffffff1916838281518110610a8b57610a8a612281565b5b602001015160f81c60f81b7effffffffffffffffffffffffffffffffffffffffffffffffffffffffffffff191603610ac65760019150610ad9565b8080610ad190612424565b915050610a3d565b50600160009054906101000a900460f81b7effffffffffffffffffffffffffffffffffffffffffffffffffffffffffffff19168260018451610b1b919061246c565b81518110610b2c57610b2b612281565b5b602001015160f81c60f81b7effffffffffffffffffffffffffffffffffffffffffffffffffffffffffffff191603610b6357600090505b5b60005b8251811015610c885760005b60008054610b80906122df565b9050811015610c6e576000818154610b97906122df565b8110610ba657610ba5612281565b5b815460011615610bc55790600052602060002090602091828204019190065b9054901a7f0100000000000000000000000000000000000000000000000000000000000000027effffffffffffffffffffffffffffffffffffffffffffffffffffffffffffff1916848381518110610c2057610c1f612281565b5b602001015160f81c60f81b7effffffffffffffffffffffffffffffffffffffffffffffffffffffffffffff191603610c5b5760009250610c6e565b8080610c6690612424565b915050610b73565b508115610c88578080610c8090612424565b915050610b67565b508015610f5b576000610c9b89886113ea565b90506000600460009054906101000a900473ffffffffffffffffffffffffffffffffffffffff1673ffffffffffffffffffffffffffffffffffffffff1663a36885466040518163ffffffff1660e01b81526004016000604051808303816000875af1158015610d0e573d6000803e3d6000fd5b505050506040513d6000823e3d601f19601f82011682018060405250810190610d379190612510565b905060006040518060a00160405280838152602001846000015181526020018b81526020018c73ffffffffffffffffffffffffffffffffffffffff16815260200142815250905060028190806001815401808255809150506001900390600052602060002090600502016000909190919091506000820151816000019081610dbf9190612705565b506020820151816001019081610dd59190612705565b506040820151816002019081610deb9190612705565b5060608201518160030160006101000a81548173ffffffffffffffffffffffffffffffffffffffff021916908373ffffffffffffffffffffffffffffffffffffffff16021790555060808201518160040155505060036000815480929190610e5290612424565b919050555080600883604051610e689190612813565b90815260200160405180910390206000820151816000019081610e8b9190612705565b506020820151816001019081610ea19190612705565b506040820151816002019081610eb79190612705565b5060608201518160030160006101000a81548173ffffffffffffffffffffffffffffffffffffffff021916908373ffffffffffffffffffffffffffffffffffffffff16021790555060808201518160040155905050610f1582611345565b506000610f258460000151611345565b905060018160400151610f38919061282a565b816040018181525050610f4f846000015182611466565b82985050505050610f8d565b6040517fb5d012b400000000000000000000000000000000000000000000000000000000815260040160405180910390fd5b505050509392505050565b610fa06119af565b600080610fac84610663565b91509150811561133b576000600460009054906101000a900473ffffffffffffffffffffffffffffffffffffffff1673ffffffffffffffffffffffffffffffffffffffff1663a36885466040518163ffffffff1660e01b81526004016000604051808303816000875af1158015611027573d6000803e3d6000fd5b505050506040513d6000823e3d601f19601f820116820180604052508101906110509190612510565b90506040518060a001604052808281526020016040518060400160405280600481526020017f726f6f740000000000000000000000000000000000000000000000000000000081525081526020016040518060200160405280600081525081526020018673ffffffffffffffffffffffffffffffffffffffff168152602001428152509150600282908060018154018082558091505060019003906000526020600020906005020160009091909190915060008201518160000190816111169190612705565b50602082015181600101908161112c9190612705565b5060408201518160020190816111429190612705565b5060608201518160030160006101000a81548173ffffffffffffffffffffffffffffffffffffffff021916908373ffffffffffffffffffffffffffffffffffffffff160217905550608082015181600401555050600360008154809291906111a990612424565b919050555081600660008773ffffffffffffffffffffffffffffffffffffffff1673ffffffffffffffffffffffffffffffffffffffff16815260200190815260200160002060008201518160000190816112039190612705565b5060208201518160010190816112199190612705565b50604082015181600201908161122f9190612705565b5060608201518160030160006101000a81548173ffffffffffffffffffffffffffffffffffffffff021916908373ffffffffffffffffffffffffffffffffffffffff16021790555060808201518160040155905050816008826040516112959190612813565b908152602001604051809103902060008201518160000190816112b89190612705565b5060208201518160010190816112ce9190612705565b5060408201518160020190816112e49190612705565b5060608201518160030160006101000a81548173ffffffffffffffffffffffffffffffffffffffff021916908373ffffffffffffffffffffffffffffffffffffffff16021790555060808201518160040155905050505b8092505050919050565b61134d611987565b600080611359846114a7565b9150915081156113e05760405180608001604052808581526020016000815260200160008152602001600081525090508060078560405161139a9190612813565b908152602001604051809103902060008201518160000190816113bd9190612705565b506020820151816001015560408201518160020155606082015181600301559050505b8092505050919050565b6113f26119af565b600082905060008151036114115761140984610f98565b915050611460565b60008061141d8561165f565b915091508115611459576040517f5982e5ed00000000000000000000000000000000000000000000000000000000815260040160405180910390fd5b8093505050505b92915050565b60006007836040516114789190612813565b908152602001604051809103902090508160400151816002018190555081602001518160010181905550505050565b60006114b1611987565b60006007846040516114c39190612813565b90815260200160405180910390206040518060800160405290816000820180546114ec906122df565b80601f0160208091040260200160405190810160405280929190818152602001828054611518906122df565b80156115655780601f1061153a57610100808354040283529160200191611565565b820191906000526020600020905b81548152906001019060200180831161154857829003601f168201915b50505050508152602001600182015481526020016002820154815260200160038201548152505090506000816000015190506000815114806116425750600560009054906101000a900473ffffffffffffffffffffffffffffffffffffffff1673ffffffffffffffffffffffffffffffffffffffff16637da4831782876040518363ffffffff1660e01b81526004016115ff929190612365565b602060405180830381865afa15801561161c573d6000803e3d6000fd5b505050506040513d601f19601f8201168201806040525081019061164091906123c8565b155b156116505760019350611658565b819250600093505b5050915091565b60006116696119af565b600060088460405161167b9190612813565b90815260200160405180910390206040518060a00160405290816000820180546116a4906122df565b80601f01602080910402602001604051908101604052809291908181526020018280546116d0906122df565b801561171d5780601f106116f25761010080835404028352916020019161171d565b820191906000526020600020905b81548152906001019060200180831161170057829003601f168201915b50505050508152602001600182018054611736906122df565b80601f0160208091040260200160405190810160405280929190818152602001828054611762906122df565b80156117af5780601f10611784576101008083540402835291602001916117af565b820191906000526020600020905b81548152906001019060200180831161179257829003601f168201915b505050505081526020016002820180546117c8906122df565b80601f01602080910402602001604051908101604052809291908181526020018280546117f4906122df565b80156118415780601f1061181657610100808354040283529160200191611841565b820191906000526020600020905b81548152906001019060200180831161182457829003601f168201915b505050505081526020016003820160009054906101000a900473ffffffffffffffffffffffffffffffffffffffff1673ffffffffffffffffffffffffffffffffffffffff1673ffffffffffffffffffffffffffffffffffffffff16815260200160048201548152505090506000816000015190506000826000015190506000815114806119695750600560009054906101000a900473ffffffffffffffffffffffffffffffffffffffff1673ffffffffffffffffffffffffffffffffffffffff16637da4831782846040518363ffffffff1660e01b8152600401611926929190612365565b602060405180830381865afa158015611943573d6000803e3d6000fd5b505050506040513d601f19601f8201168201806040525081019061196791906123c8565b155b15611977576001945061197f565b829350600094505b505050915091565b6040518060800160405280606081526020016000815260200160008152602001600081525090565b6040518060a00160405280606081526020016060815260200160608152602001600073ffffffffffffffffffffffffffffffffffffffff168152602001600081525090565b6000604051905090565b600080fd5b600080fd5b600080fd5b600080fd5b6000601f19601f8301169050919050565b7f4e487b7100000000000000000000000000000000000000000000000000000000600052604160045260246000fd5b611a5b82611a12565b810181811067ffffffffffffffff82111715611a7a57611a79611a23565b5b80604052505050565b6000611a8d6119f4565b9050611a998282611a52565b919050565b600067ffffffffffffffff821115611ab957611ab8611a23565b5b611ac282611a12565b9050602081019050919050565b82818337600083830152505050565b6000611af1611aec84611a9e565b611a83565b905082815260208101848484011115611b0d57611b0c611a0d565b5b611b18848285611acf565b509392505050565b600082601f830112611b3557611b34611a08565b5b8135611b45848260208601611ade565b91505092915050565b600060208284031215611b6457611b636119fe565b5b600082013567ffffffffffffffff811115611b8257611b81611a03565b5b611b8e84828501611b20565b91505092915050565b600081519050919050565b600082825260208201905092915050565b6000819050602082019050919050565b600081519050919050565b600082825260208201905092915050565b60005b83811015611bfd578082015181840152602081019050611be2565b60008484015250505050565b6000611c1482611bc3565b611c1e8185611bce565b9350611c2e818560208601611bdf565b611c3781611a12565b840191505092915050565b600073ffffffffffffffffffffffffffffffffffffffff82169050919050565b6000611c6d82611c42565b9050919050565b611c7d81611c62565b82525050565b6000819050919050565b611c9681611c83565b82525050565b600060a0830160008301518482036000860152611cb98282611c09565b91505060208301518482036020860152611cd38282611c09565b91505060408301518482036040860152611ced8282611c09565b9150506060830151611d026060860182611c74565b506080830151611d156080860182611c8d565b508091505092915050565b6000611d2c8383611c9c565b905092915050565b6000602082019050919050565b6000611d4c82611b97565b611d568185611ba2565b935083602082028501611d6885611bb3565b8060005b85811015611da45784840389528151611d858582611d20565b9450611d9083611d34565b925060208a01995050600181019050611d6c565b50829750879550505050505092915050565b60006080830160008301518482036000860152611dd38282611c09565b9150506020830151611de86020860182611c8d565b506040830151611dfb6040860182611c8d565b506060830151611e0e6060860182611c8d565b508091505092915050565b60006040820190508181036000830152611e338185611d41565b90508181036020830152611e478184611db6565b90509392505050565b611e5981611c62565b8114611e6457600080fd5b50565b600081359050611e7681611e50565b92915050565b600060208284031215611e9257611e916119fe565b5b6000611ea084828501611e67565b91505092915050565b60008115159050919050565b611ebe81611ea9565b82525050565b600060a0830160008301518482036000860152611ee18282611c09565b91505060208301518482036020860152611efb8282611c09565b91505060408301518482036040860152611f158282611c09565b9150506060830151611f2a6060860182611c74565b506080830151611f3d6080860182611c8d565b508091505092915050565b6000604082019050611f5d6000830185611eb5565b8181036020830152611f6f8184611ec4565b90509392505050565b600080600060608486031215611f9157611f906119fe565b5b6000611f9f86828701611e67565b935050602084013567ffffffffffffffff811115611fc057611fbf611a03565b5b611fcc86828701611b20565b925050604084013567ffffffffffffffff811115611fed57611fec611a03565b5b611ff986828701611b20565b9150509250925092565b600082825260208201905092915050565b600061201f82611bc3565b6120298185612003565b9350612039818560208601611bdf565b61204281611a12565b840191505092915050565b600060208201905081810360008301526120678184612014565b905092915050565b600060208201905081810360008301526120898184611ec4565b905092915050565b600060208201905081810360008301526120ab8184611db6565b905092915050565b600080604083850312156120ca576120c96119fe565b5b60006120d885828601611e67565b925050602083013567ffffffffffffffff8111156120f9576120f8611a03565b5b61210585828601611b20565b9150509250929050565b600080fd5b600080fd5b61212281611c83565b811461212d57600080fd5b50565b60008135905061213f81612119565b92915050565b60006080828403121561215b5761215a61210f565b5b6121656080611a83565b9050600082013567ffffffffffffffff81111561218557612184612114565b5b61219184828501611b20565b60008301525060206121a584828501612130565b60208301525060406121b984828501612130565b60408301525060606121cd84828501612130565b60608301525092915050565b600080604083850312156121f0576121ef6119fe565b5b600083013567ffffffffffffffff81111561220e5761220d611a03565b5b61221a85828601611b20565b925050602083013567ffffffffffffffff81111561223b5761223a611a03565b5b61224785828601612145565b9150509250929050565b60006040820190506122666000830185611eb5565b81810360208301526122788184611db6565b90509392505050565b7f4e487b7100000000000000000000000000000000000000000000000000000000600052603260045260246000fd5b7f4e487b7100000000000000000000000000000000000000000000000000000000600052602260045260246000fd5b600060028204905060018216806122f757607f821691505b60208210810361230a576123096122b0565b5b50919050565b600081519050919050565b600082825260208201905092915050565b600061233782612310565b612341818561231b565b9350612351818560208601611bdf565b61235a81611a12565b840191505092915050565b6000604082019050818103600083015261237f818561232c565b90508181036020830152612393818461232c565b90509392505050565b6123a581611ea9565b81146123b057600080fd5b50565b6000815190506123c28161239c565b92915050565b6000602082840312156123de576123dd6119fe565b5b60006123ec848285016123b3565b91505092915050565b7f4e487b7100000000000000000000000000000000000000000000000000000000600052601160045260246000fd5b600061242f82611c83565b91507fffffffffffffffffffffffffffffffffffffffffffffffffffffffffffffffff8203612461576124606123f5565b5b600182019050919050565b600061247782611c83565b915061248283611c83565b925082820390508181111561249a576124996123f5565b5b92915050565b60006124b36124ae84611a9e565b611a83565b9050828152602081018484840111156124cf576124ce611a0d565b5b6124da848285611bdf565b509392505050565b600082601f8301126124f7576124f6611a08565b5b81516125078482602086016124a0565b91505092915050565b600060208284031215612526576125256119fe565b5b600082015167ffffffffffffffff81111561254457612543611a03565b5b612550848285016124e2565b91505092915050565b60008190508160005260206000209050919050565b60006020601f8301049050919050565b600082821b905092915050565b6000600883026125bb7fffffffffffffffffffffffffffffffffffffffffffffffffffffffffffffffff8261257e565b6125c5868361257e565b95508019841693508086168417925050509392505050565b6000819050919050565b60006126026125fd6125f884611c83565b6125dd565b611c83565b9050919050565b6000819050919050565b61261c836125e7565b61263061262882612609565b84845461258b565b825550505050565b600090565b612645612638565b612650818484612613565b505050565b5b818110156126745761266960008261263d565b600181019050612656565b5050565b601f8211156126b95761268a81612559565b6126938461256e565b810160208510156126a2578190505b6126b66126ae8561256e565b830182612655565b50505b505050565b600082821c905092915050565b60006126dc600019846008026126be565b1980831691505092915050565b60006126f583836126cb565b9150826002028217905092915050565b61270e82611bc3565b67ffffffffffffffff81111561272757612726611a23565b5b61273182546122df565b61273c828285612678565b600060209050601f83116001811461276f576000841561275d578287015190505b61276785826126e9565b8655506127cf565b601f19841661277d86612559565b60005b828110156127a557848901518255600182019150602085019450602081019050612780565b868310156127c257848901516127be601f8916826126cb565b8355505b6001600288020188555050505b505050505050565b600081905092915050565b60006127ed82611bc3565b6127f781856127d7565b9350612807818560208601611bdf565b80840191505092915050565b600061281f82846127e2565b915081905092915050565b600061283582611c83565b915061284083611c83565b9250828201905080821115612858576128576123f5565b5b9291505056fea26469706673582212206ac4dab2549d07c28979493f77f9532db67cc7c22b639673d1092460aff9ebf064736f6c63430008110033608060405234801561001057600080fd5b50610d9b806100206000396000f3fe608060405234801561001057600080fd5b506004361061004c5760003560e01c80632f278ecb146100515780637da48317146100815780639514fbc9146100b1578063c5249be9146100e1575b600080fd5b61006b600480360381019061006691906106a2565b610111565b604051610078919061077f565b60405180910390f35b61009b600480360381019061009691906108d1565b610212565b6040516100a89190610964565b60405180910390f35b6100cb60048036038101906100c69190610b01565b6102e6565b6040516100d89190610b9f565b60405180910390f35b6100fb60048036038101906100f69190610bf7565b61054d565b604051610108919061077f565b60405180910390f35b606060008383905067ffffffffffffffff811115610132576101316107a6565b5b6040519080825280601f01601f1916602001820160405280156101645781602001600182028036833780820191505090505b50905060006001858590506101799190610c86565b905060005b8585905081101561020657858582846101979190610c86565b8181106101a7576101a6610cba565b5b9050013560f81c60f81b8382815181106101c4576101c3610cba565b5b60200101907effffffffffffffffffffffffffffffffffffffffffffffffffffffffffffff1916908160001a90535080806101fe90610ce9565b91505061017e565b50819250505092915050565b600080835190508251811461022b5760009150506102e0565b60005b818110156102d95783818151811061024957610248610cba565b5b602001015160f81c60f81b7effffffffffffffffffffffffffffffffffffffffffffffffffffffffffffff191685828151811061028957610288610cba565b5b602001015160f81c60f81b7effffffffffffffffffffffffffffffffffffffffffffffffffffffffffffff1916146102c6576000925050506102e0565b80806102d190610ce9565b91505061022e565b5060019150505b92915050565b6060600080835167ffffffffffffffff811115610306576103056107a6565b5b60405190808252806020026020018201604052801561033957816020015b60608152602001906001900390816103245790505b50905060005b84518110156103b557600085828151811061035d5761035c610cba565b5b60200260200101519050600181516103759190610d31565b846103809190610d31565b93508083838151811061039657610395610cba565b5b60200260200101819052505080806103ad90610ce9565b91505061033f565b60008367ffffffffffffffff8111156103d1576103d06107a6565b5b6040519080825280601f01601f1916602001820160405280156104035781602001600182028036833780820191505090505b5090506000915060005b835181101561054057602f60f81b82848151811061042e5761042d610cba565b5b60200101907effffffffffffffffffffffffffffffffffffffffffffffffffffffffffffff1916908160001a905350828061046890610ce9565b93505060005b84828151811061048157610480610cba565b5b60200260200101515181101561052c578482815181106104a4576104a3610cba565b5b602002602001015181815181106104be576104bd610cba565b5b602001015160f81c60f81b8385815181106104dc576104db610cba565b5b60200101907effffffffffffffffffffffffffffffffffffffffffffffffffffffffffffff1916908160001a905350838061051690610ce9565b945050808061052490610ce9565b91505061046e565b50808061053890610ce9565b91505061040d565b5080945050505050919050565b606060008267ffffffffffffffff81111561056b5761056a6107a6565b5b6040519080825280601f01601f19166020018201604052801561059d5781602001600182028036833780820191505090505b50905060005b8381101561061d578585828181106105be576105bd610cba565b5b9050013560f81c60f81b8282815181106105db576105da610cba565b5b60200101907effffffffffffffffffffffffffffffffffffffffffffffffffffffffffffff1916908160001a905350808061061590610ce9565b9150506105a3565b50809150509392505050565b6000604051905090565b600080fd5b600080fd5b600080fd5b600080fd5b600080fd5b60008083601f8401126106625761066161063d565b5b8235905067ffffffffffffffff81111561067f5761067e610642565b5b60208301915083600182028301111561069b5761069a610647565b5b9250929050565b600080602083850312156106b9576106b8610633565b5b600083013567ffffffffffffffff8111156106d7576106d6610638565b5b6106e38582860161064c565b92509250509250929050565b600081519050919050565b600082825260208201905092915050565b60005b8381101561072957808201518184015260208101905061070e565b60008484015250505050565b6000601f19601f8301169050919050565b6000610751826106ef565b61075b81856106fa565b935061076b81856020860161070b565b61077481610735565b840191505092915050565b600060208201905081810360008301526107998184610746565b905092915050565b600080fd5b7f4e487b7100000000000000000000000000000000000000000000000000000000600052604160045260246000fd5b6107de82610735565b810181811067ffffffffffffffff821117156107fd576107fc6107a6565b5b80604052505050565b6000610810610629565b905061081c82826107d5565b919050565b600067ffffffffffffffff82111561083c5761083b6107a6565b5b61084582610735565b9050602081019050919050565b82818337600083830152505050565b600061087461086f84610821565b610806565b9050828152602081018484840111156108905761088f6107a1565b5b61089b848285610852565b509392505050565b600082601f8301126108b8576108b761063d565b5b81356108c8848260208601610861565b91505092915050565b600080604083850312156108e8576108e7610633565b5b600083013567ffffffffffffffff81111561090657610905610638565b5b610912858286016108a3565b925050602083013567ffffffffffffffff81111561093357610932610638565b5b61093f858286016108a3565b9150509250929050565b60008115159050919050565b61095e81610949565b82525050565b60006020820190506109796000830184610955565b92915050565b600067ffffffffffffffff82111561099a576109996107a6565b5b602082029050602081019050919050565b600067ffffffffffffffff8211156109c6576109c56107a6565b5b6109cf82610735565b9050602081019050919050565b60006109ef6109ea846109ab565b610806565b905082815260208101848484011115610a0b57610a0a6107a1565b5b610a16848285610852565b509392505050565b600082601f830112610a3357610a3261063d565b5b8135610a438482602086016109dc565b91505092915050565b6000610a5f610a5a8461097f565b610806565b90508083825260208201905060208402830185811115610a8257610a81610647565b5b835b81811015610ac957803567ffffffffffffffff811115610aa757610aa661063d565b5b808601610ab48982610a1e565b85526020850194505050602081019050610a84565b5050509392505050565b600082601f830112610ae857610ae761063d565b5b8135610af8848260208601610a4c565b91505092915050565b600060208284031215610b1757610b16610633565b5b600082013567ffffffffffffffff811115610b3557610b34610638565b5b610b4184828501610ad3565b91505092915050565b600081519050919050565b600082825260208201905092915050565b6000610b7182610b4a565b610b7b8185610b55565b9350610b8b81856020860161070b565b610b9481610735565b840191505092915050565b60006020820190508181036000830152610bb98184610b66565b905092915050565b6000819050919050565b610bd481610bc1565b8114610bdf57600080fd5b50565b600081359050610bf181610bcb565b92915050565b600080600060408486031215610c1057610c0f610633565b5b600084013567ffffffffffffffff811115610c2e57610c2d610638565b5b610c3a8682870161064c565b93509350506020610c4d86828701610be2565b9150509250925092565b7f4e487b7100000000000000000000000000000000000000000000000000000000600052601160045260246000fd5b6000610c9182610bc1565b9150610c9c83610bc1565b9250828203905081811115610cb457610cb3610c57565b5b92915050565b7f4e487b7100000000000000000000000000000000000000000000000000000000600052603260045260246000fd5b6000610cf482610bc1565b91507fffffffffffffffffffffffffffffffffffffffffffffffffffffffffffffffff8203610d2657610d25610c57565b5b600182019050919050565b6000610d3c82610bc1565b9150610d4783610bc1565b9250828201905080821115610d5f57610d5e610c57565b5b9291505056fea2646970667358221220a8b2676b7cc27107ca4dd8ced86a6745bb88d025e39e517c5bc1c2cf752f91ef64736f6c6343000811003360806040526040518060400160405280600981526020017f225c2f5d3a3f3c3e7c0000000000000000000000000000000000000000000000815250600090816200004a9190620003fa565b507f2e00000000000000000000000000000000000000000000000000000000000000600160006101000a81548160ff021916908360f81c021790555060006003553480156200009857600080fd5b506040516200372b3803806200372b8339818101604052810190620000be91906200055f565b80600560006101000a81548173ffffffffffffffffffffffffffffffffffffffff021916908373ffffffffffffffffffffffffffffffffffffffff1602179055506040516200010d9062000172565b604051809103906000f0801580156200012a573d6000803e3d6000fd5b50600460006101000a81548173ffffffffffffffffffffffffffffffffffffffff021916908373ffffffffffffffffffffffffffffffffffffffff1602179055505062000591565b610dbb806200297083390190565b600081519050919050565b7f4e487b7100000000000000000000000000000000000000000000000000000000600052604160045260246000fd5b7f4e487b7100000000000000000000000000000000000000000000000000000000600052602260045260246000fd5b600060028204905060018216806200020257607f821691505b602082108103620002185762000217620001ba565b5b50919050565b60008190508160005260206000209050919050565b60006020601f8301049050919050565b600082821b905092915050565b600060088302620002827fffffffffffffffffffffffffffffffffffffffffffffffffffffffffffffffff8262000243565b6200028e868362000243565b95508019841693508086168417925050509392505050565b6000819050919050565b6000819050919050565b6000620002db620002d5620002cf84620002a6565b620002b0565b620002a6565b9050919050565b6000819050919050565b620002f783620002ba565b6200030f6200030682620002e2565b84845462000250565b825550505050565b600090565b6200032662000317565b62000333818484620002ec565b505050565b5b818110156200035b576200034f6000826200031c565b60018101905062000339565b5050565b601f821115620003aa5762000374816200021e565b6200037f8462000233565b810160208510156200038f578190505b620003a76200039e8562000233565b83018262000338565b50505b505050565b600082821c905092915050565b6000620003cf60001984600802620003af565b1980831691505092915050565b6000620003ea8383620003bc565b9150826002028217905092915050565b620004058262000180565b67ffffffffffffffff8111156200042157620004206200018b565b5b6200042d8254620001e9565b6200043a8282856200035f565b600060209050601f8311600181146200047257600084156200045d578287015190505b620004698582620003dc565b865550620004d9565b601f19841662000482866200021e565b60005b82811015620004ac5784890151825560018201915060208501945060208101905062000485565b86831015620004cc5784890151620004c8601f891682620003bc565b8355505b6001600288020188555050505b505050505050565b600080fd5b600073ffffffffffffffffffffffffffffffffffffffff82169050919050565b60006200051382620004e6565b9050919050565b6000620005278262000506565b9050919050565b62000539816200051a565b81146200054557600080fd5b50565b60008151905062000559816200052e565b92915050565b600060208284031215620005785762000577620004e1565b5b6000620005888482850162000548565b91505092915050565b6123cf80620005a16000396000f3fe60806040526004361061003f5760003560e01c80632d883a7314610044578063b541468314610074578063c638ad05146100b1578063f9fe375d146100ef575b600080fd5b61005e600480360381019061005991906113c4565b61012c565b60405161006b91906115de565b60405180910390f35b34801561008057600080fd5b5061009b600480360381019061009691906117d3565b6104a8565b6040516100a8919061193c565b60405180910390f35b3480156100bd57600080fd5b506100d860048036038101906100d3919061195e565b6109a7565b6040516100e69291906119f1565b60405180910390f35b3480156100fb57600080fd5b5061011660048036038101906101119190611af5565b610d61565b6040516101239190611bb0565b60405180910390f35b610134611306565b60006002838154811061014a57610149611bd2565b5b90600052602060002090600702019050806040518060e001604052908160008201805461017690611c30565b80601f01602080910402602001604051908101604052809291908181526020018280546101a290611c30565b80156101ef5780601f106101c4576101008083540402835291602001916101ef565b820191906000526020600020905b8154815290600101906020018083116101d257829003601f168201915b5050505050815260200160018201805461020890611c30565b80601f016020809104026020016040519081016040528092919081815260200182805461023490611c30565b80156102815780601f1061025657610100808354040283529160200191610281565b820191906000526020600020905b81548152906001019060200180831161026457829003601f168201915b5050505050815260200160028201805461029a90611c30565b80601f01602080910402602001604051908101604052809291908181526020018280546102c690611c30565b80156103135780601f106102e857610100808354040283529160200191610313565b820191906000526020600020905b8154815290600101906020018083116102f657829003601f168201915b5050505050815260200160038201805461032c90611c30565b80601f016020809104026020016040519081016040528092919081815260200182805461035890611c30565b80156103a55780601f1061037a576101008083540402835291602001916103a5565b820191906000526020600020905b81548152906001019060200180831161038857829003601f168201915b505050505081526020016004820180546103be90611c30565b80601f01602080910402602001604051908101604052809291908181526020018280546103ea90611c30565b80156104375780601f1061040c57610100808354040283529160200191610437565b820191906000526020600020905b81548152906001019060200180831161041a57829003601f168201915b505050505081526020016005820160009054906101000a900473ffffffffffffffffffffffffffffffffffffffff1673ffffffffffffffffffffffffffffffffffffffff1673ffffffffffffffffffffffffffffffffffffffff168152602001600682015481525050915050919050565b60606000826020015167ffffffffffffffff8111156104ca576104c9611605565b5b60405190808252806020026020018201604052801561050357816020015b6104f0611359565b8152602001906001900390816104e85790505b5090506000808460000151905060005b60035481101561099b5760006002828154811061053357610532611bd2565b5b90600052602060002090600702016040518060e001604052908160008201805461055c90611c30565b80601f016020809104026020016040519081016040528092919081815260200182805461058890611c30565b80156105d55780601f106105aa576101008083540402835291602001916105d5565b820191906000526020600020905b8154815290600101906020018083116105b857829003601f168201915b505050505081526020016001820180546105ee90611c30565b80601f016020809104026020016040519081016040528092919081815260200182805461061a90611c30565b80156106675780601f1061063c57610100808354040283529160200191610667565b820191906000526020600020905b81548152906001019060200180831161064a57829003601f168201915b5050505050815260200160028201805461068090611c30565b80601f01602080910402602001604051908101604052809291908181526020018280546106ac90611c30565b80156106f95780601f106106ce576101008083540402835291602001916106f9565b820191906000526020600020905b8154815290600101906020018083116106dc57829003601f168201915b5050505050815260200160038201805461071290611c30565b80601f016020809104026020016040519081016040528092919081815260200182805461073e90611c30565b801561078b5780601f106107605761010080835404028352916020019161078b565b820191906000526020600020905b81548152906001019060200180831161076e57829003601f168201915b505050505081526020016004820180546107a490611c30565b80601f01602080910402602001604051908101604052809291908181526020018280546107d090611c30565b801561081d5780601f106107f25761010080835404028352916020019161081d565b820191906000526020600020905b81548152906001019060200180831161080057829003601f168201915b505050505081526020016005820160009054906101000a900473ffffffffffffffffffffffffffffffffffffffff1673ffffffffffffffffffffffffffffffffffffffff1673ffffffffffffffffffffffffffffffffffffffff1681526020016006820154815250509050600081602001519050600460009054906101000a900473ffffffffffffffffffffffffffffffffffffffff1673ffffffffffffffffffffffffffffffffffffffff16637da4831785836040518363ffffffff1660e01b81526004016108ee929190611cab565b602060405180830381865afa15801561090b573d6000803e3d6000fd5b505050506040513d601f19601f8201168201806040525081019061092f9190611d1a565b156109865760405180606001604052808360000151815260200183604001518152602001836060015181525086868061096790611d76565b97508151811061097a57610979611bd2565b5b60200260200101819052505b5050808061099390611d76565b915050610513565b50829350505050919050565b606080600080603267ffffffffffffffff8111156109c8576109c7611605565b5b6040519080825280601f01601f1916602001820160405280156109fa5781602001600182028036833780820191505090505b5090506000859050600060018251610a129190611dbe565b90505b6000828281518110610a2a57610a29611bd2565b5b602001015160f81c60f81b9050602e60f81b817effffffffffffffffffffffffffffffffffffffffffffffffffffffffffffff191603610a6a5750610b44565b6031851115610aa5576040517fb5d012b400000000000000000000000000000000000000000000000000000000815260040160405180910390fd5b80848681518110610ab957610ab8611bd2565b5b60200101907effffffffffffffffffffffffffffffffffffffffffffffffffffffffffffff1916908160001a9053508480610af390611d76565b95505060008203610b30576040517fb5d012b400000000000000000000000000000000000000000000000000000000815260040160405180910390fd5b508080610b3c90611df2565b915050610a15565b600460009054906101000a900473ffffffffffffffffffffffffffffffffffffffff1673ffffffffffffffffffffffffffffffffffffffff1663c5249be984866040518363ffffffff1660e01b8152600401610ba1929190611e2a565b600060405180830381865afa158015610bbe573d6000803e3d6000fd5b505050506040513d6000823e3d601f19601f82011682018060405250810190610be79190611eca565b9250600460009054906101000a900473ffffffffffffffffffffffffffffffffffffffff1673ffffffffffffffffffffffffffffffffffffffff16632f278ecb846040518263ffffffff1660e01b8152600401610c449190611f13565b600060405180830381865afa158015610c61573d6000803e3d6000fd5b505050506040513d6000823e3d601f19601f82011682018060405250810190610c8a9190611eca565b925060006001858451610c9d9190611dbe565b610ca79190611dbe565b90506000600460009054906101000a900473ffffffffffffffffffffffffffffffffffffffff1673ffffffffffffffffffffffffffffffffffffffff1663c5249be985846040518363ffffffff1660e01b8152600401610d08929190611e2a565b600060405180830381865afa158015610d25573d6000803e3d6000fd5b505050506040513d6000823e3d601f19601f82011682018060405250810190610d4e9190611eca565b9050808597509750505050505050915091565b60608360008082905060006001905060e682511115610dac576040517fc96b3aa100000000000000000000000000000000000000000000000000000000815260040160405180910390fd5b6000825103610dba57600090505b8215610e655760005b8251811015610e5f57600160009054906101000a900460f81b7effffffffffffffffffffffffffffffffffffffffffffffffffffffffffffff1916838281518110610e1157610e10611bd2565b5b602001015160f81c60f81b7effffffffffffffffffffffffffffffffffffffffffffffffffffffffffffff191603610e4c5760009150610e5f565b8080610e5790611d76565b915050610dc3565b50610f93565b6000905060005b8251811015610f0857600160009054906101000a900460f81b7effffffffffffffffffffffffffffffffffffffffffffffffffffffffffffff1916838281518110610eba57610eb9611bd2565b5b602001015160f81c60f81b7effffffffffffffffffffffffffffffffffffffffffffffffffffffffffffff191603610ef55760019150610f08565b8080610f0090611d76565b915050610e6c565b50600160009054906101000a900460f81b7effffffffffffffffffffffffffffffffffffffffffffffffffffffffffffff19168260018451610f4a9190611dbe565b81518110610f5b57610f5a611bd2565b5b602001015160f81c60f81b7effffffffffffffffffffffffffffffffffffffffffffffffffffffffffffff191603610f9257600090505b5b60005b82518110156110b75760005b60008054610faf90611c30565b905081101561109d576000818154610fc690611c30565b8110610fd557610fd4611bd2565b5b815460011615610ff45790600052602060002090602091828204019190065b9054901a7f0100000000000000000000000000000000000000000000000000000000000000027effffffffffffffffffffffffffffffffffffffffffffffffffffffffffffff191684838151811061104f5761104e611bd2565b5b602001015160f81c60f81b7effffffffffffffffffffffffffffffffffffffffffffffffffffffffffffff19160361108a576000925061109d565b808061109590611d76565b915050610fa2565b5081156110b75780806110af90611d76565b915050610f96565b5080156112c8576000600560009054906101000a900473ffffffffffffffffffffffffffffffffffffffff1673ffffffffffffffffffffffffffffffffffffffff1663a36885466040518163ffffffff1660e01b81526004016000604051808303816000875af115801561112f573d6000803e3d6000fd5b505050506040513d6000823e3d601f19601f820116820180604052508101906111589190611fa5565b90506000806111668b6109a7565b9150915060006040518060e001604052808581526020018c81526020018481526020018381526020018b81526020018e73ffffffffffffffffffffffffffffffffffffffff168152602001428152509050600281908060018154018082558091505060019003906000526020600020906007020160009091909190915060008201518160000190816111f8919061219a565b50602082015181600101908161120e919061219a565b506040820151816002019081611224919061219a565b50606082015181600301908161123a919061219a565b50608082015181600401908161125091906122c7565b5060a08201518160050160006101000a81548173ffffffffffffffffffffffffffffffffffffffff021916908373ffffffffffffffffffffffffffffffffffffffff16021790555060c082015181600601555050600360008154809291906112b790611d76565b9190505550839850505050506112fa565b6040517fb5d012b400000000000000000000000000000000000000000000000000000000815260040160405180910390fd5b50505050949350505050565b6040518060e001604052806060815260200160608152602001606081526020016060815260200160608152602001600073ffffffffffffffffffffffffffffffffffffffff168152602001600081525090565b60405180606001604052806060815260200160608152602001606081525090565b6000604051905090565b600080fd5b600080fd5b6000819050919050565b6113a18161138e565b81146113ac57600080fd5b50565b6000813590506113be81611398565b92915050565b6000602082840312156113da576113d9611384565b5b60006113e8848285016113af565b91505092915050565b600081519050919050565b600082825260208201905092915050565b60005b8381101561142b578082015181840152602081019050611410565b60008484015250505050565b6000601f19601f8301169050919050565b6000611453826113f1565b61145d81856113fc565b935061146d81856020860161140d565b61147681611437565b840191505092915050565b600081519050919050565b600082825260208201905092915050565b60006114a882611481565b6114b2818561148c565b93506114c281856020860161140d565b6114cb81611437565b840191505092915050565b600073ffffffffffffffffffffffffffffffffffffffff82169050919050565b6000611501826114d6565b9050919050565b611511816114f6565b82525050565b6115208161138e565b82525050565b600060e08301600083015184820360008601526115438282611448565b9150506020830151848203602086015261155d8282611448565b915050604083015184820360408601526115778282611448565b915050606083015184820360608601526115918282611448565b915050608083015184820360808601526115ab828261149d565b91505060a08301516115c060a0860182611508565b5060c08301516115d360c0860182611517565b508091505092915050565b600060208201905081810360008301526115f88184611526565b905092915050565b600080fd5b7f4e487b7100000000000000000000000000000000000000000000000000000000600052604160045260246000fd5b61163d82611437565b810181811067ffffffffffffffff8211171561165c5761165b611605565b5b80604052505050565b600061166f61137a565b905061167b8282611634565b919050565b600080fd5b600080fd5b600080fd5b600067ffffffffffffffff8211156116aa576116a9611605565b5b6116b382611437565b9050602081019050919050565b82818337600083830152505050565b60006116e26116dd8461168f565b611665565b9050828152602081018484840111156116fe576116fd61168a565b5b6117098482856116c0565b509392505050565b600082601f83011261172657611725611685565b5b81356117368482602086016116cf565b91505092915050565b60006080828403121561175557611754611600565b5b61175f6080611665565b9050600082013567ffffffffffffffff81111561177f5761177e611680565b5b61178b84828501611711565b600083015250602061179f848285016113af565b60208301525060406117b3848285016113af565b60408301525060606117c7848285016113af565b60608301525092915050565b6000602082840312156117e9576117e8611384565b5b600082013567ffffffffffffffff81111561180757611806611389565b5b6118138482850161173f565b91505092915050565b600081519050919050565b600082825260208201905092915050565b6000819050602082019050919050565b600060608301600083015184820360008601526118658282611448565b9150506020830151848203602086015261187f8282611448565b915050604083015184820360408601526118998282611448565b9150508091505092915050565b60006118b28383611848565b905092915050565b6000602082019050919050565b60006118d28261181c565b6118dc8185611827565b9350836020820285016118ee85611838565b8060005b8581101561192a578484038952815161190b85826118a6565b9450611916836118ba565b925060208a019950506001810190506118f2565b50829750879550505050505092915050565b6000602082019050818103600083015261195681846118c7565b905092915050565b60006020828403121561197457611973611384565b5b600082013567ffffffffffffffff81111561199257611991611389565b5b61199e84828501611711565b91505092915050565b600082825260208201905092915050565b60006119c3826113f1565b6119cd81856119a7565b93506119dd81856020860161140d565b6119e681611437565b840191505092915050565b60006040820190508181036000830152611a0b81856119b8565b90508181036020830152611a1f81846119b8565b90509392505050565b611a31816114f6565b8114611a3c57600080fd5b50565b600081359050611a4e81611a28565b92915050565b600067ffffffffffffffff821115611a6f57611a6e611605565b5b611a7882611437565b9050602081019050919050565b6000611a98611a9384611a54565b611665565b905082815260208101848484011115611ab457611ab361168a565b5b611abf8482856116c0565b509392505050565b600082601f830112611adc57611adb611685565b5b8135611aec848260208601611a85565b91505092915050565b60008060008060808587031215611b0f57611b0e611384565b5b6000611b1d87828801611a3f565b945050602085013567ffffffffffffffff811115611b3e57611b3d611389565b5b611b4a87828801611711565b935050604085013567ffffffffffffffff811115611b6b57611b6a611389565b5b611b7787828801611711565b925050606085013567ffffffffffffffff811115611b9857611b97611389565b5b611ba487828801611ac7565b91505092959194509250565b60006020820190508181036000830152611bca81846119b8565b905092915050565b7f4e487b7100000000000000000000000000000000000000000000000000000000600052603260045260246000fd5b7f4e487b7100000000000000000000000000000000000000000000000000000000600052602260045260246000fd5b60006002820490506001821680611c4857607f821691505b602082108103611c5b57611c5a611c01565b5b50919050565b600082825260208201905092915050565b6000611c7d82611481565b611c878185611c61565b9350611c9781856020860161140d565b611ca081611437565b840191505092915050565b60006040820190508181036000830152611cc58185611c72565b90508181036020830152611cd98184611c72565b90509392505050565b60008115159050919050565b611cf781611ce2565b8114611d0257600080fd5b50565b600081519050611d1481611cee565b92915050565b600060208284031215611d3057611d2f611384565b5b6000611d3e84828501611d05565b91505092915050565b7f4e487b7100000000000000000000000000000000000000000000000000000000600052601160045260246000fd5b6000611d818261138e565b91507fffffffffffffffffffffffffffffffffffffffffffffffffffffffffffffffff8203611db357611db2611d47565b5b600182019050919050565b6000611dc98261138e565b9150611dd48361138e565b9250828203905081811115611dec57611deb611d47565b5b92915050565b6000611dfd8261138e565b915060008203611e1057611e0f611d47565b5b600182039050919050565b611e248161138e565b82525050565b60006040820190508181036000830152611e448185611c72565b9050611e536020830184611e1b565b9392505050565b6000611e6d611e6884611a54565b611665565b905082815260208101848484011115611e8957611e8861168a565b5b611e9484828561140d565b509392505050565b600082601f830112611eb157611eb0611685565b5b8151611ec1848260208601611e5a565b91505092915050565b600060208284031215611ee057611edf611384565b5b600082015167ffffffffffffffff811115611efe57611efd611389565b5b611f0a84828501611e9c565b91505092915050565b60006020820190508181036000830152611f2d8184611c72565b905092915050565b6000611f48611f438461168f565b611665565b905082815260208101848484011115611f6457611f6361168a565b5b611f6f84828561140d565b509392505050565b600082601f830112611f8c57611f8b611685565b5b8151611f9c848260208601611f35565b91505092915050565b600060208284031215611fbb57611fba611384565b5b600082015167ffffffffffffffff811115611fd957611fd8611389565b5b611fe584828501611f77565b91505092915050565b60008190508160005260206000209050919050565b60006020601f8301049050919050565b600082821b905092915050565b6000600883026120507fffffffffffffffffffffffffffffffffffffffffffffffffffffffffffffffff82612013565b61205a8683612013565b95508019841693508086168417925050509392505050565b6000819050919050565b600061209761209261208d8461138e565b612072565b61138e565b9050919050565b6000819050919050565b6120b18361207c565b6120c56120bd8261209e565b848454612020565b825550505050565b600090565b6120da6120cd565b6120e58184846120a8565b505050565b5b81811015612109576120fe6000826120d2565b6001810190506120eb565b5050565b601f82111561214e5761211f81611fee565b61212884612003565b81016020851015612137578190505b61214b61214385612003565b8301826120ea565b50505b505050565b600082821c905092915050565b600061217160001984600802612153565b1980831691505092915050565b600061218a8383612160565b9150826002028217905092915050565b6121a3826113f1565b67ffffffffffffffff8111156121bc576121bb611605565b5b6121c68254611c30565b6121d182828561210d565b600060209050601f83116001811461220457600084156121f2578287015190505b6121fc858261217e565b865550612264565b601f19841661221286611fee565b60005b8281101561223a57848901518255600182019150602085019450602081019050612215565b868310156122575784890151612253601f891682612160565b8355505b6001600288020188555050505b505050505050565b60008190508160005260206000209050919050565b601f8211156122c2576122938161226c565b61229c84612003565b810160208510156122ab578190505b6122bf6122b785612003565b8301826120ea565b50505b505050565b6122d082611481565b67ffffffffffffffff8111156122e9576122e8611605565b5b6122f38254611c30565b6122fe828285612281565b600060209050601f831160018114612331576000841561231f578287015190505b612329858261217e565b865550612391565b601f19841661233f8661226c565b60005b8281101561236757848901518255600182019150602085019450602081019050612342565b868310156123845784890151612380601f891682612160565b8355505b6001600288020188555050505b50505050505056fea264697066735822122016ddadc850a751ade1f66c05f350b3c169f230027c28f5a692715ba7337e84ee64736f6c63430008110033608060405234801561001057600080fd5b50610d9b806100206000396000f3fe608060405234801561001057600080fd5b506004361061004c5760003560e01c80632f278ecb146100515780637da48317146100815780639514fbc9146100b1578063c5249be9146100e1575b600080fd5b61006b600480360381019061006691906106a2565b610111565b604051610078919061077f565b60405180910390f35b61009b600480360381019061009691906108d1565b610212565b6040516100a89190610964565b60405180910390f35b6100cb60048036038101906100c69190610b01565b6102e6565b6040516100d89190610b9f565b60405180910390f35b6100fb60048036038101906100f69190610bf7565b61054d565b604051610108919061077f565b60405180910390f35b606060008383905067ffffffffffffffff811115610132576101316107a6565b5b6040519080825280601f01601f1916602001820160405280156101645781602001600182028036833780820191505090505b50905060006001858590506101799190610c86565b905060005b8585905081101561020657858582846101979190610c86565b8181106101a7576101a6610cba565b5b9050013560f81c60f81b8382815181106101c4576101c3610cba565b5b60200101907effffffffffffffffffffffffffffffffffffffffffffffffffffffffffffff1916908160001a90535080806101fe90610ce9565b91505061017e565b50819250505092915050565b600080835190508251811461022b5760009150506102e0565b60005b818110156102d95783818151811061024957610248610cba565b5b602001015160f81c60f81b7effffffffffffffffffffffffffffffffffffffffffffffffffffffffffffff191685828151811061028957610288610cba565b5b602001015160f81c60f81b7effffffffffffffffffffffffffffffffffffffffffffffffffffffffffffff1916146102c6576000925050506102e0565b80806102d190610ce9565b91505061022e565b5060019150505b92915050565b6060600080835167ffffffffffffffff811115610306576103056107a6565b5b60405190808252806020026020018201604052801561033957816020015b60608152602001906001900390816103245790505b50905060005b84518110156103b557600085828151811061035d5761035c610cba565b5b60200260200101519050600181516103759190610d31565b846103809190610d31565b93508083838151811061039657610395610cba565b5b60200260200101819052505080806103ad90610ce9565b91505061033f565b60008367ffffffffffffffff8111156103d1576103d06107a6565b5b6040519080825280601f01601f1916602001820160405280156104035781602001600182028036833780820191505090505b5090506000915060005b835181101561054057602f60f81b82848151811061042e5761042d610cba565b5b60200101907effffffffffffffffffffffffffffffffffffffffffffffffffffffffffffff1916908160001a905350828061046890610ce9565b93505060005b84828151811061048157610480610cba565b5b60200260200101515181101561052c578482815181106104a4576104a3610cba565b5b602002602001015181815181106104be576104bd610cba565b5b602001015160f81c60f81b8385815181106104dc576104db610cba565b5b60200101907effffffffffffffffffffffffffffffffffffffffffffffffffffffffffffff1916908160001a905350838061051690610ce9565b945050808061052490610ce9565b91505061046e565b50808061053890610ce9565b91505061040d565b5080945050505050919050565b606060008267ffffffffffffffff81111561056b5761056a6107a6565b5b6040519080825280601f01601f19166020018201604052801561059d5781602001600182028036833780820191505090505b50905060005b8381101561061d578585828181106105be576105bd610cba565b5b9050013560f81c60f81b8282815181106105db576105da610cba565b5b60200101907effffffffffffffffffffffffffffffffffffffffffffffffffffffffffffff1916908160001a905350808061061590610ce9565b9150506105a3565b50809150509392505050565b6000604051905090565b600080fd5b600080fd5b600080fd5b600080fd5b600080fd5b60008083601f8401126106625761066161063d565b5b8235905067ffffffffffffffff81111561067f5761067e610642565b5b60208301915083600182028301111561069b5761069a610647565b5b9250929050565b600080602083850312156106b9576106b8610633565b5b600083013567ffffffffffffffff8111156106d7576106d6610638565b5b6106e38582860161064c565b92509250509250929050565b600081519050919050565b600082825260208201905092915050565b60005b8381101561072957808201518184015260208101905061070e565b60008484015250505050565b6000601f19601f8301169050919050565b6000610751826106ef565b61075b81856106fa565b935061076b81856020860161070b565b61077481610735565b840191505092915050565b600060208201905081810360008301526107998184610746565b905092915050565b600080fd5b7f4e487b7100000000000000000000000000000000000000000000000000000000600052604160045260246000fd5b6107de82610735565b810181811067ffffffffffffffff821117156107fd576107fc6107a6565b5b80604052505050565b6000610810610629565b905061081c82826107d5565b919050565b600067ffffffffffffffff82111561083c5761083b6107a6565b5b61084582610735565b9050602081019050919050565b82818337600083830152505050565b600061087461086f84610821565b610806565b9050828152602081018484840111156108905761088f6107a1565b5b61089b848285610852565b509392505050565b600082601f8301126108b8576108b761063d565b5b81356108c8848260208601610861565b91505092915050565b600080604083850312156108e8576108e7610633565b5b600083013567ffffffffffffffff81111561090657610905610638565b5b610912858286016108a3565b925050602083013567ffffffffffffffff81111561093357610932610638565b5b61093f858286016108a3565b9150509250929050565b60008115159050919050565b61095e81610949565b82525050565b60006020820190506109796000830184610955565b92915050565b600067ffffffffffffffff82111561099a576109996107a6565b5b602082029050602081019050919050565b600067ffffffffffffffff8211156109c6576109c56107a6565b5b6109cf82610735565b9050602081019050919050565b60006109ef6109ea846109ab565b610806565b905082815260208101848484011115610a0b57610a0a6107a1565b5b610a16848285610852565b509392505050565b600082601f830112610a3357610a3261063d565b5b8135610a438482602086016109dc565b91505092915050565b6000610a5f610a5a8461097f565b610806565b90508083825260208201905060208402830185811115610a8257610a81610647565b5b835b81811015610ac957803567ffffffffffffffff811115610aa757610aa661063d565b5b808601610ab48982610a1e565b85526020850194505050602081019050610a84565b5050509392505050565b600082601f830112610ae857610ae761063d565b5b8135610af8848260208601610a4c565b91505092915050565b600060208284031215610b1757610b16610633565b5b600082013567ffffffffffffffff811115610b3557610b34610638565b5b610b4184828501610ad3565b91505092915050565b600081519050919050565b600082825260208201905092915050565b6000610b7182610b4a565b610b7b8185610b55565b9350610b8b81856020860161070b565b610b9481610735565b840191505092915050565b60006020820190508181036000830152610bb98184610b66565b905092915050565b6000819050919050565b610bd481610bc1565b8114610bdf57600080fd5b50565b600081359050610bf181610bcb565b92915050565b600080600060408486031215610c1057610c0f610633565b5b600084013567ffffffffffffffff811115610c2e57610c2d610638565b5b610c3a8682870161064c565b93509350506020610c4d86828701610be2565b9150509250925092565b7f4e487b7100000000000000000000000000000000000000000000000000000000600052601160045260246000fd5b6000610c9182610bc1565b9150610c9c83610bc1565b9250828203905081811115610cb457610cb3610c57565b5b92915050565b7f4e487b7100000000000000000000000000000000000000000000000000000000600052603260045260246000fd5b6000610cf482610bc1565b91507fffffffffffffffffffffffffffffffffffffffffffffffffffffffffffffffff8203610d2657610d25610c57565b5b600182019050919050565b6000610d3c82610bc1565b9150610d4783610bc1565b9250828201905080821115610d5f57610d5e610c57565b5b9291505056fea2646970667358221220a8b2676b7cc27107ca4dd8ced86a6745bb88d025e39e517c5bc1c2cf752f91ef64736f6c63430008110033",
  "linkReferences": {},
  "deployedLinkReferences": {}
}