{
  "_format": "hh-sol-artifact-1",
  "contractName": "ContractLogic",
  "sourceName": "contracts/ContractLogic.sol",
  "abi": [
    {
      "anonymous": false,
      "inputs": [
        {
          "indexed": false,
          "internalType": "string",
          "name": "id",
          "type": "string"
        },
        {
          "indexed": false,
          "internalType": "string",
          "name": "directoryId",
          "type": "string"
        }
      ],
      "name": "DirectoryCreated",
      "type": "event"
    },
    {
      "anonymous": false,
      "inputs": [
        {
          "indexed": false,
          "internalType": "string",
          "name": "id",
          "type": "string"
        },
        {
          "indexed": false,
          "internalType": "string",
          "name": "directoryId",
          "type": "string"
        },
        {
          "indexed": false,
          "internalType": "string",
          "name": "fileHash",
          "type": "string"
        }
      ],
      "name": "FileUploaded",
      "type": "event"
    },
    {
      "inputs": [
        {
          "internalType": "string",
          "name": "name",
          "type": "string"
        },
        {
          "internalType": "string",
          "name": "parentId",
          "type": "string"
        }
      ],
      "name": "createDirectory",
      "outputs": [],
      "stateMutability": "payable",
      "type": "function"
    },
    {
      "inputs": [
        {
          "internalType": "string",
          "name": "id",
          "type": "string"
        }
      ],
      "name": "getDirectoryData",
      "outputs": [
        {
          "components": [
            {
              "internalType": "string",
              "name": "Id",
              "type": "string"
            },
            {
              "internalType": "string",
              "name": "ParentId",
              "type": "string"
            },
            {
              "internalType": "string",
              "name": "Name",
              "type": "string"
            },
            {
              "internalType": "address",
              "name": "Creator",
              "type": "address"
            },
            {
              "internalType": "uint256",
              "name": "DateCreated",
              "type": "uint256"
            }
          ],
          "internalType": "struct DirectoryFrame[]",
          "name": "",
          "type": "tuple[]"
        },
        {
          "components": [
            {
              "internalType": "string",
              "name": "Id",
              "type": "string"
            },
            {
              "internalType": "string",
              "name": "Name",
              "type": "string"
            },
            {
              "internalType": "string",
              "name": "Extension",
              "type": "string"
            }
          ],
          "internalType": "struct FileOutput[]",
          "name": "",
          "type": "tuple[]"
        },
        {
          "components": [
            {
              "internalType": "string",
              "name": "DirectoryId",
              "type": "string"
            },
            {
              "internalType": "uint256",
              "name": "FilesCount",
              "type": "uint256"
            },
            {
              "internalType": "uint256",
              "name": "DirectoriesCount",
              "type": "uint256"
            },
            {
              "internalType": "uint256",
              "name": "Size",
              "type": "uint256"
            }
          ],
          "internalType": "struct DirectoryInfoFrame",
          "name": "",
          "type": "tuple"
        }
      ],
      "stateMutability": "view",
      "type": "function"
    },
    {
      "inputs": [],
      "name": "getOrCreateRoot",
      "outputs": [],
      "stateMutability": "payable",
      "type": "function"
    },
    {
      "inputs": [],
      "name": "getRoot",
      "outputs": [
        {
          "internalType": "bool",
          "name": "",
          "type": "bool"
        },
        {
          "components": [
            {
              "internalType": "string",
              "name": "Id",
              "type": "string"
            },
            {
              "internalType": "string",
              "name": "ParentId",
              "type": "string"
            },
            {
              "internalType": "string",
              "name": "Name",
              "type": "string"
            },
            {
              "internalType": "address",
              "name": "Creator",
              "type": "address"
            },
            {
              "internalType": "uint256",
              "name": "DateCreated",
              "type": "uint256"
            }
          ],
          "internalType": "struct DirectoryFrame",
          "name": "",
          "type": "tuple"
        }
      ],
      "stateMutability": "view",
      "type": "function"
    },
    {
      "inputs": [
        {
          "internalType": "address",
          "name": "directoryRepositoryAddress",
          "type": "address"
        },
        {
          "internalType": "address",
          "name": "fileRepositoryAddress",
          "type": "address"
        }
      ],
      "name": "setup",
      "outputs": [],
      "stateMutability": "nonpayable",
      "type": "function"
    },
    {
      "inputs": [
        {
          "internalType": "string",
          "name": "directoryId",
          "type": "string"
        },
        {
          "internalType": "string",
          "name": "fileId",
          "type": "string"
        },
        {
          "internalType": "string",
          "name": "fileName",
          "type": "string"
        },
        {
          "internalType": "string",
          "name": "fileHash",
          "type": "string"
        }
      ],
      "name": "uploadFile",
      "outputs": [],
      "stateMutability": "payable",
      "type": "function"
    }
  ],
  "bytecode": "0x608060405234801561001057600080fd5b5061139d806100206000396000f3fe6080604052600436106100655760003560e01c8063eb849f2811610043578063eb849f28146100e7578063ef8bfa3e146100fa578063f0286d461461010257600080fd5b80632d34ba791461006a5780633659b0c21461008c5780635ca1e165146100c4575b600080fd5b34801561007657600080fd5b5061008a610085366004610811565b610115565b005b34801561009857600080fd5b506100ac6100a736600461095b565b6101c5565b6040516100bb93929190610a99565b60405180910390f35b3480156100d057600080fd5b506100d9610328565b6040516100bb929190610ba3565b61008a6100f5366004610bbe565b6103f6565b61008a6104ce565b61008a610110366004610c22565b61055c565b600080547fffffffffffffffffffffffff0000000000000000000000000000000000000000166001600160a01b038481169190911790915560018054600160a01b9284167fffffffffffffffffffffff0000000000000000000000000000000000000000009091161782179081905560ff9190041615610193575050565b5050600180547fffffffffffffffffffffff00ffffffffffffffffffffffffffffffffffffffff16600160a01b179055565b6060806101f36040518060800160405280606081526020016000815260200160008152602001600081525090565b600080546040517f04c9416900000000000000000000000000000000000000000000000000000000815282916001600160a01b0316906304c941699061023d908990600401610ccf565b600060405180830381865afa15801561025a573d6000803e3d6000fd5b505050506040513d6000823e601f3d908101601f191682016040526102829190810190610e94565b6001546040517fb54146830000000000000000000000000000000000000000000000000000000081529294509092506000916001600160a01b039091169063b5414683906102d4908590600401610f61565b600060405180830381865afa1580156102f1573d6000803e3d6000fd5b505050506040513d6000823e601f3d908101601f191682016040526103199190810190610f74565b92979296509094509092505050565b60006103656040518060a0016040528060608152602001606081526020016060815260200160006001600160a01b03168152602001600081525090565b6000546040517f079cf76e0000000000000000000000000000000000000000000000000000000081523360048201526001600160a01b039091169063079cf76e90602401600060405180830381865afa1580156103c6573d6000803e3d6000fd5b505050506040513d6000823e601f3d908101601f191682016040526103ee91908101906110a7565b915091509091565b600080546040517f46bc7fd900000000000000000000000000000000000000000000000000000000815282916001600160a01b0316906346bc7fd990610444903390889088906004016110f3565b6000604051808303816000875af1158015610463573d6000803e3d6000fd5b505050506040513d6000823e601f3d908101601f1916820160405261048b9190810190611131565b915091507f4c9693bd5995e807ecd0b699b880b4048ef773d06f9baba5e936216a97c888bd82826040516104c092919061118b565b60405180910390a150505050565b6000546040517f49b1cea80000000000000000000000000000000000000000000000000000000081523360048201526001600160a01b03909116906349b1cea8906024016000604051808303816000875af1158015610531573d6000803e3d6000fd5b505050506040513d6000823e601f3d908101601f1916820160405261055991908101906111b9565b50565b600080546040517f929ad6c20000000000000000000000000000000000000000000000000000000081526001600160a01b039091169063929ad6c2906105a890339089906004016111ee565b6000604051808303816000875af11580156105c7573d6000803e3d6000fd5b505050506040513d6000823e601f3d908101601f191682016040526105ef91908101906111b9565b6000805482516040517f679c7ccb00000000000000000000000000000000000000000000000000000000815293945091926001600160a01b039091169163679c7ccb9161063f9190600401610ccf565b6000604051808303816000875af115801561065e573d6000803e3d6000fd5b505050506040513d6000823e601f3d908101601f191682016040526106869190810190611210565b9050806020015160016106999190611245565b602082015260005482516040517f976c12550000000000000000000000000000000000000000000000000000000081526001600160a01b039092169163976c1255916106e991859060040161126c565b600060405180830381600087803b15801561070357600080fd5b505af1158015610717573d6000803e3d6000fd5b505060015484516040517fb5b99c85000000000000000000000000000000000000000000000000000000008152600094506001600160a01b03909216925063b5b99c859161076f9133918b918b918b90600401611291565b6000604051808303816000875af115801561078e573d6000803e3d6000fd5b505050506040513d6000823e601f3d908101601f191682016040526107b691908101906112f9565b90507f09b246ac4d9e85a780a82c73e7faa18867582780dcae0a1bedbfdda2cc55c8d18188866040516107eb9392919061132e565b60405180910390a150505050505050565b6001600160a01b038116811461055957600080fd5b6000806040838503121561082457600080fd5b823561082f816107fc565b9150602083013561083f816107fc565b809150509250929050565b634e487b7160e01b600052604160045260246000fd5b60405160a0810167ffffffffffffffff811182821017156108835761088361084a565b60405290565b6040516060810167ffffffffffffffff811182821017156108835761088361084a565b604051601f8201601f1916810167ffffffffffffffff811182821017156108d5576108d561084a565b604052919050565b600067ffffffffffffffff8211156108f7576108f761084a565b50601f01601f191660200190565b600082601f83011261091657600080fd5b8135610929610924826108dd565b6108ac565b81815284602083860101111561093e57600080fd5b816020850160208301376000918101602001919091529392505050565b60006020828403121561096d57600080fd5b813567ffffffffffffffff81111561098457600080fd5b61099084828501610905565b949350505050565b60005b838110156109b357818101518382015260200161099b565b50506000910152565b600081518084526109d4816020860160208601610998565b601f01601f19169290920160200192915050565b6000815160a084526109fd60a08501826109bc565b905060208301518482036020860152610a1682826109bc565b91505060408301518482036040860152610a3082826109bc565b9150506001600160a01b036060840151166060850152608083015160808501528091505092915050565b6000815160808452610a6f60808501826109bc565b90506020830151602085015260408301516040850152606083015160608501528091505092915050565b6000606080830181845280875180835260808601915060808160051b87010192506020808a0160005b83811015610af057607f19898703018552610ade8683516109e8565b95509382019390820190600101610ac2565b505086840381880152885180855281850193509150600582901b8401810189820160005b84811015610b8057868303601f1901865281518051898552610b388a8601826109bc565b90508582015185820387870152610b4f82826109bc565b91505060408083015192508582038187015250610b6c81836109bc565b978601979450505090830190600101610b14565b50508781036040890152610b94818a610a5a565b9b9a5050505050505050505050565b821515815260406020820152600061099060408301846109e8565b60008060408385031215610bd157600080fd5b823567ffffffffffffffff80821115610be957600080fd5b610bf586838701610905565b93506020850135915080821115610c0b57600080fd5b50610c1885828601610905565b9150509250929050565b60008060008060808587031215610c3857600080fd5b843567ffffffffffffffff80821115610c5057600080fd5b610c5c88838901610905565b95506020870135915080821115610c7257600080fd5b610c7e88838901610905565b94506040870135915080821115610c9457600080fd5b610ca088838901610905565b93506060870135915080821115610cb657600080fd5b50610cc387828801610905565b91505092959194509250565b602081526000610ce260208301846109bc565b9392505050565b600067ffffffffffffffff821115610d0357610d0361084a565b5060051b60200190565b600082601f830112610d1e57600080fd5b8151610d2c610924826108dd565b818152846020838601011115610d4157600080fd5b610990826020830160208701610998565b8051610d5d816107fc565b919050565b600060a08284031215610d7457600080fd5b610d7c610860565b9050815167ffffffffffffffff80821115610d9657600080fd5b610da285838601610d0d565b83526020840151915080821115610db857600080fd5b610dc485838601610d0d565b60208401526040840151915080821115610ddd57600080fd5b50610dea84828501610d0d565b604083015250610dfc60608301610d52565b60608201526080820151608082015292915050565b600060808284031215610e2357600080fd5b6040516080810167ffffffffffffffff8282108183111715610e4757610e4761084a565b816040528293508451915080821115610e5f57600080fd5b50610e6c85828601610d0d565b8252506020830151602082015260408301516040820152606083015160608201525092915050565b60008060408385031215610ea757600080fd5b825167ffffffffffffffff80821115610ebf57600080fd5b818501915085601f830112610ed357600080fd5b81516020610ee361092483610ce9565b82815260059290921b84018101918181019089841115610f0257600080fd5b8286015b84811015610f3a57805186811115610f1e5760008081fd5b610f2c8c86838b0101610d62565b845250918301918301610f06565b5091880151919650909350505080821115610f5457600080fd5b50610c1885828601610e11565b602081526000610ce26020830184610a5a565b60006020808385031215610f8757600080fd5b825167ffffffffffffffff80821115610f9f57600080fd5b818501915085601f830112610fb357600080fd5b8151610fc161092482610ce9565b81815260059190911b83018401908481019088831115610fe057600080fd5b8585015b8381101561109a57805185811115610ffc5760008081fd5b86016060818c03601f19018113156110145760008081fd5b61101c610889565b898301518881111561102e5760008081fd5b61103c8e8c83870101610d0d565b825250604080840151898111156110535760008081fd5b6110618f8d83880101610d0d565b838d0152509183015191888311156110795760008081fd5b6110878e8c85870101610d0d565b9082015285525050918601918601610fe4565b5098975050505050505050565b600080604083850312156110ba57600080fd5b825180151581146110ca57600080fd5b602084015190925067ffffffffffffffff8111156110e757600080fd5b610c1885828601610d62565b6001600160a01b038416815260606020820152600061111560608301856109bc565b828103604084015261112781856109bc565b9695505050505050565b6000806040838503121561114457600080fd5b825167ffffffffffffffff8082111561115c57600080fd5b61116886838701610d0d565b9350602085015191508082111561117e57600080fd5b50610c1885828601610d0d565b60408152600061119e60408301856109bc565b82810360208401526111b081856109bc565b95945050505050565b6000602082840312156111cb57600080fd5b815167ffffffffffffffff8111156111e257600080fd5b61099084828501610d62565b6001600160a01b038316815260406020820152600061099060408301846109bc565b60006020828403121561122257600080fd5b815167ffffffffffffffff81111561123957600080fd5b61099084828501610e11565b8082018082111561126657634e487b7160e01b600052601160045260246000fd5b92915050565b60408152600061127f60408301856109bc565b82810360208401526111b08185610a5a565b6001600160a01b038616815260a0602082015260006112b360a08301876109bc565b82810360408401526112c581876109bc565b905082810360608401526112d981866109bc565b905082810360808401526112ed81856109bc565b98975050505050505050565b60006020828403121561130b57600080fd5b815167ffffffffffffffff81111561132257600080fd5b61099084828501610d0d565b60608152600061134160608301866109bc565b828103602084015261135381866109bc565b9050828103604084015261112781856109bc56fea2646970667358221220925ab4f4f241b9351f9d46f9004d65a4b4e86b4f52bbfd5556399adde819e96664736f6c63430008110033",
  "linkReferences": {},
  "deployedLinkReferences": {}
}