{
  "contractName": "ContractLogic",
  "abi": [
    {
      "inputs": [],
      "stateMutability": "nonpayable",
      "type": "constructor"
    },
    {
      "inputs": [
        {
          "internalType": "string",
          "name": "name",
          "type": "string"
        },
        {
          "internalType": "string",
          "name": "parentId",
          "type": "string"
        }
      ],
      "name": "createDirectory",
      "outputs": [
        {
          "internalType": "string",
          "name": "",
          "type": "string"
        }
      ],
      "stateMutability": "payable",
      "type": "function"
    },
    {
      "inputs": [
        {
          "internalType": "string",
          "name": "id",
          "type": "string"
        }
      ],
      "name": "getDirectory",
      "outputs": [
        {
          "components": [
            {
              "internalType": "string",
              "name": "Id",
              "type": "string"
            },
            {
              "internalType": "string",
              "name": "ParentId",
              "type": "string"
            },
            {
              "internalType": "string",
              "name": "Name",
              "type": "string"
            },
            {
              "internalType": "address",
              "name": "Creator",
              "type": "address"
            },
            {
              "internalType": "uint256",
              "name": "DateCreated",
              "type": "uint256"
            }
          ],
          "internalType": "struct DirectoryFrame[]",
          "name": "",
          "type": "tuple[]"
        }
      ],
      "stateMutability": "view",
      "type": "function"
    },
    {
      "inputs": [],
      "name": "getOrCreateRoot",
      "outputs": [
        {
          "components": [
            {
              "internalType": "string",
              "name": "Id",
              "type": "string"
            },
            {
              "internalType": "string",
              "name": "ParentId",
              "type": "string"
            },
            {
              "internalType": "string",
              "name": "Name",
              "type": "string"
            },
            {
              "internalType": "address",
              "name": "Creator",
              "type": "address"
            },
            {
              "internalType": "uint256",
              "name": "DateCreated",
              "type": "uint256"
            }
          ],
          "internalType": "struct DirectoryFrame",
          "name": "root",
          "type": "tuple"
        }
      ],
      "stateMutability": "nonpayable",
      "type": "function"
    },
    {
      "inputs": [],
      "name": "getRoot",
      "outputs": [
        {
          "components": [
            {
              "internalType": "string",
              "name": "Id",
              "type": "string"
            },
            {
              "internalType": "string",
              "name": "ParentId",
              "type": "string"
            },
            {
              "internalType": "string",
              "name": "Name",
              "type": "string"
            },
            {
              "internalType": "address",
              "name": "Creator",
              "type": "address"
            },
            {
              "internalType": "uint256",
              "name": "DateCreated",
              "type": "uint256"
            }
          ],
          "internalType": "struct DirectoryFrame",
          "name": "root",
          "type": "tuple"
        }
      ],
      "stateMutability": "view",
      "type": "function"
    },
    {
      "inputs": [
        {
          "internalType": "string",
          "name": "directoryId",
          "type": "string"
        },
        {
          "internalType": "string",
          "name": "fileName",
          "type": "string"
        },
        {
          "internalType": "bytes",
          "name": "fileData",
          "type": "bytes"
        }
      ],
      "name": "uploadFile",
      "outputs": [
        {
          "internalType": "string",
          "name": "",
          "type": "string"
        }
      ],
      "stateMutability": "payable",
      "type": "function"
    },
    {
      "inputs": [
        {
          "internalType": "bytes",
          "name": "t",
          "type": "bytes"
        }
      ],
      "name": "testGet",
      "outputs": [
        {
          "internalType": "bytes",
          "name": "",
          "type": "bytes"
        }
      ],
      "stateMutability": "pure",
      "type": "function"
    }
  ],
  "bytecode": "0x60806040523480156200001157600080fd5b506040516200002090620001b5565b604051809103906000f0801580156200003d573d6000803e3d6000fd5b506000806101000a81548173ffffffffffffffffffffffffffffffffffffffff021916908373ffffffffffffffffffffffffffffffffffffffff16021790555060008054906101000a900473ffffffffffffffffffffffffffffffffffffffff16604051620000ac90620001c3565b620000b891906200026a565b604051809103906000f080158015620000d5573d6000803e3d6000fd5b50600160006101000a81548173ffffffffffffffffffffffffffffffffffffffff021916908373ffffffffffffffffffffffffffffffffffffffff16021790555060008054906101000a900473ffffffffffffffffffffffffffffffffffffffff166040516200014590620001d1565b6200015191906200026a565b604051809103906000f0801580156200016e573d6000803e3d6000fd5b50600260006101000a81548173ffffffffffffffffffffffffffffffffffffffff021916908373ffffffffffffffffffffffffffffffffffffffff16021790555062000287565b610d33806200164483390190565b6133e8806200237783390190565b6119f7806200575f83390190565b600073ffffffffffffffffffffffffffffffffffffffff82169050919050565b6000819050919050565b60006200022a620002246200021e84620001df565b620001ff565b620001df565b9050919050565b60006200023e8262000209565b9050919050565b6000620002528262000231565b9050919050565b620002648162000245565b82525050565b600060208201905062000281600083018462000259565b92915050565b6113ad80620002976000396000f3fe6080604052600436106100555760003560e01c806309f1cffc1461005a5780635ca1e1651461008a578063a5f3271e146100b5578063c12e8656146100f2578063eb849f281461012f578063ef8bfa3e1461015f575b600080fd5b610074600480360381019061006f919061089b565b61018a565b60405161008191906109ca565b60405180910390f35b34801561009657600080fd5b5061009f6103b0565b6040516100ac9190610b14565b60405180910390f35b3480156100c157600080fd5b506100dc60048036038101906100d79190610b36565b610453565b6040516100e99190610bd4565b60405180910390f35b3480156100fe57600080fd5b5061011960048036038101906101149190610bf6565b61045d565b6040516101269190610d85565b60405180910390f35b61014960048036038101906101449190610da7565b610507565b60405161015691906109ca565b60405180910390f35b34801561016b57600080fd5b506101746105b6565b6040516101819190610b14565b60405180910390f35b60606000600160009054906101000a900473ffffffffffffffffffffffffffffffffffffffff1673ffffffffffffffffffffffffffffffffffffffff1663c01a8316866040518263ffffffff1660e01b81526004016101e991906109ca565b6000604051808303816000875af1158015610208573d6000803e3d6000fd5b505050506040513d6000823e3d601f19601f820116820180604052508101906102319190610fd1565b90506000600160009054906101000a900473ffffffffffffffffffffffffffffffffffffffff1673ffffffffffffffffffffffffffffffffffffffff1663679c7ccb83600001516040518263ffffffff1660e01b815260040161029491906109ca565b6000604051808303816000875af11580156102b3573d6000803e3d6000fd5b505050506040513d6000823e3d601f19601f820116820180604052508101906102dc91906110ae565b9050600181602001516102ef9190611126565b8160200181815250506000600260009054906101000a900473ffffffffffffffffffffffffffffffffffffffff1673ffffffffffffffffffffffffffffffffffffffff1663c22585c28789886040518463ffffffff1660e01b81526004016103599392919061117c565b6000604051808303816000875af1158015610378573d6000803e3d6000fd5b505050506040513d6000823e3d601f19601f820116820180604052508101906103a191906111c8565b90508093505050509392505050565b6103b861065b565b600160009054906101000a900473ffffffffffffffffffffffffffffffffffffffff1673ffffffffffffffffffffffffffffffffffffffff16635ca1e1656040518163ffffffff1660e01b8152600401600060405180830381865afa158015610425573d6000803e3d6000fd5b505050506040513d6000823e3d601f19601f8201168201806040525081019061044e9190610fd1565b905090565b6060819050919050565b6060600160009054906101000a900473ffffffffffffffffffffffffffffffffffffffff1673ffffffffffffffffffffffffffffffffffffffff1663693ec85e836040518263ffffffff1660e01b81526004016104ba91906109ca565b600060405180830381865afa1580156104d7573d6000803e3d6000fd5b505050506040513d6000823e3d601f19601f8201168201806040525081019061050091906112f7565b9050919050565b6060600160009054906101000a900473ffffffffffffffffffffffffffffffffffffffff1673ffffffffffffffffffffffffffffffffffffffff1663ebdf86ca84846040518363ffffffff1660e01b8152600401610566929190611340565b6000604051808303816000875af1158015610585573d6000803e3d6000fd5b505050506040513d6000823e3d601f19601f820116820180604052508101906105ae91906111c8565b905092915050565b6105be61065b565b600160009054906101000a900473ffffffffffffffffffffffffffffffffffffffff1673ffffffffffffffffffffffffffffffffffffffff1663ef8bfa3e6040518163ffffffff1660e01b81526004016000604051808303816000875af115801561062d573d6000803e3d6000fd5b505050506040513d6000823e3d601f19601f820116820180604052508101906106569190610fd1565b905090565b6040518060a00160405280606081526020016060815260200160608152602001600073ffffffffffffffffffffffffffffffffffffffff168152602001600081525090565b6000604051905090565b600080fd5b600080fd5b600080fd5b600080fd5b6000601f19601f8301169050919050565b7f4e487b7100000000000000000000000000000000000000000000000000000000600052604160045260246000fd5b610707826106be565b810181811067ffffffffffffffff82111715610726576107256106cf565b5b80604052505050565b60006107396106a0565b905061074582826106fe565b919050565b600067ffffffffffffffff821115610765576107646106cf565b5b61076e826106be565b9050602081019050919050565b82818337600083830152505050565b600061079d6107988461074a565b61072f565b9050828152602081018484840111156107b9576107b86106b9565b5b6107c484828561077b565b509392505050565b600082601f8301126107e1576107e06106b4565b5b81356107f184826020860161078a565b91505092915050565b600067ffffffffffffffff821115610815576108146106cf565b5b61081e826106be565b9050602081019050919050565b600061083e610839846107fa565b61072f565b90508281526020810184848401111561085a576108596106b9565b5b61086584828561077b565b509392505050565b600082601f830112610882576108816106b4565b5b813561089284826020860161082b565b91505092915050565b6000806000606084860312156108b4576108b36106aa565b5b600084013567ffffffffffffffff8111156108d2576108d16106af565b5b6108de868287016107cc565b935050602084013567ffffffffffffffff8111156108ff576108fe6106af565b5b61090b868287016107cc565b925050604084013567ffffffffffffffff81111561092c5761092b6106af565b5b6109388682870161086d565b9150509250925092565b600081519050919050565b600082825260208201905092915050565b60005b8381101561097c578082015181840152602081019050610961565b8381111561098b576000848401525b50505050565b600061099c82610942565b6109a6818561094d565b93506109b681856020860161095e565b6109bf816106be565b840191505092915050565b600060208201905081810360008301526109e48184610991565b905092915050565b600082825260208201905092915050565b6000610a0882610942565b610a1281856109ec565b9350610a2281856020860161095e565b610a2b816106be565b840191505092915050565b600073ffffffffffffffffffffffffffffffffffffffff82169050919050565b6000610a6182610a36565b9050919050565b610a7181610a56565b82525050565b6000819050919050565b610a8a81610a77565b82525050565b600060a0830160008301518482036000860152610aad82826109fd565b91505060208301518482036020860152610ac782826109fd565b91505060408301518482036040860152610ae182826109fd565b9150506060830151610af66060860182610a68565b506080830151610b096080860182610a81565b508091505092915050565b60006020820190508181036000830152610b2e8184610a90565b905092915050565b600060208284031215610b4c57610b4b6106aa565b5b600082013567ffffffffffffffff811115610b6a57610b696106af565b5b610b768482850161086d565b91505092915050565b600081519050919050565b600082825260208201905092915050565b6000610ba682610b7f565b610bb08185610b8a565b9350610bc081856020860161095e565b610bc9816106be565b840191505092915050565b60006020820190508181036000830152610bee8184610b9b565b905092915050565b600060208284031215610c0c57610c0b6106aa565b5b600082013567ffffffffffffffff811115610c2a57610c296106af565b5b610c36848285016107cc565b91505092915050565b600081519050919050565b600082825260208201905092915050565b6000819050602082019050919050565b600060a0830160008301518482036000860152610c8882826109fd565b91505060208301518482036020860152610ca282826109fd565b91505060408301518482036040860152610cbc82826109fd565b9150506060830151610cd16060860182610a68565b506080830151610ce46080860182610a81565b508091505092915050565b6000610cfb8383610c6b565b905092915050565b6000602082019050919050565b6000610d1b82610c3f565b610d258185610c4a565b935083602082028501610d3785610c5b565b8060005b85811015610d735784840389528151610d548582610cef565b9450610d5f83610d03565b925060208a01995050600181019050610d3b565b50829750879550505050505092915050565b60006020820190508181036000830152610d9f8184610d10565b905092915050565b60008060408385031215610dbe57610dbd6106aa565b5b600083013567ffffffffffffffff811115610ddc57610ddb6106af565b5b610de8858286016107cc565b925050602083013567ffffffffffffffff811115610e0957610e086106af565b5b610e15858286016107cc565b9150509250929050565b600080fd5b600080fd5b6000610e3c610e378461074a565b61072f565b905082815260208101848484011115610e5857610e576106b9565b5b610e6384828561095e565b509392505050565b600082601f830112610e8057610e7f6106b4565b5b8151610e90848260208601610e29565b91505092915050565b610ea281610a56565b8114610ead57600080fd5b50565b600081519050610ebf81610e99565b92915050565b610ece81610a77565b8114610ed957600080fd5b50565b600081519050610eeb81610ec5565b92915050565b600060a08284031215610f0757610f06610e1f565b5b610f1160a061072f565b9050600082015167ffffffffffffffff811115610f3157610f30610e24565b5b610f3d84828501610e6b565b600083015250602082015167ffffffffffffffff811115610f6157610f60610e24565b5b610f6d84828501610e6b565b602083015250604082015167ffffffffffffffff811115610f9157610f90610e24565b5b610f9d84828501610e6b565b6040830152506060610fb184828501610eb0565b6060830152506080610fc584828501610edc565b60808301525092915050565b600060208284031215610fe757610fe66106aa565b5b600082015167ffffffffffffffff811115611005576110046106af565b5b61101184828501610ef1565b91505092915050565b6000608082840312156110305761102f610e1f565b5b61103a608061072f565b9050600082015167ffffffffffffffff81111561105a57611059610e24565b5b61106684828501610e6b565b600083015250602061107a84828501610edc565b602083015250604061108e84828501610edc565b60408301525060606110a284828501610edc565b60608301525092915050565b6000602082840312156110c4576110c36106aa565b5b600082015167ffffffffffffffff8111156110e2576110e16106af565b5b6110ee8482850161101a565b91505092915050565b7f4e487b7100000000000000000000000000000000000000000000000000000000600052601160045260246000fd5b600061113182610a77565b915061113c83610a77565b9250827fffffffffffffffffffffffffffffffffffffffffffffffffffffffffffffffff03821115611171576111706110f7565b5b828201905092915050565b600060608201905081810360008301526111968186610991565b905081810360208301526111aa8185610991565b905081810360408301526111be8184610b9b565b9050949350505050565b6000602082840312156111de576111dd6106aa565b5b600082015167ffffffffffffffff8111156111fc576111fb6106af565b5b61120884828501610e6b565b91505092915050565b600067ffffffffffffffff82111561122c5761122b6106cf565b5b602082029050602081019050919050565b600080fd5b600061125561125084611211565b61072f565b905080838252602082019050602084028301858111156112785761127761123d565b5b835b818110156112bf57805167ffffffffffffffff81111561129d5761129c6106b4565b5b8086016112aa8982610ef1565b8552602085019450505060208101905061127a565b5050509392505050565b600082601f8301126112de576112dd6106b4565b5b81516112ee848260208601611242565b91505092915050565b60006020828403121561130d5761130c6106aa565b5b600082015167ffffffffffffffff81111561132b5761132a6106af565b5b611337848285016112c9565b91505092915050565b6000604082019050818103600083015261135a8185610991565b9050818103602083015261136e8184610991565b9050939250505056fea2646970667358221220c697c0a8f15053be2c1357dd5fb0e55b9e8e3327358d04e096d5c942b693832e64736f6c634300080f00336080604052600160005534801561001557600080fd5b50610d0e806100256000396000f3fe60806040526004361061001e5760003560e01c8063a368854614610023575b600080fd5b61002b610041565b6040516100389190610810565b60405180910390f35b6060600073__IDT___________________________________63a9a295ad6040518163ffffffff1660e01b8152600401600060405180830381865af415801561008e573d6000803e3d6000fd5b505050506040513d6000823e3d601f19601f820116820180604052508101906100b7919061096c565b90506000603767ffffffffffffffff8111156100d6576100d5610850565b5b6040519080825280601f01601f1916602001820160405280156101085781602001600182028036833780820191505090505b50905060005b815181101561017157605f60f81b82828151811061012f5761012e6109b5565b5b60200101907effffffffffffffffffffffffffffffffffffffffffffffffffffffffffffff1916908160001a905350808061016990610a1d565b91505061010e565b5060005b82518110156101f9576101a4838281518110610194576101936109b5565b5b602001015160f81c60f81b6102d4565b8282815181106101b7576101b66109b5565b5b60200101907effffffffffffffffffffffffffffffffffffffffffffffffffffffffffffff1916908160001a90535080806101f190610a1d565b915050610175565b5060006009905060005b60038112156102ca57818061021790610a1d565b9250506000610226600e61051d565b905060005b81518110156102b557838061023f90610a1d565b945050818181518110610255576102546109b5565b5b602001015160f81c60f81b858581518110610273576102726109b5565b5b60200101907effffffffffffffffffffffffffffffffffffffffffffffffffffffffffffff1916908160001a90535080806102ad90610a1d565b91505061022b565b505080806102c290610a6f565b915050610203565b5081935050505090565b6000603060f81b827effffffffffffffffffffffffffffffffffffffffffffffffffffffffffffff19160361030f57604160f81b9050610518565b603160f81b827effffffffffffffffffffffffffffffffffffffffffffffffffffffffffffff19160361034857604260f81b9050610518565b603260f81b827effffffffffffffffffffffffffffffffffffffffffffffffffffffffffffff19160361038157604360f81b9050610518565b603360f81b827effffffffffffffffffffffffffffffffffffffffffffffffffffffffffffff1916036103ba57604460f81b9050610518565b603460f81b827effffffffffffffffffffffffffffffffffffffffffffffffffffffffffffff1916036103f357604560f81b9050610518565b603560f81b827effffffffffffffffffffffffffffffffffffffffffffffffffffffffffffff19160361042c57604660f81b9050610518565b603660f81b827effffffffffffffffffffffffffffffffffffffffffffffffffffffffffffff19160361046557604760f81b9050610518565b603760f81b827effffffffffffffffffffffffffffffffffffffffffffffffffffffffffffff19160361049e57604860f81b9050610518565b603860f81b827effffffffffffffffffffffffffffffffffffffffffffffffffffffffffffff1916036104d757604960f81b9050610518565b603960f81b827effffffffffffffffffffffffffffffffffffffffffffffffffffffffffffff19160361051057604a60f81b9050610518565b605a60f81b90505b919050565b6060600e821115610563576040517f08c379a000000000000000000000000000000000000000000000000000000000815260040161055a90610b03565b60405180910390fd5b60018210156105a7576040517f08c379a000000000000000000000000000000000000000000000000000000000815260040161059e90610b6f565b60405180910390fd5b60008267ffffffffffffffff8111156105c3576105c2610850565b5b6040519080825280601f01601f1916602001820160405280156105f55781602001600182028036833780820191505090505b5090506000603e67ffffffffffffffff81111561061557610614610850565b5b6040519080825280601f01601f1916602001820160405280156106475781602001600182028036833780820191505090505b5090506040518060400160405280601a81526020017f4142434445464748494a4b4c4d4e4f505152535455565758595a000000000000815250905060005b8481101561070f576000610699601a61071a565b90508281815181106106ae576106ad6109b5565b5b602001015160f81c60f81b8483815181106106cc576106cb6109b5565b5b60200101907effffffffffffffffffffffffffffffffffffffffffffffffffffffffffffff1916908160001a90535050808061070790610a1d565b915050610685565b508192505050919050565b600080600081548092919061072e90610a1d565b91905055508142443360005460405160200161074d9493929190610c2a565b6040516020818303038152906040528051906020012060001c6107709190610ca7565b9050919050565b600081519050919050565b600082825260208201905092915050565b60005b838110156107b1578082015181840152602081019050610796565b838111156107c0576000848401525b50505050565b6000601f19601f8301169050919050565b60006107e282610777565b6107ec8185610782565b93506107fc818560208601610793565b610805816107c6565b840191505092915050565b6000602082019050818103600083015261082a81846107d7565b905092915050565b6000604051905090565b600080fd5b600080fd5b600080fd5b600080fd5b7f4e487b7100000000000000000000000000000000000000000000000000000000600052604160045260246000fd5b610888826107c6565b810181811067ffffffffffffffff821117156108a7576108a6610850565b5b80604052505050565b60006108ba610832565b90506108c6828261087f565b919050565b600067ffffffffffffffff8211156108e6576108e5610850565b5b6108ef826107c6565b9050602081019050919050565b600061090f61090a846108cb565b6108b0565b90508281526020810184848401111561092b5761092a61084b565b5b610936848285610793565b509392505050565b600082601f83011261095357610952610846565b5b81516109638482602086016108fc565b91505092915050565b6000602082840312156109825761098161083c565b5b600082015167ffffffffffffffff8111156109a05761099f610841565b5b6109ac8482850161093e565b91505092915050565b7f4e487b7100000000000000000000000000000000000000000000000000000000600052603260045260246000fd5b7f4e487b7100000000000000000000000000000000000000000000000000000000600052601160045260246000fd5b6000819050919050565b6000610a2882610a13565b91507fffffffffffffffffffffffffffffffffffffffffffffffffffffffffffffffff8203610a5a57610a596109e4565b5b600182019050919050565b6000819050919050565b6000610a7a82610a65565b91507f7fffffffffffffffffffffffffffffffffffffffffffffffffffffffffffffff8203610aac57610aab6109e4565b5b600182019050919050565b7f4c656e6774682063616e6e6f742062652067726561746572207468616e203134600082015250565b6000610aed602083610782565b9150610af882610ab7565b602082019050919050565b60006020820190508181036000830152610b1c81610ae0565b9050919050565b7f4c656e6774682063616e6e6f74206265205a65726f0000000000000000000000600082015250565b6000610b59601583610782565b9150610b6482610b23565b602082019050919050565b60006020820190508181036000830152610b8881610b4c565b9050919050565b6000819050919050565b610baa610ba582610a13565b610b8f565b82525050565b600073ffffffffffffffffffffffffffffffffffffffff82169050919050565b6000610bdb82610bb0565b9050919050565b60008160601b9050919050565b6000610bfa82610be2565b9050919050565b6000610c0c82610bef565b9050919050565b610c24610c1f82610bd0565b610c01565b82525050565b6000610c368287610b99565b602082019150610c468286610b99565b602082019150610c568285610c13565b601482019150610c668284610b99565b60208201915081905095945050505050565b7f4e487b7100000000000000000000000000000000000000000000000000000000600052601260045260246000fd5b6000610cb282610a13565b9150610cbd83610a13565b925082610ccd57610ccc610c78565b5b82820690509291505056fea2646970667358221220aac732a01dee6bddf7a3f3fba1cd8977bece9b37608a0e1334619c6cdb464b0c64736f6c634300080f003360806040526040518060400160405280600981526020017f225c2f5d3a3f3c3e7c0000000000000000000000000000000000000000000000815250600090816200004a919062000380565b507f2e00000000000000000000000000000000000000000000000000000000000000600160006101000a81548160ff021916908360f81c021790555060006003553480156200009857600080fd5b50604051620033e8380380620033e88339818101604052810190620000be9190620004e5565b80600460006101000a81548173ffffffffffffffffffffffffffffffffffffffff021916908373ffffffffffffffffffffffffffffffffffffffff1602179055505062000517565b600081519050919050565b7f4e487b7100000000000000000000000000000000000000000000000000000000600052604160045260246000fd5b7f4e487b7100000000000000000000000000000000000000000000000000000000600052602260045260246000fd5b600060028204905060018216806200018857607f821691505b6020821081036200019e576200019d62000140565b5b50919050565b60008190508160005260206000209050919050565b60006020601f8301049050919050565b600082821b905092915050565b600060088302620002087fffffffffffffffffffffffffffffffffffffffffffffffffffffffffffffffff82620001c9565b620002148683620001c9565b95508019841693508086168417925050509392505050565b6000819050919050565b6000819050919050565b6000620002616200025b62000255846200022c565b62000236565b6200022c565b9050919050565b6000819050919050565b6200027d8362000240565b620002956200028c8262000268565b848454620001d6565b825550505050565b600090565b620002ac6200029d565b620002b981848462000272565b505050565b5b81811015620002e157620002d5600082620002a2565b600181019050620002bf565b5050565b601f8211156200033057620002fa81620001a4565b6200030584620001b9565b8101602085101562000315578190505b6200032d6200032485620001b9565b830182620002be565b50505b505050565b600082821c905092915050565b6000620003556000198460080262000335565b1980831691505092915050565b600062000370838362000342565b9150826002028217905092915050565b6200038b8262000106565b67ffffffffffffffff811115620003a757620003a662000111565b5b620003b382546200016f565b620003c0828285620002e5565b600060209050601f831160018114620003f85760008415620003e3578287015190505b620003ef858262000362565b8655506200045f565b601f1984166200040886620001a4565b60005b8281101562000432578489015182556001820191506020850194506020810190506200040b565b868310156200045257848901516200044e601f89168262000342565b8355505b6001600288020188555050505b505050505050565b600080fd5b600073ffffffffffffffffffffffffffffffffffffffff82169050919050565b600062000499826200046c565b9050919050565b6000620004ad826200048c565b9050919050565b620004bf81620004a0565b8114620004cb57600080fd5b50565b600081519050620004df81620004b4565b92915050565b600060208284031215620004fe57620004fd62000467565b5b60006200050e84828501620004ce565b91505092915050565b612ec180620005276000396000f3fe6080604052600436106100865760003560e01c8063976c125511610059578063976c12551461014e578063c01a83161461016a578063ebdf86ca146101a7578063ef8bfa3e146101d7578063f0c76ccc146101f557610086565b806332db898d1461008b5780635ca1e165146100b6578063679c7ccb146100e1578063693ec85e14610111575b600080fd5b34801561009757600080fd5b506100a0610232565b6040516100ad9190612133565b60405180910390f35b3480156100c257600080fd5b506100cb6104b7565b6040516100d891906122c5565b60405180910390f35b6100fb60048036038101906100f69190612430565b610724565b60405161010891906124dc565b60405180910390f35b34801561011d57600080fd5b5061013860048036038101906101339190612430565b61096e565b6040516101459190612644565b60405180910390f35b61016860048036038101906101639190612730565b610e18565b005b34801561017657600080fd5b50610191600480360381019061018c9190612430565b610e4c565b60405161019e91906122c5565b60405180910390f35b6101c160048036038101906101bc91906127a8565b6110f9565b6040516101ce919061286a565b60405180910390f35b6101df61175e565b6040516101ec91906122c5565b60405180910390f35b34801561020157600080fd5b5061021c60048036038101906102179190612430565b611d5d565b60405161022991906124dc565b60405180910390f35b600080600560003373ffffffffffffffffffffffffffffffffffffffff1673ffffffffffffffffffffffffffffffffffffffff1681526020019081526020016000206040518060a001604052908160008201805461028f906128bb565b80601f01602080910402602001604051908101604052809291908181526020018280546102bb906128bb565b80156103085780601f106102dd57610100808354040283529160200191610308565b820191906000526020600020905b8154815290600101906020018083116102eb57829003601f168201915b50505050508152602001600182018054610321906128bb565b80601f016020809104026020016040519081016040528092919081815260200182805461034d906128bb565b801561039a5780601f1061036f5761010080835404028352916020019161039a565b820191906000526020600020905b81548152906001019060200180831161037d57829003601f168201915b505050505081526020016002820180546103b3906128bb565b80601f01602080910402602001604051908101604052809291908181526020018280546103df906128bb565b801561042c5780601f106104015761010080835404028352916020019161042c565b820191906000526020600020905b81548152906001019060200180831161040f57829003601f168201915b505050505081526020016003820160009054906101000a900473ffffffffffffffffffffffffffffffffffffffff1673ffffffffffffffffffffffffffffffffffffffff1673ffffffffffffffffffffffffffffffffffffffff16815260200160048201548152505090506000816000015151036104ae5760009150506104b4565b60019150505b90565b6104bf6120ab565b600560003373ffffffffffffffffffffffffffffffffffffffff1673ffffffffffffffffffffffffffffffffffffffff1681526020019081526020016000206040518060a0016040529081600082018054610519906128bb565b80601f0160208091040260200160405190810160405280929190818152602001828054610545906128bb565b80156105925780601f1061056757610100808354040283529160200191610592565b820191906000526020600020905b81548152906001019060200180831161057557829003601f168201915b505050505081526020016001820180546105ab906128bb565b80601f01602080910402602001604051908101604052809291908181526020018280546105d7906128bb565b80156106245780601f106105f957610100808354040283529160200191610624565b820191906000526020600020905b81548152906001019060200180831161060757829003601f168201915b5050505050815260200160028201805461063d906128bb565b80601f0160208091040260200160405190810160405280929190818152602001828054610669906128bb565b80156106b65780601f1061068b576101008083540402835291602001916106b6565b820191906000526020600020905b81548152906001019060200180831161069957829003601f168201915b505050505081526020016003820160009054906101000a900473ffffffffffffffffffffffffffffffffffffffff1673ffffffffffffffffffffffffffffffffffffffff1673ffffffffffffffffffffffffffffffffffffffff168152602001600482015481525050905090565b61072c6120f0565b60068260405161073c9190612928565b9081526020016040518091039020604051806080016040529081600082018054610765906128bb565b80601f0160208091040260200160405190810160405280929190818152602001828054610791906128bb565b80156107de5780601f106107b3576101008083540402835291602001916107de565b820191906000526020600020905b8154815290600101906020018083116107c157829003601f168201915b5050505050815260200160018201548152602001600282015481526020016003820154815250509050600081600001515103610969576040518060800160405280838152602001600081526020016000815260200160008152506006836040516108489190612928565b9081526020016040518091039020600082015181600001908161086b9190612aeb565b5060208201518160010155604082015181600201556060820151816003015590505060068260405161089d9190612928565b90815260200160405180910390206040518060800160405290816000820180546108c6906128bb565b80601f01602080910402602001604051908101604052809291908181526020018280546108f2906128bb565b801561093f5780601f106109145761010080835404028352916020019161093f565b820191906000526020600020905b81548152906001019060200180831161092257829003601f168201915b50505050508152602001600182015481526020016002820154815260200160038201548152505090505b919050565b606061097982611e45565b6109af576040517f5982e5ed00000000000000000000000000000000000000000000000000000000815260040160405180910390fd5b60006006836040516109c19190612928565b90815260200160405180910390206040518060800160405290816000820180546109ea906128bb565b80601f0160208091040260200160405190810160405280929190818152602001828054610a16906128bb565b8015610a635780601f10610a3857610100808354040283529160200191610a63565b820191906000526020600020905b815481529060010190602001808311610a4657829003601f168201915b50505050508152602001600182015481526020016002820154815260200160038201548152505090506000816040015167ffffffffffffffff811115610aac57610aab612305565b5b604051908082528060200260200182016040528015610ae557816020015b610ad26120ab565b815260200190600190039081610aca5790505b50905060008085905060005b600354811015610e0b57600060028281548110610b1157610b10612bbd565b5b90600052602060002090600502016040518060a0016040529081600082018054610b3a906128bb565b80601f0160208091040260200160405190810160405280929190818152602001828054610b66906128bb565b8015610bb35780601f10610b8857610100808354040283529160200191610bb3565b820191906000526020600020905b815481529060010190602001808311610b9657829003601f168201915b50505050508152602001600182018054610bcc906128bb565b80601f0160208091040260200160405190810160405280929190818152602001828054610bf8906128bb565b8015610c455780601f10610c1a57610100808354040283529160200191610c45565b820191906000526020600020905b815481529060010190602001808311610c2857829003601f168201915b50505050508152602001600282018054610c5e906128bb565b80601f0160208091040260200160405190810160405280929190818152602001828054610c8a906128bb565b8015610cd75780601f10610cac57610100808354040283529160200191610cd7565b820191906000526020600020905b815481529060010190602001808311610cba57829003601f168201915b505050505081526020016003820160009054906101000a900473ffffffffffffffffffffffffffffffffffffffff1673ffffffffffffffffffffffffffffffffffffffff1673ffffffffffffffffffffffffffffffffffffffff168152602001600482015481525050905060008160200151905073__Infrastructure________________________637da4831785836040518363ffffffff1660e01b8152600401610d84929190612c41565b602060405180830381865af4158015610da1573d6000803e3d6000fd5b505050506040513d601f19601f82011682018060405250810190610dc59190612ca4565b15610df65781868680610dd790612d00565b975081518110610dea57610de9612bbd565b5b60200260200101819052505b50508080610e0390612d00565b915050610af1565b5082945050505050919050565b6000600683604051610e2a9190612928565b9081526020016040518091039020905081604001518160020181905550505050565b610e546120ab565b60008290506000815103610e7257610e6a61175e565b9150506110f4565b610e7b83611e45565b610eb1576040517f5982e5ed00000000000000000000000000000000000000000000000000000000815260040160405180910390fd5b600783604051610ec19190612928565b90815260200160405180910390206040518060a0016040529081600082018054610eea906128bb565b80601f0160208091040260200160405190810160405280929190818152602001828054610f16906128bb565b8015610f635780601f10610f3857610100808354040283529160200191610f63565b820191906000526020600020905b815481529060010190602001808311610f4657829003601f168201915b50505050508152602001600182018054610f7c906128bb565b80601f0160208091040260200160405190810160405280929190818152602001828054610fa8906128bb565b8015610ff55780601f10610fca57610100808354040283529160200191610ff5565b820191906000526020600020905b815481529060010190602001808311610fd857829003601f168201915b5050505050815260200160028201805461100e906128bb565b80601f016020809104026020016040519081016040528092919081815260200182805461103a906128bb565b80156110875780601f1061105c57610100808354040283529160200191611087565b820191906000526020600020905b81548152906001019060200180831161106a57829003601f168201915b505050505081526020016003820160009054906101000a900473ffffffffffffffffffffffffffffffffffffffff1673ffffffffffffffffffffffffffffffffffffffff1673ffffffffffffffffffffffffffffffffffffffff1681526020016004820154815250509150505b919050565b6060826001600082905060006001905060e682511115611145576040517fc96b3aa100000000000000000000000000000000000000000000000000000000815260040160405180910390fd5b600082510361115357600090505b82156111fe5760005b82518110156111f857600160009054906101000a900460f81b7effffffffffffffffffffffffffffffffffffffffffffffffffffffffffffff19168382815181106111aa576111a9612bbd565b5b602001015160f81c60f81b7effffffffffffffffffffffffffffffffffffffffffffffffffffffffffffff1916036111e557600091506111f8565b80806111f090612d00565b91505061115c565b5061132c565b6000905060005b82518110156112a157600160009054906101000a900460f81b7effffffffffffffffffffffffffffffffffffffffffffffffffffffffffffff191683828151811061125357611252612bbd565b5b602001015160f81c60f81b7effffffffffffffffffffffffffffffffffffffffffffffffffffffffffffff19160361128e57600191506112a1565b808061129990612d00565b915050611205565b50600160009054906101000a900460f81b7effffffffffffffffffffffffffffffffffffffffffffffffffffffffffffff191682600184516112e39190612d48565b815181106112f4576112f3612bbd565b5b602001015160f81c60f81b7effffffffffffffffffffffffffffffffffffffffffffffffffffffffffffff19160361132b57600090505b5b60005b82518110156114505760005b60008054611348906128bb565b905081101561143657600081815461135f906128bb565b811061136e5761136d612bbd565b5b81546001161561138d5790600052602060002090602091828204019190065b9054901a7f0100000000000000000000000000000000000000000000000000000000000000027effffffffffffffffffffffffffffffffffffffffffffffffffffffffffffff19168483815181106113e8576113e7612bbd565b5b602001015160f81c60f81b7effffffffffffffffffffffffffffffffffffffffffffffffffffffffffffff1916036114235760009250611436565b808061142e90612d00565b91505061133b565b50811561145057808061144890612d00565b91505061132f565b50801561172257600061146287610e4c565b90506000600460009054906101000a900473ffffffffffffffffffffffffffffffffffffffff1673ffffffffffffffffffffffffffffffffffffffff1663a36885466040518163ffffffff1660e01b81526004016000604051808303816000875af11580156114d5573d6000803e3d6000fd5b505050506040513d6000823e3d601f19601f820116820180604052508101906114fe9190612dec565b905060006040518060a00160405280838152602001846000015181526020018b81526020013373ffffffffffffffffffffffffffffffffffffffff168152602001428152509050600281908060018154018082558091505060019003906000526020600020906005020160009091909190915060008201518160000190816115869190612aeb565b50602082015181600101908161159c9190612aeb565b5060408201518160020190816115b29190612aeb565b5060608201518160030160006101000a81548173ffffffffffffffffffffffffffffffffffffffff021916908373ffffffffffffffffffffffffffffffffffffffff1602179055506080820151816004015550506003600081548092919061161990612d00565b91905055508060078360405161162f9190612928565b908152602001604051809103902060008201518160000190816116529190612aeb565b5060208201518160010190816116689190612aeb565b50604082015181600201908161167e9190612aeb565b5060608201518160030160006101000a81548173ffffffffffffffffffffffffffffffffffffffff021916908373ffffffffffffffffffffffffffffffffffffffff160217905550608082015181600401559050506116dc82610724565b5060006116ec8460000151610724565b9050600181604001516116ff9190612e35565b816040018181525050611716846000015182610e18565b82985050505050611754565b6040517fb5d012b400000000000000000000000000000000000000000000000000000000815260040160405180910390fd5b5050505092915050565b6117666120ab565b600560003373ffffffffffffffffffffffffffffffffffffffff1673ffffffffffffffffffffffffffffffffffffffff1681526020019081526020016000206040518060a00160405290816000820180546117c0906128bb565b80601f01602080910402602001604051908101604052809291908181526020018280546117ec906128bb565b80156118395780601f1061180e57610100808354040283529160200191611839565b820191906000526020600020905b81548152906001019060200180831161181c57829003601f168201915b50505050508152602001600182018054611852906128bb565b80601f016020809104026020016040519081016040528092919081815260200182805461187e906128bb565b80156118cb5780601f106118a0576101008083540402835291602001916118cb565b820191906000526020600020905b8154815290600101906020018083116118ae57829003601f168201915b505050505081526020016002820180546118e4906128bb565b80601f0160208091040260200160405190810160405280929190818152602001828054611910906128bb565b801561195d5780601f106119325761010080835404028352916020019161195d565b820191906000526020600020905b81548152906001019060200180831161194057829003601f168201915b505050505081526020016003820160009054906101000a900473ffffffffffffffffffffffffffffffffffffffff1673ffffffffffffffffffffffffffffffffffffffff1673ffffffffffffffffffffffffffffffffffffffff1681526020016004820154815250509050600081600001515103611d5a576000600460009054906101000a900473ffffffffffffffffffffffffffffffffffffffff1673ffffffffffffffffffffffffffffffffffffffff1663a36885466040518163ffffffff1660e01b81526004016000604051808303816000875af1158015611a46573d6000803e3d6000fd5b505050506040513d6000823e3d601f19601f82011682018060405250810190611a6f9190612dec565b90506040518060a001604052808281526020016040518060400160405280600481526020017f726f6f740000000000000000000000000000000000000000000000000000000081525081526020016040518060200160405280600081525081526020013373ffffffffffffffffffffffffffffffffffffffff16815260200142815250915060028290806001815401808255809150506001900390600052602060002090600502016000909190919091506000820151816000019081611b359190612aeb565b506020820151816001019081611b4b9190612aeb565b506040820151816002019081611b619190612aeb565b5060608201518160030160006101000a81548173ffffffffffffffffffffffffffffffffffffffff021916908373ffffffffffffffffffffffffffffffffffffffff16021790555060808201518160040155505060036000815480929190611bc890612d00565b919050555081600560003373ffffffffffffffffffffffffffffffffffffffff1673ffffffffffffffffffffffffffffffffffffffff1681526020019081526020016000206000820151816000019081611c229190612aeb565b506020820151816001019081611c389190612aeb565b506040820151816002019081611c4e9190612aeb565b5060608201518160030160006101000a81548173ffffffffffffffffffffffffffffffffffffffff021916908373ffffffffffffffffffffffffffffffffffffffff1602179055506080820151816004015590505081600782604051611cb49190612928565b90815260200160405180910390206000820151816000019081611cd79190612aeb565b506020820151816001019081611ced9190612aeb565b506040820151816002019081611d039190612aeb565b5060608201518160030160006101000a81548173ffffffffffffffffffffffffffffffffffffffff021916908373ffffffffffffffffffffffffffffffffffffffff16021790555060808201518160040155905050505b90565b611d656120f0565b600682604051611d759190612928565b9081526020016040518091039020604051806080016040529081600082018054611d9e906128bb565b80601f0160208091040260200160405190810160405280929190818152602001828054611dca906128bb565b8015611e175780601f10611dec57610100808354040283529160200191611e17565b820191906000526020600020905b815481529060010190602001808311611dfa57829003601f168201915b5050505050815260200160018201548152602001600282015481526020016003820154815250509050919050565b600080600783604051611e589190612928565b90815260200160405180910390206040518060a0016040529081600082018054611e81906128bb565b80601f0160208091040260200160405190810160405280929190818152602001828054611ead906128bb565b8015611efa5780601f10611ecf57610100808354040283529160200191611efa565b820191906000526020600020905b815481529060010190602001808311611edd57829003601f168201915b50505050508152602001600182018054611f13906128bb565b80601f0160208091040260200160405190810160405280929190818152602001828054611f3f906128bb565b8015611f8c5780601f10611f6157610100808354040283529160200191611f8c565b820191906000526020600020905b815481529060010190602001808311611f6f57829003601f168201915b50505050508152602001600282018054611fa5906128bb565b80601f0160208091040260200160405190810160405280929190818152602001828054611fd1906128bb565b801561201e5780601f10611ff35761010080835404028352916020019161201e565b820191906000526020600020905b81548152906001019060200180831161200157829003601f168201915b505050505081526020016003820160009054906101000a900473ffffffffffffffffffffffffffffffffffffffff1673ffffffffffffffffffffffffffffffffffffffff1673ffffffffffffffffffffffffffffffffffffffff16815260200160048201548152505090506000816000015151036120a05760009150506120a6565b60019150505b919050565b6040518060a00160405280606081526020016060815260200160608152602001600073ffffffffffffffffffffffffffffffffffffffff168152602001600081525090565b6040518060800160405280606081526020016000815260200160008152602001600081525090565b60008115159050919050565b61212d81612118565b82525050565b60006020820190506121486000830184612124565b92915050565b600081519050919050565b600082825260208201905092915050565b60005b8381101561218857808201518184015260208101905061216d565b83811115612197576000848401525b50505050565b6000601f19601f8301169050919050565b60006121b98261214e565b6121c38185612159565b93506121d381856020860161216a565b6121dc8161219d565b840191505092915050565b600073ffffffffffffffffffffffffffffffffffffffff82169050919050565b6000612212826121e7565b9050919050565b61222281612207565b82525050565b6000819050919050565b61223b81612228565b82525050565b600060a083016000830151848203600086015261225e82826121ae565b9150506020830151848203602086015261227882826121ae565b9150506040830151848203604086015261229282826121ae565b91505060608301516122a76060860182612219565b5060808301516122ba6080860182612232565b508091505092915050565b600060208201905081810360008301526122df8184612241565b905092915050565b6000604051905090565b600080fd5b600080fd5b600080fd5b600080fd5b7f4e487b7100000000000000000000000000000000000000000000000000000000600052604160045260246000fd5b61233d8261219d565b810181811067ffffffffffffffff8211171561235c5761235b612305565b5b80604052505050565b600061236f6122e7565b905061237b8282612334565b919050565b600067ffffffffffffffff82111561239b5761239a612305565b5b6123a48261219d565b9050602081019050919050565b82818337600083830152505050565b60006123d36123ce84612380565b612365565b9050828152602081018484840111156123ef576123ee612300565b5b6123fa8482856123b1565b509392505050565b600082601f830112612417576124166122fb565b5b81356124278482602086016123c0565b91505092915050565b600060208284031215612446576124456122f1565b5b600082013567ffffffffffffffff811115612464576124636122f6565b5b61247084828501612402565b91505092915050565b6000608083016000830151848203600086015261249682826121ae565b91505060208301516124ab6020860182612232565b5060408301516124be6040860182612232565b5060608301516124d16060860182612232565b508091505092915050565b600060208201905081810360008301526124f68184612479565b905092915050565b600081519050919050565b600082825260208201905092915050565b6000819050602082019050919050565b600060a083016000830151848203600086015261254782826121ae565b9150506020830151848203602086015261256182826121ae565b9150506040830151848203604086015261257b82826121ae565b91505060608301516125906060860182612219565b5060808301516125a36080860182612232565b508091505092915050565b60006125ba838361252a565b905092915050565b6000602082019050919050565b60006125da826124fe565b6125e48185612509565b9350836020820285016125f68561251a565b8060005b85811015612632578484038952815161261385826125ae565b945061261e836125c2565b925060208a019950506001810190506125fa565b50829750879550505050505092915050565b6000602082019050818103600083015261265e81846125cf565b905092915050565b600080fd5b600080fd5b61267981612228565b811461268457600080fd5b50565b60008135905061269681612670565b92915050565b6000608082840312156126b2576126b1612666565b5b6126bc6080612365565b9050600082013567ffffffffffffffff8111156126dc576126db61266b565b5b6126e884828501612402565b60008301525060206126fc84828501612687565b602083015250604061271084828501612687565b604083015250606061272484828501612687565b60608301525092915050565b60008060408385031215612747576127466122f1565b5b600083013567ffffffffffffffff811115612765576127646122f6565b5b61277185828601612402565b925050602083013567ffffffffffffffff811115612792576127916122f6565b5b61279e8582860161269c565b9150509250929050565b600080604083850312156127bf576127be6122f1565b5b600083013567ffffffffffffffff8111156127dd576127dc6122f6565b5b6127e985828601612402565b925050602083013567ffffffffffffffff81111561280a576128096122f6565b5b61281685828601612402565b9150509250929050565b600082825260208201905092915050565b600061283c8261214e565b6128468185612820565b935061285681856020860161216a565b61285f8161219d565b840191505092915050565b600060208201905081810360008301526128848184612831565b905092915050565b7f4e487b7100000000000000000000000000000000000000000000000000000000600052602260045260246000fd5b600060028204905060018216806128d357607f821691505b6020821081036128e6576128e561288c565b5b50919050565b600081905092915050565b60006129028261214e565b61290c81856128ec565b935061291c81856020860161216a565b80840191505092915050565b600061293482846128f7565b915081905092915050565b60008190508160005260206000209050919050565b60006020601f8301049050919050565b600082821b905092915050565b6000600883026129a17fffffffffffffffffffffffffffffffffffffffffffffffffffffffffffffffff82612964565b6129ab8683612964565b95508019841693508086168417925050509392505050565b6000819050919050565b60006129e86129e36129de84612228565b6129c3565b612228565b9050919050565b6000819050919050565b612a02836129cd565b612a16612a0e826129ef565b848454612971565b825550505050565b600090565b612a2b612a1e565b612a368184846129f9565b505050565b5b81811015612a5a57612a4f600082612a23565b600181019050612a3c565b5050565b601f821115612a9f57612a708161293f565b612a7984612954565b81016020851015612a88578190505b612a9c612a9485612954565b830182612a3b565b50505b505050565b600082821c905092915050565b6000612ac260001984600802612aa4565b1980831691505092915050565b6000612adb8383612ab1565b9150826002028217905092915050565b612af48261214e565b67ffffffffffffffff811115612b0d57612b0c612305565b5b612b1782546128bb565b612b22828285612a5e565b600060209050601f831160018114612b555760008415612b43578287015190505b612b4d8582612acf565b865550612bb5565b601f198416612b638661293f565b60005b82811015612b8b57848901518255600182019150602085019450602081019050612b66565b86831015612ba85784890151612ba4601f891682612ab1565b8355505b6001600288020188555050505b505050505050565b7f4e487b7100000000000000000000000000000000000000000000000000000000600052603260045260246000fd5b600081519050919050565b600082825260208201905092915050565b6000612c1382612bec565b612c1d8185612bf7565b9350612c2d81856020860161216a565b612c368161219d565b840191505092915050565b60006040820190508181036000830152612c5b8185612c08565b90508181036020830152612c6f8184612c08565b90509392505050565b612c8181612118565b8114612c8c57600080fd5b50565b600081519050612c9e81612c78565b92915050565b600060208284031215612cba57612cb96122f1565b5b6000612cc884828501612c8f565b91505092915050565b7f4e487b7100000000000000000000000000000000000000000000000000000000600052601160045260246000fd5b6000612d0b82612228565b91507fffffffffffffffffffffffffffffffffffffffffffffffffffffffffffffffff8203612d3d57612d3c612cd1565b5b600182019050919050565b6000612d5382612228565b9150612d5e83612228565b925082821015612d7157612d70612cd1565b5b828203905092915050565b6000612d8f612d8a84612380565b612365565b905082815260208101848484011115612dab57612daa612300565b5b612db684828561216a565b509392505050565b600082601f830112612dd357612dd26122fb565b5b8151612de3848260208601612d7c565b91505092915050565b600060208284031215612e0257612e016122f1565b5b600082015167ffffffffffffffff811115612e2057612e1f6122f6565b5b612e2c84828501612dbe565b91505092915050565b6000612e4082612228565b9150612e4b83612228565b9250827fffffffffffffffffffffffffffffffffffffffffffffffffffffffffffffffff03821115612e8057612e7f612cd1565b5b82820190509291505056fea26469706673582212209c04e0f2226cf6971e28f7f28349c58ae936521ee0cfca18567f12e7c46956ce64736f6c634300080f003360806040526040518060400160405280600981526020017f225c2f5d3a3f3c3e7c0000000000000000000000000000000000000000000000815250600090816200004a919062000380565b507f2e00000000000000000000000000000000000000000000000000000000000000600160006101000a81548160ff021916908360f81c021790555060006003553480156200009857600080fd5b50604051620019f7380380620019f78339818101604052810190620000be9190620004e5565b80600460006101000a81548173ffffffffffffffffffffffffffffffffffffffff021916908373ffffffffffffffffffffffffffffffffffffffff1602179055505062000517565b600081519050919050565b7f4e487b7100000000000000000000000000000000000000000000000000000000600052604160045260246000fd5b7f4e487b7100000000000000000000000000000000000000000000000000000000600052602260045260246000fd5b600060028204905060018216806200018857607f821691505b6020821081036200019e576200019d62000140565b5b50919050565b60008190508160005260206000209050919050565b60006020601f8301049050919050565b600082821b905092915050565b600060088302620002087fffffffffffffffffffffffffffffffffffffffffffffffffffffffffffffffff82620001c9565b620002148683620001c9565b95508019841693508086168417925050509392505050565b6000819050919050565b6000819050919050565b6000620002616200025b62000255846200022c565b62000236565b6200022c565b9050919050565b6000819050919050565b6200027d8362000240565b620002956200028c8262000268565b848454620001d6565b825550505050565b600090565b620002ac6200029d565b620002b981848462000272565b505050565b5b81811015620002e157620002d5600082620002a2565b600181019050620002bf565b5050565b601f8211156200033057620002fa81620001a4565b6200030584620001b9565b8101602085101562000315578190505b6200032d6200032485620001b9565b830182620002be565b50505b505050565b600082821c905092915050565b6000620003556000198460080262000335565b1980831691505092915050565b600062000370838362000342565b9150826002028217905092915050565b6200038b8262000106565b67ffffffffffffffff811115620003a757620003a662000111565b5b620003b382546200016f565b620003c0828285620002e5565b600060209050601f831160018114620003f85760008415620003e3578287015190505b620003ef858262000362565b8655506200045f565b601f1984166200040886620001a4565b60005b8281101562000432578489015182556001820191506020850194506020810190506200040b565b868310156200045257848901516200044e601f89168262000342565b8355505b6001600288020188555050505b505050505050565b600080fd5b600073ffffffffffffffffffffffffffffffffffffffff82169050919050565b600062000499826200046c565b9050919050565b6000620004ad826200048c565b9050919050565b620004bf81620004a0565b8114620004cb57600080fd5b50565b600081519050620004df81620004b4565b92915050565b600060208284031215620004fe57620004fd62000467565b5b60006200050e84828501620004ce565b91505092915050565b6114d080620005276000396000f3fe608060405234801561001057600080fd5b50600436106100365760003560e01c8063c22585c21461003b578063c638ad051461006b575b600080fd5b61005560048036038101906100509190610b89565b61009c565b6040516100629190610cb8565b60405180910390f35b61008560048036038101906100809190610cda565b610640565b604051610093929190610d23565b60405180910390f35b60608360008082905060006001905060e6825111156100e7576040517fc96b3aa100000000000000000000000000000000000000000000000000000000815260040160405180910390fd5b60008251036100f557600090505b82156101a05760005b825181101561019a57600160009054906101000a900460f81b7effffffffffffffffffffffffffffffffffffffffffffffffffffffffffffff191683828151811061014c5761014b610d5a565b5b602001015160f81c60f81b7effffffffffffffffffffffffffffffffffffffffffffffffffffffffffffff191603610187576000915061019a565b808061019290610dc2565b9150506100fe565b506102ce565b6000905060005b825181101561024357600160009054906101000a900460f81b7effffffffffffffffffffffffffffffffffffffffffffffffffffffffffffff19168382815181106101f5576101f4610d5a565b5b602001015160f81c60f81b7effffffffffffffffffffffffffffffffffffffffffffffffffffffffffffff1916036102305760019150610243565b808061023b90610dc2565b9150506101a7565b50600160009054906101000a900460f81b7effffffffffffffffffffffffffffffffffffffffffffffffffffffffffffff191682600184516102859190610e0a565b8151811061029657610295610d5a565b5b602001015160f81c60f81b7effffffffffffffffffffffffffffffffffffffffffffffffffffffffffffff1916036102cd57600090505b5b60005b82518110156103f25760005b600080546102ea90610e6d565b90508110156103d857600081815461030190610e6d565b81106103105761030f610d5a565b5b81546001161561032f5790600052602060002090602091828204019190065b9054901a7f0100000000000000000000000000000000000000000000000000000000000000027effffffffffffffffffffffffffffffffffffffffffffffffffffffffffffff191684838151811061038a57610389610d5a565b5b602001015160f81c60f81b7effffffffffffffffffffffffffffffffffffffffffffffffffffffffffffff1916036103c557600092506103d8565b80806103d090610dc2565b9150506102dd565b5081156103f25780806103ea90610dc2565b9150506102d1565b508015610603576000600460009054906101000a900473ffffffffffffffffffffffffffffffffffffffff1673ffffffffffffffffffffffffffffffffffffffff1663a36885466040518163ffffffff1660e01b81526004016000604051808303816000875af115801561046a573d6000803e3d6000fd5b505050506040513d6000823e3d601f19601f820116820180604052508101906104939190610f0e565b90506000806104a18b610640565b9150915060006040518060e001604052808581526020018c81526020018481526020018381526020018b81526020013373ffffffffffffffffffffffffffffffffffffffff168152602001428152509050600281908060018154018082558091505060019003906000526020600020906007020160009091909190915060008201518160000190816105339190611103565b5060208201518160010190816105499190611103565b50604082015181600201908161055f9190611103565b5060608201518160030190816105759190611103565b50608082015181600401908161058b919061123b565b5060a08201518160050160006101000a81548173ffffffffffffffffffffffffffffffffffffffff021916908373ffffffffffffffffffffffffffffffffffffffff16021790555060c082015181600601555050600360008154809291906105f290610dc2565b919050555083985050505050610635565b6040517fb5d012b400000000000000000000000000000000000000000000000000000000815260040160405180910390fd5b505050509392505050565b606080600080603267ffffffffffffffff811115610661576106606109bd565b5b6040519080825280601f01601f1916602001820160405280156106935781602001600182028036833780820191505090505b50905060008590506000600182516106ab9190610e0a565b90505b60008282815181106106c3576106c2610d5a565b5b602001015160f81c60f81b9050602e60f81b817effffffffffffffffffffffffffffffffffffffffffffffffffffffffffffff19160361070357506107dd565b603185111561073e576040517fb5d012b400000000000000000000000000000000000000000000000000000000815260040160405180910390fd5b8084868151811061075257610751610d5a565b5b60200101907effffffffffffffffffffffffffffffffffffffffffffffffffffffffffffff1916908160001a905350848061078c90610dc2565b955050600082036107c9576040517fb5d012b400000000000000000000000000000000000000000000000000000000815260040160405180910390fd5b5080806107d59061130d565b9150506106ae565b73__Infrastructure________________________63c5249be984866040518363ffffffff1660e01b815260040161081692919061138f565b600060405180830381865af4158015610833573d6000803e3d6000fd5b505050506040513d6000823e3d601f19601f8201168201806040525081019061085c919061142f565b925073__Infrastructure________________________632f278ecb846040518263ffffffff1660e01b81526004016108959190611478565b600060405180830381865af41580156108b2573d6000803e3d6000fd5b505050506040513d6000823e3d601f19601f820116820180604052508101906108db919061142f565b9250600060018584516108ee9190610e0a565b6108f89190610e0a565b9050600073__Infrastructure________________________63c5249be985846040518363ffffffff1660e01b815260040161093592919061138f565b600060405180830381865af4158015610952573d6000803e3d6000fd5b505050506040513d6000823e3d601f19601f8201168201806040525081019061097b919061142f565b9050808597509750505050505050915091565b6000604051905090565b600080fd5b600080fd5b600080fd5b600080fd5b6000601f19601f8301169050919050565b7f4e487b7100000000000000000000000000000000000000000000000000000000600052604160045260246000fd5b6109f5826109ac565b810181811067ffffffffffffffff82111715610a1457610a136109bd565b5b80604052505050565b6000610a2761098e565b9050610a3382826109ec565b919050565b600067ffffffffffffffff821115610a5357610a526109bd565b5b610a5c826109ac565b9050602081019050919050565b82818337600083830152505050565b6000610a8b610a8684610a38565b610a1d565b905082815260208101848484011115610aa757610aa66109a7565b5b610ab2848285610a69565b509392505050565b600082601f830112610acf57610ace6109a2565b5b8135610adf848260208601610a78565b91505092915050565b600067ffffffffffffffff821115610b0357610b026109bd565b5b610b0c826109ac565b9050602081019050919050565b6000610b2c610b2784610ae8565b610a1d565b905082815260208101848484011115610b4857610b476109a7565b5b610b53848285610a69565b509392505050565b600082601f830112610b7057610b6f6109a2565b5b8135610b80848260208601610b19565b91505092915050565b600080600060608486031215610ba257610ba1610998565b5b600084013567ffffffffffffffff811115610bc057610bbf61099d565b5b610bcc86828701610aba565b935050602084013567ffffffffffffffff811115610bed57610bec61099d565b5b610bf986828701610aba565b925050604084013567ffffffffffffffff811115610c1a57610c1961099d565b5b610c2686828701610b5b565b9150509250925092565b600081519050919050565b600082825260208201905092915050565b60005b83811015610c6a578082015181840152602081019050610c4f565b83811115610c79576000848401525b50505050565b6000610c8a82610c30565b610c948185610c3b565b9350610ca4818560208601610c4c565b610cad816109ac565b840191505092915050565b60006020820190508181036000830152610cd28184610c7f565b905092915050565b600060208284031215610cf057610cef610998565b5b600082013567ffffffffffffffff811115610d0e57610d0d61099d565b5b610d1a84828501610aba565b91505092915050565b60006040820190508181036000830152610d3d8185610c7f565b90508181036020830152610d518184610c7f565b90509392505050565b7f4e487b7100000000000000000000000000000000000000000000000000000000600052603260045260246000fd5b7f4e487b7100000000000000000000000000000000000000000000000000000000600052601160045260246000fd5b6000819050919050565b6000610dcd82610db8565b91507fffffffffffffffffffffffffffffffffffffffffffffffffffffffffffffffff8203610dff57610dfe610d89565b5b600182019050919050565b6000610e1582610db8565b9150610e2083610db8565b925082821015610e3357610e32610d89565b5b828203905092915050565b7f4e487b7100000000000000000000000000000000000000000000000000000000600052602260045260246000fd5b60006002820490506001821680610e8557607f821691505b602082108103610e9857610e97610e3e565b5b50919050565b6000610eb1610eac84610a38565b610a1d565b905082815260208101848484011115610ecd57610ecc6109a7565b5b610ed8848285610c4c565b509392505050565b600082601f830112610ef557610ef46109a2565b5b8151610f05848260208601610e9e565b91505092915050565b600060208284031215610f2457610f23610998565b5b600082015167ffffffffffffffff811115610f4257610f4161099d565b5b610f4e84828501610ee0565b91505092915050565b60008190508160005260206000209050919050565b60006020601f8301049050919050565b600082821b905092915050565b600060088302610fb97fffffffffffffffffffffffffffffffffffffffffffffffffffffffffffffffff82610f7c565b610fc38683610f7c565b95508019841693508086168417925050509392505050565b6000819050919050565b6000611000610ffb610ff684610db8565b610fdb565b610db8565b9050919050565b6000819050919050565b61101a83610fe5565b61102e61102682611007565b848454610f89565b825550505050565b600090565b611043611036565b61104e818484611011565b505050565b5b818110156110725761106760008261103b565b600181019050611054565b5050565b601f8211156110b75761108881610f57565b61109184610f6c565b810160208510156110a0578190505b6110b46110ac85610f6c565b830182611053565b50505b505050565b600082821c905092915050565b60006110da600019846008026110bc565b1980831691505092915050565b60006110f383836110c9565b9150826002028217905092915050565b61110c82610c30565b67ffffffffffffffff811115611125576111246109bd565b5b61112f8254610e6d565b61113a828285611076565b600060209050601f83116001811461116d576000841561115b578287015190505b61116585826110e7565b8655506111cd565b601f19841661117b86610f57565b60005b828110156111a35784890151825560018201915060208501945060208101905061117e565b868310156111c057848901516111bc601f8916826110c9565b8355505b6001600288020188555050505b505050505050565b600081519050919050565b60008190508160005260206000209050919050565b601f82111561123657611207816111e0565b61121084610f6c565b8101602085101561121f578190505b61123361122b85610f6c565b830182611053565b50505b505050565b611244826111d5565b67ffffffffffffffff81111561125d5761125c6109bd565b5b6112678254610e6d565b6112728282856111f5565b600060209050601f8311600181146112a55760008415611293578287015190505b61129d85826110e7565b865550611305565b601f1984166112b3866111e0565b60005b828110156112db578489015182556001820191506020850194506020810190506112b6565b868310156112f857848901516112f4601f8916826110c9565b8355505b6001600288020188555050505b505050505050565b600061131882610db8565b91506000820361132b5761132a610d89565b5b600182039050919050565b600082825260208201905092915050565b6000611352826111d5565b61135c8185611336565b935061136c818560208601610c4c565b611375816109ac565b840191505092915050565b61138981610db8565b82525050565b600060408201905081810360008301526113a98185611347565b90506113b86020830184611380565b9392505050565b60006113d26113cd84610ae8565b610a1d565b9050828152602081018484840111156113ee576113ed6109a7565b5b6113f9848285610c4c565b509392505050565b600082601f830112611416576114156109a2565b5b81516114268482602086016113bf565b91505092915050565b60006020828403121561144557611444610998565b5b600082015167ffffffffffffffff8111156114635761146261099d565b5b61146f84828501611401565b91505092915050565b600060208201905081810360008301526114928184611347565b90509291505056fea2646970667358221220f0e163efe5a25d4c5146a8508b462e382c12f497856c9c4ad98b2faa17477ca564736f6c634300080f0033",
  "immutableReferences": {},
  "source": "// SPDX-License-Identifier: MIT\npragma solidity ^0.8;\nimport \"@openzeppelin/contracts/utils/Strings.sol\";\nimport {Infrastructure} from \"./BusinessHelper/Infrastructure.sol\";\nimport {UniqueIdGenerator} from \"./BusinessHelper/UniqueIdGenerator.sol\";\nimport {FileRepository} from \"./Repositories/FileRepository.sol\";\nimport {DirectoryRepository} from \"./Repositories/DirectoryRepository.sol\";\nimport {DirectoryFrame} from \"./Entities/DirectoryFrame.sol\";\nimport {DirectoryInfoFrame} from \"./Entities/DirectoryInfoFrame.sol\";\n\ncontract ContractLogic {\n    UniqueIdGenerator private uniqueIdGenerator;\n    DirectoryRepository private directoryRepository;\n    FileRepository private fileRepository;\n\n    constructor() {\n        uniqueIdGenerator = new UniqueIdGenerator();\n        directoryRepository = new DirectoryRepository(uniqueIdGenerator);\n        fileRepository = new FileRepository(uniqueIdGenerator);\n    }\n\n    function createDirectory(\n        string memory name,\n        string memory parentId\n    ) public payable returns (string memory) {\n        return (directoryRepository.add(name, parentId));\n    }\n\n    function getDirectory(\n        string memory id\n    ) public view returns (DirectoryFrame[] memory) {\n        return (directoryRepository.get(id));\n    }\n\n    function getOrCreateRoot() public returns (DirectoryFrame memory root) {\n        return (directoryRepository.getOrCreateRoot());\n    }\n\n    function getRoot() public view returns (DirectoryFrame memory root) {\n        return (directoryRepository.getRoot());\n    }\n\n    function uploadFile(\n        string memory directoryId,\n        string memory fileName,\n        bytes memory fileData\n    ) public payable returns (string memory) {\n        DirectoryFrame memory directory = directoryRepository\n            .getDirectoryOrRoot(directoryId);\n\n        DirectoryInfoFrame memory directoryInfo = directoryRepository\n            .getOrCreateDirectoryInfo(directory.Id);\n        directoryInfo.FilesCount = directoryInfo.FilesCount + 1;\n        string memory fileID = fileRepository.add(\n            fileName,\n            directoryId,\n            fileData\n        );\n        return fileID;\n    }\n\n    function testGet(bytes memory t) public pure returns (bytes memory) {\n        //0x2123229f00\n        return t;\n    }\n}\n",
  "sourcePath": "C:\\Amir\\X7Opsilon\\smart_contract\\contracts\\ContractLogic.sol",
  "compiler": {
    "name": "solc",
    "version": "0.8.15+commit.e14f2714.Emscripten.clang"
  },
  "schemaVersion": "3.4.14",
  "updatedAt": "2023-07-25T07:05:17.585Z",
  "devdoc": {
    "kind": "dev",
    "methods": {},
    "version": 1
  },
  "userdoc": {
    "kind": "user",
    "methods": {},
    "version": 1
  }
}