{
  "_format": "hh-sol-artifact-1",
  "contractName": "ContractLogic",
  "sourceName": "contracts/ContractLogic.sol",
  "abi": [
    {
      "inputs": [],
      "stateMutability": "nonpayable",
      "type": "constructor"
    },
    {
      "anonymous": false,
      "inputs": [
        {
          "indexed": false,
          "internalType": "string",
          "name": "id",
          "type": "string"
        },
        {
          "indexed": false,
          "internalType": "string",
          "name": "directoryId",
          "type": "string"
        }
      ],
      "name": "DirectoryCreated",
      "type": "event"
    },
    {
      "anonymous": false,
      "inputs": [
        {
          "indexed": false,
          "internalType": "string",
          "name": "id",
          "type": "string"
        },
        {
          "indexed": false,
          "internalType": "string",
          "name": "directoryId",
          "type": "string"
        }
      ],
      "name": "FileUploaded",
      "type": "event"
    },
    {
      "anonymous": false,
      "inputs": [
        {
          "indexed": false,
          "internalType": "string",
          "name": "id",
          "type": "string"
        },
        {
          "indexed": false,
          "internalType": "address",
          "name": "creator",
          "type": "address"
        }
      ],
      "name": "RootResult",
      "type": "event"
    },
    {
      "inputs": [
        {
          "internalType": "string",
          "name": "name",
          "type": "string"
        },
        {
          "internalType": "string",
          "name": "parentId",
          "type": "string"
        }
      ],
      "name": "createDirectory",
      "outputs": [],
      "stateMutability": "payable",
      "type": "function"
    },
    {
      "inputs": [
        {
          "internalType": "string",
          "name": "id",
          "type": "string"
        }
      ],
      "name": "getDirectoryData",
      "outputs": [
        {
          "components": [
            {
              "internalType": "string",
              "name": "Id",
              "type": "string"
            },
            {
              "internalType": "string",
              "name": "ParentId",
              "type": "string"
            },
            {
              "internalType": "string",
              "name": "Name",
              "type": "string"
            },
            {
              "internalType": "address",
              "name": "Creator",
              "type": "address"
            },
            {
              "internalType": "uint256",
              "name": "DateCreated",
              "type": "uint256"
            }
          ],
          "internalType": "struct DirectoryFrame[]",
          "name": "",
          "type": "tuple[]"
        },
        {
          "components": [
            {
              "internalType": "string",
              "name": "Id",
              "type": "string"
            },
            {
              "internalType": "string",
              "name": "Name",
              "type": "string"
            },
            {
              "internalType": "string",
              "name": "Extension",
              "type": "string"
            }
          ],
          "internalType": "struct FileOutput[]",
          "name": "",
          "type": "tuple[]"
        },
        {
          "components": [
            {
              "internalType": "string",
              "name": "DirectoryId",
              "type": "string"
            },
            {
              "internalType": "uint256",
              "name": "FilesCount",
              "type": "uint256"
            },
            {
              "internalType": "uint256",
              "name": "DirectoriesCount",
              "type": "uint256"
            },
            {
              "internalType": "uint256",
              "name": "Size",
              "type": "uint256"
            }
          ],
          "internalType": "struct DirectoryInfoFrame",
          "name": "",
          "type": "tuple"
        }
      ],
      "stateMutability": "view",
      "type": "function"
    },
    {
      "inputs": [],
      "name": "getOrCreateRoot",
      "outputs": [],
      "stateMutability": "payable",
      "type": "function"
    },
    {
      "inputs": [],
      "name": "getRoot",
      "outputs": [
        {
          "internalType": "bool",
          "name": "",
          "type": "bool"
        },
        {
          "components": [
            {
              "internalType": "string",
              "name": "Id",
              "type": "string"
            },
            {
              "internalType": "string",
              "name": "ParentId",
              "type": "string"
            },
            {
              "internalType": "string",
              "name": "Name",
              "type": "string"
            },
            {
              "internalType": "address",
              "name": "Creator",
              "type": "address"
            },
            {
              "internalType": "uint256",
              "name": "DateCreated",
              "type": "uint256"
            }
          ],
          "internalType": "struct DirectoryFrame",
          "name": "",
          "type": "tuple"
        }
      ],
      "stateMutability": "view",
      "type": "function"
    },
    {
      "inputs": [
        {
          "internalType": "string",
          "name": "directoryId",
          "type": "string"
        },
        {
          "internalType": "string",
          "name": "fileId",
          "type": "string"
        },
        {
          "internalType": "string",
          "name": "fileName",
          "type": "string"
        },
        {
          "internalType": "string",
          "name": "fileHash",
          "type": "string"
        }
      ],
      "name": "uploadFile",
      "outputs": [],
      "stateMutability": "payable",
      "type": "function"
    }
  ],
  "bytecode": "0x60806040523480156200001157600080fd5b50604051620000209062000250565b604051809103906000f0801580156200003d573d6000803e3d6000fd5b50600360006101000a81548173ffffffffffffffffffffffffffffffffffffffff021916908373ffffffffffffffffffffffffffffffffffffffff160217905550600360009054906101000a900473ffffffffffffffffffffffffffffffffffffffff16604051620000af906200025e565b620000bb919062000313565b604051809103906000f080158015620000d8573d6000803e3d6000fd5b506000806101000a81548173ffffffffffffffffffffffffffffffffffffffff021916908373ffffffffffffffffffffffffffffffffffffffff16021790555060008054906101000a900473ffffffffffffffffffffffffffffffffffffffff1660405162000147906200026c565b62000153919062000355565b604051809103906000f08015801562000170573d6000803e3d6000fd5b50600160006101000a81548173ffffffffffffffffffffffffffffffffffffffff021916908373ffffffffffffffffffffffffffffffffffffffff16021790555060008054906101000a900473ffffffffffffffffffffffffffffffffffffffff16604051620001e0906200027a565b620001ec919062000355565b604051809103906000f08015801562000209573d6000803e3d6000fd5b50600260006101000a81548173ffffffffffffffffffffffffffffffffffffffff021916908373ffffffffffffffffffffffffffffffffffffffff16021790555062000372565b611e498062001dba83390190565b610e598062003c0383390190565b613c0f8062004a5c83390190565b6132be806200866b83390190565b600073ffffffffffffffffffffffffffffffffffffffff82169050919050565b6000819050919050565b6000620002d3620002cd620002c78462000288565b620002a8565b62000288565b9050919050565b6000620002e782620002b2565b9050919050565b6000620002fb82620002da565b9050919050565b6200030d81620002ee565b82525050565b60006020820190506200032a600083018462000302565b92915050565b60006200033d82620002da565b9050919050565b6200034f8162000330565b82525050565b60006020820190506200036c600083018462000344565b92915050565b611a3880620003826000396000f3fe60806040526004361061004a5760003560e01c80633659b0c21461004f5780635ca1e1651461008e578063eb849f28146100ba578063ef8bfa3e146100d6578063f0286d46146100e0575b600080fd5b34801561005b57600080fd5b50610076600480360381019061007191906109af565b6100fc565b60405161008593929190610d9a565b60405180910390f35b34801561009a57600080fd5b506100a3610267565b6040516100b1929190610e85565b60405180910390f35b6100d460048036038101906100cf9190610eb5565b61031a565b005b6100de610407565b005b6100fa60048036038101906100f59190610f2d565b6104f2565b005b6060806101076107e8565b600080600160009054906101000a900473ffffffffffffffffffffffffffffffffffffffff1673ffffffffffffffffffffffffffffffffffffffff166304c94169876040518263ffffffff1660e01b8152600401610165919061104e565b600060405180830381865afa158015610182573d6000803e3d6000fd5b505050506040513d6000823e3d601f19601f820116820180604052508101906101ab919061139c565b915091506000600260009054906101000a900473ffffffffffffffffffffffffffffffffffffffff1673ffffffffffffffffffffffffffffffffffffffff1663b5414683836040518263ffffffff1660e01b815260040161020c9190611414565b600060405180830381865afa158015610229573d6000803e3d6000fd5b505050506040513d6000823e3d601f19601f8201168201806040525081019061025291906115cf565b90508281839550955095505050509193909250565b6000610271610810565b600160009054906101000a900473ffffffffffffffffffffffffffffffffffffffff1673ffffffffffffffffffffffffffffffffffffffff1663079cf76e336040518263ffffffff1660e01b81526004016102cc9190611627565b600060405180830381865afa1580156102e9573d6000803e3d6000fd5b505050506040513d6000823e3d601f19601f82011682018060405250810190610312919061166e565b915091509091565b600080600160009054906101000a900473ffffffffffffffffffffffffffffffffffffffff1673ffffffffffffffffffffffffffffffffffffffff166346bc7fd93386866040518463ffffffff1660e01b815260040161037c939291906116ca565b6000604051808303816000875af115801561039b573d6000803e3d6000fd5b505050506040513d6000823e3d601f19601f820116820180604052508101906103c4919061170f565b915091507f4c9693bd5995e807ecd0b699b880b4048ef773d06f9baba5e936216a97c888bd82826040516103f9929190611787565b60405180910390a150505050565b6000600160009054906101000a900473ffffffffffffffffffffffffffffffffffffffff1673ffffffffffffffffffffffffffffffffffffffff166349b1cea8336040518263ffffffff1660e01b81526004016104649190611627565b6000604051808303816000875af1158015610483573d6000803e3d6000fd5b505050506040513d6000823e3d601f19601f820116820180604052508101906104ac91906117be565b90507f4a3fdff67077c2d969b8f764b1730d5c9c4c22c8596f311c6b0f8c942efb67db816000015182606001516040516104e7929190611807565b60405180910390a150565b6000600160009054906101000a900473ffffffffffffffffffffffffffffffffffffffff1673ffffffffffffffffffffffffffffffffffffffff1663929ad6c233876040518363ffffffff1660e01b8152600401610551929190611837565b6000604051808303816000875af1158015610570573d6000803e3d6000fd5b505050506040513d6000823e3d601f19601f8201168201806040525081019061059991906117be565b90506000600160009054906101000a900473ffffffffffffffffffffffffffffffffffffffff1673ffffffffffffffffffffffffffffffffffffffff1663679c7ccb83600001516040518263ffffffff1660e01b81526004016105fc919061104e565b6000604051808303816000875af115801561061b573d6000803e3d6000fd5b505050506040513d6000823e3d601f19601f820116820180604052508101906106449190611867565b90506001816020015161065791906118df565b816020018181525050600160009054906101000a900473ffffffffffffffffffffffffffffffffffffffff1673ffffffffffffffffffffffffffffffffffffffff1663976c12558360000151836040518363ffffffff1660e01b81526004016106c1929190611913565b600060405180830381600087803b1580156106db57600080fd5b505af11580156106ef573d6000803e3d6000fd5b505050506000600260009054906101000a900473ffffffffffffffffffffffffffffffffffffffff1673ffffffffffffffffffffffffffffffffffffffff1663b5b99c853388888760000151896040518663ffffffff1660e01b815260040161075c95949392919061194a565b6000604051808303816000875af115801561077b573d6000803e3d6000fd5b505050506040513d6000823e3d601f19601f820116820180604052508101906107a491906119b9565b90507fb8a7c0a723aeda01511e7d7da21ebab312983e489603e0973143ee22d41e1a1c81886040516107d7929190611787565b60405180910390a150505050505050565b6040518060800160405280606081526020016000815260200160008152602001600081525090565b6040518060a00160405280606081526020016060815260200160608152602001600073ffffffffffffffffffffffffffffffffffffffff168152602001600081525090565b6000604051905090565b600080fd5b600080fd5b600080fd5b600080fd5b6000601f19601f8301169050919050565b7f4e487b7100000000000000000000000000000000000000000000000000000000600052604160045260246000fd5b6108bc82610873565b810181811067ffffffffffffffff821117156108db576108da610884565b5b80604052505050565b60006108ee610855565b90506108fa82826108b3565b919050565b600067ffffffffffffffff82111561091a57610919610884565b5b61092382610873565b9050602081019050919050565b82818337600083830152505050565b600061095261094d846108ff565b6108e4565b90508281526020810184848401111561096e5761096d61086e565b5b610979848285610930565b509392505050565b600082601f83011261099657610995610869565b5b81356109a684826020860161093f565b91505092915050565b6000602082840312156109c5576109c461085f565b5b600082013567ffffffffffffffff8111156109e3576109e2610864565b5b6109ef84828501610981565b91505092915050565b600081519050919050565b600082825260208201905092915050565b6000819050602082019050919050565b600081519050919050565b600082825260208201905092915050565b60005b83811015610a5e578082015181840152602081019050610a43565b60008484015250505050565b6000610a7582610a24565b610a7f8185610a2f565b9350610a8f818560208601610a40565b610a9881610873565b840191505092915050565b600073ffffffffffffffffffffffffffffffffffffffff82169050919050565b6000610ace82610aa3565b9050919050565b610ade81610ac3565b82525050565b6000819050919050565b610af781610ae4565b82525050565b600060a0830160008301518482036000860152610b1a8282610a6a565b91505060208301518482036020860152610b348282610a6a565b91505060408301518482036040860152610b4e8282610a6a565b9150506060830151610b636060860182610ad5565b506080830151610b766080860182610aee565b508091505092915050565b6000610b8d8383610afd565b905092915050565b6000602082019050919050565b6000610bad826109f8565b610bb78185610a03565b935083602082028501610bc985610a14565b8060005b85811015610c055784840389528151610be68582610b81565b9450610bf183610b95565b925060208a01995050600181019050610bcd565b50829750879550505050505092915050565b600081519050919050565b600082825260208201905092915050565b6000819050602082019050919050565b60006060830160008301518482036000860152610c608282610a6a565b91505060208301518482036020860152610c7a8282610a6a565b91505060408301518482036040860152610c948282610a6a565b9150508091505092915050565b6000610cad8383610c43565b905092915050565b6000602082019050919050565b6000610ccd82610c17565b610cd78185610c22565b935083602082028501610ce985610c33565b8060005b85811015610d255784840389528151610d068582610ca1565b9450610d1183610cb5565b925060208a01995050600181019050610ced565b50829750879550505050505092915050565b60006080830160008301518482036000860152610d548282610a6a565b9150506020830151610d696020860182610aee565b506040830151610d7c6040860182610aee565b506060830151610d8f6060860182610aee565b508091505092915050565b60006060820190508181036000830152610db48186610ba2565b90508181036020830152610dc88185610cc2565b90508181036040830152610ddc8184610d37565b9050949350505050565b60008115159050919050565b610dfb81610de6565b82525050565b600060a0830160008301518482036000860152610e1e8282610a6a565b91505060208301518482036020860152610e388282610a6a565b91505060408301518482036040860152610e528282610a6a565b9150506060830151610e676060860182610ad5565b506080830151610e7a6080860182610aee565b508091505092915050565b6000604082019050610e9a6000830185610df2565b8181036020830152610eac8184610e01565b90509392505050565b60008060408385031215610ecc57610ecb61085f565b5b600083013567ffffffffffffffff811115610eea57610ee9610864565b5b610ef685828601610981565b925050602083013567ffffffffffffffff811115610f1757610f16610864565b5b610f2385828601610981565b9150509250929050565b60008060008060808587031215610f4757610f4661085f565b5b600085013567ffffffffffffffff811115610f6557610f64610864565b5b610f7187828801610981565b945050602085013567ffffffffffffffff811115610f9257610f91610864565b5b610f9e87828801610981565b935050604085013567ffffffffffffffff811115610fbf57610fbe610864565b5b610fcb87828801610981565b925050606085013567ffffffffffffffff811115610fec57610feb610864565b5b610ff887828801610981565b91505092959194509250565b600082825260208201905092915050565b600061102082610a24565b61102a8185611004565b935061103a818560208601610a40565b61104381610873565b840191505092915050565b600060208201905081810360008301526110688184611015565b905092915050565b600067ffffffffffffffff82111561108b5761108a610884565b5b602082029050602081019050919050565b600080fd5b600080fd5b600080fd5b60006110be6110b9846108ff565b6108e4565b9050828152602081018484840111156110da576110d961086e565b5b6110e5848285610a40565b509392505050565b600082601f83011261110257611101610869565b5b81516111128482602086016110ab565b91505092915050565b61112481610ac3565b811461112f57600080fd5b50565b6000815190506111418161111b565b92915050565b61115081610ae4565b811461115b57600080fd5b50565b60008151905061116d81611147565b92915050565b600060a08284031215611189576111886110a1565b5b61119360a06108e4565b9050600082015167ffffffffffffffff8111156111b3576111b26110a6565b5b6111bf848285016110ed565b600083015250602082015167ffffffffffffffff8111156111e3576111e26110a6565b5b6111ef848285016110ed565b602083015250604082015167ffffffffffffffff811115611213576112126110a6565b5b61121f848285016110ed565b604083015250606061123384828501611132565b60608301525060806112478482850161115e565b60808301525092915050565b600061126661126184611070565b6108e4565b905080838252602082019050602084028301858111156112895761128861109c565b5b835b818110156112d057805167ffffffffffffffff8111156112ae576112ad610869565b5b8086016112bb8982611173565b8552602085019450505060208101905061128b565b5050509392505050565b600082601f8301126112ef576112ee610869565b5b81516112ff848260208601611253565b91505092915050565b60006080828403121561131e5761131d6110a1565b5b61132860806108e4565b9050600082015167ffffffffffffffff811115611348576113476110a6565b5b611354848285016110ed565b60008301525060206113688482850161115e565b602083015250604061137c8482850161115e565b60408301525060606113908482850161115e565b60608301525092915050565b600080604083850312156113b3576113b261085f565b5b600083015167ffffffffffffffff8111156113d1576113d0610864565b5b6113dd858286016112da565b925050602083015167ffffffffffffffff8111156113fe576113fd610864565b5b61140a85828601611308565b9150509250929050565b6000602082019050818103600083015261142e8184610d37565b905092915050565b600067ffffffffffffffff82111561145157611450610884565b5b602082029050602081019050919050565b600060608284031215611478576114776110a1565b5b61148260606108e4565b9050600082015167ffffffffffffffff8111156114a2576114a16110a6565b5b6114ae848285016110ed565b600083015250602082015167ffffffffffffffff8111156114d2576114d16110a6565b5b6114de848285016110ed565b602083015250604082015167ffffffffffffffff811115611502576115016110a6565b5b61150e848285016110ed565b60408301525092915050565b600061152d61152884611436565b6108e4565b905080838252602082019050602084028301858111156115505761154f61109c565b5b835b8181101561159757805167ffffffffffffffff81111561157557611574610869565b5b8086016115828982611462565b85526020850194505050602081019050611552565b5050509392505050565b600082601f8301126115b6576115b5610869565b5b81516115c684826020860161151a565b91505092915050565b6000602082840312156115e5576115e461085f565b5b600082015167ffffffffffffffff81111561160357611602610864565b5b61160f848285016115a1565b91505092915050565b61162181610ac3565b82525050565b600060208201905061163c6000830184611618565b92915050565b61164b81610de6565b811461165657600080fd5b50565b60008151905061166881611642565b92915050565b600080604083850312156116855761168461085f565b5b600061169385828601611659565b925050602083015167ffffffffffffffff8111156116b4576116b3610864565b5b6116c085828601611173565b9150509250929050565b60006060820190506116df6000830186611618565b81810360208301526116f18185611015565b905081810360408301526117058184611015565b9050949350505050565b600080604083850312156117265761172561085f565b5b600083015167ffffffffffffffff81111561174457611743610864565b5b611750858286016110ed565b925050602083015167ffffffffffffffff81111561177157611770610864565b5b61177d858286016110ed565b9150509250929050565b600060408201905081810360008301526117a18185611015565b905081810360208301526117b58184611015565b90509392505050565b6000602082840312156117d4576117d361085f565b5b600082015167ffffffffffffffff8111156117f2576117f1610864565b5b6117fe84828501611173565b91505092915050565b600060408201905081810360008301526118218185611015565b90506118306020830184611618565b9392505050565b600060408201905061184c6000830185611618565b818103602083015261185e8184611015565b90509392505050565b60006020828403121561187d5761187c61085f565b5b600082015167ffffffffffffffff81111561189b5761189a610864565b5b6118a784828501611308565b91505092915050565b7f4e487b7100000000000000000000000000000000000000000000000000000000600052601160045260246000fd5b60006118ea82610ae4565b91506118f583610ae4565b925082820190508082111561190d5761190c6118b0565b5b92915050565b6000604082019050818103600083015261192d8185611015565b905081810360208301526119418184610d37565b90509392505050565b600060a08201905061195f6000830188611618565b81810360208301526119718187611015565b905081810360408301526119858186611015565b905081810360608301526119998185611015565b905081810360808301526119ad8184611015565b90509695505050505050565b6000602082840312156119cf576119ce61085f565b5b600082015167ffffffffffffffff8111156119ed576119ec610864565b5b6119f9848285016110ed565b9150509291505056fea2646970667358221220695409be4fafcfab4df6d973996fc2222302a0c9a784479c2104b8f60c0e254b64736f6c63430008110033608060405234801561001057600080fd5b50611e29806100206000396000f3fe608060405234801561001057600080fd5b506004361061010b5760003560e01c806392d66313116100a2578063b199993711610071578063b19999371461033e578063b238ad0e1461036e578063eb3334c51461039e578063f97d0591146103be578063fa93f883146103ee5761010b565b806392d6631314610290578063a324ad24146102c0578063a6f0e577146102f0578063a9a295ad146103205761010b565b80637f791833116100de5780637f791833146101d05780638aa001fc146102005780638c8d98a0146102305780639054bdec146102605761010b565b80633e239e1a146101105780634ac1ad781461014057806362ba96871461017057806365c72840146101a0575b600080fd5b61012a60048036038101906101259190611609565b61041e565b6040516101379190611652565b60405180910390f35b61015a60048036038101906101559190611609565b61044b565b6040516101679190611652565b60405180910390f35b61018a600480360381019061018591906116d3565b61047b565b604051610197919061175d565b60405180910390f35b6101ba60048036038101906101b59190611609565b610497565b6040516101c79190611652565b60405180910390f35b6101ea60048036038101906101e59190611778565b6104ad565b6040516101f7919061175d565b60405180910390f35b61021a60048036038101906102159190611609565b6104c8565b6040516102279190611652565b60405180910390f35b61024a600480360381019061024591906117df565b6104de565b604051610257919061175d565b60405180910390f35b61027a60048036038101906102759190611832565b6104f9565b604051610287919061175d565b60405180910390f35b6102aa60048036038101906102a59190611609565b610864565b6040516102b791906118ce565b60405180910390f35b6102da60048036038101906102d59190611609565b61097b565b6040516102e79190611652565b60405180910390f35b61030a600480360381019061030591906118e9565b610991565b6040516103179190611931565b60405180910390f35b610328610a00565b60405161033591906119dc565b60405180910390f35b61035860048036038101906103539190611609565b610fb9565b604051610365919061175d565b60405180910390f35b610388600480360381019061038391906119fe565b61100d565b6040516103959190611652565b60405180910390f35b6103a66110d9565b6040516103b593929190611a3e565b60405180910390f35b6103d860048036038101906103d39190611609565b611105565b6040516103e59190611b21565b60405180910390f35b61040860048036038101906104039190611609565b611316565b6040516104159190611652565b60405180910390f35b60006018603c80846104309190611b9a565b61043a9190611b9a565b6104449190611bcb565b9050919050565b60006007600462015180846104609190611b9a565b61046a9190611bfc565b6104749190611bcb565b9050919050565b600061048c868686868660006104f9565b905095945050505050565b60006104a282611105565b604001519050919050565b60006104be858585856000806104f9565b9050949350505050565b6000603c826104d79190611bcb565b9050919050565b60006104f084848460008060006104f9565b90509392505050565b6000806107b290505b8761ffff168161ffff16101561055d5761051b81610991565b15610537576301e28500826105309190611bfc565b915061054a565b6301e13380826105479190611bfc565b91505b808061055590611c30565b915050610502565b610565611558565b601f816000600c811061057b5761057a611c5a565b5b602002019060ff16908160ff168152505061059589610991565b156105c657601d816001600c81106105b0576105af611c5a565b5b602002019060ff16908160ff16815250506105ee565b601c816001600c81106105dc576105db611c5a565b5b602002019060ff16908160ff16815250505b601f816002600c811061060457610603611c5a565b5b602002019060ff16908160ff1681525050601e816003600c811061062b5761062a611c5a565b5b602002019060ff16908160ff1681525050601f816004600c811061065257610651611c5a565b5b602002019060ff16908160ff1681525050601e816005600c811061067957610678611c5a565b5b602002019060ff16908160ff1681525050601f816006600c81106106a05761069f611c5a565b5b602002019060ff16908160ff1681525050601f816007600c81106106c7576106c6611c5a565b5b602002019060ff16908160ff1681525050601e816008600c81106106ee576106ed611c5a565b5b602002019060ff16908160ff1681525050601f816009600c811061071557610714611c5a565b5b602002019060ff16908160ff1681525050601e81600a600c811061073c5761073b611c5a565b5b602002019060ff16908160ff1681525050601f81600b600c811061076357610762611c5a565b5b602002019060ff16908160ff1681525050600191505b8760ff168261ffff1610156107e157806001836107969190611c89565b61ffff16600c81106107ab576107aa611c5a565b5b602002015160ff16620151806107c19190611cbf565b836107cc9190611bfc565b925081806107d990611c30565b925050610779565b6001876107ee9190611d01565b60ff16620151806107ff9190611cbf565b8361080a9190611bfc565b92508560ff16610e1061081d9190611cbf565b836108289190611bfc565b92508460ff16603c61083a9190611cbf565b836108459190611bfc565b92508360ff16836108569190611bfc565b925050509695505050505050565b600080600090506000806301e133808561087e9190611b9a565b6107b261ffff1661088f9190611bfc565b91506108a06107b261ffff16610fb9565b6108ad8361ffff16610fb9565b6108b79190611d36565b9050806301e285006108c99190611cbf565b836108d49190611bfc565b9250806107b2836108e59190611c89565b61ffff166108f39190611d36565b6301e133806109029190611cbf565b8361090d9190611bfc565b92505b848311156109705761092d6001836109289190611c89565b610991565b15610949576301e28500836109429190611d36565b925061095c565b6301e13380836109599190611d36565b92505b6001826109699190611c89565b9150610910565b819350505050919050565b600061098682611105565b602001519050919050565b6000806004836109a19190611d6a565b61ffff16146109b357600090506109fb565b60006064836109c29190611d6a565b61ffff16146109d457600190506109fb565b6000610190836109e49190611d6a565b61ffff16146109f657600090506109fb565b600190505b919050565b60606000806000610a0f6110d9565b9250925092506000610a248461ffff16611337565b90506000610a348460ff16611337565b90506000610a448460ff16611337565b90506000600a67ffffffffffffffff811115610a6357610a62611d9b565b5b6040519080825280601f01601f191660200182016040528015610a955781602001600182028036833780820191505090505b50905083600081518110610aac57610aab611c5a565b5b602001015160f81c60f81b81600081518110610acb57610aca611c5a565b5b60200101907effffffffffffffffffffffffffffffffffffffffffffffffffffffffffffff1916908160001a90535083600181518110610b0e57610b0d611c5a565b5b602001015160f81c60f81b81600181518110610b2d57610b2c611c5a565b5b60200101907effffffffffffffffffffffffffffffffffffffffffffffffffffffffffffff1916908160001a90535083600281518110610b7057610b6f611c5a565b5b602001015160f81c60f81b81600281518110610b8f57610b8e611c5a565b5b60200101907effffffffffffffffffffffffffffffffffffffffffffffffffffffffffffff1916908160001a90535083600381518110610bd257610bd1611c5a565b5b602001015160f81c60f81b81600381518110610bf157610bf0611c5a565b5b60200101907effffffffffffffffffffffffffffffffffffffffffffffffffffffffffffff1916908160001a905350602d60f81b81600481518110610c3957610c38611c5a565b5b60200101907effffffffffffffffffffffffffffffffffffffffffffffffffffffffffffff1916908160001a905350600183511115610d3b5782600081518110610c8657610c85611c5a565b5b602001015160f81c60f81b81600581518110610ca557610ca4611c5a565b5b60200101907effffffffffffffffffffffffffffffffffffffffffffffffffffffffffffff1916908160001a90535082600181518110610ce857610ce7611c5a565b5b602001015160f81c60f81b81600681518110610d0757610d06611c5a565b5b60200101907effffffffffffffffffffffffffffffffffffffffffffffffffffffffffffff1916908160001a905350610de6565b603060f81b81600581518110610d5457610d53611c5a565b5b60200101907effffffffffffffffffffffffffffffffffffffffffffffffffffffffffffff1916908160001a90535082600081518110610d9757610d96611c5a565b5b602001015160f81c60f81b81600681518110610db657610db5611c5a565b5b60200101907effffffffffffffffffffffffffffffffffffffffffffffffffffffffffffff1916908160001a9053505b602d60f81b81600781518110610dff57610dfe611c5a565b5b60200101907effffffffffffffffffffffffffffffffffffffffffffffffffffffffffffff1916908160001a905350600182511115610f015781600081518110610e4c57610e4b611c5a565b5b602001015160f81c60f81b81600881518110610e6b57610e6a611c5a565b5b60200101907effffffffffffffffffffffffffffffffffffffffffffffffffffffffffffff1916908160001a90535081600181518110610eae57610ead611c5a565b5b602001015160f81c60f81b81600981518110610ecd57610ecc611c5a565b5b60200101907effffffffffffffffffffffffffffffffffffffffffffffffffffffffffffff1916908160001a905350610fac565b603060f81b81600881518110610f1a57610f19611c5a565b5b60200101907effffffffffffffffffffffffffffffffffffffffffffffffffffffffffffff1916908160001a90535081600081518110610f5d57610f5c611c5a565b5b602001015160f81c60f81b81600981518110610f7c57610f7b611c5a565b5b60200101907effffffffffffffffffffffffffffffffffffffffffffffffffffffffffffff1916908160001a9053505b8097505050505050505090565b6000600182610fc89190611d36565b915061019082610fd89190611b9a565b606483610fe59190611b9a565b600484610ff29190611b9a565b610ffc9190611d36565b6110069190611bfc565b9050919050565b600060018360ff161480611024575060038360ff16145b80611032575060058360ff16145b80611040575060078360ff16145b8061104e575060088360ff16145b8061105c5750600a8360ff16145b8061106a5750600c8360ff16145b1561107857601f90506110d3565b60048360ff16148061108d575060068360ff16145b8061109b575060098360ff16145b806110a95750600b8360ff16145b156110b757601e90506110d3565b6110c082610991565b156110ce57601d90506110d3565b601c90505b92915050565b6000806000806110e842611105565b905080600001518160200151826040015193509350935050909192565b61110d61157b565b6000808061111a85610864565b846000019061ffff16908161ffff168152505061113c6107b261ffff16610fb9565b61114d856000015161ffff16610fb9565b6111579190611d36565b9150816301e285006111699190611cbf565b836111749190611bfc565b9250816107b285600001516111899190611c89565b61ffff166111979190611d36565b6301e133806111a69190611cbf565b836111b19190611bfc565b92506000600191505b600c8260ff1611611231576111d382866000015161100d565b60ff16620151806111e49190611cbf565b90508584826111f39190611bfc565b11156112105781856020019060ff16908160ff1681525050611231565b808461121c9190611bfc565b9350818061122990611dca565b9250506111ba565b600191505b6112488560200151866000015161100d565b60ff168260ff16116112a5578584620151806112649190611bfc565b11156112815781856040019060ff16908160ff16815250506112a5565b62015180846112909190611bfc565b9350818061129d90611dca565b925050611236565b6112ae8661041e565b856060019060ff16908160ff16815250506112c886611316565b856080019060ff16908160ff16815250506112e2866104c8565b8560a0019060ff16908160ff16815250506112fc8661044b565b8560c0019060ff16908160ff168152505050505050919050565b6000603c80836113269190611b9a565b6113309190611bcb565b9050919050565b60606000600161134684611405565b01905060008167ffffffffffffffff81111561136557611364611d9b565b5b6040519080825280601f01601f1916602001820160405280156113975781602001600182028036833780820191505090505b509050600082602001820190505b6001156113fa578080600190039150507f3031323334353637383961626364656600000000000000000000000000000000600a86061a8153600a85816113ee576113ed611b3c565b5b049450600085036113a5575b819350505050919050565b600080600090507a184f03e93ff9f4daa797ed6e38ed64bf6a1f0100000000000000008310611463577a184f03e93ff9f4daa797ed6e38ed64bf6a1f010000000000000000838161145957611458611b3c565b5b0492506040810190505b6d04ee2d6d415b85acef810000000083106114a0576d04ee2d6d415b85acef8100000000838161149657611495611b3c565b5b0492506020810190505b662386f26fc1000083106114cf57662386f26fc1000083816114c5576114c4611b3c565b5b0492506010810190505b6305f5e10083106114f8576305f5e10083816114ee576114ed611b3c565b5b0492506008810190505b612710831061151d57612710838161151357611512611b3c565b5b0492506004810190505b60648310611540576064838161153657611535611b3c565b5b0492506002810190505b600a831061154f576001810190505b80915050919050565b604051806101800160405280600c90602082028036833780820191505090505090565b6040518060e00160405280600061ffff168152602001600060ff168152602001600060ff168152602001600060ff168152602001600060ff168152602001600060ff168152602001600060ff1681525090565b600080fd5b6000819050919050565b6115e6816115d3565b81146115f157600080fd5b50565b600081359050611603816115dd565b92915050565b60006020828403121561161f5761161e6115ce565b5b600061162d848285016115f4565b91505092915050565b600060ff82169050919050565b61164c81611636565b82525050565b60006020820190506116676000830184611643565b92915050565b600061ffff82169050919050565b6116848161166d565b811461168f57600080fd5b50565b6000813590506116a18161167b565b92915050565b6116b081611636565b81146116bb57600080fd5b50565b6000813590506116cd816116a7565b92915050565b600080600080600060a086880312156116ef576116ee6115ce565b5b60006116fd88828901611692565b955050602061170e888289016116be565b945050604061171f888289016116be565b9350506060611730888289016116be565b9250506080611741888289016116be565b9150509295509295909350565b611757816115d3565b82525050565b6000602082019050611772600083018461174e565b92915050565b60008060008060808587031215611792576117916115ce565b5b60006117a087828801611692565b94505060206117b1878288016116be565b93505060406117c2878288016116be565b92505060606117d3878288016116be565b91505092959194509250565b6000806000606084860312156117f8576117f76115ce565b5b600061180686828701611692565b9350506020611817868287016116be565b9250506040611828868287016116be565b9150509250925092565b60008060008060008060c0878903121561184f5761184e6115ce565b5b600061185d89828a01611692565b965050602061186e89828a016116be565b955050604061187f89828a016116be565b945050606061189089828a016116be565b93505060806118a189828a016116be565b92505060a06118b289828a016116be565b9150509295509295509295565b6118c88161166d565b82525050565b60006020820190506118e360008301846118bf565b92915050565b6000602082840312156118ff576118fe6115ce565b5b600061190d84828501611692565b91505092915050565b60008115159050919050565b61192b81611916565b82525050565b60006020820190506119466000830184611922565b92915050565b600081519050919050565b600082825260208201905092915050565b60005b8381101561198657808201518184015260208101905061196b565b60008484015250505050565b6000601f19601f8301169050919050565b60006119ae8261194c565b6119b88185611957565b93506119c8818560208601611968565b6119d181611992565b840191505092915050565b600060208201905081810360008301526119f681846119a3565b905092915050565b60008060408385031215611a1557611a146115ce565b5b6000611a23858286016116be565b9250506020611a3485828601611692565b9150509250929050565b6000606082019050611a5360008301866118bf565b611a606020830185611643565b611a6d6040830184611643565b949350505050565b611a7e8161166d565b82525050565b611a8d81611636565b82525050565b60e082016000820151611aa96000850182611a75565b506020820151611abc6020850182611a84565b506040820151611acf6040850182611a84565b506060820151611ae26060850182611a84565b506080820151611af56080850182611a84565b5060a0820151611b0860a0850182611a84565b5060c0820151611b1b60c0850182611a84565b50505050565b600060e082019050611b366000830184611a93565b92915050565b7f4e487b7100000000000000000000000000000000000000000000000000000000600052601260045260246000fd5b7f4e487b7100000000000000000000000000000000000000000000000000000000600052601160045260246000fd5b6000611ba5826115d3565b9150611bb0836115d3565b925082611bc057611bbf611b3c565b5b828204905092915050565b6000611bd6826115d3565b9150611be1836115d3565b925082611bf157611bf0611b3c565b5b828206905092915050565b6000611c07826115d3565b9150611c12836115d3565b9250828201905080821115611c2a57611c29611b6b565b5b92915050565b6000611c3b8261166d565b915061ffff8203611c4f57611c4e611b6b565b5b600182019050919050565b7f4e487b7100000000000000000000000000000000000000000000000000000000600052603260045260246000fd5b6000611c948261166d565b9150611c9f8361166d565b9250828203905061ffff811115611cb957611cb8611b6b565b5b92915050565b6000611cca826115d3565b9150611cd5836115d3565b9250828202611ce3816115d3565b91508282048414831517611cfa57611cf9611b6b565b5b5092915050565b6000611d0c82611636565b9150611d1783611636565b9250828203905060ff811115611d3057611d2f611b6b565b5b92915050565b6000611d41826115d3565b9150611d4c836115d3565b9250828203905081811115611d6457611d63611b6b565b5b92915050565b6000611d758261166d565b9150611d808361166d565b925082611d9057611d8f611b3c565b5b828206905092915050565b7f4e487b7100000000000000000000000000000000000000000000000000000000600052604160045260246000fd5b6000611dd582611636565b915060ff8203611de857611de7611b6b565b5b60018201905091905056fea264697066735822122037a52444bf9a53770023e62a02d00c023f61f6f17619a3c97fc6e41bee591b4264736f6c6343000811003360806040526001805534801561001457600080fd5b5060405162000e5938038062000e59833981810160405281019061003891906100f3565b806000806101000a81548173ffffffffffffffffffffffffffffffffffffffff021916908373ffffffffffffffffffffffffffffffffffffffff16021790555050610120565b600080fd5b600073ffffffffffffffffffffffffffffffffffffffff82169050919050565b60006100ae82610083565b9050919050565b60006100c0826100a3565b9050919050565b6100d0816100b5565b81146100db57600080fd5b50565b6000815190506100ed816100c7565b92915050565b6000602082840312156101095761010861007e565b5b6000610117848285016100de565b91505092915050565b610d2980620001306000396000f3fe60806040526004361061001e5760003560e01c8063a368854614610023575b600080fd5b61002b610041565b604051610038919061082b565b60405180910390f35b606060008060009054906101000a900473ffffffffffffffffffffffffffffffffffffffff1673ffffffffffffffffffffffffffffffffffffffff1663a9a295ad6040518163ffffffff1660e01b8152600401600060405180830381865afa1580156100b1573d6000803e3d6000fd5b505050506040513d6000823e3d601f19601f820116820180604052508101906100da9190610987565b90506000603767ffffffffffffffff8111156100f9576100f861086b565b5b6040519080825280601f01601f19166020018201604052801561012b5781602001600182028036833780820191505090505b50905060005b815181101561019457605f60f81b828281518110610152576101516109d0565b5b60200101907effffffffffffffffffffffffffffffffffffffffffffffffffffffffffffff1916908160001a905350808061018c90610a38565b915050610131565b5060005b825181101561021c576101c78382815181106101b7576101b66109d0565b5b602001015160f81c60f81b6102f7565b8282815181106101da576101d96109d0565b5b60200101907effffffffffffffffffffffffffffffffffffffffffffffffffffffffffffff1916908160001a905350808061021490610a38565b915050610198565b5060006009905060005b60038112156102ed57818061023a90610a38565b9250506000610249600e610540565b905060005b81518110156102d857838061026290610a38565b945050818181518110610278576102776109d0565b5b602001015160f81c60f81b858581518110610296576102956109d0565b5b60200101907effffffffffffffffffffffffffffffffffffffffffffffffffffffffffffff1916908160001a90535080806102d090610a38565b91505061024e565b505080806102e590610a8a565b915050610226565b5081935050505090565b6000603060f81b827effffffffffffffffffffffffffffffffffffffffffffffffffffffffffffff19160361033257604160f81b905061053b565b603160f81b827effffffffffffffffffffffffffffffffffffffffffffffffffffffffffffff19160361036b57604260f81b905061053b565b603260f81b827effffffffffffffffffffffffffffffffffffffffffffffffffffffffffffff1916036103a457604360f81b905061053b565b603360f81b827effffffffffffffffffffffffffffffffffffffffffffffffffffffffffffff1916036103dd57604460f81b905061053b565b603460f81b827effffffffffffffffffffffffffffffffffffffffffffffffffffffffffffff19160361041657604560f81b905061053b565b603560f81b827effffffffffffffffffffffffffffffffffffffffffffffffffffffffffffff19160361044f57604660f81b905061053b565b603660f81b827effffffffffffffffffffffffffffffffffffffffffffffffffffffffffffff19160361048857604760f81b905061053b565b603760f81b827effffffffffffffffffffffffffffffffffffffffffffffffffffffffffffff1916036104c157604860f81b905061053b565b603860f81b827effffffffffffffffffffffffffffffffffffffffffffffffffffffffffffff1916036104fa57604960f81b905061053b565b603960f81b827effffffffffffffffffffffffffffffffffffffffffffffffffffffffffffff19160361053357604a60f81b905061053b565b605a60f81b90505b919050565b6060600e821115610586576040517f08c379a000000000000000000000000000000000000000000000000000000000815260040161057d90610b1e565b60405180910390fd5b60018210156105ca576040517f08c379a00000000000000000000000000000000000000000000000000000000081526004016105c190610b8a565b60405180910390fd5b60008267ffffffffffffffff8111156105e6576105e561086b565b5b6040519080825280601f01601f1916602001820160405280156106185781602001600182028036833780820191505090505b5090506000603e67ffffffffffffffff8111156106385761063761086b565b5b6040519080825280601f01601f19166020018201604052801561066a5781602001600182028036833780820191505090505b5090506040518060400160405280601a81526020017f4142434445464748494a4b4c4d4e4f505152535455565758595a000000000000815250905060005b848110156107325760006106bc601a61073d565b90508281815181106106d1576106d06109d0565b5b602001015160f81c60f81b8483815181106106ef576106ee6109d0565b5b60200101907effffffffffffffffffffffffffffffffffffffffffffffffffffffffffffff1916908160001a90535050808061072a90610a38565b9150506106a8565b508192505050919050565b60006001600081548092919061075290610a38565b9190505550814244336001546040516020016107719493929190610c45565b6040516020818303038152906040528051906020012060001c6107949190610cc2565b9050919050565b600081519050919050565b600082825260208201905092915050565b60005b838110156107d55780820151818401526020810190506107ba565b60008484015250505050565b6000601f19601f8301169050919050565b60006107fd8261079b565b61080781856107a6565b93506108178185602086016107b7565b610820816107e1565b840191505092915050565b6000602082019050818103600083015261084581846107f2565b905092915050565b6000604051905090565b600080fd5b600080fd5b600080fd5b600080fd5b7f4e487b7100000000000000000000000000000000000000000000000000000000600052604160045260246000fd5b6108a3826107e1565b810181811067ffffffffffffffff821117156108c2576108c161086b565b5b80604052505050565b60006108d561084d565b90506108e1828261089a565b919050565b600067ffffffffffffffff8211156109015761090061086b565b5b61090a826107e1565b9050602081019050919050565b600061092a610925846108e6565b6108cb565b90508281526020810184848401111561094657610945610866565b5b6109518482856107b7565b509392505050565b600082601f83011261096e5761096d610861565b5b815161097e848260208601610917565b91505092915050565b60006020828403121561099d5761099c610857565b5b600082015167ffffffffffffffff8111156109bb576109ba61085c565b5b6109c784828501610959565b91505092915050565b7f4e487b7100000000000000000000000000000000000000000000000000000000600052603260045260246000fd5b7f4e487b7100000000000000000000000000000000000000000000000000000000600052601160045260246000fd5b6000819050919050565b6000610a4382610a2e565b91507fffffffffffffffffffffffffffffffffffffffffffffffffffffffffffffffff8203610a7557610a746109ff565b5b600182019050919050565b6000819050919050565b6000610a9582610a80565b91507f7fffffffffffffffffffffffffffffffffffffffffffffffffffffffffffffff8203610ac757610ac66109ff565b5b600182019050919050565b7f4c656e6774682063616e6e6f742062652067726561746572207468616e203134600082015250565b6000610b086020836107a6565b9150610b1382610ad2565b602082019050919050565b60006020820190508181036000830152610b3781610afb565b9050919050565b7f4c656e6774682063616e6e6f74206265205a65726f0000000000000000000000600082015250565b6000610b746015836107a6565b9150610b7f82610b3e565b602082019050919050565b60006020820190508181036000830152610ba381610b67565b9050919050565b6000819050919050565b610bc5610bc082610a2e565b610baa565b82525050565b600073ffffffffffffffffffffffffffffffffffffffff82169050919050565b6000610bf682610bcb565b9050919050565b60008160601b9050919050565b6000610c1582610bfd565b9050919050565b6000610c2782610c0a565b9050919050565b610c3f610c3a82610beb565b610c1c565b82525050565b6000610c518287610bb4565b602082019150610c618286610bb4565b602082019150610c718285610c2e565b601482019150610c818284610bb4565b60208201915081905095945050505050565b7f4e487b7100000000000000000000000000000000000000000000000000000000600052601260045260246000fd5b6000610ccd82610a2e565b9150610cd883610a2e565b925082610ce857610ce7610c93565b5b82820690509291505056fea2646970667358221220a8dfcc43b63f7aedbf54ff04993bf8a6acd76c363c57f56076ce75a13e6a9dd464736f6c6343000811003360806040526040518060400160405280600981526020017f225c2f5d3a3f3c3e7c0000000000000000000000000000000000000000000000815250600090816200004a9190620003fa565b507f2e00000000000000000000000000000000000000000000000000000000000000600160006101000a81548160ff021916908360f81c021790555060006003553480156200009857600080fd5b5060405162003c0f38038062003c0f8339818101604052810190620000be91906200055f565b80600460006101000a81548173ffffffffffffffffffffffffffffffffffffffff021916908373ffffffffffffffffffffffffffffffffffffffff1602179055506040516200010d9062000172565b604051809103906000f0801580156200012a573d6000803e3d6000fd5b50600560006101000a81548173ffffffffffffffffffffffffffffffffffffffff021916908373ffffffffffffffffffffffffffffffffffffffff1602179055505062000591565b610dbb8062002e5483390190565b600081519050919050565b7f4e487b7100000000000000000000000000000000000000000000000000000000600052604160045260246000fd5b7f4e487b7100000000000000000000000000000000000000000000000000000000600052602260045260246000fd5b600060028204905060018216806200020257607f821691505b602082108103620002185762000217620001ba565b5b50919050565b60008190508160005260206000209050919050565b60006020601f8301049050919050565b600082821b905092915050565b600060088302620002827fffffffffffffffffffffffffffffffffffffffffffffffffffffffffffffffff8262000243565b6200028e868362000243565b95508019841693508086168417925050509392505050565b6000819050919050565b6000819050919050565b6000620002db620002d5620002cf84620002a6565b620002b0565b620002a6565b9050919050565b6000819050919050565b620002f783620002ba565b6200030f6200030682620002e2565b84845462000250565b825550505050565b600090565b6200032662000317565b62000333818484620002ec565b505050565b5b818110156200035b576200034f6000826200031c565b60018101905062000339565b5050565b601f821115620003aa5762000374816200021e565b6200037f8462000233565b810160208510156200038f578190505b620003a76200039e8562000233565b83018262000338565b50505b505050565b600082821c905092915050565b6000620003cf60001984600802620003af565b1980831691505092915050565b6000620003ea8383620003bc565b9150826002028217905092915050565b620004058262000180565b67ffffffffffffffff8111156200042157620004206200018b565b5b6200042d8254620001e9565b6200043a8282856200035f565b600060209050601f8311600181146200047257600084156200045d578287015190505b620004698582620003dc565b865550620004d9565b601f19841662000482866200021e565b60005b82811015620004ac5784890151825560018201915060208501945060208101905062000485565b86831015620004cc5784890151620004c8601f891682620003bc565b8355505b6001600288020188555050505b505050505050565b600080fd5b600073ffffffffffffffffffffffffffffffffffffffff82169050919050565b60006200051382620004e6565b9050919050565b6000620005278262000506565b9050919050565b62000539816200051a565b81146200054557600080fd5b50565b60008151905062000559816200052e565b92915050565b600060208284031215620005785762000577620004e1565b5b6000620005888482850162000548565b91505092915050565b6128b380620005a16000396000f3fe60806040526004361061007b5760003560e01c8063679c7ccb1161004e578063679c7ccb1461015d578063929ad6c21461018d578063976c1255146101bd578063f0c76ccc146101d95761007b565b806304c9416914610080578063079cf76e146100be57806346bc7fd9146100fc57806349b1cea81461012d575b600080fd5b34801561008c57600080fd5b506100a760048036038101906100a29190611b58565b610217565b6040516100b5929190611e23565b60405180910390f35b3480156100ca57600080fd5b506100e560048036038101906100e09190611e86565b610664565b6040516100f3929190611f52565b60405180910390f35b61011660048036038101906101119190611f82565b610932565b604051610124929190612057565b60405180910390f35b61014760048036038101906101429190611e86565b610fa2565b604051610154919061208e565b60405180910390f35b61017760048036038101906101729190611b58565b61134f565b60405161018491906120b0565b60405180910390f35b6101a760048036038101906101a291906120d2565b6113f4565b6040516101b4919061208e565b60405180910390f35b6101d760048036038101906101d291906121f8565b611470565b005b3480156101e557600080fd5b5061020060048036038101906101fb9190611b58565b6114b1565b60405161020e929190612270565b60405180910390f35b6060610221611991565b600061022c84611669565b5090508015610267576040517f5982e5ed00000000000000000000000000000000000000000000000000000000815260040160405180910390fd5b600080610273866114b1565b9150915081156102af576040517f52be588100000000000000000000000000000000000000000000000000000000815260040160405180910390fd5b6000816040015167ffffffffffffffff8111156102cf576102ce611a2d565b5b60405190808252806020026020018201604052801561030857816020015b6102f56119b9565b8152602001906001900390816102ed5790505b50905060008088905060005b60035481101561065257600060028281548110610334576103336122a0565b5b90600052602060002090600502016040518060a001604052908160008201805461035d906122fe565b80601f0160208091040260200160405190810160405280929190818152602001828054610389906122fe565b80156103d65780601f106103ab576101008083540402835291602001916103d6565b820191906000526020600020905b8154815290600101906020018083116103b957829003601f168201915b505050505081526020016001820180546103ef906122fe565b80601f016020809104026020016040519081016040528092919081815260200182805461041b906122fe565b80156104685780601f1061043d57610100808354040283529160200191610468565b820191906000526020600020905b81548152906001019060200180831161044b57829003601f168201915b50505050508152602001600282018054610481906122fe565b80601f01602080910402602001604051908101604052809291908181526020018280546104ad906122fe565b80156104fa5780601f106104cf576101008083540402835291602001916104fa565b820191906000526020600020905b8154815290600101906020018083116104dd57829003601f168201915b505050505081526020016003820160009054906101000a900473ffffffffffffffffffffffffffffffffffffffff1673ffffffffffffffffffffffffffffffffffffffff1673ffffffffffffffffffffffffffffffffffffffff1681526020016004820154815250509050600081602001519050600560009054906101000a900473ffffffffffffffffffffffffffffffffffffffff1673ffffffffffffffffffffffffffffffffffffffff16637da4831785836040518363ffffffff1660e01b81526004016105cb929190612384565b602060405180830381865afa1580156105e8573d6000803e3d6000fd5b505050506040513d601f19601f8201168201806040525081019061060c91906123e7565b1561063d578186868061061e90612443565b975081518110610631576106306122a0565b5b60200260200101819052505b5050808061064a90612443565b915050610314565b50828497509750505050505050915091565b600061066e6119b9565b6000600660008573ffffffffffffffffffffffffffffffffffffffff1673ffffffffffffffffffffffffffffffffffffffff1681526020019081526020016000206040518060a00160405290816000820180546106ca906122fe565b80601f01602080910402602001604051908101604052809291908181526020018280546106f6906122fe565b80156107435780601f1061071857610100808354040283529160200191610743565b820191906000526020600020905b81548152906001019060200180831161072657829003601f168201915b5050505050815260200160018201805461075c906122fe565b80601f0160208091040260200160405190810160405280929190818152602001828054610788906122fe565b80156107d55780601f106107aa576101008083540402835291602001916107d5565b820191906000526020600020905b8154815290600101906020018083116107b857829003601f168201915b505050505081526020016002820180546107ee906122fe565b80601f016020809104026020016040519081016040528092919081815260200182805461081a906122fe565b80156108675780601f1061083c57610100808354040283529160200191610867565b820191906000526020600020905b81548152906001019060200180831161084a57829003601f168201915b505050505081526020016003820160009054906101000a900473ffffffffffffffffffffffffffffffffffffffff1673ffffffffffffffffffffffffffffffffffffffff1673ffffffffffffffffffffffffffffffffffffffff16815260200160048201548152505090506000816000015151148061091657508373ffffffffffffffffffffffffffffffffffffffff16816060015173ffffffffffffffffffffffffffffffffffffffff1614155b15610924576001925061092c565b809150600092505b50915091565b606080836001600082905060006001905060e68251111561097f576040517fc96b3aa100000000000000000000000000000000000000000000000000000000815260040160405180910390fd5b600082510361098d57600090505b8215610a385760005b8251811015610a3257600160009054906101000a900460f81b7effffffffffffffffffffffffffffffffffffffffffffffffffffffffffffff19168382815181106109e4576109e36122a0565b5b602001015160f81c60f81b7effffffffffffffffffffffffffffffffffffffffffffffffffffffffffffff191603610a1f5760009150610a32565b8080610a2a90612443565b915050610996565b50610b66565b6000905060005b8251811015610adb57600160009054906101000a900460f81b7effffffffffffffffffffffffffffffffffffffffffffffffffffffffffffff1916838281518110610a8d57610a8c6122a0565b5b602001015160f81c60f81b7effffffffffffffffffffffffffffffffffffffffffffffffffffffffffffff191603610ac85760019150610adb565b8080610ad390612443565b915050610a3f565b50600160009054906101000a900460f81b7effffffffffffffffffffffffffffffffffffffffffffffffffffffffffffff19168260018451610b1d919061248b565b81518110610b2e57610b2d6122a0565b5b602001015160f81c60f81b7effffffffffffffffffffffffffffffffffffffffffffffffffffffffffffff191603610b6557600090505b5b60005b8251811015610c8a5760005b60008054610b82906122fe565b9050811015610c70576000818154610b99906122fe565b8110610ba857610ba76122a0565b5b815460011615610bc75790600052602060002090602091828204019190065b9054901a7f0100000000000000000000000000000000000000000000000000000000000000027effffffffffffffffffffffffffffffffffffffffffffffffffffffffffffff1916848381518110610c2257610c216122a0565b5b602001015160f81c60f81b7effffffffffffffffffffffffffffffffffffffffffffffffffffffffffffff191603610c5d5760009250610c70565b8080610c6890612443565b915050610b75565b508115610c8a578080610c8290612443565b915050610b69565b508015610f64576000610c9d8a896113f4565b90506000600460009054906101000a900473ffffffffffffffffffffffffffffffffffffffff1673ffffffffffffffffffffffffffffffffffffffff1663a36885466040518163ffffffff1660e01b81526004016000604051808303816000875af1158015610d10573d6000803e3d6000fd5b505050506040513d6000823e3d601f19601f82011682018060405250810190610d39919061252f565b905060006040518060a00160405280838152602001846000015181526020018c81526020018d73ffffffffffffffffffffffffffffffffffffffff16815260200142815250905060028190806001815401808255809150506001900390600052602060002090600502016000909190919091506000820151816000019081610dc19190612724565b506020820151816001019081610dd79190612724565b506040820151816002019081610ded9190612724565b5060608201518160030160006101000a81548173ffffffffffffffffffffffffffffffffffffffff021916908373ffffffffffffffffffffffffffffffffffffffff16021790555060808201518160040155505060036000815480929190610e5490612443565b919050555080600883604051610e6a9190612832565b90815260200160405180910390206000820151816000019081610e8d9190612724565b506020820151816001019081610ea39190612724565b506040820151816002019081610eb99190612724565b5060608201518160030160006101000a81548173ffffffffffffffffffffffffffffffffffffffff021916908373ffffffffffffffffffffffffffffffffffffffff16021790555060808201518160040155905050610f178261134f565b506000610f27846000015161134f565b905060018160400151610f3a9190612849565b816040018181525050610f51846000015182611470565b8284600001519950995050505050610f96565b6040517fb5d012b400000000000000000000000000000000000000000000000000000000815260040160405180910390fd5b50505050935093915050565b610faa6119b9565b600080610fb684610664565b915091508115611345576000600460009054906101000a900473ffffffffffffffffffffffffffffffffffffffff1673ffffffffffffffffffffffffffffffffffffffff1663a36885466040518163ffffffff1660e01b81526004016000604051808303816000875af1158015611031573d6000803e3d6000fd5b505050506040513d6000823e3d601f19601f8201168201806040525081019061105a919061252f565b90506040518060a001604052808281526020016040518060400160405280600481526020017f726f6f740000000000000000000000000000000000000000000000000000000081525081526020016040518060200160405280600081525081526020018673ffffffffffffffffffffffffffffffffffffffff168152602001428152509150600282908060018154018082558091505060019003906000526020600020906005020160009091909190915060008201518160000190816111209190612724565b5060208201518160010190816111369190612724565b50604082015181600201908161114c9190612724565b5060608201518160030160006101000a81548173ffffffffffffffffffffffffffffffffffffffff021916908373ffffffffffffffffffffffffffffffffffffffff160217905550608082015181600401555050600360008154809291906111b390612443565b919050555081600660008773ffffffffffffffffffffffffffffffffffffffff1673ffffffffffffffffffffffffffffffffffffffff168152602001908152602001600020600082015181600001908161120d9190612724565b5060208201518160010190816112239190612724565b5060408201518160020190816112399190612724565b5060608201518160030160006101000a81548173ffffffffffffffffffffffffffffffffffffffff021916908373ffffffffffffffffffffffffffffffffffffffff160217905550608082015181600401559050508160088260405161129f9190612832565b908152602001604051809103902060008201518160000190816112c29190612724565b5060208201518160010190816112d89190612724565b5060408201518160020190816112ee9190612724565b5060608201518160030160006101000a81548173ffffffffffffffffffffffffffffffffffffffff021916908373ffffffffffffffffffffffffffffffffffffffff16021790555060808201518160040155905050505b8092505050919050565b611357611991565b600080611363846114b1565b9150915081156113ea576040518060800160405280858152602001600081526020016000815260200160008152509050806007856040516113a49190612832565b908152602001604051809103902060008201518160000190816113c79190612724565b506020820151816001015560408201518160020155606082015181600301559050505b8092505050919050565b6113fc6119b9565b6000829050600081510361141b5761141384610fa2565b91505061146a565b60008061142785611669565b915091508115611463576040517f5982e5ed00000000000000000000000000000000000000000000000000000000815260040160405180910390fd5b8093505050505b92915050565b60006007836040516114829190612832565b908152602001604051809103902090508160400151816002018190555081602001518160010181905550505050565b60006114bb611991565b60006007846040516114cd9190612832565b90815260200160405180910390206040518060800160405290816000820180546114f6906122fe565b80601f0160208091040260200160405190810160405280929190818152602001828054611522906122fe565b801561156f5780601f106115445761010080835404028352916020019161156f565b820191906000526020600020905b81548152906001019060200180831161155257829003601f168201915b505050505081526020016001820154815260200160028201548152602001600382015481525050905060008160000151905060008151148061164c5750600560009054906101000a900473ffffffffffffffffffffffffffffffffffffffff1673ffffffffffffffffffffffffffffffffffffffff16637da4831782876040518363ffffffff1660e01b8152600401611609929190612384565b602060405180830381865afa158015611626573d6000803e3d6000fd5b505050506040513d601f19601f8201168201806040525081019061164a91906123e7565b155b1561165a5760019350611662565b819250600093505b5050915091565b60006116736119b9565b60006008846040516116859190612832565b90815260200160405180910390206040518060a00160405290816000820180546116ae906122fe565b80601f01602080910402602001604051908101604052809291908181526020018280546116da906122fe565b80156117275780601f106116fc57610100808354040283529160200191611727565b820191906000526020600020905b81548152906001019060200180831161170a57829003601f168201915b50505050508152602001600182018054611740906122fe565b80601f016020809104026020016040519081016040528092919081815260200182805461176c906122fe565b80156117b95780601f1061178e576101008083540402835291602001916117b9565b820191906000526020600020905b81548152906001019060200180831161179c57829003601f168201915b505050505081526020016002820180546117d2906122fe565b80601f01602080910402602001604051908101604052809291908181526020018280546117fe906122fe565b801561184b5780601f106118205761010080835404028352916020019161184b565b820191906000526020600020905b81548152906001019060200180831161182e57829003601f168201915b505050505081526020016003820160009054906101000a900473ffffffffffffffffffffffffffffffffffffffff1673ffffffffffffffffffffffffffffffffffffffff1673ffffffffffffffffffffffffffffffffffffffff16815260200160048201548152505090506000816000015190506000826000015190506000815114806119735750600560009054906101000a900473ffffffffffffffffffffffffffffffffffffffff1673ffffffffffffffffffffffffffffffffffffffff16637da4831782846040518363ffffffff1660e01b8152600401611930929190612384565b602060405180830381865afa15801561194d573d6000803e3d6000fd5b505050506040513d601f19601f8201168201806040525081019061197191906123e7565b155b156119815760019450611989565b829350600094505b505050915091565b6040518060800160405280606081526020016000815260200160008152602001600081525090565b6040518060a00160405280606081526020016060815260200160608152602001600073ffffffffffffffffffffffffffffffffffffffff168152602001600081525090565b6000604051905090565b600080fd5b600080fd5b600080fd5b600080fd5b6000601f19601f8301169050919050565b7f4e487b7100000000000000000000000000000000000000000000000000000000600052604160045260246000fd5b611a6582611a1c565b810181811067ffffffffffffffff82111715611a8457611a83611a2d565b5b80604052505050565b6000611a976119fe565b9050611aa38282611a5c565b919050565b600067ffffffffffffffff821115611ac357611ac2611a2d565b5b611acc82611a1c565b9050602081019050919050565b82818337600083830152505050565b6000611afb611af684611aa8565b611a8d565b905082815260208101848484011115611b1757611b16611a17565b5b611b22848285611ad9565b509392505050565b600082601f830112611b3f57611b3e611a12565b5b8135611b4f848260208601611ae8565b91505092915050565b600060208284031215611b6e57611b6d611a08565b5b600082013567ffffffffffffffff811115611b8c57611b8b611a0d565b5b611b9884828501611b2a565b91505092915050565b600081519050919050565b600082825260208201905092915050565b6000819050602082019050919050565b600081519050919050565b600082825260208201905092915050565b60005b83811015611c07578082015181840152602081019050611bec565b60008484015250505050565b6000611c1e82611bcd565b611c288185611bd8565b9350611c38818560208601611be9565b611c4181611a1c565b840191505092915050565b600073ffffffffffffffffffffffffffffffffffffffff82169050919050565b6000611c7782611c4c565b9050919050565b611c8781611c6c565b82525050565b6000819050919050565b611ca081611c8d565b82525050565b600060a0830160008301518482036000860152611cc38282611c13565b91505060208301518482036020860152611cdd8282611c13565b91505060408301518482036040860152611cf78282611c13565b9150506060830151611d0c6060860182611c7e565b506080830151611d1f6080860182611c97565b508091505092915050565b6000611d368383611ca6565b905092915050565b6000602082019050919050565b6000611d5682611ba1565b611d608185611bac565b935083602082028501611d7285611bbd565b8060005b85811015611dae5784840389528151611d8f8582611d2a565b9450611d9a83611d3e565b925060208a01995050600181019050611d76565b50829750879550505050505092915050565b60006080830160008301518482036000860152611ddd8282611c13565b9150506020830151611df26020860182611c97565b506040830151611e056040860182611c97565b506060830151611e186060860182611c97565b508091505092915050565b60006040820190508181036000830152611e3d8185611d4b565b90508181036020830152611e518184611dc0565b90509392505050565b611e6381611c6c565b8114611e6e57600080fd5b50565b600081359050611e8081611e5a565b92915050565b600060208284031215611e9c57611e9b611a08565b5b6000611eaa84828501611e71565b91505092915050565b60008115159050919050565b611ec881611eb3565b82525050565b600060a0830160008301518482036000860152611eeb8282611c13565b91505060208301518482036020860152611f058282611c13565b91505060408301518482036040860152611f1f8282611c13565b9150506060830151611f346060860182611c7e565b506080830151611f476080860182611c97565b508091505092915050565b6000604082019050611f676000830185611ebf565b8181036020830152611f798184611ece565b90509392505050565b600080600060608486031215611f9b57611f9a611a08565b5b6000611fa986828701611e71565b935050602084013567ffffffffffffffff811115611fca57611fc9611a0d565b5b611fd686828701611b2a565b925050604084013567ffffffffffffffff811115611ff757611ff6611a0d565b5b61200386828701611b2a565b9150509250925092565b600082825260208201905092915050565b600061202982611bcd565b612033818561200d565b9350612043818560208601611be9565b61204c81611a1c565b840191505092915050565b60006040820190508181036000830152612071818561201e565b90508181036020830152612085818461201e565b90509392505050565b600060208201905081810360008301526120a88184611ece565b905092915050565b600060208201905081810360008301526120ca8184611dc0565b905092915050565b600080604083850312156120e9576120e8611a08565b5b60006120f785828601611e71565b925050602083013567ffffffffffffffff81111561211857612117611a0d565b5b61212485828601611b2a565b9150509250929050565b600080fd5b600080fd5b61214181611c8d565b811461214c57600080fd5b50565b60008135905061215e81612138565b92915050565b60006080828403121561217a5761217961212e565b5b6121846080611a8d565b9050600082013567ffffffffffffffff8111156121a4576121a3612133565b5b6121b084828501611b2a565b60008301525060206121c48482850161214f565b60208301525060406121d88482850161214f565b60408301525060606121ec8482850161214f565b60608301525092915050565b6000806040838503121561220f5761220e611a08565b5b600083013567ffffffffffffffff81111561222d5761222c611a0d565b5b61223985828601611b2a565b925050602083013567ffffffffffffffff81111561225a57612259611a0d565b5b61226685828601612164565b9150509250929050565b60006040820190506122856000830185611ebf565b81810360208301526122978184611dc0565b90509392505050565b7f4e487b7100000000000000000000000000000000000000000000000000000000600052603260045260246000fd5b7f4e487b7100000000000000000000000000000000000000000000000000000000600052602260045260246000fd5b6000600282049050600182168061231657607f821691505b602082108103612329576123286122cf565b5b50919050565b600081519050919050565b600082825260208201905092915050565b60006123568261232f565b612360818561233a565b9350612370818560208601611be9565b61237981611a1c565b840191505092915050565b6000604082019050818103600083015261239e818561234b565b905081810360208301526123b2818461234b565b90509392505050565b6123c481611eb3565b81146123cf57600080fd5b50565b6000815190506123e1816123bb565b92915050565b6000602082840312156123fd576123fc611a08565b5b600061240b848285016123d2565b91505092915050565b7f4e487b7100000000000000000000000000000000000000000000000000000000600052601160045260246000fd5b600061244e82611c8d565b91507fffffffffffffffffffffffffffffffffffffffffffffffffffffffffffffffff82036124805761247f612414565b5b600182019050919050565b600061249682611c8d565b91506124a183611c8d565b92508282039050818111156124b9576124b8612414565b5b92915050565b60006124d26124cd84611aa8565b611a8d565b9050828152602081018484840111156124ee576124ed611a17565b5b6124f9848285611be9565b509392505050565b600082601f83011261251657612515611a12565b5b81516125268482602086016124bf565b91505092915050565b60006020828403121561254557612544611a08565b5b600082015167ffffffffffffffff81111561256357612562611a0d565b5b61256f84828501612501565b91505092915050565b60008190508160005260206000209050919050565b60006020601f8301049050919050565b600082821b905092915050565b6000600883026125da7fffffffffffffffffffffffffffffffffffffffffffffffffffffffffffffffff8261259d565b6125e4868361259d565b95508019841693508086168417925050509392505050565b6000819050919050565b600061262161261c61261784611c8d565b6125fc565b611c8d565b9050919050565b6000819050919050565b61263b83612606565b61264f61264782612628565b8484546125aa565b825550505050565b600090565b612664612657565b61266f818484612632565b505050565b5b818110156126935761268860008261265c565b600181019050612675565b5050565b601f8211156126d8576126a981612578565b6126b28461258d565b810160208510156126c1578190505b6126d56126cd8561258d565b830182612674565b50505b505050565b600082821c905092915050565b60006126fb600019846008026126dd565b1980831691505092915050565b600061271483836126ea565b9150826002028217905092915050565b61272d82611bcd565b67ffffffffffffffff81111561274657612745611a2d565b5b61275082546122fe565b61275b828285612697565b600060209050601f83116001811461278e576000841561277c578287015190505b6127868582612708565b8655506127ee565b601f19841661279c86612578565b60005b828110156127c45784890151825560018201915060208501945060208101905061279f565b868310156127e157848901516127dd601f8916826126ea565b8355505b6001600288020188555050505b505050505050565b600081905092915050565b600061280c82611bcd565b61281681856127f6565b9350612826818560208601611be9565b80840191505092915050565b600061283e8284612801565b915081905092915050565b600061285482611c8d565b915061285f83611c8d565b925082820190508082111561287757612876612414565b5b9291505056fea2646970667358221220156c86d87fc37c4af883ee16ded76dd4d86df72763aa97703e926a703866e65264736f6c63430008110033608060405234801561001057600080fd5b50610d9b806100206000396000f3fe608060405234801561001057600080fd5b506004361061004c5760003560e01c80632f278ecb146100515780637da48317146100815780639514fbc9146100b1578063c5249be9146100e1575b600080fd5b61006b600480360381019061006691906106a2565b610111565b604051610078919061077f565b60405180910390f35b61009b600480360381019061009691906108d1565b610212565b6040516100a89190610964565b60405180910390f35b6100cb60048036038101906100c69190610b01565b6102e6565b6040516100d89190610b9f565b60405180910390f35b6100fb60048036038101906100f69190610bf7565b61054d565b604051610108919061077f565b60405180910390f35b606060008383905067ffffffffffffffff811115610132576101316107a6565b5b6040519080825280601f01601f1916602001820160405280156101645781602001600182028036833780820191505090505b50905060006001858590506101799190610c86565b905060005b8585905081101561020657858582846101979190610c86565b8181106101a7576101a6610cba565b5b9050013560f81c60f81b8382815181106101c4576101c3610cba565b5b60200101907effffffffffffffffffffffffffffffffffffffffffffffffffffffffffffff1916908160001a90535080806101fe90610ce9565b91505061017e565b50819250505092915050565b600080835190508251811461022b5760009150506102e0565b60005b818110156102d95783818151811061024957610248610cba565b5b602001015160f81c60f81b7effffffffffffffffffffffffffffffffffffffffffffffffffffffffffffff191685828151811061028957610288610cba565b5b602001015160f81c60f81b7effffffffffffffffffffffffffffffffffffffffffffffffffffffffffffff1916146102c6576000925050506102e0565b80806102d190610ce9565b91505061022e565b5060019150505b92915050565b6060600080835167ffffffffffffffff811115610306576103056107a6565b5b60405190808252806020026020018201604052801561033957816020015b60608152602001906001900390816103245790505b50905060005b84518110156103b557600085828151811061035d5761035c610cba565b5b60200260200101519050600181516103759190610d31565b846103809190610d31565b93508083838151811061039657610395610cba565b5b60200260200101819052505080806103ad90610ce9565b91505061033f565b60008367ffffffffffffffff8111156103d1576103d06107a6565b5b6040519080825280601f01601f1916602001820160405280156104035781602001600182028036833780820191505090505b5090506000915060005b835181101561054057602f60f81b82848151811061042e5761042d610cba565b5b60200101907effffffffffffffffffffffffffffffffffffffffffffffffffffffffffffff1916908160001a905350828061046890610ce9565b93505060005b84828151811061048157610480610cba565b5b60200260200101515181101561052c578482815181106104a4576104a3610cba565b5b602002602001015181815181106104be576104bd610cba565b5b602001015160f81c60f81b8385815181106104dc576104db610cba565b5b60200101907effffffffffffffffffffffffffffffffffffffffffffffffffffffffffffff1916908160001a905350838061051690610ce9565b945050808061052490610ce9565b91505061046e565b50808061053890610ce9565b91505061040d565b5080945050505050919050565b606060008267ffffffffffffffff81111561056b5761056a6107a6565b5b6040519080825280601f01601f19166020018201604052801561059d5781602001600182028036833780820191505090505b50905060005b8381101561061d578585828181106105be576105bd610cba565b5b9050013560f81c60f81b8282815181106105db576105da610cba565b5b60200101907effffffffffffffffffffffffffffffffffffffffffffffffffffffffffffff1916908160001a905350808061061590610ce9565b9150506105a3565b50809150509392505050565b6000604051905090565b600080fd5b600080fd5b600080fd5b600080fd5b600080fd5b60008083601f8401126106625761066161063d565b5b8235905067ffffffffffffffff81111561067f5761067e610642565b5b60208301915083600182028301111561069b5761069a610647565b5b9250929050565b600080602083850312156106b9576106b8610633565b5b600083013567ffffffffffffffff8111156106d7576106d6610638565b5b6106e38582860161064c565b92509250509250929050565b600081519050919050565b600082825260208201905092915050565b60005b8381101561072957808201518184015260208101905061070e565b60008484015250505050565b6000601f19601f8301169050919050565b6000610751826106ef565b61075b81856106fa565b935061076b81856020860161070b565b61077481610735565b840191505092915050565b600060208201905081810360008301526107998184610746565b905092915050565b600080fd5b7f4e487b7100000000000000000000000000000000000000000000000000000000600052604160045260246000fd5b6107de82610735565b810181811067ffffffffffffffff821117156107fd576107fc6107a6565b5b80604052505050565b6000610810610629565b905061081c82826107d5565b919050565b600067ffffffffffffffff82111561083c5761083b6107a6565b5b61084582610735565b9050602081019050919050565b82818337600083830152505050565b600061087461086f84610821565b610806565b9050828152602081018484840111156108905761088f6107a1565b5b61089b848285610852565b509392505050565b600082601f8301126108b8576108b761063d565b5b81356108c8848260208601610861565b91505092915050565b600080604083850312156108e8576108e7610633565b5b600083013567ffffffffffffffff81111561090657610905610638565b5b610912858286016108a3565b925050602083013567ffffffffffffffff81111561093357610932610638565b5b61093f858286016108a3565b9150509250929050565b60008115159050919050565b61095e81610949565b82525050565b60006020820190506109796000830184610955565b92915050565b600067ffffffffffffffff82111561099a576109996107a6565b5b602082029050602081019050919050565b600067ffffffffffffffff8211156109c6576109c56107a6565b5b6109cf82610735565b9050602081019050919050565b60006109ef6109ea846109ab565b610806565b905082815260208101848484011115610a0b57610a0a6107a1565b5b610a16848285610852565b509392505050565b600082601f830112610a3357610a3261063d565b5b8135610a438482602086016109dc565b91505092915050565b6000610a5f610a5a8461097f565b610806565b90508083825260208201905060208402830185811115610a8257610a81610647565b5b835b81811015610ac957803567ffffffffffffffff811115610aa757610aa661063d565b5b808601610ab48982610a1e565b85526020850194505050602081019050610a84565b5050509392505050565b600082601f830112610ae857610ae761063d565b5b8135610af8848260208601610a4c565b91505092915050565b600060208284031215610b1757610b16610633565b5b600082013567ffffffffffffffff811115610b3557610b34610638565b5b610b4184828501610ad3565b91505092915050565b600081519050919050565b600082825260208201905092915050565b6000610b7182610b4a565b610b7b8185610b55565b9350610b8b81856020860161070b565b610b9481610735565b840191505092915050565b60006020820190508181036000830152610bb98184610b66565b905092915050565b6000819050919050565b610bd481610bc1565b8114610bdf57600080fd5b50565b600081359050610bf181610bcb565b92915050565b600080600060408486031215610c1057610c0f610633565b5b600084013567ffffffffffffffff811115610c2e57610c2d610638565b5b610c3a8682870161064c565b93509350506020610c4d86828701610be2565b9150509250925092565b7f4e487b7100000000000000000000000000000000000000000000000000000000600052601160045260246000fd5b6000610c9182610bc1565b9150610c9c83610bc1565b9250828203905081811115610cb457610cb3610c57565b5b92915050565b7f4e487b7100000000000000000000000000000000000000000000000000000000600052603260045260246000fd5b6000610cf482610bc1565b91507fffffffffffffffffffffffffffffffffffffffffffffffffffffffffffffffff8203610d2657610d25610c57565b5b600182019050919050565b6000610d3c82610bc1565b9150610d4783610bc1565b9250828201905080821115610d5f57610d5e610c57565b5b9291505056fea2646970667358221220a8b2676b7cc27107ca4dd8ced86a6745bb88d025e39e517c5bc1c2cf752f91ef64736f6c6343000811003360806040526040518060400160405280600981526020017f225c2f5d3a3f3c3e7c0000000000000000000000000000000000000000000000815250600090816200004a9190620003fa565b507f2e00000000000000000000000000000000000000000000000000000000000000600160006101000a81548160ff021916908360f81c021790555060006003553480156200009857600080fd5b50604051620032be380380620032be8339818101604052810190620000be91906200055f565b80600560006101000a81548173ffffffffffffffffffffffffffffffffffffffff021916908373ffffffffffffffffffffffffffffffffffffffff1602179055506040516200010d9062000172565b604051809103906000f0801580156200012a573d6000803e3d6000fd5b50600460006101000a81548173ffffffffffffffffffffffffffffffffffffffff021916908373ffffffffffffffffffffffffffffffffffffffff1602179055505062000591565b610dbb806200250383390190565b600081519050919050565b7f4e487b7100000000000000000000000000000000000000000000000000000000600052604160045260246000fd5b7f4e487b7100000000000000000000000000000000000000000000000000000000600052602260045260246000fd5b600060028204905060018216806200020257607f821691505b602082108103620002185762000217620001ba565b5b50919050565b60008190508160005260206000209050919050565b60006020601f8301049050919050565b600082821b905092915050565b600060088302620002827fffffffffffffffffffffffffffffffffffffffffffffffffffffffffffffffff8262000243565b6200028e868362000243565b95508019841693508086168417925050509392505050565b6000819050919050565b6000819050919050565b6000620002db620002d5620002cf84620002a6565b620002b0565b620002a6565b9050919050565b6000819050919050565b620002f783620002ba565b6200030f6200030682620002e2565b84845462000250565b825550505050565b600090565b6200032662000317565b62000333818484620002ec565b505050565b5b818110156200035b576200034f6000826200031c565b60018101905062000339565b5050565b601f821115620003aa5762000374816200021e565b6200037f8462000233565b810160208510156200038f578190505b620003a76200039e8562000233565b83018262000338565b50505b505050565b600082821c905092915050565b6000620003cf60001984600802620003af565b1980831691505092915050565b6000620003ea8383620003bc565b9150826002028217905092915050565b620004058262000180565b67ffffffffffffffff8111156200042157620004206200018b565b5b6200042d8254620001e9565b6200043a8282856200035f565b600060209050601f8311600181146200047257600084156200045d578287015190505b620004698582620003dc565b865550620004d9565b601f19841662000482866200021e565b60005b82811015620004ac5784890151825560018201915060208501945060208101905062000485565b86831015620004cc5784890151620004c8601f891682620003bc565b8355505b6001600288020188555050505b505050505050565b600080fd5b600073ffffffffffffffffffffffffffffffffffffffff82169050919050565b60006200051382620004e6565b9050919050565b6000620005278262000506565b9050919050565b62000539816200051a565b81146200054557600080fd5b50565b60008151905062000559816200052e565b92915050565b600060208284031215620005785762000577620004e1565b5b6000620005888482850162000548565b91505092915050565b611f6280620005a16000396000f3fe60806040526004361061003f5760003560e01c80632d883a7314610044578063b541468314610074578063b5b99c85146100b1578063c638ad05146100ee575b600080fd5b61005e600480360381019061005991906111e1565b61012c565b60405161006b919061138c565b60405180910390f35b34801561008057600080fd5b5061009b60048036038101906100969190611581565b610416565b6040516100a891906116ea565b60405180910390f35b3480156100bd57600080fd5b506100d860048036038101906100d39190611738565b610883565b6040516100e5919061186d565b60405180910390f35b3480156100fa57600080fd5b506101156004803603810190610110919061188f565b610d70565b6040516101239291906118d8565b60405180910390f35b61013461112a565b60006002838154811061014a5761014961190f565b5b90600052602060002090600602019050806040518060c00160405290816000820180546101769061196d565b80601f01602080910402602001604051908101604052809291908181526020018280546101a29061196d565b80156101ef5780601f106101c4576101008083540402835291602001916101ef565b820191906000526020600020905b8154815290600101906020018083116101d257829003601f168201915b505050505081526020016001820180546102089061196d565b80601f01602080910402602001604051908101604052809291908181526020018280546102349061196d565b80156102815780601f1061025657610100808354040283529160200191610281565b820191906000526020600020905b81548152906001019060200180831161026457829003601f168201915b5050505050815260200160028201805461029a9061196d565b80601f01602080910402602001604051908101604052809291908181526020018280546102c69061196d565b80156103135780601f106102e857610100808354040283529160200191610313565b820191906000526020600020905b8154815290600101906020018083116102f657829003601f168201915b5050505050815260200160038201805461032c9061196d565b80601f01602080910402602001604051908101604052809291908181526020018280546103589061196d565b80156103a55780601f1061037a576101008083540402835291602001916103a5565b820191906000526020600020905b81548152906001019060200180831161038857829003601f168201915b505050505081526020016004820160009054906101000a900473ffffffffffffffffffffffffffffffffffffffff1673ffffffffffffffffffffffffffffffffffffffff1673ffffffffffffffffffffffffffffffffffffffff168152602001600582015481525050915050919050565b60606000826020015167ffffffffffffffff811115610438576104376113b3565b5b60405190808252806020026020018201604052801561047157816020015b61045e611176565b8152602001906001900390816104565790505b5090506000808460000151905060005b600354811015610877576000600282815481106104a1576104a061190f565b5b90600052602060002090600602016040518060c00160405290816000820180546104ca9061196d565b80601f01602080910402602001604051908101604052809291908181526020018280546104f69061196d565b80156105435780601f1061051857610100808354040283529160200191610543565b820191906000526020600020905b81548152906001019060200180831161052657829003601f168201915b5050505050815260200160018201805461055c9061196d565b80601f01602080910402602001604051908101604052809291908181526020018280546105889061196d565b80156105d55780601f106105aa576101008083540402835291602001916105d5565b820191906000526020600020905b8154815290600101906020018083116105b857829003601f168201915b505050505081526020016002820180546105ee9061196d565b80601f016020809104026020016040519081016040528092919081815260200182805461061a9061196d565b80156106675780601f1061063c57610100808354040283529160200191610667565b820191906000526020600020905b81548152906001019060200180831161064a57829003601f168201915b505050505081526020016003820180546106809061196d565b80601f01602080910402602001604051908101604052809291908181526020018280546106ac9061196d565b80156106f95780601f106106ce576101008083540402835291602001916106f9565b820191906000526020600020905b8154815290600101906020018083116106dc57829003601f168201915b505050505081526020016004820160009054906101000a900473ffffffffffffffffffffffffffffffffffffffff1673ffffffffffffffffffffffffffffffffffffffff1673ffffffffffffffffffffffffffffffffffffffff1681526020016005820154815250509050600081602001519050600460009054906101000a900473ffffffffffffffffffffffffffffffffffffffff1673ffffffffffffffffffffffffffffffffffffffff16637da4831785836040518363ffffffff1660e01b81526004016107ca9291906119f3565b602060405180830381865afa1580156107e7573d6000803e3d6000fd5b505050506040513d601f19601f8201168201806040525081019061080b9190611a62565b156108625760405180606001604052808360000151815260200183604001518152602001836060015181525086868061084390611abe565b9750815181106108565761085561190f565b5b60200260200101819052505b5050808061086f90611abe565b915050610481565b50829350505050919050565b60608360008082905060006001905060e6825111156108ce576040517fc96b3aa100000000000000000000000000000000000000000000000000000000815260040160405180910390fd5b60008251036108dc57600090505b82156109875760005b825181101561098157600160009054906101000a900460f81b7effffffffffffffffffffffffffffffffffffffffffffffffffffffffffffff19168382815181106109335761093261190f565b5b602001015160f81c60f81b7effffffffffffffffffffffffffffffffffffffffffffffffffffffffffffff19160361096e5760009150610981565b808061097990611abe565b9150506108e5565b50610ab5565b6000905060005b8251811015610a2a57600160009054906101000a900460f81b7effffffffffffffffffffffffffffffffffffffffffffffffffffffffffffff19168382815181106109dc576109db61190f565b5b602001015160f81c60f81b7effffffffffffffffffffffffffffffffffffffffffffffffffffffffffffff191603610a175760019150610a2a565b8080610a2290611abe565b91505061098e565b50600160009054906101000a900460f81b7effffffffffffffffffffffffffffffffffffffffffffffffffffffffffffff19168260018451610a6c9190611b06565b81518110610a7d57610a7c61190f565b5b602001015160f81c60f81b7effffffffffffffffffffffffffffffffffffffffffffffffffffffffffffff191603610ab457600090505b5b60005b8251811015610bd95760005b60008054610ad19061196d565b9050811015610bbf576000818154610ae89061196d565b8110610af757610af661190f565b5b815460011615610b165790600052602060002090602091828204019190065b9054901a7f0100000000000000000000000000000000000000000000000000000000000000027effffffffffffffffffffffffffffffffffffffffffffffffffffffffffffff1916848381518110610b7157610b7061190f565b5b602001015160f81c60f81b7effffffffffffffffffffffffffffffffffffffffffffffffffffffffffffff191603610bac5760009250610bbf565b8080610bb790611abe565b915050610ac4565b508115610bd9578080610bd190611abe565b915050610ab8565b508015610d3157600080610bec8a610d70565b9150915060006040518060c001604052808d81526020018b81526020018481526020018381526020018e73ffffffffffffffffffffffffffffffffffffffff16815260200142815250905060028190806001815401808255809150506001900390600052602060002090600602016000909190919091506000820151816000019081610c789190611ce6565b506020820151816001019081610c8e9190611ce6565b506040820151816002019081610ca49190611ce6565b506060820151816003019081610cba9190611ce6565b5060808201518160040160006101000a81548173ffffffffffffffffffffffffffffffffffffffff021916908373ffffffffffffffffffffffffffffffffffffffff16021790555060a08201518160050155505060036000815480929190610d2190611abe565b91905055508b9750505050610d63565b6040517fb5d012b400000000000000000000000000000000000000000000000000000000815260040160405180910390fd5b5050505095945050505050565b606080600080603267ffffffffffffffff811115610d9157610d906113b3565b5b6040519080825280601f01601f191660200182016040528015610dc35781602001600182028036833780820191505090505b5090506000859050600060018251610ddb9190611b06565b90505b6000828281518110610df357610df261190f565b5b602001015160f81c60f81b9050602e60f81b817effffffffffffffffffffffffffffffffffffffffffffffffffffffffffffff191603610e335750610f0d565b6031851115610e6e576040517fb5d012b400000000000000000000000000000000000000000000000000000000815260040160405180910390fd5b80848681518110610e8257610e8161190f565b5b60200101907effffffffffffffffffffffffffffffffffffffffffffffffffffffffffffff1916908160001a9053508480610ebc90611abe565b95505060008203610ef9576040517fb5d012b400000000000000000000000000000000000000000000000000000000815260040160405180910390fd5b508080610f0590611db8565b915050610dde565b600460009054906101000a900473ffffffffffffffffffffffffffffffffffffffff1673ffffffffffffffffffffffffffffffffffffffff1663c5249be984866040518363ffffffff1660e01b8152600401610f6a929190611df0565b600060405180830381865afa158015610f87573d6000803e3d6000fd5b505050506040513d6000823e3d601f19601f82011682018060405250810190610fb09190611ec1565b9250600460009054906101000a900473ffffffffffffffffffffffffffffffffffffffff1673ffffffffffffffffffffffffffffffffffffffff16632f278ecb846040518263ffffffff1660e01b815260040161100d9190611f0a565b600060405180830381865afa15801561102a573d6000803e3d6000fd5b505050506040513d6000823e3d601f19601f820116820180604052508101906110539190611ec1565b9250600060018584516110669190611b06565b6110709190611b06565b90506000600460009054906101000a900473ffffffffffffffffffffffffffffffffffffffff1673ffffffffffffffffffffffffffffffffffffffff1663c5249be985846040518363ffffffff1660e01b81526004016110d1929190611df0565b600060405180830381865afa1580156110ee573d6000803e3d6000fd5b505050506040513d6000823e3d601f19601f820116820180604052508101906111179190611ec1565b9050808597509750505050505050915091565b6040518060c0016040528060608152602001606081526020016060815260200160608152602001600073ffffffffffffffffffffffffffffffffffffffff168152602001600081525090565b60405180606001604052806060815260200160608152602001606081525090565b6000604051905090565b600080fd5b600080fd5b6000819050919050565b6111be816111ab565b81146111c957600080fd5b50565b6000813590506111db816111b5565b92915050565b6000602082840312156111f7576111f66111a1565b5b6000611205848285016111cc565b91505092915050565b600081519050919050565b600082825260208201905092915050565b60005b8381101561124857808201518184015260208101905061122d565b60008484015250505050565b6000601f19601f8301169050919050565b60006112708261120e565b61127a8185611219565b935061128a81856020860161122a565b61129381611254565b840191505092915050565b600073ffffffffffffffffffffffffffffffffffffffff82169050919050565b60006112c98261129e565b9050919050565b6112d9816112be565b82525050565b6112e8816111ab565b82525050565b600060c083016000830151848203600086015261130b8282611265565b915050602083015184820360208601526113258282611265565b9150506040830151848203604086015261133f8282611265565b915050606083015184820360608601526113598282611265565b915050608083015161136e60808601826112d0565b5060a083015161138160a08601826112df565b508091505092915050565b600060208201905081810360008301526113a681846112ee565b905092915050565b600080fd5b7f4e487b7100000000000000000000000000000000000000000000000000000000600052604160045260246000fd5b6113eb82611254565b810181811067ffffffffffffffff8211171561140a576114096113b3565b5b80604052505050565b600061141d611197565b905061142982826113e2565b919050565b600080fd5b600080fd5b600080fd5b600067ffffffffffffffff821115611458576114576113b3565b5b61146182611254565b9050602081019050919050565b82818337600083830152505050565b600061149061148b8461143d565b611413565b9050828152602081018484840111156114ac576114ab611438565b5b6114b784828561146e565b509392505050565b600082601f8301126114d4576114d3611433565b5b81356114e484826020860161147d565b91505092915050565b600060808284031215611503576115026113ae565b5b61150d6080611413565b9050600082013567ffffffffffffffff81111561152d5761152c61142e565b5b611539848285016114bf565b600083015250602061154d848285016111cc565b6020830152506040611561848285016111cc565b6040830152506060611575848285016111cc565b60608301525092915050565b600060208284031215611597576115966111a1565b5b600082013567ffffffffffffffff8111156115b5576115b46111a6565b5b6115c1848285016114ed565b91505092915050565b600081519050919050565b600082825260208201905092915050565b6000819050602082019050919050565b600060608301600083015184820360008601526116138282611265565b9150506020830151848203602086015261162d8282611265565b915050604083015184820360408601526116478282611265565b9150508091505092915050565b600061166083836115f6565b905092915050565b6000602082019050919050565b6000611680826115ca565b61168a81856115d5565b93508360208202850161169c856115e6565b8060005b858110156116d857848403895281516116b98582611654565b94506116c483611668565b925060208a019950506001810190506116a0565b50829750879550505050505092915050565b600060208201905081810360008301526117048184611675565b905092915050565b611715816112be565b811461172057600080fd5b50565b6000813590506117328161170c565b92915050565b600080600080600060a08688031215611754576117536111a1565b5b600061176288828901611723565b955050602086013567ffffffffffffffff811115611783576117826111a6565b5b61178f888289016114bf565b945050604086013567ffffffffffffffff8111156117b0576117af6111a6565b5b6117bc888289016114bf565b935050606086013567ffffffffffffffff8111156117dd576117dc6111a6565b5b6117e9888289016114bf565b925050608086013567ffffffffffffffff81111561180a576118096111a6565b5b611816888289016114bf565b9150509295509295909350565b600082825260208201905092915050565b600061183f8261120e565b6118498185611823565b935061185981856020860161122a565b61186281611254565b840191505092915050565b600060208201905081810360008301526118878184611834565b905092915050565b6000602082840312156118a5576118a46111a1565b5b600082013567ffffffffffffffff8111156118c3576118c26111a6565b5b6118cf848285016114bf565b91505092915050565b600060408201905081810360008301526118f28185611834565b905081810360208301526119068184611834565b90509392505050565b7f4e487b7100000000000000000000000000000000000000000000000000000000600052603260045260246000fd5b7f4e487b7100000000000000000000000000000000000000000000000000000000600052602260045260246000fd5b6000600282049050600182168061198557607f821691505b6020821081036119985761199761193e565b5b50919050565b600081519050919050565b600082825260208201905092915050565b60006119c58261199e565b6119cf81856119a9565b93506119df81856020860161122a565b6119e881611254565b840191505092915050565b60006040820190508181036000830152611a0d81856119ba565b90508181036020830152611a2181846119ba565b90509392505050565b60008115159050919050565b611a3f81611a2a565b8114611a4a57600080fd5b50565b600081519050611a5c81611a36565b92915050565b600060208284031215611a7857611a776111a1565b5b6000611a8684828501611a4d565b91505092915050565b7f4e487b7100000000000000000000000000000000000000000000000000000000600052601160045260246000fd5b6000611ac9826111ab565b91507fffffffffffffffffffffffffffffffffffffffffffffffffffffffffffffffff8203611afb57611afa611a8f565b5b600182019050919050565b6000611b11826111ab565b9150611b1c836111ab565b9250828203905081811115611b3457611b33611a8f565b5b92915050565b60008190508160005260206000209050919050565b60006020601f8301049050919050565b600082821b905092915050565b600060088302611b9c7fffffffffffffffffffffffffffffffffffffffffffffffffffffffffffffffff82611b5f565b611ba68683611b5f565b95508019841693508086168417925050509392505050565b6000819050919050565b6000611be3611bde611bd9846111ab565b611bbe565b6111ab565b9050919050565b6000819050919050565b611bfd83611bc8565b611c11611c0982611bea565b848454611b6c565b825550505050565b600090565b611c26611c19565b611c31818484611bf4565b505050565b5b81811015611c5557611c4a600082611c1e565b600181019050611c37565b5050565b601f821115611c9a57611c6b81611b3a565b611c7484611b4f565b81016020851015611c83578190505b611c97611c8f85611b4f565b830182611c36565b50505b505050565b600082821c905092915050565b6000611cbd60001984600802611c9f565b1980831691505092915050565b6000611cd68383611cac565b9150826002028217905092915050565b611cef8261120e565b67ffffffffffffffff811115611d0857611d076113b3565b5b611d12825461196d565b611d1d828285611c59565b600060209050601f831160018114611d505760008415611d3e578287015190505b611d488582611cca565b865550611db0565b601f198416611d5e86611b3a565b60005b82811015611d8657848901518255600182019150602085019450602081019050611d61565b86831015611da35784890151611d9f601f891682611cac565b8355505b6001600288020188555050505b505050505050565b6000611dc3826111ab565b915060008203611dd657611dd5611a8f565b5b600182039050919050565b611dea816111ab565b82525050565b60006040820190508181036000830152611e0a81856119ba565b9050611e196020830184611de1565b9392505050565b600067ffffffffffffffff821115611e3b57611e3a6113b3565b5b611e4482611254565b9050602081019050919050565b6000611e64611e5f84611e20565b611413565b905082815260208101848484011115611e8057611e7f611438565b5b611e8b84828561122a565b509392505050565b600082601f830112611ea857611ea7611433565b5b8151611eb8848260208601611e51565b91505092915050565b600060208284031215611ed757611ed66111a1565b5b600082015167ffffffffffffffff811115611ef557611ef46111a6565b5b611f0184828501611e93565b91505092915050565b60006020820190508181036000830152611f2481846119ba565b90509291505056fea264697066735822122020cd48eac087823b5db09484d2ef8733c27ab605f4561ea40a38ee1889d373b464736f6c63430008110033608060405234801561001057600080fd5b50610d9b806100206000396000f3fe608060405234801561001057600080fd5b506004361061004c5760003560e01c80632f278ecb146100515780637da48317146100815780639514fbc9146100b1578063c5249be9146100e1575b600080fd5b61006b600480360381019061006691906106a2565b610111565b604051610078919061077f565b60405180910390f35b61009b600480360381019061009691906108d1565b610212565b6040516100a89190610964565b60405180910390f35b6100cb60048036038101906100c69190610b01565b6102e6565b6040516100d89190610b9f565b60405180910390f35b6100fb60048036038101906100f69190610bf7565b61054d565b604051610108919061077f565b60405180910390f35b606060008383905067ffffffffffffffff811115610132576101316107a6565b5b6040519080825280601f01601f1916602001820160405280156101645781602001600182028036833780820191505090505b50905060006001858590506101799190610c86565b905060005b8585905081101561020657858582846101979190610c86565b8181106101a7576101a6610cba565b5b9050013560f81c60f81b8382815181106101c4576101c3610cba565b5b60200101907effffffffffffffffffffffffffffffffffffffffffffffffffffffffffffff1916908160001a90535080806101fe90610ce9565b91505061017e565b50819250505092915050565b600080835190508251811461022b5760009150506102e0565b60005b818110156102d95783818151811061024957610248610cba565b5b602001015160f81c60f81b7effffffffffffffffffffffffffffffffffffffffffffffffffffffffffffff191685828151811061028957610288610cba565b5b602001015160f81c60f81b7effffffffffffffffffffffffffffffffffffffffffffffffffffffffffffff1916146102c6576000925050506102e0565b80806102d190610ce9565b91505061022e565b5060019150505b92915050565b6060600080835167ffffffffffffffff811115610306576103056107a6565b5b60405190808252806020026020018201604052801561033957816020015b60608152602001906001900390816103245790505b50905060005b84518110156103b557600085828151811061035d5761035c610cba565b5b60200260200101519050600181516103759190610d31565b846103809190610d31565b93508083838151811061039657610395610cba565b5b60200260200101819052505080806103ad90610ce9565b91505061033f565b60008367ffffffffffffffff8111156103d1576103d06107a6565b5b6040519080825280601f01601f1916602001820160405280156104035781602001600182028036833780820191505090505b5090506000915060005b835181101561054057602f60f81b82848151811061042e5761042d610cba565b5b60200101907effffffffffffffffffffffffffffffffffffffffffffffffffffffffffffff1916908160001a905350828061046890610ce9565b93505060005b84828151811061048157610480610cba565b5b60200260200101515181101561052c578482815181106104a4576104a3610cba565b5b602002602001015181815181106104be576104bd610cba565b5b602001015160f81c60f81b8385815181106104dc576104db610cba565b5b60200101907effffffffffffffffffffffffffffffffffffffffffffffffffffffffffffff1916908160001a905350838061051690610ce9565b945050808061052490610ce9565b91505061046e565b50808061053890610ce9565b91505061040d565b5080945050505050919050565b606060008267ffffffffffffffff81111561056b5761056a6107a6565b5b6040519080825280601f01601f19166020018201604052801561059d5781602001600182028036833780820191505090505b50905060005b8381101561061d578585828181106105be576105bd610cba565b5b9050013560f81c60f81b8282815181106105db576105da610cba565b5b60200101907effffffffffffffffffffffffffffffffffffffffffffffffffffffffffffff1916908160001a905350808061061590610ce9565b9150506105a3565b50809150509392505050565b6000604051905090565b600080fd5b600080fd5b600080fd5b600080fd5b600080fd5b60008083601f8401126106625761066161063d565b5b8235905067ffffffffffffffff81111561067f5761067e610642565b5b60208301915083600182028301111561069b5761069a610647565b5b9250929050565b600080602083850312156106b9576106b8610633565b5b600083013567ffffffffffffffff8111156106d7576106d6610638565b5b6106e38582860161064c565b92509250509250929050565b600081519050919050565b600082825260208201905092915050565b60005b8381101561072957808201518184015260208101905061070e565b60008484015250505050565b6000601f19601f8301169050919050565b6000610751826106ef565b61075b81856106fa565b935061076b81856020860161070b565b61077481610735565b840191505092915050565b600060208201905081810360008301526107998184610746565b905092915050565b600080fd5b7f4e487b7100000000000000000000000000000000000000000000000000000000600052604160045260246000fd5b6107de82610735565b810181811067ffffffffffffffff821117156107fd576107fc6107a6565b5b80604052505050565b6000610810610629565b905061081c82826107d5565b919050565b600067ffffffffffffffff82111561083c5761083b6107a6565b5b61084582610735565b9050602081019050919050565b82818337600083830152505050565b600061087461086f84610821565b610806565b9050828152602081018484840111156108905761088f6107a1565b5b61089b848285610852565b509392505050565b600082601f8301126108b8576108b761063d565b5b81356108c8848260208601610861565b91505092915050565b600080604083850312156108e8576108e7610633565b5b600083013567ffffffffffffffff81111561090657610905610638565b5b610912858286016108a3565b925050602083013567ffffffffffffffff81111561093357610932610638565b5b61093f858286016108a3565b9150509250929050565b60008115159050919050565b61095e81610949565b82525050565b60006020820190506109796000830184610955565b92915050565b600067ffffffffffffffff82111561099a576109996107a6565b5b602082029050602081019050919050565b600067ffffffffffffffff8211156109c6576109c56107a6565b5b6109cf82610735565b9050602081019050919050565b60006109ef6109ea846109ab565b610806565b905082815260208101848484011115610a0b57610a0a6107a1565b5b610a16848285610852565b509392505050565b600082601f830112610a3357610a3261063d565b5b8135610a438482602086016109dc565b91505092915050565b6000610a5f610a5a8461097f565b610806565b90508083825260208201905060208402830185811115610a8257610a81610647565b5b835b81811015610ac957803567ffffffffffffffff811115610aa757610aa661063d565b5b808601610ab48982610a1e565b85526020850194505050602081019050610a84565b5050509392505050565b600082601f830112610ae857610ae761063d565b5b8135610af8848260208601610a4c565b91505092915050565b600060208284031215610b1757610b16610633565b5b600082013567ffffffffffffffff811115610b3557610b34610638565b5b610b4184828501610ad3565b91505092915050565b600081519050919050565b600082825260208201905092915050565b6000610b7182610b4a565b610b7b8185610b55565b9350610b8b81856020860161070b565b610b9481610735565b840191505092915050565b60006020820190508181036000830152610bb98184610b66565b905092915050565b6000819050919050565b610bd481610bc1565b8114610bdf57600080fd5b50565b600081359050610bf181610bcb565b92915050565b600080600060408486031215610c1057610c0f610633565b5b600084013567ffffffffffffffff811115610c2e57610c2d610638565b5b610c3a8682870161064c565b93509350506020610c4d86828701610be2565b9150509250925092565b7f4e487b7100000000000000000000000000000000000000000000000000000000600052601160045260246000fd5b6000610c9182610bc1565b9150610c9c83610bc1565b9250828203905081811115610cb457610cb3610c57565b5b92915050565b7f4e487b7100000000000000000000000000000000000000000000000000000000600052603260045260246000fd5b6000610cf482610bc1565b91507fffffffffffffffffffffffffffffffffffffffffffffffffffffffffffffffff8203610d2657610d25610c57565b5b600182019050919050565b6000610d3c82610bc1565b9150610d4783610bc1565b9250828201905080821115610d5f57610d5e610c57565b5b9291505056fea2646970667358221220a8b2676b7cc27107ca4dd8ced86a6745bb88d025e39e517c5bc1c2cf752f91ef64736f6c63430008110033",
  "linkReferences": {},
  "deployedLinkReferences": {}
}