{
  "contractName": "X7Opsilon",
  "abi": [
    {
      "inputs": [],
      "name": "unsupportedDirectory",
      "type": "error"
    },
    {
      "inputs": [],
      "name": "unsupportedFile",
      "type": "error"
    },
    {
      "inputs": [
        {
          "internalType": "uint256",
          "name": "",
          "type": "uint256"
        }
      ],
      "name": "DirectoryFrames",
      "outputs": [
        {
          "internalType": "string",
          "name": "Id",
          "type": "string"
        },
        {
          "internalType": "string",
          "name": "ParentId",
          "type": "string"
        },
        {
          "internalType": "string",
          "name": "Directory",
          "type": "string"
        },
        {
          "internalType": "uint256",
          "name": "DirectoryCount",
          "type": "uint256"
        },
        {
          "internalType": "uint256",
          "name": "DirectoryLength",
          "type": "uint256"
        }
      ],
      "stateMutability": "view",
      "type": "function",
      "constant": true
    },
    {
      "inputs": [
        {
          "internalType": "uint256",
          "name": "",
          "type": "uint256"
        }
      ],
      "name": "FileFrames",
      "outputs": [
        {
          "internalType": "string",
          "name": "Id",
          "type": "string"
        },
        {
          "internalType": "string",
          "name": "Name",
          "type": "string"
        },
        {
          "internalType": "string",
          "name": "Extension",
          "type": "string"
        },
        {
          "internalType": "bytes",
          "name": "FileData",
          "type": "bytes"
        }
      ],
      "stateMutability": "view",
      "type": "function",
      "constant": true
    },
    {
      "inputs": [
        {
          "internalType": "string",
          "name": "directory",
          "type": "string"
        }
      ],
      "name": "createDirectory",
      "outputs": [
        {
          "internalType": "string",
          "name": "",
          "type": "string"
        }
      ],
      "stateMutability": "payable",
      "type": "function",
      "payable": true
    },
    {
      "inputs": [
        {
          "internalType": "string",
          "name": "fixDirectory",
          "type": "string"
        },
        {
          "internalType": "uint256",
          "name": "directoryCount",
          "type": "uint256"
        },
        {
          "internalType": "uint256",
          "name": "directoryLength",
          "type": "uint256"
        }
      ],
      "name": "getDirectory",
      "outputs": [
        {
          "internalType": "bool",
          "name": "isNull",
          "type": "bool"
        },
        {
          "components": [
            {
              "internalType": "string",
              "name": "Id",
              "type": "string"
            },
            {
              "internalType": "string",
              "name": "ParentId",
              "type": "string"
            },
            {
              "internalType": "string",
              "name": "Directory",
              "type": "string"
            },
            {
              "internalType": "uint256",
              "name": "DirectoryCount",
              "type": "uint256"
            },
            {
              "internalType": "uint256",
              "name": "DirectoryLength",
              "type": "uint256"
            }
          ],
          "internalType": "struct X7Opsilon.DirectoryFrame",
          "name": "",
          "type": "tuple"
        }
      ],
      "stateMutability": "view",
      "type": "function",
      "constant": true
    },
    {
      "inputs": [
        {
          "internalType": "string",
          "name": "directory",
          "type": "string"
        }
      ],
      "name": "getDirectoriesByPath",
      "outputs": [
        {
          "internalType": "bool",
          "name": "isNull",
          "type": "bool"
        },
        {
          "components": [
            {
              "internalType": "string",
              "name": "Id",
              "type": "string"
            },
            {
              "internalType": "string",
              "name": "ParentId",
              "type": "string"
            },
            {
              "internalType": "string",
              "name": "Directory",
              "type": "string"
            },
            {
              "internalType": "uint256",
              "name": "DirectoryCount",
              "type": "uint256"
            },
            {
              "internalType": "uint256",
              "name": "DirectoryLength",
              "type": "uint256"
            }
          ],
          "internalType": "struct X7Opsilon.DirectoryFrame[]",
          "name": "directories",
          "type": "tuple[]"
        },
        {
          "internalType": "uint256",
          "name": "count",
          "type": "uint256"
        }
      ],
      "stateMutability": "view",
      "type": "function",
      "constant": true
    },
    {
      "inputs": [
        {
          "internalType": "string",
          "name": "directory",
          "type": "string"
        }
      ],
      "name": "directoryProcess",
      "outputs": [
        {
          "internalType": "string[]",
          "name": "",
          "type": "string[]"
        },
        {
          "internalType": "string",
          "name": "",
          "type": "string"
        },
        {
          "internalType": "uint256",
          "name": "",
          "type": "uint256"
        },
        {
          "internalType": "uint256",
          "name": "",
          "type": "uint256"
        }
      ],
      "stateMutability": "pure",
      "type": "function",
      "constant": true
    },
    {
      "inputs": [
        {
          "internalType": "string",
          "name": "fullName",
          "type": "string"
        }
      ],
      "name": "fileNameProcess",
      "outputs": [
        {
          "internalType": "string",
          "name": "",
          "type": "string"
        },
        {
          "internalType": "string",
          "name": "",
          "type": "string"
        }
      ],
      "stateMutability": "pure",
      "type": "function",
      "constant": true
    }
  ],
  "bytecode": "0x608060405260405162000012906200008d565b604051809103906000f0801580156200002f573d6000803e3d6000fd5b506000806101000a81548173ffffffffffffffffffffffffffffffffffffffff021916908373ffffffffffffffffffffffffffffffffffffffff160217905550600060025560006004553480156200008657600080fd5b506200009b565b610e2c8062002bc283390190565b612b1780620000ab6000396000f3fe6080604052600436106100705760003560e01c80634ce185ec1161004e5780634ce185ec14610121578063680510451461016157806395b5e559146101a25780639c1ab386146101e257610070565b80631c6ec7a9146100755780632ebd0599146100a55780633b594fcc146100e3575b600080fd5b61008f600480360381019061008a9190611bdc565b610221565b60405161009c9190611cad565b60405180910390f35b3480156100b157600080fd5b506100cc60048036038101906100c79190611d05565b6104ec565b6040516100da929190611e6c565b60405180910390f35b3480156100ef57600080fd5b5061010a60048036038101906101059190611bdc565b6107e7565b604051610118929190611e9c565b60405180910390f35b34801561012d57600080fd5b5061014860048036038101906101439190611ed3565b610bed565b6040516101589493929190611f55565b60405180910390f35b34801561016d57600080fd5b5061018860048036038101906101839190611ed3565b610e4d565b604051610199959493929190611fc5565b60405180910390f35b3480156101ae57600080fd5b506101c960048036038101906101c49190611bdc565b61102b565b6040516101d994939291906120ef565b60405180910390f35b3480156101ee57600080fd5b5061020960048036038101906102049190611bdc565b611592565b60405161021893929190612288565b60405180910390f35b60606000806000806102328661102b565b93509350935093506000806102488585856104ec565b9150915081156104d9576000865103610278576040518060200160405280600081525096505050505050506104e7565b60008060009054906101000a900473ffffffffffffffffffffffffffffffffffffffff1673ffffffffffffffffffffffffffffffffffffffff1663a36885466040518163ffffffff1660e01b81526004016000604051808303816000875af11580156102e8573d6000803e3d6000fd5b505050506040513d6000823e3d601f19601f820116820180604052508101906103119190612336565b905060006040518060200160405280600081525090506001885111156103eb57876001895161034091906123ae565b81518110610351576103506123e2565b5b602002602001016060815250600073__Infrastructure________________________639514fbc98a6040518263ffffffff1660e01b815260040161039691906124f5565b600060405180830381865af41580156103b3573d6000803e3d6000fd5b505050506040513d6000823e3d601f19601f820116820180604052508101906103dc9190612336565b90506103e781610221565b9150505b6040518060a0016040528083815260200182815260200188815260200187815260200186815250925060036040518060a00160405280848152602001838152602001898152602001888152602001878152509080600181540180825580915050600190039060005260206000209060050201600090919091909150600082015181600001908161047b9190612723565b5060208201518160010190816104919190612723565b5060408201518160020190816104a79190612723565b5060608201518160030155608082015181600401555050600460008154809291906104d1906127f5565b919050555050505b806000015196505050505050505b919050565b60006104f6611a53565b600085905060019250610507611a53565b61050f611a53565b60005b6004548110156107d557600381815481106105305761052f6123e2565b5b90600052602060002090600502016040518060a001604052908160008201805461055990612546565b80601f016020809104026020016040519081016040528092919081815260200182805461058590612546565b80156105d25780601f106105a7576101008083540402835291602001916105d2565b820191906000526020600020905b8154815290600101906020018083116105b557829003601f168201915b505050505081526020016001820180546105eb90612546565b80601f016020809104026020016040519081016040528092919081815260200182805461061790612546565b80156106645780601f1061063957610100808354040283529160200191610664565b820191906000526020600020905b81548152906001019060200180831161064757829003601f168201915b5050505050815260200160028201805461067d90612546565b80601f01602080910402602001604051908101604052809291908181526020018280546106a990612546565b80156106f65780601f106106cb576101008083540402835291602001916106f6565b820191906000526020600020905b8154815290600101906020018083116106d957829003601f168201915b5050505050815260200160038201548152602001600482015481525050915087826060015114801561072b5750868260800151145b156107c25760008260400151905073__Infrastructure________________________637da4831782876040518363ffffffff1660e01b8152600401610772929190612887565b602060405180830381865af415801561078f573d6000803e3d6000fd5b505050506040513d601f19601f820116820180604052508101906107b391906128ea565b156107c057829350600096505b505b80806107cd906127f5565b915050610512565b50848294509450505050935093915050565b60608060008390506000603267ffffffffffffffff81111561080c5761080b611ab1565b5b6040519080825280601f01601f19166020018201604052801561083e5781602001600182028036833780820191505090505b50905060e68251111561087d576040517fffe4bab500000000000000000000000000000000000000000000000000000000815260040160405180910390fd5b6000806001845161088e91906123ae565b9050602e60f81b8482815181106108a8576108a76123e2565b5b602001015160f81c60f81b7effffffffffffffffffffffffffffffffffffffffffffffffffffffffffffff19160361090c576040517fffe4bab500000000000000000000000000000000000000000000000000000000815260040160405180910390fd5b5b6000848281518110610922576109216123e2565b5b602001015160f81c60f81b9050602e60f81b817effffffffffffffffffffffffffffffffffffffffffffffffffffffffffffff1916036109625750610a3c565b603183111561099d576040517fffe4bab500000000000000000000000000000000000000000000000000000000815260040160405180910390fd5b808484815181106109b1576109b06123e2565b5b60200101907effffffffffffffffffffffffffffffffffffffffffffffffffffffffffffff1916908160001a90535082806109eb906127f5565b93505060008203610a28576040517fffe4bab500000000000000000000000000000000000000000000000000000000815260040160405180910390fd5b508080610a3490612917565b91505061090d565b73__Infrastructure________________________63c5249be984846040518363ffffffff1660e01b8152600401610a7592919061294f565b600060405180830381865af4158015610a92573d6000803e3d6000fd5b505050506040513d6000823e3d601f19601f82011682018060405250810190610abb9190612a20565b925073__Infrastructure________________________632f278ecb846040518263ffffffff1660e01b8152600401610af49190612a69565b600060405180830381865af4158015610b11573d6000803e3d6000fd5b505050506040513d6000823e3d601f19601f82011682018060405250810190610b3a9190612a20565b925060006001838651610b4d91906123ae565b610b5791906123ae565b9050600073__Infrastructure________________________63c5249be987846040518363ffffffff1660e01b8152600401610b9492919061294f565b600060405180830381865af4158015610bb1573d6000803e3d6000fd5b505050506040513d6000823e3d601f19601f82011682018060405250810190610bda9190612a20565b9050848197509750505050505050915091565b60018181548110610bfd57600080fd5b9060005260206000209060040201600091509050806000018054610c2090612546565b80601f0160208091040260200160405190810160405280929190818152602001828054610c4c90612546565b8015610c995780601f10610c6e57610100808354040283529160200191610c99565b820191906000526020600020905b815481529060010190602001808311610c7c57829003601f168201915b505050505090806001018054610cae90612546565b80601f0160208091040260200160405190810160405280929190818152602001828054610cda90612546565b8015610d275780601f10610cfc57610100808354040283529160200191610d27565b820191906000526020600020905b815481529060010190602001808311610d0a57829003601f168201915b505050505090806002018054610d3c90612546565b80601f0160208091040260200160405190810160405280929190818152602001828054610d6890612546565b8015610db55780601f10610d8a57610100808354040283529160200191610db5565b820191906000526020600020905b815481529060010190602001808311610d9857829003601f168201915b505050505090806003018054610dca90612546565b80601f0160208091040260200160405190810160405280929190818152602001828054610df690612546565b8015610e435780601f10610e1857610100808354040283529160200191610e43565b820191906000526020600020905b815481529060010190602001808311610e2657829003601f168201915b5050505050905084565b60038181548110610e5d57600080fd5b9060005260206000209060050201600091509050806000018054610e8090612546565b80601f0160208091040260200160405190810160405280929190818152602001828054610eac90612546565b8015610ef95780601f10610ece57610100808354040283529160200191610ef9565b820191906000526020600020905b815481529060010190602001808311610edc57829003601f168201915b505050505090806001018054610f0e90612546565b80601f0160208091040260200160405190810160405280929190818152602001828054610f3a90612546565b8015610f875780601f10610f5c57610100808354040283529160200191610f87565b820191906000526020600020905b815481529060010190602001808311610f6a57829003601f168201915b505050505090806002018054610f9c90612546565b80601f0160208091040260200160405190810160405280929190818152602001828054610fc890612546565b80156110155780601f10610fea57610100808354040283529160200191611015565b820191906000526020600020905b815481529060010190602001808311610ff857829003601f168201915b5050505050908060030154908060040154905085565b60608060008060008060008790506000815190506000825167ffffffffffffffff81111561105c5761105b611ab1565b5b6040519080825280601f01601f19166020018201604052801561108e5781602001600182028036833780820191505090505b509050602f60f81b836000815181106110aa576110a96123e2565b5b602001015160f81c60f81b7effffffffffffffffffffffffffffffffffffffffffffffffffffffffffffff19161461110e576040517fff31f58600000000000000000000000000000000000000000000000000000000815260040160405180910390fd5b6000600190505b828110156112595760018361112a91906123ae565b8114801561117a5750602f60f81b84828151811061114b5761114a6123e2565b5b602001015160f81c60f81b7effffffffffffffffffffffffffffffffffffffffffffffffffffffffffffff1916145b61124657602f60f81b848281518110611196576111956123e2565b5b602001015160f81c60f81b7effffffffffffffffffffffffffffffffffffffffffffffffffffffffffffff1916036111d75785806111d3906127f5565b9650505b8381815181106111ea576111e96123e2565b5b602001015160f81c60f81b828681518110611208576112076123e2565b5b60200101907effffffffffffffffffffffffffffffffffffffffffffffffffffffffffffff1916908160001a9053508480611242906127f5565b9550505b8080611251906127f5565b915050611115565b5060008467ffffffffffffffff81111561127657611275611ab1565b5b6040519080825280601f01601f1916602001820160405280156112a85781602001600182028036833780820191505090505b509050600060fa67ffffffffffffffff8111156112c8576112c7611ab1565b5b6040519080825280601f01601f1916602001820160405280156112fa5781602001600182028036833780820191505090505b509050600080600060018a61130f9190612a8b565b67ffffffffffffffff81111561132857611327611ab1565b5b60405190808252806020026020018201604052801561135b57816020015b60608152602001906001900390816113465790505b50905060005b8981101561157457600087828151811061137e5761137d6123e2565b5b602001015160f81c60f81b9050600060018c61139a91906123ae565b831490506000602f60f81b837effffffffffffffffffffffffffffffffffffffffffffffffffffffffffffff19161490508061142257828888815181106113e4576113e36123e2565b5b60200101907effffffffffffffffffffffffffffffffffffffffffffffffffffffffffffff1916908160001a905350868061141e906127f5565b9750505b808061142b5750815b156114e05773__Infrastructure________________________63c5249be989896040518363ffffffff1660e01b815260040161146992919061294f565b600060405180830381865af4158015611486573d6000803e3d6000fd5b505050506040513d6000823e3d601f19601f820116820180604052508101906114af9190612a20565b8587815181106114c2576114c16123e2565b5b602002602001018190525085806114d8906127f5565b965050600096505b60e687111561151b576040517fff31f58600000000000000000000000000000000000000000000000000000000815260040160405180910390fd5b8289858151811061152f5761152e6123e2565b5b60200101907effffffffffffffffffffffffffffffffffffffffffffffffffffffffffffff1916908160001a905350505050808061156c906127f5565b915050611361565b5080858b8b9d509d509d509d50505050505050505050509193509193565b600060606000806000806115a58761102b565b935093509350506000806115ba8585856104ec565b91509150600080851480156115cf5750600084145b90508280156115dc575080155b156115f757600188600098509850985050505050505061198f565b60006040518060200160405280600081525090508161161857826000015190505b611620611a53565b6000600499508967ffffffffffffffff8111156116405761163f611ab1565b5b60405190808252806020026020018201604052801561167957816020015b611666611a53565b81526020019060019003908161165e5790505b509a5060008091505b60045482101561197a578a82036116b357600060048c6116a29190612a8b565b90506116af8d8d83611996565b9c50505b600382815481106116c7576116c66123e2565b5b90600052602060002090600502016040518060a00160405290816000820180546116f090612546565b80601f016020809104026020016040519081016040528092919081815260200182805461171c90612546565b80156117695780601f1061173e57610100808354040283529160200191611769565b820191906000526020600020905b81548152906001019060200180831161174c57829003601f168201915b5050505050815260200160018201805461178290612546565b80601f01602080910402602001604051908101604052809291908181526020018280546117ae90612546565b80156117fb5780601f106117d0576101008083540402835291602001916117fb565b820191906000526020600020905b8154815290600101906020018083116117de57829003601f168201915b5050505050815260200160028201805461181490612546565b80601f016020809104026020016040519081016040528092919081815260200182805461184090612546565b801561188d5780601f106118625761010080835404028352916020019161188d565b820191906000526020600020905b81548152906001019060200180831161187057829003601f168201915b5050505050815260200160038201548152602001600482015481525050925060008360200151905073__Infrastructure________________________637da4831786836040518363ffffffff1660e01b81526004016118ee929190612887565b602060405180830381865af415801561190b573d6000803e3d6000fd5b505050506040513d601f19601f8201168201806040525081019061192f91906128ea565b156119665760009750838d838151811061194c5761194b6123e2565b5b60200260200101819052508180611962906127f5565b9250505b508180611972906127f5565b925050611682565b60008c829c509c509c50505050505050505050505b9193909250565b606060008267ffffffffffffffff8111156119b4576119b3611ab1565b5b6040519080825280602002602001820160405280156119ed57816020015b6119da611a53565b8152602001906001900390816119d25790505b50905060005b84811015611a4757858181518110611a0e57611a0d6123e2565b5b6020026020010151828281518110611a2957611a286123e2565b5b60200260200101819052508080611a3f906127f5565b9150506119f3565b50809150509392505050565b6040518060a0016040528060608152602001606081526020016060815260200160008152602001600081525090565b6000604051905090565b600080fd5b600080fd5b600080fd5b600080fd5b6000601f19601f8301169050919050565b7f4e487b7100000000000000000000000000000000000000000000000000000000600052604160045260246000fd5b611ae982611aa0565b810181811067ffffffffffffffff82111715611b0857611b07611ab1565b5b80604052505050565b6000611b1b611a82565b9050611b278282611ae0565b919050565b600067ffffffffffffffff821115611b4757611b46611ab1565b5b611b5082611aa0565b9050602081019050919050565b82818337600083830152505050565b6000611b7f611b7a84611b2c565b611b11565b905082815260208101848484011115611b9b57611b9a611a9b565b5b611ba6848285611b5d565b509392505050565b600082601f830112611bc357611bc2611a96565b5b8135611bd3848260208601611b6c565b91505092915050565b600060208284031215611bf257611bf1611a8c565b5b600082013567ffffffffffffffff811115611c1057611c0f611a91565b5b611c1c84828501611bae565b91505092915050565b600081519050919050565b600082825260208201905092915050565b60005b83811015611c5f578082015181840152602081019050611c44565b83811115611c6e576000848401525b50505050565b6000611c7f82611c25565b611c898185611c30565b9350611c99818560208601611c41565b611ca281611aa0565b840191505092915050565b60006020820190508181036000830152611cc78184611c74565b905092915050565b6000819050919050565b611ce281611ccf565b8114611ced57600080fd5b50565b600081359050611cff81611cd9565b92915050565b600080600060608486031215611d1e57611d1d611a8c565b5b600084013567ffffffffffffffff811115611d3c57611d3b611a91565b5b611d4886828701611bae565b9350506020611d5986828701611cf0565b9250506040611d6a86828701611cf0565b9150509250925092565b60008115159050919050565b611d8981611d74565b82525050565b600082825260208201905092915050565b6000611dab82611c25565b611db58185611d8f565b9350611dc5818560208601611c41565b611dce81611aa0565b840191505092915050565b611de281611ccf565b82525050565b600060a0830160008301518482036000860152611e058282611da0565b91505060208301518482036020860152611e1f8282611da0565b91505060408301518482036040860152611e398282611da0565b9150506060830151611e4e6060860182611dd9565b506080830151611e616080860182611dd9565b508091505092915050565b6000604082019050611e816000830185611d80565b8181036020830152611e938184611de8565b90509392505050565b60006040820190508181036000830152611eb68185611c74565b90508181036020830152611eca8184611c74565b90509392505050565b600060208284031215611ee957611ee8611a8c565b5b6000611ef784828501611cf0565b91505092915050565b600081519050919050565b600082825260208201905092915050565b6000611f2782611f00565b611f318185611f0b565b9350611f41818560208601611c41565b611f4a81611aa0565b840191505092915050565b60006080820190508181036000830152611f6f8187611c74565b90508181036020830152611f838186611c74565b90508181036040830152611f978185611c74565b90508181036060830152611fab8184611f1c565b905095945050505050565b611fbf81611ccf565b82525050565b600060a0820190508181036000830152611fdf8188611c74565b90508181036020830152611ff38187611c74565b905081810360408301526120078186611c74565b90506120166060830185611fb6565b6120236080830184611fb6565b9695505050505050565b600081519050919050565b600082825260208201905092915050565b6000819050602082019050919050565b60006120658383611da0565b905092915050565b6000602082019050919050565b60006120858261202d565b61208f8185612038565b9350836020820285016120a185612049565b8060005b858110156120dd57848403895281516120be8582612059565b94506120c98361206d565b925060208a019950506001810190506120a5565b50829750879550505050505092915050565b60006080820190508181036000830152612109818761207a565b9050818103602083015261211d8186611c74565b905061212c6040830185611fb6565b6121396060830184611fb6565b95945050505050565b600081519050919050565b600082825260208201905092915050565b6000819050602082019050919050565b600060a083016000830151848203600086015261218b8282611da0565b915050602083015184820360208601526121a58282611da0565b915050604083015184820360408601526121bf8282611da0565b91505060608301516121d46060860182611dd9565b5060808301516121e76080860182611dd9565b508091505092915050565b60006121fe838361216e565b905092915050565b6000602082019050919050565b600061221e82612142565b612228818561214d565b93508360208202850161223a8561215e565b8060005b85811015612276578484038952815161225785826121f2565b945061226283612206565b925060208a0199505060018101905061223e565b50829750879550505050505092915050565b600060608201905061229d6000830186611d80565b81810360208301526122af8185612213565b90506122be6040830184611fb6565b949350505050565b60006122d96122d484611b2c565b611b11565b9050828152602081018484840111156122f5576122f4611a9b565b5b612300848285611c41565b509392505050565b600082601f83011261231d5761231c611a96565b5b815161232d8482602086016122c6565b91505092915050565b60006020828403121561234c5761234b611a8c565b5b600082015167ffffffffffffffff81111561236a57612369611a91565b5b61237684828501612308565b91505092915050565b7f4e487b7100000000000000000000000000000000000000000000000000000000600052601160045260246000fd5b60006123b982611ccf565b91506123c483611ccf565b9250828210156123d7576123d661237f565b5b828203905092915050565b7f4e487b7100000000000000000000000000000000000000000000000000000000600052603260045260246000fd5b600082825260208201905092915050565b600082825260208201905092915050565b600061243e82611c25565b6124488185612422565b9350612458818560208601611c41565b61246181611aa0565b840191505092915050565b60006124788383612433565b905092915050565b600061248b8261202d565b6124958185612411565b9350836020820285016124a785612049565b8060005b858110156124e357848403895281516124c4858261246c565b94506124cf8361206d565b925060208a019950506001810190506124ab565b50829750879550505050505092915050565b6000602082019050818103600083015261250f8184612480565b905092915050565b7f4e487b7100000000000000000000000000000000000000000000000000000000600052602260045260246000fd5b6000600282049050600182168061255e57607f821691505b60208210810361257157612570612517565b5b50919050565b60008190508160005260206000209050919050565b60006020601f8301049050919050565b600082821b905092915050565b6000600883026125d97fffffffffffffffffffffffffffffffffffffffffffffffffffffffffffffffff8261259c565b6125e3868361259c565b95508019841693508086168417925050509392505050565b6000819050919050565b600061262061261b61261684611ccf565b6125fb565b611ccf565b9050919050565b6000819050919050565b61263a83612605565b61264e61264682612627565b8484546125a9565b825550505050565b600090565b612663612656565b61266e818484612631565b505050565b5b818110156126925761268760008261265b565b600181019050612674565b5050565b601f8211156126d7576126a881612577565b6126b18461258c565b810160208510156126c0578190505b6126d46126cc8561258c565b830182612673565b50505b505050565b600082821c905092915050565b60006126fa600019846008026126dc565b1980831691505092915050565b600061271383836126e9565b9150826002028217905092915050565b61272c82611c25565b67ffffffffffffffff81111561274557612744611ab1565b5b61274f8254612546565b61275a828285612696565b600060209050601f83116001811461278d576000841561277b578287015190505b6127858582612707565b8655506127ed565b601f19841661279b86612577565b60005b828110156127c35784890151825560018201915060208501945060208101905061279e565b868310156127e057848901516127dc601f8916826126e9565b8355505b6001600288020188555050505b505050505050565b600061280082611ccf565b91507fffffffffffffffffffffffffffffffffffffffffffffffffffffffffffffffff82036128325761283161237f565b5b600182019050919050565b600082825260208201905092915050565b600061285982611f00565b612863818561283d565b9350612873818560208601611c41565b61287c81611aa0565b840191505092915050565b600060408201905081810360008301526128a1818561284e565b905081810360208301526128b5818461284e565b90509392505050565b6128c781611d74565b81146128d257600080fd5b50565b6000815190506128e4816128be565b92915050565b600060208284031215612900576128ff611a8c565b5b600061290e848285016128d5565b91505092915050565b600061292282611ccf565b9150600082036129355761293461237f565b5b600182039050919050565b61294981611ccf565b82525050565b60006040820190508181036000830152612969818561284e565b90506129786020830184612940565b9392505050565b600067ffffffffffffffff82111561299a57612999611ab1565b5b6129a382611aa0565b9050602081019050919050565b60006129c36129be8461297f565b611b11565b9050828152602081018484840111156129df576129de611a9b565b5b6129ea848285611c41565b509392505050565b600082601f830112612a0757612a06611a96565b5b8151612a178482602086016129b0565b91505092915050565b600060208284031215612a3657612a35611a8c565b5b600082015167ffffffffffffffff811115612a5457612a53611a91565b5b612a60848285016129f2565b91505092915050565b60006020820190508181036000830152612a83818461284e565b905092915050565b6000612a9682611ccf565b9150612aa183611ccf565b9250827fffffffffffffffffffffffffffffffffffffffffffffffffffffffffffffffff03821115612ad657612ad561237f565b5b82820190509291505056fea2646970667358221220897ae5485af0439ccd3b7ce98f9f559789e524b4adc80e8bc140510e30b7c7f464736f6c634300080f00336080604052600160005534801561001557600080fd5b50610e07806100256000396000f3fe6080604052600436106100345760003560e01c80635bf9d6de14610039578063a368854614610069578063b863bd3714610087575b600080fd5b610053600480360381019061004e9190610837565b6100b7565b60405161006091906108fd565b60405180910390f35b6100716102b4565b60405161007e91906108fd565b60405180910390f35b6100a1600480360381019061009c9190610837565b610547565b6040516100ae919061092e565b60405180910390f35b6060600e8211156100fd576040517f08c379a00000000000000000000000000000000000000000000000000000000081526004016100f490610995565b60405180910390fd5b6001821015610141576040517f08c379a000000000000000000000000000000000000000000000000000000000815260040161013890610a01565b60405180910390fd5b60008267ffffffffffffffff81111561015d5761015c610a21565b5b6040519080825280601f01601f19166020018201604052801561018f5781602001600182028036833780820191505090505b5090506000603e67ffffffffffffffff8111156101af576101ae610a21565b5b6040519080825280601f01601f1916602001820160405280156101e15781602001600182028036833780820191505090505b5090506040518060400160405280601a81526020017f4142434445464748494a4b4c4d4e4f505152535455565758595a000000000000815250905060005b848110156102a9576000610233601a610547565b905082818151811061024857610247610a50565b5b602001015160f81c60f81b84838151811061026657610265610a50565b5b60200101907effffffffffffffffffffffffffffffffffffffffffffffffffffffffffffff1916908160001a9053505080806102a190610aae565b91505061021f565b508192505050919050565b6060600073__IDT___________________________________63a9a295ad6040518163ffffffff1660e01b8152600401600060405180830381865af4158015610301573d6000803e3d6000fd5b505050506040513d6000823e3d601f19601f8201168201806040525081019061032a9190610bed565b90506000603767ffffffffffffffff81111561034957610348610a21565b5b6040519080825280601f01601f19166020018201604052801561037b5781602001600182028036833780820191505090505b50905060005b81518110156103e457605f60f81b8282815181106103a2576103a1610a50565b5b60200101907effffffffffffffffffffffffffffffffffffffffffffffffffffffffffffff1916908160001a90535080806103dc90610aae565b915050610381565b5060005b825181101561046c5761041783828151811061040757610406610a50565b5b602001015160f81c60f81b6105a4565b82828151811061042a57610429610a50565b5b60200101907effffffffffffffffffffffffffffffffffffffffffffffffffffffffffffff1916908160001a905350808061046490610aae565b9150506103e8565b5060006009905060005b600381121561053d57818061048a90610aae565b9250506000610499600e6100b7565b905060005b81518110156105285783806104b290610aae565b9450508181815181106104c8576104c7610a50565b5b602001015160f81c60f81b8585815181106104e6576104e5610a50565b5b60200101907effffffffffffffffffffffffffffffffffffffffffffffffffffffffffffff1916908160001a905350808061052090610aae565b91505061049e565b5050808061053590610c40565b915050610476565b5081935050505090565b600080600081548092919061055b90610aae565b91905055508142443360005460405160200161057a9493929190610d23565b6040516020818303038152906040528051906020012060001c61059d9190610da0565b9050919050565b6000603060f81b827effffffffffffffffffffffffffffffffffffffffffffffffffffffffffffff1916036105df57604160f81b90506107e8565b603160f81b827effffffffffffffffffffffffffffffffffffffffffffffffffffffffffffff19160361061857604260f81b90506107e8565b603260f81b827effffffffffffffffffffffffffffffffffffffffffffffffffffffffffffff19160361065157604360f81b90506107e8565b603360f81b827effffffffffffffffffffffffffffffffffffffffffffffffffffffffffffff19160361068a57604460f81b90506107e8565b603460f81b827effffffffffffffffffffffffffffffffffffffffffffffffffffffffffffff1916036106c357604560f81b90506107e8565b603560f81b827effffffffffffffffffffffffffffffffffffffffffffffffffffffffffffff1916036106fc57604660f81b90506107e8565b603660f81b827effffffffffffffffffffffffffffffffffffffffffffffffffffffffffffff19160361073557604760f81b90506107e8565b603760f81b827effffffffffffffffffffffffffffffffffffffffffffffffffffffffffffff19160361076e57604860f81b90506107e8565b603860f81b827effffffffffffffffffffffffffffffffffffffffffffffffffffffffffffff1916036107a757604960f81b90506107e8565b603960f81b827effffffffffffffffffffffffffffffffffffffffffffffffffffffffffffff1916036107e057604a60f81b90506107e8565b605a60f81b90505b919050565b6000604051905090565b600080fd5b600080fd5b6000819050919050565b61081481610801565b811461081f57600080fd5b50565b6000813590506108318161080b565b92915050565b60006020828403121561084d5761084c6107f7565b5b600061085b84828501610822565b91505092915050565b600081519050919050565b600082825260208201905092915050565b60005b8381101561089e578082015181840152602081019050610883565b838111156108ad576000848401525b50505050565b6000601f19601f8301169050919050565b60006108cf82610864565b6108d9818561086f565b93506108e9818560208601610880565b6108f2816108b3565b840191505092915050565b6000602082019050818103600083015261091781846108c4565b905092915050565b61092881610801565b82525050565b6000602082019050610943600083018461091f565b92915050565b7f4c656e6774682063616e6e6f742062652067726561746572207468616e203134600082015250565b600061097f60208361086f565b915061098a82610949565b602082019050919050565b600060208201905081810360008301526109ae81610972565b9050919050565b7f4c656e6774682063616e6e6f74206265205a65726f0000000000000000000000600082015250565b60006109eb60158361086f565b91506109f6826109b5565b602082019050919050565b60006020820190508181036000830152610a1a816109de565b9050919050565b7f4e487b7100000000000000000000000000000000000000000000000000000000600052604160045260246000fd5b7f4e487b7100000000000000000000000000000000000000000000000000000000600052603260045260246000fd5b7f4e487b7100000000000000000000000000000000000000000000000000000000600052601160045260246000fd5b6000610ab982610801565b91507fffffffffffffffffffffffffffffffffffffffffffffffffffffffffffffffff8203610aeb57610aea610a7f565b5b600182019050919050565b600080fd5b600080fd5b610b09826108b3565b810181811067ffffffffffffffff82111715610b2857610b27610a21565b5b80604052505050565b6000610b3b6107ed565b9050610b478282610b00565b919050565b600067ffffffffffffffff821115610b6757610b66610a21565b5b610b70826108b3565b9050602081019050919050565b6000610b90610b8b84610b4c565b610b31565b905082815260208101848484011115610bac57610bab610afb565b5b610bb7848285610880565b509392505050565b600082601f830112610bd457610bd3610af6565b5b8151610be4848260208601610b7d565b91505092915050565b600060208284031215610c0357610c026107f7565b5b600082015167ffffffffffffffff811115610c2157610c206107fc565b5b610c2d84828501610bbf565b91505092915050565b6000819050919050565b6000610c4b82610c36565b91507f7fffffffffffffffffffffffffffffffffffffffffffffffffffffffffffffff8203610c7d57610c7c610a7f565b5b600182019050919050565b6000819050919050565b610ca3610c9e82610801565b610c88565b82525050565b600073ffffffffffffffffffffffffffffffffffffffff82169050919050565b6000610cd482610ca9565b9050919050565b60008160601b9050919050565b6000610cf382610cdb565b9050919050565b6000610d0582610ce8565b9050919050565b610d1d610d1882610cc9565b610cfa565b82525050565b6000610d2f8287610c92565b602082019150610d3f8286610c92565b602082019150610d4f8285610d0c565b601482019150610d5f8284610c92565b60208201915081905095945050505050565b7f4e487b7100000000000000000000000000000000000000000000000000000000600052601260045260246000fd5b6000610dab82610801565b9150610db683610801565b925082610dc657610dc5610d71565b5b82820690509291505056fea26469706673582212204dc228c3d6e75aaa54989b98fc5e9a711667ac0a130ce7e2f6058d8be5a9b7a664736f6c634300080f0033",
  "immutableReferences": {},
  "source": "// SPDX-License-Identifier: MIT\npragma solidity ^0.8;\nimport \"@openzeppelin/contracts/utils/Strings.sol\";\nimport {Infrastructure} from \"./BusinessHelper/Infrastructure.sol\";\nimport {GRandom} from \"./BusinessHelper/GRandom.sol\";\n\ncontract X7Opsilon {\n\n    struct FileFrame {\n        string Id;\n        string Name;\n        string Extension;\n        bytes FileData;   \n    }\n\n    struct DirectoryFrame {\n        string Id;\n        string ParentId;\n        //directory path\n        string Directory;\n        //count of slash in directory\n        uint256 DirectoryCount;\n        //lenth of str directory\n        uint256 DirectoryLength;\n    }\n    \n    GRandom rand = new GRandom();\n    //data of files\n    FileFrame[] public FileFrames;\n    uint256 FileFramesCount = 0;\n    //data of directories\n    DirectoryFrame[] public DirectoryFrames;\n    uint256 DirectoryFrameCount = 0;\n\n    //directory must be started with slash character\n    //max length of each directory must be 230\n    error unsupportedDirectory();\n    //max length of fileName must be 230\n    //max length of extension must be 49\n    //can't find extension\n    //can't end with dot\n    error unsupportedFile();\n\n    // function uploadFile(\n    //    string calldata fullName,\n    //    string calldata directory,\n    //    bytes calldata fileData\n    // ) public payable {\n    //    string memory id = rand.uniqId();\n    //    (,string memory fixDirectory, uint256 directoryCount, uint256 directoryLength) = directoryProcess(directory); \n    //    (string memory extension, string memory fileName) = fileNameProcess(fullName);\n    //     FileFrames.push(FileFrame(\n    //        id,         \n    //        fileName,\n    //        extension,\n    //        fileData,\n    //        fixDirectory,\n    //        directoryCount,\n    //        directoryLength\n    //     ));\n    // }\n\n    //create new directory if not exist\n    function createDirectory(string memory directory) public payable returns(string memory)\n    {  \n        (string[] memory directories, string memory fixDirectory, uint256 directoryCount, uint256 directoryLength) = directoryProcess(directory);  \n        (bool isNull , DirectoryFrame memory directoryFrame) = getDirectory(fixDirectory,directoryCount, directoryLength);\n        // DirectoryFrame(id, parentId, fixDirectory, directoryCount, directoryLength)\n        //root folder    \n        if(isNull) {\n            if(directories.length == 0)\n             return \"\";\n            string memory id = rand.uniqId();  \n            string memory parentId = \"\";\n            if(directories.length > 1)\n            {\n                delete directories[directories.length - 1];\n                string memory f = Infrastructure.combine(directories);\n                parentId = createDirectory(f);\n            }\n            directoryFrame = DirectoryFrame(id, parentId, fixDirectory, directoryCount, directoryLength);\n            DirectoryFrames.push(DirectoryFrame(id, parentId, fixDirectory, directoryCount, directoryLength));\n            DirectoryFrameCount++;\n        }\n        return directoryFrame.Id;\n    }\n\n    function getDirectory(string memory fixDirectory, uint256 directoryCount, uint256 directoryLength) public view returns(bool isNull , DirectoryFrame memory)\n    {\n        bytes memory b_fixDirectory = bytes(fixDirectory);\n        isNull = true;\n        DirectoryFrame memory directoryFrame;\n        DirectoryFrame memory searchFrame;\n        for (uint256 i = 0;i < DirectoryFrameCount;i++){\n            searchFrame = DirectoryFrames[i];\n            if(searchFrame.DirectoryCount == directoryCount && searchFrame.DirectoryLength == directoryLength)\n            {\n                bytes memory directory = bytes(searchFrame.Directory);\n                if(Infrastructure.bytesEquals(directory,b_fixDirectory)) {\n                    directoryFrame = searchFrame;\n                    isNull = false;\n                }\n            }\n        }\n        return (isNull,directoryFrame);\n    }\n\n    function getDirectoriesByPath(string memory directory) public view returns (bool isNull, DirectoryFrame[] memory directories, uint256 count)\n    {\n        (, string memory fixDirectory, uint256 directoryCount, uint256 directoryLength) = directoryProcess(directory);\n        (bool d_isNull , DirectoryFrame memory d_directoryFrame) = getDirectory(fixDirectory,directoryCount, directoryLength);\n        bool rootDirectory = directoryCount == 0 && directoryLength == 0;\n        if(d_isNull && !rootDirectory) {\n           return (true, directories,0);\n        }\n        bytes memory directoryId = bytes(\"\");\n        if(!rootDirectory)\n            directoryId = bytes(d_directoryFrame.Id);\n        DirectoryFrame memory searchFrame;\n        uint256 i = 0;\n        count = 4;\n        directories = new DirectoryFrame[](count);\n        uint256 j = 0;\n        for (i = 0; i < DirectoryFrameCount;i++) {\n            if(i == count)\n            {\n                uint256 newCount =  count + 4;\n                directories = resizeDirectoryFrame(directories, count, newCount);\n            }\n            searchFrame = DirectoryFrames[i];\n            bytes memory parentId = bytes(searchFrame.ParentId);\n            if(Infrastructure.bytesEquals(directoryId,parentId)) {\n                d_isNull = false;\n                directories[j] = searchFrame;\n                j++;\n            }\n        }\n        return (false, directories, j);\n    }\n    \n    function resizeDirectoryFrame(DirectoryFrame[] memory df1, uint256 oldSize,uint256 newSize) private pure returns(DirectoryFrame[] memory)\n    {\n        DirectoryFrame[] memory df2 = new DirectoryFrame[](newSize);\n        for (uint256 i = 0;i < oldSize; i++)\n        {\n            df2[i] = df1[i];\n        }\n        return df2;\n    }\n    // function getFileName(uint _index) private view returns (string memory fileName) {\n    //     FileFrame storage fileFrame = FileFrames[_index];\n    //     return (fileFrame.Name);\n    // }\n\n    function directoryProcess(string memory directory)\n    public pure returns (string[] memory, string memory, uint256, uint256) \n    { \n        uint256 count = 0;\n        uint256 length = 0;\n        bytes memory b_directory = bytes(directory);\n        uint256 b_directoryLength = b_directory.length;\n        bytes memory fixedchars_directory = new bytes(b_directory.length);\n        if(b_directory[0] != 0x2f)\n        {\n            revert unsupportedDirectory();\n        }\n        for(uint i = 1; i < b_directoryLength; i++)\n        {\n            if(i == (b_directoryLength - 1) && b_directory[i] == 0x2f)\n            {\n                continue;\n            }\n            if(b_directory[i] == 0x2f)\n            {\n                count++;\n            }\n            fixedchars_directory[length] = b_directory[i];\n            length++;\n        }\n        bytes memory strResult = new bytes(length);\n        bytes memory resultName = new bytes(250);\n        uint256 nameCount = 0;\n        uint directoryIndex = 0;\n        string[] memory resultDirectories = new string[](count + 1);\n        for(uint i = 0; i < length; i++)\n        {\n            bytes1 b_char = fixedchars_directory[i];\n            bool lastIndex = i == (length - 1);\n            bool isSlash = (b_char == 0x2f);\n            if(!isSlash) \n            {\n                resultName[nameCount] = b_char;\n                nameCount++;\n            }  \n            if(isSlash || lastIndex)\n            {\n                resultDirectories[directoryIndex] = (string(Infrastructure.copyBytes(resultName,nameCount)));\n                directoryIndex++;\n                nameCount= 0;\n            }      \n            if(nameCount > 230)\n            {\n                revert unsupportedDirectory();\n            }\n            strResult[i] = b_char;\n        }\n        return(resultDirectories,string(strResult), count, length);\n    }\n\n    function fileNameProcess(string memory fullName) public pure returns(string memory, string memory){\n        bytes memory b_fullName = bytes(fullName);\n        bytes memory extension = new bytes(50);\n        if(b_fullName.length > 230){\n            revert unsupportedFile();\n        }\n        uint extensionCount = 0;\n        uint i = (b_fullName.length - 1);\n        if(b_fullName[i] == 0x2E){\n            revert unsupportedFile();\n        }\n        for(;;i--)\n        {         \n            bytes1 b_char = b_fullName[i];\n            if(b_char == 0x2E)\n            {\n                break;\n            }\n            if(extensionCount > 49){\n                revert unsupportedFile();\n            }   \n            extension[extensionCount] = b_char;\n            extensionCount++;\n            if(i == 0)\n            {\n                revert unsupportedFile();\n            }\n        }\n        extension = Infrastructure.copyBytes(extension,extensionCount);\n        extension = Infrastructure.reverseBytes(extension);\n        uint256 nameCount = (b_fullName.length - extensionCount -1);\n        bytes memory fileName = Infrastructure.copyBytes(b_fullName,nameCount);\n        return (string(extension), string(fileName));\n    }\n\n    function getNewId() private view returns (string memory newId){\n        return (Strings.toString(block.timestamp));\n    } \n}",
  "sourcePath": "C:\\Amir\\X7Opsilon\\smart_contract\\contracts\\X7Opsilon.sol",
  "compiler": {
    "name": "solc",
    "version": "0.8.15+commit.e14f2714.Emscripten.clang"
  },
  "schemaVersion": "3.4.14",
  "updatedAt": "2023-07-19T22:02:02.181Z",
  "networkType": "ethereum",
  "devdoc": {
    "kind": "dev",
    "methods": {},
    "version": 1
  },
  "userdoc": {
    "kind": "user",
    "methods": {},
    "version": 1
  }
}