{
	"data": {
		"bytecode": {
			"linkReferences": {
				"XOpsilon Contract/BusinessHelper/Infrastructure.sol": {
					"Infrastructure": [
						{
							"length": 20,
							"start": 2723
						},
						{
							"length": 20,
							"start": 6836
						},
						{
							"length": 20,
							"start": 7607
						}
					]
				}
			},
			"object": "60806040526040518060400160405280600981526020017f225c2f5d3a3f3c3e7c0000000000000000000000000000000000000000000000815250600090816200004a919062000380565b507f2e00000000000000000000000000000000000000000000000000000000000000600160006101000a81548160ff021916908360f81c021790555060006003553480156200009857600080fd5b5060405162002d5c38038062002d5c8339818101604052810190620000be9190620004e5565b80600460006101000a81548173ffffffffffffffffffffffffffffffffffffffff021916908373ffffffffffffffffffffffffffffffffffffffff1602179055505062000517565b600081519050919050565b7f4e487b7100000000000000000000000000000000000000000000000000000000600052604160045260246000fd5b7f4e487b7100000000000000000000000000000000000000000000000000000000600052602260045260246000fd5b600060028204905060018216806200018857607f821691505b6020821081036200019e576200019d62000140565b5b50919050565b60008190508160005260206000209050919050565b60006020601f8301049050919050565b600082821b905092915050565b600060088302620002087fffffffffffffffffffffffffffffffffffffffffffffffffffffffffffffffff82620001c9565b620002148683620001c9565b95508019841693508086168417925050509392505050565b6000819050919050565b6000819050919050565b6000620002616200025b62000255846200022c565b62000236565b6200022c565b9050919050565b6000819050919050565b6200027d8362000240565b620002956200028c8262000268565b848454620001d6565b825550505050565b600090565b620002ac6200029d565b620002b981848462000272565b505050565b5b81811015620002e157620002d5600082620002a2565b600181019050620002bf565b5050565b601f8211156200033057620002fa81620001a4565b6200030584620001b9565b8101602085101562000315578190505b6200032d6200032485620001b9565b830182620002be565b50505b505050565b600082821c905092915050565b6000620003556000198460080262000335565b1980831691505092915050565b600062000370838362000342565b9150826002028217905092915050565b6200038b8262000106565b67ffffffffffffffff811115620003a757620003a662000111565b5b620003b382546200016f565b620003c0828285620002e5565b600060209050601f831160018114620003f85760008415620003e3578287015190505b620003ef858262000362565b8655506200045f565b601f1984166200040886620001a4565b60005b8281101562000432578489015182556001820191506020850194506020810190506200040b565b868310156200045257848901516200044e601f89168262000342565b8355505b6001600288020188555050505b505050505050565b600080fd5b600073ffffffffffffffffffffffffffffffffffffffff82169050919050565b600062000499826200046c565b9050919050565b6000620004ad826200048c565b9050919050565b620004bf81620004a0565b8114620004cb57600080fd5b50565b600081519050620004df81620004b4565b92915050565b600060208284031215620004fe57620004fd62000467565b5b60006200050e84828501620004ce565b91505092915050565b61283580620005276000396000f3fe60806040526004361061007b5760003560e01c8063679c7ccb1161004e578063679c7ccb1461015c578063929ad6c21461018c578063976c1255146101c9578063f0c76ccc146101e55761007b565b806304c9416914610080578063079cf76e146100be57806346bc7fd9146100fc57806349b1cea81461012c575b600080fd5b34801561008c57600080fd5b506100a760048036038101906100a29190611aef565b610223565b6040516100b5929190611dba565b60405180910390f35b3480156100ca57600080fd5b506100e560048036038101906100e09190611e1d565b61064c565b6040516100f3929190611ee9565b60405180910390f35b61011660048036038101906101119190611f19565b61091a565b6040516101239190611fee565b60405180910390f35b61014660048036038101906101419190611e1d565b610f81565b6040516101539190612010565b60405180910390f35b61017660048036038101906101719190611aef565b61132e565b6040516101839190612032565b60405180910390f35b34801561019857600080fd5b506101b360048036038101906101ae9190612054565b6113d3565b6040516101c09190612010565b60405180910390f35b6101e360048036038101906101de919061217a565b61144f565b005b3480156101f157600080fd5b5061020c60048036038101906102079190611aef565b611490565b60405161021a9291906121f2565b60405180910390f35b606061022d611928565b600061023884611624565b5090508015610273576040517f5982e5ed00000000000000000000000000000000000000000000000000000000815260040160405180910390fd5b60008061027f86611490565b9150915081156102bb576040517f52be588100000000000000000000000000000000000000000000000000000000815260040160405180910390fd5b6000816040015167ffffffffffffffff8111156102db576102da6119c4565b5b60405190808252806020026020018201604052801561031457816020015b610301611950565b8152602001906001900390816102f95790505b50905060008088905060005b60035481101561063a576000600282815481106103405761033f612222565b5b90600052602060002090600502016040518060a001604052908160008201805461036990612280565b80601f016020809104026020016040519081016040528092919081815260200182805461039590612280565b80156103e25780601f106103b7576101008083540402835291602001916103e2565b820191906000526020600020905b8154815290600101906020018083116103c557829003601f168201915b505050505081526020016001820180546103fb90612280565b80601f016020809104026020016040519081016040528092919081815260200182805461042790612280565b80156104745780601f1061044957610100808354040283529160200191610474565b820191906000526020600020905b81548152906001019060200180831161045757829003601f168201915b5050505050815260200160028201805461048d90612280565b80601f01602080910402602001604051908101604052809291908181526020018280546104b990612280565b80156105065780601f106104db57610100808354040283529160200191610506565b820191906000526020600020905b8154815290600101906020018083116104e957829003601f168201915b505050505081526020016003820160009054906101000a900473ffffffffffffffffffffffffffffffffffffffff1673ffffffffffffffffffffffffffffffffffffffff1673ffffffffffffffffffffffffffffffffffffffff168152602001600482015481525050905060008160200151905073__$c19534d23909fd782fd410b08e91721b67$__637da4831785836040518363ffffffff1660e01b81526004016105b3929190612306565b602060405180830381865af41580156105d0573d6000803e3d6000fd5b505050506040513d601f19601f820116820180604052508101906105f49190612369565b156106255781868680610606906123c5565b97508151811061061957610618612222565b5b60200260200101819052505b50508080610632906123c5565b915050610320565b50828497509750505050505050915091565b6000610656611950565b6000600560008573ffffffffffffffffffffffffffffffffffffffff1673ffffffffffffffffffffffffffffffffffffffff1681526020019081526020016000206040518060a00160405290816000820180546106b290612280565b80601f01602080910402602001604051908101604052809291908181526020018280546106de90612280565b801561072b5780601f106107005761010080835404028352916020019161072b565b820191906000526020600020905b81548152906001019060200180831161070e57829003601f168201915b5050505050815260200160018201805461074490612280565b80601f016020809104026020016040519081016040528092919081815260200182805461077090612280565b80156107bd5780601f10610792576101008083540402835291602001916107bd565b820191906000526020600020905b8154815290600101906020018083116107a057829003601f168201915b505050505081526020016002820180546107d690612280565b80601f016020809104026020016040519081016040528092919081815260200182805461080290612280565b801561084f5780601f106108245761010080835404028352916020019161084f565b820191906000526020600020905b81548152906001019060200180831161083257829003601f168201915b505050505081526020016003820160009054906101000a900473ffffffffffffffffffffffffffffffffffffffff1673ffffffffffffffffffffffffffffffffffffffff1673ffffffffffffffffffffffffffffffffffffffff1681526020016004820154815250509050600081600001515114806108fe57508373ffffffffffffffffffffffffffffffffffffffff16816060015173ffffffffffffffffffffffffffffffffffffffff1614155b1561090c5760019250610914565b809150600092505b50915091565b6060826001600082905060006001905060e682511115610966576040517fc96b3aa100000000000000000000000000000000000000000000000000000000815260040160405180910390fd5b600082510361097457600090505b8215610a1f5760005b8251811015610a1957600160009054906101000a900460f81b7effffffffffffffffffffffffffffffffffffffffffffffffffffffffffffff19168382815181106109cb576109ca612222565b5b602001015160f81c60f81b7effffffffffffffffffffffffffffffffffffffffffffffffffffffffffffff191603610a065760009150610a19565b8080610a11906123c5565b91505061097d565b50610b4d565b6000905060005b8251811015610ac257600160009054906101000a900460f81b7effffffffffffffffffffffffffffffffffffffffffffffffffffffffffffff1916838281518110610a7457610a73612222565b5b602001015160f81c60f81b7effffffffffffffffffffffffffffffffffffffffffffffffffffffffffffff191603610aaf5760019150610ac2565b8080610aba906123c5565b915050610a26565b50600160009054906101000a900460f81b7effffffffffffffffffffffffffffffffffffffffffffffffffffffffffffff19168260018451610b04919061240d565b81518110610b1557610b14612222565b5b602001015160f81c60f81b7effffffffffffffffffffffffffffffffffffffffffffffffffffffffffffff191603610b4c57600090505b5b60005b8251811015610c715760005b60008054610b6990612280565b9050811015610c57576000818154610b8090612280565b8110610b8f57610b8e612222565b5b815460011615610bae5790600052602060002090602091828204019190065b9054901a7f0100000000000000000000000000000000000000000000000000000000000000027effffffffffffffffffffffffffffffffffffffffffffffffffffffffffffff1916848381518110610c0957610c08612222565b5b602001015160f81c60f81b7effffffffffffffffffffffffffffffffffffffffffffffffffffffffffffff191603610c445760009250610c57565b8080610c4f906123c5565b915050610b5c565b508115610c71578080610c69906123c5565b915050610b50565b508015610f44576000610c8489886113d3565b90506000600460009054906101000a900473ffffffffffffffffffffffffffffffffffffffff1673ffffffffffffffffffffffffffffffffffffffff1663a36885466040518163ffffffff1660e01b81526004016000604051808303816000875af1158015610cf7573d6000803e3d6000fd5b505050506040513d6000823e3d601f19601f82011682018060405250810190610d2091906124b1565b905060006040518060a00160405280838152602001846000015181526020018b81526020018c73ffffffffffffffffffffffffffffffffffffffff16815260200142815250905060028190806001815401808255809150506001900390600052602060002090600502016000909190919091506000820151816000019081610da891906126a6565b506020820151816001019081610dbe91906126a6565b506040820151816002019081610dd491906126a6565b5060608201518160030160006101000a81548173ffffffffffffffffffffffffffffffffffffffff021916908373ffffffffffffffffffffffffffffffffffffffff16021790555060808201518160040155505060036000815480929190610e3b906123c5565b919050555080600783604051610e5191906127b4565b90815260200160405180910390206000820151816000019081610e7491906126a6565b506020820151816001019081610e8a91906126a6565b506040820151816002019081610ea091906126a6565b5060608201518160030160006101000a81548173ffffffffffffffffffffffffffffffffffffffff021916908373ffffffffffffffffffffffffffffffffffffffff16021790555060808201518160040155905050610efe8261132e565b506000610f0e846000015161132e565b905060018160400151610f2191906127cb565b816040018181525050610f3884600001518261144f565b82985050505050610f76565b6040517fb5d012b400000000000000000000000000000000000000000000000000000000815260040160405180910390fd5b505050509392505050565b610f89611950565b600080610f958461064c565b915091508115611324576000600460009054906101000a900473ffffffffffffffffffffffffffffffffffffffff1673ffffffffffffffffffffffffffffffffffffffff1663a36885466040518163ffffffff1660e01b81526004016000604051808303816000875af1158015611010573d6000803e3d6000fd5b505050506040513d6000823e3d601f19601f8201168201806040525081019061103991906124b1565b90506040518060a001604052808281526020016040518060400160405280600481526020017f726f6f740000000000000000000000000000000000000000000000000000000081525081526020016040518060200160405280600081525081526020018673ffffffffffffffffffffffffffffffffffffffff168152602001428152509150600282908060018154018082558091505060019003906000526020600020906005020160009091909190915060008201518160000190816110ff91906126a6565b50602082015181600101908161111591906126a6565b50604082015181600201908161112b91906126a6565b5060608201518160030160006101000a81548173ffffffffffffffffffffffffffffffffffffffff021916908373ffffffffffffffffffffffffffffffffffffffff16021790555060808201518160040155505060036000815480929190611192906123c5565b919050555081600560008773ffffffffffffffffffffffffffffffffffffffff1673ffffffffffffffffffffffffffffffffffffffff16815260200190815260200160002060008201518160000190816111ec91906126a6565b50602082015181600101908161120291906126a6565b50604082015181600201908161121891906126a6565b5060608201518160030160006101000a81548173ffffffffffffffffffffffffffffffffffffffff021916908373ffffffffffffffffffffffffffffffffffffffff160217905550608082015181600401559050508160078260405161127e91906127b4565b908152602001604051809103902060008201518160000190816112a191906126a6565b5060208201518160010190816112b791906126a6565b5060408201518160020190816112cd91906126a6565b5060608201518160030160006101000a81548173ffffffffffffffffffffffffffffffffffffffff021916908373ffffffffffffffffffffffffffffffffffffffff16021790555060808201518160040155905050505b8092505050919050565b611336611928565b60008061134284611490565b9150915081156113c95760405180608001604052808581526020016000815260200160008152602001600081525090508060068560405161138391906127b4565b908152602001604051809103902060008201518160000190816113a691906126a6565b506020820151816001015560408201518160020155606082015181600301559050505b8092505050919050565b6113db611950565b600082905060008151036113fa576113f284610f81565b915050611449565b60008061140685611624565b915091508115611442576040517f5982e5ed00000000000000000000000000000000000000000000000000000000815260040160405180910390fd5b8093505050505b92915050565b600060068360405161146191906127b4565b908152602001604051809103902090508160400151816002018190555081602001518160010181905550505050565b600061149a611928565b60006006846040516114ac91906127b4565b90815260200160405180910390206040518060800160405290816000820180546114d590612280565b80601f016020809104026020016040519081016040528092919081815260200182805461150190612280565b801561154e5780601f106115235761010080835404028352916020019161154e565b820191906000526020600020905b81548152906001019060200180831161153157829003601f168201915b5050505050815260200160018201548152602001600282015481526020016003820154815250509050600081600001519050600081511480611607575073__$c19534d23909fd782fd410b08e91721b67$__637da4831782876040518363ffffffff1660e01b81526004016115c4929190612306565b602060405180830381865af41580156115e1573d6000803e3d6000fd5b505050506040513d601f19601f820116820180604052508101906116059190612369565b155b15611615576001935061161d565b819250600093505b5050915091565b600061162e611950565b600060078460405161164091906127b4565b90815260200160405180910390206040518060a001604052908160008201805461166990612280565b80601f016020809104026020016040519081016040528092919081815260200182805461169590612280565b80156116e25780601f106116b7576101008083540402835291602001916116e2565b820191906000526020600020905b8154815290600101906020018083116116c557829003601f168201915b505050505081526020016001820180546116fb90612280565b80601f016020809104026020016040519081016040528092919081815260200182805461172790612280565b80156117745780601f1061174957610100808354040283529160200191611774565b820191906000526020600020905b81548152906001019060200180831161175757829003601f168201915b5050505050815260200160028201805461178d90612280565b80601f01602080910402602001604051908101604052809291908181526020018280546117b990612280565b80156118065780601f106117db57610100808354040283529160200191611806565b820191906000526020600020905b8154815290600101906020018083116117e957829003601f168201915b505050505081526020016003820160009054906101000a900473ffffffffffffffffffffffffffffffffffffffff1673ffffffffffffffffffffffffffffffffffffffff1673ffffffffffffffffffffffffffffffffffffffff168152602001600482015481525050905060008160000151905060008260000151905060008151148061190a575073__$c19534d23909fd782fd410b08e91721b67$__637da4831782846040518363ffffffff1660e01b81526004016118c7929190612306565b602060405180830381865af41580156118e4573d6000803e3d6000fd5b505050506040513d601f19601f820116820180604052508101906119089190612369565b155b156119185760019450611920565b829350600094505b505050915091565b6040518060800160405280606081526020016000815260200160008152602001600081525090565b6040518060a00160405280606081526020016060815260200160608152602001600073ffffffffffffffffffffffffffffffffffffffff168152602001600081525090565b6000604051905090565b600080fd5b600080fd5b600080fd5b600080fd5b6000601f19601f8301169050919050565b7f4e487b7100000000000000000000000000000000000000000000000000000000600052604160045260246000fd5b6119fc826119b3565b810181811067ffffffffffffffff82111715611a1b57611a1a6119c4565b5b80604052505050565b6000611a2e611995565b9050611a3a82826119f3565b919050565b600067ffffffffffffffff821115611a5a57611a596119c4565b5b611a63826119b3565b9050602081019050919050565b82818337600083830152505050565b6000611a92611a8d84611a3f565b611a24565b905082815260208101848484011115611aae57611aad6119ae565b5b611ab9848285611a70565b509392505050565b600082601f830112611ad657611ad56119a9565b5b8135611ae6848260208601611a7f565b91505092915050565b600060208284031215611b0557611b0461199f565b5b600082013567ffffffffffffffff811115611b2357611b226119a4565b5b611b2f84828501611ac1565b91505092915050565b600081519050919050565b600082825260208201905092915050565b6000819050602082019050919050565b600081519050919050565b600082825260208201905092915050565b60005b83811015611b9e578082015181840152602081019050611b83565b60008484015250505050565b6000611bb582611b64565b611bbf8185611b6f565b9350611bcf818560208601611b80565b611bd8816119b3565b840191505092915050565b600073ffffffffffffffffffffffffffffffffffffffff82169050919050565b6000611c0e82611be3565b9050919050565b611c1e81611c03565b82525050565b6000819050919050565b611c3781611c24565b82525050565b600060a0830160008301518482036000860152611c5a8282611baa565b91505060208301518482036020860152611c748282611baa565b91505060408301518482036040860152611c8e8282611baa565b9150506060830151611ca36060860182611c15565b506080830151611cb66080860182611c2e565b508091505092915050565b6000611ccd8383611c3d565b905092915050565b6000602082019050919050565b6000611ced82611b38565b611cf78185611b43565b935083602082028501611d0985611b54565b8060005b85811015611d455784840389528151611d268582611cc1565b9450611d3183611cd5565b925060208a01995050600181019050611d0d565b50829750879550505050505092915050565b60006080830160008301518482036000860152611d748282611baa565b9150506020830151611d896020860182611c2e565b506040830151611d9c6040860182611c2e565b506060830151611daf6060860182611c2e565b508091505092915050565b60006040820190508181036000830152611dd48185611ce2565b90508181036020830152611de88184611d57565b90509392505050565b611dfa81611c03565b8114611e0557600080fd5b50565b600081359050611e1781611df1565b92915050565b600060208284031215611e3357611e3261199f565b5b6000611e4184828501611e08565b91505092915050565b60008115159050919050565b611e5f81611e4a565b82525050565b600060a0830160008301518482036000860152611e828282611baa565b91505060208301518482036020860152611e9c8282611baa565b91505060408301518482036040860152611eb68282611baa565b9150506060830151611ecb6060860182611c15565b506080830151611ede6080860182611c2e565b508091505092915050565b6000604082019050611efe6000830185611e56565b8181036020830152611f108184611e65565b90509392505050565b600080600060608486031215611f3257611f3161199f565b5b6000611f4086828701611e08565b935050602084013567ffffffffffffffff811115611f6157611f606119a4565b5b611f6d86828701611ac1565b925050604084013567ffffffffffffffff811115611f8e57611f8d6119a4565b5b611f9a86828701611ac1565b9150509250925092565b600082825260208201905092915050565b6000611fc082611b64565b611fca8185611fa4565b9350611fda818560208601611b80565b611fe3816119b3565b840191505092915050565b600060208201905081810360008301526120088184611fb5565b905092915050565b6000602082019050818103600083015261202a8184611e65565b905092915050565b6000602082019050818103600083015261204c8184611d57565b905092915050565b6000806040838503121561206b5761206a61199f565b5b600061207985828601611e08565b925050602083013567ffffffffffffffff81111561209a576120996119a4565b5b6120a685828601611ac1565b9150509250929050565b600080fd5b600080fd5b6120c381611c24565b81146120ce57600080fd5b50565b6000813590506120e0816120ba565b92915050565b6000608082840312156120fc576120fb6120b0565b5b6121066080611a24565b9050600082013567ffffffffffffffff811115612126576121256120b5565b5b61213284828501611ac1565b6000830152506020612146848285016120d1565b602083015250604061215a848285016120d1565b604083015250606061216e848285016120d1565b60608301525092915050565b600080604083850312156121915761219061199f565b5b600083013567ffffffffffffffff8111156121af576121ae6119a4565b5b6121bb85828601611ac1565b925050602083013567ffffffffffffffff8111156121dc576121db6119a4565b5b6121e8858286016120e6565b9150509250929050565b60006040820190506122076000830185611e56565b81810360208301526122198184611d57565b90509392505050565b7f4e487b7100000000000000000000000000000000000000000000000000000000600052603260045260246000fd5b7f4e487b7100000000000000000000000000000000000000000000000000000000600052602260045260246000fd5b6000600282049050600182168061229857607f821691505b6020821081036122ab576122aa612251565b5b50919050565b600081519050919050565b600082825260208201905092915050565b60006122d8826122b1565b6122e281856122bc565b93506122f2818560208601611b80565b6122fb816119b3565b840191505092915050565b6000604082019050818103600083015261232081856122cd565b9050818103602083015261233481846122cd565b90509392505050565b61234681611e4a565b811461235157600080fd5b50565b6000815190506123638161233d565b92915050565b60006020828403121561237f5761237e61199f565b5b600061238d84828501612354565b91505092915050565b7f4e487b7100000000000000000000000000000000000000000000000000000000600052601160045260246000fd5b60006123d082611c24565b91507fffffffffffffffffffffffffffffffffffffffffffffffffffffffffffffffff820361240257612401612396565b5b600182019050919050565b600061241882611c24565b915061242383611c24565b925082820390508181111561243b5761243a612396565b5b92915050565b600061245461244f84611a3f565b611a24565b9050828152602081018484840111156124705761246f6119ae565b5b61247b848285611b80565b509392505050565b600082601f830112612498576124976119a9565b5b81516124a8848260208601612441565b91505092915050565b6000602082840312156124c7576124c661199f565b5b600082015167ffffffffffffffff8111156124e5576124e46119a4565b5b6124f184828501612483565b91505092915050565b60008190508160005260206000209050919050565b60006020601f8301049050919050565b600082821b905092915050565b60006008830261255c7fffffffffffffffffffffffffffffffffffffffffffffffffffffffffffffffff8261251f565b612566868361251f565b95508019841693508086168417925050509392505050565b6000819050919050565b60006125a361259e61259984611c24565b61257e565b611c24565b9050919050565b6000819050919050565b6125bd83612588565b6125d16125c9826125aa565b84845461252c565b825550505050565b600090565b6125e66125d9565b6125f18184846125b4565b505050565b5b818110156126155761260a6000826125de565b6001810190506125f7565b5050565b601f82111561265a5761262b816124fa565b6126348461250f565b81016020851015612643578190505b61265761264f8561250f565b8301826125f6565b50505b505050565b600082821c905092915050565b600061267d6000198460080261265f565b1980831691505092915050565b6000612696838361266c565b9150826002028217905092915050565b6126af82611b64565b67ffffffffffffffff8111156126c8576126c76119c4565b5b6126d28254612280565b6126dd828285612619565b600060209050601f83116001811461271057600084156126fe578287015190505b612708858261268a565b865550612770565b601f19841661271e866124fa565b60005b8281101561274657848901518255600182019150602085019450602081019050612721565b86831015612763578489015161275f601f89168261266c565b8355505b6001600288020188555050505b505050505050565b600081905092915050565b600061278e82611b64565b6127988185612778565b93506127a8818560208601611b80565b80840191505092915050565b60006127c08284612783565b915081905092915050565b60006127d682611c24565b91506127e183611c24565b92508282019050808211156127f9576127f8612396565b5b9291505056fea264697066735822122018c20a6543056ca674778571cbbb286b3abe9e4df0cf0fd1eb0539283f55a50664736f6c63430008120033",
			"opcodes": "PUSH1 0x80 PUSH1 0x40 MSTORE PUSH1 0x40 MLOAD DUP1 PUSH1 0x40 ADD PUSH1 0x40 MSTORE DUP1 PUSH1 0x9 DUP2 MSTORE PUSH1 0x20 ADD PUSH32 0x225C2F5D3A3F3C3E7C0000000000000000000000000000000000000000000000 DUP2 MSTORE POP PUSH1 0x0 SWAP1 DUP2 PUSH3 0x4A SWAP2 SWAP1 PUSH3 0x380 JUMP JUMPDEST POP PUSH32 0x2E00000000000000000000000000000000000000000000000000000000000000 PUSH1 0x1 PUSH1 0x0 PUSH2 0x100 EXP DUP2 SLOAD DUP2 PUSH1 0xFF MUL NOT AND SWAP1 DUP4 PUSH1 0xF8 SHR MUL OR SWAP1 SSTORE POP PUSH1 0x0 PUSH1 0x3 SSTORE CALLVALUE DUP1 ISZERO PUSH3 0x98 JUMPI PUSH1 0x0 DUP1 REVERT JUMPDEST POP PUSH1 0x40 MLOAD PUSH3 0x2D5C CODESIZE SUB DUP1 PUSH3 0x2D5C DUP4 CODECOPY DUP2 DUP2 ADD PUSH1 0x40 MSTORE DUP2 ADD SWAP1 PUSH3 0xBE SWAP2 SWAP1 PUSH3 0x4E5 JUMP JUMPDEST DUP1 PUSH1 0x4 PUSH1 0x0 PUSH2 0x100 EXP DUP2 SLOAD DUP2 PUSH20 0xFFFFFFFFFFFFFFFFFFFFFFFFFFFFFFFFFFFFFFFF MUL NOT AND SWAP1 DUP4 PUSH20 0xFFFFFFFFFFFFFFFFFFFFFFFFFFFFFFFFFFFFFFFF AND MUL OR SWAP1 SSTORE POP POP PUSH3 0x517 JUMP JUMPDEST PUSH1 0x0 DUP2 MLOAD SWAP1 POP SWAP2 SWAP1 POP JUMP JUMPDEST PUSH32 0x4E487B7100000000000000000000000000000000000000000000000000000000 PUSH1 0x0 MSTORE PUSH1 0x41 PUSH1 0x4 MSTORE PUSH1 0x24 PUSH1 0x0 REVERT JUMPDEST PUSH32 0x4E487B7100000000000000000000000000000000000000000000000000000000 PUSH1 0x0 MSTORE PUSH1 0x22 PUSH1 0x4 MSTORE PUSH1 0x24 PUSH1 0x0 REVERT JUMPDEST PUSH1 0x0 PUSH1 0x2 DUP3 DIV SWAP1 POP PUSH1 0x1 DUP3 AND DUP1 PUSH3 0x188 JUMPI PUSH1 0x7F DUP3 AND SWAP2 POP JUMPDEST PUSH1 0x20 DUP3 LT DUP2 SUB PUSH3 0x19E JUMPI PUSH3 0x19D PUSH3 0x140 JUMP JUMPDEST JUMPDEST POP SWAP2 SWAP1 POP JUMP JUMPDEST PUSH1 0x0 DUP2 SWAP1 POP DUP2 PUSH1 0x0 MSTORE PUSH1 0x20 PUSH1 0x0 KECCAK256 SWAP1 POP SWAP2 SWAP1 POP JUMP JUMPDEST PUSH1 0x0 PUSH1 0x20 PUSH1 0x1F DUP4 ADD DIV SWAP1 POP SWAP2 SWAP1 POP JUMP JUMPDEST PUSH1 0x0 DUP3 DUP3 SHL SWAP1 POP SWAP3 SWAP2 POP POP JUMP JUMPDEST PUSH1 0x0 PUSH1 0x8 DUP4 MUL PUSH3 0x208 PUSH32 0xFFFFFFFFFFFFFFFFFFFFFFFFFFFFFFFFFFFFFFFFFFFFFFFFFFFFFFFFFFFFFFFF DUP3 PUSH3 0x1C9 JUMP JUMPDEST PUSH3 0x214 DUP7 DUP4 PUSH3 0x1C9 JUMP JUMPDEST SWAP6 POP DUP1 NOT DUP5 AND SWAP4 POP DUP1 DUP7 AND DUP5 OR SWAP3 POP POP POP SWAP4 SWAP3 POP POP POP JUMP JUMPDEST PUSH1 0x0 DUP2 SWAP1 POP SWAP2 SWAP1 POP JUMP JUMPDEST PUSH1 0x0 DUP2 SWAP1 POP SWAP2 SWAP1 POP JUMP JUMPDEST PUSH1 0x0 PUSH3 0x261 PUSH3 0x25B PUSH3 0x255 DUP5 PUSH3 0x22C JUMP JUMPDEST PUSH3 0x236 JUMP JUMPDEST PUSH3 0x22C JUMP JUMPDEST SWAP1 POP SWAP2 SWAP1 POP JUMP JUMPDEST PUSH1 0x0 DUP2 SWAP1 POP SWAP2 SWAP1 POP JUMP JUMPDEST PUSH3 0x27D DUP4 PUSH3 0x240 JUMP JUMPDEST PUSH3 0x295 PUSH3 0x28C DUP3 PUSH3 0x268 JUMP JUMPDEST DUP5 DUP5 SLOAD PUSH3 0x1D6 JUMP JUMPDEST DUP3 SSTORE POP POP POP POP JUMP JUMPDEST PUSH1 0x0 SWAP1 JUMP JUMPDEST PUSH3 0x2AC PUSH3 0x29D JUMP JUMPDEST PUSH3 0x2B9 DUP2 DUP5 DUP5 PUSH3 0x272 JUMP JUMPDEST POP POP POP JUMP JUMPDEST JUMPDEST DUP2 DUP2 LT ISZERO PUSH3 0x2E1 JUMPI PUSH3 0x2D5 PUSH1 0x0 DUP3 PUSH3 0x2A2 JUMP JUMPDEST PUSH1 0x1 DUP2 ADD SWAP1 POP PUSH3 0x2BF JUMP JUMPDEST POP POP JUMP JUMPDEST PUSH1 0x1F DUP3 GT ISZERO PUSH3 0x330 JUMPI PUSH3 0x2FA DUP2 PUSH3 0x1A4 JUMP JUMPDEST PUSH3 0x305 DUP5 PUSH3 0x1B9 JUMP JUMPDEST DUP2 ADD PUSH1 0x20 DUP6 LT ISZERO PUSH3 0x315 JUMPI DUP2 SWAP1 POP JUMPDEST PUSH3 0x32D PUSH3 0x324 DUP6 PUSH3 0x1B9 JUMP JUMPDEST DUP4 ADD DUP3 PUSH3 0x2BE JUMP JUMPDEST POP POP JUMPDEST POP POP POP JUMP JUMPDEST PUSH1 0x0 DUP3 DUP3 SHR SWAP1 POP SWAP3 SWAP2 POP POP JUMP JUMPDEST PUSH1 0x0 PUSH3 0x355 PUSH1 0x0 NOT DUP5 PUSH1 0x8 MUL PUSH3 0x335 JUMP JUMPDEST NOT DUP1 DUP4 AND SWAP2 POP POP SWAP3 SWAP2 POP POP JUMP JUMPDEST PUSH1 0x0 PUSH3 0x370 DUP4 DUP4 PUSH3 0x342 JUMP JUMPDEST SWAP2 POP DUP3 PUSH1 0x2 MUL DUP3 OR SWAP1 POP SWAP3 SWAP2 POP POP JUMP JUMPDEST PUSH3 0x38B DUP3 PUSH3 0x106 JUMP JUMPDEST PUSH8 0xFFFFFFFFFFFFFFFF DUP2 GT ISZERO PUSH3 0x3A7 JUMPI PUSH3 0x3A6 PUSH3 0x111 JUMP JUMPDEST JUMPDEST PUSH3 0x3B3 DUP3 SLOAD PUSH3 0x16F JUMP JUMPDEST PUSH3 0x3C0 DUP3 DUP3 DUP6 PUSH3 0x2E5 JUMP JUMPDEST PUSH1 0x0 PUSH1 0x20 SWAP1 POP PUSH1 0x1F DUP4 GT PUSH1 0x1 DUP2 EQ PUSH3 0x3F8 JUMPI PUSH1 0x0 DUP5 ISZERO PUSH3 0x3E3 JUMPI DUP3 DUP8 ADD MLOAD SWAP1 POP JUMPDEST PUSH3 0x3EF DUP6 DUP3 PUSH3 0x362 JUMP JUMPDEST DUP7 SSTORE POP PUSH3 0x45F JUMP JUMPDEST PUSH1 0x1F NOT DUP5 AND PUSH3 0x408 DUP7 PUSH3 0x1A4 JUMP JUMPDEST PUSH1 0x0 JUMPDEST DUP3 DUP2 LT ISZERO PUSH3 0x432 JUMPI DUP5 DUP10 ADD MLOAD DUP3 SSTORE PUSH1 0x1 DUP3 ADD SWAP2 POP PUSH1 0x20 DUP6 ADD SWAP5 POP PUSH1 0x20 DUP2 ADD SWAP1 POP PUSH3 0x40B JUMP JUMPDEST DUP7 DUP4 LT ISZERO PUSH3 0x452 JUMPI DUP5 DUP10 ADD MLOAD PUSH3 0x44E PUSH1 0x1F DUP10 AND DUP3 PUSH3 0x342 JUMP JUMPDEST DUP4 SSTORE POP JUMPDEST PUSH1 0x1 PUSH1 0x2 DUP9 MUL ADD DUP9 SSTORE POP POP POP JUMPDEST POP POP POP POP POP POP JUMP JUMPDEST PUSH1 0x0 DUP1 REVERT JUMPDEST PUSH1 0x0 PUSH20 0xFFFFFFFFFFFFFFFFFFFFFFFFFFFFFFFFFFFFFFFF DUP3 AND SWAP1 POP SWAP2 SWAP1 POP JUMP JUMPDEST PUSH1 0x0 PUSH3 0x499 DUP3 PUSH3 0x46C JUMP JUMPDEST SWAP1 POP SWAP2 SWAP1 POP JUMP JUMPDEST PUSH1 0x0 PUSH3 0x4AD DUP3 PUSH3 0x48C JUMP JUMPDEST SWAP1 POP SWAP2 SWAP1 POP JUMP JUMPDEST PUSH3 0x4BF DUP2 PUSH3 0x4A0 JUMP JUMPDEST DUP2 EQ PUSH3 0x4CB JUMPI PUSH1 0x0 DUP1 REVERT JUMPDEST POP JUMP JUMPDEST PUSH1 0x0 DUP2 MLOAD SWAP1 POP PUSH3 0x4DF DUP2 PUSH3 0x4B4 JUMP JUMPDEST SWAP3 SWAP2 POP POP JUMP JUMPDEST PUSH1 0x0 PUSH1 0x20 DUP3 DUP5 SUB SLT ISZERO PUSH3 0x4FE JUMPI PUSH3 0x4FD PUSH3 0x467 JUMP JUMPDEST JUMPDEST PUSH1 0x0 PUSH3 0x50E DUP5 DUP3 DUP6 ADD PUSH3 0x4CE JUMP JUMPDEST SWAP2 POP POP SWAP3 SWAP2 POP POP JUMP JUMPDEST PUSH2 0x2835 DUP1 PUSH3 0x527 PUSH1 0x0 CODECOPY PUSH1 0x0 RETURN INVALID PUSH1 0x80 PUSH1 0x40 MSTORE PUSH1 0x4 CALLDATASIZE LT PUSH2 0x7B JUMPI PUSH1 0x0 CALLDATALOAD PUSH1 0xE0 SHR DUP1 PUSH4 0x679C7CCB GT PUSH2 0x4E JUMPI DUP1 PUSH4 0x679C7CCB EQ PUSH2 0x15C JUMPI DUP1 PUSH4 0x929AD6C2 EQ PUSH2 0x18C JUMPI DUP1 PUSH4 0x976C1255 EQ PUSH2 0x1C9 JUMPI DUP1 PUSH4 0xF0C76CCC EQ PUSH2 0x1E5 JUMPI PUSH2 0x7B JUMP JUMPDEST DUP1 PUSH4 0x4C94169 EQ PUSH2 0x80 JUMPI DUP1 PUSH4 0x79CF76E EQ PUSH2 0xBE JUMPI DUP1 PUSH4 0x46BC7FD9 EQ PUSH2 0xFC JUMPI DUP1 PUSH4 0x49B1CEA8 EQ PUSH2 0x12C JUMPI JUMPDEST PUSH1 0x0 DUP1 REVERT JUMPDEST CALLVALUE DUP1 ISZERO PUSH2 0x8C JUMPI PUSH1 0x0 DUP1 REVERT JUMPDEST POP PUSH2 0xA7 PUSH1 0x4 DUP1 CALLDATASIZE SUB DUP2 ADD SWAP1 PUSH2 0xA2 SWAP2 SWAP1 PUSH2 0x1AEF JUMP JUMPDEST PUSH2 0x223 JUMP JUMPDEST PUSH1 0x40 MLOAD PUSH2 0xB5 SWAP3 SWAP2 SWAP1 PUSH2 0x1DBA JUMP JUMPDEST PUSH1 0x40 MLOAD DUP1 SWAP2 SUB SWAP1 RETURN JUMPDEST CALLVALUE DUP1 ISZERO PUSH2 0xCA JUMPI PUSH1 0x0 DUP1 REVERT JUMPDEST POP PUSH2 0xE5 PUSH1 0x4 DUP1 CALLDATASIZE SUB DUP2 ADD SWAP1 PUSH2 0xE0 SWAP2 SWAP1 PUSH2 0x1E1D JUMP JUMPDEST PUSH2 0x64C JUMP JUMPDEST PUSH1 0x40 MLOAD PUSH2 0xF3 SWAP3 SWAP2 SWAP1 PUSH2 0x1EE9 JUMP JUMPDEST PUSH1 0x40 MLOAD DUP1 SWAP2 SUB SWAP1 RETURN JUMPDEST PUSH2 0x116 PUSH1 0x4 DUP1 CALLDATASIZE SUB DUP2 ADD SWAP1 PUSH2 0x111 SWAP2 SWAP1 PUSH2 0x1F19 JUMP JUMPDEST PUSH2 0x91A JUMP JUMPDEST PUSH1 0x40 MLOAD PUSH2 0x123 SWAP2 SWAP1 PUSH2 0x1FEE JUMP JUMPDEST PUSH1 0x40 MLOAD DUP1 SWAP2 SUB SWAP1 RETURN JUMPDEST PUSH2 0x146 PUSH1 0x4 DUP1 CALLDATASIZE SUB DUP2 ADD SWAP1 PUSH2 0x141 SWAP2 SWAP1 PUSH2 0x1E1D JUMP JUMPDEST PUSH2 0xF81 JUMP JUMPDEST PUSH1 0x40 MLOAD PUSH2 0x153 SWAP2 SWAP1 PUSH2 0x2010 JUMP JUMPDEST PUSH1 0x40 MLOAD DUP1 SWAP2 SUB SWAP1 RETURN JUMPDEST PUSH2 0x176 PUSH1 0x4 DUP1 CALLDATASIZE SUB DUP2 ADD SWAP1 PUSH2 0x171 SWAP2 SWAP1 PUSH2 0x1AEF JUMP JUMPDEST PUSH2 0x132E JUMP JUMPDEST PUSH1 0x40 MLOAD PUSH2 0x183 SWAP2 SWAP1 PUSH2 0x2032 JUMP JUMPDEST PUSH1 0x40 MLOAD DUP1 SWAP2 SUB SWAP1 RETURN JUMPDEST CALLVALUE DUP1 ISZERO PUSH2 0x198 JUMPI PUSH1 0x0 DUP1 REVERT JUMPDEST POP PUSH2 0x1B3 PUSH1 0x4 DUP1 CALLDATASIZE SUB DUP2 ADD SWAP1 PUSH2 0x1AE SWAP2 SWAP1 PUSH2 0x2054 JUMP JUMPDEST PUSH2 0x13D3 JUMP JUMPDEST PUSH1 0x40 MLOAD PUSH2 0x1C0 SWAP2 SWAP1 PUSH2 0x2010 JUMP JUMPDEST PUSH1 0x40 MLOAD DUP1 SWAP2 SUB SWAP1 RETURN JUMPDEST PUSH2 0x1E3 PUSH1 0x4 DUP1 CALLDATASIZE SUB DUP2 ADD SWAP1 PUSH2 0x1DE SWAP2 SWAP1 PUSH2 0x217A JUMP JUMPDEST PUSH2 0x144F JUMP JUMPDEST STOP JUMPDEST CALLVALUE DUP1 ISZERO PUSH2 0x1F1 JUMPI PUSH1 0x0 DUP1 REVERT JUMPDEST POP PUSH2 0x20C PUSH1 0x4 DUP1 CALLDATASIZE SUB DUP2 ADD SWAP1 PUSH2 0x207 SWAP2 SWAP1 PUSH2 0x1AEF JUMP JUMPDEST PUSH2 0x1490 JUMP JUMPDEST PUSH1 0x40 MLOAD PUSH2 0x21A SWAP3 SWAP2 SWAP1 PUSH2 0x21F2 JUMP JUMPDEST PUSH1 0x40 MLOAD DUP1 SWAP2 SUB SWAP1 RETURN JUMPDEST PUSH1 0x60 PUSH2 0x22D PUSH2 0x1928 JUMP JUMPDEST PUSH1 0x0 PUSH2 0x238 DUP5 PUSH2 0x1624 JUMP JUMPDEST POP SWAP1 POP DUP1 ISZERO PUSH2 0x273 JUMPI PUSH1 0x40 MLOAD PUSH32 0x5982E5ED00000000000000000000000000000000000000000000000000000000 DUP2 MSTORE PUSH1 0x4 ADD PUSH1 0x40 MLOAD DUP1 SWAP2 SUB SWAP1 REVERT JUMPDEST PUSH1 0x0 DUP1 PUSH2 0x27F DUP7 PUSH2 0x1490 JUMP JUMPDEST SWAP2 POP SWAP2 POP DUP2 ISZERO PUSH2 0x2BB JUMPI PUSH1 0x40 MLOAD PUSH32 0x52BE588100000000000000000000000000000000000000000000000000000000 DUP2 MSTORE PUSH1 0x4 ADD PUSH1 0x40 MLOAD DUP1 SWAP2 SUB SWAP1 REVERT JUMPDEST PUSH1 0x0 DUP2 PUSH1 0x40 ADD MLOAD PUSH8 0xFFFFFFFFFFFFFFFF DUP2 GT ISZERO PUSH2 0x2DB JUMPI PUSH2 0x2DA PUSH2 0x19C4 JUMP JUMPDEST JUMPDEST PUSH1 0x40 MLOAD SWAP1 DUP1 DUP3 MSTORE DUP1 PUSH1 0x20 MUL PUSH1 0x20 ADD DUP3 ADD PUSH1 0x40 MSTORE DUP1 ISZERO PUSH2 0x314 JUMPI DUP2 PUSH1 0x20 ADD JUMPDEST PUSH2 0x301 PUSH2 0x1950 JUMP JUMPDEST DUP2 MSTORE PUSH1 0x20 ADD SWAP1 PUSH1 0x1 SWAP1 SUB SWAP1 DUP2 PUSH2 0x2F9 JUMPI SWAP1 POP JUMPDEST POP SWAP1 POP PUSH1 0x0 DUP1 DUP9 SWAP1 POP PUSH1 0x0 JUMPDEST PUSH1 0x3 SLOAD DUP2 LT ISZERO PUSH2 0x63A JUMPI PUSH1 0x0 PUSH1 0x2 DUP3 DUP2 SLOAD DUP2 LT PUSH2 0x340 JUMPI PUSH2 0x33F PUSH2 0x2222 JUMP JUMPDEST JUMPDEST SWAP1 PUSH1 0x0 MSTORE PUSH1 0x20 PUSH1 0x0 KECCAK256 SWAP1 PUSH1 0x5 MUL ADD PUSH1 0x40 MLOAD DUP1 PUSH1 0xA0 ADD PUSH1 0x40 MSTORE SWAP1 DUP2 PUSH1 0x0 DUP3 ADD DUP1 SLOAD PUSH2 0x369 SWAP1 PUSH2 0x2280 JUMP JUMPDEST DUP1 PUSH1 0x1F ADD PUSH1 0x20 DUP1 SWAP2 DIV MUL PUSH1 0x20 ADD PUSH1 0x40 MLOAD SWAP1 DUP2 ADD PUSH1 0x40 MSTORE DUP1 SWAP3 SWAP2 SWAP1 DUP2 DUP2 MSTORE PUSH1 0x20 ADD DUP3 DUP1 SLOAD PUSH2 0x395 SWAP1 PUSH2 0x2280 JUMP JUMPDEST DUP1 ISZERO PUSH2 0x3E2 JUMPI DUP1 PUSH1 0x1F LT PUSH2 0x3B7 JUMPI PUSH2 0x100 DUP1 DUP4 SLOAD DIV MUL DUP4 MSTORE SWAP2 PUSH1 0x20 ADD SWAP2 PUSH2 0x3E2 JUMP JUMPDEST DUP3 ADD SWAP2 SWAP1 PUSH1 0x0 MSTORE PUSH1 0x20 PUSH1 0x0 KECCAK256 SWAP1 JUMPDEST DUP2 SLOAD DUP2 MSTORE SWAP1 PUSH1 0x1 ADD SWAP1 PUSH1 0x20 ADD DUP1 DUP4 GT PUSH2 0x3C5 JUMPI DUP3 SWAP1 SUB PUSH1 0x1F AND DUP3 ADD SWAP2 JUMPDEST POP POP POP POP POP DUP2 MSTORE PUSH1 0x20 ADD PUSH1 0x1 DUP3 ADD DUP1 SLOAD PUSH2 0x3FB SWAP1 PUSH2 0x2280 JUMP JUMPDEST DUP1 PUSH1 0x1F ADD PUSH1 0x20 DUP1 SWAP2 DIV MUL PUSH1 0x20 ADD PUSH1 0x40 MLOAD SWAP1 DUP2 ADD PUSH1 0x40 MSTORE DUP1 SWAP3 SWAP2 SWAP1 DUP2 DUP2 MSTORE PUSH1 0x20 ADD DUP3 DUP1 SLOAD PUSH2 0x427 SWAP1 PUSH2 0x2280 JUMP JUMPDEST DUP1 ISZERO PUSH2 0x474 JUMPI DUP1 PUSH1 0x1F LT PUSH2 0x449 JUMPI PUSH2 0x100 DUP1 DUP4 SLOAD DIV MUL DUP4 MSTORE SWAP2 PUSH1 0x20 ADD SWAP2 PUSH2 0x474 JUMP JUMPDEST DUP3 ADD SWAP2 SWAP1 PUSH1 0x0 MSTORE PUSH1 0x20 PUSH1 0x0 KECCAK256 SWAP1 JUMPDEST DUP2 SLOAD DUP2 MSTORE SWAP1 PUSH1 0x1 ADD SWAP1 PUSH1 0x20 ADD DUP1 DUP4 GT PUSH2 0x457 JUMPI DUP3 SWAP1 SUB PUSH1 0x1F AND DUP3 ADD SWAP2 JUMPDEST POP POP POP POP POP DUP2 MSTORE PUSH1 0x20 ADD PUSH1 0x2 DUP3 ADD DUP1 SLOAD PUSH2 0x48D SWAP1 PUSH2 0x2280 JUMP JUMPDEST DUP1 PUSH1 0x1F ADD PUSH1 0x20 DUP1 SWAP2 DIV MUL PUSH1 0x20 ADD PUSH1 0x40 MLOAD SWAP1 DUP2 ADD PUSH1 0x40 MSTORE DUP1 SWAP3 SWAP2 SWAP1 DUP2 DUP2 MSTORE PUSH1 0x20 ADD DUP3 DUP1 SLOAD PUSH2 0x4B9 SWAP1 PUSH2 0x2280 JUMP JUMPDEST DUP1 ISZERO PUSH2 0x506 JUMPI DUP1 PUSH1 0x1F LT PUSH2 0x4DB JUMPI PUSH2 0x100 DUP1 DUP4 SLOAD DIV MUL DUP4 MSTORE SWAP2 PUSH1 0x20 ADD SWAP2 PUSH2 0x506 JUMP JUMPDEST DUP3 ADD SWAP2 SWAP1 PUSH1 0x0 MSTORE PUSH1 0x20 PUSH1 0x0 KECCAK256 SWAP1 JUMPDEST DUP2 SLOAD DUP2 MSTORE SWAP1 PUSH1 0x1 ADD SWAP1 PUSH1 0x20 ADD DUP1 DUP4 GT PUSH2 0x4E9 JUMPI DUP3 SWAP1 SUB PUSH1 0x1F AND DUP3 ADD SWAP2 JUMPDEST POP POP POP POP POP DUP2 MSTORE PUSH1 0x20 ADD PUSH1 0x3 DUP3 ADD PUSH1 0x0 SWAP1 SLOAD SWAP1 PUSH2 0x100 EXP SWAP1 DIV PUSH20 0xFFFFFFFFFFFFFFFFFFFFFFFFFFFFFFFFFFFFFFFF AND PUSH20 0xFFFFFFFFFFFFFFFFFFFFFFFFFFFFFFFFFFFFFFFF AND PUSH20 0xFFFFFFFFFFFFFFFFFFFFFFFFFFFFFFFFFFFFFFFF AND DUP2 MSTORE PUSH1 0x20 ADD PUSH1 0x4 DUP3 ADD SLOAD DUP2 MSTORE POP POP SWAP1 POP PUSH1 0x0 DUP2 PUSH1 0x20 ADD MLOAD SWAP1 POP PUSH20 0x0 PUSH4 0x7DA48317 DUP6 DUP4 PUSH1 0x40 MLOAD DUP4 PUSH4 0xFFFFFFFF AND PUSH1 0xE0 SHL DUP2 MSTORE PUSH1 0x4 ADD PUSH2 0x5B3 SWAP3 SWAP2 SWAP1 PUSH2 0x2306 JUMP JUMPDEST PUSH1 0x20 PUSH1 0x40 MLOAD DUP1 DUP4 SUB DUP2 DUP7 GAS DELEGATECALL ISZERO DUP1 ISZERO PUSH2 0x5D0 JUMPI RETURNDATASIZE PUSH1 0x0 DUP1 RETURNDATACOPY RETURNDATASIZE PUSH1 0x0 REVERT JUMPDEST POP POP POP POP PUSH1 0x40 MLOAD RETURNDATASIZE PUSH1 0x1F NOT PUSH1 0x1F DUP3 ADD AND DUP3 ADD DUP1 PUSH1 0x40 MSTORE POP DUP2 ADD SWAP1 PUSH2 0x5F4 SWAP2 SWAP1 PUSH2 0x2369 JUMP JUMPDEST ISZERO PUSH2 0x625 JUMPI DUP2 DUP7 DUP7 DUP1 PUSH2 0x606 SWAP1 PUSH2 0x23C5 JUMP JUMPDEST SWAP8 POP DUP2 MLOAD DUP2 LT PUSH2 0x619 JUMPI PUSH2 0x618 PUSH2 0x2222 JUMP JUMPDEST JUMPDEST PUSH1 0x20 MUL PUSH1 0x20 ADD ADD DUP2 SWAP1 MSTORE POP JUMPDEST POP POP DUP1 DUP1 PUSH2 0x632 SWAP1 PUSH2 0x23C5 JUMP JUMPDEST SWAP2 POP POP PUSH2 0x320 JUMP JUMPDEST POP DUP3 DUP5 SWAP8 POP SWAP8 POP POP POP POP POP POP POP SWAP2 POP SWAP2 JUMP JUMPDEST PUSH1 0x0 PUSH2 0x656 PUSH2 0x1950 JUMP JUMPDEST PUSH1 0x0 PUSH1 0x5 PUSH1 0x0 DUP6 PUSH20 0xFFFFFFFFFFFFFFFFFFFFFFFFFFFFFFFFFFFFFFFF AND PUSH20 0xFFFFFFFFFFFFFFFFFFFFFFFFFFFFFFFFFFFFFFFF AND DUP2 MSTORE PUSH1 0x20 ADD SWAP1 DUP2 MSTORE PUSH1 0x20 ADD PUSH1 0x0 KECCAK256 PUSH1 0x40 MLOAD DUP1 PUSH1 0xA0 ADD PUSH1 0x40 MSTORE SWAP1 DUP2 PUSH1 0x0 DUP3 ADD DUP1 SLOAD PUSH2 0x6B2 SWAP1 PUSH2 0x2280 JUMP JUMPDEST DUP1 PUSH1 0x1F ADD PUSH1 0x20 DUP1 SWAP2 DIV MUL PUSH1 0x20 ADD PUSH1 0x40 MLOAD SWAP1 DUP2 ADD PUSH1 0x40 MSTORE DUP1 SWAP3 SWAP2 SWAP1 DUP2 DUP2 MSTORE PUSH1 0x20 ADD DUP3 DUP1 SLOAD PUSH2 0x6DE SWAP1 PUSH2 0x2280 JUMP JUMPDEST DUP1 ISZERO PUSH2 0x72B JUMPI DUP1 PUSH1 0x1F LT PUSH2 0x700 JUMPI PUSH2 0x100 DUP1 DUP4 SLOAD DIV MUL DUP4 MSTORE SWAP2 PUSH1 0x20 ADD SWAP2 PUSH2 0x72B JUMP JUMPDEST DUP3 ADD SWAP2 SWAP1 PUSH1 0x0 MSTORE PUSH1 0x20 PUSH1 0x0 KECCAK256 SWAP1 JUMPDEST DUP2 SLOAD DUP2 MSTORE SWAP1 PUSH1 0x1 ADD SWAP1 PUSH1 0x20 ADD DUP1 DUP4 GT PUSH2 0x70E JUMPI DUP3 SWAP1 SUB PUSH1 0x1F AND DUP3 ADD SWAP2 JUMPDEST POP POP POP POP POP DUP2 MSTORE PUSH1 0x20 ADD PUSH1 0x1 DUP3 ADD DUP1 SLOAD PUSH2 0x744 SWAP1 PUSH2 0x2280 JUMP JUMPDEST DUP1 PUSH1 0x1F ADD PUSH1 0x20 DUP1 SWAP2 DIV MUL PUSH1 0x20 ADD PUSH1 0x40 MLOAD SWAP1 DUP2 ADD PUSH1 0x40 MSTORE DUP1 SWAP3 SWAP2 SWAP1 DUP2 DUP2 MSTORE PUSH1 0x20 ADD DUP3 DUP1 SLOAD PUSH2 0x770 SWAP1 PUSH2 0x2280 JUMP JUMPDEST DUP1 ISZERO PUSH2 0x7BD JUMPI DUP1 PUSH1 0x1F LT PUSH2 0x792 JUMPI PUSH2 0x100 DUP1 DUP4 SLOAD DIV MUL DUP4 MSTORE SWAP2 PUSH1 0x20 ADD SWAP2 PUSH2 0x7BD JUMP JUMPDEST DUP3 ADD SWAP2 SWAP1 PUSH1 0x0 MSTORE PUSH1 0x20 PUSH1 0x0 KECCAK256 SWAP1 JUMPDEST DUP2 SLOAD DUP2 MSTORE SWAP1 PUSH1 0x1 ADD SWAP1 PUSH1 0x20 ADD DUP1 DUP4 GT PUSH2 0x7A0 JUMPI DUP3 SWAP1 SUB PUSH1 0x1F AND DUP3 ADD SWAP2 JUMPDEST POP POP POP POP POP DUP2 MSTORE PUSH1 0x20 ADD PUSH1 0x2 DUP3 ADD DUP1 SLOAD PUSH2 0x7D6 SWAP1 PUSH2 0x2280 JUMP JUMPDEST DUP1 PUSH1 0x1F ADD PUSH1 0x20 DUP1 SWAP2 DIV MUL PUSH1 0x20 ADD PUSH1 0x40 MLOAD SWAP1 DUP2 ADD PUSH1 0x40 MSTORE DUP1 SWAP3 SWAP2 SWAP1 DUP2 DUP2 MSTORE PUSH1 0x20 ADD DUP3 DUP1 SLOAD PUSH2 0x802 SWAP1 PUSH2 0x2280 JUMP JUMPDEST DUP1 ISZERO PUSH2 0x84F JUMPI DUP1 PUSH1 0x1F LT PUSH2 0x824 JUMPI PUSH2 0x100 DUP1 DUP4 SLOAD DIV MUL DUP4 MSTORE SWAP2 PUSH1 0x20 ADD SWAP2 PUSH2 0x84F JUMP JUMPDEST DUP3 ADD SWAP2 SWAP1 PUSH1 0x0 MSTORE PUSH1 0x20 PUSH1 0x0 KECCAK256 SWAP1 JUMPDEST DUP2 SLOAD DUP2 MSTORE SWAP1 PUSH1 0x1 ADD SWAP1 PUSH1 0x20 ADD DUP1 DUP4 GT PUSH2 0x832 JUMPI DUP3 SWAP1 SUB PUSH1 0x1F AND DUP3 ADD SWAP2 JUMPDEST POP POP POP POP POP DUP2 MSTORE PUSH1 0x20 ADD PUSH1 0x3 DUP3 ADD PUSH1 0x0 SWAP1 SLOAD SWAP1 PUSH2 0x100 EXP SWAP1 DIV PUSH20 0xFFFFFFFFFFFFFFFFFFFFFFFFFFFFFFFFFFFFFFFF AND PUSH20 0xFFFFFFFFFFFFFFFFFFFFFFFFFFFFFFFFFFFFFFFF AND PUSH20 0xFFFFFFFFFFFFFFFFFFFFFFFFFFFFFFFFFFFFFFFF AND DUP2 MSTORE PUSH1 0x20 ADD PUSH1 0x4 DUP3 ADD SLOAD DUP2 MSTORE POP POP SWAP1 POP PUSH1 0x0 DUP2 PUSH1 0x0 ADD MLOAD MLOAD EQ DUP1 PUSH2 0x8FE JUMPI POP DUP4 PUSH20 0xFFFFFFFFFFFFFFFFFFFFFFFFFFFFFFFFFFFFFFFF AND DUP2 PUSH1 0x60 ADD MLOAD PUSH20 0xFFFFFFFFFFFFFFFFFFFFFFFFFFFFFFFFFFFFFFFF AND EQ ISZERO JUMPDEST ISZERO PUSH2 0x90C JUMPI PUSH1 0x1 SWAP3 POP PUSH2 0x914 JUMP JUMPDEST DUP1 SWAP2 POP PUSH1 0x0 SWAP3 POP JUMPDEST POP SWAP2 POP SWAP2 JUMP JUMPDEST PUSH1 0x60 DUP3 PUSH1 0x1 PUSH1 0x0 DUP3 SWAP1 POP PUSH1 0x0 PUSH1 0x1 SWAP1 POP PUSH1 0xE6 DUP3 MLOAD GT ISZERO PUSH2 0x966 JUMPI PUSH1 0x40 MLOAD PUSH32 0xC96B3AA100000000000000000000000000000000000000000000000000000000 DUP2 MSTORE PUSH1 0x4 ADD PUSH1 0x40 MLOAD DUP1 SWAP2 SUB SWAP1 REVERT JUMPDEST PUSH1 0x0 DUP3 MLOAD SUB PUSH2 0x974 JUMPI PUSH1 0x0 SWAP1 POP JUMPDEST DUP3 ISZERO PUSH2 0xA1F JUMPI PUSH1 0x0 JUMPDEST DUP3 MLOAD DUP2 LT ISZERO PUSH2 0xA19 JUMPI PUSH1 0x1 PUSH1 0x0 SWAP1 SLOAD SWAP1 PUSH2 0x100 EXP SWAP1 DIV PUSH1 0xF8 SHL PUSH31 0xFFFFFFFFFFFFFFFFFFFFFFFFFFFFFFFFFFFFFFFFFFFFFFFFFFFFFFFFFFFFFF NOT AND DUP4 DUP3 DUP2 MLOAD DUP2 LT PUSH2 0x9CB JUMPI PUSH2 0x9CA PUSH2 0x2222 JUMP JUMPDEST JUMPDEST PUSH1 0x20 ADD ADD MLOAD PUSH1 0xF8 SHR PUSH1 0xF8 SHL PUSH31 0xFFFFFFFFFFFFFFFFFFFFFFFFFFFFFFFFFFFFFFFFFFFFFFFFFFFFFFFFFFFFFF NOT AND SUB PUSH2 0xA06 JUMPI PUSH1 0x0 SWAP2 POP PUSH2 0xA19 JUMP JUMPDEST DUP1 DUP1 PUSH2 0xA11 SWAP1 PUSH2 0x23C5 JUMP JUMPDEST SWAP2 POP POP PUSH2 0x97D JUMP JUMPDEST POP PUSH2 0xB4D JUMP JUMPDEST PUSH1 0x0 SWAP1 POP PUSH1 0x0 JUMPDEST DUP3 MLOAD DUP2 LT ISZERO PUSH2 0xAC2 JUMPI PUSH1 0x1 PUSH1 0x0 SWAP1 SLOAD SWAP1 PUSH2 0x100 EXP SWAP1 DIV PUSH1 0xF8 SHL PUSH31 0xFFFFFFFFFFFFFFFFFFFFFFFFFFFFFFFFFFFFFFFFFFFFFFFFFFFFFFFFFFFFFF NOT AND DUP4 DUP3 DUP2 MLOAD DUP2 LT PUSH2 0xA74 JUMPI PUSH2 0xA73 PUSH2 0x2222 JUMP JUMPDEST JUMPDEST PUSH1 0x20 ADD ADD MLOAD PUSH1 0xF8 SHR PUSH1 0xF8 SHL PUSH31 0xFFFFFFFFFFFFFFFFFFFFFFFFFFFFFFFFFFFFFFFFFFFFFFFFFFFFFFFFFFFFFF NOT AND SUB PUSH2 0xAAF JUMPI PUSH1 0x1 SWAP2 POP PUSH2 0xAC2 JUMP JUMPDEST DUP1 DUP1 PUSH2 0xABA SWAP1 PUSH2 0x23C5 JUMP JUMPDEST SWAP2 POP POP PUSH2 0xA26 JUMP JUMPDEST POP PUSH1 0x1 PUSH1 0x0 SWAP1 SLOAD SWAP1 PUSH2 0x100 EXP SWAP1 DIV PUSH1 0xF8 SHL PUSH31 0xFFFFFFFFFFFFFFFFFFFFFFFFFFFFFFFFFFFFFFFFFFFFFFFFFFFFFFFFFFFFFF NOT AND DUP3 PUSH1 0x1 DUP5 MLOAD PUSH2 0xB04 SWAP2 SWAP1 PUSH2 0x240D JUMP JUMPDEST DUP2 MLOAD DUP2 LT PUSH2 0xB15 JUMPI PUSH2 0xB14 PUSH2 0x2222 JUMP JUMPDEST JUMPDEST PUSH1 0x20 ADD ADD MLOAD PUSH1 0xF8 SHR PUSH1 0xF8 SHL PUSH31 0xFFFFFFFFFFFFFFFFFFFFFFFFFFFFFFFFFFFFFFFFFFFFFFFFFFFFFFFFFFFFFF NOT AND SUB PUSH2 0xB4C JUMPI PUSH1 0x0 SWAP1 POP JUMPDEST JUMPDEST PUSH1 0x0 JUMPDEST DUP3 MLOAD DUP2 LT ISZERO PUSH2 0xC71 JUMPI PUSH1 0x0 JUMPDEST PUSH1 0x0 DUP1 SLOAD PUSH2 0xB69 SWAP1 PUSH2 0x2280 JUMP JUMPDEST SWAP1 POP DUP2 LT ISZERO PUSH2 0xC57 JUMPI PUSH1 0x0 DUP2 DUP2 SLOAD PUSH2 0xB80 SWAP1 PUSH2 0x2280 JUMP JUMPDEST DUP2 LT PUSH2 0xB8F JUMPI PUSH2 0xB8E PUSH2 0x2222 JUMP JUMPDEST JUMPDEST DUP2 SLOAD PUSH1 0x1 AND ISZERO PUSH2 0xBAE JUMPI SWAP1 PUSH1 0x0 MSTORE PUSH1 0x20 PUSH1 0x0 KECCAK256 SWAP1 PUSH1 0x20 SWAP2 DUP3 DUP3 DIV ADD SWAP2 SWAP1 MOD JUMPDEST SWAP1 SLOAD SWAP1 BYTE PUSH32 0x100000000000000000000000000000000000000000000000000000000000000 MUL PUSH31 0xFFFFFFFFFFFFFFFFFFFFFFFFFFFFFFFFFFFFFFFFFFFFFFFFFFFFFFFFFFFFFF NOT AND DUP5 DUP4 DUP2 MLOAD DUP2 LT PUSH2 0xC09 JUMPI PUSH2 0xC08 PUSH2 0x2222 JUMP JUMPDEST JUMPDEST PUSH1 0x20 ADD ADD MLOAD PUSH1 0xF8 SHR PUSH1 0xF8 SHL PUSH31 0xFFFFFFFFFFFFFFFFFFFFFFFFFFFFFFFFFFFFFFFFFFFFFFFFFFFFFFFFFFFFFF NOT AND SUB PUSH2 0xC44 JUMPI PUSH1 0x0 SWAP3 POP PUSH2 0xC57 JUMP JUMPDEST DUP1 DUP1 PUSH2 0xC4F SWAP1 PUSH2 0x23C5 JUMP JUMPDEST SWAP2 POP POP PUSH2 0xB5C JUMP JUMPDEST POP DUP2 ISZERO PUSH2 0xC71 JUMPI DUP1 DUP1 PUSH2 0xC69 SWAP1 PUSH2 0x23C5 JUMP JUMPDEST SWAP2 POP POP PUSH2 0xB50 JUMP JUMPDEST POP DUP1 ISZERO PUSH2 0xF44 JUMPI PUSH1 0x0 PUSH2 0xC84 DUP10 DUP9 PUSH2 0x13D3 JUMP JUMPDEST SWAP1 POP PUSH1 0x0 PUSH1 0x4 PUSH1 0x0 SWAP1 SLOAD SWAP1 PUSH2 0x100 EXP SWAP1 DIV PUSH20 0xFFFFFFFFFFFFFFFFFFFFFFFFFFFFFFFFFFFFFFFF AND PUSH20 0xFFFFFFFFFFFFFFFFFFFFFFFFFFFFFFFFFFFFFFFF AND PUSH4 0xA3688546 PUSH1 0x40 MLOAD DUP2 PUSH4 0xFFFFFFFF AND PUSH1 0xE0 SHL DUP2 MSTORE PUSH1 0x4 ADD PUSH1 0x0 PUSH1 0x40 MLOAD DUP1 DUP4 SUB DUP2 PUSH1 0x0 DUP8 GAS CALL ISZERO DUP1 ISZERO PUSH2 0xCF7 JUMPI RETURNDATASIZE PUSH1 0x0 DUP1 RETURNDATACOPY RETURNDATASIZE PUSH1 0x0 REVERT JUMPDEST POP POP POP POP PUSH1 0x40 MLOAD RETURNDATASIZE PUSH1 0x0 DUP3 RETURNDATACOPY RETURNDATASIZE PUSH1 0x1F NOT PUSH1 0x1F DUP3 ADD AND DUP3 ADD DUP1 PUSH1 0x40 MSTORE POP DUP2 ADD SWAP1 PUSH2 0xD20 SWAP2 SWAP1 PUSH2 0x24B1 JUMP JUMPDEST SWAP1 POP PUSH1 0x0 PUSH1 0x40 MLOAD DUP1 PUSH1 0xA0 ADD PUSH1 0x40 MSTORE DUP1 DUP4 DUP2 MSTORE PUSH1 0x20 ADD DUP5 PUSH1 0x0 ADD MLOAD DUP2 MSTORE PUSH1 0x20 ADD DUP12 DUP2 MSTORE PUSH1 0x20 ADD DUP13 PUSH20 0xFFFFFFFFFFFFFFFFFFFFFFFFFFFFFFFFFFFFFFFF AND DUP2 MSTORE PUSH1 0x20 ADD TIMESTAMP DUP2 MSTORE POP SWAP1 POP PUSH1 0x2 DUP2 SWAP1 DUP1 PUSH1 0x1 DUP2 SLOAD ADD DUP1 DUP3 SSTORE DUP1 SWAP2 POP POP PUSH1 0x1 SWAP1 SUB SWAP1 PUSH1 0x0 MSTORE PUSH1 0x20 PUSH1 0x0 KECCAK256 SWAP1 PUSH1 0x5 MUL ADD PUSH1 0x0 SWAP1 SWAP2 SWAP1 SWAP2 SWAP1 SWAP2 POP PUSH1 0x0 DUP3 ADD MLOAD DUP2 PUSH1 0x0 ADD SWAP1 DUP2 PUSH2 0xDA8 SWAP2 SWAP1 PUSH2 0x26A6 JUMP JUMPDEST POP PUSH1 0x20 DUP3 ADD MLOAD DUP2 PUSH1 0x1 ADD SWAP1 DUP2 PUSH2 0xDBE SWAP2 SWAP1 PUSH2 0x26A6 JUMP JUMPDEST POP PUSH1 0x40 DUP3 ADD MLOAD DUP2 PUSH1 0x2 ADD SWAP1 DUP2 PUSH2 0xDD4 SWAP2 SWAP1 PUSH2 0x26A6 JUMP JUMPDEST POP PUSH1 0x60 DUP3 ADD MLOAD DUP2 PUSH1 0x3 ADD PUSH1 0x0 PUSH2 0x100 EXP DUP2 SLOAD DUP2 PUSH20 0xFFFFFFFFFFFFFFFFFFFFFFFFFFFFFFFFFFFFFFFF MUL NOT AND SWAP1 DUP4 PUSH20 0xFFFFFFFFFFFFFFFFFFFFFFFFFFFFFFFFFFFFFFFF AND MUL OR SWAP1 SSTORE POP PUSH1 0x80 DUP3 ADD MLOAD DUP2 PUSH1 0x4 ADD SSTORE POP POP PUSH1 0x3 PUSH1 0x0 DUP2 SLOAD DUP1 SWAP3 SWAP2 SWAP1 PUSH2 0xE3B SWAP1 PUSH2 0x23C5 JUMP JUMPDEST SWAP2 SWAP1 POP SSTORE POP DUP1 PUSH1 0x7 DUP4 PUSH1 0x40 MLOAD PUSH2 0xE51 SWAP2 SWAP1 PUSH2 0x27B4 JUMP JUMPDEST SWAP1 DUP2 MSTORE PUSH1 0x20 ADD PUSH1 0x40 MLOAD DUP1 SWAP2 SUB SWAP1 KECCAK256 PUSH1 0x0 DUP3 ADD MLOAD DUP2 PUSH1 0x0 ADD SWAP1 DUP2 PUSH2 0xE74 SWAP2 SWAP1 PUSH2 0x26A6 JUMP JUMPDEST POP PUSH1 0x20 DUP3 ADD MLOAD DUP2 PUSH1 0x1 ADD SWAP1 DUP2 PUSH2 0xE8A SWAP2 SWAP1 PUSH2 0x26A6 JUMP JUMPDEST POP PUSH1 0x40 DUP3 ADD MLOAD DUP2 PUSH1 0x2 ADD SWAP1 DUP2 PUSH2 0xEA0 SWAP2 SWAP1 PUSH2 0x26A6 JUMP JUMPDEST POP PUSH1 0x60 DUP3 ADD MLOAD DUP2 PUSH1 0x3 ADD PUSH1 0x0 PUSH2 0x100 EXP DUP2 SLOAD DUP2 PUSH20 0xFFFFFFFFFFFFFFFFFFFFFFFFFFFFFFFFFFFFFFFF MUL NOT AND SWAP1 DUP4 PUSH20 0xFFFFFFFFFFFFFFFFFFFFFFFFFFFFFFFFFFFFFFFF AND MUL OR SWAP1 SSTORE POP PUSH1 0x80 DUP3 ADD MLOAD DUP2 PUSH1 0x4 ADD SSTORE SWAP1 POP POP PUSH2 0xEFE DUP3 PUSH2 0x132E JUMP JUMPDEST POP PUSH1 0x0 PUSH2 0xF0E DUP5 PUSH1 0x0 ADD MLOAD PUSH2 0x132E JUMP JUMPDEST SWAP1 POP PUSH1 0x1 DUP2 PUSH1 0x40 ADD MLOAD PUSH2 0xF21 SWAP2 SWAP1 PUSH2 0x27CB JUMP JUMPDEST DUP2 PUSH1 0x40 ADD DUP2 DUP2 MSTORE POP POP PUSH2 0xF38 DUP5 PUSH1 0x0 ADD MLOAD DUP3 PUSH2 0x144F JUMP JUMPDEST DUP3 SWAP9 POP POP POP POP POP PUSH2 0xF76 JUMP JUMPDEST PUSH1 0x40 MLOAD PUSH32 0xB5D012B400000000000000000000000000000000000000000000000000000000 DUP2 MSTORE PUSH1 0x4 ADD PUSH1 0x40 MLOAD DUP1 SWAP2 SUB SWAP1 REVERT JUMPDEST POP POP POP POP SWAP4 SWAP3 POP POP POP JUMP JUMPDEST PUSH2 0xF89 PUSH2 0x1950 JUMP JUMPDEST PUSH1 0x0 DUP1 PUSH2 0xF95 DUP5 PUSH2 0x64C JUMP JUMPDEST SWAP2 POP SWAP2 POP DUP2 ISZERO PUSH2 0x1324 JUMPI PUSH1 0x0 PUSH1 0x4 PUSH1 0x0 SWAP1 SLOAD SWAP1 PUSH2 0x100 EXP SWAP1 DIV PUSH20 0xFFFFFFFFFFFFFFFFFFFFFFFFFFFFFFFFFFFFFFFF AND PUSH20 0xFFFFFFFFFFFFFFFFFFFFFFFFFFFFFFFFFFFFFFFF AND PUSH4 0xA3688546 PUSH1 0x40 MLOAD DUP2 PUSH4 0xFFFFFFFF AND PUSH1 0xE0 SHL DUP2 MSTORE PUSH1 0x4 ADD PUSH1 0x0 PUSH1 0x40 MLOAD DUP1 DUP4 SUB DUP2 PUSH1 0x0 DUP8 GAS CALL ISZERO DUP1 ISZERO PUSH2 0x1010 JUMPI RETURNDATASIZE PUSH1 0x0 DUP1 RETURNDATACOPY RETURNDATASIZE PUSH1 0x0 REVERT JUMPDEST POP POP POP POP PUSH1 0x40 MLOAD RETURNDATASIZE PUSH1 0x0 DUP3 RETURNDATACOPY RETURNDATASIZE PUSH1 0x1F NOT PUSH1 0x1F DUP3 ADD AND DUP3 ADD DUP1 PUSH1 0x40 MSTORE POP DUP2 ADD SWAP1 PUSH2 0x1039 SWAP2 SWAP1 PUSH2 0x24B1 JUMP JUMPDEST SWAP1 POP PUSH1 0x40 MLOAD DUP1 PUSH1 0xA0 ADD PUSH1 0x40 MSTORE DUP1 DUP3 DUP2 MSTORE PUSH1 0x20 ADD PUSH1 0x40 MLOAD DUP1 PUSH1 0x40 ADD PUSH1 0x40 MSTORE DUP1 PUSH1 0x4 DUP2 MSTORE PUSH1 0x20 ADD PUSH32 0x726F6F7400000000000000000000000000000000000000000000000000000000 DUP2 MSTORE POP DUP2 MSTORE PUSH1 0x20 ADD PUSH1 0x40 MLOAD DUP1 PUSH1 0x20 ADD PUSH1 0x40 MSTORE DUP1 PUSH1 0x0 DUP2 MSTORE POP DUP2 MSTORE PUSH1 0x20 ADD DUP7 PUSH20 0xFFFFFFFFFFFFFFFFFFFFFFFFFFFFFFFFFFFFFFFF AND DUP2 MSTORE PUSH1 0x20 ADD TIMESTAMP DUP2 MSTORE POP SWAP2 POP PUSH1 0x2 DUP3 SWAP1 DUP1 PUSH1 0x1 DUP2 SLOAD ADD DUP1 DUP3 SSTORE DUP1 SWAP2 POP POP PUSH1 0x1 SWAP1 SUB SWAP1 PUSH1 0x0 MSTORE PUSH1 0x20 PUSH1 0x0 KECCAK256 SWAP1 PUSH1 0x5 MUL ADD PUSH1 0x0 SWAP1 SWAP2 SWAP1 SWAP2 SWAP1 SWAP2 POP PUSH1 0x0 DUP3 ADD MLOAD DUP2 PUSH1 0x0 ADD SWAP1 DUP2 PUSH2 0x10FF SWAP2 SWAP1 PUSH2 0x26A6 JUMP JUMPDEST POP PUSH1 0x20 DUP3 ADD MLOAD DUP2 PUSH1 0x1 ADD SWAP1 DUP2 PUSH2 0x1115 SWAP2 SWAP1 PUSH2 0x26A6 JUMP JUMPDEST POP PUSH1 0x40 DUP3 ADD MLOAD DUP2 PUSH1 0x2 ADD SWAP1 DUP2 PUSH2 0x112B SWAP2 SWAP1 PUSH2 0x26A6 JUMP JUMPDEST POP PUSH1 0x60 DUP3 ADD MLOAD DUP2 PUSH1 0x3 ADD PUSH1 0x0 PUSH2 0x100 EXP DUP2 SLOAD DUP2 PUSH20 0xFFFFFFFFFFFFFFFFFFFFFFFFFFFFFFFFFFFFFFFF MUL NOT AND SWAP1 DUP4 PUSH20 0xFFFFFFFFFFFFFFFFFFFFFFFFFFFFFFFFFFFFFFFF AND MUL OR SWAP1 SSTORE POP PUSH1 0x80 DUP3 ADD MLOAD DUP2 PUSH1 0x4 ADD SSTORE POP POP PUSH1 0x3 PUSH1 0x0 DUP2 SLOAD DUP1 SWAP3 SWAP2 SWAP1 PUSH2 0x1192 SWAP1 PUSH2 0x23C5 JUMP JUMPDEST SWAP2 SWAP1 POP SSTORE POP DUP2 PUSH1 0x5 PUSH1 0x0 DUP8 PUSH20 0xFFFFFFFFFFFFFFFFFFFFFFFFFFFFFFFFFFFFFFFF AND PUSH20 0xFFFFFFFFFFFFFFFFFFFFFFFFFFFFFFFFFFFFFFFF AND DUP2 MSTORE PUSH1 0x20 ADD SWAP1 DUP2 MSTORE PUSH1 0x20 ADD PUSH1 0x0 KECCAK256 PUSH1 0x0 DUP3 ADD MLOAD DUP2 PUSH1 0x0 ADD SWAP1 DUP2 PUSH2 0x11EC SWAP2 SWAP1 PUSH2 0x26A6 JUMP JUMPDEST POP PUSH1 0x20 DUP3 ADD MLOAD DUP2 PUSH1 0x1 ADD SWAP1 DUP2 PUSH2 0x1202 SWAP2 SWAP1 PUSH2 0x26A6 JUMP JUMPDEST POP PUSH1 0x40 DUP3 ADD MLOAD DUP2 PUSH1 0x2 ADD SWAP1 DUP2 PUSH2 0x1218 SWAP2 SWAP1 PUSH2 0x26A6 JUMP JUMPDEST POP PUSH1 0x60 DUP3 ADD MLOAD DUP2 PUSH1 0x3 ADD PUSH1 0x0 PUSH2 0x100 EXP DUP2 SLOAD DUP2 PUSH20 0xFFFFFFFFFFFFFFFFFFFFFFFFFFFFFFFFFFFFFFFF MUL NOT AND SWAP1 DUP4 PUSH20 0xFFFFFFFFFFFFFFFFFFFFFFFFFFFFFFFFFFFFFFFF AND MUL OR SWAP1 SSTORE POP PUSH1 0x80 DUP3 ADD MLOAD DUP2 PUSH1 0x4 ADD SSTORE SWAP1 POP POP DUP2 PUSH1 0x7 DUP3 PUSH1 0x40 MLOAD PUSH2 0x127E SWAP2 SWAP1 PUSH2 0x27B4 JUMP JUMPDEST SWAP1 DUP2 MSTORE PUSH1 0x20 ADD PUSH1 0x40 MLOAD DUP1 SWAP2 SUB SWAP1 KECCAK256 PUSH1 0x0 DUP3 ADD MLOAD DUP2 PUSH1 0x0 ADD SWAP1 DUP2 PUSH2 0x12A1 SWAP2 SWAP1 PUSH2 0x26A6 JUMP JUMPDEST POP PUSH1 0x20 DUP3 ADD MLOAD DUP2 PUSH1 0x1 ADD SWAP1 DUP2 PUSH2 0x12B7 SWAP2 SWAP1 PUSH2 0x26A6 JUMP JUMPDEST POP PUSH1 0x40 DUP3 ADD MLOAD DUP2 PUSH1 0x2 ADD SWAP1 DUP2 PUSH2 0x12CD SWAP2 SWAP1 PUSH2 0x26A6 JUMP JUMPDEST POP PUSH1 0x60 DUP3 ADD MLOAD DUP2 PUSH1 0x3 ADD PUSH1 0x0 PUSH2 0x100 EXP DUP2 SLOAD DUP2 PUSH20 0xFFFFFFFFFFFFFFFFFFFFFFFFFFFFFFFFFFFFFFFF MUL NOT AND SWAP1 DUP4 PUSH20 0xFFFFFFFFFFFFFFFFFFFFFFFFFFFFFFFFFFFFFFFF AND MUL OR SWAP1 SSTORE POP PUSH1 0x80 DUP3 ADD MLOAD DUP2 PUSH1 0x4 ADD SSTORE SWAP1 POP POP POP JUMPDEST DUP1 SWAP3 POP POP POP SWAP2 SWAP1 POP JUMP JUMPDEST PUSH2 0x1336 PUSH2 0x1928 JUMP JUMPDEST PUSH1 0x0 DUP1 PUSH2 0x1342 DUP5 PUSH2 0x1490 JUMP JUMPDEST SWAP2 POP SWAP2 POP DUP2 ISZERO PUSH2 0x13C9 JUMPI PUSH1 0x40 MLOAD DUP1 PUSH1 0x80 ADD PUSH1 0x40 MSTORE DUP1 DUP6 DUP2 MSTORE PUSH1 0x20 ADD PUSH1 0x0 DUP2 MSTORE PUSH1 0x20 ADD PUSH1 0x0 DUP2 MSTORE PUSH1 0x20 ADD PUSH1 0x0 DUP2 MSTORE POP SWAP1 POP DUP1 PUSH1 0x6 DUP6 PUSH1 0x40 MLOAD PUSH2 0x1383 SWAP2 SWAP1 PUSH2 0x27B4 JUMP JUMPDEST SWAP1 DUP2 MSTORE PUSH1 0x20 ADD PUSH1 0x40 MLOAD DUP1 SWAP2 SUB SWAP1 KECCAK256 PUSH1 0x0 DUP3 ADD MLOAD DUP2 PUSH1 0x0 ADD SWAP1 DUP2 PUSH2 0x13A6 SWAP2 SWAP1 PUSH2 0x26A6 JUMP JUMPDEST POP PUSH1 0x20 DUP3 ADD MLOAD DUP2 PUSH1 0x1 ADD SSTORE PUSH1 0x40 DUP3 ADD MLOAD DUP2 PUSH1 0x2 ADD SSTORE PUSH1 0x60 DUP3 ADD MLOAD DUP2 PUSH1 0x3 ADD SSTORE SWAP1 POP POP JUMPDEST DUP1 SWAP3 POP POP POP SWAP2 SWAP1 POP JUMP JUMPDEST PUSH2 0x13DB PUSH2 0x1950 JUMP JUMPDEST PUSH1 0x0 DUP3 SWAP1 POP PUSH1 0x0 DUP2 MLOAD SUB PUSH2 0x13FA JUMPI PUSH2 0x13F2 DUP5 PUSH2 0xF81 JUMP JUMPDEST SWAP2 POP POP PUSH2 0x1449 JUMP JUMPDEST PUSH1 0x0 DUP1 PUSH2 0x1406 DUP6 PUSH2 0x1624 JUMP JUMPDEST SWAP2 POP SWAP2 POP DUP2 ISZERO PUSH2 0x1442 JUMPI PUSH1 0x40 MLOAD PUSH32 0x5982E5ED00000000000000000000000000000000000000000000000000000000 DUP2 MSTORE PUSH1 0x4 ADD PUSH1 0x40 MLOAD DUP1 SWAP2 SUB SWAP1 REVERT JUMPDEST DUP1 SWAP4 POP POP POP POP JUMPDEST SWAP3 SWAP2 POP POP JUMP JUMPDEST PUSH1 0x0 PUSH1 0x6 DUP4 PUSH1 0x40 MLOAD PUSH2 0x1461 SWAP2 SWAP1 PUSH2 0x27B4 JUMP JUMPDEST SWAP1 DUP2 MSTORE PUSH1 0x20 ADD PUSH1 0x40 MLOAD DUP1 SWAP2 SUB SWAP1 KECCAK256 SWAP1 POP DUP2 PUSH1 0x40 ADD MLOAD DUP2 PUSH1 0x2 ADD DUP2 SWAP1 SSTORE POP DUP2 PUSH1 0x20 ADD MLOAD DUP2 PUSH1 0x1 ADD DUP2 SWAP1 SSTORE POP POP POP POP JUMP JUMPDEST PUSH1 0x0 PUSH2 0x149A PUSH2 0x1928 JUMP JUMPDEST PUSH1 0x0 PUSH1 0x6 DUP5 PUSH1 0x40 MLOAD PUSH2 0x14AC SWAP2 SWAP1 PUSH2 0x27B4 JUMP JUMPDEST SWAP1 DUP2 MSTORE PUSH1 0x20 ADD PUSH1 0x40 MLOAD DUP1 SWAP2 SUB SWAP1 KECCAK256 PUSH1 0x40 MLOAD DUP1 PUSH1 0x80 ADD PUSH1 0x40 MSTORE SWAP1 DUP2 PUSH1 0x0 DUP3 ADD DUP1 SLOAD PUSH2 0x14D5 SWAP1 PUSH2 0x2280 JUMP JUMPDEST DUP1 PUSH1 0x1F ADD PUSH1 0x20 DUP1 SWAP2 DIV MUL PUSH1 0x20 ADD PUSH1 0x40 MLOAD SWAP1 DUP2 ADD PUSH1 0x40 MSTORE DUP1 SWAP3 SWAP2 SWAP1 DUP2 DUP2 MSTORE PUSH1 0x20 ADD DUP3 DUP1 SLOAD PUSH2 0x1501 SWAP1 PUSH2 0x2280 JUMP JUMPDEST DUP1 ISZERO PUSH2 0x154E JUMPI DUP1 PUSH1 0x1F LT PUSH2 0x1523 JUMPI PUSH2 0x100 DUP1 DUP4 SLOAD DIV MUL DUP4 MSTORE SWAP2 PUSH1 0x20 ADD SWAP2 PUSH2 0x154E JUMP JUMPDEST DUP3 ADD SWAP2 SWAP1 PUSH1 0x0 MSTORE PUSH1 0x20 PUSH1 0x0 KECCAK256 SWAP1 JUMPDEST DUP2 SLOAD DUP2 MSTORE SWAP1 PUSH1 0x1 ADD SWAP1 PUSH1 0x20 ADD DUP1 DUP4 GT PUSH2 0x1531 JUMPI DUP3 SWAP1 SUB PUSH1 0x1F AND DUP3 ADD SWAP2 JUMPDEST POP POP POP POP POP DUP2 MSTORE PUSH1 0x20 ADD PUSH1 0x1 DUP3 ADD SLOAD DUP2 MSTORE PUSH1 0x20 ADD PUSH1 0x2 DUP3 ADD SLOAD DUP2 MSTORE PUSH1 0x20 ADD PUSH1 0x3 DUP3 ADD SLOAD DUP2 MSTORE POP POP SWAP1 POP PUSH1 0x0 DUP2 PUSH1 0x0 ADD MLOAD SWAP1 POP PUSH1 0x0 DUP2 MLOAD EQ DUP1 PUSH2 0x1607 JUMPI POP PUSH20 0x0 PUSH4 0x7DA48317 DUP3 DUP8 PUSH1 0x40 MLOAD DUP4 PUSH4 0xFFFFFFFF AND PUSH1 0xE0 SHL DUP2 MSTORE PUSH1 0x4 ADD PUSH2 0x15C4 SWAP3 SWAP2 SWAP1 PUSH2 0x2306 JUMP JUMPDEST PUSH1 0x20 PUSH1 0x40 MLOAD DUP1 DUP4 SUB DUP2 DUP7 GAS DELEGATECALL ISZERO DUP1 ISZERO PUSH2 0x15E1 JUMPI RETURNDATASIZE PUSH1 0x0 DUP1 RETURNDATACOPY RETURNDATASIZE PUSH1 0x0 REVERT JUMPDEST POP POP POP POP PUSH1 0x40 MLOAD RETURNDATASIZE PUSH1 0x1F NOT PUSH1 0x1F DUP3 ADD AND DUP3 ADD DUP1 PUSH1 0x40 MSTORE POP DUP2 ADD SWAP1 PUSH2 0x1605 SWAP2 SWAP1 PUSH2 0x2369 JUMP JUMPDEST ISZERO JUMPDEST ISZERO PUSH2 0x1615 JUMPI PUSH1 0x1 SWAP4 POP PUSH2 0x161D JUMP JUMPDEST DUP2 SWAP3 POP PUSH1 0x0 SWAP4 POP JUMPDEST POP POP SWAP2 POP SWAP2 JUMP JUMPDEST PUSH1 0x0 PUSH2 0x162E PUSH2 0x1950 JUMP JUMPDEST PUSH1 0x0 PUSH1 0x7 DUP5 PUSH1 0x40 MLOAD PUSH2 0x1640 SWAP2 SWAP1 PUSH2 0x27B4 JUMP JUMPDEST SWAP1 DUP2 MSTORE PUSH1 0x20 ADD PUSH1 0x40 MLOAD DUP1 SWAP2 SUB SWAP1 KECCAK256 PUSH1 0x40 MLOAD DUP1 PUSH1 0xA0 ADD PUSH1 0x40 MSTORE SWAP1 DUP2 PUSH1 0x0 DUP3 ADD DUP1 SLOAD PUSH2 0x1669 SWAP1 PUSH2 0x2280 JUMP JUMPDEST DUP1 PUSH1 0x1F ADD PUSH1 0x20 DUP1 SWAP2 DIV MUL PUSH1 0x20 ADD PUSH1 0x40 MLOAD SWAP1 DUP2 ADD PUSH1 0x40 MSTORE DUP1 SWAP3 SWAP2 SWAP1 DUP2 DUP2 MSTORE PUSH1 0x20 ADD DUP3 DUP1 SLOAD PUSH2 0x1695 SWAP1 PUSH2 0x2280 JUMP JUMPDEST DUP1 ISZERO PUSH2 0x16E2 JUMPI DUP1 PUSH1 0x1F LT PUSH2 0x16B7 JUMPI PUSH2 0x100 DUP1 DUP4 SLOAD DIV MUL DUP4 MSTORE SWAP2 PUSH1 0x20 ADD SWAP2 PUSH2 0x16E2 JUMP JUMPDEST DUP3 ADD SWAP2 SWAP1 PUSH1 0x0 MSTORE PUSH1 0x20 PUSH1 0x0 KECCAK256 SWAP1 JUMPDEST DUP2 SLOAD DUP2 MSTORE SWAP1 PUSH1 0x1 ADD SWAP1 PUSH1 0x20 ADD DUP1 DUP4 GT PUSH2 0x16C5 JUMPI DUP3 SWAP1 SUB PUSH1 0x1F AND DUP3 ADD SWAP2 JUMPDEST POP POP POP POP POP DUP2 MSTORE PUSH1 0x20 ADD PUSH1 0x1 DUP3 ADD DUP1 SLOAD PUSH2 0x16FB SWAP1 PUSH2 0x2280 JUMP JUMPDEST DUP1 PUSH1 0x1F ADD PUSH1 0x20 DUP1 SWAP2 DIV MUL PUSH1 0x20 ADD PUSH1 0x40 MLOAD SWAP1 DUP2 ADD PUSH1 0x40 MSTORE DUP1 SWAP3 SWAP2 SWAP1 DUP2 DUP2 MSTORE PUSH1 0x20 ADD DUP3 DUP1 SLOAD PUSH2 0x1727 SWAP1 PUSH2 0x2280 JUMP JUMPDEST DUP1 ISZERO PUSH2 0x1774 JUMPI DUP1 PUSH1 0x1F LT PUSH2 0x1749 JUMPI PUSH2 0x100 DUP1 DUP4 SLOAD DIV MUL DUP4 MSTORE SWAP2 PUSH1 0x20 ADD SWAP2 PUSH2 0x1774 JUMP JUMPDEST DUP3 ADD SWAP2 SWAP1 PUSH1 0x0 MSTORE PUSH1 0x20 PUSH1 0x0 KECCAK256 SWAP1 JUMPDEST DUP2 SLOAD DUP2 MSTORE SWAP1 PUSH1 0x1 ADD SWAP1 PUSH1 0x20 ADD DUP1 DUP4 GT PUSH2 0x1757 JUMPI DUP3 SWAP1 SUB PUSH1 0x1F AND DUP3 ADD SWAP2 JUMPDEST POP POP POP POP POP DUP2 MSTORE PUSH1 0x20 ADD PUSH1 0x2 DUP3 ADD DUP1 SLOAD PUSH2 0x178D SWAP1 PUSH2 0x2280 JUMP JUMPDEST DUP1 PUSH1 0x1F ADD PUSH1 0x20 DUP1 SWAP2 DIV MUL PUSH1 0x20 ADD PUSH1 0x40 MLOAD SWAP1 DUP2 ADD PUSH1 0x40 MSTORE DUP1 SWAP3 SWAP2 SWAP1 DUP2 DUP2 MSTORE PUSH1 0x20 ADD DUP3 DUP1 SLOAD PUSH2 0x17B9 SWAP1 PUSH2 0x2280 JUMP JUMPDEST DUP1 ISZERO PUSH2 0x1806 JUMPI DUP1 PUSH1 0x1F LT PUSH2 0x17DB JUMPI PUSH2 0x100 DUP1 DUP4 SLOAD DIV MUL DUP4 MSTORE SWAP2 PUSH1 0x20 ADD SWAP2 PUSH2 0x1806 JUMP JUMPDEST DUP3 ADD SWAP2 SWAP1 PUSH1 0x0 MSTORE PUSH1 0x20 PUSH1 0x0 KECCAK256 SWAP1 JUMPDEST DUP2 SLOAD DUP2 MSTORE SWAP1 PUSH1 0x1 ADD SWAP1 PUSH1 0x20 ADD DUP1 DUP4 GT PUSH2 0x17E9 JUMPI DUP3 SWAP1 SUB PUSH1 0x1F AND DUP3 ADD SWAP2 JUMPDEST POP POP POP POP POP DUP2 MSTORE PUSH1 0x20 ADD PUSH1 0x3 DUP3 ADD PUSH1 0x0 SWAP1 SLOAD SWAP1 PUSH2 0x100 EXP SWAP1 DIV PUSH20 0xFFFFFFFFFFFFFFFFFFFFFFFFFFFFFFFFFFFFFFFF AND PUSH20 0xFFFFFFFFFFFFFFFFFFFFFFFFFFFFFFFFFFFFFFFF AND PUSH20 0xFFFFFFFFFFFFFFFFFFFFFFFFFFFFFFFFFFFFFFFF AND DUP2 MSTORE PUSH1 0x20 ADD PUSH1 0x4 DUP3 ADD SLOAD DUP2 MSTORE POP POP SWAP1 POP PUSH1 0x0 DUP2 PUSH1 0x0 ADD MLOAD SWAP1 POP PUSH1 0x0 DUP3 PUSH1 0x0 ADD MLOAD SWAP1 POP PUSH1 0x0 DUP2 MLOAD EQ DUP1 PUSH2 0x190A JUMPI POP PUSH20 0x0 PUSH4 0x7DA48317 DUP3 DUP5 PUSH1 0x40 MLOAD DUP4 PUSH4 0xFFFFFFFF AND PUSH1 0xE0 SHL DUP2 MSTORE PUSH1 0x4 ADD PUSH2 0x18C7 SWAP3 SWAP2 SWAP1 PUSH2 0x2306 JUMP JUMPDEST PUSH1 0x20 PUSH1 0x40 MLOAD DUP1 DUP4 SUB DUP2 DUP7 GAS DELEGATECALL ISZERO DUP1 ISZERO PUSH2 0x18E4 JUMPI RETURNDATASIZE PUSH1 0x0 DUP1 RETURNDATACOPY RETURNDATASIZE PUSH1 0x0 REVERT JUMPDEST POP POP POP POP PUSH1 0x40 MLOAD RETURNDATASIZE PUSH1 0x1F NOT PUSH1 0x1F DUP3 ADD AND DUP3 ADD DUP1 PUSH1 0x40 MSTORE POP DUP2 ADD SWAP1 PUSH2 0x1908 SWAP2 SWAP1 PUSH2 0x2369 JUMP JUMPDEST ISZERO JUMPDEST ISZERO PUSH2 0x1918 JUMPI PUSH1 0x1 SWAP5 POP PUSH2 0x1920 JUMP JUMPDEST DUP3 SWAP4 POP PUSH1 0x0 SWAP5 POP JUMPDEST POP POP POP SWAP2 POP SWAP2 JUMP JUMPDEST PUSH1 0x40 MLOAD DUP1 PUSH1 0x80 ADD PUSH1 0x40 MSTORE DUP1 PUSH1 0x60 DUP2 MSTORE PUSH1 0x20 ADD PUSH1 0x0 DUP2 MSTORE PUSH1 0x20 ADD PUSH1 0x0 DUP2 MSTORE PUSH1 0x20 ADD PUSH1 0x0 DUP2 MSTORE POP SWAP1 JUMP JUMPDEST PUSH1 0x40 MLOAD DUP1 PUSH1 0xA0 ADD PUSH1 0x40 MSTORE DUP1 PUSH1 0x60 DUP2 MSTORE PUSH1 0x20 ADD PUSH1 0x60 DUP2 MSTORE PUSH1 0x20 ADD PUSH1 0x60 DUP2 MSTORE PUSH1 0x20 ADD PUSH1 0x0 PUSH20 0xFFFFFFFFFFFFFFFFFFFFFFFFFFFFFFFFFFFFFFFF AND DUP2 MSTORE PUSH1 0x20 ADD PUSH1 0x0 DUP2 MSTORE POP SWAP1 JUMP JUMPDEST PUSH1 0x0 PUSH1 0x40 MLOAD SWAP1 POP SWAP1 JUMP JUMPDEST PUSH1 0x0 DUP1 REVERT JUMPDEST PUSH1 0x0 DUP1 REVERT JUMPDEST PUSH1 0x0 DUP1 REVERT JUMPDEST PUSH1 0x0 DUP1 REVERT JUMPDEST PUSH1 0x0 PUSH1 0x1F NOT PUSH1 0x1F DUP4 ADD AND SWAP1 POP SWAP2 SWAP1 POP JUMP JUMPDEST PUSH32 0x4E487B7100000000000000000000000000000000000000000000000000000000 PUSH1 0x0 MSTORE PUSH1 0x41 PUSH1 0x4 MSTORE PUSH1 0x24 PUSH1 0x0 REVERT JUMPDEST PUSH2 0x19FC DUP3 PUSH2 0x19B3 JUMP JUMPDEST DUP2 ADD DUP2 DUP2 LT PUSH8 0xFFFFFFFFFFFFFFFF DUP3 GT OR ISZERO PUSH2 0x1A1B JUMPI PUSH2 0x1A1A PUSH2 0x19C4 JUMP JUMPDEST JUMPDEST DUP1 PUSH1 0x40 MSTORE POP POP POP JUMP JUMPDEST PUSH1 0x0 PUSH2 0x1A2E PUSH2 0x1995 JUMP JUMPDEST SWAP1 POP PUSH2 0x1A3A DUP3 DUP3 PUSH2 0x19F3 JUMP JUMPDEST SWAP2 SWAP1 POP JUMP JUMPDEST PUSH1 0x0 PUSH8 0xFFFFFFFFFFFFFFFF DUP3 GT ISZERO PUSH2 0x1A5A JUMPI PUSH2 0x1A59 PUSH2 0x19C4 JUMP JUMPDEST JUMPDEST PUSH2 0x1A63 DUP3 PUSH2 0x19B3 JUMP JUMPDEST SWAP1 POP PUSH1 0x20 DUP2 ADD SWAP1 POP SWAP2 SWAP1 POP JUMP JUMPDEST DUP3 DUP2 DUP4 CALLDATACOPY PUSH1 0x0 DUP4 DUP4 ADD MSTORE POP POP POP JUMP JUMPDEST PUSH1 0x0 PUSH2 0x1A92 PUSH2 0x1A8D DUP5 PUSH2 0x1A3F JUMP JUMPDEST PUSH2 0x1A24 JUMP JUMPDEST SWAP1 POP DUP3 DUP2 MSTORE PUSH1 0x20 DUP2 ADD DUP5 DUP5 DUP5 ADD GT ISZERO PUSH2 0x1AAE JUMPI PUSH2 0x1AAD PUSH2 0x19AE JUMP JUMPDEST JUMPDEST PUSH2 0x1AB9 DUP5 DUP3 DUP6 PUSH2 0x1A70 JUMP JUMPDEST POP SWAP4 SWAP3 POP POP POP JUMP JUMPDEST PUSH1 0x0 DUP3 PUSH1 0x1F DUP4 ADD SLT PUSH2 0x1AD6 JUMPI PUSH2 0x1AD5 PUSH2 0x19A9 JUMP JUMPDEST JUMPDEST DUP2 CALLDATALOAD PUSH2 0x1AE6 DUP5 DUP3 PUSH1 0x20 DUP7 ADD PUSH2 0x1A7F JUMP JUMPDEST SWAP2 POP POP SWAP3 SWAP2 POP POP JUMP JUMPDEST PUSH1 0x0 PUSH1 0x20 DUP3 DUP5 SUB SLT ISZERO PUSH2 0x1B05 JUMPI PUSH2 0x1B04 PUSH2 0x199F JUMP JUMPDEST JUMPDEST PUSH1 0x0 DUP3 ADD CALLDATALOAD PUSH8 0xFFFFFFFFFFFFFFFF DUP2 GT ISZERO PUSH2 0x1B23 JUMPI PUSH2 0x1B22 PUSH2 0x19A4 JUMP JUMPDEST JUMPDEST PUSH2 0x1B2F DUP5 DUP3 DUP6 ADD PUSH2 0x1AC1 JUMP JUMPDEST SWAP2 POP POP SWAP3 SWAP2 POP POP JUMP JUMPDEST PUSH1 0x0 DUP2 MLOAD SWAP1 POP SWAP2 SWAP1 POP JUMP JUMPDEST PUSH1 0x0 DUP3 DUP3 MSTORE PUSH1 0x20 DUP3 ADD SWAP1 POP SWAP3 SWAP2 POP POP JUMP JUMPDEST PUSH1 0x0 DUP2 SWAP1 POP PUSH1 0x20 DUP3 ADD SWAP1 POP SWAP2 SWAP1 POP JUMP JUMPDEST PUSH1 0x0 DUP2 MLOAD SWAP1 POP SWAP2 SWAP1 POP JUMP JUMPDEST PUSH1 0x0 DUP3 DUP3 MSTORE PUSH1 0x20 DUP3 ADD SWAP1 POP SWAP3 SWAP2 POP POP JUMP JUMPDEST PUSH1 0x0 JUMPDEST DUP4 DUP2 LT ISZERO PUSH2 0x1B9E JUMPI DUP1 DUP3 ADD MLOAD DUP2 DUP5 ADD MSTORE PUSH1 0x20 DUP2 ADD SWAP1 POP PUSH2 0x1B83 JUMP JUMPDEST PUSH1 0x0 DUP5 DUP5 ADD MSTORE POP POP POP POP JUMP JUMPDEST PUSH1 0x0 PUSH2 0x1BB5 DUP3 PUSH2 0x1B64 JUMP JUMPDEST PUSH2 0x1BBF DUP2 DUP6 PUSH2 0x1B6F JUMP JUMPDEST SWAP4 POP PUSH2 0x1BCF DUP2 DUP6 PUSH1 0x20 DUP7 ADD PUSH2 0x1B80 JUMP JUMPDEST PUSH2 0x1BD8 DUP2 PUSH2 0x19B3 JUMP JUMPDEST DUP5 ADD SWAP2 POP POP SWAP3 SWAP2 POP POP JUMP JUMPDEST PUSH1 0x0 PUSH20 0xFFFFFFFFFFFFFFFFFFFFFFFFFFFFFFFFFFFFFFFF DUP3 AND SWAP1 POP SWAP2 SWAP1 POP JUMP JUMPDEST PUSH1 0x0 PUSH2 0x1C0E DUP3 PUSH2 0x1BE3 JUMP JUMPDEST SWAP1 POP SWAP2 SWAP1 POP JUMP JUMPDEST PUSH2 0x1C1E DUP2 PUSH2 0x1C03 JUMP JUMPDEST DUP3 MSTORE POP POP JUMP JUMPDEST PUSH1 0x0 DUP2 SWAP1 POP SWAP2 SWAP1 POP JUMP JUMPDEST PUSH2 0x1C37 DUP2 PUSH2 0x1C24 JUMP JUMPDEST DUP3 MSTORE POP POP JUMP JUMPDEST PUSH1 0x0 PUSH1 0xA0 DUP4 ADD PUSH1 0x0 DUP4 ADD MLOAD DUP5 DUP3 SUB PUSH1 0x0 DUP7 ADD MSTORE PUSH2 0x1C5A DUP3 DUP3 PUSH2 0x1BAA JUMP JUMPDEST SWAP2 POP POP PUSH1 0x20 DUP4 ADD MLOAD DUP5 DUP3 SUB PUSH1 0x20 DUP7 ADD MSTORE PUSH2 0x1C74 DUP3 DUP3 PUSH2 0x1BAA JUMP JUMPDEST SWAP2 POP POP PUSH1 0x40 DUP4 ADD MLOAD DUP5 DUP3 SUB PUSH1 0x40 DUP7 ADD MSTORE PUSH2 0x1C8E DUP3 DUP3 PUSH2 0x1BAA JUMP JUMPDEST SWAP2 POP POP PUSH1 0x60 DUP4 ADD MLOAD PUSH2 0x1CA3 PUSH1 0x60 DUP7 ADD DUP3 PUSH2 0x1C15 JUMP JUMPDEST POP PUSH1 0x80 DUP4 ADD MLOAD PUSH2 0x1CB6 PUSH1 0x80 DUP7 ADD DUP3 PUSH2 0x1C2E JUMP JUMPDEST POP DUP1 SWAP2 POP POP SWAP3 SWAP2 POP POP JUMP JUMPDEST PUSH1 0x0 PUSH2 0x1CCD DUP4 DUP4 PUSH2 0x1C3D JUMP JUMPDEST SWAP1 POP SWAP3 SWAP2 POP POP JUMP JUMPDEST PUSH1 0x0 PUSH1 0x20 DUP3 ADD SWAP1 POP SWAP2 SWAP1 POP JUMP JUMPDEST PUSH1 0x0 PUSH2 0x1CED DUP3 PUSH2 0x1B38 JUMP JUMPDEST PUSH2 0x1CF7 DUP2 DUP6 PUSH2 0x1B43 JUMP JUMPDEST SWAP4 POP DUP4 PUSH1 0x20 DUP3 MUL DUP6 ADD PUSH2 0x1D09 DUP6 PUSH2 0x1B54 JUMP JUMPDEST DUP1 PUSH1 0x0 JUMPDEST DUP6 DUP2 LT ISZERO PUSH2 0x1D45 JUMPI DUP5 DUP5 SUB DUP10 MSTORE DUP2 MLOAD PUSH2 0x1D26 DUP6 DUP3 PUSH2 0x1CC1 JUMP JUMPDEST SWAP5 POP PUSH2 0x1D31 DUP4 PUSH2 0x1CD5 JUMP JUMPDEST SWAP3 POP PUSH1 0x20 DUP11 ADD SWAP10 POP POP PUSH1 0x1 DUP2 ADD SWAP1 POP PUSH2 0x1D0D JUMP JUMPDEST POP DUP3 SWAP8 POP DUP8 SWAP6 POP POP POP POP POP POP SWAP3 SWAP2 POP POP JUMP JUMPDEST PUSH1 0x0 PUSH1 0x80 DUP4 ADD PUSH1 0x0 DUP4 ADD MLOAD DUP5 DUP3 SUB PUSH1 0x0 DUP7 ADD MSTORE PUSH2 0x1D74 DUP3 DUP3 PUSH2 0x1BAA JUMP JUMPDEST SWAP2 POP POP PUSH1 0x20 DUP4 ADD MLOAD PUSH2 0x1D89 PUSH1 0x20 DUP7 ADD DUP3 PUSH2 0x1C2E JUMP JUMPDEST POP PUSH1 0x40 DUP4 ADD MLOAD PUSH2 0x1D9C PUSH1 0x40 DUP7 ADD DUP3 PUSH2 0x1C2E JUMP JUMPDEST POP PUSH1 0x60 DUP4 ADD MLOAD PUSH2 0x1DAF PUSH1 0x60 DUP7 ADD DUP3 PUSH2 0x1C2E JUMP JUMPDEST POP DUP1 SWAP2 POP POP SWAP3 SWAP2 POP POP JUMP JUMPDEST PUSH1 0x0 PUSH1 0x40 DUP3 ADD SWAP1 POP DUP2 DUP2 SUB PUSH1 0x0 DUP4 ADD MSTORE PUSH2 0x1DD4 DUP2 DUP6 PUSH2 0x1CE2 JUMP JUMPDEST SWAP1 POP DUP2 DUP2 SUB PUSH1 0x20 DUP4 ADD MSTORE PUSH2 0x1DE8 DUP2 DUP5 PUSH2 0x1D57 JUMP JUMPDEST SWAP1 POP SWAP4 SWAP3 POP POP POP JUMP JUMPDEST PUSH2 0x1DFA DUP2 PUSH2 0x1C03 JUMP JUMPDEST DUP2 EQ PUSH2 0x1E05 JUMPI PUSH1 0x0 DUP1 REVERT JUMPDEST POP JUMP JUMPDEST PUSH1 0x0 DUP2 CALLDATALOAD SWAP1 POP PUSH2 0x1E17 DUP2 PUSH2 0x1DF1 JUMP JUMPDEST SWAP3 SWAP2 POP POP JUMP JUMPDEST PUSH1 0x0 PUSH1 0x20 DUP3 DUP5 SUB SLT ISZERO PUSH2 0x1E33 JUMPI PUSH2 0x1E32 PUSH2 0x199F JUMP JUMPDEST JUMPDEST PUSH1 0x0 PUSH2 0x1E41 DUP5 DUP3 DUP6 ADD PUSH2 0x1E08 JUMP JUMPDEST SWAP2 POP POP SWAP3 SWAP2 POP POP JUMP JUMPDEST PUSH1 0x0 DUP2 ISZERO ISZERO SWAP1 POP SWAP2 SWAP1 POP JUMP JUMPDEST PUSH2 0x1E5F DUP2 PUSH2 0x1E4A JUMP JUMPDEST DUP3 MSTORE POP POP JUMP JUMPDEST PUSH1 0x0 PUSH1 0xA0 DUP4 ADD PUSH1 0x0 DUP4 ADD MLOAD DUP5 DUP3 SUB PUSH1 0x0 DUP7 ADD MSTORE PUSH2 0x1E82 DUP3 DUP3 PUSH2 0x1BAA JUMP JUMPDEST SWAP2 POP POP PUSH1 0x20 DUP4 ADD MLOAD DUP5 DUP3 SUB PUSH1 0x20 DUP7 ADD MSTORE PUSH2 0x1E9C DUP3 DUP3 PUSH2 0x1BAA JUMP JUMPDEST SWAP2 POP POP PUSH1 0x40 DUP4 ADD MLOAD DUP5 DUP3 SUB PUSH1 0x40 DUP7 ADD MSTORE PUSH2 0x1EB6 DUP3 DUP3 PUSH2 0x1BAA JUMP JUMPDEST SWAP2 POP POP PUSH1 0x60 DUP4 ADD MLOAD PUSH2 0x1ECB PUSH1 0x60 DUP7 ADD DUP3 PUSH2 0x1C15 JUMP JUMPDEST POP PUSH1 0x80 DUP4 ADD MLOAD PUSH2 0x1EDE PUSH1 0x80 DUP7 ADD DUP3 PUSH2 0x1C2E JUMP JUMPDEST POP DUP1 SWAP2 POP POP SWAP3 SWAP2 POP POP JUMP JUMPDEST PUSH1 0x0 PUSH1 0x40 DUP3 ADD SWAP1 POP PUSH2 0x1EFE PUSH1 0x0 DUP4 ADD DUP6 PUSH2 0x1E56 JUMP JUMPDEST DUP2 DUP2 SUB PUSH1 0x20 DUP4 ADD MSTORE PUSH2 0x1F10 DUP2 DUP5 PUSH2 0x1E65 JUMP JUMPDEST SWAP1 POP SWAP4 SWAP3 POP POP POP JUMP JUMPDEST PUSH1 0x0 DUP1 PUSH1 0x0 PUSH1 0x60 DUP5 DUP7 SUB SLT ISZERO PUSH2 0x1F32 JUMPI PUSH2 0x1F31 PUSH2 0x199F JUMP JUMPDEST JUMPDEST PUSH1 0x0 PUSH2 0x1F40 DUP7 DUP3 DUP8 ADD PUSH2 0x1E08 JUMP JUMPDEST SWAP4 POP POP PUSH1 0x20 DUP5 ADD CALLDATALOAD PUSH8 0xFFFFFFFFFFFFFFFF DUP2 GT ISZERO PUSH2 0x1F61 JUMPI PUSH2 0x1F60 PUSH2 0x19A4 JUMP JUMPDEST JUMPDEST PUSH2 0x1F6D DUP7 DUP3 DUP8 ADD PUSH2 0x1AC1 JUMP JUMPDEST SWAP3 POP POP PUSH1 0x40 DUP5 ADD CALLDATALOAD PUSH8 0xFFFFFFFFFFFFFFFF DUP2 GT ISZERO PUSH2 0x1F8E JUMPI PUSH2 0x1F8D PUSH2 0x19A4 JUMP JUMPDEST JUMPDEST PUSH2 0x1F9A DUP7 DUP3 DUP8 ADD PUSH2 0x1AC1 JUMP JUMPDEST SWAP2 POP POP SWAP3 POP SWAP3 POP SWAP3 JUMP JUMPDEST PUSH1 0x0 DUP3 DUP3 MSTORE PUSH1 0x20 DUP3 ADD SWAP1 POP SWAP3 SWAP2 POP POP JUMP JUMPDEST PUSH1 0x0 PUSH2 0x1FC0 DUP3 PUSH2 0x1B64 JUMP JUMPDEST PUSH2 0x1FCA DUP2 DUP6 PUSH2 0x1FA4 JUMP JUMPDEST SWAP4 POP PUSH2 0x1FDA DUP2 DUP6 PUSH1 0x20 DUP7 ADD PUSH2 0x1B80 JUMP JUMPDEST PUSH2 0x1FE3 DUP2 PUSH2 0x19B3 JUMP JUMPDEST DUP5 ADD SWAP2 POP POP SWAP3 SWAP2 POP POP JUMP JUMPDEST PUSH1 0x0 PUSH1 0x20 DUP3 ADD SWAP1 POP DUP2 DUP2 SUB PUSH1 0x0 DUP4 ADD MSTORE PUSH2 0x2008 DUP2 DUP5 PUSH2 0x1FB5 JUMP JUMPDEST SWAP1 POP SWAP3 SWAP2 POP POP JUMP JUMPDEST PUSH1 0x0 PUSH1 0x20 DUP3 ADD SWAP1 POP DUP2 DUP2 SUB PUSH1 0x0 DUP4 ADD MSTORE PUSH2 0x202A DUP2 DUP5 PUSH2 0x1E65 JUMP JUMPDEST SWAP1 POP SWAP3 SWAP2 POP POP JUMP JUMPDEST PUSH1 0x0 PUSH1 0x20 DUP3 ADD SWAP1 POP DUP2 DUP2 SUB PUSH1 0x0 DUP4 ADD MSTORE PUSH2 0x204C DUP2 DUP5 PUSH2 0x1D57 JUMP JUMPDEST SWAP1 POP SWAP3 SWAP2 POP POP JUMP JUMPDEST PUSH1 0x0 DUP1 PUSH1 0x40 DUP4 DUP6 SUB SLT ISZERO PUSH2 0x206B JUMPI PUSH2 0x206A PUSH2 0x199F JUMP JUMPDEST JUMPDEST PUSH1 0x0 PUSH2 0x2079 DUP6 DUP3 DUP7 ADD PUSH2 0x1E08 JUMP JUMPDEST SWAP3 POP POP PUSH1 0x20 DUP4 ADD CALLDATALOAD PUSH8 0xFFFFFFFFFFFFFFFF DUP2 GT ISZERO PUSH2 0x209A JUMPI PUSH2 0x2099 PUSH2 0x19A4 JUMP JUMPDEST JUMPDEST PUSH2 0x20A6 DUP6 DUP3 DUP7 ADD PUSH2 0x1AC1 JUMP JUMPDEST SWAP2 POP POP SWAP3 POP SWAP3 SWAP1 POP JUMP JUMPDEST PUSH1 0x0 DUP1 REVERT JUMPDEST PUSH1 0x0 DUP1 REVERT JUMPDEST PUSH2 0x20C3 DUP2 PUSH2 0x1C24 JUMP JUMPDEST DUP2 EQ PUSH2 0x20CE JUMPI PUSH1 0x0 DUP1 REVERT JUMPDEST POP JUMP JUMPDEST PUSH1 0x0 DUP2 CALLDATALOAD SWAP1 POP PUSH2 0x20E0 DUP2 PUSH2 0x20BA JUMP JUMPDEST SWAP3 SWAP2 POP POP JUMP JUMPDEST PUSH1 0x0 PUSH1 0x80 DUP3 DUP5 SUB SLT ISZERO PUSH2 0x20FC JUMPI PUSH2 0x20FB PUSH2 0x20B0 JUMP JUMPDEST JUMPDEST PUSH2 0x2106 PUSH1 0x80 PUSH2 0x1A24 JUMP JUMPDEST SWAP1 POP PUSH1 0x0 DUP3 ADD CALLDATALOAD PUSH8 0xFFFFFFFFFFFFFFFF DUP2 GT ISZERO PUSH2 0x2126 JUMPI PUSH2 0x2125 PUSH2 0x20B5 JUMP JUMPDEST JUMPDEST PUSH2 0x2132 DUP5 DUP3 DUP6 ADD PUSH2 0x1AC1 JUMP JUMPDEST PUSH1 0x0 DUP4 ADD MSTORE POP PUSH1 0x20 PUSH2 0x2146 DUP5 DUP3 DUP6 ADD PUSH2 0x20D1 JUMP JUMPDEST PUSH1 0x20 DUP4 ADD MSTORE POP PUSH1 0x40 PUSH2 0x215A DUP5 DUP3 DUP6 ADD PUSH2 0x20D1 JUMP JUMPDEST PUSH1 0x40 DUP4 ADD MSTORE POP PUSH1 0x60 PUSH2 0x216E DUP5 DUP3 DUP6 ADD PUSH2 0x20D1 JUMP JUMPDEST PUSH1 0x60 DUP4 ADD MSTORE POP SWAP3 SWAP2 POP POP JUMP JUMPDEST PUSH1 0x0 DUP1 PUSH1 0x40 DUP4 DUP6 SUB SLT ISZERO PUSH2 0x2191 JUMPI PUSH2 0x2190 PUSH2 0x199F JUMP JUMPDEST JUMPDEST PUSH1 0x0 DUP4 ADD CALLDATALOAD PUSH8 0xFFFFFFFFFFFFFFFF DUP2 GT ISZERO PUSH2 0x21AF JUMPI PUSH2 0x21AE PUSH2 0x19A4 JUMP JUMPDEST JUMPDEST PUSH2 0x21BB DUP6 DUP3 DUP7 ADD PUSH2 0x1AC1 JUMP JUMPDEST SWAP3 POP POP PUSH1 0x20 DUP4 ADD CALLDATALOAD PUSH8 0xFFFFFFFFFFFFFFFF DUP2 GT ISZERO PUSH2 0x21DC JUMPI PUSH2 0x21DB PUSH2 0x19A4 JUMP JUMPDEST JUMPDEST PUSH2 0x21E8 DUP6 DUP3 DUP7 ADD PUSH2 0x20E6 JUMP JUMPDEST SWAP2 POP POP SWAP3 POP SWAP3 SWAP1 POP JUMP JUMPDEST PUSH1 0x0 PUSH1 0x40 DUP3 ADD SWAP1 POP PUSH2 0x2207 PUSH1 0x0 DUP4 ADD DUP6 PUSH2 0x1E56 JUMP JUMPDEST DUP2 DUP2 SUB PUSH1 0x20 DUP4 ADD MSTORE PUSH2 0x2219 DUP2 DUP5 PUSH2 0x1D57 JUMP JUMPDEST SWAP1 POP SWAP4 SWAP3 POP POP POP JUMP JUMPDEST PUSH32 0x4E487B7100000000000000000000000000000000000000000000000000000000 PUSH1 0x0 MSTORE PUSH1 0x32 PUSH1 0x4 MSTORE PUSH1 0x24 PUSH1 0x0 REVERT JUMPDEST PUSH32 0x4E487B7100000000000000000000000000000000000000000000000000000000 PUSH1 0x0 MSTORE PUSH1 0x22 PUSH1 0x4 MSTORE PUSH1 0x24 PUSH1 0x0 REVERT JUMPDEST PUSH1 0x0 PUSH1 0x2 DUP3 DIV SWAP1 POP PUSH1 0x1 DUP3 AND DUP1 PUSH2 0x2298 JUMPI PUSH1 0x7F DUP3 AND SWAP2 POP JUMPDEST PUSH1 0x20 DUP3 LT DUP2 SUB PUSH2 0x22AB JUMPI PUSH2 0x22AA PUSH2 0x2251 JUMP JUMPDEST JUMPDEST POP SWAP2 SWAP1 POP JUMP JUMPDEST PUSH1 0x0 DUP2 MLOAD SWAP1 POP SWAP2 SWAP1 POP JUMP JUMPDEST PUSH1 0x0 DUP3 DUP3 MSTORE PUSH1 0x20 DUP3 ADD SWAP1 POP SWAP3 SWAP2 POP POP JUMP JUMPDEST PUSH1 0x0 PUSH2 0x22D8 DUP3 PUSH2 0x22B1 JUMP JUMPDEST PUSH2 0x22E2 DUP2 DUP6 PUSH2 0x22BC JUMP JUMPDEST SWAP4 POP PUSH2 0x22F2 DUP2 DUP6 PUSH1 0x20 DUP7 ADD PUSH2 0x1B80 JUMP JUMPDEST PUSH2 0x22FB DUP2 PUSH2 0x19B3 JUMP JUMPDEST DUP5 ADD SWAP2 POP POP SWAP3 SWAP2 POP POP JUMP JUMPDEST PUSH1 0x0 PUSH1 0x40 DUP3 ADD SWAP1 POP DUP2 DUP2 SUB PUSH1 0x0 DUP4 ADD MSTORE PUSH2 0x2320 DUP2 DUP6 PUSH2 0x22CD JUMP JUMPDEST SWAP1 POP DUP2 DUP2 SUB PUSH1 0x20 DUP4 ADD MSTORE PUSH2 0x2334 DUP2 DUP5 PUSH2 0x22CD JUMP JUMPDEST SWAP1 POP SWAP4 SWAP3 POP POP POP JUMP JUMPDEST PUSH2 0x2346 DUP2 PUSH2 0x1E4A JUMP JUMPDEST DUP2 EQ PUSH2 0x2351 JUMPI PUSH1 0x0 DUP1 REVERT JUMPDEST POP JUMP JUMPDEST PUSH1 0x0 DUP2 MLOAD SWAP1 POP PUSH2 0x2363 DUP2 PUSH2 0x233D JUMP JUMPDEST SWAP3 SWAP2 POP POP JUMP JUMPDEST PUSH1 0x0 PUSH1 0x20 DUP3 DUP5 SUB SLT ISZERO PUSH2 0x237F JUMPI PUSH2 0x237E PUSH2 0x199F JUMP JUMPDEST JUMPDEST PUSH1 0x0 PUSH2 0x238D DUP5 DUP3 DUP6 ADD PUSH2 0x2354 JUMP JUMPDEST SWAP2 POP POP SWAP3 SWAP2 POP POP JUMP JUMPDEST PUSH32 0x4E487B7100000000000000000000000000000000000000000000000000000000 PUSH1 0x0 MSTORE PUSH1 0x11 PUSH1 0x4 MSTORE PUSH1 0x24 PUSH1 0x0 REVERT JUMPDEST PUSH1 0x0 PUSH2 0x23D0 DUP3 PUSH2 0x1C24 JUMP JUMPDEST SWAP2 POP PUSH32 0xFFFFFFFFFFFFFFFFFFFFFFFFFFFFFFFFFFFFFFFFFFFFFFFFFFFFFFFFFFFFFFFF DUP3 SUB PUSH2 0x2402 JUMPI PUSH2 0x2401 PUSH2 0x2396 JUMP JUMPDEST JUMPDEST PUSH1 0x1 DUP3 ADD SWAP1 POP SWAP2 SWAP1 POP JUMP JUMPDEST PUSH1 0x0 PUSH2 0x2418 DUP3 PUSH2 0x1C24 JUMP JUMPDEST SWAP2 POP PUSH2 0x2423 DUP4 PUSH2 0x1C24 JUMP JUMPDEST SWAP3 POP DUP3 DUP3 SUB SWAP1 POP DUP2 DUP2 GT ISZERO PUSH2 0x243B JUMPI PUSH2 0x243A PUSH2 0x2396 JUMP JUMPDEST JUMPDEST SWAP3 SWAP2 POP POP JUMP JUMPDEST PUSH1 0x0 PUSH2 0x2454 PUSH2 0x244F DUP5 PUSH2 0x1A3F JUMP JUMPDEST PUSH2 0x1A24 JUMP JUMPDEST SWAP1 POP DUP3 DUP2 MSTORE PUSH1 0x20 DUP2 ADD DUP5 DUP5 DUP5 ADD GT ISZERO PUSH2 0x2470 JUMPI PUSH2 0x246F PUSH2 0x19AE JUMP JUMPDEST JUMPDEST PUSH2 0x247B DUP5 DUP3 DUP6 PUSH2 0x1B80 JUMP JUMPDEST POP SWAP4 SWAP3 POP POP POP JUMP JUMPDEST PUSH1 0x0 DUP3 PUSH1 0x1F DUP4 ADD SLT PUSH2 0x2498 JUMPI PUSH2 0x2497 PUSH2 0x19A9 JUMP JUMPDEST JUMPDEST DUP2 MLOAD PUSH2 0x24A8 DUP5 DUP3 PUSH1 0x20 DUP7 ADD PUSH2 0x2441 JUMP JUMPDEST SWAP2 POP POP SWAP3 SWAP2 POP POP JUMP JUMPDEST PUSH1 0x0 PUSH1 0x20 DUP3 DUP5 SUB SLT ISZERO PUSH2 0x24C7 JUMPI PUSH2 0x24C6 PUSH2 0x199F JUMP JUMPDEST JUMPDEST PUSH1 0x0 DUP3 ADD MLOAD PUSH8 0xFFFFFFFFFFFFFFFF DUP2 GT ISZERO PUSH2 0x24E5 JUMPI PUSH2 0x24E4 PUSH2 0x19A4 JUMP JUMPDEST JUMPDEST PUSH2 0x24F1 DUP5 DUP3 DUP6 ADD PUSH2 0x2483 JUMP JUMPDEST SWAP2 POP POP SWAP3 SWAP2 POP POP JUMP JUMPDEST PUSH1 0x0 DUP2 SWAP1 POP DUP2 PUSH1 0x0 MSTORE PUSH1 0x20 PUSH1 0x0 KECCAK256 SWAP1 POP SWAP2 SWAP1 POP JUMP JUMPDEST PUSH1 0x0 PUSH1 0x20 PUSH1 0x1F DUP4 ADD DIV SWAP1 POP SWAP2 SWAP1 POP JUMP JUMPDEST PUSH1 0x0 DUP3 DUP3 SHL SWAP1 POP SWAP3 SWAP2 POP POP JUMP JUMPDEST PUSH1 0x0 PUSH1 0x8 DUP4 MUL PUSH2 0x255C PUSH32 0xFFFFFFFFFFFFFFFFFFFFFFFFFFFFFFFFFFFFFFFFFFFFFFFFFFFFFFFFFFFFFFFF DUP3 PUSH2 0x251F JUMP JUMPDEST PUSH2 0x2566 DUP7 DUP4 PUSH2 0x251F JUMP JUMPDEST SWAP6 POP DUP1 NOT DUP5 AND SWAP4 POP DUP1 DUP7 AND DUP5 OR SWAP3 POP POP POP SWAP4 SWAP3 POP POP POP JUMP JUMPDEST PUSH1 0x0 DUP2 SWAP1 POP SWAP2 SWAP1 POP JUMP JUMPDEST PUSH1 0x0 PUSH2 0x25A3 PUSH2 0x259E PUSH2 0x2599 DUP5 PUSH2 0x1C24 JUMP JUMPDEST PUSH2 0x257E JUMP JUMPDEST PUSH2 0x1C24 JUMP JUMPDEST SWAP1 POP SWAP2 SWAP1 POP JUMP JUMPDEST PUSH1 0x0 DUP2 SWAP1 POP SWAP2 SWAP1 POP JUMP JUMPDEST PUSH2 0x25BD DUP4 PUSH2 0x2588 JUMP JUMPDEST PUSH2 0x25D1 PUSH2 0x25C9 DUP3 PUSH2 0x25AA JUMP JUMPDEST DUP5 DUP5 SLOAD PUSH2 0x252C JUMP JUMPDEST DUP3 SSTORE POP POP POP POP JUMP JUMPDEST PUSH1 0x0 SWAP1 JUMP JUMPDEST PUSH2 0x25E6 PUSH2 0x25D9 JUMP JUMPDEST PUSH2 0x25F1 DUP2 DUP5 DUP5 PUSH2 0x25B4 JUMP JUMPDEST POP POP POP JUMP JUMPDEST JUMPDEST DUP2 DUP2 LT ISZERO PUSH2 0x2615 JUMPI PUSH2 0x260A PUSH1 0x0 DUP3 PUSH2 0x25DE JUMP JUMPDEST PUSH1 0x1 DUP2 ADD SWAP1 POP PUSH2 0x25F7 JUMP JUMPDEST POP POP JUMP JUMPDEST PUSH1 0x1F DUP3 GT ISZERO PUSH2 0x265A JUMPI PUSH2 0x262B DUP2 PUSH2 0x24FA JUMP JUMPDEST PUSH2 0x2634 DUP5 PUSH2 0x250F JUMP JUMPDEST DUP2 ADD PUSH1 0x20 DUP6 LT ISZERO PUSH2 0x2643 JUMPI DUP2 SWAP1 POP JUMPDEST PUSH2 0x2657 PUSH2 0x264F DUP6 PUSH2 0x250F JUMP JUMPDEST DUP4 ADD DUP3 PUSH2 0x25F6 JUMP JUMPDEST POP POP JUMPDEST POP POP POP JUMP JUMPDEST PUSH1 0x0 DUP3 DUP3 SHR SWAP1 POP SWAP3 SWAP2 POP POP JUMP JUMPDEST PUSH1 0x0 PUSH2 0x267D PUSH1 0x0 NOT DUP5 PUSH1 0x8 MUL PUSH2 0x265F JUMP JUMPDEST NOT DUP1 DUP4 AND SWAP2 POP POP SWAP3 SWAP2 POP POP JUMP JUMPDEST PUSH1 0x0 PUSH2 0x2696 DUP4 DUP4 PUSH2 0x266C JUMP JUMPDEST SWAP2 POP DUP3 PUSH1 0x2 MUL DUP3 OR SWAP1 POP SWAP3 SWAP2 POP POP JUMP JUMPDEST PUSH2 0x26AF DUP3 PUSH2 0x1B64 JUMP JUMPDEST PUSH8 0xFFFFFFFFFFFFFFFF DUP2 GT ISZERO PUSH2 0x26C8 JUMPI PUSH2 0x26C7 PUSH2 0x19C4 JUMP JUMPDEST JUMPDEST PUSH2 0x26D2 DUP3 SLOAD PUSH2 0x2280 JUMP JUMPDEST PUSH2 0x26DD DUP3 DUP3 DUP6 PUSH2 0x2619 JUMP JUMPDEST PUSH1 0x0 PUSH1 0x20 SWAP1 POP PUSH1 0x1F DUP4 GT PUSH1 0x1 DUP2 EQ PUSH2 0x2710 JUMPI PUSH1 0x0 DUP5 ISZERO PUSH2 0x26FE JUMPI DUP3 DUP8 ADD MLOAD SWAP1 POP JUMPDEST PUSH2 0x2708 DUP6 DUP3 PUSH2 0x268A JUMP JUMPDEST DUP7 SSTORE POP PUSH2 0x2770 JUMP JUMPDEST PUSH1 0x1F NOT DUP5 AND PUSH2 0x271E DUP7 PUSH2 0x24FA JUMP JUMPDEST PUSH1 0x0 JUMPDEST DUP3 DUP2 LT ISZERO PUSH2 0x2746 JUMPI DUP5 DUP10 ADD MLOAD DUP3 SSTORE PUSH1 0x1 DUP3 ADD SWAP2 POP PUSH1 0x20 DUP6 ADD SWAP5 POP PUSH1 0x20 DUP2 ADD SWAP1 POP PUSH2 0x2721 JUMP JUMPDEST DUP7 DUP4 LT ISZERO PUSH2 0x2763 JUMPI DUP5 DUP10 ADD MLOAD PUSH2 0x275F PUSH1 0x1F DUP10 AND DUP3 PUSH2 0x266C JUMP JUMPDEST DUP4 SSTORE POP JUMPDEST PUSH1 0x1 PUSH1 0x2 DUP9 MUL ADD DUP9 SSTORE POP POP POP JUMPDEST POP POP POP POP POP POP JUMP JUMPDEST PUSH1 0x0 DUP2 SWAP1 POP SWAP3 SWAP2 POP POP JUMP JUMPDEST PUSH1 0x0 PUSH2 0x278E DUP3 PUSH2 0x1B64 JUMP JUMPDEST PUSH2 0x2798 DUP2 DUP6 PUSH2 0x2778 JUMP JUMPDEST SWAP4 POP PUSH2 0x27A8 DUP2 DUP6 PUSH1 0x20 DUP7 ADD PUSH2 0x1B80 JUMP JUMPDEST DUP1 DUP5 ADD SWAP2 POP POP SWAP3 SWAP2 POP POP JUMP JUMPDEST PUSH1 0x0 PUSH2 0x27C0 DUP3 DUP5 PUSH2 0x2783 JUMP JUMPDEST SWAP2 POP DUP2 SWAP1 POP SWAP3 SWAP2 POP POP JUMP JUMPDEST PUSH1 0x0 PUSH2 0x27D6 DUP3 PUSH2 0x1C24 JUMP JUMPDEST SWAP2 POP PUSH2 0x27E1 DUP4 PUSH2 0x1C24 JUMP JUMPDEST SWAP3 POP DUP3 DUP3 ADD SWAP1 POP DUP1 DUP3 GT ISZERO PUSH2 0x27F9 JUMPI PUSH2 0x27F8 PUSH2 0x2396 JUMP JUMPDEST JUMPDEST SWAP3 SWAP2 POP POP JUMP INVALID LOG2 PUSH5 0x6970667358 0x22 SLT KECCAK256 XOR 0xC2 EXP PUSH6 0x43056CA67477 DUP6 PUSH18 0xCBBB286B3ABE9E4DF0CF0FD1EB0539283F55 0xA5 MOD PUSH5 0x736F6C6343 STOP ADDMOD SLT STOP CALLER "
		},
		"gasEstimates": {
			"creation": {
				"codeDepositCost": "2058600",
				"executionCost": "infinite",
				"totalCost": "infinite"
			},
			"external": {
				"add(address,string,string)": "infinite",
				"getDirectoryInfo(string)": "infinite",
				"getDirectoryOrRoot(address,string)": "infinite",
				"getOrCreateDirectoryInfo(string)": "infinite",
				"getOrCreateRoot(address)": "infinite",
				"getRoot(address)": "infinite",
				"getSubDirectories(string)": "infinite",
				"updateDirectoryInfo(string,(string,uint256,uint256,uint256))": "infinite"
			},
			"internal": {
				"getDirectory(string memory)": "infinite"
			}
		},
		"methodIdentifiers": {
			"add(address,string,string)": "46bc7fd9",
			"getDirectoryInfo(string)": "f0c76ccc",
			"getDirectoryOrRoot(address,string)": "929ad6c2",
			"getOrCreateDirectoryInfo(string)": "679c7ccb",
			"getOrCreateRoot(address)": "49b1cea8",
			"getRoot(address)": "079cf76e",
			"getSubDirectories(string)": "04c94169",
			"updateDirectoryInfo(string,(string,uint256,uint256,uint256))": "976c1255"
		}
	},
	"abi": [
		{
			"inputs": [
				{
					"internalType": "contract UniqueIdGenerator",
					"name": "uniqueIdGenerator",
					"type": "address"
				}
			],
			"stateMutability": "nonpayable",
			"type": "constructor"
		},
		{
			"inputs": [],
			"name": "notfound",
			"type": "error"
		},
		{
			"inputs": [],
			"name": "notfoundDirectory",
			"type": "error"
		},
		{
			"inputs": [],
			"name": "unsupportedName",
			"type": "error"
		},
		{
			"inputs": [],
			"name": "unsupportedSize",
			"type": "error"
		},
		{
			"inputs": [
				{
					"internalType": "address",
					"name": "user",
					"type": "address"
				},
				{
					"internalType": "string",
					"name": "name",
					"type": "string"
				},
				{
					"internalType": "string",
					"name": "parentId",
					"type": "string"
				}
			],
			"name": "add",
			"outputs": [
				{
					"internalType": "string",
					"name": "",
					"type": "string"
				}
			],
			"stateMutability": "payable",
			"type": "function"
		},
		{
			"inputs": [
				{
					"internalType": "string",
					"name": "id",
					"type": "string"
				}
			],
			"name": "getDirectoryInfo",
			"outputs": [
				{
					"internalType": "bool",
					"name": "isNull",
					"type": "bool"
				},
				{
					"components": [
						{
							"internalType": "string",
							"name": "DirectoryId",
							"type": "string"
						},
						{
							"internalType": "uint256",
							"name": "FilesCount",
							"type": "uint256"
						},
						{
							"internalType": "uint256",
							"name": "DirectoriesCount",
							"type": "uint256"
						},
						{
							"internalType": "uint256",
							"name": "Size",
							"type": "uint256"
						}
					],
					"internalType": "struct DirectoryInfoFrame",
					"name": "directoryInfo",
					"type": "tuple"
				}
			],
			"stateMutability": "view",
			"type": "function"
		},
		{
			"inputs": [
				{
					"internalType": "address",
					"name": "user",
					"type": "address"
				},
				{
					"internalType": "string",
					"name": "id",
					"type": "string"
				}
			],
			"name": "getDirectoryOrRoot",
			"outputs": [
				{
					"components": [
						{
							"internalType": "string",
							"name": "Id",
							"type": "string"
						},
						{
							"internalType": "string",
							"name": "ParentId",
							"type": "string"
						},
						{
							"internalType": "string",
							"name": "Name",
							"type": "string"
						},
						{
							"internalType": "address",
							"name": "Creator",
							"type": "address"
						},
						{
							"internalType": "uint256",
							"name": "DateCreated",
							"type": "uint256"
						}
					],
					"internalType": "struct DirectoryFrame",
					"name": "",
					"type": "tuple"
				}
			],
			"stateMutability": "nonpayable",
			"type": "function"
		},
		{
			"inputs": [
				{
					"internalType": "string",
					"name": "id",
					"type": "string"
				}
			],
			"name": "getOrCreateDirectoryInfo",
			"outputs": [
				{
					"components": [
						{
							"internalType": "string",
							"name": "DirectoryId",
							"type": "string"
						},
						{
							"internalType": "uint256",
							"name": "FilesCount",
							"type": "uint256"
						},
						{
							"internalType": "uint256",
							"name": "DirectoriesCount",
							"type": "uint256"
						},
						{
							"internalType": "uint256",
							"name": "Size",
							"type": "uint256"
						}
					],
					"internalType": "struct DirectoryInfoFrame",
					"name": "",
					"type": "tuple"
				}
			],
			"stateMutability": "payable",
			"type": "function"
		},
		{
			"inputs": [
				{
					"internalType": "address",
					"name": "user",
					"type": "address"
				}
			],
			"name": "getOrCreateRoot",
			"outputs": [
				{
					"components": [
						{
							"internalType": "string",
							"name": "Id",
							"type": "string"
						},
						{
							"internalType": "string",
							"name": "ParentId",
							"type": "string"
						},
						{
							"internalType": "string",
							"name": "Name",
							"type": "string"
						},
						{
							"internalType": "address",
							"name": "Creator",
							"type": "address"
						},
						{
							"internalType": "uint256",
							"name": "DateCreated",
							"type": "uint256"
						}
					],
					"internalType": "struct DirectoryFrame",
					"name": "",
					"type": "tuple"
				}
			],
			"stateMutability": "payable",
			"type": "function"
		},
		{
			"inputs": [
				{
					"internalType": "address",
					"name": "user",
					"type": "address"
				}
			],
			"name": "getRoot",
			"outputs": [
				{
					"internalType": "bool",
					"name": "isNull",
					"type": "bool"
				},
				{
					"components": [
						{
							"internalType": "string",
							"name": "Id",
							"type": "string"
						},
						{
							"internalType": "string",
							"name": "ParentId",
							"type": "string"
						},
						{
							"internalType": "string",
							"name": "Name",
							"type": "string"
						},
						{
							"internalType": "address",
							"name": "Creator",
							"type": "address"
						},
						{
							"internalType": "uint256",
							"name": "DateCreated",
							"type": "uint256"
						}
					],
					"internalType": "struct DirectoryFrame",
					"name": "root",
					"type": "tuple"
				}
			],
			"stateMutability": "view",
			"type": "function"
		},
		{
			"inputs": [
				{
					"internalType": "string",
					"name": "directoryId",
					"type": "string"
				}
			],
			"name": "getSubDirectories",
			"outputs": [
				{
					"components": [
						{
							"internalType": "string",
							"name": "Id",
							"type": "string"
						},
						{
							"internalType": "string",
							"name": "ParentId",
							"type": "string"
						},
						{
							"internalType": "string",
							"name": "Name",
							"type": "string"
						},
						{
							"internalType": "address",
							"name": "Creator",
							"type": "address"
						},
						{
							"internalType": "uint256",
							"name": "DateCreated",
							"type": "uint256"
						}
					],
					"internalType": "struct DirectoryFrame[]",
					"name": "",
					"type": "tuple[]"
				},
				{
					"components": [
						{
							"internalType": "string",
							"name": "DirectoryId",
							"type": "string"
						},
						{
							"internalType": "uint256",
							"name": "FilesCount",
							"type": "uint256"
						},
						{
							"internalType": "uint256",
							"name": "DirectoriesCount",
							"type": "uint256"
						},
						{
							"internalType": "uint256",
							"name": "Size",
							"type": "uint256"
						}
					],
					"internalType": "struct DirectoryInfoFrame",
					"name": "",
					"type": "tuple"
				}
			],
			"stateMutability": "view",
			"type": "function"
		},
		{
			"inputs": [
				{
					"internalType": "string",
					"name": "id",
					"type": "string"
				},
				{
					"components": [
						{
							"internalType": "string",
							"name": "DirectoryId",
							"type": "string"
						},
						{
							"internalType": "uint256",
							"name": "FilesCount",
							"type": "uint256"
						},
						{
							"internalType": "uint256",
							"name": "DirectoriesCount",
							"type": "uint256"
						},
						{
							"internalType": "uint256",
							"name": "Size",
							"type": "uint256"
						}
					],
					"internalType": "struct DirectoryInfoFrame",
					"name": "newModel",
					"type": "tuple"
				}
			],
			"name": "updateDirectoryInfo",
			"outputs": [],
			"stateMutability": "payable",
			"type": "function"
		}
	]
}