{
	"data": {
		"bytecode": {
			"linkReferences": {},
			"object": "61145d61004e600b8282823980515f1a607314610042577f4e487b71000000000000000000000000000000000000000000000000000000005f525f60045260245ffd5b305f52607381538281f3fe73000000000000000000000000000000000000000030146080604052600436106100fe575f3560e01c80639054bdec116100a0578063b19999371161006f578063b199993714610312578063b238ad0e14610342578063f97d059114610372578063fa93f883146103a2576100fe565b80639054bdec1461025257806392d6631314610282578063a324ad24146102b2578063a6f0e577146102e2576100fe565b806365c72840116100dc57806365c72840146101925780637f791833146101c25780638aa001fc146101f25780638c8d98a014610222576100fe565b80633e239e1a146101025780634ac1ad781461013257806362ba968714610162575b5f80fd5b61011c60048036038101906101179190610d8c565b6103d2565b6040516101299190610dd2565b60405180910390f35b61014c60048036038101906101479190610d8c565b6103fe565b6040516101599190610dd2565b60405180910390f35b61017c60048036038101906101779190610e4c565b61042d565b6040516101899190610ed2565b60405180910390f35b6101ac60048036038101906101a79190610d8c565b610447565b6040516101b99190610dd2565b60405180910390f35b6101dc60048036038101906101d79190610eeb565b61045c565b6040516101e99190610ed2565b60405180910390f35b61020c60048036038101906102079190610d8c565b610475565b6040516102199190610dd2565b60405180910390f35b61023c60048036038101906102379190610f4f565b61048a565b6040516102499190610ed2565b60405180910390f35b61026c60048036038101906102679190610f9f565b6104a2565b6040516102799190610ed2565b60405180910390f35b61029c60048036038101906102979190610d8c565b61080b565b6040516102a99190611037565b60405180910390f35b6102cc60048036038101906102c79190610d8c565b61091f565b6040516102d99190610dd2565b60405180910390f35b6102fc60048036038101906102f79190611050565b610934565b6040516103099190611095565b60405180910390f35b61032c60048036038101906103279190610d8c565b61099e565b6040516103399190610ed2565b60405180910390f35b61035c600480360381019061035791906110ae565b6109f1565b6040516103699190610dd2565b60405180910390f35b61038c60048036038101906103879190610d8c565b610abc565b6040516103999190611196565b60405180910390f35b6103bc60048036038101906103b79190610d8c565b610cc6565b6040516103c99190610dd2565b60405180910390f35b5f6018603c80846103e39190611209565b6103ed9190611209565b6103f79190611239565b9050919050565b5f6007600462015180846104129190611209565b61041c9190611269565b6104269190611239565b9050919050565b5f61043c86868686865f6104a2565b905095945050505050565b5f61045182610abc565b604001519050919050565b5f61046b858585855f806104a2565b9050949350505050565b5f603c826104839190611239565b9050919050565b5f6104998484845f805f6104a2565b90509392505050565b5f806107b290505b8761ffff168161ffff161015610505576104c381610934565b156104df576301e28500826104d89190611269565b91506104f2565b6301e13380826104ef9190611269565b91505b80806104fd9061129c565b9150506104aa565b61050d610ce6565b601f815f600c8110610522576105216112c5565b5b602002019060ff16908160ff168152505061053c89610934565b1561056d57601d816001600c8110610557576105566112c5565b5b602002019060ff16908160ff1681525050610595565b601c816001600c8110610583576105826112c5565b5b602002019060ff16908160ff16815250505b601f816002600c81106105ab576105aa6112c5565b5b602002019060ff16908160ff1681525050601e816003600c81106105d2576105d16112c5565b5b602002019060ff16908160ff1681525050601f816004600c81106105f9576105f86112c5565b5b602002019060ff16908160ff1681525050601e816005600c81106106205761061f6112c5565b5b602002019060ff16908160ff1681525050601f816006600c8110610647576106466112c5565b5b602002019060ff16908160ff1681525050601f816007600c811061066e5761066d6112c5565b5b602002019060ff16908160ff1681525050601e816008600c8110610695576106946112c5565b5b602002019060ff16908160ff1681525050601f816009600c81106106bc576106bb6112c5565b5b602002019060ff16908160ff1681525050601e81600a600c81106106e3576106e26112c5565b5b602002019060ff16908160ff1681525050601f81600b600c811061070a576107096112c5565b5b602002019060ff16908160ff1681525050600191505b8760ff168261ffff161015610788578060018361073d91906112f2565b61ffff16600c8110610752576107516112c5565b5b602002015160ff16620151806107689190611327565b836107739190611269565b925081806107809061129c565b925050610720565b6001876107959190611368565b60ff16620151806107a69190611327565b836107b19190611269565b92508560ff16610e106107c49190611327565b836107cf9190611269565b92508460ff16603c6107e19190611327565b836107ec9190611269565b92508360ff16836107fd9190611269565b925050509695505050505050565b5f805f90505f806301e13380856108229190611209565b6107b261ffff166108339190611269565b91506108446107b261ffff1661099e565b6108518361ffff1661099e565b61085b919061139c565b9050806301e2850061086d9190611327565b836108789190611269565b9250806107b28361088991906112f2565b61ffff16610897919061139c565b6301e133806108a69190611327565b836108b19190611269565b92505b84831115610914576108d16001836108cc91906112f2565b610934565b156108ed576301e28500836108e6919061139c565b9250610900565b6301e13380836108fd919061139c565b92505b60018261090d91906112f2565b91506108b4565b819350505050919050565b5f61092982610abc565b602001519050919050565b5f8060048361094391906113cf565b61ffff1614610954575f9050610999565b5f60648361096291906113cf565b61ffff16146109745760019050610999565b5f6101908361098391906113cf565b61ffff1614610994575f9050610999565b600190505b919050565b5f6001826109ac919061139c565b9150610190826109bc9190611209565b6064836109c99190611209565b6004846109d69190611209565b6109e0919061139c565b6109ea9190611269565b9050919050565b5f60018360ff161480610a07575060038360ff16145b80610a15575060058360ff16145b80610a23575060078360ff16145b80610a31575060088360ff16145b80610a3f5750600a8360ff16145b80610a4d5750600c8360ff16145b15610a5b57601f9050610ab6565b60048360ff161480610a70575060068360ff16145b80610a7e575060098360ff16145b80610a8c5750600b8360ff16145b15610a9a57601e9050610ab6565b610aa382610934565b15610ab157601d9050610ab6565b601c90505b92915050565b610ac4610d09565b5f8080610ad08561080b565b845f019061ffff16908161ffff1681525050610af16107b261ffff1661099e565b610b01855f015161ffff1661099e565b610b0b919061139c565b9150816301e28500610b1d9190611327565b83610b289190611269565b9250816107b2855f0151610b3c91906112f2565b61ffff16610b4a919061139c565b6301e13380610b599190611327565b83610b649190611269565b92505f600191505b600c8260ff1611610be257610b8482865f01516109f1565b60ff1662015180610b959190611327565b9050858482610ba49190611269565b1115610bc15781856020019060ff16908160ff1681525050610be2565b8084610bcd9190611269565b93508180610bda906113ff565b925050610b6c565b600191505b610bf88560200151865f01516109f1565b60ff168260ff1611610c5557858462015180610c149190611269565b1115610c315781856040019060ff16908160ff1681525050610c55565b6201518084610c409190611269565b93508180610c4d906113ff565b925050610be7565b610c5e866103d2565b856060019060ff16908160ff1681525050610c7886610cc6565b856080019060ff16908160ff1681525050610c9286610475565b8560a0019060ff16908160ff1681525050610cac866103fe565b8560c0019060ff16908160ff168152505050505050919050565b5f603c8083610cd59190611209565b610cdf9190611239565b9050919050565b604051806101800160405280600c90602082028036833780820191505090505090565b6040518060e001604052805f61ffff1681526020015f60ff1681526020015f60ff1681526020015f60ff1681526020015f60ff1681526020015f60ff1681526020015f60ff1681525090565b5f80fd5b5f819050919050565b610d6b81610d59565b8114610d75575f80fd5b50565b5f81359050610d8681610d62565b92915050565b5f60208284031215610da157610da0610d55565b5b5f610dae84828501610d78565b91505092915050565b5f60ff82169050919050565b610dcc81610db7565b82525050565b5f602082019050610de55f830184610dc3565b92915050565b5f61ffff82169050919050565b610e0181610deb565b8114610e0b575f80fd5b50565b5f81359050610e1c81610df8565b92915050565b610e2b81610db7565b8114610e35575f80fd5b50565b5f81359050610e4681610e22565b92915050565b5f805f805f60a08688031215610e6557610e64610d55565b5b5f610e7288828901610e0e565b9550506020610e8388828901610e38565b9450506040610e9488828901610e38565b9350506060610ea588828901610e38565b9250506080610eb688828901610e38565b9150509295509295909350565b610ecc81610d59565b82525050565b5f602082019050610ee55f830184610ec3565b92915050565b5f805f8060808587031215610f0357610f02610d55565b5b5f610f1087828801610e0e565b9450506020610f2187828801610e38565b9350506040610f3287828801610e38565b9250506060610f4387828801610e38565b91505092959194509250565b5f805f60608486031215610f6657610f65610d55565b5b5f610f7386828701610e0e565b9350506020610f8486828701610e38565b9250506040610f9586828701610e38565b9150509250925092565b5f805f805f8060c08789031215610fb957610fb8610d55565b5b5f610fc689828a01610e0e565b9650506020610fd789828a01610e38565b9550506040610fe889828a01610e38565b9450506060610ff989828a01610e38565b935050608061100a89828a01610e38565b92505060a061101b89828a01610e38565b9150509295509295509295565b61103181610deb565b82525050565b5f60208201905061104a5f830184611028565b92915050565b5f6020828403121561106557611064610d55565b5b5f61107284828501610e0e565b91505092915050565b5f8115159050919050565b61108f8161107b565b82525050565b5f6020820190506110a85f830184611086565b92915050565b5f80604083850312156110c4576110c3610d55565b5b5f6110d185828601610e38565b92505060206110e285828601610e0e565b9150509250929050565b6110f581610deb565b82525050565b61110481610db7565b82525050565b60e082015f82015161111e5f8501826110ec565b50602082015161113160208501826110fb565b50604082015161114460408501826110fb565b50606082015161115760608501826110fb565b50608082015161116a60808501826110fb565b5060a082015161117d60a08501826110fb565b5060c082015161119060c08501826110fb565b50505050565b5f60e0820190506111a95f83018461110a565b92915050565b7f4e487b71000000000000000000000000000000000000000000000000000000005f52601260045260245ffd5b7f4e487b71000000000000000000000000000000000000000000000000000000005f52601160045260245ffd5b5f61121382610d59565b915061121e83610d59565b92508261122e5761122d6111af565b5b828204905092915050565b5f61124382610d59565b915061124e83610d59565b92508261125e5761125d6111af565b5b828206905092915050565b5f61127382610d59565b915061127e83610d59565b9250828201905080821115611296576112956111dc565b5b92915050565b5f6112a682610deb565b915061ffff82036112ba576112b96111dc565b5b600182019050919050565b7f4e487b71000000000000000000000000000000000000000000000000000000005f52603260045260245ffd5b5f6112fc82610deb565b915061130783610deb565b9250828203905061ffff811115611321576113206111dc565b5b92915050565b5f61133182610d59565b915061133c83610d59565b925082820261134a81610d59565b91508282048414831517611361576113606111dc565b5b5092915050565b5f61137282610db7565b915061137d83610db7565b9250828203905060ff811115611396576113956111dc565b5b92915050565b5f6113a682610d59565b91506113b183610d59565b92508282039050818111156113c9576113c86111dc565b5b92915050565b5f6113d982610deb565b91506113e483610deb565b9250826113f4576113f36111af565b5b828206905092915050565b5f61140982610db7565b915060ff820361141c5761141b6111dc565b5b60018201905091905056fea26469706673582212205d14844a64b98cd56643131f5b0b4a04c7a5dee833aabb80d7626bc1e1e1286b64736f6c63430008140033",
			"opcodes": "PUSH2 0x145D PUSH2 0x4E PUSH1 0xB DUP3 DUP3 DUP3 CODECOPY DUP1 MLOAD PUSH0 BYTE PUSH1 0x73 EQ PUSH2 0x42 JUMPI PUSH32 0x4E487B7100000000000000000000000000000000000000000000000000000000 PUSH0 MSTORE PUSH0 PUSH1 0x4 MSTORE PUSH1 0x24 PUSH0 REVERT JUMPDEST ADDRESS PUSH0 MSTORE PUSH1 0x73 DUP2 MSTORE8 DUP3 DUP2 RETURN INVALID PUSH20 0x0 ADDRESS EQ PUSH1 0x80 PUSH1 0x40 MSTORE PUSH1 0x4 CALLDATASIZE LT PUSH2 0xFE JUMPI PUSH0 CALLDATALOAD PUSH1 0xE0 SHR DUP1 PUSH4 0x9054BDEC GT PUSH2 0xA0 JUMPI DUP1 PUSH4 0xB1999937 GT PUSH2 0x6F JUMPI DUP1 PUSH4 0xB1999937 EQ PUSH2 0x312 JUMPI DUP1 PUSH4 0xB238AD0E EQ PUSH2 0x342 JUMPI DUP1 PUSH4 0xF97D0591 EQ PUSH2 0x372 JUMPI DUP1 PUSH4 0xFA93F883 EQ PUSH2 0x3A2 JUMPI PUSH2 0xFE JUMP JUMPDEST DUP1 PUSH4 0x9054BDEC EQ PUSH2 0x252 JUMPI DUP1 PUSH4 0x92D66313 EQ PUSH2 0x282 JUMPI DUP1 PUSH4 0xA324AD24 EQ PUSH2 0x2B2 JUMPI DUP1 PUSH4 0xA6F0E577 EQ PUSH2 0x2E2 JUMPI PUSH2 0xFE JUMP JUMPDEST DUP1 PUSH4 0x65C72840 GT PUSH2 0xDC JUMPI DUP1 PUSH4 0x65C72840 EQ PUSH2 0x192 JUMPI DUP1 PUSH4 0x7F791833 EQ PUSH2 0x1C2 JUMPI DUP1 PUSH4 0x8AA001FC EQ PUSH2 0x1F2 JUMPI DUP1 PUSH4 0x8C8D98A0 EQ PUSH2 0x222 JUMPI PUSH2 0xFE JUMP JUMPDEST DUP1 PUSH4 0x3E239E1A EQ PUSH2 0x102 JUMPI DUP1 PUSH4 0x4AC1AD78 EQ PUSH2 0x132 JUMPI DUP1 PUSH4 0x62BA9687 EQ PUSH2 0x162 JUMPI JUMPDEST PUSH0 DUP1 REVERT JUMPDEST PUSH2 0x11C PUSH1 0x4 DUP1 CALLDATASIZE SUB DUP2 ADD SWAP1 PUSH2 0x117 SWAP2 SWAP1 PUSH2 0xD8C JUMP JUMPDEST PUSH2 0x3D2 JUMP JUMPDEST PUSH1 0x40 MLOAD PUSH2 0x129 SWAP2 SWAP1 PUSH2 0xDD2 JUMP JUMPDEST PUSH1 0x40 MLOAD DUP1 SWAP2 SUB SWAP1 RETURN JUMPDEST PUSH2 0x14C PUSH1 0x4 DUP1 CALLDATASIZE SUB DUP2 ADD SWAP1 PUSH2 0x147 SWAP2 SWAP1 PUSH2 0xD8C JUMP JUMPDEST PUSH2 0x3FE JUMP JUMPDEST PUSH1 0x40 MLOAD PUSH2 0x159 SWAP2 SWAP1 PUSH2 0xDD2 JUMP JUMPDEST PUSH1 0x40 MLOAD DUP1 SWAP2 SUB SWAP1 RETURN JUMPDEST PUSH2 0x17C PUSH1 0x4 DUP1 CALLDATASIZE SUB DUP2 ADD SWAP1 PUSH2 0x177 SWAP2 SWAP1 PUSH2 0xE4C JUMP JUMPDEST PUSH2 0x42D JUMP JUMPDEST PUSH1 0x40 MLOAD PUSH2 0x189 SWAP2 SWAP1 PUSH2 0xED2 JUMP JUMPDEST PUSH1 0x40 MLOAD DUP1 SWAP2 SUB SWAP1 RETURN JUMPDEST PUSH2 0x1AC PUSH1 0x4 DUP1 CALLDATASIZE SUB DUP2 ADD SWAP1 PUSH2 0x1A7 SWAP2 SWAP1 PUSH2 0xD8C JUMP JUMPDEST PUSH2 0x447 JUMP JUMPDEST PUSH1 0x40 MLOAD PUSH2 0x1B9 SWAP2 SWAP1 PUSH2 0xDD2 JUMP JUMPDEST PUSH1 0x40 MLOAD DUP1 SWAP2 SUB SWAP1 RETURN JUMPDEST PUSH2 0x1DC PUSH1 0x4 DUP1 CALLDATASIZE SUB DUP2 ADD SWAP1 PUSH2 0x1D7 SWAP2 SWAP1 PUSH2 0xEEB JUMP JUMPDEST PUSH2 0x45C JUMP JUMPDEST PUSH1 0x40 MLOAD PUSH2 0x1E9 SWAP2 SWAP1 PUSH2 0xED2 JUMP JUMPDEST PUSH1 0x40 MLOAD DUP1 SWAP2 SUB SWAP1 RETURN JUMPDEST PUSH2 0x20C PUSH1 0x4 DUP1 CALLDATASIZE SUB DUP2 ADD SWAP1 PUSH2 0x207 SWAP2 SWAP1 PUSH2 0xD8C JUMP JUMPDEST PUSH2 0x475 JUMP JUMPDEST PUSH1 0x40 MLOAD PUSH2 0x219 SWAP2 SWAP1 PUSH2 0xDD2 JUMP JUMPDEST PUSH1 0x40 MLOAD DUP1 SWAP2 SUB SWAP1 RETURN JUMPDEST PUSH2 0x23C PUSH1 0x4 DUP1 CALLDATASIZE SUB DUP2 ADD SWAP1 PUSH2 0x237 SWAP2 SWAP1 PUSH2 0xF4F JUMP JUMPDEST PUSH2 0x48A JUMP JUMPDEST PUSH1 0x40 MLOAD PUSH2 0x249 SWAP2 SWAP1 PUSH2 0xED2 JUMP JUMPDEST PUSH1 0x40 MLOAD DUP1 SWAP2 SUB SWAP1 RETURN JUMPDEST PUSH2 0x26C PUSH1 0x4 DUP1 CALLDATASIZE SUB DUP2 ADD SWAP1 PUSH2 0x267 SWAP2 SWAP1 PUSH2 0xF9F JUMP JUMPDEST PUSH2 0x4A2 JUMP JUMPDEST PUSH1 0x40 MLOAD PUSH2 0x279 SWAP2 SWAP1 PUSH2 0xED2 JUMP JUMPDEST PUSH1 0x40 MLOAD DUP1 SWAP2 SUB SWAP1 RETURN JUMPDEST PUSH2 0x29C PUSH1 0x4 DUP1 CALLDATASIZE SUB DUP2 ADD SWAP1 PUSH2 0x297 SWAP2 SWAP1 PUSH2 0xD8C JUMP JUMPDEST PUSH2 0x80B JUMP JUMPDEST PUSH1 0x40 MLOAD PUSH2 0x2A9 SWAP2 SWAP1 PUSH2 0x1037 JUMP JUMPDEST PUSH1 0x40 MLOAD DUP1 SWAP2 SUB SWAP1 RETURN JUMPDEST PUSH2 0x2CC PUSH1 0x4 DUP1 CALLDATASIZE SUB DUP2 ADD SWAP1 PUSH2 0x2C7 SWAP2 SWAP1 PUSH2 0xD8C JUMP JUMPDEST PUSH2 0x91F JUMP JUMPDEST PUSH1 0x40 MLOAD PUSH2 0x2D9 SWAP2 SWAP1 PUSH2 0xDD2 JUMP JUMPDEST PUSH1 0x40 MLOAD DUP1 SWAP2 SUB SWAP1 RETURN JUMPDEST PUSH2 0x2FC PUSH1 0x4 DUP1 CALLDATASIZE SUB DUP2 ADD SWAP1 PUSH2 0x2F7 SWAP2 SWAP1 PUSH2 0x1050 JUMP JUMPDEST PUSH2 0x934 JUMP JUMPDEST PUSH1 0x40 MLOAD PUSH2 0x309 SWAP2 SWAP1 PUSH2 0x1095 JUMP JUMPDEST PUSH1 0x40 MLOAD DUP1 SWAP2 SUB SWAP1 RETURN JUMPDEST PUSH2 0x32C PUSH1 0x4 DUP1 CALLDATASIZE SUB DUP2 ADD SWAP1 PUSH2 0x327 SWAP2 SWAP1 PUSH2 0xD8C JUMP JUMPDEST PUSH2 0x99E JUMP JUMPDEST PUSH1 0x40 MLOAD PUSH2 0x339 SWAP2 SWAP1 PUSH2 0xED2 JUMP JUMPDEST PUSH1 0x40 MLOAD DUP1 SWAP2 SUB SWAP1 RETURN JUMPDEST PUSH2 0x35C PUSH1 0x4 DUP1 CALLDATASIZE SUB DUP2 ADD SWAP1 PUSH2 0x357 SWAP2 SWAP1 PUSH2 0x10AE JUMP JUMPDEST PUSH2 0x9F1 JUMP JUMPDEST PUSH1 0x40 MLOAD PUSH2 0x369 SWAP2 SWAP1 PUSH2 0xDD2 JUMP JUMPDEST PUSH1 0x40 MLOAD DUP1 SWAP2 SUB SWAP1 RETURN JUMPDEST PUSH2 0x38C PUSH1 0x4 DUP1 CALLDATASIZE SUB DUP2 ADD SWAP1 PUSH2 0x387 SWAP2 SWAP1 PUSH2 0xD8C JUMP JUMPDEST PUSH2 0xABC JUMP JUMPDEST PUSH1 0x40 MLOAD PUSH2 0x399 SWAP2 SWAP1 PUSH2 0x1196 JUMP JUMPDEST PUSH1 0x40 MLOAD DUP1 SWAP2 SUB SWAP1 RETURN JUMPDEST PUSH2 0x3BC PUSH1 0x4 DUP1 CALLDATASIZE SUB DUP2 ADD SWAP1 PUSH2 0x3B7 SWAP2 SWAP1 PUSH2 0xD8C JUMP JUMPDEST PUSH2 0xCC6 JUMP JUMPDEST PUSH1 0x40 MLOAD PUSH2 0x3C9 SWAP2 SWAP1 PUSH2 0xDD2 JUMP JUMPDEST PUSH1 0x40 MLOAD DUP1 SWAP2 SUB SWAP1 RETURN JUMPDEST PUSH0 PUSH1 0x18 PUSH1 0x3C DUP1 DUP5 PUSH2 0x3E3 SWAP2 SWAP1 PUSH2 0x1209 JUMP JUMPDEST PUSH2 0x3ED SWAP2 SWAP1 PUSH2 0x1209 JUMP JUMPDEST PUSH2 0x3F7 SWAP2 SWAP1 PUSH2 0x1239 JUMP JUMPDEST SWAP1 POP SWAP2 SWAP1 POP JUMP JUMPDEST PUSH0 PUSH1 0x7 PUSH1 0x4 PUSH3 0x15180 DUP5 PUSH2 0x412 SWAP2 SWAP1 PUSH2 0x1209 JUMP JUMPDEST PUSH2 0x41C SWAP2 SWAP1 PUSH2 0x1269 JUMP JUMPDEST PUSH2 0x426 SWAP2 SWAP1 PUSH2 0x1239 JUMP JUMPDEST SWAP1 POP SWAP2 SWAP1 POP JUMP JUMPDEST PUSH0 PUSH2 0x43C DUP7 DUP7 DUP7 DUP7 DUP7 PUSH0 PUSH2 0x4A2 JUMP JUMPDEST SWAP1 POP SWAP6 SWAP5 POP POP POP POP POP JUMP JUMPDEST PUSH0 PUSH2 0x451 DUP3 PUSH2 0xABC JUMP JUMPDEST PUSH1 0x40 ADD MLOAD SWAP1 POP SWAP2 SWAP1 POP JUMP JUMPDEST PUSH0 PUSH2 0x46B DUP6 DUP6 DUP6 DUP6 PUSH0 DUP1 PUSH2 0x4A2 JUMP JUMPDEST SWAP1 POP SWAP5 SWAP4 POP POP POP POP JUMP JUMPDEST PUSH0 PUSH1 0x3C DUP3 PUSH2 0x483 SWAP2 SWAP1 PUSH2 0x1239 JUMP JUMPDEST SWAP1 POP SWAP2 SWAP1 POP JUMP JUMPDEST PUSH0 PUSH2 0x499 DUP5 DUP5 DUP5 PUSH0 DUP1 PUSH0 PUSH2 0x4A2 JUMP JUMPDEST SWAP1 POP SWAP4 SWAP3 POP POP POP JUMP JUMPDEST PUSH0 DUP1 PUSH2 0x7B2 SWAP1 POP JUMPDEST DUP8 PUSH2 0xFFFF AND DUP2 PUSH2 0xFFFF AND LT ISZERO PUSH2 0x505 JUMPI PUSH2 0x4C3 DUP2 PUSH2 0x934 JUMP JUMPDEST ISZERO PUSH2 0x4DF JUMPI PUSH4 0x1E28500 DUP3 PUSH2 0x4D8 SWAP2 SWAP1 PUSH2 0x1269 JUMP JUMPDEST SWAP2 POP PUSH2 0x4F2 JUMP JUMPDEST PUSH4 0x1E13380 DUP3 PUSH2 0x4EF SWAP2 SWAP1 PUSH2 0x1269 JUMP JUMPDEST SWAP2 POP JUMPDEST DUP1 DUP1 PUSH2 0x4FD SWAP1 PUSH2 0x129C JUMP JUMPDEST SWAP2 POP POP PUSH2 0x4AA JUMP JUMPDEST PUSH2 0x50D PUSH2 0xCE6 JUMP JUMPDEST PUSH1 0x1F DUP2 PUSH0 PUSH1 0xC DUP2 LT PUSH2 0x522 JUMPI PUSH2 0x521 PUSH2 0x12C5 JUMP JUMPDEST JUMPDEST PUSH1 0x20 MUL ADD SWAP1 PUSH1 0xFF AND SWAP1 DUP2 PUSH1 0xFF AND DUP2 MSTORE POP POP PUSH2 0x53C DUP10 PUSH2 0x934 JUMP JUMPDEST ISZERO PUSH2 0x56D JUMPI PUSH1 0x1D DUP2 PUSH1 0x1 PUSH1 0xC DUP2 LT PUSH2 0x557 JUMPI PUSH2 0x556 PUSH2 0x12C5 JUMP JUMPDEST JUMPDEST PUSH1 0x20 MUL ADD SWAP1 PUSH1 0xFF AND SWAP1 DUP2 PUSH1 0xFF AND DUP2 MSTORE POP POP PUSH2 0x595 JUMP JUMPDEST PUSH1 0x1C DUP2 PUSH1 0x1 PUSH1 0xC DUP2 LT PUSH2 0x583 JUMPI PUSH2 0x582 PUSH2 0x12C5 JUMP JUMPDEST JUMPDEST PUSH1 0x20 MUL ADD SWAP1 PUSH1 0xFF AND SWAP1 DUP2 PUSH1 0xFF AND DUP2 MSTORE POP POP JUMPDEST PUSH1 0x1F DUP2 PUSH1 0x2 PUSH1 0xC DUP2 LT PUSH2 0x5AB JUMPI PUSH2 0x5AA PUSH2 0x12C5 JUMP JUMPDEST JUMPDEST PUSH1 0x20 MUL ADD SWAP1 PUSH1 0xFF AND SWAP1 DUP2 PUSH1 0xFF AND DUP2 MSTORE POP POP PUSH1 0x1E DUP2 PUSH1 0x3 PUSH1 0xC DUP2 LT PUSH2 0x5D2 JUMPI PUSH2 0x5D1 PUSH2 0x12C5 JUMP JUMPDEST JUMPDEST PUSH1 0x20 MUL ADD SWAP1 PUSH1 0xFF AND SWAP1 DUP2 PUSH1 0xFF AND DUP2 MSTORE POP POP PUSH1 0x1F DUP2 PUSH1 0x4 PUSH1 0xC DUP2 LT PUSH2 0x5F9 JUMPI PUSH2 0x5F8 PUSH2 0x12C5 JUMP JUMPDEST JUMPDEST PUSH1 0x20 MUL ADD SWAP1 PUSH1 0xFF AND SWAP1 DUP2 PUSH1 0xFF AND DUP2 MSTORE POP POP PUSH1 0x1E DUP2 PUSH1 0x5 PUSH1 0xC DUP2 LT PUSH2 0x620 JUMPI PUSH2 0x61F PUSH2 0x12C5 JUMP JUMPDEST JUMPDEST PUSH1 0x20 MUL ADD SWAP1 PUSH1 0xFF AND SWAP1 DUP2 PUSH1 0xFF AND DUP2 MSTORE POP POP PUSH1 0x1F DUP2 PUSH1 0x6 PUSH1 0xC DUP2 LT PUSH2 0x647 JUMPI PUSH2 0x646 PUSH2 0x12C5 JUMP JUMPDEST JUMPDEST PUSH1 0x20 MUL ADD SWAP1 PUSH1 0xFF AND SWAP1 DUP2 PUSH1 0xFF AND DUP2 MSTORE POP POP PUSH1 0x1F DUP2 PUSH1 0x7 PUSH1 0xC DUP2 LT PUSH2 0x66E JUMPI PUSH2 0x66D PUSH2 0x12C5 JUMP JUMPDEST JUMPDEST PUSH1 0x20 MUL ADD SWAP1 PUSH1 0xFF AND SWAP1 DUP2 PUSH1 0xFF AND DUP2 MSTORE POP POP PUSH1 0x1E DUP2 PUSH1 0x8 PUSH1 0xC DUP2 LT PUSH2 0x695 JUMPI PUSH2 0x694 PUSH2 0x12C5 JUMP JUMPDEST JUMPDEST PUSH1 0x20 MUL ADD SWAP1 PUSH1 0xFF AND SWAP1 DUP2 PUSH1 0xFF AND DUP2 MSTORE POP POP PUSH1 0x1F DUP2 PUSH1 0x9 PUSH1 0xC DUP2 LT PUSH2 0x6BC JUMPI PUSH2 0x6BB PUSH2 0x12C5 JUMP JUMPDEST JUMPDEST PUSH1 0x20 MUL ADD SWAP1 PUSH1 0xFF AND SWAP1 DUP2 PUSH1 0xFF AND DUP2 MSTORE POP POP PUSH1 0x1E DUP2 PUSH1 0xA PUSH1 0xC DUP2 LT PUSH2 0x6E3 JUMPI PUSH2 0x6E2 PUSH2 0x12C5 JUMP JUMPDEST JUMPDEST PUSH1 0x20 MUL ADD SWAP1 PUSH1 0xFF AND SWAP1 DUP2 PUSH1 0xFF AND DUP2 MSTORE POP POP PUSH1 0x1F DUP2 PUSH1 0xB PUSH1 0xC DUP2 LT PUSH2 0x70A JUMPI PUSH2 0x709 PUSH2 0x12C5 JUMP JUMPDEST JUMPDEST PUSH1 0x20 MUL ADD SWAP1 PUSH1 0xFF AND SWAP1 DUP2 PUSH1 0xFF AND DUP2 MSTORE POP POP PUSH1 0x1 SWAP2 POP JUMPDEST DUP8 PUSH1 0xFF AND DUP3 PUSH2 0xFFFF AND LT ISZERO PUSH2 0x788 JUMPI DUP1 PUSH1 0x1 DUP4 PUSH2 0x73D SWAP2 SWAP1 PUSH2 0x12F2 JUMP JUMPDEST PUSH2 0xFFFF AND PUSH1 0xC DUP2 LT PUSH2 0x752 JUMPI PUSH2 0x751 PUSH2 0x12C5 JUMP JUMPDEST JUMPDEST PUSH1 0x20 MUL ADD MLOAD PUSH1 0xFF AND PUSH3 0x15180 PUSH2 0x768 SWAP2 SWAP1 PUSH2 0x1327 JUMP JUMPDEST DUP4 PUSH2 0x773 SWAP2 SWAP1 PUSH2 0x1269 JUMP JUMPDEST SWAP3 POP DUP2 DUP1 PUSH2 0x780 SWAP1 PUSH2 0x129C JUMP JUMPDEST SWAP3 POP POP PUSH2 0x720 JUMP JUMPDEST PUSH1 0x1 DUP8 PUSH2 0x795 SWAP2 SWAP1 PUSH2 0x1368 JUMP JUMPDEST PUSH1 0xFF AND PUSH3 0x15180 PUSH2 0x7A6 SWAP2 SWAP1 PUSH2 0x1327 JUMP JUMPDEST DUP4 PUSH2 0x7B1 SWAP2 SWAP1 PUSH2 0x1269 JUMP JUMPDEST SWAP3 POP DUP6 PUSH1 0xFF AND PUSH2 0xE10 PUSH2 0x7C4 SWAP2 SWAP1 PUSH2 0x1327 JUMP JUMPDEST DUP4 PUSH2 0x7CF SWAP2 SWAP1 PUSH2 0x1269 JUMP JUMPDEST SWAP3 POP DUP5 PUSH1 0xFF AND PUSH1 0x3C PUSH2 0x7E1 SWAP2 SWAP1 PUSH2 0x1327 JUMP JUMPDEST DUP4 PUSH2 0x7EC SWAP2 SWAP1 PUSH2 0x1269 JUMP JUMPDEST SWAP3 POP DUP4 PUSH1 0xFF AND DUP4 PUSH2 0x7FD SWAP2 SWAP1 PUSH2 0x1269 JUMP JUMPDEST SWAP3 POP POP POP SWAP7 SWAP6 POP POP POP POP POP POP JUMP JUMPDEST PUSH0 DUP1 PUSH0 SWAP1 POP PUSH0 DUP1 PUSH4 0x1E13380 DUP6 PUSH2 0x822 SWAP2 SWAP1 PUSH2 0x1209 JUMP JUMPDEST PUSH2 0x7B2 PUSH2 0xFFFF AND PUSH2 0x833 SWAP2 SWAP1 PUSH2 0x1269 JUMP JUMPDEST SWAP2 POP PUSH2 0x844 PUSH2 0x7B2 PUSH2 0xFFFF AND PUSH2 0x99E JUMP JUMPDEST PUSH2 0x851 DUP4 PUSH2 0xFFFF AND PUSH2 0x99E JUMP JUMPDEST PUSH2 0x85B SWAP2 SWAP1 PUSH2 0x139C JUMP JUMPDEST SWAP1 POP DUP1 PUSH4 0x1E28500 PUSH2 0x86D SWAP2 SWAP1 PUSH2 0x1327 JUMP JUMPDEST DUP4 PUSH2 0x878 SWAP2 SWAP1 PUSH2 0x1269 JUMP JUMPDEST SWAP3 POP DUP1 PUSH2 0x7B2 DUP4 PUSH2 0x889 SWAP2 SWAP1 PUSH2 0x12F2 JUMP JUMPDEST PUSH2 0xFFFF AND PUSH2 0x897 SWAP2 SWAP1 PUSH2 0x139C JUMP JUMPDEST PUSH4 0x1E13380 PUSH2 0x8A6 SWAP2 SWAP1 PUSH2 0x1327 JUMP JUMPDEST DUP4 PUSH2 0x8B1 SWAP2 SWAP1 PUSH2 0x1269 JUMP JUMPDEST SWAP3 POP JUMPDEST DUP5 DUP4 GT ISZERO PUSH2 0x914 JUMPI PUSH2 0x8D1 PUSH1 0x1 DUP4 PUSH2 0x8CC SWAP2 SWAP1 PUSH2 0x12F2 JUMP JUMPDEST PUSH2 0x934 JUMP JUMPDEST ISZERO PUSH2 0x8ED JUMPI PUSH4 0x1E28500 DUP4 PUSH2 0x8E6 SWAP2 SWAP1 PUSH2 0x139C JUMP JUMPDEST SWAP3 POP PUSH2 0x900 JUMP JUMPDEST PUSH4 0x1E13380 DUP4 PUSH2 0x8FD SWAP2 SWAP1 PUSH2 0x139C JUMP JUMPDEST SWAP3 POP JUMPDEST PUSH1 0x1 DUP3 PUSH2 0x90D SWAP2 SWAP1 PUSH2 0x12F2 JUMP JUMPDEST SWAP2 POP PUSH2 0x8B4 JUMP JUMPDEST DUP2 SWAP4 POP POP POP POP SWAP2 SWAP1 POP JUMP JUMPDEST PUSH0 PUSH2 0x929 DUP3 PUSH2 0xABC JUMP JUMPDEST PUSH1 0x20 ADD MLOAD SWAP1 POP SWAP2 SWAP1 POP JUMP JUMPDEST PUSH0 DUP1 PUSH1 0x4 DUP4 PUSH2 0x943 SWAP2 SWAP1 PUSH2 0x13CF JUMP JUMPDEST PUSH2 0xFFFF AND EQ PUSH2 0x954 JUMPI PUSH0 SWAP1 POP PUSH2 0x999 JUMP JUMPDEST PUSH0 PUSH1 0x64 DUP4 PUSH2 0x962 SWAP2 SWAP1 PUSH2 0x13CF JUMP JUMPDEST PUSH2 0xFFFF AND EQ PUSH2 0x974 JUMPI PUSH1 0x1 SWAP1 POP PUSH2 0x999 JUMP JUMPDEST PUSH0 PUSH2 0x190 DUP4 PUSH2 0x983 SWAP2 SWAP1 PUSH2 0x13CF JUMP JUMPDEST PUSH2 0xFFFF AND EQ PUSH2 0x994 JUMPI PUSH0 SWAP1 POP PUSH2 0x999 JUMP JUMPDEST PUSH1 0x1 SWAP1 POP JUMPDEST SWAP2 SWAP1 POP JUMP JUMPDEST PUSH0 PUSH1 0x1 DUP3 PUSH2 0x9AC SWAP2 SWAP1 PUSH2 0x139C JUMP JUMPDEST SWAP2 POP PUSH2 0x190 DUP3 PUSH2 0x9BC SWAP2 SWAP1 PUSH2 0x1209 JUMP JUMPDEST PUSH1 0x64 DUP4 PUSH2 0x9C9 SWAP2 SWAP1 PUSH2 0x1209 JUMP JUMPDEST PUSH1 0x4 DUP5 PUSH2 0x9D6 SWAP2 SWAP1 PUSH2 0x1209 JUMP JUMPDEST PUSH2 0x9E0 SWAP2 SWAP1 PUSH2 0x139C JUMP JUMPDEST PUSH2 0x9EA SWAP2 SWAP1 PUSH2 0x1269 JUMP JUMPDEST SWAP1 POP SWAP2 SWAP1 POP JUMP JUMPDEST PUSH0 PUSH1 0x1 DUP4 PUSH1 0xFF AND EQ DUP1 PUSH2 0xA07 JUMPI POP PUSH1 0x3 DUP4 PUSH1 0xFF AND EQ JUMPDEST DUP1 PUSH2 0xA15 JUMPI POP PUSH1 0x5 DUP4 PUSH1 0xFF AND EQ JUMPDEST DUP1 PUSH2 0xA23 JUMPI POP PUSH1 0x7 DUP4 PUSH1 0xFF AND EQ JUMPDEST DUP1 PUSH2 0xA31 JUMPI POP PUSH1 0x8 DUP4 PUSH1 0xFF AND EQ JUMPDEST DUP1 PUSH2 0xA3F JUMPI POP PUSH1 0xA DUP4 PUSH1 0xFF AND EQ JUMPDEST DUP1 PUSH2 0xA4D JUMPI POP PUSH1 0xC DUP4 PUSH1 0xFF AND EQ JUMPDEST ISZERO PUSH2 0xA5B JUMPI PUSH1 0x1F SWAP1 POP PUSH2 0xAB6 JUMP JUMPDEST PUSH1 0x4 DUP4 PUSH1 0xFF AND EQ DUP1 PUSH2 0xA70 JUMPI POP PUSH1 0x6 DUP4 PUSH1 0xFF AND EQ JUMPDEST DUP1 PUSH2 0xA7E JUMPI POP PUSH1 0x9 DUP4 PUSH1 0xFF AND EQ JUMPDEST DUP1 PUSH2 0xA8C JUMPI POP PUSH1 0xB DUP4 PUSH1 0xFF AND EQ JUMPDEST ISZERO PUSH2 0xA9A JUMPI PUSH1 0x1E SWAP1 POP PUSH2 0xAB6 JUMP JUMPDEST PUSH2 0xAA3 DUP3 PUSH2 0x934 JUMP JUMPDEST ISZERO PUSH2 0xAB1 JUMPI PUSH1 0x1D SWAP1 POP PUSH2 0xAB6 JUMP JUMPDEST PUSH1 0x1C SWAP1 POP JUMPDEST SWAP3 SWAP2 POP POP JUMP JUMPDEST PUSH2 0xAC4 PUSH2 0xD09 JUMP JUMPDEST PUSH0 DUP1 DUP1 PUSH2 0xAD0 DUP6 PUSH2 0x80B JUMP JUMPDEST DUP5 PUSH0 ADD SWAP1 PUSH2 0xFFFF AND SWAP1 DUP2 PUSH2 0xFFFF AND DUP2 MSTORE POP POP PUSH2 0xAF1 PUSH2 0x7B2 PUSH2 0xFFFF AND PUSH2 0x99E JUMP JUMPDEST PUSH2 0xB01 DUP6 PUSH0 ADD MLOAD PUSH2 0xFFFF AND PUSH2 0x99E JUMP JUMPDEST PUSH2 0xB0B SWAP2 SWAP1 PUSH2 0x139C JUMP JUMPDEST SWAP2 POP DUP2 PUSH4 0x1E28500 PUSH2 0xB1D SWAP2 SWAP1 PUSH2 0x1327 JUMP JUMPDEST DUP4 PUSH2 0xB28 SWAP2 SWAP1 PUSH2 0x1269 JUMP JUMPDEST SWAP3 POP DUP2 PUSH2 0x7B2 DUP6 PUSH0 ADD MLOAD PUSH2 0xB3C SWAP2 SWAP1 PUSH2 0x12F2 JUMP JUMPDEST PUSH2 0xFFFF AND PUSH2 0xB4A SWAP2 SWAP1 PUSH2 0x139C JUMP JUMPDEST PUSH4 0x1E13380 PUSH2 0xB59 SWAP2 SWAP1 PUSH2 0x1327 JUMP JUMPDEST DUP4 PUSH2 0xB64 SWAP2 SWAP1 PUSH2 0x1269 JUMP JUMPDEST SWAP3 POP PUSH0 PUSH1 0x1 SWAP2 POP JUMPDEST PUSH1 0xC DUP3 PUSH1 0xFF AND GT PUSH2 0xBE2 JUMPI PUSH2 0xB84 DUP3 DUP7 PUSH0 ADD MLOAD PUSH2 0x9F1 JUMP JUMPDEST PUSH1 0xFF AND PUSH3 0x15180 PUSH2 0xB95 SWAP2 SWAP1 PUSH2 0x1327 JUMP JUMPDEST SWAP1 POP DUP6 DUP5 DUP3 PUSH2 0xBA4 SWAP2 SWAP1 PUSH2 0x1269 JUMP JUMPDEST GT ISZERO PUSH2 0xBC1 JUMPI DUP2 DUP6 PUSH1 0x20 ADD SWAP1 PUSH1 0xFF AND SWAP1 DUP2 PUSH1 0xFF AND DUP2 MSTORE POP POP PUSH2 0xBE2 JUMP JUMPDEST DUP1 DUP5 PUSH2 0xBCD SWAP2 SWAP1 PUSH2 0x1269 JUMP JUMPDEST SWAP4 POP DUP2 DUP1 PUSH2 0xBDA SWAP1 PUSH2 0x13FF JUMP JUMPDEST SWAP3 POP POP PUSH2 0xB6C JUMP JUMPDEST PUSH1 0x1 SWAP2 POP JUMPDEST PUSH2 0xBF8 DUP6 PUSH1 0x20 ADD MLOAD DUP7 PUSH0 ADD MLOAD PUSH2 0x9F1 JUMP JUMPDEST PUSH1 0xFF AND DUP3 PUSH1 0xFF AND GT PUSH2 0xC55 JUMPI DUP6 DUP5 PUSH3 0x15180 PUSH2 0xC14 SWAP2 SWAP1 PUSH2 0x1269 JUMP JUMPDEST GT ISZERO PUSH2 0xC31 JUMPI DUP2 DUP6 PUSH1 0x40 ADD SWAP1 PUSH1 0xFF AND SWAP1 DUP2 PUSH1 0xFF AND DUP2 MSTORE POP POP PUSH2 0xC55 JUMP JUMPDEST PUSH3 0x15180 DUP5 PUSH2 0xC40 SWAP2 SWAP1 PUSH2 0x1269 JUMP JUMPDEST SWAP4 POP DUP2 DUP1 PUSH2 0xC4D SWAP1 PUSH2 0x13FF JUMP JUMPDEST SWAP3 POP POP PUSH2 0xBE7 JUMP JUMPDEST PUSH2 0xC5E DUP7 PUSH2 0x3D2 JUMP JUMPDEST DUP6 PUSH1 0x60 ADD SWAP1 PUSH1 0xFF AND SWAP1 DUP2 PUSH1 0xFF AND DUP2 MSTORE POP POP PUSH2 0xC78 DUP7 PUSH2 0xCC6 JUMP JUMPDEST DUP6 PUSH1 0x80 ADD SWAP1 PUSH1 0xFF AND SWAP1 DUP2 PUSH1 0xFF AND DUP2 MSTORE POP POP PUSH2 0xC92 DUP7 PUSH2 0x475 JUMP JUMPDEST DUP6 PUSH1 0xA0 ADD SWAP1 PUSH1 0xFF AND SWAP1 DUP2 PUSH1 0xFF AND DUP2 MSTORE POP POP PUSH2 0xCAC DUP7 PUSH2 0x3FE JUMP JUMPDEST DUP6 PUSH1 0xC0 ADD SWAP1 PUSH1 0xFF AND SWAP1 DUP2 PUSH1 0xFF AND DUP2 MSTORE POP POP POP POP POP POP SWAP2 SWAP1 POP JUMP JUMPDEST PUSH0 PUSH1 0x3C DUP1 DUP4 PUSH2 0xCD5 SWAP2 SWAP1 PUSH2 0x1209 JUMP JUMPDEST PUSH2 0xCDF SWAP2 SWAP1 PUSH2 0x1239 JUMP JUMPDEST SWAP1 POP SWAP2 SWAP1 POP JUMP JUMPDEST PUSH1 0x40 MLOAD DUP1 PUSH2 0x180 ADD PUSH1 0x40 MSTORE DUP1 PUSH1 0xC SWAP1 PUSH1 0x20 DUP3 MUL DUP1 CALLDATASIZE DUP4 CALLDATACOPY DUP1 DUP3 ADD SWAP2 POP POP SWAP1 POP POP SWAP1 JUMP JUMPDEST PUSH1 0x40 MLOAD DUP1 PUSH1 0xE0 ADD PUSH1 0x40 MSTORE DUP1 PUSH0 PUSH2 0xFFFF AND DUP2 MSTORE PUSH1 0x20 ADD PUSH0 PUSH1 0xFF AND DUP2 MSTORE PUSH1 0x20 ADD PUSH0 PUSH1 0xFF AND DUP2 MSTORE PUSH1 0x20 ADD PUSH0 PUSH1 0xFF AND DUP2 MSTORE PUSH1 0x20 ADD PUSH0 PUSH1 0xFF AND DUP2 MSTORE PUSH1 0x20 ADD PUSH0 PUSH1 0xFF AND DUP2 MSTORE PUSH1 0x20 ADD PUSH0 PUSH1 0xFF AND DUP2 MSTORE POP SWAP1 JUMP JUMPDEST PUSH0 DUP1 REVERT JUMPDEST PUSH0 DUP2 SWAP1 POP SWAP2 SWAP1 POP JUMP JUMPDEST PUSH2 0xD6B DUP2 PUSH2 0xD59 JUMP JUMPDEST DUP2 EQ PUSH2 0xD75 JUMPI PUSH0 DUP1 REVERT JUMPDEST POP JUMP JUMPDEST PUSH0 DUP2 CALLDATALOAD SWAP1 POP PUSH2 0xD86 DUP2 PUSH2 0xD62 JUMP JUMPDEST SWAP3 SWAP2 POP POP JUMP JUMPDEST PUSH0 PUSH1 0x20 DUP3 DUP5 SUB SLT ISZERO PUSH2 0xDA1 JUMPI PUSH2 0xDA0 PUSH2 0xD55 JUMP JUMPDEST JUMPDEST PUSH0 PUSH2 0xDAE DUP5 DUP3 DUP6 ADD PUSH2 0xD78 JUMP JUMPDEST SWAP2 POP POP SWAP3 SWAP2 POP POP JUMP JUMPDEST PUSH0 PUSH1 0xFF DUP3 AND SWAP1 POP SWAP2 SWAP1 POP JUMP JUMPDEST PUSH2 0xDCC DUP2 PUSH2 0xDB7 JUMP JUMPDEST DUP3 MSTORE POP POP JUMP JUMPDEST PUSH0 PUSH1 0x20 DUP3 ADD SWAP1 POP PUSH2 0xDE5 PUSH0 DUP4 ADD DUP5 PUSH2 0xDC3 JUMP JUMPDEST SWAP3 SWAP2 POP POP JUMP JUMPDEST PUSH0 PUSH2 0xFFFF DUP3 AND SWAP1 POP SWAP2 SWAP1 POP JUMP JUMPDEST PUSH2 0xE01 DUP2 PUSH2 0xDEB JUMP JUMPDEST DUP2 EQ PUSH2 0xE0B JUMPI PUSH0 DUP1 REVERT JUMPDEST POP JUMP JUMPDEST PUSH0 DUP2 CALLDATALOAD SWAP1 POP PUSH2 0xE1C DUP2 PUSH2 0xDF8 JUMP JUMPDEST SWAP3 SWAP2 POP POP JUMP JUMPDEST PUSH2 0xE2B DUP2 PUSH2 0xDB7 JUMP JUMPDEST DUP2 EQ PUSH2 0xE35 JUMPI PUSH0 DUP1 REVERT JUMPDEST POP JUMP JUMPDEST PUSH0 DUP2 CALLDATALOAD SWAP1 POP PUSH2 0xE46 DUP2 PUSH2 0xE22 JUMP JUMPDEST SWAP3 SWAP2 POP POP JUMP JUMPDEST PUSH0 DUP1 PUSH0 DUP1 PUSH0 PUSH1 0xA0 DUP7 DUP9 SUB SLT ISZERO PUSH2 0xE65 JUMPI PUSH2 0xE64 PUSH2 0xD55 JUMP JUMPDEST JUMPDEST PUSH0 PUSH2 0xE72 DUP9 DUP3 DUP10 ADD PUSH2 0xE0E JUMP JUMPDEST SWAP6 POP POP PUSH1 0x20 PUSH2 0xE83 DUP9 DUP3 DUP10 ADD PUSH2 0xE38 JUMP JUMPDEST SWAP5 POP POP PUSH1 0x40 PUSH2 0xE94 DUP9 DUP3 DUP10 ADD PUSH2 0xE38 JUMP JUMPDEST SWAP4 POP POP PUSH1 0x60 PUSH2 0xEA5 DUP9 DUP3 DUP10 ADD PUSH2 0xE38 JUMP JUMPDEST SWAP3 POP POP PUSH1 0x80 PUSH2 0xEB6 DUP9 DUP3 DUP10 ADD PUSH2 0xE38 JUMP JUMPDEST SWAP2 POP POP SWAP3 SWAP6 POP SWAP3 SWAP6 SWAP1 SWAP4 POP JUMP JUMPDEST PUSH2 0xECC DUP2 PUSH2 0xD59 JUMP JUMPDEST DUP3 MSTORE POP POP JUMP JUMPDEST PUSH0 PUSH1 0x20 DUP3 ADD SWAP1 POP PUSH2 0xEE5 PUSH0 DUP4 ADD DUP5 PUSH2 0xEC3 JUMP JUMPDEST SWAP3 SWAP2 POP POP JUMP JUMPDEST PUSH0 DUP1 PUSH0 DUP1 PUSH1 0x80 DUP6 DUP8 SUB SLT ISZERO PUSH2 0xF03 JUMPI PUSH2 0xF02 PUSH2 0xD55 JUMP JUMPDEST JUMPDEST PUSH0 PUSH2 0xF10 DUP8 DUP3 DUP9 ADD PUSH2 0xE0E JUMP JUMPDEST SWAP5 POP POP PUSH1 0x20 PUSH2 0xF21 DUP8 DUP3 DUP9 ADD PUSH2 0xE38 JUMP JUMPDEST SWAP4 POP POP PUSH1 0x40 PUSH2 0xF32 DUP8 DUP3 DUP9 ADD PUSH2 0xE38 JUMP JUMPDEST SWAP3 POP POP PUSH1 0x60 PUSH2 0xF43 DUP8 DUP3 DUP9 ADD PUSH2 0xE38 JUMP JUMPDEST SWAP2 POP POP SWAP3 SWAP6 SWAP2 SWAP5 POP SWAP3 POP JUMP JUMPDEST PUSH0 DUP1 PUSH0 PUSH1 0x60 DUP5 DUP7 SUB SLT ISZERO PUSH2 0xF66 JUMPI PUSH2 0xF65 PUSH2 0xD55 JUMP JUMPDEST JUMPDEST PUSH0 PUSH2 0xF73 DUP7 DUP3 DUP8 ADD PUSH2 0xE0E JUMP JUMPDEST SWAP4 POP POP PUSH1 0x20 PUSH2 0xF84 DUP7 DUP3 DUP8 ADD PUSH2 0xE38 JUMP JUMPDEST SWAP3 POP POP PUSH1 0x40 PUSH2 0xF95 DUP7 DUP3 DUP8 ADD PUSH2 0xE38 JUMP JUMPDEST SWAP2 POP POP SWAP3 POP SWAP3 POP SWAP3 JUMP JUMPDEST PUSH0 DUP1 PUSH0 DUP1 PUSH0 DUP1 PUSH1 0xC0 DUP8 DUP10 SUB SLT ISZERO PUSH2 0xFB9 JUMPI PUSH2 0xFB8 PUSH2 0xD55 JUMP JUMPDEST JUMPDEST PUSH0 PUSH2 0xFC6 DUP10 DUP3 DUP11 ADD PUSH2 0xE0E JUMP JUMPDEST SWAP7 POP POP PUSH1 0x20 PUSH2 0xFD7 DUP10 DUP3 DUP11 ADD PUSH2 0xE38 JUMP JUMPDEST SWAP6 POP POP PUSH1 0x40 PUSH2 0xFE8 DUP10 DUP3 DUP11 ADD PUSH2 0xE38 JUMP JUMPDEST SWAP5 POP POP PUSH1 0x60 PUSH2 0xFF9 DUP10 DUP3 DUP11 ADD PUSH2 0xE38 JUMP JUMPDEST SWAP4 POP POP PUSH1 0x80 PUSH2 0x100A DUP10 DUP3 DUP11 ADD PUSH2 0xE38 JUMP JUMPDEST SWAP3 POP POP PUSH1 0xA0 PUSH2 0x101B DUP10 DUP3 DUP11 ADD PUSH2 0xE38 JUMP JUMPDEST SWAP2 POP POP SWAP3 SWAP6 POP SWAP3 SWAP6 POP SWAP3 SWAP6 JUMP JUMPDEST PUSH2 0x1031 DUP2 PUSH2 0xDEB JUMP JUMPDEST DUP3 MSTORE POP POP JUMP JUMPDEST PUSH0 PUSH1 0x20 DUP3 ADD SWAP1 POP PUSH2 0x104A PUSH0 DUP4 ADD DUP5 PUSH2 0x1028 JUMP JUMPDEST SWAP3 SWAP2 POP POP JUMP JUMPDEST PUSH0 PUSH1 0x20 DUP3 DUP5 SUB SLT ISZERO PUSH2 0x1065 JUMPI PUSH2 0x1064 PUSH2 0xD55 JUMP JUMPDEST JUMPDEST PUSH0 PUSH2 0x1072 DUP5 DUP3 DUP6 ADD PUSH2 0xE0E JUMP JUMPDEST SWAP2 POP POP SWAP3 SWAP2 POP POP JUMP JUMPDEST PUSH0 DUP2 ISZERO ISZERO SWAP1 POP SWAP2 SWAP1 POP JUMP JUMPDEST PUSH2 0x108F DUP2 PUSH2 0x107B JUMP JUMPDEST DUP3 MSTORE POP POP JUMP JUMPDEST PUSH0 PUSH1 0x20 DUP3 ADD SWAP1 POP PUSH2 0x10A8 PUSH0 DUP4 ADD DUP5 PUSH2 0x1086 JUMP JUMPDEST SWAP3 SWAP2 POP POP JUMP JUMPDEST PUSH0 DUP1 PUSH1 0x40 DUP4 DUP6 SUB SLT ISZERO PUSH2 0x10C4 JUMPI PUSH2 0x10C3 PUSH2 0xD55 JUMP JUMPDEST JUMPDEST PUSH0 PUSH2 0x10D1 DUP6 DUP3 DUP7 ADD PUSH2 0xE38 JUMP JUMPDEST SWAP3 POP POP PUSH1 0x20 PUSH2 0x10E2 DUP6 DUP3 DUP7 ADD PUSH2 0xE0E JUMP JUMPDEST SWAP2 POP POP SWAP3 POP SWAP3 SWAP1 POP JUMP JUMPDEST PUSH2 0x10F5 DUP2 PUSH2 0xDEB JUMP JUMPDEST DUP3 MSTORE POP POP JUMP JUMPDEST PUSH2 0x1104 DUP2 PUSH2 0xDB7 JUMP JUMPDEST DUP3 MSTORE POP POP JUMP JUMPDEST PUSH1 0xE0 DUP3 ADD PUSH0 DUP3 ADD MLOAD PUSH2 0x111E PUSH0 DUP6 ADD DUP3 PUSH2 0x10EC JUMP JUMPDEST POP PUSH1 0x20 DUP3 ADD MLOAD PUSH2 0x1131 PUSH1 0x20 DUP6 ADD DUP3 PUSH2 0x10FB JUMP JUMPDEST POP PUSH1 0x40 DUP3 ADD MLOAD PUSH2 0x1144 PUSH1 0x40 DUP6 ADD DUP3 PUSH2 0x10FB JUMP JUMPDEST POP PUSH1 0x60 DUP3 ADD MLOAD PUSH2 0x1157 PUSH1 0x60 DUP6 ADD DUP3 PUSH2 0x10FB JUMP JUMPDEST POP PUSH1 0x80 DUP3 ADD MLOAD PUSH2 0x116A PUSH1 0x80 DUP6 ADD DUP3 PUSH2 0x10FB JUMP JUMPDEST POP PUSH1 0xA0 DUP3 ADD MLOAD PUSH2 0x117D PUSH1 0xA0 DUP6 ADD DUP3 PUSH2 0x10FB JUMP JUMPDEST POP PUSH1 0xC0 DUP3 ADD MLOAD PUSH2 0x1190 PUSH1 0xC0 DUP6 ADD DUP3 PUSH2 0x10FB JUMP JUMPDEST POP POP POP POP JUMP JUMPDEST PUSH0 PUSH1 0xE0 DUP3 ADD SWAP1 POP PUSH2 0x11A9 PUSH0 DUP4 ADD DUP5 PUSH2 0x110A JUMP JUMPDEST SWAP3 SWAP2 POP POP JUMP JUMPDEST PUSH32 0x4E487B7100000000000000000000000000000000000000000000000000000000 PUSH0 MSTORE PUSH1 0x12 PUSH1 0x4 MSTORE PUSH1 0x24 PUSH0 REVERT JUMPDEST PUSH32 0x4E487B7100000000000000000000000000000000000000000000000000000000 PUSH0 MSTORE PUSH1 0x11 PUSH1 0x4 MSTORE PUSH1 0x24 PUSH0 REVERT JUMPDEST PUSH0 PUSH2 0x1213 DUP3 PUSH2 0xD59 JUMP JUMPDEST SWAP2 POP PUSH2 0x121E DUP4 PUSH2 0xD59 JUMP JUMPDEST SWAP3 POP DUP3 PUSH2 0x122E JUMPI PUSH2 0x122D PUSH2 0x11AF JUMP JUMPDEST JUMPDEST DUP3 DUP3 DIV SWAP1 POP SWAP3 SWAP2 POP POP JUMP JUMPDEST PUSH0 PUSH2 0x1243 DUP3 PUSH2 0xD59 JUMP JUMPDEST SWAP2 POP PUSH2 0x124E DUP4 PUSH2 0xD59 JUMP JUMPDEST SWAP3 POP DUP3 PUSH2 0x125E JUMPI PUSH2 0x125D PUSH2 0x11AF JUMP JUMPDEST JUMPDEST DUP3 DUP3 MOD SWAP1 POP SWAP3 SWAP2 POP POP JUMP JUMPDEST PUSH0 PUSH2 0x1273 DUP3 PUSH2 0xD59 JUMP JUMPDEST SWAP2 POP PUSH2 0x127E DUP4 PUSH2 0xD59 JUMP JUMPDEST SWAP3 POP DUP3 DUP3 ADD SWAP1 POP DUP1 DUP3 GT ISZERO PUSH2 0x1296 JUMPI PUSH2 0x1295 PUSH2 0x11DC JUMP JUMPDEST JUMPDEST SWAP3 SWAP2 POP POP JUMP JUMPDEST PUSH0 PUSH2 0x12A6 DUP3 PUSH2 0xDEB JUMP JUMPDEST SWAP2 POP PUSH2 0xFFFF DUP3 SUB PUSH2 0x12BA JUMPI PUSH2 0x12B9 PUSH2 0x11DC JUMP JUMPDEST JUMPDEST PUSH1 0x1 DUP3 ADD SWAP1 POP SWAP2 SWAP1 POP JUMP JUMPDEST PUSH32 0x4E487B7100000000000000000000000000000000000000000000000000000000 PUSH0 MSTORE PUSH1 0x32 PUSH1 0x4 MSTORE PUSH1 0x24 PUSH0 REVERT JUMPDEST PUSH0 PUSH2 0x12FC DUP3 PUSH2 0xDEB JUMP JUMPDEST SWAP2 POP PUSH2 0x1307 DUP4 PUSH2 0xDEB JUMP JUMPDEST SWAP3 POP DUP3 DUP3 SUB SWAP1 POP PUSH2 0xFFFF DUP2 GT ISZERO PUSH2 0x1321 JUMPI PUSH2 0x1320 PUSH2 0x11DC JUMP JUMPDEST JUMPDEST SWAP3 SWAP2 POP POP JUMP JUMPDEST PUSH0 PUSH2 0x1331 DUP3 PUSH2 0xD59 JUMP JUMPDEST SWAP2 POP PUSH2 0x133C DUP4 PUSH2 0xD59 JUMP JUMPDEST SWAP3 POP DUP3 DUP3 MUL PUSH2 0x134A DUP2 PUSH2 0xD59 JUMP JUMPDEST SWAP2 POP DUP3 DUP3 DIV DUP5 EQ DUP4 ISZERO OR PUSH2 0x1361 JUMPI PUSH2 0x1360 PUSH2 0x11DC JUMP JUMPDEST JUMPDEST POP SWAP3 SWAP2 POP POP JUMP JUMPDEST PUSH0 PUSH2 0x1372 DUP3 PUSH2 0xDB7 JUMP JUMPDEST SWAP2 POP PUSH2 0x137D DUP4 PUSH2 0xDB7 JUMP JUMPDEST SWAP3 POP DUP3 DUP3 SUB SWAP1 POP PUSH1 0xFF DUP2 GT ISZERO PUSH2 0x1396 JUMPI PUSH2 0x1395 PUSH2 0x11DC JUMP JUMPDEST JUMPDEST SWAP3 SWAP2 POP POP JUMP JUMPDEST PUSH0 PUSH2 0x13A6 DUP3 PUSH2 0xD59 JUMP JUMPDEST SWAP2 POP PUSH2 0x13B1 DUP4 PUSH2 0xD59 JUMP JUMPDEST SWAP3 POP DUP3 DUP3 SUB SWAP1 POP DUP2 DUP2 GT ISZERO PUSH2 0x13C9 JUMPI PUSH2 0x13C8 PUSH2 0x11DC JUMP JUMPDEST JUMPDEST SWAP3 SWAP2 POP POP JUMP JUMPDEST PUSH0 PUSH2 0x13D9 DUP3 PUSH2 0xDEB JUMP JUMPDEST SWAP2 POP PUSH2 0x13E4 DUP4 PUSH2 0xDEB JUMP JUMPDEST SWAP3 POP DUP3 PUSH2 0x13F4 JUMPI PUSH2 0x13F3 PUSH2 0x11AF JUMP JUMPDEST JUMPDEST DUP3 DUP3 MOD SWAP1 POP SWAP3 SWAP2 POP POP JUMP JUMPDEST PUSH0 PUSH2 0x1409 DUP3 PUSH2 0xDB7 JUMP JUMPDEST SWAP2 POP PUSH1 0xFF DUP3 SUB PUSH2 0x141C JUMPI PUSH2 0x141B PUSH2 0x11DC JUMP JUMPDEST JUMPDEST PUSH1 0x1 DUP3 ADD SWAP1 POP SWAP2 SWAP1 POP JUMP INVALID LOG2 PUSH5 0x6970667358 0x22 SLT KECCAK256 0x5D EQ DUP5 0x4A PUSH5 0xB98CD56643 SGT 0x1F JUMPDEST SIGNEXTEND 0x4A DIV 0xC7 0xA5 0xDE 0xE8 CALLER 0xAA 0xBB DUP1 0xD7 PUSH3 0x6BC1E1 0xE1 0x28 PUSH12 0x64736F6C6343000814003300 "
		},
		"gasEstimates": {
			"creation": {
				"codeDepositCost": "1042600",
				"executionCost": "1107",
				"totalCost": "1043707"
			},
			"external": {
				"getDay(uint256)": "infinite",
				"getDaysInMonth(uint8,uint16)": "infinite",
				"getHour(uint256)": "infinite",
				"getMinute(uint256)": "infinite",
				"getMonth(uint256)": "infinite",
				"getSecond(uint256)": "infinite",
				"getWeekday(uint256)": "infinite",
				"getYear(uint256)": "infinite",
				"isLeapYear(uint16)": "infinite",
				"leapYearsBefore(uint256)": "infinite",
				"parseTimestamp(uint256)": "infinite",
				"toTimestamp(uint16,uint8,uint8)": "infinite",
				"toTimestamp(uint16,uint8,uint8,uint8)": "infinite",
				"toTimestamp(uint16,uint8,uint8,uint8,uint8)": "infinite",
				"toTimestamp(uint16,uint8,uint8,uint8,uint8,uint8)": "infinite"
			},
			"internal": {
				"dnow()": "infinite"
			}
		},
		"methodIdentifiers": {
			"getDay(uint256)": "65c72840",
			"getDaysInMonth(uint8,uint16)": "b238ad0e",
			"getHour(uint256)": "3e239e1a",
			"getMinute(uint256)": "fa93f883",
			"getMonth(uint256)": "a324ad24",
			"getSecond(uint256)": "8aa001fc",
			"getWeekday(uint256)": "4ac1ad78",
			"getYear(uint256)": "92d66313",
			"isLeapYear(uint16)": "a6f0e577",
			"leapYearsBefore(uint256)": "b1999937",
			"parseTimestamp(uint256)": "f97d0591",
			"toTimestamp(uint16,uint8,uint8)": "8c8d98a0",
			"toTimestamp(uint16,uint8,uint8,uint8)": "7f791833",
			"toTimestamp(uint16,uint8,uint8,uint8,uint8)": "62ba9687",
			"toTimestamp(uint16,uint8,uint8,uint8,uint8,uint8)": "9054bdec"
		}
	},
	"abi": [
		{
			"inputs": [
				{
					"internalType": "uint256",
					"name": "timestamp",
					"type": "uint256"
				}
			],
			"name": "getDay",
			"outputs": [
				{
					"internalType": "uint8",
					"name": "",
					"type": "uint8"
				}
			],
			"stateMutability": "pure",
			"type": "function"
		},
		{
			"inputs": [
				{
					"internalType": "uint8",
					"name": "month",
					"type": "uint8"
				},
				{
					"internalType": "uint16",
					"name": "year",
					"type": "uint16"
				}
			],
			"name": "getDaysInMonth",
			"outputs": [
				{
					"internalType": "uint8",
					"name": "",
					"type": "uint8"
				}
			],
			"stateMutability": "pure",
			"type": "function"
		},
		{
			"inputs": [
				{
					"internalType": "uint256",
					"name": "timestamp",
					"type": "uint256"
				}
			],
			"name": "getHour",
			"outputs": [
				{
					"internalType": "uint8",
					"name": "",
					"type": "uint8"
				}
			],
			"stateMutability": "pure",
			"type": "function"
		},
		{
			"inputs": [
				{
					"internalType": "uint256",
					"name": "timestamp",
					"type": "uint256"
				}
			],
			"name": "getMinute",
			"outputs": [
				{
					"internalType": "uint8",
					"name": "",
					"type": "uint8"
				}
			],
			"stateMutability": "pure",
			"type": "function"
		},
		{
			"inputs": [
				{
					"internalType": "uint256",
					"name": "timestamp",
					"type": "uint256"
				}
			],
			"name": "getMonth",
			"outputs": [
				{
					"internalType": "uint8",
					"name": "",
					"type": "uint8"
				}
			],
			"stateMutability": "pure",
			"type": "function"
		},
		{
			"inputs": [
				{
					"internalType": "uint256",
					"name": "timestamp",
					"type": "uint256"
				}
			],
			"name": "getSecond",
			"outputs": [
				{
					"internalType": "uint8",
					"name": "",
					"type": "uint8"
				}
			],
			"stateMutability": "pure",
			"type": "function"
		},
		{
			"inputs": [
				{
					"internalType": "uint256",
					"name": "timestamp",
					"type": "uint256"
				}
			],
			"name": "getWeekday",
			"outputs": [
				{
					"internalType": "uint8",
					"name": "",
					"type": "uint8"
				}
			],
			"stateMutability": "pure",
			"type": "function"
		},
		{
			"inputs": [
				{
					"internalType": "uint256",
					"name": "timestamp",
					"type": "uint256"
				}
			],
			"name": "getYear",
			"outputs": [
				{
					"internalType": "uint16",
					"name": "",
					"type": "uint16"
				}
			],
			"stateMutability": "pure",
			"type": "function"
		},
		{
			"inputs": [
				{
					"internalType": "uint16",
					"name": "year",
					"type": "uint16"
				}
			],
			"name": "isLeapYear",
			"outputs": [
				{
					"internalType": "bool",
					"name": "",
					"type": "bool"
				}
			],
			"stateMutability": "pure",
			"type": "function"
		},
		{
			"inputs": [
				{
					"internalType": "uint256",
					"name": "year",
					"type": "uint256"
				}
			],
			"name": "leapYearsBefore",
			"outputs": [
				{
					"internalType": "uint256",
					"name": "",
					"type": "uint256"
				}
			],
			"stateMutability": "pure",
			"type": "function"
		},
		{
			"inputs": [
				{
					"internalType": "uint256",
					"name": "timestamp",
					"type": "uint256"
				}
			],
			"name": "parseTimestamp",
			"outputs": [
				{
					"components": [
						{
							"internalType": "uint16",
							"name": "year",
							"type": "uint16"
						},
						{
							"internalType": "uint8",
							"name": "month",
							"type": "uint8"
						},
						{
							"internalType": "uint8",
							"name": "day",
							"type": "uint8"
						},
						{
							"internalType": "uint8",
							"name": "hour",
							"type": "uint8"
						},
						{
							"internalType": "uint8",
							"name": "minute",
							"type": "uint8"
						},
						{
							"internalType": "uint8",
							"name": "second",
							"type": "uint8"
						},
						{
							"internalType": "uint8",
							"name": "weekday",
							"type": "uint8"
						}
					],
					"internalType": "struct DateTime._DateTime",
					"name": "dt",
					"type": "tuple"
				}
			],
			"stateMutability": "pure",
			"type": "function"
		},
		{
			"inputs": [
				{
					"internalType": "uint16",
					"name": "year",
					"type": "uint16"
				},
				{
					"internalType": "uint8",
					"name": "month",
					"type": "uint8"
				},
				{
					"internalType": "uint8",
					"name": "day",
					"type": "uint8"
				},
				{
					"internalType": "uint8",
					"name": "hour",
					"type": "uint8"
				},
				{
					"internalType": "uint8",
					"name": "minute",
					"type": "uint8"
				}
			],
			"name": "toTimestamp",
			"outputs": [
				{
					"internalType": "uint256",
					"name": "timestamp",
					"type": "uint256"
				}
			],
			"stateMutability": "pure",
			"type": "function"
		},
		{
			"inputs": [
				{
					"internalType": "uint16",
					"name": "year",
					"type": "uint16"
				},
				{
					"internalType": "uint8",
					"name": "month",
					"type": "uint8"
				},
				{
					"internalType": "uint8",
					"name": "day",
					"type": "uint8"
				},
				{
					"internalType": "uint8",
					"name": "hour",
					"type": "uint8"
				}
			],
			"name": "toTimestamp",
			"outputs": [
				{
					"internalType": "uint256",
					"name": "timestamp",
					"type": "uint256"
				}
			],
			"stateMutability": "pure",
			"type": "function"
		},
		{
			"inputs": [
				{
					"internalType": "uint16",
					"name": "year",
					"type": "uint16"
				},
				{
					"internalType": "uint8",
					"name": "month",
					"type": "uint8"
				},
				{
					"internalType": "uint8",
					"name": "day",
					"type": "uint8"
				}
			],
			"name": "toTimestamp",
			"outputs": [
				{
					"internalType": "uint256",
					"name": "timestamp",
					"type": "uint256"
				}
			],
			"stateMutability": "pure",
			"type": "function"
		},
		{
			"inputs": [
				{
					"internalType": "uint16",
					"name": "year",
					"type": "uint16"
				},
				{
					"internalType": "uint8",
					"name": "month",
					"type": "uint8"
				},
				{
					"internalType": "uint8",
					"name": "day",
					"type": "uint8"
				},
				{
					"internalType": "uint8",
					"name": "hour",
					"type": "uint8"
				},
				{
					"internalType": "uint8",
					"name": "minute",
					"type": "uint8"
				},
				{
					"internalType": "uint8",
					"name": "second",
					"type": "uint8"
				}
			],
			"name": "toTimestamp",
			"outputs": [
				{
					"internalType": "uint256",
					"name": "timestamp",
					"type": "uint256"
				}
			],
			"stateMutability": "pure",
			"type": "function"
		}
	]
}