{
	"data": {
		"bytecode": {
			"linkReferences": {},
			"object": "611e33610053600b82828239805160001a607314610046577f4e487b7100000000000000000000000000000000000000000000000000000000600052600060045260246000fd5b30600052607381538281f3fe73000000000000000000000000000000000000000030146080604052600436106101155760003560e01c806392d66313116100ac578063b19999371161007b578063b199993714610348578063b238ad0e14610378578063eb3334c5146103a8578063f97d0591146103c8578063fa93f883146103f857610115565b806392d663131461029a578063a324ad24146102ca578063a6f0e577146102fa578063a9a295ad1461032a57610115565b80637f791833116100e85780637f791833146101da5780638aa001fc1461020a5780638c8d98a01461023a5780639054bdec1461026a57610115565b80633e239e1a1461011a5780634ac1ad781461014a57806362ba96871461017a57806365c72840146101aa575b600080fd5b610134600480360381019061012f9190611613565b610428565b604051610141919061165c565b60405180910390f35b610164600480360381019061015f9190611613565b610455565b604051610171919061165c565b60405180910390f35b610194600480360381019061018f91906116dd565b610485565b6040516101a19190611767565b60405180910390f35b6101c460048036038101906101bf9190611613565b6104a1565b6040516101d1919061165c565b60405180910390f35b6101f460048036038101906101ef9190611782565b6104b7565b6040516102019190611767565b60405180910390f35b610224600480360381019061021f9190611613565b6104d2565b604051610231919061165c565b60405180910390f35b610254600480360381019061024f91906117e9565b6104e8565b6040516102619190611767565b60405180910390f35b610284600480360381019061027f919061183c565b610503565b6040516102919190611767565b60405180910390f35b6102b460048036038101906102af9190611613565b61086e565b6040516102c191906118d8565b60405180910390f35b6102e460048036038101906102df9190611613565b610985565b6040516102f1919061165c565b60405180910390f35b610314600480360381019061030f91906118f3565b61099b565b604051610321919061193b565b60405180910390f35b610332610a0a565b60405161033f91906119e6565b60405180910390f35b610362600480360381019061035d9190611613565b610fc3565b60405161036f9190611767565b60405180910390f35b610392600480360381019061038d9190611a08565b611017565b60405161039f919061165c565b60405180910390f35b6103b06110e3565b6040516103bf93929190611a48565b60405180910390f35b6103e260048036038101906103dd9190611613565b61110f565b6040516103ef9190611b2b565b60405180910390f35b610412600480360381019061040d9190611613565b611320565b60405161041f919061165c565b60405180910390f35b60006018603c808461043a9190611ba4565b6104449190611ba4565b61044e9190611bd5565b9050919050565b600060076004620151808461046a9190611ba4565b6104749190611c06565b61047e9190611bd5565b9050919050565b600061049686868686866000610503565b905095945050505050565b60006104ac8261110f565b604001519050919050565b60006104c885858585600080610503565b9050949350505050565b6000603c826104e19190611bd5565b9050919050565b60006104fa8484846000806000610503565b90509392505050565b6000806107b290505b8761ffff168161ffff161015610567576105258161099b565b15610541576301e285008261053a9190611c06565b9150610554565b6301e13380826105519190611c06565b91505b808061055f90611c3a565b91505061050c565b61056f611562565b601f816000600c811061058557610584611c64565b5b602002019060ff16908160ff168152505061059f8961099b565b156105d057601d816001600c81106105ba576105b9611c64565b5b602002019060ff16908160ff16815250506105f8565b601c816001600c81106105e6576105e5611c64565b5b602002019060ff16908160ff16815250505b601f816002600c811061060e5761060d611c64565b5b602002019060ff16908160ff1681525050601e816003600c811061063557610634611c64565b5b602002019060ff16908160ff1681525050601f816004600c811061065c5761065b611c64565b5b602002019060ff16908160ff1681525050601e816005600c811061068357610682611c64565b5b602002019060ff16908160ff1681525050601f816006600c81106106aa576106a9611c64565b5b602002019060ff16908160ff1681525050601f816007600c81106106d1576106d0611c64565b5b602002019060ff16908160ff1681525050601e816008600c81106106f8576106f7611c64565b5b602002019060ff16908160ff1681525050601f816009600c811061071f5761071e611c64565b5b602002019060ff16908160ff1681525050601e81600a600c811061074657610745611c64565b5b602002019060ff16908160ff1681525050601f81600b600c811061076d5761076c611c64565b5b602002019060ff16908160ff1681525050600191505b8760ff168261ffff1610156107eb57806001836107a09190611c93565b61ffff16600c81106107b5576107b4611c64565b5b602002015160ff16620151806107cb9190611cc9565b836107d69190611c06565b925081806107e390611c3a565b925050610783565b6001876107f89190611d0b565b60ff16620151806108099190611cc9565b836108149190611c06565b92508560ff16610e106108279190611cc9565b836108329190611c06565b92508460ff16603c6108449190611cc9565b8361084f9190611c06565b92508360ff16836108609190611c06565b925050509695505050505050565b600080600090506000806301e13380856108889190611ba4565b6107b261ffff166108999190611c06565b91506108aa6107b261ffff16610fc3565b6108b78361ffff16610fc3565b6108c19190611d40565b9050806301e285006108d39190611cc9565b836108de9190611c06565b9250806107b2836108ef9190611c93565b61ffff166108fd9190611d40565b6301e1338061090c9190611cc9565b836109179190611c06565b92505b8483111561097a576109376001836109329190611c93565b61099b565b15610953576301e285008361094c9190611d40565b9250610966565b6301e13380836109639190611d40565b92505b6001826109739190611c93565b915061091a565b819350505050919050565b60006109908261110f565b602001519050919050565b6000806004836109ab9190611d74565b61ffff16146109bd5760009050610a05565b60006064836109cc9190611d74565b61ffff16146109de5760019050610a05565b6000610190836109ee9190611d74565b61ffff1614610a005760009050610a05565b600190505b919050565b60606000806000610a196110e3565b9250925092506000610a2e8461ffff16611341565b90506000610a3e8460ff16611341565b90506000610a4e8460ff16611341565b90506000600a67ffffffffffffffff811115610a6d57610a6c611da5565b5b6040519080825280601f01601f191660200182016040528015610a9f5781602001600182028036833780820191505090505b50905083600081518110610ab657610ab5611c64565b5b602001015160f81c60f81b81600081518110610ad557610ad4611c64565b5b60200101907effffffffffffffffffffffffffffffffffffffffffffffffffffffffffffff1916908160001a90535083600181518110610b1857610b17611c64565b5b602001015160f81c60f81b81600181518110610b3757610b36611c64565b5b60200101907effffffffffffffffffffffffffffffffffffffffffffffffffffffffffffff1916908160001a90535083600281518110610b7a57610b79611c64565b5b602001015160f81c60f81b81600281518110610b9957610b98611c64565b5b60200101907effffffffffffffffffffffffffffffffffffffffffffffffffffffffffffff1916908160001a90535083600381518110610bdc57610bdb611c64565b5b602001015160f81c60f81b81600381518110610bfb57610bfa611c64565b5b60200101907effffffffffffffffffffffffffffffffffffffffffffffffffffffffffffff1916908160001a905350602d60f81b81600481518110610c4357610c42611c64565b5b60200101907effffffffffffffffffffffffffffffffffffffffffffffffffffffffffffff1916908160001a905350600183511115610d455782600081518110610c9057610c8f611c64565b5b602001015160f81c60f81b81600581518110610caf57610cae611c64565b5b60200101907effffffffffffffffffffffffffffffffffffffffffffffffffffffffffffff1916908160001a90535082600181518110610cf257610cf1611c64565b5b602001015160f81c60f81b81600681518110610d1157610d10611c64565b5b60200101907effffffffffffffffffffffffffffffffffffffffffffffffffffffffffffff1916908160001a905350610df0565b603060f81b81600581518110610d5e57610d5d611c64565b5b60200101907effffffffffffffffffffffffffffffffffffffffffffffffffffffffffffff1916908160001a90535082600081518110610da157610da0611c64565b5b602001015160f81c60f81b81600681518110610dc057610dbf611c64565b5b60200101907effffffffffffffffffffffffffffffffffffffffffffffffffffffffffffff1916908160001a9053505b602d60f81b81600781518110610e0957610e08611c64565b5b60200101907effffffffffffffffffffffffffffffffffffffffffffffffffffffffffffff1916908160001a905350600182511115610f0b5781600081518110610e5657610e55611c64565b5b602001015160f81c60f81b81600881518110610e7557610e74611c64565b5b60200101907effffffffffffffffffffffffffffffffffffffffffffffffffffffffffffff1916908160001a90535081600181518110610eb857610eb7611c64565b5b602001015160f81c60f81b81600981518110610ed757610ed6611c64565b5b60200101907effffffffffffffffffffffffffffffffffffffffffffffffffffffffffffff1916908160001a905350610fb6565b603060f81b81600881518110610f2457610f23611c64565b5b60200101907effffffffffffffffffffffffffffffffffffffffffffffffffffffffffffff1916908160001a90535081600081518110610f6757610f66611c64565b5b602001015160f81c60f81b81600981518110610f8657610f85611c64565b5b60200101907effffffffffffffffffffffffffffffffffffffffffffffffffffffffffffff1916908160001a9053505b8097505050505050505090565b6000600182610fd29190611d40565b915061019082610fe29190611ba4565b606483610fef9190611ba4565b600484610ffc9190611ba4565b6110069190611d40565b6110109190611c06565b9050919050565b600060018360ff16148061102e575060038360ff16145b8061103c575060058360ff16145b8061104a575060078360ff16145b80611058575060088360ff16145b806110665750600a8360ff16145b806110745750600c8360ff16145b1561108257601f90506110dd565b60048360ff161480611097575060068360ff16145b806110a5575060098360ff16145b806110b35750600b8360ff16145b156110c157601e90506110dd565b6110ca8261099b565b156110d857601d90506110dd565b601c90505b92915050565b6000806000806110f24261110f565b905080600001518160200151826040015193509350935050909192565b611117611585565b600080806111248561086e565b846000019061ffff16908161ffff16815250506111466107b261ffff16610fc3565b611157856000015161ffff16610fc3565b6111619190611d40565b9150816301e285006111739190611cc9565b8361117e9190611c06565b9250816107b285600001516111939190611c93565b61ffff166111a19190611d40565b6301e133806111b09190611cc9565b836111bb9190611c06565b92506000600191505b600c8260ff161161123b576111dd828660000151611017565b60ff16620151806111ee9190611cc9565b90508584826111fd9190611c06565b111561121a5781856020019060ff16908160ff168152505061123b565b80846112269190611c06565b9350818061123390611dd4565b9250506111c4565b600191505b61125285602001518660000151611017565b60ff168260ff16116112af5785846201518061126e9190611c06565b111561128b5781856040019060ff16908160ff16815250506112af565b620151808461129a9190611c06565b935081806112a790611dd4565b925050611240565b6112b886610428565b856060019060ff16908160ff16815250506112d286611320565b856080019060ff16908160ff16815250506112ec866104d2565b8560a0019060ff16908160ff168152505061130686610455565b8560c0019060ff16908160ff168152505050505050919050565b6000603c80836113309190611ba4565b61133a9190611bd5565b9050919050565b6060600060016113508461140f565b01905060008167ffffffffffffffff81111561136f5761136e611da5565b5b6040519080825280601f01601f1916602001820160405280156113a15781602001600182028036833780820191505090505b509050600082602001820190505b600115611404578080600190039150507f3031323334353637383961626364656600000000000000000000000000000000600a86061a8153600a85816113f8576113f7611b46565b5b049450600085036113af575b819350505050919050565b600080600090507a184f03e93ff9f4daa797ed6e38ed64bf6a1f010000000000000000831061146d577a184f03e93ff9f4daa797ed6e38ed64bf6a1f010000000000000000838161146357611462611b46565b5b0492506040810190505b6d04ee2d6d415b85acef810000000083106114aa576d04ee2d6d415b85acef810000000083816114a05761149f611b46565b5b0492506020810190505b662386f26fc1000083106114d957662386f26fc1000083816114cf576114ce611b46565b5b0492506010810190505b6305f5e1008310611502576305f5e10083816114f8576114f7611b46565b5b0492506008810190505b612710831061152757612710838161151d5761151c611b46565b5b0492506004810190505b6064831061154a57606483816115405761153f611b46565b5b0492506002810190505b600a8310611559576001810190505b80915050919050565b604051806101800160405280600c90602082028036833780820191505090505090565b6040518060e00160405280600061ffff168152602001600060ff168152602001600060ff168152602001600060ff168152602001600060ff168152602001600060ff168152602001600060ff1681525090565b600080fd5b6000819050919050565b6115f0816115dd565b81146115fb57600080fd5b50565b60008135905061160d816115e7565b92915050565b600060208284031215611629576116286115d8565b5b6000611637848285016115fe565b91505092915050565b600060ff82169050919050565b61165681611640565b82525050565b6000602082019050611671600083018461164d565b92915050565b600061ffff82169050919050565b61168e81611677565b811461169957600080fd5b50565b6000813590506116ab81611685565b92915050565b6116ba81611640565b81146116c557600080fd5b50565b6000813590506116d7816116b1565b92915050565b600080600080600060a086880312156116f9576116f86115d8565b5b60006117078882890161169c565b9550506020611718888289016116c8565b9450506040611729888289016116c8565b935050606061173a888289016116c8565b925050608061174b888289016116c8565b9150509295509295909350565b611761816115dd565b82525050565b600060208201905061177c6000830184611758565b92915050565b6000806000806080858703121561179c5761179b6115d8565b5b60006117aa8782880161169c565b94505060206117bb878288016116c8565b93505060406117cc878288016116c8565b92505060606117dd878288016116c8565b91505092959194509250565b600080600060608486031215611802576118016115d8565b5b60006118108682870161169c565b9350506020611821868287016116c8565b9250506040611832868287016116c8565b9150509250925092565b60008060008060008060c08789031215611859576118586115d8565b5b600061186789828a0161169c565b965050602061187889828a016116c8565b955050604061188989828a016116c8565b945050606061189a89828a016116c8565b93505060806118ab89828a016116c8565b92505060a06118bc89828a016116c8565b9150509295509295509295565b6118d281611677565b82525050565b60006020820190506118ed60008301846118c9565b92915050565b600060208284031215611909576119086115d8565b5b60006119178482850161169c565b91505092915050565b60008115159050919050565b61193581611920565b82525050565b6000602082019050611950600083018461192c565b92915050565b600081519050919050565b600082825260208201905092915050565b60005b83811015611990578082015181840152602081019050611975565b60008484015250505050565b6000601f19601f8301169050919050565b60006119b882611956565b6119c28185611961565b93506119d2818560208601611972565b6119db8161199c565b840191505092915050565b60006020820190508181036000830152611a0081846119ad565b905092915050565b60008060408385031215611a1f57611a1e6115d8565b5b6000611a2d858286016116c8565b9250506020611a3e8582860161169c565b9150509250929050565b6000606082019050611a5d60008301866118c9565b611a6a602083018561164d565b611a77604083018461164d565b949350505050565b611a8881611677565b82525050565b611a9781611640565b82525050565b60e082016000820151611ab36000850182611a7f565b506020820151611ac66020850182611a8e565b506040820151611ad96040850182611a8e565b506060820151611aec6060850182611a8e565b506080820151611aff6080850182611a8e565b5060a0820151611b1260a0850182611a8e565b5060c0820151611b2560c0850182611a8e565b50505050565b600060e082019050611b406000830184611a9d565b92915050565b7f4e487b7100000000000000000000000000000000000000000000000000000000600052601260045260246000fd5b7f4e487b7100000000000000000000000000000000000000000000000000000000600052601160045260246000fd5b6000611baf826115dd565b9150611bba836115dd565b925082611bca57611bc9611b46565b5b828204905092915050565b6000611be0826115dd565b9150611beb836115dd565b925082611bfb57611bfa611b46565b5b828206905092915050565b6000611c11826115dd565b9150611c1c836115dd565b9250828201905080821115611c3457611c33611b75565b5b92915050565b6000611c4582611677565b915061ffff8203611c5957611c58611b75565b5b600182019050919050565b7f4e487b7100000000000000000000000000000000000000000000000000000000600052603260045260246000fd5b6000611c9e82611677565b9150611ca983611677565b9250828203905061ffff811115611cc357611cc2611b75565b5b92915050565b6000611cd4826115dd565b9150611cdf836115dd565b9250828202611ced816115dd565b91508282048414831517611d0457611d03611b75565b5b5092915050565b6000611d1682611640565b9150611d2183611640565b9250828203905060ff811115611d3a57611d39611b75565b5b92915050565b6000611d4b826115dd565b9150611d56836115dd565b9250828203905081811115611d6e57611d6d611b75565b5b92915050565b6000611d7f82611677565b9150611d8a83611677565b925082611d9a57611d99611b46565b5b828206905092915050565b7f4e487b7100000000000000000000000000000000000000000000000000000000600052604160045260246000fd5b6000611ddf82611640565b915060ff8203611df257611df1611b75565b5b60018201905091905056fea2646970667358221220cbee0baf9f8fb0e270d1cd077b0027e6cffede0c94509e23e3cd54537e62ac1464736f6c63430008120033",
			"opcodes": "PUSH2 0x1E33 PUSH2 0x53 PUSH1 0xB DUP3 DUP3 DUP3 CODECOPY DUP1 MLOAD PUSH1 0x0 BYTE PUSH1 0x73 EQ PUSH2 0x46 JUMPI PUSH32 0x4E487B7100000000000000000000000000000000000000000000000000000000 PUSH1 0x0 MSTORE PUSH1 0x0 PUSH1 0x4 MSTORE PUSH1 0x24 PUSH1 0x0 REVERT JUMPDEST ADDRESS PUSH1 0x0 MSTORE PUSH1 0x73 DUP2 MSTORE8 DUP3 DUP2 RETURN INVALID PUSH20 0x0 ADDRESS EQ PUSH1 0x80 PUSH1 0x40 MSTORE PUSH1 0x4 CALLDATASIZE LT PUSH2 0x115 JUMPI PUSH1 0x0 CALLDATALOAD PUSH1 0xE0 SHR DUP1 PUSH4 0x92D66313 GT PUSH2 0xAC JUMPI DUP1 PUSH4 0xB1999937 GT PUSH2 0x7B JUMPI DUP1 PUSH4 0xB1999937 EQ PUSH2 0x348 JUMPI DUP1 PUSH4 0xB238AD0E EQ PUSH2 0x378 JUMPI DUP1 PUSH4 0xEB3334C5 EQ PUSH2 0x3A8 JUMPI DUP1 PUSH4 0xF97D0591 EQ PUSH2 0x3C8 JUMPI DUP1 PUSH4 0xFA93F883 EQ PUSH2 0x3F8 JUMPI PUSH2 0x115 JUMP JUMPDEST DUP1 PUSH4 0x92D66313 EQ PUSH2 0x29A JUMPI DUP1 PUSH4 0xA324AD24 EQ PUSH2 0x2CA JUMPI DUP1 PUSH4 0xA6F0E577 EQ PUSH2 0x2FA JUMPI DUP1 PUSH4 0xA9A295AD EQ PUSH2 0x32A JUMPI PUSH2 0x115 JUMP JUMPDEST DUP1 PUSH4 0x7F791833 GT PUSH2 0xE8 JUMPI DUP1 PUSH4 0x7F791833 EQ PUSH2 0x1DA JUMPI DUP1 PUSH4 0x8AA001FC EQ PUSH2 0x20A JUMPI DUP1 PUSH4 0x8C8D98A0 EQ PUSH2 0x23A JUMPI DUP1 PUSH4 0x9054BDEC EQ PUSH2 0x26A JUMPI PUSH2 0x115 JUMP JUMPDEST DUP1 PUSH4 0x3E239E1A EQ PUSH2 0x11A JUMPI DUP1 PUSH4 0x4AC1AD78 EQ PUSH2 0x14A JUMPI DUP1 PUSH4 0x62BA9687 EQ PUSH2 0x17A JUMPI DUP1 PUSH4 0x65C72840 EQ PUSH2 0x1AA JUMPI JUMPDEST PUSH1 0x0 DUP1 REVERT JUMPDEST PUSH2 0x134 PUSH1 0x4 DUP1 CALLDATASIZE SUB DUP2 ADD SWAP1 PUSH2 0x12F SWAP2 SWAP1 PUSH2 0x1613 JUMP JUMPDEST PUSH2 0x428 JUMP JUMPDEST PUSH1 0x40 MLOAD PUSH2 0x141 SWAP2 SWAP1 PUSH2 0x165C JUMP JUMPDEST PUSH1 0x40 MLOAD DUP1 SWAP2 SUB SWAP1 RETURN JUMPDEST PUSH2 0x164 PUSH1 0x4 DUP1 CALLDATASIZE SUB DUP2 ADD SWAP1 PUSH2 0x15F SWAP2 SWAP1 PUSH2 0x1613 JUMP JUMPDEST PUSH2 0x455 JUMP JUMPDEST PUSH1 0x40 MLOAD PUSH2 0x171 SWAP2 SWAP1 PUSH2 0x165C JUMP JUMPDEST PUSH1 0x40 MLOAD DUP1 SWAP2 SUB SWAP1 RETURN JUMPDEST PUSH2 0x194 PUSH1 0x4 DUP1 CALLDATASIZE SUB DUP2 ADD SWAP1 PUSH2 0x18F SWAP2 SWAP1 PUSH2 0x16DD JUMP JUMPDEST PUSH2 0x485 JUMP JUMPDEST PUSH1 0x40 MLOAD PUSH2 0x1A1 SWAP2 SWAP1 PUSH2 0x1767 JUMP JUMPDEST PUSH1 0x40 MLOAD DUP1 SWAP2 SUB SWAP1 RETURN JUMPDEST PUSH2 0x1C4 PUSH1 0x4 DUP1 CALLDATASIZE SUB DUP2 ADD SWAP1 PUSH2 0x1BF SWAP2 SWAP1 PUSH2 0x1613 JUMP JUMPDEST PUSH2 0x4A1 JUMP JUMPDEST PUSH1 0x40 MLOAD PUSH2 0x1D1 SWAP2 SWAP1 PUSH2 0x165C JUMP JUMPDEST PUSH1 0x40 MLOAD DUP1 SWAP2 SUB SWAP1 RETURN JUMPDEST PUSH2 0x1F4 PUSH1 0x4 DUP1 CALLDATASIZE SUB DUP2 ADD SWAP1 PUSH2 0x1EF SWAP2 SWAP1 PUSH2 0x1782 JUMP JUMPDEST PUSH2 0x4B7 JUMP JUMPDEST PUSH1 0x40 MLOAD PUSH2 0x201 SWAP2 SWAP1 PUSH2 0x1767 JUMP JUMPDEST PUSH1 0x40 MLOAD DUP1 SWAP2 SUB SWAP1 RETURN JUMPDEST PUSH2 0x224 PUSH1 0x4 DUP1 CALLDATASIZE SUB DUP2 ADD SWAP1 PUSH2 0x21F SWAP2 SWAP1 PUSH2 0x1613 JUMP JUMPDEST PUSH2 0x4D2 JUMP JUMPDEST PUSH1 0x40 MLOAD PUSH2 0x231 SWAP2 SWAP1 PUSH2 0x165C JUMP JUMPDEST PUSH1 0x40 MLOAD DUP1 SWAP2 SUB SWAP1 RETURN JUMPDEST PUSH2 0x254 PUSH1 0x4 DUP1 CALLDATASIZE SUB DUP2 ADD SWAP1 PUSH2 0x24F SWAP2 SWAP1 PUSH2 0x17E9 JUMP JUMPDEST PUSH2 0x4E8 JUMP JUMPDEST PUSH1 0x40 MLOAD PUSH2 0x261 SWAP2 SWAP1 PUSH2 0x1767 JUMP JUMPDEST PUSH1 0x40 MLOAD DUP1 SWAP2 SUB SWAP1 RETURN JUMPDEST PUSH2 0x284 PUSH1 0x4 DUP1 CALLDATASIZE SUB DUP2 ADD SWAP1 PUSH2 0x27F SWAP2 SWAP1 PUSH2 0x183C JUMP JUMPDEST PUSH2 0x503 JUMP JUMPDEST PUSH1 0x40 MLOAD PUSH2 0x291 SWAP2 SWAP1 PUSH2 0x1767 JUMP JUMPDEST PUSH1 0x40 MLOAD DUP1 SWAP2 SUB SWAP1 RETURN JUMPDEST PUSH2 0x2B4 PUSH1 0x4 DUP1 CALLDATASIZE SUB DUP2 ADD SWAP1 PUSH2 0x2AF SWAP2 SWAP1 PUSH2 0x1613 JUMP JUMPDEST PUSH2 0x86E JUMP JUMPDEST PUSH1 0x40 MLOAD PUSH2 0x2C1 SWAP2 SWAP1 PUSH2 0x18D8 JUMP JUMPDEST PUSH1 0x40 MLOAD DUP1 SWAP2 SUB SWAP1 RETURN JUMPDEST PUSH2 0x2E4 PUSH1 0x4 DUP1 CALLDATASIZE SUB DUP2 ADD SWAP1 PUSH2 0x2DF SWAP2 SWAP1 PUSH2 0x1613 JUMP JUMPDEST PUSH2 0x985 JUMP JUMPDEST PUSH1 0x40 MLOAD PUSH2 0x2F1 SWAP2 SWAP1 PUSH2 0x165C JUMP JUMPDEST PUSH1 0x40 MLOAD DUP1 SWAP2 SUB SWAP1 RETURN JUMPDEST PUSH2 0x314 PUSH1 0x4 DUP1 CALLDATASIZE SUB DUP2 ADD SWAP1 PUSH2 0x30F SWAP2 SWAP1 PUSH2 0x18F3 JUMP JUMPDEST PUSH2 0x99B JUMP JUMPDEST PUSH1 0x40 MLOAD PUSH2 0x321 SWAP2 SWAP1 PUSH2 0x193B JUMP JUMPDEST PUSH1 0x40 MLOAD DUP1 SWAP2 SUB SWAP1 RETURN JUMPDEST PUSH2 0x332 PUSH2 0xA0A JUMP JUMPDEST PUSH1 0x40 MLOAD PUSH2 0x33F SWAP2 SWAP1 PUSH2 0x19E6 JUMP JUMPDEST PUSH1 0x40 MLOAD DUP1 SWAP2 SUB SWAP1 RETURN JUMPDEST PUSH2 0x362 PUSH1 0x4 DUP1 CALLDATASIZE SUB DUP2 ADD SWAP1 PUSH2 0x35D SWAP2 SWAP1 PUSH2 0x1613 JUMP JUMPDEST PUSH2 0xFC3 JUMP JUMPDEST PUSH1 0x40 MLOAD PUSH2 0x36F SWAP2 SWAP1 PUSH2 0x1767 JUMP JUMPDEST PUSH1 0x40 MLOAD DUP1 SWAP2 SUB SWAP1 RETURN JUMPDEST PUSH2 0x392 PUSH1 0x4 DUP1 CALLDATASIZE SUB DUP2 ADD SWAP1 PUSH2 0x38D SWAP2 SWAP1 PUSH2 0x1A08 JUMP JUMPDEST PUSH2 0x1017 JUMP JUMPDEST PUSH1 0x40 MLOAD PUSH2 0x39F SWAP2 SWAP1 PUSH2 0x165C JUMP JUMPDEST PUSH1 0x40 MLOAD DUP1 SWAP2 SUB SWAP1 RETURN JUMPDEST PUSH2 0x3B0 PUSH2 0x10E3 JUMP JUMPDEST PUSH1 0x40 MLOAD PUSH2 0x3BF SWAP4 SWAP3 SWAP2 SWAP1 PUSH2 0x1A48 JUMP JUMPDEST PUSH1 0x40 MLOAD DUP1 SWAP2 SUB SWAP1 RETURN JUMPDEST PUSH2 0x3E2 PUSH1 0x4 DUP1 CALLDATASIZE SUB DUP2 ADD SWAP1 PUSH2 0x3DD SWAP2 SWAP1 PUSH2 0x1613 JUMP JUMPDEST PUSH2 0x110F JUMP JUMPDEST PUSH1 0x40 MLOAD PUSH2 0x3EF SWAP2 SWAP1 PUSH2 0x1B2B JUMP JUMPDEST PUSH1 0x40 MLOAD DUP1 SWAP2 SUB SWAP1 RETURN JUMPDEST PUSH2 0x412 PUSH1 0x4 DUP1 CALLDATASIZE SUB DUP2 ADD SWAP1 PUSH2 0x40D SWAP2 SWAP1 PUSH2 0x1613 JUMP JUMPDEST PUSH2 0x1320 JUMP JUMPDEST PUSH1 0x40 MLOAD PUSH2 0x41F SWAP2 SWAP1 PUSH2 0x165C JUMP JUMPDEST PUSH1 0x40 MLOAD DUP1 SWAP2 SUB SWAP1 RETURN JUMPDEST PUSH1 0x0 PUSH1 0x18 PUSH1 0x3C DUP1 DUP5 PUSH2 0x43A SWAP2 SWAP1 PUSH2 0x1BA4 JUMP JUMPDEST PUSH2 0x444 SWAP2 SWAP1 PUSH2 0x1BA4 JUMP JUMPDEST PUSH2 0x44E SWAP2 SWAP1 PUSH2 0x1BD5 JUMP JUMPDEST SWAP1 POP SWAP2 SWAP1 POP JUMP JUMPDEST PUSH1 0x0 PUSH1 0x7 PUSH1 0x4 PUSH3 0x15180 DUP5 PUSH2 0x46A SWAP2 SWAP1 PUSH2 0x1BA4 JUMP JUMPDEST PUSH2 0x474 SWAP2 SWAP1 PUSH2 0x1C06 JUMP JUMPDEST PUSH2 0x47E SWAP2 SWAP1 PUSH2 0x1BD5 JUMP JUMPDEST SWAP1 POP SWAP2 SWAP1 POP JUMP JUMPDEST PUSH1 0x0 PUSH2 0x496 DUP7 DUP7 DUP7 DUP7 DUP7 PUSH1 0x0 PUSH2 0x503 JUMP JUMPDEST SWAP1 POP SWAP6 SWAP5 POP POP POP POP POP JUMP JUMPDEST PUSH1 0x0 PUSH2 0x4AC DUP3 PUSH2 0x110F JUMP JUMPDEST PUSH1 0x40 ADD MLOAD SWAP1 POP SWAP2 SWAP1 POP JUMP JUMPDEST PUSH1 0x0 PUSH2 0x4C8 DUP6 DUP6 DUP6 DUP6 PUSH1 0x0 DUP1 PUSH2 0x503 JUMP JUMPDEST SWAP1 POP SWAP5 SWAP4 POP POP POP POP JUMP JUMPDEST PUSH1 0x0 PUSH1 0x3C DUP3 PUSH2 0x4E1 SWAP2 SWAP1 PUSH2 0x1BD5 JUMP JUMPDEST SWAP1 POP SWAP2 SWAP1 POP JUMP JUMPDEST PUSH1 0x0 PUSH2 0x4FA DUP5 DUP5 DUP5 PUSH1 0x0 DUP1 PUSH1 0x0 PUSH2 0x503 JUMP JUMPDEST SWAP1 POP SWAP4 SWAP3 POP POP POP JUMP JUMPDEST PUSH1 0x0 DUP1 PUSH2 0x7B2 SWAP1 POP JUMPDEST DUP8 PUSH2 0xFFFF AND DUP2 PUSH2 0xFFFF AND LT ISZERO PUSH2 0x567 JUMPI PUSH2 0x525 DUP2 PUSH2 0x99B JUMP JUMPDEST ISZERO PUSH2 0x541 JUMPI PUSH4 0x1E28500 DUP3 PUSH2 0x53A SWAP2 SWAP1 PUSH2 0x1C06 JUMP JUMPDEST SWAP2 POP PUSH2 0x554 JUMP JUMPDEST PUSH4 0x1E13380 DUP3 PUSH2 0x551 SWAP2 SWAP1 PUSH2 0x1C06 JUMP JUMPDEST SWAP2 POP JUMPDEST DUP1 DUP1 PUSH2 0x55F SWAP1 PUSH2 0x1C3A JUMP JUMPDEST SWAP2 POP POP PUSH2 0x50C JUMP JUMPDEST PUSH2 0x56F PUSH2 0x1562 JUMP JUMPDEST PUSH1 0x1F DUP2 PUSH1 0x0 PUSH1 0xC DUP2 LT PUSH2 0x585 JUMPI PUSH2 0x584 PUSH2 0x1C64 JUMP JUMPDEST JUMPDEST PUSH1 0x20 MUL ADD SWAP1 PUSH1 0xFF AND SWAP1 DUP2 PUSH1 0xFF AND DUP2 MSTORE POP POP PUSH2 0x59F DUP10 PUSH2 0x99B JUMP JUMPDEST ISZERO PUSH2 0x5D0 JUMPI PUSH1 0x1D DUP2 PUSH1 0x1 PUSH1 0xC DUP2 LT PUSH2 0x5BA JUMPI PUSH2 0x5B9 PUSH2 0x1C64 JUMP JUMPDEST JUMPDEST PUSH1 0x20 MUL ADD SWAP1 PUSH1 0xFF AND SWAP1 DUP2 PUSH1 0xFF AND DUP2 MSTORE POP POP PUSH2 0x5F8 JUMP JUMPDEST PUSH1 0x1C DUP2 PUSH1 0x1 PUSH1 0xC DUP2 LT PUSH2 0x5E6 JUMPI PUSH2 0x5E5 PUSH2 0x1C64 JUMP JUMPDEST JUMPDEST PUSH1 0x20 MUL ADD SWAP1 PUSH1 0xFF AND SWAP1 DUP2 PUSH1 0xFF AND DUP2 MSTORE POP POP JUMPDEST PUSH1 0x1F DUP2 PUSH1 0x2 PUSH1 0xC DUP2 LT PUSH2 0x60E JUMPI PUSH2 0x60D PUSH2 0x1C64 JUMP JUMPDEST JUMPDEST PUSH1 0x20 MUL ADD SWAP1 PUSH1 0xFF AND SWAP1 DUP2 PUSH1 0xFF AND DUP2 MSTORE POP POP PUSH1 0x1E DUP2 PUSH1 0x3 PUSH1 0xC DUP2 LT PUSH2 0x635 JUMPI PUSH2 0x634 PUSH2 0x1C64 JUMP JUMPDEST JUMPDEST PUSH1 0x20 MUL ADD SWAP1 PUSH1 0xFF AND SWAP1 DUP2 PUSH1 0xFF AND DUP2 MSTORE POP POP PUSH1 0x1F DUP2 PUSH1 0x4 PUSH1 0xC DUP2 LT PUSH2 0x65C JUMPI PUSH2 0x65B PUSH2 0x1C64 JUMP JUMPDEST JUMPDEST PUSH1 0x20 MUL ADD SWAP1 PUSH1 0xFF AND SWAP1 DUP2 PUSH1 0xFF AND DUP2 MSTORE POP POP PUSH1 0x1E DUP2 PUSH1 0x5 PUSH1 0xC DUP2 LT PUSH2 0x683 JUMPI PUSH2 0x682 PUSH2 0x1C64 JUMP JUMPDEST JUMPDEST PUSH1 0x20 MUL ADD SWAP1 PUSH1 0xFF AND SWAP1 DUP2 PUSH1 0xFF AND DUP2 MSTORE POP POP PUSH1 0x1F DUP2 PUSH1 0x6 PUSH1 0xC DUP2 LT PUSH2 0x6AA JUMPI PUSH2 0x6A9 PUSH2 0x1C64 JUMP JUMPDEST JUMPDEST PUSH1 0x20 MUL ADD SWAP1 PUSH1 0xFF AND SWAP1 DUP2 PUSH1 0xFF AND DUP2 MSTORE POP POP PUSH1 0x1F DUP2 PUSH1 0x7 PUSH1 0xC DUP2 LT PUSH2 0x6D1 JUMPI PUSH2 0x6D0 PUSH2 0x1C64 JUMP JUMPDEST JUMPDEST PUSH1 0x20 MUL ADD SWAP1 PUSH1 0xFF AND SWAP1 DUP2 PUSH1 0xFF AND DUP2 MSTORE POP POP PUSH1 0x1E DUP2 PUSH1 0x8 PUSH1 0xC DUP2 LT PUSH2 0x6F8 JUMPI PUSH2 0x6F7 PUSH2 0x1C64 JUMP JUMPDEST JUMPDEST PUSH1 0x20 MUL ADD SWAP1 PUSH1 0xFF AND SWAP1 DUP2 PUSH1 0xFF AND DUP2 MSTORE POP POP PUSH1 0x1F DUP2 PUSH1 0x9 PUSH1 0xC DUP2 LT PUSH2 0x71F JUMPI PUSH2 0x71E PUSH2 0x1C64 JUMP JUMPDEST JUMPDEST PUSH1 0x20 MUL ADD SWAP1 PUSH1 0xFF AND SWAP1 DUP2 PUSH1 0xFF AND DUP2 MSTORE POP POP PUSH1 0x1E DUP2 PUSH1 0xA PUSH1 0xC DUP2 LT PUSH2 0x746 JUMPI PUSH2 0x745 PUSH2 0x1C64 JUMP JUMPDEST JUMPDEST PUSH1 0x20 MUL ADD SWAP1 PUSH1 0xFF AND SWAP1 DUP2 PUSH1 0xFF AND DUP2 MSTORE POP POP PUSH1 0x1F DUP2 PUSH1 0xB PUSH1 0xC DUP2 LT PUSH2 0x76D JUMPI PUSH2 0x76C PUSH2 0x1C64 JUMP JUMPDEST JUMPDEST PUSH1 0x20 MUL ADD SWAP1 PUSH1 0xFF AND SWAP1 DUP2 PUSH1 0xFF AND DUP2 MSTORE POP POP PUSH1 0x1 SWAP2 POP JUMPDEST DUP8 PUSH1 0xFF AND DUP3 PUSH2 0xFFFF AND LT ISZERO PUSH2 0x7EB JUMPI DUP1 PUSH1 0x1 DUP4 PUSH2 0x7A0 SWAP2 SWAP1 PUSH2 0x1C93 JUMP JUMPDEST PUSH2 0xFFFF AND PUSH1 0xC DUP2 LT PUSH2 0x7B5 JUMPI PUSH2 0x7B4 PUSH2 0x1C64 JUMP JUMPDEST JUMPDEST PUSH1 0x20 MUL ADD MLOAD PUSH1 0xFF AND PUSH3 0x15180 PUSH2 0x7CB SWAP2 SWAP1 PUSH2 0x1CC9 JUMP JUMPDEST DUP4 PUSH2 0x7D6 SWAP2 SWAP1 PUSH2 0x1C06 JUMP JUMPDEST SWAP3 POP DUP2 DUP1 PUSH2 0x7E3 SWAP1 PUSH2 0x1C3A JUMP JUMPDEST SWAP3 POP POP PUSH2 0x783 JUMP JUMPDEST PUSH1 0x1 DUP8 PUSH2 0x7F8 SWAP2 SWAP1 PUSH2 0x1D0B JUMP JUMPDEST PUSH1 0xFF AND PUSH3 0x15180 PUSH2 0x809 SWAP2 SWAP1 PUSH2 0x1CC9 JUMP JUMPDEST DUP4 PUSH2 0x814 SWAP2 SWAP1 PUSH2 0x1C06 JUMP JUMPDEST SWAP3 POP DUP6 PUSH1 0xFF AND PUSH2 0xE10 PUSH2 0x827 SWAP2 SWAP1 PUSH2 0x1CC9 JUMP JUMPDEST DUP4 PUSH2 0x832 SWAP2 SWAP1 PUSH2 0x1C06 JUMP JUMPDEST SWAP3 POP DUP5 PUSH1 0xFF AND PUSH1 0x3C PUSH2 0x844 SWAP2 SWAP1 PUSH2 0x1CC9 JUMP JUMPDEST DUP4 PUSH2 0x84F SWAP2 SWAP1 PUSH2 0x1C06 JUMP JUMPDEST SWAP3 POP DUP4 PUSH1 0xFF AND DUP4 PUSH2 0x860 SWAP2 SWAP1 PUSH2 0x1C06 JUMP JUMPDEST SWAP3 POP POP POP SWAP7 SWAP6 POP POP POP POP POP POP JUMP JUMPDEST PUSH1 0x0 DUP1 PUSH1 0x0 SWAP1 POP PUSH1 0x0 DUP1 PUSH4 0x1E13380 DUP6 PUSH2 0x888 SWAP2 SWAP1 PUSH2 0x1BA4 JUMP JUMPDEST PUSH2 0x7B2 PUSH2 0xFFFF AND PUSH2 0x899 SWAP2 SWAP1 PUSH2 0x1C06 JUMP JUMPDEST SWAP2 POP PUSH2 0x8AA PUSH2 0x7B2 PUSH2 0xFFFF AND PUSH2 0xFC3 JUMP JUMPDEST PUSH2 0x8B7 DUP4 PUSH2 0xFFFF AND PUSH2 0xFC3 JUMP JUMPDEST PUSH2 0x8C1 SWAP2 SWAP1 PUSH2 0x1D40 JUMP JUMPDEST SWAP1 POP DUP1 PUSH4 0x1E28500 PUSH2 0x8D3 SWAP2 SWAP1 PUSH2 0x1CC9 JUMP JUMPDEST DUP4 PUSH2 0x8DE SWAP2 SWAP1 PUSH2 0x1C06 JUMP JUMPDEST SWAP3 POP DUP1 PUSH2 0x7B2 DUP4 PUSH2 0x8EF SWAP2 SWAP1 PUSH2 0x1C93 JUMP JUMPDEST PUSH2 0xFFFF AND PUSH2 0x8FD SWAP2 SWAP1 PUSH2 0x1D40 JUMP JUMPDEST PUSH4 0x1E13380 PUSH2 0x90C SWAP2 SWAP1 PUSH2 0x1CC9 JUMP JUMPDEST DUP4 PUSH2 0x917 SWAP2 SWAP1 PUSH2 0x1C06 JUMP JUMPDEST SWAP3 POP JUMPDEST DUP5 DUP4 GT ISZERO PUSH2 0x97A JUMPI PUSH2 0x937 PUSH1 0x1 DUP4 PUSH2 0x932 SWAP2 SWAP1 PUSH2 0x1C93 JUMP JUMPDEST PUSH2 0x99B JUMP JUMPDEST ISZERO PUSH2 0x953 JUMPI PUSH4 0x1E28500 DUP4 PUSH2 0x94C SWAP2 SWAP1 PUSH2 0x1D40 JUMP JUMPDEST SWAP3 POP PUSH2 0x966 JUMP JUMPDEST PUSH4 0x1E13380 DUP4 PUSH2 0x963 SWAP2 SWAP1 PUSH2 0x1D40 JUMP JUMPDEST SWAP3 POP JUMPDEST PUSH1 0x1 DUP3 PUSH2 0x973 SWAP2 SWAP1 PUSH2 0x1C93 JUMP JUMPDEST SWAP2 POP PUSH2 0x91A JUMP JUMPDEST DUP2 SWAP4 POP POP POP POP SWAP2 SWAP1 POP JUMP JUMPDEST PUSH1 0x0 PUSH2 0x990 DUP3 PUSH2 0x110F JUMP JUMPDEST PUSH1 0x20 ADD MLOAD SWAP1 POP SWAP2 SWAP1 POP JUMP JUMPDEST PUSH1 0x0 DUP1 PUSH1 0x4 DUP4 PUSH2 0x9AB SWAP2 SWAP1 PUSH2 0x1D74 JUMP JUMPDEST PUSH2 0xFFFF AND EQ PUSH2 0x9BD JUMPI PUSH1 0x0 SWAP1 POP PUSH2 0xA05 JUMP JUMPDEST PUSH1 0x0 PUSH1 0x64 DUP4 PUSH2 0x9CC SWAP2 SWAP1 PUSH2 0x1D74 JUMP JUMPDEST PUSH2 0xFFFF AND EQ PUSH2 0x9DE JUMPI PUSH1 0x1 SWAP1 POP PUSH2 0xA05 JUMP JUMPDEST PUSH1 0x0 PUSH2 0x190 DUP4 PUSH2 0x9EE SWAP2 SWAP1 PUSH2 0x1D74 JUMP JUMPDEST PUSH2 0xFFFF AND EQ PUSH2 0xA00 JUMPI PUSH1 0x0 SWAP1 POP PUSH2 0xA05 JUMP JUMPDEST PUSH1 0x1 SWAP1 POP JUMPDEST SWAP2 SWAP1 POP JUMP JUMPDEST PUSH1 0x60 PUSH1 0x0 DUP1 PUSH1 0x0 PUSH2 0xA19 PUSH2 0x10E3 JUMP JUMPDEST SWAP3 POP SWAP3 POP SWAP3 POP PUSH1 0x0 PUSH2 0xA2E DUP5 PUSH2 0xFFFF AND PUSH2 0x1341 JUMP JUMPDEST SWAP1 POP PUSH1 0x0 PUSH2 0xA3E DUP5 PUSH1 0xFF AND PUSH2 0x1341 JUMP JUMPDEST SWAP1 POP PUSH1 0x0 PUSH2 0xA4E DUP5 PUSH1 0xFF AND PUSH2 0x1341 JUMP JUMPDEST SWAP1 POP PUSH1 0x0 PUSH1 0xA PUSH8 0xFFFFFFFFFFFFFFFF DUP2 GT ISZERO PUSH2 0xA6D JUMPI PUSH2 0xA6C PUSH2 0x1DA5 JUMP JUMPDEST JUMPDEST PUSH1 0x40 MLOAD SWAP1 DUP1 DUP3 MSTORE DUP1 PUSH1 0x1F ADD PUSH1 0x1F NOT AND PUSH1 0x20 ADD DUP3 ADD PUSH1 0x40 MSTORE DUP1 ISZERO PUSH2 0xA9F JUMPI DUP2 PUSH1 0x20 ADD PUSH1 0x1 DUP3 MUL DUP1 CALLDATASIZE DUP4 CALLDATACOPY DUP1 DUP3 ADD SWAP2 POP POP SWAP1 POP JUMPDEST POP SWAP1 POP DUP4 PUSH1 0x0 DUP2 MLOAD DUP2 LT PUSH2 0xAB6 JUMPI PUSH2 0xAB5 PUSH2 0x1C64 JUMP JUMPDEST JUMPDEST PUSH1 0x20 ADD ADD MLOAD PUSH1 0xF8 SHR PUSH1 0xF8 SHL DUP2 PUSH1 0x0 DUP2 MLOAD DUP2 LT PUSH2 0xAD5 JUMPI PUSH2 0xAD4 PUSH2 0x1C64 JUMP JUMPDEST JUMPDEST PUSH1 0x20 ADD ADD SWAP1 PUSH31 0xFFFFFFFFFFFFFFFFFFFFFFFFFFFFFFFFFFFFFFFFFFFFFFFFFFFFFFFFFFFFFF NOT AND SWAP1 DUP2 PUSH1 0x0 BYTE SWAP1 MSTORE8 POP DUP4 PUSH1 0x1 DUP2 MLOAD DUP2 LT PUSH2 0xB18 JUMPI PUSH2 0xB17 PUSH2 0x1C64 JUMP JUMPDEST JUMPDEST PUSH1 0x20 ADD ADD MLOAD PUSH1 0xF8 SHR PUSH1 0xF8 SHL DUP2 PUSH1 0x1 DUP2 MLOAD DUP2 LT PUSH2 0xB37 JUMPI PUSH2 0xB36 PUSH2 0x1C64 JUMP JUMPDEST JUMPDEST PUSH1 0x20 ADD ADD SWAP1 PUSH31 0xFFFFFFFFFFFFFFFFFFFFFFFFFFFFFFFFFFFFFFFFFFFFFFFFFFFFFFFFFFFFFF NOT AND SWAP1 DUP2 PUSH1 0x0 BYTE SWAP1 MSTORE8 POP DUP4 PUSH1 0x2 DUP2 MLOAD DUP2 LT PUSH2 0xB7A JUMPI PUSH2 0xB79 PUSH2 0x1C64 JUMP JUMPDEST JUMPDEST PUSH1 0x20 ADD ADD MLOAD PUSH1 0xF8 SHR PUSH1 0xF8 SHL DUP2 PUSH1 0x2 DUP2 MLOAD DUP2 LT PUSH2 0xB99 JUMPI PUSH2 0xB98 PUSH2 0x1C64 JUMP JUMPDEST JUMPDEST PUSH1 0x20 ADD ADD SWAP1 PUSH31 0xFFFFFFFFFFFFFFFFFFFFFFFFFFFFFFFFFFFFFFFFFFFFFFFFFFFFFFFFFFFFFF NOT AND SWAP1 DUP2 PUSH1 0x0 BYTE SWAP1 MSTORE8 POP DUP4 PUSH1 0x3 DUP2 MLOAD DUP2 LT PUSH2 0xBDC JUMPI PUSH2 0xBDB PUSH2 0x1C64 JUMP JUMPDEST JUMPDEST PUSH1 0x20 ADD ADD MLOAD PUSH1 0xF8 SHR PUSH1 0xF8 SHL DUP2 PUSH1 0x3 DUP2 MLOAD DUP2 LT PUSH2 0xBFB JUMPI PUSH2 0xBFA PUSH2 0x1C64 JUMP JUMPDEST JUMPDEST PUSH1 0x20 ADD ADD SWAP1 PUSH31 0xFFFFFFFFFFFFFFFFFFFFFFFFFFFFFFFFFFFFFFFFFFFFFFFFFFFFFFFFFFFFFF NOT AND SWAP1 DUP2 PUSH1 0x0 BYTE SWAP1 MSTORE8 POP PUSH1 0x2D PUSH1 0xF8 SHL DUP2 PUSH1 0x4 DUP2 MLOAD DUP2 LT PUSH2 0xC43 JUMPI PUSH2 0xC42 PUSH2 0x1C64 JUMP JUMPDEST JUMPDEST PUSH1 0x20 ADD ADD SWAP1 PUSH31 0xFFFFFFFFFFFFFFFFFFFFFFFFFFFFFFFFFFFFFFFFFFFFFFFFFFFFFFFFFFFFFF NOT AND SWAP1 DUP2 PUSH1 0x0 BYTE SWAP1 MSTORE8 POP PUSH1 0x1 DUP4 MLOAD GT ISZERO PUSH2 0xD45 JUMPI DUP3 PUSH1 0x0 DUP2 MLOAD DUP2 LT PUSH2 0xC90 JUMPI PUSH2 0xC8F PUSH2 0x1C64 JUMP JUMPDEST JUMPDEST PUSH1 0x20 ADD ADD MLOAD PUSH1 0xF8 SHR PUSH1 0xF8 SHL DUP2 PUSH1 0x5 DUP2 MLOAD DUP2 LT PUSH2 0xCAF JUMPI PUSH2 0xCAE PUSH2 0x1C64 JUMP JUMPDEST JUMPDEST PUSH1 0x20 ADD ADD SWAP1 PUSH31 0xFFFFFFFFFFFFFFFFFFFFFFFFFFFFFFFFFFFFFFFFFFFFFFFFFFFFFFFFFFFFFF NOT AND SWAP1 DUP2 PUSH1 0x0 BYTE SWAP1 MSTORE8 POP DUP3 PUSH1 0x1 DUP2 MLOAD DUP2 LT PUSH2 0xCF2 JUMPI PUSH2 0xCF1 PUSH2 0x1C64 JUMP JUMPDEST JUMPDEST PUSH1 0x20 ADD ADD MLOAD PUSH1 0xF8 SHR PUSH1 0xF8 SHL DUP2 PUSH1 0x6 DUP2 MLOAD DUP2 LT PUSH2 0xD11 JUMPI PUSH2 0xD10 PUSH2 0x1C64 JUMP JUMPDEST JUMPDEST PUSH1 0x20 ADD ADD SWAP1 PUSH31 0xFFFFFFFFFFFFFFFFFFFFFFFFFFFFFFFFFFFFFFFFFFFFFFFFFFFFFFFFFFFFFF NOT AND SWAP1 DUP2 PUSH1 0x0 BYTE SWAP1 MSTORE8 POP PUSH2 0xDF0 JUMP JUMPDEST PUSH1 0x30 PUSH1 0xF8 SHL DUP2 PUSH1 0x5 DUP2 MLOAD DUP2 LT PUSH2 0xD5E JUMPI PUSH2 0xD5D PUSH2 0x1C64 JUMP JUMPDEST JUMPDEST PUSH1 0x20 ADD ADD SWAP1 PUSH31 0xFFFFFFFFFFFFFFFFFFFFFFFFFFFFFFFFFFFFFFFFFFFFFFFFFFFFFFFFFFFFFF NOT AND SWAP1 DUP2 PUSH1 0x0 BYTE SWAP1 MSTORE8 POP DUP3 PUSH1 0x0 DUP2 MLOAD DUP2 LT PUSH2 0xDA1 JUMPI PUSH2 0xDA0 PUSH2 0x1C64 JUMP JUMPDEST JUMPDEST PUSH1 0x20 ADD ADD MLOAD PUSH1 0xF8 SHR PUSH1 0xF8 SHL DUP2 PUSH1 0x6 DUP2 MLOAD DUP2 LT PUSH2 0xDC0 JUMPI PUSH2 0xDBF PUSH2 0x1C64 JUMP JUMPDEST JUMPDEST PUSH1 0x20 ADD ADD SWAP1 PUSH31 0xFFFFFFFFFFFFFFFFFFFFFFFFFFFFFFFFFFFFFFFFFFFFFFFFFFFFFFFFFFFFFF NOT AND SWAP1 DUP2 PUSH1 0x0 BYTE SWAP1 MSTORE8 POP JUMPDEST PUSH1 0x2D PUSH1 0xF8 SHL DUP2 PUSH1 0x7 DUP2 MLOAD DUP2 LT PUSH2 0xE09 JUMPI PUSH2 0xE08 PUSH2 0x1C64 JUMP JUMPDEST JUMPDEST PUSH1 0x20 ADD ADD SWAP1 PUSH31 0xFFFFFFFFFFFFFFFFFFFFFFFFFFFFFFFFFFFFFFFFFFFFFFFFFFFFFFFFFFFFFF NOT AND SWAP1 DUP2 PUSH1 0x0 BYTE SWAP1 MSTORE8 POP PUSH1 0x1 DUP3 MLOAD GT ISZERO PUSH2 0xF0B JUMPI DUP2 PUSH1 0x0 DUP2 MLOAD DUP2 LT PUSH2 0xE56 JUMPI PUSH2 0xE55 PUSH2 0x1C64 JUMP JUMPDEST JUMPDEST PUSH1 0x20 ADD ADD MLOAD PUSH1 0xF8 SHR PUSH1 0xF8 SHL DUP2 PUSH1 0x8 DUP2 MLOAD DUP2 LT PUSH2 0xE75 JUMPI PUSH2 0xE74 PUSH2 0x1C64 JUMP JUMPDEST JUMPDEST PUSH1 0x20 ADD ADD SWAP1 PUSH31 0xFFFFFFFFFFFFFFFFFFFFFFFFFFFFFFFFFFFFFFFFFFFFFFFFFFFFFFFFFFFFFF NOT AND SWAP1 DUP2 PUSH1 0x0 BYTE SWAP1 MSTORE8 POP DUP2 PUSH1 0x1 DUP2 MLOAD DUP2 LT PUSH2 0xEB8 JUMPI PUSH2 0xEB7 PUSH2 0x1C64 JUMP JUMPDEST JUMPDEST PUSH1 0x20 ADD ADD MLOAD PUSH1 0xF8 SHR PUSH1 0xF8 SHL DUP2 PUSH1 0x9 DUP2 MLOAD DUP2 LT PUSH2 0xED7 JUMPI PUSH2 0xED6 PUSH2 0x1C64 JUMP JUMPDEST JUMPDEST PUSH1 0x20 ADD ADD SWAP1 PUSH31 0xFFFFFFFFFFFFFFFFFFFFFFFFFFFFFFFFFFFFFFFFFFFFFFFFFFFFFFFFFFFFFF NOT AND SWAP1 DUP2 PUSH1 0x0 BYTE SWAP1 MSTORE8 POP PUSH2 0xFB6 JUMP JUMPDEST PUSH1 0x30 PUSH1 0xF8 SHL DUP2 PUSH1 0x8 DUP2 MLOAD DUP2 LT PUSH2 0xF24 JUMPI PUSH2 0xF23 PUSH2 0x1C64 JUMP JUMPDEST JUMPDEST PUSH1 0x20 ADD ADD SWAP1 PUSH31 0xFFFFFFFFFFFFFFFFFFFFFFFFFFFFFFFFFFFFFFFFFFFFFFFFFFFFFFFFFFFFFF NOT AND SWAP1 DUP2 PUSH1 0x0 BYTE SWAP1 MSTORE8 POP DUP2 PUSH1 0x0 DUP2 MLOAD DUP2 LT PUSH2 0xF67 JUMPI PUSH2 0xF66 PUSH2 0x1C64 JUMP JUMPDEST JUMPDEST PUSH1 0x20 ADD ADD MLOAD PUSH1 0xF8 SHR PUSH1 0xF8 SHL DUP2 PUSH1 0x9 DUP2 MLOAD DUP2 LT PUSH2 0xF86 JUMPI PUSH2 0xF85 PUSH2 0x1C64 JUMP JUMPDEST JUMPDEST PUSH1 0x20 ADD ADD SWAP1 PUSH31 0xFFFFFFFFFFFFFFFFFFFFFFFFFFFFFFFFFFFFFFFFFFFFFFFFFFFFFFFFFFFFFF NOT AND SWAP1 DUP2 PUSH1 0x0 BYTE SWAP1 MSTORE8 POP JUMPDEST DUP1 SWAP8 POP POP POP POP POP POP POP POP SWAP1 JUMP JUMPDEST PUSH1 0x0 PUSH1 0x1 DUP3 PUSH2 0xFD2 SWAP2 SWAP1 PUSH2 0x1D40 JUMP JUMPDEST SWAP2 POP PUSH2 0x190 DUP3 PUSH2 0xFE2 SWAP2 SWAP1 PUSH2 0x1BA4 JUMP JUMPDEST PUSH1 0x64 DUP4 PUSH2 0xFEF SWAP2 SWAP1 PUSH2 0x1BA4 JUMP JUMPDEST PUSH1 0x4 DUP5 PUSH2 0xFFC SWAP2 SWAP1 PUSH2 0x1BA4 JUMP JUMPDEST PUSH2 0x1006 SWAP2 SWAP1 PUSH2 0x1D40 JUMP JUMPDEST PUSH2 0x1010 SWAP2 SWAP1 PUSH2 0x1C06 JUMP JUMPDEST SWAP1 POP SWAP2 SWAP1 POP JUMP JUMPDEST PUSH1 0x0 PUSH1 0x1 DUP4 PUSH1 0xFF AND EQ DUP1 PUSH2 0x102E JUMPI POP PUSH1 0x3 DUP4 PUSH1 0xFF AND EQ JUMPDEST DUP1 PUSH2 0x103C JUMPI POP PUSH1 0x5 DUP4 PUSH1 0xFF AND EQ JUMPDEST DUP1 PUSH2 0x104A JUMPI POP PUSH1 0x7 DUP4 PUSH1 0xFF AND EQ JUMPDEST DUP1 PUSH2 0x1058 JUMPI POP PUSH1 0x8 DUP4 PUSH1 0xFF AND EQ JUMPDEST DUP1 PUSH2 0x1066 JUMPI POP PUSH1 0xA DUP4 PUSH1 0xFF AND EQ JUMPDEST DUP1 PUSH2 0x1074 JUMPI POP PUSH1 0xC DUP4 PUSH1 0xFF AND EQ JUMPDEST ISZERO PUSH2 0x1082 JUMPI PUSH1 0x1F SWAP1 POP PUSH2 0x10DD JUMP JUMPDEST PUSH1 0x4 DUP4 PUSH1 0xFF AND EQ DUP1 PUSH2 0x1097 JUMPI POP PUSH1 0x6 DUP4 PUSH1 0xFF AND EQ JUMPDEST DUP1 PUSH2 0x10A5 JUMPI POP PUSH1 0x9 DUP4 PUSH1 0xFF AND EQ JUMPDEST DUP1 PUSH2 0x10B3 JUMPI POP PUSH1 0xB DUP4 PUSH1 0xFF AND EQ JUMPDEST ISZERO PUSH2 0x10C1 JUMPI PUSH1 0x1E SWAP1 POP PUSH2 0x10DD JUMP JUMPDEST PUSH2 0x10CA DUP3 PUSH2 0x99B JUMP JUMPDEST ISZERO PUSH2 0x10D8 JUMPI PUSH1 0x1D SWAP1 POP PUSH2 0x10DD JUMP JUMPDEST PUSH1 0x1C SWAP1 POP JUMPDEST SWAP3 SWAP2 POP POP JUMP JUMPDEST PUSH1 0x0 DUP1 PUSH1 0x0 DUP1 PUSH2 0x10F2 TIMESTAMP PUSH2 0x110F JUMP JUMPDEST SWAP1 POP DUP1 PUSH1 0x0 ADD MLOAD DUP2 PUSH1 0x20 ADD MLOAD DUP3 PUSH1 0x40 ADD MLOAD SWAP4 POP SWAP4 POP SWAP4 POP POP SWAP1 SWAP2 SWAP3 JUMP JUMPDEST PUSH2 0x1117 PUSH2 0x1585 JUMP JUMPDEST PUSH1 0x0 DUP1 DUP1 PUSH2 0x1124 DUP6 PUSH2 0x86E JUMP JUMPDEST DUP5 PUSH1 0x0 ADD SWAP1 PUSH2 0xFFFF AND SWAP1 DUP2 PUSH2 0xFFFF AND DUP2 MSTORE POP POP PUSH2 0x1146 PUSH2 0x7B2 PUSH2 0xFFFF AND PUSH2 0xFC3 JUMP JUMPDEST PUSH2 0x1157 DUP6 PUSH1 0x0 ADD MLOAD PUSH2 0xFFFF AND PUSH2 0xFC3 JUMP JUMPDEST PUSH2 0x1161 SWAP2 SWAP1 PUSH2 0x1D40 JUMP JUMPDEST SWAP2 POP DUP2 PUSH4 0x1E28500 PUSH2 0x1173 SWAP2 SWAP1 PUSH2 0x1CC9 JUMP JUMPDEST DUP4 PUSH2 0x117E SWAP2 SWAP1 PUSH2 0x1C06 JUMP JUMPDEST SWAP3 POP DUP2 PUSH2 0x7B2 DUP6 PUSH1 0x0 ADD MLOAD PUSH2 0x1193 SWAP2 SWAP1 PUSH2 0x1C93 JUMP JUMPDEST PUSH2 0xFFFF AND PUSH2 0x11A1 SWAP2 SWAP1 PUSH2 0x1D40 JUMP JUMPDEST PUSH4 0x1E13380 PUSH2 0x11B0 SWAP2 SWAP1 PUSH2 0x1CC9 JUMP JUMPDEST DUP4 PUSH2 0x11BB SWAP2 SWAP1 PUSH2 0x1C06 JUMP JUMPDEST SWAP3 POP PUSH1 0x0 PUSH1 0x1 SWAP2 POP JUMPDEST PUSH1 0xC DUP3 PUSH1 0xFF AND GT PUSH2 0x123B JUMPI PUSH2 0x11DD DUP3 DUP7 PUSH1 0x0 ADD MLOAD PUSH2 0x1017 JUMP JUMPDEST PUSH1 0xFF AND PUSH3 0x15180 PUSH2 0x11EE SWAP2 SWAP1 PUSH2 0x1CC9 JUMP JUMPDEST SWAP1 POP DUP6 DUP5 DUP3 PUSH2 0x11FD SWAP2 SWAP1 PUSH2 0x1C06 JUMP JUMPDEST GT ISZERO PUSH2 0x121A JUMPI DUP2 DUP6 PUSH1 0x20 ADD SWAP1 PUSH1 0xFF AND SWAP1 DUP2 PUSH1 0xFF AND DUP2 MSTORE POP POP PUSH2 0x123B JUMP JUMPDEST DUP1 DUP5 PUSH2 0x1226 SWAP2 SWAP1 PUSH2 0x1C06 JUMP JUMPDEST SWAP4 POP DUP2 DUP1 PUSH2 0x1233 SWAP1 PUSH2 0x1DD4 JUMP JUMPDEST SWAP3 POP POP PUSH2 0x11C4 JUMP JUMPDEST PUSH1 0x1 SWAP2 POP JUMPDEST PUSH2 0x1252 DUP6 PUSH1 0x20 ADD MLOAD DUP7 PUSH1 0x0 ADD MLOAD PUSH2 0x1017 JUMP JUMPDEST PUSH1 0xFF AND DUP3 PUSH1 0xFF AND GT PUSH2 0x12AF JUMPI DUP6 DUP5 PUSH3 0x15180 PUSH2 0x126E SWAP2 SWAP1 PUSH2 0x1C06 JUMP JUMPDEST GT ISZERO PUSH2 0x128B JUMPI DUP2 DUP6 PUSH1 0x40 ADD SWAP1 PUSH1 0xFF AND SWAP1 DUP2 PUSH1 0xFF AND DUP2 MSTORE POP POP PUSH2 0x12AF JUMP JUMPDEST PUSH3 0x15180 DUP5 PUSH2 0x129A SWAP2 SWAP1 PUSH2 0x1C06 JUMP JUMPDEST SWAP4 POP DUP2 DUP1 PUSH2 0x12A7 SWAP1 PUSH2 0x1DD4 JUMP JUMPDEST SWAP3 POP POP PUSH2 0x1240 JUMP JUMPDEST PUSH2 0x12B8 DUP7 PUSH2 0x428 JUMP JUMPDEST DUP6 PUSH1 0x60 ADD SWAP1 PUSH1 0xFF AND SWAP1 DUP2 PUSH1 0xFF AND DUP2 MSTORE POP POP PUSH2 0x12D2 DUP7 PUSH2 0x1320 JUMP JUMPDEST DUP6 PUSH1 0x80 ADD SWAP1 PUSH1 0xFF AND SWAP1 DUP2 PUSH1 0xFF AND DUP2 MSTORE POP POP PUSH2 0x12EC DUP7 PUSH2 0x4D2 JUMP JUMPDEST DUP6 PUSH1 0xA0 ADD SWAP1 PUSH1 0xFF AND SWAP1 DUP2 PUSH1 0xFF AND DUP2 MSTORE POP POP PUSH2 0x1306 DUP7 PUSH2 0x455 JUMP JUMPDEST DUP6 PUSH1 0xC0 ADD SWAP1 PUSH1 0xFF AND SWAP1 DUP2 PUSH1 0xFF AND DUP2 MSTORE POP POP POP POP POP POP SWAP2 SWAP1 POP JUMP JUMPDEST PUSH1 0x0 PUSH1 0x3C DUP1 DUP4 PUSH2 0x1330 SWAP2 SWAP1 PUSH2 0x1BA4 JUMP JUMPDEST PUSH2 0x133A SWAP2 SWAP1 PUSH2 0x1BD5 JUMP JUMPDEST SWAP1 POP SWAP2 SWAP1 POP JUMP JUMPDEST PUSH1 0x60 PUSH1 0x0 PUSH1 0x1 PUSH2 0x1350 DUP5 PUSH2 0x140F JUMP JUMPDEST ADD SWAP1 POP PUSH1 0x0 DUP2 PUSH8 0xFFFFFFFFFFFFFFFF DUP2 GT ISZERO PUSH2 0x136F JUMPI PUSH2 0x136E PUSH2 0x1DA5 JUMP JUMPDEST JUMPDEST PUSH1 0x40 MLOAD SWAP1 DUP1 DUP3 MSTORE DUP1 PUSH1 0x1F ADD PUSH1 0x1F NOT AND PUSH1 0x20 ADD DUP3 ADD PUSH1 0x40 MSTORE DUP1 ISZERO PUSH2 0x13A1 JUMPI DUP2 PUSH1 0x20 ADD PUSH1 0x1 DUP3 MUL DUP1 CALLDATASIZE DUP4 CALLDATACOPY DUP1 DUP3 ADD SWAP2 POP POP SWAP1 POP JUMPDEST POP SWAP1 POP PUSH1 0x0 DUP3 PUSH1 0x20 ADD DUP3 ADD SWAP1 POP JUMPDEST PUSH1 0x1 ISZERO PUSH2 0x1404 JUMPI DUP1 DUP1 PUSH1 0x1 SWAP1 SUB SWAP2 POP POP PUSH32 0x3031323334353637383961626364656600000000000000000000000000000000 PUSH1 0xA DUP7 MOD BYTE DUP2 MSTORE8 PUSH1 0xA DUP6 DUP2 PUSH2 0x13F8 JUMPI PUSH2 0x13F7 PUSH2 0x1B46 JUMP JUMPDEST JUMPDEST DIV SWAP5 POP PUSH1 0x0 DUP6 SUB PUSH2 0x13AF JUMPI JUMPDEST DUP2 SWAP4 POP POP POP POP SWAP2 SWAP1 POP JUMP JUMPDEST PUSH1 0x0 DUP1 PUSH1 0x0 SWAP1 POP PUSH27 0x184F03E93FF9F4DAA797ED6E38ED64BF6A1F010000000000000000 DUP4 LT PUSH2 0x146D JUMPI PUSH27 0x184F03E93FF9F4DAA797ED6E38ED64BF6A1F010000000000000000 DUP4 DUP2 PUSH2 0x1463 JUMPI PUSH2 0x1462 PUSH2 0x1B46 JUMP JUMPDEST JUMPDEST DIV SWAP3 POP PUSH1 0x40 DUP2 ADD SWAP1 POP JUMPDEST PUSH14 0x4EE2D6D415B85ACEF8100000000 DUP4 LT PUSH2 0x14AA JUMPI PUSH14 0x4EE2D6D415B85ACEF8100000000 DUP4 DUP2 PUSH2 0x14A0 JUMPI PUSH2 0x149F PUSH2 0x1B46 JUMP JUMPDEST JUMPDEST DIV SWAP3 POP PUSH1 0x20 DUP2 ADD SWAP1 POP JUMPDEST PUSH7 0x2386F26FC10000 DUP4 LT PUSH2 0x14D9 JUMPI PUSH7 0x2386F26FC10000 DUP4 DUP2 PUSH2 0x14CF JUMPI PUSH2 0x14CE PUSH2 0x1B46 JUMP JUMPDEST JUMPDEST DIV SWAP3 POP PUSH1 0x10 DUP2 ADD SWAP1 POP JUMPDEST PUSH4 0x5F5E100 DUP4 LT PUSH2 0x1502 JUMPI PUSH4 0x5F5E100 DUP4 DUP2 PUSH2 0x14F8 JUMPI PUSH2 0x14F7 PUSH2 0x1B46 JUMP JUMPDEST JUMPDEST DIV SWAP3 POP PUSH1 0x8 DUP2 ADD SWAP1 POP JUMPDEST PUSH2 0x2710 DUP4 LT PUSH2 0x1527 JUMPI PUSH2 0x2710 DUP4 DUP2 PUSH2 0x151D JUMPI PUSH2 0x151C PUSH2 0x1B46 JUMP JUMPDEST JUMPDEST DIV SWAP3 POP PUSH1 0x4 DUP2 ADD SWAP1 POP JUMPDEST PUSH1 0x64 DUP4 LT PUSH2 0x154A JUMPI PUSH1 0x64 DUP4 DUP2 PUSH2 0x1540 JUMPI PUSH2 0x153F PUSH2 0x1B46 JUMP JUMPDEST JUMPDEST DIV SWAP3 POP PUSH1 0x2 DUP2 ADD SWAP1 POP JUMPDEST PUSH1 0xA DUP4 LT PUSH2 0x1559 JUMPI PUSH1 0x1 DUP2 ADD SWAP1 POP JUMPDEST DUP1 SWAP2 POP POP SWAP2 SWAP1 POP JUMP JUMPDEST PUSH1 0x40 MLOAD DUP1 PUSH2 0x180 ADD PUSH1 0x40 MSTORE DUP1 PUSH1 0xC SWAP1 PUSH1 0x20 DUP3 MUL DUP1 CALLDATASIZE DUP4 CALLDATACOPY DUP1 DUP3 ADD SWAP2 POP POP SWAP1 POP POP SWAP1 JUMP JUMPDEST PUSH1 0x40 MLOAD DUP1 PUSH1 0xE0 ADD PUSH1 0x40 MSTORE DUP1 PUSH1 0x0 PUSH2 0xFFFF AND DUP2 MSTORE PUSH1 0x20 ADD PUSH1 0x0 PUSH1 0xFF AND DUP2 MSTORE PUSH1 0x20 ADD PUSH1 0x0 PUSH1 0xFF AND DUP2 MSTORE PUSH1 0x20 ADD PUSH1 0x0 PUSH1 0xFF AND DUP2 MSTORE PUSH1 0x20 ADD PUSH1 0x0 PUSH1 0xFF AND DUP2 MSTORE PUSH1 0x20 ADD PUSH1 0x0 PUSH1 0xFF AND DUP2 MSTORE PUSH1 0x20 ADD PUSH1 0x0 PUSH1 0xFF AND DUP2 MSTORE POP SWAP1 JUMP JUMPDEST PUSH1 0x0 DUP1 REVERT JUMPDEST PUSH1 0x0 DUP2 SWAP1 POP SWAP2 SWAP1 POP JUMP JUMPDEST PUSH2 0x15F0 DUP2 PUSH2 0x15DD JUMP JUMPDEST DUP2 EQ PUSH2 0x15FB JUMPI PUSH1 0x0 DUP1 REVERT JUMPDEST POP JUMP JUMPDEST PUSH1 0x0 DUP2 CALLDATALOAD SWAP1 POP PUSH2 0x160D DUP2 PUSH2 0x15E7 JUMP JUMPDEST SWAP3 SWAP2 POP POP JUMP JUMPDEST PUSH1 0x0 PUSH1 0x20 DUP3 DUP5 SUB SLT ISZERO PUSH2 0x1629 JUMPI PUSH2 0x1628 PUSH2 0x15D8 JUMP JUMPDEST JUMPDEST PUSH1 0x0 PUSH2 0x1637 DUP5 DUP3 DUP6 ADD PUSH2 0x15FE JUMP JUMPDEST SWAP2 POP POP SWAP3 SWAP2 POP POP JUMP JUMPDEST PUSH1 0x0 PUSH1 0xFF DUP3 AND SWAP1 POP SWAP2 SWAP1 POP JUMP JUMPDEST PUSH2 0x1656 DUP2 PUSH2 0x1640 JUMP JUMPDEST DUP3 MSTORE POP POP JUMP JUMPDEST PUSH1 0x0 PUSH1 0x20 DUP3 ADD SWAP1 POP PUSH2 0x1671 PUSH1 0x0 DUP4 ADD DUP5 PUSH2 0x164D JUMP JUMPDEST SWAP3 SWAP2 POP POP JUMP JUMPDEST PUSH1 0x0 PUSH2 0xFFFF DUP3 AND SWAP1 POP SWAP2 SWAP1 POP JUMP JUMPDEST PUSH2 0x168E DUP2 PUSH2 0x1677 JUMP JUMPDEST DUP2 EQ PUSH2 0x1699 JUMPI PUSH1 0x0 DUP1 REVERT JUMPDEST POP JUMP JUMPDEST PUSH1 0x0 DUP2 CALLDATALOAD SWAP1 POP PUSH2 0x16AB DUP2 PUSH2 0x1685 JUMP JUMPDEST SWAP3 SWAP2 POP POP JUMP JUMPDEST PUSH2 0x16BA DUP2 PUSH2 0x1640 JUMP JUMPDEST DUP2 EQ PUSH2 0x16C5 JUMPI PUSH1 0x0 DUP1 REVERT JUMPDEST POP JUMP JUMPDEST PUSH1 0x0 DUP2 CALLDATALOAD SWAP1 POP PUSH2 0x16D7 DUP2 PUSH2 0x16B1 JUMP JUMPDEST SWAP3 SWAP2 POP POP JUMP JUMPDEST PUSH1 0x0 DUP1 PUSH1 0x0 DUP1 PUSH1 0x0 PUSH1 0xA0 DUP7 DUP9 SUB SLT ISZERO PUSH2 0x16F9 JUMPI PUSH2 0x16F8 PUSH2 0x15D8 JUMP JUMPDEST JUMPDEST PUSH1 0x0 PUSH2 0x1707 DUP9 DUP3 DUP10 ADD PUSH2 0x169C JUMP JUMPDEST SWAP6 POP POP PUSH1 0x20 PUSH2 0x1718 DUP9 DUP3 DUP10 ADD PUSH2 0x16C8 JUMP JUMPDEST SWAP5 POP POP PUSH1 0x40 PUSH2 0x1729 DUP9 DUP3 DUP10 ADD PUSH2 0x16C8 JUMP JUMPDEST SWAP4 POP POP PUSH1 0x60 PUSH2 0x173A DUP9 DUP3 DUP10 ADD PUSH2 0x16C8 JUMP JUMPDEST SWAP3 POP POP PUSH1 0x80 PUSH2 0x174B DUP9 DUP3 DUP10 ADD PUSH2 0x16C8 JUMP JUMPDEST SWAP2 POP POP SWAP3 SWAP6 POP SWAP3 SWAP6 SWAP1 SWAP4 POP JUMP JUMPDEST PUSH2 0x1761 DUP2 PUSH2 0x15DD JUMP JUMPDEST DUP3 MSTORE POP POP JUMP JUMPDEST PUSH1 0x0 PUSH1 0x20 DUP3 ADD SWAP1 POP PUSH2 0x177C PUSH1 0x0 DUP4 ADD DUP5 PUSH2 0x1758 JUMP JUMPDEST SWAP3 SWAP2 POP POP JUMP JUMPDEST PUSH1 0x0 DUP1 PUSH1 0x0 DUP1 PUSH1 0x80 DUP6 DUP8 SUB SLT ISZERO PUSH2 0x179C JUMPI PUSH2 0x179B PUSH2 0x15D8 JUMP JUMPDEST JUMPDEST PUSH1 0x0 PUSH2 0x17AA DUP8 DUP3 DUP9 ADD PUSH2 0x169C JUMP JUMPDEST SWAP5 POP POP PUSH1 0x20 PUSH2 0x17BB DUP8 DUP3 DUP9 ADD PUSH2 0x16C8 JUMP JUMPDEST SWAP4 POP POP PUSH1 0x40 PUSH2 0x17CC DUP8 DUP3 DUP9 ADD PUSH2 0x16C8 JUMP JUMPDEST SWAP3 POP POP PUSH1 0x60 PUSH2 0x17DD DUP8 DUP3 DUP9 ADD PUSH2 0x16C8 JUMP JUMPDEST SWAP2 POP POP SWAP3 SWAP6 SWAP2 SWAP5 POP SWAP3 POP JUMP JUMPDEST PUSH1 0x0 DUP1 PUSH1 0x0 PUSH1 0x60 DUP5 DUP7 SUB SLT ISZERO PUSH2 0x1802 JUMPI PUSH2 0x1801 PUSH2 0x15D8 JUMP JUMPDEST JUMPDEST PUSH1 0x0 PUSH2 0x1810 DUP7 DUP3 DUP8 ADD PUSH2 0x169C JUMP JUMPDEST SWAP4 POP POP PUSH1 0x20 PUSH2 0x1821 DUP7 DUP3 DUP8 ADD PUSH2 0x16C8 JUMP JUMPDEST SWAP3 POP POP PUSH1 0x40 PUSH2 0x1832 DUP7 DUP3 DUP8 ADD PUSH2 0x16C8 JUMP JUMPDEST SWAP2 POP POP SWAP3 POP SWAP3 POP SWAP3 JUMP JUMPDEST PUSH1 0x0 DUP1 PUSH1 0x0 DUP1 PUSH1 0x0 DUP1 PUSH1 0xC0 DUP8 DUP10 SUB SLT ISZERO PUSH2 0x1859 JUMPI PUSH2 0x1858 PUSH2 0x15D8 JUMP JUMPDEST JUMPDEST PUSH1 0x0 PUSH2 0x1867 DUP10 DUP3 DUP11 ADD PUSH2 0x169C JUMP JUMPDEST SWAP7 POP POP PUSH1 0x20 PUSH2 0x1878 DUP10 DUP3 DUP11 ADD PUSH2 0x16C8 JUMP JUMPDEST SWAP6 POP POP PUSH1 0x40 PUSH2 0x1889 DUP10 DUP3 DUP11 ADD PUSH2 0x16C8 JUMP JUMPDEST SWAP5 POP POP PUSH1 0x60 PUSH2 0x189A DUP10 DUP3 DUP11 ADD PUSH2 0x16C8 JUMP JUMPDEST SWAP4 POP POP PUSH1 0x80 PUSH2 0x18AB DUP10 DUP3 DUP11 ADD PUSH2 0x16C8 JUMP JUMPDEST SWAP3 POP POP PUSH1 0xA0 PUSH2 0x18BC DUP10 DUP3 DUP11 ADD PUSH2 0x16C8 JUMP JUMPDEST SWAP2 POP POP SWAP3 SWAP6 POP SWAP3 SWAP6 POP SWAP3 SWAP6 JUMP JUMPDEST PUSH2 0x18D2 DUP2 PUSH2 0x1677 JUMP JUMPDEST DUP3 MSTORE POP POP JUMP JUMPDEST PUSH1 0x0 PUSH1 0x20 DUP3 ADD SWAP1 POP PUSH2 0x18ED PUSH1 0x0 DUP4 ADD DUP5 PUSH2 0x18C9 JUMP JUMPDEST SWAP3 SWAP2 POP POP JUMP JUMPDEST PUSH1 0x0 PUSH1 0x20 DUP3 DUP5 SUB SLT ISZERO PUSH2 0x1909 JUMPI PUSH2 0x1908 PUSH2 0x15D8 JUMP JUMPDEST JUMPDEST PUSH1 0x0 PUSH2 0x1917 DUP5 DUP3 DUP6 ADD PUSH2 0x169C JUMP JUMPDEST SWAP2 POP POP SWAP3 SWAP2 POP POP JUMP JUMPDEST PUSH1 0x0 DUP2 ISZERO ISZERO SWAP1 POP SWAP2 SWAP1 POP JUMP JUMPDEST PUSH2 0x1935 DUP2 PUSH2 0x1920 JUMP JUMPDEST DUP3 MSTORE POP POP JUMP JUMPDEST PUSH1 0x0 PUSH1 0x20 DUP3 ADD SWAP1 POP PUSH2 0x1950 PUSH1 0x0 DUP4 ADD DUP5 PUSH2 0x192C JUMP JUMPDEST SWAP3 SWAP2 POP POP JUMP JUMPDEST PUSH1 0x0 DUP2 MLOAD SWAP1 POP SWAP2 SWAP1 POP JUMP JUMPDEST PUSH1 0x0 DUP3 DUP3 MSTORE PUSH1 0x20 DUP3 ADD SWAP1 POP SWAP3 SWAP2 POP POP JUMP JUMPDEST PUSH1 0x0 JUMPDEST DUP4 DUP2 LT ISZERO PUSH2 0x1990 JUMPI DUP1 DUP3 ADD MLOAD DUP2 DUP5 ADD MSTORE PUSH1 0x20 DUP2 ADD SWAP1 POP PUSH2 0x1975 JUMP JUMPDEST PUSH1 0x0 DUP5 DUP5 ADD MSTORE POP POP POP POP JUMP JUMPDEST PUSH1 0x0 PUSH1 0x1F NOT PUSH1 0x1F DUP4 ADD AND SWAP1 POP SWAP2 SWAP1 POP JUMP JUMPDEST PUSH1 0x0 PUSH2 0x19B8 DUP3 PUSH2 0x1956 JUMP JUMPDEST PUSH2 0x19C2 DUP2 DUP6 PUSH2 0x1961 JUMP JUMPDEST SWAP4 POP PUSH2 0x19D2 DUP2 DUP6 PUSH1 0x20 DUP7 ADD PUSH2 0x1972 JUMP JUMPDEST PUSH2 0x19DB DUP2 PUSH2 0x199C JUMP JUMPDEST DUP5 ADD SWAP2 POP POP SWAP3 SWAP2 POP POP JUMP JUMPDEST PUSH1 0x0 PUSH1 0x20 DUP3 ADD SWAP1 POP DUP2 DUP2 SUB PUSH1 0x0 DUP4 ADD MSTORE PUSH2 0x1A00 DUP2 DUP5 PUSH2 0x19AD JUMP JUMPDEST SWAP1 POP SWAP3 SWAP2 POP POP JUMP JUMPDEST PUSH1 0x0 DUP1 PUSH1 0x40 DUP4 DUP6 SUB SLT ISZERO PUSH2 0x1A1F JUMPI PUSH2 0x1A1E PUSH2 0x15D8 JUMP JUMPDEST JUMPDEST PUSH1 0x0 PUSH2 0x1A2D DUP6 DUP3 DUP7 ADD PUSH2 0x16C8 JUMP JUMPDEST SWAP3 POP POP PUSH1 0x20 PUSH2 0x1A3E DUP6 DUP3 DUP7 ADD PUSH2 0x169C JUMP JUMPDEST SWAP2 POP POP SWAP3 POP SWAP3 SWAP1 POP JUMP JUMPDEST PUSH1 0x0 PUSH1 0x60 DUP3 ADD SWAP1 POP PUSH2 0x1A5D PUSH1 0x0 DUP4 ADD DUP7 PUSH2 0x18C9 JUMP JUMPDEST PUSH2 0x1A6A PUSH1 0x20 DUP4 ADD DUP6 PUSH2 0x164D JUMP JUMPDEST PUSH2 0x1A77 PUSH1 0x40 DUP4 ADD DUP5 PUSH2 0x164D JUMP JUMPDEST SWAP5 SWAP4 POP POP POP POP JUMP JUMPDEST PUSH2 0x1A88 DUP2 PUSH2 0x1677 JUMP JUMPDEST DUP3 MSTORE POP POP JUMP JUMPDEST PUSH2 0x1A97 DUP2 PUSH2 0x1640 JUMP JUMPDEST DUP3 MSTORE POP POP JUMP JUMPDEST PUSH1 0xE0 DUP3 ADD PUSH1 0x0 DUP3 ADD MLOAD PUSH2 0x1AB3 PUSH1 0x0 DUP6 ADD DUP3 PUSH2 0x1A7F JUMP JUMPDEST POP PUSH1 0x20 DUP3 ADD MLOAD PUSH2 0x1AC6 PUSH1 0x20 DUP6 ADD DUP3 PUSH2 0x1A8E JUMP JUMPDEST POP PUSH1 0x40 DUP3 ADD MLOAD PUSH2 0x1AD9 PUSH1 0x40 DUP6 ADD DUP3 PUSH2 0x1A8E JUMP JUMPDEST POP PUSH1 0x60 DUP3 ADD MLOAD PUSH2 0x1AEC PUSH1 0x60 DUP6 ADD DUP3 PUSH2 0x1A8E JUMP JUMPDEST POP PUSH1 0x80 DUP3 ADD MLOAD PUSH2 0x1AFF PUSH1 0x80 DUP6 ADD DUP3 PUSH2 0x1A8E JUMP JUMPDEST POP PUSH1 0xA0 DUP3 ADD MLOAD PUSH2 0x1B12 PUSH1 0xA0 DUP6 ADD DUP3 PUSH2 0x1A8E JUMP JUMPDEST POP PUSH1 0xC0 DUP3 ADD MLOAD PUSH2 0x1B25 PUSH1 0xC0 DUP6 ADD DUP3 PUSH2 0x1A8E JUMP JUMPDEST POP POP POP POP JUMP JUMPDEST PUSH1 0x0 PUSH1 0xE0 DUP3 ADD SWAP1 POP PUSH2 0x1B40 PUSH1 0x0 DUP4 ADD DUP5 PUSH2 0x1A9D JUMP JUMPDEST SWAP3 SWAP2 POP POP JUMP JUMPDEST PUSH32 0x4E487B7100000000000000000000000000000000000000000000000000000000 PUSH1 0x0 MSTORE PUSH1 0x12 PUSH1 0x4 MSTORE PUSH1 0x24 PUSH1 0x0 REVERT JUMPDEST PUSH32 0x4E487B7100000000000000000000000000000000000000000000000000000000 PUSH1 0x0 MSTORE PUSH1 0x11 PUSH1 0x4 MSTORE PUSH1 0x24 PUSH1 0x0 REVERT JUMPDEST PUSH1 0x0 PUSH2 0x1BAF DUP3 PUSH2 0x15DD JUMP JUMPDEST SWAP2 POP PUSH2 0x1BBA DUP4 PUSH2 0x15DD JUMP JUMPDEST SWAP3 POP DUP3 PUSH2 0x1BCA JUMPI PUSH2 0x1BC9 PUSH2 0x1B46 JUMP JUMPDEST JUMPDEST DUP3 DUP3 DIV SWAP1 POP SWAP3 SWAP2 POP POP JUMP JUMPDEST PUSH1 0x0 PUSH2 0x1BE0 DUP3 PUSH2 0x15DD JUMP JUMPDEST SWAP2 POP PUSH2 0x1BEB DUP4 PUSH2 0x15DD JUMP JUMPDEST SWAP3 POP DUP3 PUSH2 0x1BFB JUMPI PUSH2 0x1BFA PUSH2 0x1B46 JUMP JUMPDEST JUMPDEST DUP3 DUP3 MOD SWAP1 POP SWAP3 SWAP2 POP POP JUMP JUMPDEST PUSH1 0x0 PUSH2 0x1C11 DUP3 PUSH2 0x15DD JUMP JUMPDEST SWAP2 POP PUSH2 0x1C1C DUP4 PUSH2 0x15DD JUMP JUMPDEST SWAP3 POP DUP3 DUP3 ADD SWAP1 POP DUP1 DUP3 GT ISZERO PUSH2 0x1C34 JUMPI PUSH2 0x1C33 PUSH2 0x1B75 JUMP JUMPDEST JUMPDEST SWAP3 SWAP2 POP POP JUMP JUMPDEST PUSH1 0x0 PUSH2 0x1C45 DUP3 PUSH2 0x1677 JUMP JUMPDEST SWAP2 POP PUSH2 0xFFFF DUP3 SUB PUSH2 0x1C59 JUMPI PUSH2 0x1C58 PUSH2 0x1B75 JUMP JUMPDEST JUMPDEST PUSH1 0x1 DUP3 ADD SWAP1 POP SWAP2 SWAP1 POP JUMP JUMPDEST PUSH32 0x4E487B7100000000000000000000000000000000000000000000000000000000 PUSH1 0x0 MSTORE PUSH1 0x32 PUSH1 0x4 MSTORE PUSH1 0x24 PUSH1 0x0 REVERT JUMPDEST PUSH1 0x0 PUSH2 0x1C9E DUP3 PUSH2 0x1677 JUMP JUMPDEST SWAP2 POP PUSH2 0x1CA9 DUP4 PUSH2 0x1677 JUMP JUMPDEST SWAP3 POP DUP3 DUP3 SUB SWAP1 POP PUSH2 0xFFFF DUP2 GT ISZERO PUSH2 0x1CC3 JUMPI PUSH2 0x1CC2 PUSH2 0x1B75 JUMP JUMPDEST JUMPDEST SWAP3 SWAP2 POP POP JUMP JUMPDEST PUSH1 0x0 PUSH2 0x1CD4 DUP3 PUSH2 0x15DD JUMP JUMPDEST SWAP2 POP PUSH2 0x1CDF DUP4 PUSH2 0x15DD JUMP JUMPDEST SWAP3 POP DUP3 DUP3 MUL PUSH2 0x1CED DUP2 PUSH2 0x15DD JUMP JUMPDEST SWAP2 POP DUP3 DUP3 DIV DUP5 EQ DUP4 ISZERO OR PUSH2 0x1D04 JUMPI PUSH2 0x1D03 PUSH2 0x1B75 JUMP JUMPDEST JUMPDEST POP SWAP3 SWAP2 POP POP JUMP JUMPDEST PUSH1 0x0 PUSH2 0x1D16 DUP3 PUSH2 0x1640 JUMP JUMPDEST SWAP2 POP PUSH2 0x1D21 DUP4 PUSH2 0x1640 JUMP JUMPDEST SWAP3 POP DUP3 DUP3 SUB SWAP1 POP PUSH1 0xFF DUP2 GT ISZERO PUSH2 0x1D3A JUMPI PUSH2 0x1D39 PUSH2 0x1B75 JUMP JUMPDEST JUMPDEST SWAP3 SWAP2 POP POP JUMP JUMPDEST PUSH1 0x0 PUSH2 0x1D4B DUP3 PUSH2 0x15DD JUMP JUMPDEST SWAP2 POP PUSH2 0x1D56 DUP4 PUSH2 0x15DD JUMP JUMPDEST SWAP3 POP DUP3 DUP3 SUB SWAP1 POP DUP2 DUP2 GT ISZERO PUSH2 0x1D6E JUMPI PUSH2 0x1D6D PUSH2 0x1B75 JUMP JUMPDEST JUMPDEST SWAP3 SWAP2 POP POP JUMP JUMPDEST PUSH1 0x0 PUSH2 0x1D7F DUP3 PUSH2 0x1677 JUMP JUMPDEST SWAP2 POP PUSH2 0x1D8A DUP4 PUSH2 0x1677 JUMP JUMPDEST SWAP3 POP DUP3 PUSH2 0x1D9A JUMPI PUSH2 0x1D99 PUSH2 0x1B46 JUMP JUMPDEST JUMPDEST DUP3 DUP3 MOD SWAP1 POP SWAP3 SWAP2 POP POP JUMP JUMPDEST PUSH32 0x4E487B7100000000000000000000000000000000000000000000000000000000 PUSH1 0x0 MSTORE PUSH1 0x41 PUSH1 0x4 MSTORE PUSH1 0x24 PUSH1 0x0 REVERT JUMPDEST PUSH1 0x0 PUSH2 0x1DDF DUP3 PUSH2 0x1640 JUMP JUMPDEST SWAP2 POP PUSH1 0xFF DUP3 SUB PUSH2 0x1DF2 JUMPI PUSH2 0x1DF1 PUSH2 0x1B75 JUMP JUMPDEST JUMPDEST PUSH1 0x1 DUP3 ADD SWAP1 POP SWAP2 SWAP1 POP JUMP INVALID LOG2 PUSH5 0x6970667358 0x22 SLT KECCAK256 0xCB 0xEE SIGNEXTEND 0xAF SWAP16 DUP16 0xB0 0xE2 PUSH17 0xD1CD077B0027E6CFFEDE0C94509E23E3CD SLOAD MSTORE8 PUSH31 0x62AC1464736F6C634300081200330000000000000000000000000000000000 "
		},
		"gasEstimates": {
			"creation": {
				"codeDepositCost": "1546200",
				"executionCost": "1642",
				"totalCost": "1547842"
			},
			"external": {
				"dnow()": "infinite",
				"getDay(uint256)": "infinite",
				"getDaysInMonth(uint8,uint16)": "infinite",
				"getHour(uint256)": "infinite",
				"getMinute(uint256)": "infinite",
				"getMonth(uint256)": "infinite",
				"getSecond(uint256)": "infinite",
				"getWeekday(uint256)": "infinite",
				"getYear(uint256)": "infinite",
				"isLeapYear(uint16)": "infinite",
				"leapYearsBefore(uint256)": "infinite",
				"parseTimestamp(uint256)": "infinite",
				"strNow()": "infinite",
				"toTimestamp(uint16,uint8,uint8)": "infinite",
				"toTimestamp(uint16,uint8,uint8,uint8)": "infinite",
				"toTimestamp(uint16,uint8,uint8,uint8,uint8)": "infinite",
				"toTimestamp(uint16,uint8,uint8,uint8,uint8,uint8)": "infinite"
			}
		},
		"methodIdentifiers": {
			"dnow()": "eb3334c5",
			"getDay(uint256)": "65c72840",
			"getDaysInMonth(uint8,uint16)": "b238ad0e",
			"getHour(uint256)": "3e239e1a",
			"getMinute(uint256)": "fa93f883",
			"getMonth(uint256)": "a324ad24",
			"getSecond(uint256)": "8aa001fc",
			"getWeekday(uint256)": "4ac1ad78",
			"getYear(uint256)": "92d66313",
			"isLeapYear(uint16)": "a6f0e577",
			"leapYearsBefore(uint256)": "b1999937",
			"parseTimestamp(uint256)": "f97d0591",
			"strNow()": "a9a295ad",
			"toTimestamp(uint16,uint8,uint8)": "8c8d98a0",
			"toTimestamp(uint16,uint8,uint8,uint8)": "7f791833",
			"toTimestamp(uint16,uint8,uint8,uint8,uint8)": "62ba9687",
			"toTimestamp(uint16,uint8,uint8,uint8,uint8,uint8)": "9054bdec"
		}
	},
	"abi": [
		{
			"inputs": [],
			"name": "dnow",
			"outputs": [
				{
					"internalType": "uint16",
					"name": "year",
					"type": "uint16"
				},
				{
					"internalType": "uint8",
					"name": "month",
					"type": "uint8"
				},
				{
					"internalType": "uint8",
					"name": "day",
					"type": "uint8"
				}
			],
			"stateMutability": "view",
			"type": "function"
		},
		{
			"inputs": [
				{
					"internalType": "uint256",
					"name": "timestamp",
					"type": "uint256"
				}
			],
			"name": "getDay",
			"outputs": [
				{
					"internalType": "uint8",
					"name": "",
					"type": "uint8"
				}
			],
			"stateMutability": "pure",
			"type": "function"
		},
		{
			"inputs": [
				{
					"internalType": "uint8",
					"name": "month",
					"type": "uint8"
				},
				{
					"internalType": "uint16",
					"name": "year",
					"type": "uint16"
				}
			],
			"name": "getDaysInMonth",
			"outputs": [
				{
					"internalType": "uint8",
					"name": "",
					"type": "uint8"
				}
			],
			"stateMutability": "pure",
			"type": "function"
		},
		{
			"inputs": [
				{
					"internalType": "uint256",
					"name": "timestamp",
					"type": "uint256"
				}
			],
			"name": "getHour",
			"outputs": [
				{
					"internalType": "uint8",
					"name": "",
					"type": "uint8"
				}
			],
			"stateMutability": "pure",
			"type": "function"
		},
		{
			"inputs": [
				{
					"internalType": "uint256",
					"name": "timestamp",
					"type": "uint256"
				}
			],
			"name": "getMinute",
			"outputs": [
				{
					"internalType": "uint8",
					"name": "",
					"type": "uint8"
				}
			],
			"stateMutability": "pure",
			"type": "function"
		},
		{
			"inputs": [
				{
					"internalType": "uint256",
					"name": "timestamp",
					"type": "uint256"
				}
			],
			"name": "getMonth",
			"outputs": [
				{
					"internalType": "uint8",
					"name": "",
					"type": "uint8"
				}
			],
			"stateMutability": "pure",
			"type": "function"
		},
		{
			"inputs": [
				{
					"internalType": "uint256",
					"name": "timestamp",
					"type": "uint256"
				}
			],
			"name": "getSecond",
			"outputs": [
				{
					"internalType": "uint8",
					"name": "",
					"type": "uint8"
				}
			],
			"stateMutability": "pure",
			"type": "function"
		},
		{
			"inputs": [
				{
					"internalType": "uint256",
					"name": "timestamp",
					"type": "uint256"
				}
			],
			"name": "getWeekday",
			"outputs": [
				{
					"internalType": "uint8",
					"name": "",
					"type": "uint8"
				}
			],
			"stateMutability": "pure",
			"type": "function"
		},
		{
			"inputs": [
				{
					"internalType": "uint256",
					"name": "timestamp",
					"type": "uint256"
				}
			],
			"name": "getYear",
			"outputs": [
				{
					"internalType": "uint16",
					"name": "",
					"type": "uint16"
				}
			],
			"stateMutability": "pure",
			"type": "function"
		},
		{
			"inputs": [
				{
					"internalType": "uint16",
					"name": "year",
					"type": "uint16"
				}
			],
			"name": "isLeapYear",
			"outputs": [
				{
					"internalType": "bool",
					"name": "",
					"type": "bool"
				}
			],
			"stateMutability": "pure",
			"type": "function"
		},
		{
			"inputs": [
				{
					"internalType": "uint256",
					"name": "year",
					"type": "uint256"
				}
			],
			"name": "leapYearsBefore",
			"outputs": [
				{
					"internalType": "uint256",
					"name": "",
					"type": "uint256"
				}
			],
			"stateMutability": "pure",
			"type": "function"
		},
		{
			"inputs": [
				{
					"internalType": "uint256",
					"name": "timestamp",
					"type": "uint256"
				}
			],
			"name": "parseTimestamp",
			"outputs": [
				{
					"components": [
						{
							"internalType": "uint16",
							"name": "year",
							"type": "uint16"
						},
						{
							"internalType": "uint8",
							"name": "month",
							"type": "uint8"
						},
						{
							"internalType": "uint8",
							"name": "day",
							"type": "uint8"
						},
						{
							"internalType": "uint8",
							"name": "hour",
							"type": "uint8"
						},
						{
							"internalType": "uint8",
							"name": "minute",
							"type": "uint8"
						},
						{
							"internalType": "uint8",
							"name": "second",
							"type": "uint8"
						},
						{
							"internalType": "uint8",
							"name": "weekday",
							"type": "uint8"
						}
					],
					"internalType": "struct DateTime._DateTime",
					"name": "dt",
					"type": "tuple"
				}
			],
			"stateMutability": "pure",
			"type": "function"
		},
		{
			"inputs": [],
			"name": "strNow",
			"outputs": [
				{
					"internalType": "string",
					"name": "",
					"type": "string"
				}
			],
			"stateMutability": "view",
			"type": "function"
		},
		{
			"inputs": [
				{
					"internalType": "uint16",
					"name": "year",
					"type": "uint16"
				},
				{
					"internalType": "uint8",
					"name": "month",
					"type": "uint8"
				},
				{
					"internalType": "uint8",
					"name": "day",
					"type": "uint8"
				},
				{
					"internalType": "uint8",
					"name": "hour",
					"type": "uint8"
				},
				{
					"internalType": "uint8",
					"name": "minute",
					"type": "uint8"
				}
			],
			"name": "toTimestamp",
			"outputs": [
				{
					"internalType": "uint256",
					"name": "timestamp",
					"type": "uint256"
				}
			],
			"stateMutability": "pure",
			"type": "function"
		},
		{
			"inputs": [
				{
					"internalType": "uint16",
					"name": "year",
					"type": "uint16"
				},
				{
					"internalType": "uint8",
					"name": "month",
					"type": "uint8"
				},
				{
					"internalType": "uint8",
					"name": "day",
					"type": "uint8"
				},
				{
					"internalType": "uint8",
					"name": "hour",
					"type": "uint8"
				}
			],
			"name": "toTimestamp",
			"outputs": [
				{
					"internalType": "uint256",
					"name": "timestamp",
					"type": "uint256"
				}
			],
			"stateMutability": "pure",
			"type": "function"
		},
		{
			"inputs": [
				{
					"internalType": "uint16",
					"name": "year",
					"type": "uint16"
				},
				{
					"internalType": "uint8",
					"name": "month",
					"type": "uint8"
				},
				{
					"internalType": "uint8",
					"name": "day",
					"type": "uint8"
				}
			],
			"name": "toTimestamp",
			"outputs": [
				{
					"internalType": "uint256",
					"name": "timestamp",
					"type": "uint256"
				}
			],
			"stateMutability": "pure",
			"type": "function"
		},
		{
			"inputs": [
				{
					"internalType": "uint16",
					"name": "year",
					"type": "uint16"
				},
				{
					"internalType": "uint8",
					"name": "month",
					"type": "uint8"
				},
				{
					"internalType": "uint8",
					"name": "day",
					"type": "uint8"
				},
				{
					"internalType": "uint8",
					"name": "hour",
					"type": "uint8"
				},
				{
					"internalType": "uint8",
					"name": "minute",
					"type": "uint8"
				},
				{
					"internalType": "uint8",
					"name": "second",
					"type": "uint8"
				}
			],
			"name": "toTimestamp",
			"outputs": [
				{
					"internalType": "uint256",
					"name": "timestamp",
					"type": "uint256"
				}
			],
			"stateMutability": "pure",
			"type": "function"
		}
	]
}