{
	"data": {
		"bytecode": {
			"linkReferences": {
				"XOpsilon Contract/BusinessHelper/IDT.sol": {
					"IDT": [
						{
							"length": 20,
							"start": 108
						}
					]
				}
			},
			"object": "6080604052600160005534801561001557600080fd5b50610d05806100256000396000f3fe60806040526004361061001e5760003560e01c8063a368854614610023575b600080fd5b61002b610041565b6040516100389190610807565b60405180910390f35b6060600073__$05823114ec7de7384eb5424a34d1617a2a$__63a9a295ad6040518163ffffffff1660e01b8152600401600060405180830381865af415801561008e573d6000803e3d6000fd5b505050506040513d6000823e3d601f19601f820116820180604052508101906100b79190610963565b90506000603767ffffffffffffffff8111156100d6576100d5610847565b5b6040519080825280601f01601f1916602001820160405280156101085781602001600182028036833780820191505090505b50905060005b815181101561017157605f60f81b82828151811061012f5761012e6109ac565b5b60200101907effffffffffffffffffffffffffffffffffffffffffffffffffffffffffffff1916908160001a905350808061016990610a14565b91505061010e565b5060005b82518110156101f9576101a4838281518110610194576101936109ac565b5b602001015160f81c60f81b6102d4565b8282815181106101b7576101b66109ac565b5b60200101907effffffffffffffffffffffffffffffffffffffffffffffffffffffffffffff1916908160001a90535080806101f190610a14565b915050610175565b5060006009905060005b60038112156102ca57818061021790610a14565b9250506000610226600e61051d565b905060005b81518110156102b557838061023f90610a14565b945050818181518110610255576102546109ac565b5b602001015160f81c60f81b858581518110610273576102726109ac565b5b60200101907effffffffffffffffffffffffffffffffffffffffffffffffffffffffffffff1916908160001a90535080806102ad90610a14565b91505061022b565b505080806102c290610a66565b915050610203565b5081935050505090565b6000603060f81b827effffffffffffffffffffffffffffffffffffffffffffffffffffffffffffff19160361030f57604160f81b9050610518565b603160f81b827effffffffffffffffffffffffffffffffffffffffffffffffffffffffffffff19160361034857604260f81b9050610518565b603260f81b827effffffffffffffffffffffffffffffffffffffffffffffffffffffffffffff19160361038157604360f81b9050610518565b603360f81b827effffffffffffffffffffffffffffffffffffffffffffffffffffffffffffff1916036103ba57604460f81b9050610518565b603460f81b827effffffffffffffffffffffffffffffffffffffffffffffffffffffffffffff1916036103f357604560f81b9050610518565b603560f81b827effffffffffffffffffffffffffffffffffffffffffffffffffffffffffffff19160361042c57604660f81b9050610518565b603660f81b827effffffffffffffffffffffffffffffffffffffffffffffffffffffffffffff19160361046557604760f81b9050610518565b603760f81b827effffffffffffffffffffffffffffffffffffffffffffffffffffffffffffff19160361049e57604860f81b9050610518565b603860f81b827effffffffffffffffffffffffffffffffffffffffffffffffffffffffffffff1916036104d757604960f81b9050610518565b603960f81b827effffffffffffffffffffffffffffffffffffffffffffffffffffffffffffff19160361051057604a60f81b9050610518565b605a60f81b90505b919050565b6060600e821115610563576040517f08c379a000000000000000000000000000000000000000000000000000000000815260040161055a90610afa565b60405180910390fd5b60018210156105a7576040517f08c379a000000000000000000000000000000000000000000000000000000000815260040161059e90610b66565b60405180910390fd5b60008267ffffffffffffffff8111156105c3576105c2610847565b5b6040519080825280601f01601f1916602001820160405280156105f55781602001600182028036833780820191505090505b5090506000603e67ffffffffffffffff81111561061557610614610847565b5b6040519080825280601f01601f1916602001820160405280156106475781602001600182028036833780820191505090505b5090506040518060400160405280601a81526020017f4142434445464748494a4b4c4d4e4f505152535455565758595a000000000000815250905060005b8481101561070f576000610699601a61071a565b90508281815181106106ae576106ad6109ac565b5b602001015160f81c60f81b8483815181106106cc576106cb6109ac565b5b60200101907effffffffffffffffffffffffffffffffffffffffffffffffffffffffffffff1916908160001a90535050808061070790610a14565b915050610685565b508192505050919050565b600080600081548092919061072e90610a14565b91905055508142443360005460405160200161074d9493929190610c21565b6040516020818303038152906040528051906020012060001c6107709190610c9e565b9050919050565b600081519050919050565b600082825260208201905092915050565b60005b838110156107b1578082015181840152602081019050610796565b60008484015250505050565b6000601f19601f8301169050919050565b60006107d982610777565b6107e38185610782565b93506107f3818560208601610793565b6107fc816107bd565b840191505092915050565b6000602082019050818103600083015261082181846107ce565b905092915050565b6000604051905090565b600080fd5b600080fd5b600080fd5b600080fd5b7f4e487b7100000000000000000000000000000000000000000000000000000000600052604160045260246000fd5b61087f826107bd565b810181811067ffffffffffffffff8211171561089e5761089d610847565b5b80604052505050565b60006108b1610829565b90506108bd8282610876565b919050565b600067ffffffffffffffff8211156108dd576108dc610847565b5b6108e6826107bd565b9050602081019050919050565b6000610906610901846108c2565b6108a7565b90508281526020810184848401111561092257610921610842565b5b61092d848285610793565b509392505050565b600082601f83011261094a5761094961083d565b5b815161095a8482602086016108f3565b91505092915050565b60006020828403121561097957610978610833565b5b600082015167ffffffffffffffff81111561099757610996610838565b5b6109a384828501610935565b91505092915050565b7f4e487b7100000000000000000000000000000000000000000000000000000000600052603260045260246000fd5b7f4e487b7100000000000000000000000000000000000000000000000000000000600052601160045260246000fd5b6000819050919050565b6000610a1f82610a0a565b91507fffffffffffffffffffffffffffffffffffffffffffffffffffffffffffffffff8203610a5157610a506109db565b5b600182019050919050565b6000819050919050565b6000610a7182610a5c565b91507f7fffffffffffffffffffffffffffffffffffffffffffffffffffffffffffffff8203610aa357610aa26109db565b5b600182019050919050565b7f4c656e6774682063616e6e6f742062652067726561746572207468616e203134600082015250565b6000610ae4602083610782565b9150610aef82610aae565b602082019050919050565b60006020820190508181036000830152610b1381610ad7565b9050919050565b7f4c656e6774682063616e6e6f74206265205a65726f0000000000000000000000600082015250565b6000610b50601583610782565b9150610b5b82610b1a565b602082019050919050565b60006020820190508181036000830152610b7f81610b43565b9050919050565b6000819050919050565b610ba1610b9c82610a0a565b610b86565b82525050565b600073ffffffffffffffffffffffffffffffffffffffff82169050919050565b6000610bd282610ba7565b9050919050565b60008160601b9050919050565b6000610bf182610bd9565b9050919050565b6000610c0382610be6565b9050919050565b610c1b610c1682610bc7565b610bf8565b82525050565b6000610c2d8287610b90565b602082019150610c3d8286610b90565b602082019150610c4d8285610c0a565b601482019150610c5d8284610b90565b60208201915081905095945050505050565b7f4e487b7100000000000000000000000000000000000000000000000000000000600052601260045260246000fd5b6000610ca982610a0a565b9150610cb483610a0a565b925082610cc457610cc3610c6f565b5b82820690509291505056fea26469706673582212207bdc357ee1695190cf07c94e6c96d1730d988b32894881e413887f9a98c0c26864736f6c63430008120033",
			"opcodes": "PUSH1 0x80 PUSH1 0x40 MSTORE PUSH1 0x1 PUSH1 0x0 SSTORE CALLVALUE DUP1 ISZERO PUSH2 0x15 JUMPI PUSH1 0x0 DUP1 REVERT JUMPDEST POP PUSH2 0xD05 DUP1 PUSH2 0x25 PUSH1 0x0 CODECOPY PUSH1 0x0 RETURN INVALID PUSH1 0x80 PUSH1 0x40 MSTORE PUSH1 0x4 CALLDATASIZE LT PUSH2 0x1E JUMPI PUSH1 0x0 CALLDATALOAD PUSH1 0xE0 SHR DUP1 PUSH4 0xA3688546 EQ PUSH2 0x23 JUMPI JUMPDEST PUSH1 0x0 DUP1 REVERT JUMPDEST PUSH2 0x2B PUSH2 0x41 JUMP JUMPDEST PUSH1 0x40 MLOAD PUSH2 0x38 SWAP2 SWAP1 PUSH2 0x807 JUMP JUMPDEST PUSH1 0x40 MLOAD DUP1 SWAP2 SUB SWAP1 RETURN JUMPDEST PUSH1 0x60 PUSH1 0x0 PUSH20 0x0 PUSH4 0xA9A295AD PUSH1 0x40 MLOAD DUP2 PUSH4 0xFFFFFFFF AND PUSH1 0xE0 SHL DUP2 MSTORE PUSH1 0x4 ADD PUSH1 0x0 PUSH1 0x40 MLOAD DUP1 DUP4 SUB DUP2 DUP7 GAS DELEGATECALL ISZERO DUP1 ISZERO PUSH2 0x8E JUMPI RETURNDATASIZE PUSH1 0x0 DUP1 RETURNDATACOPY RETURNDATASIZE PUSH1 0x0 REVERT JUMPDEST POP POP POP POP PUSH1 0x40 MLOAD RETURNDATASIZE PUSH1 0x0 DUP3 RETURNDATACOPY RETURNDATASIZE PUSH1 0x1F NOT PUSH1 0x1F DUP3 ADD AND DUP3 ADD DUP1 PUSH1 0x40 MSTORE POP DUP2 ADD SWAP1 PUSH2 0xB7 SWAP2 SWAP1 PUSH2 0x963 JUMP JUMPDEST SWAP1 POP PUSH1 0x0 PUSH1 0x37 PUSH8 0xFFFFFFFFFFFFFFFF DUP2 GT ISZERO PUSH2 0xD6 JUMPI PUSH2 0xD5 PUSH2 0x847 JUMP JUMPDEST JUMPDEST PUSH1 0x40 MLOAD SWAP1 DUP1 DUP3 MSTORE DUP1 PUSH1 0x1F ADD PUSH1 0x1F NOT AND PUSH1 0x20 ADD DUP3 ADD PUSH1 0x40 MSTORE DUP1 ISZERO PUSH2 0x108 JUMPI DUP2 PUSH1 0x20 ADD PUSH1 0x1 DUP3 MUL DUP1 CALLDATASIZE DUP4 CALLDATACOPY DUP1 DUP3 ADD SWAP2 POP POP SWAP1 POP JUMPDEST POP SWAP1 POP PUSH1 0x0 JUMPDEST DUP2 MLOAD DUP2 LT ISZERO PUSH2 0x171 JUMPI PUSH1 0x5F PUSH1 0xF8 SHL DUP3 DUP3 DUP2 MLOAD DUP2 LT PUSH2 0x12F JUMPI PUSH2 0x12E PUSH2 0x9AC JUMP JUMPDEST JUMPDEST PUSH1 0x20 ADD ADD SWAP1 PUSH31 0xFFFFFFFFFFFFFFFFFFFFFFFFFFFFFFFFFFFFFFFFFFFFFFFFFFFFFFFFFFFFFF NOT AND SWAP1 DUP2 PUSH1 0x0 BYTE SWAP1 MSTORE8 POP DUP1 DUP1 PUSH2 0x169 SWAP1 PUSH2 0xA14 JUMP JUMPDEST SWAP2 POP POP PUSH2 0x10E JUMP JUMPDEST POP PUSH1 0x0 JUMPDEST DUP3 MLOAD DUP2 LT ISZERO PUSH2 0x1F9 JUMPI PUSH2 0x1A4 DUP4 DUP3 DUP2 MLOAD DUP2 LT PUSH2 0x194 JUMPI PUSH2 0x193 PUSH2 0x9AC JUMP JUMPDEST JUMPDEST PUSH1 0x20 ADD ADD MLOAD PUSH1 0xF8 SHR PUSH1 0xF8 SHL PUSH2 0x2D4 JUMP JUMPDEST DUP3 DUP3 DUP2 MLOAD DUP2 LT PUSH2 0x1B7 JUMPI PUSH2 0x1B6 PUSH2 0x9AC JUMP JUMPDEST JUMPDEST PUSH1 0x20 ADD ADD SWAP1 PUSH31 0xFFFFFFFFFFFFFFFFFFFFFFFFFFFFFFFFFFFFFFFFFFFFFFFFFFFFFFFFFFFFFF NOT AND SWAP1 DUP2 PUSH1 0x0 BYTE SWAP1 MSTORE8 POP DUP1 DUP1 PUSH2 0x1F1 SWAP1 PUSH2 0xA14 JUMP JUMPDEST SWAP2 POP POP PUSH2 0x175 JUMP JUMPDEST POP PUSH1 0x0 PUSH1 0x9 SWAP1 POP PUSH1 0x0 JUMPDEST PUSH1 0x3 DUP2 SLT ISZERO PUSH2 0x2CA JUMPI DUP2 DUP1 PUSH2 0x217 SWAP1 PUSH2 0xA14 JUMP JUMPDEST SWAP3 POP POP PUSH1 0x0 PUSH2 0x226 PUSH1 0xE PUSH2 0x51D JUMP JUMPDEST SWAP1 POP PUSH1 0x0 JUMPDEST DUP2 MLOAD DUP2 LT ISZERO PUSH2 0x2B5 JUMPI DUP4 DUP1 PUSH2 0x23F SWAP1 PUSH2 0xA14 JUMP JUMPDEST SWAP5 POP POP DUP2 DUP2 DUP2 MLOAD DUP2 LT PUSH2 0x255 JUMPI PUSH2 0x254 PUSH2 0x9AC JUMP JUMPDEST JUMPDEST PUSH1 0x20 ADD ADD MLOAD PUSH1 0xF8 SHR PUSH1 0xF8 SHL DUP6 DUP6 DUP2 MLOAD DUP2 LT PUSH2 0x273 JUMPI PUSH2 0x272 PUSH2 0x9AC JUMP JUMPDEST JUMPDEST PUSH1 0x20 ADD ADD SWAP1 PUSH31 0xFFFFFFFFFFFFFFFFFFFFFFFFFFFFFFFFFFFFFFFFFFFFFFFFFFFFFFFFFFFFFF NOT AND SWAP1 DUP2 PUSH1 0x0 BYTE SWAP1 MSTORE8 POP DUP1 DUP1 PUSH2 0x2AD SWAP1 PUSH2 0xA14 JUMP JUMPDEST SWAP2 POP POP PUSH2 0x22B JUMP JUMPDEST POP POP DUP1 DUP1 PUSH2 0x2C2 SWAP1 PUSH2 0xA66 JUMP JUMPDEST SWAP2 POP POP PUSH2 0x203 JUMP JUMPDEST POP DUP2 SWAP4 POP POP POP POP SWAP1 JUMP JUMPDEST PUSH1 0x0 PUSH1 0x30 PUSH1 0xF8 SHL DUP3 PUSH31 0xFFFFFFFFFFFFFFFFFFFFFFFFFFFFFFFFFFFFFFFFFFFFFFFFFFFFFFFFFFFFFF NOT AND SUB PUSH2 0x30F JUMPI PUSH1 0x41 PUSH1 0xF8 SHL SWAP1 POP PUSH2 0x518 JUMP JUMPDEST PUSH1 0x31 PUSH1 0xF8 SHL DUP3 PUSH31 0xFFFFFFFFFFFFFFFFFFFFFFFFFFFFFFFFFFFFFFFFFFFFFFFFFFFFFFFFFFFFFF NOT AND SUB PUSH2 0x348 JUMPI PUSH1 0x42 PUSH1 0xF8 SHL SWAP1 POP PUSH2 0x518 JUMP JUMPDEST PUSH1 0x32 PUSH1 0xF8 SHL DUP3 PUSH31 0xFFFFFFFFFFFFFFFFFFFFFFFFFFFFFFFFFFFFFFFFFFFFFFFFFFFFFFFFFFFFFF NOT AND SUB PUSH2 0x381 JUMPI PUSH1 0x43 PUSH1 0xF8 SHL SWAP1 POP PUSH2 0x518 JUMP JUMPDEST PUSH1 0x33 PUSH1 0xF8 SHL DUP3 PUSH31 0xFFFFFFFFFFFFFFFFFFFFFFFFFFFFFFFFFFFFFFFFFFFFFFFFFFFFFFFFFFFFFF NOT AND SUB PUSH2 0x3BA JUMPI PUSH1 0x44 PUSH1 0xF8 SHL SWAP1 POP PUSH2 0x518 JUMP JUMPDEST PUSH1 0x34 PUSH1 0xF8 SHL DUP3 PUSH31 0xFFFFFFFFFFFFFFFFFFFFFFFFFFFFFFFFFFFFFFFFFFFFFFFFFFFFFFFFFFFFFF NOT AND SUB PUSH2 0x3F3 JUMPI PUSH1 0x45 PUSH1 0xF8 SHL SWAP1 POP PUSH2 0x518 JUMP JUMPDEST PUSH1 0x35 PUSH1 0xF8 SHL DUP3 PUSH31 0xFFFFFFFFFFFFFFFFFFFFFFFFFFFFFFFFFFFFFFFFFFFFFFFFFFFFFFFFFFFFFF NOT AND SUB PUSH2 0x42C JUMPI PUSH1 0x46 PUSH1 0xF8 SHL SWAP1 POP PUSH2 0x518 JUMP JUMPDEST PUSH1 0x36 PUSH1 0xF8 SHL DUP3 PUSH31 0xFFFFFFFFFFFFFFFFFFFFFFFFFFFFFFFFFFFFFFFFFFFFFFFFFFFFFFFFFFFFFF NOT AND SUB PUSH2 0x465 JUMPI PUSH1 0x47 PUSH1 0xF8 SHL SWAP1 POP PUSH2 0x518 JUMP JUMPDEST PUSH1 0x37 PUSH1 0xF8 SHL DUP3 PUSH31 0xFFFFFFFFFFFFFFFFFFFFFFFFFFFFFFFFFFFFFFFFFFFFFFFFFFFFFFFFFFFFFF NOT AND SUB PUSH2 0x49E JUMPI PUSH1 0x48 PUSH1 0xF8 SHL SWAP1 POP PUSH2 0x518 JUMP JUMPDEST PUSH1 0x38 PUSH1 0xF8 SHL DUP3 PUSH31 0xFFFFFFFFFFFFFFFFFFFFFFFFFFFFFFFFFFFFFFFFFFFFFFFFFFFFFFFFFFFFFF NOT AND SUB PUSH2 0x4D7 JUMPI PUSH1 0x49 PUSH1 0xF8 SHL SWAP1 POP PUSH2 0x518 JUMP JUMPDEST PUSH1 0x39 PUSH1 0xF8 SHL DUP3 PUSH31 0xFFFFFFFFFFFFFFFFFFFFFFFFFFFFFFFFFFFFFFFFFFFFFFFFFFFFFFFFFFFFFF NOT AND SUB PUSH2 0x510 JUMPI PUSH1 0x4A PUSH1 0xF8 SHL SWAP1 POP PUSH2 0x518 JUMP JUMPDEST PUSH1 0x5A PUSH1 0xF8 SHL SWAP1 POP JUMPDEST SWAP2 SWAP1 POP JUMP JUMPDEST PUSH1 0x60 PUSH1 0xE DUP3 GT ISZERO PUSH2 0x563 JUMPI PUSH1 0x40 MLOAD PUSH32 0x8C379A000000000000000000000000000000000000000000000000000000000 DUP2 MSTORE PUSH1 0x4 ADD PUSH2 0x55A SWAP1 PUSH2 0xAFA JUMP JUMPDEST PUSH1 0x40 MLOAD DUP1 SWAP2 SUB SWAP1 REVERT JUMPDEST PUSH1 0x1 DUP3 LT ISZERO PUSH2 0x5A7 JUMPI PUSH1 0x40 MLOAD PUSH32 0x8C379A000000000000000000000000000000000000000000000000000000000 DUP2 MSTORE PUSH1 0x4 ADD PUSH2 0x59E SWAP1 PUSH2 0xB66 JUMP JUMPDEST PUSH1 0x40 MLOAD DUP1 SWAP2 SUB SWAP1 REVERT JUMPDEST PUSH1 0x0 DUP3 PUSH8 0xFFFFFFFFFFFFFFFF DUP2 GT ISZERO PUSH2 0x5C3 JUMPI PUSH2 0x5C2 PUSH2 0x847 JUMP JUMPDEST JUMPDEST PUSH1 0x40 MLOAD SWAP1 DUP1 DUP3 MSTORE DUP1 PUSH1 0x1F ADD PUSH1 0x1F NOT AND PUSH1 0x20 ADD DUP3 ADD PUSH1 0x40 MSTORE DUP1 ISZERO PUSH2 0x5F5 JUMPI DUP2 PUSH1 0x20 ADD PUSH1 0x1 DUP3 MUL DUP1 CALLDATASIZE DUP4 CALLDATACOPY DUP1 DUP3 ADD SWAP2 POP POP SWAP1 POP JUMPDEST POP SWAP1 POP PUSH1 0x0 PUSH1 0x3E PUSH8 0xFFFFFFFFFFFFFFFF DUP2 GT ISZERO PUSH2 0x615 JUMPI PUSH2 0x614 PUSH2 0x847 JUMP JUMPDEST JUMPDEST PUSH1 0x40 MLOAD SWAP1 DUP1 DUP3 MSTORE DUP1 PUSH1 0x1F ADD PUSH1 0x1F NOT AND PUSH1 0x20 ADD DUP3 ADD PUSH1 0x40 MSTORE DUP1 ISZERO PUSH2 0x647 JUMPI DUP2 PUSH1 0x20 ADD PUSH1 0x1 DUP3 MUL DUP1 CALLDATASIZE DUP4 CALLDATACOPY DUP1 DUP3 ADD SWAP2 POP POP SWAP1 POP JUMPDEST POP SWAP1 POP PUSH1 0x40 MLOAD DUP1 PUSH1 0x40 ADD PUSH1 0x40 MSTORE DUP1 PUSH1 0x1A DUP2 MSTORE PUSH1 0x20 ADD PUSH32 0x4142434445464748494A4B4C4D4E4F505152535455565758595A000000000000 DUP2 MSTORE POP SWAP1 POP PUSH1 0x0 JUMPDEST DUP5 DUP2 LT ISZERO PUSH2 0x70F JUMPI PUSH1 0x0 PUSH2 0x699 PUSH1 0x1A PUSH2 0x71A JUMP JUMPDEST SWAP1 POP DUP3 DUP2 DUP2 MLOAD DUP2 LT PUSH2 0x6AE JUMPI PUSH2 0x6AD PUSH2 0x9AC JUMP JUMPDEST JUMPDEST PUSH1 0x20 ADD ADD MLOAD PUSH1 0xF8 SHR PUSH1 0xF8 SHL DUP5 DUP4 DUP2 MLOAD DUP2 LT PUSH2 0x6CC JUMPI PUSH2 0x6CB PUSH2 0x9AC JUMP JUMPDEST JUMPDEST PUSH1 0x20 ADD ADD SWAP1 PUSH31 0xFFFFFFFFFFFFFFFFFFFFFFFFFFFFFFFFFFFFFFFFFFFFFFFFFFFFFFFFFFFFFF NOT AND SWAP1 DUP2 PUSH1 0x0 BYTE SWAP1 MSTORE8 POP POP DUP1 DUP1 PUSH2 0x707 SWAP1 PUSH2 0xA14 JUMP JUMPDEST SWAP2 POP POP PUSH2 0x685 JUMP JUMPDEST POP DUP2 SWAP3 POP POP POP SWAP2 SWAP1 POP JUMP JUMPDEST PUSH1 0x0 DUP1 PUSH1 0x0 DUP2 SLOAD DUP1 SWAP3 SWAP2 SWAP1 PUSH2 0x72E SWAP1 PUSH2 0xA14 JUMP JUMPDEST SWAP2 SWAP1 POP SSTORE POP DUP2 TIMESTAMP PREVRANDAO CALLER PUSH1 0x0 SLOAD PUSH1 0x40 MLOAD PUSH1 0x20 ADD PUSH2 0x74D SWAP5 SWAP4 SWAP3 SWAP2 SWAP1 PUSH2 0xC21 JUMP JUMPDEST PUSH1 0x40 MLOAD PUSH1 0x20 DUP2 DUP4 SUB SUB DUP2 MSTORE SWAP1 PUSH1 0x40 MSTORE DUP1 MLOAD SWAP1 PUSH1 0x20 ADD KECCAK256 PUSH1 0x0 SHR PUSH2 0x770 SWAP2 SWAP1 PUSH2 0xC9E JUMP JUMPDEST SWAP1 POP SWAP2 SWAP1 POP JUMP JUMPDEST PUSH1 0x0 DUP2 MLOAD SWAP1 POP SWAP2 SWAP1 POP JUMP JUMPDEST PUSH1 0x0 DUP3 DUP3 MSTORE PUSH1 0x20 DUP3 ADD SWAP1 POP SWAP3 SWAP2 POP POP JUMP JUMPDEST PUSH1 0x0 JUMPDEST DUP4 DUP2 LT ISZERO PUSH2 0x7B1 JUMPI DUP1 DUP3 ADD MLOAD DUP2 DUP5 ADD MSTORE PUSH1 0x20 DUP2 ADD SWAP1 POP PUSH2 0x796 JUMP JUMPDEST PUSH1 0x0 DUP5 DUP5 ADD MSTORE POP POP POP POP JUMP JUMPDEST PUSH1 0x0 PUSH1 0x1F NOT PUSH1 0x1F DUP4 ADD AND SWAP1 POP SWAP2 SWAP1 POP JUMP JUMPDEST PUSH1 0x0 PUSH2 0x7D9 DUP3 PUSH2 0x777 JUMP JUMPDEST PUSH2 0x7E3 DUP2 DUP6 PUSH2 0x782 JUMP JUMPDEST SWAP4 POP PUSH2 0x7F3 DUP2 DUP6 PUSH1 0x20 DUP7 ADD PUSH2 0x793 JUMP JUMPDEST PUSH2 0x7FC DUP2 PUSH2 0x7BD JUMP JUMPDEST DUP5 ADD SWAP2 POP POP SWAP3 SWAP2 POP POP JUMP JUMPDEST PUSH1 0x0 PUSH1 0x20 DUP3 ADD SWAP1 POP DUP2 DUP2 SUB PUSH1 0x0 DUP4 ADD MSTORE PUSH2 0x821 DUP2 DUP5 PUSH2 0x7CE JUMP JUMPDEST SWAP1 POP SWAP3 SWAP2 POP POP JUMP JUMPDEST PUSH1 0x0 PUSH1 0x40 MLOAD SWAP1 POP SWAP1 JUMP JUMPDEST PUSH1 0x0 DUP1 REVERT JUMPDEST PUSH1 0x0 DUP1 REVERT JUMPDEST PUSH1 0x0 DUP1 REVERT JUMPDEST PUSH1 0x0 DUP1 REVERT JUMPDEST PUSH32 0x4E487B7100000000000000000000000000000000000000000000000000000000 PUSH1 0x0 MSTORE PUSH1 0x41 PUSH1 0x4 MSTORE PUSH1 0x24 PUSH1 0x0 REVERT JUMPDEST PUSH2 0x87F DUP3 PUSH2 0x7BD JUMP JUMPDEST DUP2 ADD DUP2 DUP2 LT PUSH8 0xFFFFFFFFFFFFFFFF DUP3 GT OR ISZERO PUSH2 0x89E JUMPI PUSH2 0x89D PUSH2 0x847 JUMP JUMPDEST JUMPDEST DUP1 PUSH1 0x40 MSTORE POP POP POP JUMP JUMPDEST PUSH1 0x0 PUSH2 0x8B1 PUSH2 0x829 JUMP JUMPDEST SWAP1 POP PUSH2 0x8BD DUP3 DUP3 PUSH2 0x876 JUMP JUMPDEST SWAP2 SWAP1 POP JUMP JUMPDEST PUSH1 0x0 PUSH8 0xFFFFFFFFFFFFFFFF DUP3 GT ISZERO PUSH2 0x8DD JUMPI PUSH2 0x8DC PUSH2 0x847 JUMP JUMPDEST JUMPDEST PUSH2 0x8E6 DUP3 PUSH2 0x7BD JUMP JUMPDEST SWAP1 POP PUSH1 0x20 DUP2 ADD SWAP1 POP SWAP2 SWAP1 POP JUMP JUMPDEST PUSH1 0x0 PUSH2 0x906 PUSH2 0x901 DUP5 PUSH2 0x8C2 JUMP JUMPDEST PUSH2 0x8A7 JUMP JUMPDEST SWAP1 POP DUP3 DUP2 MSTORE PUSH1 0x20 DUP2 ADD DUP5 DUP5 DUP5 ADD GT ISZERO PUSH2 0x922 JUMPI PUSH2 0x921 PUSH2 0x842 JUMP JUMPDEST JUMPDEST PUSH2 0x92D DUP5 DUP3 DUP6 PUSH2 0x793 JUMP JUMPDEST POP SWAP4 SWAP3 POP POP POP JUMP JUMPDEST PUSH1 0x0 DUP3 PUSH1 0x1F DUP4 ADD SLT PUSH2 0x94A JUMPI PUSH2 0x949 PUSH2 0x83D JUMP JUMPDEST JUMPDEST DUP2 MLOAD PUSH2 0x95A DUP5 DUP3 PUSH1 0x20 DUP7 ADD PUSH2 0x8F3 JUMP JUMPDEST SWAP2 POP POP SWAP3 SWAP2 POP POP JUMP JUMPDEST PUSH1 0x0 PUSH1 0x20 DUP3 DUP5 SUB SLT ISZERO PUSH2 0x979 JUMPI PUSH2 0x978 PUSH2 0x833 JUMP JUMPDEST JUMPDEST PUSH1 0x0 DUP3 ADD MLOAD PUSH8 0xFFFFFFFFFFFFFFFF DUP2 GT ISZERO PUSH2 0x997 JUMPI PUSH2 0x996 PUSH2 0x838 JUMP JUMPDEST JUMPDEST PUSH2 0x9A3 DUP5 DUP3 DUP6 ADD PUSH2 0x935 JUMP JUMPDEST SWAP2 POP POP SWAP3 SWAP2 POP POP JUMP JUMPDEST PUSH32 0x4E487B7100000000000000000000000000000000000000000000000000000000 PUSH1 0x0 MSTORE PUSH1 0x32 PUSH1 0x4 MSTORE PUSH1 0x24 PUSH1 0x0 REVERT JUMPDEST PUSH32 0x4E487B7100000000000000000000000000000000000000000000000000000000 PUSH1 0x0 MSTORE PUSH1 0x11 PUSH1 0x4 MSTORE PUSH1 0x24 PUSH1 0x0 REVERT JUMPDEST PUSH1 0x0 DUP2 SWAP1 POP SWAP2 SWAP1 POP JUMP JUMPDEST PUSH1 0x0 PUSH2 0xA1F DUP3 PUSH2 0xA0A JUMP JUMPDEST SWAP2 POP PUSH32 0xFFFFFFFFFFFFFFFFFFFFFFFFFFFFFFFFFFFFFFFFFFFFFFFFFFFFFFFFFFFFFFFF DUP3 SUB PUSH2 0xA51 JUMPI PUSH2 0xA50 PUSH2 0x9DB JUMP JUMPDEST JUMPDEST PUSH1 0x1 DUP3 ADD SWAP1 POP SWAP2 SWAP1 POP JUMP JUMPDEST PUSH1 0x0 DUP2 SWAP1 POP SWAP2 SWAP1 POP JUMP JUMPDEST PUSH1 0x0 PUSH2 0xA71 DUP3 PUSH2 0xA5C JUMP JUMPDEST SWAP2 POP PUSH32 0x7FFFFFFFFFFFFFFFFFFFFFFFFFFFFFFFFFFFFFFFFFFFFFFFFFFFFFFFFFFFFFFF DUP3 SUB PUSH2 0xAA3 JUMPI PUSH2 0xAA2 PUSH2 0x9DB JUMP JUMPDEST JUMPDEST PUSH1 0x1 DUP3 ADD SWAP1 POP SWAP2 SWAP1 POP JUMP JUMPDEST PUSH32 0x4C656E6774682063616E6E6F742062652067726561746572207468616E203134 PUSH1 0x0 DUP3 ADD MSTORE POP JUMP JUMPDEST PUSH1 0x0 PUSH2 0xAE4 PUSH1 0x20 DUP4 PUSH2 0x782 JUMP JUMPDEST SWAP2 POP PUSH2 0xAEF DUP3 PUSH2 0xAAE JUMP JUMPDEST PUSH1 0x20 DUP3 ADD SWAP1 POP SWAP2 SWAP1 POP JUMP JUMPDEST PUSH1 0x0 PUSH1 0x20 DUP3 ADD SWAP1 POP DUP2 DUP2 SUB PUSH1 0x0 DUP4 ADD MSTORE PUSH2 0xB13 DUP2 PUSH2 0xAD7 JUMP JUMPDEST SWAP1 POP SWAP2 SWAP1 POP JUMP JUMPDEST PUSH32 0x4C656E6774682063616E6E6F74206265205A65726F0000000000000000000000 PUSH1 0x0 DUP3 ADD MSTORE POP JUMP JUMPDEST PUSH1 0x0 PUSH2 0xB50 PUSH1 0x15 DUP4 PUSH2 0x782 JUMP JUMPDEST SWAP2 POP PUSH2 0xB5B DUP3 PUSH2 0xB1A JUMP JUMPDEST PUSH1 0x20 DUP3 ADD SWAP1 POP SWAP2 SWAP1 POP JUMP JUMPDEST PUSH1 0x0 PUSH1 0x20 DUP3 ADD SWAP1 POP DUP2 DUP2 SUB PUSH1 0x0 DUP4 ADD MSTORE PUSH2 0xB7F DUP2 PUSH2 0xB43 JUMP JUMPDEST SWAP1 POP SWAP2 SWAP1 POP JUMP JUMPDEST PUSH1 0x0 DUP2 SWAP1 POP SWAP2 SWAP1 POP JUMP JUMPDEST PUSH2 0xBA1 PUSH2 0xB9C DUP3 PUSH2 0xA0A JUMP JUMPDEST PUSH2 0xB86 JUMP JUMPDEST DUP3 MSTORE POP POP JUMP JUMPDEST PUSH1 0x0 PUSH20 0xFFFFFFFFFFFFFFFFFFFFFFFFFFFFFFFFFFFFFFFF DUP3 AND SWAP1 POP SWAP2 SWAP1 POP JUMP JUMPDEST PUSH1 0x0 PUSH2 0xBD2 DUP3 PUSH2 0xBA7 JUMP JUMPDEST SWAP1 POP SWAP2 SWAP1 POP JUMP JUMPDEST PUSH1 0x0 DUP2 PUSH1 0x60 SHL SWAP1 POP SWAP2 SWAP1 POP JUMP JUMPDEST PUSH1 0x0 PUSH2 0xBF1 DUP3 PUSH2 0xBD9 JUMP JUMPDEST SWAP1 POP SWAP2 SWAP1 POP JUMP JUMPDEST PUSH1 0x0 PUSH2 0xC03 DUP3 PUSH2 0xBE6 JUMP JUMPDEST SWAP1 POP SWAP2 SWAP1 POP JUMP JUMPDEST PUSH2 0xC1B PUSH2 0xC16 DUP3 PUSH2 0xBC7 JUMP JUMPDEST PUSH2 0xBF8 JUMP JUMPDEST DUP3 MSTORE POP POP JUMP JUMPDEST PUSH1 0x0 PUSH2 0xC2D DUP3 DUP8 PUSH2 0xB90 JUMP JUMPDEST PUSH1 0x20 DUP3 ADD SWAP2 POP PUSH2 0xC3D DUP3 DUP7 PUSH2 0xB90 JUMP JUMPDEST PUSH1 0x20 DUP3 ADD SWAP2 POP PUSH2 0xC4D DUP3 DUP6 PUSH2 0xC0A JUMP JUMPDEST PUSH1 0x14 DUP3 ADD SWAP2 POP PUSH2 0xC5D DUP3 DUP5 PUSH2 0xB90 JUMP JUMPDEST PUSH1 0x20 DUP3 ADD SWAP2 POP DUP2 SWAP1 POP SWAP6 SWAP5 POP POP POP POP POP JUMP JUMPDEST PUSH32 0x4E487B7100000000000000000000000000000000000000000000000000000000 PUSH1 0x0 MSTORE PUSH1 0x12 PUSH1 0x4 MSTORE PUSH1 0x24 PUSH1 0x0 REVERT JUMPDEST PUSH1 0x0 PUSH2 0xCA9 DUP3 PUSH2 0xA0A JUMP JUMPDEST SWAP2 POP PUSH2 0xCB4 DUP4 PUSH2 0xA0A JUMP JUMPDEST SWAP3 POP DUP3 PUSH2 0xCC4 JUMPI PUSH2 0xCC3 PUSH2 0xC6F JUMP JUMPDEST JUMPDEST DUP3 DUP3 MOD SWAP1 POP SWAP3 SWAP2 POP POP JUMP INVALID LOG2 PUSH5 0x6970667358 0x22 SLT KECCAK256 PUSH28 0xDC357EE1695190CF07C94E6C96D1730D988B32894881E413887F9A98 0xC0 0xC2 PUSH9 0x64736F6C6343000812 STOP CALLER "
		},
		"gasEstimates": {
			"creation": {
				"codeDepositCost": "666600",
				"executionCost": "22808",
				"totalCost": "689408"
			},
			"external": {
				"uniqId()": "infinite"
			},
			"internal": {
				"fixUChar(bytes1)": "425",
				"random(uint256)": "infinite",
				"randomString(uint256)": "infinite"
			}
		},
		"methodIdentifiers": {
			"uniqId()": "a3688546"
		}
	},
	"abi": [
		{
			"inputs": [],
			"name": "uniqId",
			"outputs": [
				{
					"internalType": "string",
					"name": "",
					"type": "string"
				}
			],
			"stateMutability": "payable",
			"type": "function"
		}
	]
}