{
	"data": {
		"bytecode": {
			"linkReferences": {
				"Business Contract/BusinessHelper/IDT.sol": {
					"IDT": [
						{
							"length": 20,
							"start": 723
						}
					]
				}
			},
			"object": "608060405260015f55348015610013575f80fd5b50610dae806100215f395ff3fe608060405260043610610033575f3560e01c80635bf9d6de14610037578063a368854614610067578063b863bd3714610085575b5f80fd5b610051600480360381019061004c9190610816565b6100b5565b60405161005e91906108cb565b60405180910390f35b61006f6102ad565b60405161007c91906108cb565b60405180910390f35b61009f600480360381019061009a9190610816565b610531565b6040516100ac91906108fa565b60405180910390f35b6060600e8211156100fb576040517f08c379a00000000000000000000000000000000000000000000000000000000081526004016100f29061095d565b60405180910390fd5b600182101561013f576040517f08c379a0000000000000000000000000000000000000000000000000000000008152600401610136906109c5565b60405180910390fd5b5f8267ffffffffffffffff81111561015a576101596109e3565b5b6040519080825280601f01601f19166020018201604052801561018c5781602001600182028036833780820191505090505b5090505f603e67ffffffffffffffff8111156101ab576101aa6109e3565b5b6040519080825280601f01601f1916602001820160405280156101dd5781602001600182028036833780820191505090505b5090506040518060400160405280601a81526020017f4142434445464748494a4b4c4d4e4f505152535455565758595a00000000000081525090505f5b848110156102a2575f61022d601a610531565b905082818151811061024257610241610a10565b5b602001015160f81c60f81b8483815181106102605761025f610a10565b5b60200101907effffffffffffffffffffffffffffffffffffffffffffffffffffffffffffff191690815f1a90535050808061029a90610a6a565b91505061021a565b508192505050919050565b60605f73__$760abda064cc27e26728ab6d884da85fb6$__63a9a295ad6040518163ffffffff1660e01b81526004015f60405180830381865af41580156102f6573d5f803e3d5ffd5b505050506040513d5f823e3d601f19601f8201168201806040525081019061031e9190610ba2565b90505f603767ffffffffffffffff81111561033c5761033b6109e3565b5b6040519080825280601f01601f19166020018201604052801561036e5781602001600182028036833780820191505090505b5090505f5b81518110156103d557605f60f81b82828151811061039457610393610a10565b5b60200101907effffffffffffffffffffffffffffffffffffffffffffffffffffffffffffff191690815f1a90535080806103cd90610a6a565b915050610373565b505f5b825181101561045b576104078382815181106103f7576103f6610a10565b5b602001015160f81c60f81b61058a565b82828151811061041a57610419610a10565b5b60200101907effffffffffffffffffffffffffffffffffffffffffffffffffffffffffffff191690815f1a905350808061045390610a6a565b9150506103d8565b505f600990505f5b600381121561052757818061047790610a6a565b9250505f610485600e6100b5565b90505f5b815181101561051257838061049d90610a6a565b9450508181815181106104b3576104b2610a10565b5b602001015160f81c60f81b8585815181106104d1576104d0610a10565b5b60200101907effffffffffffffffffffffffffffffffffffffffffffffffffffffffffffff191690815f1a905350808061050a90610a6a565b915050610489565b5050808061051f90610bf2565b915050610463565b5081935050505090565b5f805f81548092919061054390610a6a565b9190505550814244335f546040516020016105619493929190610cce565b604051602081830303815290604052805190602001205f1c6105839190610d48565b9050919050565b5f603060f81b827effffffffffffffffffffffffffffffffffffffffffffffffffffffffffffff1916036105c457604160f81b90506107cd565b603160f81b827effffffffffffffffffffffffffffffffffffffffffffffffffffffffffffff1916036105fd57604260f81b90506107cd565b603260f81b827effffffffffffffffffffffffffffffffffffffffffffffffffffffffffffff19160361063657604360f81b90506107cd565b603360f81b827effffffffffffffffffffffffffffffffffffffffffffffffffffffffffffff19160361066f57604460f81b90506107cd565b603460f81b827effffffffffffffffffffffffffffffffffffffffffffffffffffffffffffff1916036106a857604560f81b90506107cd565b603560f81b827effffffffffffffffffffffffffffffffffffffffffffffffffffffffffffff1916036106e157604660f81b90506107cd565b603660f81b827effffffffffffffffffffffffffffffffffffffffffffffffffffffffffffff19160361071a57604760f81b90506107cd565b603760f81b827effffffffffffffffffffffffffffffffffffffffffffffffffffffffffffff19160361075357604860f81b90506107cd565b603860f81b827effffffffffffffffffffffffffffffffffffffffffffffffffffffffffffff19160361078c57604960f81b90506107cd565b603960f81b827effffffffffffffffffffffffffffffffffffffffffffffffffffffffffffff1916036107c557604a60f81b90506107cd565b605a60f81b90505b919050565b5f604051905090565b5f80fd5b5f80fd5b5f819050919050565b6107f5816107e3565b81146107ff575f80fd5b50565b5f81359050610810816107ec565b92915050565b5f6020828403121561082b5761082a6107db565b5b5f61083884828501610802565b91505092915050565b5f81519050919050565b5f82825260208201905092915050565b5f5b8381101561087857808201518184015260208101905061085d565b5f8484015250505050565b5f601f19601f8301169050919050565b5f61089d82610841565b6108a7818561084b565b93506108b781856020860161085b565b6108c081610883565b840191505092915050565b5f6020820190508181035f8301526108e38184610893565b905092915050565b6108f4816107e3565b82525050565b5f60208201905061090d5f8301846108eb565b92915050565b7f4c656e6774682063616e6e6f742062652067726561746572207468616e2031345f82015250565b5f61094760208361084b565b915061095282610913565b602082019050919050565b5f6020820190508181035f8301526109748161093b565b9050919050565b7f4c656e6774682063616e6e6f74206265205a65726f00000000000000000000005f82015250565b5f6109af60158361084b565b91506109ba8261097b565b602082019050919050565b5f6020820190508181035f8301526109dc816109a3565b9050919050565b7f4e487b71000000000000000000000000000000000000000000000000000000005f52604160045260245ffd5b7f4e487b71000000000000000000000000000000000000000000000000000000005f52603260045260245ffd5b7f4e487b71000000000000000000000000000000000000000000000000000000005f52601160045260245ffd5b5f610a74826107e3565b91507fffffffffffffffffffffffffffffffffffffffffffffffffffffffffffffffff8203610aa657610aa5610a3d565b5b600182019050919050565b5f80fd5b5f80fd5b610ac282610883565b810181811067ffffffffffffffff82111715610ae157610ae06109e3565b5b80604052505050565b5f610af36107d2565b9050610aff8282610ab9565b919050565b5f67ffffffffffffffff821115610b1e57610b1d6109e3565b5b610b2782610883565b9050602081019050919050565b5f610b46610b4184610b04565b610aea565b905082815260208101848484011115610b6257610b61610ab5565b5b610b6d84828561085b565b509392505050565b5f82601f830112610b8957610b88610ab1565b5b8151610b99848260208601610b34565b91505092915050565b5f60208284031215610bb757610bb66107db565b5b5f82015167ffffffffffffffff811115610bd457610bd36107df565b5b610be084828501610b75565b91505092915050565b5f819050919050565b5f610bfc82610be9565b91507f7fffffffffffffffffffffffffffffffffffffffffffffffffffffffffffffff8203610c2e57610c2d610a3d565b5b600182019050919050565b5f819050919050565b610c53610c4e826107e3565b610c39565b82525050565b5f73ffffffffffffffffffffffffffffffffffffffff82169050919050565b5f610c8282610c59565b9050919050565b5f8160601b9050919050565b5f610c9f82610c89565b9050919050565b5f610cb082610c95565b9050919050565b610cc8610cc382610c78565b610ca6565b82525050565b5f610cd98287610c42565b602082019150610ce98286610c42565b602082019150610cf98285610cb7565b601482019150610d098284610c42565b60208201915081905095945050505050565b7f4e487b71000000000000000000000000000000000000000000000000000000005f52601260045260245ffd5b5f610d52826107e3565b9150610d5d836107e3565b925082610d6d57610d6c610d1b565b5b82820690509291505056fea2646970667358221220d63f045a9efc24e331277345cbc56ef76c7b21f3c5363e7d7b8aa1a8ea29d57f64736f6c63430008140033",
			"opcodes": "PUSH1 0x80 PUSH1 0x40 MSTORE PUSH1 0x1 PUSH0 SSTORE CALLVALUE DUP1 ISZERO PUSH2 0x13 JUMPI PUSH0 DUP1 REVERT JUMPDEST POP PUSH2 0xDAE DUP1 PUSH2 0x21 PUSH0 CODECOPY PUSH0 RETURN INVALID PUSH1 0x80 PUSH1 0x40 MSTORE PUSH1 0x4 CALLDATASIZE LT PUSH2 0x33 JUMPI PUSH0 CALLDATALOAD PUSH1 0xE0 SHR DUP1 PUSH4 0x5BF9D6DE EQ PUSH2 0x37 JUMPI DUP1 PUSH4 0xA3688546 EQ PUSH2 0x67 JUMPI DUP1 PUSH4 0xB863BD37 EQ PUSH2 0x85 JUMPI JUMPDEST PUSH0 DUP1 REVERT JUMPDEST PUSH2 0x51 PUSH1 0x4 DUP1 CALLDATASIZE SUB DUP2 ADD SWAP1 PUSH2 0x4C SWAP2 SWAP1 PUSH2 0x816 JUMP JUMPDEST PUSH2 0xB5 JUMP JUMPDEST PUSH1 0x40 MLOAD PUSH2 0x5E SWAP2 SWAP1 PUSH2 0x8CB JUMP JUMPDEST PUSH1 0x40 MLOAD DUP1 SWAP2 SUB SWAP1 RETURN JUMPDEST PUSH2 0x6F PUSH2 0x2AD JUMP JUMPDEST PUSH1 0x40 MLOAD PUSH2 0x7C SWAP2 SWAP1 PUSH2 0x8CB JUMP JUMPDEST PUSH1 0x40 MLOAD DUP1 SWAP2 SUB SWAP1 RETURN JUMPDEST PUSH2 0x9F PUSH1 0x4 DUP1 CALLDATASIZE SUB DUP2 ADD SWAP1 PUSH2 0x9A SWAP2 SWAP1 PUSH2 0x816 JUMP JUMPDEST PUSH2 0x531 JUMP JUMPDEST PUSH1 0x40 MLOAD PUSH2 0xAC SWAP2 SWAP1 PUSH2 0x8FA JUMP JUMPDEST PUSH1 0x40 MLOAD DUP1 SWAP2 SUB SWAP1 RETURN JUMPDEST PUSH1 0x60 PUSH1 0xE DUP3 GT ISZERO PUSH2 0xFB JUMPI PUSH1 0x40 MLOAD PUSH32 0x8C379A000000000000000000000000000000000000000000000000000000000 DUP2 MSTORE PUSH1 0x4 ADD PUSH2 0xF2 SWAP1 PUSH2 0x95D JUMP JUMPDEST PUSH1 0x40 MLOAD DUP1 SWAP2 SUB SWAP1 REVERT JUMPDEST PUSH1 0x1 DUP3 LT ISZERO PUSH2 0x13F JUMPI PUSH1 0x40 MLOAD PUSH32 0x8C379A000000000000000000000000000000000000000000000000000000000 DUP2 MSTORE PUSH1 0x4 ADD PUSH2 0x136 SWAP1 PUSH2 0x9C5 JUMP JUMPDEST PUSH1 0x40 MLOAD DUP1 SWAP2 SUB SWAP1 REVERT JUMPDEST PUSH0 DUP3 PUSH8 0xFFFFFFFFFFFFFFFF DUP2 GT ISZERO PUSH2 0x15A JUMPI PUSH2 0x159 PUSH2 0x9E3 JUMP JUMPDEST JUMPDEST PUSH1 0x40 MLOAD SWAP1 DUP1 DUP3 MSTORE DUP1 PUSH1 0x1F ADD PUSH1 0x1F NOT AND PUSH1 0x20 ADD DUP3 ADD PUSH1 0x40 MSTORE DUP1 ISZERO PUSH2 0x18C JUMPI DUP2 PUSH1 0x20 ADD PUSH1 0x1 DUP3 MUL DUP1 CALLDATASIZE DUP4 CALLDATACOPY DUP1 DUP3 ADD SWAP2 POP POP SWAP1 POP JUMPDEST POP SWAP1 POP PUSH0 PUSH1 0x3E PUSH8 0xFFFFFFFFFFFFFFFF DUP2 GT ISZERO PUSH2 0x1AB JUMPI PUSH2 0x1AA PUSH2 0x9E3 JUMP JUMPDEST JUMPDEST PUSH1 0x40 MLOAD SWAP1 DUP1 DUP3 MSTORE DUP1 PUSH1 0x1F ADD PUSH1 0x1F NOT AND PUSH1 0x20 ADD DUP3 ADD PUSH1 0x40 MSTORE DUP1 ISZERO PUSH2 0x1DD JUMPI DUP2 PUSH1 0x20 ADD PUSH1 0x1 DUP3 MUL DUP1 CALLDATASIZE DUP4 CALLDATACOPY DUP1 DUP3 ADD SWAP2 POP POP SWAP1 POP JUMPDEST POP SWAP1 POP PUSH1 0x40 MLOAD DUP1 PUSH1 0x40 ADD PUSH1 0x40 MSTORE DUP1 PUSH1 0x1A DUP2 MSTORE PUSH1 0x20 ADD PUSH32 0x4142434445464748494A4B4C4D4E4F505152535455565758595A000000000000 DUP2 MSTORE POP SWAP1 POP PUSH0 JUMPDEST DUP5 DUP2 LT ISZERO PUSH2 0x2A2 JUMPI PUSH0 PUSH2 0x22D PUSH1 0x1A PUSH2 0x531 JUMP JUMPDEST SWAP1 POP DUP3 DUP2 DUP2 MLOAD DUP2 LT PUSH2 0x242 JUMPI PUSH2 0x241 PUSH2 0xA10 JUMP JUMPDEST JUMPDEST PUSH1 0x20 ADD ADD MLOAD PUSH1 0xF8 SHR PUSH1 0xF8 SHL DUP5 DUP4 DUP2 MLOAD DUP2 LT PUSH2 0x260 JUMPI PUSH2 0x25F PUSH2 0xA10 JUMP JUMPDEST JUMPDEST PUSH1 0x20 ADD ADD SWAP1 PUSH31 0xFFFFFFFFFFFFFFFFFFFFFFFFFFFFFFFFFFFFFFFFFFFFFFFFFFFFFFFFFFFFFF NOT AND SWAP1 DUP2 PUSH0 BYTE SWAP1 MSTORE8 POP POP DUP1 DUP1 PUSH2 0x29A SWAP1 PUSH2 0xA6A JUMP JUMPDEST SWAP2 POP POP PUSH2 0x21A JUMP JUMPDEST POP DUP2 SWAP3 POP POP POP SWAP2 SWAP1 POP JUMP JUMPDEST PUSH1 0x60 PUSH0 PUSH20 0x0 PUSH4 0xA9A295AD PUSH1 0x40 MLOAD DUP2 PUSH4 0xFFFFFFFF AND PUSH1 0xE0 SHL DUP2 MSTORE PUSH1 0x4 ADD PUSH0 PUSH1 0x40 MLOAD DUP1 DUP4 SUB DUP2 DUP7 GAS DELEGATECALL ISZERO DUP1 ISZERO PUSH2 0x2F6 JUMPI RETURNDATASIZE PUSH0 DUP1 RETURNDATACOPY RETURNDATASIZE PUSH0 REVERT JUMPDEST POP POP POP POP PUSH1 0x40 MLOAD RETURNDATASIZE PUSH0 DUP3 RETURNDATACOPY RETURNDATASIZE PUSH1 0x1F NOT PUSH1 0x1F DUP3 ADD AND DUP3 ADD DUP1 PUSH1 0x40 MSTORE POP DUP2 ADD SWAP1 PUSH2 0x31E SWAP2 SWAP1 PUSH2 0xBA2 JUMP JUMPDEST SWAP1 POP PUSH0 PUSH1 0x37 PUSH8 0xFFFFFFFFFFFFFFFF DUP2 GT ISZERO PUSH2 0x33C JUMPI PUSH2 0x33B PUSH2 0x9E3 JUMP JUMPDEST JUMPDEST PUSH1 0x40 MLOAD SWAP1 DUP1 DUP3 MSTORE DUP1 PUSH1 0x1F ADD PUSH1 0x1F NOT AND PUSH1 0x20 ADD DUP3 ADD PUSH1 0x40 MSTORE DUP1 ISZERO PUSH2 0x36E JUMPI DUP2 PUSH1 0x20 ADD PUSH1 0x1 DUP3 MUL DUP1 CALLDATASIZE DUP4 CALLDATACOPY DUP1 DUP3 ADD SWAP2 POP POP SWAP1 POP JUMPDEST POP SWAP1 POP PUSH0 JUMPDEST DUP2 MLOAD DUP2 LT ISZERO PUSH2 0x3D5 JUMPI PUSH1 0x5F PUSH1 0xF8 SHL DUP3 DUP3 DUP2 MLOAD DUP2 LT PUSH2 0x394 JUMPI PUSH2 0x393 PUSH2 0xA10 JUMP JUMPDEST JUMPDEST PUSH1 0x20 ADD ADD SWAP1 PUSH31 0xFFFFFFFFFFFFFFFFFFFFFFFFFFFFFFFFFFFFFFFFFFFFFFFFFFFFFFFFFFFFFF NOT AND SWAP1 DUP2 PUSH0 BYTE SWAP1 MSTORE8 POP DUP1 DUP1 PUSH2 0x3CD SWAP1 PUSH2 0xA6A JUMP JUMPDEST SWAP2 POP POP PUSH2 0x373 JUMP JUMPDEST POP PUSH0 JUMPDEST DUP3 MLOAD DUP2 LT ISZERO PUSH2 0x45B JUMPI PUSH2 0x407 DUP4 DUP3 DUP2 MLOAD DUP2 LT PUSH2 0x3F7 JUMPI PUSH2 0x3F6 PUSH2 0xA10 JUMP JUMPDEST JUMPDEST PUSH1 0x20 ADD ADD MLOAD PUSH1 0xF8 SHR PUSH1 0xF8 SHL PUSH2 0x58A JUMP JUMPDEST DUP3 DUP3 DUP2 MLOAD DUP2 LT PUSH2 0x41A JUMPI PUSH2 0x419 PUSH2 0xA10 JUMP JUMPDEST JUMPDEST PUSH1 0x20 ADD ADD SWAP1 PUSH31 0xFFFFFFFFFFFFFFFFFFFFFFFFFFFFFFFFFFFFFFFFFFFFFFFFFFFFFFFFFFFFFF NOT AND SWAP1 DUP2 PUSH0 BYTE SWAP1 MSTORE8 POP DUP1 DUP1 PUSH2 0x453 SWAP1 PUSH2 0xA6A JUMP JUMPDEST SWAP2 POP POP PUSH2 0x3D8 JUMP JUMPDEST POP PUSH0 PUSH1 0x9 SWAP1 POP PUSH0 JUMPDEST PUSH1 0x3 DUP2 SLT ISZERO PUSH2 0x527 JUMPI DUP2 DUP1 PUSH2 0x477 SWAP1 PUSH2 0xA6A JUMP JUMPDEST SWAP3 POP POP PUSH0 PUSH2 0x485 PUSH1 0xE PUSH2 0xB5 JUMP JUMPDEST SWAP1 POP PUSH0 JUMPDEST DUP2 MLOAD DUP2 LT ISZERO PUSH2 0x512 JUMPI DUP4 DUP1 PUSH2 0x49D SWAP1 PUSH2 0xA6A JUMP JUMPDEST SWAP5 POP POP DUP2 DUP2 DUP2 MLOAD DUP2 LT PUSH2 0x4B3 JUMPI PUSH2 0x4B2 PUSH2 0xA10 JUMP JUMPDEST JUMPDEST PUSH1 0x20 ADD ADD MLOAD PUSH1 0xF8 SHR PUSH1 0xF8 SHL DUP6 DUP6 DUP2 MLOAD DUP2 LT PUSH2 0x4D1 JUMPI PUSH2 0x4D0 PUSH2 0xA10 JUMP JUMPDEST JUMPDEST PUSH1 0x20 ADD ADD SWAP1 PUSH31 0xFFFFFFFFFFFFFFFFFFFFFFFFFFFFFFFFFFFFFFFFFFFFFFFFFFFFFFFFFFFFFF NOT AND SWAP1 DUP2 PUSH0 BYTE SWAP1 MSTORE8 POP DUP1 DUP1 PUSH2 0x50A SWAP1 PUSH2 0xA6A JUMP JUMPDEST SWAP2 POP POP PUSH2 0x489 JUMP JUMPDEST POP POP DUP1 DUP1 PUSH2 0x51F SWAP1 PUSH2 0xBF2 JUMP JUMPDEST SWAP2 POP POP PUSH2 0x463 JUMP JUMPDEST POP DUP2 SWAP4 POP POP POP POP SWAP1 JUMP JUMPDEST PUSH0 DUP1 PUSH0 DUP2 SLOAD DUP1 SWAP3 SWAP2 SWAP1 PUSH2 0x543 SWAP1 PUSH2 0xA6A JUMP JUMPDEST SWAP2 SWAP1 POP SSTORE POP DUP2 TIMESTAMP PREVRANDAO CALLER PUSH0 SLOAD PUSH1 0x40 MLOAD PUSH1 0x20 ADD PUSH2 0x561 SWAP5 SWAP4 SWAP3 SWAP2 SWAP1 PUSH2 0xCCE JUMP JUMPDEST PUSH1 0x40 MLOAD PUSH1 0x20 DUP2 DUP4 SUB SUB DUP2 MSTORE SWAP1 PUSH1 0x40 MSTORE DUP1 MLOAD SWAP1 PUSH1 0x20 ADD KECCAK256 PUSH0 SHR PUSH2 0x583 SWAP2 SWAP1 PUSH2 0xD48 JUMP JUMPDEST SWAP1 POP SWAP2 SWAP1 POP JUMP JUMPDEST PUSH0 PUSH1 0x30 PUSH1 0xF8 SHL DUP3 PUSH31 0xFFFFFFFFFFFFFFFFFFFFFFFFFFFFFFFFFFFFFFFFFFFFFFFFFFFFFFFFFFFFFF NOT AND SUB PUSH2 0x5C4 JUMPI PUSH1 0x41 PUSH1 0xF8 SHL SWAP1 POP PUSH2 0x7CD JUMP JUMPDEST PUSH1 0x31 PUSH1 0xF8 SHL DUP3 PUSH31 0xFFFFFFFFFFFFFFFFFFFFFFFFFFFFFFFFFFFFFFFFFFFFFFFFFFFFFFFFFFFFFF NOT AND SUB PUSH2 0x5FD JUMPI PUSH1 0x42 PUSH1 0xF8 SHL SWAP1 POP PUSH2 0x7CD JUMP JUMPDEST PUSH1 0x32 PUSH1 0xF8 SHL DUP3 PUSH31 0xFFFFFFFFFFFFFFFFFFFFFFFFFFFFFFFFFFFFFFFFFFFFFFFFFFFFFFFFFFFFFF NOT AND SUB PUSH2 0x636 JUMPI PUSH1 0x43 PUSH1 0xF8 SHL SWAP1 POP PUSH2 0x7CD JUMP JUMPDEST PUSH1 0x33 PUSH1 0xF8 SHL DUP3 PUSH31 0xFFFFFFFFFFFFFFFFFFFFFFFFFFFFFFFFFFFFFFFFFFFFFFFFFFFFFFFFFFFFFF NOT AND SUB PUSH2 0x66F JUMPI PUSH1 0x44 PUSH1 0xF8 SHL SWAP1 POP PUSH2 0x7CD JUMP JUMPDEST PUSH1 0x34 PUSH1 0xF8 SHL DUP3 PUSH31 0xFFFFFFFFFFFFFFFFFFFFFFFFFFFFFFFFFFFFFFFFFFFFFFFFFFFFFFFFFFFFFF NOT AND SUB PUSH2 0x6A8 JUMPI PUSH1 0x45 PUSH1 0xF8 SHL SWAP1 POP PUSH2 0x7CD JUMP JUMPDEST PUSH1 0x35 PUSH1 0xF8 SHL DUP3 PUSH31 0xFFFFFFFFFFFFFFFFFFFFFFFFFFFFFFFFFFFFFFFFFFFFFFFFFFFFFFFFFFFFFF NOT AND SUB PUSH2 0x6E1 JUMPI PUSH1 0x46 PUSH1 0xF8 SHL SWAP1 POP PUSH2 0x7CD JUMP JUMPDEST PUSH1 0x36 PUSH1 0xF8 SHL DUP3 PUSH31 0xFFFFFFFFFFFFFFFFFFFFFFFFFFFFFFFFFFFFFFFFFFFFFFFFFFFFFFFFFFFFFF NOT AND SUB PUSH2 0x71A JUMPI PUSH1 0x47 PUSH1 0xF8 SHL SWAP1 POP PUSH2 0x7CD JUMP JUMPDEST PUSH1 0x37 PUSH1 0xF8 SHL DUP3 PUSH31 0xFFFFFFFFFFFFFFFFFFFFFFFFFFFFFFFFFFFFFFFFFFFFFFFFFFFFFFFFFFFFFF NOT AND SUB PUSH2 0x753 JUMPI PUSH1 0x48 PUSH1 0xF8 SHL SWAP1 POP PUSH2 0x7CD JUMP JUMPDEST PUSH1 0x38 PUSH1 0xF8 SHL DUP3 PUSH31 0xFFFFFFFFFFFFFFFFFFFFFFFFFFFFFFFFFFFFFFFFFFFFFFFFFFFFFFFFFFFFFF NOT AND SUB PUSH2 0x78C JUMPI PUSH1 0x49 PUSH1 0xF8 SHL SWAP1 POP PUSH2 0x7CD JUMP JUMPDEST PUSH1 0x39 PUSH1 0xF8 SHL DUP3 PUSH31 0xFFFFFFFFFFFFFFFFFFFFFFFFFFFFFFFFFFFFFFFFFFFFFFFFFFFFFFFFFFFFFF NOT AND SUB PUSH2 0x7C5 JUMPI PUSH1 0x4A PUSH1 0xF8 SHL SWAP1 POP PUSH2 0x7CD JUMP JUMPDEST PUSH1 0x5A PUSH1 0xF8 SHL SWAP1 POP JUMPDEST SWAP2 SWAP1 POP JUMP JUMPDEST PUSH0 PUSH1 0x40 MLOAD SWAP1 POP SWAP1 JUMP JUMPDEST PUSH0 DUP1 REVERT JUMPDEST PUSH0 DUP1 REVERT JUMPDEST PUSH0 DUP2 SWAP1 POP SWAP2 SWAP1 POP JUMP JUMPDEST PUSH2 0x7F5 DUP2 PUSH2 0x7E3 JUMP JUMPDEST DUP2 EQ PUSH2 0x7FF JUMPI PUSH0 DUP1 REVERT JUMPDEST POP JUMP JUMPDEST PUSH0 DUP2 CALLDATALOAD SWAP1 POP PUSH2 0x810 DUP2 PUSH2 0x7EC JUMP JUMPDEST SWAP3 SWAP2 POP POP JUMP JUMPDEST PUSH0 PUSH1 0x20 DUP3 DUP5 SUB SLT ISZERO PUSH2 0x82B JUMPI PUSH2 0x82A PUSH2 0x7DB JUMP JUMPDEST JUMPDEST PUSH0 PUSH2 0x838 DUP5 DUP3 DUP6 ADD PUSH2 0x802 JUMP JUMPDEST SWAP2 POP POP SWAP3 SWAP2 POP POP JUMP JUMPDEST PUSH0 DUP2 MLOAD SWAP1 POP SWAP2 SWAP1 POP JUMP JUMPDEST PUSH0 DUP3 DUP3 MSTORE PUSH1 0x20 DUP3 ADD SWAP1 POP SWAP3 SWAP2 POP POP JUMP JUMPDEST PUSH0 JUMPDEST DUP4 DUP2 LT ISZERO PUSH2 0x878 JUMPI DUP1 DUP3 ADD MLOAD DUP2 DUP5 ADD MSTORE PUSH1 0x20 DUP2 ADD SWAP1 POP PUSH2 0x85D JUMP JUMPDEST PUSH0 DUP5 DUP5 ADD MSTORE POP POP POP POP JUMP JUMPDEST PUSH0 PUSH1 0x1F NOT PUSH1 0x1F DUP4 ADD AND SWAP1 POP SWAP2 SWAP1 POP JUMP JUMPDEST PUSH0 PUSH2 0x89D DUP3 PUSH2 0x841 JUMP JUMPDEST PUSH2 0x8A7 DUP2 DUP6 PUSH2 0x84B JUMP JUMPDEST SWAP4 POP PUSH2 0x8B7 DUP2 DUP6 PUSH1 0x20 DUP7 ADD PUSH2 0x85B JUMP JUMPDEST PUSH2 0x8C0 DUP2 PUSH2 0x883 JUMP JUMPDEST DUP5 ADD SWAP2 POP POP SWAP3 SWAP2 POP POP JUMP JUMPDEST PUSH0 PUSH1 0x20 DUP3 ADD SWAP1 POP DUP2 DUP2 SUB PUSH0 DUP4 ADD MSTORE PUSH2 0x8E3 DUP2 DUP5 PUSH2 0x893 JUMP JUMPDEST SWAP1 POP SWAP3 SWAP2 POP POP JUMP JUMPDEST PUSH2 0x8F4 DUP2 PUSH2 0x7E3 JUMP JUMPDEST DUP3 MSTORE POP POP JUMP JUMPDEST PUSH0 PUSH1 0x20 DUP3 ADD SWAP1 POP PUSH2 0x90D PUSH0 DUP4 ADD DUP5 PUSH2 0x8EB JUMP JUMPDEST SWAP3 SWAP2 POP POP JUMP JUMPDEST PUSH32 0x4C656E6774682063616E6E6F742062652067726561746572207468616E203134 PUSH0 DUP3 ADD MSTORE POP JUMP JUMPDEST PUSH0 PUSH2 0x947 PUSH1 0x20 DUP4 PUSH2 0x84B JUMP JUMPDEST SWAP2 POP PUSH2 0x952 DUP3 PUSH2 0x913 JUMP JUMPDEST PUSH1 0x20 DUP3 ADD SWAP1 POP SWAP2 SWAP1 POP JUMP JUMPDEST PUSH0 PUSH1 0x20 DUP3 ADD SWAP1 POP DUP2 DUP2 SUB PUSH0 DUP4 ADD MSTORE PUSH2 0x974 DUP2 PUSH2 0x93B JUMP JUMPDEST SWAP1 POP SWAP2 SWAP1 POP JUMP JUMPDEST PUSH32 0x4C656E6774682063616E6E6F74206265205A65726F0000000000000000000000 PUSH0 DUP3 ADD MSTORE POP JUMP JUMPDEST PUSH0 PUSH2 0x9AF PUSH1 0x15 DUP4 PUSH2 0x84B JUMP JUMPDEST SWAP2 POP PUSH2 0x9BA DUP3 PUSH2 0x97B JUMP JUMPDEST PUSH1 0x20 DUP3 ADD SWAP1 POP SWAP2 SWAP1 POP JUMP JUMPDEST PUSH0 PUSH1 0x20 DUP3 ADD SWAP1 POP DUP2 DUP2 SUB PUSH0 DUP4 ADD MSTORE PUSH2 0x9DC DUP2 PUSH2 0x9A3 JUMP JUMPDEST SWAP1 POP SWAP2 SWAP1 POP JUMP JUMPDEST PUSH32 0x4E487B7100000000000000000000000000000000000000000000000000000000 PUSH0 MSTORE PUSH1 0x41 PUSH1 0x4 MSTORE PUSH1 0x24 PUSH0 REVERT JUMPDEST PUSH32 0x4E487B7100000000000000000000000000000000000000000000000000000000 PUSH0 MSTORE PUSH1 0x32 PUSH1 0x4 MSTORE PUSH1 0x24 PUSH0 REVERT JUMPDEST PUSH32 0x4E487B7100000000000000000000000000000000000000000000000000000000 PUSH0 MSTORE PUSH1 0x11 PUSH1 0x4 MSTORE PUSH1 0x24 PUSH0 REVERT JUMPDEST PUSH0 PUSH2 0xA74 DUP3 PUSH2 0x7E3 JUMP JUMPDEST SWAP2 POP PUSH32 0xFFFFFFFFFFFFFFFFFFFFFFFFFFFFFFFFFFFFFFFFFFFFFFFFFFFFFFFFFFFFFFFF DUP3 SUB PUSH2 0xAA6 JUMPI PUSH2 0xAA5 PUSH2 0xA3D JUMP JUMPDEST JUMPDEST PUSH1 0x1 DUP3 ADD SWAP1 POP SWAP2 SWAP1 POP JUMP JUMPDEST PUSH0 DUP1 REVERT JUMPDEST PUSH0 DUP1 REVERT JUMPDEST PUSH2 0xAC2 DUP3 PUSH2 0x883 JUMP JUMPDEST DUP2 ADD DUP2 DUP2 LT PUSH8 0xFFFFFFFFFFFFFFFF DUP3 GT OR ISZERO PUSH2 0xAE1 JUMPI PUSH2 0xAE0 PUSH2 0x9E3 JUMP JUMPDEST JUMPDEST DUP1 PUSH1 0x40 MSTORE POP POP POP JUMP JUMPDEST PUSH0 PUSH2 0xAF3 PUSH2 0x7D2 JUMP JUMPDEST SWAP1 POP PUSH2 0xAFF DUP3 DUP3 PUSH2 0xAB9 JUMP JUMPDEST SWAP2 SWAP1 POP JUMP JUMPDEST PUSH0 PUSH8 0xFFFFFFFFFFFFFFFF DUP3 GT ISZERO PUSH2 0xB1E JUMPI PUSH2 0xB1D PUSH2 0x9E3 JUMP JUMPDEST JUMPDEST PUSH2 0xB27 DUP3 PUSH2 0x883 JUMP JUMPDEST SWAP1 POP PUSH1 0x20 DUP2 ADD SWAP1 POP SWAP2 SWAP1 POP JUMP JUMPDEST PUSH0 PUSH2 0xB46 PUSH2 0xB41 DUP5 PUSH2 0xB04 JUMP JUMPDEST PUSH2 0xAEA JUMP JUMPDEST SWAP1 POP DUP3 DUP2 MSTORE PUSH1 0x20 DUP2 ADD DUP5 DUP5 DUP5 ADD GT ISZERO PUSH2 0xB62 JUMPI PUSH2 0xB61 PUSH2 0xAB5 JUMP JUMPDEST JUMPDEST PUSH2 0xB6D DUP5 DUP3 DUP6 PUSH2 0x85B JUMP JUMPDEST POP SWAP4 SWAP3 POP POP POP JUMP JUMPDEST PUSH0 DUP3 PUSH1 0x1F DUP4 ADD SLT PUSH2 0xB89 JUMPI PUSH2 0xB88 PUSH2 0xAB1 JUMP JUMPDEST JUMPDEST DUP2 MLOAD PUSH2 0xB99 DUP5 DUP3 PUSH1 0x20 DUP7 ADD PUSH2 0xB34 JUMP JUMPDEST SWAP2 POP POP SWAP3 SWAP2 POP POP JUMP JUMPDEST PUSH0 PUSH1 0x20 DUP3 DUP5 SUB SLT ISZERO PUSH2 0xBB7 JUMPI PUSH2 0xBB6 PUSH2 0x7DB JUMP JUMPDEST JUMPDEST PUSH0 DUP3 ADD MLOAD PUSH8 0xFFFFFFFFFFFFFFFF DUP2 GT ISZERO PUSH2 0xBD4 JUMPI PUSH2 0xBD3 PUSH2 0x7DF JUMP JUMPDEST JUMPDEST PUSH2 0xBE0 DUP5 DUP3 DUP6 ADD PUSH2 0xB75 JUMP JUMPDEST SWAP2 POP POP SWAP3 SWAP2 POP POP JUMP JUMPDEST PUSH0 DUP2 SWAP1 POP SWAP2 SWAP1 POP JUMP JUMPDEST PUSH0 PUSH2 0xBFC DUP3 PUSH2 0xBE9 JUMP JUMPDEST SWAP2 POP PUSH32 0x7FFFFFFFFFFFFFFFFFFFFFFFFFFFFFFFFFFFFFFFFFFFFFFFFFFFFFFFFFFFFFFF DUP3 SUB PUSH2 0xC2E JUMPI PUSH2 0xC2D PUSH2 0xA3D JUMP JUMPDEST JUMPDEST PUSH1 0x1 DUP3 ADD SWAP1 POP SWAP2 SWAP1 POP JUMP JUMPDEST PUSH0 DUP2 SWAP1 POP SWAP2 SWAP1 POP JUMP JUMPDEST PUSH2 0xC53 PUSH2 0xC4E DUP3 PUSH2 0x7E3 JUMP JUMPDEST PUSH2 0xC39 JUMP JUMPDEST DUP3 MSTORE POP POP JUMP JUMPDEST PUSH0 PUSH20 0xFFFFFFFFFFFFFFFFFFFFFFFFFFFFFFFFFFFFFFFF DUP3 AND SWAP1 POP SWAP2 SWAP1 POP JUMP JUMPDEST PUSH0 PUSH2 0xC82 DUP3 PUSH2 0xC59 JUMP JUMPDEST SWAP1 POP SWAP2 SWAP1 POP JUMP JUMPDEST PUSH0 DUP2 PUSH1 0x60 SHL SWAP1 POP SWAP2 SWAP1 POP JUMP JUMPDEST PUSH0 PUSH2 0xC9F DUP3 PUSH2 0xC89 JUMP JUMPDEST SWAP1 POP SWAP2 SWAP1 POP JUMP JUMPDEST PUSH0 PUSH2 0xCB0 DUP3 PUSH2 0xC95 JUMP JUMPDEST SWAP1 POP SWAP2 SWAP1 POP JUMP JUMPDEST PUSH2 0xCC8 PUSH2 0xCC3 DUP3 PUSH2 0xC78 JUMP JUMPDEST PUSH2 0xCA6 JUMP JUMPDEST DUP3 MSTORE POP POP JUMP JUMPDEST PUSH0 PUSH2 0xCD9 DUP3 DUP8 PUSH2 0xC42 JUMP JUMPDEST PUSH1 0x20 DUP3 ADD SWAP2 POP PUSH2 0xCE9 DUP3 DUP7 PUSH2 0xC42 JUMP JUMPDEST PUSH1 0x20 DUP3 ADD SWAP2 POP PUSH2 0xCF9 DUP3 DUP6 PUSH2 0xCB7 JUMP JUMPDEST PUSH1 0x14 DUP3 ADD SWAP2 POP PUSH2 0xD09 DUP3 DUP5 PUSH2 0xC42 JUMP JUMPDEST PUSH1 0x20 DUP3 ADD SWAP2 POP DUP2 SWAP1 POP SWAP6 SWAP5 POP POP POP POP POP JUMP JUMPDEST PUSH32 0x4E487B7100000000000000000000000000000000000000000000000000000000 PUSH0 MSTORE PUSH1 0x12 PUSH1 0x4 MSTORE PUSH1 0x24 PUSH0 REVERT JUMPDEST PUSH0 PUSH2 0xD52 DUP3 PUSH2 0x7E3 JUMP JUMPDEST SWAP2 POP PUSH2 0xD5D DUP4 PUSH2 0x7E3 JUMP JUMPDEST SWAP3 POP DUP3 PUSH2 0xD6D JUMPI PUSH2 0xD6C PUSH2 0xD1B JUMP JUMPDEST JUMPDEST DUP3 DUP3 MOD SWAP1 POP SWAP3 SWAP2 POP POP JUMP INVALID LOG2 PUSH5 0x6970667358 0x22 SLT KECCAK256 0xD6 EXTCODEHASH DIV GAS SWAP15 0xFC 0x24 0xE3 BALANCE 0x27 PUSH20 0x45CBC56EF76C7B21F3C5363E7D7B8AA1A8EA29D5 PUSH32 0x64736F6C63430008140033000000000000000000000000000000000000000000 "
		},
		"gasEstimates": {
			"creation": {
				"codeDepositCost": "700400",
				"executionCost": "22837",
				"totalCost": "723237"
			},
			"external": {
				"random(uint256)": "infinite",
				"randomString(uint256)": "infinite",
				"uniqId()": "infinite"
			},
			"internal": {
				"fixUChar(bytes1)": "424"
			}
		},
		"methodIdentifiers": {
			"random(uint256)": "b863bd37",
			"randomString(uint256)": "5bf9d6de",
			"uniqId()": "a3688546"
		}
	},
	"abi": [
		{
			"inputs": [
				{
					"internalType": "uint256",
					"name": "number",
					"type": "uint256"
				}
			],
			"name": "random",
			"outputs": [
				{
					"internalType": "uint256",
					"name": "",
					"type": "uint256"
				}
			],
			"stateMutability": "payable",
			"type": "function"
		},
		{
			"inputs": [
				{
					"internalType": "uint256",
					"name": "length",
					"type": "uint256"
				}
			],
			"name": "randomString",
			"outputs": [
				{
					"internalType": "string",
					"name": "",
					"type": "string"
				}
			],
			"stateMutability": "payable",
			"type": "function"
		},
		{
			"inputs": [],
			"name": "uniqId",
			"outputs": [
				{
					"internalType": "string",
					"name": "",
					"type": "string"
				}
			],
			"stateMutability": "payable",
			"type": "function"
		}
	]
}