{
	"data": {
		"bytecode": {
			"linkReferences": {},
			"object": "611da061004e600b8282823980515f1a607314610042577f4e487b71000000000000000000000000000000000000000000000000000000005f525f60045260245ffd5b305f52607381538281f3fe7300000000000000000000000000000000000000003014608060405260043610610114575f3560e01c806392d66313116100ab578063b19999371161007a578063b199993714610346578063b238ad0e14610376578063eb3334c5146103a6578063f97d0591146103c6578063fa93f883146103f657610114565b806392d6631314610298578063a324ad24146102c8578063a6f0e577146102f8578063a9a295ad1461032857610114565b80637f791833116100e75780637f791833146101d85780638aa001fc146102085780638c8d98a0146102385780639054bdec1461026857610114565b80633e239e1a146101185780634ac1ad781461014857806362ba96871461017857806365c72840146101a8575b5f80fd5b610132600480360381019061012d91906115c3565b610426565b60405161013f9190611609565b60405180910390f35b610162600480360381019061015d91906115c3565b610452565b60405161016f9190611609565b60405180910390f35b610192600480360381019061018d9190611683565b610481565b60405161019f9190611709565b60405180910390f35b6101c260048036038101906101bd91906115c3565b61049b565b6040516101cf9190611609565b60405180910390f35b6101f260048036038101906101ed9190611722565b6104b0565b6040516101ff9190611709565b60405180910390f35b610222600480360381019061021d91906115c3565b6104c9565b60405161022f9190611609565b60405180910390f35b610252600480360381019061024d9190611786565b6104de565b60405161025f9190611709565b60405180910390f35b610282600480360381019061027d91906117d6565b6104f6565b60405161028f9190611709565b60405180910390f35b6102b260048036038101906102ad91906115c3565b61085f565b6040516102bf919061186e565b60405180910390f35b6102e260048036038101906102dd91906115c3565b610973565b6040516102ef9190611609565b60405180910390f35b610312600480360381019061030d9190611887565b610988565b60405161031f91906118cc565b60405180910390f35b6103306109f2565b60405161033d919061196f565b60405180910390f35b610360600480360381019061035b91906115c3565b610f91565b60405161036d9190611709565b60405180910390f35b610390600480360381019061038b919061198f565b610fe4565b60405161039d9190611609565b60405180910390f35b6103ae6110af565b6040516103bd939291906119cd565b60405180910390f35b6103e060048036038101906103db91906115c3565b6110d8565b6040516103ed9190611aac565b60405180910390f35b610410600480360381019061040b91906115c3565b6112e2565b60405161041d9190611609565b60405180910390f35b5f6018603c80846104379190611b1f565b6104419190611b1f565b61044b9190611b4f565b9050919050565b5f6007600462015180846104669190611b1f565b6104709190611b7f565b61047a9190611b4f565b9050919050565b5f61049086868686865f6104f6565b905095945050505050565b5f6104a5826110d8565b604001519050919050565b5f6104bf858585855f806104f6565b9050949350505050565b5f603c826104d79190611b4f565b9050919050565b5f6104ed8484845f805f6104f6565b90509392505050565b5f806107b290505b8761ffff168161ffff1610156105595761051781610988565b15610533576301e285008261052c9190611b7f565b9150610546565b6301e13380826105439190611b7f565b91505b808061055190611bb2565b9150506104fe565b61056161151d565b601f815f600c811061057657610575611bdb565b5b602002019060ff16908160ff168152505061059089610988565b156105c157601d816001600c81106105ab576105aa611bdb565b5b602002019060ff16908160ff16815250506105e9565b601c816001600c81106105d7576105d6611bdb565b5b602002019060ff16908160ff16815250505b601f816002600c81106105ff576105fe611bdb565b5b602002019060ff16908160ff1681525050601e816003600c811061062657610625611bdb565b5b602002019060ff16908160ff1681525050601f816004600c811061064d5761064c611bdb565b5b602002019060ff16908160ff1681525050601e816005600c811061067457610673611bdb565b5b602002019060ff16908160ff1681525050601f816006600c811061069b5761069a611bdb565b5b602002019060ff16908160ff1681525050601f816007600c81106106c2576106c1611bdb565b5b602002019060ff16908160ff1681525050601e816008600c81106106e9576106e8611bdb565b5b602002019060ff16908160ff1681525050601f816009600c81106107105761070f611bdb565b5b602002019060ff16908160ff1681525050601e81600a600c811061073757610736611bdb565b5b602002019060ff16908160ff1681525050601f81600b600c811061075e5761075d611bdb565b5b602002019060ff16908160ff1681525050600191505b8760ff168261ffff1610156107dc57806001836107919190611c08565b61ffff16600c81106107a6576107a5611bdb565b5b602002015160ff16620151806107bc9190611c3d565b836107c79190611b7f565b925081806107d490611bb2565b925050610774565b6001876107e99190611c7e565b60ff16620151806107fa9190611c3d565b836108059190611b7f565b92508560ff16610e106108189190611c3d565b836108239190611b7f565b92508460ff16603c6108359190611c3d565b836108409190611b7f565b92508360ff16836108519190611b7f565b925050509695505050505050565b5f805f90505f806301e13380856108769190611b1f565b6107b261ffff166108879190611b7f565b91506108986107b261ffff16610f91565b6108a58361ffff16610f91565b6108af9190611cb2565b9050806301e285006108c19190611c3d565b836108cc9190611b7f565b9250806107b2836108dd9190611c08565b61ffff166108eb9190611cb2565b6301e133806108fa9190611c3d565b836109059190611b7f565b92505b84831115610968576109256001836109209190611c08565b610988565b15610941576301e285008361093a9190611cb2565b9250610954565b6301e13380836109519190611cb2565b92505b6001826109619190611c08565b9150610908565b819350505050919050565b5f61097d826110d8565b602001519050919050565b5f806004836109979190611ce5565b61ffff16146109a8575f90506109ed565b5f6064836109b69190611ce5565b61ffff16146109c857600190506109ed565b5f610190836109d79190611ce5565b61ffff16146109e8575f90506109ed565b600190505b919050565b60605f805f6109ff6110af565b9250925092505f610a138461ffff16611302565b90505f610a228460ff16611302565b90505f610a318460ff16611302565b90505f600a67ffffffffffffffff811115610a4f57610a4e611d15565b5b6040519080825280601f01601f191660200182016040528015610a815781602001600182028036833780820191505090505b509050835f81518110610a9757610a96611bdb565b5b602001015160f81c60f81b815f81518110610ab557610ab4611bdb565b5b60200101907effffffffffffffffffffffffffffffffffffffffffffffffffffffffffffff191690815f1a90535083600181518110610af757610af6611bdb565b5b602001015160f81c60f81b81600181518110610b1657610b15611bdb565b5b60200101907effffffffffffffffffffffffffffffffffffffffffffffffffffffffffffff191690815f1a90535083600281518110610b5857610b57611bdb565b5b602001015160f81c60f81b81600281518110610b7757610b76611bdb565b5b60200101907effffffffffffffffffffffffffffffffffffffffffffffffffffffffffffff191690815f1a90535083600381518110610bb957610bb8611bdb565b5b602001015160f81c60f81b81600381518110610bd857610bd7611bdb565b5b60200101907effffffffffffffffffffffffffffffffffffffffffffffffffffffffffffff191690815f1a905350602d60f81b81600481518110610c1f57610c1e611bdb565b5b60200101907effffffffffffffffffffffffffffffffffffffffffffffffffffffffffffff191690815f1a905350600183511115610d1d57825f81518110610c6a57610c69611bdb565b5b602001015160f81c60f81b81600581518110610c8957610c88611bdb565b5b60200101907effffffffffffffffffffffffffffffffffffffffffffffffffffffffffffff191690815f1a90535082600181518110610ccb57610cca611bdb565b5b602001015160f81c60f81b81600681518110610cea57610ce9611bdb565b5b60200101907effffffffffffffffffffffffffffffffffffffffffffffffffffffffffffff191690815f1a905350610dc5565b603060f81b81600581518110610d3657610d35611bdb565b5b60200101907effffffffffffffffffffffffffffffffffffffffffffffffffffffffffffff191690815f1a905350825f81518110610d7757610d76611bdb565b5b602001015160f81c60f81b81600681518110610d9657610d95611bdb565b5b60200101907effffffffffffffffffffffffffffffffffffffffffffffffffffffffffffff191690815f1a9053505b602d60f81b81600781518110610dde57610ddd611bdb565b5b60200101907effffffffffffffffffffffffffffffffffffffffffffffffffffffffffffff191690815f1a905350600182511115610edc57815f81518110610e2957610e28611bdb565b5b602001015160f81c60f81b81600881518110610e4857610e47611bdb565b5b60200101907effffffffffffffffffffffffffffffffffffffffffffffffffffffffffffff191690815f1a90535081600181518110610e8a57610e89611bdb565b5b602001015160f81c60f81b81600981518110610ea957610ea8611bdb565b5b60200101907effffffffffffffffffffffffffffffffffffffffffffffffffffffffffffff191690815f1a905350610f84565b603060f81b81600881518110610ef557610ef4611bdb565b5b60200101907effffffffffffffffffffffffffffffffffffffffffffffffffffffffffffff191690815f1a905350815f81518110610f3657610f35611bdb565b5b602001015160f81c60f81b81600981518110610f5557610f54611bdb565b5b60200101907effffffffffffffffffffffffffffffffffffffffffffffffffffffffffffff191690815f1a9053505b8097505050505050505090565b5f600182610f9f9190611cb2565b915061019082610faf9190611b1f565b606483610fbc9190611b1f565b600484610fc99190611b1f565b610fd39190611cb2565b610fdd9190611b7f565b9050919050565b5f60018360ff161480610ffa575060038360ff16145b80611008575060058360ff16145b80611016575060078360ff16145b80611024575060088360ff16145b806110325750600a8360ff16145b806110405750600c8360ff16145b1561104e57601f90506110a9565b60048360ff161480611063575060068360ff16145b80611071575060098360ff16145b8061107f5750600b8360ff16145b1561108d57601e90506110a9565b61109682610988565b156110a457601d90506110a9565b601c90505b92915050565b5f805f806110bc426110d8565b9050805f01518160200151826040015193509350935050909192565b6110e0611540565b5f80806110ec8561085f565b845f019061ffff16908161ffff168152505061110d6107b261ffff16610f91565b61111d855f015161ffff16610f91565b6111279190611cb2565b9150816301e285006111399190611c3d565b836111449190611b7f565b9250816107b2855f01516111589190611c08565b61ffff166111669190611cb2565b6301e133806111759190611c3d565b836111809190611b7f565b92505f600191505b600c8260ff16116111fe576111a082865f0151610fe4565b60ff16620151806111b19190611c3d565b90508584826111c09190611b7f565b11156111dd5781856020019060ff16908160ff16815250506111fe565b80846111e99190611b7f565b935081806111f690611d42565b925050611188565b600191505b6112148560200151865f0151610fe4565b60ff168260ff1611611271578584620151806112309190611b7f565b111561124d5781856040019060ff16908160ff1681525050611271565b620151808461125c9190611b7f565b9350818061126990611d42565b925050611203565b61127a86610426565b856060019060ff16908160ff1681525050611294866112e2565b856080019060ff16908160ff16815250506112ae866104c9565b8560a0019060ff16908160ff16815250506112c886610452565b8560c0019060ff16908160ff168152505050505050919050565b5f603c80836112f19190611b1f565b6112fb9190611b4f565b9050919050565b60605f6001611310846113cc565b0190505f8167ffffffffffffffff81111561132e5761132d611d15565b5b6040519080825280601f01601f1916602001820160405280156113605781602001600182028036833780820191505090505b5090505f82602001820190505b6001156113c1578080600190039150507f3031323334353637383961626364656600000000000000000000000000000000600a86061a8153600a85816113b6576113b5611ac5565b5b0494505f850361136d575b819350505050919050565b5f805f90507a184f03e93ff9f4daa797ed6e38ed64bf6a1f0100000000000000008310611428577a184f03e93ff9f4daa797ed6e38ed64bf6a1f010000000000000000838161141e5761141d611ac5565b5b0492506040810190505b6d04ee2d6d415b85acef81000000008310611465576d04ee2d6d415b85acef8100000000838161145b5761145a611ac5565b5b0492506020810190505b662386f26fc10000831061149457662386f26fc10000838161148a57611489611ac5565b5b0492506010810190505b6305f5e10083106114bd576305f5e10083816114b3576114b2611ac5565b5b0492506008810190505b61271083106114e25761271083816114d8576114d7611ac5565b5b0492506004810190505b6064831061150557606483816114fb576114fa611ac5565b5b0492506002810190505b600a8310611514576001810190505b80915050919050565b604051806101800160405280600c90602082028036833780820191505090505090565b6040518060e001604052805f61ffff1681526020015f60ff1681526020015f60ff1681526020015f60ff1681526020015f60ff1681526020015f60ff1681526020015f60ff1681525090565b5f80fd5b5f819050919050565b6115a281611590565b81146115ac575f80fd5b50565b5f813590506115bd81611599565b92915050565b5f602082840312156115d8576115d761158c565b5b5f6115e5848285016115af565b91505092915050565b5f60ff82169050919050565b611603816115ee565b82525050565b5f60208201905061161c5f8301846115fa565b92915050565b5f61ffff82169050919050565b61163881611622565b8114611642575f80fd5b50565b5f813590506116538161162f565b92915050565b611662816115ee565b811461166c575f80fd5b50565b5f8135905061167d81611659565b92915050565b5f805f805f60a0868803121561169c5761169b61158c565b5b5f6116a988828901611645565b95505060206116ba8882890161166f565b94505060406116cb8882890161166f565b93505060606116dc8882890161166f565b92505060806116ed8882890161166f565b9150509295509295909350565b61170381611590565b82525050565b5f60208201905061171c5f8301846116fa565b92915050565b5f805f806080858703121561173a5761173961158c565b5b5f61174787828801611645565b94505060206117588782880161166f565b93505060406117698782880161166f565b925050606061177a8782880161166f565b91505092959194509250565b5f805f6060848603121561179d5761179c61158c565b5b5f6117aa86828701611645565b93505060206117bb8682870161166f565b92505060406117cc8682870161166f565b9150509250925092565b5f805f805f8060c087890312156117f0576117ef61158c565b5b5f6117fd89828a01611645565b965050602061180e89828a0161166f565b955050604061181f89828a0161166f565b945050606061183089828a0161166f565b935050608061184189828a0161166f565b92505060a061185289828a0161166f565b9150509295509295509295565b61186881611622565b82525050565b5f6020820190506118815f83018461185f565b92915050565b5f6020828403121561189c5761189b61158c565b5b5f6118a984828501611645565b91505092915050565b5f8115159050919050565b6118c6816118b2565b82525050565b5f6020820190506118df5f8301846118bd565b92915050565b5f81519050919050565b5f82825260208201905092915050565b5f5b8381101561191c578082015181840152602081019050611901565b5f8484015250505050565b5f601f19601f8301169050919050565b5f611941826118e5565b61194b81856118ef565b935061195b8185602086016118ff565b61196481611927565b840191505092915050565b5f6020820190508181035f8301526119878184611937565b905092915050565b5f80604083850312156119a5576119a461158c565b5b5f6119b28582860161166f565b92505060206119c385828601611645565b9150509250929050565b5f6060820190506119e05f83018661185f565b6119ed60208301856115fa565b6119fa60408301846115fa565b949350505050565b611a0b81611622565b82525050565b611a1a816115ee565b82525050565b60e082015f820151611a345f850182611a02565b506020820151611a476020850182611a11565b506040820151611a5a6040850182611a11565b506060820151611a6d6060850182611a11565b506080820151611a806080850182611a11565b5060a0820151611a9360a0850182611a11565b5060c0820151611aa660c0850182611a11565b50505050565b5f60e082019050611abf5f830184611a20565b92915050565b7f4e487b71000000000000000000000000000000000000000000000000000000005f52601260045260245ffd5b7f4e487b71000000000000000000000000000000000000000000000000000000005f52601160045260245ffd5b5f611b2982611590565b9150611b3483611590565b925082611b4457611b43611ac5565b5b828204905092915050565b5f611b5982611590565b9150611b6483611590565b925082611b7457611b73611ac5565b5b828206905092915050565b5f611b8982611590565b9150611b9483611590565b9250828201905080821115611bac57611bab611af2565b5b92915050565b5f611bbc82611622565b915061ffff8203611bd057611bcf611af2565b5b600182019050919050565b7f4e487b71000000000000000000000000000000000000000000000000000000005f52603260045260245ffd5b5f611c1282611622565b9150611c1d83611622565b9250828203905061ffff811115611c3757611c36611af2565b5b92915050565b5f611c4782611590565b9150611c5283611590565b9250828202611c6081611590565b91508282048414831517611c7757611c76611af2565b5b5092915050565b5f611c88826115ee565b9150611c93836115ee565b9250828203905060ff811115611cac57611cab611af2565b5b92915050565b5f611cbc82611590565b9150611cc783611590565b9250828203905081811115611cdf57611cde611af2565b5b92915050565b5f611cef82611622565b9150611cfa83611622565b925082611d0a57611d09611ac5565b5b828206905092915050565b7f4e487b71000000000000000000000000000000000000000000000000000000005f52604160045260245ffd5b5f611d4c826115ee565b915060ff8203611d5f57611d5e611af2565b5b60018201905091905056fea2646970667358221220bd3ce8b9501d93df81a158784da99de2e97956ccc7674001f316b89e0baba29c64736f6c63430008140033",
			"opcodes": "PUSH2 0x1DA0 PUSH2 0x4E PUSH1 0xB DUP3 DUP3 DUP3 CODECOPY DUP1 MLOAD PUSH0 BYTE PUSH1 0x73 EQ PUSH2 0x42 JUMPI PUSH32 0x4E487B7100000000000000000000000000000000000000000000000000000000 PUSH0 MSTORE PUSH0 PUSH1 0x4 MSTORE PUSH1 0x24 PUSH0 REVERT JUMPDEST ADDRESS PUSH0 MSTORE PUSH1 0x73 DUP2 MSTORE8 DUP3 DUP2 RETURN INVALID PUSH20 0x0 ADDRESS EQ PUSH1 0x80 PUSH1 0x40 MSTORE PUSH1 0x4 CALLDATASIZE LT PUSH2 0x114 JUMPI PUSH0 CALLDATALOAD PUSH1 0xE0 SHR DUP1 PUSH4 0x92D66313 GT PUSH2 0xAB JUMPI DUP1 PUSH4 0xB1999937 GT PUSH2 0x7A JUMPI DUP1 PUSH4 0xB1999937 EQ PUSH2 0x346 JUMPI DUP1 PUSH4 0xB238AD0E EQ PUSH2 0x376 JUMPI DUP1 PUSH4 0xEB3334C5 EQ PUSH2 0x3A6 JUMPI DUP1 PUSH4 0xF97D0591 EQ PUSH2 0x3C6 JUMPI DUP1 PUSH4 0xFA93F883 EQ PUSH2 0x3F6 JUMPI PUSH2 0x114 JUMP JUMPDEST DUP1 PUSH4 0x92D66313 EQ PUSH2 0x298 JUMPI DUP1 PUSH4 0xA324AD24 EQ PUSH2 0x2C8 JUMPI DUP1 PUSH4 0xA6F0E577 EQ PUSH2 0x2F8 JUMPI DUP1 PUSH4 0xA9A295AD EQ PUSH2 0x328 JUMPI PUSH2 0x114 JUMP JUMPDEST DUP1 PUSH4 0x7F791833 GT PUSH2 0xE7 JUMPI DUP1 PUSH4 0x7F791833 EQ PUSH2 0x1D8 JUMPI DUP1 PUSH4 0x8AA001FC EQ PUSH2 0x208 JUMPI DUP1 PUSH4 0x8C8D98A0 EQ PUSH2 0x238 JUMPI DUP1 PUSH4 0x9054BDEC EQ PUSH2 0x268 JUMPI PUSH2 0x114 JUMP JUMPDEST DUP1 PUSH4 0x3E239E1A EQ PUSH2 0x118 JUMPI DUP1 PUSH4 0x4AC1AD78 EQ PUSH2 0x148 JUMPI DUP1 PUSH4 0x62BA9687 EQ PUSH2 0x178 JUMPI DUP1 PUSH4 0x65C72840 EQ PUSH2 0x1A8 JUMPI JUMPDEST PUSH0 DUP1 REVERT JUMPDEST PUSH2 0x132 PUSH1 0x4 DUP1 CALLDATASIZE SUB DUP2 ADD SWAP1 PUSH2 0x12D SWAP2 SWAP1 PUSH2 0x15C3 JUMP JUMPDEST PUSH2 0x426 JUMP JUMPDEST PUSH1 0x40 MLOAD PUSH2 0x13F SWAP2 SWAP1 PUSH2 0x1609 JUMP JUMPDEST PUSH1 0x40 MLOAD DUP1 SWAP2 SUB SWAP1 RETURN JUMPDEST PUSH2 0x162 PUSH1 0x4 DUP1 CALLDATASIZE SUB DUP2 ADD SWAP1 PUSH2 0x15D SWAP2 SWAP1 PUSH2 0x15C3 JUMP JUMPDEST PUSH2 0x452 JUMP JUMPDEST PUSH1 0x40 MLOAD PUSH2 0x16F SWAP2 SWAP1 PUSH2 0x1609 JUMP JUMPDEST PUSH1 0x40 MLOAD DUP1 SWAP2 SUB SWAP1 RETURN JUMPDEST PUSH2 0x192 PUSH1 0x4 DUP1 CALLDATASIZE SUB DUP2 ADD SWAP1 PUSH2 0x18D SWAP2 SWAP1 PUSH2 0x1683 JUMP JUMPDEST PUSH2 0x481 JUMP JUMPDEST PUSH1 0x40 MLOAD PUSH2 0x19F SWAP2 SWAP1 PUSH2 0x1709 JUMP JUMPDEST PUSH1 0x40 MLOAD DUP1 SWAP2 SUB SWAP1 RETURN JUMPDEST PUSH2 0x1C2 PUSH1 0x4 DUP1 CALLDATASIZE SUB DUP2 ADD SWAP1 PUSH2 0x1BD SWAP2 SWAP1 PUSH2 0x15C3 JUMP JUMPDEST PUSH2 0x49B JUMP JUMPDEST PUSH1 0x40 MLOAD PUSH2 0x1CF SWAP2 SWAP1 PUSH2 0x1609 JUMP JUMPDEST PUSH1 0x40 MLOAD DUP1 SWAP2 SUB SWAP1 RETURN JUMPDEST PUSH2 0x1F2 PUSH1 0x4 DUP1 CALLDATASIZE SUB DUP2 ADD SWAP1 PUSH2 0x1ED SWAP2 SWAP1 PUSH2 0x1722 JUMP JUMPDEST PUSH2 0x4B0 JUMP JUMPDEST PUSH1 0x40 MLOAD PUSH2 0x1FF SWAP2 SWAP1 PUSH2 0x1709 JUMP JUMPDEST PUSH1 0x40 MLOAD DUP1 SWAP2 SUB SWAP1 RETURN JUMPDEST PUSH2 0x222 PUSH1 0x4 DUP1 CALLDATASIZE SUB DUP2 ADD SWAP1 PUSH2 0x21D SWAP2 SWAP1 PUSH2 0x15C3 JUMP JUMPDEST PUSH2 0x4C9 JUMP JUMPDEST PUSH1 0x40 MLOAD PUSH2 0x22F SWAP2 SWAP1 PUSH2 0x1609 JUMP JUMPDEST PUSH1 0x40 MLOAD DUP1 SWAP2 SUB SWAP1 RETURN JUMPDEST PUSH2 0x252 PUSH1 0x4 DUP1 CALLDATASIZE SUB DUP2 ADD SWAP1 PUSH2 0x24D SWAP2 SWAP1 PUSH2 0x1786 JUMP JUMPDEST PUSH2 0x4DE JUMP JUMPDEST PUSH1 0x40 MLOAD PUSH2 0x25F SWAP2 SWAP1 PUSH2 0x1709 JUMP JUMPDEST PUSH1 0x40 MLOAD DUP1 SWAP2 SUB SWAP1 RETURN JUMPDEST PUSH2 0x282 PUSH1 0x4 DUP1 CALLDATASIZE SUB DUP2 ADD SWAP1 PUSH2 0x27D SWAP2 SWAP1 PUSH2 0x17D6 JUMP JUMPDEST PUSH2 0x4F6 JUMP JUMPDEST PUSH1 0x40 MLOAD PUSH2 0x28F SWAP2 SWAP1 PUSH2 0x1709 JUMP JUMPDEST PUSH1 0x40 MLOAD DUP1 SWAP2 SUB SWAP1 RETURN JUMPDEST PUSH2 0x2B2 PUSH1 0x4 DUP1 CALLDATASIZE SUB DUP2 ADD SWAP1 PUSH2 0x2AD SWAP2 SWAP1 PUSH2 0x15C3 JUMP JUMPDEST PUSH2 0x85F JUMP JUMPDEST PUSH1 0x40 MLOAD PUSH2 0x2BF SWAP2 SWAP1 PUSH2 0x186E JUMP JUMPDEST PUSH1 0x40 MLOAD DUP1 SWAP2 SUB SWAP1 RETURN JUMPDEST PUSH2 0x2E2 PUSH1 0x4 DUP1 CALLDATASIZE SUB DUP2 ADD SWAP1 PUSH2 0x2DD SWAP2 SWAP1 PUSH2 0x15C3 JUMP JUMPDEST PUSH2 0x973 JUMP JUMPDEST PUSH1 0x40 MLOAD PUSH2 0x2EF SWAP2 SWAP1 PUSH2 0x1609 JUMP JUMPDEST PUSH1 0x40 MLOAD DUP1 SWAP2 SUB SWAP1 RETURN JUMPDEST PUSH2 0x312 PUSH1 0x4 DUP1 CALLDATASIZE SUB DUP2 ADD SWAP1 PUSH2 0x30D SWAP2 SWAP1 PUSH2 0x1887 JUMP JUMPDEST PUSH2 0x988 JUMP JUMPDEST PUSH1 0x40 MLOAD PUSH2 0x31F SWAP2 SWAP1 PUSH2 0x18CC JUMP JUMPDEST PUSH1 0x40 MLOAD DUP1 SWAP2 SUB SWAP1 RETURN JUMPDEST PUSH2 0x330 PUSH2 0x9F2 JUMP JUMPDEST PUSH1 0x40 MLOAD PUSH2 0x33D SWAP2 SWAP1 PUSH2 0x196F JUMP JUMPDEST PUSH1 0x40 MLOAD DUP1 SWAP2 SUB SWAP1 RETURN JUMPDEST PUSH2 0x360 PUSH1 0x4 DUP1 CALLDATASIZE SUB DUP2 ADD SWAP1 PUSH2 0x35B SWAP2 SWAP1 PUSH2 0x15C3 JUMP JUMPDEST PUSH2 0xF91 JUMP JUMPDEST PUSH1 0x40 MLOAD PUSH2 0x36D SWAP2 SWAP1 PUSH2 0x1709 JUMP JUMPDEST PUSH1 0x40 MLOAD DUP1 SWAP2 SUB SWAP1 RETURN JUMPDEST PUSH2 0x390 PUSH1 0x4 DUP1 CALLDATASIZE SUB DUP2 ADD SWAP1 PUSH2 0x38B SWAP2 SWAP1 PUSH2 0x198F JUMP JUMPDEST PUSH2 0xFE4 JUMP JUMPDEST PUSH1 0x40 MLOAD PUSH2 0x39D SWAP2 SWAP1 PUSH2 0x1609 JUMP JUMPDEST PUSH1 0x40 MLOAD DUP1 SWAP2 SUB SWAP1 RETURN JUMPDEST PUSH2 0x3AE PUSH2 0x10AF JUMP JUMPDEST PUSH1 0x40 MLOAD PUSH2 0x3BD SWAP4 SWAP3 SWAP2 SWAP1 PUSH2 0x19CD JUMP JUMPDEST PUSH1 0x40 MLOAD DUP1 SWAP2 SUB SWAP1 RETURN JUMPDEST PUSH2 0x3E0 PUSH1 0x4 DUP1 CALLDATASIZE SUB DUP2 ADD SWAP1 PUSH2 0x3DB SWAP2 SWAP1 PUSH2 0x15C3 JUMP JUMPDEST PUSH2 0x10D8 JUMP JUMPDEST PUSH1 0x40 MLOAD PUSH2 0x3ED SWAP2 SWAP1 PUSH2 0x1AAC JUMP JUMPDEST PUSH1 0x40 MLOAD DUP1 SWAP2 SUB SWAP1 RETURN JUMPDEST PUSH2 0x410 PUSH1 0x4 DUP1 CALLDATASIZE SUB DUP2 ADD SWAP1 PUSH2 0x40B SWAP2 SWAP1 PUSH2 0x15C3 JUMP JUMPDEST PUSH2 0x12E2 JUMP JUMPDEST PUSH1 0x40 MLOAD PUSH2 0x41D SWAP2 SWAP1 PUSH2 0x1609 JUMP JUMPDEST PUSH1 0x40 MLOAD DUP1 SWAP2 SUB SWAP1 RETURN JUMPDEST PUSH0 PUSH1 0x18 PUSH1 0x3C DUP1 DUP5 PUSH2 0x437 SWAP2 SWAP1 PUSH2 0x1B1F JUMP JUMPDEST PUSH2 0x441 SWAP2 SWAP1 PUSH2 0x1B1F JUMP JUMPDEST PUSH2 0x44B SWAP2 SWAP1 PUSH2 0x1B4F JUMP JUMPDEST SWAP1 POP SWAP2 SWAP1 POP JUMP JUMPDEST PUSH0 PUSH1 0x7 PUSH1 0x4 PUSH3 0x15180 DUP5 PUSH2 0x466 SWAP2 SWAP1 PUSH2 0x1B1F JUMP JUMPDEST PUSH2 0x470 SWAP2 SWAP1 PUSH2 0x1B7F JUMP JUMPDEST PUSH2 0x47A SWAP2 SWAP1 PUSH2 0x1B4F JUMP JUMPDEST SWAP1 POP SWAP2 SWAP1 POP JUMP JUMPDEST PUSH0 PUSH2 0x490 DUP7 DUP7 DUP7 DUP7 DUP7 PUSH0 PUSH2 0x4F6 JUMP JUMPDEST SWAP1 POP SWAP6 SWAP5 POP POP POP POP POP JUMP JUMPDEST PUSH0 PUSH2 0x4A5 DUP3 PUSH2 0x10D8 JUMP JUMPDEST PUSH1 0x40 ADD MLOAD SWAP1 POP SWAP2 SWAP1 POP JUMP JUMPDEST PUSH0 PUSH2 0x4BF DUP6 DUP6 DUP6 DUP6 PUSH0 DUP1 PUSH2 0x4F6 JUMP JUMPDEST SWAP1 POP SWAP5 SWAP4 POP POP POP POP JUMP JUMPDEST PUSH0 PUSH1 0x3C DUP3 PUSH2 0x4D7 SWAP2 SWAP1 PUSH2 0x1B4F JUMP JUMPDEST SWAP1 POP SWAP2 SWAP1 POP JUMP JUMPDEST PUSH0 PUSH2 0x4ED DUP5 DUP5 DUP5 PUSH0 DUP1 PUSH0 PUSH2 0x4F6 JUMP JUMPDEST SWAP1 POP SWAP4 SWAP3 POP POP POP JUMP JUMPDEST PUSH0 DUP1 PUSH2 0x7B2 SWAP1 POP JUMPDEST DUP8 PUSH2 0xFFFF AND DUP2 PUSH2 0xFFFF AND LT ISZERO PUSH2 0x559 JUMPI PUSH2 0x517 DUP2 PUSH2 0x988 JUMP JUMPDEST ISZERO PUSH2 0x533 JUMPI PUSH4 0x1E28500 DUP3 PUSH2 0x52C SWAP2 SWAP1 PUSH2 0x1B7F JUMP JUMPDEST SWAP2 POP PUSH2 0x546 JUMP JUMPDEST PUSH4 0x1E13380 DUP3 PUSH2 0x543 SWAP2 SWAP1 PUSH2 0x1B7F JUMP JUMPDEST SWAP2 POP JUMPDEST DUP1 DUP1 PUSH2 0x551 SWAP1 PUSH2 0x1BB2 JUMP JUMPDEST SWAP2 POP POP PUSH2 0x4FE JUMP JUMPDEST PUSH2 0x561 PUSH2 0x151D JUMP JUMPDEST PUSH1 0x1F DUP2 PUSH0 PUSH1 0xC DUP2 LT PUSH2 0x576 JUMPI PUSH2 0x575 PUSH2 0x1BDB JUMP JUMPDEST JUMPDEST PUSH1 0x20 MUL ADD SWAP1 PUSH1 0xFF AND SWAP1 DUP2 PUSH1 0xFF AND DUP2 MSTORE POP POP PUSH2 0x590 DUP10 PUSH2 0x988 JUMP JUMPDEST ISZERO PUSH2 0x5C1 JUMPI PUSH1 0x1D DUP2 PUSH1 0x1 PUSH1 0xC DUP2 LT PUSH2 0x5AB JUMPI PUSH2 0x5AA PUSH2 0x1BDB JUMP JUMPDEST JUMPDEST PUSH1 0x20 MUL ADD SWAP1 PUSH1 0xFF AND SWAP1 DUP2 PUSH1 0xFF AND DUP2 MSTORE POP POP PUSH2 0x5E9 JUMP JUMPDEST PUSH1 0x1C DUP2 PUSH1 0x1 PUSH1 0xC DUP2 LT PUSH2 0x5D7 JUMPI PUSH2 0x5D6 PUSH2 0x1BDB JUMP JUMPDEST JUMPDEST PUSH1 0x20 MUL ADD SWAP1 PUSH1 0xFF AND SWAP1 DUP2 PUSH1 0xFF AND DUP2 MSTORE POP POP JUMPDEST PUSH1 0x1F DUP2 PUSH1 0x2 PUSH1 0xC DUP2 LT PUSH2 0x5FF JUMPI PUSH2 0x5FE PUSH2 0x1BDB JUMP JUMPDEST JUMPDEST PUSH1 0x20 MUL ADD SWAP1 PUSH1 0xFF AND SWAP1 DUP2 PUSH1 0xFF AND DUP2 MSTORE POP POP PUSH1 0x1E DUP2 PUSH1 0x3 PUSH1 0xC DUP2 LT PUSH2 0x626 JUMPI PUSH2 0x625 PUSH2 0x1BDB JUMP JUMPDEST JUMPDEST PUSH1 0x20 MUL ADD SWAP1 PUSH1 0xFF AND SWAP1 DUP2 PUSH1 0xFF AND DUP2 MSTORE POP POP PUSH1 0x1F DUP2 PUSH1 0x4 PUSH1 0xC DUP2 LT PUSH2 0x64D JUMPI PUSH2 0x64C PUSH2 0x1BDB JUMP JUMPDEST JUMPDEST PUSH1 0x20 MUL ADD SWAP1 PUSH1 0xFF AND SWAP1 DUP2 PUSH1 0xFF AND DUP2 MSTORE POP POP PUSH1 0x1E DUP2 PUSH1 0x5 PUSH1 0xC DUP2 LT PUSH2 0x674 JUMPI PUSH2 0x673 PUSH2 0x1BDB JUMP JUMPDEST JUMPDEST PUSH1 0x20 MUL ADD SWAP1 PUSH1 0xFF AND SWAP1 DUP2 PUSH1 0xFF AND DUP2 MSTORE POP POP PUSH1 0x1F DUP2 PUSH1 0x6 PUSH1 0xC DUP2 LT PUSH2 0x69B JUMPI PUSH2 0x69A PUSH2 0x1BDB JUMP JUMPDEST JUMPDEST PUSH1 0x20 MUL ADD SWAP1 PUSH1 0xFF AND SWAP1 DUP2 PUSH1 0xFF AND DUP2 MSTORE POP POP PUSH1 0x1F DUP2 PUSH1 0x7 PUSH1 0xC DUP2 LT PUSH2 0x6C2 JUMPI PUSH2 0x6C1 PUSH2 0x1BDB JUMP JUMPDEST JUMPDEST PUSH1 0x20 MUL ADD SWAP1 PUSH1 0xFF AND SWAP1 DUP2 PUSH1 0xFF AND DUP2 MSTORE POP POP PUSH1 0x1E DUP2 PUSH1 0x8 PUSH1 0xC DUP2 LT PUSH2 0x6E9 JUMPI PUSH2 0x6E8 PUSH2 0x1BDB JUMP JUMPDEST JUMPDEST PUSH1 0x20 MUL ADD SWAP1 PUSH1 0xFF AND SWAP1 DUP2 PUSH1 0xFF AND DUP2 MSTORE POP POP PUSH1 0x1F DUP2 PUSH1 0x9 PUSH1 0xC DUP2 LT PUSH2 0x710 JUMPI PUSH2 0x70F PUSH2 0x1BDB JUMP JUMPDEST JUMPDEST PUSH1 0x20 MUL ADD SWAP1 PUSH1 0xFF AND SWAP1 DUP2 PUSH1 0xFF AND DUP2 MSTORE POP POP PUSH1 0x1E DUP2 PUSH1 0xA PUSH1 0xC DUP2 LT PUSH2 0x737 JUMPI PUSH2 0x736 PUSH2 0x1BDB JUMP JUMPDEST JUMPDEST PUSH1 0x20 MUL ADD SWAP1 PUSH1 0xFF AND SWAP1 DUP2 PUSH1 0xFF AND DUP2 MSTORE POP POP PUSH1 0x1F DUP2 PUSH1 0xB PUSH1 0xC DUP2 LT PUSH2 0x75E JUMPI PUSH2 0x75D PUSH2 0x1BDB JUMP JUMPDEST JUMPDEST PUSH1 0x20 MUL ADD SWAP1 PUSH1 0xFF AND SWAP1 DUP2 PUSH1 0xFF AND DUP2 MSTORE POP POP PUSH1 0x1 SWAP2 POP JUMPDEST DUP8 PUSH1 0xFF AND DUP3 PUSH2 0xFFFF AND LT ISZERO PUSH2 0x7DC JUMPI DUP1 PUSH1 0x1 DUP4 PUSH2 0x791 SWAP2 SWAP1 PUSH2 0x1C08 JUMP JUMPDEST PUSH2 0xFFFF AND PUSH1 0xC DUP2 LT PUSH2 0x7A6 JUMPI PUSH2 0x7A5 PUSH2 0x1BDB JUMP JUMPDEST JUMPDEST PUSH1 0x20 MUL ADD MLOAD PUSH1 0xFF AND PUSH3 0x15180 PUSH2 0x7BC SWAP2 SWAP1 PUSH2 0x1C3D JUMP JUMPDEST DUP4 PUSH2 0x7C7 SWAP2 SWAP1 PUSH2 0x1B7F JUMP JUMPDEST SWAP3 POP DUP2 DUP1 PUSH2 0x7D4 SWAP1 PUSH2 0x1BB2 JUMP JUMPDEST SWAP3 POP POP PUSH2 0x774 JUMP JUMPDEST PUSH1 0x1 DUP8 PUSH2 0x7E9 SWAP2 SWAP1 PUSH2 0x1C7E JUMP JUMPDEST PUSH1 0xFF AND PUSH3 0x15180 PUSH2 0x7FA SWAP2 SWAP1 PUSH2 0x1C3D JUMP JUMPDEST DUP4 PUSH2 0x805 SWAP2 SWAP1 PUSH2 0x1B7F JUMP JUMPDEST SWAP3 POP DUP6 PUSH1 0xFF AND PUSH2 0xE10 PUSH2 0x818 SWAP2 SWAP1 PUSH2 0x1C3D JUMP JUMPDEST DUP4 PUSH2 0x823 SWAP2 SWAP1 PUSH2 0x1B7F JUMP JUMPDEST SWAP3 POP DUP5 PUSH1 0xFF AND PUSH1 0x3C PUSH2 0x835 SWAP2 SWAP1 PUSH2 0x1C3D JUMP JUMPDEST DUP4 PUSH2 0x840 SWAP2 SWAP1 PUSH2 0x1B7F JUMP JUMPDEST SWAP3 POP DUP4 PUSH1 0xFF AND DUP4 PUSH2 0x851 SWAP2 SWAP1 PUSH2 0x1B7F JUMP JUMPDEST SWAP3 POP POP POP SWAP7 SWAP6 POP POP POP POP POP POP JUMP JUMPDEST PUSH0 DUP1 PUSH0 SWAP1 POP PUSH0 DUP1 PUSH4 0x1E13380 DUP6 PUSH2 0x876 SWAP2 SWAP1 PUSH2 0x1B1F JUMP JUMPDEST PUSH2 0x7B2 PUSH2 0xFFFF AND PUSH2 0x887 SWAP2 SWAP1 PUSH2 0x1B7F JUMP JUMPDEST SWAP2 POP PUSH2 0x898 PUSH2 0x7B2 PUSH2 0xFFFF AND PUSH2 0xF91 JUMP JUMPDEST PUSH2 0x8A5 DUP4 PUSH2 0xFFFF AND PUSH2 0xF91 JUMP JUMPDEST PUSH2 0x8AF SWAP2 SWAP1 PUSH2 0x1CB2 JUMP JUMPDEST SWAP1 POP DUP1 PUSH4 0x1E28500 PUSH2 0x8C1 SWAP2 SWAP1 PUSH2 0x1C3D JUMP JUMPDEST DUP4 PUSH2 0x8CC SWAP2 SWAP1 PUSH2 0x1B7F JUMP JUMPDEST SWAP3 POP DUP1 PUSH2 0x7B2 DUP4 PUSH2 0x8DD SWAP2 SWAP1 PUSH2 0x1C08 JUMP JUMPDEST PUSH2 0xFFFF AND PUSH2 0x8EB SWAP2 SWAP1 PUSH2 0x1CB2 JUMP JUMPDEST PUSH4 0x1E13380 PUSH2 0x8FA SWAP2 SWAP1 PUSH2 0x1C3D JUMP JUMPDEST DUP4 PUSH2 0x905 SWAP2 SWAP1 PUSH2 0x1B7F JUMP JUMPDEST SWAP3 POP JUMPDEST DUP5 DUP4 GT ISZERO PUSH2 0x968 JUMPI PUSH2 0x925 PUSH1 0x1 DUP4 PUSH2 0x920 SWAP2 SWAP1 PUSH2 0x1C08 JUMP JUMPDEST PUSH2 0x988 JUMP JUMPDEST ISZERO PUSH2 0x941 JUMPI PUSH4 0x1E28500 DUP4 PUSH2 0x93A SWAP2 SWAP1 PUSH2 0x1CB2 JUMP JUMPDEST SWAP3 POP PUSH2 0x954 JUMP JUMPDEST PUSH4 0x1E13380 DUP4 PUSH2 0x951 SWAP2 SWAP1 PUSH2 0x1CB2 JUMP JUMPDEST SWAP3 POP JUMPDEST PUSH1 0x1 DUP3 PUSH2 0x961 SWAP2 SWAP1 PUSH2 0x1C08 JUMP JUMPDEST SWAP2 POP PUSH2 0x908 JUMP JUMPDEST DUP2 SWAP4 POP POP POP POP SWAP2 SWAP1 POP JUMP JUMPDEST PUSH0 PUSH2 0x97D DUP3 PUSH2 0x10D8 JUMP JUMPDEST PUSH1 0x20 ADD MLOAD SWAP1 POP SWAP2 SWAP1 POP JUMP JUMPDEST PUSH0 DUP1 PUSH1 0x4 DUP4 PUSH2 0x997 SWAP2 SWAP1 PUSH2 0x1CE5 JUMP JUMPDEST PUSH2 0xFFFF AND EQ PUSH2 0x9A8 JUMPI PUSH0 SWAP1 POP PUSH2 0x9ED JUMP JUMPDEST PUSH0 PUSH1 0x64 DUP4 PUSH2 0x9B6 SWAP2 SWAP1 PUSH2 0x1CE5 JUMP JUMPDEST PUSH2 0xFFFF AND EQ PUSH2 0x9C8 JUMPI PUSH1 0x1 SWAP1 POP PUSH2 0x9ED JUMP JUMPDEST PUSH0 PUSH2 0x190 DUP4 PUSH2 0x9D7 SWAP2 SWAP1 PUSH2 0x1CE5 JUMP JUMPDEST PUSH2 0xFFFF AND EQ PUSH2 0x9E8 JUMPI PUSH0 SWAP1 POP PUSH2 0x9ED JUMP JUMPDEST PUSH1 0x1 SWAP1 POP JUMPDEST SWAP2 SWAP1 POP JUMP JUMPDEST PUSH1 0x60 PUSH0 DUP1 PUSH0 PUSH2 0x9FF PUSH2 0x10AF JUMP JUMPDEST SWAP3 POP SWAP3 POP SWAP3 POP PUSH0 PUSH2 0xA13 DUP5 PUSH2 0xFFFF AND PUSH2 0x1302 JUMP JUMPDEST SWAP1 POP PUSH0 PUSH2 0xA22 DUP5 PUSH1 0xFF AND PUSH2 0x1302 JUMP JUMPDEST SWAP1 POP PUSH0 PUSH2 0xA31 DUP5 PUSH1 0xFF AND PUSH2 0x1302 JUMP JUMPDEST SWAP1 POP PUSH0 PUSH1 0xA PUSH8 0xFFFFFFFFFFFFFFFF DUP2 GT ISZERO PUSH2 0xA4F JUMPI PUSH2 0xA4E PUSH2 0x1D15 JUMP JUMPDEST JUMPDEST PUSH1 0x40 MLOAD SWAP1 DUP1 DUP3 MSTORE DUP1 PUSH1 0x1F ADD PUSH1 0x1F NOT AND PUSH1 0x20 ADD DUP3 ADD PUSH1 0x40 MSTORE DUP1 ISZERO PUSH2 0xA81 JUMPI DUP2 PUSH1 0x20 ADD PUSH1 0x1 DUP3 MUL DUP1 CALLDATASIZE DUP4 CALLDATACOPY DUP1 DUP3 ADD SWAP2 POP POP SWAP1 POP JUMPDEST POP SWAP1 POP DUP4 PUSH0 DUP2 MLOAD DUP2 LT PUSH2 0xA97 JUMPI PUSH2 0xA96 PUSH2 0x1BDB JUMP JUMPDEST JUMPDEST PUSH1 0x20 ADD ADD MLOAD PUSH1 0xF8 SHR PUSH1 0xF8 SHL DUP2 PUSH0 DUP2 MLOAD DUP2 LT PUSH2 0xAB5 JUMPI PUSH2 0xAB4 PUSH2 0x1BDB JUMP JUMPDEST JUMPDEST PUSH1 0x20 ADD ADD SWAP1 PUSH31 0xFFFFFFFFFFFFFFFFFFFFFFFFFFFFFFFFFFFFFFFFFFFFFFFFFFFFFFFFFFFFFF NOT AND SWAP1 DUP2 PUSH0 BYTE SWAP1 MSTORE8 POP DUP4 PUSH1 0x1 DUP2 MLOAD DUP2 LT PUSH2 0xAF7 JUMPI PUSH2 0xAF6 PUSH2 0x1BDB JUMP JUMPDEST JUMPDEST PUSH1 0x20 ADD ADD MLOAD PUSH1 0xF8 SHR PUSH1 0xF8 SHL DUP2 PUSH1 0x1 DUP2 MLOAD DUP2 LT PUSH2 0xB16 JUMPI PUSH2 0xB15 PUSH2 0x1BDB JUMP JUMPDEST JUMPDEST PUSH1 0x20 ADD ADD SWAP1 PUSH31 0xFFFFFFFFFFFFFFFFFFFFFFFFFFFFFFFFFFFFFFFFFFFFFFFFFFFFFFFFFFFFFF NOT AND SWAP1 DUP2 PUSH0 BYTE SWAP1 MSTORE8 POP DUP4 PUSH1 0x2 DUP2 MLOAD DUP2 LT PUSH2 0xB58 JUMPI PUSH2 0xB57 PUSH2 0x1BDB JUMP JUMPDEST JUMPDEST PUSH1 0x20 ADD ADD MLOAD PUSH1 0xF8 SHR PUSH1 0xF8 SHL DUP2 PUSH1 0x2 DUP2 MLOAD DUP2 LT PUSH2 0xB77 JUMPI PUSH2 0xB76 PUSH2 0x1BDB JUMP JUMPDEST JUMPDEST PUSH1 0x20 ADD ADD SWAP1 PUSH31 0xFFFFFFFFFFFFFFFFFFFFFFFFFFFFFFFFFFFFFFFFFFFFFFFFFFFFFFFFFFFFFF NOT AND SWAP1 DUP2 PUSH0 BYTE SWAP1 MSTORE8 POP DUP4 PUSH1 0x3 DUP2 MLOAD DUP2 LT PUSH2 0xBB9 JUMPI PUSH2 0xBB8 PUSH2 0x1BDB JUMP JUMPDEST JUMPDEST PUSH1 0x20 ADD ADD MLOAD PUSH1 0xF8 SHR PUSH1 0xF8 SHL DUP2 PUSH1 0x3 DUP2 MLOAD DUP2 LT PUSH2 0xBD8 JUMPI PUSH2 0xBD7 PUSH2 0x1BDB JUMP JUMPDEST JUMPDEST PUSH1 0x20 ADD ADD SWAP1 PUSH31 0xFFFFFFFFFFFFFFFFFFFFFFFFFFFFFFFFFFFFFFFFFFFFFFFFFFFFFFFFFFFFFF NOT AND SWAP1 DUP2 PUSH0 BYTE SWAP1 MSTORE8 POP PUSH1 0x2D PUSH1 0xF8 SHL DUP2 PUSH1 0x4 DUP2 MLOAD DUP2 LT PUSH2 0xC1F JUMPI PUSH2 0xC1E PUSH2 0x1BDB JUMP JUMPDEST JUMPDEST PUSH1 0x20 ADD ADD SWAP1 PUSH31 0xFFFFFFFFFFFFFFFFFFFFFFFFFFFFFFFFFFFFFFFFFFFFFFFFFFFFFFFFFFFFFF NOT AND SWAP1 DUP2 PUSH0 BYTE SWAP1 MSTORE8 POP PUSH1 0x1 DUP4 MLOAD GT ISZERO PUSH2 0xD1D JUMPI DUP3 PUSH0 DUP2 MLOAD DUP2 LT PUSH2 0xC6A JUMPI PUSH2 0xC69 PUSH2 0x1BDB JUMP JUMPDEST JUMPDEST PUSH1 0x20 ADD ADD MLOAD PUSH1 0xF8 SHR PUSH1 0xF8 SHL DUP2 PUSH1 0x5 DUP2 MLOAD DUP2 LT PUSH2 0xC89 JUMPI PUSH2 0xC88 PUSH2 0x1BDB JUMP JUMPDEST JUMPDEST PUSH1 0x20 ADD ADD SWAP1 PUSH31 0xFFFFFFFFFFFFFFFFFFFFFFFFFFFFFFFFFFFFFFFFFFFFFFFFFFFFFFFFFFFFFF NOT AND SWAP1 DUP2 PUSH0 BYTE SWAP1 MSTORE8 POP DUP3 PUSH1 0x1 DUP2 MLOAD DUP2 LT PUSH2 0xCCB JUMPI PUSH2 0xCCA PUSH2 0x1BDB JUMP JUMPDEST JUMPDEST PUSH1 0x20 ADD ADD MLOAD PUSH1 0xF8 SHR PUSH1 0xF8 SHL DUP2 PUSH1 0x6 DUP2 MLOAD DUP2 LT PUSH2 0xCEA JUMPI PUSH2 0xCE9 PUSH2 0x1BDB JUMP JUMPDEST JUMPDEST PUSH1 0x20 ADD ADD SWAP1 PUSH31 0xFFFFFFFFFFFFFFFFFFFFFFFFFFFFFFFFFFFFFFFFFFFFFFFFFFFFFFFFFFFFFF NOT AND SWAP1 DUP2 PUSH0 BYTE SWAP1 MSTORE8 POP PUSH2 0xDC5 JUMP JUMPDEST PUSH1 0x30 PUSH1 0xF8 SHL DUP2 PUSH1 0x5 DUP2 MLOAD DUP2 LT PUSH2 0xD36 JUMPI PUSH2 0xD35 PUSH2 0x1BDB JUMP JUMPDEST JUMPDEST PUSH1 0x20 ADD ADD SWAP1 PUSH31 0xFFFFFFFFFFFFFFFFFFFFFFFFFFFFFFFFFFFFFFFFFFFFFFFFFFFFFFFFFFFFFF NOT AND SWAP1 DUP2 PUSH0 BYTE SWAP1 MSTORE8 POP DUP3 PUSH0 DUP2 MLOAD DUP2 LT PUSH2 0xD77 JUMPI PUSH2 0xD76 PUSH2 0x1BDB JUMP JUMPDEST JUMPDEST PUSH1 0x20 ADD ADD MLOAD PUSH1 0xF8 SHR PUSH1 0xF8 SHL DUP2 PUSH1 0x6 DUP2 MLOAD DUP2 LT PUSH2 0xD96 JUMPI PUSH2 0xD95 PUSH2 0x1BDB JUMP JUMPDEST JUMPDEST PUSH1 0x20 ADD ADD SWAP1 PUSH31 0xFFFFFFFFFFFFFFFFFFFFFFFFFFFFFFFFFFFFFFFFFFFFFFFFFFFFFFFFFFFFFF NOT AND SWAP1 DUP2 PUSH0 BYTE SWAP1 MSTORE8 POP JUMPDEST PUSH1 0x2D PUSH1 0xF8 SHL DUP2 PUSH1 0x7 DUP2 MLOAD DUP2 LT PUSH2 0xDDE JUMPI PUSH2 0xDDD PUSH2 0x1BDB JUMP JUMPDEST JUMPDEST PUSH1 0x20 ADD ADD SWAP1 PUSH31 0xFFFFFFFFFFFFFFFFFFFFFFFFFFFFFFFFFFFFFFFFFFFFFFFFFFFFFFFFFFFFFF NOT AND SWAP1 DUP2 PUSH0 BYTE SWAP1 MSTORE8 POP PUSH1 0x1 DUP3 MLOAD GT ISZERO PUSH2 0xEDC JUMPI DUP2 PUSH0 DUP2 MLOAD DUP2 LT PUSH2 0xE29 JUMPI PUSH2 0xE28 PUSH2 0x1BDB JUMP JUMPDEST JUMPDEST PUSH1 0x20 ADD ADD MLOAD PUSH1 0xF8 SHR PUSH1 0xF8 SHL DUP2 PUSH1 0x8 DUP2 MLOAD DUP2 LT PUSH2 0xE48 JUMPI PUSH2 0xE47 PUSH2 0x1BDB JUMP JUMPDEST JUMPDEST PUSH1 0x20 ADD ADD SWAP1 PUSH31 0xFFFFFFFFFFFFFFFFFFFFFFFFFFFFFFFFFFFFFFFFFFFFFFFFFFFFFFFFFFFFFF NOT AND SWAP1 DUP2 PUSH0 BYTE SWAP1 MSTORE8 POP DUP2 PUSH1 0x1 DUP2 MLOAD DUP2 LT PUSH2 0xE8A JUMPI PUSH2 0xE89 PUSH2 0x1BDB JUMP JUMPDEST JUMPDEST PUSH1 0x20 ADD ADD MLOAD PUSH1 0xF8 SHR PUSH1 0xF8 SHL DUP2 PUSH1 0x9 DUP2 MLOAD DUP2 LT PUSH2 0xEA9 JUMPI PUSH2 0xEA8 PUSH2 0x1BDB JUMP JUMPDEST JUMPDEST PUSH1 0x20 ADD ADD SWAP1 PUSH31 0xFFFFFFFFFFFFFFFFFFFFFFFFFFFFFFFFFFFFFFFFFFFFFFFFFFFFFFFFFFFFFF NOT AND SWAP1 DUP2 PUSH0 BYTE SWAP1 MSTORE8 POP PUSH2 0xF84 JUMP JUMPDEST PUSH1 0x30 PUSH1 0xF8 SHL DUP2 PUSH1 0x8 DUP2 MLOAD DUP2 LT PUSH2 0xEF5 JUMPI PUSH2 0xEF4 PUSH2 0x1BDB JUMP JUMPDEST JUMPDEST PUSH1 0x20 ADD ADD SWAP1 PUSH31 0xFFFFFFFFFFFFFFFFFFFFFFFFFFFFFFFFFFFFFFFFFFFFFFFFFFFFFFFFFFFFFF NOT AND SWAP1 DUP2 PUSH0 BYTE SWAP1 MSTORE8 POP DUP2 PUSH0 DUP2 MLOAD DUP2 LT PUSH2 0xF36 JUMPI PUSH2 0xF35 PUSH2 0x1BDB JUMP JUMPDEST JUMPDEST PUSH1 0x20 ADD ADD MLOAD PUSH1 0xF8 SHR PUSH1 0xF8 SHL DUP2 PUSH1 0x9 DUP2 MLOAD DUP2 LT PUSH2 0xF55 JUMPI PUSH2 0xF54 PUSH2 0x1BDB JUMP JUMPDEST JUMPDEST PUSH1 0x20 ADD ADD SWAP1 PUSH31 0xFFFFFFFFFFFFFFFFFFFFFFFFFFFFFFFFFFFFFFFFFFFFFFFFFFFFFFFFFFFFFF NOT AND SWAP1 DUP2 PUSH0 BYTE SWAP1 MSTORE8 POP JUMPDEST DUP1 SWAP8 POP POP POP POP POP POP POP POP SWAP1 JUMP JUMPDEST PUSH0 PUSH1 0x1 DUP3 PUSH2 0xF9F SWAP2 SWAP1 PUSH2 0x1CB2 JUMP JUMPDEST SWAP2 POP PUSH2 0x190 DUP3 PUSH2 0xFAF SWAP2 SWAP1 PUSH2 0x1B1F JUMP JUMPDEST PUSH1 0x64 DUP4 PUSH2 0xFBC SWAP2 SWAP1 PUSH2 0x1B1F JUMP JUMPDEST PUSH1 0x4 DUP5 PUSH2 0xFC9 SWAP2 SWAP1 PUSH2 0x1B1F JUMP JUMPDEST PUSH2 0xFD3 SWAP2 SWAP1 PUSH2 0x1CB2 JUMP JUMPDEST PUSH2 0xFDD SWAP2 SWAP1 PUSH2 0x1B7F JUMP JUMPDEST SWAP1 POP SWAP2 SWAP1 POP JUMP JUMPDEST PUSH0 PUSH1 0x1 DUP4 PUSH1 0xFF AND EQ DUP1 PUSH2 0xFFA JUMPI POP PUSH1 0x3 DUP4 PUSH1 0xFF AND EQ JUMPDEST DUP1 PUSH2 0x1008 JUMPI POP PUSH1 0x5 DUP4 PUSH1 0xFF AND EQ JUMPDEST DUP1 PUSH2 0x1016 JUMPI POP PUSH1 0x7 DUP4 PUSH1 0xFF AND EQ JUMPDEST DUP1 PUSH2 0x1024 JUMPI POP PUSH1 0x8 DUP4 PUSH1 0xFF AND EQ JUMPDEST DUP1 PUSH2 0x1032 JUMPI POP PUSH1 0xA DUP4 PUSH1 0xFF AND EQ JUMPDEST DUP1 PUSH2 0x1040 JUMPI POP PUSH1 0xC DUP4 PUSH1 0xFF AND EQ JUMPDEST ISZERO PUSH2 0x104E JUMPI PUSH1 0x1F SWAP1 POP PUSH2 0x10A9 JUMP JUMPDEST PUSH1 0x4 DUP4 PUSH1 0xFF AND EQ DUP1 PUSH2 0x1063 JUMPI POP PUSH1 0x6 DUP4 PUSH1 0xFF AND EQ JUMPDEST DUP1 PUSH2 0x1071 JUMPI POP PUSH1 0x9 DUP4 PUSH1 0xFF AND EQ JUMPDEST DUP1 PUSH2 0x107F JUMPI POP PUSH1 0xB DUP4 PUSH1 0xFF AND EQ JUMPDEST ISZERO PUSH2 0x108D JUMPI PUSH1 0x1E SWAP1 POP PUSH2 0x10A9 JUMP JUMPDEST PUSH2 0x1096 DUP3 PUSH2 0x988 JUMP JUMPDEST ISZERO PUSH2 0x10A4 JUMPI PUSH1 0x1D SWAP1 POP PUSH2 0x10A9 JUMP JUMPDEST PUSH1 0x1C SWAP1 POP JUMPDEST SWAP3 SWAP2 POP POP JUMP JUMPDEST PUSH0 DUP1 PUSH0 DUP1 PUSH2 0x10BC TIMESTAMP PUSH2 0x10D8 JUMP JUMPDEST SWAP1 POP DUP1 PUSH0 ADD MLOAD DUP2 PUSH1 0x20 ADD MLOAD DUP3 PUSH1 0x40 ADD MLOAD SWAP4 POP SWAP4 POP SWAP4 POP POP SWAP1 SWAP2 SWAP3 JUMP JUMPDEST PUSH2 0x10E0 PUSH2 0x1540 JUMP JUMPDEST PUSH0 DUP1 DUP1 PUSH2 0x10EC DUP6 PUSH2 0x85F JUMP JUMPDEST DUP5 PUSH0 ADD SWAP1 PUSH2 0xFFFF AND SWAP1 DUP2 PUSH2 0xFFFF AND DUP2 MSTORE POP POP PUSH2 0x110D PUSH2 0x7B2 PUSH2 0xFFFF AND PUSH2 0xF91 JUMP JUMPDEST PUSH2 0x111D DUP6 PUSH0 ADD MLOAD PUSH2 0xFFFF AND PUSH2 0xF91 JUMP JUMPDEST PUSH2 0x1127 SWAP2 SWAP1 PUSH2 0x1CB2 JUMP JUMPDEST SWAP2 POP DUP2 PUSH4 0x1E28500 PUSH2 0x1139 SWAP2 SWAP1 PUSH2 0x1C3D JUMP JUMPDEST DUP4 PUSH2 0x1144 SWAP2 SWAP1 PUSH2 0x1B7F JUMP JUMPDEST SWAP3 POP DUP2 PUSH2 0x7B2 DUP6 PUSH0 ADD MLOAD PUSH2 0x1158 SWAP2 SWAP1 PUSH2 0x1C08 JUMP JUMPDEST PUSH2 0xFFFF AND PUSH2 0x1166 SWAP2 SWAP1 PUSH2 0x1CB2 JUMP JUMPDEST PUSH4 0x1E13380 PUSH2 0x1175 SWAP2 SWAP1 PUSH2 0x1C3D JUMP JUMPDEST DUP4 PUSH2 0x1180 SWAP2 SWAP1 PUSH2 0x1B7F JUMP JUMPDEST SWAP3 POP PUSH0 PUSH1 0x1 SWAP2 POP JUMPDEST PUSH1 0xC DUP3 PUSH1 0xFF AND GT PUSH2 0x11FE JUMPI PUSH2 0x11A0 DUP3 DUP7 PUSH0 ADD MLOAD PUSH2 0xFE4 JUMP JUMPDEST PUSH1 0xFF AND PUSH3 0x15180 PUSH2 0x11B1 SWAP2 SWAP1 PUSH2 0x1C3D JUMP JUMPDEST SWAP1 POP DUP6 DUP5 DUP3 PUSH2 0x11C0 SWAP2 SWAP1 PUSH2 0x1B7F JUMP JUMPDEST GT ISZERO PUSH2 0x11DD JUMPI DUP2 DUP6 PUSH1 0x20 ADD SWAP1 PUSH1 0xFF AND SWAP1 DUP2 PUSH1 0xFF AND DUP2 MSTORE POP POP PUSH2 0x11FE JUMP JUMPDEST DUP1 DUP5 PUSH2 0x11E9 SWAP2 SWAP1 PUSH2 0x1B7F JUMP JUMPDEST SWAP4 POP DUP2 DUP1 PUSH2 0x11F6 SWAP1 PUSH2 0x1D42 JUMP JUMPDEST SWAP3 POP POP PUSH2 0x1188 JUMP JUMPDEST PUSH1 0x1 SWAP2 POP JUMPDEST PUSH2 0x1214 DUP6 PUSH1 0x20 ADD MLOAD DUP7 PUSH0 ADD MLOAD PUSH2 0xFE4 JUMP JUMPDEST PUSH1 0xFF AND DUP3 PUSH1 0xFF AND GT PUSH2 0x1271 JUMPI DUP6 DUP5 PUSH3 0x15180 PUSH2 0x1230 SWAP2 SWAP1 PUSH2 0x1B7F JUMP JUMPDEST GT ISZERO PUSH2 0x124D JUMPI DUP2 DUP6 PUSH1 0x40 ADD SWAP1 PUSH1 0xFF AND SWAP1 DUP2 PUSH1 0xFF AND DUP2 MSTORE POP POP PUSH2 0x1271 JUMP JUMPDEST PUSH3 0x15180 DUP5 PUSH2 0x125C SWAP2 SWAP1 PUSH2 0x1B7F JUMP JUMPDEST SWAP4 POP DUP2 DUP1 PUSH2 0x1269 SWAP1 PUSH2 0x1D42 JUMP JUMPDEST SWAP3 POP POP PUSH2 0x1203 JUMP JUMPDEST PUSH2 0x127A DUP7 PUSH2 0x426 JUMP JUMPDEST DUP6 PUSH1 0x60 ADD SWAP1 PUSH1 0xFF AND SWAP1 DUP2 PUSH1 0xFF AND DUP2 MSTORE POP POP PUSH2 0x1294 DUP7 PUSH2 0x12E2 JUMP JUMPDEST DUP6 PUSH1 0x80 ADD SWAP1 PUSH1 0xFF AND SWAP1 DUP2 PUSH1 0xFF AND DUP2 MSTORE POP POP PUSH2 0x12AE DUP7 PUSH2 0x4C9 JUMP JUMPDEST DUP6 PUSH1 0xA0 ADD SWAP1 PUSH1 0xFF AND SWAP1 DUP2 PUSH1 0xFF AND DUP2 MSTORE POP POP PUSH2 0x12C8 DUP7 PUSH2 0x452 JUMP JUMPDEST DUP6 PUSH1 0xC0 ADD SWAP1 PUSH1 0xFF AND SWAP1 DUP2 PUSH1 0xFF AND DUP2 MSTORE POP POP POP POP POP POP SWAP2 SWAP1 POP JUMP JUMPDEST PUSH0 PUSH1 0x3C DUP1 DUP4 PUSH2 0x12F1 SWAP2 SWAP1 PUSH2 0x1B1F JUMP JUMPDEST PUSH2 0x12FB SWAP2 SWAP1 PUSH2 0x1B4F JUMP JUMPDEST SWAP1 POP SWAP2 SWAP1 POP JUMP JUMPDEST PUSH1 0x60 PUSH0 PUSH1 0x1 PUSH2 0x1310 DUP5 PUSH2 0x13CC JUMP JUMPDEST ADD SWAP1 POP PUSH0 DUP2 PUSH8 0xFFFFFFFFFFFFFFFF DUP2 GT ISZERO PUSH2 0x132E JUMPI PUSH2 0x132D PUSH2 0x1D15 JUMP JUMPDEST JUMPDEST PUSH1 0x40 MLOAD SWAP1 DUP1 DUP3 MSTORE DUP1 PUSH1 0x1F ADD PUSH1 0x1F NOT AND PUSH1 0x20 ADD DUP3 ADD PUSH1 0x40 MSTORE DUP1 ISZERO PUSH2 0x1360 JUMPI DUP2 PUSH1 0x20 ADD PUSH1 0x1 DUP3 MUL DUP1 CALLDATASIZE DUP4 CALLDATACOPY DUP1 DUP3 ADD SWAP2 POP POP SWAP1 POP JUMPDEST POP SWAP1 POP PUSH0 DUP3 PUSH1 0x20 ADD DUP3 ADD SWAP1 POP JUMPDEST PUSH1 0x1 ISZERO PUSH2 0x13C1 JUMPI DUP1 DUP1 PUSH1 0x1 SWAP1 SUB SWAP2 POP POP PUSH32 0x3031323334353637383961626364656600000000000000000000000000000000 PUSH1 0xA DUP7 MOD BYTE DUP2 MSTORE8 PUSH1 0xA DUP6 DUP2 PUSH2 0x13B6 JUMPI PUSH2 0x13B5 PUSH2 0x1AC5 JUMP JUMPDEST JUMPDEST DIV SWAP5 POP PUSH0 DUP6 SUB PUSH2 0x136D JUMPI JUMPDEST DUP2 SWAP4 POP POP POP POP SWAP2 SWAP1 POP JUMP JUMPDEST PUSH0 DUP1 PUSH0 SWAP1 POP PUSH27 0x184F03E93FF9F4DAA797ED6E38ED64BF6A1F010000000000000000 DUP4 LT PUSH2 0x1428 JUMPI PUSH27 0x184F03E93FF9F4DAA797ED6E38ED64BF6A1F010000000000000000 DUP4 DUP2 PUSH2 0x141E JUMPI PUSH2 0x141D PUSH2 0x1AC5 JUMP JUMPDEST JUMPDEST DIV SWAP3 POP PUSH1 0x40 DUP2 ADD SWAP1 POP JUMPDEST PUSH14 0x4EE2D6D415B85ACEF8100000000 DUP4 LT PUSH2 0x1465 JUMPI PUSH14 0x4EE2D6D415B85ACEF8100000000 DUP4 DUP2 PUSH2 0x145B JUMPI PUSH2 0x145A PUSH2 0x1AC5 JUMP JUMPDEST JUMPDEST DIV SWAP3 POP PUSH1 0x20 DUP2 ADD SWAP1 POP JUMPDEST PUSH7 0x2386F26FC10000 DUP4 LT PUSH2 0x1494 JUMPI PUSH7 0x2386F26FC10000 DUP4 DUP2 PUSH2 0x148A JUMPI PUSH2 0x1489 PUSH2 0x1AC5 JUMP JUMPDEST JUMPDEST DIV SWAP3 POP PUSH1 0x10 DUP2 ADD SWAP1 POP JUMPDEST PUSH4 0x5F5E100 DUP4 LT PUSH2 0x14BD JUMPI PUSH4 0x5F5E100 DUP4 DUP2 PUSH2 0x14B3 JUMPI PUSH2 0x14B2 PUSH2 0x1AC5 JUMP JUMPDEST JUMPDEST DIV SWAP3 POP PUSH1 0x8 DUP2 ADD SWAP1 POP JUMPDEST PUSH2 0x2710 DUP4 LT PUSH2 0x14E2 JUMPI PUSH2 0x2710 DUP4 DUP2 PUSH2 0x14D8 JUMPI PUSH2 0x14D7 PUSH2 0x1AC5 JUMP JUMPDEST JUMPDEST DIV SWAP3 POP PUSH1 0x4 DUP2 ADD SWAP1 POP JUMPDEST PUSH1 0x64 DUP4 LT PUSH2 0x1505 JUMPI PUSH1 0x64 DUP4 DUP2 PUSH2 0x14FB JUMPI PUSH2 0x14FA PUSH2 0x1AC5 JUMP JUMPDEST JUMPDEST DIV SWAP3 POP PUSH1 0x2 DUP2 ADD SWAP1 POP JUMPDEST PUSH1 0xA DUP4 LT PUSH2 0x1514 JUMPI PUSH1 0x1 DUP2 ADD SWAP1 POP JUMPDEST DUP1 SWAP2 POP POP SWAP2 SWAP1 POP JUMP JUMPDEST PUSH1 0x40 MLOAD DUP1 PUSH2 0x180 ADD PUSH1 0x40 MSTORE DUP1 PUSH1 0xC SWAP1 PUSH1 0x20 DUP3 MUL DUP1 CALLDATASIZE DUP4 CALLDATACOPY DUP1 DUP3 ADD SWAP2 POP POP SWAP1 POP POP SWAP1 JUMP JUMPDEST PUSH1 0x40 MLOAD DUP1 PUSH1 0xE0 ADD PUSH1 0x40 MSTORE DUP1 PUSH0 PUSH2 0xFFFF AND DUP2 MSTORE PUSH1 0x20 ADD PUSH0 PUSH1 0xFF AND DUP2 MSTORE PUSH1 0x20 ADD PUSH0 PUSH1 0xFF AND DUP2 MSTORE PUSH1 0x20 ADD PUSH0 PUSH1 0xFF AND DUP2 MSTORE PUSH1 0x20 ADD PUSH0 PUSH1 0xFF AND DUP2 MSTORE PUSH1 0x20 ADD PUSH0 PUSH1 0xFF AND DUP2 MSTORE PUSH1 0x20 ADD PUSH0 PUSH1 0xFF AND DUP2 MSTORE POP SWAP1 JUMP JUMPDEST PUSH0 DUP1 REVERT JUMPDEST PUSH0 DUP2 SWAP1 POP SWAP2 SWAP1 POP JUMP JUMPDEST PUSH2 0x15A2 DUP2 PUSH2 0x1590 JUMP JUMPDEST DUP2 EQ PUSH2 0x15AC JUMPI PUSH0 DUP1 REVERT JUMPDEST POP JUMP JUMPDEST PUSH0 DUP2 CALLDATALOAD SWAP1 POP PUSH2 0x15BD DUP2 PUSH2 0x1599 JUMP JUMPDEST SWAP3 SWAP2 POP POP JUMP JUMPDEST PUSH0 PUSH1 0x20 DUP3 DUP5 SUB SLT ISZERO PUSH2 0x15D8 JUMPI PUSH2 0x15D7 PUSH2 0x158C JUMP JUMPDEST JUMPDEST PUSH0 PUSH2 0x15E5 DUP5 DUP3 DUP6 ADD PUSH2 0x15AF JUMP JUMPDEST SWAP2 POP POP SWAP3 SWAP2 POP POP JUMP JUMPDEST PUSH0 PUSH1 0xFF DUP3 AND SWAP1 POP SWAP2 SWAP1 POP JUMP JUMPDEST PUSH2 0x1603 DUP2 PUSH2 0x15EE JUMP JUMPDEST DUP3 MSTORE POP POP JUMP JUMPDEST PUSH0 PUSH1 0x20 DUP3 ADD SWAP1 POP PUSH2 0x161C PUSH0 DUP4 ADD DUP5 PUSH2 0x15FA JUMP JUMPDEST SWAP3 SWAP2 POP POP JUMP JUMPDEST PUSH0 PUSH2 0xFFFF DUP3 AND SWAP1 POP SWAP2 SWAP1 POP JUMP JUMPDEST PUSH2 0x1638 DUP2 PUSH2 0x1622 JUMP JUMPDEST DUP2 EQ PUSH2 0x1642 JUMPI PUSH0 DUP1 REVERT JUMPDEST POP JUMP JUMPDEST PUSH0 DUP2 CALLDATALOAD SWAP1 POP PUSH2 0x1653 DUP2 PUSH2 0x162F JUMP JUMPDEST SWAP3 SWAP2 POP POP JUMP JUMPDEST PUSH2 0x1662 DUP2 PUSH2 0x15EE JUMP JUMPDEST DUP2 EQ PUSH2 0x166C JUMPI PUSH0 DUP1 REVERT JUMPDEST POP JUMP JUMPDEST PUSH0 DUP2 CALLDATALOAD SWAP1 POP PUSH2 0x167D DUP2 PUSH2 0x1659 JUMP JUMPDEST SWAP3 SWAP2 POP POP JUMP JUMPDEST PUSH0 DUP1 PUSH0 DUP1 PUSH0 PUSH1 0xA0 DUP7 DUP9 SUB SLT ISZERO PUSH2 0x169C JUMPI PUSH2 0x169B PUSH2 0x158C JUMP JUMPDEST JUMPDEST PUSH0 PUSH2 0x16A9 DUP9 DUP3 DUP10 ADD PUSH2 0x1645 JUMP JUMPDEST SWAP6 POP POP PUSH1 0x20 PUSH2 0x16BA DUP9 DUP3 DUP10 ADD PUSH2 0x166F JUMP JUMPDEST SWAP5 POP POP PUSH1 0x40 PUSH2 0x16CB DUP9 DUP3 DUP10 ADD PUSH2 0x166F JUMP JUMPDEST SWAP4 POP POP PUSH1 0x60 PUSH2 0x16DC DUP9 DUP3 DUP10 ADD PUSH2 0x166F JUMP JUMPDEST SWAP3 POP POP PUSH1 0x80 PUSH2 0x16ED DUP9 DUP3 DUP10 ADD PUSH2 0x166F JUMP JUMPDEST SWAP2 POP POP SWAP3 SWAP6 POP SWAP3 SWAP6 SWAP1 SWAP4 POP JUMP JUMPDEST PUSH2 0x1703 DUP2 PUSH2 0x1590 JUMP JUMPDEST DUP3 MSTORE POP POP JUMP JUMPDEST PUSH0 PUSH1 0x20 DUP3 ADD SWAP1 POP PUSH2 0x171C PUSH0 DUP4 ADD DUP5 PUSH2 0x16FA JUMP JUMPDEST SWAP3 SWAP2 POP POP JUMP JUMPDEST PUSH0 DUP1 PUSH0 DUP1 PUSH1 0x80 DUP6 DUP8 SUB SLT ISZERO PUSH2 0x173A JUMPI PUSH2 0x1739 PUSH2 0x158C JUMP JUMPDEST JUMPDEST PUSH0 PUSH2 0x1747 DUP8 DUP3 DUP9 ADD PUSH2 0x1645 JUMP JUMPDEST SWAP5 POP POP PUSH1 0x20 PUSH2 0x1758 DUP8 DUP3 DUP9 ADD PUSH2 0x166F JUMP JUMPDEST SWAP4 POP POP PUSH1 0x40 PUSH2 0x1769 DUP8 DUP3 DUP9 ADD PUSH2 0x166F JUMP JUMPDEST SWAP3 POP POP PUSH1 0x60 PUSH2 0x177A DUP8 DUP3 DUP9 ADD PUSH2 0x166F JUMP JUMPDEST SWAP2 POP POP SWAP3 SWAP6 SWAP2 SWAP5 POP SWAP3 POP JUMP JUMPDEST PUSH0 DUP1 PUSH0 PUSH1 0x60 DUP5 DUP7 SUB SLT ISZERO PUSH2 0x179D JUMPI PUSH2 0x179C PUSH2 0x158C JUMP JUMPDEST JUMPDEST PUSH0 PUSH2 0x17AA DUP7 DUP3 DUP8 ADD PUSH2 0x1645 JUMP JUMPDEST SWAP4 POP POP PUSH1 0x20 PUSH2 0x17BB DUP7 DUP3 DUP8 ADD PUSH2 0x166F JUMP JUMPDEST SWAP3 POP POP PUSH1 0x40 PUSH2 0x17CC DUP7 DUP3 DUP8 ADD PUSH2 0x166F JUMP JUMPDEST SWAP2 POP POP SWAP3 POP SWAP3 POP SWAP3 JUMP JUMPDEST PUSH0 DUP1 PUSH0 DUP1 PUSH0 DUP1 PUSH1 0xC0 DUP8 DUP10 SUB SLT ISZERO PUSH2 0x17F0 JUMPI PUSH2 0x17EF PUSH2 0x158C JUMP JUMPDEST JUMPDEST PUSH0 PUSH2 0x17FD DUP10 DUP3 DUP11 ADD PUSH2 0x1645 JUMP JUMPDEST SWAP7 POP POP PUSH1 0x20 PUSH2 0x180E DUP10 DUP3 DUP11 ADD PUSH2 0x166F JUMP JUMPDEST SWAP6 POP POP PUSH1 0x40 PUSH2 0x181F DUP10 DUP3 DUP11 ADD PUSH2 0x166F JUMP JUMPDEST SWAP5 POP POP PUSH1 0x60 PUSH2 0x1830 DUP10 DUP3 DUP11 ADD PUSH2 0x166F JUMP JUMPDEST SWAP4 POP POP PUSH1 0x80 PUSH2 0x1841 DUP10 DUP3 DUP11 ADD PUSH2 0x166F JUMP JUMPDEST SWAP3 POP POP PUSH1 0xA0 PUSH2 0x1852 DUP10 DUP3 DUP11 ADD PUSH2 0x166F JUMP JUMPDEST SWAP2 POP POP SWAP3 SWAP6 POP SWAP3 SWAP6 POP SWAP3 SWAP6 JUMP JUMPDEST PUSH2 0x1868 DUP2 PUSH2 0x1622 JUMP JUMPDEST DUP3 MSTORE POP POP JUMP JUMPDEST PUSH0 PUSH1 0x20 DUP3 ADD SWAP1 POP PUSH2 0x1881 PUSH0 DUP4 ADD DUP5 PUSH2 0x185F JUMP JUMPDEST SWAP3 SWAP2 POP POP JUMP JUMPDEST PUSH0 PUSH1 0x20 DUP3 DUP5 SUB SLT ISZERO PUSH2 0x189C JUMPI PUSH2 0x189B PUSH2 0x158C JUMP JUMPDEST JUMPDEST PUSH0 PUSH2 0x18A9 DUP5 DUP3 DUP6 ADD PUSH2 0x1645 JUMP JUMPDEST SWAP2 POP POP SWAP3 SWAP2 POP POP JUMP JUMPDEST PUSH0 DUP2 ISZERO ISZERO SWAP1 POP SWAP2 SWAP1 POP JUMP JUMPDEST PUSH2 0x18C6 DUP2 PUSH2 0x18B2 JUMP JUMPDEST DUP3 MSTORE POP POP JUMP JUMPDEST PUSH0 PUSH1 0x20 DUP3 ADD SWAP1 POP PUSH2 0x18DF PUSH0 DUP4 ADD DUP5 PUSH2 0x18BD JUMP JUMPDEST SWAP3 SWAP2 POP POP JUMP JUMPDEST PUSH0 DUP2 MLOAD SWAP1 POP SWAP2 SWAP1 POP JUMP JUMPDEST PUSH0 DUP3 DUP3 MSTORE PUSH1 0x20 DUP3 ADD SWAP1 POP SWAP3 SWAP2 POP POP JUMP JUMPDEST PUSH0 JUMPDEST DUP4 DUP2 LT ISZERO PUSH2 0x191C JUMPI DUP1 DUP3 ADD MLOAD DUP2 DUP5 ADD MSTORE PUSH1 0x20 DUP2 ADD SWAP1 POP PUSH2 0x1901 JUMP JUMPDEST PUSH0 DUP5 DUP5 ADD MSTORE POP POP POP POP JUMP JUMPDEST PUSH0 PUSH1 0x1F NOT PUSH1 0x1F DUP4 ADD AND SWAP1 POP SWAP2 SWAP1 POP JUMP JUMPDEST PUSH0 PUSH2 0x1941 DUP3 PUSH2 0x18E5 JUMP JUMPDEST PUSH2 0x194B DUP2 DUP6 PUSH2 0x18EF JUMP JUMPDEST SWAP4 POP PUSH2 0x195B DUP2 DUP6 PUSH1 0x20 DUP7 ADD PUSH2 0x18FF JUMP JUMPDEST PUSH2 0x1964 DUP2 PUSH2 0x1927 JUMP JUMPDEST DUP5 ADD SWAP2 POP POP SWAP3 SWAP2 POP POP JUMP JUMPDEST PUSH0 PUSH1 0x20 DUP3 ADD SWAP1 POP DUP2 DUP2 SUB PUSH0 DUP4 ADD MSTORE PUSH2 0x1987 DUP2 DUP5 PUSH2 0x1937 JUMP JUMPDEST SWAP1 POP SWAP3 SWAP2 POP POP JUMP JUMPDEST PUSH0 DUP1 PUSH1 0x40 DUP4 DUP6 SUB SLT ISZERO PUSH2 0x19A5 JUMPI PUSH2 0x19A4 PUSH2 0x158C JUMP JUMPDEST JUMPDEST PUSH0 PUSH2 0x19B2 DUP6 DUP3 DUP7 ADD PUSH2 0x166F JUMP JUMPDEST SWAP3 POP POP PUSH1 0x20 PUSH2 0x19C3 DUP6 DUP3 DUP7 ADD PUSH2 0x1645 JUMP JUMPDEST SWAP2 POP POP SWAP3 POP SWAP3 SWAP1 POP JUMP JUMPDEST PUSH0 PUSH1 0x60 DUP3 ADD SWAP1 POP PUSH2 0x19E0 PUSH0 DUP4 ADD DUP7 PUSH2 0x185F JUMP JUMPDEST PUSH2 0x19ED PUSH1 0x20 DUP4 ADD DUP6 PUSH2 0x15FA JUMP JUMPDEST PUSH2 0x19FA PUSH1 0x40 DUP4 ADD DUP5 PUSH2 0x15FA JUMP JUMPDEST SWAP5 SWAP4 POP POP POP POP JUMP JUMPDEST PUSH2 0x1A0B DUP2 PUSH2 0x1622 JUMP JUMPDEST DUP3 MSTORE POP POP JUMP JUMPDEST PUSH2 0x1A1A DUP2 PUSH2 0x15EE JUMP JUMPDEST DUP3 MSTORE POP POP JUMP JUMPDEST PUSH1 0xE0 DUP3 ADD PUSH0 DUP3 ADD MLOAD PUSH2 0x1A34 PUSH0 DUP6 ADD DUP3 PUSH2 0x1A02 JUMP JUMPDEST POP PUSH1 0x20 DUP3 ADD MLOAD PUSH2 0x1A47 PUSH1 0x20 DUP6 ADD DUP3 PUSH2 0x1A11 JUMP JUMPDEST POP PUSH1 0x40 DUP3 ADD MLOAD PUSH2 0x1A5A PUSH1 0x40 DUP6 ADD DUP3 PUSH2 0x1A11 JUMP JUMPDEST POP PUSH1 0x60 DUP3 ADD MLOAD PUSH2 0x1A6D PUSH1 0x60 DUP6 ADD DUP3 PUSH2 0x1A11 JUMP JUMPDEST POP PUSH1 0x80 DUP3 ADD MLOAD PUSH2 0x1A80 PUSH1 0x80 DUP6 ADD DUP3 PUSH2 0x1A11 JUMP JUMPDEST POP PUSH1 0xA0 DUP3 ADD MLOAD PUSH2 0x1A93 PUSH1 0xA0 DUP6 ADD DUP3 PUSH2 0x1A11 JUMP JUMPDEST POP PUSH1 0xC0 DUP3 ADD MLOAD PUSH2 0x1AA6 PUSH1 0xC0 DUP6 ADD DUP3 PUSH2 0x1A11 JUMP JUMPDEST POP POP POP POP JUMP JUMPDEST PUSH0 PUSH1 0xE0 DUP3 ADD SWAP1 POP PUSH2 0x1ABF PUSH0 DUP4 ADD DUP5 PUSH2 0x1A20 JUMP JUMPDEST SWAP3 SWAP2 POP POP JUMP JUMPDEST PUSH32 0x4E487B7100000000000000000000000000000000000000000000000000000000 PUSH0 MSTORE PUSH1 0x12 PUSH1 0x4 MSTORE PUSH1 0x24 PUSH0 REVERT JUMPDEST PUSH32 0x4E487B7100000000000000000000000000000000000000000000000000000000 PUSH0 MSTORE PUSH1 0x11 PUSH1 0x4 MSTORE PUSH1 0x24 PUSH0 REVERT JUMPDEST PUSH0 PUSH2 0x1B29 DUP3 PUSH2 0x1590 JUMP JUMPDEST SWAP2 POP PUSH2 0x1B34 DUP4 PUSH2 0x1590 JUMP JUMPDEST SWAP3 POP DUP3 PUSH2 0x1B44 JUMPI PUSH2 0x1B43 PUSH2 0x1AC5 JUMP JUMPDEST JUMPDEST DUP3 DUP3 DIV SWAP1 POP SWAP3 SWAP2 POP POP JUMP JUMPDEST PUSH0 PUSH2 0x1B59 DUP3 PUSH2 0x1590 JUMP JUMPDEST SWAP2 POP PUSH2 0x1B64 DUP4 PUSH2 0x1590 JUMP JUMPDEST SWAP3 POP DUP3 PUSH2 0x1B74 JUMPI PUSH2 0x1B73 PUSH2 0x1AC5 JUMP JUMPDEST JUMPDEST DUP3 DUP3 MOD SWAP1 POP SWAP3 SWAP2 POP POP JUMP JUMPDEST PUSH0 PUSH2 0x1B89 DUP3 PUSH2 0x1590 JUMP JUMPDEST SWAP2 POP PUSH2 0x1B94 DUP4 PUSH2 0x1590 JUMP JUMPDEST SWAP3 POP DUP3 DUP3 ADD SWAP1 POP DUP1 DUP3 GT ISZERO PUSH2 0x1BAC JUMPI PUSH2 0x1BAB PUSH2 0x1AF2 JUMP JUMPDEST JUMPDEST SWAP3 SWAP2 POP POP JUMP JUMPDEST PUSH0 PUSH2 0x1BBC DUP3 PUSH2 0x1622 JUMP JUMPDEST SWAP2 POP PUSH2 0xFFFF DUP3 SUB PUSH2 0x1BD0 JUMPI PUSH2 0x1BCF PUSH2 0x1AF2 JUMP JUMPDEST JUMPDEST PUSH1 0x1 DUP3 ADD SWAP1 POP SWAP2 SWAP1 POP JUMP JUMPDEST PUSH32 0x4E487B7100000000000000000000000000000000000000000000000000000000 PUSH0 MSTORE PUSH1 0x32 PUSH1 0x4 MSTORE PUSH1 0x24 PUSH0 REVERT JUMPDEST PUSH0 PUSH2 0x1C12 DUP3 PUSH2 0x1622 JUMP JUMPDEST SWAP2 POP PUSH2 0x1C1D DUP4 PUSH2 0x1622 JUMP JUMPDEST SWAP3 POP DUP3 DUP3 SUB SWAP1 POP PUSH2 0xFFFF DUP2 GT ISZERO PUSH2 0x1C37 JUMPI PUSH2 0x1C36 PUSH2 0x1AF2 JUMP JUMPDEST JUMPDEST SWAP3 SWAP2 POP POP JUMP JUMPDEST PUSH0 PUSH2 0x1C47 DUP3 PUSH2 0x1590 JUMP JUMPDEST SWAP2 POP PUSH2 0x1C52 DUP4 PUSH2 0x1590 JUMP JUMPDEST SWAP3 POP DUP3 DUP3 MUL PUSH2 0x1C60 DUP2 PUSH2 0x1590 JUMP JUMPDEST SWAP2 POP DUP3 DUP3 DIV DUP5 EQ DUP4 ISZERO OR PUSH2 0x1C77 JUMPI PUSH2 0x1C76 PUSH2 0x1AF2 JUMP JUMPDEST JUMPDEST POP SWAP3 SWAP2 POP POP JUMP JUMPDEST PUSH0 PUSH2 0x1C88 DUP3 PUSH2 0x15EE JUMP JUMPDEST SWAP2 POP PUSH2 0x1C93 DUP4 PUSH2 0x15EE JUMP JUMPDEST SWAP3 POP DUP3 DUP3 SUB SWAP1 POP PUSH1 0xFF DUP2 GT ISZERO PUSH2 0x1CAC JUMPI PUSH2 0x1CAB PUSH2 0x1AF2 JUMP JUMPDEST JUMPDEST SWAP3 SWAP2 POP POP JUMP JUMPDEST PUSH0 PUSH2 0x1CBC DUP3 PUSH2 0x1590 JUMP JUMPDEST SWAP2 POP PUSH2 0x1CC7 DUP4 PUSH2 0x1590 JUMP JUMPDEST SWAP3 POP DUP3 DUP3 SUB SWAP1 POP DUP2 DUP2 GT ISZERO PUSH2 0x1CDF JUMPI PUSH2 0x1CDE PUSH2 0x1AF2 JUMP JUMPDEST JUMPDEST SWAP3 SWAP2 POP POP JUMP JUMPDEST PUSH0 PUSH2 0x1CEF DUP3 PUSH2 0x1622 JUMP JUMPDEST SWAP2 POP PUSH2 0x1CFA DUP4 PUSH2 0x1622 JUMP JUMPDEST SWAP3 POP DUP3 PUSH2 0x1D0A JUMPI PUSH2 0x1D09 PUSH2 0x1AC5 JUMP JUMPDEST JUMPDEST DUP3 DUP3 MOD SWAP1 POP SWAP3 SWAP2 POP POP JUMP JUMPDEST PUSH32 0x4E487B7100000000000000000000000000000000000000000000000000000000 PUSH0 MSTORE PUSH1 0x41 PUSH1 0x4 MSTORE PUSH1 0x24 PUSH0 REVERT JUMPDEST PUSH0 PUSH2 0x1D4C DUP3 PUSH2 0x15EE JUMP JUMPDEST SWAP2 POP PUSH1 0xFF DUP3 SUB PUSH2 0x1D5F JUMPI PUSH2 0x1D5E PUSH2 0x1AF2 JUMP JUMPDEST JUMPDEST PUSH1 0x1 DUP3 ADD SWAP1 POP SWAP2 SWAP1 POP JUMP INVALID LOG2 PUSH5 0x6970667358 0x22 SLT KECCAK256 0xBD EXTCODECOPY 0xE8 0xB9 POP SAR SWAP4 0xDF DUP2 LOG1 PC PUSH25 0x4DA99DE2E97956CCC7674001F316B89E0BABA29C64736F6C63 NUMBER STOP ADDMOD EQ STOP CALLER "
		},
		"gasEstimates": {
			"creation": {
				"codeDepositCost": "1516800",
				"executionCost": "1609",
				"totalCost": "1518409"
			},
			"external": {
				"dnow()": "infinite",
				"getDay(uint256)": "infinite",
				"getDaysInMonth(uint8,uint16)": "infinite",
				"getHour(uint256)": "infinite",
				"getMinute(uint256)": "infinite",
				"getMonth(uint256)": "infinite",
				"getSecond(uint256)": "infinite",
				"getWeekday(uint256)": "infinite",
				"getYear(uint256)": "infinite",
				"isLeapYear(uint16)": "infinite",
				"leapYearsBefore(uint256)": "infinite",
				"parseTimestamp(uint256)": "infinite",
				"strNow()": "infinite",
				"toTimestamp(uint16,uint8,uint8)": "infinite",
				"toTimestamp(uint16,uint8,uint8,uint8)": "infinite",
				"toTimestamp(uint16,uint8,uint8,uint8,uint8)": "infinite",
				"toTimestamp(uint16,uint8,uint8,uint8,uint8,uint8)": "infinite"
			}
		},
		"methodIdentifiers": {
			"dnow()": "eb3334c5",
			"getDay(uint256)": "65c72840",
			"getDaysInMonth(uint8,uint16)": "b238ad0e",
			"getHour(uint256)": "3e239e1a",
			"getMinute(uint256)": "fa93f883",
			"getMonth(uint256)": "a324ad24",
			"getSecond(uint256)": "8aa001fc",
			"getWeekday(uint256)": "4ac1ad78",
			"getYear(uint256)": "92d66313",
			"isLeapYear(uint16)": "a6f0e577",
			"leapYearsBefore(uint256)": "b1999937",
			"parseTimestamp(uint256)": "f97d0591",
			"strNow()": "a9a295ad",
			"toTimestamp(uint16,uint8,uint8)": "8c8d98a0",
			"toTimestamp(uint16,uint8,uint8,uint8)": "7f791833",
			"toTimestamp(uint16,uint8,uint8,uint8,uint8)": "62ba9687",
			"toTimestamp(uint16,uint8,uint8,uint8,uint8,uint8)": "9054bdec"
		}
	},
	"abi": [
		{
			"inputs": [],
			"name": "dnow",
			"outputs": [
				{
					"internalType": "uint16",
					"name": "year",
					"type": "uint16"
				},
				{
					"internalType": "uint8",
					"name": "month",
					"type": "uint8"
				},
				{
					"internalType": "uint8",
					"name": "day",
					"type": "uint8"
				}
			],
			"stateMutability": "view",
			"type": "function"
		},
		{
			"inputs": [
				{
					"internalType": "uint256",
					"name": "timestamp",
					"type": "uint256"
				}
			],
			"name": "getDay",
			"outputs": [
				{
					"internalType": "uint8",
					"name": "",
					"type": "uint8"
				}
			],
			"stateMutability": "pure",
			"type": "function"
		},
		{
			"inputs": [
				{
					"internalType": "uint8",
					"name": "month",
					"type": "uint8"
				},
				{
					"internalType": "uint16",
					"name": "year",
					"type": "uint16"
				}
			],
			"name": "getDaysInMonth",
			"outputs": [
				{
					"internalType": "uint8",
					"name": "",
					"type": "uint8"
				}
			],
			"stateMutability": "pure",
			"type": "function"
		},
		{
			"inputs": [
				{
					"internalType": "uint256",
					"name": "timestamp",
					"type": "uint256"
				}
			],
			"name": "getHour",
			"outputs": [
				{
					"internalType": "uint8",
					"name": "",
					"type": "uint8"
				}
			],
			"stateMutability": "pure",
			"type": "function"
		},
		{
			"inputs": [
				{
					"internalType": "uint256",
					"name": "timestamp",
					"type": "uint256"
				}
			],
			"name": "getMinute",
			"outputs": [
				{
					"internalType": "uint8",
					"name": "",
					"type": "uint8"
				}
			],
			"stateMutability": "pure",
			"type": "function"
		},
		{
			"inputs": [
				{
					"internalType": "uint256",
					"name": "timestamp",
					"type": "uint256"
				}
			],
			"name": "getMonth",
			"outputs": [
				{
					"internalType": "uint8",
					"name": "",
					"type": "uint8"
				}
			],
			"stateMutability": "pure",
			"type": "function"
		},
		{
			"inputs": [
				{
					"internalType": "uint256",
					"name": "timestamp",
					"type": "uint256"
				}
			],
			"name": "getSecond",
			"outputs": [
				{
					"internalType": "uint8",
					"name": "",
					"type": "uint8"
				}
			],
			"stateMutability": "pure",
			"type": "function"
		},
		{
			"inputs": [
				{
					"internalType": "uint256",
					"name": "timestamp",
					"type": "uint256"
				}
			],
			"name": "getWeekday",
			"outputs": [
				{
					"internalType": "uint8",
					"name": "",
					"type": "uint8"
				}
			],
			"stateMutability": "pure",
			"type": "function"
		},
		{
			"inputs": [
				{
					"internalType": "uint256",
					"name": "timestamp",
					"type": "uint256"
				}
			],
			"name": "getYear",
			"outputs": [
				{
					"internalType": "uint16",
					"name": "",
					"type": "uint16"
				}
			],
			"stateMutability": "pure",
			"type": "function"
		},
		{
			"inputs": [
				{
					"internalType": "uint16",
					"name": "year",
					"type": "uint16"
				}
			],
			"name": "isLeapYear",
			"outputs": [
				{
					"internalType": "bool",
					"name": "",
					"type": "bool"
				}
			],
			"stateMutability": "pure",
			"type": "function"
		},
		{
			"inputs": [
				{
					"internalType": "uint256",
					"name": "year",
					"type": "uint256"
				}
			],
			"name": "leapYearsBefore",
			"outputs": [
				{
					"internalType": "uint256",
					"name": "",
					"type": "uint256"
				}
			],
			"stateMutability": "pure",
			"type": "function"
		},
		{
			"inputs": [
				{
					"internalType": "uint256",
					"name": "timestamp",
					"type": "uint256"
				}
			],
			"name": "parseTimestamp",
			"outputs": [
				{
					"components": [
						{
							"internalType": "uint16",
							"name": "year",
							"type": "uint16"
						},
						{
							"internalType": "uint8",
							"name": "month",
							"type": "uint8"
						},
						{
							"internalType": "uint8",
							"name": "day",
							"type": "uint8"
						},
						{
							"internalType": "uint8",
							"name": "hour",
							"type": "uint8"
						},
						{
							"internalType": "uint8",
							"name": "minute",
							"type": "uint8"
						},
						{
							"internalType": "uint8",
							"name": "second",
							"type": "uint8"
						},
						{
							"internalType": "uint8",
							"name": "weekday",
							"type": "uint8"
						}
					],
					"internalType": "struct IDT._DateTime",
					"name": "dt",
					"type": "tuple"
				}
			],
			"stateMutability": "pure",
			"type": "function"
		},
		{
			"inputs": [],
			"name": "strNow",
			"outputs": [
				{
					"internalType": "string",
					"name": "",
					"type": "string"
				}
			],
			"stateMutability": "view",
			"type": "function"
		},
		{
			"inputs": [
				{
					"internalType": "uint16",
					"name": "year",
					"type": "uint16"
				},
				{
					"internalType": "uint8",
					"name": "month",
					"type": "uint8"
				},
				{
					"internalType": "uint8",
					"name": "day",
					"type": "uint8"
				},
				{
					"internalType": "uint8",
					"name": "hour",
					"type": "uint8"
				},
				{
					"internalType": "uint8",
					"name": "minute",
					"type": "uint8"
				}
			],
			"name": "toTimestamp",
			"outputs": [
				{
					"internalType": "uint256",
					"name": "timestamp",
					"type": "uint256"
				}
			],
			"stateMutability": "pure",
			"type": "function"
		},
		{
			"inputs": [
				{
					"internalType": "uint16",
					"name": "year",
					"type": "uint16"
				},
				{
					"internalType": "uint8",
					"name": "month",
					"type": "uint8"
				},
				{
					"internalType": "uint8",
					"name": "day",
					"type": "uint8"
				},
				{
					"internalType": "uint8",
					"name": "hour",
					"type": "uint8"
				}
			],
			"name": "toTimestamp",
			"outputs": [
				{
					"internalType": "uint256",
					"name": "timestamp",
					"type": "uint256"
				}
			],
			"stateMutability": "pure",
			"type": "function"
		},
		{
			"inputs": [
				{
					"internalType": "uint16",
					"name": "year",
					"type": "uint16"
				},
				{
					"internalType": "uint8",
					"name": "month",
					"type": "uint8"
				},
				{
					"internalType": "uint8",
					"name": "day",
					"type": "uint8"
				}
			],
			"name": "toTimestamp",
			"outputs": [
				{
					"internalType": "uint256",
					"name": "timestamp",
					"type": "uint256"
				}
			],
			"stateMutability": "pure",
			"type": "function"
		},
		{
			"inputs": [
				{
					"internalType": "uint16",
					"name": "year",
					"type": "uint16"
				},
				{
					"internalType": "uint8",
					"name": "month",
					"type": "uint8"
				},
				{
					"internalType": "uint8",
					"name": "day",
					"type": "uint8"
				},
				{
					"internalType": "uint8",
					"name": "hour",
					"type": "uint8"
				},
				{
					"internalType": "uint8",
					"name": "minute",
					"type": "uint8"
				},
				{
					"internalType": "uint8",
					"name": "second",
					"type": "uint8"
				}
			],
			"name": "toTimestamp",
			"outputs": [
				{
					"internalType": "uint256",
					"name": "timestamp",
					"type": "uint256"
				}
			],
			"stateMutability": "pure",
			"type": "function"
		}
	]
}