{
	"data": {
		"bytecode": {
			"linkReferences": {},
			"object": "610da5610053600b82828239805160001a607314610046577f4e487b7100000000000000000000000000000000000000000000000000000000600052600060045260246000fd5b30600052607381538281f3fe73000000000000000000000000000000000000000030146080604052600436106100565760003560e01c80632f278ecb1461005b5780637da483171461008b5780639514fbc9146100bb578063c5249be9146100eb575b600080fd5b610075600480360381019061007091906106ac565b61011b565b6040516100829190610789565b60405180910390f35b6100a560048036038101906100a091906108db565b61021c565b6040516100b2919061096e565b60405180910390f35b6100d560048036038101906100d09190610b0b565b6102f0565b6040516100e29190610ba9565b60405180910390f35b61010560048036038101906101009190610c01565b610557565b6040516101129190610789565b60405180910390f35b606060008383905067ffffffffffffffff81111561013c5761013b6107b0565b5b6040519080825280601f01601f19166020018201604052801561016e5781602001600182028036833780820191505090505b50905060006001858590506101839190610c90565b905060005b8585905081101561021057858582846101a19190610c90565b8181106101b1576101b0610cc4565b5b9050013560f81c60f81b8382815181106101ce576101cd610cc4565b5b60200101907effffffffffffffffffffffffffffffffffffffffffffffffffffffffffffff1916908160001a905350808061020890610cf3565b915050610188565b50819250505092915050565b60008083519050825181146102355760009150506102ea565b60005b818110156102e35783818151811061025357610252610cc4565b5b602001015160f81c60f81b7effffffffffffffffffffffffffffffffffffffffffffffffffffffffffffff191685828151811061029357610292610cc4565b5b602001015160f81c60f81b7effffffffffffffffffffffffffffffffffffffffffffffffffffffffffffff1916146102d0576000925050506102ea565b80806102db90610cf3565b915050610238565b5060019150505b92915050565b6060600080835167ffffffffffffffff8111156103105761030f6107b0565b5b60405190808252806020026020018201604052801561034357816020015b606081526020019060019003908161032e5790505b50905060005b84518110156103bf57600085828151811061036757610366610cc4565b5b602002602001015190506001815161037f9190610d3b565b8461038a9190610d3b565b9350808383815181106103a05761039f610cc4565b5b60200260200101819052505080806103b790610cf3565b915050610349565b60008367ffffffffffffffff8111156103db576103da6107b0565b5b6040519080825280601f01601f19166020018201604052801561040d5781602001600182028036833780820191505090505b5090506000915060005b835181101561054a57602f60f81b82848151811061043857610437610cc4565b5b60200101907effffffffffffffffffffffffffffffffffffffffffffffffffffffffffffff1916908160001a905350828061047290610cf3565b93505060005b84828151811061048b5761048a610cc4565b5b602002602001015151811015610536578482815181106104ae576104ad610cc4565b5b602002602001015181815181106104c8576104c7610cc4565b5b602001015160f81c60f81b8385815181106104e6576104e5610cc4565b5b60200101907effffffffffffffffffffffffffffffffffffffffffffffffffffffffffffff1916908160001a905350838061052090610cf3565b945050808061052e90610cf3565b915050610478565b50808061054290610cf3565b915050610417565b5080945050505050919050565b606060008267ffffffffffffffff811115610575576105746107b0565b5b6040519080825280601f01601f1916602001820160405280156105a75781602001600182028036833780820191505090505b50905060005b83811015610627578585828181106105c8576105c7610cc4565b5b9050013560f81c60f81b8282815181106105e5576105e4610cc4565b5b60200101907effffffffffffffffffffffffffffffffffffffffffffffffffffffffffffff1916908160001a905350808061061f90610cf3565b9150506105ad565b50809150509392505050565b6000604051905090565b600080fd5b600080fd5b600080fd5b600080fd5b600080fd5b60008083601f84011261066c5761066b610647565b5b8235905067ffffffffffffffff8111156106895761068861064c565b5b6020830191508360018202830111156106a5576106a4610651565b5b9250929050565b600080602083850312156106c3576106c261063d565b5b600083013567ffffffffffffffff8111156106e1576106e0610642565b5b6106ed85828601610656565b92509250509250929050565b600081519050919050565b600082825260208201905092915050565b60005b83811015610733578082015181840152602081019050610718565b60008484015250505050565b6000601f19601f8301169050919050565b600061075b826106f9565b6107658185610704565b9350610775818560208601610715565b61077e8161073f565b840191505092915050565b600060208201905081810360008301526107a38184610750565b905092915050565b600080fd5b7f4e487b7100000000000000000000000000000000000000000000000000000000600052604160045260246000fd5b6107e88261073f565b810181811067ffffffffffffffff82111715610807576108066107b0565b5b80604052505050565b600061081a610633565b905061082682826107df565b919050565b600067ffffffffffffffff821115610846576108456107b0565b5b61084f8261073f565b9050602081019050919050565b82818337600083830152505050565b600061087e6108798461082b565b610810565b90508281526020810184848401111561089a576108996107ab565b5b6108a584828561085c565b509392505050565b600082601f8301126108c2576108c1610647565b5b81356108d284826020860161086b565b91505092915050565b600080604083850312156108f2576108f161063d565b5b600083013567ffffffffffffffff8111156109105761090f610642565b5b61091c858286016108ad565b925050602083013567ffffffffffffffff81111561093d5761093c610642565b5b610949858286016108ad565b9150509250929050565b60008115159050919050565b61096881610953565b82525050565b6000602082019050610983600083018461095f565b92915050565b600067ffffffffffffffff8211156109a4576109a36107b0565b5b602082029050602081019050919050565b600067ffffffffffffffff8211156109d0576109cf6107b0565b5b6109d98261073f565b9050602081019050919050565b60006109f96109f4846109b5565b610810565b905082815260208101848484011115610a1557610a146107ab565b5b610a2084828561085c565b509392505050565b600082601f830112610a3d57610a3c610647565b5b8135610a4d8482602086016109e6565b91505092915050565b6000610a69610a6484610989565b610810565b90508083825260208201905060208402830185811115610a8c57610a8b610651565b5b835b81811015610ad357803567ffffffffffffffff811115610ab157610ab0610647565b5b808601610abe8982610a28565b85526020850194505050602081019050610a8e565b5050509392505050565b600082601f830112610af257610af1610647565b5b8135610b02848260208601610a56565b91505092915050565b600060208284031215610b2157610b2061063d565b5b600082013567ffffffffffffffff811115610b3f57610b3e610642565b5b610b4b84828501610add565b91505092915050565b600081519050919050565b600082825260208201905092915050565b6000610b7b82610b54565b610b858185610b5f565b9350610b95818560208601610715565b610b9e8161073f565b840191505092915050565b60006020820190508181036000830152610bc38184610b70565b905092915050565b6000819050919050565b610bde81610bcb565b8114610be957600080fd5b50565b600081359050610bfb81610bd5565b92915050565b600080600060408486031215610c1a57610c1961063d565b5b600084013567ffffffffffffffff811115610c3857610c37610642565b5b610c4486828701610656565b93509350506020610c5786828701610bec565b9150509250925092565b7f4e487b7100000000000000000000000000000000000000000000000000000000600052601160045260246000fd5b6000610c9b82610bcb565b9150610ca683610bcb565b9250828203905081811115610cbe57610cbd610c61565b5b92915050565b7f4e487b7100000000000000000000000000000000000000000000000000000000600052603260045260246000fd5b6000610cfe82610bcb565b91507fffffffffffffffffffffffffffffffffffffffffffffffffffffffffffffffff8203610d3057610d2f610c61565b5b600182019050919050565b6000610d4682610bcb565b9150610d5183610bcb565b9250828201905080821115610d6957610d68610c61565b5b9291505056fea26469706673582212208dc32972e83c6c954c7ded94443715989a4dd5d3e6f6ac28e4189d0ef7a1007e64736f6c63430008120033",
			"opcodes": "PUSH2 0xDA5 PUSH2 0x53 PUSH1 0xB DUP3 DUP3 DUP3 CODECOPY DUP1 MLOAD PUSH1 0x0 BYTE PUSH1 0x73 EQ PUSH2 0x46 JUMPI PUSH32 0x4E487B7100000000000000000000000000000000000000000000000000000000 PUSH1 0x0 MSTORE PUSH1 0x0 PUSH1 0x4 MSTORE PUSH1 0x24 PUSH1 0x0 REVERT JUMPDEST ADDRESS PUSH1 0x0 MSTORE PUSH1 0x73 DUP2 MSTORE8 DUP3 DUP2 RETURN INVALID PUSH20 0x0 ADDRESS EQ PUSH1 0x80 PUSH1 0x40 MSTORE PUSH1 0x4 CALLDATASIZE LT PUSH2 0x56 JUMPI PUSH1 0x0 CALLDATALOAD PUSH1 0xE0 SHR DUP1 PUSH4 0x2F278ECB EQ PUSH2 0x5B JUMPI DUP1 PUSH4 0x7DA48317 EQ PUSH2 0x8B JUMPI DUP1 PUSH4 0x9514FBC9 EQ PUSH2 0xBB JUMPI DUP1 PUSH4 0xC5249BE9 EQ PUSH2 0xEB JUMPI JUMPDEST PUSH1 0x0 DUP1 REVERT JUMPDEST PUSH2 0x75 PUSH1 0x4 DUP1 CALLDATASIZE SUB DUP2 ADD SWAP1 PUSH2 0x70 SWAP2 SWAP1 PUSH2 0x6AC JUMP JUMPDEST PUSH2 0x11B JUMP JUMPDEST PUSH1 0x40 MLOAD PUSH2 0x82 SWAP2 SWAP1 PUSH2 0x789 JUMP JUMPDEST PUSH1 0x40 MLOAD DUP1 SWAP2 SUB SWAP1 RETURN JUMPDEST PUSH2 0xA5 PUSH1 0x4 DUP1 CALLDATASIZE SUB DUP2 ADD SWAP1 PUSH2 0xA0 SWAP2 SWAP1 PUSH2 0x8DB JUMP JUMPDEST PUSH2 0x21C JUMP JUMPDEST PUSH1 0x40 MLOAD PUSH2 0xB2 SWAP2 SWAP1 PUSH2 0x96E JUMP JUMPDEST PUSH1 0x40 MLOAD DUP1 SWAP2 SUB SWAP1 RETURN JUMPDEST PUSH2 0xD5 PUSH1 0x4 DUP1 CALLDATASIZE SUB DUP2 ADD SWAP1 PUSH2 0xD0 SWAP2 SWAP1 PUSH2 0xB0B JUMP JUMPDEST PUSH2 0x2F0 JUMP JUMPDEST PUSH1 0x40 MLOAD PUSH2 0xE2 SWAP2 SWAP1 PUSH2 0xBA9 JUMP JUMPDEST PUSH1 0x40 MLOAD DUP1 SWAP2 SUB SWAP1 RETURN JUMPDEST PUSH2 0x105 PUSH1 0x4 DUP1 CALLDATASIZE SUB DUP2 ADD SWAP1 PUSH2 0x100 SWAP2 SWAP1 PUSH2 0xC01 JUMP JUMPDEST PUSH2 0x557 JUMP JUMPDEST PUSH1 0x40 MLOAD PUSH2 0x112 SWAP2 SWAP1 PUSH2 0x789 JUMP JUMPDEST PUSH1 0x40 MLOAD DUP1 SWAP2 SUB SWAP1 RETURN JUMPDEST PUSH1 0x60 PUSH1 0x0 DUP4 DUP4 SWAP1 POP PUSH8 0xFFFFFFFFFFFFFFFF DUP2 GT ISZERO PUSH2 0x13C JUMPI PUSH2 0x13B PUSH2 0x7B0 JUMP JUMPDEST JUMPDEST PUSH1 0x40 MLOAD SWAP1 DUP1 DUP3 MSTORE DUP1 PUSH1 0x1F ADD PUSH1 0x1F NOT AND PUSH1 0x20 ADD DUP3 ADD PUSH1 0x40 MSTORE DUP1 ISZERO PUSH2 0x16E JUMPI DUP2 PUSH1 0x20 ADD PUSH1 0x1 DUP3 MUL DUP1 CALLDATASIZE DUP4 CALLDATACOPY DUP1 DUP3 ADD SWAP2 POP POP SWAP1 POP JUMPDEST POP SWAP1 POP PUSH1 0x0 PUSH1 0x1 DUP6 DUP6 SWAP1 POP PUSH2 0x183 SWAP2 SWAP1 PUSH2 0xC90 JUMP JUMPDEST SWAP1 POP PUSH1 0x0 JUMPDEST DUP6 DUP6 SWAP1 POP DUP2 LT ISZERO PUSH2 0x210 JUMPI DUP6 DUP6 DUP3 DUP5 PUSH2 0x1A1 SWAP2 SWAP1 PUSH2 0xC90 JUMP JUMPDEST DUP2 DUP2 LT PUSH2 0x1B1 JUMPI PUSH2 0x1B0 PUSH2 0xCC4 JUMP JUMPDEST JUMPDEST SWAP1 POP ADD CALLDATALOAD PUSH1 0xF8 SHR PUSH1 0xF8 SHL DUP4 DUP3 DUP2 MLOAD DUP2 LT PUSH2 0x1CE JUMPI PUSH2 0x1CD PUSH2 0xCC4 JUMP JUMPDEST JUMPDEST PUSH1 0x20 ADD ADD SWAP1 PUSH31 0xFFFFFFFFFFFFFFFFFFFFFFFFFFFFFFFFFFFFFFFFFFFFFFFFFFFFFFFFFFFFFF NOT AND SWAP1 DUP2 PUSH1 0x0 BYTE SWAP1 MSTORE8 POP DUP1 DUP1 PUSH2 0x208 SWAP1 PUSH2 0xCF3 JUMP JUMPDEST SWAP2 POP POP PUSH2 0x188 JUMP JUMPDEST POP DUP2 SWAP3 POP POP POP SWAP3 SWAP2 POP POP JUMP JUMPDEST PUSH1 0x0 DUP1 DUP4 MLOAD SWAP1 POP DUP3 MLOAD DUP2 EQ PUSH2 0x235 JUMPI PUSH1 0x0 SWAP2 POP POP PUSH2 0x2EA JUMP JUMPDEST PUSH1 0x0 JUMPDEST DUP2 DUP2 LT ISZERO PUSH2 0x2E3 JUMPI DUP4 DUP2 DUP2 MLOAD DUP2 LT PUSH2 0x253 JUMPI PUSH2 0x252 PUSH2 0xCC4 JUMP JUMPDEST JUMPDEST PUSH1 0x20 ADD ADD MLOAD PUSH1 0xF8 SHR PUSH1 0xF8 SHL PUSH31 0xFFFFFFFFFFFFFFFFFFFFFFFFFFFFFFFFFFFFFFFFFFFFFFFFFFFFFFFFFFFFFF NOT AND DUP6 DUP3 DUP2 MLOAD DUP2 LT PUSH2 0x293 JUMPI PUSH2 0x292 PUSH2 0xCC4 JUMP JUMPDEST JUMPDEST PUSH1 0x20 ADD ADD MLOAD PUSH1 0xF8 SHR PUSH1 0xF8 SHL PUSH31 0xFFFFFFFFFFFFFFFFFFFFFFFFFFFFFFFFFFFFFFFFFFFFFFFFFFFFFFFFFFFFFF NOT AND EQ PUSH2 0x2D0 JUMPI PUSH1 0x0 SWAP3 POP POP POP PUSH2 0x2EA JUMP JUMPDEST DUP1 DUP1 PUSH2 0x2DB SWAP1 PUSH2 0xCF3 JUMP JUMPDEST SWAP2 POP POP PUSH2 0x238 JUMP JUMPDEST POP PUSH1 0x1 SWAP2 POP POP JUMPDEST SWAP3 SWAP2 POP POP JUMP JUMPDEST PUSH1 0x60 PUSH1 0x0 DUP1 DUP4 MLOAD PUSH8 0xFFFFFFFFFFFFFFFF DUP2 GT ISZERO PUSH2 0x310 JUMPI PUSH2 0x30F PUSH2 0x7B0 JUMP JUMPDEST JUMPDEST PUSH1 0x40 MLOAD SWAP1 DUP1 DUP3 MSTORE DUP1 PUSH1 0x20 MUL PUSH1 0x20 ADD DUP3 ADD PUSH1 0x40 MSTORE DUP1 ISZERO PUSH2 0x343 JUMPI DUP2 PUSH1 0x20 ADD JUMPDEST PUSH1 0x60 DUP2 MSTORE PUSH1 0x20 ADD SWAP1 PUSH1 0x1 SWAP1 SUB SWAP1 DUP2 PUSH2 0x32E JUMPI SWAP1 POP JUMPDEST POP SWAP1 POP PUSH1 0x0 JUMPDEST DUP5 MLOAD DUP2 LT ISZERO PUSH2 0x3BF JUMPI PUSH1 0x0 DUP6 DUP3 DUP2 MLOAD DUP2 LT PUSH2 0x367 JUMPI PUSH2 0x366 PUSH2 0xCC4 JUMP JUMPDEST JUMPDEST PUSH1 0x20 MUL PUSH1 0x20 ADD ADD MLOAD SWAP1 POP PUSH1 0x1 DUP2 MLOAD PUSH2 0x37F SWAP2 SWAP1 PUSH2 0xD3B JUMP JUMPDEST DUP5 PUSH2 0x38A SWAP2 SWAP1 PUSH2 0xD3B JUMP JUMPDEST SWAP4 POP DUP1 DUP4 DUP4 DUP2 MLOAD DUP2 LT PUSH2 0x3A0 JUMPI PUSH2 0x39F PUSH2 0xCC4 JUMP JUMPDEST JUMPDEST PUSH1 0x20 MUL PUSH1 0x20 ADD ADD DUP2 SWAP1 MSTORE POP POP DUP1 DUP1 PUSH2 0x3B7 SWAP1 PUSH2 0xCF3 JUMP JUMPDEST SWAP2 POP POP PUSH2 0x349 JUMP JUMPDEST PUSH1 0x0 DUP4 PUSH8 0xFFFFFFFFFFFFFFFF DUP2 GT ISZERO PUSH2 0x3DB JUMPI PUSH2 0x3DA PUSH2 0x7B0 JUMP JUMPDEST JUMPDEST PUSH1 0x40 MLOAD SWAP1 DUP1 DUP3 MSTORE DUP1 PUSH1 0x1F ADD PUSH1 0x1F NOT AND PUSH1 0x20 ADD DUP3 ADD PUSH1 0x40 MSTORE DUP1 ISZERO PUSH2 0x40D JUMPI DUP2 PUSH1 0x20 ADD PUSH1 0x1 DUP3 MUL DUP1 CALLDATASIZE DUP4 CALLDATACOPY DUP1 DUP3 ADD SWAP2 POP POP SWAP1 POP JUMPDEST POP SWAP1 POP PUSH1 0x0 SWAP2 POP PUSH1 0x0 JUMPDEST DUP4 MLOAD DUP2 LT ISZERO PUSH2 0x54A JUMPI PUSH1 0x2F PUSH1 0xF8 SHL DUP3 DUP5 DUP2 MLOAD DUP2 LT PUSH2 0x438 JUMPI PUSH2 0x437 PUSH2 0xCC4 JUMP JUMPDEST JUMPDEST PUSH1 0x20 ADD ADD SWAP1 PUSH31 0xFFFFFFFFFFFFFFFFFFFFFFFFFFFFFFFFFFFFFFFFFFFFFFFFFFFFFFFFFFFFFF NOT AND SWAP1 DUP2 PUSH1 0x0 BYTE SWAP1 MSTORE8 POP DUP3 DUP1 PUSH2 0x472 SWAP1 PUSH2 0xCF3 JUMP JUMPDEST SWAP4 POP POP PUSH1 0x0 JUMPDEST DUP5 DUP3 DUP2 MLOAD DUP2 LT PUSH2 0x48B JUMPI PUSH2 0x48A PUSH2 0xCC4 JUMP JUMPDEST JUMPDEST PUSH1 0x20 MUL PUSH1 0x20 ADD ADD MLOAD MLOAD DUP2 LT ISZERO PUSH2 0x536 JUMPI DUP5 DUP3 DUP2 MLOAD DUP2 LT PUSH2 0x4AE JUMPI PUSH2 0x4AD PUSH2 0xCC4 JUMP JUMPDEST JUMPDEST PUSH1 0x20 MUL PUSH1 0x20 ADD ADD MLOAD DUP2 DUP2 MLOAD DUP2 LT PUSH2 0x4C8 JUMPI PUSH2 0x4C7 PUSH2 0xCC4 JUMP JUMPDEST JUMPDEST PUSH1 0x20 ADD ADD MLOAD PUSH1 0xF8 SHR PUSH1 0xF8 SHL DUP4 DUP6 DUP2 MLOAD DUP2 LT PUSH2 0x4E6 JUMPI PUSH2 0x4E5 PUSH2 0xCC4 JUMP JUMPDEST JUMPDEST PUSH1 0x20 ADD ADD SWAP1 PUSH31 0xFFFFFFFFFFFFFFFFFFFFFFFFFFFFFFFFFFFFFFFFFFFFFFFFFFFFFFFFFFFFFF NOT AND SWAP1 DUP2 PUSH1 0x0 BYTE SWAP1 MSTORE8 POP DUP4 DUP1 PUSH2 0x520 SWAP1 PUSH2 0xCF3 JUMP JUMPDEST SWAP5 POP POP DUP1 DUP1 PUSH2 0x52E SWAP1 PUSH2 0xCF3 JUMP JUMPDEST SWAP2 POP POP PUSH2 0x478 JUMP JUMPDEST POP DUP1 DUP1 PUSH2 0x542 SWAP1 PUSH2 0xCF3 JUMP JUMPDEST SWAP2 POP POP PUSH2 0x417 JUMP JUMPDEST POP DUP1 SWAP5 POP POP POP POP POP SWAP2 SWAP1 POP JUMP JUMPDEST PUSH1 0x60 PUSH1 0x0 DUP3 PUSH8 0xFFFFFFFFFFFFFFFF DUP2 GT ISZERO PUSH2 0x575 JUMPI PUSH2 0x574 PUSH2 0x7B0 JUMP JUMPDEST JUMPDEST PUSH1 0x40 MLOAD SWAP1 DUP1 DUP3 MSTORE DUP1 PUSH1 0x1F ADD PUSH1 0x1F NOT AND PUSH1 0x20 ADD DUP3 ADD PUSH1 0x40 MSTORE DUP1 ISZERO PUSH2 0x5A7 JUMPI DUP2 PUSH1 0x20 ADD PUSH1 0x1 DUP3 MUL DUP1 CALLDATASIZE DUP4 CALLDATACOPY DUP1 DUP3 ADD SWAP2 POP POP SWAP1 POP JUMPDEST POP SWAP1 POP PUSH1 0x0 JUMPDEST DUP4 DUP2 LT ISZERO PUSH2 0x627 JUMPI DUP6 DUP6 DUP3 DUP2 DUP2 LT PUSH2 0x5C8 JUMPI PUSH2 0x5C7 PUSH2 0xCC4 JUMP JUMPDEST JUMPDEST SWAP1 POP ADD CALLDATALOAD PUSH1 0xF8 SHR PUSH1 0xF8 SHL DUP3 DUP3 DUP2 MLOAD DUP2 LT PUSH2 0x5E5 JUMPI PUSH2 0x5E4 PUSH2 0xCC4 JUMP JUMPDEST JUMPDEST PUSH1 0x20 ADD ADD SWAP1 PUSH31 0xFFFFFFFFFFFFFFFFFFFFFFFFFFFFFFFFFFFFFFFFFFFFFFFFFFFFFFFFFFFFFF NOT AND SWAP1 DUP2 PUSH1 0x0 BYTE SWAP1 MSTORE8 POP DUP1 DUP1 PUSH2 0x61F SWAP1 PUSH2 0xCF3 JUMP JUMPDEST SWAP2 POP POP PUSH2 0x5AD JUMP JUMPDEST POP DUP1 SWAP2 POP POP SWAP4 SWAP3 POP POP POP JUMP JUMPDEST PUSH1 0x0 PUSH1 0x40 MLOAD SWAP1 POP SWAP1 JUMP JUMPDEST PUSH1 0x0 DUP1 REVERT JUMPDEST PUSH1 0x0 DUP1 REVERT JUMPDEST PUSH1 0x0 DUP1 REVERT JUMPDEST PUSH1 0x0 DUP1 REVERT JUMPDEST PUSH1 0x0 DUP1 REVERT JUMPDEST PUSH1 0x0 DUP1 DUP4 PUSH1 0x1F DUP5 ADD SLT PUSH2 0x66C JUMPI PUSH2 0x66B PUSH2 0x647 JUMP JUMPDEST JUMPDEST DUP3 CALLDATALOAD SWAP1 POP PUSH8 0xFFFFFFFFFFFFFFFF DUP2 GT ISZERO PUSH2 0x689 JUMPI PUSH2 0x688 PUSH2 0x64C JUMP JUMPDEST JUMPDEST PUSH1 0x20 DUP4 ADD SWAP2 POP DUP4 PUSH1 0x1 DUP3 MUL DUP4 ADD GT ISZERO PUSH2 0x6A5 JUMPI PUSH2 0x6A4 PUSH2 0x651 JUMP JUMPDEST JUMPDEST SWAP3 POP SWAP3 SWAP1 POP JUMP JUMPDEST PUSH1 0x0 DUP1 PUSH1 0x20 DUP4 DUP6 SUB SLT ISZERO PUSH2 0x6C3 JUMPI PUSH2 0x6C2 PUSH2 0x63D JUMP JUMPDEST JUMPDEST PUSH1 0x0 DUP4 ADD CALLDATALOAD PUSH8 0xFFFFFFFFFFFFFFFF DUP2 GT ISZERO PUSH2 0x6E1 JUMPI PUSH2 0x6E0 PUSH2 0x642 JUMP JUMPDEST JUMPDEST PUSH2 0x6ED DUP6 DUP3 DUP7 ADD PUSH2 0x656 JUMP JUMPDEST SWAP3 POP SWAP3 POP POP SWAP3 POP SWAP3 SWAP1 POP JUMP JUMPDEST PUSH1 0x0 DUP2 MLOAD SWAP1 POP SWAP2 SWAP1 POP JUMP JUMPDEST PUSH1 0x0 DUP3 DUP3 MSTORE PUSH1 0x20 DUP3 ADD SWAP1 POP SWAP3 SWAP2 POP POP JUMP JUMPDEST PUSH1 0x0 JUMPDEST DUP4 DUP2 LT ISZERO PUSH2 0x733 JUMPI DUP1 DUP3 ADD MLOAD DUP2 DUP5 ADD MSTORE PUSH1 0x20 DUP2 ADD SWAP1 POP PUSH2 0x718 JUMP JUMPDEST PUSH1 0x0 DUP5 DUP5 ADD MSTORE POP POP POP POP JUMP JUMPDEST PUSH1 0x0 PUSH1 0x1F NOT PUSH1 0x1F DUP4 ADD AND SWAP1 POP SWAP2 SWAP1 POP JUMP JUMPDEST PUSH1 0x0 PUSH2 0x75B DUP3 PUSH2 0x6F9 JUMP JUMPDEST PUSH2 0x765 DUP2 DUP6 PUSH2 0x704 JUMP JUMPDEST SWAP4 POP PUSH2 0x775 DUP2 DUP6 PUSH1 0x20 DUP7 ADD PUSH2 0x715 JUMP JUMPDEST PUSH2 0x77E DUP2 PUSH2 0x73F JUMP JUMPDEST DUP5 ADD SWAP2 POP POP SWAP3 SWAP2 POP POP JUMP JUMPDEST PUSH1 0x0 PUSH1 0x20 DUP3 ADD SWAP1 POP DUP2 DUP2 SUB PUSH1 0x0 DUP4 ADD MSTORE PUSH2 0x7A3 DUP2 DUP5 PUSH2 0x750 JUMP JUMPDEST SWAP1 POP SWAP3 SWAP2 POP POP JUMP JUMPDEST PUSH1 0x0 DUP1 REVERT JUMPDEST PUSH32 0x4E487B7100000000000000000000000000000000000000000000000000000000 PUSH1 0x0 MSTORE PUSH1 0x41 PUSH1 0x4 MSTORE PUSH1 0x24 PUSH1 0x0 REVERT JUMPDEST PUSH2 0x7E8 DUP3 PUSH2 0x73F JUMP JUMPDEST DUP2 ADD DUP2 DUP2 LT PUSH8 0xFFFFFFFFFFFFFFFF DUP3 GT OR ISZERO PUSH2 0x807 JUMPI PUSH2 0x806 PUSH2 0x7B0 JUMP JUMPDEST JUMPDEST DUP1 PUSH1 0x40 MSTORE POP POP POP JUMP JUMPDEST PUSH1 0x0 PUSH2 0x81A PUSH2 0x633 JUMP JUMPDEST SWAP1 POP PUSH2 0x826 DUP3 DUP3 PUSH2 0x7DF JUMP JUMPDEST SWAP2 SWAP1 POP JUMP JUMPDEST PUSH1 0x0 PUSH8 0xFFFFFFFFFFFFFFFF DUP3 GT ISZERO PUSH2 0x846 JUMPI PUSH2 0x845 PUSH2 0x7B0 JUMP JUMPDEST JUMPDEST PUSH2 0x84F DUP3 PUSH2 0x73F JUMP JUMPDEST SWAP1 POP PUSH1 0x20 DUP2 ADD SWAP1 POP SWAP2 SWAP1 POP JUMP JUMPDEST DUP3 DUP2 DUP4 CALLDATACOPY PUSH1 0x0 DUP4 DUP4 ADD MSTORE POP POP POP JUMP JUMPDEST PUSH1 0x0 PUSH2 0x87E PUSH2 0x879 DUP5 PUSH2 0x82B JUMP JUMPDEST PUSH2 0x810 JUMP JUMPDEST SWAP1 POP DUP3 DUP2 MSTORE PUSH1 0x20 DUP2 ADD DUP5 DUP5 DUP5 ADD GT ISZERO PUSH2 0x89A JUMPI PUSH2 0x899 PUSH2 0x7AB JUMP JUMPDEST JUMPDEST PUSH2 0x8A5 DUP5 DUP3 DUP6 PUSH2 0x85C JUMP JUMPDEST POP SWAP4 SWAP3 POP POP POP JUMP JUMPDEST PUSH1 0x0 DUP3 PUSH1 0x1F DUP4 ADD SLT PUSH2 0x8C2 JUMPI PUSH2 0x8C1 PUSH2 0x647 JUMP JUMPDEST JUMPDEST DUP2 CALLDATALOAD PUSH2 0x8D2 DUP5 DUP3 PUSH1 0x20 DUP7 ADD PUSH2 0x86B JUMP JUMPDEST SWAP2 POP POP SWAP3 SWAP2 POP POP JUMP JUMPDEST PUSH1 0x0 DUP1 PUSH1 0x40 DUP4 DUP6 SUB SLT ISZERO PUSH2 0x8F2 JUMPI PUSH2 0x8F1 PUSH2 0x63D JUMP JUMPDEST JUMPDEST PUSH1 0x0 DUP4 ADD CALLDATALOAD PUSH8 0xFFFFFFFFFFFFFFFF DUP2 GT ISZERO PUSH2 0x910 JUMPI PUSH2 0x90F PUSH2 0x642 JUMP JUMPDEST JUMPDEST PUSH2 0x91C DUP6 DUP3 DUP7 ADD PUSH2 0x8AD JUMP JUMPDEST SWAP3 POP POP PUSH1 0x20 DUP4 ADD CALLDATALOAD PUSH8 0xFFFFFFFFFFFFFFFF DUP2 GT ISZERO PUSH2 0x93D JUMPI PUSH2 0x93C PUSH2 0x642 JUMP JUMPDEST JUMPDEST PUSH2 0x949 DUP6 DUP3 DUP7 ADD PUSH2 0x8AD JUMP JUMPDEST SWAP2 POP POP SWAP3 POP SWAP3 SWAP1 POP JUMP JUMPDEST PUSH1 0x0 DUP2 ISZERO ISZERO SWAP1 POP SWAP2 SWAP1 POP JUMP JUMPDEST PUSH2 0x968 DUP2 PUSH2 0x953 JUMP JUMPDEST DUP3 MSTORE POP POP JUMP JUMPDEST PUSH1 0x0 PUSH1 0x20 DUP3 ADD SWAP1 POP PUSH2 0x983 PUSH1 0x0 DUP4 ADD DUP5 PUSH2 0x95F JUMP JUMPDEST SWAP3 SWAP2 POP POP JUMP JUMPDEST PUSH1 0x0 PUSH8 0xFFFFFFFFFFFFFFFF DUP3 GT ISZERO PUSH2 0x9A4 JUMPI PUSH2 0x9A3 PUSH2 0x7B0 JUMP JUMPDEST JUMPDEST PUSH1 0x20 DUP3 MUL SWAP1 POP PUSH1 0x20 DUP2 ADD SWAP1 POP SWAP2 SWAP1 POP JUMP JUMPDEST PUSH1 0x0 PUSH8 0xFFFFFFFFFFFFFFFF DUP3 GT ISZERO PUSH2 0x9D0 JUMPI PUSH2 0x9CF PUSH2 0x7B0 JUMP JUMPDEST JUMPDEST PUSH2 0x9D9 DUP3 PUSH2 0x73F JUMP JUMPDEST SWAP1 POP PUSH1 0x20 DUP2 ADD SWAP1 POP SWAP2 SWAP1 POP JUMP JUMPDEST PUSH1 0x0 PUSH2 0x9F9 PUSH2 0x9F4 DUP5 PUSH2 0x9B5 JUMP JUMPDEST PUSH2 0x810 JUMP JUMPDEST SWAP1 POP DUP3 DUP2 MSTORE PUSH1 0x20 DUP2 ADD DUP5 DUP5 DUP5 ADD GT ISZERO PUSH2 0xA15 JUMPI PUSH2 0xA14 PUSH2 0x7AB JUMP JUMPDEST JUMPDEST PUSH2 0xA20 DUP5 DUP3 DUP6 PUSH2 0x85C JUMP JUMPDEST POP SWAP4 SWAP3 POP POP POP JUMP JUMPDEST PUSH1 0x0 DUP3 PUSH1 0x1F DUP4 ADD SLT PUSH2 0xA3D JUMPI PUSH2 0xA3C PUSH2 0x647 JUMP JUMPDEST JUMPDEST DUP2 CALLDATALOAD PUSH2 0xA4D DUP5 DUP3 PUSH1 0x20 DUP7 ADD PUSH2 0x9E6 JUMP JUMPDEST SWAP2 POP POP SWAP3 SWAP2 POP POP JUMP JUMPDEST PUSH1 0x0 PUSH2 0xA69 PUSH2 0xA64 DUP5 PUSH2 0x989 JUMP JUMPDEST PUSH2 0x810 JUMP JUMPDEST SWAP1 POP DUP1 DUP4 DUP3 MSTORE PUSH1 0x20 DUP3 ADD SWAP1 POP PUSH1 0x20 DUP5 MUL DUP4 ADD DUP6 DUP2 GT ISZERO PUSH2 0xA8C JUMPI PUSH2 0xA8B PUSH2 0x651 JUMP JUMPDEST JUMPDEST DUP4 JUMPDEST DUP2 DUP2 LT ISZERO PUSH2 0xAD3 JUMPI DUP1 CALLDATALOAD PUSH8 0xFFFFFFFFFFFFFFFF DUP2 GT ISZERO PUSH2 0xAB1 JUMPI PUSH2 0xAB0 PUSH2 0x647 JUMP JUMPDEST JUMPDEST DUP1 DUP7 ADD PUSH2 0xABE DUP10 DUP3 PUSH2 0xA28 JUMP JUMPDEST DUP6 MSTORE PUSH1 0x20 DUP6 ADD SWAP5 POP POP POP PUSH1 0x20 DUP2 ADD SWAP1 POP PUSH2 0xA8E JUMP JUMPDEST POP POP POP SWAP4 SWAP3 POP POP POP JUMP JUMPDEST PUSH1 0x0 DUP3 PUSH1 0x1F DUP4 ADD SLT PUSH2 0xAF2 JUMPI PUSH2 0xAF1 PUSH2 0x647 JUMP JUMPDEST JUMPDEST DUP2 CALLDATALOAD PUSH2 0xB02 DUP5 DUP3 PUSH1 0x20 DUP7 ADD PUSH2 0xA56 JUMP JUMPDEST SWAP2 POP POP SWAP3 SWAP2 POP POP JUMP JUMPDEST PUSH1 0x0 PUSH1 0x20 DUP3 DUP5 SUB SLT ISZERO PUSH2 0xB21 JUMPI PUSH2 0xB20 PUSH2 0x63D JUMP JUMPDEST JUMPDEST PUSH1 0x0 DUP3 ADD CALLDATALOAD PUSH8 0xFFFFFFFFFFFFFFFF DUP2 GT ISZERO PUSH2 0xB3F JUMPI PUSH2 0xB3E PUSH2 0x642 JUMP JUMPDEST JUMPDEST PUSH2 0xB4B DUP5 DUP3 DUP6 ADD PUSH2 0xADD JUMP JUMPDEST SWAP2 POP POP SWAP3 SWAP2 POP POP JUMP JUMPDEST PUSH1 0x0 DUP2 MLOAD SWAP1 POP SWAP2 SWAP1 POP JUMP JUMPDEST PUSH1 0x0 DUP3 DUP3 MSTORE PUSH1 0x20 DUP3 ADD SWAP1 POP SWAP3 SWAP2 POP POP JUMP JUMPDEST PUSH1 0x0 PUSH2 0xB7B DUP3 PUSH2 0xB54 JUMP JUMPDEST PUSH2 0xB85 DUP2 DUP6 PUSH2 0xB5F JUMP JUMPDEST SWAP4 POP PUSH2 0xB95 DUP2 DUP6 PUSH1 0x20 DUP7 ADD PUSH2 0x715 JUMP JUMPDEST PUSH2 0xB9E DUP2 PUSH2 0x73F JUMP JUMPDEST DUP5 ADD SWAP2 POP POP SWAP3 SWAP2 POP POP JUMP JUMPDEST PUSH1 0x0 PUSH1 0x20 DUP3 ADD SWAP1 POP DUP2 DUP2 SUB PUSH1 0x0 DUP4 ADD MSTORE PUSH2 0xBC3 DUP2 DUP5 PUSH2 0xB70 JUMP JUMPDEST SWAP1 POP SWAP3 SWAP2 POP POP JUMP JUMPDEST PUSH1 0x0 DUP2 SWAP1 POP SWAP2 SWAP1 POP JUMP JUMPDEST PUSH2 0xBDE DUP2 PUSH2 0xBCB JUMP JUMPDEST DUP2 EQ PUSH2 0xBE9 JUMPI PUSH1 0x0 DUP1 REVERT JUMPDEST POP JUMP JUMPDEST PUSH1 0x0 DUP2 CALLDATALOAD SWAP1 POP PUSH2 0xBFB DUP2 PUSH2 0xBD5 JUMP JUMPDEST SWAP3 SWAP2 POP POP JUMP JUMPDEST PUSH1 0x0 DUP1 PUSH1 0x0 PUSH1 0x40 DUP5 DUP7 SUB SLT ISZERO PUSH2 0xC1A JUMPI PUSH2 0xC19 PUSH2 0x63D JUMP JUMPDEST JUMPDEST PUSH1 0x0 DUP5 ADD CALLDATALOAD PUSH8 0xFFFFFFFFFFFFFFFF DUP2 GT ISZERO PUSH2 0xC38 JUMPI PUSH2 0xC37 PUSH2 0x642 JUMP JUMPDEST JUMPDEST PUSH2 0xC44 DUP7 DUP3 DUP8 ADD PUSH2 0x656 JUMP JUMPDEST SWAP4 POP SWAP4 POP POP PUSH1 0x20 PUSH2 0xC57 DUP7 DUP3 DUP8 ADD PUSH2 0xBEC JUMP JUMPDEST SWAP2 POP POP SWAP3 POP SWAP3 POP SWAP3 JUMP JUMPDEST PUSH32 0x4E487B7100000000000000000000000000000000000000000000000000000000 PUSH1 0x0 MSTORE PUSH1 0x11 PUSH1 0x4 MSTORE PUSH1 0x24 PUSH1 0x0 REVERT JUMPDEST PUSH1 0x0 PUSH2 0xC9B DUP3 PUSH2 0xBCB JUMP JUMPDEST SWAP2 POP PUSH2 0xCA6 DUP4 PUSH2 0xBCB JUMP JUMPDEST SWAP3 POP DUP3 DUP3 SUB SWAP1 POP DUP2 DUP2 GT ISZERO PUSH2 0xCBE JUMPI PUSH2 0xCBD PUSH2 0xC61 JUMP JUMPDEST JUMPDEST SWAP3 SWAP2 POP POP JUMP JUMPDEST PUSH32 0x4E487B7100000000000000000000000000000000000000000000000000000000 PUSH1 0x0 MSTORE PUSH1 0x32 PUSH1 0x4 MSTORE PUSH1 0x24 PUSH1 0x0 REVERT JUMPDEST PUSH1 0x0 PUSH2 0xCFE DUP3 PUSH2 0xBCB JUMP JUMPDEST SWAP2 POP PUSH32 0xFFFFFFFFFFFFFFFFFFFFFFFFFFFFFFFFFFFFFFFFFFFFFFFFFFFFFFFFFFFFFFFF DUP3 SUB PUSH2 0xD30 JUMPI PUSH2 0xD2F PUSH2 0xC61 JUMP JUMPDEST JUMPDEST PUSH1 0x1 DUP3 ADD SWAP1 POP SWAP2 SWAP1 POP JUMP JUMPDEST PUSH1 0x0 PUSH2 0xD46 DUP3 PUSH2 0xBCB JUMP JUMPDEST SWAP2 POP PUSH2 0xD51 DUP4 PUSH2 0xBCB JUMP JUMPDEST SWAP3 POP DUP3 DUP3 ADD SWAP1 POP DUP1 DUP3 GT ISZERO PUSH2 0xD69 JUMPI PUSH2 0xD68 PUSH2 0xC61 JUMP JUMPDEST JUMPDEST SWAP3 SWAP2 POP POP JUMP INVALID LOG2 PUSH5 0x6970667358 0x22 SLT KECCAK256 DUP14 0xC3 0x29 PUSH19 0xE83C6C954C7DED94443715989A4DD5D3E6F6AC 0x28 0xE4 XOR SWAP14 0xE 0xF7 LOG1 STOP PUSH31 0x64736F6C634300081200330000000000000000000000000000000000000000 "
		},
		"gasEstimates": {
			"creation": {
				"codeDepositCost": "698600",
				"executionCost": "759",
				"totalCost": "699359"
			},
			"external": {
				"bytesEquals(bytes,bytes)": "infinite",
				"combine(string[])": "infinite",
				"copyBytes(bytes,uint256)": "infinite",
				"reverseBytes(bytes)": "infinite"
			},
			"internal": {
				"strContains(string memory,bytes memory)": "infinite"
			}
		},
		"methodIdentifiers": {
			"bytesEquals(bytes,bytes)": "7da48317",
			"combine(string[])": "9514fbc9",
			"copyBytes(bytes,uint256)": "c5249be9",
			"reverseBytes(bytes)": "2f278ecb"
		}
	},
	"abi": [
		{
			"inputs": [
				{
					"internalType": "bytes",
					"name": "b1",
					"type": "bytes"
				},
				{
					"internalType": "bytes",
					"name": "b2",
					"type": "bytes"
				}
			],
			"name": "bytesEquals",
			"outputs": [
				{
					"internalType": "bool",
					"name": "",
					"type": "bool"
				}
			],
			"stateMutability": "pure",
			"type": "function"
		},
		{
			"inputs": [
				{
					"internalType": "string[]",
					"name": "paths",
					"type": "string[]"
				}
			],
			"name": "combine",
			"outputs": [
				{
					"internalType": "string",
					"name": "",
					"type": "string"
				}
			],
			"stateMutability": "pure",
			"type": "function"
		},
		{
			"inputs": [
				{
					"internalType": "bytes",
					"name": "b_data",
					"type": "bytes"
				},
				{
					"internalType": "uint256",
					"name": "strLength",
					"type": "uint256"
				}
			],
			"name": "copyBytes",
			"outputs": [
				{
					"internalType": "bytes",
					"name": "resultData",
					"type": "bytes"
				}
			],
			"stateMutability": "pure",
			"type": "function"
		},
		{
			"inputs": [
				{
					"internalType": "bytes",
					"name": "b_data",
					"type": "bytes"
				}
			],
			"name": "reverseBytes",
			"outputs": [
				{
					"internalType": "bytes",
					"name": "",
					"type": "bytes"
				}
			],
			"stateMutability": "pure",
			"type": "function"
		}
	]
}