{
	"data": {
		"bytecode": {
			"linkReferences": {},
			"object": "61059e61004e600b8282823980515f1a607314610042577f4e487b71000000000000000000000000000000000000000000000000000000005f525f60045260245ffd5b305f52607381538281f3fe730000000000000000000000000000000000000000301460806040526004361061003f575f3560e01c80632f278ecb14610043578063c5249be914610073575b5f80fd5b61005d600480360381019061005891906102e2565b6100a3565b60405161006a91906103b7565b60405180910390f35b61008d6004803603810190610088919061040a565b6101a0565b60405161009a91906103b7565b60405180910390f35b60605f8383905067ffffffffffffffff8111156100c3576100c2610467565b5b6040519080825280601f01601f1916602001820160405280156100f55781602001600182028036833780820191505090505b5090505f60018585905061010991906104c1565b90505f5b85859050811015610194578585828461012691906104c1565b818110610136576101356104f4565b5b9050013560f81c60f81b838281518110610153576101526104f4565b5b60200101907effffffffffffffffffffffffffffffffffffffffffffffffffffffffffffff191690815f1a905350808061018c90610521565b91505061010d565b50819250505092915050565b60605f8267ffffffffffffffff8111156101bd576101bc610467565b5b6040519080825280601f01601f1916602001820160405280156101ef5781602001600182028036833780820191505090505b5090505f5b8381101561026d5785858281811061020f5761020e6104f4565b5b9050013560f81c60f81b82828151811061022c5761022b6104f4565b5b60200101907effffffffffffffffffffffffffffffffffffffffffffffffffffffffffffff191690815f1a905350808061026590610521565b9150506101f4565b50809150509392505050565b5f80fd5b5f80fd5b5f80fd5b5f80fd5b5f80fd5b5f8083601f8401126102a2576102a1610281565b5b8235905067ffffffffffffffff8111156102bf576102be610285565b5b6020830191508360018202830111156102db576102da610289565b5b9250929050565b5f80602083850312156102f8576102f7610279565b5b5f83013567ffffffffffffffff8111156103155761031461027d565b5b6103218582860161028d565b92509250509250929050565b5f81519050919050565b5f82825260208201905092915050565b5f5b83811015610364578082015181840152602081019050610349565b5f8484015250505050565b5f601f19601f8301169050919050565b5f6103898261032d565b6103938185610337565b93506103a3818560208601610347565b6103ac8161036f565b840191505092915050565b5f6020820190508181035f8301526103cf818461037f565b905092915050565b5f819050919050565b6103e9816103d7565b81146103f3575f80fd5b50565b5f81359050610404816103e0565b92915050565b5f805f6040848603121561042157610420610279565b5b5f84013567ffffffffffffffff81111561043e5761043d61027d565b5b61044a8682870161028d565b9350935050602061045d868287016103f6565b9150509250925092565b7f4e487b71000000000000000000000000000000000000000000000000000000005f52604160045260245ffd5b7f4e487b71000000000000000000000000000000000000000000000000000000005f52601160045260245ffd5b5f6104cb826103d7565b91506104d6836103d7565b92508282039050818111156104ee576104ed610494565b5b92915050565b7f4e487b71000000000000000000000000000000000000000000000000000000005f52603260045260245ffd5b5f61052b826103d7565b91507fffffffffffffffffffffffffffffffffffffffffffffffffffffffffffffffff820361055d5761055c610494565b5b60018201905091905056fea26469706673582212206fc0eaf902005574f67b548b700ceff7ef1f4e3ec35bc44d89bde1300c5aa6a464736f6c63430008140033",
			"opcodes": "PUSH2 0x59E PUSH2 0x4E PUSH1 0xB DUP3 DUP3 DUP3 CODECOPY DUP1 MLOAD PUSH0 BYTE PUSH1 0x73 EQ PUSH2 0x42 JUMPI PUSH32 0x4E487B7100000000000000000000000000000000000000000000000000000000 PUSH0 MSTORE PUSH0 PUSH1 0x4 MSTORE PUSH1 0x24 PUSH0 REVERT JUMPDEST ADDRESS PUSH0 MSTORE PUSH1 0x73 DUP2 MSTORE8 DUP3 DUP2 RETURN INVALID PUSH20 0x0 ADDRESS EQ PUSH1 0x80 PUSH1 0x40 MSTORE PUSH1 0x4 CALLDATASIZE LT PUSH2 0x3F JUMPI PUSH0 CALLDATALOAD PUSH1 0xE0 SHR DUP1 PUSH4 0x2F278ECB EQ PUSH2 0x43 JUMPI DUP1 PUSH4 0xC5249BE9 EQ PUSH2 0x73 JUMPI JUMPDEST PUSH0 DUP1 REVERT JUMPDEST PUSH2 0x5D PUSH1 0x4 DUP1 CALLDATASIZE SUB DUP2 ADD SWAP1 PUSH2 0x58 SWAP2 SWAP1 PUSH2 0x2E2 JUMP JUMPDEST PUSH2 0xA3 JUMP JUMPDEST PUSH1 0x40 MLOAD PUSH2 0x6A SWAP2 SWAP1 PUSH2 0x3B7 JUMP JUMPDEST PUSH1 0x40 MLOAD DUP1 SWAP2 SUB SWAP1 RETURN JUMPDEST PUSH2 0x8D PUSH1 0x4 DUP1 CALLDATASIZE SUB DUP2 ADD SWAP1 PUSH2 0x88 SWAP2 SWAP1 PUSH2 0x40A JUMP JUMPDEST PUSH2 0x1A0 JUMP JUMPDEST PUSH1 0x40 MLOAD PUSH2 0x9A SWAP2 SWAP1 PUSH2 0x3B7 JUMP JUMPDEST PUSH1 0x40 MLOAD DUP1 SWAP2 SUB SWAP1 RETURN JUMPDEST PUSH1 0x60 PUSH0 DUP4 DUP4 SWAP1 POP PUSH8 0xFFFFFFFFFFFFFFFF DUP2 GT ISZERO PUSH2 0xC3 JUMPI PUSH2 0xC2 PUSH2 0x467 JUMP JUMPDEST JUMPDEST PUSH1 0x40 MLOAD SWAP1 DUP1 DUP3 MSTORE DUP1 PUSH1 0x1F ADD PUSH1 0x1F NOT AND PUSH1 0x20 ADD DUP3 ADD PUSH1 0x40 MSTORE DUP1 ISZERO PUSH2 0xF5 JUMPI DUP2 PUSH1 0x20 ADD PUSH1 0x1 DUP3 MUL DUP1 CALLDATASIZE DUP4 CALLDATACOPY DUP1 DUP3 ADD SWAP2 POP POP SWAP1 POP JUMPDEST POP SWAP1 POP PUSH0 PUSH1 0x1 DUP6 DUP6 SWAP1 POP PUSH2 0x109 SWAP2 SWAP1 PUSH2 0x4C1 JUMP JUMPDEST SWAP1 POP PUSH0 JUMPDEST DUP6 DUP6 SWAP1 POP DUP2 LT ISZERO PUSH2 0x194 JUMPI DUP6 DUP6 DUP3 DUP5 PUSH2 0x126 SWAP2 SWAP1 PUSH2 0x4C1 JUMP JUMPDEST DUP2 DUP2 LT PUSH2 0x136 JUMPI PUSH2 0x135 PUSH2 0x4F4 JUMP JUMPDEST JUMPDEST SWAP1 POP ADD CALLDATALOAD PUSH1 0xF8 SHR PUSH1 0xF8 SHL DUP4 DUP3 DUP2 MLOAD DUP2 LT PUSH2 0x153 JUMPI PUSH2 0x152 PUSH2 0x4F4 JUMP JUMPDEST JUMPDEST PUSH1 0x20 ADD ADD SWAP1 PUSH31 0xFFFFFFFFFFFFFFFFFFFFFFFFFFFFFFFFFFFFFFFFFFFFFFFFFFFFFFFFFFFFFF NOT AND SWAP1 DUP2 PUSH0 BYTE SWAP1 MSTORE8 POP DUP1 DUP1 PUSH2 0x18C SWAP1 PUSH2 0x521 JUMP JUMPDEST SWAP2 POP POP PUSH2 0x10D JUMP JUMPDEST POP DUP2 SWAP3 POP POP POP SWAP3 SWAP2 POP POP JUMP JUMPDEST PUSH1 0x60 PUSH0 DUP3 PUSH8 0xFFFFFFFFFFFFFFFF DUP2 GT ISZERO PUSH2 0x1BD JUMPI PUSH2 0x1BC PUSH2 0x467 JUMP JUMPDEST JUMPDEST PUSH1 0x40 MLOAD SWAP1 DUP1 DUP3 MSTORE DUP1 PUSH1 0x1F ADD PUSH1 0x1F NOT AND PUSH1 0x20 ADD DUP3 ADD PUSH1 0x40 MSTORE DUP1 ISZERO PUSH2 0x1EF JUMPI DUP2 PUSH1 0x20 ADD PUSH1 0x1 DUP3 MUL DUP1 CALLDATASIZE DUP4 CALLDATACOPY DUP1 DUP3 ADD SWAP2 POP POP SWAP1 POP JUMPDEST POP SWAP1 POP PUSH0 JUMPDEST DUP4 DUP2 LT ISZERO PUSH2 0x26D JUMPI DUP6 DUP6 DUP3 DUP2 DUP2 LT PUSH2 0x20F JUMPI PUSH2 0x20E PUSH2 0x4F4 JUMP JUMPDEST JUMPDEST SWAP1 POP ADD CALLDATALOAD PUSH1 0xF8 SHR PUSH1 0xF8 SHL DUP3 DUP3 DUP2 MLOAD DUP2 LT PUSH2 0x22C JUMPI PUSH2 0x22B PUSH2 0x4F4 JUMP JUMPDEST JUMPDEST PUSH1 0x20 ADD ADD SWAP1 PUSH31 0xFFFFFFFFFFFFFFFFFFFFFFFFFFFFFFFFFFFFFFFFFFFFFFFFFFFFFFFFFFFFFF NOT AND SWAP1 DUP2 PUSH0 BYTE SWAP1 MSTORE8 POP DUP1 DUP1 PUSH2 0x265 SWAP1 PUSH2 0x521 JUMP JUMPDEST SWAP2 POP POP PUSH2 0x1F4 JUMP JUMPDEST POP DUP1 SWAP2 POP POP SWAP4 SWAP3 POP POP POP JUMP JUMPDEST PUSH0 DUP1 REVERT JUMPDEST PUSH0 DUP1 REVERT JUMPDEST PUSH0 DUP1 REVERT JUMPDEST PUSH0 DUP1 REVERT JUMPDEST PUSH0 DUP1 REVERT JUMPDEST PUSH0 DUP1 DUP4 PUSH1 0x1F DUP5 ADD SLT PUSH2 0x2A2 JUMPI PUSH2 0x2A1 PUSH2 0x281 JUMP JUMPDEST JUMPDEST DUP3 CALLDATALOAD SWAP1 POP PUSH8 0xFFFFFFFFFFFFFFFF DUP2 GT ISZERO PUSH2 0x2BF JUMPI PUSH2 0x2BE PUSH2 0x285 JUMP JUMPDEST JUMPDEST PUSH1 0x20 DUP4 ADD SWAP2 POP DUP4 PUSH1 0x1 DUP3 MUL DUP4 ADD GT ISZERO PUSH2 0x2DB JUMPI PUSH2 0x2DA PUSH2 0x289 JUMP JUMPDEST JUMPDEST SWAP3 POP SWAP3 SWAP1 POP JUMP JUMPDEST PUSH0 DUP1 PUSH1 0x20 DUP4 DUP6 SUB SLT ISZERO PUSH2 0x2F8 JUMPI PUSH2 0x2F7 PUSH2 0x279 JUMP JUMPDEST JUMPDEST PUSH0 DUP4 ADD CALLDATALOAD PUSH8 0xFFFFFFFFFFFFFFFF DUP2 GT ISZERO PUSH2 0x315 JUMPI PUSH2 0x314 PUSH2 0x27D JUMP JUMPDEST JUMPDEST PUSH2 0x321 DUP6 DUP3 DUP7 ADD PUSH2 0x28D JUMP JUMPDEST SWAP3 POP SWAP3 POP POP SWAP3 POP SWAP3 SWAP1 POP JUMP JUMPDEST PUSH0 DUP2 MLOAD SWAP1 POP SWAP2 SWAP1 POP JUMP JUMPDEST PUSH0 DUP3 DUP3 MSTORE PUSH1 0x20 DUP3 ADD SWAP1 POP SWAP3 SWAP2 POP POP JUMP JUMPDEST PUSH0 JUMPDEST DUP4 DUP2 LT ISZERO PUSH2 0x364 JUMPI DUP1 DUP3 ADD MLOAD DUP2 DUP5 ADD MSTORE PUSH1 0x20 DUP2 ADD SWAP1 POP PUSH2 0x349 JUMP JUMPDEST PUSH0 DUP5 DUP5 ADD MSTORE POP POP POP POP JUMP JUMPDEST PUSH0 PUSH1 0x1F NOT PUSH1 0x1F DUP4 ADD AND SWAP1 POP SWAP2 SWAP1 POP JUMP JUMPDEST PUSH0 PUSH2 0x389 DUP3 PUSH2 0x32D JUMP JUMPDEST PUSH2 0x393 DUP2 DUP6 PUSH2 0x337 JUMP JUMPDEST SWAP4 POP PUSH2 0x3A3 DUP2 DUP6 PUSH1 0x20 DUP7 ADD PUSH2 0x347 JUMP JUMPDEST PUSH2 0x3AC DUP2 PUSH2 0x36F JUMP JUMPDEST DUP5 ADD SWAP2 POP POP SWAP3 SWAP2 POP POP JUMP JUMPDEST PUSH0 PUSH1 0x20 DUP3 ADD SWAP1 POP DUP2 DUP2 SUB PUSH0 DUP4 ADD MSTORE PUSH2 0x3CF DUP2 DUP5 PUSH2 0x37F JUMP JUMPDEST SWAP1 POP SWAP3 SWAP2 POP POP JUMP JUMPDEST PUSH0 DUP2 SWAP1 POP SWAP2 SWAP1 POP JUMP JUMPDEST PUSH2 0x3E9 DUP2 PUSH2 0x3D7 JUMP JUMPDEST DUP2 EQ PUSH2 0x3F3 JUMPI PUSH0 DUP1 REVERT JUMPDEST POP JUMP JUMPDEST PUSH0 DUP2 CALLDATALOAD SWAP1 POP PUSH2 0x404 DUP2 PUSH2 0x3E0 JUMP JUMPDEST SWAP3 SWAP2 POP POP JUMP JUMPDEST PUSH0 DUP1 PUSH0 PUSH1 0x40 DUP5 DUP7 SUB SLT ISZERO PUSH2 0x421 JUMPI PUSH2 0x420 PUSH2 0x279 JUMP JUMPDEST JUMPDEST PUSH0 DUP5 ADD CALLDATALOAD PUSH8 0xFFFFFFFFFFFFFFFF DUP2 GT ISZERO PUSH2 0x43E JUMPI PUSH2 0x43D PUSH2 0x27D JUMP JUMPDEST JUMPDEST PUSH2 0x44A DUP7 DUP3 DUP8 ADD PUSH2 0x28D JUMP JUMPDEST SWAP4 POP SWAP4 POP POP PUSH1 0x20 PUSH2 0x45D DUP7 DUP3 DUP8 ADD PUSH2 0x3F6 JUMP JUMPDEST SWAP2 POP POP SWAP3 POP SWAP3 POP SWAP3 JUMP JUMPDEST PUSH32 0x4E487B7100000000000000000000000000000000000000000000000000000000 PUSH0 MSTORE PUSH1 0x41 PUSH1 0x4 MSTORE PUSH1 0x24 PUSH0 REVERT JUMPDEST PUSH32 0x4E487B7100000000000000000000000000000000000000000000000000000000 PUSH0 MSTORE PUSH1 0x11 PUSH1 0x4 MSTORE PUSH1 0x24 PUSH0 REVERT JUMPDEST PUSH0 PUSH2 0x4CB DUP3 PUSH2 0x3D7 JUMP JUMPDEST SWAP2 POP PUSH2 0x4D6 DUP4 PUSH2 0x3D7 JUMP JUMPDEST SWAP3 POP DUP3 DUP3 SUB SWAP1 POP DUP2 DUP2 GT ISZERO PUSH2 0x4EE JUMPI PUSH2 0x4ED PUSH2 0x494 JUMP JUMPDEST JUMPDEST SWAP3 SWAP2 POP POP JUMP JUMPDEST PUSH32 0x4E487B7100000000000000000000000000000000000000000000000000000000 PUSH0 MSTORE PUSH1 0x32 PUSH1 0x4 MSTORE PUSH1 0x24 PUSH0 REVERT JUMPDEST PUSH0 PUSH2 0x52B DUP3 PUSH2 0x3D7 JUMP JUMPDEST SWAP2 POP PUSH32 0xFFFFFFFFFFFFFFFFFFFFFFFFFFFFFFFFFFFFFFFFFFFFFFFFFFFFFFFFFFFFFFFF DUP3 SUB PUSH2 0x55D JUMPI PUSH2 0x55C PUSH2 0x494 JUMP JUMPDEST JUMPDEST PUSH1 0x1 DUP3 ADD SWAP1 POP SWAP2 SWAP1 POP JUMP INVALID LOG2 PUSH5 0x6970667358 0x22 SLT KECCAK256 PUSH16 0xC0EAF902005574F67B548B700CEFF7EF 0x1F 0x4E RETURNDATACOPY 0xC3 JUMPDEST 0xC4 0x4D DUP10 0xBD 0xE1 ADDRESS 0xC GAS 0xA6 LOG4 PUSH5 0x736F6C6343 STOP ADDMOD EQ STOP CALLER "
		},
		"gasEstimates": {
			"creation": {
				"codeDepositCost": "287600",
				"executionCost": "351",
				"totalCost": "287951"
			},
			"external": {
				"copyBytes(bytes,uint256)": "infinite",
				"reverseBytes(bytes)": "infinite"
			},
			"internal": {
				"strContains(string memory,bytes memory)": "infinite"
			}
		},
		"methodIdentifiers": {
			"copyBytes(bytes,uint256)": "c5249be9",
			"reverseBytes(bytes)": "2f278ecb"
		}
	},
	"abi": [
		{
			"inputs": [
				{
					"internalType": "bytes",
					"name": "b_data",
					"type": "bytes"
				},
				{
					"internalType": "uint256",
					"name": "strLength",
					"type": "uint256"
				}
			],
			"name": "copyBytes",
			"outputs": [
				{
					"internalType": "bytes",
					"name": "resultData",
					"type": "bytes"
				}
			],
			"stateMutability": "pure",
			"type": "function"
		},
		{
			"inputs": [
				{
					"internalType": "bytes",
					"name": "b_data",
					"type": "bytes"
				}
			],
			"name": "reverseBytes",
			"outputs": [
				{
					"internalType": "bytes",
					"name": "",
					"type": "bytes"
				}
			],
			"stateMutability": "pure",
			"type": "function"
		}
	]
}