{
	"Week1/X7Opsilon.sol": {
		"X7Opsilon": {
			"abi": [
				{
					"inputs": [],
					"name": "unsupportedDirectory",
					"type": "error"
				},
				{
					"inputs": [],
					"name": "unsupportedFile",
					"type": "error"
				},
				{
					"inputs": [
						{
							"internalType": "uint256",
							"name": "",
							"type": "uint256"
						}
					],
					"name": "FileFrames",
					"outputs": [
						{
							"internalType": "string",
							"name": "Id",
							"type": "string"
						},
						{
							"internalType": "string",
							"name": "Name",
							"type": "string"
						},
						{
							"internalType": "string",
							"name": "Extension",
							"type": "string"
						},
						{
							"internalType": "bytes",
							"name": "FileData",
							"type": "bytes"
						},
						{
							"internalType": "string",
							"name": "Directory",
							"type": "string"
						},
						{
							"internalType": "uint256",
							"name": "DirectoryCount",
							"type": "uint256"
						},
						{
							"internalType": "uint256",
							"name": "DirectoryLength",
							"type": "uint256"
						}
					],
					"stateMutability": "view",
					"type": "function"
				},
				{
					"inputs": [
						{
							"internalType": "string",
							"name": "directory",
							"type": "string"
						}
					],
					"name": "directoryProcess",
					"outputs": [
						{
							"internalType": "string[]",
							"name": "",
							"type": "string[]"
						},
						{
							"internalType": "string",
							"name": "",
							"type": "string"
						},
						{
							"internalType": "uint256",
							"name": "",
							"type": "uint256"
						},
						{
							"internalType": "uint256",
							"name": "",
							"type": "uint256"
						}
					],
					"stateMutability": "pure",
					"type": "function"
				},
				{
					"inputs": [
						{
							"internalType": "string",
							"name": "fullName",
							"type": "string"
						}
					],
					"name": "fileNameProcess",
					"outputs": [
						{
							"internalType": "string",
							"name": "",
							"type": "string"
						},
						{
							"internalType": "string",
							"name": "",
							"type": "string"
						}
					],
					"stateMutability": "pure",
					"type": "function"
				},
				{
					"inputs": [
						{
							"internalType": "string",
							"name": "fullName",
							"type": "string"
						},
						{
							"internalType": "string",
							"name": "directory",
							"type": "string"
						},
						{
							"internalType": "bytes",
							"name": "fileData",
							"type": "bytes"
						}
					],
					"name": "uploadFile",
					"outputs": [],
					"stateMutability": "nonpayable",
					"type": "function"
				}
			],
			"devdoc": {
				"kind": "dev",
				"methods": {},
				"version": 1
			},
			"evm": {
				"assembly": "    /* \"Week1/X7Opsilon.sol\":175:4887  contract X7Opsilon {... */\n  mstore(0x40, 0x80)\n  callvalue\n  dup1\n  iszero\n  tag_1\n  jumpi\n  0x00\n  dup1\n  revert\ntag_1:\n  pop\n  dataSize(sub_0)\n  dup1\n  dataOffset(sub_0)\n  0x00\n  codecopy\n  0x00\n  return\nstop\n\nsub_0: assembly {\n        /* \"Week1/X7Opsilon.sol\":175:4887  contract X7Opsilon {... */\n      mstore(0x40, 0x80)\n      callvalue\n      dup1\n      iszero\n      tag_1\n      jumpi\n      0x00\n      dup1\n      revert\n    tag_1:\n      pop\n      jumpi(tag_2, lt(calldatasize, 0x04))\n      shr(0xe0, calldataload(0x00))\n      dup1\n      0x09f1cffc\n      eq\n      tag_3\n      jumpi\n      dup1\n      0x3b594fcc\n      eq\n      tag_4\n      jumpi\n      dup1\n      0x4ce185ec\n      eq\n      tag_5\n      jumpi\n      dup1\n      0x95b5e559\n      eq\n      tag_6\n      jumpi\n    tag_2:\n      0x00\n      dup1\n      revert\n        /* \"Week1/X7Opsilon.sol\":841:1452  function uploadFile(... */\n    tag_3:\n      tag_7\n      0x04\n      dup1\n      calldatasize\n      sub\n      dup2\n      add\n      swap1\n      tag_8\n      swap2\n      swap1\n      tag_9\n      jump\t// in\n    tag_8:\n      tag_10\n      jump\t// in\n    tag_7:\n      stop\n        /* \"Week1/X7Opsilon.sol\":3536:4758  function fileNameProcess(string memory fullName) public pure returns(string memory, string memory){... */\n    tag_4:\n      tag_11\n      0x04\n      dup1\n      calldatasize\n      sub\n      dup2\n      add\n      swap1\n      tag_12\n      swap2\n      swap1\n      tag_13\n      jump\t// in\n    tag_12:\n      tag_14\n      jump\t// in\n    tag_11:\n      mload(0x40)\n      tag_15\n      swap3\n      swap2\n      swap1\n      tag_16\n      jump\t// in\n    tag_15:\n      mload(0x40)\n      dup1\n      swap2\n      sub\n      swap1\n      return\n        /* \"Week1/X7Opsilon.sol\":507:536  FileFrame[] public FileFrames */\n    tag_5:\n      tag_17\n      0x04\n      dup1\n      calldatasize\n      sub\n      dup2\n      add\n      swap1\n      tag_18\n      swap2\n      swap1\n      tag_19\n      jump\t// in\n    tag_18:\n      tag_20\n      jump\t// in\n    tag_17:\n      mload(0x40)\n      tag_21\n      swap8\n      swap7\n      swap6\n      swap5\n      swap4\n      swap3\n      swap2\n      swap1\n      tag_22\n      jump\t// in\n    tag_21:\n      mload(0x40)\n      dup1\n      swap2\n      sub\n      swap1\n      return\n        /* \"Week1/X7Opsilon.sol\":1654:3530  function directoryProcess(string memory directory)... */\n    tag_6:\n      tag_23\n      0x04\n      dup1\n      calldatasize\n      sub\n      dup2\n      add\n      swap1\n      tag_24\n      swap2\n      swap1\n      tag_13\n      jump\t// in\n    tag_24:\n      tag_25\n      jump\t// in\n    tag_23:\n      mload(0x40)\n      tag_26\n      swap5\n      swap4\n      swap3\n      swap2\n      swap1\n      tag_27\n      jump\t// in\n    tag_26:\n      mload(0x40)\n      dup1\n      swap2\n      sub\n      swap1\n      return\n        /* \"Week1/X7Opsilon.sol\":841:1452  function uploadFile(... */\n    tag_10:\n        /* \"Week1/X7Opsilon.sol\":982:998  string memory id */\n      0x00\n        /* \"Week1/X7Opsilon.sol\":1001:1011  getNewId() */\n      tag_29\n        /* \"Week1/X7Opsilon.sol\":1001:1009  getNewId */\n      tag_30\n        /* \"Week1/X7Opsilon.sol\":1001:1011  getNewId() */\n      jump\t// in\n    tag_29:\n        /* \"Week1/X7Opsilon.sol\":982:1011  string memory id = getNewId() */\n      swap1\n      pop\n        /* \"Week1/X7Opsilon.sol\":1022:1048  string memory fixDirectory */\n      0x00\n        /* \"Week1/X7Opsilon.sol\":1058:1080  uint256 directoryCount */\n      dup1\n        /* \"Week1/X7Opsilon.sol\":1090:1113  uint256 directoryLength */\n      0x00\n        /* \"Week1/X7Opsilon.sol\":1117:1144  directoryProcess(directory) */\n      tag_31\n        /* \"Week1/X7Opsilon.sol\":1134:1143  directory */\n      dup9\n      dup9\n        /* \"Week1/X7Opsilon.sol\":1117:1144  directoryProcess(directory) */\n      dup1\n      dup1\n      0x1f\n      add\n      0x20\n      dup1\n      swap2\n      div\n      mul\n      0x20\n      add\n      mload(0x40)\n      swap1\n      dup2\n      add\n      0x40\n      mstore\n      dup1\n      swap4\n      swap3\n      swap2\n      swap1\n      dup2\n      dup2\n      mstore\n      0x20\n      add\n      dup4\n      dup4\n      dup1\n      dup3\n      dup5\n      calldatacopy\n      0x00\n      dup2\n      dup5\n      add\n      mstore\n      not(0x1f)\n      0x1f\n      dup3\n      add\n      and\n      swap1\n      pop\n      dup1\n      dup4\n      add\n      swap3\n      pop\n      pop\n      pop\n      pop\n      pop\n      pop\n      pop\n        /* \"Week1/X7Opsilon.sol\":1117:1133  directoryProcess */\n      tag_25\n        /* \"Week1/X7Opsilon.sol\":1117:1144  directoryProcess(directory) */\n      jump\t// in\n    tag_31:\n        /* \"Week1/X7Opsilon.sol\":1020:1144  (,string memory fixDirectory, ... */\n      swap4\n      pop\n      swap4\n      pop\n      swap4\n      pop\n      pop\n        /* \"Week1/X7Opsilon.sol\":1155:1178  string memory extension */\n      0x00\n        /* \"Week1/X7Opsilon.sol\":1180:1202  string memory fileName */\n      dup1\n        /* \"Week1/X7Opsilon.sol\":1206:1231  fileNameProcess(fullName) */\n      tag_32\n        /* \"Week1/X7Opsilon.sol\":1222:1230  fullName */\n      dup13\n      dup13\n        /* \"Week1/X7Opsilon.sol\":1206:1231  fileNameProcess(fullName) */\n      dup1\n      dup1\n      0x1f\n      add\n      0x20\n      dup1\n      swap2\n      div\n      mul\n      0x20\n      add\n      mload(0x40)\n      swap1\n      dup2\n      add\n      0x40\n      mstore\n      dup1\n      swap4\n      swap3\n      swap2\n      swap1\n      dup2\n      dup2\n      mstore\n      0x20\n      add\n      dup4\n      dup4\n      dup1\n      dup3\n      dup5\n      calldatacopy\n      0x00\n      dup2\n      dup5\n      add\n      mstore\n      not(0x1f)\n      0x1f\n      dup3\n      add\n      and\n      swap1\n      pop\n      dup1\n      dup4\n      add\n      swap3\n      pop\n      pop\n      pop\n      pop\n      pop\n      pop\n      pop\n        /* \"Week1/X7Opsilon.sol\":1206:1221  fileNameProcess */\n      tag_14\n        /* \"Week1/X7Opsilon.sol\":1206:1231  fileNameProcess(fullName) */\n      jump\t// in\n    tag_32:\n        /* \"Week1/X7Opsilon.sol\":1154:1231  (string memory extension, string memory fileName) = fileNameProcess(fullName) */\n      swap2\n      pop\n      swap2\n      pop\n        /* \"Week1/X7Opsilon.sol\":1241:1251  FileFrames */\n      0x00\n        /* \"Week1/X7Opsilon.sol\":1257:1444  FileFrame(... */\n      mload(0x40)\n      dup1\n      0xe0\n      add\n      0x40\n      mstore\n      dup1\n        /* \"Week1/X7Opsilon.sol\":1279:1281  id */\n      dup9\n        /* \"Week1/X7Opsilon.sol\":1257:1444  FileFrame(... */\n      dup2\n      mstore\n      0x20\n      add\n        /* \"Week1/X7Opsilon.sol\":1303:1311  fileName */\n      dup4\n        /* \"Week1/X7Opsilon.sol\":1257:1444  FileFrame(... */\n      dup2\n      mstore\n      0x20\n      add\n        /* \"Week1/X7Opsilon.sol\":1324:1333  extension */\n      dup5\n        /* \"Week1/X7Opsilon.sol\":1257:1444  FileFrame(... */\n      dup2\n      mstore\n      0x20\n      add\n        /* \"Week1/X7Opsilon.sol\":1346:1354  fileData */\n      dup11\n      dup11\n        /* \"Week1/X7Opsilon.sol\":1257:1444  FileFrame(... */\n      dup1\n      dup1\n      0x1f\n      add\n      0x20\n      dup1\n      swap2\n      div\n      mul\n      0x20\n      add\n      mload(0x40)\n      swap1\n      dup2\n      add\n      0x40\n      mstore\n      dup1\n      swap4\n      swap3\n      swap2\n      swap1\n      dup2\n      dup2\n      mstore\n      0x20\n      add\n      dup4\n      dup4\n      dup1\n      dup3\n      dup5\n      calldatacopy\n      0x00\n      dup2\n      dup5\n      add\n      mstore\n      not(0x1f)\n      0x1f\n      dup3\n      add\n      and\n      swap1\n      pop\n      dup1\n      dup4\n      add\n      swap3\n      pop\n      pop\n      pop\n      pop\n      pop\n      pop\n      pop\n      dup2\n      mstore\n      0x20\n      add\n        /* \"Week1/X7Opsilon.sol\":1367:1379  fixDirectory */\n      dup8\n        /* \"Week1/X7Opsilon.sol\":1257:1444  FileFrame(... */\n      dup2\n      mstore\n      0x20\n      add\n        /* \"Week1/X7Opsilon.sol\":1392:1406  directoryCount */\n      dup7\n        /* \"Week1/X7Opsilon.sol\":1257:1444  FileFrame(... */\n      dup2\n      mstore\n      0x20\n      add\n        /* \"Week1/X7Opsilon.sol\":1419:1434  directoryLength */\n      dup6\n        /* \"Week1/X7Opsilon.sol\":1257:1444  FileFrame(... */\n      dup2\n      mstore\n      pop\n        /* \"Week1/X7Opsilon.sol\":1241:1445  FileFrames.push(FileFrame(... */\n      swap1\n      dup1\n      0x01\n      dup2\n      sload\n      add\n      dup1\n      dup3\n      sstore\n      dup1\n      swap2\n      pop\n      pop\n      0x01\n      swap1\n      sub\n      swap1\n      0x00\n      mstore\n      keccak256(0x00, 0x20)\n      swap1\n      0x07\n      mul\n      add\n      0x00\n      swap1\n      swap2\n      swap1\n      swap2\n      swap1\n      swap2\n      pop\n      0x00\n      dup3\n      add\n      mload\n      dup2\n      0x00\n      add\n      swap1\n      dup2\n      tag_34\n      swap2\n      swap1\n      tag_35\n      jump\t// in\n    tag_34:\n      pop\n      0x20\n      dup3\n      add\n      mload\n      dup2\n      0x01\n      add\n      swap1\n      dup2\n      tag_36\n      swap2\n      swap1\n      tag_35\n      jump\t// in\n    tag_36:\n      pop\n      0x40\n      dup3\n      add\n      mload\n      dup2\n      0x02\n      add\n      swap1\n      dup2\n      tag_37\n      swap2\n      swap1\n      tag_35\n      jump\t// in\n    tag_37:\n      pop\n      0x60\n      dup3\n      add\n      mload\n      dup2\n      0x03\n      add\n      swap1\n      dup2\n      tag_38\n      swap2\n      swap1\n      tag_39\n      jump\t// in\n    tag_38:\n      pop\n      0x80\n      dup3\n      add\n      mload\n      dup2\n      0x04\n      add\n      swap1\n      dup2\n      tag_40\n      swap2\n      swap1\n      tag_35\n      jump\t// in\n    tag_40:\n      pop\n      0xa0\n      dup3\n      add\n      mload\n      dup2\n      0x05\n      add\n      sstore\n      0xc0\n      dup3\n      add\n      mload\n      dup2\n      0x06\n      add\n      sstore\n      pop\n      pop\n        /* \"Week1/X7Opsilon.sol\":973:1452  {... */\n      pop\n      pop\n      pop\n      pop\n      pop\n      pop\n        /* \"Week1/X7Opsilon.sol\":841:1452  function uploadFile(... */\n      pop\n      pop\n      pop\n      pop\n      pop\n      pop\n      jump\t// out\n        /* \"Week1/X7Opsilon.sol\":3536:4758  function fileNameProcess(string memory fullName) public pure returns(string memory, string memory){... */\n    tag_14:\n        /* \"Week1/X7Opsilon.sol\":3605:3618  string memory */\n      0x60\n        /* \"Week1/X7Opsilon.sol\":3620:3633  string memory */\n      dup1\n        /* \"Week1/X7Opsilon.sol\":3644:3667  bytes memory b_fullName */\n      0x00\n        /* \"Week1/X7Opsilon.sol\":3676:3684  fullName */\n      dup4\n        /* \"Week1/X7Opsilon.sol\":3644:3685  bytes memory b_fullName = bytes(fullName) */\n      swap1\n      pop\n        /* \"Week1/X7Opsilon.sol\":3695:3717  bytes memory extension */\n      0x00\n        /* \"Week1/X7Opsilon.sol\":3730:3732  50 */\n      0x32\n        /* \"Week1/X7Opsilon.sol\":3720:3733  new bytes(50) */\n      0xffffffffffffffff\n      dup2\n      gt\n      iszero\n      tag_42\n      jumpi\n      tag_43\n      tag_44\n      jump\t// in\n    tag_43:\n    tag_42:\n      mload(0x40)\n      swap1\n      dup1\n      dup3\n      mstore\n      dup1\n      0x1f\n      add\n      not(0x1f)\n      and\n      0x20\n      add\n      dup3\n      add\n      0x40\n      mstore\n      dup1\n      iszero\n      tag_45\n      jumpi\n      dup2\n      0x20\n      add\n      0x01\n      dup3\n      mul\n      dup1\n      calldatasize\n      dup4\n      calldatacopy\n      dup1\n      dup3\n      add\n      swap2\n      pop\n      pop\n      swap1\n      pop\n    tag_45:\n      pop\n        /* \"Week1/X7Opsilon.sol\":3695:3733  bytes memory extension = new bytes(50) */\n      swap1\n      pop\n        /* \"Week1/X7Opsilon.sol\":3766:3769  230 */\n      0xe6\n        /* \"Week1/X7Opsilon.sol\":3746:3756  b_fullName */\n      dup3\n        /* \"Week1/X7Opsilon.sol\":3746:3763  b_fullName.length */\n      mload\n        /* \"Week1/X7Opsilon.sol\":3746:3769  b_fullName.length > 230 */\n      gt\n        /* \"Week1/X7Opsilon.sol\":3743:3819  if(b_fullName.length > 230){... */\n      iszero\n      tag_46\n      jumpi\n        /* \"Week1/X7Opsilon.sol\":3791:3808  unsupportedFile() */\n      mload(0x40)\n      0xffe4bab500000000000000000000000000000000000000000000000000000000\n      dup2\n      mstore\n      0x04\n      add\n      mload(0x40)\n      dup1\n      swap2\n      sub\n      swap1\n      revert\n        /* \"Week1/X7Opsilon.sol\":3743:3819  if(b_fullName.length > 230){... */\n    tag_46:\n        /* \"Week1/X7Opsilon.sol\":3828:3847  uint extensionCount */\n      0x00\n        /* \"Week1/X7Opsilon.sol\":3861:3867  uint i */\n      dup1\n        /* \"Week1/X7Opsilon.sol\":3891:3892  1 */\n      0x01\n        /* \"Week1/X7Opsilon.sol\":3871:3881  b_fullName */\n      dup5\n        /* \"Week1/X7Opsilon.sol\":3871:3888  b_fullName.length */\n      mload\n        /* \"Week1/X7Opsilon.sol\":3871:3892  b_fullName.length - 1 */\n      tag_47\n      swap2\n      swap1\n      tag_48\n      jump\t// in\n    tag_47:\n        /* \"Week1/X7Opsilon.sol\":3861:3893  uint i = (b_fullName.length - 1) */\n      swap1\n      pop\n        /* \"Week1/X7Opsilon.sol\":3923:3927  0x2E */\n      0x2e\n        /* \"Week1/X7Opsilon.sol\":3906:3927  b_fullName[i] == 0x2E */\n      0xf8\n      shl\n        /* \"Week1/X7Opsilon.sol\":3906:3916  b_fullName */\n      dup5\n        /* \"Week1/X7Opsilon.sol\":3917:3918  i */\n      dup3\n        /* \"Week1/X7Opsilon.sol\":3906:3919  b_fullName[i] */\n      dup2\n      mload\n      dup2\n      lt\n      tag_49\n      jumpi\n      tag_50\n      tag_51\n      jump\t// in\n    tag_50:\n    tag_49:\n      0x20\n      add\n      add\n      mload\n      0xf8\n      shr\n      0xf8\n      shl\n        /* \"Week1/X7Opsilon.sol\":3906:3927  b_fullName[i] == 0x2E */\n      not(0xffffffffffffffffffffffffffffffffffffffffffffffffffffffffffffff)\n      and\n      sub\n        /* \"Week1/X7Opsilon.sol\":3903:3977  if(b_fullName[i] == 0x2E){... */\n      tag_52\n      jumpi\n        /* \"Week1/X7Opsilon.sol\":3949:3966  unsupportedFile() */\n      mload(0x40)\n      0xffe4bab500000000000000000000000000000000000000000000000000000000\n      dup2\n      mstore\n      0x04\n      add\n      mload(0x40)\n      dup1\n      swap2\n      sub\n      swap1\n      revert\n        /* \"Week1/X7Opsilon.sol\":3903:3977  if(b_fullName[i] == 0x2E){... */\n    tag_52:\n        /* \"Week1/X7Opsilon.sol\":3986:4417  for(;;i--)... */\n    tag_53:\n        /* \"Week1/X7Opsilon.sol\":4028:4041  bytes1 b_char */\n      0x00\n        /* \"Week1/X7Opsilon.sol\":4044:4054  b_fullName */\n      dup5\n        /* \"Week1/X7Opsilon.sol\":4055:4056  i */\n      dup3\n        /* \"Week1/X7Opsilon.sol\":4044:4057  b_fullName[i] */\n      dup2\n      mload\n      dup2\n      lt\n      tag_56\n      jumpi\n      tag_57\n      tag_51\n      jump\t// in\n    tag_57:\n    tag_56:\n      0x20\n      add\n      add\n      mload\n      0xf8\n      shr\n      0xf8\n      shl\n        /* \"Week1/X7Opsilon.sol\":4028:4057  bytes1 b_char = b_fullName[i] */\n      swap1\n      pop\n        /* \"Week1/X7Opsilon.sol\":4084:4088  0x2E */\n      0x2e\n        /* \"Week1/X7Opsilon.sol\":4074:4088  b_char == 0x2E */\n      0xf8\n      shl\n        /* \"Week1/X7Opsilon.sol\":4074:4080  b_char */\n      dup2\n        /* \"Week1/X7Opsilon.sol\":4074:4088  b_char == 0x2E */\n      not(0xffffffffffffffffffffffffffffffffffffffffffffffffffffffffffffff)\n      and\n      sub\n        /* \"Week1/X7Opsilon.sol\":4071:4140  if(b_char == 0x2E)... */\n      tag_58\n      jumpi\n        /* \"Week1/X7Opsilon.sol\":4120:4125  break */\n      pop\n      jump(tag_54)\n        /* \"Week1/X7Opsilon.sol\":4071:4140  if(b_char == 0x2E)... */\n    tag_58:\n        /* \"Week1/X7Opsilon.sol\":4173:4175  49 */\n      0x31\n        /* \"Week1/X7Opsilon.sol\":4156:4170  extensionCount */\n      dup4\n        /* \"Week1/X7Opsilon.sol\":4156:4175  extensionCount > 49 */\n      gt\n        /* \"Week1/X7Opsilon.sol\":4153:4233  if(extensionCount > 49){... */\n      iszero\n      tag_59\n      jumpi\n        /* \"Week1/X7Opsilon.sol\":4201:4218  unsupportedFile() */\n      mload(0x40)\n      0xffe4bab500000000000000000000000000000000000000000000000000000000\n      dup2\n      mstore\n      0x04\n      add\n      mload(0x40)\n      dup1\n      swap2\n      sub\n      swap1\n      revert\n        /* \"Week1/X7Opsilon.sol\":4153:4233  if(extensionCount > 49){... */\n    tag_59:\n        /* \"Week1/X7Opsilon.sol\":4277:4283  b_char */\n      dup1\n        /* \"Week1/X7Opsilon.sol\":4249:4258  extension */\n      dup5\n        /* \"Week1/X7Opsilon.sol\":4259:4273  extensionCount */\n      dup5\n        /* \"Week1/X7Opsilon.sol\":4249:4274  extension[extensionCount] */\n      dup2\n      mload\n      dup2\n      lt\n      tag_60\n      jumpi\n      tag_61\n      tag_51\n      jump\t// in\n    tag_61:\n    tag_60:\n      0x20\n      add\n      add\n        /* \"Week1/X7Opsilon.sol\":4249:4283  extension[extensionCount] = b_char */\n      swap1\n      not(0xffffffffffffffffffffffffffffffffffffffffffffffffffffffffffffff)\n      and\n      swap1\n      dup2\n      0x00\n      byte\n      swap1\n      mstore8\n      pop\n        /* \"Week1/X7Opsilon.sol\":4297:4313  extensionCount++ */\n      dup3\n      dup1\n      tag_62\n      swap1\n      tag_63\n      jump\t// in\n    tag_62:\n      swap4\n      pop\n      pop\n        /* \"Week1/X7Opsilon.sol\":4335:4336  0 */\n      0x00\n        /* \"Week1/X7Opsilon.sol\":4330:4331  i */\n      dup3\n        /* \"Week1/X7Opsilon.sol\":4330:4336  i == 0 */\n      sub\n        /* \"Week1/X7Opsilon.sol\":4327:4407  if(i == 0)... */\n      tag_64\n      jumpi\n        /* \"Week1/X7Opsilon.sol\":4375:4392  unsupportedFile() */\n      mload(0x40)\n      0xffe4bab500000000000000000000000000000000000000000000000000000000\n      dup2\n      mstore\n      0x04\n      add\n      mload(0x40)\n      dup1\n      swap2\n      sub\n      swap1\n      revert\n        /* \"Week1/X7Opsilon.sol\":4327:4407  if(i == 0)... */\n    tag_64:\n        /* \"Week1/X7Opsilon.sol\":4005:4417  {         ... */\n      pop\n        /* \"Week1/X7Opsilon.sol\":3992:3995  i-- */\n      dup1\n      dup1\n      tag_65\n      swap1\n      tag_66\n      jump\t// in\n    tag_65:\n      swap2\n      pop\n      pop\n        /* \"Week1/X7Opsilon.sol\":3986:4417  for(;;i--)... */\n      jump(tag_53)\n    tag_54:\n        /* \"Week1/X7Opsilon.sol\":4438:4452  Infrastructure */\n      linkerSymbol(\"23439b1ab11bb550c3e4896ccfde123b4ced07f97466b46a32863c712166de53\")\n        /* \"Week1/X7Opsilon.sol\":4438:4462  Infrastructure.copyBytes */\n      0xc5249be9\n        /* \"Week1/X7Opsilon.sol\":4463:4472  extension */\n      dup5\n        /* \"Week1/X7Opsilon.sol\":4473:4487  extensionCount */\n      dup5\n        /* \"Week1/X7Opsilon.sol\":4438:4488  Infrastructure.copyBytes(extension,extensionCount) */\n      mload(0x40)\n      dup4\n      0xffffffff\n      and\n      0xe0\n      shl\n      dup2\n      mstore\n      0x04\n      add\n      tag_67\n      swap3\n      swap2\n      swap1\n      tag_68\n      jump\t// in\n    tag_67:\n      0x00\n      mload(0x40)\n      dup1\n      dup4\n      sub\n      dup2\n      dup7\n      gas\n      delegatecall\n      iszero\n      dup1\n      iszero\n      tag_70\n      jumpi\n      returndatasize\n      0x00\n      dup1\n      returndatacopy\n      revert(0x00, returndatasize)\n    tag_70:\n      pop\n      pop\n      pop\n      pop\n      mload(0x40)\n      returndatasize\n      0x00\n      dup3\n      returndatacopy\n      returndatasize\n      not(0x1f)\n      0x1f\n      dup3\n      add\n      and\n      dup3\n      add\n      dup1\n      0x40\n      mstore\n      pop\n      dup2\n      add\n      swap1\n      tag_71\n      swap2\n      swap1\n      tag_72\n      jump\t// in\n    tag_71:\n        /* \"Week1/X7Opsilon.sol\":4426:4488  extension = Infrastructure.copyBytes(extension,extensionCount) */\n      swap3\n      pop\n        /* \"Week1/X7Opsilon.sol\":4510:4524  Infrastructure */\n      linkerSymbol(\"23439b1ab11bb550c3e4896ccfde123b4ced07f97466b46a32863c712166de53\")\n        /* \"Week1/X7Opsilon.sol\":4510:4537  Infrastructure.reverseBytes */\n      0x2f278ecb\n        /* \"Week1/X7Opsilon.sol\":4538:4547  extension */\n      dup5\n        /* \"Week1/X7Opsilon.sol\":4510:4548  Infrastructure.reverseBytes(extension) */\n      mload(0x40)\n      dup3\n      0xffffffff\n      and\n      0xe0\n      shl\n      dup2\n      mstore\n      0x04\n      add\n      tag_73\n      swap2\n      swap1\n      tag_74\n      jump\t// in\n    tag_73:\n      0x00\n      mload(0x40)\n      dup1\n      dup4\n      sub\n      dup2\n      dup7\n      gas\n      delegatecall\n      iszero\n      dup1\n      iszero\n      tag_76\n      jumpi\n      returndatasize\n      0x00\n      dup1\n      returndatacopy\n      revert(0x00, returndatasize)\n    tag_76:\n      pop\n      pop\n      pop\n      pop\n      mload(0x40)\n      returndatasize\n      0x00\n      dup3\n      returndatacopy\n      returndatasize\n      not(0x1f)\n      0x1f\n      dup3\n      add\n      and\n      dup3\n      add\n      dup1\n      0x40\n      mstore\n      pop\n      dup2\n      add\n      swap1\n      tag_77\n      swap2\n      swap1\n      tag_72\n      jump\t// in\n    tag_77:\n        /* \"Week1/X7Opsilon.sol\":4498:4548  extension = Infrastructure.reverseBytes(extension) */\n      swap3\n      pop\n        /* \"Week1/X7Opsilon.sol\":4558:4575  uint256 nameCount */\n      0x00\n        /* \"Week1/X7Opsilon.sol\":4615:4616  1 */\n      0x01\n        /* \"Week1/X7Opsilon.sol\":4599:4613  extensionCount */\n      dup4\n        /* \"Week1/X7Opsilon.sol\":4579:4589  b_fullName */\n      dup7\n        /* \"Week1/X7Opsilon.sol\":4579:4596  b_fullName.length */\n      mload\n        /* \"Week1/X7Opsilon.sol\":4579:4613  b_fullName.length - extensionCount */\n      tag_78\n      swap2\n      swap1\n      tag_48\n      jump\t// in\n    tag_78:\n        /* \"Week1/X7Opsilon.sol\":4579:4616  b_fullName.length - extensionCount -1 */\n      tag_79\n      swap2\n      swap1\n      tag_48\n      jump\t// in\n    tag_79:\n        /* \"Week1/X7Opsilon.sol\":4558:4617  uint256 nameCount = (b_fullName.length - extensionCount -1) */\n      swap1\n      pop\n        /* \"Week1/X7Opsilon.sol\":4627:4648  bytes memory fileName */\n      0x00\n        /* \"Week1/X7Opsilon.sol\":4651:4665  Infrastructure */\n      linkerSymbol(\"23439b1ab11bb550c3e4896ccfde123b4ced07f97466b46a32863c712166de53\")\n        /* \"Week1/X7Opsilon.sol\":4651:4675  Infrastructure.copyBytes */\n      0xc5249be9\n        /* \"Week1/X7Opsilon.sol\":4676:4686  b_fullName */\n      dup8\n        /* \"Week1/X7Opsilon.sol\":4687:4696  nameCount */\n      dup5\n        /* \"Week1/X7Opsilon.sol\":4651:4697  Infrastructure.copyBytes(b_fullName,nameCount) */\n      mload(0x40)\n      dup4\n      0xffffffff\n      and\n      0xe0\n      shl\n      dup2\n      mstore\n      0x04\n      add\n      tag_80\n      swap3\n      swap2\n      swap1\n      tag_68\n      jump\t// in\n    tag_80:\n      0x00\n      mload(0x40)\n      dup1\n      dup4\n      sub\n      dup2\n      dup7\n      gas\n      delegatecall\n      iszero\n      dup1\n      iszero\n      tag_82\n      jumpi\n      returndatasize\n      0x00\n      dup1\n      returndatacopy\n      revert(0x00, returndatasize)\n    tag_82:\n      pop\n      pop\n      pop\n      pop\n      mload(0x40)\n      returndatasize\n      0x00\n      dup3\n      returndatacopy\n      returndatasize\n      not(0x1f)\n      0x1f\n      dup3\n      add\n      and\n      dup3\n      add\n      dup1\n      0x40\n      mstore\n      pop\n      dup2\n      add\n      swap1\n      tag_83\n      swap2\n      swap1\n      tag_72\n      jump\t// in\n    tag_83:\n        /* \"Week1/X7Opsilon.sol\":4627:4697  bytes memory fileName = Infrastructure.copyBytes(b_fullName,nameCount) */\n      swap1\n      pop\n        /* \"Week1/X7Opsilon.sol\":4722:4731  extension */\n      dup5\n        /* \"Week1/X7Opsilon.sol\":4741:4749  fileName */\n      dup2\n        /* \"Week1/X7Opsilon.sol\":4707:4751  return (string(extension), string(fileName)) */\n      swap8\n      pop\n      swap8\n      pop\n      pop\n      pop\n      pop\n      pop\n      pop\n      pop\n        /* \"Week1/X7Opsilon.sol\":3536:4758  function fileNameProcess(string memory fullName) public pure returns(string memory, string memory){... */\n      swap2\n      pop\n      swap2\n      jump\t// out\n        /* \"Week1/X7Opsilon.sol\":507:536  FileFrame[] public FileFrames */\n    tag_20:\n      0x00\n      dup2\n      dup2\n      sload\n      dup2\n      lt\n      tag_84\n      jumpi\n      0x00\n      dup1\n      revert\n    tag_84:\n      swap1\n      0x00\n      mstore\n      keccak256(0x00, 0x20)\n      swap1\n      0x07\n      mul\n      add\n      0x00\n      swap2\n      pop\n      swap1\n      pop\n      dup1\n      0x00\n      add\n      dup1\n      sload\n      tag_86\n      swap1\n      tag_87\n      jump\t// in\n    tag_86:\n      dup1\n      0x1f\n      add\n      0x20\n      dup1\n      swap2\n      div\n      mul\n      0x20\n      add\n      mload(0x40)\n      swap1\n      dup2\n      add\n      0x40\n      mstore\n      dup1\n      swap3\n      swap2\n      swap1\n      dup2\n      dup2\n      mstore\n      0x20\n      add\n      dup3\n      dup1\n      sload\n      tag_88\n      swap1\n      tag_87\n      jump\t// in\n    tag_88:\n      dup1\n      iszero\n      tag_89\n      jumpi\n      dup1\n      0x1f\n      lt\n      tag_90\n      jumpi\n      0x0100\n      dup1\n      dup4\n      sload\n      div\n      mul\n      dup4\n      mstore\n      swap2\n      0x20\n      add\n      swap2\n      jump(tag_89)\n    tag_90:\n      dup3\n      add\n      swap2\n      swap1\n      0x00\n      mstore\n      keccak256(0x00, 0x20)\n      swap1\n    tag_91:\n      dup2\n      sload\n      dup2\n      mstore\n      swap1\n      0x01\n      add\n      swap1\n      0x20\n      add\n      dup1\n      dup4\n      gt\n      tag_91\n      jumpi\n      dup3\n      swap1\n      sub\n      0x1f\n      and\n      dup3\n      add\n      swap2\n    tag_89:\n      pop\n      pop\n      pop\n      pop\n      pop\n      swap1\n      dup1\n      0x01\n      add\n      dup1\n      sload\n      tag_92\n      swap1\n      tag_87\n      jump\t// in\n    tag_92:\n      dup1\n      0x1f\n      add\n      0x20\n      dup1\n      swap2\n      div\n      mul\n      0x20\n      add\n      mload(0x40)\n      swap1\n      dup2\n      add\n      0x40\n      mstore\n      dup1\n      swap3\n      swap2\n      swap1\n      dup2\n      dup2\n      mstore\n      0x20\n      add\n      dup3\n      dup1\n      sload\n      tag_93\n      swap1\n      tag_87\n      jump\t// in\n    tag_93:\n      dup1\n      iszero\n      tag_94\n      jumpi\n      dup1\n      0x1f\n      lt\n      tag_95\n      jumpi\n      0x0100\n      dup1\n      dup4\n      sload\n      div\n      mul\n      dup4\n      mstore\n      swap2\n      0x20\n      add\n      swap2\n      jump(tag_94)\n    tag_95:\n      dup3\n      add\n      swap2\n      swap1\n      0x00\n      mstore\n      keccak256(0x00, 0x20)\n      swap1\n    tag_96:\n      dup2\n      sload\n      dup2\n      mstore\n      swap1\n      0x01\n      add\n      swap1\n      0x20\n      add\n      dup1\n      dup4\n      gt\n      tag_96\n      jumpi\n      dup3\n      swap1\n      sub\n      0x1f\n      and\n      dup3\n      add\n      swap2\n    tag_94:\n      pop\n      pop\n      pop\n      pop\n      pop\n      swap1\n      dup1\n      0x02\n      add\n      dup1\n      sload\n      tag_97\n      swap1\n      tag_87\n      jump\t// in\n    tag_97:\n      dup1\n      0x1f\n      add\n      0x20\n      dup1\n      swap2\n      div\n      mul\n      0x20\n      add\n      mload(0x40)\n      swap1\n      dup2\n      add\n      0x40\n      mstore\n      dup1\n      swap3\n      swap2\n      swap1\n      dup2\n      dup2\n      mstore\n      0x20\n      add\n      dup3\n      dup1\n      sload\n      tag_98\n      swap1\n      tag_87\n      jump\t// in\n    tag_98:\n      dup1\n      iszero\n      tag_99\n      jumpi\n      dup1\n      0x1f\n      lt\n      tag_100\n      jumpi\n      0x0100\n      dup1\n      dup4\n      sload\n      div\n      mul\n      dup4\n      mstore\n      swap2\n      0x20\n      add\n      swap2\n      jump(tag_99)\n    tag_100:\n      dup3\n      add\n      swap2\n      swap1\n      0x00\n      mstore\n      keccak256(0x00, 0x20)\n      swap1\n    tag_101:\n      dup2\n      sload\n      dup2\n      mstore\n      swap1\n      0x01\n      add\n      swap1\n      0x20\n      add\n      dup1\n      dup4\n      gt\n      tag_101\n      jumpi\n      dup3\n      swap1\n      sub\n      0x1f\n      and\n      dup3\n      add\n      swap2\n    tag_99:\n      pop\n      pop\n      pop\n      pop\n      pop\n      swap1\n      dup1\n      0x03\n      add\n      dup1\n      sload\n      tag_102\n      swap1\n      tag_87\n      jump\t// in\n    tag_102:\n      dup1\n      0x1f\n      add\n      0x20\n      dup1\n      swap2\n      div\n      mul\n      0x20\n      add\n      mload(0x40)\n      swap1\n      dup2\n      add\n      0x40\n      mstore\n      dup1\n      swap3\n      swap2\n      swap1\n      dup2\n      dup2\n      mstore\n      0x20\n      add\n      dup3\n      dup1\n      sload\n      tag_103\n      swap1\n      tag_87\n      jump\t// in\n    tag_103:\n      dup1\n      iszero\n      tag_104\n      jumpi\n      dup1\n      0x1f\n      lt\n      tag_105\n      jumpi\n      0x0100\n      dup1\n      dup4\n      sload\n      div\n      mul\n      dup4\n      mstore\n      swap2\n      0x20\n      add\n      swap2\n      jump(tag_104)\n    tag_105:\n      dup3\n      add\n      swap2\n      swap1\n      0x00\n      mstore\n      keccak256(0x00, 0x20)\n      swap1\n    tag_106:\n      dup2\n      sload\n      dup2\n      mstore\n      swap1\n      0x01\n      add\n      swap1\n      0x20\n      add\n      dup1\n      dup4\n      gt\n      tag_106\n      jumpi\n      dup3\n      swap1\n      sub\n      0x1f\n      and\n      dup3\n      add\n      swap2\n    tag_104:\n      pop\n      pop\n      pop\n      pop\n      pop\n      swap1\n      dup1\n      0x04\n      add\n      dup1\n      sload\n      tag_107\n      swap1\n      tag_87\n      jump\t// in\n    tag_107:\n      dup1\n      0x1f\n      add\n      0x20\n      dup1\n      swap2\n      div\n      mul\n      0x20\n      add\n      mload(0x40)\n      swap1\n      dup2\n      add\n      0x40\n      mstore\n      dup1\n      swap3\n      swap2\n      swap1\n      dup2\n      dup2\n      mstore\n      0x20\n      add\n      dup3\n      dup1\n      sload\n      tag_108\n      swap1\n      tag_87\n      jump\t// in\n    tag_108:\n      dup1\n      iszero\n      tag_109\n      jumpi\n      dup1\n      0x1f\n      lt\n      tag_110\n      jumpi\n      0x0100\n      dup1\n      dup4\n      sload\n      div\n      mul\n      dup4\n      mstore\n      swap2\n      0x20\n      add\n      swap2\n      jump(tag_109)\n    tag_110:\n      dup3\n      add\n      swap2\n      swap1\n      0x00\n      mstore\n      keccak256(0x00, 0x20)\n      swap1\n    tag_111:\n      dup2\n      sload\n      dup2\n      mstore\n      swap1\n      0x01\n      add\n      swap1\n      0x20\n      add\n      dup1\n      dup4\n      gt\n      tag_111\n      jumpi\n      dup3\n      swap1\n      sub\n      0x1f\n      and\n      dup3\n      add\n      swap2\n    tag_109:\n      pop\n      pop\n      pop\n      pop\n      pop\n      swap1\n      dup1\n      0x05\n      add\n      sload\n      swap1\n      dup1\n      0x06\n      add\n      sload\n      swap1\n      pop\n      dup8\n      jump\t// out\n        /* \"Week1/X7Opsilon.sol\":1654:3530  function directoryProcess(string memory directory)... */\n    tag_25:\n        /* \"Week1/X7Opsilon.sol\":1730:1745  string[] memory */\n      0x60\n        /* \"Week1/X7Opsilon.sol\":1747:1760  string memory */\n      dup1\n        /* \"Week1/X7Opsilon.sol\":1762:1769  uint256 */\n      0x00\n        /* \"Week1/X7Opsilon.sol\":1771:1778  uint256 */\n      dup1\n        /* \"Week1/X7Opsilon.sol\":1796:1809  uint256 count */\n      0x00\n        /* \"Week1/X7Opsilon.sol\":1823:1837  uint256 length */\n      dup1\n        /* \"Week1/X7Opsilon.sol\":1851:1875  bytes memory b_directory */\n      0x00\n        /* \"Week1/X7Opsilon.sol\":1884:1893  directory */\n      dup8\n        /* \"Week1/X7Opsilon.sol\":1851:1894  bytes memory b_directory = bytes(directory) */\n      swap1\n      pop\n        /* \"Week1/X7Opsilon.sol\":1904:1929  uint256 b_directoryLength */\n      0x00\n        /* \"Week1/X7Opsilon.sol\":1932:1943  b_directory */\n      dup2\n        /* \"Week1/X7Opsilon.sol\":1932:1950  b_directory.length */\n      mload\n        /* \"Week1/X7Opsilon.sol\":1904:1950  uint256 b_directoryLength = b_directory.length */\n      swap1\n      pop\n        /* \"Week1/X7Opsilon.sol\":1960:1993  bytes memory fixedchars_directory */\n      0x00\n        /* \"Week1/X7Opsilon.sol\":2006:2017  b_directory */\n      dup3\n        /* \"Week1/X7Opsilon.sol\":2006:2024  b_directory.length */\n      mload\n        /* \"Week1/X7Opsilon.sol\":1996:2025  new bytes(b_directory.length) */\n      0xffffffffffffffff\n      dup2\n      gt\n      iszero\n      tag_113\n      jumpi\n      tag_114\n      tag_44\n      jump\t// in\n    tag_114:\n    tag_113:\n      mload(0x40)\n      swap1\n      dup1\n      dup3\n      mstore\n      dup1\n      0x1f\n      add\n      not(0x1f)\n      and\n      0x20\n      add\n      dup3\n      add\n      0x40\n      mstore\n      dup1\n      iszero\n      tag_115\n      jumpi\n      dup2\n      0x20\n      add\n      0x01\n      dup3\n      mul\n      dup1\n      calldatasize\n      dup4\n      calldatacopy\n      dup1\n      dup3\n      add\n      swap2\n      pop\n      pop\n      swap1\n      pop\n    tag_115:\n      pop\n        /* \"Week1/X7Opsilon.sol\":1960:2025  bytes memory fixedchars_directory = new bytes(b_directory.length) */\n      swap1\n      pop\n        /* \"Week1/X7Opsilon.sol\":2056:2060  0x2f */\n      0x2f\n        /* \"Week1/X7Opsilon.sol\":2038:2060  b_directory[0] != 0x2f */\n      0xf8\n      shl\n        /* \"Week1/X7Opsilon.sol\":2038:2049  b_directory */\n      dup4\n        /* \"Week1/X7Opsilon.sol\":2050:2051  0 */\n      0x00\n        /* \"Week1/X7Opsilon.sol\":2038:2052  b_directory[0] */\n      dup2\n      mload\n      dup2\n      lt\n      tag_116\n      jumpi\n      tag_117\n      tag_51\n      jump\t// in\n    tag_117:\n    tag_116:\n      0x20\n      add\n      add\n      mload\n      0xf8\n      shr\n      0xf8\n      shl\n        /* \"Week1/X7Opsilon.sol\":2038:2060  b_directory[0] != 0x2f */\n      not(0xffffffffffffffffffffffffffffffffffffffffffffffffffffffffffffff)\n      and\n      eq\n        /* \"Week1/X7Opsilon.sol\":2035:2124  if(b_directory[0] != 0x2f)... */\n      tag_118\n      jumpi\n        /* \"Week1/X7Opsilon.sol\":2091:2113  unsupportedDirectory() */\n      mload(0x40)\n      0xff31f58600000000000000000000000000000000000000000000000000000000\n      dup2\n      mstore\n      0x04\n      add\n      mload(0x40)\n      dup1\n      swap2\n      sub\n      swap1\n      revert\n        /* \"Week1/X7Opsilon.sol\":2035:2124  if(b_directory[0] != 0x2f)... */\n    tag_118:\n        /* \"Week1/X7Opsilon.sol\":2137:2143  uint i */\n      0x00\n        /* \"Week1/X7Opsilon.sol\":2146:2147  1 */\n      0x01\n        /* \"Week1/X7Opsilon.sol\":2137:2147  uint i = 1 */\n      swap1\n      pop\n        /* \"Week1/X7Opsilon.sol\":2133:2494  for(uint i = 1; i < b_directoryLength; i++)... */\n    tag_119:\n        /* \"Week1/X7Opsilon.sol\":2153:2170  b_directoryLength */\n      dup3\n        /* \"Week1/X7Opsilon.sol\":2149:2150  i */\n      dup2\n        /* \"Week1/X7Opsilon.sol\":2149:2170  i < b_directoryLength */\n      lt\n        /* \"Week1/X7Opsilon.sol\":2133:2494  for(uint i = 1; i < b_directoryLength; i++)... */\n      iszero\n      tag_120\n      jumpi\n        /* \"Week1/X7Opsilon.sol\":2228:2229  1 */\n      0x01\n        /* \"Week1/X7Opsilon.sol\":2208:2225  b_directoryLength */\n      dup4\n        /* \"Week1/X7Opsilon.sol\":2208:2229  b_directoryLength - 1 */\n      tag_122\n      swap2\n      swap1\n      tag_48\n      jump\t// in\n    tag_122:\n        /* \"Week1/X7Opsilon.sol\":2202:2203  i */\n      dup2\n        /* \"Week1/X7Opsilon.sol\":2202:2230  i == (b_directoryLength - 1) */\n      eq\n        /* \"Week1/X7Opsilon.sol\":2202:2256  i == (b_directoryLength - 1) && b_directory[i] == 0x2f */\n      dup1\n      iszero\n      tag_123\n      jumpi\n      pop\n        /* \"Week1/X7Opsilon.sol\":2252:2256  0x2f */\n      0x2f\n        /* \"Week1/X7Opsilon.sol\":2234:2256  b_directory[i] == 0x2f */\n      0xf8\n      shl\n        /* \"Week1/X7Opsilon.sol\":2234:2245  b_directory */\n      dup5\n        /* \"Week1/X7Opsilon.sol\":2246:2247  i */\n      dup3\n        /* \"Week1/X7Opsilon.sol\":2234:2248  b_directory[i] */\n      dup2\n      mload\n      dup2\n      lt\n      tag_124\n      jumpi\n      tag_125\n      tag_51\n      jump\t// in\n    tag_125:\n    tag_124:\n      0x20\n      add\n      add\n      mload\n      0xf8\n      shr\n      0xf8\n      shl\n        /* \"Week1/X7Opsilon.sol\":2234:2256  b_directory[i] == 0x2f */\n      not(0xffffffffffffffffffffffffffffffffffffffffffffffffffffffffffffff)\n      and\n      eq\n        /* \"Week1/X7Opsilon.sol\":2202:2256  i == (b_directoryLength - 1) && b_directory[i] == 0x2f */\n    tag_123:\n        /* \"Week1/X7Opsilon.sol\":2288:2296  continue */\n      tag_121\n        /* \"Week1/X7Opsilon.sol\":2199:2311  if(i == (b_directoryLength - 1) && b_directory[i] == 0x2f)... */\n      jumpi\n        /* \"Week1/X7Opsilon.sol\":2345:2349  0x2f */\n      0x2f\n        /* \"Week1/X7Opsilon.sol\":2327:2349  b_directory[i] == 0x2f */\n      0xf8\n      shl\n        /* \"Week1/X7Opsilon.sol\":2327:2338  b_directory */\n      dup5\n        /* \"Week1/X7Opsilon.sol\":2339:2340  i */\n      dup3\n        /* \"Week1/X7Opsilon.sol\":2327:2341  b_directory[i] */\n      dup2\n      mload\n      dup2\n      lt\n      tag_127\n      jumpi\n      tag_128\n      tag_51\n      jump\t// in\n    tag_128:\n    tag_127:\n      0x20\n      add\n      add\n      mload\n      0xf8\n      shr\n      0xf8\n      shl\n        /* \"Week1/X7Opsilon.sol\":2327:2349  b_directory[i] == 0x2f */\n      not(0xffffffffffffffffffffffffffffffffffffffffffffffffffffffffffffff)\n      and\n      sub\n        /* \"Week1/X7Opsilon.sol\":2324:2403  if(b_directory[i] == 0x2f)... */\n      tag_129\n      jumpi\n        /* \"Week1/X7Opsilon.sol\":2381:2388  count++ */\n      dup6\n      dup1\n      tag_130\n      swap1\n      tag_63\n      jump\t// in\n    tag_130:\n      swap7\n      pop\n      pop\n        /* \"Week1/X7Opsilon.sol\":2324:2403  if(b_directory[i] == 0x2f)... */\n    tag_129:\n        /* \"Week1/X7Opsilon.sol\":2447:2458  b_directory */\n      dup4\n        /* \"Week1/X7Opsilon.sol\":2459:2460  i */\n      dup2\n        /* \"Week1/X7Opsilon.sol\":2447:2461  b_directory[i] */\n      dup2\n      mload\n      dup2\n      lt\n      tag_131\n      jumpi\n      tag_132\n      tag_51\n      jump\t// in\n    tag_132:\n    tag_131:\n      0x20\n      add\n      add\n      mload\n      0xf8\n      shr\n      0xf8\n      shl\n        /* \"Week1/X7Opsilon.sol\":2416:2436  fixedchars_directory */\n      dup3\n        /* \"Week1/X7Opsilon.sol\":2437:2443  length */\n      dup7\n        /* \"Week1/X7Opsilon.sol\":2416:2444  fixedchars_directory[length] */\n      dup2\n      mload\n      dup2\n      lt\n      tag_133\n      jumpi\n      tag_134\n      tag_51\n      jump\t// in\n    tag_134:\n    tag_133:\n      0x20\n      add\n      add\n        /* \"Week1/X7Opsilon.sol\":2416:2461  fixedchars_directory[length] = b_directory[i] */\n      swap1\n      not(0xffffffffffffffffffffffffffffffffffffffffffffffffffffffffffffff)\n      and\n      swap1\n      dup2\n      0x00\n      byte\n      swap1\n      mstore8\n      pop\n        /* \"Week1/X7Opsilon.sol\":2475:2483  length++ */\n      dup5\n      dup1\n      tag_135\n      swap1\n      tag_63\n      jump\t// in\n    tag_135:\n      swap6\n      pop\n      pop\n        /* \"Week1/X7Opsilon.sol\":2133:2494  for(uint i = 1; i < b_directoryLength; i++)... */\n    tag_121:\n        /* \"Week1/X7Opsilon.sol\":2172:2175  i++ */\n      dup1\n      dup1\n      tag_136\n      swap1\n      tag_63\n      jump\t// in\n    tag_136:\n      swap2\n      pop\n      pop\n        /* \"Week1/X7Opsilon.sol\":2133:2494  for(uint i = 1; i < b_directoryLength; i++)... */\n      jump(tag_119)\n    tag_120:\n      pop\n        /* \"Week1/X7Opsilon.sol\":2503:2525  bytes memory strResult */\n      0x00\n        /* \"Week1/X7Opsilon.sol\":2538:2544  length */\n      dup5\n        /* \"Week1/X7Opsilon.sol\":2528:2545  new bytes(length) */\n      0xffffffffffffffff\n      dup2\n      gt\n      iszero\n      tag_137\n      jumpi\n      tag_138\n      tag_44\n      jump\t// in\n    tag_138:\n    tag_137:\n      mload(0x40)\n      swap1\n      dup1\n      dup3\n      mstore\n      dup1\n      0x1f\n      add\n      not(0x1f)\n      and\n      0x20\n      add\n      dup3\n      add\n      0x40\n      mstore\n      dup1\n      iszero\n      tag_139\n      jumpi\n      dup2\n      0x20\n      add\n      0x01\n      dup3\n      mul\n      dup1\n      calldatasize\n      dup4\n      calldatacopy\n      dup1\n      dup3\n      add\n      swap2\n      pop\n      pop\n      swap1\n      pop\n    tag_139:\n      pop\n        /* \"Week1/X7Opsilon.sol\":2503:2545  bytes memory strResult = new bytes(length) */\n      swap1\n      pop\n        /* \"Week1/X7Opsilon.sol\":2555:2578  bytes memory resultName */\n      0x00\n        /* \"Week1/X7Opsilon.sol\":2591:2594  250 */\n      0xfa\n        /* \"Week1/X7Opsilon.sol\":2581:2595  new bytes(250) */\n      0xffffffffffffffff\n      dup2\n      gt\n      iszero\n      tag_140\n      jumpi\n      tag_141\n      tag_44\n      jump\t// in\n    tag_141:\n    tag_140:\n      mload(0x40)\n      swap1\n      dup1\n      dup3\n      mstore\n      dup1\n      0x1f\n      add\n      not(0x1f)\n      and\n      0x20\n      add\n      dup3\n      add\n      0x40\n      mstore\n      dup1\n      iszero\n      tag_142\n      jumpi\n      dup2\n      0x20\n      add\n      0x01\n      dup3\n      mul\n      dup1\n      calldatasize\n      dup4\n      calldatacopy\n      dup1\n      dup3\n      add\n      swap2\n      pop\n      pop\n      swap1\n      pop\n    tag_142:\n      pop\n        /* \"Week1/X7Opsilon.sol\":2555:2595  bytes memory resultName = new bytes(250) */\n      swap1\n      pop\n        /* \"Week1/X7Opsilon.sol\":2605:2622  uint256 nameCount */\n      0x00\n        /* \"Week1/X7Opsilon.sol\":2636:2655  uint directoryIndex */\n      dup1\n        /* \"Week1/X7Opsilon.sol\":2669:2702  string[] memory resultDirectories */\n      0x00\n        /* \"Week1/X7Opsilon.sol\":2726:2727  1 */\n      0x01\n        /* \"Week1/X7Opsilon.sol\":2718:2723  count */\n      dup11\n        /* \"Week1/X7Opsilon.sol\":2718:2727  count + 1 */\n      tag_143\n      swap2\n      swap1\n      tag_144\n      jump\t// in\n    tag_143:\n        /* \"Week1/X7Opsilon.sol\":2705:2728  new string[](count + 1) */\n      0xffffffffffffffff\n      dup2\n      gt\n      iszero\n      tag_145\n      jumpi\n      tag_146\n      tag_44\n      jump\t// in\n    tag_146:\n    tag_145:\n      mload(0x40)\n      swap1\n      dup1\n      dup3\n      mstore\n      dup1\n      0x20\n      mul\n      0x20\n      add\n      dup3\n      add\n      0x40\n      mstore\n      dup1\n      iszero\n      tag_147\n      jumpi\n      dup2\n      0x20\n      add\n    tag_148:\n      0x60\n      dup2\n      mstore\n      0x20\n      add\n      swap1\n      0x01\n      swap1\n      sub\n      swap1\n      dup2\n      tag_148\n      jumpi\n      swap1\n      pop\n    tag_147:\n      pop\n        /* \"Week1/X7Opsilon.sol\":2669:2728  string[] memory resultDirectories = new string[](count + 1) */\n      swap1\n      pop\n        /* \"Week1/X7Opsilon.sol\":2742:2748  uint i */\n      0x00\n        /* \"Week1/X7Opsilon.sol\":2738:3456  for(uint i = 0; i < length; i++)... */\n    tag_149:\n        /* \"Week1/X7Opsilon.sol\":2758:2764  length */\n      dup10\n        /* \"Week1/X7Opsilon.sol\":2754:2755  i */\n      dup2\n        /* \"Week1/X7Opsilon.sol\":2754:2764  i < length */\n      lt\n        /* \"Week1/X7Opsilon.sol\":2738:3456  for(uint i = 0; i < length; i++)... */\n      iszero\n      tag_150\n      jumpi\n        /* \"Week1/X7Opsilon.sol\":2793:2806  bytes1 b_char */\n      0x00\n        /* \"Week1/X7Opsilon.sol\":2809:2829  fixedchars_directory */\n      dup8\n        /* \"Week1/X7Opsilon.sol\":2830:2831  i */\n      dup3\n        /* \"Week1/X7Opsilon.sol\":2809:2832  fixedchars_directory[i] */\n      dup2\n      mload\n      dup2\n      lt\n      tag_152\n      jumpi\n      tag_153\n      tag_51\n      jump\t// in\n    tag_153:\n    tag_152:\n      0x20\n      add\n      add\n      mload\n      0xf8\n      shr\n      0xf8\n      shl\n        /* \"Week1/X7Opsilon.sol\":2793:2832  bytes1 b_char = fixedchars_directory[i] */\n      swap1\n      pop\n        /* \"Week1/X7Opsilon.sol\":2846:2860  bool lastIndex */\n      0x00\n        /* \"Week1/X7Opsilon.sol\":2878:2879  1 */\n      0x01\n        /* \"Week1/X7Opsilon.sol\":2869:2875  length */\n      dup13\n        /* \"Week1/X7Opsilon.sol\":2869:2879  length - 1 */\n      tag_154\n      swap2\n      swap1\n      tag_48\n      jump\t// in\n    tag_154:\n        /* \"Week1/X7Opsilon.sol\":2863:2864  i */\n      dup4\n        /* \"Week1/X7Opsilon.sol\":2863:2880  i == (length - 1) */\n      eq\n        /* \"Week1/X7Opsilon.sol\":2846:2880  bool lastIndex = i == (length - 1) */\n      swap1\n      pop\n        /* \"Week1/X7Opsilon.sol\":2894:2906  bool isSlash */\n      0x00\n        /* \"Week1/X7Opsilon.sol\":2920:2924  0x2f */\n      0x2f\n        /* \"Week1/X7Opsilon.sol\":2910:2924  b_char == 0x2f */\n      0xf8\n      shl\n        /* \"Week1/X7Opsilon.sol\":2910:2916  b_char */\n      dup4\n        /* \"Week1/X7Opsilon.sol\":2910:2924  b_char == 0x2f */\n      not(0xffffffffffffffffffffffffffffffffffffffffffffffffffffffffffffff)\n      and\n      eq\n        /* \"Week1/X7Opsilon.sol\":2894:2925  bool isSlash = (b_char == 0x2f) */\n      swap1\n      pop\n        /* \"Week1/X7Opsilon.sol\":2943:2950  isSlash */\n      dup1\n        /* \"Week1/X7Opsilon.sol\":2939:3057  if(!isSlash) ... */\n      tag_155\n      jumpi\n        /* \"Week1/X7Opsilon.sol\":3007:3013  b_char */\n      dup3\n        /* \"Week1/X7Opsilon.sol\":2983:2993  resultName */\n      dup9\n        /* \"Week1/X7Opsilon.sol\":2994:3003  nameCount */\n      dup9\n        /* \"Week1/X7Opsilon.sol\":2983:3004  resultName[nameCount] */\n      dup2\n      mload\n      dup2\n      lt\n      tag_156\n      jumpi\n      tag_157\n      tag_51\n      jump\t// in\n    tag_157:\n    tag_156:\n      0x20\n      add\n      add\n        /* \"Week1/X7Opsilon.sol\":2983:3013  resultName[nameCount] = b_char */\n      swap1\n      not(0xffffffffffffffffffffffffffffffffffffffffffffffffffffffffffffff)\n      and\n      swap1\n      dup2\n      0x00\n      byte\n      swap1\n      mstore8\n      pop\n        /* \"Week1/X7Opsilon.sol\":3031:3042  nameCount++ */\n      dup7\n      dup1\n      tag_158\n      swap1\n      tag_63\n      jump\t// in\n    tag_158:\n      swap8\n      pop\n      pop\n        /* \"Week1/X7Opsilon.sol\":2939:3057  if(!isSlash) ... */\n    tag_155:\n        /* \"Week1/X7Opsilon.sol\":3075:3082  isSlash */\n      dup1\n        /* \"Week1/X7Opsilon.sol\":3075:3095  isSlash || lastIndex */\n      dup1\n      tag_159\n      jumpi\n      pop\n        /* \"Week1/X7Opsilon.sol\":3086:3095  lastIndex */\n      dup2\n        /* \"Week1/X7Opsilon.sol\":3075:3095  isSlash || lastIndex */\n    tag_159:\n        /* \"Week1/X7Opsilon.sol\":3072:3298  if(isSlash || lastIndex)... */\n      iszero\n      tag_160\n      jumpi\n        /* \"Week1/X7Opsilon.sol\":3171:3185  Infrastructure */\n      linkerSymbol(\"23439b1ab11bb550c3e4896ccfde123b4ced07f97466b46a32863c712166de53\")\n        /* \"Week1/X7Opsilon.sol\":3171:3195  Infrastructure.copyBytes */\n      0xc5249be9\n        /* \"Week1/X7Opsilon.sol\":3196:3206  resultName */\n      dup10\n        /* \"Week1/X7Opsilon.sol\":3207:3216  nameCount */\n      dup10\n        /* \"Week1/X7Opsilon.sol\":3171:3217  Infrastructure.copyBytes(resultName,nameCount) */\n      mload(0x40)\n      dup4\n      0xffffffff\n      and\n      0xe0\n      shl\n      dup2\n      mstore\n      0x04\n      add\n      tag_161\n      swap3\n      swap2\n      swap1\n      tag_68\n      jump\t// in\n    tag_161:\n      0x00\n      mload(0x40)\n      dup1\n      dup4\n      sub\n      dup2\n      dup7\n      gas\n      delegatecall\n      iszero\n      dup1\n      iszero\n      tag_163\n      jumpi\n      returndatasize\n      0x00\n      dup1\n      returndatacopy\n      revert(0x00, returndatasize)\n    tag_163:\n      pop\n      pop\n      pop\n      pop\n      mload(0x40)\n      returndatasize\n      0x00\n      dup3\n      returndatacopy\n      returndatasize\n      not(0x1f)\n      0x1f\n      dup3\n      add\n      and\n      dup3\n      add\n      dup1\n      0x40\n      mstore\n      pop\n      dup2\n      add\n      swap1\n      tag_164\n      swap2\n      swap1\n      tag_72\n      jump\t// in\n    tag_164:\n        /* \"Week1/X7Opsilon.sol\":3127:3144  resultDirectories */\n      dup6\n        /* \"Week1/X7Opsilon.sol\":3145:3159  directoryIndex */\n      dup8\n        /* \"Week1/X7Opsilon.sol\":3127:3160  resultDirectories[directoryIndex] */\n      dup2\n      mload\n      dup2\n      lt\n      tag_165\n      jumpi\n      tag_166\n      tag_51\n      jump\t// in\n    tag_166:\n    tag_165:\n      0x20\n      mul\n      0x20\n      add\n      add\n        /* \"Week1/X7Opsilon.sol\":3127:3219  resultDirectories[directoryIndex] = (string(Infrastructure.copyBytes(resultName,nameCount))) */\n      dup2\n      swap1\n      mstore\n      pop\n        /* \"Week1/X7Opsilon.sol\":3237:3253  directoryIndex++ */\n      dup6\n      dup1\n      tag_167\n      swap1\n      tag_63\n      jump\t// in\n    tag_167:\n      swap7\n      pop\n      pop\n        /* \"Week1/X7Opsilon.sol\":3282:3283  0 */\n      0x00\n        /* \"Week1/X7Opsilon.sol\":3271:3283  nameCount= 0 */\n      swap7\n      pop\n        /* \"Week1/X7Opsilon.sol\":3072:3298  if(isSlash || lastIndex)... */\n    tag_160:\n        /* \"Week1/X7Opsilon.sol\":3332:3335  230 */\n      0xe6\n        /* \"Week1/X7Opsilon.sol\":3320:3329  nameCount */\n      dup8\n        /* \"Week1/X7Opsilon.sol\":3320:3335  nameCount > 230 */\n      gt\n        /* \"Week1/X7Opsilon.sol\":3317:3411  if(nameCount > 230)... */\n      iszero\n      tag_168\n      jumpi\n        /* \"Week1/X7Opsilon.sol\":3374:3396  unsupportedDirectory() */\n      mload(0x40)\n      0xff31f58600000000000000000000000000000000000000000000000000000000\n      dup2\n      mstore\n      0x04\n      add\n      mload(0x40)\n      dup1\n      swap2\n      sub\n      swap1\n      revert\n        /* \"Week1/X7Opsilon.sol\":3317:3411  if(nameCount > 230)... */\n    tag_168:\n        /* \"Week1/X7Opsilon.sol\":3439:3445  b_char */\n      dup3\n        /* \"Week1/X7Opsilon.sol\":3424:3433  strResult */\n      dup10\n        /* \"Week1/X7Opsilon.sol\":3434:3435  i */\n      dup6\n        /* \"Week1/X7Opsilon.sol\":3424:3436  strResult[i] */\n      dup2\n      mload\n      dup2\n      lt\n      tag_169\n      jumpi\n      tag_170\n      tag_51\n      jump\t// in\n    tag_170:\n    tag_169:\n      0x20\n      add\n      add\n        /* \"Week1/X7Opsilon.sol\":3424:3445  strResult[i] = b_char */\n      swap1\n      not(0xffffffffffffffffffffffffffffffffffffffffffffffffffffffffffffff)\n      and\n      swap1\n      dup2\n      0x00\n      byte\n      swap1\n      mstore8\n      pop\n        /* \"Week1/X7Opsilon.sol\":2779:3456  {... */\n      pop\n      pop\n      pop\n        /* \"Week1/X7Opsilon.sol\":2766:2769  i++ */\n      dup1\n      dup1\n      tag_171\n      swap1\n      tag_63\n      jump\t// in\n    tag_171:\n      swap2\n      pop\n      pop\n        /* \"Week1/X7Opsilon.sol\":2738:3456  for(uint i = 0; i < length; i++)... */\n      jump(tag_149)\n    tag_150:\n      pop\n        /* \"Week1/X7Opsilon.sol\":3472:3489  resultDirectories */\n      dup1\n        /* \"Week1/X7Opsilon.sol\":3497:3506  strResult */\n      dup6\n        /* \"Week1/X7Opsilon.sol\":3509:3514  count */\n      dup12\n        /* \"Week1/X7Opsilon.sol\":3516:3522  length */\n      dup12\n        /* \"Week1/X7Opsilon.sol\":3465:3523  return(resultDirectories,string(strResult), count, length) */\n      swap14\n      pop\n      swap14\n      pop\n      swap14\n      pop\n      swap14\n      pop\n      pop\n      pop\n      pop\n      pop\n      pop\n      pop\n      pop\n      pop\n      pop\n      pop\n        /* \"Week1/X7Opsilon.sol\":1654:3530  function directoryProcess(string memory directory)... */\n      swap2\n      swap4\n      pop\n      swap2\n      swap4\n      jump\t// out\n        /* \"Week1/X7Opsilon.sol\":4764:4885  function getNewId() private view returns (string memory newId){... */\n    tag_30:\n        /* \"Week1/X7Opsilon.sol\":4806:4825  string memory newId */\n      0x60\n        /* \"Week1/X7Opsilon.sol\":4844:4877  Strings.toString(block.timestamp) */\n      tag_173\n        /* \"Week1/X7Opsilon.sol\":4861:4876  block.timestamp */\n      timestamp\n        /* \"Week1/X7Opsilon.sol\":4844:4860  Strings.toString */\n      tag_174\n        /* \"Week1/X7Opsilon.sol\":4844:4877  Strings.toString(block.timestamp) */\n      jump\t// in\n    tag_173:\n        /* \"Week1/X7Opsilon.sol\":4836:4878  return (Strings.toString(block.timestamp)) */\n      swap1\n      pop\n        /* \"Week1/X7Opsilon.sol\":4764:4885  function getNewId() private view returns (string memory newId){... */\n      swap1\n      jump\t// out\n        /* \"@openzeppelin/contracts/utils/Strings.sol\":447:1143  function toString(uint256 value) internal pure returns (string memory) {... */\n    tag_174:\n        /* \"@openzeppelin/contracts/utils/Strings.sol\":503:516  string memory */\n      0x60\n        /* \"@openzeppelin/contracts/utils/Strings.sol\":552:566  uint256 length */\n      0x00\n        /* \"@openzeppelin/contracts/utils/Strings.sol\":589:590  1 */\n      0x01\n        /* \"@openzeppelin/contracts/utils/Strings.sol\":569:586  Math.log10(value) */\n      tag_176\n        /* \"@openzeppelin/contracts/utils/Strings.sol\":580:585  value */\n      dup5\n        /* \"@openzeppelin/contracts/utils/Strings.sol\":569:579  Math.log10 */\n      tag_177\n        /* \"@openzeppelin/contracts/utils/Strings.sol\":569:586  Math.log10(value) */\n      jump\t// in\n    tag_176:\n        /* \"@openzeppelin/contracts/utils/Strings.sol\":569:590  Math.log10(value) + 1 */\n      add\n        /* \"@openzeppelin/contracts/utils/Strings.sol\":552:590  uint256 length = Math.log10(value) + 1 */\n      swap1\n      pop\n        /* \"@openzeppelin/contracts/utils/Strings.sol\":604:624  string memory buffer */\n      0x00\n        /* \"@openzeppelin/contracts/utils/Strings.sol\":638:644  length */\n      dup2\n        /* \"@openzeppelin/contracts/utils/Strings.sol\":627:645  new string(length) */\n      0xffffffffffffffff\n      dup2\n      gt\n      iszero\n      tag_178\n      jumpi\n      tag_179\n      tag_44\n      jump\t// in\n    tag_179:\n    tag_178:\n      mload(0x40)\n      swap1\n      dup1\n      dup3\n      mstore\n      dup1\n      0x1f\n      add\n      not(0x1f)\n      and\n      0x20\n      add\n      dup3\n      add\n      0x40\n      mstore\n      dup1\n      iszero\n      tag_180\n      jumpi\n      dup2\n      0x20\n      add\n      0x01\n      dup3\n      mul\n      dup1\n      calldatasize\n      dup4\n      calldatacopy\n      dup1\n      dup3\n      add\n      swap2\n      pop\n      pop\n      swap1\n      pop\n    tag_180:\n      pop\n        /* \"@openzeppelin/contracts/utils/Strings.sol\":604:645  string memory buffer = new string(length) */\n      swap1\n      pop\n        /* \"@openzeppelin/contracts/utils/Strings.sol\":659:670  uint256 ptr */\n      0x00\n        /* \"@openzeppelin/contracts/utils/Strings.sol\":785:791  length */\n      dup3\n        /* \"@openzeppelin/contracts/utils/Strings.sol\":781:783  32 */\n      0x20\n        /* \"@openzeppelin/contracts/utils/Strings.sol\":777:792  add(32, length) */\n      add\n        /* \"@openzeppelin/contracts/utils/Strings.sol\":769:775  buffer */\n      dup3\n        /* \"@openzeppelin/contracts/utils/Strings.sol\":765:793  add(buffer, add(32, length)) */\n      add\n        /* \"@openzeppelin/contracts/utils/Strings.sol\":758:793  ptr := add(buffer, add(32, length)) */\n      swap1\n      pop\n        /* \"@openzeppelin/contracts/utils/Strings.sol\":820:1100  while (true) {... */\n    tag_181:\n        /* \"@openzeppelin/contracts/utils/Strings.sol\":827:831  true */\n      0x01\n        /* \"@openzeppelin/contracts/utils/Strings.sol\":820:1100  while (true) {... */\n      iszero\n      tag_182\n      jumpi\n        /* \"@openzeppelin/contracts/utils/Strings.sol\":851:856  ptr-- */\n      dup1\n      dup1\n      0x01\n      swap1\n      sub\n      swap2\n      pop\n      pop\n        /* \"@openzeppelin/contracts/utils/Strings.sol\":990:998  _SYMBOLS */\n      0x3031323334353637383961626364656600000000000000000000000000000000\n        /* \"@openzeppelin/contracts/utils/Strings.sol\":985:987  10 */\n      0x0a\n        /* \"@openzeppelin/contracts/utils/Strings.sol\":978:983  value */\n      dup7\n        /* \"@openzeppelin/contracts/utils/Strings.sol\":974:988  mod(value, 10) */\n      mod\n        /* \"@openzeppelin/contracts/utils/Strings.sol\":969:999  byte(mod(value, 10), _SYMBOLS) */\n      byte\n        /* \"@openzeppelin/contracts/utils/Strings.sol\":964:967  ptr */\n      dup2\n        /* \"@openzeppelin/contracts/utils/Strings.sol\":956:1000  mstore8(ptr, byte(mod(value, 10), _SYMBOLS)) */\n      mstore8\n        /* \"@openzeppelin/contracts/utils/Strings.sol\":1044:1046  10 */\n      0x0a\n        /* \"@openzeppelin/contracts/utils/Strings.sol\":1035:1046  value /= 10 */\n      dup6\n      dup2\n      tag_183\n      jumpi\n      tag_184\n      tag_185\n      jump\t// in\n    tag_184:\n    tag_183:\n      div\n      swap5\n      pop\n        /* \"@openzeppelin/contracts/utils/Strings.sol\":1077:1078  0 */\n      0x00\n        /* \"@openzeppelin/contracts/utils/Strings.sol\":1068:1073  value */\n      dup6\n        /* \"@openzeppelin/contracts/utils/Strings.sol\":1068:1078  value == 0 */\n      sub\n        /* \"@openzeppelin/contracts/utils/Strings.sol\":820:1100  while (true) {... */\n      tag_181\n        /* \"@openzeppelin/contracts/utils/Strings.sol\":1064:1085  if (value == 0) break */\n      jumpi\n        /* \"@openzeppelin/contracts/utils/Strings.sol\":820:1100  while (true) {... */\n    tag_182:\n        /* \"@openzeppelin/contracts/utils/Strings.sol\":1120:1126  buffer */\n      dup2\n        /* \"@openzeppelin/contracts/utils/Strings.sol\":1113:1126  return buffer */\n      swap4\n      pop\n      pop\n      pop\n      pop\n        /* \"@openzeppelin/contracts/utils/Strings.sol\":447:1143  function toString(uint256 value) internal pure returns (string memory) {... */\n      swap2\n      swap1\n      pop\n      jump\t// out\n        /* \"@openzeppelin/contracts/utils/math/Math.sol\":10139:11055  function log10(uint256 value) internal pure returns (uint256) {... */\n    tag_177:\n        /* \"@openzeppelin/contracts/utils/math/Math.sol\":10192:10199  uint256 */\n      0x00\n        /* \"@openzeppelin/contracts/utils/math/Math.sol\":10211:10225  uint256 result */\n      dup1\n        /* \"@openzeppelin/contracts/utils/math/Math.sol\":10228:10229  0 */\n      0x00\n        /* \"@openzeppelin/contracts/utils/math/Math.sol\":10211:10229  uint256 result = 0 */\n      swap1\n      pop\n        /* \"@openzeppelin/contracts/utils/math/Math.sol\":10276:10284  10 ** 64 */\n      0x184f03e93ff9f4daa797ed6e38ed64bf6a1f010000000000000000\n        /* \"@openzeppelin/contracts/utils/math/Math.sol\":10267:10272  value */\n      dup4\n        /* \"@openzeppelin/contracts/utils/math/Math.sol\":10267:10284  value >= 10 ** 64 */\n      lt\n        /* \"@openzeppelin/contracts/utils/math/Math.sol\":10263:10366  if (value >= 10 ** 64) {... */\n      tag_188\n      jumpi\n        /* \"@openzeppelin/contracts/utils/math/Math.sol\":10313:10321  10 ** 64 */\n      0x184f03e93ff9f4daa797ed6e38ed64bf6a1f010000000000000000\n        /* \"@openzeppelin/contracts/utils/math/Math.sol\":10304:10321  value /= 10 ** 64 */\n      dup4\n      dup2\n      tag_189\n      jumpi\n      tag_190\n      tag_185\n      jump\t// in\n    tag_190:\n    tag_189:\n      div\n      swap3\n      pop\n        /* \"@openzeppelin/contracts/utils/math/Math.sol\":10349:10351  64 */\n      0x40\n        /* \"@openzeppelin/contracts/utils/math/Math.sol\":10339:10351  result += 64 */\n      dup2\n      add\n      swap1\n      pop\n        /* \"@openzeppelin/contracts/utils/math/Math.sol\":10263:10366  if (value >= 10 ** 64) {... */\n    tag_188:\n        /* \"@openzeppelin/contracts/utils/math/Math.sol\":10392:10400  10 ** 32 */\n      0x04ee2d6d415b85acef8100000000\n        /* \"@openzeppelin/contracts/utils/math/Math.sol\":10383:10388  value */\n      dup4\n        /* \"@openzeppelin/contracts/utils/math/Math.sol\":10383:10400  value >= 10 ** 32 */\n      lt\n        /* \"@openzeppelin/contracts/utils/math/Math.sol\":10379:10482  if (value >= 10 ** 32) {... */\n      tag_191\n      jumpi\n        /* \"@openzeppelin/contracts/utils/math/Math.sol\":10429:10437  10 ** 32 */\n      0x04ee2d6d415b85acef8100000000\n        /* \"@openzeppelin/contracts/utils/math/Math.sol\":10420:10437  value /= 10 ** 32 */\n      dup4\n      dup2\n      tag_192\n      jumpi\n      tag_193\n      tag_185\n      jump\t// in\n    tag_193:\n    tag_192:\n      div\n      swap3\n      pop\n        /* \"@openzeppelin/contracts/utils/math/Math.sol\":10465:10467  32 */\n      0x20\n        /* \"@openzeppelin/contracts/utils/math/Math.sol\":10455:10467  result += 32 */\n      dup2\n      add\n      swap1\n      pop\n        /* \"@openzeppelin/contracts/utils/math/Math.sol\":10379:10482  if (value >= 10 ** 32) {... */\n    tag_191:\n        /* \"@openzeppelin/contracts/utils/math/Math.sol\":10508:10516  10 ** 16 */\n      0x2386f26fc10000\n        /* \"@openzeppelin/contracts/utils/math/Math.sol\":10499:10504  value */\n      dup4\n        /* \"@openzeppelin/contracts/utils/math/Math.sol\":10499:10516  value >= 10 ** 16 */\n      lt\n        /* \"@openzeppelin/contracts/utils/math/Math.sol\":10495:10598  if (value >= 10 ** 16) {... */\n      tag_194\n      jumpi\n        /* \"@openzeppelin/contracts/utils/math/Math.sol\":10545:10553  10 ** 16 */\n      0x2386f26fc10000\n        /* \"@openzeppelin/contracts/utils/math/Math.sol\":10536:10553  value /= 10 ** 16 */\n      dup4\n      dup2\n      tag_195\n      jumpi\n      tag_196\n      tag_185\n      jump\t// in\n    tag_196:\n    tag_195:\n      div\n      swap3\n      pop\n        /* \"@openzeppelin/contracts/utils/math/Math.sol\":10581:10583  16 */\n      0x10\n        /* \"@openzeppelin/contracts/utils/math/Math.sol\":10571:10583  result += 16 */\n      dup2\n      add\n      swap1\n      pop\n        /* \"@openzeppelin/contracts/utils/math/Math.sol\":10495:10598  if (value >= 10 ** 16) {... */\n    tag_194:\n        /* \"@openzeppelin/contracts/utils/math/Math.sol\":10624:10631  10 ** 8 */\n      0x05f5e100\n        /* \"@openzeppelin/contracts/utils/math/Math.sol\":10615:10620  value */\n      dup4\n        /* \"@openzeppelin/contracts/utils/math/Math.sol\":10615:10631  value >= 10 ** 8 */\n      lt\n        /* \"@openzeppelin/contracts/utils/math/Math.sol\":10611:10711  if (value >= 10 ** 8) {... */\n      tag_197\n      jumpi\n        /* \"@openzeppelin/contracts/utils/math/Math.sol\":10660:10667  10 ** 8 */\n      0x05f5e100\n        /* \"@openzeppelin/contracts/utils/math/Math.sol\":10651:10667  value /= 10 ** 8 */\n      dup4\n      dup2\n      tag_198\n      jumpi\n      tag_199\n      tag_185\n      jump\t// in\n    tag_199:\n    tag_198:\n      div\n      swap3\n      pop\n        /* \"@openzeppelin/contracts/utils/math/Math.sol\":10695:10696  8 */\n      0x08\n        /* \"@openzeppelin/contracts/utils/math/Math.sol\":10685:10696  result += 8 */\n      dup2\n      add\n      swap1\n      pop\n        /* \"@openzeppelin/contracts/utils/math/Math.sol\":10611:10711  if (value >= 10 ** 8) {... */\n    tag_197:\n        /* \"@openzeppelin/contracts/utils/math/Math.sol\":10737:10744  10 ** 4 */\n      0x2710\n        /* \"@openzeppelin/contracts/utils/math/Math.sol\":10728:10733  value */\n      dup4\n        /* \"@openzeppelin/contracts/utils/math/Math.sol\":10728:10744  value >= 10 ** 4 */\n      lt\n        /* \"@openzeppelin/contracts/utils/math/Math.sol\":10724:10824  if (value >= 10 ** 4) {... */\n      tag_200\n      jumpi\n        /* \"@openzeppelin/contracts/utils/math/Math.sol\":10773:10780  10 ** 4 */\n      0x2710\n        /* \"@openzeppelin/contracts/utils/math/Math.sol\":10764:10780  value /= 10 ** 4 */\n      dup4\n      dup2\n      tag_201\n      jumpi\n      tag_202\n      tag_185\n      jump\t// in\n    tag_202:\n    tag_201:\n      div\n      swap3\n      pop\n        /* \"@openzeppelin/contracts/utils/math/Math.sol\":10808:10809  4 */\n      0x04\n        /* \"@openzeppelin/contracts/utils/math/Math.sol\":10798:10809  result += 4 */\n      dup2\n      add\n      swap1\n      pop\n        /* \"@openzeppelin/contracts/utils/math/Math.sol\":10724:10824  if (value >= 10 ** 4) {... */\n    tag_200:\n        /* \"@openzeppelin/contracts/utils/math/Math.sol\":10850:10857  10 ** 2 */\n      0x64\n        /* \"@openzeppelin/contracts/utils/math/Math.sol\":10841:10846  value */\n      dup4\n        /* \"@openzeppelin/contracts/utils/math/Math.sol\":10841:10857  value >= 10 ** 2 */\n      lt\n        /* \"@openzeppelin/contracts/utils/math/Math.sol\":10837:10937  if (value >= 10 ** 2) {... */\n      tag_203\n      jumpi\n        /* \"@openzeppelin/contracts/utils/math/Math.sol\":10886:10893  10 ** 2 */\n      0x64\n        /* \"@openzeppelin/contracts/utils/math/Math.sol\":10877:10893  value /= 10 ** 2 */\n      dup4\n      dup2\n      tag_204\n      jumpi\n      tag_205\n      tag_185\n      jump\t// in\n    tag_205:\n    tag_204:\n      div\n      swap3\n      pop\n        /* \"@openzeppelin/contracts/utils/math/Math.sol\":10921:10922  2 */\n      0x02\n        /* \"@openzeppelin/contracts/utils/math/Math.sol\":10911:10922  result += 2 */\n      dup2\n      add\n      swap1\n      pop\n        /* \"@openzeppelin/contracts/utils/math/Math.sol\":10837:10937  if (value >= 10 ** 2) {... */\n    tag_203:\n        /* \"@openzeppelin/contracts/utils/math/Math.sol\":10963:10970  10 ** 1 */\n      0x0a\n        /* \"@openzeppelin/contracts/utils/math/Math.sol\":10954:10959  value */\n      dup4\n        /* \"@openzeppelin/contracts/utils/math/Math.sol\":10954:10970  value >= 10 ** 1 */\n      lt\n        /* \"@openzeppelin/contracts/utils/math/Math.sol\":10950:11016  if (value >= 10 ** 1) {... */\n      tag_206\n      jumpi\n        /* \"@openzeppelin/contracts/utils/math/Math.sol\":11000:11001  1 */\n      0x01\n        /* \"@openzeppelin/contracts/utils/math/Math.sol\":10990:11001  result += 1 */\n      dup2\n      add\n      swap1\n      pop\n        /* \"@openzeppelin/contracts/utils/math/Math.sol\":10950:11016  if (value >= 10 ** 1) {... */\n    tag_206:\n        /* \"@openzeppelin/contracts/utils/math/Math.sol\":11042:11048  result */\n      dup1\n        /* \"@openzeppelin/contracts/utils/math/Math.sol\":11035:11048  return result */\n      swap2\n      pop\n      pop\n        /* \"@openzeppelin/contracts/utils/math/Math.sol\":10139:11055  function log10(uint256 value) internal pure returns (uint256) {... */\n      swap2\n      swap1\n      pop\n      jump\t// out\n        /* \"#utility.yul\":7:82   */\n    tag_207:\n        /* \"#utility.yul\":40:46   */\n      0x00\n        /* \"#utility.yul\":73:75   */\n      0x40\n        /* \"#utility.yul\":67:76   */\n      mload\n        /* \"#utility.yul\":57:76   */\n      swap1\n      pop\n        /* \"#utility.yul\":7:82   */\n      swap1\n      jump\t// out\n        /* \"#utility.yul\":88:205   */\n    tag_208:\n        /* \"#utility.yul\":197:198   */\n      0x00\n        /* \"#utility.yul\":194:195   */\n      dup1\n        /* \"#utility.yul\":187:199   */\n      revert\n        /* \"#utility.yul\":211:328   */\n    tag_209:\n        /* \"#utility.yul\":320:321   */\n      0x00\n        /* \"#utility.yul\":317:318   */\n      dup1\n        /* \"#utility.yul\":310:322   */\n      revert\n        /* \"#utility.yul\":334:451   */\n    tag_210:\n        /* \"#utility.yul\":443:444   */\n      0x00\n        /* \"#utility.yul\":440:441   */\n      dup1\n        /* \"#utility.yul\":433:445   */\n      revert\n        /* \"#utility.yul\":457:574   */\n    tag_211:\n        /* \"#utility.yul\":566:567   */\n      0x00\n        /* \"#utility.yul\":563:564   */\n      dup1\n        /* \"#utility.yul\":556:568   */\n      revert\n        /* \"#utility.yul\":580:697   */\n    tag_212:\n        /* \"#utility.yul\":689:690   */\n      0x00\n        /* \"#utility.yul\":686:687   */\n      dup1\n        /* \"#utility.yul\":679:691   */\n      revert\n        /* \"#utility.yul\":717:1270   */\n    tag_213:\n        /* \"#utility.yul\":775:783   */\n      0x00\n        /* \"#utility.yul\":785:791   */\n      dup1\n        /* \"#utility.yul\":835:838   */\n      dup4\n        /* \"#utility.yul\":828:832   */\n      0x1f\n        /* \"#utility.yul\":820:826   */\n      dup5\n        /* \"#utility.yul\":816:833   */\n      add\n        /* \"#utility.yul\":812:839   */\n      slt\n        /* \"#utility.yul\":802:924   */\n      tag_275\n      jumpi\n        /* \"#utility.yul\":843:922   */\n      tag_276\n      tag_210\n      jump\t// in\n    tag_276:\n        /* \"#utility.yul\":802:924   */\n    tag_275:\n        /* \"#utility.yul\":956:962   */\n      dup3\n        /* \"#utility.yul\":943:963   */\n      calldataload\n        /* \"#utility.yul\":933:963   */\n      swap1\n      pop\n        /* \"#utility.yul\":986:1004   */\n      0xffffffffffffffff\n        /* \"#utility.yul\":978:984   */\n      dup2\n        /* \"#utility.yul\":975:1005   */\n      gt\n        /* \"#utility.yul\":972:1089   */\n      iszero\n      tag_277\n      jumpi\n        /* \"#utility.yul\":1008:1087   */\n      tag_278\n      tag_211\n      jump\t// in\n    tag_278:\n        /* \"#utility.yul\":972:1089   */\n    tag_277:\n        /* \"#utility.yul\":1122:1126   */\n      0x20\n        /* \"#utility.yul\":1114:1120   */\n      dup4\n        /* \"#utility.yul\":1110:1127   */\n      add\n        /* \"#utility.yul\":1098:1127   */\n      swap2\n      pop\n        /* \"#utility.yul\":1176:1179   */\n      dup4\n        /* \"#utility.yul\":1168:1172   */\n      0x01\n        /* \"#utility.yul\":1160:1166   */\n      dup3\n        /* \"#utility.yul\":1156:1173   */\n      mul\n        /* \"#utility.yul\":1146:1154   */\n      dup4\n        /* \"#utility.yul\":1142:1174   */\n      add\n        /* \"#utility.yul\":1139:1180   */\n      gt\n        /* \"#utility.yul\":1136:1264   */\n      iszero\n      tag_279\n      jumpi\n        /* \"#utility.yul\":1183:1262   */\n      tag_280\n      tag_212\n      jump\t// in\n    tag_280:\n        /* \"#utility.yul\":1136:1264   */\n    tag_279:\n        /* \"#utility.yul\":717:1270   */\n      swap3\n      pop\n      swap3\n      swap1\n      pop\n      jump\t// out\n        /* \"#utility.yul\":1289:1841   */\n    tag_214:\n        /* \"#utility.yul\":1346:1354   */\n      0x00\n        /* \"#utility.yul\":1356:1362   */\n      dup1\n        /* \"#utility.yul\":1406:1409   */\n      dup4\n        /* \"#utility.yul\":1399:1403   */\n      0x1f\n        /* \"#utility.yul\":1391:1397   */\n      dup5\n        /* \"#utility.yul\":1387:1404   */\n      add\n        /* \"#utility.yul\":1383:1410   */\n      slt\n        /* \"#utility.yul\":1373:1495   */\n      tag_282\n      jumpi\n        /* \"#utility.yul\":1414:1493   */\n      tag_283\n      tag_210\n      jump\t// in\n    tag_283:\n        /* \"#utility.yul\":1373:1495   */\n    tag_282:\n        /* \"#utility.yul\":1527:1533   */\n      dup3\n        /* \"#utility.yul\":1514:1534   */\n      calldataload\n        /* \"#utility.yul\":1504:1534   */\n      swap1\n      pop\n        /* \"#utility.yul\":1557:1575   */\n      0xffffffffffffffff\n        /* \"#utility.yul\":1549:1555   */\n      dup2\n        /* \"#utility.yul\":1546:1576   */\n      gt\n        /* \"#utility.yul\":1543:1660   */\n      iszero\n      tag_284\n      jumpi\n        /* \"#utility.yul\":1579:1658   */\n      tag_285\n      tag_211\n      jump\t// in\n    tag_285:\n        /* \"#utility.yul\":1543:1660   */\n    tag_284:\n        /* \"#utility.yul\":1693:1697   */\n      0x20\n        /* \"#utility.yul\":1685:1691   */\n      dup4\n        /* \"#utility.yul\":1681:1698   */\n      add\n        /* \"#utility.yul\":1669:1698   */\n      swap2\n      pop\n        /* \"#utility.yul\":1747:1750   */\n      dup4\n        /* \"#utility.yul\":1739:1743   */\n      0x01\n        /* \"#utility.yul\":1731:1737   */\n      dup3\n        /* \"#utility.yul\":1727:1744   */\n      mul\n        /* \"#utility.yul\":1717:1725   */\n      dup4\n        /* \"#utility.yul\":1713:1745   */\n      add\n        /* \"#utility.yul\":1710:1751   */\n      gt\n        /* \"#utility.yul\":1707:1835   */\n      iszero\n      tag_286\n      jumpi\n        /* \"#utility.yul\":1754:1833   */\n      tag_287\n      tag_212\n      jump\t// in\n    tag_287:\n        /* \"#utility.yul\":1707:1835   */\n    tag_286:\n        /* \"#utility.yul\":1289:1841   */\n      swap3\n      pop\n      swap3\n      swap1\n      pop\n      jump\t// out\n        /* \"#utility.yul\":1847:3064   */\n    tag_9:\n        /* \"#utility.yul\":1959:1965   */\n      0x00\n        /* \"#utility.yul\":1967:1973   */\n      dup1\n        /* \"#utility.yul\":1975:1981   */\n      0x00\n        /* \"#utility.yul\":1983:1989   */\n      dup1\n        /* \"#utility.yul\":1991:1997   */\n      0x00\n        /* \"#utility.yul\":1999:2005   */\n      dup1\n        /* \"#utility.yul\":2048:2050   */\n      0x60\n        /* \"#utility.yul\":2036:2045   */\n      dup8\n        /* \"#utility.yul\":2027:2034   */\n      dup10\n        /* \"#utility.yul\":2023:2046   */\n      sub\n        /* \"#utility.yul\":2019:2051   */\n      slt\n        /* \"#utility.yul\":2016:2135   */\n      iszero\n      tag_289\n      jumpi\n        /* \"#utility.yul\":2054:2133   */\n      tag_290\n      tag_208\n      jump\t// in\n    tag_290:\n        /* \"#utility.yul\":2016:2135   */\n    tag_289:\n        /* \"#utility.yul\":2202:2203   */\n      0x00\n        /* \"#utility.yul\":2191:2200   */\n      dup8\n        /* \"#utility.yul\":2187:2204   */\n      add\n        /* \"#utility.yul\":2174:2205   */\n      calldataload\n        /* \"#utility.yul\":2232:2250   */\n      0xffffffffffffffff\n        /* \"#utility.yul\":2224:2230   */\n      dup2\n        /* \"#utility.yul\":2221:2251   */\n      gt\n        /* \"#utility.yul\":2218:2335   */\n      iszero\n      tag_291\n      jumpi\n        /* \"#utility.yul\":2254:2333   */\n      tag_292\n      tag_209\n      jump\t// in\n    tag_292:\n        /* \"#utility.yul\":2218:2335   */\n    tag_291:\n        /* \"#utility.yul\":2367:2432   */\n      tag_293\n        /* \"#utility.yul\":2424:2431   */\n      dup10\n        /* \"#utility.yul\":2415:2421   */\n      dup3\n        /* \"#utility.yul\":2404:2413   */\n      dup11\n        /* \"#utility.yul\":2400:2422   */\n      add\n        /* \"#utility.yul\":2367:2432   */\n      tag_213\n      jump\t// in\n    tag_293:\n        /* \"#utility.yul\":2349:2432   */\n      swap7\n      pop\n      swap7\n      pop\n        /* \"#utility.yul\":2145:2442   */\n      pop\n        /* \"#utility.yul\":2509:2511   */\n      0x20\n        /* \"#utility.yul\":2498:2507   */\n      dup8\n        /* \"#utility.yul\":2494:2512   */\n      add\n        /* \"#utility.yul\":2481:2513   */\n      calldataload\n        /* \"#utility.yul\":2540:2558   */\n      0xffffffffffffffff\n        /* \"#utility.yul\":2532:2538   */\n      dup2\n        /* \"#utility.yul\":2529:2559   */\n      gt\n        /* \"#utility.yul\":2526:2643   */\n      iszero\n      tag_294\n      jumpi\n        /* \"#utility.yul\":2562:2641   */\n      tag_295\n      tag_209\n      jump\t// in\n    tag_295:\n        /* \"#utility.yul\":2526:2643   */\n    tag_294:\n        /* \"#utility.yul\":2675:2740   */\n      tag_296\n        /* \"#utility.yul\":2732:2739   */\n      dup10\n        /* \"#utility.yul\":2723:2729   */\n      dup3\n        /* \"#utility.yul\":2712:2721   */\n      dup11\n        /* \"#utility.yul\":2708:2730   */\n      add\n        /* \"#utility.yul\":2675:2740   */\n      tag_213\n      jump\t// in\n    tag_296:\n        /* \"#utility.yul\":2657:2740   */\n      swap5\n      pop\n      swap5\n      pop\n        /* \"#utility.yul\":2452:2750   */\n      pop\n        /* \"#utility.yul\":2817:2819   */\n      0x40\n        /* \"#utility.yul\":2806:2815   */\n      dup8\n        /* \"#utility.yul\":2802:2820   */\n      add\n        /* \"#utility.yul\":2789:2821   */\n      calldataload\n        /* \"#utility.yul\":2848:2866   */\n      0xffffffffffffffff\n        /* \"#utility.yul\":2840:2846   */\n      dup2\n        /* \"#utility.yul\":2837:2867   */\n      gt\n        /* \"#utility.yul\":2834:2951   */\n      iszero\n      tag_297\n      jumpi\n        /* \"#utility.yul\":2870:2949   */\n      tag_298\n      tag_209\n      jump\t// in\n    tag_298:\n        /* \"#utility.yul\":2834:2951   */\n    tag_297:\n        /* \"#utility.yul\":2983:3047   */\n      tag_299\n        /* \"#utility.yul\":3039:3046   */\n      dup10\n        /* \"#utility.yul\":3030:3036   */\n      dup3\n        /* \"#utility.yul\":3019:3028   */\n      dup11\n        /* \"#utility.yul\":3015:3037   */\n      add\n        /* \"#utility.yul\":2983:3047   */\n      tag_214\n      jump\t// in\n    tag_299:\n        /* \"#utility.yul\":2965:3047   */\n      swap3\n      pop\n      swap3\n      pop\n        /* \"#utility.yul\":2760:3057   */\n      pop\n        /* \"#utility.yul\":1847:3064   */\n      swap3\n      swap6\n      pop\n      swap3\n      swap6\n      pop\n      swap3\n      swap6\n      jump\t// out\n        /* \"#utility.yul\":3070:3187   */\n    tag_215:\n        /* \"#utility.yul\":3179:3180   */\n      0x00\n        /* \"#utility.yul\":3176:3177   */\n      dup1\n        /* \"#utility.yul\":3169:3181   */\n      revert\n        /* \"#utility.yul\":3193:3295   */\n    tag_216:\n        /* \"#utility.yul\":3234:3240   */\n      0x00\n        /* \"#utility.yul\":3285:3287   */\n      0x1f\n        /* \"#utility.yul\":3281:3288   */\n      not\n        /* \"#utility.yul\":3276:3278   */\n      0x1f\n        /* \"#utility.yul\":3269:3274   */\n      dup4\n        /* \"#utility.yul\":3265:3279   */\n      add\n        /* \"#utility.yul\":3261:3289   */\n      and\n        /* \"#utility.yul\":3251:3289   */\n      swap1\n      pop\n        /* \"#utility.yul\":3193:3295   */\n      swap2\n      swap1\n      pop\n      jump\t// out\n        /* \"#utility.yul\":3301:3481   */\n    tag_44:\n        /* \"#utility.yul\":3349:3426   */\n      0x4e487b7100000000000000000000000000000000000000000000000000000000\n        /* \"#utility.yul\":3346:3347   */\n      0x00\n        /* \"#utility.yul\":3339:3427   */\n      mstore\n        /* \"#utility.yul\":3446:3450   */\n      0x41\n        /* \"#utility.yul\":3443:3444   */\n      0x04\n        /* \"#utility.yul\":3436:3451   */\n      mstore\n        /* \"#utility.yul\":3470:3474   */\n      0x24\n        /* \"#utility.yul\":3467:3468   */\n      0x00\n        /* \"#utility.yul\":3460:3475   */\n      revert\n        /* \"#utility.yul\":3487:3768   */\n    tag_217:\n        /* \"#utility.yul\":3570:3597   */\n      tag_304\n        /* \"#utility.yul\":3592:3596   */\n      dup3\n        /* \"#utility.yul\":3570:3597   */\n      tag_216\n      jump\t// in\n    tag_304:\n        /* \"#utility.yul\":3562:3568   */\n      dup2\n        /* \"#utility.yul\":3558:3598   */\n      add\n        /* \"#utility.yul\":3700:3706   */\n      dup2\n        /* \"#utility.yul\":3688:3698   */\n      dup2\n        /* \"#utility.yul\":3685:3707   */\n      lt\n        /* \"#utility.yul\":3664:3682   */\n      0xffffffffffffffff\n        /* \"#utility.yul\":3652:3662   */\n      dup3\n        /* \"#utility.yul\":3649:3683   */\n      gt\n        /* \"#utility.yul\":3646:3708   */\n      or\n        /* \"#utility.yul\":3643:3731   */\n      iszero\n      tag_305\n      jumpi\n        /* \"#utility.yul\":3711:3729   */\n      tag_306\n      tag_44\n      jump\t// in\n    tag_306:\n        /* \"#utility.yul\":3643:3731   */\n    tag_305:\n        /* \"#utility.yul\":3751:3761   */\n      dup1\n        /* \"#utility.yul\":3747:3749   */\n      0x40\n        /* \"#utility.yul\":3740:3762   */\n      mstore\n        /* \"#utility.yul\":3530:3768   */\n      pop\n        /* \"#utility.yul\":3487:3768   */\n      pop\n      pop\n      jump\t// out\n        /* \"#utility.yul\":3774:3903   */\n    tag_218:\n        /* \"#utility.yul\":3808:3814   */\n      0x00\n        /* \"#utility.yul\":3835:3855   */\n      tag_308\n      tag_207\n      jump\t// in\n    tag_308:\n        /* \"#utility.yul\":3825:3855   */\n      swap1\n      pop\n        /* \"#utility.yul\":3864:3897   */\n      tag_309\n        /* \"#utility.yul\":3892:3896   */\n      dup3\n        /* \"#utility.yul\":3884:3890   */\n      dup3\n        /* \"#utility.yul\":3864:3897   */\n      tag_217\n      jump\t// in\n    tag_309:\n        /* \"#utility.yul\":3774:3903   */\n      swap2\n      swap1\n      pop\n      jump\t// out\n        /* \"#utility.yul\":3909:4217   */\n    tag_219:\n        /* \"#utility.yul\":3971:3975   */\n      0x00\n        /* \"#utility.yul\":4061:4079   */\n      0xffffffffffffffff\n        /* \"#utility.yul\":4053:4059   */\n      dup3\n        /* \"#utility.yul\":4050:4080   */\n      gt\n        /* \"#utility.yul\":4047:4103   */\n      iszero\n      tag_311\n      jumpi\n        /* \"#utility.yul\":4083:4101   */\n      tag_312\n      tag_44\n      jump\t// in\n    tag_312:\n        /* \"#utility.yul\":4047:4103   */\n    tag_311:\n        /* \"#utility.yul\":4121:4150   */\n      tag_313\n        /* \"#utility.yul\":4143:4149   */\n      dup3\n        /* \"#utility.yul\":4121:4150   */\n      tag_216\n      jump\t// in\n    tag_313:\n        /* \"#utility.yul\":4113:4150   */\n      swap1\n      pop\n        /* \"#utility.yul\":4205:4209   */\n      0x20\n        /* \"#utility.yul\":4199:4203   */\n      dup2\n        /* \"#utility.yul\":4195:4210   */\n      add\n        /* \"#utility.yul\":4187:4210   */\n      swap1\n      pop\n        /* \"#utility.yul\":3909:4217   */\n      swap2\n      swap1\n      pop\n      jump\t// out\n        /* \"#utility.yul\":4223:4369   */\n    tag_220:\n        /* \"#utility.yul\":4320:4326   */\n      dup3\n        /* \"#utility.yul\":4315:4318   */\n      dup2\n        /* \"#utility.yul\":4310:4313   */\n      dup4\n        /* \"#utility.yul\":4297:4327   */\n      calldatacopy\n        /* \"#utility.yul\":4361:4362   */\n      0x00\n        /* \"#utility.yul\":4352:4358   */\n      dup4\n        /* \"#utility.yul\":4347:4350   */\n      dup4\n        /* \"#utility.yul\":4343:4359   */\n      add\n        /* \"#utility.yul\":4336:4363   */\n      mstore\n        /* \"#utility.yul\":4223:4369   */\n      pop\n      pop\n      pop\n      jump\t// out\n        /* \"#utility.yul\":4375:4800   */\n    tag_221:\n        /* \"#utility.yul\":4453:4458   */\n      0x00\n        /* \"#utility.yul\":4478:4544   */\n      tag_316\n        /* \"#utility.yul\":4494:4543   */\n      tag_317\n        /* \"#utility.yul\":4536:4542   */\n      dup5\n        /* \"#utility.yul\":4494:4543   */\n      tag_219\n      jump\t// in\n    tag_317:\n        /* \"#utility.yul\":4478:4544   */\n      tag_218\n      jump\t// in\n    tag_316:\n        /* \"#utility.yul\":4469:4544   */\n      swap1\n      pop\n        /* \"#utility.yul\":4567:4573   */\n      dup3\n        /* \"#utility.yul\":4560:4565   */\n      dup2\n        /* \"#utility.yul\":4553:4574   */\n      mstore\n        /* \"#utility.yul\":4605:4609   */\n      0x20\n        /* \"#utility.yul\":4598:4603   */\n      dup2\n        /* \"#utility.yul\":4594:4610   */\n      add\n        /* \"#utility.yul\":4643:4646   */\n      dup5\n        /* \"#utility.yul\":4634:4640   */\n      dup5\n        /* \"#utility.yul\":4629:4632   */\n      dup5\n        /* \"#utility.yul\":4625:4641   */\n      add\n        /* \"#utility.yul\":4622:4647   */\n      gt\n        /* \"#utility.yul\":4619:4731   */\n      iszero\n      tag_318\n      jumpi\n        /* \"#utility.yul\":4650:4729   */\n      tag_319\n      tag_215\n      jump\t// in\n    tag_319:\n        /* \"#utility.yul\":4619:4731   */\n    tag_318:\n        /* \"#utility.yul\":4740:4794   */\n      tag_320\n        /* \"#utility.yul\":4787:4793   */\n      dup5\n        /* \"#utility.yul\":4782:4785   */\n      dup3\n        /* \"#utility.yul\":4777:4780   */\n      dup6\n        /* \"#utility.yul\":4740:4794   */\n      tag_220\n      jump\t// in\n    tag_320:\n        /* \"#utility.yul\":4459:4800   */\n      pop\n        /* \"#utility.yul\":4375:4800   */\n      swap4\n      swap3\n      pop\n      pop\n      pop\n      jump\t// out\n        /* \"#utility.yul\":4820:5160   */\n    tag_222:\n        /* \"#utility.yul\":4876:4881   */\n      0x00\n        /* \"#utility.yul\":4925:4928   */\n      dup3\n        /* \"#utility.yul\":4918:4922   */\n      0x1f\n        /* \"#utility.yul\":4910:4916   */\n      dup4\n        /* \"#utility.yul\":4906:4923   */\n      add\n        /* \"#utility.yul\":4902:4929   */\n      slt\n        /* \"#utility.yul\":4892:5014   */\n      tag_322\n      jumpi\n        /* \"#utility.yul\":4933:5012   */\n      tag_323\n      tag_210\n      jump\t// in\n    tag_323:\n        /* \"#utility.yul\":4892:5014   */\n    tag_322:\n        /* \"#utility.yul\":5050:5056   */\n      dup2\n        /* \"#utility.yul\":5037:5057   */\n      calldataload\n        /* \"#utility.yul\":5075:5154   */\n      tag_324\n        /* \"#utility.yul\":5150:5153   */\n      dup5\n        /* \"#utility.yul\":5142:5148   */\n      dup3\n        /* \"#utility.yul\":5135:5139   */\n      0x20\n        /* \"#utility.yul\":5127:5133   */\n      dup7\n        /* \"#utility.yul\":5123:5140   */\n      add\n        /* \"#utility.yul\":5075:5154   */\n      tag_221\n      jump\t// in\n    tag_324:\n        /* \"#utility.yul\":5066:5154   */\n      swap2\n      pop\n        /* \"#utility.yul\":4882:5160   */\n      pop\n        /* \"#utility.yul\":4820:5160   */\n      swap3\n      swap2\n      pop\n      pop\n      jump\t// out\n        /* \"#utility.yul\":5166:5675   */\n    tag_13:\n        /* \"#utility.yul\":5235:5241   */\n      0x00\n        /* \"#utility.yul\":5284:5286   */\n      0x20\n        /* \"#utility.yul\":5272:5281   */\n      dup3\n        /* \"#utility.yul\":5263:5270   */\n      dup5\n        /* \"#utility.yul\":5259:5282   */\n      sub\n        /* \"#utility.yul\":5255:5287   */\n      slt\n        /* \"#utility.yul\":5252:5371   */\n      iszero\n      tag_326\n      jumpi\n        /* \"#utility.yul\":5290:5369   */\n      tag_327\n      tag_208\n      jump\t// in\n    tag_327:\n        /* \"#utility.yul\":5252:5371   */\n    tag_326:\n        /* \"#utility.yul\":5438:5439   */\n      0x00\n        /* \"#utility.yul\":5427:5436   */\n      dup3\n        /* \"#utility.yul\":5423:5440   */\n      add\n        /* \"#utility.yul\":5410:5441   */\n      calldataload\n        /* \"#utility.yul\":5468:5486   */\n      0xffffffffffffffff\n        /* \"#utility.yul\":5460:5466   */\n      dup2\n        /* \"#utility.yul\":5457:5487   */\n      gt\n        /* \"#utility.yul\":5454:5571   */\n      iszero\n      tag_328\n      jumpi\n        /* \"#utility.yul\":5490:5569   */\n      tag_329\n      tag_209\n      jump\t// in\n    tag_329:\n        /* \"#utility.yul\":5454:5571   */\n    tag_328:\n        /* \"#utility.yul\":5595:5658   */\n      tag_330\n        /* \"#utility.yul\":5650:5657   */\n      dup5\n        /* \"#utility.yul\":5641:5647   */\n      dup3\n        /* \"#utility.yul\":5630:5639   */\n      dup6\n        /* \"#utility.yul\":5626:5648   */\n      add\n        /* \"#utility.yul\":5595:5658   */\n      tag_222\n      jump\t// in\n    tag_330:\n        /* \"#utility.yul\":5585:5658   */\n      swap2\n      pop\n        /* \"#utility.yul\":5381:5668   */\n      pop\n        /* \"#utility.yul\":5166:5675   */\n      swap3\n      swap2\n      pop\n      pop\n      jump\t// out\n        /* \"#utility.yul\":5681:5780   */\n    tag_223:\n        /* \"#utility.yul\":5733:5739   */\n      0x00\n        /* \"#utility.yul\":5767:5772   */\n      dup2\n        /* \"#utility.yul\":5761:5773   */\n      mload\n        /* \"#utility.yul\":5751:5773   */\n      swap1\n      pop\n        /* \"#utility.yul\":5681:5780   */\n      swap2\n      swap1\n      pop\n      jump\t// out\n        /* \"#utility.yul\":5786:5955   */\n    tag_224:\n        /* \"#utility.yul\":5870:5881   */\n      0x00\n        /* \"#utility.yul\":5904:5910   */\n      dup3\n        /* \"#utility.yul\":5899:5902   */\n      dup3\n        /* \"#utility.yul\":5892:5911   */\n      mstore\n        /* \"#utility.yul\":5944:5948   */\n      0x20\n        /* \"#utility.yul\":5939:5942   */\n      dup3\n        /* \"#utility.yul\":5935:5949   */\n      add\n        /* \"#utility.yul\":5920:5949   */\n      swap1\n      pop\n        /* \"#utility.yul\":5786:5955   */\n      swap3\n      swap2\n      pop\n      pop\n      jump\t// out\n        /* \"#utility.yul\":5961:6207   */\n    tag_225:\n        /* \"#utility.yul\":6042:6043   */\n      0x00\n        /* \"#utility.yul\":6052:6165   */\n    tag_334:\n        /* \"#utility.yul\":6066:6072   */\n      dup4\n        /* \"#utility.yul\":6063:6064   */\n      dup2\n        /* \"#utility.yul\":6060:6073   */\n      lt\n        /* \"#utility.yul\":6052:6165   */\n      iszero\n      tag_336\n      jumpi\n        /* \"#utility.yul\":6151:6152   */\n      dup1\n        /* \"#utility.yul\":6146:6149   */\n      dup3\n        /* \"#utility.yul\":6142:6153   */\n      add\n        /* \"#utility.yul\":6136:6154   */\n      mload\n        /* \"#utility.yul\":6132:6133   */\n      dup2\n        /* \"#utility.yul\":6127:6130   */\n      dup5\n        /* \"#utility.yul\":6123:6134   */\n      add\n        /* \"#utility.yul\":6116:6155   */\n      mstore\n        /* \"#utility.yul\":6088:6090   */\n      0x20\n        /* \"#utility.yul\":6085:6086   */\n      dup2\n        /* \"#utility.yul\":6081:6091   */\n      add\n        /* \"#utility.yul\":6076:6091   */\n      swap1\n      pop\n        /* \"#utility.yul\":6052:6165   */\n      jump(tag_334)\n    tag_336:\n        /* \"#utility.yul\":6199:6200   */\n      0x00\n        /* \"#utility.yul\":6190:6196   */\n      dup5\n        /* \"#utility.yul\":6185:6188   */\n      dup5\n        /* \"#utility.yul\":6181:6197   */\n      add\n        /* \"#utility.yul\":6174:6201   */\n      mstore\n        /* \"#utility.yul\":6023:6207   */\n      pop\n        /* \"#utility.yul\":5961:6207   */\n      pop\n      pop\n      pop\n      jump\t// out\n        /* \"#utility.yul\":6213:6590   */\n    tag_226:\n        /* \"#utility.yul\":6301:6304   */\n      0x00\n        /* \"#utility.yul\":6329:6368   */\n      tag_338\n        /* \"#utility.yul\":6362:6367   */\n      dup3\n        /* \"#utility.yul\":6329:6368   */\n      tag_223\n      jump\t// in\n    tag_338:\n        /* \"#utility.yul\":6384:6455   */\n      tag_339\n        /* \"#utility.yul\":6448:6454   */\n      dup2\n        /* \"#utility.yul\":6443:6446   */\n      dup6\n        /* \"#utility.yul\":6384:6455   */\n      tag_224\n      jump\t// in\n    tag_339:\n        /* \"#utility.yul\":6377:6455   */\n      swap4\n      pop\n        /* \"#utility.yul\":6464:6529   */\n      tag_340\n        /* \"#utility.yul\":6522:6528   */\n      dup2\n        /* \"#utility.yul\":6517:6520   */\n      dup6\n        /* \"#utility.yul\":6510:6514   */\n      0x20\n        /* \"#utility.yul\":6503:6508   */\n      dup7\n        /* \"#utility.yul\":6499:6515   */\n      add\n        /* \"#utility.yul\":6464:6529   */\n      tag_225\n      jump\t// in\n    tag_340:\n        /* \"#utility.yul\":6554:6583   */\n      tag_341\n        /* \"#utility.yul\":6576:6582   */\n      dup2\n        /* \"#utility.yul\":6554:6583   */\n      tag_216\n      jump\t// in\n    tag_341:\n        /* \"#utility.yul\":6549:6552   */\n      dup5\n        /* \"#utility.yul\":6545:6584   */\n      add\n        /* \"#utility.yul\":6538:6584   */\n      swap2\n      pop\n        /* \"#utility.yul\":6305:6590   */\n      pop\n        /* \"#utility.yul\":6213:6590   */\n      swap3\n      swap2\n      pop\n      pop\n      jump\t// out\n        /* \"#utility.yul\":6596:7110   */\n    tag_16:\n        /* \"#utility.yul\":6757:6761   */\n      0x00\n        /* \"#utility.yul\":6795:6797   */\n      0x40\n        /* \"#utility.yul\":6784:6793   */\n      dup3\n        /* \"#utility.yul\":6780:6798   */\n      add\n        /* \"#utility.yul\":6772:6798   */\n      swap1\n      pop\n        /* \"#utility.yul\":6844:6853   */\n      dup2\n        /* \"#utility.yul\":6838:6842   */\n      dup2\n        /* \"#utility.yul\":6834:6854   */\n      sub\n        /* \"#utility.yul\":6830:6831   */\n      0x00\n        /* \"#utility.yul\":6819:6828   */\n      dup4\n        /* \"#utility.yul\":6815:6832   */\n      add\n        /* \"#utility.yul\":6808:6855   */\n      mstore\n        /* \"#utility.yul\":6872:6950   */\n      tag_343\n        /* \"#utility.yul\":6945:6949   */\n      dup2\n        /* \"#utility.yul\":6936:6942   */\n      dup6\n        /* \"#utility.yul\":6872:6950   */\n      tag_226\n      jump\t// in\n    tag_343:\n        /* \"#utility.yul\":6864:6950   */\n      swap1\n      pop\n        /* \"#utility.yul\":6997:7006   */\n      dup2\n        /* \"#utility.yul\":6991:6995   */\n      dup2\n        /* \"#utility.yul\":6987:7007   */\n      sub\n        /* \"#utility.yul\":6982:6984   */\n      0x20\n        /* \"#utility.yul\":6971:6980   */\n      dup4\n        /* \"#utility.yul\":6967:6985   */\n      add\n        /* \"#utility.yul\":6960:7008   */\n      mstore\n        /* \"#utility.yul\":7025:7103   */\n      tag_344\n        /* \"#utility.yul\":7098:7102   */\n      dup2\n        /* \"#utility.yul\":7089:7095   */\n      dup5\n        /* \"#utility.yul\":7025:7103   */\n      tag_226\n      jump\t// in\n    tag_344:\n        /* \"#utility.yul\":7017:7103   */\n      swap1\n      pop\n        /* \"#utility.yul\":6596:7110   */\n      swap4\n      swap3\n      pop\n      pop\n      pop\n      jump\t// out\n        /* \"#utility.yul\":7116:7193   */\n    tag_227:\n        /* \"#utility.yul\":7153:7160   */\n      0x00\n        /* \"#utility.yul\":7182:7187   */\n      dup2\n        /* \"#utility.yul\":7171:7187   */\n      swap1\n      pop\n        /* \"#utility.yul\":7116:7193   */\n      swap2\n      swap1\n      pop\n      jump\t// out\n        /* \"#utility.yul\":7199:7321   */\n    tag_228:\n        /* \"#utility.yul\":7272:7296   */\n      tag_347\n        /* \"#utility.yul\":7290:7295   */\n      dup2\n        /* \"#utility.yul\":7272:7296   */\n      tag_227\n      jump\t// in\n    tag_347:\n        /* \"#utility.yul\":7265:7270   */\n      dup2\n        /* \"#utility.yul\":7262:7297   */\n      eq\n        /* \"#utility.yul\":7252:7315   */\n      tag_348\n      jumpi\n        /* \"#utility.yul\":7311:7312   */\n      0x00\n        /* \"#utility.yul\":7308:7309   */\n      dup1\n        /* \"#utility.yul\":7301:7313   */\n      revert\n        /* \"#utility.yul\":7252:7315   */\n    tag_348:\n        /* \"#utility.yul\":7199:7321   */\n      pop\n      jump\t// out\n        /* \"#utility.yul\":7327:7466   */\n    tag_229:\n        /* \"#utility.yul\":7373:7378   */\n      0x00\n        /* \"#utility.yul\":7411:7417   */\n      dup2\n        /* \"#utility.yul\":7398:7418   */\n      calldataload\n        /* \"#utility.yul\":7389:7418   */\n      swap1\n      pop\n        /* \"#utility.yul\":7427:7460   */\n      tag_350\n        /* \"#utility.yul\":7454:7459   */\n      dup2\n        /* \"#utility.yul\":7427:7460   */\n      tag_228\n      jump\t// in\n    tag_350:\n        /* \"#utility.yul\":7327:7466   */\n      swap3\n      swap2\n      pop\n      pop\n      jump\t// out\n        /* \"#utility.yul\":7472:7801   */\n    tag_19:\n        /* \"#utility.yul\":7531:7537   */\n      0x00\n        /* \"#utility.yul\":7580:7582   */\n      0x20\n        /* \"#utility.yul\":7568:7577   */\n      dup3\n        /* \"#utility.yul\":7559:7566   */\n      dup5\n        /* \"#utility.yul\":7555:7578   */\n      sub\n        /* \"#utility.yul\":7551:7583   */\n      slt\n        /* \"#utility.yul\":7548:7667   */\n      iszero\n      tag_352\n      jumpi\n        /* \"#utility.yul\":7586:7665   */\n      tag_353\n      tag_208\n      jump\t// in\n    tag_353:\n        /* \"#utility.yul\":7548:7667   */\n    tag_352:\n        /* \"#utility.yul\":7706:7707   */\n      0x00\n        /* \"#utility.yul\":7731:7784   */\n      tag_354\n        /* \"#utility.yul\":7776:7783   */\n      dup5\n        /* \"#utility.yul\":7767:7773   */\n      dup3\n        /* \"#utility.yul\":7756:7765   */\n      dup6\n        /* \"#utility.yul\":7752:7774   */\n      add\n        /* \"#utility.yul\":7731:7784   */\n      tag_229\n      jump\t// in\n    tag_354:\n        /* \"#utility.yul\":7721:7784   */\n      swap2\n      pop\n        /* \"#utility.yul\":7677:7794   */\n      pop\n        /* \"#utility.yul\":7472:7801   */\n      swap3\n      swap2\n      pop\n      pop\n      jump\t// out\n        /* \"#utility.yul\":7807:7905   */\n    tag_230:\n        /* \"#utility.yul\":7858:7864   */\n      0x00\n        /* \"#utility.yul\":7892:7897   */\n      dup2\n        /* \"#utility.yul\":7886:7898   */\n      mload\n        /* \"#utility.yul\":7876:7898   */\n      swap1\n      pop\n        /* \"#utility.yul\":7807:7905   */\n      swap2\n      swap1\n      pop\n      jump\t// out\n        /* \"#utility.yul\":7911:8079   */\n    tag_231:\n        /* \"#utility.yul\":7994:8005   */\n      0x00\n        /* \"#utility.yul\":8028:8034   */\n      dup3\n        /* \"#utility.yul\":8023:8026   */\n      dup3\n        /* \"#utility.yul\":8016:8035   */\n      mstore\n        /* \"#utility.yul\":8068:8072   */\n      0x20\n        /* \"#utility.yul\":8063:8066   */\n      dup3\n        /* \"#utility.yul\":8059:8073   */\n      add\n        /* \"#utility.yul\":8044:8073   */\n      swap1\n      pop\n        /* \"#utility.yul\":7911:8079   */\n      swap3\n      swap2\n      pop\n      pop\n      jump\t// out\n        /* \"#utility.yul\":8085:8458   */\n    tag_232:\n        /* \"#utility.yul\":8171:8174   */\n      0x00\n        /* \"#utility.yul\":8199:8237   */\n      tag_358\n        /* \"#utility.yul\":8231:8236   */\n      dup3\n        /* \"#utility.yul\":8199:8237   */\n      tag_230\n      jump\t// in\n    tag_358:\n        /* \"#utility.yul\":8253:8323   */\n      tag_359\n        /* \"#utility.yul\":8316:8322   */\n      dup2\n        /* \"#utility.yul\":8311:8314   */\n      dup6\n        /* \"#utility.yul\":8253:8323   */\n      tag_231\n      jump\t// in\n    tag_359:\n        /* \"#utility.yul\":8246:8323   */\n      swap4\n      pop\n        /* \"#utility.yul\":8332:8397   */\n      tag_360\n        /* \"#utility.yul\":8390:8396   */\n      dup2\n        /* \"#utility.yul\":8385:8388   */\n      dup6\n        /* \"#utility.yul\":8378:8382   */\n      0x20\n        /* \"#utility.yul\":8371:8376   */\n      dup7\n        /* \"#utility.yul\":8367:8383   */\n      add\n        /* \"#utility.yul\":8332:8397   */\n      tag_225\n      jump\t// in\n    tag_360:\n        /* \"#utility.yul\":8422:8451   */\n      tag_361\n        /* \"#utility.yul\":8444:8450   */\n      dup2\n        /* \"#utility.yul\":8422:8451   */\n      tag_216\n      jump\t// in\n    tag_361:\n        /* \"#utility.yul\":8417:8420   */\n      dup5\n        /* \"#utility.yul\":8413:8452   */\n      add\n        /* \"#utility.yul\":8406:8452   */\n      swap2\n      pop\n        /* \"#utility.yul\":8175:8458   */\n      pop\n        /* \"#utility.yul\":8085:8458   */\n      swap3\n      swap2\n      pop\n      pop\n      jump\t// out\n        /* \"#utility.yul\":8464:8582   */\n    tag_233:\n        /* \"#utility.yul\":8551:8575   */\n      tag_363\n        /* \"#utility.yul\":8569:8574   */\n      dup2\n        /* \"#utility.yul\":8551:8575   */\n      tag_227\n      jump\t// in\n    tag_363:\n        /* \"#utility.yul\":8546:8549   */\n      dup3\n        /* \"#utility.yul\":8539:8576   */\n      mstore\n        /* \"#utility.yul\":8464:8582   */\n      pop\n      pop\n      jump\t// out\n        /* \"#utility.yul\":8588:9925   */\n    tag_22:\n        /* \"#utility.yul\":8947:8951   */\n      0x00\n        /* \"#utility.yul\":8985:8988   */\n      0xe0\n        /* \"#utility.yul\":8974:8983   */\n      dup3\n        /* \"#utility.yul\":8970:8989   */\n      add\n        /* \"#utility.yul\":8962:8989   */\n      swap1\n      pop\n        /* \"#utility.yul\":9035:9044   */\n      dup2\n        /* \"#utility.yul\":9029:9033   */\n      dup2\n        /* \"#utility.yul\":9025:9045   */\n      sub\n        /* \"#utility.yul\":9021:9022   */\n      0x00\n        /* \"#utility.yul\":9010:9019   */\n      dup4\n        /* \"#utility.yul\":9006:9023   */\n      add\n        /* \"#utility.yul\":8999:9046   */\n      mstore\n        /* \"#utility.yul\":9063:9141   */\n      tag_365\n        /* \"#utility.yul\":9136:9140   */\n      dup2\n        /* \"#utility.yul\":9127:9133   */\n      dup11\n        /* \"#utility.yul\":9063:9141   */\n      tag_226\n      jump\t// in\n    tag_365:\n        /* \"#utility.yul\":9055:9141   */\n      swap1\n      pop\n        /* \"#utility.yul\":9188:9197   */\n      dup2\n        /* \"#utility.yul\":9182:9186   */\n      dup2\n        /* \"#utility.yul\":9178:9198   */\n      sub\n        /* \"#utility.yul\":9173:9175   */\n      0x20\n        /* \"#utility.yul\":9162:9171   */\n      dup4\n        /* \"#utility.yul\":9158:9176   */\n      add\n        /* \"#utility.yul\":9151:9199   */\n      mstore\n        /* \"#utility.yul\":9216:9294   */\n      tag_366\n        /* \"#utility.yul\":9289:9293   */\n      dup2\n        /* \"#utility.yul\":9280:9286   */\n      dup10\n        /* \"#utility.yul\":9216:9294   */\n      tag_226\n      jump\t// in\n    tag_366:\n        /* \"#utility.yul\":9208:9294   */\n      swap1\n      pop\n        /* \"#utility.yul\":9341:9350   */\n      dup2\n        /* \"#utility.yul\":9335:9339   */\n      dup2\n        /* \"#utility.yul\":9331:9351   */\n      sub\n        /* \"#utility.yul\":9326:9328   */\n      0x40\n        /* \"#utility.yul\":9315:9324   */\n      dup4\n        /* \"#utility.yul\":9311:9329   */\n      add\n        /* \"#utility.yul\":9304:9352   */\n      mstore\n        /* \"#utility.yul\":9369:9447   */\n      tag_367\n        /* \"#utility.yul\":9442:9446   */\n      dup2\n        /* \"#utility.yul\":9433:9439   */\n      dup9\n        /* \"#utility.yul\":9369:9447   */\n      tag_226\n      jump\t// in\n    tag_367:\n        /* \"#utility.yul\":9361:9447   */\n      swap1\n      pop\n        /* \"#utility.yul\":9494:9503   */\n      dup2\n        /* \"#utility.yul\":9488:9492   */\n      dup2\n        /* \"#utility.yul\":9484:9504   */\n      sub\n        /* \"#utility.yul\":9479:9481   */\n      0x60\n        /* \"#utility.yul\":9468:9477   */\n      dup4\n        /* \"#utility.yul\":9464:9482   */\n      add\n        /* \"#utility.yul\":9457:9505   */\n      mstore\n        /* \"#utility.yul\":9522:9598   */\n      tag_368\n        /* \"#utility.yul\":9593:9597   */\n      dup2\n        /* \"#utility.yul\":9584:9590   */\n      dup8\n        /* \"#utility.yul\":9522:9598   */\n      tag_232\n      jump\t// in\n    tag_368:\n        /* \"#utility.yul\":9514:9598   */\n      swap1\n      pop\n        /* \"#utility.yul\":9646:9655   */\n      dup2\n        /* \"#utility.yul\":9640:9644   */\n      dup2\n        /* \"#utility.yul\":9636:9656   */\n      sub\n        /* \"#utility.yul\":9630:9633   */\n      0x80\n        /* \"#utility.yul\":9619:9628   */\n      dup4\n        /* \"#utility.yul\":9615:9634   */\n      add\n        /* \"#utility.yul\":9608:9657   */\n      mstore\n        /* \"#utility.yul\":9674:9752   */\n      tag_369\n        /* \"#utility.yul\":9747:9751   */\n      dup2\n        /* \"#utility.yul\":9738:9744   */\n      dup7\n        /* \"#utility.yul\":9674:9752   */\n      tag_226\n      jump\t// in\n    tag_369:\n        /* \"#utility.yul\":9666:9752   */\n      swap1\n      pop\n        /* \"#utility.yul\":9762:9835   */\n      tag_370\n        /* \"#utility.yul\":9830:9833   */\n      0xa0\n        /* \"#utility.yul\":9819:9828   */\n      dup4\n        /* \"#utility.yul\":9815:9834   */\n      add\n        /* \"#utility.yul\":9806:9812   */\n      dup6\n        /* \"#utility.yul\":9762:9835   */\n      tag_233\n      jump\t// in\n    tag_370:\n        /* \"#utility.yul\":9845:9918   */\n      tag_371\n        /* \"#utility.yul\":9913:9916   */\n      0xc0\n        /* \"#utility.yul\":9902:9911   */\n      dup4\n        /* \"#utility.yul\":9898:9917   */\n      add\n        /* \"#utility.yul\":9889:9895   */\n      dup5\n        /* \"#utility.yul\":9845:9918   */\n      tag_233\n      jump\t// in\n    tag_371:\n        /* \"#utility.yul\":8588:9925   */\n      swap9\n      swap8\n      pop\n      pop\n      pop\n      pop\n      pop\n      pop\n      pop\n      pop\n      jump\t// out\n        /* \"#utility.yul\":9931:10055   */\n    tag_234:\n        /* \"#utility.yul\":10008:10014   */\n      0x00\n        /* \"#utility.yul\":10042:10047   */\n      dup2\n        /* \"#utility.yul\":10036:10048   */\n      mload\n        /* \"#utility.yul\":10026:10048   */\n      swap1\n      pop\n        /* \"#utility.yul\":9931:10055   */\n      swap2\n      swap1\n      pop\n      jump\t// out\n        /* \"#utility.yul\":10061:10255   */\n    tag_235:\n        /* \"#utility.yul\":10170:10181   */\n      0x00\n        /* \"#utility.yul\":10204:10210   */\n      dup3\n        /* \"#utility.yul\":10199:10202   */\n      dup3\n        /* \"#utility.yul\":10192:10211   */\n      mstore\n        /* \"#utility.yul\":10244:10248   */\n      0x20\n        /* \"#utility.yul\":10239:10242   */\n      dup3\n        /* \"#utility.yul\":10235:10249   */\n      add\n        /* \"#utility.yul\":10220:10249   */\n      swap1\n      pop\n        /* \"#utility.yul\":10061:10255   */\n      swap3\n      swap2\n      pop\n      pop\n      jump\t// out\n        /* \"#utility.yul\":10261:10403   */\n    tag_236:\n        /* \"#utility.yul\":10338:10342   */\n      0x00\n        /* \"#utility.yul\":10361:10364   */\n      dup2\n        /* \"#utility.yul\":10353:10364   */\n      swap1\n      pop\n        /* \"#utility.yul\":10391:10395   */\n      0x20\n        /* \"#utility.yul\":10386:10389   */\n      dup3\n        /* \"#utility.yul\":10382:10396   */\n      add\n        /* \"#utility.yul\":10374:10396   */\n      swap1\n      pop\n        /* \"#utility.yul\":10261:10403   */\n      swap2\n      swap1\n      pop\n      jump\t// out\n        /* \"#utility.yul\":10409:10568   */\n    tag_237:\n        /* \"#utility.yul\":10483:10494   */\n      0x00\n        /* \"#utility.yul\":10517:10523   */\n      dup3\n        /* \"#utility.yul\":10512:10515   */\n      dup3\n        /* \"#utility.yul\":10505:10524   */\n      mstore\n        /* \"#utility.yul\":10557:10561   */\n      0x20\n        /* \"#utility.yul\":10552:10555   */\n      dup3\n        /* \"#utility.yul\":10548:10562   */\n      add\n        /* \"#utility.yul\":10533:10562   */\n      swap1\n      pop\n        /* \"#utility.yul\":10409:10568   */\n      swap3\n      swap2\n      pop\n      pop\n      jump\t// out\n        /* \"#utility.yul\":10574:10931   */\n    tag_238:\n        /* \"#utility.yul\":10652:10655   */\n      0x00\n        /* \"#utility.yul\":10680:10719   */\n      tag_377\n        /* \"#utility.yul\":10713:10718   */\n      dup3\n        /* \"#utility.yul\":10680:10719   */\n      tag_223\n      jump\t// in\n    tag_377:\n        /* \"#utility.yul\":10735:10796   */\n      tag_378\n        /* \"#utility.yul\":10789:10795   */\n      dup2\n        /* \"#utility.yul\":10784:10787   */\n      dup6\n        /* \"#utility.yul\":10735:10796   */\n      tag_237\n      jump\t// in\n    tag_378:\n        /* \"#utility.yul\":10728:10796   */\n      swap4\n      pop\n        /* \"#utility.yul\":10805:10870   */\n      tag_379\n        /* \"#utility.yul\":10863:10869   */\n      dup2\n        /* \"#utility.yul\":10858:10861   */\n      dup6\n        /* \"#utility.yul\":10851:10855   */\n      0x20\n        /* \"#utility.yul\":10844:10849   */\n      dup7\n        /* \"#utility.yul\":10840:10856   */\n      add\n        /* \"#utility.yul\":10805:10870   */\n      tag_225\n      jump\t// in\n    tag_379:\n        /* \"#utility.yul\":10895:10924   */\n      tag_380\n        /* \"#utility.yul\":10917:10923   */\n      dup2\n        /* \"#utility.yul\":10895:10924   */\n      tag_216\n      jump\t// in\n    tag_380:\n        /* \"#utility.yul\":10890:10893   */\n      dup5\n        /* \"#utility.yul\":10886:10925   */\n      add\n        /* \"#utility.yul\":10879:10925   */\n      swap2\n      pop\n        /* \"#utility.yul\":10656:10931   */\n      pop\n        /* \"#utility.yul\":10574:10931   */\n      swap3\n      swap2\n      pop\n      pop\n      jump\t// out\n        /* \"#utility.yul\":10937:11133   */\n    tag_239:\n        /* \"#utility.yul\":11026:11036   */\n      0x00\n        /* \"#utility.yul\":11061:11127   */\n      tag_382\n        /* \"#utility.yul\":11123:11126   */\n      dup4\n        /* \"#utility.yul\":11115:11121   */\n      dup4\n        /* \"#utility.yul\":11061:11127   */\n      tag_238\n      jump\t// in\n    tag_382:\n        /* \"#utility.yul\":11047:11127   */\n      swap1\n      pop\n        /* \"#utility.yul\":10937:11133   */\n      swap3\n      swap2\n      pop\n      pop\n      jump\t// out\n        /* \"#utility.yul\":11139:11262   */\n    tag_240:\n        /* \"#utility.yul\":11219:11223   */\n      0x00\n        /* \"#utility.yul\":11251:11255   */\n      0x20\n        /* \"#utility.yul\":11246:11249   */\n      dup3\n        /* \"#utility.yul\":11242:11256   */\n      add\n        /* \"#utility.yul\":11234:11256   */\n      swap1\n      pop\n        /* \"#utility.yul\":11139:11262   */\n      swap2\n      swap1\n      pop\n      jump\t// out\n        /* \"#utility.yul\":11296:12287   */\n    tag_241:\n        /* \"#utility.yul\":11435:11438   */\n      0x00\n        /* \"#utility.yul\":11464:11528   */\n      tag_385\n        /* \"#utility.yul\":11522:11527   */\n      dup3\n        /* \"#utility.yul\":11464:11528   */\n      tag_234\n      jump\t// in\n    tag_385:\n        /* \"#utility.yul\":11544:11640   */\n      tag_386\n        /* \"#utility.yul\":11633:11639   */\n      dup2\n        /* \"#utility.yul\":11628:11631   */\n      dup6\n        /* \"#utility.yul\":11544:11640   */\n      tag_235\n      jump\t// in\n    tag_386:\n        /* \"#utility.yul\":11537:11640   */\n      swap4\n      pop\n        /* \"#utility.yul\":11666:11669   */\n      dup4\n        /* \"#utility.yul\":11711:11715   */\n      0x20\n        /* \"#utility.yul\":11703:11709   */\n      dup3\n        /* \"#utility.yul\":11699:11716   */\n      mul\n        /* \"#utility.yul\":11694:11697   */\n      dup6\n        /* \"#utility.yul\":11690:11717   */\n      add\n        /* \"#utility.yul\":11741:11807   */\n      tag_387\n        /* \"#utility.yul\":11801:11806   */\n      dup6\n        /* \"#utility.yul\":11741:11807   */\n      tag_236\n      jump\t// in\n    tag_387:\n        /* \"#utility.yul\":11830:11837   */\n      dup1\n        /* \"#utility.yul\":11861:11862   */\n      0x00\n        /* \"#utility.yul\":11846:12242   */\n    tag_388:\n        /* \"#utility.yul\":11871:11877   */\n      dup6\n        /* \"#utility.yul\":11868:11869   */\n      dup2\n        /* \"#utility.yul\":11865:11878   */\n      lt\n        /* \"#utility.yul\":11846:12242   */\n      iszero\n      tag_390\n      jumpi\n        /* \"#utility.yul\":11942:11951   */\n      dup5\n        /* \"#utility.yul\":11936:11940   */\n      dup5\n        /* \"#utility.yul\":11932:11952   */\n      sub\n        /* \"#utility.yul\":11927:11930   */\n      dup10\n        /* \"#utility.yul\":11920:11953   */\n      mstore\n        /* \"#utility.yul\":11993:11999   */\n      dup2\n        /* \"#utility.yul\":11987:12000   */\n      mload\n        /* \"#utility.yul\":12021:12105   */\n      tag_391\n        /* \"#utility.yul\":12100:12104   */\n      dup6\n        /* \"#utility.yul\":12085:12098   */\n      dup3\n        /* \"#utility.yul\":12021:12105   */\n      tag_239\n      jump\t// in\n    tag_391:\n        /* \"#utility.yul\":12013:12105   */\n      swap5\n      pop\n        /* \"#utility.yul\":12128:12198   */\n      tag_392\n        /* \"#utility.yul\":12191:12197   */\n      dup4\n        /* \"#utility.yul\":12128:12198   */\n      tag_240\n      jump\t// in\n    tag_392:\n        /* \"#utility.yul\":12118:12198   */\n      swap3\n      pop\n        /* \"#utility.yul\":12227:12231   */\n      0x20\n        /* \"#utility.yul\":12222:12225   */\n      dup11\n        /* \"#utility.yul\":12218:12232   */\n      add\n        /* \"#utility.yul\":12211:12232   */\n      swap10\n      pop\n        /* \"#utility.yul\":11906:12242   */\n      pop\n        /* \"#utility.yul\":11893:11894   */\n      0x01\n        /* \"#utility.yul\":11890:11891   */\n      dup2\n        /* \"#utility.yul\":11886:11895   */\n      add\n        /* \"#utility.yul\":11881:11895   */\n      swap1\n      pop\n        /* \"#utility.yul\":11846:12242   */\n      jump(tag_388)\n    tag_390:\n        /* \"#utility.yul\":11850:11864   */\n      pop\n        /* \"#utility.yul\":12258:12262   */\n      dup3\n        /* \"#utility.yul\":12251:12262   */\n      swap8\n      pop\n        /* \"#utility.yul\":12278:12281   */\n      dup8\n        /* \"#utility.yul\":12271:12281   */\n      swap6\n      pop\n        /* \"#utility.yul\":11440:12287   */\n      pop\n      pop\n      pop\n      pop\n      pop\n        /* \"#utility.yul\":11296:12287   */\n      swap3\n      swap2\n      pop\n      pop\n      jump\t// out\n        /* \"#utility.yul\":12293:13128   */\n    tag_27:\n        /* \"#utility.yul\":12560:12564   */\n      0x00\n        /* \"#utility.yul\":12598:12601   */\n      0x80\n        /* \"#utility.yul\":12587:12596   */\n      dup3\n        /* \"#utility.yul\":12583:12602   */\n      add\n        /* \"#utility.yul\":12575:12602   */\n      swap1\n      pop\n        /* \"#utility.yul\":12648:12657   */\n      dup2\n        /* \"#utility.yul\":12642:12646   */\n      dup2\n        /* \"#utility.yul\":12638:12658   */\n      sub\n        /* \"#utility.yul\":12634:12635   */\n      0x00\n        /* \"#utility.yul\":12623:12632   */\n      dup4\n        /* \"#utility.yul\":12619:12636   */\n      add\n        /* \"#utility.yul\":12612:12659   */\n      mstore\n        /* \"#utility.yul\":12676:12804   */\n      tag_394\n        /* \"#utility.yul\":12799:12803   */\n      dup2\n        /* \"#utility.yul\":12790:12796   */\n      dup8\n        /* \"#utility.yul\":12676:12804   */\n      tag_241\n      jump\t// in\n    tag_394:\n        /* \"#utility.yul\":12668:12804   */\n      swap1\n      pop\n        /* \"#utility.yul\":12851:12860   */\n      dup2\n        /* \"#utility.yul\":12845:12849   */\n      dup2\n        /* \"#utility.yul\":12841:12861   */\n      sub\n        /* \"#utility.yul\":12836:12838   */\n      0x20\n        /* \"#utility.yul\":12825:12834   */\n      dup4\n        /* \"#utility.yul\":12821:12839   */\n      add\n        /* \"#utility.yul\":12814:12862   */\n      mstore\n        /* \"#utility.yul\":12879:12957   */\n      tag_395\n        /* \"#utility.yul\":12952:12956   */\n      dup2\n        /* \"#utility.yul\":12943:12949   */\n      dup7\n        /* \"#utility.yul\":12879:12957   */\n      tag_226\n      jump\t// in\n    tag_395:\n        /* \"#utility.yul\":12871:12957   */\n      swap1\n      pop\n        /* \"#utility.yul\":12967:13039   */\n      tag_396\n        /* \"#utility.yul\":13035:13037   */\n      0x40\n        /* \"#utility.yul\":13024:13033   */\n      dup4\n        /* \"#utility.yul\":13020:13038   */\n      add\n        /* \"#utility.yul\":13011:13017   */\n      dup6\n        /* \"#utility.yul\":12967:13039   */\n      tag_233\n      jump\t// in\n    tag_396:\n        /* \"#utility.yul\":13049:13121   */\n      tag_397\n        /* \"#utility.yul\":13117:13119   */\n      0x60\n        /* \"#utility.yul\":13106:13115   */\n      dup4\n        /* \"#utility.yul\":13102:13120   */\n      add\n        /* \"#utility.yul\":13093:13099   */\n      dup5\n        /* \"#utility.yul\":13049:13121   */\n      tag_233\n      jump\t// in\n    tag_397:\n        /* \"#utility.yul\":12293:13128   */\n      swap6\n      swap5\n      pop\n      pop\n      pop\n      pop\n      pop\n      jump\t// out\n        /* \"#utility.yul\":13134:13314   */\n    tag_242:\n        /* \"#utility.yul\":13182:13259   */\n      0x4e487b7100000000000000000000000000000000000000000000000000000000\n        /* \"#utility.yul\":13179:13180   */\n      0x00\n        /* \"#utility.yul\":13172:13260   */\n      mstore\n        /* \"#utility.yul\":13279:13283   */\n      0x22\n        /* \"#utility.yul\":13276:13277   */\n      0x04\n        /* \"#utility.yul\":13269:13284   */\n      mstore\n        /* \"#utility.yul\":13303:13307   */\n      0x24\n        /* \"#utility.yul\":13300:13301   */\n      0x00\n        /* \"#utility.yul\":13293:13308   */\n      revert\n        /* \"#utility.yul\":13320:13640   */\n    tag_87:\n        /* \"#utility.yul\":13364:13370   */\n      0x00\n        /* \"#utility.yul\":13401:13402   */\n      0x02\n        /* \"#utility.yul\":13395:13399   */\n      dup3\n        /* \"#utility.yul\":13391:13403   */\n      div\n        /* \"#utility.yul\":13381:13403   */\n      swap1\n      pop\n        /* \"#utility.yul\":13448:13449   */\n      0x01\n        /* \"#utility.yul\":13442:13446   */\n      dup3\n        /* \"#utility.yul\":13438:13450   */\n      and\n        /* \"#utility.yul\":13469:13487   */\n      dup1\n        /* \"#utility.yul\":13459:13540   */\n      tag_400\n      jumpi\n        /* \"#utility.yul\":13525:13529   */\n      0x7f\n        /* \"#utility.yul\":13517:13523   */\n      dup3\n        /* \"#utility.yul\":13513:13530   */\n      and\n        /* \"#utility.yul\":13503:13530   */\n      swap2\n      pop\n        /* \"#utility.yul\":13459:13540   */\n    tag_400:\n        /* \"#utility.yul\":13587:13589   */\n      0x20\n        /* \"#utility.yul\":13579:13585   */\n      dup3\n        /* \"#utility.yul\":13576:13590   */\n      lt\n        /* \"#utility.yul\":13556:13574   */\n      dup2\n        /* \"#utility.yul\":13553:13591   */\n      sub\n        /* \"#utility.yul\":13550:13634   */\n      tag_401\n      jumpi\n        /* \"#utility.yul\":13606:13624   */\n      tag_402\n      tag_242\n      jump\t// in\n    tag_402:\n        /* \"#utility.yul\":13550:13634   */\n    tag_401:\n        /* \"#utility.yul\":13371:13640   */\n      pop\n        /* \"#utility.yul\":13320:13640   */\n      swap2\n      swap1\n      pop\n      jump\t// out\n        /* \"#utility.yul\":13646:13787   */\n    tag_243:\n        /* \"#utility.yul\":13695:13699   */\n      0x00\n        /* \"#utility.yul\":13718:13721   */\n      dup2\n        /* \"#utility.yul\":13710:13721   */\n      swap1\n      pop\n        /* \"#utility.yul\":13741:13744   */\n      dup2\n        /* \"#utility.yul\":13738:13739   */\n      0x00\n        /* \"#utility.yul\":13731:13745   */\n      mstore\n        /* \"#utility.yul\":13775:13779   */\n      0x20\n        /* \"#utility.yul\":13772:13773   */\n      0x00\n        /* \"#utility.yul\":13762:13780   */\n      keccak256\n        /* \"#utility.yul\":13754:13780   */\n      swap1\n      pop\n        /* \"#utility.yul\":13646:13787   */\n      swap2\n      swap1\n      pop\n      jump\t// out\n        /* \"#utility.yul\":13793:13886   */\n    tag_244:\n        /* \"#utility.yul\":13830:13836   */\n      0x00\n        /* \"#utility.yul\":13877:13879   */\n      0x20\n        /* \"#utility.yul\":13872:13874   */\n      0x1f\n        /* \"#utility.yul\":13865:13870   */\n      dup4\n        /* \"#utility.yul\":13861:13875   */\n      add\n        /* \"#utility.yul\":13857:13880   */\n      div\n        /* \"#utility.yul\":13847:13880   */\n      swap1\n      pop\n        /* \"#utility.yul\":13793:13886   */\n      swap2\n      swap1\n      pop\n      jump\t// out\n        /* \"#utility.yul\":13892:13999   */\n    tag_245:\n        /* \"#utility.yul\":13936:13944   */\n      0x00\n        /* \"#utility.yul\":13986:13991   */\n      dup3\n        /* \"#utility.yul\":13980:13984   */\n      dup3\n        /* \"#utility.yul\":13976:13992   */\n      shl\n        /* \"#utility.yul\":13955:13992   */\n      swap1\n      pop\n        /* \"#utility.yul\":13892:13999   */\n      swap3\n      swap2\n      pop\n      pop\n      jump\t// out\n        /* \"#utility.yul\":14005:14398   */\n    tag_246:\n        /* \"#utility.yul\":14074:14080   */\n      0x00\n        /* \"#utility.yul\":14124:14125   */\n      0x08\n        /* \"#utility.yul\":14112:14122   */\n      dup4\n        /* \"#utility.yul\":14108:14126   */\n      mul\n        /* \"#utility.yul\":14147:14244   */\n      tag_407\n        /* \"#utility.yul\":14177:14243   */\n      0xffffffffffffffffffffffffffffffffffffffffffffffffffffffffffffffff\n        /* \"#utility.yul\":14166:14175   */\n      dup3\n        /* \"#utility.yul\":14147:14244   */\n      tag_245\n      jump\t// in\n    tag_407:\n        /* \"#utility.yul\":14265:14304   */\n      tag_408\n        /* \"#utility.yul\":14295:14303   */\n      dup7\n        /* \"#utility.yul\":14284:14293   */\n      dup4\n        /* \"#utility.yul\":14265:14304   */\n      tag_245\n      jump\t// in\n    tag_408:\n        /* \"#utility.yul\":14253:14304   */\n      swap6\n      pop\n        /* \"#utility.yul\":14337:14341   */\n      dup1\n        /* \"#utility.yul\":14333:14342   */\n      not\n        /* \"#utility.yul\":14326:14331   */\n      dup5\n        /* \"#utility.yul\":14322:14343   */\n      and\n        /* \"#utility.yul\":14313:14343   */\n      swap4\n      pop\n        /* \"#utility.yul\":14386:14390   */\n      dup1\n        /* \"#utility.yul\":14376:14384   */\n      dup7\n        /* \"#utility.yul\":14372:14391   */\n      and\n        /* \"#utility.yul\":14365:14370   */\n      dup5\n        /* \"#utility.yul\":14362:14392   */\n      or\n        /* \"#utility.yul\":14352:14392   */\n      swap3\n      pop\n        /* \"#utility.yul\":14081:14398   */\n      pop\n      pop\n        /* \"#utility.yul\":14005:14398   */\n      swap4\n      swap3\n      pop\n      pop\n      pop\n      jump\t// out\n        /* \"#utility.yul\":14404:14464   */\n    tag_247:\n        /* \"#utility.yul\":14432:14435   */\n      0x00\n        /* \"#utility.yul\":14453:14458   */\n      dup2\n        /* \"#utility.yul\":14446:14458   */\n      swap1\n      pop\n        /* \"#utility.yul\":14404:14464   */\n      swap2\n      swap1\n      pop\n      jump\t// out\n        /* \"#utility.yul\":14470:14612   */\n    tag_248:\n        /* \"#utility.yul\":14520:14529   */\n      0x00\n        /* \"#utility.yul\":14553:14606   */\n      tag_411\n        /* \"#utility.yul\":14571:14605   */\n      tag_412\n        /* \"#utility.yul\":14580:14604   */\n      tag_413\n        /* \"#utility.yul\":14598:14603   */\n      dup5\n        /* \"#utility.yul\":14580:14604   */\n      tag_227\n      jump\t// in\n    tag_413:\n        /* \"#utility.yul\":14571:14605   */\n      tag_247\n      jump\t// in\n    tag_412:\n        /* \"#utility.yul\":14553:14606   */\n      tag_227\n      jump\t// in\n    tag_411:\n        /* \"#utility.yul\":14540:14606   */\n      swap1\n      pop\n        /* \"#utility.yul\":14470:14612   */\n      swap2\n      swap1\n      pop\n      jump\t// out\n        /* \"#utility.yul\":14618:14693   */\n    tag_249:\n        /* \"#utility.yul\":14661:14664   */\n      0x00\n        /* \"#utility.yul\":14682:14687   */\n      dup2\n        /* \"#utility.yul\":14675:14687   */\n      swap1\n      pop\n        /* \"#utility.yul\":14618:14693   */\n      swap2\n      swap1\n      pop\n      jump\t// out\n        /* \"#utility.yul\":14699:14968   */\n    tag_250:\n        /* \"#utility.yul\":14809:14848   */\n      tag_416\n        /* \"#utility.yul\":14840:14847   */\n      dup4\n        /* \"#utility.yul\":14809:14848   */\n      tag_248\n      jump\t// in\n    tag_416:\n        /* \"#utility.yul\":14870:14961   */\n      tag_417\n        /* \"#utility.yul\":14919:14960   */\n      tag_418\n        /* \"#utility.yul\":14943:14959   */\n      dup3\n        /* \"#utility.yul\":14919:14960   */\n      tag_249\n      jump\t// in\n    tag_418:\n        /* \"#utility.yul\":14911:14917   */\n      dup5\n        /* \"#utility.yul\":14904:14908   */\n      dup5\n        /* \"#utility.yul\":14898:14909   */\n      sload\n        /* \"#utility.yul\":14870:14961   */\n      tag_246\n      jump\t// in\n    tag_417:\n        /* \"#utility.yul\":14864:14868   */\n      dup3\n        /* \"#utility.yul\":14857:14962   */\n      sstore\n        /* \"#utility.yul\":14775:14968   */\n      pop\n        /* \"#utility.yul\":14699:14968   */\n      pop\n      pop\n      pop\n      jump\t// out\n        /* \"#utility.yul\":14974:15047   */\n    tag_251:\n        /* \"#utility.yul\":15019:15022   */\n      0x00\n        /* \"#utility.yul\":14974:15047   */\n      swap1\n      jump\t// out\n        /* \"#utility.yul\":15053:15242   */\n    tag_252:\n        /* \"#utility.yul\":15130:15162   */\n      tag_421\n      tag_251\n      jump\t// in\n    tag_421:\n        /* \"#utility.yul\":15171:15236   */\n      tag_422\n        /* \"#utility.yul\":15229:15235   */\n      dup2\n        /* \"#utility.yul\":15221:15227   */\n      dup5\n        /* \"#utility.yul\":15215:15219   */\n      dup5\n        /* \"#utility.yul\":15171:15236   */\n      tag_250\n      jump\t// in\n    tag_422:\n        /* \"#utility.yul\":15106:15242   */\n      pop\n        /* \"#utility.yul\":15053:15242   */\n      pop\n      pop\n      jump\t// out\n        /* \"#utility.yul\":15248:15434   */\n    tag_253:\n        /* \"#utility.yul\":15308:15428   */\n    tag_424:\n        /* \"#utility.yul\":15325:15328   */\n      dup2\n        /* \"#utility.yul\":15318:15323   */\n      dup2\n        /* \"#utility.yul\":15315:15329   */\n      lt\n        /* \"#utility.yul\":15308:15428   */\n      iszero\n      tag_426\n      jumpi\n        /* \"#utility.yul\":15379:15418   */\n      tag_427\n        /* \"#utility.yul\":15416:15417   */\n      0x00\n        /* \"#utility.yul\":15409:15414   */\n      dup3\n        /* \"#utility.yul\":15379:15418   */\n      tag_252\n      jump\t// in\n    tag_427:\n        /* \"#utility.yul\":15352:15353   */\n      0x01\n        /* \"#utility.yul\":15345:15350   */\n      dup2\n        /* \"#utility.yul\":15341:15354   */\n      add\n        /* \"#utility.yul\":15332:15354   */\n      swap1\n      pop\n        /* \"#utility.yul\":15308:15428   */\n      jump(tag_424)\n    tag_426:\n        /* \"#utility.yul\":15248:15434   */\n      pop\n      pop\n      jump\t// out\n        /* \"#utility.yul\":15440:15983   */\n    tag_254:\n        /* \"#utility.yul\":15541:15543   */\n      0x1f\n        /* \"#utility.yul\":15536:15539   */\n      dup3\n        /* \"#utility.yul\":15533:15544   */\n      gt\n        /* \"#utility.yul\":15530:15976   */\n      iszero\n      tag_429\n      jumpi\n        /* \"#utility.yul\":15575:15613   */\n      tag_430\n        /* \"#utility.yul\":15607:15612   */\n      dup2\n        /* \"#utility.yul\":15575:15613   */\n      tag_243\n      jump\t// in\n    tag_430:\n        /* \"#utility.yul\":15659:15688   */\n      tag_431\n        /* \"#utility.yul\":15677:15687   */\n      dup5\n        /* \"#utility.yul\":15659:15688   */\n      tag_244\n      jump\t// in\n    tag_431:\n        /* \"#utility.yul\":15649:15657   */\n      dup2\n        /* \"#utility.yul\":15645:15689   */\n      add\n        /* \"#utility.yul\":15842:15844   */\n      0x20\n        /* \"#utility.yul\":15830:15840   */\n      dup6\n        /* \"#utility.yul\":15827:15845   */\n      lt\n        /* \"#utility.yul\":15824:15873   */\n      iszero\n      tag_432\n      jumpi\n        /* \"#utility.yul\":15863:15871   */\n      dup2\n        /* \"#utility.yul\":15848:15871   */\n      swap1\n      pop\n        /* \"#utility.yul\":15824:15873   */\n    tag_432:\n        /* \"#utility.yul\":15886:15966   */\n      tag_433\n        /* \"#utility.yul\":15942:15964   */\n      tag_434\n        /* \"#utility.yul\":15960:15963   */\n      dup6\n        /* \"#utility.yul\":15942:15964   */\n      tag_244\n      jump\t// in\n    tag_434:\n        /* \"#utility.yul\":15932:15940   */\n      dup4\n        /* \"#utility.yul\":15928:15965   */\n      add\n        /* \"#utility.yul\":15915:15926   */\n      dup3\n        /* \"#utility.yul\":15886:15966   */\n      tag_253\n      jump\t// in\n    tag_433:\n        /* \"#utility.yul\":15545:15976   */\n      pop\n      pop\n        /* \"#utility.yul\":15530:15976   */\n    tag_429:\n        /* \"#utility.yul\":15440:15983   */\n      pop\n      pop\n      pop\n      jump\t// out\n        /* \"#utility.yul\":15989:16106   */\n    tag_255:\n        /* \"#utility.yul\":16043:16051   */\n      0x00\n        /* \"#utility.yul\":16093:16098   */\n      dup3\n        /* \"#utility.yul\":16087:16091   */\n      dup3\n        /* \"#utility.yul\":16083:16099   */\n      shr\n        /* \"#utility.yul\":16062:16099   */\n      swap1\n      pop\n        /* \"#utility.yul\":15989:16106   */\n      swap3\n      swap2\n      pop\n      pop\n      jump\t// out\n        /* \"#utility.yul\":16112:16281   */\n    tag_256:\n        /* \"#utility.yul\":16156:16162   */\n      0x00\n        /* \"#utility.yul\":16189:16240   */\n      tag_437\n        /* \"#utility.yul\":16237:16238   */\n      0x00\n        /* \"#utility.yul\":16233:16239   */\n      not\n        /* \"#utility.yul\":16225:16230   */\n      dup5\n        /* \"#utility.yul\":16222:16223   */\n      0x08\n        /* \"#utility.yul\":16218:16231   */\n      mul\n        /* \"#utility.yul\":16189:16240   */\n      tag_255\n      jump\t// in\n    tag_437:\n        /* \"#utility.yul\":16185:16241   */\n      not\n        /* \"#utility.yul\":16270:16274   */\n      dup1\n        /* \"#utility.yul\":16264:16268   */\n      dup4\n        /* \"#utility.yul\":16260:16275   */\n      and\n        /* \"#utility.yul\":16250:16275   */\n      swap2\n      pop\n        /* \"#utility.yul\":16163:16281   */\n      pop\n        /* \"#utility.yul\":16112:16281   */\n      swap3\n      swap2\n      pop\n      pop\n      jump\t// out\n        /* \"#utility.yul\":16286:16581   */\n    tag_257:\n        /* \"#utility.yul\":16362:16366   */\n      0x00\n        /* \"#utility.yul\":16508:16537   */\n      tag_439\n        /* \"#utility.yul\":16533:16536   */\n      dup4\n        /* \"#utility.yul\":16527:16531   */\n      dup4\n        /* \"#utility.yul\":16508:16537   */\n      tag_256\n      jump\t// in\n    tag_439:\n        /* \"#utility.yul\":16500:16537   */\n      swap2\n      pop\n        /* \"#utility.yul\":16570:16573   */\n      dup3\n        /* \"#utility.yul\":16567:16568   */\n      0x02\n        /* \"#utility.yul\":16563:16574   */\n      mul\n        /* \"#utility.yul\":16557:16561   */\n      dup3\n        /* \"#utility.yul\":16554:16575   */\n      or\n        /* \"#utility.yul\":16546:16575   */\n      swap1\n      pop\n        /* \"#utility.yul\":16286:16581   */\n      swap3\n      swap2\n      pop\n      pop\n      jump\t// out\n        /* \"#utility.yul\":16586:17981   */\n    tag_35:\n        /* \"#utility.yul\":16703:16740   */\n      tag_441\n        /* \"#utility.yul\":16736:16739   */\n      dup3\n        /* \"#utility.yul\":16703:16740   */\n      tag_223\n      jump\t// in\n    tag_441:\n        /* \"#utility.yul\":16805:16823   */\n      0xffffffffffffffff\n        /* \"#utility.yul\":16797:16803   */\n      dup2\n        /* \"#utility.yul\":16794:16824   */\n      gt\n        /* \"#utility.yul\":16791:16847   */\n      iszero\n      tag_442\n      jumpi\n        /* \"#utility.yul\":16827:16845   */\n      tag_443\n      tag_44\n      jump\t// in\n    tag_443:\n        /* \"#utility.yul\":16791:16847   */\n    tag_442:\n        /* \"#utility.yul\":16871:16909   */\n      tag_444\n        /* \"#utility.yul\":16903:16907   */\n      dup3\n        /* \"#utility.yul\":16897:16908   */\n      sload\n        /* \"#utility.yul\":16871:16909   */\n      tag_87\n      jump\t// in\n    tag_444:\n        /* \"#utility.yul\":16956:17023   */\n      tag_445\n        /* \"#utility.yul\":17016:17022   */\n      dup3\n        /* \"#utility.yul\":17008:17014   */\n      dup3\n        /* \"#utility.yul\":17002:17006   */\n      dup6\n        /* \"#utility.yul\":16956:17023   */\n      tag_254\n      jump\t// in\n    tag_445:\n        /* \"#utility.yul\":17050:17051   */\n      0x00\n        /* \"#utility.yul\":17074:17078   */\n      0x20\n        /* \"#utility.yul\":17061:17078   */\n      swap1\n      pop\n        /* \"#utility.yul\":17106:17108   */\n      0x1f\n        /* \"#utility.yul\":17098:17104   */\n      dup4\n        /* \"#utility.yul\":17095:17109   */\n      gt\n        /* \"#utility.yul\":17123:17124   */\n      0x01\n        /* \"#utility.yul\":17118:17736   */\n      dup2\n      eq\n      tag_447\n      jumpi\n        /* \"#utility.yul\":17780:17781   */\n      0x00\n        /* \"#utility.yul\":17797:17803   */\n      dup5\n        /* \"#utility.yul\":17794:17871   */\n      iszero\n      tag_448\n      jumpi\n        /* \"#utility.yul\":17846:17855   */\n      dup3\n        /* \"#utility.yul\":17841:17844   */\n      dup8\n        /* \"#utility.yul\":17837:17856   */\n      add\n        /* \"#utility.yul\":17831:17857   */\n      mload\n        /* \"#utility.yul\":17822:17857   */\n      swap1\n      pop\n        /* \"#utility.yul\":17794:17871   */\n    tag_448:\n        /* \"#utility.yul\":17897:17964   */\n      tag_449\n        /* \"#utility.yul\":17957:17963   */\n      dup6\n        /* \"#utility.yul\":17950:17955   */\n      dup3\n        /* \"#utility.yul\":17897:17964   */\n      tag_257\n      jump\t// in\n    tag_449:\n        /* \"#utility.yul\":17891:17895   */\n      dup7\n        /* \"#utility.yul\":17884:17965   */\n      sstore\n        /* \"#utility.yul\":17753:17975   */\n      pop\n        /* \"#utility.yul\":17088:17975   */\n      jump(tag_446)\n        /* \"#utility.yul\":17118:17736   */\n    tag_447:\n        /* \"#utility.yul\":17170:17174   */\n      0x1f\n        /* \"#utility.yul\":17166:17175   */\n      not\n        /* \"#utility.yul\":17158:17164   */\n      dup5\n        /* \"#utility.yul\":17154:17176   */\n      and\n        /* \"#utility.yul\":17204:17241   */\n      tag_450\n        /* \"#utility.yul\":17236:17240   */\n      dup7\n        /* \"#utility.yul\":17204:17241   */\n      tag_243\n      jump\t// in\n    tag_450:\n        /* \"#utility.yul\":17263:17264   */\n      0x00\n        /* \"#utility.yul\":17277:17485   */\n    tag_451:\n        /* \"#utility.yul\":17291:17298   */\n      dup3\n        /* \"#utility.yul\":17288:17289   */\n      dup2\n        /* \"#utility.yul\":17285:17299   */\n      lt\n        /* \"#utility.yul\":17277:17485   */\n      iszero\n      tag_453\n      jumpi\n        /* \"#utility.yul\":17370:17379   */\n      dup5\n        /* \"#utility.yul\":17365:17368   */\n      dup10\n        /* \"#utility.yul\":17361:17380   */\n      add\n        /* \"#utility.yul\":17355:17381   */\n      mload\n        /* \"#utility.yul\":17347:17353   */\n      dup3\n        /* \"#utility.yul\":17340:17382   */\n      sstore\n        /* \"#utility.yul\":17421:17422   */\n      0x01\n        /* \"#utility.yul\":17413:17419   */\n      dup3\n        /* \"#utility.yul\":17409:17423   */\n      add\n        /* \"#utility.yul\":17399:17423   */\n      swap2\n      pop\n        /* \"#utility.yul\":17468:17470   */\n      0x20\n        /* \"#utility.yul\":17457:17466   */\n      dup6\n        /* \"#utility.yul\":17453:17471   */\n      add\n        /* \"#utility.yul\":17440:17471   */\n      swap5\n      pop\n        /* \"#utility.yul\":17314:17318   */\n      0x20\n        /* \"#utility.yul\":17311:17312   */\n      dup2\n        /* \"#utility.yul\":17307:17319   */\n      add\n        /* \"#utility.yul\":17302:17319   */\n      swap1\n      pop\n        /* \"#utility.yul\":17277:17485   */\n      jump(tag_451)\n    tag_453:\n        /* \"#utility.yul\":17513:17519   */\n      dup7\n        /* \"#utility.yul\":17504:17511   */\n      dup4\n        /* \"#utility.yul\":17501:17520   */\n      lt\n        /* \"#utility.yul\":17498:17677   */\n      iszero\n      tag_454\n      jumpi\n        /* \"#utility.yul\":17571:17580   */\n      dup5\n        /* \"#utility.yul\":17566:17569   */\n      dup10\n        /* \"#utility.yul\":17562:17581   */\n      add\n        /* \"#utility.yul\":17556:17582   */\n      mload\n        /* \"#utility.yul\":17614:17662   */\n      tag_455\n        /* \"#utility.yul\":17656:17660   */\n      0x1f\n        /* \"#utility.yul\":17648:17654   */\n      dup10\n        /* \"#utility.yul\":17644:17661   */\n      and\n        /* \"#utility.yul\":17633:17642   */\n      dup3\n        /* \"#utility.yul\":17614:17662   */\n      tag_256\n      jump\t// in\n    tag_455:\n        /* \"#utility.yul\":17606:17612   */\n      dup4\n        /* \"#utility.yul\":17599:17663   */\n      sstore\n        /* \"#utility.yul\":17521:17677   */\n      pop\n        /* \"#utility.yul\":17498:17677   */\n    tag_454:\n        /* \"#utility.yul\":17723:17724   */\n      0x01\n        /* \"#utility.yul\":17719:17720   */\n      0x02\n        /* \"#utility.yul\":17711:17717   */\n      dup9\n        /* \"#utility.yul\":17707:17721   */\n      mul\n        /* \"#utility.yul\":17703:17725   */\n      add\n        /* \"#utility.yul\":17697:17701   */\n      dup9\n        /* \"#utility.yul\":17690:17726   */\n      sstore\n        /* \"#utility.yul\":17125:17736   */\n      pop\n      pop\n      pop\n        /* \"#utility.yul\":17088:17975   */\n    tag_446:\n      pop\n        /* \"#utility.yul\":16678:17981   */\n      pop\n      pop\n      pop\n        /* \"#utility.yul\":16586:17981   */\n      pop\n      pop\n      jump\t// out\n        /* \"#utility.yul\":17987:18127   */\n    tag_258:\n        /* \"#utility.yul\":18035:18039   */\n      0x00\n        /* \"#utility.yul\":18058:18061   */\n      dup2\n        /* \"#utility.yul\":18050:18061   */\n      swap1\n      pop\n        /* \"#utility.yul\":18081:18084   */\n      dup2\n        /* \"#utility.yul\":18078:18079   */\n      0x00\n        /* \"#utility.yul\":18071:18085   */\n      mstore\n        /* \"#utility.yul\":18115:18119   */\n      0x20\n        /* \"#utility.yul\":18112:18113   */\n      0x00\n        /* \"#utility.yul\":18102:18120   */\n      keccak256\n        /* \"#utility.yul\":18094:18120   */\n      swap1\n      pop\n        /* \"#utility.yul\":17987:18127   */\n      swap2\n      swap1\n      pop\n      jump\t// out\n        /* \"#utility.yul\":18133:18674   */\n    tag_259:\n        /* \"#utility.yul\":18233:18235   */\n      0x1f\n        /* \"#utility.yul\":18228:18231   */\n      dup3\n        /* \"#utility.yul\":18225:18236   */\n      gt\n        /* \"#utility.yul\":18222:18667   */\n      iszero\n      tag_458\n      jumpi\n        /* \"#utility.yul\":18267:18304   */\n      tag_459\n        /* \"#utility.yul\":18298:18303   */\n      dup2\n        /* \"#utility.yul\":18267:18304   */\n      tag_258\n      jump\t// in\n    tag_459:\n        /* \"#utility.yul\":18350:18379   */\n      tag_460\n        /* \"#utility.yul\":18368:18378   */\n      dup5\n        /* \"#utility.yul\":18350:18379   */\n      tag_244\n      jump\t// in\n    tag_460:\n        /* \"#utility.yul\":18340:18348   */\n      dup2\n        /* \"#utility.yul\":18336:18380   */\n      add\n        /* \"#utility.yul\":18533:18535   */\n      0x20\n        /* \"#utility.yul\":18521:18531   */\n      dup6\n        /* \"#utility.yul\":18518:18536   */\n      lt\n        /* \"#utility.yul\":18515:18564   */\n      iszero\n      tag_461\n      jumpi\n        /* \"#utility.yul\":18554:18562   */\n      dup2\n        /* \"#utility.yul\":18539:18562   */\n      swap1\n      pop\n        /* \"#utility.yul\":18515:18564   */\n    tag_461:\n        /* \"#utility.yul\":18577:18657   */\n      tag_462\n        /* \"#utility.yul\":18633:18655   */\n      tag_463\n        /* \"#utility.yul\":18651:18654   */\n      dup6\n        /* \"#utility.yul\":18633:18655   */\n      tag_244\n      jump\t// in\n    tag_463:\n        /* \"#utility.yul\":18623:18631   */\n      dup4\n        /* \"#utility.yul\":18619:18656   */\n      add\n        /* \"#utility.yul\":18606:18617   */\n      dup3\n        /* \"#utility.yul\":18577:18657   */\n      tag_253\n      jump\t// in\n    tag_462:\n        /* \"#utility.yul\":18237:18667   */\n      pop\n      pop\n        /* \"#utility.yul\":18222:18667   */\n    tag_458:\n        /* \"#utility.yul\":18133:18674   */\n      pop\n      pop\n      pop\n      jump\t// out\n        /* \"#utility.yul\":18680:20070   */\n    tag_39:\n        /* \"#utility.yul\":18795:18831   */\n      tag_465\n        /* \"#utility.yul\":18827:18830   */\n      dup3\n        /* \"#utility.yul\":18795:18831   */\n      tag_230\n      jump\t// in\n    tag_465:\n        /* \"#utility.yul\":18896:18914   */\n      0xffffffffffffffff\n        /* \"#utility.yul\":18888:18894   */\n      dup2\n        /* \"#utility.yul\":18885:18915   */\n      gt\n        /* \"#utility.yul\":18882:18938   */\n      iszero\n      tag_466\n      jumpi\n        /* \"#utility.yul\":18918:18936   */\n      tag_467\n      tag_44\n      jump\t// in\n    tag_467:\n        /* \"#utility.yul\":18882:18938   */\n    tag_466:\n        /* \"#utility.yul\":18962:19000   */\n      tag_468\n        /* \"#utility.yul\":18994:18998   */\n      dup3\n        /* \"#utility.yul\":18988:18999   */\n      sload\n        /* \"#utility.yul\":18962:19000   */\n      tag_87\n      jump\t// in\n    tag_468:\n        /* \"#utility.yul\":19047:19113   */\n      tag_469\n        /* \"#utility.yul\":19106:19112   */\n      dup3\n        /* \"#utility.yul\":19098:19104   */\n      dup3\n        /* \"#utility.yul\":19092:19096   */\n      dup6\n        /* \"#utility.yul\":19047:19113   */\n      tag_259\n      jump\t// in\n    tag_469:\n        /* \"#utility.yul\":19140:19141   */\n      0x00\n        /* \"#utility.yul\":19164:19168   */\n      0x20\n        /* \"#utility.yul\":19151:19168   */\n      swap1\n      pop\n        /* \"#utility.yul\":19196:19198   */\n      0x1f\n        /* \"#utility.yul\":19188:19194   */\n      dup4\n        /* \"#utility.yul\":19185:19199   */\n      gt\n        /* \"#utility.yul\":19213:19214   */\n      0x01\n        /* \"#utility.yul\":19208:19825   */\n      dup2\n      eq\n      tag_471\n      jumpi\n        /* \"#utility.yul\":19869:19870   */\n      0x00\n        /* \"#utility.yul\":19886:19892   */\n      dup5\n        /* \"#utility.yul\":19883:19960   */\n      iszero\n      tag_472\n      jumpi\n        /* \"#utility.yul\":19935:19944   */\n      dup3\n        /* \"#utility.yul\":19930:19933   */\n      dup8\n        /* \"#utility.yul\":19926:19945   */\n      add\n        /* \"#utility.yul\":19920:19946   */\n      mload\n        /* \"#utility.yul\":19911:19946   */\n      swap1\n      pop\n        /* \"#utility.yul\":19883:19960   */\n    tag_472:\n        /* \"#utility.yul\":19986:20053   */\n      tag_473\n        /* \"#utility.yul\":20046:20052   */\n      dup6\n        /* \"#utility.yul\":20039:20044   */\n      dup3\n        /* \"#utility.yul\":19986:20053   */\n      tag_257\n      jump\t// in\n    tag_473:\n        /* \"#utility.yul\":19980:19984   */\n      dup7\n        /* \"#utility.yul\":19973:20054   */\n      sstore\n        /* \"#utility.yul\":19842:20064   */\n      pop\n        /* \"#utility.yul\":19178:20064   */\n      jump(tag_470)\n        /* \"#utility.yul\":19208:19825   */\n    tag_471:\n        /* \"#utility.yul\":19260:19264   */\n      0x1f\n        /* \"#utility.yul\":19256:19265   */\n      not\n        /* \"#utility.yul\":19248:19254   */\n      dup5\n        /* \"#utility.yul\":19244:19266   */\n      and\n        /* \"#utility.yul\":19294:19330   */\n      tag_474\n        /* \"#utility.yul\":19325:19329   */\n      dup7\n        /* \"#utility.yul\":19294:19330   */\n      tag_258\n      jump\t// in\n    tag_474:\n        /* \"#utility.yul\":19352:19353   */\n      0x00\n        /* \"#utility.yul\":19366:19574   */\n    tag_475:\n        /* \"#utility.yul\":19380:19387   */\n      dup3\n        /* \"#utility.yul\":19377:19378   */\n      dup2\n        /* \"#utility.yul\":19374:19388   */\n      lt\n        /* \"#utility.yul\":19366:19574   */\n      iszero\n      tag_477\n      jumpi\n        /* \"#utility.yul\":19459:19468   */\n      dup5\n        /* \"#utility.yul\":19454:19457   */\n      dup10\n        /* \"#utility.yul\":19450:19469   */\n      add\n        /* \"#utility.yul\":19444:19470   */\n      mload\n        /* \"#utility.yul\":19436:19442   */\n      dup3\n        /* \"#utility.yul\":19429:19471   */\n      sstore\n        /* \"#utility.yul\":19510:19511   */\n      0x01\n        /* \"#utility.yul\":19502:19508   */\n      dup3\n        /* \"#utility.yul\":19498:19512   */\n      add\n        /* \"#utility.yul\":19488:19512   */\n      swap2\n      pop\n        /* \"#utility.yul\":19557:19559   */\n      0x20\n        /* \"#utility.yul\":19546:19555   */\n      dup6\n        /* \"#utility.yul\":19542:19560   */\n      add\n        /* \"#utility.yul\":19529:19560   */\n      swap5\n      pop\n        /* \"#utility.yul\":19403:19407   */\n      0x20\n        /* \"#utility.yul\":19400:19401   */\n      dup2\n        /* \"#utility.yul\":19396:19408   */\n      add\n        /* \"#utility.yul\":19391:19408   */\n      swap1\n      pop\n        /* \"#utility.yul\":19366:19574   */\n      jump(tag_475)\n    tag_477:\n        /* \"#utility.yul\":19602:19608   */\n      dup7\n        /* \"#utility.yul\":19593:19600   */\n      dup4\n        /* \"#utility.yul\":19590:19609   */\n      lt\n        /* \"#utility.yul\":19587:19766   */\n      iszero\n      tag_478\n      jumpi\n        /* \"#utility.yul\":19660:19669   */\n      dup5\n        /* \"#utility.yul\":19655:19658   */\n      dup10\n        /* \"#utility.yul\":19651:19670   */\n      add\n        /* \"#utility.yul\":19645:19671   */\n      mload\n        /* \"#utility.yul\":19703:19751   */\n      tag_479\n        /* \"#utility.yul\":19745:19749   */\n      0x1f\n        /* \"#utility.yul\":19737:19743   */\n      dup10\n        /* \"#utility.yul\":19733:19750   */\n      and\n        /* \"#utility.yul\":19722:19731   */\n      dup3\n        /* \"#utility.yul\":19703:19751   */\n      tag_256\n      jump\t// in\n    tag_479:\n        /* \"#utility.yul\":19695:19701   */\n      dup4\n        /* \"#utility.yul\":19688:19752   */\n      sstore\n        /* \"#utility.yul\":19610:19766   */\n      pop\n        /* \"#utility.yul\":19587:19766   */\n    tag_478:\n        /* \"#utility.yul\":19812:19813   */\n      0x01\n        /* \"#utility.yul\":19808:19809   */\n      0x02\n        /* \"#utility.yul\":19800:19806   */\n      dup9\n        /* \"#utility.yul\":19796:19810   */\n      mul\n        /* \"#utility.yul\":19792:19814   */\n      add\n        /* \"#utility.yul\":19786:19790   */\n      dup9\n        /* \"#utility.yul\":19779:19815   */\n      sstore\n        /* \"#utility.yul\":19215:19825   */\n      pop\n      pop\n      pop\n        /* \"#utility.yul\":19178:20064   */\n    tag_470:\n      pop\n        /* \"#utility.yul\":18770:20070   */\n      pop\n      pop\n      pop\n        /* \"#utility.yul\":18680:20070   */\n      pop\n      pop\n      jump\t// out\n        /* \"#utility.yul\":20076:20256   */\n    tag_260:\n        /* \"#utility.yul\":20124:20201   */\n      0x4e487b7100000000000000000000000000000000000000000000000000000000\n        /* \"#utility.yul\":20121:20122   */\n      0x00\n        /* \"#utility.yul\":20114:20202   */\n      mstore\n        /* \"#utility.yul\":20221:20225   */\n      0x11\n        /* \"#utility.yul\":20218:20219   */\n      0x04\n        /* \"#utility.yul\":20211:20226   */\n      mstore\n        /* \"#utility.yul\":20245:20249   */\n      0x24\n        /* \"#utility.yul\":20242:20243   */\n      0x00\n        /* \"#utility.yul\":20235:20250   */\n      revert\n        /* \"#utility.yul\":20262:20456   */\n    tag_48:\n        /* \"#utility.yul\":20302:20306   */\n      0x00\n        /* \"#utility.yul\":20322:20342   */\n      tag_482\n        /* \"#utility.yul\":20340:20341   */\n      dup3\n        /* \"#utility.yul\":20322:20342   */\n      tag_227\n      jump\t// in\n    tag_482:\n        /* \"#utility.yul\":20317:20342   */\n      swap2\n      pop\n        /* \"#utility.yul\":20356:20376   */\n      tag_483\n        /* \"#utility.yul\":20374:20375   */\n      dup4\n        /* \"#utility.yul\":20356:20376   */\n      tag_227\n      jump\t// in\n    tag_483:\n        /* \"#utility.yul\":20351:20376   */\n      swap3\n      pop\n        /* \"#utility.yul\":20400:20401   */\n      dup3\n        /* \"#utility.yul\":20397:20398   */\n      dup3\n        /* \"#utility.yul\":20393:20402   */\n      sub\n        /* \"#utility.yul\":20385:20402   */\n      swap1\n      pop\n        /* \"#utility.yul\":20424:20425   */\n      dup2\n        /* \"#utility.yul\":20418:20422   */\n      dup2\n        /* \"#utility.yul\":20415:20426   */\n      gt\n        /* \"#utility.yul\":20412:20449   */\n      iszero\n      tag_484\n      jumpi\n        /* \"#utility.yul\":20429:20447   */\n      tag_485\n      tag_260\n      jump\t// in\n    tag_485:\n        /* \"#utility.yul\":20412:20449   */\n    tag_484:\n        /* \"#utility.yul\":20262:20456   */\n      swap3\n      swap2\n      pop\n      pop\n      jump\t// out\n        /* \"#utility.yul\":20462:20642   */\n    tag_51:\n        /* \"#utility.yul\":20510:20587   */\n      0x4e487b7100000000000000000000000000000000000000000000000000000000\n        /* \"#utility.yul\":20507:20508   */\n      0x00\n        /* \"#utility.yul\":20500:20588   */\n      mstore\n        /* \"#utility.yul\":20607:20611   */\n      0x32\n        /* \"#utility.yul\":20604:20605   */\n      0x04\n        /* \"#utility.yul\":20597:20612   */\n      mstore\n        /* \"#utility.yul\":20631:20635   */\n      0x24\n        /* \"#utility.yul\":20628:20629   */\n      0x00\n        /* \"#utility.yul\":20621:20636   */\n      revert\n        /* \"#utility.yul\":20648:20881   */\n    tag_63:\n        /* \"#utility.yul\":20687:20690   */\n      0x00\n        /* \"#utility.yul\":20710:20734   */\n      tag_488\n        /* \"#utility.yul\":20728:20733   */\n      dup3\n        /* \"#utility.yul\":20710:20734   */\n      tag_227\n      jump\t// in\n    tag_488:\n        /* \"#utility.yul\":20701:20734   */\n      swap2\n      pop\n        /* \"#utility.yul\":20756:20822   */\n      0xffffffffffffffffffffffffffffffffffffffffffffffffffffffffffffffff\n        /* \"#utility.yul\":20749:20754   */\n      dup3\n        /* \"#utility.yul\":20746:20823   */\n      sub\n        /* \"#utility.yul\":20743:20846   */\n      tag_489\n      jumpi\n        /* \"#utility.yul\":20826:20844   */\n      tag_490\n      tag_260\n      jump\t// in\n    tag_490:\n        /* \"#utility.yul\":20743:20846   */\n    tag_489:\n        /* \"#utility.yul\":20873:20874   */\n      0x01\n        /* \"#utility.yul\":20866:20871   */\n      dup3\n        /* \"#utility.yul\":20862:20875   */\n      add\n        /* \"#utility.yul\":20855:20875   */\n      swap1\n      pop\n        /* \"#utility.yul\":20648:20881   */\n      swap2\n      swap1\n      pop\n      jump\t// out\n        /* \"#utility.yul\":20887:21058   */\n    tag_66:\n        /* \"#utility.yul\":20926:20929   */\n      0x00\n        /* \"#utility.yul\":20949:20973   */\n      tag_492\n        /* \"#utility.yul\":20967:20972   */\n      dup3\n        /* \"#utility.yul\":20949:20973   */\n      tag_227\n      jump\t// in\n    tag_492:\n        /* \"#utility.yul\":20940:20973   */\n      swap2\n      pop\n        /* \"#utility.yul\":20995:20999   */\n      0x00\n        /* \"#utility.yul\":20988:20993   */\n      dup3\n        /* \"#utility.yul\":20985:21000   */\n      sub\n        /* \"#utility.yul\":20982:21023   */\n      tag_493\n      jumpi\n        /* \"#utility.yul\":21003:21021   */\n      tag_494\n      tag_260\n      jump\t// in\n    tag_494:\n        /* \"#utility.yul\":20982:21023   */\n    tag_493:\n        /* \"#utility.yul\":21050:21051   */\n      0x01\n        /* \"#utility.yul\":21043:21048   */\n      dup3\n        /* \"#utility.yul\":21039:21052   */\n      sub\n        /* \"#utility.yul\":21032:21052   */\n      swap1\n      pop\n        /* \"#utility.yul\":20887:21058   */\n      swap2\n      swap1\n      pop\n      jump\t// out\n        /* \"#utility.yul\":21064:21240   */\n    tag_261:\n        /* \"#utility.yul\":21155:21166   */\n      0x00\n        /* \"#utility.yul\":21189:21195   */\n      dup3\n        /* \"#utility.yul\":21184:21187   */\n      dup3\n        /* \"#utility.yul\":21177:21196   */\n      mstore\n        /* \"#utility.yul\":21229:21233   */\n      0x20\n        /* \"#utility.yul\":21224:21227   */\n      dup3\n        /* \"#utility.yul\":21220:21234   */\n      add\n        /* \"#utility.yul\":21205:21234   */\n      swap1\n      pop\n        /* \"#utility.yul\":21064:21240   */\n      swap3\n      swap2\n      pop\n      pop\n      jump\t// out\n        /* \"#utility.yul\":21246:21635   */\n    tag_262:\n        /* \"#utility.yul\":21340:21343   */\n      0x00\n        /* \"#utility.yul\":21368:21406   */\n      tag_497\n        /* \"#utility.yul\":21400:21405   */\n      dup3\n        /* \"#utility.yul\":21368:21406   */\n      tag_230\n      jump\t// in\n    tag_497:\n        /* \"#utility.yul\":21422:21500   */\n      tag_498\n        /* \"#utility.yul\":21493:21499   */\n      dup2\n        /* \"#utility.yul\":21488:21491   */\n      dup6\n        /* \"#utility.yul\":21422:21500   */\n      tag_261\n      jump\t// in\n    tag_498:\n        /* \"#utility.yul\":21415:21500   */\n      swap4\n      pop\n        /* \"#utility.yul\":21509:21574   */\n      tag_499\n        /* \"#utility.yul\":21567:21573   */\n      dup2\n        /* \"#utility.yul\":21562:21565   */\n      dup6\n        /* \"#utility.yul\":21555:21559   */\n      0x20\n        /* \"#utility.yul\":21548:21553   */\n      dup7\n        /* \"#utility.yul\":21544:21560   */\n      add\n        /* \"#utility.yul\":21509:21574   */\n      tag_225\n      jump\t// in\n    tag_499:\n        /* \"#utility.yul\":21599:21628   */\n      tag_500\n        /* \"#utility.yul\":21621:21627   */\n      dup2\n        /* \"#utility.yul\":21599:21628   */\n      tag_216\n      jump\t// in\n    tag_500:\n        /* \"#utility.yul\":21594:21597   */\n      dup5\n        /* \"#utility.yul\":21590:21629   */\n      add\n        /* \"#utility.yul\":21583:21629   */\n      swap2\n      pop\n        /* \"#utility.yul\":21344:21635   */\n      pop\n        /* \"#utility.yul\":21246:21635   */\n      swap3\n      swap2\n      pop\n      pop\n      jump\t// out\n        /* \"#utility.yul\":21641:21767   */\n    tag_263:\n        /* \"#utility.yul\":21736:21760   */\n      tag_502\n        /* \"#utility.yul\":21754:21759   */\n      dup2\n        /* \"#utility.yul\":21736:21760   */\n      tag_227\n      jump\t// in\n    tag_502:\n        /* \"#utility.yul\":21731:21734   */\n      dup3\n        /* \"#utility.yul\":21724:21761   */\n      mstore\n        /* \"#utility.yul\":21641:21767   */\n      pop\n      pop\n      jump\t// out\n        /* \"#utility.yul\":21773:22216   */\n    tag_68:\n        /* \"#utility.yul\":21920:21924   */\n      0x00\n        /* \"#utility.yul\":21958:21960   */\n      0x40\n        /* \"#utility.yul\":21947:21956   */\n      dup3\n        /* \"#utility.yul\":21943:21961   */\n      add\n        /* \"#utility.yul\":21935:21961   */\n      swap1\n      pop\n        /* \"#utility.yul\":22007:22016   */\n      dup2\n        /* \"#utility.yul\":22001:22005   */\n      dup2\n        /* \"#utility.yul\":21997:22017   */\n      sub\n        /* \"#utility.yul\":21993:21994   */\n      0x00\n        /* \"#utility.yul\":21982:21991   */\n      dup4\n        /* \"#utility.yul\":21978:21995   */\n      add\n        /* \"#utility.yul\":21971:22018   */\n      mstore\n        /* \"#utility.yul\":22035:22119   */\n      tag_504\n        /* \"#utility.yul\":22114:22118   */\n      dup2\n        /* \"#utility.yul\":22105:22111   */\n      dup6\n        /* \"#utility.yul\":22035:22119   */\n      tag_262\n      jump\t// in\n    tag_504:\n        /* \"#utility.yul\":22027:22119   */\n      swap1\n      pop\n        /* \"#utility.yul\":22129:22209   */\n      tag_505\n        /* \"#utility.yul\":22205:22207   */\n      0x20\n        /* \"#utility.yul\":22194:22203   */\n      dup4\n        /* \"#utility.yul\":22190:22208   */\n      add\n        /* \"#utility.yul\":22181:22187   */\n      dup5\n        /* \"#utility.yul\":22129:22209   */\n      tag_263\n      jump\t// in\n    tag_505:\n        /* \"#utility.yul\":21773:22216   */\n      swap4\n      swap3\n      pop\n      pop\n      pop\n      jump\t// out\n        /* \"#utility.yul\":22222:22529   */\n    tag_264:\n        /* \"#utility.yul\":22283:22287   */\n      0x00\n        /* \"#utility.yul\":22373:22391   */\n      0xffffffffffffffff\n        /* \"#utility.yul\":22365:22371   */\n      dup3\n        /* \"#utility.yul\":22362:22392   */\n      gt\n        /* \"#utility.yul\":22359:22415   */\n      iszero\n      tag_507\n      jumpi\n        /* \"#utility.yul\":22395:22413   */\n      tag_508\n      tag_44\n      jump\t// in\n    tag_508:\n        /* \"#utility.yul\":22359:22415   */\n    tag_507:\n        /* \"#utility.yul\":22433:22462   */\n      tag_509\n        /* \"#utility.yul\":22455:22461   */\n      dup3\n        /* \"#utility.yul\":22433:22462   */\n      tag_216\n      jump\t// in\n    tag_509:\n        /* \"#utility.yul\":22425:22462   */\n      swap1\n      pop\n        /* \"#utility.yul\":22517:22521   */\n      0x20\n        /* \"#utility.yul\":22511:22515   */\n      dup2\n        /* \"#utility.yul\":22507:22522   */\n      add\n        /* \"#utility.yul\":22499:22522   */\n      swap1\n      pop\n        /* \"#utility.yul\":22222:22529   */\n      swap2\n      swap1\n      pop\n      jump\t// out\n        /* \"#utility.yul\":22535:22967   */\n    tag_265:\n        /* \"#utility.yul\":22623:22628   */\n      0x00\n        /* \"#utility.yul\":22648:22713   */\n      tag_511\n        /* \"#utility.yul\":22664:22712   */\n      tag_512\n        /* \"#utility.yul\":22705:22711   */\n      dup5\n        /* \"#utility.yul\":22664:22712   */\n      tag_264\n      jump\t// in\n    tag_512:\n        /* \"#utility.yul\":22648:22713   */\n      tag_218\n      jump\t// in\n    tag_511:\n        /* \"#utility.yul\":22639:22713   */\n      swap1\n      pop\n        /* \"#utility.yul\":22736:22742   */\n      dup3\n        /* \"#utility.yul\":22729:22734   */\n      dup2\n        /* \"#utility.yul\":22722:22743   */\n      mstore\n        /* \"#utility.yul\":22774:22778   */\n      0x20\n        /* \"#utility.yul\":22767:22772   */\n      dup2\n        /* \"#utility.yul\":22763:22779   */\n      add\n        /* \"#utility.yul\":22812:22815   */\n      dup5\n        /* \"#utility.yul\":22803:22809   */\n      dup5\n        /* \"#utility.yul\":22798:22801   */\n      dup5\n        /* \"#utility.yul\":22794:22810   */\n      add\n        /* \"#utility.yul\":22791:22816   */\n      gt\n        /* \"#utility.yul\":22788:22900   */\n      iszero\n      tag_513\n      jumpi\n        /* \"#utility.yul\":22819:22898   */\n      tag_514\n      tag_215\n      jump\t// in\n    tag_514:\n        /* \"#utility.yul\":22788:22900   */\n    tag_513:\n        /* \"#utility.yul\":22909:22961   */\n      tag_515\n        /* \"#utility.yul\":22954:22960   */\n      dup5\n        /* \"#utility.yul\":22949:22952   */\n      dup3\n        /* \"#utility.yul\":22944:22947   */\n      dup6\n        /* \"#utility.yul\":22909:22961   */\n      tag_225\n      jump\t// in\n    tag_515:\n        /* \"#utility.yul\":22629:22967   */\n      pop\n        /* \"#utility.yul\":22535:22967   */\n      swap4\n      swap3\n      pop\n      pop\n      pop\n      jump\t// out\n        /* \"#utility.yul\":22986:23339   */\n    tag_266:\n        /* \"#utility.yul\":23052:23057   */\n      0x00\n        /* \"#utility.yul\":23101:23104   */\n      dup3\n        /* \"#utility.yul\":23094:23098   */\n      0x1f\n        /* \"#utility.yul\":23086:23092   */\n      dup4\n        /* \"#utility.yul\":23082:23099   */\n      add\n        /* \"#utility.yul\":23078:23105   */\n      slt\n        /* \"#utility.yul\":23068:23190   */\n      tag_517\n      jumpi\n        /* \"#utility.yul\":23109:23188   */\n      tag_518\n      tag_210\n      jump\t// in\n    tag_518:\n        /* \"#utility.yul\":23068:23190   */\n    tag_517:\n        /* \"#utility.yul\":23219:23225   */\n      dup2\n        /* \"#utility.yul\":23213:23226   */\n      mload\n        /* \"#utility.yul\":23244:23333   */\n      tag_519\n        /* \"#utility.yul\":23329:23332   */\n      dup5\n        /* \"#utility.yul\":23321:23327   */\n      dup3\n        /* \"#utility.yul\":23314:23318   */\n      0x20\n        /* \"#utility.yul\":23306:23312   */\n      dup7\n        /* \"#utility.yul\":23302:23319   */\n      add\n        /* \"#utility.yul\":23244:23333   */\n      tag_265\n      jump\t// in\n    tag_519:\n        /* \"#utility.yul\":23235:23333   */\n      swap2\n      pop\n        /* \"#utility.yul\":23058:23339   */\n      pop\n        /* \"#utility.yul\":22986:23339   */\n      swap3\n      swap2\n      pop\n      pop\n      jump\t// out\n        /* \"#utility.yul\":23345:23867   */\n    tag_72:\n        /* \"#utility.yul\":23424:23430   */\n      0x00\n        /* \"#utility.yul\":23473:23475   */\n      0x20\n        /* \"#utility.yul\":23461:23470   */\n      dup3\n        /* \"#utility.yul\":23452:23459   */\n      dup5\n        /* \"#utility.yul\":23448:23471   */\n      sub\n        /* \"#utility.yul\":23444:23476   */\n      slt\n        /* \"#utility.yul\":23441:23560   */\n      iszero\n      tag_521\n      jumpi\n        /* \"#utility.yul\":23479:23558   */\n      tag_522\n      tag_208\n      jump\t// in\n    tag_522:\n        /* \"#utility.yul\":23441:23560   */\n    tag_521:\n        /* \"#utility.yul\":23620:23621   */\n      0x00\n        /* \"#utility.yul\":23609:23618   */\n      dup3\n        /* \"#utility.yul\":23605:23622   */\n      add\n        /* \"#utility.yul\":23599:23623   */\n      mload\n        /* \"#utility.yul\":23650:23668   */\n      0xffffffffffffffff\n        /* \"#utility.yul\":23642:23648   */\n      dup2\n        /* \"#utility.yul\":23639:23669   */\n      gt\n        /* \"#utility.yul\":23636:23753   */\n      iszero\n      tag_523\n      jumpi\n        /* \"#utility.yul\":23672:23751   */\n      tag_524\n      tag_209\n      jump\t// in\n    tag_524:\n        /* \"#utility.yul\":23636:23753   */\n    tag_523:\n        /* \"#utility.yul\":23777:23850   */\n      tag_525\n        /* \"#utility.yul\":23842:23849   */\n      dup5\n        /* \"#utility.yul\":23833:23839   */\n      dup3\n        /* \"#utility.yul\":23822:23831   */\n      dup6\n        /* \"#utility.yul\":23818:23840   */\n      add\n        /* \"#utility.yul\":23777:23850   */\n      tag_266\n      jump\t// in\n    tag_525:\n        /* \"#utility.yul\":23767:23850   */\n      swap2\n      pop\n        /* \"#utility.yul\":23570:23860   */\n      pop\n        /* \"#utility.yul\":23345:23867   */\n      swap3\n      swap2\n      pop\n      pop\n      jump\t// out\n        /* \"#utility.yul\":23873:24198   */\n    tag_74:\n        /* \"#utility.yul\":23992:23996   */\n      0x00\n        /* \"#utility.yul\":24030:24032   */\n      0x20\n        /* \"#utility.yul\":24019:24028   */\n      dup3\n        /* \"#utility.yul\":24015:24033   */\n      add\n        /* \"#utility.yul\":24007:24033   */\n      swap1\n      pop\n        /* \"#utility.yul\":24079:24088   */\n      dup2\n        /* \"#utility.yul\":24073:24077   */\n      dup2\n        /* \"#utility.yul\":24069:24089   */\n      sub\n        /* \"#utility.yul\":24065:24066   */\n      0x00\n        /* \"#utility.yul\":24054:24063   */\n      dup4\n        /* \"#utility.yul\":24050:24067   */\n      add\n        /* \"#utility.yul\":24043:24090   */\n      mstore\n        /* \"#utility.yul\":24107:24191   */\n      tag_527\n        /* \"#utility.yul\":24186:24190   */\n      dup2\n        /* \"#utility.yul\":24177:24183   */\n      dup5\n        /* \"#utility.yul\":24107:24191   */\n      tag_262\n      jump\t// in\n    tag_527:\n        /* \"#utility.yul\":24099:24191   */\n      swap1\n      pop\n        /* \"#utility.yul\":23873:24198   */\n      swap3\n      swap2\n      pop\n      pop\n      jump\t// out\n        /* \"#utility.yul\":24204:24395   */\n    tag_144:\n        /* \"#utility.yul\":24244:24247   */\n      0x00\n        /* \"#utility.yul\":24263:24283   */\n      tag_529\n        /* \"#utility.yul\":24281:24282   */\n      dup3\n        /* \"#utility.yul\":24263:24283   */\n      tag_227\n      jump\t// in\n    tag_529:\n        /* \"#utility.yul\":24258:24283   */\n      swap2\n      pop\n        /* \"#utility.yul\":24297:24317   */\n      tag_530\n        /* \"#utility.yul\":24315:24316   */\n      dup4\n        /* \"#utility.yul\":24297:24317   */\n      tag_227\n      jump\t// in\n    tag_530:\n        /* \"#utility.yul\":24292:24317   */\n      swap3\n      pop\n        /* \"#utility.yul\":24340:24341   */\n      dup3\n        /* \"#utility.yul\":24337:24338   */\n      dup3\n        /* \"#utility.yul\":24333:24342   */\n      add\n        /* \"#utility.yul\":24326:24342   */\n      swap1\n      pop\n        /* \"#utility.yul\":24361:24364   */\n      dup1\n        /* \"#utility.yul\":24358:24359   */\n      dup3\n        /* \"#utility.yul\":24355:24365   */\n      gt\n        /* \"#utility.yul\":24352:24388   */\n      iszero\n      tag_531\n      jumpi\n        /* \"#utility.yul\":24368:24386   */\n      tag_532\n      tag_260\n      jump\t// in\n    tag_532:\n        /* \"#utility.yul\":24352:24388   */\n    tag_531:\n        /* \"#utility.yul\":24204:24395   */\n      swap3\n      swap2\n      pop\n      pop\n      jump\t// out\n        /* \"#utility.yul\":24401:24581   */\n    tag_185:\n        /* \"#utility.yul\":24449:24526   */\n      0x4e487b7100000000000000000000000000000000000000000000000000000000\n        /* \"#utility.yul\":24446:24447   */\n      0x00\n        /* \"#utility.yul\":24439:24527   */\n      mstore\n        /* \"#utility.yul\":24546:24550   */\n      0x12\n        /* \"#utility.yul\":24543:24544   */\n      0x04\n        /* \"#utility.yul\":24536:24551   */\n      mstore\n        /* \"#utility.yul\":24570:24574   */\n      0x24\n        /* \"#utility.yul\":24567:24568   */\n      0x00\n        /* \"#utility.yul\":24560:24575   */\n      revert\n\n    auxdata: 0xa2646970667358221220b6ef1665e1af8fa8c19e6b357b80368ab53c3b1a1dfe8bc7f34fba5985ffff4864736f6c63430008140033\n}\n",
				"bytecode": {
					"linkReferences": {
						"Week1/BusinessHelper/Infrastructure.sol": {
							"Infrastructure": [
								{
									"length": 20,
									"start": 1362
								},
								{
									"length": 20,
									"start": 1487
								},
								{
									"length": 20,
									"start": 1639
								},
								{
									"length": 20,
									"start": 3539
								}
							]
						}
					},
					"object": "608060405234801561000f575f80fd5b50611e8e8061001d5f395ff3fe608060405234801561000f575f80fd5b506004361061004a575f3560e01c806309f1cffc1461004e5780633b594fcc1461006a5780634ce185ec1461009b57806395b5e559146100d1575b5f80fd5b61006860048036038101906100639190611202565b610104565b005b610084600480360381019061007f91906113ea565b6102e4565b6040516100929291906114ab565b60405180910390f35b6100b560048036038101906100b09190611513565b6106d6565b6040516100c8979695949392919061159f565b60405180910390f35b6100eb60048036038101906100e691906113ea565b6109c0565b6040516100fb9493929190611732565b60405180910390f35b5f61010d610f10565b90505f805f61015e88888080601f0160208091040260200160405190810160405280939291908181526020018383808284375f81840152601f19601f820116905080830192505050505050506109c0565b935093509350505f806101b38c8c8080601f0160208091040260200160405190810160405280939291908181526020018383808284375f81840152601f19601f820116905080830192505050505050506102e4565b915091505f6040518060e001604052808881526020018381526020018481526020018a8a8080601f0160208091040260200160405190810160405280939291908181526020018383808284375f81840152601f19601f82011690508083019250505050505050815260200187815260200186815260200185815250908060018154018082558091505060019003905f5260205f2090600702015f909190919091505f820151815f019081610267919061197d565b50602082015181600101908161027d919061197d565b506040820151816002019081610293919061197d565b5060608201518160030190816102a99190611aa4565b5060808201518160040190816102bf919061197d565b5060a0820151816005015560c082015181600601555050505050505050505050505050565b6060805f8390505f603267ffffffffffffffff811115610307576103066112c6565b5b6040519080825280601f01601f1916602001820160405280156103395781602001600182028036833780820191505090505b50905060e682511115610378576040517fffe4bab500000000000000000000000000000000000000000000000000000000815260040160405180910390fd5b5f80600184516103889190611ba0565b9050602e60f81b8482815181106103a2576103a1611bd3565b5b602001015160f81c60f81b7effffffffffffffffffffffffffffffffffffffffffffffffffffffffffffff191603610406576040517fffe4bab500000000000000000000000000000000000000000000000000000000815260040160405180910390fd5b5b5f84828151811061041b5761041a611bd3565b5b602001015160f81c60f81b9050602e60f81b817effffffffffffffffffffffffffffffffffffffffffffffffffffffffffffff19160361045b5750610533565b6031831115610496576040517fffe4bab500000000000000000000000000000000000000000000000000000000815260040160405180910390fd5b808484815181106104aa576104a9611bd3565b5b60200101907effffffffffffffffffffffffffffffffffffffffffffffffffffffffffffff191690815f1a90535082806104e390611c00565b9350505f820361051f576040517fffe4bab500000000000000000000000000000000000000000000000000000000815260040160405180910390fd5b50808061052b90611c47565b915050610407565b73__$23439b1ab11bb550c3e4896ccfde123b4c$__63c5249be984846040518363ffffffff1660e01b815260040161056c929190611cc5565b5f60405180830381865af4158015610586573d5f803e3d5ffd5b505050506040513d5f823e3d601f19601f820116820180604052508101906105ae9190611d91565b925073__$23439b1ab11bb550c3e4896ccfde123b4c$__632f278ecb846040518263ffffffff1660e01b81526004016105e79190611dd8565b5f60405180830381865af4158015610601573d5f803e3d5ffd5b505050506040513d5f823e3d601f19601f820116820180604052508101906106299190611d91565b92505f600183865161063b9190611ba0565b6106459190611ba0565b90505f73__$23439b1ab11bb550c3e4896ccfde123b4c$__63c5249be987846040518363ffffffff1660e01b8152600401610681929190611cc5565b5f60405180830381865af415801561069b573d5f803e3d5ffd5b505050506040513d5f823e3d601f19601f820116820180604052508101906106c39190611d91565b9050848197509750505050505050915091565b5f81815481106106e4575f80fd5b905f5260205f2090600702015f91509050805f018054610703906117b0565b80601f016020809104026020016040519081016040528092919081815260200182805461072f906117b0565b801561077a5780601f106107515761010080835404028352916020019161077a565b820191905f5260205f20905b81548152906001019060200180831161075d57829003601f168201915b50505050509080600101805461078f906117b0565b80601f01602080910402602001604051908101604052809291908181526020018280546107bb906117b0565b80156108065780601f106107dd57610100808354040283529160200191610806565b820191905f5260205f20905b8154815290600101906020018083116107e957829003601f168201915b50505050509080600201805461081b906117b0565b80601f0160208091040260200160405190810160405280929190818152602001828054610847906117b0565b80156108925780601f1061086957610100808354040283529160200191610892565b820191905f5260205f20905b81548152906001019060200180831161087557829003601f168201915b5050505050908060030180546108a7906117b0565b80601f01602080910402602001604051908101604052809291908181526020018280546108d3906117b0565b801561091e5780601f106108f55761010080835404028352916020019161091e565b820191905f5260205f20905b81548152906001019060200180831161090157829003601f168201915b505050505090806004018054610933906117b0565b80601f016020809104026020016040519081016040528092919081815260200182805461095f906117b0565b80156109aa5780601f10610981576101008083540402835291602001916109aa565b820191905f5260205f20905b81548152906001019060200180831161098d57829003601f168201915b5050505050908060050154908060060154905087565b6060805f805f805f8790505f815190505f825167ffffffffffffffff8111156109ec576109eb6112c6565b5b6040519080825280601f01601f191660200182016040528015610a1e5781602001600182028036833780820191505090505b509050602f60f81b835f81518110610a3957610a38611bd3565b5b602001015160f81c60f81b7effffffffffffffffffffffffffffffffffffffffffffffffffffffffffffff191614610a9d576040517fff31f58600000000000000000000000000000000000000000000000000000000815260040160405180910390fd5b5f600190505b82811015610be657600183610ab89190611ba0565b81148015610b085750602f60f81b848281518110610ad957610ad8611bd3565b5b602001015160f81c60f81b7effffffffffffffffffffffffffffffffffffffffffffffffffffffffffffff1916145b610bd357602f60f81b848281518110610b2457610b23611bd3565b5b602001015160f81c60f81b7effffffffffffffffffffffffffffffffffffffffffffffffffffffffffffff191603610b65578580610b6190611c00565b9650505b838181518110610b7857610b77611bd3565b5b602001015160f81c60f81b828681518110610b9657610b95611bd3565b5b60200101907effffffffffffffffffffffffffffffffffffffffffffffffffffffffffffff191690815f1a9053508480610bcf90611c00565b9550505b8080610bde90611c00565b915050610aa3565b505f8467ffffffffffffffff811115610c0257610c016112c6565b5b6040519080825280601f01601f191660200182016040528015610c345781602001600182028036833780820191505090505b5090505f60fa67ffffffffffffffff811115610c5357610c526112c6565b5b6040519080825280601f01601f191660200182016040528015610c855781602001600182028036833780820191505090505b5090505f805f60018a610c989190611df8565b67ffffffffffffffff811115610cb157610cb06112c6565b5b604051908082528060200260200182016040528015610ce457816020015b6060815260200190600190039081610ccf5790505b5090505f5b89811015610ef2575f878281518110610d0557610d04611bd3565b5b602001015160f81c60f81b90505f60018c610d209190611ba0565b831490505f602f60f81b837effffffffffffffffffffffffffffffffffffffffffffffffffffffffffffff191614905080610da65782888881518110610d6957610d68611bd3565b5b60200101907effffffffffffffffffffffffffffffffffffffffffffffffffffffffffffff191690815f1a9053508680610da290611c00565b9750505b8080610daf5750815b15610e5f5773__$23439b1ab11bb550c3e4896ccfde123b4c$__63c5249be989896040518363ffffffff1660e01b8152600401610ded929190611cc5565b5f60405180830381865af4158015610e07573d5f803e3d5ffd5b505050506040513d5f823e3d601f19601f82011682018060405250810190610e2f9190611d91565b858781518110610e4257610e41611bd3565b5b60200260200101819052508580610e5890611c00565b9650505f96505b60e6871115610e9a576040517fff31f58600000000000000000000000000000000000000000000000000000000815260040160405180910390fd5b82898581518110610eae57610ead611bd3565b5b60200101907effffffffffffffffffffffffffffffffffffffffffffffffffffffffffffff191690815f1a9053505050508080610eea90611c00565b915050610ce9565b5080858b8b9d509d509d509d50505050505050505050509193509193565b6060610f1b42610f20565b905090565b60605f6001610f2e84610fea565b0190505f8167ffffffffffffffff811115610f4c57610f4b6112c6565b5b6040519080825280601f01601f191660200182016040528015610f7e5781602001600182028036833780820191505090505b5090505f82602001820190505b600115610fdf578080600190039150507f3031323334353637383961626364656600000000000000000000000000000000600a86061a8153600a8581610fd457610fd3611e2b565b5b0494505f8503610f8b575b819350505050919050565b5f805f90507a184f03e93ff9f4daa797ed6e38ed64bf6a1f0100000000000000008310611046577a184f03e93ff9f4daa797ed6e38ed64bf6a1f010000000000000000838161103c5761103b611e2b565b5b0492506040810190505b6d04ee2d6d415b85acef81000000008310611083576d04ee2d6d415b85acef8100000000838161107957611078611e2b565b5b0492506020810190505b662386f26fc1000083106110b257662386f26fc1000083816110a8576110a7611e2b565b5b0492506010810190505b6305f5e10083106110db576305f5e10083816110d1576110d0611e2b565b5b0492506008810190505b61271083106111005761271083816110f6576110f5611e2b565b5b0492506004810190505b60648310611123576064838161111957611118611e2b565b5b0492506002810190505b600a8310611132576001810190505b80915050919050565b5f604051905090565b5f80fd5b5f80fd5b5f80fd5b5f80fd5b5f80fd5b5f8083601f84011261116d5761116c61114c565b5b8235905067ffffffffffffffff81111561118a57611189611150565b5b6020830191508360018202830111156111a6576111a5611154565b5b9250929050565b5f8083601f8401126111c2576111c161114c565b5b8235905067ffffffffffffffff8111156111df576111de611150565b5b6020830191508360018202830111156111fb576111fa611154565b5b9250929050565b5f805f805f806060878903121561121c5761121b611144565b5b5f87013567ffffffffffffffff81111561123957611238611148565b5b61124589828a01611158565b9650965050602087013567ffffffffffffffff81111561126857611267611148565b5b61127489828a01611158565b9450945050604087013567ffffffffffffffff81111561129757611296611148565b5b6112a389828a016111ad565b92509250509295509295509295565b5f80fd5b5f601f19601f8301169050919050565b7f4e487b71000000000000000000000000000000000000000000000000000000005f52604160045260245ffd5b6112fc826112b6565b810181811067ffffffffffffffff8211171561131b5761131a6112c6565b5b80604052505050565b5f61132d61113b565b905061133982826112f3565b919050565b5f67ffffffffffffffff821115611358576113576112c6565b5b611361826112b6565b9050602081019050919050565b828183375f83830152505050565b5f61138e6113898461133e565b611324565b9050828152602081018484840111156113aa576113a96112b2565b5b6113b584828561136e565b509392505050565b5f82601f8301126113d1576113d061114c565b5b81356113e184826020860161137c565b91505092915050565b5f602082840312156113ff576113fe611144565b5b5f82013567ffffffffffffffff81111561141c5761141b611148565b5b611428848285016113bd565b91505092915050565b5f81519050919050565b5f82825260208201905092915050565b5f5b8381101561146857808201518184015260208101905061144d565b5f8484015250505050565b5f61147d82611431565b611487818561143b565b935061149781856020860161144b565b6114a0816112b6565b840191505092915050565b5f6040820190508181035f8301526114c38185611473565b905081810360208301526114d78184611473565b90509392505050565b5f819050919050565b6114f2816114e0565b81146114fc575f80fd5b50565b5f8135905061150d816114e9565b92915050565b5f6020828403121561152857611527611144565b5b5f611535848285016114ff565b91505092915050565b5f81519050919050565b5f82825260208201905092915050565b5f6115628261153e565b61156c8185611548565b935061157c81856020860161144b565b611585816112b6565b840191505092915050565b611599816114e0565b82525050565b5f60e0820190508181035f8301526115b7818a611473565b905081810360208301526115cb8189611473565b905081810360408301526115df8188611473565b905081810360608301526115f38187611558565b905081810360808301526116078186611473565b905061161660a0830185611590565b61162360c0830184611590565b98975050505050505050565b5f81519050919050565b5f82825260208201905092915050565b5f819050602082019050919050565b5f82825260208201905092915050565b5f61167282611431565b61167c8185611658565b935061168c81856020860161144b565b611695816112b6565b840191505092915050565b5f6116ab8383611668565b905092915050565b5f602082019050919050565b5f6116c98261162f565b6116d38185611639565b9350836020820285016116e585611649565b805f5b85811015611720578484038952815161170185826116a0565b945061170c836116b3565b925060208a019950506001810190506116e8565b50829750879550505050505092915050565b5f6080820190508181035f83015261174a81876116bf565b9050818103602083015261175e8186611473565b905061176d6040830185611590565b61177a6060830184611590565b95945050505050565b7f4e487b71000000000000000000000000000000000000000000000000000000005f52602260045260245ffd5b5f60028204905060018216806117c757607f821691505b6020821081036117da576117d9611783565b5b50919050565b5f819050815f5260205f209050919050565b5f6020601f8301049050919050565b5f82821b905092915050565b5f6008830261183c7fffffffffffffffffffffffffffffffffffffffffffffffffffffffffffffffff82611801565b6118468683611801565b95508019841693508086168417925050509392505050565b5f819050919050565b5f61188161187c611877846114e0565b61185e565b6114e0565b9050919050565b5f819050919050565b61189a83611867565b6118ae6118a682611888565b84845461180d565b825550505050565b5f90565b6118c26118b6565b6118cd818484611891565b505050565b5b818110156118f0576118e55f826118ba565b6001810190506118d3565b5050565b601f82111561193557611906816117e0565b61190f846117f2565b8101602085101561191e578190505b61193261192a856117f2565b8301826118d2565b50505b505050565b5f82821c905092915050565b5f6119555f198460080261193a565b1980831691505092915050565b5f61196d8383611946565b9150826002028217905092915050565b61198682611431565b67ffffffffffffffff81111561199f5761199e6112c6565b5b6119a982546117b0565b6119b48282856118f4565b5f60209050601f8311600181146119e5575f84156119d3578287015190505b6119dd8582611962565b865550611a44565b601f1984166119f3866117e0565b5f5b82811015611a1a578489015182556001820191506020850194506020810190506119f5565b86831015611a375784890151611a33601f891682611946565b8355505b6001600288020188555050505b505050505050565b5f819050815f5260205f209050919050565b601f821115611a9f57611a7081611a4c565b611a79846117f2565b81016020851015611a88578190505b611a9c611a94856117f2565b8301826118d2565b50505b505050565b611aad8261153e565b67ffffffffffffffff811115611ac657611ac56112c6565b5b611ad082546117b0565b611adb828285611a5e565b5f60209050601f831160018114611b0c575f8415611afa578287015190505b611b048582611962565b865550611b6b565b601f198416611b1a86611a4c565b5f5b82811015611b4157848901518255600182019150602085019450602081019050611b1c565b86831015611b5e5784890151611b5a601f891682611946565b8355505b6001600288020188555050505b505050505050565b7f4e487b71000000000000000000000000000000000000000000000000000000005f52601160045260245ffd5b5f611baa826114e0565b9150611bb5836114e0565b9250828203905081811115611bcd57611bcc611b73565b5b92915050565b7f4e487b71000000000000000000000000000000000000000000000000000000005f52603260045260245ffd5b5f611c0a826114e0565b91507fffffffffffffffffffffffffffffffffffffffffffffffffffffffffffffffff8203611c3c57611c3b611b73565b5b600182019050919050565b5f611c51826114e0565b91505f8203611c6357611c62611b73565b5b600182039050919050565b5f82825260208201905092915050565b5f611c888261153e565b611c928185611c6e565b9350611ca281856020860161144b565b611cab816112b6565b840191505092915050565b611cbf816114e0565b82525050565b5f6040820190508181035f830152611cdd8185611c7e565b9050611cec6020830184611cb6565b9392505050565b5f67ffffffffffffffff821115611d0d57611d0c6112c6565b5b611d16826112b6565b9050602081019050919050565b5f611d35611d3084611cf3565b611324565b905082815260208101848484011115611d5157611d506112b2565b5b611d5c84828561144b565b509392505050565b5f82601f830112611d7857611d7761114c565b5b8151611d88848260208601611d23565b91505092915050565b5f60208284031215611da657611da5611144565b5b5f82015167ffffffffffffffff811115611dc357611dc2611148565b5b611dcf84828501611d64565b91505092915050565b5f6020820190508181035f830152611df08184611c7e565b905092915050565b5f611e02826114e0565b9150611e0d836114e0565b9250828201905080821115611e2557611e24611b73565b5b92915050565b7f4e487b71000000000000000000000000000000000000000000000000000000005f52601260045260245ffdfea2646970667358221220b6ef1665e1af8fa8c19e6b357b80368ab53c3b1a1dfe8bc7f34fba5985ffff4864736f6c63430008140033",
					"opcodes": "PUSH1 0x80 PUSH1 0x40 MSTORE CALLVALUE DUP1 ISZERO PUSH2 0xF JUMPI PUSH0 DUP1 REVERT JUMPDEST POP PUSH2 0x1E8E DUP1 PUSH2 0x1D PUSH0 CODECOPY PUSH0 RETURN INVALID PUSH1 0x80 PUSH1 0x40 MSTORE CALLVALUE DUP1 ISZERO PUSH2 0xF JUMPI PUSH0 DUP1 REVERT JUMPDEST POP PUSH1 0x4 CALLDATASIZE LT PUSH2 0x4A JUMPI PUSH0 CALLDATALOAD PUSH1 0xE0 SHR DUP1 PUSH4 0x9F1CFFC EQ PUSH2 0x4E JUMPI DUP1 PUSH4 0x3B594FCC EQ PUSH2 0x6A JUMPI DUP1 PUSH4 0x4CE185EC EQ PUSH2 0x9B JUMPI DUP1 PUSH4 0x95B5E559 EQ PUSH2 0xD1 JUMPI JUMPDEST PUSH0 DUP1 REVERT JUMPDEST PUSH2 0x68 PUSH1 0x4 DUP1 CALLDATASIZE SUB DUP2 ADD SWAP1 PUSH2 0x63 SWAP2 SWAP1 PUSH2 0x1202 JUMP JUMPDEST PUSH2 0x104 JUMP JUMPDEST STOP JUMPDEST PUSH2 0x84 PUSH1 0x4 DUP1 CALLDATASIZE SUB DUP2 ADD SWAP1 PUSH2 0x7F SWAP2 SWAP1 PUSH2 0x13EA JUMP JUMPDEST PUSH2 0x2E4 JUMP JUMPDEST PUSH1 0x40 MLOAD PUSH2 0x92 SWAP3 SWAP2 SWAP1 PUSH2 0x14AB JUMP JUMPDEST PUSH1 0x40 MLOAD DUP1 SWAP2 SUB SWAP1 RETURN JUMPDEST PUSH2 0xB5 PUSH1 0x4 DUP1 CALLDATASIZE SUB DUP2 ADD SWAP1 PUSH2 0xB0 SWAP2 SWAP1 PUSH2 0x1513 JUMP JUMPDEST PUSH2 0x6D6 JUMP JUMPDEST PUSH1 0x40 MLOAD PUSH2 0xC8 SWAP8 SWAP7 SWAP6 SWAP5 SWAP4 SWAP3 SWAP2 SWAP1 PUSH2 0x159F JUMP JUMPDEST PUSH1 0x40 MLOAD DUP1 SWAP2 SUB SWAP1 RETURN JUMPDEST PUSH2 0xEB PUSH1 0x4 DUP1 CALLDATASIZE SUB DUP2 ADD SWAP1 PUSH2 0xE6 SWAP2 SWAP1 PUSH2 0x13EA JUMP JUMPDEST PUSH2 0x9C0 JUMP JUMPDEST PUSH1 0x40 MLOAD PUSH2 0xFB SWAP5 SWAP4 SWAP3 SWAP2 SWAP1 PUSH2 0x1732 JUMP JUMPDEST PUSH1 0x40 MLOAD DUP1 SWAP2 SUB SWAP1 RETURN JUMPDEST PUSH0 PUSH2 0x10D PUSH2 0xF10 JUMP JUMPDEST SWAP1 POP PUSH0 DUP1 PUSH0 PUSH2 0x15E DUP9 DUP9 DUP1 DUP1 PUSH1 0x1F ADD PUSH1 0x20 DUP1 SWAP2 DIV MUL PUSH1 0x20 ADD PUSH1 0x40 MLOAD SWAP1 DUP2 ADD PUSH1 0x40 MSTORE DUP1 SWAP4 SWAP3 SWAP2 SWAP1 DUP2 DUP2 MSTORE PUSH1 0x20 ADD DUP4 DUP4 DUP1 DUP3 DUP5 CALLDATACOPY PUSH0 DUP2 DUP5 ADD MSTORE PUSH1 0x1F NOT PUSH1 0x1F DUP3 ADD AND SWAP1 POP DUP1 DUP4 ADD SWAP3 POP POP POP POP POP POP POP PUSH2 0x9C0 JUMP JUMPDEST SWAP4 POP SWAP4 POP SWAP4 POP POP PUSH0 DUP1 PUSH2 0x1B3 DUP13 DUP13 DUP1 DUP1 PUSH1 0x1F ADD PUSH1 0x20 DUP1 SWAP2 DIV MUL PUSH1 0x20 ADD PUSH1 0x40 MLOAD SWAP1 DUP2 ADD PUSH1 0x40 MSTORE DUP1 SWAP4 SWAP3 SWAP2 SWAP1 DUP2 DUP2 MSTORE PUSH1 0x20 ADD DUP4 DUP4 DUP1 DUP3 DUP5 CALLDATACOPY PUSH0 DUP2 DUP5 ADD MSTORE PUSH1 0x1F NOT PUSH1 0x1F DUP3 ADD AND SWAP1 POP DUP1 DUP4 ADD SWAP3 POP POP POP POP POP POP POP PUSH2 0x2E4 JUMP JUMPDEST SWAP2 POP SWAP2 POP PUSH0 PUSH1 0x40 MLOAD DUP1 PUSH1 0xE0 ADD PUSH1 0x40 MSTORE DUP1 DUP9 DUP2 MSTORE PUSH1 0x20 ADD DUP4 DUP2 MSTORE PUSH1 0x20 ADD DUP5 DUP2 MSTORE PUSH1 0x20 ADD DUP11 DUP11 DUP1 DUP1 PUSH1 0x1F ADD PUSH1 0x20 DUP1 SWAP2 DIV MUL PUSH1 0x20 ADD PUSH1 0x40 MLOAD SWAP1 DUP2 ADD PUSH1 0x40 MSTORE DUP1 SWAP4 SWAP3 SWAP2 SWAP1 DUP2 DUP2 MSTORE PUSH1 0x20 ADD DUP4 DUP4 DUP1 DUP3 DUP5 CALLDATACOPY PUSH0 DUP2 DUP5 ADD MSTORE PUSH1 0x1F NOT PUSH1 0x1F DUP3 ADD AND SWAP1 POP DUP1 DUP4 ADD SWAP3 POP POP POP POP POP POP POP DUP2 MSTORE PUSH1 0x20 ADD DUP8 DUP2 MSTORE PUSH1 0x20 ADD DUP7 DUP2 MSTORE PUSH1 0x20 ADD DUP6 DUP2 MSTORE POP SWAP1 DUP1 PUSH1 0x1 DUP2 SLOAD ADD DUP1 DUP3 SSTORE DUP1 SWAP2 POP POP PUSH1 0x1 SWAP1 SUB SWAP1 PUSH0 MSTORE PUSH1 0x20 PUSH0 KECCAK256 SWAP1 PUSH1 0x7 MUL ADD PUSH0 SWAP1 SWAP2 SWAP1 SWAP2 SWAP1 SWAP2 POP PUSH0 DUP3 ADD MLOAD DUP2 PUSH0 ADD SWAP1 DUP2 PUSH2 0x267 SWAP2 SWAP1 PUSH2 0x197D JUMP JUMPDEST POP PUSH1 0x20 DUP3 ADD MLOAD DUP2 PUSH1 0x1 ADD SWAP1 DUP2 PUSH2 0x27D SWAP2 SWAP1 PUSH2 0x197D JUMP JUMPDEST POP PUSH1 0x40 DUP3 ADD MLOAD DUP2 PUSH1 0x2 ADD SWAP1 DUP2 PUSH2 0x293 SWAP2 SWAP1 PUSH2 0x197D JUMP JUMPDEST POP PUSH1 0x60 DUP3 ADD MLOAD DUP2 PUSH1 0x3 ADD SWAP1 DUP2 PUSH2 0x2A9 SWAP2 SWAP1 PUSH2 0x1AA4 JUMP JUMPDEST POP PUSH1 0x80 DUP3 ADD MLOAD DUP2 PUSH1 0x4 ADD SWAP1 DUP2 PUSH2 0x2BF SWAP2 SWAP1 PUSH2 0x197D JUMP JUMPDEST POP PUSH1 0xA0 DUP3 ADD MLOAD DUP2 PUSH1 0x5 ADD SSTORE PUSH1 0xC0 DUP3 ADD MLOAD DUP2 PUSH1 0x6 ADD SSTORE POP POP POP POP POP POP POP POP POP POP POP POP POP POP JUMP JUMPDEST PUSH1 0x60 DUP1 PUSH0 DUP4 SWAP1 POP PUSH0 PUSH1 0x32 PUSH8 0xFFFFFFFFFFFFFFFF DUP2 GT ISZERO PUSH2 0x307 JUMPI PUSH2 0x306 PUSH2 0x12C6 JUMP JUMPDEST JUMPDEST PUSH1 0x40 MLOAD SWAP1 DUP1 DUP3 MSTORE DUP1 PUSH1 0x1F ADD PUSH1 0x1F NOT AND PUSH1 0x20 ADD DUP3 ADD PUSH1 0x40 MSTORE DUP1 ISZERO PUSH2 0x339 JUMPI DUP2 PUSH1 0x20 ADD PUSH1 0x1 DUP3 MUL DUP1 CALLDATASIZE DUP4 CALLDATACOPY DUP1 DUP3 ADD SWAP2 POP POP SWAP1 POP JUMPDEST POP SWAP1 POP PUSH1 0xE6 DUP3 MLOAD GT ISZERO PUSH2 0x378 JUMPI PUSH1 0x40 MLOAD PUSH32 0xFFE4BAB500000000000000000000000000000000000000000000000000000000 DUP2 MSTORE PUSH1 0x4 ADD PUSH1 0x40 MLOAD DUP1 SWAP2 SUB SWAP1 REVERT JUMPDEST PUSH0 DUP1 PUSH1 0x1 DUP5 MLOAD PUSH2 0x388 SWAP2 SWAP1 PUSH2 0x1BA0 JUMP JUMPDEST SWAP1 POP PUSH1 0x2E PUSH1 0xF8 SHL DUP5 DUP3 DUP2 MLOAD DUP2 LT PUSH2 0x3A2 JUMPI PUSH2 0x3A1 PUSH2 0x1BD3 JUMP JUMPDEST JUMPDEST PUSH1 0x20 ADD ADD MLOAD PUSH1 0xF8 SHR PUSH1 0xF8 SHL PUSH31 0xFFFFFFFFFFFFFFFFFFFFFFFFFFFFFFFFFFFFFFFFFFFFFFFFFFFFFFFFFFFFFF NOT AND SUB PUSH2 0x406 JUMPI PUSH1 0x40 MLOAD PUSH32 0xFFE4BAB500000000000000000000000000000000000000000000000000000000 DUP2 MSTORE PUSH1 0x4 ADD PUSH1 0x40 MLOAD DUP1 SWAP2 SUB SWAP1 REVERT JUMPDEST JUMPDEST PUSH0 DUP5 DUP3 DUP2 MLOAD DUP2 LT PUSH2 0x41B JUMPI PUSH2 0x41A PUSH2 0x1BD3 JUMP JUMPDEST JUMPDEST PUSH1 0x20 ADD ADD MLOAD PUSH1 0xF8 SHR PUSH1 0xF8 SHL SWAP1 POP PUSH1 0x2E PUSH1 0xF8 SHL DUP2 PUSH31 0xFFFFFFFFFFFFFFFFFFFFFFFFFFFFFFFFFFFFFFFFFFFFFFFFFFFFFFFFFFFFFF NOT AND SUB PUSH2 0x45B JUMPI POP PUSH2 0x533 JUMP JUMPDEST PUSH1 0x31 DUP4 GT ISZERO PUSH2 0x496 JUMPI PUSH1 0x40 MLOAD PUSH32 0xFFE4BAB500000000000000000000000000000000000000000000000000000000 DUP2 MSTORE PUSH1 0x4 ADD PUSH1 0x40 MLOAD DUP1 SWAP2 SUB SWAP1 REVERT JUMPDEST DUP1 DUP5 DUP5 DUP2 MLOAD DUP2 LT PUSH2 0x4AA JUMPI PUSH2 0x4A9 PUSH2 0x1BD3 JUMP JUMPDEST JUMPDEST PUSH1 0x20 ADD ADD SWAP1 PUSH31 0xFFFFFFFFFFFFFFFFFFFFFFFFFFFFFFFFFFFFFFFFFFFFFFFFFFFFFFFFFFFFFF NOT AND SWAP1 DUP2 PUSH0 BYTE SWAP1 MSTORE8 POP DUP3 DUP1 PUSH2 0x4E3 SWAP1 PUSH2 0x1C00 JUMP JUMPDEST SWAP4 POP POP PUSH0 DUP3 SUB PUSH2 0x51F JUMPI PUSH1 0x40 MLOAD PUSH32 0xFFE4BAB500000000000000000000000000000000000000000000000000000000 DUP2 MSTORE PUSH1 0x4 ADD PUSH1 0x40 MLOAD DUP1 SWAP2 SUB SWAP1 REVERT JUMPDEST POP DUP1 DUP1 PUSH2 0x52B SWAP1 PUSH2 0x1C47 JUMP JUMPDEST SWAP2 POP POP PUSH2 0x407 JUMP JUMPDEST PUSH20 0x0 PUSH4 0xC5249BE9 DUP5 DUP5 PUSH1 0x40 MLOAD DUP4 PUSH4 0xFFFFFFFF AND PUSH1 0xE0 SHL DUP2 MSTORE PUSH1 0x4 ADD PUSH2 0x56C SWAP3 SWAP2 SWAP1 PUSH2 0x1CC5 JUMP JUMPDEST PUSH0 PUSH1 0x40 MLOAD DUP1 DUP4 SUB DUP2 DUP7 GAS DELEGATECALL ISZERO DUP1 ISZERO PUSH2 0x586 JUMPI RETURNDATASIZE PUSH0 DUP1 RETURNDATACOPY RETURNDATASIZE PUSH0 REVERT JUMPDEST POP POP POP POP PUSH1 0x40 MLOAD RETURNDATASIZE PUSH0 DUP3 RETURNDATACOPY RETURNDATASIZE PUSH1 0x1F NOT PUSH1 0x1F DUP3 ADD AND DUP3 ADD DUP1 PUSH1 0x40 MSTORE POP DUP2 ADD SWAP1 PUSH2 0x5AE SWAP2 SWAP1 PUSH2 0x1D91 JUMP JUMPDEST SWAP3 POP PUSH20 0x0 PUSH4 0x2F278ECB DUP5 PUSH1 0x40 MLOAD DUP3 PUSH4 0xFFFFFFFF AND PUSH1 0xE0 SHL DUP2 MSTORE PUSH1 0x4 ADD PUSH2 0x5E7 SWAP2 SWAP1 PUSH2 0x1DD8 JUMP JUMPDEST PUSH0 PUSH1 0x40 MLOAD DUP1 DUP4 SUB DUP2 DUP7 GAS DELEGATECALL ISZERO DUP1 ISZERO PUSH2 0x601 JUMPI RETURNDATASIZE PUSH0 DUP1 RETURNDATACOPY RETURNDATASIZE PUSH0 REVERT JUMPDEST POP POP POP POP PUSH1 0x40 MLOAD RETURNDATASIZE PUSH0 DUP3 RETURNDATACOPY RETURNDATASIZE PUSH1 0x1F NOT PUSH1 0x1F DUP3 ADD AND DUP3 ADD DUP1 PUSH1 0x40 MSTORE POP DUP2 ADD SWAP1 PUSH2 0x629 SWAP2 SWAP1 PUSH2 0x1D91 JUMP JUMPDEST SWAP3 POP PUSH0 PUSH1 0x1 DUP4 DUP7 MLOAD PUSH2 0x63B SWAP2 SWAP1 PUSH2 0x1BA0 JUMP JUMPDEST PUSH2 0x645 SWAP2 SWAP1 PUSH2 0x1BA0 JUMP JUMPDEST SWAP1 POP PUSH0 PUSH20 0x0 PUSH4 0xC5249BE9 DUP8 DUP5 PUSH1 0x40 MLOAD DUP4 PUSH4 0xFFFFFFFF AND PUSH1 0xE0 SHL DUP2 MSTORE PUSH1 0x4 ADD PUSH2 0x681 SWAP3 SWAP2 SWAP1 PUSH2 0x1CC5 JUMP JUMPDEST PUSH0 PUSH1 0x40 MLOAD DUP1 DUP4 SUB DUP2 DUP7 GAS DELEGATECALL ISZERO DUP1 ISZERO PUSH2 0x69B JUMPI RETURNDATASIZE PUSH0 DUP1 RETURNDATACOPY RETURNDATASIZE PUSH0 REVERT JUMPDEST POP POP POP POP PUSH1 0x40 MLOAD RETURNDATASIZE PUSH0 DUP3 RETURNDATACOPY RETURNDATASIZE PUSH1 0x1F NOT PUSH1 0x1F DUP3 ADD AND DUP3 ADD DUP1 PUSH1 0x40 MSTORE POP DUP2 ADD SWAP1 PUSH2 0x6C3 SWAP2 SWAP1 PUSH2 0x1D91 JUMP JUMPDEST SWAP1 POP DUP5 DUP2 SWAP8 POP SWAP8 POP POP POP POP POP POP POP SWAP2 POP SWAP2 JUMP JUMPDEST PUSH0 DUP2 DUP2 SLOAD DUP2 LT PUSH2 0x6E4 JUMPI PUSH0 DUP1 REVERT JUMPDEST SWAP1 PUSH0 MSTORE PUSH1 0x20 PUSH0 KECCAK256 SWAP1 PUSH1 0x7 MUL ADD PUSH0 SWAP2 POP SWAP1 POP DUP1 PUSH0 ADD DUP1 SLOAD PUSH2 0x703 SWAP1 PUSH2 0x17B0 JUMP JUMPDEST DUP1 PUSH1 0x1F ADD PUSH1 0x20 DUP1 SWAP2 DIV MUL PUSH1 0x20 ADD PUSH1 0x40 MLOAD SWAP1 DUP2 ADD PUSH1 0x40 MSTORE DUP1 SWAP3 SWAP2 SWAP1 DUP2 DUP2 MSTORE PUSH1 0x20 ADD DUP3 DUP1 SLOAD PUSH2 0x72F SWAP1 PUSH2 0x17B0 JUMP JUMPDEST DUP1 ISZERO PUSH2 0x77A JUMPI DUP1 PUSH1 0x1F LT PUSH2 0x751 JUMPI PUSH2 0x100 DUP1 DUP4 SLOAD DIV MUL DUP4 MSTORE SWAP2 PUSH1 0x20 ADD SWAP2 PUSH2 0x77A JUMP JUMPDEST DUP3 ADD SWAP2 SWAP1 PUSH0 MSTORE PUSH1 0x20 PUSH0 KECCAK256 SWAP1 JUMPDEST DUP2 SLOAD DUP2 MSTORE SWAP1 PUSH1 0x1 ADD SWAP1 PUSH1 0x20 ADD DUP1 DUP4 GT PUSH2 0x75D JUMPI DUP3 SWAP1 SUB PUSH1 0x1F AND DUP3 ADD SWAP2 JUMPDEST POP POP POP POP POP SWAP1 DUP1 PUSH1 0x1 ADD DUP1 SLOAD PUSH2 0x78F SWAP1 PUSH2 0x17B0 JUMP JUMPDEST DUP1 PUSH1 0x1F ADD PUSH1 0x20 DUP1 SWAP2 DIV MUL PUSH1 0x20 ADD PUSH1 0x40 MLOAD SWAP1 DUP2 ADD PUSH1 0x40 MSTORE DUP1 SWAP3 SWAP2 SWAP1 DUP2 DUP2 MSTORE PUSH1 0x20 ADD DUP3 DUP1 SLOAD PUSH2 0x7BB SWAP1 PUSH2 0x17B0 JUMP JUMPDEST DUP1 ISZERO PUSH2 0x806 JUMPI DUP1 PUSH1 0x1F LT PUSH2 0x7DD JUMPI PUSH2 0x100 DUP1 DUP4 SLOAD DIV MUL DUP4 MSTORE SWAP2 PUSH1 0x20 ADD SWAP2 PUSH2 0x806 JUMP JUMPDEST DUP3 ADD SWAP2 SWAP1 PUSH0 MSTORE PUSH1 0x20 PUSH0 KECCAK256 SWAP1 JUMPDEST DUP2 SLOAD DUP2 MSTORE SWAP1 PUSH1 0x1 ADD SWAP1 PUSH1 0x20 ADD DUP1 DUP4 GT PUSH2 0x7E9 JUMPI DUP3 SWAP1 SUB PUSH1 0x1F AND DUP3 ADD SWAP2 JUMPDEST POP POP POP POP POP SWAP1 DUP1 PUSH1 0x2 ADD DUP1 SLOAD PUSH2 0x81B SWAP1 PUSH2 0x17B0 JUMP JUMPDEST DUP1 PUSH1 0x1F ADD PUSH1 0x20 DUP1 SWAP2 DIV MUL PUSH1 0x20 ADD PUSH1 0x40 MLOAD SWAP1 DUP2 ADD PUSH1 0x40 MSTORE DUP1 SWAP3 SWAP2 SWAP1 DUP2 DUP2 MSTORE PUSH1 0x20 ADD DUP3 DUP1 SLOAD PUSH2 0x847 SWAP1 PUSH2 0x17B0 JUMP JUMPDEST DUP1 ISZERO PUSH2 0x892 JUMPI DUP1 PUSH1 0x1F LT PUSH2 0x869 JUMPI PUSH2 0x100 DUP1 DUP4 SLOAD DIV MUL DUP4 MSTORE SWAP2 PUSH1 0x20 ADD SWAP2 PUSH2 0x892 JUMP JUMPDEST DUP3 ADD SWAP2 SWAP1 PUSH0 MSTORE PUSH1 0x20 PUSH0 KECCAK256 SWAP1 JUMPDEST DUP2 SLOAD DUP2 MSTORE SWAP1 PUSH1 0x1 ADD SWAP1 PUSH1 0x20 ADD DUP1 DUP4 GT PUSH2 0x875 JUMPI DUP3 SWAP1 SUB PUSH1 0x1F AND DUP3 ADD SWAP2 JUMPDEST POP POP POP POP POP SWAP1 DUP1 PUSH1 0x3 ADD DUP1 SLOAD PUSH2 0x8A7 SWAP1 PUSH2 0x17B0 JUMP JUMPDEST DUP1 PUSH1 0x1F ADD PUSH1 0x20 DUP1 SWAP2 DIV MUL PUSH1 0x20 ADD PUSH1 0x40 MLOAD SWAP1 DUP2 ADD PUSH1 0x40 MSTORE DUP1 SWAP3 SWAP2 SWAP1 DUP2 DUP2 MSTORE PUSH1 0x20 ADD DUP3 DUP1 SLOAD PUSH2 0x8D3 SWAP1 PUSH2 0x17B0 JUMP JUMPDEST DUP1 ISZERO PUSH2 0x91E JUMPI DUP1 PUSH1 0x1F LT PUSH2 0x8F5 JUMPI PUSH2 0x100 DUP1 DUP4 SLOAD DIV MUL DUP4 MSTORE SWAP2 PUSH1 0x20 ADD SWAP2 PUSH2 0x91E JUMP JUMPDEST DUP3 ADD SWAP2 SWAP1 PUSH0 MSTORE PUSH1 0x20 PUSH0 KECCAK256 SWAP1 JUMPDEST DUP2 SLOAD DUP2 MSTORE SWAP1 PUSH1 0x1 ADD SWAP1 PUSH1 0x20 ADD DUP1 DUP4 GT PUSH2 0x901 JUMPI DUP3 SWAP1 SUB PUSH1 0x1F AND DUP3 ADD SWAP2 JUMPDEST POP POP POP POP POP SWAP1 DUP1 PUSH1 0x4 ADD DUP1 SLOAD PUSH2 0x933 SWAP1 PUSH2 0x17B0 JUMP JUMPDEST DUP1 PUSH1 0x1F ADD PUSH1 0x20 DUP1 SWAP2 DIV MUL PUSH1 0x20 ADD PUSH1 0x40 MLOAD SWAP1 DUP2 ADD PUSH1 0x40 MSTORE DUP1 SWAP3 SWAP2 SWAP1 DUP2 DUP2 MSTORE PUSH1 0x20 ADD DUP3 DUP1 SLOAD PUSH2 0x95F SWAP1 PUSH2 0x17B0 JUMP JUMPDEST DUP1 ISZERO PUSH2 0x9AA JUMPI DUP1 PUSH1 0x1F LT PUSH2 0x981 JUMPI PUSH2 0x100 DUP1 DUP4 SLOAD DIV MUL DUP4 MSTORE SWAP2 PUSH1 0x20 ADD SWAP2 PUSH2 0x9AA JUMP JUMPDEST DUP3 ADD SWAP2 SWAP1 PUSH0 MSTORE PUSH1 0x20 PUSH0 KECCAK256 SWAP1 JUMPDEST DUP2 SLOAD DUP2 MSTORE SWAP1 PUSH1 0x1 ADD SWAP1 PUSH1 0x20 ADD DUP1 DUP4 GT PUSH2 0x98D JUMPI DUP3 SWAP1 SUB PUSH1 0x1F AND DUP3 ADD SWAP2 JUMPDEST POP POP POP POP POP SWAP1 DUP1 PUSH1 0x5 ADD SLOAD SWAP1 DUP1 PUSH1 0x6 ADD SLOAD SWAP1 POP DUP8 JUMP JUMPDEST PUSH1 0x60 DUP1 PUSH0 DUP1 PUSH0 DUP1 PUSH0 DUP8 SWAP1 POP PUSH0 DUP2 MLOAD SWAP1 POP PUSH0 DUP3 MLOAD PUSH8 0xFFFFFFFFFFFFFFFF DUP2 GT ISZERO PUSH2 0x9EC JUMPI PUSH2 0x9EB PUSH2 0x12C6 JUMP JUMPDEST JUMPDEST PUSH1 0x40 MLOAD SWAP1 DUP1 DUP3 MSTORE DUP1 PUSH1 0x1F ADD PUSH1 0x1F NOT AND PUSH1 0x20 ADD DUP3 ADD PUSH1 0x40 MSTORE DUP1 ISZERO PUSH2 0xA1E JUMPI DUP2 PUSH1 0x20 ADD PUSH1 0x1 DUP3 MUL DUP1 CALLDATASIZE DUP4 CALLDATACOPY DUP1 DUP3 ADD SWAP2 POP POP SWAP1 POP JUMPDEST POP SWAP1 POP PUSH1 0x2F PUSH1 0xF8 SHL DUP4 PUSH0 DUP2 MLOAD DUP2 LT PUSH2 0xA39 JUMPI PUSH2 0xA38 PUSH2 0x1BD3 JUMP JUMPDEST JUMPDEST PUSH1 0x20 ADD ADD MLOAD PUSH1 0xF8 SHR PUSH1 0xF8 SHL PUSH31 0xFFFFFFFFFFFFFFFFFFFFFFFFFFFFFFFFFFFFFFFFFFFFFFFFFFFFFFFFFFFFFF NOT AND EQ PUSH2 0xA9D JUMPI PUSH1 0x40 MLOAD PUSH32 0xFF31F58600000000000000000000000000000000000000000000000000000000 DUP2 MSTORE PUSH1 0x4 ADD PUSH1 0x40 MLOAD DUP1 SWAP2 SUB SWAP1 REVERT JUMPDEST PUSH0 PUSH1 0x1 SWAP1 POP JUMPDEST DUP3 DUP2 LT ISZERO PUSH2 0xBE6 JUMPI PUSH1 0x1 DUP4 PUSH2 0xAB8 SWAP2 SWAP1 PUSH2 0x1BA0 JUMP JUMPDEST DUP2 EQ DUP1 ISZERO PUSH2 0xB08 JUMPI POP PUSH1 0x2F PUSH1 0xF8 SHL DUP5 DUP3 DUP2 MLOAD DUP2 LT PUSH2 0xAD9 JUMPI PUSH2 0xAD8 PUSH2 0x1BD3 JUMP JUMPDEST JUMPDEST PUSH1 0x20 ADD ADD MLOAD PUSH1 0xF8 SHR PUSH1 0xF8 SHL PUSH31 0xFFFFFFFFFFFFFFFFFFFFFFFFFFFFFFFFFFFFFFFFFFFFFFFFFFFFFFFFFFFFFF NOT AND EQ JUMPDEST PUSH2 0xBD3 JUMPI PUSH1 0x2F PUSH1 0xF8 SHL DUP5 DUP3 DUP2 MLOAD DUP2 LT PUSH2 0xB24 JUMPI PUSH2 0xB23 PUSH2 0x1BD3 JUMP JUMPDEST JUMPDEST PUSH1 0x20 ADD ADD MLOAD PUSH1 0xF8 SHR PUSH1 0xF8 SHL PUSH31 0xFFFFFFFFFFFFFFFFFFFFFFFFFFFFFFFFFFFFFFFFFFFFFFFFFFFFFFFFFFFFFF NOT AND SUB PUSH2 0xB65 JUMPI DUP6 DUP1 PUSH2 0xB61 SWAP1 PUSH2 0x1C00 JUMP JUMPDEST SWAP7 POP POP JUMPDEST DUP4 DUP2 DUP2 MLOAD DUP2 LT PUSH2 0xB78 JUMPI PUSH2 0xB77 PUSH2 0x1BD3 JUMP JUMPDEST JUMPDEST PUSH1 0x20 ADD ADD MLOAD PUSH1 0xF8 SHR PUSH1 0xF8 SHL DUP3 DUP7 DUP2 MLOAD DUP2 LT PUSH2 0xB96 JUMPI PUSH2 0xB95 PUSH2 0x1BD3 JUMP JUMPDEST JUMPDEST PUSH1 0x20 ADD ADD SWAP1 PUSH31 0xFFFFFFFFFFFFFFFFFFFFFFFFFFFFFFFFFFFFFFFFFFFFFFFFFFFFFFFFFFFFFF NOT AND SWAP1 DUP2 PUSH0 BYTE SWAP1 MSTORE8 POP DUP5 DUP1 PUSH2 0xBCF SWAP1 PUSH2 0x1C00 JUMP JUMPDEST SWAP6 POP POP JUMPDEST DUP1 DUP1 PUSH2 0xBDE SWAP1 PUSH2 0x1C00 JUMP JUMPDEST SWAP2 POP POP PUSH2 0xAA3 JUMP JUMPDEST POP PUSH0 DUP5 PUSH8 0xFFFFFFFFFFFFFFFF DUP2 GT ISZERO PUSH2 0xC02 JUMPI PUSH2 0xC01 PUSH2 0x12C6 JUMP JUMPDEST JUMPDEST PUSH1 0x40 MLOAD SWAP1 DUP1 DUP3 MSTORE DUP1 PUSH1 0x1F ADD PUSH1 0x1F NOT AND PUSH1 0x20 ADD DUP3 ADD PUSH1 0x40 MSTORE DUP1 ISZERO PUSH2 0xC34 JUMPI DUP2 PUSH1 0x20 ADD PUSH1 0x1 DUP3 MUL DUP1 CALLDATASIZE DUP4 CALLDATACOPY DUP1 DUP3 ADD SWAP2 POP POP SWAP1 POP JUMPDEST POP SWAP1 POP PUSH0 PUSH1 0xFA PUSH8 0xFFFFFFFFFFFFFFFF DUP2 GT ISZERO PUSH2 0xC53 JUMPI PUSH2 0xC52 PUSH2 0x12C6 JUMP JUMPDEST JUMPDEST PUSH1 0x40 MLOAD SWAP1 DUP1 DUP3 MSTORE DUP1 PUSH1 0x1F ADD PUSH1 0x1F NOT AND PUSH1 0x20 ADD DUP3 ADD PUSH1 0x40 MSTORE DUP1 ISZERO PUSH2 0xC85 JUMPI DUP2 PUSH1 0x20 ADD PUSH1 0x1 DUP3 MUL DUP1 CALLDATASIZE DUP4 CALLDATACOPY DUP1 DUP3 ADD SWAP2 POP POP SWAP1 POP JUMPDEST POP SWAP1 POP PUSH0 DUP1 PUSH0 PUSH1 0x1 DUP11 PUSH2 0xC98 SWAP2 SWAP1 PUSH2 0x1DF8 JUMP JUMPDEST PUSH8 0xFFFFFFFFFFFFFFFF DUP2 GT ISZERO PUSH2 0xCB1 JUMPI PUSH2 0xCB0 PUSH2 0x12C6 JUMP JUMPDEST JUMPDEST PUSH1 0x40 MLOAD SWAP1 DUP1 DUP3 MSTORE DUP1 PUSH1 0x20 MUL PUSH1 0x20 ADD DUP3 ADD PUSH1 0x40 MSTORE DUP1 ISZERO PUSH2 0xCE4 JUMPI DUP2 PUSH1 0x20 ADD JUMPDEST PUSH1 0x60 DUP2 MSTORE PUSH1 0x20 ADD SWAP1 PUSH1 0x1 SWAP1 SUB SWAP1 DUP2 PUSH2 0xCCF JUMPI SWAP1 POP JUMPDEST POP SWAP1 POP PUSH0 JUMPDEST DUP10 DUP2 LT ISZERO PUSH2 0xEF2 JUMPI PUSH0 DUP8 DUP3 DUP2 MLOAD DUP2 LT PUSH2 0xD05 JUMPI PUSH2 0xD04 PUSH2 0x1BD3 JUMP JUMPDEST JUMPDEST PUSH1 0x20 ADD ADD MLOAD PUSH1 0xF8 SHR PUSH1 0xF8 SHL SWAP1 POP PUSH0 PUSH1 0x1 DUP13 PUSH2 0xD20 SWAP2 SWAP1 PUSH2 0x1BA0 JUMP JUMPDEST DUP4 EQ SWAP1 POP PUSH0 PUSH1 0x2F PUSH1 0xF8 SHL DUP4 PUSH31 0xFFFFFFFFFFFFFFFFFFFFFFFFFFFFFFFFFFFFFFFFFFFFFFFFFFFFFFFFFFFFFF NOT AND EQ SWAP1 POP DUP1 PUSH2 0xDA6 JUMPI DUP3 DUP9 DUP9 DUP2 MLOAD DUP2 LT PUSH2 0xD69 JUMPI PUSH2 0xD68 PUSH2 0x1BD3 JUMP JUMPDEST JUMPDEST PUSH1 0x20 ADD ADD SWAP1 PUSH31 0xFFFFFFFFFFFFFFFFFFFFFFFFFFFFFFFFFFFFFFFFFFFFFFFFFFFFFFFFFFFFFF NOT AND SWAP1 DUP2 PUSH0 BYTE SWAP1 MSTORE8 POP DUP7 DUP1 PUSH2 0xDA2 SWAP1 PUSH2 0x1C00 JUMP JUMPDEST SWAP8 POP POP JUMPDEST DUP1 DUP1 PUSH2 0xDAF JUMPI POP DUP2 JUMPDEST ISZERO PUSH2 0xE5F JUMPI PUSH20 0x0 PUSH4 0xC5249BE9 DUP10 DUP10 PUSH1 0x40 MLOAD DUP4 PUSH4 0xFFFFFFFF AND PUSH1 0xE0 SHL DUP2 MSTORE PUSH1 0x4 ADD PUSH2 0xDED SWAP3 SWAP2 SWAP1 PUSH2 0x1CC5 JUMP JUMPDEST PUSH0 PUSH1 0x40 MLOAD DUP1 DUP4 SUB DUP2 DUP7 GAS DELEGATECALL ISZERO DUP1 ISZERO PUSH2 0xE07 JUMPI RETURNDATASIZE PUSH0 DUP1 RETURNDATACOPY RETURNDATASIZE PUSH0 REVERT JUMPDEST POP POP POP POP PUSH1 0x40 MLOAD RETURNDATASIZE PUSH0 DUP3 RETURNDATACOPY RETURNDATASIZE PUSH1 0x1F NOT PUSH1 0x1F DUP3 ADD AND DUP3 ADD DUP1 PUSH1 0x40 MSTORE POP DUP2 ADD SWAP1 PUSH2 0xE2F SWAP2 SWAP1 PUSH2 0x1D91 JUMP JUMPDEST DUP6 DUP8 DUP2 MLOAD DUP2 LT PUSH2 0xE42 JUMPI PUSH2 0xE41 PUSH2 0x1BD3 JUMP JUMPDEST JUMPDEST PUSH1 0x20 MUL PUSH1 0x20 ADD ADD DUP2 SWAP1 MSTORE POP DUP6 DUP1 PUSH2 0xE58 SWAP1 PUSH2 0x1C00 JUMP JUMPDEST SWAP7 POP POP PUSH0 SWAP7 POP JUMPDEST PUSH1 0xE6 DUP8 GT ISZERO PUSH2 0xE9A JUMPI PUSH1 0x40 MLOAD PUSH32 0xFF31F58600000000000000000000000000000000000000000000000000000000 DUP2 MSTORE PUSH1 0x4 ADD PUSH1 0x40 MLOAD DUP1 SWAP2 SUB SWAP1 REVERT JUMPDEST DUP3 DUP10 DUP6 DUP2 MLOAD DUP2 LT PUSH2 0xEAE JUMPI PUSH2 0xEAD PUSH2 0x1BD3 JUMP JUMPDEST JUMPDEST PUSH1 0x20 ADD ADD SWAP1 PUSH31 0xFFFFFFFFFFFFFFFFFFFFFFFFFFFFFFFFFFFFFFFFFFFFFFFFFFFFFFFFFFFFFF NOT AND SWAP1 DUP2 PUSH0 BYTE SWAP1 MSTORE8 POP POP POP POP DUP1 DUP1 PUSH2 0xEEA SWAP1 PUSH2 0x1C00 JUMP JUMPDEST SWAP2 POP POP PUSH2 0xCE9 JUMP JUMPDEST POP DUP1 DUP6 DUP12 DUP12 SWAP14 POP SWAP14 POP SWAP14 POP SWAP14 POP POP POP POP POP POP POP POP POP POP POP SWAP2 SWAP4 POP SWAP2 SWAP4 JUMP JUMPDEST PUSH1 0x60 PUSH2 0xF1B TIMESTAMP PUSH2 0xF20 JUMP JUMPDEST SWAP1 POP SWAP1 JUMP JUMPDEST PUSH1 0x60 PUSH0 PUSH1 0x1 PUSH2 0xF2E DUP5 PUSH2 0xFEA JUMP JUMPDEST ADD SWAP1 POP PUSH0 DUP2 PUSH8 0xFFFFFFFFFFFFFFFF DUP2 GT ISZERO PUSH2 0xF4C JUMPI PUSH2 0xF4B PUSH2 0x12C6 JUMP JUMPDEST JUMPDEST PUSH1 0x40 MLOAD SWAP1 DUP1 DUP3 MSTORE DUP1 PUSH1 0x1F ADD PUSH1 0x1F NOT AND PUSH1 0x20 ADD DUP3 ADD PUSH1 0x40 MSTORE DUP1 ISZERO PUSH2 0xF7E JUMPI DUP2 PUSH1 0x20 ADD PUSH1 0x1 DUP3 MUL DUP1 CALLDATASIZE DUP4 CALLDATACOPY DUP1 DUP3 ADD SWAP2 POP POP SWAP1 POP JUMPDEST POP SWAP1 POP PUSH0 DUP3 PUSH1 0x20 ADD DUP3 ADD SWAP1 POP JUMPDEST PUSH1 0x1 ISZERO PUSH2 0xFDF JUMPI DUP1 DUP1 PUSH1 0x1 SWAP1 SUB SWAP2 POP POP PUSH32 0x3031323334353637383961626364656600000000000000000000000000000000 PUSH1 0xA DUP7 MOD BYTE DUP2 MSTORE8 PUSH1 0xA DUP6 DUP2 PUSH2 0xFD4 JUMPI PUSH2 0xFD3 PUSH2 0x1E2B JUMP JUMPDEST JUMPDEST DIV SWAP5 POP PUSH0 DUP6 SUB PUSH2 0xF8B JUMPI JUMPDEST DUP2 SWAP4 POP POP POP POP SWAP2 SWAP1 POP JUMP JUMPDEST PUSH0 DUP1 PUSH0 SWAP1 POP PUSH27 0x184F03E93FF9F4DAA797ED6E38ED64BF6A1F010000000000000000 DUP4 LT PUSH2 0x1046 JUMPI PUSH27 0x184F03E93FF9F4DAA797ED6E38ED64BF6A1F010000000000000000 DUP4 DUP2 PUSH2 0x103C JUMPI PUSH2 0x103B PUSH2 0x1E2B JUMP JUMPDEST JUMPDEST DIV SWAP3 POP PUSH1 0x40 DUP2 ADD SWAP1 POP JUMPDEST PUSH14 0x4EE2D6D415B85ACEF8100000000 DUP4 LT PUSH2 0x1083 JUMPI PUSH14 0x4EE2D6D415B85ACEF8100000000 DUP4 DUP2 PUSH2 0x1079 JUMPI PUSH2 0x1078 PUSH2 0x1E2B JUMP JUMPDEST JUMPDEST DIV SWAP3 POP PUSH1 0x20 DUP2 ADD SWAP1 POP JUMPDEST PUSH7 0x2386F26FC10000 DUP4 LT PUSH2 0x10B2 JUMPI PUSH7 0x2386F26FC10000 DUP4 DUP2 PUSH2 0x10A8 JUMPI PUSH2 0x10A7 PUSH2 0x1E2B JUMP JUMPDEST JUMPDEST DIV SWAP3 POP PUSH1 0x10 DUP2 ADD SWAP1 POP JUMPDEST PUSH4 0x5F5E100 DUP4 LT PUSH2 0x10DB JUMPI PUSH4 0x5F5E100 DUP4 DUP2 PUSH2 0x10D1 JUMPI PUSH2 0x10D0 PUSH2 0x1E2B JUMP JUMPDEST JUMPDEST DIV SWAP3 POP PUSH1 0x8 DUP2 ADD SWAP1 POP JUMPDEST PUSH2 0x2710 DUP4 LT PUSH2 0x1100 JUMPI PUSH2 0x2710 DUP4 DUP2 PUSH2 0x10F6 JUMPI PUSH2 0x10F5 PUSH2 0x1E2B JUMP JUMPDEST JUMPDEST DIV SWAP3 POP PUSH1 0x4 DUP2 ADD SWAP1 POP JUMPDEST PUSH1 0x64 DUP4 LT PUSH2 0x1123 JUMPI PUSH1 0x64 DUP4 DUP2 PUSH2 0x1119 JUMPI PUSH2 0x1118 PUSH2 0x1E2B JUMP JUMPDEST JUMPDEST DIV SWAP3 POP PUSH1 0x2 DUP2 ADD SWAP1 POP JUMPDEST PUSH1 0xA DUP4 LT PUSH2 0x1132 JUMPI PUSH1 0x1 DUP2 ADD SWAP1 POP JUMPDEST DUP1 SWAP2 POP POP SWAP2 SWAP1 POP JUMP JUMPDEST PUSH0 PUSH1 0x40 MLOAD SWAP1 POP SWAP1 JUMP JUMPDEST PUSH0 DUP1 REVERT JUMPDEST PUSH0 DUP1 REVERT JUMPDEST PUSH0 DUP1 REVERT JUMPDEST PUSH0 DUP1 REVERT JUMPDEST PUSH0 DUP1 REVERT JUMPDEST PUSH0 DUP1 DUP4 PUSH1 0x1F DUP5 ADD SLT PUSH2 0x116D JUMPI PUSH2 0x116C PUSH2 0x114C JUMP JUMPDEST JUMPDEST DUP3 CALLDATALOAD SWAP1 POP PUSH8 0xFFFFFFFFFFFFFFFF DUP2 GT ISZERO PUSH2 0x118A JUMPI PUSH2 0x1189 PUSH2 0x1150 JUMP JUMPDEST JUMPDEST PUSH1 0x20 DUP4 ADD SWAP2 POP DUP4 PUSH1 0x1 DUP3 MUL DUP4 ADD GT ISZERO PUSH2 0x11A6 JUMPI PUSH2 0x11A5 PUSH2 0x1154 JUMP JUMPDEST JUMPDEST SWAP3 POP SWAP3 SWAP1 POP JUMP JUMPDEST PUSH0 DUP1 DUP4 PUSH1 0x1F DUP5 ADD SLT PUSH2 0x11C2 JUMPI PUSH2 0x11C1 PUSH2 0x114C JUMP JUMPDEST JUMPDEST DUP3 CALLDATALOAD SWAP1 POP PUSH8 0xFFFFFFFFFFFFFFFF DUP2 GT ISZERO PUSH2 0x11DF JUMPI PUSH2 0x11DE PUSH2 0x1150 JUMP JUMPDEST JUMPDEST PUSH1 0x20 DUP4 ADD SWAP2 POP DUP4 PUSH1 0x1 DUP3 MUL DUP4 ADD GT ISZERO PUSH2 0x11FB JUMPI PUSH2 0x11FA PUSH2 0x1154 JUMP JUMPDEST JUMPDEST SWAP3 POP SWAP3 SWAP1 POP JUMP JUMPDEST PUSH0 DUP1 PUSH0 DUP1 PUSH0 DUP1 PUSH1 0x60 DUP8 DUP10 SUB SLT ISZERO PUSH2 0x121C JUMPI PUSH2 0x121B PUSH2 0x1144 JUMP JUMPDEST JUMPDEST PUSH0 DUP8 ADD CALLDATALOAD PUSH8 0xFFFFFFFFFFFFFFFF DUP2 GT ISZERO PUSH2 0x1239 JUMPI PUSH2 0x1238 PUSH2 0x1148 JUMP JUMPDEST JUMPDEST PUSH2 0x1245 DUP10 DUP3 DUP11 ADD PUSH2 0x1158 JUMP JUMPDEST SWAP7 POP SWAP7 POP POP PUSH1 0x20 DUP8 ADD CALLDATALOAD PUSH8 0xFFFFFFFFFFFFFFFF DUP2 GT ISZERO PUSH2 0x1268 JUMPI PUSH2 0x1267 PUSH2 0x1148 JUMP JUMPDEST JUMPDEST PUSH2 0x1274 DUP10 DUP3 DUP11 ADD PUSH2 0x1158 JUMP JUMPDEST SWAP5 POP SWAP5 POP POP PUSH1 0x40 DUP8 ADD CALLDATALOAD PUSH8 0xFFFFFFFFFFFFFFFF DUP2 GT ISZERO PUSH2 0x1297 JUMPI PUSH2 0x1296 PUSH2 0x1148 JUMP JUMPDEST JUMPDEST PUSH2 0x12A3 DUP10 DUP3 DUP11 ADD PUSH2 0x11AD JUMP JUMPDEST SWAP3 POP SWAP3 POP POP SWAP3 SWAP6 POP SWAP3 SWAP6 POP SWAP3 SWAP6 JUMP JUMPDEST PUSH0 DUP1 REVERT JUMPDEST PUSH0 PUSH1 0x1F NOT PUSH1 0x1F DUP4 ADD AND SWAP1 POP SWAP2 SWAP1 POP JUMP JUMPDEST PUSH32 0x4E487B7100000000000000000000000000000000000000000000000000000000 PUSH0 MSTORE PUSH1 0x41 PUSH1 0x4 MSTORE PUSH1 0x24 PUSH0 REVERT JUMPDEST PUSH2 0x12FC DUP3 PUSH2 0x12B6 JUMP JUMPDEST DUP2 ADD DUP2 DUP2 LT PUSH8 0xFFFFFFFFFFFFFFFF DUP3 GT OR ISZERO PUSH2 0x131B JUMPI PUSH2 0x131A PUSH2 0x12C6 JUMP JUMPDEST JUMPDEST DUP1 PUSH1 0x40 MSTORE POP POP POP JUMP JUMPDEST PUSH0 PUSH2 0x132D PUSH2 0x113B JUMP JUMPDEST SWAP1 POP PUSH2 0x1339 DUP3 DUP3 PUSH2 0x12F3 JUMP JUMPDEST SWAP2 SWAP1 POP JUMP JUMPDEST PUSH0 PUSH8 0xFFFFFFFFFFFFFFFF DUP3 GT ISZERO PUSH2 0x1358 JUMPI PUSH2 0x1357 PUSH2 0x12C6 JUMP JUMPDEST JUMPDEST PUSH2 0x1361 DUP3 PUSH2 0x12B6 JUMP JUMPDEST SWAP1 POP PUSH1 0x20 DUP2 ADD SWAP1 POP SWAP2 SWAP1 POP JUMP JUMPDEST DUP3 DUP2 DUP4 CALLDATACOPY PUSH0 DUP4 DUP4 ADD MSTORE POP POP POP JUMP JUMPDEST PUSH0 PUSH2 0x138E PUSH2 0x1389 DUP5 PUSH2 0x133E JUMP JUMPDEST PUSH2 0x1324 JUMP JUMPDEST SWAP1 POP DUP3 DUP2 MSTORE PUSH1 0x20 DUP2 ADD DUP5 DUP5 DUP5 ADD GT ISZERO PUSH2 0x13AA JUMPI PUSH2 0x13A9 PUSH2 0x12B2 JUMP JUMPDEST JUMPDEST PUSH2 0x13B5 DUP5 DUP3 DUP6 PUSH2 0x136E JUMP JUMPDEST POP SWAP4 SWAP3 POP POP POP JUMP JUMPDEST PUSH0 DUP3 PUSH1 0x1F DUP4 ADD SLT PUSH2 0x13D1 JUMPI PUSH2 0x13D0 PUSH2 0x114C JUMP JUMPDEST JUMPDEST DUP2 CALLDATALOAD PUSH2 0x13E1 DUP5 DUP3 PUSH1 0x20 DUP7 ADD PUSH2 0x137C JUMP JUMPDEST SWAP2 POP POP SWAP3 SWAP2 POP POP JUMP JUMPDEST PUSH0 PUSH1 0x20 DUP3 DUP5 SUB SLT ISZERO PUSH2 0x13FF JUMPI PUSH2 0x13FE PUSH2 0x1144 JUMP JUMPDEST JUMPDEST PUSH0 DUP3 ADD CALLDATALOAD PUSH8 0xFFFFFFFFFFFFFFFF DUP2 GT ISZERO PUSH2 0x141C JUMPI PUSH2 0x141B PUSH2 0x1148 JUMP JUMPDEST JUMPDEST PUSH2 0x1428 DUP5 DUP3 DUP6 ADD PUSH2 0x13BD JUMP JUMPDEST SWAP2 POP POP SWAP3 SWAP2 POP POP JUMP JUMPDEST PUSH0 DUP2 MLOAD SWAP1 POP SWAP2 SWAP1 POP JUMP JUMPDEST PUSH0 DUP3 DUP3 MSTORE PUSH1 0x20 DUP3 ADD SWAP1 POP SWAP3 SWAP2 POP POP JUMP JUMPDEST PUSH0 JUMPDEST DUP4 DUP2 LT ISZERO PUSH2 0x1468 JUMPI DUP1 DUP3 ADD MLOAD DUP2 DUP5 ADD MSTORE PUSH1 0x20 DUP2 ADD SWAP1 POP PUSH2 0x144D JUMP JUMPDEST PUSH0 DUP5 DUP5 ADD MSTORE POP POP POP POP JUMP JUMPDEST PUSH0 PUSH2 0x147D DUP3 PUSH2 0x1431 JUMP JUMPDEST PUSH2 0x1487 DUP2 DUP6 PUSH2 0x143B JUMP JUMPDEST SWAP4 POP PUSH2 0x1497 DUP2 DUP6 PUSH1 0x20 DUP7 ADD PUSH2 0x144B JUMP JUMPDEST PUSH2 0x14A0 DUP2 PUSH2 0x12B6 JUMP JUMPDEST DUP5 ADD SWAP2 POP POP SWAP3 SWAP2 POP POP JUMP JUMPDEST PUSH0 PUSH1 0x40 DUP3 ADD SWAP1 POP DUP2 DUP2 SUB PUSH0 DUP4 ADD MSTORE PUSH2 0x14C3 DUP2 DUP6 PUSH2 0x1473 JUMP JUMPDEST SWAP1 POP DUP2 DUP2 SUB PUSH1 0x20 DUP4 ADD MSTORE PUSH2 0x14D7 DUP2 DUP5 PUSH2 0x1473 JUMP JUMPDEST SWAP1 POP SWAP4 SWAP3 POP POP POP JUMP JUMPDEST PUSH0 DUP2 SWAP1 POP SWAP2 SWAP1 POP JUMP JUMPDEST PUSH2 0x14F2 DUP2 PUSH2 0x14E0 JUMP JUMPDEST DUP2 EQ PUSH2 0x14FC JUMPI PUSH0 DUP1 REVERT JUMPDEST POP JUMP JUMPDEST PUSH0 DUP2 CALLDATALOAD SWAP1 POP PUSH2 0x150D DUP2 PUSH2 0x14E9 JUMP JUMPDEST SWAP3 SWAP2 POP POP JUMP JUMPDEST PUSH0 PUSH1 0x20 DUP3 DUP5 SUB SLT ISZERO PUSH2 0x1528 JUMPI PUSH2 0x1527 PUSH2 0x1144 JUMP JUMPDEST JUMPDEST PUSH0 PUSH2 0x1535 DUP5 DUP3 DUP6 ADD PUSH2 0x14FF JUMP JUMPDEST SWAP2 POP POP SWAP3 SWAP2 POP POP JUMP JUMPDEST PUSH0 DUP2 MLOAD SWAP1 POP SWAP2 SWAP1 POP JUMP JUMPDEST PUSH0 DUP3 DUP3 MSTORE PUSH1 0x20 DUP3 ADD SWAP1 POP SWAP3 SWAP2 POP POP JUMP JUMPDEST PUSH0 PUSH2 0x1562 DUP3 PUSH2 0x153E JUMP JUMPDEST PUSH2 0x156C DUP2 DUP6 PUSH2 0x1548 JUMP JUMPDEST SWAP4 POP PUSH2 0x157C DUP2 DUP6 PUSH1 0x20 DUP7 ADD PUSH2 0x144B JUMP JUMPDEST PUSH2 0x1585 DUP2 PUSH2 0x12B6 JUMP JUMPDEST DUP5 ADD SWAP2 POP POP SWAP3 SWAP2 POP POP JUMP JUMPDEST PUSH2 0x1599 DUP2 PUSH2 0x14E0 JUMP JUMPDEST DUP3 MSTORE POP POP JUMP JUMPDEST PUSH0 PUSH1 0xE0 DUP3 ADD SWAP1 POP DUP2 DUP2 SUB PUSH0 DUP4 ADD MSTORE PUSH2 0x15B7 DUP2 DUP11 PUSH2 0x1473 JUMP JUMPDEST SWAP1 POP DUP2 DUP2 SUB PUSH1 0x20 DUP4 ADD MSTORE PUSH2 0x15CB DUP2 DUP10 PUSH2 0x1473 JUMP JUMPDEST SWAP1 POP DUP2 DUP2 SUB PUSH1 0x40 DUP4 ADD MSTORE PUSH2 0x15DF DUP2 DUP9 PUSH2 0x1473 JUMP JUMPDEST SWAP1 POP DUP2 DUP2 SUB PUSH1 0x60 DUP4 ADD MSTORE PUSH2 0x15F3 DUP2 DUP8 PUSH2 0x1558 JUMP JUMPDEST SWAP1 POP DUP2 DUP2 SUB PUSH1 0x80 DUP4 ADD MSTORE PUSH2 0x1607 DUP2 DUP7 PUSH2 0x1473 JUMP JUMPDEST SWAP1 POP PUSH2 0x1616 PUSH1 0xA0 DUP4 ADD DUP6 PUSH2 0x1590 JUMP JUMPDEST PUSH2 0x1623 PUSH1 0xC0 DUP4 ADD DUP5 PUSH2 0x1590 JUMP JUMPDEST SWAP9 SWAP8 POP POP POP POP POP POP POP POP JUMP JUMPDEST PUSH0 DUP2 MLOAD SWAP1 POP SWAP2 SWAP1 POP JUMP JUMPDEST PUSH0 DUP3 DUP3 MSTORE PUSH1 0x20 DUP3 ADD SWAP1 POP SWAP3 SWAP2 POP POP JUMP JUMPDEST PUSH0 DUP2 SWAP1 POP PUSH1 0x20 DUP3 ADD SWAP1 POP SWAP2 SWAP1 POP JUMP JUMPDEST PUSH0 DUP3 DUP3 MSTORE PUSH1 0x20 DUP3 ADD SWAP1 POP SWAP3 SWAP2 POP POP JUMP JUMPDEST PUSH0 PUSH2 0x1672 DUP3 PUSH2 0x1431 JUMP JUMPDEST PUSH2 0x167C DUP2 DUP6 PUSH2 0x1658 JUMP JUMPDEST SWAP4 POP PUSH2 0x168C DUP2 DUP6 PUSH1 0x20 DUP7 ADD PUSH2 0x144B JUMP JUMPDEST PUSH2 0x1695 DUP2 PUSH2 0x12B6 JUMP JUMPDEST DUP5 ADD SWAP2 POP POP SWAP3 SWAP2 POP POP JUMP JUMPDEST PUSH0 PUSH2 0x16AB DUP4 DUP4 PUSH2 0x1668 JUMP JUMPDEST SWAP1 POP SWAP3 SWAP2 POP POP JUMP JUMPDEST PUSH0 PUSH1 0x20 DUP3 ADD SWAP1 POP SWAP2 SWAP1 POP JUMP JUMPDEST PUSH0 PUSH2 0x16C9 DUP3 PUSH2 0x162F JUMP JUMPDEST PUSH2 0x16D3 DUP2 DUP6 PUSH2 0x1639 JUMP JUMPDEST SWAP4 POP DUP4 PUSH1 0x20 DUP3 MUL DUP6 ADD PUSH2 0x16E5 DUP6 PUSH2 0x1649 JUMP JUMPDEST DUP1 PUSH0 JUMPDEST DUP6 DUP2 LT ISZERO PUSH2 0x1720 JUMPI DUP5 DUP5 SUB DUP10 MSTORE DUP2 MLOAD PUSH2 0x1701 DUP6 DUP3 PUSH2 0x16A0 JUMP JUMPDEST SWAP5 POP PUSH2 0x170C DUP4 PUSH2 0x16B3 JUMP JUMPDEST SWAP3 POP PUSH1 0x20 DUP11 ADD SWAP10 POP POP PUSH1 0x1 DUP2 ADD SWAP1 POP PUSH2 0x16E8 JUMP JUMPDEST POP DUP3 SWAP8 POP DUP8 SWAP6 POP POP POP POP POP POP SWAP3 SWAP2 POP POP JUMP JUMPDEST PUSH0 PUSH1 0x80 DUP3 ADD SWAP1 POP DUP2 DUP2 SUB PUSH0 DUP4 ADD MSTORE PUSH2 0x174A DUP2 DUP8 PUSH2 0x16BF JUMP JUMPDEST SWAP1 POP DUP2 DUP2 SUB PUSH1 0x20 DUP4 ADD MSTORE PUSH2 0x175E DUP2 DUP7 PUSH2 0x1473 JUMP JUMPDEST SWAP1 POP PUSH2 0x176D PUSH1 0x40 DUP4 ADD DUP6 PUSH2 0x1590 JUMP JUMPDEST PUSH2 0x177A PUSH1 0x60 DUP4 ADD DUP5 PUSH2 0x1590 JUMP JUMPDEST SWAP6 SWAP5 POP POP POP POP POP JUMP JUMPDEST PUSH32 0x4E487B7100000000000000000000000000000000000000000000000000000000 PUSH0 MSTORE PUSH1 0x22 PUSH1 0x4 MSTORE PUSH1 0x24 PUSH0 REVERT JUMPDEST PUSH0 PUSH1 0x2 DUP3 DIV SWAP1 POP PUSH1 0x1 DUP3 AND DUP1 PUSH2 0x17C7 JUMPI PUSH1 0x7F DUP3 AND SWAP2 POP JUMPDEST PUSH1 0x20 DUP3 LT DUP2 SUB PUSH2 0x17DA JUMPI PUSH2 0x17D9 PUSH2 0x1783 JUMP JUMPDEST JUMPDEST POP SWAP2 SWAP1 POP JUMP JUMPDEST PUSH0 DUP2 SWAP1 POP DUP2 PUSH0 MSTORE PUSH1 0x20 PUSH0 KECCAK256 SWAP1 POP SWAP2 SWAP1 POP JUMP JUMPDEST PUSH0 PUSH1 0x20 PUSH1 0x1F DUP4 ADD DIV SWAP1 POP SWAP2 SWAP1 POP JUMP JUMPDEST PUSH0 DUP3 DUP3 SHL SWAP1 POP SWAP3 SWAP2 POP POP JUMP JUMPDEST PUSH0 PUSH1 0x8 DUP4 MUL PUSH2 0x183C PUSH32 0xFFFFFFFFFFFFFFFFFFFFFFFFFFFFFFFFFFFFFFFFFFFFFFFFFFFFFFFFFFFFFFFF DUP3 PUSH2 0x1801 JUMP JUMPDEST PUSH2 0x1846 DUP7 DUP4 PUSH2 0x1801 JUMP JUMPDEST SWAP6 POP DUP1 NOT DUP5 AND SWAP4 POP DUP1 DUP7 AND DUP5 OR SWAP3 POP POP POP SWAP4 SWAP3 POP POP POP JUMP JUMPDEST PUSH0 DUP2 SWAP1 POP SWAP2 SWAP1 POP JUMP JUMPDEST PUSH0 PUSH2 0x1881 PUSH2 0x187C PUSH2 0x1877 DUP5 PUSH2 0x14E0 JUMP JUMPDEST PUSH2 0x185E JUMP JUMPDEST PUSH2 0x14E0 JUMP JUMPDEST SWAP1 POP SWAP2 SWAP1 POP JUMP JUMPDEST PUSH0 DUP2 SWAP1 POP SWAP2 SWAP1 POP JUMP JUMPDEST PUSH2 0x189A DUP4 PUSH2 0x1867 JUMP JUMPDEST PUSH2 0x18AE PUSH2 0x18A6 DUP3 PUSH2 0x1888 JUMP JUMPDEST DUP5 DUP5 SLOAD PUSH2 0x180D JUMP JUMPDEST DUP3 SSTORE POP POP POP POP JUMP JUMPDEST PUSH0 SWAP1 JUMP JUMPDEST PUSH2 0x18C2 PUSH2 0x18B6 JUMP JUMPDEST PUSH2 0x18CD DUP2 DUP5 DUP5 PUSH2 0x1891 JUMP JUMPDEST POP POP POP JUMP JUMPDEST JUMPDEST DUP2 DUP2 LT ISZERO PUSH2 0x18F0 JUMPI PUSH2 0x18E5 PUSH0 DUP3 PUSH2 0x18BA JUMP JUMPDEST PUSH1 0x1 DUP2 ADD SWAP1 POP PUSH2 0x18D3 JUMP JUMPDEST POP POP JUMP JUMPDEST PUSH1 0x1F DUP3 GT ISZERO PUSH2 0x1935 JUMPI PUSH2 0x1906 DUP2 PUSH2 0x17E0 JUMP JUMPDEST PUSH2 0x190F DUP5 PUSH2 0x17F2 JUMP JUMPDEST DUP2 ADD PUSH1 0x20 DUP6 LT ISZERO PUSH2 0x191E JUMPI DUP2 SWAP1 POP JUMPDEST PUSH2 0x1932 PUSH2 0x192A DUP6 PUSH2 0x17F2 JUMP JUMPDEST DUP4 ADD DUP3 PUSH2 0x18D2 JUMP JUMPDEST POP POP JUMPDEST POP POP POP JUMP JUMPDEST PUSH0 DUP3 DUP3 SHR SWAP1 POP SWAP3 SWAP2 POP POP JUMP JUMPDEST PUSH0 PUSH2 0x1955 PUSH0 NOT DUP5 PUSH1 0x8 MUL PUSH2 0x193A JUMP JUMPDEST NOT DUP1 DUP4 AND SWAP2 POP POP SWAP3 SWAP2 POP POP JUMP JUMPDEST PUSH0 PUSH2 0x196D DUP4 DUP4 PUSH2 0x1946 JUMP JUMPDEST SWAP2 POP DUP3 PUSH1 0x2 MUL DUP3 OR SWAP1 POP SWAP3 SWAP2 POP POP JUMP JUMPDEST PUSH2 0x1986 DUP3 PUSH2 0x1431 JUMP JUMPDEST PUSH8 0xFFFFFFFFFFFFFFFF DUP2 GT ISZERO PUSH2 0x199F JUMPI PUSH2 0x199E PUSH2 0x12C6 JUMP JUMPDEST JUMPDEST PUSH2 0x19A9 DUP3 SLOAD PUSH2 0x17B0 JUMP JUMPDEST PUSH2 0x19B4 DUP3 DUP3 DUP6 PUSH2 0x18F4 JUMP JUMPDEST PUSH0 PUSH1 0x20 SWAP1 POP PUSH1 0x1F DUP4 GT PUSH1 0x1 DUP2 EQ PUSH2 0x19E5 JUMPI PUSH0 DUP5 ISZERO PUSH2 0x19D3 JUMPI DUP3 DUP8 ADD MLOAD SWAP1 POP JUMPDEST PUSH2 0x19DD DUP6 DUP3 PUSH2 0x1962 JUMP JUMPDEST DUP7 SSTORE POP PUSH2 0x1A44 JUMP JUMPDEST PUSH1 0x1F NOT DUP5 AND PUSH2 0x19F3 DUP7 PUSH2 0x17E0 JUMP JUMPDEST PUSH0 JUMPDEST DUP3 DUP2 LT ISZERO PUSH2 0x1A1A JUMPI DUP5 DUP10 ADD MLOAD DUP3 SSTORE PUSH1 0x1 DUP3 ADD SWAP2 POP PUSH1 0x20 DUP6 ADD SWAP5 POP PUSH1 0x20 DUP2 ADD SWAP1 POP PUSH2 0x19F5 JUMP JUMPDEST DUP7 DUP4 LT ISZERO PUSH2 0x1A37 JUMPI DUP5 DUP10 ADD MLOAD PUSH2 0x1A33 PUSH1 0x1F DUP10 AND DUP3 PUSH2 0x1946 JUMP JUMPDEST DUP4 SSTORE POP JUMPDEST PUSH1 0x1 PUSH1 0x2 DUP9 MUL ADD DUP9 SSTORE POP POP POP JUMPDEST POP POP POP POP POP POP JUMP JUMPDEST PUSH0 DUP2 SWAP1 POP DUP2 PUSH0 MSTORE PUSH1 0x20 PUSH0 KECCAK256 SWAP1 POP SWAP2 SWAP1 POP JUMP JUMPDEST PUSH1 0x1F DUP3 GT ISZERO PUSH2 0x1A9F JUMPI PUSH2 0x1A70 DUP2 PUSH2 0x1A4C JUMP JUMPDEST PUSH2 0x1A79 DUP5 PUSH2 0x17F2 JUMP JUMPDEST DUP2 ADD PUSH1 0x20 DUP6 LT ISZERO PUSH2 0x1A88 JUMPI DUP2 SWAP1 POP JUMPDEST PUSH2 0x1A9C PUSH2 0x1A94 DUP6 PUSH2 0x17F2 JUMP JUMPDEST DUP4 ADD DUP3 PUSH2 0x18D2 JUMP JUMPDEST POP POP JUMPDEST POP POP POP JUMP JUMPDEST PUSH2 0x1AAD DUP3 PUSH2 0x153E JUMP JUMPDEST PUSH8 0xFFFFFFFFFFFFFFFF DUP2 GT ISZERO PUSH2 0x1AC6 JUMPI PUSH2 0x1AC5 PUSH2 0x12C6 JUMP JUMPDEST JUMPDEST PUSH2 0x1AD0 DUP3 SLOAD PUSH2 0x17B0 JUMP JUMPDEST PUSH2 0x1ADB DUP3 DUP3 DUP6 PUSH2 0x1A5E JUMP JUMPDEST PUSH0 PUSH1 0x20 SWAP1 POP PUSH1 0x1F DUP4 GT PUSH1 0x1 DUP2 EQ PUSH2 0x1B0C JUMPI PUSH0 DUP5 ISZERO PUSH2 0x1AFA JUMPI DUP3 DUP8 ADD MLOAD SWAP1 POP JUMPDEST PUSH2 0x1B04 DUP6 DUP3 PUSH2 0x1962 JUMP JUMPDEST DUP7 SSTORE POP PUSH2 0x1B6B JUMP JUMPDEST PUSH1 0x1F NOT DUP5 AND PUSH2 0x1B1A DUP7 PUSH2 0x1A4C JUMP JUMPDEST PUSH0 JUMPDEST DUP3 DUP2 LT ISZERO PUSH2 0x1B41 JUMPI DUP5 DUP10 ADD MLOAD DUP3 SSTORE PUSH1 0x1 DUP3 ADD SWAP2 POP PUSH1 0x20 DUP6 ADD SWAP5 POP PUSH1 0x20 DUP2 ADD SWAP1 POP PUSH2 0x1B1C JUMP JUMPDEST DUP7 DUP4 LT ISZERO PUSH2 0x1B5E JUMPI DUP5 DUP10 ADD MLOAD PUSH2 0x1B5A PUSH1 0x1F DUP10 AND DUP3 PUSH2 0x1946 JUMP JUMPDEST DUP4 SSTORE POP JUMPDEST PUSH1 0x1 PUSH1 0x2 DUP9 MUL ADD DUP9 SSTORE POP POP POP JUMPDEST POP POP POP POP POP POP JUMP JUMPDEST PUSH32 0x4E487B7100000000000000000000000000000000000000000000000000000000 PUSH0 MSTORE PUSH1 0x11 PUSH1 0x4 MSTORE PUSH1 0x24 PUSH0 REVERT JUMPDEST PUSH0 PUSH2 0x1BAA DUP3 PUSH2 0x14E0 JUMP JUMPDEST SWAP2 POP PUSH2 0x1BB5 DUP4 PUSH2 0x14E0 JUMP JUMPDEST SWAP3 POP DUP3 DUP3 SUB SWAP1 POP DUP2 DUP2 GT ISZERO PUSH2 0x1BCD JUMPI PUSH2 0x1BCC PUSH2 0x1B73 JUMP JUMPDEST JUMPDEST SWAP3 SWAP2 POP POP JUMP JUMPDEST PUSH32 0x4E487B7100000000000000000000000000000000000000000000000000000000 PUSH0 MSTORE PUSH1 0x32 PUSH1 0x4 MSTORE PUSH1 0x24 PUSH0 REVERT JUMPDEST PUSH0 PUSH2 0x1C0A DUP3 PUSH2 0x14E0 JUMP JUMPDEST SWAP2 POP PUSH32 0xFFFFFFFFFFFFFFFFFFFFFFFFFFFFFFFFFFFFFFFFFFFFFFFFFFFFFFFFFFFFFFFF DUP3 SUB PUSH2 0x1C3C JUMPI PUSH2 0x1C3B PUSH2 0x1B73 JUMP JUMPDEST JUMPDEST PUSH1 0x1 DUP3 ADD SWAP1 POP SWAP2 SWAP1 POP JUMP JUMPDEST PUSH0 PUSH2 0x1C51 DUP3 PUSH2 0x14E0 JUMP JUMPDEST SWAP2 POP PUSH0 DUP3 SUB PUSH2 0x1C63 JUMPI PUSH2 0x1C62 PUSH2 0x1B73 JUMP JUMPDEST JUMPDEST PUSH1 0x1 DUP3 SUB SWAP1 POP SWAP2 SWAP1 POP JUMP JUMPDEST PUSH0 DUP3 DUP3 MSTORE PUSH1 0x20 DUP3 ADD SWAP1 POP SWAP3 SWAP2 POP POP JUMP JUMPDEST PUSH0 PUSH2 0x1C88 DUP3 PUSH2 0x153E JUMP JUMPDEST PUSH2 0x1C92 DUP2 DUP6 PUSH2 0x1C6E JUMP JUMPDEST SWAP4 POP PUSH2 0x1CA2 DUP2 DUP6 PUSH1 0x20 DUP7 ADD PUSH2 0x144B JUMP JUMPDEST PUSH2 0x1CAB DUP2 PUSH2 0x12B6 JUMP JUMPDEST DUP5 ADD SWAP2 POP POP SWAP3 SWAP2 POP POP JUMP JUMPDEST PUSH2 0x1CBF DUP2 PUSH2 0x14E0 JUMP JUMPDEST DUP3 MSTORE POP POP JUMP JUMPDEST PUSH0 PUSH1 0x40 DUP3 ADD SWAP1 POP DUP2 DUP2 SUB PUSH0 DUP4 ADD MSTORE PUSH2 0x1CDD DUP2 DUP6 PUSH2 0x1C7E JUMP JUMPDEST SWAP1 POP PUSH2 0x1CEC PUSH1 0x20 DUP4 ADD DUP5 PUSH2 0x1CB6 JUMP JUMPDEST SWAP4 SWAP3 POP POP POP JUMP JUMPDEST PUSH0 PUSH8 0xFFFFFFFFFFFFFFFF DUP3 GT ISZERO PUSH2 0x1D0D JUMPI PUSH2 0x1D0C PUSH2 0x12C6 JUMP JUMPDEST JUMPDEST PUSH2 0x1D16 DUP3 PUSH2 0x12B6 JUMP JUMPDEST SWAP1 POP PUSH1 0x20 DUP2 ADD SWAP1 POP SWAP2 SWAP1 POP JUMP JUMPDEST PUSH0 PUSH2 0x1D35 PUSH2 0x1D30 DUP5 PUSH2 0x1CF3 JUMP JUMPDEST PUSH2 0x1324 JUMP JUMPDEST SWAP1 POP DUP3 DUP2 MSTORE PUSH1 0x20 DUP2 ADD DUP5 DUP5 DUP5 ADD GT ISZERO PUSH2 0x1D51 JUMPI PUSH2 0x1D50 PUSH2 0x12B2 JUMP JUMPDEST JUMPDEST PUSH2 0x1D5C DUP5 DUP3 DUP6 PUSH2 0x144B JUMP JUMPDEST POP SWAP4 SWAP3 POP POP POP JUMP JUMPDEST PUSH0 DUP3 PUSH1 0x1F DUP4 ADD SLT PUSH2 0x1D78 JUMPI PUSH2 0x1D77 PUSH2 0x114C JUMP JUMPDEST JUMPDEST DUP2 MLOAD PUSH2 0x1D88 DUP5 DUP3 PUSH1 0x20 DUP7 ADD PUSH2 0x1D23 JUMP JUMPDEST SWAP2 POP POP SWAP3 SWAP2 POP POP JUMP JUMPDEST PUSH0 PUSH1 0x20 DUP3 DUP5 SUB SLT ISZERO PUSH2 0x1DA6 JUMPI PUSH2 0x1DA5 PUSH2 0x1144 JUMP JUMPDEST JUMPDEST PUSH0 DUP3 ADD MLOAD PUSH8 0xFFFFFFFFFFFFFFFF DUP2 GT ISZERO PUSH2 0x1DC3 JUMPI PUSH2 0x1DC2 PUSH2 0x1148 JUMP JUMPDEST JUMPDEST PUSH2 0x1DCF DUP5 DUP3 DUP6 ADD PUSH2 0x1D64 JUMP JUMPDEST SWAP2 POP POP SWAP3 SWAP2 POP POP JUMP JUMPDEST PUSH0 PUSH1 0x20 DUP3 ADD SWAP1 POP DUP2 DUP2 SUB PUSH0 DUP4 ADD MSTORE PUSH2 0x1DF0 DUP2 DUP5 PUSH2 0x1C7E JUMP JUMPDEST SWAP1 POP SWAP3 SWAP2 POP POP JUMP JUMPDEST PUSH0 PUSH2 0x1E02 DUP3 PUSH2 0x14E0 JUMP JUMPDEST SWAP2 POP PUSH2 0x1E0D DUP4 PUSH2 0x14E0 JUMP JUMPDEST SWAP3 POP DUP3 DUP3 ADD SWAP1 POP DUP1 DUP3 GT ISZERO PUSH2 0x1E25 JUMPI PUSH2 0x1E24 PUSH2 0x1B73 JUMP JUMPDEST JUMPDEST SWAP3 SWAP2 POP POP JUMP JUMPDEST PUSH32 0x4E487B7100000000000000000000000000000000000000000000000000000000 PUSH0 MSTORE PUSH1 0x12 PUSH1 0x4 MSTORE PUSH1 0x24 PUSH0 REVERT INVALID LOG2 PUSH5 0x6970667358 0x22 SLT KECCAK256 0xB6 0xEF AND PUSH6 0xE1AF8FA8C19E PUSH12 0x357B80368AB53C3B1A1DFE8B 0xC7 RETURN 0x4F 0xBA MSIZE DUP6 SELFDESTRUCT SELFDESTRUCT BASEFEE PUSH5 0x736F6C6343 STOP ADDMOD EQ STOP CALLER "
				},
				"gasEstimates": {
					"creation": {
						"codeDepositCost": "1564400",
						"executionCost": "1636",
						"totalCost": "1566036"
					},
					"external": {
						"FileFrames(uint256)": "infinite",
						"directoryProcess(string)": "infinite",
						"fileNameProcess(string)": "infinite",
						"uploadFile(string,string,bytes)": "infinite"
					},
					"internal": {
						"getNewId()": "infinite"
					}
				},
				"methodIdentifiers": {
					"FileFrames(uint256)": "4ce185ec",
					"directoryProcess(string)": "95b5e559",
					"fileNameProcess(string)": "3b594fcc",
					"uploadFile(string,string,bytes)": "09f1cffc"
				}
			},
			"storageLayout": {
				"storage": [
					{
						"astId": 1382,
						"contract": "Week1/X7Opsilon.sol:X7Opsilon",
						"label": "FileFrames",
						"offset": 0,
						"slot": "0",
						"type": "t_array(t_struct(FileFrame)1378_storage)dyn_storage"
					}
				],
				"types": {
					"t_array(t_struct(FileFrame)1378_storage)dyn_storage": {
						"base": "t_struct(FileFrame)1378_storage",
						"encoding": "dynamic_array",
						"label": "struct X7Opsilon.FileFrame[]",
						"numberOfBytes": "32"
					},
					"t_bytes_storage": {
						"encoding": "bytes",
						"label": "bytes",
						"numberOfBytes": "32"
					},
					"t_string_storage": {
						"encoding": "bytes",
						"label": "string",
						"numberOfBytes": "32"
					},
					"t_struct(FileFrame)1378_storage": {
						"encoding": "inplace",
						"label": "struct X7Opsilon.FileFrame",
						"members": [
							{
								"astId": 1365,
								"contract": "Week1/X7Opsilon.sol:X7Opsilon",
								"label": "Id",
								"offset": 0,
								"slot": "0",
								"type": "t_string_storage"
							},
							{
								"astId": 1367,
								"contract": "Week1/X7Opsilon.sol:X7Opsilon",
								"label": "Name",
								"offset": 0,
								"slot": "1",
								"type": "t_string_storage"
							},
							{
								"astId": 1369,
								"contract": "Week1/X7Opsilon.sol:X7Opsilon",
								"label": "Extension",
								"offset": 0,
								"slot": "2",
								"type": "t_string_storage"
							},
							{
								"astId": 1371,
								"contract": "Week1/X7Opsilon.sol:X7Opsilon",
								"label": "FileData",
								"offset": 0,
								"slot": "3",
								"type": "t_bytes_storage"
							},
							{
								"astId": 1373,
								"contract": "Week1/X7Opsilon.sol:X7Opsilon",
								"label": "Directory",
								"offset": 0,
								"slot": "4",
								"type": "t_string_storage"
							},
							{
								"astId": 1375,
								"contract": "Week1/X7Opsilon.sol:X7Opsilon",
								"label": "DirectoryCount",
								"offset": 0,
								"slot": "5",
								"type": "t_uint256"
							},
							{
								"astId": 1377,
								"contract": "Week1/X7Opsilon.sol:X7Opsilon",
								"label": "DirectoryLength",
								"offset": 0,
								"slot": "6",
								"type": "t_uint256"
							}
						],
						"numberOfBytes": "224"
					},
					"t_uint256": {
						"encoding": "inplace",
						"label": "uint256",
						"numberOfBytes": "32"
					}
				}
			},
			"userdoc": {
				"kind": "user",
				"methods": {},
				"version": 1
			}
		}
	}
}